{
	"contracts/Fvkry.sol": {
		"Fvkry": {
			"abi": [
				{
					"inputs": [],
					"stateMutability": "nonpayable",
					"type": "constructor"
				},
				{
					"inputs": [
						{
							"internalType": "address",
							"name": "owner",
							"type": "address"
						}
					],
					"name": "OwnableInvalidOwner",
					"type": "error"
				},
				{
					"inputs": [
						{
							"internalType": "address",
							"name": "account",
							"type": "address"
						}
					],
					"name": "OwnableUnauthorizedAccount",
					"type": "error"
				},
				{
					"inputs": [],
					"name": "ReentrancyGuardReentrantCall",
					"type": "error"
				},
				{
					"inputs": [
						{
							"internalType": "address",
							"name": "token",
							"type": "address"
						}
					],
					"name": "SafeERC20FailedOperation",
					"type": "error"
				},
				{
					"anonymous": false,
					"inputs": [
						{
							"indexed": true,
							"internalType": "address",
							"name": "token",
							"type": "address"
						},
						{
							"indexed": false,
							"internalType": "uint256",
							"name": "amount",
							"type": "uint256"
						},
						{
							"indexed": false,
							"internalType": "string",
							"name": "title",
							"type": "string"
						},
						{
							"indexed": false,
							"internalType": "uint8",
							"name": "vault",
							"type": "uint8"
						},
						{
							"indexed": false,
							"internalType": "uint256",
							"name": "timestamp",
							"type": "uint256"
						}
					],
					"name": "AssetAdded",
					"type": "event"
				},
				{
					"anonymous": false,
					"inputs": [
						{
							"indexed": true,
							"internalType": "address",
							"name": "token",
							"type": "address"
						},
						{
							"indexed": false,
							"internalType": "uint256",
							"name": "amount",
							"type": "uint256"
						},
						{
							"indexed": false,
							"internalType": "string",
							"name": "title",
							"type": "string"
						},
						{
							"indexed": false,
							"internalType": "uint8",
							"name": "vault",
							"type": "uint8"
						},
						{
							"indexed": false,
							"internalType": "uint256",
							"name": "lockEndTime",
							"type": "uint256"
						},
						{
							"indexed": false,
							"internalType": "uint256",
							"name": "timestamp",
							"type": "uint256"
						}
					],
					"name": "AssetLocked",
					"type": "event"
				},
				{
					"anonymous": false,
					"inputs": [
						{
							"indexed": true,
							"internalType": "address",
							"name": "token",
							"type": "address"
						},
						{
							"indexed": false,
							"internalType": "uint256",
							"name": "amount",
							"type": "uint256"
						},
						{
							"indexed": false,
							"internalType": "string",
							"name": "title",
							"type": "string"
						},
						{
							"indexed": false,
							"internalType": "uint8",
							"name": "vault",
							"type": "uint8"
						},
						{
							"indexed": false,
							"internalType": "uint256",
							"name": "timestamp",
							"type": "uint256"
						}
					],
					"name": "AssetTransfered",
					"type": "event"
				},
				{
					"anonymous": false,
					"inputs": [
						{
							"indexed": true,
							"internalType": "address",
							"name": "token",
							"type": "address"
						},
						{
							"indexed": false,
							"internalType": "uint8",
							"name": "vault",
							"type": "uint8"
						},
						{
							"indexed": false,
							"internalType": "uint256",
							"name": "lockperiod",
							"type": "uint256"
						},
						{
							"indexed": false,
							"internalType": "string",
							"name": "title",
							"type": "string"
						},
						{
							"indexed": false,
							"internalType": "uint256",
							"name": "timestamp",
							"type": "uint256"
						}
					],
					"name": "LockPeriodExtended",
					"type": "event"
				},
				{
					"anonymous": false,
					"inputs": [
						{
							"indexed": true,
							"internalType": "address",
							"name": "previousOwner",
							"type": "address"
						},
						{
							"indexed": true,
							"internalType": "address",
							"name": "newOwner",
							"type": "address"
						}
					],
					"name": "OwnershipTransferred",
					"type": "event"
				},
				{
					"inputs": [
						{
							"internalType": "uint8",
							"name": "_vault",
							"type": "uint8"
						},
						{
							"internalType": "uint32",
							"name": "_assetID",
							"type": "uint32"
						}
					],
					"name": "addToLockedETH",
					"outputs": [],
					"stateMutability": "payable",
					"type": "function"
				},
				{
					"inputs": [
						{
							"internalType": "contract IERC20",
							"name": "_token",
							"type": "address"
						},
						{
							"internalType": "uint32",
							"name": "_assetID",
							"type": "uint32"
						},
						{
							"internalType": "uint256",
							"name": "_amount",
							"type": "uint256"
						},
						{
							"internalType": "uint8",
							"name": "_vault",
							"type": "uint8"
						}
					],
					"name": "addToLockedTokens",
					"outputs": [],
					"stateMutability": "nonpayable",
					"type": "function"
				},
				{
					"inputs": [
						{
							"internalType": "uint32",
							"name": "_assetID",
							"type": "uint32"
						},
						{
							"internalType": "uint8",
							"name": "_vault",
							"type": "uint8"
						},
						{
							"internalType": "uint256",
							"name": "_lockperiod",
							"type": "uint256"
						}
					],
					"name": "extendLockPeriod",
					"outputs": [],
					"stateMutability": "nonpayable",
					"type": "function"
				},
				{
					"inputs": [],
					"name": "getContractETHBalance",
					"outputs": [
						{
							"internalType": "uint256",
							"name": "",
							"type": "uint256"
						}
					],
					"stateMutability": "view",
					"type": "function"
				},
				{
					"inputs": [
						{
							"internalType": "contract IERC20",
							"name": "token",
							"type": "address"
						}
					],
					"name": "getContractTokenBalance",
					"outputs": [
						{
							"internalType": "uint256",
							"name": "",
							"type": "uint256"
						}
					],
					"stateMutability": "view",
					"type": "function"
				},
				{
					"inputs": [
						{
							"internalType": "uint8",
							"name": "_vault",
							"type": "uint8"
						}
					],
					"name": "getUserLocks",
					"outputs": [
						{
							"components": [
								{
									"internalType": "address",
									"name": "token",
									"type": "address"
								},
								{
									"internalType": "uint256",
									"name": "amount",
									"type": "uint256"
								},
								{
									"internalType": "uint256",
									"name": "lockEndTime",
									"type": "uint256"
								},
								{
									"internalType": "string",
									"name": "title",
									"type": "string"
								},
								{
									"internalType": "bool",
									"name": "withdrawn",
									"type": "bool"
								},
								{
									"internalType": "bool",
									"name": "isNative",
									"type": "bool"
								}
							],
							"internalType": "struct Fvkry.Lock[]",
							"name": "",
							"type": "tuple[]"
						}
					],
					"stateMutability": "view",
					"type": "function"
				},
				{
					"inputs": [
						{
							"internalType": "uint8",
							"name": "_vault",
							"type": "uint8"
						},
						{
							"internalType": "uint256",
							"name": "_lockperiod",
							"type": "uint256"
						},
						{
							"internalType": "string",
							"name": "_title",
							"type": "string"
						}
					],
					"name": "lockETH",
					"outputs": [],
					"stateMutability": "payable",
					"type": "function"
				},
				{
					"inputs": [
						{
							"internalType": "contract IERC20",
							"name": "_token",
							"type": "address"
						},
						{
							"internalType": "uint256",
							"name": "_amount",
							"type": "uint256"
						},
						{
							"internalType": "uint8",
							"name": "_vault",
							"type": "uint8"
						},
						{
							"internalType": "uint256",
							"name": "_lockperiod",
							"type": "uint256"
						},
						{
							"internalType": "string",
							"name": "_title",
							"type": "string"
						}
					],
					"name": "lockToken",
					"outputs": [],
					"stateMutability": "nonpayable",
					"type": "function"
				},
				{
					"inputs": [],
					"name": "owner",
					"outputs": [
						{
							"internalType": "address",
							"name": "",
							"type": "address"
						}
					],
					"stateMutability": "view",
					"type": "function"
				},
				{
					"inputs": [],
					"name": "renounceOwnership",
					"outputs": [],
					"stateMutability": "nonpayable",
					"type": "function"
				},
				{
					"inputs": [
						{
							"internalType": "uint32",
							"name": "_assetId",
							"type": "uint32"
						},
						{
							"internalType": "uint8",
							"name": "_vault",
							"type": "uint8"
						},
						{
							"internalType": "uint256",
							"name": "_amount",
							"type": "uint256"
						}
					],
					"name": "transferAsset",
					"outputs": [],
					"stateMutability": "nonpayable",
					"type": "function"
				},
				{
					"inputs": [
						{
							"internalType": "address",
							"name": "newOwner",
							"type": "address"
						}
					],
					"name": "transferOwnership",
					"outputs": [],
					"stateMutability": "nonpayable",
					"type": "function"
				},
				{
					"inputs": [
						{
							"internalType": "address",
							"name": "",
							"type": "address"
						},
						{
							"internalType": "uint8",
							"name": "",
							"type": "uint8"
						},
						{
							"internalType": "uint256",
							"name": "",
							"type": "uint256"
						}
					],
					"name": "userLockedAssets",
					"outputs": [
						{
							"internalType": "address",
							"name": "token",
							"type": "address"
						},
						{
							"internalType": "uint256",
							"name": "amount",
							"type": "uint256"
						},
						{
							"internalType": "uint256",
							"name": "lockEndTime",
							"type": "uint256"
						},
						{
							"internalType": "string",
							"name": "title",
							"type": "string"
						},
						{
							"internalType": "bool",
							"name": "withdrawn",
							"type": "bool"
						},
						{
							"internalType": "bool",
							"name": "isNative",
							"type": "bool"
						}
					],
					"stateMutability": "view",
					"type": "function"
				}
			],
			"devdoc": {
				"errors": {
					"OwnableInvalidOwner(address)": [
						{
							"details": "The owner is not a valid owner account. (eg. `address(0)`)"
						}
					],
					"OwnableUnauthorizedAccount(address)": [
						{
							"details": "The caller account is not authorized to perform an operation."
						}
					],
					"ReentrancyGuardReentrantCall()": [
						{
							"details": "Unauthorized reentrant call."
						}
					],
					"SafeERC20FailedOperation(address)": [
						{
							"details": "An operation with an ERC-20 token failed."
						}
					]
				},
				"kind": "dev",
				"methods": {
					"owner()": {
						"details": "Returns the address of the current owner."
					},
					"renounceOwnership()": {
						"details": "Leaves the contract without owner. It will not be possible to call `onlyOwner` functions. Can only be called by the current owner. NOTE: Renouncing ownership will leave the contract without an owner, thereby disabling any functionality that is only available to the owner."
					},
					"transferOwnership(address)": {
						"details": "Transfers ownership of the contract to a new account (`newOwner`). Can only be called by the current owner."
					}
				},
				"version": 1
			},
			"evm": {
				"assembly": "    /* \"contracts/Fvkry.sol\":305:6581  contract Fvkry is Ownable, ReentrancyGuard {... */\n  mstore(0x40, 0x80)\n    /* \"contracts/Fvkry.sol\":1141:1177  constructor() Ownable(msg.sender) {} */\n  callvalue\n  dup1\n  iszero\n  tag_1\n  jumpi\n  0x00\n  dup1\n  revert\ntag_1:\n  pop\n    /* \"contracts/Fvkry.sol\":1163:1173  msg.sender */\n  caller\n    /* \"@openzeppelin/contracts/access/Ownable.sol\":1297:1298  0 */\n  0x00\n    /* \"@openzeppelin/contracts/access/Ownable.sol\":1273:1299  initialOwner == address(0) */\n  0xffffffffffffffffffffffffffffffffffffffff\n  and\n    /* \"@openzeppelin/contracts/access/Ownable.sol\":1273:1285  initialOwner */\n  dup2\n    /* \"@openzeppelin/contracts/access/Ownable.sol\":1273:1299  initialOwner == address(0) */\n  0xffffffffffffffffffffffffffffffffffffffff\n  and\n  sub\n    /* \"@openzeppelin/contracts/access/Ownable.sol\":1269:1364  if (initialOwner == address(0)) {... */\n  tag_6\n  jumpi\n    /* \"@openzeppelin/contracts/access/Ownable.sol\":1350:1351  0 */\n  0x00\n    /* \"@openzeppelin/contracts/access/Ownable.sol\":1322:1353  OwnableInvalidOwner(address(0)) */\n  mload(0x40)\n  0x1e4fbdf700000000000000000000000000000000000000000000000000000000\n  dup2\n  mstore\n  0x04\n  add\n  tag_7\n  swap2\n  swap1\n  tag_8\n  jump\t// in\ntag_7:\n  mload(0x40)\n  dup1\n  swap2\n  sub\n  swap1\n  revert\n    /* \"@openzeppelin/contracts/access/Ownable.sol\":1269:1364  if (initialOwner == address(0)) {... */\ntag_6:\n    /* \"@openzeppelin/contracts/access/Ownable.sol\":1373:1405  _transferOwnership(initialOwner) */\n  tag_9\n    /* \"@openzeppelin/contracts/access/Ownable.sol\":1392:1404  initialOwner */\n  dup2\n    /* \"@openzeppelin/contracts/access/Ownable.sol\":1373:1391  _transferOwnership */\n  shl(0x20, tag_10)\n    /* \"@openzeppelin/contracts/access/Ownable.sol\":1373:1405  _transferOwnership(initialOwner) */\n  0x20\n  shr\n  jump\t// in\ntag_9:\n    /* \"@openzeppelin/contracts/access/Ownable.sol\":1225:1412  constructor(address initialOwner) {... */\n  pop\n    /* \"@openzeppelin/contracts/utils/ReentrancyGuard.sol\":1857:1858  1 */\n  0x01\n    /* \"@openzeppelin/contracts/utils/ReentrancyGuard.sol\":2061:2068  _status */\n  dup1\n    /* \"@openzeppelin/contracts/utils/ReentrancyGuard.sol\":2061:2082  _status = NOT_ENTERED */\n  dup2\n  swap1\n  sstore\n  pop\n    /* \"contracts/Fvkry.sol\":305:6581  contract Fvkry is Ownable, ReentrancyGuard {... */\n  jump(tag_13)\n    /* \"@openzeppelin/contracts/access/Ownable.sol\":2912:3099  function _transferOwnership(address newOwner) internal virtual {... */\ntag_10:\n    /* \"@openzeppelin/contracts/access/Ownable.sol\":2985:3001  address oldOwner */\n  0x00\n    /* \"@openzeppelin/contracts/access/Ownable.sol\":3004:3010  _owner */\n  dup1\n  0x00\n  swap1\n  sload\n  swap1\n  0x0100\n  exp\n  swap1\n  div\n  0xffffffffffffffffffffffffffffffffffffffff\n  and\n    /* \"@openzeppelin/contracts/access/Ownable.sol\":2985:3010  address oldOwner = _owner */\n  swap1\n  pop\n    /* \"@openzeppelin/contracts/access/Ownable.sol\":3029:3037  newOwner */\n  dup2\n    /* \"@openzeppelin/contracts/access/Ownable.sol\":3020:3026  _owner */\n  0x00\n  dup1\n    /* \"@openzeppelin/contracts/access/Ownable.sol\":3020:3037  _owner = newOwner */\n  0x0100\n  exp\n  dup2\n  sload\n  dup2\n  0xffffffffffffffffffffffffffffffffffffffff\n  mul\n  not\n  and\n  swap1\n  dup4\n  0xffffffffffffffffffffffffffffffffffffffff\n  and\n  mul\n  or\n  swap1\n  sstore\n  pop\n    /* \"@openzeppelin/contracts/access/Ownable.sol\":3083:3091  newOwner */\n  dup2\n    /* \"@openzeppelin/contracts/access/Ownable.sol\":3052:3092  OwnershipTransferred(oldOwner, newOwner) */\n  0xffffffffffffffffffffffffffffffffffffffff\n  and\n    /* \"@openzeppelin/contracts/access/Ownable.sol\":3073:3081  oldOwner */\n  dup2\n    /* \"@openzeppelin/contracts/access/Ownable.sol\":3052:3092  OwnershipTransferred(oldOwner, newOwner) */\n  0xffffffffffffffffffffffffffffffffffffffff\n  and\n  0x8be0079c531659141344cd1fd0a4f28419497f9722a3daafe3b4186f6b6457e0\n  mload(0x40)\n  mload(0x40)\n  dup1\n  swap2\n  sub\n  swap1\n  log3\n    /* \"@openzeppelin/contracts/access/Ownable.sol\":2975:3099  {... */\n  pop\n    /* \"@openzeppelin/contracts/access/Ownable.sol\":2912:3099  function _transferOwnership(address newOwner) internal virtual {... */\n  pop\n  jump\t// out\n    /* \"#utility.yul\":7:133   */\ntag_15:\n    /* \"#utility.yul\":44:51   */\n  0x00\n    /* \"#utility.yul\":84:126   */\n  0xffffffffffffffffffffffffffffffffffffffff\n    /* \"#utility.yul\":77:82   */\n  dup3\n    /* \"#utility.yul\":73:127   */\n  and\n    /* \"#utility.yul\":62:127   */\n  swap1\n  pop\n    /* \"#utility.yul\":7:133   */\n  swap2\n  swap1\n  pop\n  jump\t// out\n    /* \"#utility.yul\":139:235   */\ntag_16:\n    /* \"#utility.yul\":176:183   */\n  0x00\n    /* \"#utility.yul\":205:229   */\n  tag_21\n    /* \"#utility.yul\":223:228   */\n  dup3\n    /* \"#utility.yul\":205:229   */\n  tag_15\n  jump\t// in\ntag_21:\n    /* \"#utility.yul\":194:229   */\n  swap1\n  pop\n    /* \"#utility.yul\":139:235   */\n  swap2\n  swap1\n  pop\n  jump\t// out\n    /* \"#utility.yul\":241:359   */\ntag_17:\n    /* \"#utility.yul\":328:352   */\n  tag_23\n    /* \"#utility.yul\":346:351   */\n  dup2\n    /* \"#utility.yul\":328:352   */\n  tag_16\n  jump\t// in\ntag_23:\n    /* \"#utility.yul\":323:326   */\n  dup3\n    /* \"#utility.yul\":316:353   */\n  mstore\n    /* \"#utility.yul\":241:359   */\n  pop\n  pop\n  jump\t// out\n    /* \"#utility.yul\":365:587   */\ntag_8:\n    /* \"#utility.yul\":458:462   */\n  0x00\n    /* \"#utility.yul\":496:498   */\n  0x20\n    /* \"#utility.yul\":485:494   */\n  dup3\n    /* \"#utility.yul\":481:499   */\n  add\n    /* \"#utility.yul\":473:499   */\n  swap1\n  pop\n    /* \"#utility.yul\":509:580   */\n  tag_25\n    /* \"#utility.yul\":577:578   */\n  0x00\n    /* \"#utility.yul\":566:575   */\n  dup4\n    /* \"#utility.yul\":562:579   */\n  add\n    /* \"#utility.yul\":553:559   */\n  dup5\n    /* \"#utility.yul\":509:580   */\n  tag_17\n  jump\t// in\ntag_25:\n    /* \"#utility.yul\":365:587   */\n  swap3\n  swap2\n  pop\n  pop\n  jump\t// out\n    /* \"contracts/Fvkry.sol\":305:6581  contract Fvkry is Ownable, ReentrancyGuard {... */\ntag_13:\n  dataSize(sub_0)\n  dup1\n  dataOffset(sub_0)\n  0x00\n  codecopy\n  0x00\n  return\nstop\n\nsub_0: assembly {\n        /* \"contracts/Fvkry.sol\":305:6581  contract Fvkry is Ownable, ReentrancyGuard {... */\n      mstore(0x40, 0x80)\n      jumpi(tag_1, lt(calldatasize, 0x04))\n      shr(0xe0, calldataload(0x00))\n      dup1\n      0x8c89a0ad\n      gt\n      tag_15\n      jumpi\n      dup1\n      0x8e06b906\n      gt\n      tag_16\n      jumpi\n      dup1\n      0x8e06b906\n      eq\n      tag_11\n      jumpi\n      dup1\n      0x9e6c3ff2\n      eq\n      tag_12\n      jumpi\n      dup1\n      0xecaa9d05\n      eq\n      tag_13\n      jumpi\n      dup1\n      0xf2fde38b\n      eq\n      tag_14\n      jumpi\n      jump(tag_1)\n    tag_16:\n      dup1\n      0x8c89a0ad\n      eq\n      tag_8\n      jumpi\n      dup1\n      0x8da5cb5b\n      eq\n      tag_9\n      jumpi\n      dup1\n      0x8de8107b\n      eq\n      tag_10\n      jumpi\n      jump(tag_1)\n    tag_15:\n      dup1\n      0x0f1419b5\n      eq\n      tag_2\n      jumpi\n      dup1\n      0x13a2e884\n      eq\n      tag_3\n      jumpi\n      dup1\n      0x14205e28\n      eq\n      tag_4\n      jumpi\n      dup1\n      0x2d8fefc2\n      eq\n      tag_5\n      jumpi\n      dup1\n      0x3b958c38\n      eq\n      tag_6\n      jumpi\n      dup1\n      0x715018a6\n      eq\n      tag_7\n      jumpi\n    tag_1:\n      0x00\n      dup1\n      revert\n        /* \"contracts/Fvkry.sol\":2408:3507  function lockToken (IERC20 _token, uint256 _amount, uint8 _vault, uint256 _lockperiod, string memory _title) external nonReentrant {... */\n    tag_2:\n      callvalue\n      dup1\n      iszero\n      tag_17\n      jumpi\n      0x00\n      dup1\n      revert\n    tag_17:\n      pop\n      tag_18\n      0x04\n      dup1\n      calldatasize\n      sub\n      dup2\n      add\n      swap1\n      tag_19\n      swap2\n      swap1\n      tag_20\n      jump\t// in\n    tag_19:\n      tag_21\n      jump\t// in\n    tag_18:\n      stop\n        /* \"contracts/Fvkry.sol\":1201:1931  function lockETH(uint8 _vault, uint256 _lockperiod, string memory _title) external payable nonReentrant {... */\n    tag_3:\n      tag_22\n      0x04\n      dup1\n      calldatasize\n      sub\n      dup2\n      add\n      swap1\n      tag_23\n      swap2\n      swap1\n      tag_24\n      jump\t// in\n    tag_23:\n      tag_25\n      jump\t// in\n    tag_22:\n      stop\n        /* \"contracts/Fvkry.sol\":5512:5647  function getContractTokenBalance(IERC20 token) external view returns (uint256) {... */\n    tag_4:\n      callvalue\n      dup1\n      iszero\n      tag_26\n      jumpi\n      0x00\n      dup1\n      revert\n    tag_26:\n      pop\n      tag_27\n      0x04\n      dup1\n      calldatasize\n      sub\n      dup2\n      add\n      swap1\n      tag_28\n      swap2\n      swap1\n      tag_29\n      jump\t// in\n    tag_28:\n      tag_30\n      jump\t// in\n    tag_27:\n      mload(0x40)\n      tag_31\n      swap2\n      swap1\n      tag_32\n      jump\t// in\n    tag_31:\n      mload(0x40)\n      dup1\n      swap2\n      sub\n      swap1\n      return\n        /* \"contracts/Fvkry.sol\":3515:4150  function addToLockedTokens(IERC20 _token, uint32 _assetID, uint256 _amount, uint8 _vault) external  nonReentrant {... */\n    tag_5:\n      callvalue\n      dup1\n      iszero\n      tag_33\n      jumpi\n      0x00\n      dup1\n      revert\n    tag_33:\n      pop\n      tag_34\n      0x04\n      dup1\n      calldatasize\n      sub\n      dup2\n      add\n      swap1\n      tag_35\n      swap2\n      swap1\n      tag_36\n      jump\t// in\n    tag_35:\n      tag_37\n      jump\t// in\n    tag_34:\n      stop\n        /* \"contracts/Fvkry.sol\":5805:5939  function getUserLocks(uint8 _vault) public view returns (Lock[] memory) {... */\n    tag_6:\n      callvalue\n      dup1\n      iszero\n      tag_38\n      jumpi\n      0x00\n      dup1\n      revert\n    tag_38:\n      pop\n      tag_39\n      0x04\n      dup1\n      calldatasize\n      sub\n      dup2\n      add\n      swap1\n      tag_40\n      swap2\n      swap1\n      tag_41\n      jump\t// in\n    tag_40:\n      tag_42\n      jump\t// in\n    tag_39:\n      mload(0x40)\n      tag_43\n      swap2\n      swap1\n      tag_44\n      jump\t// in\n    tag_43:\n      mload(0x40)\n      dup1\n      swap2\n      sub\n      swap1\n      return\n        /* \"@openzeppelin/contracts/access/Ownable.sol\":2293:2394  function renounceOwnership() public virtual onlyOwner {... */\n    tag_7:\n      callvalue\n      dup1\n      iszero\n      tag_45\n      jumpi\n      0x00\n      dup1\n      revert\n    tag_45:\n      pop\n      tag_46\n      tag_47\n      jump\t// in\n    tag_46:\n      stop\n        /* \"contracts/Fvkry.sol\":5655:5767  function getContractETHBalance() external view returns (uint256) {... */\n    tag_8:\n      callvalue\n      dup1\n      iszero\n      tag_48\n      jumpi\n      0x00\n      dup1\n      revert\n    tag_48:\n      pop\n      tag_49\n      tag_50\n      jump\t// in\n    tag_49:\n      mload(0x40)\n      tag_51\n      swap2\n      swap1\n      tag_32\n      jump\t// in\n    tag_51:\n      mload(0x40)\n      dup1\n      swap2\n      sub\n      swap1\n      return\n        /* \"@openzeppelin/contracts/access/Ownable.sol\":1638:1723  function owner() public view virtual returns (address) {... */\n    tag_9:\n      callvalue\n      dup1\n      iszero\n      tag_52\n      jumpi\n      0x00\n      dup1\n      revert\n    tag_52:\n      pop\n      tag_53\n      tag_54\n      jump\t// in\n    tag_53:\n      mload(0x40)\n      tag_55\n      swap2\n      swap1\n      tag_56\n      jump\t// in\n    tag_55:\n      mload(0x40)\n      dup1\n      swap2\n      sub\n      swap1\n      return\n        /* \"contracts/Fvkry.sol\":5986:6576  function extendLockPeriod(uint32 _assetID, uint8 _vault, uint256 _lockperiod) external  {... */\n    tag_10:\n      callvalue\n      dup1\n      iszero\n      tag_57\n      jumpi\n      0x00\n      dup1\n      revert\n    tag_57:\n      pop\n      tag_58\n      0x04\n      dup1\n      calldatasize\n      sub\n      dup2\n      add\n      swap1\n      tag_59\n      swap2\n      swap1\n      tag_60\n      jump\t// in\n    tag_59:\n      tag_61\n      jump\t// in\n    tag_58:\n      stop\n        /* \"contracts/Fvkry.sol\":573:644  mapping  (address => mapping (uint8 => Lock[])) public userLockedAssets */\n    tag_11:\n      callvalue\n      dup1\n      iszero\n      tag_62\n      jumpi\n      0x00\n      dup1\n      revert\n    tag_62:\n      pop\n      tag_63\n      0x04\n      dup1\n      calldatasize\n      sub\n      dup2\n      add\n      swap1\n      tag_64\n      swap2\n      swap1\n      tag_65\n      jump\t// in\n    tag_64:\n      tag_66\n      jump\t// in\n    tag_63:\n      mload(0x40)\n      tag_67\n      swap7\n      swap6\n      swap5\n      swap4\n      swap3\n      swap2\n      swap1\n      tag_68\n      jump\t// in\n    tag_67:\n      mload(0x40)\n      dup1\n      swap2\n      sub\n      swap1\n      return\n        /* \"contracts/Fvkry.sol\":4181:5469  function transferAsset( uint32 _assetId,uint8 _vault, uint256 _amount) external  nonReentrant {... */\n    tag_12:\n      callvalue\n      dup1\n      iszero\n      tag_69\n      jumpi\n      0x00\n      dup1\n      revert\n    tag_69:\n      pop\n      tag_70\n      0x04\n      dup1\n      calldatasize\n      sub\n      dup2\n      add\n      swap1\n      tag_71\n      swap2\n      swap1\n      tag_60\n      jump\t// in\n    tag_71:\n      tag_72\n      jump\t// in\n    tag_70:\n      stop\n        /* \"contracts/Fvkry.sol\":1939:2375  function addToLockedETH(uint8 _vault, uint32 _assetID) external payable  nonReentrant {... */\n    tag_13:\n      tag_73\n      0x04\n      dup1\n      calldatasize\n      sub\n      dup2\n      add\n      swap1\n      tag_74\n      swap2\n      swap1\n      tag_75\n      jump\t// in\n    tag_74:\n      tag_76\n      jump\t// in\n    tag_73:\n      stop\n        /* \"@openzeppelin/contracts/access/Ownable.sol\":2543:2758  function transferOwnership(address newOwner) public virtual onlyOwner {... */\n    tag_14:\n      callvalue\n      dup1\n      iszero\n      tag_77\n      jumpi\n      0x00\n      dup1\n      revert\n    tag_77:\n      pop\n      tag_78\n      0x04\n      dup1\n      calldatasize\n      sub\n      dup2\n      add\n      swap1\n      tag_79\n      swap2\n      swap1\n      tag_80\n      jump\t// in\n    tag_79:\n      tag_81\n      jump\t// in\n    tag_78:\n      stop\n        /* \"contracts/Fvkry.sol\":2408:3507  function lockToken (IERC20 _token, uint256 _amount, uint8 _vault, uint256 _lockperiod, string memory _title) external nonReentrant {... */\n    tag_21:\n        /* \"@openzeppelin/contracts/utils/ReentrancyGuard.sol\":2500:2521  _nonReentrantBefore() */\n      tag_83\n        /* \"@openzeppelin/contracts/utils/ReentrancyGuard.sol\":2500:2519  _nonReentrantBefore */\n      tag_84\n        /* \"@openzeppelin/contracts/utils/ReentrancyGuard.sol\":2500:2521  _nonReentrantBefore() */\n      jump\t// in\n    tag_83:\n        /* \"contracts/Fvkry.sol\":2585:2586  0 */\n      0x00\n        /* \"contracts/Fvkry.sol\":2558:2587  address(_token) != address(0) */\n      0xffffffffffffffffffffffffffffffffffffffff\n      and\n        /* \"contracts/Fvkry.sol\":2566:2572  _token */\n      dup6\n        /* \"contracts/Fvkry.sol\":2558:2587  address(_token) != address(0) */\n      0xffffffffffffffffffffffffffffffffffffffff\n      and\n      sub\n        /* \"contracts/Fvkry.sol\":2550:2626  require(address(_token) != address(0), \"Must provide a valid token address\") */\n      tag_86\n      jumpi\n      mload(0x40)\n      0x08c379a000000000000000000000000000000000000000000000000000000000\n      dup2\n      mstore\n      0x04\n      add\n      tag_87\n      swap1\n      tag_88\n      jump\t// in\n    tag_87:\n      mload(0x40)\n      dup1\n      swap2\n      sub\n      swap1\n      revert\n    tag_86:\n        /* \"contracts/Fvkry.sol\":2655:2656  0 */\n      0x00\n        /* \"contracts/Fvkry.sol\":2645:2652  _amount */\n      dup5\n        /* \"contracts/Fvkry.sol\":2645:2656  _amount > 0 */\n      gt\n        /* \"contracts/Fvkry.sol\":2637:2699  require(_amount > 0, \"Token amount must be greater then zero\") */\n      tag_89\n      jumpi\n      mload(0x40)\n      0x08c379a000000000000000000000000000000000000000000000000000000000\n      dup2\n      mstore\n      0x04\n      add\n      tag_90\n      swap1\n      tag_91\n      jump\t// in\n    tag_90:\n      mload(0x40)\n      dup1\n      swap2\n      sub\n      swap1\n      revert\n    tag_89:\n        /* \"contracts/Fvkry.sol\":2732:2733  0 */\n      0x00\n        /* \"contracts/Fvkry.sol\":2718:2729  _lockperiod */\n      dup3\n        /* \"contracts/Fvkry.sol\":2718:2733  _lockperiod > 0 */\n      gt\n        /* \"contracts/Fvkry.sol\":2710:2779  require(_lockperiod > 0, \"The lock period must be greater then zero\") */\n      tag_92\n      jumpi\n      mload(0x40)\n      0x08c379a000000000000000000000000000000000000000000000000000000000\n      dup2\n      mstore\n      0x04\n      add\n      tag_93\n      swap1\n      tag_94\n      jump\t// in\n    tag_93:\n      mload(0x40)\n      dup1\n      swap2\n      sub\n      swap1\n      revert\n    tag_92:\n        /* \"contracts/Fvkry.sol\":2792:2813  uint256 _tokenBalance */\n      0x00\n        /* \"contracts/Fvkry.sol\":2816:2822  _token */\n      dup6\n        /* \"contracts/Fvkry.sol\":2816:2832  _token.balanceOf */\n      0xffffffffffffffffffffffffffffffffffffffff\n      and\n      0x70a08231\n        /* \"contracts/Fvkry.sol\":2833:2843  msg.sender */\n      caller\n        /* \"contracts/Fvkry.sol\":2816:2844  _token.balanceOf(msg.sender) */\n      mload(0x40)\n      dup3\n      0xffffffff\n      and\n      0xe0\n      shl\n      dup2\n      mstore\n      0x04\n      add\n      tag_95\n      swap2\n      swap1\n      tag_56\n      jump\t// in\n    tag_95:\n      0x20\n      mload(0x40)\n      dup1\n      dup4\n      sub\n      dup2\n      dup7\n      gas\n      staticcall\n      iszero\n      dup1\n      iszero\n      tag_97\n      jumpi\n      returndatasize\n      0x00\n      dup1\n      returndatacopy\n      revert(0x00, returndatasize)\n    tag_97:\n      pop\n      pop\n      pop\n      pop\n      mload(0x40)\n      returndatasize\n      not(0x1f)\n      0x1f\n      dup3\n      add\n      and\n      dup3\n      add\n      dup1\n      0x40\n      mstore\n      pop\n      dup2\n      add\n      swap1\n      tag_98\n      swap2\n      swap1\n      tag_99\n      jump\t// in\n    tag_98:\n        /* \"contracts/Fvkry.sol\":2792:2844  uint256 _tokenBalance = _token.balanceOf(msg.sender) */\n      swap1\n      pop\n        /* \"contracts/Fvkry.sol\":2875:2888  _tokenBalance */\n      dup1\n        /* \"contracts/Fvkry.sol\":2864:2871  _amount */\n      dup6\n        /* \"contracts/Fvkry.sol\":2864:2888  _amount <= _tokenBalance */\n      gt\n      iszero\n        /* \"contracts/Fvkry.sol\":2855:2918  require (_amount <= _tokenBalance, \"Not enough tokens to lock\") */\n      tag_100\n      jumpi\n      mload(0x40)\n      0x08c379a000000000000000000000000000000000000000000000000000000000\n      dup2\n      mstore\n      0x04\n      add\n      tag_101\n      swap1\n      tag_102\n      jump\t// in\n    tag_101:\n      mload(0x40)\n      dup1\n      swap2\n      sub\n      swap1\n      revert\n    tag_100:\n        /* \"contracts/Fvkry.sol\":2981:3040  _token.safeTransferFrom(msg.sender, address(this), _amount) */\n      tag_103\n        /* \"contracts/Fvkry.sol\":3005:3015  msg.sender */\n      caller\n        /* \"contracts/Fvkry.sol\":3025:3029  this */\n      address\n        /* \"contracts/Fvkry.sol\":3032:3039  _amount */\n      dup8\n        /* \"contracts/Fvkry.sol\":2981:2987  _token */\n      dup10\n        /* \"contracts/Fvkry.sol\":2981:3004  _token.safeTransferFrom */\n      0xffffffffffffffffffffffffffffffffffffffff\n      and\n      tag_104\n      swap1\n        /* \"contracts/Fvkry.sol\":2981:3040  _token.safeTransferFrom(msg.sender, address(this), _amount) */\n      swap4\n      swap3\n      swap2\n      swap1\n      0xffffffff\n      and\n      jump\t// in\n    tag_103:\n        /* \"contracts/Fvkry.sol\":3095:3111  userLockedAssets */\n      0x02\n        /* \"contracts/Fvkry.sol\":3095:3123  userLockedAssets[msg.sender] */\n      0x00\n        /* \"contracts/Fvkry.sol\":3112:3122  msg.sender */\n      caller\n        /* \"contracts/Fvkry.sol\":3095:3123  userLockedAssets[msg.sender] */\n      0xffffffffffffffffffffffffffffffffffffffff\n      and\n      0xffffffffffffffffffffffffffffffffffffffff\n      and\n      dup2\n      mstore\n      0x20\n      add\n      swap1\n      dup2\n      mstore\n      0x20\n      add\n      0x00\n      keccak256\n        /* \"contracts/Fvkry.sol\":3095:3131  userLockedAssets[msg.sender][_vault] */\n      0x00\n        /* \"contracts/Fvkry.sol\":3124:3130  _vault */\n      dup6\n        /* \"contracts/Fvkry.sol\":3095:3131  userLockedAssets[msg.sender][_vault] */\n      0xff\n      and\n      0xff\n      and\n      dup2\n      mstore\n      0x20\n      add\n      swap1\n      dup2\n      mstore\n      0x20\n      add\n      0x00\n      keccak256\n        /* \"contracts/Fvkry.sol\":3137:3379  Lock({... */\n      mload(0x40)\n      dup1\n      0xc0\n      add\n      0x40\n      mstore\n      dup1\n        /* \"contracts/Fvkry.sol\":3172:3178  _token */\n      dup9\n        /* \"contracts/Fvkry.sol\":3137:3379  Lock({... */\n      0xffffffffffffffffffffffffffffffffffffffff\n      and\n      dup2\n      mstore\n      0x20\n      add\n        /* \"contracts/Fvkry.sol\":3203:3210  _amount */\n      dup8\n        /* \"contracts/Fvkry.sol\":3137:3379  Lock({... */\n      dup2\n      mstore\n      0x20\n      add\n        /* \"contracts/Fvkry.sol\":3258:3269  _lockperiod */\n      dup6\n        /* \"contracts/Fvkry.sol\":3240:3255  block.timestamp */\n      timestamp\n        /* \"contracts/Fvkry.sol\":3240:3269  block.timestamp + _lockperiod */\n      tag_105\n      swap2\n      swap1\n      tag_106\n      jump\t// in\n    tag_105:\n        /* \"contracts/Fvkry.sol\":3137:3379  Lock({... */\n      dup2\n      mstore\n      0x20\n      add\n        /* \"contracts/Fvkry.sol\":3291:3297  _title */\n      dup5\n        /* \"contracts/Fvkry.sol\":3137:3379  Lock({... */\n      dup2\n      mstore\n      0x20\n      add\n        /* \"contracts/Fvkry.sol\":3327:3332  false */\n      0x00\n        /* \"contracts/Fvkry.sol\":3137:3379  Lock({... */\n      iszero\n      iszero\n      dup2\n      mstore\n      0x20\n      add\n        /* \"contracts/Fvkry.sol\":3360:3365  false */\n      0x00\n        /* \"contracts/Fvkry.sol\":3137:3379  Lock({... */\n      iszero\n      iszero\n      dup2\n      mstore\n      pop\n        /* \"contracts/Fvkry.sol\":3095:3380  userLockedAssets[msg.sender][_vault].push(Lock({... */\n      swap1\n      dup1\n      0x01\n      dup2\n      sload\n      add\n      dup1\n      dup3\n      sstore\n      dup1\n      swap2\n      pop\n      pop\n      0x01\n      swap1\n      sub\n      swap1\n      0x00\n      mstore\n      keccak256(0x00, 0x20)\n      swap1\n      0x05\n      mul\n      add\n      0x00\n      swap1\n      swap2\n      swap1\n      swap2\n      swap1\n      swap2\n      pop\n      0x00\n      dup3\n      add\n      mload\n      dup2\n      0x00\n      add\n      exp(0x0100, 0x00)\n      dup2\n      sload\n      dup2\n      0xffffffffffffffffffffffffffffffffffffffff\n      mul\n      not\n      and\n      swap1\n      dup4\n      0xffffffffffffffffffffffffffffffffffffffff\n      and\n      mul\n      or\n      swap1\n      sstore\n      pop\n      0x20\n      dup3\n      add\n      mload\n      dup2\n      0x01\n      add\n      sstore\n      0x40\n      dup3\n      add\n      mload\n      dup2\n      0x02\n      add\n      sstore\n      0x60\n      dup3\n      add\n      mload\n      dup2\n      0x03\n      add\n      swap1\n      dup2\n      tag_108\n      swap2\n      swap1\n      tag_109\n      jump\t// in\n    tag_108:\n      pop\n      0x80\n      dup3\n      add\n      mload\n      dup2\n      0x04\n      add\n      exp(0x0100, 0x00)\n      dup2\n      sload\n      dup2\n      0xff\n      mul\n      not\n      and\n      swap1\n      dup4\n      iszero\n      iszero\n      mul\n      or\n      swap1\n      sstore\n      pop\n      0xa0\n      dup3\n      add\n      mload\n      dup2\n      0x04\n      add\n      exp(0x0100, 0x01)\n      dup2\n      sload\n      dup2\n      0xff\n      mul\n      not\n      and\n      swap1\n      dup4\n      iszero\n      iszero\n      mul\n      or\n      swap1\n      sstore\n      pop\n      pop\n      pop\n        /* \"contracts/Fvkry.sol\":3418:3424  _token */\n      dup6\n        /* \"contracts/Fvkry.sol\":3398:3499  AssetLocked(address(_token), _amount, _title, _vault, block.timestamp + _lockperiod, block.timestamp) */\n      0xffffffffffffffffffffffffffffffffffffffff\n      and\n      0xed26bd61b6bf2f43d7471454e53e77ffdc96beefa2f198977936f6d02d34563d\n        /* \"contracts/Fvkry.sol\":3427:3434  _amount */\n      dup7\n        /* \"contracts/Fvkry.sol\":3436:3442  _title */\n      dup5\n        /* \"contracts/Fvkry.sol\":3444:3450  _vault */\n      dup8\n        /* \"contracts/Fvkry.sol\":3470:3481  _lockperiod */\n      dup8\n        /* \"contracts/Fvkry.sol\":3452:3467  block.timestamp */\n      timestamp\n        /* \"contracts/Fvkry.sol\":3452:3481  block.timestamp + _lockperiod */\n      tag_110\n      swap2\n      swap1\n      tag_106\n      jump\t// in\n    tag_110:\n        /* \"contracts/Fvkry.sol\":3483:3498  block.timestamp */\n      timestamp\n        /* \"contracts/Fvkry.sol\":3398:3499  AssetLocked(address(_token), _amount, _title, _vault, block.timestamp + _lockperiod, block.timestamp) */\n      mload(0x40)\n      tag_111\n      swap6\n      swap5\n      swap4\n      swap3\n      swap2\n      swap1\n      tag_112\n      jump\t// in\n    tag_111:\n      mload(0x40)\n      dup1\n      swap2\n      sub\n      swap1\n      log2\n        /* \"contracts/Fvkry.sol\":2539:3507  {... */\n      pop\n        /* \"@openzeppelin/contracts/utils/ReentrancyGuard.sol\":2542:2562  _nonReentrantAfter() */\n      tag_113\n        /* \"@openzeppelin/contracts/utils/ReentrancyGuard.sol\":2542:2560  _nonReentrantAfter */\n      tag_114\n        /* \"@openzeppelin/contracts/utils/ReentrancyGuard.sol\":2542:2562  _nonReentrantAfter() */\n      jump\t// in\n    tag_113:\n        /* \"contracts/Fvkry.sol\":2408:3507  function lockToken (IERC20 _token, uint256 _amount, uint8 _vault, uint256 _lockperiod, string memory _title) external nonReentrant {... */\n      pop\n      pop\n      pop\n      pop\n      pop\n      jump\t// out\n        /* \"contracts/Fvkry.sol\":1201:1931  function lockETH(uint8 _vault, uint256 _lockperiod, string memory _title) external payable nonReentrant {... */\n    tag_25:\n        /* \"@openzeppelin/contracts/utils/ReentrancyGuard.sol\":2500:2521  _nonReentrantBefore() */\n      tag_116\n        /* \"@openzeppelin/contracts/utils/ReentrancyGuard.sol\":2500:2519  _nonReentrantBefore */\n      tag_84\n        /* \"@openzeppelin/contracts/utils/ReentrancyGuard.sol\":2500:2521  _nonReentrantBefore() */\n      jump\t// in\n    tag_116:\n        /* \"contracts/Fvkry.sol\":1336:1337  0 */\n      0x00\n        /* \"contracts/Fvkry.sol\":1324:1333  msg.value */\n      callvalue\n        /* \"contracts/Fvkry.sol\":1324:1337  msg.value > 0 */\n      gt\n        /* \"contracts/Fvkry.sol\":1316:1381  require(msg.value > 0, \"ETH to lock must a value greater than 0\") */\n      tag_118\n      jumpi\n      mload(0x40)\n      0x08c379a000000000000000000000000000000000000000000000000000000000\n      dup2\n      mstore\n      0x04\n      add\n      tag_119\n      swap1\n      tag_120\n      jump\t// in\n    tag_119:\n      mload(0x40)\n      dup1\n      swap2\n      sub\n      swap1\n      revert\n    tag_118:\n        /* \"contracts/Fvkry.sol\":1415:1416  0 */\n      0x00\n        /* \"contracts/Fvkry.sol\":1400:1411  _lockperiod */\n      dup3\n        /* \"contracts/Fvkry.sol\":1400:1416  _lockperiod >= 0 */\n      lt\n      iszero\n        /* \"contracts/Fvkry.sol\":1392:1461  require(_lockperiod >= 0, \"The lockperiod must be greater then zero\") */\n      tag_121\n      jumpi\n      mload(0x40)\n      0x08c379a000000000000000000000000000000000000000000000000000000000\n      dup2\n      mstore\n      0x04\n      add\n      tag_122\n      swap1\n      tag_123\n      jump\t// in\n    tag_122:\n      mload(0x40)\n      dup1\n      swap2\n      sub\n      swap1\n      revert\n    tag_121:\n        /* \"contracts/Fvkry.sol\":1512:1528  userLockedAssets */\n      0x02\n        /* \"contracts/Fvkry.sol\":1512:1540  userLockedAssets[msg.sender] */\n      0x00\n        /* \"contracts/Fvkry.sol\":1529:1539  msg.sender */\n      caller\n        /* \"contracts/Fvkry.sol\":1512:1540  userLockedAssets[msg.sender] */\n      0xffffffffffffffffffffffffffffffffffffffff\n      and\n      0xffffffffffffffffffffffffffffffffffffffff\n      and\n      dup2\n      mstore\n      0x20\n      add\n      swap1\n      dup2\n      mstore\n      0x20\n      add\n      0x00\n      keccak256\n        /* \"contracts/Fvkry.sol\":1512:1548  userLockedAssets[msg.sender][_vault] */\n      0x00\n        /* \"contracts/Fvkry.sol\":1541:1547  _vault */\n      dup5\n        /* \"contracts/Fvkry.sol\":1512:1548  userLockedAssets[msg.sender][_vault] */\n      0xff\n      and\n      0xff\n      and\n      dup2\n      mstore\n      0x20\n      add\n      swap1\n      dup2\n      mstore\n      0x20\n      add\n      0x00\n      keccak256\n        /* \"contracts/Fvkry.sol\":1554:1792  Lock({... */\n      mload(0x40)\n      dup1\n      0xc0\n      add\n      0x40\n      mstore\n      dup1\n        /* \"contracts/Fvkry.sol\":1589:1590  0 */\n      0x00\n        /* \"contracts/Fvkry.sol\":1554:1792  Lock({... */\n      0xffffffffffffffffffffffffffffffffffffffff\n      and\n      dup2\n      mstore\n      0x20\n      add\n        /* \"contracts/Fvkry.sol\":1615:1624  msg.value */\n      callvalue\n        /* \"contracts/Fvkry.sol\":1554:1792  Lock({... */\n      dup2\n      mstore\n      0x20\n      add\n        /* \"contracts/Fvkry.sol\":1672:1683  _lockperiod */\n      dup5\n        /* \"contracts/Fvkry.sol\":1654:1669  block.timestamp */\n      timestamp\n        /* \"contracts/Fvkry.sol\":1654:1683  block.timestamp + _lockperiod */\n      tag_124\n      swap2\n      swap1\n      tag_106\n      jump\t// in\n    tag_124:\n        /* \"contracts/Fvkry.sol\":1554:1792  Lock({... */\n      dup2\n      mstore\n      0x20\n      add\n        /* \"contracts/Fvkry.sol\":1705:1711  _title */\n      dup4\n        /* \"contracts/Fvkry.sol\":1554:1792  Lock({... */\n      dup2\n      mstore\n      0x20\n      add\n        /* \"contracts/Fvkry.sol\":1741:1746  false */\n      0x00\n        /* \"contracts/Fvkry.sol\":1554:1792  Lock({... */\n      iszero\n      iszero\n      dup2\n      mstore\n      0x20\n      add\n        /* \"contracts/Fvkry.sol\":1774:1778  true */\n      0x01\n        /* \"contracts/Fvkry.sol\":1554:1792  Lock({... */\n      iszero\n      iszero\n      dup2\n      mstore\n      pop\n        /* \"contracts/Fvkry.sol\":1512:1793  userLockedAssets[msg.sender][_vault].push(Lock({... */\n      swap1\n      dup1\n      0x01\n      dup2\n      sload\n      add\n      dup1\n      dup3\n      sstore\n      dup1\n      swap2\n      pop\n      pop\n      0x01\n      swap1\n      sub\n      swap1\n      0x00\n      mstore\n      keccak256(0x00, 0x20)\n      swap1\n      0x05\n      mul\n      add\n      0x00\n      swap1\n      swap2\n      swap1\n      swap2\n      swap1\n      swap2\n      pop\n      0x00\n      dup3\n      add\n      mload\n      dup2\n      0x00\n      add\n      exp(0x0100, 0x00)\n      dup2\n      sload\n      dup2\n      0xffffffffffffffffffffffffffffffffffffffff\n      mul\n      not\n      and\n      swap1\n      dup4\n      0xffffffffffffffffffffffffffffffffffffffff\n      and\n      mul\n      or\n      swap1\n      sstore\n      pop\n      0x20\n      dup3\n      add\n      mload\n      dup2\n      0x01\n      add\n      sstore\n      0x40\n      dup3\n      add\n      mload\n      dup2\n      0x02\n      add\n      sstore\n      0x60\n      dup3\n      add\n      mload\n      dup2\n      0x03\n      add\n      swap1\n      dup2\n      tag_126\n      swap2\n      swap1\n      tag_109\n      jump\t// in\n    tag_126:\n      pop\n      0x80\n      dup3\n      add\n      mload\n      dup2\n      0x04\n      add\n      exp(0x0100, 0x00)\n      dup2\n      sload\n      dup2\n      0xff\n      mul\n      not\n      and\n      swap1\n      dup4\n      iszero\n      iszero\n      mul\n      or\n      swap1\n      sstore\n      pop\n      0xa0\n      dup3\n      add\n      mload\n      dup2\n      0x04\n      add\n      exp(0x0100, 0x01)\n      dup2\n      sload\n      dup2\n      0xff\n      mul\n      not\n      and\n      swap1\n      dup4\n      iszero\n      iszero\n      mul\n      or\n      swap1\n      sstore\n      pop\n      pop\n      pop\n        /* \"contracts/Fvkry.sol\":1845:1846  0 */\n      0x00\n        /* \"contracts/Fvkry.sol\":1825:1923  AssetLocked(address(0), msg.value, _title, _vault, block.timestamp + _lockperiod, block.timestamp) */\n      0xffffffffffffffffffffffffffffffffffffffff\n      and\n      0xed26bd61b6bf2f43d7471454e53e77ffdc96beefa2f198977936f6d02d34563d\n        /* \"contracts/Fvkry.sol\":1849:1858  msg.value */\n      callvalue\n        /* \"contracts/Fvkry.sol\":1860:1866  _title */\n      dup4\n        /* \"contracts/Fvkry.sol\":1868:1874  _vault */\n      dup7\n        /* \"contracts/Fvkry.sol\":1894:1905  _lockperiod */\n      dup7\n        /* \"contracts/Fvkry.sol\":1876:1891  block.timestamp */\n      timestamp\n        /* \"contracts/Fvkry.sol\":1876:1905  block.timestamp + _lockperiod */\n      tag_127\n      swap2\n      swap1\n      tag_106\n      jump\t// in\n    tag_127:\n        /* \"contracts/Fvkry.sol\":1907:1922  block.timestamp */\n      timestamp\n        /* \"contracts/Fvkry.sol\":1825:1923  AssetLocked(address(0), msg.value, _title, _vault, block.timestamp + _lockperiod, block.timestamp) */\n      mload(0x40)\n      tag_128\n      swap6\n      swap5\n      swap4\n      swap3\n      swap2\n      swap1\n      tag_112\n      jump\t// in\n    tag_128:\n      mload(0x40)\n      dup1\n      swap2\n      sub\n      swap1\n      log2\n        /* \"@openzeppelin/contracts/utils/ReentrancyGuard.sol\":2542:2562  _nonReentrantAfter() */\n      tag_129\n        /* \"@openzeppelin/contracts/utils/ReentrancyGuard.sol\":2542:2560  _nonReentrantAfter */\n      tag_114\n        /* \"@openzeppelin/contracts/utils/ReentrancyGuard.sol\":2542:2562  _nonReentrantAfter() */\n      jump\t// in\n    tag_129:\n        /* \"contracts/Fvkry.sol\":1201:1931  function lockETH(uint8 _vault, uint256 _lockperiod, string memory _title) external payable nonReentrant {... */\n      pop\n      pop\n      pop\n      jump\t// out\n        /* \"contracts/Fvkry.sol\":5512:5647  function getContractTokenBalance(IERC20 token) external view returns (uint256) {... */\n    tag_30:\n        /* \"contracts/Fvkry.sol\":5582:5589  uint256 */\n      0x00\n        /* \"contracts/Fvkry.sol\":5609:5614  token */\n      dup2\n        /* \"contracts/Fvkry.sol\":5609:5624  token.balanceOf */\n      0xffffffffffffffffffffffffffffffffffffffff\n      and\n      0x70a08231\n        /* \"contracts/Fvkry.sol\":5633:5637  this */\n      address\n        /* \"contracts/Fvkry.sol\":5609:5639  token.balanceOf(address(this)) */\n      mload(0x40)\n      dup3\n      0xffffffff\n      and\n      0xe0\n      shl\n      dup2\n      mstore\n      0x04\n      add\n      tag_131\n      swap2\n      swap1\n      tag_56\n      jump\t// in\n    tag_131:\n      0x20\n      mload(0x40)\n      dup1\n      dup4\n      sub\n      dup2\n      dup7\n      gas\n      staticcall\n      iszero\n      dup1\n      iszero\n      tag_133\n      jumpi\n      returndatasize\n      0x00\n      dup1\n      returndatacopy\n      revert(0x00, returndatasize)\n    tag_133:\n      pop\n      pop\n      pop\n      pop\n      mload(0x40)\n      returndatasize\n      not(0x1f)\n      0x1f\n      dup3\n      add\n      and\n      dup3\n      add\n      dup1\n      0x40\n      mstore\n      pop\n      dup2\n      add\n      swap1\n      tag_134\n      swap2\n      swap1\n      tag_99\n      jump\t// in\n    tag_134:\n        /* \"contracts/Fvkry.sol\":5602:5639  return token.balanceOf(address(this)) */\n      swap1\n      pop\n        /* \"contracts/Fvkry.sol\":5512:5647  function getContractTokenBalance(IERC20 token) external view returns (uint256) {... */\n      swap2\n      swap1\n      pop\n      jump\t// out\n        /* \"contracts/Fvkry.sol\":3515:4150  function addToLockedTokens(IERC20 _token, uint32 _assetID, uint256 _amount, uint8 _vault) external  nonReentrant {... */\n    tag_37:\n        /* \"@openzeppelin/contracts/utils/ReentrancyGuard.sol\":2500:2521  _nonReentrantBefore() */\n      tag_136\n        /* \"@openzeppelin/contracts/utils/ReentrancyGuard.sol\":2500:2519  _nonReentrantBefore */\n      tag_84\n        /* \"@openzeppelin/contracts/utils/ReentrancyGuard.sol\":2500:2521  _nonReentrantBefore() */\n      jump\t// in\n    tag_136:\n        /* \"contracts/Fvkry.sol\":3674:3675  0 */\n      0x00\n        /* \"contracts/Fvkry.sol\":3647:3676  address(_token) != address(0) */\n      0xffffffffffffffffffffffffffffffffffffffff\n      and\n        /* \"contracts/Fvkry.sol\":3655:3661  _token */\n      dup5\n        /* \"contracts/Fvkry.sol\":3647:3676  address(_token) != address(0) */\n      0xffffffffffffffffffffffffffffffffffffffff\n      and\n      sub\n        /* \"contracts/Fvkry.sol\":3639:3715  require(address(_token) != address(0), \"Must provide a valid token address\") */\n      tag_138\n      jumpi\n      mload(0x40)\n      0x08c379a000000000000000000000000000000000000000000000000000000000\n      dup2\n      mstore\n      0x04\n      add\n      tag_139\n      swap1\n      tag_88\n      jump\t// in\n    tag_139:\n      mload(0x40)\n      dup1\n      swap2\n      sub\n      swap1\n      revert\n    tag_138:\n        /* \"contracts/Fvkry.sol\":3744:3745  0 */\n      0x00\n        /* \"contracts/Fvkry.sol\":3734:3741  _amount */\n      dup3\n        /* \"contracts/Fvkry.sol\":3734:3745  _amount > 0 */\n      gt\n        /* \"contracts/Fvkry.sol\":3726:3788  require(_amount > 0, \"Token amount must be greater then zero\") */\n      tag_140\n      jumpi\n      mload(0x40)\n      0x08c379a000000000000000000000000000000000000000000000000000000000\n      dup2\n      mstore\n      0x04\n      add\n      tag_141\n      swap1\n      tag_91\n      jump\t// in\n    tag_141:\n      mload(0x40)\n      dup1\n      swap2\n      sub\n      swap1\n      revert\n    tag_140:\n        /* \"contracts/Fvkry.sol\":3825:3884  _token.safeTransferFrom(msg.sender, address(this), _amount) */\n      tag_142\n        /* \"contracts/Fvkry.sol\":3849:3859  msg.sender */\n      caller\n        /* \"contracts/Fvkry.sol\":3869:3873  this */\n      address\n        /* \"contracts/Fvkry.sol\":3876:3883  _amount */\n      dup5\n        /* \"contracts/Fvkry.sol\":3825:3831  _token */\n      dup8\n        /* \"contracts/Fvkry.sol\":3825:3848  _token.safeTransferFrom */\n      0xffffffffffffffffffffffffffffffffffffffff\n      and\n      tag_104\n      swap1\n        /* \"contracts/Fvkry.sol\":3825:3884  _token.safeTransferFrom(msg.sender, address(this), _amount) */\n      swap4\n      swap3\n      swap2\n      swap1\n      0xffffffff\n      and\n      jump\t// in\n    tag_142:\n        /* \"contracts/Fvkry.sol\":3994:4001  _amount */\n      dup2\n        /* \"contracts/Fvkry.sol\":3937:3953  userLockedAssets */\n      0x02\n        /* \"contracts/Fvkry.sol\":3937:3965  userLockedAssets[msg.sender] */\n      0x00\n        /* \"contracts/Fvkry.sol\":3954:3964  msg.sender */\n      caller\n        /* \"contracts/Fvkry.sol\":3937:3965  userLockedAssets[msg.sender] */\n      0xffffffffffffffffffffffffffffffffffffffff\n      and\n      0xffffffffffffffffffffffffffffffffffffffff\n      and\n      dup2\n      mstore\n      0x20\n      add\n      swap1\n      dup2\n      mstore\n      0x20\n      add\n      0x00\n      keccak256\n        /* \"contracts/Fvkry.sol\":3937:3973  userLockedAssets[msg.sender][_vault] */\n      0x00\n        /* \"contracts/Fvkry.sol\":3966:3972  _vault */\n      dup4\n        /* \"contracts/Fvkry.sol\":3937:3973  userLockedAssets[msg.sender][_vault] */\n      0xff\n      and\n      0xff\n      and\n      dup2\n      mstore\n      0x20\n      add\n      swap1\n      dup2\n      mstore\n      0x20\n      add\n      0x00\n      keccak256\n        /* \"contracts/Fvkry.sol\":3974:3982  _assetID */\n      dup5\n        /* \"contracts/Fvkry.sol\":3937:3983  userLockedAssets[msg.sender][_vault][_assetID] */\n      0xffffffff\n      and\n      dup2\n      sload\n      dup2\n      lt\n      tag_143\n      jumpi\n      tag_144\n      tag_145\n      jump\t// in\n    tag_144:\n    tag_143:\n      swap1\n      0x00\n      mstore\n      keccak256(0x00, 0x20)\n      swap1\n      0x05\n      mul\n      add\n        /* \"contracts/Fvkry.sol\":3937:3990  userLockedAssets[msg.sender][_vault][_assetID].amount */\n      0x01\n      add\n      0x00\n        /* \"contracts/Fvkry.sol\":3937:4001  userLockedAssets[msg.sender][_vault][_assetID].amount += _amount */\n      dup3\n      dup3\n      sload\n      tag_147\n      swap2\n      swap1\n      tag_106\n      jump\t// in\n    tag_147:\n      swap3\n      pop\n      pop\n      dup2\n      swap1\n      sstore\n      pop\n        /* \"contracts/Fvkry.sol\":4046:4052  _token */\n      dup4\n        /* \"contracts/Fvkry.sol\":4027:4142  AssetAdded(address(_token), _amount, userLockedAssets[msg.sender][_vault][_assetID].title, _vault, block.timestamp) */\n      0xffffffffffffffffffffffffffffffffffffffff\n      and\n      0x0b99ce8321b94ffaa5c5021540ec0668dcba948d044760a5ef298fa0513b1ef4\n        /* \"contracts/Fvkry.sol\":4055:4062  _amount */\n      dup4\n        /* \"contracts/Fvkry.sol\":4064:4080  userLockedAssets */\n      0x02\n        /* \"contracts/Fvkry.sol\":4064:4092  userLockedAssets[msg.sender] */\n      0x00\n        /* \"contracts/Fvkry.sol\":4081:4091  msg.sender */\n      caller\n        /* \"contracts/Fvkry.sol\":4064:4092  userLockedAssets[msg.sender] */\n      0xffffffffffffffffffffffffffffffffffffffff\n      and\n      0xffffffffffffffffffffffffffffffffffffffff\n      and\n      dup2\n      mstore\n      0x20\n      add\n      swap1\n      dup2\n      mstore\n      0x20\n      add\n      0x00\n      keccak256\n        /* \"contracts/Fvkry.sol\":4064:4100  userLockedAssets[msg.sender][_vault] */\n      0x00\n        /* \"contracts/Fvkry.sol\":4093:4099  _vault */\n      dup6\n        /* \"contracts/Fvkry.sol\":4064:4100  userLockedAssets[msg.sender][_vault] */\n      0xff\n      and\n      0xff\n      and\n      dup2\n      mstore\n      0x20\n      add\n      swap1\n      dup2\n      mstore\n      0x20\n      add\n      0x00\n      keccak256\n        /* \"contracts/Fvkry.sol\":4101:4109  _assetID */\n      dup7\n        /* \"contracts/Fvkry.sol\":4064:4110  userLockedAssets[msg.sender][_vault][_assetID] */\n      0xffffffff\n      and\n      dup2\n      sload\n      dup2\n      lt\n      tag_148\n      jumpi\n      tag_149\n      tag_145\n      jump\t// in\n    tag_149:\n    tag_148:\n      swap1\n      0x00\n      mstore\n      keccak256(0x00, 0x20)\n      swap1\n      0x05\n      mul\n      add\n        /* \"contracts/Fvkry.sol\":4064:4116  userLockedAssets[msg.sender][_vault][_assetID].title */\n      0x03\n      add\n        /* \"contracts/Fvkry.sol\":4118:4124  _vault */\n      dup5\n        /* \"contracts/Fvkry.sol\":4126:4141  block.timestamp */\n      timestamp\n        /* \"contracts/Fvkry.sol\":4027:4142  AssetAdded(address(_token), _amount, userLockedAssets[msg.sender][_vault][_assetID].title, _vault, block.timestamp) */\n      mload(0x40)\n      tag_151\n      swap5\n      swap4\n      swap3\n      swap2\n      swap1\n      tag_152\n      jump\t// in\n    tag_151:\n      mload(0x40)\n      dup1\n      swap2\n      sub\n      swap1\n      log2\n        /* \"@openzeppelin/contracts/utils/ReentrancyGuard.sol\":2542:2562  _nonReentrantAfter() */\n      tag_153\n        /* \"@openzeppelin/contracts/utils/ReentrancyGuard.sol\":2542:2560  _nonReentrantAfter */\n      tag_114\n        /* \"@openzeppelin/contracts/utils/ReentrancyGuard.sol\":2542:2562  _nonReentrantAfter() */\n      jump\t// in\n    tag_153:\n        /* \"contracts/Fvkry.sol\":3515:4150  function addToLockedTokens(IERC20 _token, uint32 _assetID, uint256 _amount, uint8 _vault) external  nonReentrant {... */\n      pop\n      pop\n      pop\n      pop\n      jump\t// out\n        /* \"contracts/Fvkry.sol\":5805:5939  function getUserLocks(uint8 _vault) public view returns (Lock[] memory) {... */\n    tag_42:\n        /* \"contracts/Fvkry.sol\":5862:5875  Lock[] memory */\n      0x60\n        /* \"contracts/Fvkry.sol\":5895:5911  userLockedAssets */\n      0x02\n        /* \"contracts/Fvkry.sol\":5895:5923  userLockedAssets[msg.sender] */\n      0x00\n        /* \"contracts/Fvkry.sol\":5912:5922  msg.sender */\n      caller\n        /* \"contracts/Fvkry.sol\":5895:5923  userLockedAssets[msg.sender] */\n      0xffffffffffffffffffffffffffffffffffffffff\n      and\n      0xffffffffffffffffffffffffffffffffffffffff\n      and\n      dup2\n      mstore\n      0x20\n      add\n      swap1\n      dup2\n      mstore\n      0x20\n      add\n      0x00\n      keccak256\n        /* \"contracts/Fvkry.sol\":5895:5931  userLockedAssets[msg.sender][_vault] */\n      0x00\n        /* \"contracts/Fvkry.sol\":5924:5930  _vault */\n      dup4\n        /* \"contracts/Fvkry.sol\":5895:5931  userLockedAssets[msg.sender][_vault] */\n      0xff\n      and\n      0xff\n      and\n      dup2\n      mstore\n      0x20\n      add\n      swap1\n      dup2\n      mstore\n      0x20\n      add\n      0x00\n      keccak256\n        /* \"contracts/Fvkry.sol\":5888:5931  return userLockedAssets[msg.sender][_vault] */\n      dup1\n      sload\n      dup1\n      0x20\n      mul\n      0x20\n      add\n      mload(0x40)\n      swap1\n      dup2\n      add\n      0x40\n      mstore\n      dup1\n      swap3\n      swap2\n      swap1\n      dup2\n      dup2\n      mstore\n      0x20\n      add\n      0x00\n      swap1\n    tag_155:\n      dup3\n      dup3\n      lt\n      iszero\n      tag_156\n      jumpi\n      dup4\n      dup3\n      swap1\n      0x00\n      mstore\n      keccak256(0x00, 0x20)\n      swap1\n      0x05\n      mul\n      add\n      mload(0x40)\n      dup1\n      0xc0\n      add\n      0x40\n      mstore\n      swap1\n      dup2\n      0x00\n      dup3\n      add\n      0x00\n      swap1\n      sload\n      swap1\n      0x0100\n      exp\n      swap1\n      div\n      0xffffffffffffffffffffffffffffffffffffffff\n      and\n      0xffffffffffffffffffffffffffffffffffffffff\n      and\n      0xffffffffffffffffffffffffffffffffffffffff\n      and\n      dup2\n      mstore\n      0x20\n      add\n      0x01\n      dup3\n      add\n      sload\n      dup2\n      mstore\n      0x20\n      add\n      0x02\n      dup3\n      add\n      sload\n      dup2\n      mstore\n      0x20\n      add\n      0x03\n      dup3\n      add\n      dup1\n      sload\n      tag_158\n      swap1\n      tag_159\n      jump\t// in\n    tag_158:\n      dup1\n      0x1f\n      add\n      0x20\n      dup1\n      swap2\n      div\n      mul\n      0x20\n      add\n      mload(0x40)\n      swap1\n      dup2\n      add\n      0x40\n      mstore\n      dup1\n      swap3\n      swap2\n      swap1\n      dup2\n      dup2\n      mstore\n      0x20\n      add\n      dup3\n      dup1\n      sload\n      tag_160\n      swap1\n      tag_159\n      jump\t// in\n    tag_160:\n      dup1\n      iszero\n      tag_161\n      jumpi\n      dup1\n      0x1f\n      lt\n      tag_162\n      jumpi\n      0x0100\n      dup1\n      dup4\n      sload\n      div\n      mul\n      dup4\n      mstore\n      swap2\n      0x20\n      add\n      swap2\n      jump(tag_161)\n    tag_162:\n      dup3\n      add\n      swap2\n      swap1\n      0x00\n      mstore\n      keccak256(0x00, 0x20)\n      swap1\n    tag_163:\n      dup2\n      sload\n      dup2\n      mstore\n      swap1\n      0x01\n      add\n      swap1\n      0x20\n      add\n      dup1\n      dup4\n      gt\n      tag_163\n      jumpi\n      dup3\n      swap1\n      sub\n      0x1f\n      and\n      dup3\n      add\n      swap2\n    tag_161:\n      pop\n      pop\n      pop\n      pop\n      pop\n      dup2\n      mstore\n      0x20\n      add\n      0x04\n      dup3\n      add\n      0x00\n      swap1\n      sload\n      swap1\n      0x0100\n      exp\n      swap1\n      div\n      0xff\n      and\n      iszero\n      iszero\n      iszero\n      iszero\n      dup2\n      mstore\n      0x20\n      add\n      0x04\n      dup3\n      add\n      0x01\n      swap1\n      sload\n      swap1\n      0x0100\n      exp\n      swap1\n      div\n      0xff\n      and\n      iszero\n      iszero\n      iszero\n      iszero\n      dup2\n      mstore\n      pop\n      pop\n      dup2\n      mstore\n      0x20\n      add\n      swap1\n      0x01\n      add\n      swap1\n      jump(tag_155)\n    tag_156:\n      pop\n      pop\n      pop\n      pop\n      swap1\n      pop\n        /* \"contracts/Fvkry.sol\":5805:5939  function getUserLocks(uint8 _vault) public view returns (Lock[] memory) {... */\n      swap2\n      swap1\n      pop\n      jump\t// out\n        /* \"@openzeppelin/contracts/access/Ownable.sol\":2293:2394  function renounceOwnership() public virtual onlyOwner {... */\n    tag_47:\n        /* \"@openzeppelin/contracts/access/Ownable.sol\":1531:1544  _checkOwner() */\n      tag_165\n        /* \"@openzeppelin/contracts/access/Ownable.sol\":1531:1542  _checkOwner */\n      tag_166\n        /* \"@openzeppelin/contracts/access/Ownable.sol\":1531:1544  _checkOwner() */\n      jump\t// in\n    tag_165:\n        /* \"@openzeppelin/contracts/access/Ownable.sol\":2357:2387  _transferOwnership(address(0)) */\n      tag_168\n        /* \"@openzeppelin/contracts/access/Ownable.sol\":2384:2385  0 */\n      0x00\n        /* \"@openzeppelin/contracts/access/Ownable.sol\":2357:2375  _transferOwnership */\n      tag_169\n        /* \"@openzeppelin/contracts/access/Ownable.sol\":2357:2387  _transferOwnership(address(0)) */\n      jump\t// in\n    tag_168:\n        /* \"@openzeppelin/contracts/access/Ownable.sol\":2293:2394  function renounceOwnership() public virtual onlyOwner {... */\n      jump\t// out\n        /* \"contracts/Fvkry.sol\":5655:5767  function getContractETHBalance() external view returns (uint256) {... */\n    tag_50:\n        /* \"contracts/Fvkry.sol\":5711:5718  uint256 */\n      0x00\n        /* \"contracts/Fvkry.sol\":5738:5759  address(this).balance */\n      selfbalance\n        /* \"contracts/Fvkry.sol\":5731:5759  return address(this).balance */\n      swap1\n      pop\n        /* \"contracts/Fvkry.sol\":5655:5767  function getContractETHBalance() external view returns (uint256) {... */\n      swap1\n      jump\t// out\n        /* \"@openzeppelin/contracts/access/Ownable.sol\":1638:1723  function owner() public view virtual returns (address) {... */\n    tag_54:\n        /* \"@openzeppelin/contracts/access/Ownable.sol\":1684:1691  address */\n      0x00\n        /* \"@openzeppelin/contracts/access/Ownable.sol\":1710:1716  _owner */\n      dup1\n      0x00\n      swap1\n      sload\n      swap1\n      0x0100\n      exp\n      swap1\n      div\n      0xffffffffffffffffffffffffffffffffffffffff\n      and\n        /* \"@openzeppelin/contracts/access/Ownable.sol\":1703:1716  return _owner */\n      swap1\n      pop\n        /* \"@openzeppelin/contracts/access/Ownable.sol\":1638:1723  function owner() public view virtual returns (address) {... */\n      swap1\n      jump\t// out\n        /* \"contracts/Fvkry.sol\":5986:6576  function extendLockPeriod(uint32 _assetID, uint8 _vault, uint256 _lockperiod) external  {... */\n    tag_61:\n        /* \"contracts/Fvkry.sol\":6085:6102  Lock storage lock */\n      0x00\n        /* \"contracts/Fvkry.sol\":6105:6121  userLockedAssets */\n      0x02\n        /* \"contracts/Fvkry.sol\":6105:6133  userLockedAssets[msg.sender] */\n      0x00\n        /* \"contracts/Fvkry.sol\":6122:6132  msg.sender */\n      caller\n        /* \"contracts/Fvkry.sol\":6105:6133  userLockedAssets[msg.sender] */\n      0xffffffffffffffffffffffffffffffffffffffff\n      and\n      0xffffffffffffffffffffffffffffffffffffffff\n      and\n      dup2\n      mstore\n      0x20\n      add\n      swap1\n      dup2\n      mstore\n      0x20\n      add\n      0x00\n      keccak256\n        /* \"contracts/Fvkry.sol\":6105:6141  userLockedAssets[msg.sender][_vault] */\n      0x00\n        /* \"contracts/Fvkry.sol\":6134:6140  _vault */\n      dup5\n        /* \"contracts/Fvkry.sol\":6105:6141  userLockedAssets[msg.sender][_vault] */\n      0xff\n      and\n      0xff\n      and\n      dup2\n      mstore\n      0x20\n      add\n      swap1\n      dup2\n      mstore\n      0x20\n      add\n      0x00\n      keccak256\n        /* \"contracts/Fvkry.sol\":6142:6150  _assetID */\n      dup5\n        /* \"contracts/Fvkry.sol\":6105:6151  userLockedAssets[msg.sender][_vault][_assetID] */\n      0xffffffff\n      and\n      dup2\n      sload\n      dup2\n      lt\n      tag_173\n      jumpi\n      tag_174\n      tag_145\n      jump\t// in\n    tag_174:\n    tag_173:\n      swap1\n      0x00\n      mstore\n      keccak256(0x00, 0x20)\n      swap1\n      0x05\n      mul\n      add\n        /* \"contracts/Fvkry.sol\":6085:6151  Lock storage lock = userLockedAssets[msg.sender][_vault][_assetID] */\n      swap1\n      pop\n        /* \"contracts/Fvkry.sol\":6183:6199  userLockedAssets */\n      0x02\n        /* \"contracts/Fvkry.sol\":6183:6211  userLockedAssets[msg.sender] */\n      0x00\n        /* \"contracts/Fvkry.sol\":6200:6210  msg.sender */\n      caller\n        /* \"contracts/Fvkry.sol\":6183:6211  userLockedAssets[msg.sender] */\n      0xffffffffffffffffffffffffffffffffffffffff\n      and\n      0xffffffffffffffffffffffffffffffffffffffff\n      and\n      dup2\n      mstore\n      0x20\n      add\n      swap1\n      dup2\n      mstore\n      0x20\n      add\n      0x00\n      keccak256\n        /* \"contracts/Fvkry.sol\":6183:6219  userLockedAssets[msg.sender][_vault] */\n      0x00\n        /* \"contracts/Fvkry.sol\":6212:6218  _vault */\n      dup5\n        /* \"contracts/Fvkry.sol\":6183:6219  userLockedAssets[msg.sender][_vault] */\n      0xff\n      and\n      0xff\n      and\n      dup2\n      mstore\n      0x20\n      add\n      swap1\n      dup2\n      mstore\n      0x20\n      add\n      0x00\n      keccak256\n        /* \"contracts/Fvkry.sol\":6183:6226  userLockedAssets[msg.sender][_vault].length */\n      dup1\n      sload\n      swap1\n      pop\n        /* \"contracts/Fvkry.sol\":6172:6180  _assetID */\n      dup5\n        /* \"contracts/Fvkry.sol\":6172:6226  _assetID < userLockedAssets[msg.sender][_vault].length */\n      0xffffffff\n      and\n      lt\n        /* \"contracts/Fvkry.sol\":6164:6265  require(_assetID < userLockedAssets[msg.sender][_vault].length, \"The specified asset ID is invalid.\") */\n      tag_176\n      jumpi\n      mload(0x40)\n      0x08c379a000000000000000000000000000000000000000000000000000000000\n      dup2\n      mstore\n      0x04\n      add\n      tag_177\n      swap1\n      tag_178\n      jump\t// in\n    tag_177:\n      mload(0x40)\n      dup1\n      swap2\n      sub\n      swap1\n      revert\n    tag_176:\n        /* \"contracts/Fvkry.sol\":6302:6306  lock */\n      dup1\n        /* \"contracts/Fvkry.sol\":6302:6318  lock.lockEndTime */\n      0x02\n      add\n      sload\n        /* \"contracts/Fvkry.sol\":6284:6299  block.timestamp */\n      timestamp\n        /* \"contracts/Fvkry.sol\":6284:6318  block.timestamp > lock.lockEndTime */\n      gt\n        /* \"contracts/Fvkry.sol\":6276:6359  require(block.timestamp > lock.lockEndTime, \"The lock period has not yet expired!\") */\n      tag_179\n      jumpi\n      mload(0x40)\n      0x08c379a000000000000000000000000000000000000000000000000000000000\n      dup2\n      mstore\n      0x04\n      add\n      tag_180\n      swap1\n      tag_181\n      jump\t// in\n    tag_180:\n      mload(0x40)\n      dup1\n      swap2\n      sub\n      swap1\n      revert\n    tag_179:\n        /* \"contracts/Fvkry.sol\":6459:6470  _lockperiod */\n      dup2\n        /* \"contracts/Fvkry.sol\":6441:6456  block.timestamp */\n      timestamp\n        /* \"contracts/Fvkry.sol\":6441:6470  block.timestamp + _lockperiod */\n      tag_182\n      swap2\n      swap1\n      tag_106\n      jump\t// in\n    tag_182:\n        /* \"contracts/Fvkry.sol\":6380:6396  userLockedAssets */\n      0x02\n        /* \"contracts/Fvkry.sol\":6380:6408  userLockedAssets[msg.sender] */\n      0x00\n        /* \"contracts/Fvkry.sol\":6397:6407  msg.sender */\n      caller\n        /* \"contracts/Fvkry.sol\":6380:6408  userLockedAssets[msg.sender] */\n      0xffffffffffffffffffffffffffffffffffffffff\n      and\n      0xffffffffffffffffffffffffffffffffffffffff\n      and\n      dup2\n      mstore\n      0x20\n      add\n      swap1\n      dup2\n      mstore\n      0x20\n      add\n      0x00\n      keccak256\n        /* \"contracts/Fvkry.sol\":6380:6416  userLockedAssets[msg.sender][_vault] */\n      0x00\n        /* \"contracts/Fvkry.sol\":6409:6415  _vault */\n      dup6\n        /* \"contracts/Fvkry.sol\":6380:6416  userLockedAssets[msg.sender][_vault] */\n      0xff\n      and\n      0xff\n      and\n      dup2\n      mstore\n      0x20\n      add\n      swap1\n      dup2\n      mstore\n      0x20\n      add\n      0x00\n      keccak256\n        /* \"contracts/Fvkry.sol\":6417:6425  _assetID */\n      dup6\n        /* \"contracts/Fvkry.sol\":6380:6426  userLockedAssets[msg.sender][_vault][_assetID] */\n      0xffffffff\n      and\n      dup2\n      sload\n      dup2\n      lt\n      tag_183\n      jumpi\n      tag_184\n      tag_145\n      jump\t// in\n    tag_184:\n    tag_183:\n      swap1\n      0x00\n      mstore\n      keccak256(0x00, 0x20)\n      swap1\n      0x05\n      mul\n      add\n        /* \"contracts/Fvkry.sol\":6380:6438  userLockedAssets[msg.sender][_vault][_assetID].lockEndTime */\n      0x02\n      add\n        /* \"contracts/Fvkry.sol\":6380:6470  userLockedAssets[msg.sender][_vault][_assetID].lockEndTime = block.timestamp + _lockperiod */\n      dup2\n      swap1\n      sstore\n      pop\n        /* \"contracts/Fvkry.sol\":6507:6511  lock */\n      dup1\n        /* \"contracts/Fvkry.sol\":6507:6517  lock.token */\n      0x00\n      add\n      0x00\n      swap1\n      sload\n      swap1\n      0x0100\n      exp\n      swap1\n      div\n      0xffffffffffffffffffffffffffffffffffffffff\n      and\n        /* \"contracts/Fvkry.sol\":6488:6568  LockPeriodExtended(lock.token, _vault, _lockperiod, lock.title, block.timestamp) */\n      0xffffffffffffffffffffffffffffffffffffffff\n      and\n      0x748cb9768ee3f2567793f42a22f5b0c83df9e14d32ec82c9cb839cb1b357be13\n        /* \"contracts/Fvkry.sol\":6519:6525  _vault */\n      dup5\n        /* \"contracts/Fvkry.sol\":6527:6538  _lockperiod */\n      dup5\n        /* \"contracts/Fvkry.sol\":6540:6544  lock */\n      dup5\n        /* \"contracts/Fvkry.sol\":6540:6550  lock.title */\n      0x03\n      add\n        /* \"contracts/Fvkry.sol\":6552:6567  block.timestamp */\n      timestamp\n        /* \"contracts/Fvkry.sol\":6488:6568  LockPeriodExtended(lock.token, _vault, _lockperiod, lock.title, block.timestamp) */\n      mload(0x40)\n      tag_186\n      swap5\n      swap4\n      swap3\n      swap2\n      swap1\n      tag_187\n      jump\t// in\n    tag_186:\n      mload(0x40)\n      dup1\n      swap2\n      sub\n      swap1\n      log2\n        /* \"contracts/Fvkry.sol\":6074:6576  {... */\n      pop\n        /* \"contracts/Fvkry.sol\":5986:6576  function extendLockPeriod(uint32 _assetID, uint8 _vault, uint256 _lockperiod) external  {... */\n      pop\n      pop\n      pop\n      jump\t// out\n        /* \"contracts/Fvkry.sol\":573:644  mapping  (address => mapping (uint8 => Lock[])) public userLockedAssets */\n    tag_66:\n      mstore(0x20, 0x02)\n      dup3\n      0x00\n      mstore\n      mstore(0x20, keccak256(0x00, 0x40))\n      dup2\n      0x00\n      mstore\n      keccak256(0x00, 0x40)\n      dup2\n      dup2\n      sload\n      dup2\n      lt\n      tag_188\n      jumpi\n      0x00\n      dup1\n      revert\n    tag_188:\n      swap1\n      0x00\n      mstore\n      keccak256(0x00, 0x20)\n      swap1\n      0x05\n      mul\n      add\n      0x00\n      swap3\n      pop\n      swap3\n      pop\n      pop\n      pop\n      dup1\n      0x00\n      add\n      0x00\n      swap1\n      sload\n      swap1\n      0x0100\n      exp\n      swap1\n      div\n      0xffffffffffffffffffffffffffffffffffffffff\n      and\n      swap1\n      dup1\n      0x01\n      add\n      sload\n      swap1\n      dup1\n      0x02\n      add\n      sload\n      swap1\n      dup1\n      0x03\n      add\n      dup1\n      sload\n      tag_190\n      swap1\n      tag_159\n      jump\t// in\n    tag_190:\n      dup1\n      0x1f\n      add\n      0x20\n      dup1\n      swap2\n      div\n      mul\n      0x20\n      add\n      mload(0x40)\n      swap1\n      dup2\n      add\n      0x40\n      mstore\n      dup1\n      swap3\n      swap2\n      swap1\n      dup2\n      dup2\n      mstore\n      0x20\n      add\n      dup3\n      dup1\n      sload\n      tag_191\n      swap1\n      tag_159\n      jump\t// in\n    tag_191:\n      dup1\n      iszero\n      tag_192\n      jumpi\n      dup1\n      0x1f\n      lt\n      tag_193\n      jumpi\n      0x0100\n      dup1\n      dup4\n      sload\n      div\n      mul\n      dup4\n      mstore\n      swap2\n      0x20\n      add\n      swap2\n      jump(tag_192)\n    tag_193:\n      dup3\n      add\n      swap2\n      swap1\n      0x00\n      mstore\n      keccak256(0x00, 0x20)\n      swap1\n    tag_194:\n      dup2\n      sload\n      dup2\n      mstore\n      swap1\n      0x01\n      add\n      swap1\n      0x20\n      add\n      dup1\n      dup4\n      gt\n      tag_194\n      jumpi\n      dup3\n      swap1\n      sub\n      0x1f\n      and\n      dup3\n      add\n      swap2\n    tag_192:\n      pop\n      pop\n      pop\n      pop\n      pop\n      swap1\n      dup1\n      0x04\n      add\n      0x00\n      swap1\n      sload\n      swap1\n      0x0100\n      exp\n      swap1\n      div\n      0xff\n      and\n      swap1\n      dup1\n      0x04\n      add\n      0x01\n      swap1\n      sload\n      swap1\n      0x0100\n      exp\n      swap1\n      div\n      0xff\n      and\n      swap1\n      pop\n      dup7\n      jump\t// out\n        /* \"contracts/Fvkry.sol\":4181:5469  function transferAsset( uint32 _assetId,uint8 _vault, uint256 _amount) external  nonReentrant {... */\n    tag_72:\n        /* \"@openzeppelin/contracts/utils/ReentrancyGuard.sol\":2500:2521  _nonReentrantBefore() */\n      tag_196\n        /* \"@openzeppelin/contracts/utils/ReentrancyGuard.sol\":2500:2519  _nonReentrantBefore */\n      tag_84\n        /* \"@openzeppelin/contracts/utils/ReentrancyGuard.sol\":2500:2521  _nonReentrantBefore() */\n      jump\t// in\n    tag_196:\n        /* \"contracts/Fvkry.sol\":4305:4321  userLockedAssets */\n      0x02\n        /* \"contracts/Fvkry.sol\":4305:4333  userLockedAssets[msg.sender] */\n      0x00\n        /* \"contracts/Fvkry.sol\":4322:4332  msg.sender */\n      caller\n        /* \"contracts/Fvkry.sol\":4305:4333  userLockedAssets[msg.sender] */\n      0xffffffffffffffffffffffffffffffffffffffff\n      and\n      0xffffffffffffffffffffffffffffffffffffffff\n      and\n      dup2\n      mstore\n      0x20\n      add\n      swap1\n      dup2\n      mstore\n      0x20\n      add\n      0x00\n      keccak256\n        /* \"contracts/Fvkry.sol\":4305:4341  userLockedAssets[msg.sender][_vault] */\n      0x00\n        /* \"contracts/Fvkry.sol\":4334:4340  _vault */\n      dup4\n        /* \"contracts/Fvkry.sol\":4305:4341  userLockedAssets[msg.sender][_vault] */\n      0xff\n      and\n      0xff\n      and\n      dup2\n      mstore\n      0x20\n      add\n      swap1\n      dup2\n      mstore\n      0x20\n      add\n      0x00\n      keccak256\n        /* \"contracts/Fvkry.sol\":4305:4348  userLockedAssets[msg.sender][_vault].length */\n      dup1\n      sload\n      swap1\n      pop\n        /* \"contracts/Fvkry.sol\":4294:4302  _assetId */\n      dup4\n        /* \"contracts/Fvkry.sol\":4294:4348  _assetId < userLockedAssets[msg.sender][_vault].length */\n      0xffffffff\n      and\n      lt\n        /* \"contracts/Fvkry.sol\":4286:4387  require(_assetId < userLockedAssets[msg.sender][_vault].length, \"The specified asset ID is invalid.\") */\n      tag_198\n      jumpi\n      mload(0x40)\n      0x08c379a000000000000000000000000000000000000000000000000000000000\n      dup2\n      mstore\n      0x04\n      add\n      tag_199\n      swap1\n      tag_178\n      jump\t// in\n    tag_199:\n      mload(0x40)\n      dup1\n      swap2\n      sub\n      swap1\n      revert\n    tag_198:\n        /* \"contracts/Fvkry.sol\":4408:4425  Lock storage lock */\n      0x00\n        /* \"contracts/Fvkry.sol\":4428:4444  userLockedAssets */\n      0x02\n        /* \"contracts/Fvkry.sol\":4428:4456  userLockedAssets[msg.sender] */\n      0x00\n        /* \"contracts/Fvkry.sol\":4445:4455  msg.sender */\n      caller\n        /* \"contracts/Fvkry.sol\":4428:4456  userLockedAssets[msg.sender] */\n      0xffffffffffffffffffffffffffffffffffffffff\n      and\n      0xffffffffffffffffffffffffffffffffffffffff\n      and\n      dup2\n      mstore\n      0x20\n      add\n      swap1\n      dup2\n      mstore\n      0x20\n      add\n      0x00\n      keccak256\n        /* \"contracts/Fvkry.sol\":4428:4464  userLockedAssets[msg.sender][_vault] */\n      0x00\n        /* \"contracts/Fvkry.sol\":4457:4463  _vault */\n      dup5\n        /* \"contracts/Fvkry.sol\":4428:4464  userLockedAssets[msg.sender][_vault] */\n      0xff\n      and\n      0xff\n      and\n      dup2\n      mstore\n      0x20\n      add\n      swap1\n      dup2\n      mstore\n      0x20\n      add\n      0x00\n      keccak256\n        /* \"contracts/Fvkry.sol\":4465:4473  _assetId */\n      dup5\n        /* \"contracts/Fvkry.sol\":4428:4474  userLockedAssets[msg.sender][_vault][_assetId] */\n      0xffffffff\n      and\n      dup2\n      sload\n      dup2\n      lt\n      tag_200\n      jumpi\n      tag_201\n      tag_145\n      jump\t// in\n    tag_201:\n    tag_200:\n      swap1\n      0x00\n      mstore\n      keccak256(0x00, 0x20)\n      swap1\n      0x05\n      mul\n      add\n        /* \"contracts/Fvkry.sol\":4408:4474  Lock storage lock = userLockedAssets[msg.sender][_vault][_assetId] */\n      swap1\n      pop\n        /* \"contracts/Fvkry.sol\":4496:4500  lock */\n      dup1\n        /* \"contracts/Fvkry.sol\":4496:4510  lock.withdrawn */\n      0x04\n      add\n      0x00\n      swap1\n      sload\n      swap1\n      0x0100\n      exp\n      swap1\n      div\n      0xff\n      and\n        /* \"contracts/Fvkry.sol\":4495:4510  !lock.withdrawn */\n      iszero\n        /* \"contracts/Fvkry.sol\":4487:4549  require(!lock.withdrawn,\"Assets have already been withdrawn!\") */\n      tag_203\n      jumpi\n      mload(0x40)\n      0x08c379a000000000000000000000000000000000000000000000000000000000\n      dup2\n      mstore\n      0x04\n      add\n      tag_204\n      swap1\n      tag_205\n      jump\t// in\n    tag_204:\n      mload(0x40)\n      dup1\n      swap2\n      sub\n      swap1\n      revert\n    tag_203:\n        /* \"contracts/Fvkry.sol\":4586:4590  lock */\n      dup1\n        /* \"contracts/Fvkry.sol\":4586:4602  lock.lockEndTime */\n      0x02\n      add\n      sload\n        /* \"contracts/Fvkry.sol\":4568:4583  block.timestamp */\n      timestamp\n        /* \"contracts/Fvkry.sol\":4568:4602  block.timestamp > lock.lockEndTime */\n      gt\n        /* \"contracts/Fvkry.sol\":4560:4643  require(block.timestamp > lock.lockEndTime, \"The lock period has not yet expired!\") */\n      tag_206\n      jumpi\n      mload(0x40)\n      0x08c379a000000000000000000000000000000000000000000000000000000000\n      dup2\n      mstore\n      0x04\n      add\n      tag_207\n      swap1\n      tag_181\n      jump\t// in\n    tag_207:\n      mload(0x40)\n      dup1\n      swap2\n      sub\n      swap1\n      revert\n    tag_206:\n        /* \"contracts/Fvkry.sol\":4656:4678  uint256  updateBalance */\n      0x00\n        /* \"contracts/Fvkry.sol\":4695:4702  _amount */\n      dup3\n        /* \"contracts/Fvkry.sol\":4681:4685  lock */\n      dup3\n        /* \"contracts/Fvkry.sol\":4681:4692  lock.amount */\n      0x01\n      add\n      sload\n        /* \"contracts/Fvkry.sol\":4681:4702  lock.amount - _amount */\n      tag_208\n      swap2\n      swap1\n      tag_209\n      jump\t// in\n    tag_208:\n        /* \"contracts/Fvkry.sol\":4656:4702  uint256  updateBalance = lock.amount - _amount */\n      swap1\n      pop\n        /* \"contracts/Fvkry.sol\":4739:4740  0 */\n      0x00\n        /* \"contracts/Fvkry.sol\":4722:4735  updateBalance */\n      dup2\n        /* \"contracts/Fvkry.sol\":4722:4740  updateBalance >= 0 */\n      lt\n      iszero\n        /* \"contracts/Fvkry.sol\":4713:4774  require (updateBalance >= 0,\"Not enough assets to withdraw!\") */\n      tag_210\n      jumpi\n      mload(0x40)\n      0x08c379a000000000000000000000000000000000000000000000000000000000\n      dup2\n      mstore\n      0x04\n      add\n      tag_211\n      swap1\n      tag_212\n      jump\t// in\n    tag_211:\n      mload(0x40)\n      dup1\n      swap2\n      sub\n      swap1\n      revert\n    tag_210:\n        /* \"contracts/Fvkry.sol\":4836:4837  0 */\n      0x00\n        /* \"contracts/Fvkry.sol\":4819:4832  updateBalance */\n      dup2\n        /* \"contracts/Fvkry.sol\":4819:4837  updateBalance == 0 */\n      sub\n        /* \"contracts/Fvkry.sol\":4816:4929  if(updateBalance == 0) {... */\n      tag_213\n      jumpi\n        /* \"contracts/Fvkry.sol\":4913:4917  true */\n      0x01\n        /* \"contracts/Fvkry.sol\":4854:4870  userLockedAssets */\n      0x02\n        /* \"contracts/Fvkry.sol\":4854:4882  userLockedAssets[msg.sender] */\n      0x00\n        /* \"contracts/Fvkry.sol\":4871:4881  msg.sender */\n      caller\n        /* \"contracts/Fvkry.sol\":4854:4882  userLockedAssets[msg.sender] */\n      0xffffffffffffffffffffffffffffffffffffffff\n      and\n      0xffffffffffffffffffffffffffffffffffffffff\n      and\n      dup2\n      mstore\n      0x20\n      add\n      swap1\n      dup2\n      mstore\n      0x20\n      add\n      0x00\n      keccak256\n        /* \"contracts/Fvkry.sol\":4854:4890  userLockedAssets[msg.sender][_vault] */\n      0x00\n        /* \"contracts/Fvkry.sol\":4883:4889  _vault */\n      dup7\n        /* \"contracts/Fvkry.sol\":4854:4890  userLockedAssets[msg.sender][_vault] */\n      0xff\n      and\n      0xff\n      and\n      dup2\n      mstore\n      0x20\n      add\n      swap1\n      dup2\n      mstore\n      0x20\n      add\n      0x00\n      keccak256\n        /* \"contracts/Fvkry.sol\":4891:4899  _assetId */\n      dup7\n        /* \"contracts/Fvkry.sol\":4854:4900  userLockedAssets[msg.sender][_vault][_assetId] */\n      0xffffffff\n      and\n      dup2\n      sload\n      dup2\n      lt\n      tag_214\n      jumpi\n      tag_215\n      tag_145\n      jump\t// in\n    tag_215:\n    tag_214:\n      swap1\n      0x00\n      mstore\n      keccak256(0x00, 0x20)\n      swap1\n      0x05\n      mul\n      add\n        /* \"contracts/Fvkry.sol\":4854:4910  userLockedAssets[msg.sender][_vault][_assetId].withdrawn */\n      0x04\n      add\n      0x00\n        /* \"contracts/Fvkry.sol\":4854:4917  userLockedAssets[msg.sender][_vault][_assetId].withdrawn = true */\n      0x0100\n      exp\n      dup2\n      sload\n      dup2\n      0xff\n      mul\n      not\n      and\n      swap1\n      dup4\n      iszero\n      iszero\n      mul\n      or\n      swap1\n      sstore\n      pop\n        /* \"contracts/Fvkry.sol\":4816:4929  if(updateBalance == 0) {... */\n    tag_213:\n        /* \"contracts/Fvkry.sol\":5026:5039  updateBalance */\n      dup1\n        /* \"contracts/Fvkry.sol\":4970:4986  userLockedAssets */\n      0x02\n        /* \"contracts/Fvkry.sol\":4970:4998  userLockedAssets[msg.sender] */\n      0x00\n        /* \"contracts/Fvkry.sol\":4987:4997  msg.sender */\n      caller\n        /* \"contracts/Fvkry.sol\":4970:4998  userLockedAssets[msg.sender] */\n      0xffffffffffffffffffffffffffffffffffffffff\n      and\n      0xffffffffffffffffffffffffffffffffffffffff\n      and\n      dup2\n      mstore\n      0x20\n      add\n      swap1\n      dup2\n      mstore\n      0x20\n      add\n      0x00\n      keccak256\n        /* \"contracts/Fvkry.sol\":4970:5006  userLockedAssets[msg.sender][_vault] */\n      0x00\n        /* \"contracts/Fvkry.sol\":4999:5005  _vault */\n      dup7\n        /* \"contracts/Fvkry.sol\":4970:5006  userLockedAssets[msg.sender][_vault] */\n      0xff\n      and\n      0xff\n      and\n      dup2\n      mstore\n      0x20\n      add\n      swap1\n      dup2\n      mstore\n      0x20\n      add\n      0x00\n      keccak256\n        /* \"contracts/Fvkry.sol\":5007:5015  _assetId */\n      dup7\n        /* \"contracts/Fvkry.sol\":4970:5016  userLockedAssets[msg.sender][_vault][_assetId] */\n      0xffffffff\n      and\n      dup2\n      sload\n      dup2\n      lt\n      tag_217\n      jumpi\n      tag_218\n      tag_145\n      jump\t// in\n    tag_218:\n    tag_217:\n      swap1\n      0x00\n      mstore\n      keccak256(0x00, 0x20)\n      swap1\n      0x05\n      mul\n      add\n        /* \"contracts/Fvkry.sol\":4970:5023  userLockedAssets[msg.sender][_vault][_assetId].amount */\n      0x01\n      add\n        /* \"contracts/Fvkry.sol\":4970:5039  userLockedAssets[msg.sender][_vault][_assetId].amount = updateBalance */\n      dup2\n      swap1\n      sstore\n      pop\n        /* \"contracts/Fvkry.sol\":5059:5063  lock */\n      dup2\n        /* \"contracts/Fvkry.sol\":5059:5072  lock.isNative */\n      0x04\n      add\n      0x01\n      swap1\n      sload\n      swap1\n      0x0100\n      exp\n      swap1\n      div\n      0xff\n      and\n        /* \"contracts/Fvkry.sol\":5056:5361  if(lock.isNative) {... */\n      iszero\n      tag_220\n      jumpi\n        /* \"contracts/Fvkry.sol\":5119:5131  bool success */\n      0x00\n        /* \"contracts/Fvkry.sol\":5137:5147  msg.sender */\n      caller\n        /* \"contracts/Fvkry.sol\":5137:5152  msg.sender.call */\n      0xffffffffffffffffffffffffffffffffffffffff\n      and\n        /* \"contracts/Fvkry.sol\":5160:5167  _amount */\n      dup5\n        /* \"contracts/Fvkry.sol\":5137:5172  msg.sender.call{value: _amount}(\"\") */\n      mload(0x40)\n      tag_221\n      swap1\n      tag_222\n      jump\t// in\n    tag_221:\n      0x00\n      mload(0x40)\n      dup1\n      dup4\n      sub\n      dup2\n      dup6\n      dup8\n      gas\n      call\n      swap3\n      pop\n      pop\n      pop\n      returndatasize\n      dup1\n      0x00\n      dup2\n      eq\n      tag_225\n      jumpi\n      mload(0x40)\n      swap2\n      pop\n      and(add(returndatasize, 0x3f), not(0x1f))\n      dup3\n      add\n      0x40\n      mstore\n      returndatasize\n      dup3\n      mstore\n      returndatasize\n      0x00\n      0x20\n      dup5\n      add\n      returndatacopy\n      jump(tag_224)\n    tag_225:\n      0x60\n      swap2\n      pop\n    tag_224:\n      pop\n        /* \"contracts/Fvkry.sol\":5118:5172  (bool success, ) = msg.sender.call{value: _amount}(\"\") */\n      pop\n      swap1\n      pop\n        /* \"contracts/Fvkry.sol\":5195:5202  success */\n      dup1\n        /* \"contracts/Fvkry.sol\":5187:5226  require(success, \"ETH transfer failed\") */\n      tag_226\n      jumpi\n      mload(0x40)\n      0x08c379a000000000000000000000000000000000000000000000000000000000\n      dup2\n      mstore\n      0x04\n      add\n      tag_227\n      swap1\n      tag_228\n      jump\t// in\n    tag_227:\n      mload(0x40)\n      dup1\n      swap2\n      sub\n      swap1\n      revert\n    tag_226:\n        /* \"contracts/Fvkry.sol\":5074:5238  {... */\n      pop\n        /* \"contracts/Fvkry.sol\":5056:5361  if(lock.isNative) {... */\n      jump(tag_229)\n    tag_220:\n        /* \"contracts/Fvkry.sol\":5297:5349  IERC20(lock.token).safeTransfer(msg.sender, _amount) */\n      tag_230\n        /* \"contracts/Fvkry.sol\":5329:5339  msg.sender */\n      caller\n        /* \"contracts/Fvkry.sol\":5341:5348  _amount */\n      dup5\n        /* \"contracts/Fvkry.sol\":5304:5308  lock */\n      dup5\n        /* \"contracts/Fvkry.sol\":5304:5314  lock.token */\n      0x00\n      add\n      0x00\n      swap1\n      sload\n      swap1\n      0x0100\n      exp\n      swap1\n      div\n      0xffffffffffffffffffffffffffffffffffffffff\n      and\n        /* \"contracts/Fvkry.sol\":5297:5328  IERC20(lock.token).safeTransfer */\n      0xffffffffffffffffffffffffffffffffffffffff\n      and\n      tag_231\n      swap1\n        /* \"contracts/Fvkry.sol\":5297:5349  IERC20(lock.token).safeTransfer(msg.sender, _amount) */\n      swap3\n      swap2\n      swap1\n      0xffffffff\n      and\n      jump\t// in\n    tag_230:\n        /* \"contracts/Fvkry.sol\":5056:5361  if(lock.isNative) {... */\n    tag_229:\n        /* \"contracts/Fvkry.sol\":5402:5406  lock */\n      dup2\n        /* \"contracts/Fvkry.sol\":5402:5412  lock.token */\n      0x00\n      add\n      0x00\n      swap1\n      sload\n      swap1\n      0x0100\n      exp\n      swap1\n      div\n      0xffffffffffffffffffffffffffffffffffffffff\n      and\n        /* \"contracts/Fvkry.sol\":5378:5461  AssetTransfered(address(lock.token), _amount , lock.title, _vault, block.timestamp) */\n      0xffffffffffffffffffffffffffffffffffffffff\n      and\n      0x16c4c024c274b52575ffc17396bbc4a59db7dd13aac28373e025a9f6269f9e03\n        /* \"contracts/Fvkry.sol\":5415:5422  _amount */\n      dup5\n        /* \"contracts/Fvkry.sol\":5425:5429  lock */\n      dup5\n        /* \"contracts/Fvkry.sol\":5425:5435  lock.title */\n      0x03\n      add\n        /* \"contracts/Fvkry.sol\":5437:5443  _vault */\n      dup8\n        /* \"contracts/Fvkry.sol\":5445:5460  block.timestamp */\n      timestamp\n        /* \"contracts/Fvkry.sol\":5378:5461  AssetTransfered(address(lock.token), _amount , lock.title, _vault, block.timestamp) */\n      mload(0x40)\n      tag_232\n      swap5\n      swap4\n      swap3\n      swap2\n      swap1\n      tag_152\n      jump\t// in\n    tag_232:\n      mload(0x40)\n      dup1\n      swap2\n      sub\n      swap1\n      log2\n        /* \"contracts/Fvkry.sol\":4275:5469  {... */\n      pop\n      pop\n        /* \"@openzeppelin/contracts/utils/ReentrancyGuard.sol\":2542:2562  _nonReentrantAfter() */\n      tag_233\n        /* \"@openzeppelin/contracts/utils/ReentrancyGuard.sol\":2542:2560  _nonReentrantAfter */\n      tag_114\n        /* \"@openzeppelin/contracts/utils/ReentrancyGuard.sol\":2542:2562  _nonReentrantAfter() */\n      jump\t// in\n    tag_233:\n        /* \"contracts/Fvkry.sol\":4181:5469  function transferAsset( uint32 _assetId,uint8 _vault, uint256 _amount) external  nonReentrant {... */\n      pop\n      pop\n      pop\n      jump\t// out\n        /* \"contracts/Fvkry.sol\":1939:2375  function addToLockedETH(uint8 _vault, uint32 _assetID) external payable  nonReentrant {... */\n    tag_76:\n        /* \"@openzeppelin/contracts/utils/ReentrancyGuard.sol\":2500:2521  _nonReentrantBefore() */\n      tag_235\n        /* \"@openzeppelin/contracts/utils/ReentrancyGuard.sol\":2500:2519  _nonReentrantBefore */\n      tag_84\n        /* \"@openzeppelin/contracts/utils/ReentrancyGuard.sol\":2500:2521  _nonReentrantBefore() */\n      jump\t// in\n    tag_235:\n        /* \"contracts/Fvkry.sol\":2056:2057  0 */\n      0x00\n        /* \"contracts/Fvkry.sol\":2044:2053  msg.value */\n      callvalue\n        /* \"contracts/Fvkry.sol\":2044:2057  msg.value > 0 */\n      gt\n        /* \"contracts/Fvkry.sol\":2036:2113  require(msg.value > 0, \"ETH to add to lock must be an amount greater than 0\") */\n      tag_237\n      jumpi\n      mload(0x40)\n      0x08c379a000000000000000000000000000000000000000000000000000000000\n      dup2\n      mstore\n      0x04\n      add\n      tag_238\n      swap1\n      tag_239\n      jump\t// in\n    tag_238:\n      mload(0x40)\n      dup1\n      swap2\n      sub\n      swap1\n      revert\n    tag_237:\n        /* \"contracts/Fvkry.sol\":2228:2237  msg.value */\n      callvalue\n        /* \"contracts/Fvkry.sol\":2171:2187  userLockedAssets */\n      0x02\n        /* \"contracts/Fvkry.sol\":2171:2199  userLockedAssets[msg.sender] */\n      0x00\n        /* \"contracts/Fvkry.sol\":2188:2198  msg.sender */\n      caller\n        /* \"contracts/Fvkry.sol\":2171:2199  userLockedAssets[msg.sender] */\n      0xffffffffffffffffffffffffffffffffffffffff\n      and\n      0xffffffffffffffffffffffffffffffffffffffff\n      and\n      dup2\n      mstore\n      0x20\n      add\n      swap1\n      dup2\n      mstore\n      0x20\n      add\n      0x00\n      keccak256\n        /* \"contracts/Fvkry.sol\":2171:2207  userLockedAssets[msg.sender][_vault] */\n      0x00\n        /* \"contracts/Fvkry.sol\":2200:2206  _vault */\n      dup5\n        /* \"contracts/Fvkry.sol\":2171:2207  userLockedAssets[msg.sender][_vault] */\n      0xff\n      and\n      0xff\n      and\n      dup2\n      mstore\n      0x20\n      add\n      swap1\n      dup2\n      mstore\n      0x20\n      add\n      0x00\n      keccak256\n        /* \"contracts/Fvkry.sol\":2208:2216  _assetID */\n      dup3\n        /* \"contracts/Fvkry.sol\":2171:2217  userLockedAssets[msg.sender][_vault][_assetID] */\n      0xffffffff\n      and\n      dup2\n      sload\n      dup2\n      lt\n      tag_240\n      jumpi\n      tag_241\n      tag_145\n      jump\t// in\n    tag_241:\n    tag_240:\n      swap1\n      0x00\n      mstore\n      keccak256(0x00, 0x20)\n      swap1\n      0x05\n      mul\n      add\n        /* \"contracts/Fvkry.sol\":2171:2224  userLockedAssets[msg.sender][_vault][_assetID].amount */\n      0x01\n      add\n      0x00\n        /* \"contracts/Fvkry.sol\":2171:2237  userLockedAssets[msg.sender][_vault][_assetID].amount += msg.value */\n      dup3\n      dup3\n      sload\n      tag_243\n      swap2\n      swap1\n      tag_106\n      jump\t// in\n    tag_243:\n      swap3\n      pop\n      pop\n      dup2\n      swap1\n      sstore\n      pop\n        /* \"contracts/Fvkry.sol\":2274:2275  0 */\n      0x00\n        /* \"contracts/Fvkry.sol\":2255:2367  AssetAdded(address(0), msg.value, userLockedAssets[msg.sender][_vault][_assetID].title, _vault, block.timestamp) */\n      0xffffffffffffffffffffffffffffffffffffffff\n      and\n      0x0b99ce8321b94ffaa5c5021540ec0668dcba948d044760a5ef298fa0513b1ef4\n        /* \"contracts/Fvkry.sol\":2278:2287  msg.value */\n      callvalue\n        /* \"contracts/Fvkry.sol\":2289:2305  userLockedAssets */\n      0x02\n        /* \"contracts/Fvkry.sol\":2289:2317  userLockedAssets[msg.sender] */\n      0x00\n        /* \"contracts/Fvkry.sol\":2306:2316  msg.sender */\n      caller\n        /* \"contracts/Fvkry.sol\":2289:2317  userLockedAssets[msg.sender] */\n      0xffffffffffffffffffffffffffffffffffffffff\n      and\n      0xffffffffffffffffffffffffffffffffffffffff\n      and\n      dup2\n      mstore\n      0x20\n      add\n      swap1\n      dup2\n      mstore\n      0x20\n      add\n      0x00\n      keccak256\n        /* \"contracts/Fvkry.sol\":2289:2325  userLockedAssets[msg.sender][_vault] */\n      0x00\n        /* \"contracts/Fvkry.sol\":2318:2324  _vault */\n      dup7\n        /* \"contracts/Fvkry.sol\":2289:2325  userLockedAssets[msg.sender][_vault] */\n      0xff\n      and\n      0xff\n      and\n      dup2\n      mstore\n      0x20\n      add\n      swap1\n      dup2\n      mstore\n      0x20\n      add\n      0x00\n      keccak256\n        /* \"contracts/Fvkry.sol\":2326:2334  _assetID */\n      dup5\n        /* \"contracts/Fvkry.sol\":2289:2335  userLockedAssets[msg.sender][_vault][_assetID] */\n      0xffffffff\n      and\n      dup2\n      sload\n      dup2\n      lt\n      tag_244\n      jumpi\n      tag_245\n      tag_145\n      jump\t// in\n    tag_245:\n    tag_244:\n      swap1\n      0x00\n      mstore\n      keccak256(0x00, 0x20)\n      swap1\n      0x05\n      mul\n      add\n        /* \"contracts/Fvkry.sol\":2289:2341  userLockedAssets[msg.sender][_vault][_assetID].title */\n      0x03\n      add\n        /* \"contracts/Fvkry.sol\":2343:2349  _vault */\n      dup6\n        /* \"contracts/Fvkry.sol\":2351:2366  block.timestamp */\n      timestamp\n        /* \"contracts/Fvkry.sol\":2255:2367  AssetAdded(address(0), msg.value, userLockedAssets[msg.sender][_vault][_assetID].title, _vault, block.timestamp) */\n      mload(0x40)\n      tag_247\n      swap5\n      swap4\n      swap3\n      swap2\n      swap1\n      tag_152\n      jump\t// in\n    tag_247:\n      mload(0x40)\n      dup1\n      swap2\n      sub\n      swap1\n      log2\n        /* \"@openzeppelin/contracts/utils/ReentrancyGuard.sol\":2542:2562  _nonReentrantAfter() */\n      tag_248\n        /* \"@openzeppelin/contracts/utils/ReentrancyGuard.sol\":2542:2560  _nonReentrantAfter */\n      tag_114\n        /* \"@openzeppelin/contracts/utils/ReentrancyGuard.sol\":2542:2562  _nonReentrantAfter() */\n      jump\t// in\n    tag_248:\n        /* \"contracts/Fvkry.sol\":1939:2375  function addToLockedETH(uint8 _vault, uint32 _assetID) external payable  nonReentrant {... */\n      pop\n      pop\n      jump\t// out\n        /* \"@openzeppelin/contracts/access/Ownable.sol\":2543:2758  function transferOwnership(address newOwner) public virtual onlyOwner {... */\n    tag_81:\n        /* \"@openzeppelin/contracts/access/Ownable.sol\":1531:1544  _checkOwner() */\n      tag_250\n        /* \"@openzeppelin/contracts/access/Ownable.sol\":1531:1542  _checkOwner */\n      tag_166\n        /* \"@openzeppelin/contracts/access/Ownable.sol\":1531:1544  _checkOwner() */\n      jump\t// in\n    tag_250:\n        /* \"@openzeppelin/contracts/access/Ownable.sol\":2647:2648  0 */\n      0x00\n        /* \"@openzeppelin/contracts/access/Ownable.sol\":2627:2649  newOwner == address(0) */\n      0xffffffffffffffffffffffffffffffffffffffff\n      and\n        /* \"@openzeppelin/contracts/access/Ownable.sol\":2627:2635  newOwner */\n      dup2\n        /* \"@openzeppelin/contracts/access/Ownable.sol\":2627:2649  newOwner == address(0) */\n      0xffffffffffffffffffffffffffffffffffffffff\n      and\n      sub\n        /* \"@openzeppelin/contracts/access/Ownable.sol\":2623:2714  if (newOwner == address(0)) {... */\n      tag_252\n      jumpi\n        /* \"@openzeppelin/contracts/access/Ownable.sol\":2700:2701  0 */\n      0x00\n        /* \"@openzeppelin/contracts/access/Ownable.sol\":2672:2703  OwnableInvalidOwner(address(0)) */\n      mload(0x40)\n      0x1e4fbdf700000000000000000000000000000000000000000000000000000000\n      dup2\n      mstore\n      0x04\n      add\n      tag_253\n      swap2\n      swap1\n      tag_56\n      jump\t// in\n    tag_253:\n      mload(0x40)\n      dup1\n      swap2\n      sub\n      swap1\n      revert\n        /* \"@openzeppelin/contracts/access/Ownable.sol\":2623:2714  if (newOwner == address(0)) {... */\n    tag_252:\n        /* \"@openzeppelin/contracts/access/Ownable.sol\":2723:2751  _transferOwnership(newOwner) */\n      tag_254\n        /* \"@openzeppelin/contracts/access/Ownable.sol\":2742:2750  newOwner */\n      dup2\n        /* \"@openzeppelin/contracts/access/Ownable.sol\":2723:2741  _transferOwnership */\n      tag_169\n        /* \"@openzeppelin/contracts/access/Ownable.sol\":2723:2751  _transferOwnership(newOwner) */\n      jump\t// in\n    tag_254:\n        /* \"@openzeppelin/contracts/access/Ownable.sol\":2543:2758  function transferOwnership(address newOwner) public virtual onlyOwner {... */\n      pop\n      jump\t// out\n        /* \"@openzeppelin/contracts/utils/ReentrancyGuard.sol\":2575:2882  function _nonReentrantBefore() private {... */\n    tag_84:\n        /* \"@openzeppelin/contracts/utils/ReentrancyGuard.sol\":1899:1900  2 */\n      0x02\n        /* \"@openzeppelin/contracts/utils/ReentrancyGuard.sol\":2702:2709  _status */\n      sload(0x01)\n        /* \"@openzeppelin/contracts/utils/ReentrancyGuard.sol\":2702:2720  _status == ENTERED */\n      sub\n        /* \"@openzeppelin/contracts/utils/ReentrancyGuard.sol\":2698:2784  if (_status == ENTERED) {... */\n      tag_256\n      jumpi\n        /* \"@openzeppelin/contracts/utils/ReentrancyGuard.sol\":2743:2773  ReentrancyGuardReentrantCall() */\n      mload(0x40)\n      0x3ee5aeb500000000000000000000000000000000000000000000000000000000\n      dup2\n      mstore\n      0x04\n      add\n      mload(0x40)\n      dup1\n      swap2\n      sub\n      swap1\n      revert\n        /* \"@openzeppelin/contracts/utils/ReentrancyGuard.sol\":2698:2784  if (_status == ENTERED) {... */\n    tag_256:\n        /* \"@openzeppelin/contracts/utils/ReentrancyGuard.sol\":1899:1900  2 */\n      0x02\n        /* \"@openzeppelin/contracts/utils/ReentrancyGuard.sol\":2858:2865  _status */\n      0x01\n        /* \"@openzeppelin/contracts/utils/ReentrancyGuard.sol\":2858:2875  _status = ENTERED */\n      dup2\n      swap1\n      sstore\n      pop\n        /* \"@openzeppelin/contracts/utils/ReentrancyGuard.sol\":2575:2882  function _nonReentrantBefore() private {... */\n      jump\t// out\n        /* \"@openzeppelin/contracts/token/ERC20/utils/SafeERC20.sol\":1618:1806  function safeTransferFrom(IERC20 token, address from, address to, uint256 value) internal {... */\n    tag_104:\n        /* \"@openzeppelin/contracts/token/ERC20/utils/SafeERC20.sol\":1718:1799  _callOptionalReturn(token, abi.encodeCall(token.transferFrom, (from, to, value))) */\n      tag_258\n        /* \"@openzeppelin/contracts/token/ERC20/utils/SafeERC20.sol\":1738:1743  token */\n      dup5\n        /* \"@openzeppelin/contracts/token/ERC20/utils/SafeERC20.sol\":1760:1765  token */\n      dup6\n        /* \"@openzeppelin/contracts/token/ERC20/utils/SafeERC20.sol\":1760:1778  token.transferFrom */\n      0xffffffffffffffffffffffffffffffffffffffff\n      and\n      0x23b872dd\n        /* \"@openzeppelin/contracts/token/ERC20/utils/SafeERC20.sol\":1781:1785  from */\n      dup7\n        /* \"@openzeppelin/contracts/token/ERC20/utils/SafeERC20.sol\":1787:1789  to */\n      dup7\n        /* \"@openzeppelin/contracts/token/ERC20/utils/SafeERC20.sol\":1791:1796  value */\n      dup7\n        /* \"@openzeppelin/contracts/token/ERC20/utils/SafeERC20.sol\":1745:1798  abi.encodeCall(token.transferFrom, (from, to, value)) */\n      add(0x24, mload(0x40))\n      tag_259\n      swap4\n      swap3\n      swap2\n      swap1\n      tag_260\n      jump\t// in\n    tag_259:\n      mload(0x40)\n      0x20\n      dup2\n      dup4\n      sub\n      sub\n      dup2\n      mstore\n      swap1\n      0x40\n      mstore\n      swap2\n      pop\n      0xe0\n      shl\n      0x20\n      dup3\n      add\n      dup1\n      mload\n      0xffffffffffffffffffffffffffffffffffffffffffffffffffffffff\n      dup4\n      dup2\n      dup4\n      and\n      or\n      dup4\n      mstore\n      pop\n      pop\n      pop\n      pop\n        /* \"@openzeppelin/contracts/token/ERC20/utils/SafeERC20.sol\":1718:1737  _callOptionalReturn */\n      tag_261\n        /* \"@openzeppelin/contracts/token/ERC20/utils/SafeERC20.sol\":1718:1799  _callOptionalReturn(token, abi.encodeCall(token.transferFrom, (from, to, value))) */\n      jump\t// in\n    tag_258:\n        /* \"@openzeppelin/contracts/token/ERC20/utils/SafeERC20.sol\":1618:1806  function safeTransferFrom(IERC20 token, address from, address to, uint256 value) internal {... */\n      pop\n      pop\n      pop\n      pop\n      jump\t// out\n        /* \"@openzeppelin/contracts/utils/ReentrancyGuard.sol\":2888:3096  function _nonReentrantAfter() private {... */\n    tag_114:\n        /* \"@openzeppelin/contracts/utils/ReentrancyGuard.sol\":1857:1858  1 */\n      0x01\n        /* \"@openzeppelin/contracts/utils/ReentrancyGuard.sol\":3068:3075  _status */\n      dup1\n        /* \"@openzeppelin/contracts/utils/ReentrancyGuard.sol\":3068:3089  _status = NOT_ENTERED */\n      dup2\n      swap1\n      sstore\n      pop\n        /* \"@openzeppelin/contracts/utils/ReentrancyGuard.sol\":2888:3096  function _nonReentrantAfter() private {... */\n      jump\t// out\n        /* \"@openzeppelin/contracts/access/Ownable.sol\":1796:1958  function _checkOwner() internal view virtual {... */\n    tag_166:\n        /* \"@openzeppelin/contracts/access/Ownable.sol\":1866:1878  _msgSender() */\n      tag_264\n        /* \"@openzeppelin/contracts/access/Ownable.sol\":1866:1876  _msgSender */\n      tag_265\n        /* \"@openzeppelin/contracts/access/Ownable.sol\":1866:1878  _msgSender() */\n      jump\t// in\n    tag_264:\n        /* \"@openzeppelin/contracts/access/Ownable.sol\":1855:1878  owner() != _msgSender() */\n      0xffffffffffffffffffffffffffffffffffffffff\n      and\n        /* \"@openzeppelin/contracts/access/Ownable.sol\":1855:1862  owner() */\n      tag_266\n        /* \"@openzeppelin/contracts/access/Ownable.sol\":1855:1860  owner */\n      tag_54\n        /* \"@openzeppelin/contracts/access/Ownable.sol\":1855:1862  owner() */\n      jump\t// in\n    tag_266:\n        /* \"@openzeppelin/contracts/access/Ownable.sol\":1855:1878  owner() != _msgSender() */\n      0xffffffffffffffffffffffffffffffffffffffff\n      and\n      eq\n        /* \"@openzeppelin/contracts/access/Ownable.sol\":1851:1952  if (owner() != _msgSender()) {... */\n      tag_267\n      jumpi\n        /* \"@openzeppelin/contracts/access/Ownable.sol\":1928:1940  _msgSender() */\n      tag_268\n        /* \"@openzeppelin/contracts/access/Ownable.sol\":1928:1938  _msgSender */\n      tag_265\n        /* \"@openzeppelin/contracts/access/Ownable.sol\":1928:1940  _msgSender() */\n      jump\t// in\n    tag_268:\n        /* \"@openzeppelin/contracts/access/Ownable.sol\":1901:1941  OwnableUnauthorizedAccount(_msgSender()) */\n      mload(0x40)\n      0x118cdaa700000000000000000000000000000000000000000000000000000000\n      dup2\n      mstore\n      0x04\n      add\n      tag_269\n      swap2\n      swap1\n      tag_56\n      jump\t// in\n    tag_269:\n      mload(0x40)\n      dup1\n      swap2\n      sub\n      swap1\n      revert\n        /* \"@openzeppelin/contracts/access/Ownable.sol\":1851:1952  if (owner() != _msgSender()) {... */\n    tag_267:\n        /* \"@openzeppelin/contracts/access/Ownable.sol\":1796:1958  function _checkOwner() internal view virtual {... */\n      jump\t// out\n        /* \"@openzeppelin/contracts/access/Ownable.sol\":2912:3099  function _transferOwnership(address newOwner) internal virtual {... */\n    tag_169:\n        /* \"@openzeppelin/contracts/access/Ownable.sol\":2985:3001  address oldOwner */\n      0x00\n        /* \"@openzeppelin/contracts/access/Ownable.sol\":3004:3010  _owner */\n      dup1\n      0x00\n      swap1\n      sload\n      swap1\n      0x0100\n      exp\n      swap1\n      div\n      0xffffffffffffffffffffffffffffffffffffffff\n      and\n        /* \"@openzeppelin/contracts/access/Ownable.sol\":2985:3010  address oldOwner = _owner */\n      swap1\n      pop\n        /* \"@openzeppelin/contracts/access/Ownable.sol\":3029:3037  newOwner */\n      dup2\n        /* \"@openzeppelin/contracts/access/Ownable.sol\":3020:3026  _owner */\n      0x00\n      dup1\n        /* \"@openzeppelin/contracts/access/Ownable.sol\":3020:3037  _owner = newOwner */\n      0x0100\n      exp\n      dup2\n      sload\n      dup2\n      0xffffffffffffffffffffffffffffffffffffffff\n      mul\n      not\n      and\n      swap1\n      dup4\n      0xffffffffffffffffffffffffffffffffffffffff\n      and\n      mul\n      or\n      swap1\n      sstore\n      pop\n        /* \"@openzeppelin/contracts/access/Ownable.sol\":3083:3091  newOwner */\n      dup2\n        /* \"@openzeppelin/contracts/access/Ownable.sol\":3052:3092  OwnershipTransferred(oldOwner, newOwner) */\n      0xffffffffffffffffffffffffffffffffffffffff\n      and\n        /* \"@openzeppelin/contracts/access/Ownable.sol\":3073:3081  oldOwner */\n      dup2\n        /* \"@openzeppelin/contracts/access/Ownable.sol\":3052:3092  OwnershipTransferred(oldOwner, newOwner) */\n      0xffffffffffffffffffffffffffffffffffffffff\n      and\n      0x8be0079c531659141344cd1fd0a4f28419497f9722a3daafe3b4186f6b6457e0\n      mload(0x40)\n      mload(0x40)\n      dup1\n      swap2\n      sub\n      swap1\n      log3\n        /* \"@openzeppelin/contracts/access/Ownable.sol\":2975:3099  {... */\n      pop\n        /* \"@openzeppelin/contracts/access/Ownable.sol\":2912:3099  function _transferOwnership(address newOwner) internal virtual {... */\n      pop\n      jump\t// out\n        /* \"@openzeppelin/contracts/token/ERC20/utils/SafeERC20.sol\":1219:1379  function safeTransfer(IERC20 token, address to, uint256 value) internal {... */\n    tag_231:\n        /* \"@openzeppelin/contracts/token/ERC20/utils/SafeERC20.sol\":1301:1372  _callOptionalReturn(token, abi.encodeCall(token.transfer, (to, value))) */\n      tag_272\n        /* \"@openzeppelin/contracts/token/ERC20/utils/SafeERC20.sol\":1321:1326  token */\n      dup4\n        /* \"@openzeppelin/contracts/token/ERC20/utils/SafeERC20.sol\":1343:1348  token */\n      dup5\n        /* \"@openzeppelin/contracts/token/ERC20/utils/SafeERC20.sol\":1343:1357  token.transfer */\n      0xffffffffffffffffffffffffffffffffffffffff\n      and\n      0xa9059cbb\n        /* \"@openzeppelin/contracts/token/ERC20/utils/SafeERC20.sol\":1360:1362  to */\n      dup6\n        /* \"@openzeppelin/contracts/token/ERC20/utils/SafeERC20.sol\":1364:1369  value */\n      dup6\n        /* \"@openzeppelin/contracts/token/ERC20/utils/SafeERC20.sol\":1328:1371  abi.encodeCall(token.transfer, (to, value)) */\n      add(0x24, mload(0x40))\n      tag_273\n      swap3\n      swap2\n      swap1\n      tag_274\n      jump\t// in\n    tag_273:\n      mload(0x40)\n      0x20\n      dup2\n      dup4\n      sub\n      sub\n      dup2\n      mstore\n      swap1\n      0x40\n      mstore\n      swap2\n      pop\n      0xe0\n      shl\n      0x20\n      dup3\n      add\n      dup1\n      mload\n      0xffffffffffffffffffffffffffffffffffffffffffffffffffffffff\n      dup4\n      dup2\n      dup4\n      and\n      or\n      dup4\n      mstore\n      pop\n      pop\n      pop\n      pop\n        /* \"@openzeppelin/contracts/token/ERC20/utils/SafeERC20.sol\":1301:1320  _callOptionalReturn */\n      tag_261\n        /* \"@openzeppelin/contracts/token/ERC20/utils/SafeERC20.sol\":1301:1372  _callOptionalReturn(token, abi.encodeCall(token.transfer, (to, value))) */\n      jump\t// in\n    tag_272:\n        /* \"@openzeppelin/contracts/token/ERC20/utils/SafeERC20.sol\":1219:1379  function safeTransfer(IERC20 token, address to, uint256 value) internal {... */\n      pop\n      pop\n      pop\n      jump\t// out\n        /* \"@openzeppelin/contracts/token/ERC20/utils/SafeERC20.sol\":7686:8406  function _callOptionalReturn(IERC20 token, bytes memory data) private {... */\n    tag_261:\n        /* \"@openzeppelin/contracts/token/ERC20/utils/SafeERC20.sol\":7766:7784  uint256 returnSize */\n      0x00\n        /* \"@openzeppelin/contracts/token/ERC20/utils/SafeERC20.sol\":7794:7813  uint256 returnValue */\n      dup1\n        /* \"@openzeppelin/contracts/token/ERC20/utils/SafeERC20.sol\":7932:7936  0x20 */\n      0x20\n        /* \"@openzeppelin/contracts/token/ERC20/utils/SafeERC20.sol\":7929:7930  0 */\n      0x00\n        /* \"@openzeppelin/contracts/token/ERC20/utils/SafeERC20.sol\":7922:7926  data */\n      dup5\n        /* \"@openzeppelin/contracts/token/ERC20/utils/SafeERC20.sol\":7916:7927  mload(data) */\n      mload\n        /* \"@openzeppelin/contracts/token/ERC20/utils/SafeERC20.sol\":7909:7913  0x20 */\n      0x20\n        /* \"@openzeppelin/contracts/token/ERC20/utils/SafeERC20.sol\":7903:7907  data */\n      dup7\n        /* \"@openzeppelin/contracts/token/ERC20/utils/SafeERC20.sol\":7899:7914  add(data, 0x20) */\n      add\n        /* \"@openzeppelin/contracts/token/ERC20/utils/SafeERC20.sol\":7896:7897  0 */\n      0x00\n        /* \"@openzeppelin/contracts/token/ERC20/utils/SafeERC20.sol\":7889:7894  token */\n      dup9\n        /* \"@openzeppelin/contracts/token/ERC20/utils/SafeERC20.sol\":7882:7887  gas() */\n      gas\n        /* \"@openzeppelin/contracts/token/ERC20/utils/SafeERC20.sol\":7877:7937  call(gas(), token, 0, add(data, 0x20), mload(data), 0, 0x20) */\n      call\n        /* \"@openzeppelin/contracts/token/ERC20/utils/SafeERC20.sol\":7989:7996  success */\n      dup1\n        /* \"@openzeppelin/contracts/token/ERC20/utils/SafeERC20.sol\":7979:8155  if iszero(success) {... */\n      tag_276\n      jumpi\n        /* \"@openzeppelin/contracts/token/ERC20/utils/SafeERC20.sol\":8033:8037  0x40 */\n      0x40\n        /* \"@openzeppelin/contracts/token/ERC20/utils/SafeERC20.sol\":8027:8038  mload(0x40) */\n      mload\n        /* \"@openzeppelin/contracts/token/ERC20/utils/SafeERC20.sol\":8078:8094  returndatasize() */\n      returndatasize\n        /* \"@openzeppelin/contracts/token/ERC20/utils/SafeERC20.sol\":8075:8076  0 */\n      0x00\n        /* \"@openzeppelin/contracts/token/ERC20/utils/SafeERC20.sol\":8070:8073  ptr */\n      dup3\n        /* \"@openzeppelin/contracts/token/ERC20/utils/SafeERC20.sol\":8055:8095  returndatacopy(ptr, 0, returndatasize()) */\n      returndatacopy\n        /* \"@openzeppelin/contracts/token/ERC20/utils/SafeERC20.sol\":8124:8140  returndatasize() */\n      returndatasize\n        /* \"@openzeppelin/contracts/token/ERC20/utils/SafeERC20.sol\":8119:8122  ptr */\n      dup2\n        /* \"@openzeppelin/contracts/token/ERC20/utils/SafeERC20.sol\":8112:8141  revert(ptr, returndatasize()) */\n      revert\n        /* \"@openzeppelin/contracts/token/ERC20/utils/SafeERC20.sol\":7979:8155  if iszero(success) {... */\n    tag_276:\n        /* \"@openzeppelin/contracts/token/ERC20/utils/SafeERC20.sol\":8182:8198  returndatasize() */\n      returndatasize\n        /* \"@openzeppelin/contracts/token/ERC20/utils/SafeERC20.sol\":8168:8198  returnSize := returndatasize() */\n      swap3\n      pop\n        /* \"@openzeppelin/contracts/token/ERC20/utils/SafeERC20.sol\":8232:8233  0 */\n      0x00\n        /* \"@openzeppelin/contracts/token/ERC20/utils/SafeERC20.sol\":8226:8234  mload(0) */\n      mload\n        /* \"@openzeppelin/contracts/token/ERC20/utils/SafeERC20.sol\":8211:8234  returnValue := mload(0) */\n      swap2\n      pop\n        /* \"@openzeppelin/contracts/token/ERC20/utils/SafeERC20.sol\":7848:8244  {... */\n      pop\n        /* \"@openzeppelin/contracts/token/ERC20/utils/SafeERC20.sol\":8272:8273  0 */\n      0x00\n        /* \"@openzeppelin/contracts/token/ERC20/utils/SafeERC20.sol\":8258:8268  returnSize */\n      dup3\n        /* \"@openzeppelin/contracts/token/ERC20/utils/SafeERC20.sol\":8258:8273  returnSize == 0 */\n      eq\n        /* \"@openzeppelin/contracts/token/ERC20/utils/SafeERC20.sol\":8258:8326  returnSize == 0 ? address(token).code.length == 0 : returnValue != 1 */\n      tag_277\n      jumpi\n        /* \"@openzeppelin/contracts/token/ERC20/utils/SafeERC20.sol\":8325:8326  1 */\n      0x01\n        /* \"@openzeppelin/contracts/token/ERC20/utils/SafeERC20.sol\":8310:8321  returnValue */\n      dup2\n        /* \"@openzeppelin/contracts/token/ERC20/utils/SafeERC20.sol\":8310:8326  returnValue != 1 */\n      eq\n      iszero\n        /* \"@openzeppelin/contracts/token/ERC20/utils/SafeERC20.sol\":8258:8326  returnSize == 0 ? address(token).code.length == 0 : returnValue != 1 */\n      jump(tag_278)\n    tag_277:\n        /* \"@openzeppelin/contracts/token/ERC20/utils/SafeERC20.sol\":8306:8307  0 */\n      0x00\n        /* \"@openzeppelin/contracts/token/ERC20/utils/SafeERC20.sol\":8284:8289  token */\n      dup5\n        /* \"@openzeppelin/contracts/token/ERC20/utils/SafeERC20.sol\":8276:8302  address(token).code.length */\n      0xffffffffffffffffffffffffffffffffffffffff\n      and\n      extcodesize\n        /* \"@openzeppelin/contracts/token/ERC20/utils/SafeERC20.sol\":8276:8307  address(token).code.length == 0 */\n      eq\n        /* \"@openzeppelin/contracts/token/ERC20/utils/SafeERC20.sol\":8258:8326  returnSize == 0 ? address(token).code.length == 0 : returnValue != 1 */\n    tag_278:\n        /* \"@openzeppelin/contracts/token/ERC20/utils/SafeERC20.sol\":8254:8400  if (returnSize == 0 ? address(token).code.length == 0 : returnValue != 1) {... */\n      iszero\n      tag_279\n      jumpi\n        /* \"@openzeppelin/contracts/token/ERC20/utils/SafeERC20.sol\":8382:8387  token */\n      dup4\n        /* \"@openzeppelin/contracts/token/ERC20/utils/SafeERC20.sol\":8349:8389  SafeERC20FailedOperation(address(token)) */\n      mload(0x40)\n      0x5274afe700000000000000000000000000000000000000000000000000000000\n      dup2\n      mstore\n      0x04\n      add\n      tag_280\n      swap2\n      swap1\n      tag_56\n      jump\t// in\n    tag_280:\n      mload(0x40)\n      dup1\n      swap2\n      sub\n      swap1\n      revert\n        /* \"@openzeppelin/contracts/token/ERC20/utils/SafeERC20.sol\":8254:8400  if (returnSize == 0 ? address(token).code.length == 0 : returnValue != 1) {... */\n    tag_279:\n        /* \"@openzeppelin/contracts/token/ERC20/utils/SafeERC20.sol\":7756:8406  {... */\n      pop\n      pop\n        /* \"@openzeppelin/contracts/token/ERC20/utils/SafeERC20.sol\":7686:8406  function _callOptionalReturn(IERC20 token, bytes memory data) private {... */\n      pop\n      pop\n      jump\t// out\n        /* \"@openzeppelin/contracts/utils/Context.sol\":656:752  function _msgSender() internal view virtual returns (address) {... */\n    tag_265:\n        /* \"@openzeppelin/contracts/utils/Context.sol\":709:716  address */\n      0x00\n        /* \"@openzeppelin/contracts/utils/Context.sol\":735:745  msg.sender */\n      caller\n        /* \"@openzeppelin/contracts/utils/Context.sol\":728:745  return msg.sender */\n      swap1\n      pop\n        /* \"@openzeppelin/contracts/utils/Context.sol\":656:752  function _msgSender() internal view virtual returns (address) {... */\n      swap1\n      jump\t// out\n        /* \"#utility.yul\":7:82   */\n    tag_282:\n        /* \"#utility.yul\":40:46   */\n      0x00\n        /* \"#utility.yul\":73:75   */\n      0x40\n        /* \"#utility.yul\":67:76   */\n      mload\n        /* \"#utility.yul\":57:76   */\n      swap1\n      pop\n        /* \"#utility.yul\":7:82   */\n      swap1\n      jump\t// out\n        /* \"#utility.yul\":88:205   */\n    tag_283:\n        /* \"#utility.yul\":197:198   */\n      0x00\n        /* \"#utility.yul\":194:195   */\n      dup1\n        /* \"#utility.yul\":187:199   */\n      revert\n        /* \"#utility.yul\":211:328   */\n    tag_284:\n        /* \"#utility.yul\":320:321   */\n      0x00\n        /* \"#utility.yul\":317:318   */\n      dup1\n        /* \"#utility.yul\":310:322   */\n      revert\n        /* \"#utility.yul\":334:460   */\n    tag_285:\n        /* \"#utility.yul\":371:378   */\n      0x00\n        /* \"#utility.yul\":411:453   */\n      0xffffffffffffffffffffffffffffffffffffffff\n        /* \"#utility.yul\":404:409   */\n      dup3\n        /* \"#utility.yul\":400:454   */\n      and\n        /* \"#utility.yul\":389:454   */\n      swap1\n      pop\n        /* \"#utility.yul\":334:460   */\n      swap2\n      swap1\n      pop\n      jump\t// out\n        /* \"#utility.yul\":466:562   */\n    tag_286:\n        /* \"#utility.yul\":503:510   */\n      0x00\n        /* \"#utility.yul\":532:556   */\n      tag_384\n        /* \"#utility.yul\":550:555   */\n      dup3\n        /* \"#utility.yul\":532:556   */\n      tag_285\n      jump\t// in\n    tag_384:\n        /* \"#utility.yul\":521:556   */\n      swap1\n      pop\n        /* \"#utility.yul\":466:562   */\n      swap2\n      swap1\n      pop\n      jump\t// out\n        /* \"#utility.yul\":568:678   */\n    tag_287:\n        /* \"#utility.yul\":619:626   */\n      0x00\n        /* \"#utility.yul\":648:672   */\n      tag_386\n        /* \"#utility.yul\":666:671   */\n      dup3\n        /* \"#utility.yul\":648:672   */\n      tag_286\n      jump\t// in\n    tag_386:\n        /* \"#utility.yul\":637:672   */\n      swap1\n      pop\n        /* \"#utility.yul\":568:678   */\n      swap2\n      swap1\n      pop\n      jump\t// out\n        /* \"#utility.yul\":684:834   */\n    tag_288:\n        /* \"#utility.yul\":771:809   */\n      tag_388\n        /* \"#utility.yul\":803:808   */\n      dup2\n        /* \"#utility.yul\":771:809   */\n      tag_287\n      jump\t// in\n    tag_388:\n        /* \"#utility.yul\":764:769   */\n      dup2\n        /* \"#utility.yul\":761:810   */\n      eq\n        /* \"#utility.yul\":751:828   */\n      tag_389\n      jumpi\n        /* \"#utility.yul\":824:825   */\n      0x00\n        /* \"#utility.yul\":821:822   */\n      dup1\n        /* \"#utility.yul\":814:826   */\n      revert\n        /* \"#utility.yul\":751:828   */\n    tag_389:\n        /* \"#utility.yul\":684:834   */\n      pop\n      jump\t// out\n        /* \"#utility.yul\":840:1007   */\n    tag_289:\n        /* \"#utility.yul\":900:905   */\n      0x00\n        /* \"#utility.yul\":938:944   */\n      dup2\n        /* \"#utility.yul\":925:945   */\n      calldataload\n        /* \"#utility.yul\":916:945   */\n      swap1\n      pop\n        /* \"#utility.yul\":954:1001   */\n      tag_391\n        /* \"#utility.yul\":995:1000   */\n      dup2\n        /* \"#utility.yul\":954:1001   */\n      tag_288\n      jump\t// in\n    tag_391:\n        /* \"#utility.yul\":840:1007   */\n      swap3\n      swap2\n      pop\n      pop\n      jump\t// out\n        /* \"#utility.yul\":1013:1090   */\n    tag_290:\n        /* \"#utility.yul\":1050:1057   */\n      0x00\n        /* \"#utility.yul\":1079:1084   */\n      dup2\n        /* \"#utility.yul\":1068:1084   */\n      swap1\n      pop\n        /* \"#utility.yul\":1013:1090   */\n      swap2\n      swap1\n      pop\n      jump\t// out\n        /* \"#utility.yul\":1096:1218   */\n    tag_291:\n        /* \"#utility.yul\":1169:1193   */\n      tag_394\n        /* \"#utility.yul\":1187:1192   */\n      dup2\n        /* \"#utility.yul\":1169:1193   */\n      tag_290\n      jump\t// in\n    tag_394:\n        /* \"#utility.yul\":1162:1167   */\n      dup2\n        /* \"#utility.yul\":1159:1194   */\n      eq\n        /* \"#utility.yul\":1149:1212   */\n      tag_395\n      jumpi\n        /* \"#utility.yul\":1208:1209   */\n      0x00\n        /* \"#utility.yul\":1205:1206   */\n      dup1\n        /* \"#utility.yul\":1198:1210   */\n      revert\n        /* \"#utility.yul\":1149:1212   */\n    tag_395:\n        /* \"#utility.yul\":1096:1218   */\n      pop\n      jump\t// out\n        /* \"#utility.yul\":1224:1363   */\n    tag_292:\n        /* \"#utility.yul\":1270:1275   */\n      0x00\n        /* \"#utility.yul\":1308:1314   */\n      dup2\n        /* \"#utility.yul\":1295:1315   */\n      calldataload\n        /* \"#utility.yul\":1286:1315   */\n      swap1\n      pop\n        /* \"#utility.yul\":1324:1357   */\n      tag_397\n        /* \"#utility.yul\":1351:1356   */\n      dup2\n        /* \"#utility.yul\":1324:1357   */\n      tag_291\n      jump\t// in\n    tag_397:\n        /* \"#utility.yul\":1224:1363   */\n      swap3\n      swap2\n      pop\n      pop\n      jump\t// out\n        /* \"#utility.yul\":1369:1455   */\n    tag_293:\n        /* \"#utility.yul\":1404:1411   */\n      0x00\n        /* \"#utility.yul\":1444:1448   */\n      0xff\n        /* \"#utility.yul\":1437:1442   */\n      dup3\n        /* \"#utility.yul\":1433:1449   */\n      and\n        /* \"#utility.yul\":1422:1449   */\n      swap1\n      pop\n        /* \"#utility.yul\":1369:1455   */\n      swap2\n      swap1\n      pop\n      jump\t// out\n        /* \"#utility.yul\":1461:1579   */\n    tag_294:\n        /* \"#utility.yul\":1532:1554   */\n      tag_400\n        /* \"#utility.yul\":1548:1553   */\n      dup2\n        /* \"#utility.yul\":1532:1554   */\n      tag_293\n      jump\t// in\n    tag_400:\n        /* \"#utility.yul\":1525:1530   */\n      dup2\n        /* \"#utility.yul\":1522:1555   */\n      eq\n        /* \"#utility.yul\":1512:1573   */\n      tag_401\n      jumpi\n        /* \"#utility.yul\":1569:1570   */\n      0x00\n        /* \"#utility.yul\":1566:1567   */\n      dup1\n        /* \"#utility.yul\":1559:1571   */\n      revert\n        /* \"#utility.yul\":1512:1573   */\n    tag_401:\n        /* \"#utility.yul\":1461:1579   */\n      pop\n      jump\t// out\n        /* \"#utility.yul\":1585:1720   */\n    tag_295:\n        /* \"#utility.yul\":1629:1634   */\n      0x00\n        /* \"#utility.yul\":1667:1673   */\n      dup2\n        /* \"#utility.yul\":1654:1674   */\n      calldataload\n        /* \"#utility.yul\":1645:1674   */\n      swap1\n      pop\n        /* \"#utility.yul\":1683:1714   */\n      tag_403\n        /* \"#utility.yul\":1708:1713   */\n      dup2\n        /* \"#utility.yul\":1683:1714   */\n      tag_294\n      jump\t// in\n    tag_403:\n        /* \"#utility.yul\":1585:1720   */\n      swap3\n      swap2\n      pop\n      pop\n      jump\t// out\n        /* \"#utility.yul\":1726:1843   */\n    tag_296:\n        /* \"#utility.yul\":1835:1836   */\n      0x00\n        /* \"#utility.yul\":1832:1833   */\n      dup1\n        /* \"#utility.yul\":1825:1837   */\n      revert\n        /* \"#utility.yul\":1849:1966   */\n    tag_297:\n        /* \"#utility.yul\":1958:1959   */\n      0x00\n        /* \"#utility.yul\":1955:1956   */\n      dup1\n        /* \"#utility.yul\":1948:1960   */\n      revert\n        /* \"#utility.yul\":1972:2074   */\n    tag_298:\n        /* \"#utility.yul\":2013:2019   */\n      0x00\n        /* \"#utility.yul\":2064:2066   */\n      0x1f\n        /* \"#utility.yul\":2060:2067   */\n      not\n        /* \"#utility.yul\":2055:2057   */\n      0x1f\n        /* \"#utility.yul\":2048:2053   */\n      dup4\n        /* \"#utility.yul\":2044:2058   */\n      add\n        /* \"#utility.yul\":2040:2068   */\n      and\n        /* \"#utility.yul\":2030:2068   */\n      swap1\n      pop\n        /* \"#utility.yul\":1972:2074   */\n      swap2\n      swap1\n      pop\n      jump\t// out\n        /* \"#utility.yul\":2080:2260   */\n    tag_299:\n        /* \"#utility.yul\":2128:2205   */\n      0x4e487b7100000000000000000000000000000000000000000000000000000000\n        /* \"#utility.yul\":2125:2126   */\n      0x00\n        /* \"#utility.yul\":2118:2206   */\n      mstore\n        /* \"#utility.yul\":2225:2229   */\n      0x41\n        /* \"#utility.yul\":2222:2223   */\n      0x04\n        /* \"#utility.yul\":2215:2230   */\n      mstore\n        /* \"#utility.yul\":2249:2253   */\n      0x24\n        /* \"#utility.yul\":2246:2247   */\n      0x00\n        /* \"#utility.yul\":2239:2254   */\n      revert\n        /* \"#utility.yul\":2266:2547   */\n    tag_300:\n        /* \"#utility.yul\":2349:2376   */\n      tag_409\n        /* \"#utility.yul\":2371:2375   */\n      dup3\n        /* \"#utility.yul\":2349:2376   */\n      tag_298\n      jump\t// in\n    tag_409:\n        /* \"#utility.yul\":2341:2347   */\n      dup2\n        /* \"#utility.yul\":2337:2377   */\n      add\n        /* \"#utility.yul\":2479:2485   */\n      dup2\n        /* \"#utility.yul\":2467:2477   */\n      dup2\n        /* \"#utility.yul\":2464:2486   */\n      lt\n        /* \"#utility.yul\":2443:2461   */\n      0xffffffffffffffff\n        /* \"#utility.yul\":2431:2441   */\n      dup3\n        /* \"#utility.yul\":2428:2462   */\n      gt\n        /* \"#utility.yul\":2425:2487   */\n      or\n        /* \"#utility.yul\":2422:2510   */\n      iszero\n      tag_410\n      jumpi\n        /* \"#utility.yul\":2490:2508   */\n      tag_411\n      tag_299\n      jump\t// in\n    tag_411:\n        /* \"#utility.yul\":2422:2510   */\n    tag_410:\n        /* \"#utility.yul\":2530:2540   */\n      dup1\n        /* \"#utility.yul\":2526:2528   */\n      0x40\n        /* \"#utility.yul\":2519:2541   */\n      mstore\n        /* \"#utility.yul\":2309:2547   */\n      pop\n        /* \"#utility.yul\":2266:2547   */\n      pop\n      pop\n      jump\t// out\n        /* \"#utility.yul\":2553:2682   */\n    tag_301:\n        /* \"#utility.yul\":2587:2593   */\n      0x00\n        /* \"#utility.yul\":2614:2634   */\n      tag_413\n      tag_282\n      jump\t// in\n    tag_413:\n        /* \"#utility.yul\":2604:2634   */\n      swap1\n      pop\n        /* \"#utility.yul\":2643:2676   */\n      tag_414\n        /* \"#utility.yul\":2671:2675   */\n      dup3\n        /* \"#utility.yul\":2663:2669   */\n      dup3\n        /* \"#utility.yul\":2643:2676   */\n      tag_300\n      jump\t// in\n    tag_414:\n        /* \"#utility.yul\":2553:2682   */\n      swap2\n      swap1\n      pop\n      jump\t// out\n        /* \"#utility.yul\":2688:2996   */\n    tag_302:\n        /* \"#utility.yul\":2750:2754   */\n      0x00\n        /* \"#utility.yul\":2840:2858   */\n      0xffffffffffffffff\n        /* \"#utility.yul\":2832:2838   */\n      dup3\n        /* \"#utility.yul\":2829:2859   */\n      gt\n        /* \"#utility.yul\":2826:2882   */\n      iszero\n      tag_416\n      jumpi\n        /* \"#utility.yul\":2862:2880   */\n      tag_417\n      tag_299\n      jump\t// in\n    tag_417:\n        /* \"#utility.yul\":2826:2882   */\n    tag_416:\n        /* \"#utility.yul\":2900:2929   */\n      tag_418\n        /* \"#utility.yul\":2922:2928   */\n      dup3\n        /* \"#utility.yul\":2900:2929   */\n      tag_298\n      jump\t// in\n    tag_418:\n        /* \"#utility.yul\":2892:2929   */\n      swap1\n      pop\n        /* \"#utility.yul\":2984:2988   */\n      0x20\n        /* \"#utility.yul\":2978:2982   */\n      dup2\n        /* \"#utility.yul\":2974:2989   */\n      add\n        /* \"#utility.yul\":2966:2989   */\n      swap1\n      pop\n        /* \"#utility.yul\":2688:2996   */\n      swap2\n      swap1\n      pop\n      jump\t// out\n        /* \"#utility.yul\":3002:3150   */\n    tag_303:\n        /* \"#utility.yul\":3100:3106   */\n      dup3\n        /* \"#utility.yul\":3095:3098   */\n      dup2\n        /* \"#utility.yul\":3090:3093   */\n      dup4\n        /* \"#utility.yul\":3077:3107   */\n      calldatacopy\n        /* \"#utility.yul\":3141:3142   */\n      0x00\n        /* \"#utility.yul\":3132:3138   */\n      dup4\n        /* \"#utility.yul\":3127:3130   */\n      dup4\n        /* \"#utility.yul\":3123:3139   */\n      add\n        /* \"#utility.yul\":3116:3143   */\n      mstore\n        /* \"#utility.yul\":3002:3150   */\n      pop\n      pop\n      pop\n      jump\t// out\n        /* \"#utility.yul\":3156:3581   */\n    tag_304:\n        /* \"#utility.yul\":3234:3239   */\n      0x00\n        /* \"#utility.yul\":3259:3325   */\n      tag_421\n        /* \"#utility.yul\":3275:3324   */\n      tag_422\n        /* \"#utility.yul\":3317:3323   */\n      dup5\n        /* \"#utility.yul\":3275:3324   */\n      tag_302\n      jump\t// in\n    tag_422:\n        /* \"#utility.yul\":3259:3325   */\n      tag_301\n      jump\t// in\n    tag_421:\n        /* \"#utility.yul\":3250:3325   */\n      swap1\n      pop\n        /* \"#utility.yul\":3348:3354   */\n      dup3\n        /* \"#utility.yul\":3341:3346   */\n      dup2\n        /* \"#utility.yul\":3334:3355   */\n      mstore\n        /* \"#utility.yul\":3386:3390   */\n      0x20\n        /* \"#utility.yul\":3379:3384   */\n      dup2\n        /* \"#utility.yul\":3375:3391   */\n      add\n        /* \"#utility.yul\":3424:3427   */\n      dup5\n        /* \"#utility.yul\":3415:3421   */\n      dup5\n        /* \"#utility.yul\":3410:3413   */\n      dup5\n        /* \"#utility.yul\":3406:3422   */\n      add\n        /* \"#utility.yul\":3403:3428   */\n      gt\n        /* \"#utility.yul\":3400:3512   */\n      iszero\n      tag_423\n      jumpi\n        /* \"#utility.yul\":3431:3510   */\n      tag_424\n      tag_297\n      jump\t// in\n    tag_424:\n        /* \"#utility.yul\":3400:3512   */\n    tag_423:\n        /* \"#utility.yul\":3521:3575   */\n      tag_425\n        /* \"#utility.yul\":3568:3574   */\n      dup5\n        /* \"#utility.yul\":3563:3566   */\n      dup3\n        /* \"#utility.yul\":3558:3561   */\n      dup6\n        /* \"#utility.yul\":3521:3575   */\n      tag_303\n      jump\t// in\n    tag_425:\n        /* \"#utility.yul\":3240:3581   */\n      pop\n        /* \"#utility.yul\":3156:3581   */\n      swap4\n      swap3\n      pop\n      pop\n      pop\n      jump\t// out\n        /* \"#utility.yul\":3601:3941   */\n    tag_305:\n        /* \"#utility.yul\":3657:3662   */\n      0x00\n        /* \"#utility.yul\":3706:3709   */\n      dup3\n        /* \"#utility.yul\":3699:3703   */\n      0x1f\n        /* \"#utility.yul\":3691:3697   */\n      dup4\n        /* \"#utility.yul\":3687:3704   */\n      add\n        /* \"#utility.yul\":3683:3710   */\n      slt\n        /* \"#utility.yul\":3673:3795   */\n      tag_427\n      jumpi\n        /* \"#utility.yul\":3714:3793   */\n      tag_428\n      tag_296\n      jump\t// in\n    tag_428:\n        /* \"#utility.yul\":3673:3795   */\n    tag_427:\n        /* \"#utility.yul\":3831:3837   */\n      dup2\n        /* \"#utility.yul\":3818:3838   */\n      calldataload\n        /* \"#utility.yul\":3856:3935   */\n      tag_429\n        /* \"#utility.yul\":3931:3934   */\n      dup5\n        /* \"#utility.yul\":3923:3929   */\n      dup3\n        /* \"#utility.yul\":3916:3920   */\n      0x20\n        /* \"#utility.yul\":3908:3914   */\n      dup7\n        /* \"#utility.yul\":3904:3921   */\n      add\n        /* \"#utility.yul\":3856:3935   */\n      tag_304\n      jump\t// in\n    tag_429:\n        /* \"#utility.yul\":3847:3935   */\n      swap2\n      pop\n        /* \"#utility.yul\":3663:3941   */\n      pop\n        /* \"#utility.yul\":3601:3941   */\n      swap3\n      swap2\n      pop\n      pop\n      jump\t// out\n        /* \"#utility.yul\":3947:5062   */\n    tag_20:\n        /* \"#utility.yul\":4064:4070   */\n      0x00\n        /* \"#utility.yul\":4072:4078   */\n      dup1\n        /* \"#utility.yul\":4080:4086   */\n      0x00\n        /* \"#utility.yul\":4088:4094   */\n      dup1\n        /* \"#utility.yul\":4096:4102   */\n      0x00\n        /* \"#utility.yul\":4145:4148   */\n      0xa0\n        /* \"#utility.yul\":4133:4142   */\n      dup7\n        /* \"#utility.yul\":4124:4131   */\n      dup9\n        /* \"#utility.yul\":4120:4143   */\n      sub\n        /* \"#utility.yul\":4116:4149   */\n      slt\n        /* \"#utility.yul\":4113:4233   */\n      iszero\n      tag_431\n      jumpi\n        /* \"#utility.yul\":4152:4231   */\n      tag_432\n      tag_283\n      jump\t// in\n    tag_432:\n        /* \"#utility.yul\":4113:4233   */\n    tag_431:\n        /* \"#utility.yul\":4272:4273   */\n      0x00\n        /* \"#utility.yul\":4297:4364   */\n      tag_433\n        /* \"#utility.yul\":4356:4363   */\n      dup9\n        /* \"#utility.yul\":4347:4353   */\n      dup3\n        /* \"#utility.yul\":4336:4345   */\n      dup10\n        /* \"#utility.yul\":4332:4354   */\n      add\n        /* \"#utility.yul\":4297:4364   */\n      tag_289\n      jump\t// in\n    tag_433:\n        /* \"#utility.yul\":4287:4364   */\n      swap6\n      pop\n        /* \"#utility.yul\":4243:4374   */\n      pop\n        /* \"#utility.yul\":4413:4415   */\n      0x20\n        /* \"#utility.yul\":4439:4492   */\n      tag_434\n        /* \"#utility.yul\":4484:4491   */\n      dup9\n        /* \"#utility.yul\":4475:4481   */\n      dup3\n        /* \"#utility.yul\":4464:4473   */\n      dup10\n        /* \"#utility.yul\":4460:4482   */\n      add\n        /* \"#utility.yul\":4439:4492   */\n      tag_292\n      jump\t// in\n    tag_434:\n        /* \"#utility.yul\":4429:4492   */\n      swap5\n      pop\n        /* \"#utility.yul\":4384:4502   */\n      pop\n        /* \"#utility.yul\":4541:4543   */\n      0x40\n        /* \"#utility.yul\":4567:4618   */\n      tag_435\n        /* \"#utility.yul\":4610:4617   */\n      dup9\n        /* \"#utility.yul\":4601:4607   */\n      dup3\n        /* \"#utility.yul\":4590:4599   */\n      dup10\n        /* \"#utility.yul\":4586:4608   */\n      add\n        /* \"#utility.yul\":4567:4618   */\n      tag_295\n      jump\t// in\n    tag_435:\n        /* \"#utility.yul\":4557:4618   */\n      swap4\n      pop\n        /* \"#utility.yul\":4512:4628   */\n      pop\n        /* \"#utility.yul\":4667:4669   */\n      0x60\n        /* \"#utility.yul\":4693:4746   */\n      tag_436\n        /* \"#utility.yul\":4738:4745   */\n      dup9\n        /* \"#utility.yul\":4729:4735   */\n      dup3\n        /* \"#utility.yul\":4718:4727   */\n      dup10\n        /* \"#utility.yul\":4714:4736   */\n      add\n        /* \"#utility.yul\":4693:4746   */\n      tag_292\n      jump\t// in\n    tag_436:\n        /* \"#utility.yul\":4683:4746   */\n      swap3\n      pop\n        /* \"#utility.yul\":4638:4756   */\n      pop\n        /* \"#utility.yul\":4823:4826   */\n      0x80\n        /* \"#utility.yul\":4812:4821   */\n      dup7\n        /* \"#utility.yul\":4808:4827   */\n      add\n        /* \"#utility.yul\":4795:4828   */\n      calldataload\n        /* \"#utility.yul\":4855:4873   */\n      0xffffffffffffffff\n        /* \"#utility.yul\":4847:4853   */\n      dup2\n        /* \"#utility.yul\":4844:4874   */\n      gt\n        /* \"#utility.yul\":4841:4958   */\n      iszero\n      tag_437\n      jumpi\n        /* \"#utility.yul\":4877:4956   */\n      tag_438\n      tag_284\n      jump\t// in\n    tag_438:\n        /* \"#utility.yul\":4841:4958   */\n    tag_437:\n        /* \"#utility.yul\":4982:5045   */\n      tag_439\n        /* \"#utility.yul\":5037:5044   */\n      dup9\n        /* \"#utility.yul\":5028:5034   */\n      dup3\n        /* \"#utility.yul\":5017:5026   */\n      dup10\n        /* \"#utility.yul\":5013:5035   */\n      add\n        /* \"#utility.yul\":4982:5045   */\n      tag_305\n      jump\t// in\n    tag_439:\n        /* \"#utility.yul\":4972:5045   */\n      swap2\n      pop\n        /* \"#utility.yul\":4766:5055   */\n      pop\n        /* \"#utility.yul\":3947:5062   */\n      swap3\n      swap6\n      pop\n      swap3\n      swap6\n      swap1\n      swap4\n      pop\n      jump\t// out\n        /* \"#utility.yul\":5068:5863   */\n    tag_24:\n        /* \"#utility.yul\":5153:5159   */\n      0x00\n        /* \"#utility.yul\":5161:5167   */\n      dup1\n        /* \"#utility.yul\":5169:5175   */\n      0x00\n        /* \"#utility.yul\":5218:5220   */\n      0x60\n        /* \"#utility.yul\":5206:5215   */\n      dup5\n        /* \"#utility.yul\":5197:5204   */\n      dup7\n        /* \"#utility.yul\":5193:5216   */\n      sub\n        /* \"#utility.yul\":5189:5221   */\n      slt\n        /* \"#utility.yul\":5186:5305   */\n      iszero\n      tag_441\n      jumpi\n        /* \"#utility.yul\":5224:5303   */\n      tag_442\n      tag_283\n      jump\t// in\n    tag_442:\n        /* \"#utility.yul\":5186:5305   */\n    tag_441:\n        /* \"#utility.yul\":5344:5345   */\n      0x00\n        /* \"#utility.yul\":5369:5420   */\n      tag_443\n        /* \"#utility.yul\":5412:5419   */\n      dup7\n        /* \"#utility.yul\":5403:5409   */\n      dup3\n        /* \"#utility.yul\":5392:5401   */\n      dup8\n        /* \"#utility.yul\":5388:5410   */\n      add\n        /* \"#utility.yul\":5369:5420   */\n      tag_295\n      jump\t// in\n    tag_443:\n        /* \"#utility.yul\":5359:5420   */\n      swap4\n      pop\n        /* \"#utility.yul\":5315:5430   */\n      pop\n        /* \"#utility.yul\":5469:5471   */\n      0x20\n        /* \"#utility.yul\":5495:5548   */\n      tag_444\n        /* \"#utility.yul\":5540:5547   */\n      dup7\n        /* \"#utility.yul\":5531:5537   */\n      dup3\n        /* \"#utility.yul\":5520:5529   */\n      dup8\n        /* \"#utility.yul\":5516:5538   */\n      add\n        /* \"#utility.yul\":5495:5548   */\n      tag_292\n      jump\t// in\n    tag_444:\n        /* \"#utility.yul\":5485:5548   */\n      swap3\n      pop\n        /* \"#utility.yul\":5440:5558   */\n      pop\n        /* \"#utility.yul\":5625:5627   */\n      0x40\n        /* \"#utility.yul\":5614:5623   */\n      dup5\n        /* \"#utility.yul\":5610:5628   */\n      add\n        /* \"#utility.yul\":5597:5629   */\n      calldataload\n        /* \"#utility.yul\":5656:5674   */\n      0xffffffffffffffff\n        /* \"#utility.yul\":5648:5654   */\n      dup2\n        /* \"#utility.yul\":5645:5675   */\n      gt\n        /* \"#utility.yul\":5642:5759   */\n      iszero\n      tag_445\n      jumpi\n        /* \"#utility.yul\":5678:5757   */\n      tag_446\n      tag_284\n      jump\t// in\n    tag_446:\n        /* \"#utility.yul\":5642:5759   */\n    tag_445:\n        /* \"#utility.yul\":5783:5846   */\n      tag_447\n        /* \"#utility.yul\":5838:5845   */\n      dup7\n        /* \"#utility.yul\":5829:5835   */\n      dup3\n        /* \"#utility.yul\":5818:5827   */\n      dup8\n        /* \"#utility.yul\":5814:5836   */\n      add\n        /* \"#utility.yul\":5783:5846   */\n      tag_305\n      jump\t// in\n    tag_447:\n        /* \"#utility.yul\":5773:5846   */\n      swap2\n      pop\n        /* \"#utility.yul\":5568:5856   */\n      pop\n        /* \"#utility.yul\":5068:5863   */\n      swap3\n      pop\n      swap3\n      pop\n      swap3\n      jump\t// out\n        /* \"#utility.yul\":5869:6226   */\n    tag_29:\n        /* \"#utility.yul\":5942:5948   */\n      0x00\n        /* \"#utility.yul\":5991:5993   */\n      0x20\n        /* \"#utility.yul\":5979:5988   */\n      dup3\n        /* \"#utility.yul\":5970:5977   */\n      dup5\n        /* \"#utility.yul\":5966:5989   */\n      sub\n        /* \"#utility.yul\":5962:5994   */\n      slt\n        /* \"#utility.yul\":5959:6078   */\n      iszero\n      tag_449\n      jumpi\n        /* \"#utility.yul\":5997:6076   */\n      tag_450\n      tag_283\n      jump\t// in\n    tag_450:\n        /* \"#utility.yul\":5959:6078   */\n    tag_449:\n        /* \"#utility.yul\":6117:6118   */\n      0x00\n        /* \"#utility.yul\":6142:6209   */\n      tag_451\n        /* \"#utility.yul\":6201:6208   */\n      dup5\n        /* \"#utility.yul\":6192:6198   */\n      dup3\n        /* \"#utility.yul\":6181:6190   */\n      dup6\n        /* \"#utility.yul\":6177:6199   */\n      add\n        /* \"#utility.yul\":6142:6209   */\n      tag_289\n      jump\t// in\n    tag_451:\n        /* \"#utility.yul\":6132:6209   */\n      swap2\n      pop\n        /* \"#utility.yul\":6088:6219   */\n      pop\n        /* \"#utility.yul\":5869:6226   */\n      swap3\n      swap2\n      pop\n      pop\n      jump\t// out\n        /* \"#utility.yul\":6232:6350   */\n    tag_306:\n        /* \"#utility.yul\":6319:6343   */\n      tag_453\n        /* \"#utility.yul\":6337:6342   */\n      dup2\n        /* \"#utility.yul\":6319:6343   */\n      tag_290\n      jump\t// in\n    tag_453:\n        /* \"#utility.yul\":6314:6317   */\n      dup3\n        /* \"#utility.yul\":6307:6344   */\n      mstore\n        /* \"#utility.yul\":6232:6350   */\n      pop\n      pop\n      jump\t// out\n        /* \"#utility.yul\":6356:6578   */\n    tag_32:\n        /* \"#utility.yul\":6449:6453   */\n      0x00\n        /* \"#utility.yul\":6487:6489   */\n      0x20\n        /* \"#utility.yul\":6476:6485   */\n      dup3\n        /* \"#utility.yul\":6472:6490   */\n      add\n        /* \"#utility.yul\":6464:6490   */\n      swap1\n      pop\n        /* \"#utility.yul\":6500:6571   */\n      tag_455\n        /* \"#utility.yul\":6568:6569   */\n      0x00\n        /* \"#utility.yul\":6557:6566   */\n      dup4\n        /* \"#utility.yul\":6553:6570   */\n      add\n        /* \"#utility.yul\":6544:6550   */\n      dup5\n        /* \"#utility.yul\":6500:6571   */\n      tag_306\n      jump\t// in\n    tag_455:\n        /* \"#utility.yul\":6356:6578   */\n      swap3\n      swap2\n      pop\n      pop\n      jump\t// out\n        /* \"#utility.yul\":6584:6677   */\n    tag_307:\n        /* \"#utility.yul\":6620:6627   */\n      0x00\n        /* \"#utility.yul\":6660:6670   */\n      0xffffffff\n        /* \"#utility.yul\":6653:6658   */\n      dup3\n        /* \"#utility.yul\":6649:6671   */\n      and\n        /* \"#utility.yul\":6638:6671   */\n      swap1\n      pop\n        /* \"#utility.yul\":6584:6677   */\n      swap2\n      swap1\n      pop\n      jump\t// out\n        /* \"#utility.yul\":6683:6803   */\n    tag_308:\n        /* \"#utility.yul\":6755:6778   */\n      tag_458\n        /* \"#utility.yul\":6772:6777   */\n      dup2\n        /* \"#utility.yul\":6755:6778   */\n      tag_307\n      jump\t// in\n    tag_458:\n        /* \"#utility.yul\":6748:6753   */\n      dup2\n        /* \"#utility.yul\":6745:6779   */\n      eq\n        /* \"#utility.yul\":6735:6797   */\n      tag_459\n      jumpi\n        /* \"#utility.yul\":6793:6794   */\n      0x00\n        /* \"#utility.yul\":6790:6791   */\n      dup1\n        /* \"#utility.yul\":6783:6795   */\n      revert\n        /* \"#utility.yul\":6735:6797   */\n    tag_459:\n        /* \"#utility.yul\":6683:6803   */\n      pop\n      jump\t// out\n        /* \"#utility.yul\":6809:6946   */\n    tag_309:\n        /* \"#utility.yul\":6854:6859   */\n      0x00\n        /* \"#utility.yul\":6892:6898   */\n      dup2\n        /* \"#utility.yul\":6879:6899   */\n      calldataload\n        /* \"#utility.yul\":6870:6899   */\n      swap1\n      pop\n        /* \"#utility.yul\":6908:6940   */\n      tag_461\n        /* \"#utility.yul\":6934:6939   */\n      dup2\n        /* \"#utility.yul\":6908:6940   */\n      tag_308\n      jump\t// in\n    tag_461:\n        /* \"#utility.yul\":6809:6946   */\n      swap3\n      swap2\n      pop\n      pop\n      jump\t// out\n        /* \"#utility.yul\":6952:7739   */\n    tag_36:\n        /* \"#utility.yul\":7049:7055   */\n      0x00\n        /* \"#utility.yul\":7057:7063   */\n      dup1\n        /* \"#utility.yul\":7065:7071   */\n      0x00\n        /* \"#utility.yul\":7073:7079   */\n      dup1\n        /* \"#utility.yul\":7122:7125   */\n      0x80\n        /* \"#utility.yul\":7110:7119   */\n      dup6\n        /* \"#utility.yul\":7101:7108   */\n      dup8\n        /* \"#utility.yul\":7097:7120   */\n      sub\n        /* \"#utility.yul\":7093:7126   */\n      slt\n        /* \"#utility.yul\":7090:7210   */\n      iszero\n      tag_463\n      jumpi\n        /* \"#utility.yul\":7129:7208   */\n      tag_464\n      tag_283\n      jump\t// in\n    tag_464:\n        /* \"#utility.yul\":7090:7210   */\n    tag_463:\n        /* \"#utility.yul\":7249:7250   */\n      0x00\n        /* \"#utility.yul\":7274:7341   */\n      tag_465\n        /* \"#utility.yul\":7333:7340   */\n      dup8\n        /* \"#utility.yul\":7324:7330   */\n      dup3\n        /* \"#utility.yul\":7313:7322   */\n      dup9\n        /* \"#utility.yul\":7309:7331   */\n      add\n        /* \"#utility.yul\":7274:7341   */\n      tag_289\n      jump\t// in\n    tag_465:\n        /* \"#utility.yul\":7264:7341   */\n      swap5\n      pop\n        /* \"#utility.yul\":7220:7351   */\n      pop\n        /* \"#utility.yul\":7390:7392   */\n      0x20\n        /* \"#utility.yul\":7416:7468   */\n      tag_466\n        /* \"#utility.yul\":7460:7467   */\n      dup8\n        /* \"#utility.yul\":7451:7457   */\n      dup3\n        /* \"#utility.yul\":7440:7449   */\n      dup9\n        /* \"#utility.yul\":7436:7458   */\n      add\n        /* \"#utility.yul\":7416:7468   */\n      tag_309\n      jump\t// in\n    tag_466:\n        /* \"#utility.yul\":7406:7468   */\n      swap4\n      pop\n        /* \"#utility.yul\":7361:7478   */\n      pop\n        /* \"#utility.yul\":7517:7519   */\n      0x40\n        /* \"#utility.yul\":7543:7596   */\n      tag_467\n        /* \"#utility.yul\":7588:7595   */\n      dup8\n        /* \"#utility.yul\":7579:7585   */\n      dup3\n        /* \"#utility.yul\":7568:7577   */\n      dup9\n        /* \"#utility.yul\":7564:7586   */\n      add\n        /* \"#utility.yul\":7543:7596   */\n      tag_292\n      jump\t// in\n    tag_467:\n        /* \"#utility.yul\":7533:7596   */\n      swap3\n      pop\n        /* \"#utility.yul\":7488:7606   */\n      pop\n        /* \"#utility.yul\":7645:7647   */\n      0x60\n        /* \"#utility.yul\":7671:7722   */\n      tag_468\n        /* \"#utility.yul\":7714:7721   */\n      dup8\n        /* \"#utility.yul\":7705:7711   */\n      dup3\n        /* \"#utility.yul\":7694:7703   */\n      dup9\n        /* \"#utility.yul\":7690:7712   */\n      add\n        /* \"#utility.yul\":7671:7722   */\n      tag_295\n      jump\t// in\n    tag_468:\n        /* \"#utility.yul\":7661:7722   */\n      swap2\n      pop\n        /* \"#utility.yul\":7616:7732   */\n      pop\n        /* \"#utility.yul\":6952:7739   */\n      swap3\n      swap6\n      swap2\n      swap5\n      pop\n      swap3\n      pop\n      jump\t// out\n        /* \"#utility.yul\":7745:8070   */\n    tag_41:\n        /* \"#utility.yul\":7802:7808   */\n      0x00\n        /* \"#utility.yul\":7851:7853   */\n      0x20\n        /* \"#utility.yul\":7839:7848   */\n      dup3\n        /* \"#utility.yul\":7830:7837   */\n      dup5\n        /* \"#utility.yul\":7826:7849   */\n      sub\n        /* \"#utility.yul\":7822:7854   */\n      slt\n        /* \"#utility.yul\":7819:7938   */\n      iszero\n      tag_470\n      jumpi\n        /* \"#utility.yul\":7857:7936   */\n      tag_471\n      tag_283\n      jump\t// in\n    tag_471:\n        /* \"#utility.yul\":7819:7938   */\n    tag_470:\n        /* \"#utility.yul\":7977:7978   */\n      0x00\n        /* \"#utility.yul\":8002:8053   */\n      tag_472\n        /* \"#utility.yul\":8045:8052   */\n      dup5\n        /* \"#utility.yul\":8036:8042   */\n      dup3\n        /* \"#utility.yul\":8025:8034   */\n      dup6\n        /* \"#utility.yul\":8021:8043   */\n      add\n        /* \"#utility.yul\":8002:8053   */\n      tag_295\n      jump\t// in\n    tag_472:\n        /* \"#utility.yul\":7992:8053   */\n      swap2\n      pop\n        /* \"#utility.yul\":7948:8063   */\n      pop\n        /* \"#utility.yul\":7745:8070   */\n      swap3\n      swap2\n      pop\n      pop\n      jump\t// out\n        /* \"#utility.yul\":8076:8211   */\n    tag_310:\n        /* \"#utility.yul\":8164:8170   */\n      0x00\n        /* \"#utility.yul\":8198:8203   */\n      dup2\n        /* \"#utility.yul\":8192:8204   */\n      mload\n        /* \"#utility.yul\":8182:8204   */\n      swap1\n      pop\n        /* \"#utility.yul\":8076:8211   */\n      swap2\n      swap1\n      pop\n      jump\t// out\n        /* \"#utility.yul\":8217:8422   */\n    tag_311:\n        /* \"#utility.yul\":8337:8348   */\n      0x00\n        /* \"#utility.yul\":8371:8377   */\n      dup3\n        /* \"#utility.yul\":8366:8369   */\n      dup3\n        /* \"#utility.yul\":8359:8378   */\n      mstore\n        /* \"#utility.yul\":8411:8415   */\n      0x20\n        /* \"#utility.yul\":8406:8409   */\n      dup3\n        /* \"#utility.yul\":8402:8416   */\n      add\n        /* \"#utility.yul\":8387:8416   */\n      swap1\n      pop\n        /* \"#utility.yul\":8217:8422   */\n      swap3\n      swap2\n      pop\n      pop\n      jump\t// out\n        /* \"#utility.yul\":8428:8581   */\n    tag_312:\n        /* \"#utility.yul\":8516:8520   */\n      0x00\n        /* \"#utility.yul\":8539:8542   */\n      dup2\n        /* \"#utility.yul\":8531:8542   */\n      swap1\n      pop\n        /* \"#utility.yul\":8569:8573   */\n      0x20\n        /* \"#utility.yul\":8564:8567   */\n      dup3\n        /* \"#utility.yul\":8560:8574   */\n      add\n        /* \"#utility.yul\":8552:8574   */\n      swap1\n      pop\n        /* \"#utility.yul\":8428:8581   */\n      swap2\n      swap1\n      pop\n      jump\t// out\n        /* \"#utility.yul\":8587:8695   */\n    tag_313:\n        /* \"#utility.yul\":8664:8688   */\n      tag_477\n        /* \"#utility.yul\":8682:8687   */\n      dup2\n        /* \"#utility.yul\":8664:8688   */\n      tag_286\n      jump\t// in\n    tag_477:\n        /* \"#utility.yul\":8659:8662   */\n      dup3\n        /* \"#utility.yul\":8652:8689   */\n      mstore\n        /* \"#utility.yul\":8587:8695   */\n      pop\n      pop\n      jump\t// out\n        /* \"#utility.yul\":8701:8809   */\n    tag_314:\n        /* \"#utility.yul\":8778:8802   */\n      tag_479\n        /* \"#utility.yul\":8796:8801   */\n      dup2\n        /* \"#utility.yul\":8778:8802   */\n      tag_290\n      jump\t// in\n    tag_479:\n        /* \"#utility.yul\":8773:8776   */\n      dup3\n        /* \"#utility.yul\":8766:8803   */\n      mstore\n        /* \"#utility.yul\":8701:8809   */\n      pop\n      pop\n      jump\t// out\n        /* \"#utility.yul\":8815:8914   */\n    tag_315:\n        /* \"#utility.yul\":8867:8873   */\n      0x00\n        /* \"#utility.yul\":8901:8906   */\n      dup2\n        /* \"#utility.yul\":8895:8907   */\n      mload\n        /* \"#utility.yul\":8885:8907   */\n      swap1\n      pop\n        /* \"#utility.yul\":8815:8914   */\n      swap2\n      swap1\n      pop\n      jump\t// out\n        /* \"#utility.yul\":8920:9079   */\n    tag_316:\n        /* \"#utility.yul\":8994:9005   */\n      0x00\n        /* \"#utility.yul\":9028:9034   */\n      dup3\n        /* \"#utility.yul\":9023:9026   */\n      dup3\n        /* \"#utility.yul\":9016:9035   */\n      mstore\n        /* \"#utility.yul\":9068:9072   */\n      0x20\n        /* \"#utility.yul\":9063:9066   */\n      dup3\n        /* \"#utility.yul\":9059:9073   */\n      add\n        /* \"#utility.yul\":9044:9073   */\n      swap1\n      pop\n        /* \"#utility.yul\":8920:9079   */\n      swap3\n      swap2\n      pop\n      pop\n      jump\t// out\n        /* \"#utility.yul\":9085:9224   */\n    tag_317:\n        /* \"#utility.yul\":9174:9180   */\n      dup3\n        /* \"#utility.yul\":9169:9172   */\n      dup2\n        /* \"#utility.yul\":9164:9167   */\n      dup4\n        /* \"#utility.yul\":9158:9181   */\n      mcopy\n        /* \"#utility.yul\":9215:9216   */\n      0x00\n        /* \"#utility.yul\":9206:9212   */\n      dup4\n        /* \"#utility.yul\":9201:9204   */\n      dup4\n        /* \"#utility.yul\":9197:9213   */\n      add\n        /* \"#utility.yul\":9190:9217   */\n      mstore\n        /* \"#utility.yul\":9085:9224   */\n      pop\n      pop\n      pop\n      jump\t// out\n        /* \"#utility.yul\":9230:9587   */\n    tag_318:\n        /* \"#utility.yul\":9308:9311   */\n      0x00\n        /* \"#utility.yul\":9336:9375   */\n      tag_484\n        /* \"#utility.yul\":9369:9374   */\n      dup3\n        /* \"#utility.yul\":9336:9375   */\n      tag_315\n      jump\t// in\n    tag_484:\n        /* \"#utility.yul\":9391:9452   */\n      tag_485\n        /* \"#utility.yul\":9445:9451   */\n      dup2\n        /* \"#utility.yul\":9440:9443   */\n      dup6\n        /* \"#utility.yul\":9391:9452   */\n      tag_316\n      jump\t// in\n    tag_485:\n        /* \"#utility.yul\":9384:9452   */\n      swap4\n      pop\n        /* \"#utility.yul\":9461:9526   */\n      tag_486\n        /* \"#utility.yul\":9519:9525   */\n      dup2\n        /* \"#utility.yul\":9514:9517   */\n      dup6\n        /* \"#utility.yul\":9507:9511   */\n      0x20\n        /* \"#utility.yul\":9500:9505   */\n      dup7\n        /* \"#utility.yul\":9496:9512   */\n      add\n        /* \"#utility.yul\":9461:9526   */\n      tag_317\n      jump\t// in\n    tag_486:\n        /* \"#utility.yul\":9551:9580   */\n      tag_487\n        /* \"#utility.yul\":9573:9579   */\n      dup2\n        /* \"#utility.yul\":9551:9580   */\n      tag_298\n      jump\t// in\n    tag_487:\n        /* \"#utility.yul\":9546:9549   */\n      dup5\n        /* \"#utility.yul\":9542:9581   */\n      add\n        /* \"#utility.yul\":9535:9581   */\n      swap2\n      pop\n        /* \"#utility.yul\":9312:9587   */\n      pop\n        /* \"#utility.yul\":9230:9587   */\n      swap3\n      swap2\n      pop\n      pop\n      jump\t// out\n        /* \"#utility.yul\":9593:9683   */\n    tag_319:\n        /* \"#utility.yul\":9627:9634   */\n      0x00\n        /* \"#utility.yul\":9670:9675   */\n      dup2\n        /* \"#utility.yul\":9663:9676   */\n      iszero\n        /* \"#utility.yul\":9656:9677   */\n      iszero\n        /* \"#utility.yul\":9645:9677   */\n      swap1\n      pop\n        /* \"#utility.yul\":9593:9683   */\n      swap2\n      swap1\n      pop\n      jump\t// out\n        /* \"#utility.yul\":9689:9788   */\n    tag_320:\n        /* \"#utility.yul\":9760:9781   */\n      tag_490\n        /* \"#utility.yul\":9775:9780   */\n      dup2\n        /* \"#utility.yul\":9760:9781   */\n      tag_319\n      jump\t// in\n    tag_490:\n        /* \"#utility.yul\":9755:9758   */\n      dup3\n        /* \"#utility.yul\":9748:9782   */\n      mstore\n        /* \"#utility.yul\":9689:9788   */\n      pop\n      pop\n      jump\t// out\n        /* \"#utility.yul\":9840:11132   */\n    tag_321:\n        /* \"#utility.yul\":9941:9944   */\n      0x00\n        /* \"#utility.yul\":9977:9981   */\n      0xc0\n        /* \"#utility.yul\":9972:9975   */\n      dup4\n        /* \"#utility.yul\":9968:9982   */\n      add\n        /* \"#utility.yul\":10065:10069   */\n      0x00\n        /* \"#utility.yul\":10058:10063   */\n      dup4\n        /* \"#utility.yul\":10054:10070   */\n      add\n        /* \"#utility.yul\":10048:10071   */\n      mload\n        /* \"#utility.yul\":10084:10147   */\n      tag_492\n        /* \"#utility.yul\":10141:10145   */\n      0x00\n        /* \"#utility.yul\":10136:10139   */\n      dup7\n        /* \"#utility.yul\":10132:10146   */\n      add\n        /* \"#utility.yul\":10118:10130   */\n      dup3\n        /* \"#utility.yul\":10084:10147   */\n      tag_313\n      jump\t// in\n    tag_492:\n        /* \"#utility.yul\":9992:10157   */\n      pop\n        /* \"#utility.yul\":10241:10245   */\n      0x20\n        /* \"#utility.yul\":10234:10239   */\n      dup4\n        /* \"#utility.yul\":10230:10246   */\n      add\n        /* \"#utility.yul\":10224:10247   */\n      mload\n        /* \"#utility.yul\":10260:10323   */\n      tag_493\n        /* \"#utility.yul\":10317:10321   */\n      0x20\n        /* \"#utility.yul\":10312:10315   */\n      dup7\n        /* \"#utility.yul\":10308:10322   */\n      add\n        /* \"#utility.yul\":10294:10306   */\n      dup3\n        /* \"#utility.yul\":10260:10323   */\n      tag_314\n      jump\t// in\n    tag_493:\n        /* \"#utility.yul\":10167:10333   */\n      pop\n        /* \"#utility.yul\":10422:10426   */\n      0x40\n        /* \"#utility.yul\":10415:10420   */\n      dup4\n        /* \"#utility.yul\":10411:10427   */\n      add\n        /* \"#utility.yul\":10405:10428   */\n      mload\n        /* \"#utility.yul\":10441:10504   */\n      tag_494\n        /* \"#utility.yul\":10498:10502   */\n      0x40\n        /* \"#utility.yul\":10493:10496   */\n      dup7\n        /* \"#utility.yul\":10489:10503   */\n      add\n        /* \"#utility.yul\":10475:10487   */\n      dup3\n        /* \"#utility.yul\":10441:10504   */\n      tag_314\n      jump\t// in\n    tag_494:\n        /* \"#utility.yul\":10343:10514   */\n      pop\n        /* \"#utility.yul\":10597:10601   */\n      0x60\n        /* \"#utility.yul\":10590:10595   */\n      dup4\n        /* \"#utility.yul\":10586:10602   */\n      add\n        /* \"#utility.yul\":10580:10603   */\n      mload\n        /* \"#utility.yul\":10650:10653   */\n      dup5\n        /* \"#utility.yul\":10644:10648   */\n      dup3\n        /* \"#utility.yul\":10640:10654   */\n      sub\n        /* \"#utility.yul\":10633:10637   */\n      0x60\n        /* \"#utility.yul\":10628:10631   */\n      dup7\n        /* \"#utility.yul\":10624:10638   */\n      add\n        /* \"#utility.yul\":10617:10655   */\n      mstore\n        /* \"#utility.yul\":10676:10749   */\n      tag_495\n        /* \"#utility.yul\":10744:10748   */\n      dup3\n        /* \"#utility.yul\":10730:10742   */\n      dup3\n        /* \"#utility.yul\":10676:10749   */\n      tag_318\n      jump\t// in\n    tag_495:\n        /* \"#utility.yul\":10668:10749   */\n      swap2\n      pop\n        /* \"#utility.yul\":10524:10760   */\n      pop\n        /* \"#utility.yul\":10847:10851   */\n      0x80\n        /* \"#utility.yul\":10840:10845   */\n      dup4\n        /* \"#utility.yul\":10836:10852   */\n      add\n        /* \"#utility.yul\":10830:10853   */\n      mload\n        /* \"#utility.yul\":10866:10923   */\n      tag_496\n        /* \"#utility.yul\":10917:10921   */\n      0x80\n        /* \"#utility.yul\":10912:10915   */\n      dup7\n        /* \"#utility.yul\":10908:10922   */\n      add\n        /* \"#utility.yul\":10894:10906   */\n      dup3\n        /* \"#utility.yul\":10866:10923   */\n      tag_320\n      jump\t// in\n    tag_496:\n        /* \"#utility.yul\":10770:10933   */\n      pop\n        /* \"#utility.yul\":11019:11023   */\n      0xa0\n        /* \"#utility.yul\":11012:11017   */\n      dup4\n        /* \"#utility.yul\":11008:11024   */\n      add\n        /* \"#utility.yul\":11002:11025   */\n      mload\n        /* \"#utility.yul\":11038:11095   */\n      tag_497\n        /* \"#utility.yul\":11089:11093   */\n      0xa0\n        /* \"#utility.yul\":11084:11087   */\n      dup7\n        /* \"#utility.yul\":11080:11094   */\n      add\n        /* \"#utility.yul\":11066:11078   */\n      dup3\n        /* \"#utility.yul\":11038:11095   */\n      tag_320\n      jump\t// in\n    tag_497:\n        /* \"#utility.yul\":10943:11105   */\n      pop\n        /* \"#utility.yul\":11122:11126   */\n      dup1\n        /* \"#utility.yul\":11115:11126   */\n      swap2\n      pop\n        /* \"#utility.yul\":9946:11132   */\n      pop\n        /* \"#utility.yul\":9840:11132   */\n      swap3\n      swap2\n      pop\n      pop\n      jump\t// out\n        /* \"#utility.yul\":11138:11378   */\n    tag_322:\n        /* \"#utility.yul\":11249:11259   */\n      0x00\n        /* \"#utility.yul\":11284:11372   */\n      tag_499\n        /* \"#utility.yul\":11368:11371   */\n      dup4\n        /* \"#utility.yul\":11360:11366   */\n      dup4\n        /* \"#utility.yul\":11284:11372   */\n      tag_321\n      jump\t// in\n    tag_499:\n        /* \"#utility.yul\":11270:11372   */\n      swap1\n      pop\n        /* \"#utility.yul\":11138:11378   */\n      swap3\n      swap2\n      pop\n      pop\n      jump\t// out\n        /* \"#utility.yul\":11384:11518   */\n    tag_323:\n        /* \"#utility.yul\":11475:11479   */\n      0x00\n        /* \"#utility.yul\":11507:11511   */\n      0x20\n        /* \"#utility.yul\":11502:11505   */\n      dup3\n        /* \"#utility.yul\":11498:11512   */\n      add\n        /* \"#utility.yul\":11490:11512   */\n      swap1\n      pop\n        /* \"#utility.yul\":11384:11518   */\n      swap2\n      swap1\n      pop\n      jump\t// out\n        /* \"#utility.yul\":11574:12653   */\n    tag_324:\n        /* \"#utility.yul\":11735:11738   */\n      0x00\n        /* \"#utility.yul\":11764:11839   */\n      tag_502\n        /* \"#utility.yul\":11833:11838   */\n      dup3\n        /* \"#utility.yul\":11764:11839   */\n      tag_310\n      jump\t// in\n    tag_502:\n        /* \"#utility.yul\":11855:11962   */\n      tag_503\n        /* \"#utility.yul\":11955:11961   */\n      dup2\n        /* \"#utility.yul\":11950:11953   */\n      dup6\n        /* \"#utility.yul\":11855:11962   */\n      tag_311\n      jump\t// in\n    tag_503:\n        /* \"#utility.yul\":11848:11962   */\n      swap4\n      pop\n        /* \"#utility.yul\":11988:11991   */\n      dup4\n        /* \"#utility.yul\":12033:12037   */\n      0x20\n        /* \"#utility.yul\":12025:12031   */\n      dup3\n        /* \"#utility.yul\":12021:12038   */\n      mul\n        /* \"#utility.yul\":12016:12019   */\n      dup6\n        /* \"#utility.yul\":12012:12039   */\n      add\n        /* \"#utility.yul\":12063:12140   */\n      tag_504\n        /* \"#utility.yul\":12134:12139   */\n      dup6\n        /* \"#utility.yul\":12063:12140   */\n      tag_312\n      jump\t// in\n    tag_504:\n        /* \"#utility.yul\":12163:12170   */\n      dup1\n        /* \"#utility.yul\":12194:12195   */\n      0x00\n        /* \"#utility.yul\":12179:12608   */\n    tag_505:\n        /* \"#utility.yul\":12204:12210   */\n      dup6\n        /* \"#utility.yul\":12201:12202   */\n      dup2\n        /* \"#utility.yul\":12198:12211   */\n      lt\n        /* \"#utility.yul\":12179:12608   */\n      iszero\n      tag_507\n      jumpi\n        /* \"#utility.yul\":12275:12284   */\n      dup5\n        /* \"#utility.yul\":12269:12273   */\n      dup5\n        /* \"#utility.yul\":12265:12285   */\n      sub\n        /* \"#utility.yul\":12260:12263   */\n      dup10\n        /* \"#utility.yul\":12253:12286   */\n      mstore\n        /* \"#utility.yul\":12326:12332   */\n      dup2\n        /* \"#utility.yul\":12320:12333   */\n      mload\n        /* \"#utility.yul\":12354:12460   */\n      tag_508\n        /* \"#utility.yul\":12455:12459   */\n      dup6\n        /* \"#utility.yul\":12440:12453   */\n      dup3\n        /* \"#utility.yul\":12354:12460   */\n      tag_322\n      jump\t// in\n    tag_508:\n        /* \"#utility.yul\":12346:12460   */\n      swap5\n      pop\n        /* \"#utility.yul\":12483:12564   */\n      tag_509\n        /* \"#utility.yul\":12557:12563   */\n      dup4\n        /* \"#utility.yul\":12483:12564   */\n      tag_323\n      jump\t// in\n    tag_509:\n        /* \"#utility.yul\":12473:12564   */\n      swap3\n      pop\n        /* \"#utility.yul\":12593:12597   */\n      0x20\n        /* \"#utility.yul\":12588:12591   */\n      dup11\n        /* \"#utility.yul\":12584:12598   */\n      add\n        /* \"#utility.yul\":12577:12598   */\n      swap10\n      pop\n        /* \"#utility.yul\":12239:12608   */\n      pop\n        /* \"#utility.yul\":12226:12227   */\n      0x01\n        /* \"#utility.yul\":12223:12224   */\n      dup2\n        /* \"#utility.yul\":12219:12228   */\n      add\n        /* \"#utility.yul\":12214:12228   */\n      swap1\n      pop\n        /* \"#utility.yul\":12179:12608   */\n      jump(tag_505)\n    tag_507:\n        /* \"#utility.yul\":12183:12197   */\n      pop\n        /* \"#utility.yul\":12624:12628   */\n      dup3\n        /* \"#utility.yul\":12617:12628   */\n      swap8\n      pop\n        /* \"#utility.yul\":12644:12647   */\n      dup8\n        /* \"#utility.yul\":12637:12647   */\n      swap6\n      pop\n        /* \"#utility.yul\":11740:12653   */\n      pop\n      pop\n      pop\n      pop\n      pop\n        /* \"#utility.yul\":11574:12653   */\n      swap3\n      swap2\n      pop\n      pop\n      jump\t// out\n        /* \"#utility.yul\":12659:13116   */\n    tag_44:\n        /* \"#utility.yul\":12844:12848   */\n      0x00\n        /* \"#utility.yul\":12882:12884   */\n      0x20\n        /* \"#utility.yul\":12871:12880   */\n      dup3\n        /* \"#utility.yul\":12867:12885   */\n      add\n        /* \"#utility.yul\":12859:12885   */\n      swap1\n      pop\n        /* \"#utility.yul\":12931:12940   */\n      dup2\n        /* \"#utility.yul\":12925:12929   */\n      dup2\n        /* \"#utility.yul\":12921:12941   */\n      sub\n        /* \"#utility.yul\":12917:12918   */\n      0x00\n        /* \"#utility.yul\":12906:12915   */\n      dup4\n        /* \"#utility.yul\":12902:12919   */\n      add\n        /* \"#utility.yul\":12895:12942   */\n      mstore\n        /* \"#utility.yul\":12959:13109   */\n      tag_511\n        /* \"#utility.yul\":13104:13108   */\n      dup2\n        /* \"#utility.yul\":13095:13101   */\n      dup5\n        /* \"#utility.yul\":12959:13109   */\n      tag_324\n      jump\t// in\n    tag_511:\n        /* \"#utility.yul\":12951:13109   */\n      swap1\n      pop\n        /* \"#utility.yul\":12659:13116   */\n      swap3\n      swap2\n      pop\n      pop\n      jump\t// out\n        /* \"#utility.yul\":13122:13240   */\n    tag_325:\n        /* \"#utility.yul\":13209:13233   */\n      tag_513\n        /* \"#utility.yul\":13227:13232   */\n      dup2\n        /* \"#utility.yul\":13209:13233   */\n      tag_286\n      jump\t// in\n    tag_513:\n        /* \"#utility.yul\":13204:13207   */\n      dup3\n        /* \"#utility.yul\":13197:13234   */\n      mstore\n        /* \"#utility.yul\":13122:13240   */\n      pop\n      pop\n      jump\t// out\n        /* \"#utility.yul\":13246:13468   */\n    tag_56:\n        /* \"#utility.yul\":13339:13343   */\n      0x00\n        /* \"#utility.yul\":13377:13379   */\n      0x20\n        /* \"#utility.yul\":13366:13375   */\n      dup3\n        /* \"#utility.yul\":13362:13380   */\n      add\n        /* \"#utility.yul\":13354:13380   */\n      swap1\n      pop\n        /* \"#utility.yul\":13390:13461   */\n      tag_515\n        /* \"#utility.yul\":13458:13459   */\n      0x00\n        /* \"#utility.yul\":13447:13456   */\n      dup4\n        /* \"#utility.yul\":13443:13460   */\n      add\n        /* \"#utility.yul\":13434:13440   */\n      dup5\n        /* \"#utility.yul\":13390:13461   */\n      tag_325\n      jump\t// in\n    tag_515:\n        /* \"#utility.yul\":13246:13468   */\n      swap3\n      swap2\n      pop\n      pop\n      jump\t// out\n        /* \"#utility.yul\":13474:14087   */\n    tag_60:\n        /* \"#utility.yul\":13548:13554   */\n      0x00\n        /* \"#utility.yul\":13556:13562   */\n      dup1\n        /* \"#utility.yul\":13564:13570   */\n      0x00\n        /* \"#utility.yul\":13613:13615   */\n      0x60\n        /* \"#utility.yul\":13601:13610   */\n      dup5\n        /* \"#utility.yul\":13592:13599   */\n      dup7\n        /* \"#utility.yul\":13588:13611   */\n      sub\n        /* \"#utility.yul\":13584:13616   */\n      slt\n        /* \"#utility.yul\":13581:13700   */\n      iszero\n      tag_517\n      jumpi\n        /* \"#utility.yul\":13619:13698   */\n      tag_518\n      tag_283\n      jump\t// in\n    tag_518:\n        /* \"#utility.yul\":13581:13700   */\n    tag_517:\n        /* \"#utility.yul\":13739:13740   */\n      0x00\n        /* \"#utility.yul\":13764:13816   */\n      tag_519\n        /* \"#utility.yul\":13808:13815   */\n      dup7\n        /* \"#utility.yul\":13799:13805   */\n      dup3\n        /* \"#utility.yul\":13788:13797   */\n      dup8\n        /* \"#utility.yul\":13784:13806   */\n      add\n        /* \"#utility.yul\":13764:13816   */\n      tag_309\n      jump\t// in\n    tag_519:\n        /* \"#utility.yul\":13754:13816   */\n      swap4\n      pop\n        /* \"#utility.yul\":13710:13826   */\n      pop\n        /* \"#utility.yul\":13865:13867   */\n      0x20\n        /* \"#utility.yul\":13891:13942   */\n      tag_520\n        /* \"#utility.yul\":13934:13941   */\n      dup7\n        /* \"#utility.yul\":13925:13931   */\n      dup3\n        /* \"#utility.yul\":13914:13923   */\n      dup8\n        /* \"#utility.yul\":13910:13932   */\n      add\n        /* \"#utility.yul\":13891:13942   */\n      tag_295\n      jump\t// in\n    tag_520:\n        /* \"#utility.yul\":13881:13942   */\n      swap3\n      pop\n        /* \"#utility.yul\":13836:13952   */\n      pop\n        /* \"#utility.yul\":13991:13993   */\n      0x40\n        /* \"#utility.yul\":14017:14070   */\n      tag_521\n        /* \"#utility.yul\":14062:14069   */\n      dup7\n        /* \"#utility.yul\":14053:14059   */\n      dup3\n        /* \"#utility.yul\":14042:14051   */\n      dup8\n        /* \"#utility.yul\":14038:14060   */\n      add\n        /* \"#utility.yul\":14017:14070   */\n      tag_292\n      jump\t// in\n    tag_521:\n        /* \"#utility.yul\":14007:14070   */\n      swap2\n      pop\n        /* \"#utility.yul\":13962:14080   */\n      pop\n        /* \"#utility.yul\":13474:14087   */\n      swap3\n      pop\n      swap3\n      pop\n      swap3\n      jump\t// out\n        /* \"#utility.yul\":14093:14215   */\n    tag_326:\n        /* \"#utility.yul\":14166:14190   */\n      tag_523\n        /* \"#utility.yul\":14184:14189   */\n      dup2\n        /* \"#utility.yul\":14166:14190   */\n      tag_286\n      jump\t// in\n    tag_523:\n        /* \"#utility.yul\":14159:14164   */\n      dup2\n        /* \"#utility.yul\":14156:14191   */\n      eq\n        /* \"#utility.yul\":14146:14209   */\n      tag_524\n      jumpi\n        /* \"#utility.yul\":14205:14206   */\n      0x00\n        /* \"#utility.yul\":14202:14203   */\n      dup1\n        /* \"#utility.yul\":14195:14207   */\n      revert\n        /* \"#utility.yul\":14146:14209   */\n    tag_524:\n        /* \"#utility.yul\":14093:14215   */\n      pop\n      jump\t// out\n        /* \"#utility.yul\":14221:14360   */\n    tag_327:\n        /* \"#utility.yul\":14267:14272   */\n      0x00\n        /* \"#utility.yul\":14305:14311   */\n      dup2\n        /* \"#utility.yul\":14292:14312   */\n      calldataload\n        /* \"#utility.yul\":14283:14312   */\n      swap1\n      pop\n        /* \"#utility.yul\":14321:14354   */\n      tag_526\n        /* \"#utility.yul\":14348:14353   */\n      dup2\n        /* \"#utility.yul\":14321:14354   */\n      tag_326\n      jump\t// in\n    tag_526:\n        /* \"#utility.yul\":14221:14360   */\n      swap3\n      swap2\n      pop\n      pop\n      jump\t// out\n        /* \"#utility.yul\":14366:14981   */\n    tag_65:\n        /* \"#utility.yul\":14441:14447   */\n      0x00\n        /* \"#utility.yul\":14449:14455   */\n      dup1\n        /* \"#utility.yul\":14457:14463   */\n      0x00\n        /* \"#utility.yul\":14506:14508   */\n      0x60\n        /* \"#utility.yul\":14494:14503   */\n      dup5\n        /* \"#utility.yul\":14485:14492   */\n      dup7\n        /* \"#utility.yul\":14481:14504   */\n      sub\n        /* \"#utility.yul\":14477:14509   */\n      slt\n        /* \"#utility.yul\":14474:14593   */\n      iszero\n      tag_528\n      jumpi\n        /* \"#utility.yul\":14512:14591   */\n      tag_529\n      tag_283\n      jump\t// in\n    tag_529:\n        /* \"#utility.yul\":14474:14593   */\n    tag_528:\n        /* \"#utility.yul\":14632:14633   */\n      0x00\n        /* \"#utility.yul\":14657:14710   */\n      tag_530\n        /* \"#utility.yul\":14702:14709   */\n      dup7\n        /* \"#utility.yul\":14693:14699   */\n      dup3\n        /* \"#utility.yul\":14682:14691   */\n      dup8\n        /* \"#utility.yul\":14678:14700   */\n      add\n        /* \"#utility.yul\":14657:14710   */\n      tag_327\n      jump\t// in\n    tag_530:\n        /* \"#utility.yul\":14647:14710   */\n      swap4\n      pop\n        /* \"#utility.yul\":14603:14720   */\n      pop\n        /* \"#utility.yul\":14759:14761   */\n      0x20\n        /* \"#utility.yul\":14785:14836   */\n      tag_531\n        /* \"#utility.yul\":14828:14835   */\n      dup7\n        /* \"#utility.yul\":14819:14825   */\n      dup3\n        /* \"#utility.yul\":14808:14817   */\n      dup8\n        /* \"#utility.yul\":14804:14826   */\n      add\n        /* \"#utility.yul\":14785:14836   */\n      tag_295\n      jump\t// in\n    tag_531:\n        /* \"#utility.yul\":14775:14836   */\n      swap3\n      pop\n        /* \"#utility.yul\":14730:14846   */\n      pop\n        /* \"#utility.yul\":14885:14887   */\n      0x40\n        /* \"#utility.yul\":14911:14964   */\n      tag_532\n        /* \"#utility.yul\":14956:14963   */\n      dup7\n        /* \"#utility.yul\":14947:14953   */\n      dup3\n        /* \"#utility.yul\":14936:14945   */\n      dup8\n        /* \"#utility.yul\":14932:14954   */\n      add\n        /* \"#utility.yul\":14911:14964   */\n      tag_292\n      jump\t// in\n    tag_532:\n        /* \"#utility.yul\":14901:14964   */\n      swap2\n      pop\n        /* \"#utility.yul\":14856:14974   */\n      pop\n        /* \"#utility.yul\":14366:14981   */\n      swap3\n      pop\n      swap3\n      pop\n      swap3\n      jump\t// out\n        /* \"#utility.yul\":14987:15156   */\n    tag_328:\n        /* \"#utility.yul\":15071:15082   */\n      0x00\n        /* \"#utility.yul\":15105:15111   */\n      dup3\n        /* \"#utility.yul\":15100:15103   */\n      dup3\n        /* \"#utility.yul\":15093:15112   */\n      mstore\n        /* \"#utility.yul\":15145:15149   */\n      0x20\n        /* \"#utility.yul\":15140:15143   */\n      dup3\n        /* \"#utility.yul\":15136:15150   */\n      add\n        /* \"#utility.yul\":15121:15150   */\n      swap1\n      pop\n        /* \"#utility.yul\":14987:15156   */\n      swap3\n      swap2\n      pop\n      pop\n      jump\t// out\n        /* \"#utility.yul\":15162:15539   */\n    tag_329:\n        /* \"#utility.yul\":15250:15253   */\n      0x00\n        /* \"#utility.yul\":15278:15317   */\n      tag_535\n        /* \"#utility.yul\":15311:15316   */\n      dup3\n        /* \"#utility.yul\":15278:15317   */\n      tag_315\n      jump\t// in\n    tag_535:\n        /* \"#utility.yul\":15333:15404   */\n      tag_536\n        /* \"#utility.yul\":15397:15403   */\n      dup2\n        /* \"#utility.yul\":15392:15395   */\n      dup6\n        /* \"#utility.yul\":15333:15404   */\n      tag_328\n      jump\t// in\n    tag_536:\n        /* \"#utility.yul\":15326:15404   */\n      swap4\n      pop\n        /* \"#utility.yul\":15413:15478   */\n      tag_537\n        /* \"#utility.yul\":15471:15477   */\n      dup2\n        /* \"#utility.yul\":15466:15469   */\n      dup6\n        /* \"#utility.yul\":15459:15463   */\n      0x20\n        /* \"#utility.yul\":15452:15457   */\n      dup7\n        /* \"#utility.yul\":15448:15464   */\n      add\n        /* \"#utility.yul\":15413:15478   */\n      tag_317\n      jump\t// in\n    tag_537:\n        /* \"#utility.yul\":15503:15532   */\n      tag_538\n        /* \"#utility.yul\":15525:15531   */\n      dup2\n        /* \"#utility.yul\":15503:15532   */\n      tag_298\n      jump\t// in\n    tag_538:\n        /* \"#utility.yul\":15498:15501   */\n      dup5\n        /* \"#utility.yul\":15494:15533   */\n      add\n        /* \"#utility.yul\":15487:15533   */\n      swap2\n      pop\n        /* \"#utility.yul\":15254:15539   */\n      pop\n        /* \"#utility.yul\":15162:15539   */\n      swap3\n      swap2\n      pop\n      pop\n      jump\t// out\n        /* \"#utility.yul\":15545:15654   */\n    tag_330:\n        /* \"#utility.yul\":15626:15647   */\n      tag_540\n        /* \"#utility.yul\":15641:15646   */\n      dup2\n        /* \"#utility.yul\":15626:15647   */\n      tag_319\n      jump\t// in\n    tag_540:\n        /* \"#utility.yul\":15621:15624   */\n      dup3\n        /* \"#utility.yul\":15614:15648   */\n      mstore\n        /* \"#utility.yul\":15545:15654   */\n      pop\n      pop\n      jump\t// out\n        /* \"#utility.yul\":15660:16502   */\n    tag_68:\n        /* \"#utility.yul\":15901:15905   */\n      0x00\n        /* \"#utility.yul\":15939:15942   */\n      0xc0\n        /* \"#utility.yul\":15928:15937   */\n      dup3\n        /* \"#utility.yul\":15924:15943   */\n      add\n        /* \"#utility.yul\":15916:15943   */\n      swap1\n      pop\n        /* \"#utility.yul\":15953:16024   */\n      tag_542\n        /* \"#utility.yul\":16021:16022   */\n      0x00\n        /* \"#utility.yul\":16010:16019   */\n      dup4\n        /* \"#utility.yul\":16006:16023   */\n      add\n        /* \"#utility.yul\":15997:16003   */\n      dup10\n        /* \"#utility.yul\":15953:16024   */\n      tag_325\n      jump\t// in\n    tag_542:\n        /* \"#utility.yul\":16034:16106   */\n      tag_543\n        /* \"#utility.yul\":16102:16104   */\n      0x20\n        /* \"#utility.yul\":16091:16100   */\n      dup4\n        /* \"#utility.yul\":16087:16105   */\n      add\n        /* \"#utility.yul\":16078:16084   */\n      dup9\n        /* \"#utility.yul\":16034:16106   */\n      tag_306\n      jump\t// in\n    tag_543:\n        /* \"#utility.yul\":16116:16188   */\n      tag_544\n        /* \"#utility.yul\":16184:16186   */\n      0x40\n        /* \"#utility.yul\":16173:16182   */\n      dup4\n        /* \"#utility.yul\":16169:16187   */\n      add\n        /* \"#utility.yul\":16160:16166   */\n      dup8\n        /* \"#utility.yul\":16116:16188   */\n      tag_306\n      jump\t// in\n    tag_544:\n        /* \"#utility.yul\":16235:16244   */\n      dup2\n        /* \"#utility.yul\":16229:16233   */\n      dup2\n        /* \"#utility.yul\":16225:16245   */\n      sub\n        /* \"#utility.yul\":16220:16222   */\n      0x60\n        /* \"#utility.yul\":16209:16218   */\n      dup4\n        /* \"#utility.yul\":16205:16223   */\n      add\n        /* \"#utility.yul\":16198:16246   */\n      mstore\n        /* \"#utility.yul\":16263:16341   */\n      tag_545\n        /* \"#utility.yul\":16336:16340   */\n      dup2\n        /* \"#utility.yul\":16327:16333   */\n      dup7\n        /* \"#utility.yul\":16263:16341   */\n      tag_329\n      jump\t// in\n    tag_545:\n        /* \"#utility.yul\":16255:16341   */\n      swap1\n      pop\n        /* \"#utility.yul\":16351:16418   */\n      tag_546\n        /* \"#utility.yul\":16413:16416   */\n      0x80\n        /* \"#utility.yul\":16402:16411   */\n      dup4\n        /* \"#utility.yul\":16398:16417   */\n      add\n        /* \"#utility.yul\":16389:16395   */\n      dup6\n        /* \"#utility.yul\":16351:16418   */\n      tag_330\n      jump\t// in\n    tag_546:\n        /* \"#utility.yul\":16428:16495   */\n      tag_547\n        /* \"#utility.yul\":16490:16493   */\n      0xa0\n        /* \"#utility.yul\":16479:16488   */\n      dup4\n        /* \"#utility.yul\":16475:16494   */\n      add\n        /* \"#utility.yul\":16466:16472   */\n      dup5\n        /* \"#utility.yul\":16428:16495   */\n      tag_330\n      jump\t// in\n    tag_547:\n        /* \"#utility.yul\":15660:16502   */\n      swap8\n      swap7\n      pop\n      pop\n      pop\n      pop\n      pop\n      pop\n      pop\n      jump\t// out\n        /* \"#utility.yul\":16508:16976   */\n    tag_75:\n        /* \"#utility.yul\":16573:16579   */\n      0x00\n        /* \"#utility.yul\":16581:16587   */\n      dup1\n        /* \"#utility.yul\":16630:16632   */\n      0x40\n        /* \"#utility.yul\":16618:16627   */\n      dup4\n        /* \"#utility.yul\":16609:16616   */\n      dup6\n        /* \"#utility.yul\":16605:16628   */\n      sub\n        /* \"#utility.yul\":16601:16633   */\n      slt\n        /* \"#utility.yul\":16598:16717   */\n      iszero\n      tag_549\n      jumpi\n        /* \"#utility.yul\":16636:16715   */\n      tag_550\n      tag_283\n      jump\t// in\n    tag_550:\n        /* \"#utility.yul\":16598:16717   */\n    tag_549:\n        /* \"#utility.yul\":16756:16757   */\n      0x00\n        /* \"#utility.yul\":16781:16832   */\n      tag_551\n        /* \"#utility.yul\":16824:16831   */\n      dup6\n        /* \"#utility.yul\":16815:16821   */\n      dup3\n        /* \"#utility.yul\":16804:16813   */\n      dup7\n        /* \"#utility.yul\":16800:16822   */\n      add\n        /* \"#utility.yul\":16781:16832   */\n      tag_295\n      jump\t// in\n    tag_551:\n        /* \"#utility.yul\":16771:16832   */\n      swap3\n      pop\n        /* \"#utility.yul\":16727:16842   */\n      pop\n        /* \"#utility.yul\":16881:16883   */\n      0x20\n        /* \"#utility.yul\":16907:16959   */\n      tag_552\n        /* \"#utility.yul\":16951:16958   */\n      dup6\n        /* \"#utility.yul\":16942:16948   */\n      dup3\n        /* \"#utility.yul\":16931:16940   */\n      dup7\n        /* \"#utility.yul\":16927:16949   */\n      add\n        /* \"#utility.yul\":16907:16959   */\n      tag_309\n      jump\t// in\n    tag_552:\n        /* \"#utility.yul\":16897:16959   */\n      swap2\n      pop\n        /* \"#utility.yul\":16852:16969   */\n      pop\n        /* \"#utility.yul\":16508:16976   */\n      swap3\n      pop\n      swap3\n      swap1\n      pop\n      jump\t// out\n        /* \"#utility.yul\":16982:17311   */\n    tag_80:\n        /* \"#utility.yul\":17041:17047   */\n      0x00\n        /* \"#utility.yul\":17090:17092   */\n      0x20\n        /* \"#utility.yul\":17078:17087   */\n      dup3\n        /* \"#utility.yul\":17069:17076   */\n      dup5\n        /* \"#utility.yul\":17065:17088   */\n      sub\n        /* \"#utility.yul\":17061:17093   */\n      slt\n        /* \"#utility.yul\":17058:17177   */\n      iszero\n      tag_554\n      jumpi\n        /* \"#utility.yul\":17096:17175   */\n      tag_555\n      tag_283\n      jump\t// in\n    tag_555:\n        /* \"#utility.yul\":17058:17177   */\n    tag_554:\n        /* \"#utility.yul\":17216:17217   */\n      0x00\n        /* \"#utility.yul\":17241:17294   */\n      tag_556\n        /* \"#utility.yul\":17286:17293   */\n      dup5\n        /* \"#utility.yul\":17277:17283   */\n      dup3\n        /* \"#utility.yul\":17266:17275   */\n      dup6\n        /* \"#utility.yul\":17262:17284   */\n      add\n        /* \"#utility.yul\":17241:17294   */\n      tag_327\n      jump\t// in\n    tag_556:\n        /* \"#utility.yul\":17231:17294   */\n      swap2\n      pop\n        /* \"#utility.yul\":17187:17304   */\n      pop\n        /* \"#utility.yul\":16982:17311   */\n      swap3\n      swap2\n      pop\n      pop\n      jump\t// out\n        /* \"#utility.yul\":17317:17538   */\n    tag_331:\n        /* \"#utility.yul\":17457:17491   */\n      0x4d7573742070726f7669646520612076616c696420746f6b656e206164647265\n        /* \"#utility.yul\":17453:17454   */\n      0x00\n        /* \"#utility.yul\":17445:17451   */\n      dup3\n        /* \"#utility.yul\":17441:17455   */\n      add\n        /* \"#utility.yul\":17434:17492   */\n      mstore\n        /* \"#utility.yul\":17526:17530   */\n      0x7373000000000000000000000000000000000000000000000000000000000000\n        /* \"#utility.yul\":17521:17523   */\n      0x20\n        /* \"#utility.yul\":17513:17519   */\n      dup3\n        /* \"#utility.yul\":17509:17524   */\n      add\n        /* \"#utility.yul\":17502:17531   */\n      mstore\n        /* \"#utility.yul\":17317:17538   */\n      pop\n      jump\t// out\n        /* \"#utility.yul\":17544:17910   */\n    tag_332:\n        /* \"#utility.yul\":17686:17689   */\n      0x00\n        /* \"#utility.yul\":17707:17774   */\n      tag_559\n        /* \"#utility.yul\":17771:17773   */\n      0x22\n        /* \"#utility.yul\":17766:17769   */\n      dup4\n        /* \"#utility.yul\":17707:17774   */\n      tag_328\n      jump\t// in\n    tag_559:\n        /* \"#utility.yul\":17700:17774   */\n      swap2\n      pop\n        /* \"#utility.yul\":17783:17876   */\n      tag_560\n        /* \"#utility.yul\":17872:17875   */\n      dup3\n        /* \"#utility.yul\":17783:17876   */\n      tag_331\n      jump\t// in\n    tag_560:\n        /* \"#utility.yul\":17901:17903   */\n      0x40\n        /* \"#utility.yul\":17896:17899   */\n      dup3\n        /* \"#utility.yul\":17892:17904   */\n      add\n        /* \"#utility.yul\":17885:17904   */\n      swap1\n      pop\n        /* \"#utility.yul\":17544:17910   */\n      swap2\n      swap1\n      pop\n      jump\t// out\n        /* \"#utility.yul\":17916:18335   */\n    tag_88:\n        /* \"#utility.yul\":18082:18086   */\n      0x00\n        /* \"#utility.yul\":18120:18122   */\n      0x20\n        /* \"#utility.yul\":18109:18118   */\n      dup3\n        /* \"#utility.yul\":18105:18123   */\n      add\n        /* \"#utility.yul\":18097:18123   */\n      swap1\n      pop\n        /* \"#utility.yul\":18169:18178   */\n      dup2\n        /* \"#utility.yul\":18163:18167   */\n      dup2\n        /* \"#utility.yul\":18159:18179   */\n      sub\n        /* \"#utility.yul\":18155:18156   */\n      0x00\n        /* \"#utility.yul\":18144:18153   */\n      dup4\n        /* \"#utility.yul\":18140:18157   */\n      add\n        /* \"#utility.yul\":18133:18180   */\n      mstore\n        /* \"#utility.yul\":18197:18328   */\n      tag_562\n        /* \"#utility.yul\":18323:18327   */\n      dup2\n        /* \"#utility.yul\":18197:18328   */\n      tag_332\n      jump\t// in\n    tag_562:\n        /* \"#utility.yul\":18189:18328   */\n      swap1\n      pop\n        /* \"#utility.yul\":17916:18335   */\n      swap2\n      swap1\n      pop\n      jump\t// out\n        /* \"#utility.yul\":18341:18566   */\n    tag_333:\n        /* \"#utility.yul\":18481:18515   */\n      0x546f6b656e20616d6f756e74206d757374206265206772656174657220746865\n        /* \"#utility.yul\":18477:18478   */\n      0x00\n        /* \"#utility.yul\":18469:18475   */\n      dup3\n        /* \"#utility.yul\":18465:18479   */\n      add\n        /* \"#utility.yul\":18458:18516   */\n      mstore\n        /* \"#utility.yul\":18550:18558   */\n      0x6e207a65726f0000000000000000000000000000000000000000000000000000\n        /* \"#utility.yul\":18545:18547   */\n      0x20\n        /* \"#utility.yul\":18537:18543   */\n      dup3\n        /* \"#utility.yul\":18533:18548   */\n      add\n        /* \"#utility.yul\":18526:18559   */\n      mstore\n        /* \"#utility.yul\":18341:18566   */\n      pop\n      jump\t// out\n        /* \"#utility.yul\":18572:18938   */\n    tag_334:\n        /* \"#utility.yul\":18714:18717   */\n      0x00\n        /* \"#utility.yul\":18735:18802   */\n      tag_565\n        /* \"#utility.yul\":18799:18801   */\n      0x26\n        /* \"#utility.yul\":18794:18797   */\n      dup4\n        /* \"#utility.yul\":18735:18802   */\n      tag_328\n      jump\t// in\n    tag_565:\n        /* \"#utility.yul\":18728:18802   */\n      swap2\n      pop\n        /* \"#utility.yul\":18811:18904   */\n      tag_566\n        /* \"#utility.yul\":18900:18903   */\n      dup3\n        /* \"#utility.yul\":18811:18904   */\n      tag_333\n      jump\t// in\n    tag_566:\n        /* \"#utility.yul\":18929:18931   */\n      0x40\n        /* \"#utility.yul\":18924:18927   */\n      dup3\n        /* \"#utility.yul\":18920:18932   */\n      add\n        /* \"#utility.yul\":18913:18932   */\n      swap1\n      pop\n        /* \"#utility.yul\":18572:18938   */\n      swap2\n      swap1\n      pop\n      jump\t// out\n        /* \"#utility.yul\":18944:19363   */\n    tag_91:\n        /* \"#utility.yul\":19110:19114   */\n      0x00\n        /* \"#utility.yul\":19148:19150   */\n      0x20\n        /* \"#utility.yul\":19137:19146   */\n      dup3\n        /* \"#utility.yul\":19133:19151   */\n      add\n        /* \"#utility.yul\":19125:19151   */\n      swap1\n      pop\n        /* \"#utility.yul\":19197:19206   */\n      dup2\n        /* \"#utility.yul\":19191:19195   */\n      dup2\n        /* \"#utility.yul\":19187:19207   */\n      sub\n        /* \"#utility.yul\":19183:19184   */\n      0x00\n        /* \"#utility.yul\":19172:19181   */\n      dup4\n        /* \"#utility.yul\":19168:19185   */\n      add\n        /* \"#utility.yul\":19161:19208   */\n      mstore\n        /* \"#utility.yul\":19225:19356   */\n      tag_568\n        /* \"#utility.yul\":19351:19355   */\n      dup2\n        /* \"#utility.yul\":19225:19356   */\n      tag_334\n      jump\t// in\n    tag_568:\n        /* \"#utility.yul\":19217:19356   */\n      swap1\n      pop\n        /* \"#utility.yul\":18944:19363   */\n      swap2\n      swap1\n      pop\n      jump\t// out\n        /* \"#utility.yul\":19369:19597   */\n    tag_335:\n        /* \"#utility.yul\":19509:19543   */\n      0x546865206c6f636b20706572696f64206d757374206265206772656174657220\n        /* \"#utility.yul\":19505:19506   */\n      0x00\n        /* \"#utility.yul\":19497:19503   */\n      dup3\n        /* \"#utility.yul\":19493:19507   */\n      add\n        /* \"#utility.yul\":19486:19544   */\n      mstore\n        /* \"#utility.yul\":19578:19589   */\n      0x7468656e207a65726f0000000000000000000000000000000000000000000000\n        /* \"#utility.yul\":19573:19575   */\n      0x20\n        /* \"#utility.yul\":19565:19571   */\n      dup3\n        /* \"#utility.yul\":19561:19576   */\n      add\n        /* \"#utility.yul\":19554:19590   */\n      mstore\n        /* \"#utility.yul\":19369:19597   */\n      pop\n      jump\t// out\n        /* \"#utility.yul\":19603:19969   */\n    tag_336:\n        /* \"#utility.yul\":19745:19748   */\n      0x00\n        /* \"#utility.yul\":19766:19833   */\n      tag_571\n        /* \"#utility.yul\":19830:19832   */\n      0x29\n        /* \"#utility.yul\":19825:19828   */\n      dup4\n        /* \"#utility.yul\":19766:19833   */\n      tag_328\n      jump\t// in\n    tag_571:\n        /* \"#utility.yul\":19759:19833   */\n      swap2\n      pop\n        /* \"#utility.yul\":19842:19935   */\n      tag_572\n        /* \"#utility.yul\":19931:19934   */\n      dup3\n        /* \"#utility.yul\":19842:19935   */\n      tag_335\n      jump\t// in\n    tag_572:\n        /* \"#utility.yul\":19960:19962   */\n      0x40\n        /* \"#utility.yul\":19955:19958   */\n      dup3\n        /* \"#utility.yul\":19951:19963   */\n      add\n        /* \"#utility.yul\":19944:19963   */\n      swap1\n      pop\n        /* \"#utility.yul\":19603:19969   */\n      swap2\n      swap1\n      pop\n      jump\t// out\n        /* \"#utility.yul\":19975:20394   */\n    tag_94:\n        /* \"#utility.yul\":20141:20145   */\n      0x00\n        /* \"#utility.yul\":20179:20181   */\n      0x20\n        /* \"#utility.yul\":20168:20177   */\n      dup3\n        /* \"#utility.yul\":20164:20182   */\n      add\n        /* \"#utility.yul\":20156:20182   */\n      swap1\n      pop\n        /* \"#utility.yul\":20228:20237   */\n      dup2\n        /* \"#utility.yul\":20222:20226   */\n      dup2\n        /* \"#utility.yul\":20218:20238   */\n      sub\n        /* \"#utility.yul\":20214:20215   */\n      0x00\n        /* \"#utility.yul\":20203:20212   */\n      dup4\n        /* \"#utility.yul\":20199:20216   */\n      add\n        /* \"#utility.yul\":20192:20239   */\n      mstore\n        /* \"#utility.yul\":20256:20387   */\n      tag_574\n        /* \"#utility.yul\":20382:20386   */\n      dup2\n        /* \"#utility.yul\":20256:20387   */\n      tag_336\n      jump\t// in\n    tag_574:\n        /* \"#utility.yul\":20248:20387   */\n      swap1\n      pop\n        /* \"#utility.yul\":19975:20394   */\n      swap2\n      swap1\n      pop\n      jump\t// out\n        /* \"#utility.yul\":20400:20543   */\n    tag_337:\n        /* \"#utility.yul\":20457:20462   */\n      0x00\n        /* \"#utility.yul\":20488:20494   */\n      dup2\n        /* \"#utility.yul\":20482:20495   */\n      mload\n        /* \"#utility.yul\":20473:20495   */\n      swap1\n      pop\n        /* \"#utility.yul\":20504:20537   */\n      tag_576\n        /* \"#utility.yul\":20531:20536   */\n      dup2\n        /* \"#utility.yul\":20504:20537   */\n      tag_291\n      jump\t// in\n    tag_576:\n        /* \"#utility.yul\":20400:20543   */\n      swap3\n      swap2\n      pop\n      pop\n      jump\t// out\n        /* \"#utility.yul\":20549:20900   */\n    tag_99:\n        /* \"#utility.yul\":20619:20625   */\n      0x00\n        /* \"#utility.yul\":20668:20670   */\n      0x20\n        /* \"#utility.yul\":20656:20665   */\n      dup3\n        /* \"#utility.yul\":20647:20654   */\n      dup5\n        /* \"#utility.yul\":20643:20666   */\n      sub\n        /* \"#utility.yul\":20639:20671   */\n      slt\n        /* \"#utility.yul\":20636:20755   */\n      iszero\n      tag_578\n      jumpi\n        /* \"#utility.yul\":20674:20753   */\n      tag_579\n      tag_283\n      jump\t// in\n    tag_579:\n        /* \"#utility.yul\":20636:20755   */\n    tag_578:\n        /* \"#utility.yul\":20794:20795   */\n      0x00\n        /* \"#utility.yul\":20819:20883   */\n      tag_580\n        /* \"#utility.yul\":20875:20882   */\n      dup5\n        /* \"#utility.yul\":20866:20872   */\n      dup3\n        /* \"#utility.yul\":20855:20864   */\n      dup6\n        /* \"#utility.yul\":20851:20873   */\n      add\n        /* \"#utility.yul\":20819:20883   */\n      tag_337\n      jump\t// in\n    tag_580:\n        /* \"#utility.yul\":20809:20883   */\n      swap2\n      pop\n        /* \"#utility.yul\":20765:20893   */\n      pop\n        /* \"#utility.yul\":20549:20900   */\n      swap3\n      swap2\n      pop\n      pop\n      jump\t// out\n        /* \"#utility.yul\":20906:21081   */\n    tag_338:\n        /* \"#utility.yul\":21046:21073   */\n      0x4e6f7420656e6f75676820746f6b656e7320746f206c6f636b00000000000000\n        /* \"#utility.yul\":21042:21043   */\n      0x00\n        /* \"#utility.yul\":21034:21040   */\n      dup3\n        /* \"#utility.yul\":21030:21044   */\n      add\n        /* \"#utility.yul\":21023:21074   */\n      mstore\n        /* \"#utility.yul\":20906:21081   */\n      pop\n      jump\t// out\n        /* \"#utility.yul\":21087:21453   */\n    tag_339:\n        /* \"#utility.yul\":21229:21232   */\n      0x00\n        /* \"#utility.yul\":21250:21317   */\n      tag_583\n        /* \"#utility.yul\":21314:21316   */\n      0x19\n        /* \"#utility.yul\":21309:21312   */\n      dup4\n        /* \"#utility.yul\":21250:21317   */\n      tag_328\n      jump\t// in\n    tag_583:\n        /* \"#utility.yul\":21243:21317   */\n      swap2\n      pop\n        /* \"#utility.yul\":21326:21419   */\n      tag_584\n        /* \"#utility.yul\":21415:21418   */\n      dup3\n        /* \"#utility.yul\":21326:21419   */\n      tag_338\n      jump\t// in\n    tag_584:\n        /* \"#utility.yul\":21444:21446   */\n      0x20\n        /* \"#utility.yul\":21439:21442   */\n      dup3\n        /* \"#utility.yul\":21435:21447   */\n      add\n        /* \"#utility.yul\":21428:21447   */\n      swap1\n      pop\n        /* \"#utility.yul\":21087:21453   */\n      swap2\n      swap1\n      pop\n      jump\t// out\n        /* \"#utility.yul\":21459:21878   */\n    tag_102:\n        /* \"#utility.yul\":21625:21629   */\n      0x00\n        /* \"#utility.yul\":21663:21665   */\n      0x20\n        /* \"#utility.yul\":21652:21661   */\n      dup3\n        /* \"#utility.yul\":21648:21666   */\n      add\n        /* \"#utility.yul\":21640:21666   */\n      swap1\n      pop\n        /* \"#utility.yul\":21712:21721   */\n      dup2\n        /* \"#utility.yul\":21706:21710   */\n      dup2\n        /* \"#utility.yul\":21702:21722   */\n      sub\n        /* \"#utility.yul\":21698:21699   */\n      0x00\n        /* \"#utility.yul\":21687:21696   */\n      dup4\n        /* \"#utility.yul\":21683:21700   */\n      add\n        /* \"#utility.yul\":21676:21723   */\n      mstore\n        /* \"#utility.yul\":21740:21871   */\n      tag_586\n        /* \"#utility.yul\":21866:21870   */\n      dup2\n        /* \"#utility.yul\":21740:21871   */\n      tag_339\n      jump\t// in\n    tag_586:\n        /* \"#utility.yul\":21732:21871   */\n      swap1\n      pop\n        /* \"#utility.yul\":21459:21878   */\n      swap2\n      swap1\n      pop\n      jump\t// out\n        /* \"#utility.yul\":21884:22064   */\n    tag_340:\n        /* \"#utility.yul\":21932:22009   */\n      0x4e487b7100000000000000000000000000000000000000000000000000000000\n        /* \"#utility.yul\":21929:21930   */\n      0x00\n        /* \"#utility.yul\":21922:22010   */\n      mstore\n        /* \"#utility.yul\":22029:22033   */\n      0x11\n        /* \"#utility.yul\":22026:22027   */\n      0x04\n        /* \"#utility.yul\":22019:22034   */\n      mstore\n        /* \"#utility.yul\":22053:22057   */\n      0x24\n        /* \"#utility.yul\":22050:22051   */\n      0x00\n        /* \"#utility.yul\":22043:22058   */\n      revert\n        /* \"#utility.yul\":22070:22261   */\n    tag_106:\n        /* \"#utility.yul\":22110:22113   */\n      0x00\n        /* \"#utility.yul\":22129:22149   */\n      tag_589\n        /* \"#utility.yul\":22147:22148   */\n      dup3\n        /* \"#utility.yul\":22129:22149   */\n      tag_290\n      jump\t// in\n    tag_589:\n        /* \"#utility.yul\":22124:22149   */\n      swap2\n      pop\n        /* \"#utility.yul\":22163:22183   */\n      tag_590\n        /* \"#utility.yul\":22181:22182   */\n      dup4\n        /* \"#utility.yul\":22163:22183   */\n      tag_290\n      jump\t// in\n    tag_590:\n        /* \"#utility.yul\":22158:22183   */\n      swap3\n      pop\n        /* \"#utility.yul\":22206:22207   */\n      dup3\n        /* \"#utility.yul\":22203:22204   */\n      dup3\n        /* \"#utility.yul\":22199:22208   */\n      add\n        /* \"#utility.yul\":22192:22208   */\n      swap1\n      pop\n        /* \"#utility.yul\":22227:22230   */\n      dup1\n        /* \"#utility.yul\":22224:22225   */\n      dup3\n        /* \"#utility.yul\":22221:22231   */\n      gt\n        /* \"#utility.yul\":22218:22254   */\n      iszero\n      tag_591\n      jumpi\n        /* \"#utility.yul\":22234:22252   */\n      tag_592\n      tag_340\n      jump\t// in\n    tag_592:\n        /* \"#utility.yul\":22218:22254   */\n    tag_591:\n        /* \"#utility.yul\":22070:22261   */\n      swap3\n      swap2\n      pop\n      pop\n      jump\t// out\n        /* \"#utility.yul\":22267:22447   */\n    tag_341:\n        /* \"#utility.yul\":22315:22392   */\n      0x4e487b7100000000000000000000000000000000000000000000000000000000\n        /* \"#utility.yul\":22312:22313   */\n      0x00\n        /* \"#utility.yul\":22305:22393   */\n      mstore\n        /* \"#utility.yul\":22412:22416   */\n      0x22\n        /* \"#utility.yul\":22409:22410   */\n      0x04\n        /* \"#utility.yul\":22402:22417   */\n      mstore\n        /* \"#utility.yul\":22436:22440   */\n      0x24\n        /* \"#utility.yul\":22433:22434   */\n      0x00\n        /* \"#utility.yul\":22426:22441   */\n      revert\n        /* \"#utility.yul\":22453:22773   */\n    tag_159:\n        /* \"#utility.yul\":22497:22503   */\n      0x00\n        /* \"#utility.yul\":22534:22535   */\n      0x02\n        /* \"#utility.yul\":22528:22532   */\n      dup3\n        /* \"#utility.yul\":22524:22536   */\n      div\n        /* \"#utility.yul\":22514:22536   */\n      swap1\n      pop\n        /* \"#utility.yul\":22581:22582   */\n      0x01\n        /* \"#utility.yul\":22575:22579   */\n      dup3\n        /* \"#utility.yul\":22571:22583   */\n      and\n        /* \"#utility.yul\":22602:22620   */\n      dup1\n        /* \"#utility.yul\":22592:22673   */\n      tag_595\n      jumpi\n        /* \"#utility.yul\":22658:22662   */\n      0x7f\n        /* \"#utility.yul\":22650:22656   */\n      dup3\n        /* \"#utility.yul\":22646:22663   */\n      and\n        /* \"#utility.yul\":22636:22663   */\n      swap2\n      pop\n        /* \"#utility.yul\":22592:22673   */\n    tag_595:\n        /* \"#utility.yul\":22720:22722   */\n      0x20\n        /* \"#utility.yul\":22712:22718   */\n      dup3\n        /* \"#utility.yul\":22709:22723   */\n      lt\n        /* \"#utility.yul\":22689:22707   */\n      dup2\n        /* \"#utility.yul\":22686:22724   */\n      sub\n        /* \"#utility.yul\":22683:22767   */\n      tag_596\n      jumpi\n        /* \"#utility.yul\":22739:22757   */\n      tag_597\n      tag_341\n      jump\t// in\n    tag_597:\n        /* \"#utility.yul\":22683:22767   */\n    tag_596:\n        /* \"#utility.yul\":22504:22773   */\n      pop\n        /* \"#utility.yul\":22453:22773   */\n      swap2\n      swap1\n      pop\n      jump\t// out\n        /* \"#utility.yul\":22779:22920   */\n    tag_342:\n        /* \"#utility.yul\":22828:22832   */\n      0x00\n        /* \"#utility.yul\":22851:22854   */\n      dup2\n        /* \"#utility.yul\":22843:22854   */\n      swap1\n      pop\n        /* \"#utility.yul\":22874:22877   */\n      dup2\n        /* \"#utility.yul\":22871:22872   */\n      0x00\n        /* \"#utility.yul\":22864:22878   */\n      mstore\n        /* \"#utility.yul\":22908:22912   */\n      0x20\n        /* \"#utility.yul\":22905:22906   */\n      0x00\n        /* \"#utility.yul\":22895:22913   */\n      keccak256\n        /* \"#utility.yul\":22887:22913   */\n      swap1\n      pop\n        /* \"#utility.yul\":22779:22920   */\n      swap2\n      swap1\n      pop\n      jump\t// out\n        /* \"#utility.yul\":22926:23019   */\n    tag_343:\n        /* \"#utility.yul\":22963:22969   */\n      0x00\n        /* \"#utility.yul\":23010:23012   */\n      0x20\n        /* \"#utility.yul\":23005:23007   */\n      0x1f\n        /* \"#utility.yul\":22998:23003   */\n      dup4\n        /* \"#utility.yul\":22994:23008   */\n      add\n        /* \"#utility.yul\":22990:23013   */\n      div\n        /* \"#utility.yul\":22980:23013   */\n      swap1\n      pop\n        /* \"#utility.yul\":22926:23019   */\n      swap2\n      swap1\n      pop\n      jump\t// out\n        /* \"#utility.yul\":23025:23132   */\n    tag_344:\n        /* \"#utility.yul\":23069:23077   */\n      0x00\n        /* \"#utility.yul\":23119:23124   */\n      dup3\n        /* \"#utility.yul\":23113:23117   */\n      dup3\n        /* \"#utility.yul\":23109:23125   */\n      shl\n        /* \"#utility.yul\":23088:23125   */\n      swap1\n      pop\n        /* \"#utility.yul\":23025:23132   */\n      swap3\n      swap2\n      pop\n      pop\n      jump\t// out\n        /* \"#utility.yul\":23138:23531   */\n    tag_345:\n        /* \"#utility.yul\":23207:23213   */\n      0x00\n        /* \"#utility.yul\":23257:23258   */\n      0x08\n        /* \"#utility.yul\":23245:23255   */\n      dup4\n        /* \"#utility.yul\":23241:23259   */\n      mul\n        /* \"#utility.yul\":23280:23377   */\n      tag_602\n        /* \"#utility.yul\":23310:23376   */\n      0xffffffffffffffffffffffffffffffffffffffffffffffffffffffffffffffff\n        /* \"#utility.yul\":23299:23308   */\n      dup3\n        /* \"#utility.yul\":23280:23377   */\n      tag_344\n      jump\t// in\n    tag_602:\n        /* \"#utility.yul\":23398:23437   */\n      tag_603\n        /* \"#utility.yul\":23428:23436   */\n      dup7\n        /* \"#utility.yul\":23417:23426   */\n      dup4\n        /* \"#utility.yul\":23398:23437   */\n      tag_344\n      jump\t// in\n    tag_603:\n        /* \"#utility.yul\":23386:23437   */\n      swap6\n      pop\n        /* \"#utility.yul\":23470:23474   */\n      dup1\n        /* \"#utility.yul\":23466:23475   */\n      not\n        /* \"#utility.yul\":23459:23464   */\n      dup5\n        /* \"#utility.yul\":23455:23476   */\n      and\n        /* \"#utility.yul\":23446:23476   */\n      swap4\n      pop\n        /* \"#utility.yul\":23519:23523   */\n      dup1\n        /* \"#utility.yul\":23509:23517   */\n      dup7\n        /* \"#utility.yul\":23505:23524   */\n      and\n        /* \"#utility.yul\":23498:23503   */\n      dup5\n        /* \"#utility.yul\":23495:23525   */\n      or\n        /* \"#utility.yul\":23485:23525   */\n      swap3\n      pop\n        /* \"#utility.yul\":23214:23531   */\n      pop\n      pop\n        /* \"#utility.yul\":23138:23531   */\n      swap4\n      swap3\n      pop\n      pop\n      pop\n      jump\t// out\n        /* \"#utility.yul\":23537:23597   */\n    tag_346:\n        /* \"#utility.yul\":23565:23568   */\n      0x00\n        /* \"#utility.yul\":23586:23591   */\n      dup2\n        /* \"#utility.yul\":23579:23591   */\n      swap1\n      pop\n        /* \"#utility.yul\":23537:23597   */\n      swap2\n      swap1\n      pop\n      jump\t// out\n        /* \"#utility.yul\":23603:23745   */\n    tag_347:\n        /* \"#utility.yul\":23653:23662   */\n      0x00\n        /* \"#utility.yul\":23686:23739   */\n      tag_606\n        /* \"#utility.yul\":23704:23738   */\n      tag_607\n        /* \"#utility.yul\":23713:23737   */\n      tag_608\n        /* \"#utility.yul\":23731:23736   */\n      dup5\n        /* \"#utility.yul\":23713:23737   */\n      tag_290\n      jump\t// in\n    tag_608:\n        /* \"#utility.yul\":23704:23738   */\n      tag_346\n      jump\t// in\n    tag_607:\n        /* \"#utility.yul\":23686:23739   */\n      tag_290\n      jump\t// in\n    tag_606:\n        /* \"#utility.yul\":23673:23739   */\n      swap1\n      pop\n        /* \"#utility.yul\":23603:23745   */\n      swap2\n      swap1\n      pop\n      jump\t// out\n        /* \"#utility.yul\":23751:23826   */\n    tag_348:\n        /* \"#utility.yul\":23794:23797   */\n      0x00\n        /* \"#utility.yul\":23815:23820   */\n      dup2\n        /* \"#utility.yul\":23808:23820   */\n      swap1\n      pop\n        /* \"#utility.yul\":23751:23826   */\n      swap2\n      swap1\n      pop\n      jump\t// out\n        /* \"#utility.yul\":23832:24101   */\n    tag_349:\n        /* \"#utility.yul\":23942:23981   */\n      tag_611\n        /* \"#utility.yul\":23973:23980   */\n      dup4\n        /* \"#utility.yul\":23942:23981   */\n      tag_347\n      jump\t// in\n    tag_611:\n        /* \"#utility.yul\":24003:24094   */\n      tag_612\n        /* \"#utility.yul\":24052:24093   */\n      tag_613\n        /* \"#utility.yul\":24076:24092   */\n      dup3\n        /* \"#utility.yul\":24052:24093   */\n      tag_348\n      jump\t// in\n    tag_613:\n        /* \"#utility.yul\":24044:24050   */\n      dup5\n        /* \"#utility.yul\":24037:24041   */\n      dup5\n        /* \"#utility.yul\":24031:24042   */\n      sload\n        /* \"#utility.yul\":24003:24094   */\n      tag_345\n      jump\t// in\n    tag_612:\n        /* \"#utility.yul\":23997:24001   */\n      dup3\n        /* \"#utility.yul\":23990:24095   */\n      sstore\n        /* \"#utility.yul\":23908:24101   */\n      pop\n        /* \"#utility.yul\":23832:24101   */\n      pop\n      pop\n      pop\n      jump\t// out\n        /* \"#utility.yul\":24107:24180   */\n    tag_350:\n        /* \"#utility.yul\":24152:24155   */\n      0x00\n        /* \"#utility.yul\":24107:24180   */\n      swap1\n      jump\t// out\n        /* \"#utility.yul\":24186:24375   */\n    tag_351:\n        /* \"#utility.yul\":24263:24295   */\n      tag_616\n      tag_350\n      jump\t// in\n    tag_616:\n        /* \"#utility.yul\":24304:24369   */\n      tag_617\n        /* \"#utility.yul\":24362:24368   */\n      dup2\n        /* \"#utility.yul\":24354:24360   */\n      dup5\n        /* \"#utility.yul\":24348:24352   */\n      dup5\n        /* \"#utility.yul\":24304:24369   */\n      tag_349\n      jump\t// in\n    tag_617:\n        /* \"#utility.yul\":24239:24375   */\n      pop\n        /* \"#utility.yul\":24186:24375   */\n      pop\n      pop\n      jump\t// out\n        /* \"#utility.yul\":24381:24567   */\n    tag_352:\n        /* \"#utility.yul\":24441:24561   */\n    tag_619:\n        /* \"#utility.yul\":24458:24461   */\n      dup2\n        /* \"#utility.yul\":24451:24456   */\n      dup2\n        /* \"#utility.yul\":24448:24462   */\n      lt\n        /* \"#utility.yul\":24441:24561   */\n      iszero\n      tag_621\n      jumpi\n        /* \"#utility.yul\":24512:24551   */\n      tag_622\n        /* \"#utility.yul\":24549:24550   */\n      0x00\n        /* \"#utility.yul\":24542:24547   */\n      dup3\n        /* \"#utility.yul\":24512:24551   */\n      tag_351\n      jump\t// in\n    tag_622:\n        /* \"#utility.yul\":24485:24486   */\n      0x01\n        /* \"#utility.yul\":24478:24483   */\n      dup2\n        /* \"#utility.yul\":24474:24487   */\n      add\n        /* \"#utility.yul\":24465:24487   */\n      swap1\n      pop\n        /* \"#utility.yul\":24441:24561   */\n      jump(tag_619)\n    tag_621:\n        /* \"#utility.yul\":24381:24567   */\n      pop\n      pop\n      jump\t// out\n        /* \"#utility.yul\":24573:25116   */\n    tag_353:\n        /* \"#utility.yul\":24674:24676   */\n      0x1f\n        /* \"#utility.yul\":24669:24672   */\n      dup3\n        /* \"#utility.yul\":24666:24677   */\n      gt\n        /* \"#utility.yul\":24663:25109   */\n      iszero\n      tag_624\n      jumpi\n        /* \"#utility.yul\":24708:24746   */\n      tag_625\n        /* \"#utility.yul\":24740:24745   */\n      dup2\n        /* \"#utility.yul\":24708:24746   */\n      tag_342\n      jump\t// in\n    tag_625:\n        /* \"#utility.yul\":24792:24821   */\n      tag_626\n        /* \"#utility.yul\":24810:24820   */\n      dup5\n        /* \"#utility.yul\":24792:24821   */\n      tag_343\n      jump\t// in\n    tag_626:\n        /* \"#utility.yul\":24782:24790   */\n      dup2\n        /* \"#utility.yul\":24778:24822   */\n      add\n        /* \"#utility.yul\":24975:24977   */\n      0x20\n        /* \"#utility.yul\":24963:24973   */\n      dup6\n        /* \"#utility.yul\":24960:24978   */\n      lt\n        /* \"#utility.yul\":24957:25006   */\n      iszero\n      tag_627\n      jumpi\n        /* \"#utility.yul\":24996:25004   */\n      dup2\n        /* \"#utility.yul\":24981:25004   */\n      swap1\n      pop\n        /* \"#utility.yul\":24957:25006   */\n    tag_627:\n        /* \"#utility.yul\":25019:25099   */\n      tag_628\n        /* \"#utility.yul\":25075:25097   */\n      tag_629\n        /* \"#utility.yul\":25093:25096   */\n      dup6\n        /* \"#utility.yul\":25075:25097   */\n      tag_343\n      jump\t// in\n    tag_629:\n        /* \"#utility.yul\":25065:25073   */\n      dup4\n        /* \"#utility.yul\":25061:25098   */\n      add\n        /* \"#utility.yul\":25048:25059   */\n      dup3\n        /* \"#utility.yul\":25019:25099   */\n      tag_352\n      jump\t// in\n    tag_628:\n        /* \"#utility.yul\":24678:25109   */\n      pop\n      pop\n        /* \"#utility.yul\":24663:25109   */\n    tag_624:\n        /* \"#utility.yul\":24573:25116   */\n      pop\n      pop\n      pop\n      jump\t// out\n        /* \"#utility.yul\":25122:25239   */\n    tag_354:\n        /* \"#utility.yul\":25176:25184   */\n      0x00\n        /* \"#utility.yul\":25226:25231   */\n      dup3\n        /* \"#utility.yul\":25220:25224   */\n      dup3\n        /* \"#utility.yul\":25216:25232   */\n      shr\n        /* \"#utility.yul\":25195:25232   */\n      swap1\n      pop\n        /* \"#utility.yul\":25122:25239   */\n      swap3\n      swap2\n      pop\n      pop\n      jump\t// out\n        /* \"#utility.yul\":25245:25414   */\n    tag_355:\n        /* \"#utility.yul\":25289:25295   */\n      0x00\n        /* \"#utility.yul\":25322:25373   */\n      tag_632\n        /* \"#utility.yul\":25370:25371   */\n      0x00\n        /* \"#utility.yul\":25366:25372   */\n      not\n        /* \"#utility.yul\":25358:25363   */\n      dup5\n        /* \"#utility.yul\":25355:25356   */\n      0x08\n        /* \"#utility.yul\":25351:25364   */\n      mul\n        /* \"#utility.yul\":25322:25373   */\n      tag_354\n      jump\t// in\n    tag_632:\n        /* \"#utility.yul\":25318:25374   */\n      not\n        /* \"#utility.yul\":25403:25407   */\n      dup1\n        /* \"#utility.yul\":25397:25401   */\n      dup4\n        /* \"#utility.yul\":25393:25408   */\n      and\n        /* \"#utility.yul\":25383:25408   */\n      swap2\n      pop\n        /* \"#utility.yul\":25296:25414   */\n      pop\n        /* \"#utility.yul\":25245:25414   */\n      swap3\n      swap2\n      pop\n      pop\n      jump\t// out\n        /* \"#utility.yul\":25419:25714   */\n    tag_356:\n        /* \"#utility.yul\":25495:25499   */\n      0x00\n        /* \"#utility.yul\":25641:25670   */\n      tag_634\n        /* \"#utility.yul\":25666:25669   */\n      dup4\n        /* \"#utility.yul\":25660:25664   */\n      dup4\n        /* \"#utility.yul\":25641:25670   */\n      tag_355\n      jump\t// in\n    tag_634:\n        /* \"#utility.yul\":25633:25670   */\n      swap2\n      pop\n        /* \"#utility.yul\":25703:25706   */\n      dup3\n        /* \"#utility.yul\":25700:25701   */\n      0x02\n        /* \"#utility.yul\":25696:25707   */\n      mul\n        /* \"#utility.yul\":25690:25694   */\n      dup3\n        /* \"#utility.yul\":25687:25708   */\n      or\n        /* \"#utility.yul\":25679:25708   */\n      swap1\n      pop\n        /* \"#utility.yul\":25419:25714   */\n      swap3\n      swap2\n      pop\n      pop\n      jump\t// out\n        /* \"#utility.yul\":25719:27114   */\n    tag_109:\n        /* \"#utility.yul\":25836:25873   */\n      tag_636\n        /* \"#utility.yul\":25869:25872   */\n      dup3\n        /* \"#utility.yul\":25836:25873   */\n      tag_315\n      jump\t// in\n    tag_636:\n        /* \"#utility.yul\":25938:25956   */\n      0xffffffffffffffff\n        /* \"#utility.yul\":25930:25936   */\n      dup2\n        /* \"#utility.yul\":25927:25957   */\n      gt\n        /* \"#utility.yul\":25924:25980   */\n      iszero\n      tag_637\n      jumpi\n        /* \"#utility.yul\":25960:25978   */\n      tag_638\n      tag_299\n      jump\t// in\n    tag_638:\n        /* \"#utility.yul\":25924:25980   */\n    tag_637:\n        /* \"#utility.yul\":26004:26042   */\n      tag_639\n        /* \"#utility.yul\":26036:26040   */\n      dup3\n        /* \"#utility.yul\":26030:26041   */\n      sload\n        /* \"#utility.yul\":26004:26042   */\n      tag_159\n      jump\t// in\n    tag_639:\n        /* \"#utility.yul\":26089:26156   */\n      tag_640\n        /* \"#utility.yul\":26149:26155   */\n      dup3\n        /* \"#utility.yul\":26141:26147   */\n      dup3\n        /* \"#utility.yul\":26135:26139   */\n      dup6\n        /* \"#utility.yul\":26089:26156   */\n      tag_353\n      jump\t// in\n    tag_640:\n        /* \"#utility.yul\":26183:26184   */\n      0x00\n        /* \"#utility.yul\":26207:26211   */\n      0x20\n        /* \"#utility.yul\":26194:26211   */\n      swap1\n      pop\n        /* \"#utility.yul\":26239:26241   */\n      0x1f\n        /* \"#utility.yul\":26231:26237   */\n      dup4\n        /* \"#utility.yul\":26228:26242   */\n      gt\n        /* \"#utility.yul\":26256:26257   */\n      0x01\n        /* \"#utility.yul\":26251:26869   */\n      dup2\n      eq\n      tag_642\n      jumpi\n        /* \"#utility.yul\":26913:26914   */\n      0x00\n        /* \"#utility.yul\":26930:26936   */\n      dup5\n        /* \"#utility.yul\":26927:27004   */\n      iszero\n      tag_643\n      jumpi\n        /* \"#utility.yul\":26979:26988   */\n      dup3\n        /* \"#utility.yul\":26974:26977   */\n      dup8\n        /* \"#utility.yul\":26970:26989   */\n      add\n        /* \"#utility.yul\":26964:26990   */\n      mload\n        /* \"#utility.yul\":26955:26990   */\n      swap1\n      pop\n        /* \"#utility.yul\":26927:27004   */\n    tag_643:\n        /* \"#utility.yul\":27030:27097   */\n      tag_644\n        /* \"#utility.yul\":27090:27096   */\n      dup6\n        /* \"#utility.yul\":27083:27088   */\n      dup3\n        /* \"#utility.yul\":27030:27097   */\n      tag_356\n      jump\t// in\n    tag_644:\n        /* \"#utility.yul\":27024:27028   */\n      dup7\n        /* \"#utility.yul\":27017:27098   */\n      sstore\n        /* \"#utility.yul\":26886:27108   */\n      pop\n        /* \"#utility.yul\":26221:27108   */\n      jump(tag_641)\n        /* \"#utility.yul\":26251:26869   */\n    tag_642:\n        /* \"#utility.yul\":26303:26307   */\n      0x1f\n        /* \"#utility.yul\":26299:26308   */\n      not\n        /* \"#utility.yul\":26291:26297   */\n      dup5\n        /* \"#utility.yul\":26287:26309   */\n      and\n        /* \"#utility.yul\":26337:26374   */\n      tag_645\n        /* \"#utility.yul\":26369:26373   */\n      dup7\n        /* \"#utility.yul\":26337:26374   */\n      tag_342\n      jump\t// in\n    tag_645:\n        /* \"#utility.yul\":26396:26397   */\n      0x00\n        /* \"#utility.yul\":26410:26618   */\n    tag_646:\n        /* \"#utility.yul\":26424:26431   */\n      dup3\n        /* \"#utility.yul\":26421:26422   */\n      dup2\n        /* \"#utility.yul\":26418:26432   */\n      lt\n        /* \"#utility.yul\":26410:26618   */\n      iszero\n      tag_648\n      jumpi\n        /* \"#utility.yul\":26503:26512   */\n      dup5\n        /* \"#utility.yul\":26498:26501   */\n      dup10\n        /* \"#utility.yul\":26494:26513   */\n      add\n        /* \"#utility.yul\":26488:26514   */\n      mload\n        /* \"#utility.yul\":26480:26486   */\n      dup3\n        /* \"#utility.yul\":26473:26515   */\n      sstore\n        /* \"#utility.yul\":26554:26555   */\n      0x01\n        /* \"#utility.yul\":26546:26552   */\n      dup3\n        /* \"#utility.yul\":26542:26556   */\n      add\n        /* \"#utility.yul\":26532:26556   */\n      swap2\n      pop\n        /* \"#utility.yul\":26601:26603   */\n      0x20\n        /* \"#utility.yul\":26590:26599   */\n      dup6\n        /* \"#utility.yul\":26586:26604   */\n      add\n        /* \"#utility.yul\":26573:26604   */\n      swap5\n      pop\n        /* \"#utility.yul\":26447:26451   */\n      0x20\n        /* \"#utility.yul\":26444:26445   */\n      dup2\n        /* \"#utility.yul\":26440:26452   */\n      add\n        /* \"#utility.yul\":26435:26452   */\n      swap1\n      pop\n        /* \"#utility.yul\":26410:26618   */\n      jump(tag_646)\n    tag_648:\n        /* \"#utility.yul\":26646:26652   */\n      dup7\n        /* \"#utility.yul\":26637:26644   */\n      dup4\n        /* \"#utility.yul\":26634:26653   */\n      lt\n        /* \"#utility.yul\":26631:26810   */\n      iszero\n      tag_649\n      jumpi\n        /* \"#utility.yul\":26704:26713   */\n      dup5\n        /* \"#utility.yul\":26699:26702   */\n      dup10\n        /* \"#utility.yul\":26695:26714   */\n      add\n        /* \"#utility.yul\":26689:26715   */\n      mload\n        /* \"#utility.yul\":26747:26795   */\n      tag_650\n        /* \"#utility.yul\":26789:26793   */\n      0x1f\n        /* \"#utility.yul\":26781:26787   */\n      dup10\n        /* \"#utility.yul\":26777:26794   */\n      and\n        /* \"#utility.yul\":26766:26775   */\n      dup3\n        /* \"#utility.yul\":26747:26795   */\n      tag_355\n      jump\t// in\n    tag_650:\n        /* \"#utility.yul\":26739:26745   */\n      dup4\n        /* \"#utility.yul\":26732:26796   */\n      sstore\n        /* \"#utility.yul\":26654:26810   */\n      pop\n        /* \"#utility.yul\":26631:26810   */\n    tag_649:\n        /* \"#utility.yul\":26856:26857   */\n      0x01\n        /* \"#utility.yul\":26852:26853   */\n      0x02\n        /* \"#utility.yul\":26844:26850   */\n      dup9\n        /* \"#utility.yul\":26840:26854   */\n      mul\n        /* \"#utility.yul\":26836:26858   */\n      add\n        /* \"#utility.yul\":26830:26834   */\n      dup9\n        /* \"#utility.yul\":26823:26859   */\n      sstore\n        /* \"#utility.yul\":26258:26869   */\n      pop\n      pop\n      pop\n        /* \"#utility.yul\":26221:27108   */\n    tag_641:\n      pop\n        /* \"#utility.yul\":25811:27114   */\n      pop\n      pop\n      pop\n        /* \"#utility.yul\":25719:27114   */\n      pop\n      pop\n      jump\t// out\n        /* \"#utility.yul\":27120:27232   */\n    tag_357:\n        /* \"#utility.yul\":27203:27225   */\n      tag_652\n        /* \"#utility.yul\":27219:27224   */\n      dup2\n        /* \"#utility.yul\":27203:27225   */\n      tag_293\n      jump\t// in\n    tag_652:\n        /* \"#utility.yul\":27198:27201   */\n      dup3\n        /* \"#utility.yul\":27191:27226   */\n      mstore\n        /* \"#utility.yul\":27120:27232   */\n      pop\n      pop\n      jump\t// out\n        /* \"#utility.yul\":27238:27985   */\n    tag_112:\n        /* \"#utility.yul\":27459:27463   */\n      0x00\n        /* \"#utility.yul\":27497:27500   */\n      0xa0\n        /* \"#utility.yul\":27486:27495   */\n      dup3\n        /* \"#utility.yul\":27482:27501   */\n      add\n        /* \"#utility.yul\":27474:27501   */\n      swap1\n      pop\n        /* \"#utility.yul\":27511:27582   */\n      tag_654\n        /* \"#utility.yul\":27579:27580   */\n      0x00\n        /* \"#utility.yul\":27568:27577   */\n      dup4\n        /* \"#utility.yul\":27564:27581   */\n      add\n        /* \"#utility.yul\":27555:27561   */\n      dup9\n        /* \"#utility.yul\":27511:27582   */\n      tag_306\n      jump\t// in\n    tag_654:\n        /* \"#utility.yul\":27629:27638   */\n      dup2\n        /* \"#utility.yul\":27623:27627   */\n      dup2\n        /* \"#utility.yul\":27619:27639   */\n      sub\n        /* \"#utility.yul\":27614:27616   */\n      0x20\n        /* \"#utility.yul\":27603:27612   */\n      dup4\n        /* \"#utility.yul\":27599:27617   */\n      add\n        /* \"#utility.yul\":27592:27640   */\n      mstore\n        /* \"#utility.yul\":27657:27735   */\n      tag_655\n        /* \"#utility.yul\":27730:27734   */\n      dup2\n        /* \"#utility.yul\":27721:27727   */\n      dup8\n        /* \"#utility.yul\":27657:27735   */\n      tag_329\n      jump\t// in\n    tag_655:\n        /* \"#utility.yul\":27649:27735   */\n      swap1\n      pop\n        /* \"#utility.yul\":27745:27813   */\n      tag_656\n        /* \"#utility.yul\":27809:27811   */\n      0x40\n        /* \"#utility.yul\":27798:27807   */\n      dup4\n        /* \"#utility.yul\":27794:27812   */\n      add\n        /* \"#utility.yul\":27785:27791   */\n      dup7\n        /* \"#utility.yul\":27745:27813   */\n      tag_357\n      jump\t// in\n    tag_656:\n        /* \"#utility.yul\":27823:27895   */\n      tag_657\n        /* \"#utility.yul\":27891:27893   */\n      0x60\n        /* \"#utility.yul\":27880:27889   */\n      dup4\n        /* \"#utility.yul\":27876:27894   */\n      add\n        /* \"#utility.yul\":27867:27873   */\n      dup6\n        /* \"#utility.yul\":27823:27895   */\n      tag_306\n      jump\t// in\n    tag_657:\n        /* \"#utility.yul\":27905:27978   */\n      tag_658\n        /* \"#utility.yul\":27973:27976   */\n      0x80\n        /* \"#utility.yul\":27962:27971   */\n      dup4\n        /* \"#utility.yul\":27958:27977   */\n      add\n        /* \"#utility.yul\":27949:27955   */\n      dup5\n        /* \"#utility.yul\":27905:27978   */\n      tag_306\n      jump\t// in\n    tag_658:\n        /* \"#utility.yul\":27238:27985   */\n      swap7\n      swap6\n      pop\n      pop\n      pop\n      pop\n      pop\n      pop\n      jump\t// out\n        /* \"#utility.yul\":27991:28217   */\n    tag_358:\n        /* \"#utility.yul\":28131:28165   */\n      0x45544820746f206c6f636b206d75737420612076616c75652067726561746572\n        /* \"#utility.yul\":28127:28128   */\n      0x00\n        /* \"#utility.yul\":28119:28125   */\n      dup3\n        /* \"#utility.yul\":28115:28129   */\n      add\n        /* \"#utility.yul\":28108:28166   */\n      mstore\n        /* \"#utility.yul\":28200:28209   */\n      0x207468616e203000000000000000000000000000000000000000000000000000\n        /* \"#utility.yul\":28195:28197   */\n      0x20\n        /* \"#utility.yul\":28187:28193   */\n      dup3\n        /* \"#utility.yul\":28183:28198   */\n      add\n        /* \"#utility.yul\":28176:28210   */\n      mstore\n        /* \"#utility.yul\":27991:28217   */\n      pop\n      jump\t// out\n        /* \"#utility.yul\":28223:28589   */\n    tag_359:\n        /* \"#utility.yul\":28365:28368   */\n      0x00\n        /* \"#utility.yul\":28386:28453   */\n      tag_661\n        /* \"#utility.yul\":28450:28452   */\n      0x27\n        /* \"#utility.yul\":28445:28448   */\n      dup4\n        /* \"#utility.yul\":28386:28453   */\n      tag_328\n      jump\t// in\n    tag_661:\n        /* \"#utility.yul\":28379:28453   */\n      swap2\n      pop\n        /* \"#utility.yul\":28462:28555   */\n      tag_662\n        /* \"#utility.yul\":28551:28554   */\n      dup3\n        /* \"#utility.yul\":28462:28555   */\n      tag_358\n      jump\t// in\n    tag_662:\n        /* \"#utility.yul\":28580:28582   */\n      0x40\n        /* \"#utility.yul\":28575:28578   */\n      dup3\n        /* \"#utility.yul\":28571:28583   */\n      add\n        /* \"#utility.yul\":28564:28583   */\n      swap1\n      pop\n        /* \"#utility.yul\":28223:28589   */\n      swap2\n      swap1\n      pop\n      jump\t// out\n        /* \"#utility.yul\":28595:29014   */\n    tag_120:\n        /* \"#utility.yul\":28761:28765   */\n      0x00\n        /* \"#utility.yul\":28799:28801   */\n      0x20\n        /* \"#utility.yul\":28788:28797   */\n      dup3\n        /* \"#utility.yul\":28784:28802   */\n      add\n        /* \"#utility.yul\":28776:28802   */\n      swap1\n      pop\n        /* \"#utility.yul\":28848:28857   */\n      dup2\n        /* \"#utility.yul\":28842:28846   */\n      dup2\n        /* \"#utility.yul\":28838:28858   */\n      sub\n        /* \"#utility.yul\":28834:28835   */\n      0x00\n        /* \"#utility.yul\":28823:28832   */\n      dup4\n        /* \"#utility.yul\":28819:28836   */\n      add\n        /* \"#utility.yul\":28812:28859   */\n      mstore\n        /* \"#utility.yul\":28876:29007   */\n      tag_664\n        /* \"#utility.yul\":29002:29006   */\n      dup2\n        /* \"#utility.yul\":28876:29007   */\n      tag_359\n      jump\t// in\n    tag_664:\n        /* \"#utility.yul\":28868:29007   */\n      swap1\n      pop\n        /* \"#utility.yul\":28595:29014   */\n      swap2\n      swap1\n      pop\n      jump\t// out\n        /* \"#utility.yul\":29020:29247   */\n    tag_360:\n        /* \"#utility.yul\":29160:29194   */\n      0x546865206c6f636b706572696f64206d75737420626520677265617465722074\n        /* \"#utility.yul\":29156:29157   */\n      0x00\n        /* \"#utility.yul\":29148:29154   */\n      dup3\n        /* \"#utility.yul\":29144:29158   */\n      add\n        /* \"#utility.yul\":29137:29195   */\n      mstore\n        /* \"#utility.yul\":29229:29239   */\n      0x68656e207a65726f000000000000000000000000000000000000000000000000\n        /* \"#utility.yul\":29224:29226   */\n      0x20\n        /* \"#utility.yul\":29216:29222   */\n      dup3\n        /* \"#utility.yul\":29212:29227   */\n      add\n        /* \"#utility.yul\":29205:29240   */\n      mstore\n        /* \"#utility.yul\":29020:29247   */\n      pop\n      jump\t// out\n        /* \"#utility.yul\":29253:29619   */\n    tag_361:\n        /* \"#utility.yul\":29395:29398   */\n      0x00\n        /* \"#utility.yul\":29416:29483   */\n      tag_667\n        /* \"#utility.yul\":29480:29482   */\n      0x28\n        /* \"#utility.yul\":29475:29478   */\n      dup4\n        /* \"#utility.yul\":29416:29483   */\n      tag_328\n      jump\t// in\n    tag_667:\n        /* \"#utility.yul\":29409:29483   */\n      swap2\n      pop\n        /* \"#utility.yul\":29492:29585   */\n      tag_668\n        /* \"#utility.yul\":29581:29584   */\n      dup3\n        /* \"#utility.yul\":29492:29585   */\n      tag_360\n      jump\t// in\n    tag_668:\n        /* \"#utility.yul\":29610:29612   */\n      0x40\n        /* \"#utility.yul\":29605:29608   */\n      dup3\n        /* \"#utility.yul\":29601:29613   */\n      add\n        /* \"#utility.yul\":29594:29613   */\n      swap1\n      pop\n        /* \"#utility.yul\":29253:29619   */\n      swap2\n      swap1\n      pop\n      jump\t// out\n        /* \"#utility.yul\":29625:30044   */\n    tag_123:\n        /* \"#utility.yul\":29791:29795   */\n      0x00\n        /* \"#utility.yul\":29829:29831   */\n      0x20\n        /* \"#utility.yul\":29818:29827   */\n      dup3\n        /* \"#utility.yul\":29814:29832   */\n      add\n        /* \"#utility.yul\":29806:29832   */\n      swap1\n      pop\n        /* \"#utility.yul\":29878:29887   */\n      dup2\n        /* \"#utility.yul\":29872:29876   */\n      dup2\n        /* \"#utility.yul\":29868:29888   */\n      sub\n        /* \"#utility.yul\":29864:29865   */\n      0x00\n        /* \"#utility.yul\":29853:29862   */\n      dup4\n        /* \"#utility.yul\":29849:29866   */\n      add\n        /* \"#utility.yul\":29842:29889   */\n      mstore\n        /* \"#utility.yul\":29906:30037   */\n      tag_670\n        /* \"#utility.yul\":30032:30036   */\n      dup2\n        /* \"#utility.yul\":29906:30037   */\n      tag_361\n      jump\t// in\n    tag_670:\n        /* \"#utility.yul\":29898:30037   */\n      swap1\n      pop\n        /* \"#utility.yul\":29625:30044   */\n      swap2\n      swap1\n      pop\n      jump\t// out\n        /* \"#utility.yul\":30050:30230   */\n    tag_145:\n        /* \"#utility.yul\":30098:30175   */\n      0x4e487b7100000000000000000000000000000000000000000000000000000000\n        /* \"#utility.yul\":30095:30096   */\n      0x00\n        /* \"#utility.yul\":30088:30176   */\n      mstore\n        /* \"#utility.yul\":30195:30199   */\n      0x32\n        /* \"#utility.yul\":30192:30193   */\n      0x04\n        /* \"#utility.yul\":30185:30200   */\n      mstore\n        /* \"#utility.yul\":30219:30223   */\n      0x24\n        /* \"#utility.yul\":30216:30217   */\n      0x00\n        /* \"#utility.yul\":30209:30224   */\n      revert\n        /* \"#utility.yul\":30260:31091   */\n    tag_362:\n        /* \"#utility.yul\":30345:30348   */\n      0x00\n        /* \"#utility.yul\":30382:30387   */\n      dup2\n        /* \"#utility.yul\":30376:30388   */\n      sload\n        /* \"#utility.yul\":30411:30447   */\n      tag_673\n        /* \"#utility.yul\":30437:30446   */\n      dup2\n        /* \"#utility.yul\":30411:30447   */\n      tag_159\n      jump\t// in\n    tag_673:\n        /* \"#utility.yul\":30463:30534   */\n      tag_674\n        /* \"#utility.yul\":30527:30533   */\n      dup2\n        /* \"#utility.yul\":30522:30525   */\n      dup7\n        /* \"#utility.yul\":30463:30534   */\n      tag_328\n      jump\t// in\n    tag_674:\n        /* \"#utility.yul\":30456:30534   */\n      swap5\n      pop\n        /* \"#utility.yul\":30565:30566   */\n      0x01\n        /* \"#utility.yul\":30554:30563   */\n      dup3\n        /* \"#utility.yul\":30550:30567   */\n      and\n        /* \"#utility.yul\":30581:30582   */\n      0x00\n        /* \"#utility.yul\":30576:30740   */\n      dup2\n      eq\n      tag_676\n      jumpi\n        /* \"#utility.yul\":30754:30755   */\n      0x01\n        /* \"#utility.yul\":30749:31085   */\n      dup2\n      eq\n      tag_677\n      jumpi\n        /* \"#utility.yul\":30543:31085   */\n      jump(tag_675)\n        /* \"#utility.yul\":30576:30740   */\n    tag_676:\n        /* \"#utility.yul\":30660:30664   */\n      0xff\n        /* \"#utility.yul\":30656:30665   */\n      not\n        /* \"#utility.yul\":30645:30654   */\n      dup4\n        /* \"#utility.yul\":30641:30666   */\n      and\n        /* \"#utility.yul\":30636:30639   */\n      dup7\n        /* \"#utility.yul\":30629:30667   */\n      mstore\n        /* \"#utility.yul\":30720:30726   */\n      dup2\n        /* \"#utility.yul\":30713:30727   */\n      iszero\n        /* \"#utility.yul\":30706:30728   */\n      iszero\n        /* \"#utility.yul\":30700:30704   */\n      0x20\n        /* \"#utility.yul\":30696:30729   */\n      mul\n        /* \"#utility.yul\":30691:30694   */\n      dup7\n        /* \"#utility.yul\":30687:30730   */\n      add\n        /* \"#utility.yul\":30680:30730   */\n      swap4\n      pop\n        /* \"#utility.yul\":30576:30740   */\n      jump(tag_675)\n        /* \"#utility.yul\":30749:31085   */\n    tag_677:\n        /* \"#utility.yul\":30816:30854   */\n      tag_678\n        /* \"#utility.yul\":30848:30853   */\n      dup6\n        /* \"#utility.yul\":30816:30854   */\n      tag_342\n      jump\t// in\n    tag_678:\n        /* \"#utility.yul\":30876:30877   */\n      0x00\n        /* \"#utility.yul\":30890:31044   */\n    tag_679:\n        /* \"#utility.yul\":30904:30910   */\n      dup4\n        /* \"#utility.yul\":30901:30902   */\n      dup2\n        /* \"#utility.yul\":30898:30911   */\n      lt\n        /* \"#utility.yul\":30890:31044   */\n      iszero\n      tag_681\n      jumpi\n        /* \"#utility.yul\":30978:30985   */\n      dup2\n        /* \"#utility.yul\":30972:30986   */\n      sload\n        /* \"#utility.yul\":30968:30969   */\n      dup2\n        /* \"#utility.yul\":30963:30966   */\n      dup10\n        /* \"#utility.yul\":30959:30970   */\n      add\n        /* \"#utility.yul\":30952:30987   */\n      mstore\n        /* \"#utility.yul\":31028:31029   */\n      0x01\n        /* \"#utility.yul\":31019:31026   */\n      dup3\n        /* \"#utility.yul\":31015:31030   */\n      add\n        /* \"#utility.yul\":31004:31030   */\n      swap2\n      pop\n        /* \"#utility.yul\":30926:30930   */\n      0x20\n        /* \"#utility.yul\":30923:30924   */\n      dup2\n        /* \"#utility.yul\":30919:30931   */\n      add\n        /* \"#utility.yul\":30914:30931   */\n      swap1\n      pop\n        /* \"#utility.yul\":30890:31044   */\n      jump(tag_679)\n    tag_681:\n        /* \"#utility.yul\":31073:31074   */\n      dup1\n        /* \"#utility.yul\":31068:31071   */\n      dup9\n        /* \"#utility.yul\":31064:31075   */\n      add\n        /* \"#utility.yul\":31057:31075   */\n      swap6\n      pop\n        /* \"#utility.yul\":30756:31085   */\n      pop\n      pop\n        /* \"#utility.yul\":30543:31085   */\n    tag_675:\n      pop\n        /* \"#utility.yul\":30349:31091   */\n      pop\n      pop\n        /* \"#utility.yul\":30260:31091   */\n      swap3\n      swap2\n      pop\n      pop\n      jump\t// out\n        /* \"#utility.yul\":31097:31727   */\n    tag_152:\n        /* \"#utility.yul\":31287:31291   */\n      0x00\n        /* \"#utility.yul\":31325:31328   */\n      0x80\n        /* \"#utility.yul\":31314:31323   */\n      dup3\n        /* \"#utility.yul\":31310:31329   */\n      add\n        /* \"#utility.yul\":31302:31329   */\n      swap1\n      pop\n        /* \"#utility.yul\":31339:31410   */\n      tag_683\n        /* \"#utility.yul\":31407:31408   */\n      0x00\n        /* \"#utility.yul\":31396:31405   */\n      dup4\n        /* \"#utility.yul\":31392:31409   */\n      add\n        /* \"#utility.yul\":31383:31389   */\n      dup8\n        /* \"#utility.yul\":31339:31410   */\n      tag_306\n      jump\t// in\n    tag_683:\n        /* \"#utility.yul\":31457:31466   */\n      dup2\n        /* \"#utility.yul\":31451:31455   */\n      dup2\n        /* \"#utility.yul\":31447:31467   */\n      sub\n        /* \"#utility.yul\":31442:31444   */\n      0x20\n        /* \"#utility.yul\":31431:31440   */\n      dup4\n        /* \"#utility.yul\":31427:31445   */\n      add\n        /* \"#utility.yul\":31420:31468   */\n      mstore\n        /* \"#utility.yul\":31485:31560   */\n      tag_684\n        /* \"#utility.yul\":31555:31559   */\n      dup2\n        /* \"#utility.yul\":31546:31552   */\n      dup7\n        /* \"#utility.yul\":31485:31560   */\n      tag_362\n      jump\t// in\n    tag_684:\n        /* \"#utility.yul\":31477:31560   */\n      swap1\n      pop\n        /* \"#utility.yul\":31570:31638   */\n      tag_685\n        /* \"#utility.yul\":31634:31636   */\n      0x40\n        /* \"#utility.yul\":31623:31632   */\n      dup4\n        /* \"#utility.yul\":31619:31637   */\n      add\n        /* \"#utility.yul\":31610:31616   */\n      dup6\n        /* \"#utility.yul\":31570:31638   */\n      tag_357\n      jump\t// in\n    tag_685:\n        /* \"#utility.yul\":31648:31720   */\n      tag_686\n        /* \"#utility.yul\":31716:31718   */\n      0x60\n        /* \"#utility.yul\":31705:31714   */\n      dup4\n        /* \"#utility.yul\":31701:31719   */\n      add\n        /* \"#utility.yul\":31692:31698   */\n      dup5\n        /* \"#utility.yul\":31648:31720   */\n      tag_306\n      jump\t// in\n    tag_686:\n        /* \"#utility.yul\":31097:31727   */\n      swap6\n      swap5\n      pop\n      pop\n      pop\n      pop\n      pop\n      jump\t// out\n        /* \"#utility.yul\":31733:31954   */\n    tag_363:\n        /* \"#utility.yul\":31873:31907   */\n      0x5468652073706563696669656420617373657420494420697320696e76616c69\n        /* \"#utility.yul\":31869:31870   */\n      0x00\n        /* \"#utility.yul\":31861:31867   */\n      dup3\n        /* \"#utility.yul\":31857:31871   */\n      add\n        /* \"#utility.yul\":31850:31908   */\n      mstore\n        /* \"#utility.yul\":31942:31946   */\n      0x642e000000000000000000000000000000000000000000000000000000000000\n        /* \"#utility.yul\":31937:31939   */\n      0x20\n        /* \"#utility.yul\":31929:31935   */\n      dup3\n        /* \"#utility.yul\":31925:31940   */\n      add\n        /* \"#utility.yul\":31918:31947   */\n      mstore\n        /* \"#utility.yul\":31733:31954   */\n      pop\n      jump\t// out\n        /* \"#utility.yul\":31960:32326   */\n    tag_364:\n        /* \"#utility.yul\":32102:32105   */\n      0x00\n        /* \"#utility.yul\":32123:32190   */\n      tag_689\n        /* \"#utility.yul\":32187:32189   */\n      0x22\n        /* \"#utility.yul\":32182:32185   */\n      dup4\n        /* \"#utility.yul\":32123:32190   */\n      tag_328\n      jump\t// in\n    tag_689:\n        /* \"#utility.yul\":32116:32190   */\n      swap2\n      pop\n        /* \"#utility.yul\":32199:32292   */\n      tag_690\n        /* \"#utility.yul\":32288:32291   */\n      dup3\n        /* \"#utility.yul\":32199:32292   */\n      tag_363\n      jump\t// in\n    tag_690:\n        /* \"#utility.yul\":32317:32319   */\n      0x40\n        /* \"#utility.yul\":32312:32315   */\n      dup3\n        /* \"#utility.yul\":32308:32320   */\n      add\n        /* \"#utility.yul\":32301:32320   */\n      swap1\n      pop\n        /* \"#utility.yul\":31960:32326   */\n      swap2\n      swap1\n      pop\n      jump\t// out\n        /* \"#utility.yul\":32332:32751   */\n    tag_178:\n        /* \"#utility.yul\":32498:32502   */\n      0x00\n        /* \"#utility.yul\":32536:32538   */\n      0x20\n        /* \"#utility.yul\":32525:32534   */\n      dup3\n        /* \"#utility.yul\":32521:32539   */\n      add\n        /* \"#utility.yul\":32513:32539   */\n      swap1\n      pop\n        /* \"#utility.yul\":32585:32594   */\n      dup2\n        /* \"#utility.yul\":32579:32583   */\n      dup2\n        /* \"#utility.yul\":32575:32595   */\n      sub\n        /* \"#utility.yul\":32571:32572   */\n      0x00\n        /* \"#utility.yul\":32560:32569   */\n      dup4\n        /* \"#utility.yul\":32556:32573   */\n      add\n        /* \"#utility.yul\":32549:32596   */\n      mstore\n        /* \"#utility.yul\":32613:32744   */\n      tag_692\n        /* \"#utility.yul\":32739:32743   */\n      dup2\n        /* \"#utility.yul\":32613:32744   */\n      tag_364\n      jump\t// in\n    tag_692:\n        /* \"#utility.yul\":32605:32744   */\n      swap1\n      pop\n        /* \"#utility.yul\":32332:32751   */\n      swap2\n      swap1\n      pop\n      jump\t// out\n        /* \"#utility.yul\":32757:32980   */\n    tag_365:\n        /* \"#utility.yul\":32897:32931   */\n      0x546865206c6f636b20706572696f6420686173206e6f74207965742065787069\n        /* \"#utility.yul\":32893:32894   */\n      0x00\n        /* \"#utility.yul\":32885:32891   */\n      dup3\n        /* \"#utility.yul\":32881:32895   */\n      add\n        /* \"#utility.yul\":32874:32932   */\n      mstore\n        /* \"#utility.yul\":32966:32972   */\n      0x7265642100000000000000000000000000000000000000000000000000000000\n        /* \"#utility.yul\":32961:32963   */\n      0x20\n        /* \"#utility.yul\":32953:32959   */\n      dup3\n        /* \"#utility.yul\":32949:32964   */\n      add\n        /* \"#utility.yul\":32942:32973   */\n      mstore\n        /* \"#utility.yul\":32757:32980   */\n      pop\n      jump\t// out\n        /* \"#utility.yul\":32986:33352   */\n    tag_366:\n        /* \"#utility.yul\":33128:33131   */\n      0x00\n        /* \"#utility.yul\":33149:33216   */\n      tag_695\n        /* \"#utility.yul\":33213:33215   */\n      0x24\n        /* \"#utility.yul\":33208:33211   */\n      dup4\n        /* \"#utility.yul\":33149:33216   */\n      tag_328\n      jump\t// in\n    tag_695:\n        /* \"#utility.yul\":33142:33216   */\n      swap2\n      pop\n        /* \"#utility.yul\":33225:33318   */\n      tag_696\n        /* \"#utility.yul\":33314:33317   */\n      dup3\n        /* \"#utility.yul\":33225:33318   */\n      tag_365\n      jump\t// in\n    tag_696:\n        /* \"#utility.yul\":33343:33345   */\n      0x40\n        /* \"#utility.yul\":33338:33341   */\n      dup3\n        /* \"#utility.yul\":33334:33346   */\n      add\n        /* \"#utility.yul\":33327:33346   */\n      swap1\n      pop\n        /* \"#utility.yul\":32986:33352   */\n      swap2\n      swap1\n      pop\n      jump\t// out\n        /* \"#utility.yul\":33358:33777   */\n    tag_181:\n        /* \"#utility.yul\":33524:33528   */\n      0x00\n        /* \"#utility.yul\":33562:33564   */\n      0x20\n        /* \"#utility.yul\":33551:33560   */\n      dup3\n        /* \"#utility.yul\":33547:33565   */\n      add\n        /* \"#utility.yul\":33539:33565   */\n      swap1\n      pop\n        /* \"#utility.yul\":33611:33620   */\n      dup2\n        /* \"#utility.yul\":33605:33609   */\n      dup2\n        /* \"#utility.yul\":33601:33621   */\n      sub\n        /* \"#utility.yul\":33597:33598   */\n      0x00\n        /* \"#utility.yul\":33586:33595   */\n      dup4\n        /* \"#utility.yul\":33582:33599   */\n      add\n        /* \"#utility.yul\":33575:33622   */\n      mstore\n        /* \"#utility.yul\":33639:33770   */\n      tag_698\n        /* \"#utility.yul\":33765:33769   */\n      dup2\n        /* \"#utility.yul\":33639:33770   */\n      tag_366\n      jump\t// in\n    tag_698:\n        /* \"#utility.yul\":33631:33770   */\n      swap1\n      pop\n        /* \"#utility.yul\":33358:33777   */\n      swap2\n      swap1\n      pop\n      jump\t// out\n        /* \"#utility.yul\":33783:34413   */\n    tag_187:\n        /* \"#utility.yul\":33973:33977   */\n      0x00\n        /* \"#utility.yul\":34011:34014   */\n      0x80\n        /* \"#utility.yul\":34000:34009   */\n      dup3\n        /* \"#utility.yul\":33996:34015   */\n      add\n        /* \"#utility.yul\":33988:34015   */\n      swap1\n      pop\n        /* \"#utility.yul\":34025:34092   */\n      tag_700\n        /* \"#utility.yul\":34089:34090   */\n      0x00\n        /* \"#utility.yul\":34078:34087   */\n      dup4\n        /* \"#utility.yul\":34074:34091   */\n      add\n        /* \"#utility.yul\":34065:34071   */\n      dup8\n        /* \"#utility.yul\":34025:34092   */\n      tag_357\n      jump\t// in\n    tag_700:\n        /* \"#utility.yul\":34102:34174   */\n      tag_701\n        /* \"#utility.yul\":34170:34172   */\n      0x20\n        /* \"#utility.yul\":34159:34168   */\n      dup4\n        /* \"#utility.yul\":34155:34173   */\n      add\n        /* \"#utility.yul\":34146:34152   */\n      dup7\n        /* \"#utility.yul\":34102:34174   */\n      tag_306\n      jump\t// in\n    tag_701:\n        /* \"#utility.yul\":34221:34230   */\n      dup2\n        /* \"#utility.yul\":34215:34219   */\n      dup2\n        /* \"#utility.yul\":34211:34231   */\n      sub\n        /* \"#utility.yul\":34206:34208   */\n      0x40\n        /* \"#utility.yul\":34195:34204   */\n      dup4\n        /* \"#utility.yul\":34191:34209   */\n      add\n        /* \"#utility.yul\":34184:34232   */\n      mstore\n        /* \"#utility.yul\":34249:34324   */\n      tag_702\n        /* \"#utility.yul\":34319:34323   */\n      dup2\n        /* \"#utility.yul\":34310:34316   */\n      dup6\n        /* \"#utility.yul\":34249:34324   */\n      tag_362\n      jump\t// in\n    tag_702:\n        /* \"#utility.yul\":34241:34324   */\n      swap1\n      pop\n        /* \"#utility.yul\":34334:34406   */\n      tag_703\n        /* \"#utility.yul\":34402:34404   */\n      0x60\n        /* \"#utility.yul\":34391:34400   */\n      dup4\n        /* \"#utility.yul\":34387:34405   */\n      add\n        /* \"#utility.yul\":34378:34384   */\n      dup5\n        /* \"#utility.yul\":34334:34406   */\n      tag_306\n      jump\t// in\n    tag_703:\n        /* \"#utility.yul\":33783:34413   */\n      swap6\n      swap5\n      pop\n      pop\n      pop\n      pop\n      pop\n      jump\t// out\n        /* \"#utility.yul\":34419:34641   */\n    tag_367:\n        /* \"#utility.yul\":34559:34593   */\n      0x417373657473206861766520616c7265616479206265656e2077697468647261\n        /* \"#utility.yul\":34555:34556   */\n      0x00\n        /* \"#utility.yul\":34547:34553   */\n      dup3\n        /* \"#utility.yul\":34543:34557   */\n      add\n        /* \"#utility.yul\":34536:34594   */\n      mstore\n        /* \"#utility.yul\":34628:34633   */\n      0x776e210000000000000000000000000000000000000000000000000000000000\n        /* \"#utility.yul\":34623:34625   */\n      0x20\n        /* \"#utility.yul\":34615:34621   */\n      dup3\n        /* \"#utility.yul\":34611:34626   */\n      add\n        /* \"#utility.yul\":34604:34634   */\n      mstore\n        /* \"#utility.yul\":34419:34641   */\n      pop\n      jump\t// out\n        /* \"#utility.yul\":34647:35013   */\n    tag_368:\n        /* \"#utility.yul\":34789:34792   */\n      0x00\n        /* \"#utility.yul\":34810:34877   */\n      tag_706\n        /* \"#utility.yul\":34874:34876   */\n      0x23\n        /* \"#utility.yul\":34869:34872   */\n      dup4\n        /* \"#utility.yul\":34810:34877   */\n      tag_328\n      jump\t// in\n    tag_706:\n        /* \"#utility.yul\":34803:34877   */\n      swap2\n      pop\n        /* \"#utility.yul\":34886:34979   */\n      tag_707\n        /* \"#utility.yul\":34975:34978   */\n      dup3\n        /* \"#utility.yul\":34886:34979   */\n      tag_367\n      jump\t// in\n    tag_707:\n        /* \"#utility.yul\":35004:35006   */\n      0x40\n        /* \"#utility.yul\":34999:35002   */\n      dup3\n        /* \"#utility.yul\":34995:35007   */\n      add\n        /* \"#utility.yul\":34988:35007   */\n      swap1\n      pop\n        /* \"#utility.yul\":34647:35013   */\n      swap2\n      swap1\n      pop\n      jump\t// out\n        /* \"#utility.yul\":35019:35438   */\n    tag_205:\n        /* \"#utility.yul\":35185:35189   */\n      0x00\n        /* \"#utility.yul\":35223:35225   */\n      0x20\n        /* \"#utility.yul\":35212:35221   */\n      dup3\n        /* \"#utility.yul\":35208:35226   */\n      add\n        /* \"#utility.yul\":35200:35226   */\n      swap1\n      pop\n        /* \"#utility.yul\":35272:35281   */\n      dup2\n        /* \"#utility.yul\":35266:35270   */\n      dup2\n        /* \"#utility.yul\":35262:35282   */\n      sub\n        /* \"#utility.yul\":35258:35259   */\n      0x00\n        /* \"#utility.yul\":35247:35256   */\n      dup4\n        /* \"#utility.yul\":35243:35260   */\n      add\n        /* \"#utility.yul\":35236:35283   */\n      mstore\n        /* \"#utility.yul\":35300:35431   */\n      tag_709\n        /* \"#utility.yul\":35426:35430   */\n      dup2\n        /* \"#utility.yul\":35300:35431   */\n      tag_368\n      jump\t// in\n    tag_709:\n        /* \"#utility.yul\":35292:35431   */\n      swap1\n      pop\n        /* \"#utility.yul\":35019:35438   */\n      swap2\n      swap1\n      pop\n      jump\t// out\n        /* \"#utility.yul\":35444:35638   */\n    tag_209:\n        /* \"#utility.yul\":35484:35488   */\n      0x00\n        /* \"#utility.yul\":35504:35524   */\n      tag_711\n        /* \"#utility.yul\":35522:35523   */\n      dup3\n        /* \"#utility.yul\":35504:35524   */\n      tag_290\n      jump\t// in\n    tag_711:\n        /* \"#utility.yul\":35499:35524   */\n      swap2\n      pop\n        /* \"#utility.yul\":35538:35558   */\n      tag_712\n        /* \"#utility.yul\":35556:35557   */\n      dup4\n        /* \"#utility.yul\":35538:35558   */\n      tag_290\n      jump\t// in\n    tag_712:\n        /* \"#utility.yul\":35533:35558   */\n      swap3\n      pop\n        /* \"#utility.yul\":35582:35583   */\n      dup3\n        /* \"#utility.yul\":35579:35580   */\n      dup3\n        /* \"#utility.yul\":35575:35584   */\n      sub\n        /* \"#utility.yul\":35567:35584   */\n      swap1\n      pop\n        /* \"#utility.yul\":35606:35607   */\n      dup2\n        /* \"#utility.yul\":35600:35604   */\n      dup2\n        /* \"#utility.yul\":35597:35608   */\n      gt\n        /* \"#utility.yul\":35594:35631   */\n      iszero\n      tag_713\n      jumpi\n        /* \"#utility.yul\":35611:35629   */\n      tag_714\n      tag_340\n      jump\t// in\n    tag_714:\n        /* \"#utility.yul\":35594:35631   */\n    tag_713:\n        /* \"#utility.yul\":35444:35638   */\n      swap3\n      swap2\n      pop\n      pop\n      jump\t// out\n        /* \"#utility.yul\":35644:35824   */\n    tag_369:\n        /* \"#utility.yul\":35784:35816   */\n      0x4e6f7420656e6f7567682061737365747320746f207769746864726177210000\n        /* \"#utility.yul\":35780:35781   */\n      0x00\n        /* \"#utility.yul\":35772:35778   */\n      dup3\n        /* \"#utility.yul\":35768:35782   */\n      add\n        /* \"#utility.yul\":35761:35817   */\n      mstore\n        /* \"#utility.yul\":35644:35824   */\n      pop\n      jump\t// out\n        /* \"#utility.yul\":35830:36196   */\n    tag_370:\n        /* \"#utility.yul\":35972:35975   */\n      0x00\n        /* \"#utility.yul\":35993:36060   */\n      tag_717\n        /* \"#utility.yul\":36057:36059   */\n      0x1e\n        /* \"#utility.yul\":36052:36055   */\n      dup4\n        /* \"#utility.yul\":35993:36060   */\n      tag_328\n      jump\t// in\n    tag_717:\n        /* \"#utility.yul\":35986:36060   */\n      swap2\n      pop\n        /* \"#utility.yul\":36069:36162   */\n      tag_718\n        /* \"#utility.yul\":36158:36161   */\n      dup3\n        /* \"#utility.yul\":36069:36162   */\n      tag_369\n      jump\t// in\n    tag_718:\n        /* \"#utility.yul\":36187:36189   */\n      0x20\n        /* \"#utility.yul\":36182:36185   */\n      dup3\n        /* \"#utility.yul\":36178:36190   */\n      add\n        /* \"#utility.yul\":36171:36190   */\n      swap1\n      pop\n        /* \"#utility.yul\":35830:36196   */\n      swap2\n      swap1\n      pop\n      jump\t// out\n        /* \"#utility.yul\":36202:36621   */\n    tag_212:\n        /* \"#utility.yul\":36368:36372   */\n      0x00\n        /* \"#utility.yul\":36406:36408   */\n      0x20\n        /* \"#utility.yul\":36395:36404   */\n      dup3\n        /* \"#utility.yul\":36391:36409   */\n      add\n        /* \"#utility.yul\":36383:36409   */\n      swap1\n      pop\n        /* \"#utility.yul\":36455:36464   */\n      dup2\n        /* \"#utility.yul\":36449:36453   */\n      dup2\n        /* \"#utility.yul\":36445:36465   */\n      sub\n        /* \"#utility.yul\":36441:36442   */\n      0x00\n        /* \"#utility.yul\":36430:36439   */\n      dup4\n        /* \"#utility.yul\":36426:36443   */\n      add\n        /* \"#utility.yul\":36419:36466   */\n      mstore\n        /* \"#utility.yul\":36483:36614   */\n      tag_720\n        /* \"#utility.yul\":36609:36613   */\n      dup2\n        /* \"#utility.yul\":36483:36614   */\n      tag_370\n      jump\t// in\n    tag_720:\n        /* \"#utility.yul\":36475:36614   */\n      swap1\n      pop\n        /* \"#utility.yul\":36202:36621   */\n      swap2\n      swap1\n      pop\n      jump\t// out\n        /* \"#utility.yul\":36627:36774   */\n    tag_371:\n        /* \"#utility.yul\":36728:36739   */\n      0x00\n        /* \"#utility.yul\":36765:36768   */\n      dup2\n        /* \"#utility.yul\":36750:36768   */\n      swap1\n      pop\n        /* \"#utility.yul\":36627:36774   */\n      swap3\n      swap2\n      pop\n      pop\n      jump\t// out\n        /* \"#utility.yul\":36780:36894   */\n    tag_372:\n      pop\n      jump\t// out\n        /* \"#utility.yul\":36900:37298   */\n    tag_373:\n        /* \"#utility.yul\":37059:37062   */\n      0x00\n        /* \"#utility.yul\":37080:37163   */\n      tag_724\n        /* \"#utility.yul\":37161:37162   */\n      0x00\n        /* \"#utility.yul\":37156:37159   */\n      dup4\n        /* \"#utility.yul\":37080:37163   */\n      tag_371\n      jump\t// in\n    tag_724:\n        /* \"#utility.yul\":37073:37163   */\n      swap2\n      pop\n        /* \"#utility.yul\":37172:37265   */\n      tag_725\n        /* \"#utility.yul\":37261:37264   */\n      dup3\n        /* \"#utility.yul\":37172:37265   */\n      tag_372\n      jump\t// in\n    tag_725:\n        /* \"#utility.yul\":37290:37291   */\n      0x00\n        /* \"#utility.yul\":37285:37288   */\n      dup3\n        /* \"#utility.yul\":37281:37292   */\n      add\n        /* \"#utility.yul\":37274:37292   */\n      swap1\n      pop\n        /* \"#utility.yul\":36900:37298   */\n      swap2\n      swap1\n      pop\n      jump\t// out\n        /* \"#utility.yul\":37304:37683   */\n    tag_222:\n        /* \"#utility.yul\":37488:37491   */\n      0x00\n        /* \"#utility.yul\":37510:37657   */\n      tag_727\n        /* \"#utility.yul\":37653:37656   */\n      dup3\n        /* \"#utility.yul\":37510:37657   */\n      tag_373\n      jump\t// in\n    tag_727:\n        /* \"#utility.yul\":37503:37657   */\n      swap2\n      pop\n        /* \"#utility.yul\":37674:37677   */\n      dup2\n        /* \"#utility.yul\":37667:37677   */\n      swap1\n      pop\n        /* \"#utility.yul\":37304:37683   */\n      swap2\n      swap1\n      pop\n      jump\t// out\n        /* \"#utility.yul\":37689:37858   */\n    tag_374:\n        /* \"#utility.yul\":37829:37850   */\n      0x455448207472616e73666572206661696c656400000000000000000000000000\n        /* \"#utility.yul\":37825:37826   */\n      0x00\n        /* \"#utility.yul\":37817:37823   */\n      dup3\n        /* \"#utility.yul\":37813:37827   */\n      add\n        /* \"#utility.yul\":37806:37851   */\n      mstore\n        /* \"#utility.yul\":37689:37858   */\n      pop\n      jump\t// out\n        /* \"#utility.yul\":37864:38230   */\n    tag_375:\n        /* \"#utility.yul\":38006:38009   */\n      0x00\n        /* \"#utility.yul\":38027:38094   */\n      tag_730\n        /* \"#utility.yul\":38091:38093   */\n      0x13\n        /* \"#utility.yul\":38086:38089   */\n      dup4\n        /* \"#utility.yul\":38027:38094   */\n      tag_328\n      jump\t// in\n    tag_730:\n        /* \"#utility.yul\":38020:38094   */\n      swap2\n      pop\n        /* \"#utility.yul\":38103:38196   */\n      tag_731\n        /* \"#utility.yul\":38192:38195   */\n      dup3\n        /* \"#utility.yul\":38103:38196   */\n      tag_374\n      jump\t// in\n    tag_731:\n        /* \"#utility.yul\":38221:38223   */\n      0x20\n        /* \"#utility.yul\":38216:38219   */\n      dup3\n        /* \"#utility.yul\":38212:38224   */\n      add\n        /* \"#utility.yul\":38205:38224   */\n      swap1\n      pop\n        /* \"#utility.yul\":37864:38230   */\n      swap2\n      swap1\n      pop\n      jump\t// out\n        /* \"#utility.yul\":38236:38655   */\n    tag_228:\n        /* \"#utility.yul\":38402:38406   */\n      0x00\n        /* \"#utility.yul\":38440:38442   */\n      0x20\n        /* \"#utility.yul\":38429:38438   */\n      dup3\n        /* \"#utility.yul\":38425:38443   */\n      add\n        /* \"#utility.yul\":38417:38443   */\n      swap1\n      pop\n        /* \"#utility.yul\":38489:38498   */\n      dup2\n        /* \"#utility.yul\":38483:38487   */\n      dup2\n        /* \"#utility.yul\":38479:38499   */\n      sub\n        /* \"#utility.yul\":38475:38476   */\n      0x00\n        /* \"#utility.yul\":38464:38473   */\n      dup4\n        /* \"#utility.yul\":38460:38477   */\n      add\n        /* \"#utility.yul\":38453:38500   */\n      mstore\n        /* \"#utility.yul\":38517:38648   */\n      tag_733\n        /* \"#utility.yul\":38643:38647   */\n      dup2\n        /* \"#utility.yul\":38517:38648   */\n      tag_375\n      jump\t// in\n    tag_733:\n        /* \"#utility.yul\":38509:38648   */\n      swap1\n      pop\n        /* \"#utility.yul\":38236:38655   */\n      swap2\n      swap1\n      pop\n      jump\t// out\n        /* \"#utility.yul\":38661:38899   */\n    tag_376:\n        /* \"#utility.yul\":38801:38835   */\n      0x45544820746f2061646420746f206c6f636b206d75737420626520616e20616d\n        /* \"#utility.yul\":38797:38798   */\n      0x00\n        /* \"#utility.yul\":38789:38795   */\n      dup3\n        /* \"#utility.yul\":38785:38799   */\n      add\n        /* \"#utility.yul\":38778:38836   */\n      mstore\n        /* \"#utility.yul\":38870:38891   */\n      0x6f756e742067726561746572207468616e203000000000000000000000000000\n        /* \"#utility.yul\":38865:38867   */\n      0x20\n        /* \"#utility.yul\":38857:38863   */\n      dup3\n        /* \"#utility.yul\":38853:38868   */\n      add\n        /* \"#utility.yul\":38846:38892   */\n      mstore\n        /* \"#utility.yul\":38661:38899   */\n      pop\n      jump\t// out\n        /* \"#utility.yul\":38905:39271   */\n    tag_377:\n        /* \"#utility.yul\":39047:39050   */\n      0x00\n        /* \"#utility.yul\":39068:39135   */\n      tag_736\n        /* \"#utility.yul\":39132:39134   */\n      0x33\n        /* \"#utility.yul\":39127:39130   */\n      dup4\n        /* \"#utility.yul\":39068:39135   */\n      tag_328\n      jump\t// in\n    tag_736:\n        /* \"#utility.yul\":39061:39135   */\n      swap2\n      pop\n        /* \"#utility.yul\":39144:39237   */\n      tag_737\n        /* \"#utility.yul\":39233:39236   */\n      dup3\n        /* \"#utility.yul\":39144:39237   */\n      tag_376\n      jump\t// in\n    tag_737:\n        /* \"#utility.yul\":39262:39264   */\n      0x40\n        /* \"#utility.yul\":39257:39260   */\n      dup3\n        /* \"#utility.yul\":39253:39265   */\n      add\n        /* \"#utility.yul\":39246:39265   */\n      swap1\n      pop\n        /* \"#utility.yul\":38905:39271   */\n      swap2\n      swap1\n      pop\n      jump\t// out\n        /* \"#utility.yul\":39277:39696   */\n    tag_239:\n        /* \"#utility.yul\":39443:39447   */\n      0x00\n        /* \"#utility.yul\":39481:39483   */\n      0x20\n        /* \"#utility.yul\":39470:39479   */\n      dup3\n        /* \"#utility.yul\":39466:39484   */\n      add\n        /* \"#utility.yul\":39458:39484   */\n      swap1\n      pop\n        /* \"#utility.yul\":39530:39539   */\n      dup2\n        /* \"#utility.yul\":39524:39528   */\n      dup2\n        /* \"#utility.yul\":39520:39540   */\n      sub\n        /* \"#utility.yul\":39516:39517   */\n      0x00\n        /* \"#utility.yul\":39505:39514   */\n      dup4\n        /* \"#utility.yul\":39501:39518   */\n      add\n        /* \"#utility.yul\":39494:39541   */\n      mstore\n        /* \"#utility.yul\":39558:39689   */\n      tag_739\n        /* \"#utility.yul\":39684:39688   */\n      dup2\n        /* \"#utility.yul\":39558:39689   */\n      tag_377\n      jump\t// in\n    tag_739:\n        /* \"#utility.yul\":39550:39689   */\n      swap1\n      pop\n        /* \"#utility.yul\":39277:39696   */\n      swap2\n      swap1\n      pop\n      jump\t// out\n        /* \"#utility.yul\":39702:40144   */\n    tag_260:\n        /* \"#utility.yul\":39851:39855   */\n      0x00\n        /* \"#utility.yul\":39889:39891   */\n      0x60\n        /* \"#utility.yul\":39878:39887   */\n      dup3\n        /* \"#utility.yul\":39874:39892   */\n      add\n        /* \"#utility.yul\":39866:39892   */\n      swap1\n      pop\n        /* \"#utility.yul\":39902:39973   */\n      tag_741\n        /* \"#utility.yul\":39970:39971   */\n      0x00\n        /* \"#utility.yul\":39959:39968   */\n      dup4\n        /* \"#utility.yul\":39955:39972   */\n      add\n        /* \"#utility.yul\":39946:39952   */\n      dup7\n        /* \"#utility.yul\":39902:39973   */\n      tag_325\n      jump\t// in\n    tag_741:\n        /* \"#utility.yul\":39983:40055   */\n      tag_742\n        /* \"#utility.yul\":40051:40053   */\n      0x20\n        /* \"#utility.yul\":40040:40049   */\n      dup4\n        /* \"#utility.yul\":40036:40054   */\n      add\n        /* \"#utility.yul\":40027:40033   */\n      dup6\n        /* \"#utility.yul\":39983:40055   */\n      tag_325\n      jump\t// in\n    tag_742:\n        /* \"#utility.yul\":40065:40137   */\n      tag_743\n        /* \"#utility.yul\":40133:40135   */\n      0x40\n        /* \"#utility.yul\":40122:40131   */\n      dup4\n        /* \"#utility.yul\":40118:40136   */\n      add\n        /* \"#utility.yul\":40109:40115   */\n      dup5\n        /* \"#utility.yul\":40065:40137   */\n      tag_306\n      jump\t// in\n    tag_743:\n        /* \"#utility.yul\":39702:40144   */\n      swap5\n      swap4\n      pop\n      pop\n      pop\n      pop\n      jump\t// out\n        /* \"#utility.yul\":40150:40482   */\n    tag_274:\n        /* \"#utility.yul\":40271:40275   */\n      0x00\n        /* \"#utility.yul\":40309:40311   */\n      0x40\n        /* \"#utility.yul\":40298:40307   */\n      dup3\n        /* \"#utility.yul\":40294:40312   */\n      add\n        /* \"#utility.yul\":40286:40312   */\n      swap1\n      pop\n        /* \"#utility.yul\":40322:40393   */\n      tag_745\n        /* \"#utility.yul\":40390:40391   */\n      0x00\n        /* \"#utility.yul\":40379:40388   */\n      dup4\n        /* \"#utility.yul\":40375:40392   */\n      add\n        /* \"#utility.yul\":40366:40372   */\n      dup6\n        /* \"#utility.yul\":40322:40393   */\n      tag_325\n      jump\t// in\n    tag_745:\n        /* \"#utility.yul\":40403:40475   */\n      tag_746\n        /* \"#utility.yul\":40471:40473   */\n      0x20\n        /* \"#utility.yul\":40460:40469   */\n      dup4\n        /* \"#utility.yul\":40456:40474   */\n      add\n        /* \"#utility.yul\":40447:40453   */\n      dup5\n        /* \"#utility.yul\":40403:40475   */\n      tag_306\n      jump\t// in\n    tag_746:\n        /* \"#utility.yul\":40150:40482   */\n      swap4\n      swap3\n      pop\n      pop\n      pop\n      jump\t// out\n\n    auxdata: 0xa2646970667358221220364c5331117303cab015721b208b2fca998ad980787016e3347355a964f8871c64736f6c634300081a0033\n}\n",
				"bytecode": {
					"linkReferences": {},
					"object": "608060405234801561000f575f80fd5b50335f73ffffffffffffffffffffffffffffffffffffffff168173ffffffffffffffffffffffffffffffffffffffff1603610081575f6040517f1e4fbdf7000000000000000000000000000000000000000000000000000000008152600401610078919061019d565b60405180910390fd5b6100908161009d60201b60201c565b50600180819055506101b6565b5f805f9054906101000a900473ffffffffffffffffffffffffffffffffffffffff169050815f806101000a81548173ffffffffffffffffffffffffffffffffffffffff021916908373ffffffffffffffffffffffffffffffffffffffff1602179055508173ffffffffffffffffffffffffffffffffffffffff168173ffffffffffffffffffffffffffffffffffffffff167f8be0079c531659141344cd1fd0a4f28419497f9722a3daafe3b4186f6b6457e060405160405180910390a35050565b5f73ffffffffffffffffffffffffffffffffffffffff82169050919050565b5f6101878261015e565b9050919050565b6101978161017d565b82525050565b5f6020820190506101b05f83018461018e565b92915050565b61305a806101c35f395ff3fe6080604052600436106100c1575f3560e01c80638c89a0ad1161007e5780638e06b906116100585780638e06b9061461023b5780639e6c3ff21461027c578063ecaa9d05146102a4578063f2fde38b146102c0576100c1565b80638c89a0ad146101bf5780638da5cb5b146101e95780638de8107b14610213576100c1565b80630f1419b5146100c557806313a2e884146100ed57806314205e28146101095780632d8fefc2146101455780633b958c381461016d578063715018a6146101a9575b5f80fd5b3480156100d0575f80fd5b506100eb60048036038101906100e69190611de2565b6102e8565b005b61010760048036038101906101029190611e75565b6106b7565b005b348015610114575f80fd5b5061012f600480360381019061012a9190611ee1565b61092c565b60405161013c9190611f1b565b60405180910390f35b348015610150575f80fd5b5061016b60048036038101906101669190611f6d565b6109ac565b005b348015610178575f80fd5b50610193600480360381019061018e9190611fd1565b610bfa565b6040516101a091906121d5565b60405180910390f35b3480156101b4575f80fd5b506101bd610dd5565b005b3480156101ca575f80fd5b506101d3610de8565b6040516101e09190611f1b565b60405180910390f35b3480156101f4575f80fd5b506101fd610def565b60405161020a9190612204565b60405180910390f35b34801561021e575f80fd5b506102396004803603810190610234919061221d565b610e16565b005b348015610246575f80fd5b50610261600480360381019061025c9190612297565b61107a565b6040516102739695949392919061233e565b60405180910390f35b348015610287575f80fd5b506102a2600480360381019061029d919061221d565b611195565b005b6102be60048036038101906102b991906123a4565b611652565b005b3480156102cb575f80fd5b506102e660048036038101906102e191906123e2565b611803565b005b6102f0611887565b5f73ffffffffffffffffffffffffffffffffffffffff168573ffffffffffffffffffffffffffffffffffffffff160361035e576040517f08c379a00000000000000000000000000000000000000000000000000000000081526004016103559061247d565b60405180910390fd5b5f84116103a0576040517f08c379a00000000000000000000000000000000000000000000000000000000081526004016103979061250b565b60405180910390fd5b5f82116103e2576040517f08c379a00000000000000000000000000000000000000000000000000000000081526004016103d990612599565b60405180910390fd5b5f8573ffffffffffffffffffffffffffffffffffffffff166370a08231336040518263ffffffff1660e01b815260040161041c9190612204565b602060405180830381865afa158015610437573d5f803e3d5ffd5b505050506040513d601f19601f8201168201806040525081019061045b91906125cb565b9050808511156104a0576040517f08c379a000000000000000000000000000000000000000000000000000000000815260040161049790612640565b60405180910390fd5b6104cd3330878973ffffffffffffffffffffffffffffffffffffffff166118cd909392919063ffffffff16565b60025f3373ffffffffffffffffffffffffffffffffffffffff1673ffffffffffffffffffffffffffffffffffffffff1681526020019081526020015f205f8560ff1660ff1681526020019081526020015f206040518060c001604052808873ffffffffffffffffffffffffffffffffffffffff1681526020018781526020018542610558919061268b565b81526020018481526020015f151581526020015f1515815250908060018154018082558091505060019003905f5260205f2090600502015f909190919091505f820151815f015f6101000a81548173ffffffffffffffffffffffffffffffffffffffff021916908373ffffffffffffffffffffffffffffffffffffffff1602179055506020820151816001015560408201518160020155606082015181600301908161060491906128b8565b506080820151816004015f6101000a81548160ff02191690831515021790555060a08201518160040160016101000a81548160ff02191690831515021790555050508573ffffffffffffffffffffffffffffffffffffffff167fed26bd61b6bf2f43d7471454e53e77ffdc96beefa2f198977936f6d02d34563d868487874261068d919061268b565b4260405161069f959493929190612996565b60405180910390a2506106b061194f565b5050505050565b6106bf611887565b5f3411610701576040517f08c379a00000000000000000000000000000000000000000000000000000000081526004016106f890612a5e565b60405180910390fd5b5f821015610744576040517f08c379a000000000000000000000000000000000000000000000000000000000815260040161073b90612aec565b60405180910390fd5b60025f3373ffffffffffffffffffffffffffffffffffffffff1673ffffffffffffffffffffffffffffffffffffffff1681526020019081526020015f205f8460ff1660ff1681526020019081526020015f206040518060c001604052805f73ffffffffffffffffffffffffffffffffffffffff16815260200134815260200184426107cf919061268b565b81526020018381526020015f1515815260200160011515815250908060018154018082558091505060019003905f5260205f2090600502015f909190919091505f820151815f015f6101000a81548173ffffffffffffffffffffffffffffffffffffffff021916908373ffffffffffffffffffffffffffffffffffffffff1602179055506020820151816001015560408201518160020155606082015181600301908161087c91906128b8565b506080820151816004015f6101000a81548160ff02191690831515021790555060a08201518160040160016101000a81548160ff02191690831515021790555050505f73ffffffffffffffffffffffffffffffffffffffff167fed26bd61b6bf2f43d7471454e53e77ffdc96beefa2f198977936f6d02d34563d3483868642610905919061268b565b42604051610917959493929190612996565b60405180910390a261092761194f565b505050565b5f8173ffffffffffffffffffffffffffffffffffffffff166370a08231306040518263ffffffff1660e01b81526004016109669190612204565b602060405180830381865afa158015610981573d5f803e3d5ffd5b505050506040513d601f19601f820116820180604052508101906109a591906125cb565b9050919050565b6109b4611887565b5f73ffffffffffffffffffffffffffffffffffffffff168473ffffffffffffffffffffffffffffffffffffffff1603610a22576040517f08c379a0000000000000000000000000000000000000000000000000000000008152600401610a199061247d565b60405180910390fd5b5f8211610a64576040517f08c379a0000000000000000000000000000000000000000000000000000000008152600401610a5b9061250b565b60405180910390fd5b610a913330848773ffffffffffffffffffffffffffffffffffffffff166118cd909392919063ffffffff16565b8160025f3373ffffffffffffffffffffffffffffffffffffffff1673ffffffffffffffffffffffffffffffffffffffff1681526020019081526020015f205f8360ff1660ff1681526020019081526020015f208463ffffffff1681548110610afc57610afb612b0a565b5b905f5260205f2090600502016001015f828254610b19919061268b565b925050819055508373ffffffffffffffffffffffffffffffffffffffff167f0b99ce8321b94ffaa5c5021540ec0668dcba948d044760a5ef298fa0513b1ef48360025f3373ffffffffffffffffffffffffffffffffffffffff1673ffffffffffffffffffffffffffffffffffffffff1681526020019081526020015f205f8560ff1660ff1681526020019081526020015f208663ffffffff1681548110610bc357610bc2612b0a565b5b905f5260205f2090600502016003018442604051610be49493929190612bb8565b60405180910390a2610bf461194f565b50505050565b606060025f3373ffffffffffffffffffffffffffffffffffffffff1673ffffffffffffffffffffffffffffffffffffffff1681526020019081526020015f205f8360ff1660ff1681526020019081526020015f20805480602002602001604051908101604052809291908181526020015f905b82821015610dca578382905f5260205f2090600502016040518060c00160405290815f82015f9054906101000a900473ffffffffffffffffffffffffffffffffffffffff1673ffffffffffffffffffffffffffffffffffffffff1673ffffffffffffffffffffffffffffffffffffffff1681526020016001820154815260200160028201548152602001600382018054610d06906126eb565b80601f0160208091040260200160405190810160405280929190818152602001828054610d32906126eb565b8015610d7d5780601f10610d5457610100808354040283529160200191610d7d565b820191905f5260205f20905b815481529060010190602001808311610d6057829003601f168201915b50505050508152602001600482015f9054906101000a900460ff161515151581526020016004820160019054906101000a900460ff16151515158152505081526020019060010190610c6d565b505050509050919050565b610ddd611958565b610de65f6119df565b565b5f47905090565b5f805f9054906101000a900473ffffffffffffffffffffffffffffffffffffffff16905090565b5f60025f3373ffffffffffffffffffffffffffffffffffffffff1673ffffffffffffffffffffffffffffffffffffffff1681526020019081526020015f205f8460ff1660ff1681526020019081526020015f208463ffffffff1681548110610e8157610e80612b0a565b5b905f5260205f209060050201905060025f3373ffffffffffffffffffffffffffffffffffffffff1673ffffffffffffffffffffffffffffffffffffffff1681526020019081526020015f205f8460ff1660ff1681526020019081526020015f20805490508463ffffffff1610610f2c576040517f08c379a0000000000000000000000000000000000000000000000000000000008152600401610f2390612c72565b60405180910390fd5b80600201544211610f72576040517f08c379a0000000000000000000000000000000000000000000000000000000008152600401610f6990612d00565b60405180910390fd5b8142610f7e919061268b565b60025f3373ffffffffffffffffffffffffffffffffffffffff1673ffffffffffffffffffffffffffffffffffffffff1681526020019081526020015f205f8560ff1660ff1681526020019081526020015f208563ffffffff1681548110610fe857610fe7612b0a565b5b905f5260205f20906005020160020181905550805f015f9054906101000a900473ffffffffffffffffffffffffffffffffffffffff1673ffffffffffffffffffffffffffffffffffffffff167f748cb9768ee3f2567793f42a22f5b0c83df9e14d32ec82c9cb839cb1b357be138484846003014260405161106c9493929190612d1e565b60405180910390a250505050565b6002602052825f5260405f20602052815f5260405f20818154811061109d575f80fd5b905f5260205f2090600502015f925092505050805f015f9054906101000a900473ffffffffffffffffffffffffffffffffffffffff16908060010154908060020154908060030180546110ef906126eb565b80601f016020809104026020016040519081016040528092919081815260200182805461111b906126eb565b80156111665780601f1061113d57610100808354040283529160200191611166565b820191905f5260205f20905b81548152906001019060200180831161114957829003601f168201915b505050505090806004015f9054906101000a900460ff16908060040160019054906101000a900460ff16905086565b61119d611887565b60025f3373ffffffffffffffffffffffffffffffffffffffff1673ffffffffffffffffffffffffffffffffffffffff1681526020019081526020015f205f8360ff1660ff1681526020019081526020015f20805490508363ffffffff161061123a576040517f08c379a000000000000000000000000000000000000000000000000000000000815260040161123190612c72565b60405180910390fd5b5f60025f3373ffffffffffffffffffffffffffffffffffffffff1673ffffffffffffffffffffffffffffffffffffffff1681526020019081526020015f205f8460ff1660ff1681526020019081526020015f208463ffffffff16815481106112a5576112a4612b0a565b5b905f5260205f2090600502019050806004015f9054906101000a900460ff1615611304576040517f08c379a00000000000000000000000000000000000000000000000000000000081526004016112fb90612dd8565b60405180910390fd5b8060020154421161134a576040517f08c379a000000000000000000000000000000000000000000000000000000000815260040161134190612d00565b60405180910390fd5b5f82826001015461135b9190612df6565b90505f8110156113a0576040517f08c379a000000000000000000000000000000000000000000000000000000000815260040161139790612e73565b60405180910390fd5b5f810361143957600160025f3373ffffffffffffffffffffffffffffffffffffffff1673ffffffffffffffffffffffffffffffffffffffff1681526020019081526020015f205f8660ff1660ff1681526020019081526020015f208663ffffffff168154811061141357611412612b0a565b5b905f5260205f2090600502016004015f6101000a81548160ff0219169083151502179055505b8060025f3373ffffffffffffffffffffffffffffffffffffffff1673ffffffffffffffffffffffffffffffffffffffff1681526020019081526020015f205f8660ff1660ff1681526020019081526020015f208663ffffffff16815481106114a4576114a3612b0a565b5b905f5260205f209060050201600101819055508160040160019054906101000a900460ff161561157c575f3373ffffffffffffffffffffffffffffffffffffffff16846040516114f390612ebe565b5f6040518083038185875af1925050503d805f811461152d576040519150601f19603f3d011682016040523d82523d5f602084013e611532565b606091505b5050905080611576576040517f08c379a000000000000000000000000000000000000000000000000000000000815260040161156d90612f1c565b60405180910390fd5b506115ca565b6115c93384845f015f9054906101000a900473ffffffffffffffffffffffffffffffffffffffff1673ffffffffffffffffffffffffffffffffffffffff16611aa09092919063ffffffff16565b5b815f015f9054906101000a900473ffffffffffffffffffffffffffffffffffffffff1673ffffffffffffffffffffffffffffffffffffffff167f16c4c024c274b52575ffc17396bbc4a59db7dd13aac28373e025a9f6269f9e038484600301874260405161163b9493929190612bb8565b60405180910390a2505061164d61194f565b505050565b61165a611887565b5f341161169c576040517f08c379a000000000000000000000000000000000000000000000000000000000815260040161169390612faa565b60405180910390fd5b3460025f3373ffffffffffffffffffffffffffffffffffffffff1673ffffffffffffffffffffffffffffffffffffffff1681526020019081526020015f205f8460ff1660ff1681526020019081526020015f208263ffffffff168154811061170757611706612b0a565b5b905f5260205f2090600502016001015f828254611724919061268b565b925050819055505f73ffffffffffffffffffffffffffffffffffffffff167f0b99ce8321b94ffaa5c5021540ec0668dcba948d044760a5ef298fa0513b1ef43460025f3373ffffffffffffffffffffffffffffffffffffffff1673ffffffffffffffffffffffffffffffffffffffff1681526020019081526020015f205f8660ff1660ff1681526020019081526020015f208463ffffffff16815481106117ce576117cd612b0a565b5b905f5260205f20906005020160030185426040516117ef9493929190612bb8565b60405180910390a26117ff61194f565b5050565b61180b611958565b5f73ffffffffffffffffffffffffffffffffffffffff168173ffffffffffffffffffffffffffffffffffffffff160361187b575f6040517f1e4fbdf70000000000000000000000000000000000000000000000000000000081526004016118729190612204565b60405180910390fd5b611884816119df565b50565b6002600154036118c3576040517f3ee5aeb500000000000000000000000000000000000000000000000000000000815260040160405180910390fd5b6002600181905550565b611949848573ffffffffffffffffffffffffffffffffffffffff166323b872dd86868660405160240161190293929190612fc8565b604051602081830303815290604052915060e01b6020820180517bffffffffffffffffffffffffffffffffffffffffffffffffffffffff8381831617835250505050611b1f565b50505050565b60018081905550565b611960611bba565b73ffffffffffffffffffffffffffffffffffffffff1661197e610def565b73ffffffffffffffffffffffffffffffffffffffff16146119dd576119a1611bba565b6040517f118cdaa70000000000000000000000000000000000000000000000000000000081526004016119d49190612204565b60405180910390fd5b565b5f805f9054906101000a900473ffffffffffffffffffffffffffffffffffffffff169050815f806101000a81548173ffffffffffffffffffffffffffffffffffffffff021916908373ffffffffffffffffffffffffffffffffffffffff1602179055508173ffffffffffffffffffffffffffffffffffffffff168173ffffffffffffffffffffffffffffffffffffffff167f8be0079c531659141344cd1fd0a4f28419497f9722a3daafe3b4186f6b6457e060405160405180910390a35050565b611b1a838473ffffffffffffffffffffffffffffffffffffffff1663a9059cbb8585604051602401611ad3929190612ffd565b604051602081830303815290604052915060e01b6020820180517bffffffffffffffffffffffffffffffffffffffffffffffffffffffff8381831617835250505050611b1f565b505050565b5f8060205f8451602086015f885af180611b3e576040513d5f823e3d81fd5b3d92505f519150505f8214611b57576001811415611b72565b5f8473ffffffffffffffffffffffffffffffffffffffff163b145b15611bb457836040517f5274afe7000000000000000000000000000000000000000000000000000000008152600401611bab9190612204565b60405180910390fd5b50505050565b5f33905090565b5f604051905090565b5f80fd5b5f80fd5b5f73ffffffffffffffffffffffffffffffffffffffff82169050919050565b5f611bfb82611bd2565b9050919050565b5f611c0c82611bf1565b9050919050565b611c1c81611c02565b8114611c26575f80fd5b50565b5f81359050611c3781611c13565b92915050565b5f819050919050565b611c4f81611c3d565b8114611c59575f80fd5b50565b5f81359050611c6a81611c46565b92915050565b5f60ff82169050919050565b611c8581611c70565b8114611c8f575f80fd5b50565b5f81359050611ca081611c7c565b92915050565b5f80fd5b5f80fd5b5f601f19601f8301169050919050565b7f4e487b71000000000000000000000000000000000000000000000000000000005f52604160045260245ffd5b611cf482611cae565b810181811067ffffffffffffffff82111715611d1357611d12611cbe565b5b80604052505050565b5f611d25611bc1565b9050611d318282611ceb565b919050565b5f67ffffffffffffffff821115611d5057611d4f611cbe565b5b611d5982611cae565b9050602081019050919050565b828183375f83830152505050565b5f611d86611d8184611d36565b611d1c565b905082815260208101848484011115611da257611da1611caa565b5b611dad848285611d66565b509392505050565b5f82601f830112611dc957611dc8611ca6565b5b8135611dd9848260208601611d74565b91505092915050565b5f805f805f60a08688031215611dfb57611dfa611bca565b5b5f611e0888828901611c29565b9550506020611e1988828901611c5c565b9450506040611e2a88828901611c92565b9350506060611e3b88828901611c5c565b925050608086013567ffffffffffffffff811115611e5c57611e5b611bce565b5b611e6888828901611db5565b9150509295509295909350565b5f805f60608486031215611e8c57611e8b611bca565b5b5f611e9986828701611c92565b9350506020611eaa86828701611c5c565b925050604084013567ffffffffffffffff811115611ecb57611eca611bce565b5b611ed786828701611db5565b9150509250925092565b5f60208284031215611ef657611ef5611bca565b5b5f611f0384828501611c29565b91505092915050565b611f1581611c3d565b82525050565b5f602082019050611f2e5f830184611f0c565b92915050565b5f63ffffffff82169050919050565b611f4c81611f34565b8114611f56575f80fd5b50565b5f81359050611f6781611f43565b92915050565b5f805f8060808587031215611f8557611f84611bca565b5b5f611f9287828801611c29565b9450506020611fa387828801611f59565b9350506040611fb487828801611c5c565b9250506060611fc587828801611c92565b91505092959194509250565b5f60208284031215611fe657611fe5611bca565b5b5f611ff384828501611c92565b91505092915050565b5f81519050919050565b5f82825260208201905092915050565b5f819050602082019050919050565b61202e81611bf1565b82525050565b61203d81611c3d565b82525050565b5f81519050919050565b5f82825260208201905092915050565b8281835e5f83830152505050565b5f61207582612043565b61207f818561204d565b935061208f81856020860161205d565b61209881611cae565b840191505092915050565b5f8115159050919050565b6120b7816120a3565b82525050565b5f60c083015f8301516120d25f860182612025565b5060208301516120e56020860182612034565b5060408301516120f86040860182612034565b5060608301518482036060860152612110828261206b565b915050608083015161212560808601826120ae565b5060a083015161213860a08601826120ae565b508091505092915050565b5f61214e83836120bd565b905092915050565b5f602082019050919050565b5f61216c82611ffc565b6121768185612006565b93508360208202850161218885612016565b805f5b858110156121c357848403895281516121a48582612143565b94506121af83612156565b925060208a0199505060018101905061218b565b50829750879550505050505092915050565b5f6020820190508181035f8301526121ed8184612162565b905092915050565b6121fe81611bf1565b82525050565b5f6020820190506122175f8301846121f5565b92915050565b5f805f6060848603121561223457612233611bca565b5b5f61224186828701611f59565b935050602061225286828701611c92565b925050604061226386828701611c5c565b9150509250925092565b61227681611bf1565b8114612280575f80fd5b50565b5f813590506122918161226d565b92915050565b5f805f606084860312156122ae576122ad611bca565b5b5f6122bb86828701612283565b93505060206122cc86828701611c92565b92505060406122dd86828701611c5c565b9150509250925092565b5f82825260208201905092915050565b5f61230182612043565b61230b81856122e7565b935061231b81856020860161205d565b61232481611cae565b840191505092915050565b612338816120a3565b82525050565b5f60c0820190506123515f8301896121f5565b61235e6020830188611f0c565b61236b6040830187611f0c565b818103606083015261237d81866122f7565b905061238c608083018561232f565b61239960a083018461232f565b979650505050505050565b5f80604083850312156123ba576123b9611bca565b5b5f6123c785828601611c92565b92505060206123d885828601611f59565b9150509250929050565b5f602082840312156123f7576123f6611bca565b5b5f61240484828501612283565b91505092915050565b7f4d7573742070726f7669646520612076616c696420746f6b656e2061646472655f8201527f7373000000000000000000000000000000000000000000000000000000000000602082015250565b5f6124676022836122e7565b91506124728261240d565b604082019050919050565b5f6020820190508181035f8301526124948161245b565b9050919050565b7f546f6b656e20616d6f756e74206d7573742062652067726561746572207468655f8201527f6e207a65726f0000000000000000000000000000000000000000000000000000602082015250565b5f6124f56026836122e7565b91506125008261249b565b604082019050919050565b5f6020820190508181035f830152612522816124e9565b9050919050565b7f546865206c6f636b20706572696f64206d7573742062652067726561746572205f8201527f7468656e207a65726f0000000000000000000000000000000000000000000000602082015250565b5f6125836029836122e7565b915061258e82612529565b604082019050919050565b5f6020820190508181035f8301526125b081612577565b9050919050565b5f815190506125c581611c46565b92915050565b5f602082840312156125e0576125df611bca565b5b5f6125ed848285016125b7565b91505092915050565b7f4e6f7420656e6f75676820746f6b656e7320746f206c6f636b000000000000005f82015250565b5f61262a6019836122e7565b9150612635826125f6565b602082019050919050565b5f6020820190508181035f8301526126578161261e565b9050919050565b7f4e487b71000000000000000000000000000000000000000000000000000000005f52601160045260245ffd5b5f61269582611c3d565b91506126a083611c3d565b92508282019050808211156126b8576126b761265e565b5b92915050565b7f4e487b71000000000000000000000000000000000000000000000000000000005f52602260045260245ffd5b5f600282049050600182168061270257607f821691505b602082108103612715576127146126be565b5b50919050565b5f819050815f5260205f209050919050565b5f6020601f8301049050919050565b5f82821b905092915050565b5f600883026127777fffffffffffffffffffffffffffffffffffffffffffffffffffffffffffffffff8261273c565b612781868361273c565b95508019841693508086168417925050509392505050565b5f819050919050565b5f6127bc6127b76127b284611c3d565b612799565b611c3d565b9050919050565b5f819050919050565b6127d5836127a2565b6127e96127e1826127c3565b848454612748565b825550505050565b5f90565b6127fd6127f1565b6128088184846127cc565b505050565b5b8181101561282b576128205f826127f5565b60018101905061280e565b5050565b601f821115612870576128418161271b565b61284a8461272d565b81016020851015612859578190505b61286d6128658561272d565b83018261280d565b50505b505050565b5f82821c905092915050565b5f6128905f1984600802612875565b1980831691505092915050565b5f6128a88383612881565b9150826002028217905092915050565b6128c182612043565b67ffffffffffffffff8111156128da576128d9611cbe565b5b6128e482546126eb565b6128ef82828561282f565b5f60209050601f831160018114612920575f841561290e578287015190505b612918858261289d565b86555061297f565b601f19841661292e8661271b565b5f5b8281101561295557848901518255600182019150602085019450602081019050612930565b86831015612972578489015161296e601f891682612881565b8355505b6001600288020188555050505b505050505050565b61299081611c70565b82525050565b5f60a0820190506129a95f830188611f0c565b81810360208301526129bb81876122f7565b90506129ca6040830186612987565b6129d76060830185611f0c565b6129e46080830184611f0c565b9695505050505050565b7f45544820746f206c6f636b206d75737420612076616c756520677265617465725f8201527f207468616e203000000000000000000000000000000000000000000000000000602082015250565b5f612a486027836122e7565b9150612a53826129ee565b604082019050919050565b5f6020820190508181035f830152612a7581612a3c565b9050919050565b7f546865206c6f636b706572696f64206d757374206265206772656174657220745f8201527f68656e207a65726f000000000000000000000000000000000000000000000000602082015250565b5f612ad66028836122e7565b9150612ae182612a7c565b604082019050919050565b5f6020820190508181035f830152612b0381612aca565b9050919050565b7f4e487b71000000000000000000000000000000000000000000000000000000005f52603260045260245ffd5b5f8154612b43816126eb565b612b4d81866122e7565b9450600182165f8114612b675760018114612b7d57612baf565b60ff198316865281151560200286019350612baf565b612b868561271b565b5f5b83811015612ba757815481890152600182019150602081019050612b88565b808801955050505b50505092915050565b5f608082019050612bcb5f830187611f0c565b8181036020830152612bdd8186612b37565b9050612bec6040830185612987565b612bf96060830184611f0c565b95945050505050565b7f5468652073706563696669656420617373657420494420697320696e76616c695f8201527f642e000000000000000000000000000000000000000000000000000000000000602082015250565b5f612c5c6022836122e7565b9150612c6782612c02565b604082019050919050565b5f6020820190508181035f830152612c8981612c50565b9050919050565b7f546865206c6f636b20706572696f6420686173206e6f742079657420657870695f8201527f7265642100000000000000000000000000000000000000000000000000000000602082015250565b5f612cea6024836122e7565b9150612cf582612c90565b604082019050919050565b5f6020820190508181035f830152612d1781612cde565b9050919050565b5f608082019050612d315f830187612987565b612d3e6020830186611f0c565b8181036040830152612d508185612b37565b9050612d5f6060830184611f0c565b95945050505050565b7f417373657473206861766520616c7265616479206265656e20776974686472615f8201527f776e210000000000000000000000000000000000000000000000000000000000602082015250565b5f612dc26023836122e7565b9150612dcd82612d68565b604082019050919050565b5f6020820190508181035f830152612def81612db6565b9050919050565b5f612e0082611c3d565b9150612e0b83611c3d565b9250828203905081811115612e2357612e2261265e565b5b92915050565b7f4e6f7420656e6f7567682061737365747320746f2077697468647261772100005f82015250565b5f612e5d601e836122e7565b9150612e6882612e29565b602082019050919050565b5f6020820190508181035f830152612e8a81612e51565b9050919050565b5f81905092915050565b50565b5f612ea95f83612e91565b9150612eb482612e9b565b5f82019050919050565b5f612ec882612e9e565b9150819050919050565b7f455448207472616e73666572206661696c6564000000000000000000000000005f82015250565b5f612f066013836122e7565b9150612f1182612ed2565b602082019050919050565b5f6020820190508181035f830152612f3381612efa565b9050919050565b7f45544820746f2061646420746f206c6f636b206d75737420626520616e20616d5f8201527f6f756e742067726561746572207468616e203000000000000000000000000000602082015250565b5f612f946033836122e7565b9150612f9f82612f3a565b604082019050919050565b5f6020820190508181035f830152612fc181612f88565b9050919050565b5f606082019050612fdb5f8301866121f5565b612fe860208301856121f5565b612ff56040830184611f0c565b949350505050565b5f6040820190506130105f8301856121f5565b61301d6020830184611f0c565b939250505056fea2646970667358221220364c5331117303cab015721b208b2fca998ad980787016e3347355a964f8871c64736f6c634300081a0033",
					"opcodes": "PUSH1 0x80 PUSH1 0x40 MSTORE CALLVALUE DUP1 ISZERO PUSH2 0xF JUMPI PUSH0 DUP1 REVERT JUMPDEST POP CALLER PUSH0 PUSH20 0xFFFFFFFFFFFFFFFFFFFFFFFFFFFFFFFFFFFFFFFF AND DUP2 PUSH20 0xFFFFFFFFFFFFFFFFFFFFFFFFFFFFFFFFFFFFFFFF AND SUB PUSH2 0x81 JUMPI PUSH0 PUSH1 0x40 MLOAD PUSH32 0x1E4FBDF700000000000000000000000000000000000000000000000000000000 DUP2 MSTORE PUSH1 0x4 ADD PUSH2 0x78 SWAP2 SWAP1 PUSH2 0x19D JUMP JUMPDEST PUSH1 0x40 MLOAD DUP1 SWAP2 SUB SWAP1 REVERT JUMPDEST PUSH2 0x90 DUP2 PUSH2 0x9D PUSH1 0x20 SHL PUSH1 0x20 SHR JUMP JUMPDEST POP PUSH1 0x1 DUP1 DUP2 SWAP1 SSTORE POP PUSH2 0x1B6 JUMP JUMPDEST PUSH0 DUP1 PUSH0 SWAP1 SLOAD SWAP1 PUSH2 0x100 EXP SWAP1 DIV PUSH20 0xFFFFFFFFFFFFFFFFFFFFFFFFFFFFFFFFFFFFFFFF AND SWAP1 POP DUP2 PUSH0 DUP1 PUSH2 0x100 EXP DUP2 SLOAD DUP2 PUSH20 0xFFFFFFFFFFFFFFFFFFFFFFFFFFFFFFFFFFFFFFFF MUL NOT AND SWAP1 DUP4 PUSH20 0xFFFFFFFFFFFFFFFFFFFFFFFFFFFFFFFFFFFFFFFF AND MUL OR SWAP1 SSTORE POP DUP2 PUSH20 0xFFFFFFFFFFFFFFFFFFFFFFFFFFFFFFFFFFFFFFFF AND DUP2 PUSH20 0xFFFFFFFFFFFFFFFFFFFFFFFFFFFFFFFFFFFFFFFF AND PUSH32 0x8BE0079C531659141344CD1FD0A4F28419497F9722A3DAAFE3B4186F6B6457E0 PUSH1 0x40 MLOAD PUSH1 0x40 MLOAD DUP1 SWAP2 SUB SWAP1 LOG3 POP POP JUMP JUMPDEST PUSH0 PUSH20 0xFFFFFFFFFFFFFFFFFFFFFFFFFFFFFFFFFFFFFFFF DUP3 AND SWAP1 POP SWAP2 SWAP1 POP JUMP JUMPDEST PUSH0 PUSH2 0x187 DUP3 PUSH2 0x15E JUMP JUMPDEST SWAP1 POP SWAP2 SWAP1 POP JUMP JUMPDEST PUSH2 0x197 DUP2 PUSH2 0x17D JUMP JUMPDEST DUP3 MSTORE POP POP JUMP JUMPDEST PUSH0 PUSH1 0x20 DUP3 ADD SWAP1 POP PUSH2 0x1B0 PUSH0 DUP4 ADD DUP5 PUSH2 0x18E JUMP JUMPDEST SWAP3 SWAP2 POP POP JUMP JUMPDEST PUSH2 0x305A DUP1 PUSH2 0x1C3 PUSH0 CODECOPY PUSH0 RETURN INVALID PUSH1 0x80 PUSH1 0x40 MSTORE PUSH1 0x4 CALLDATASIZE LT PUSH2 0xC1 JUMPI PUSH0 CALLDATALOAD PUSH1 0xE0 SHR DUP1 PUSH4 0x8C89A0AD GT PUSH2 0x7E JUMPI DUP1 PUSH4 0x8E06B906 GT PUSH2 0x58 JUMPI DUP1 PUSH4 0x8E06B906 EQ PUSH2 0x23B JUMPI DUP1 PUSH4 0x9E6C3FF2 EQ PUSH2 0x27C JUMPI DUP1 PUSH4 0xECAA9D05 EQ PUSH2 0x2A4 JUMPI DUP1 PUSH4 0xF2FDE38B EQ PUSH2 0x2C0 JUMPI PUSH2 0xC1 JUMP JUMPDEST DUP1 PUSH4 0x8C89A0AD EQ PUSH2 0x1BF JUMPI DUP1 PUSH4 0x8DA5CB5B EQ PUSH2 0x1E9 JUMPI DUP1 PUSH4 0x8DE8107B EQ PUSH2 0x213 JUMPI PUSH2 0xC1 JUMP JUMPDEST DUP1 PUSH4 0xF1419B5 EQ PUSH2 0xC5 JUMPI DUP1 PUSH4 0x13A2E884 EQ PUSH2 0xED JUMPI DUP1 PUSH4 0x14205E28 EQ PUSH2 0x109 JUMPI DUP1 PUSH4 0x2D8FEFC2 EQ PUSH2 0x145 JUMPI DUP1 PUSH4 0x3B958C38 EQ PUSH2 0x16D JUMPI DUP1 PUSH4 0x715018A6 EQ PUSH2 0x1A9 JUMPI JUMPDEST PUSH0 DUP1 REVERT JUMPDEST CALLVALUE DUP1 ISZERO PUSH2 0xD0 JUMPI PUSH0 DUP1 REVERT JUMPDEST POP PUSH2 0xEB PUSH1 0x4 DUP1 CALLDATASIZE SUB DUP2 ADD SWAP1 PUSH2 0xE6 SWAP2 SWAP1 PUSH2 0x1DE2 JUMP JUMPDEST PUSH2 0x2E8 JUMP JUMPDEST STOP JUMPDEST PUSH2 0x107 PUSH1 0x4 DUP1 CALLDATASIZE SUB DUP2 ADD SWAP1 PUSH2 0x102 SWAP2 SWAP1 PUSH2 0x1E75 JUMP JUMPDEST PUSH2 0x6B7 JUMP JUMPDEST STOP JUMPDEST CALLVALUE DUP1 ISZERO PUSH2 0x114 JUMPI PUSH0 DUP1 REVERT JUMPDEST POP PUSH2 0x12F PUSH1 0x4 DUP1 CALLDATASIZE SUB DUP2 ADD SWAP1 PUSH2 0x12A SWAP2 SWAP1 PUSH2 0x1EE1 JUMP JUMPDEST PUSH2 0x92C JUMP JUMPDEST PUSH1 0x40 MLOAD PUSH2 0x13C SWAP2 SWAP1 PUSH2 0x1F1B JUMP JUMPDEST PUSH1 0x40 MLOAD DUP1 SWAP2 SUB SWAP1 RETURN JUMPDEST CALLVALUE DUP1 ISZERO PUSH2 0x150 JUMPI PUSH0 DUP1 REVERT JUMPDEST POP PUSH2 0x16B PUSH1 0x4 DUP1 CALLDATASIZE SUB DUP2 ADD SWAP1 PUSH2 0x166 SWAP2 SWAP1 PUSH2 0x1F6D JUMP JUMPDEST PUSH2 0x9AC JUMP JUMPDEST STOP JUMPDEST CALLVALUE DUP1 ISZERO PUSH2 0x178 JUMPI PUSH0 DUP1 REVERT JUMPDEST POP PUSH2 0x193 PUSH1 0x4 DUP1 CALLDATASIZE SUB DUP2 ADD SWAP1 PUSH2 0x18E SWAP2 SWAP1 PUSH2 0x1FD1 JUMP JUMPDEST PUSH2 0xBFA JUMP JUMPDEST PUSH1 0x40 MLOAD PUSH2 0x1A0 SWAP2 SWAP1 PUSH2 0x21D5 JUMP JUMPDEST PUSH1 0x40 MLOAD DUP1 SWAP2 SUB SWAP1 RETURN JUMPDEST CALLVALUE DUP1 ISZERO PUSH2 0x1B4 JUMPI PUSH0 DUP1 REVERT JUMPDEST POP PUSH2 0x1BD PUSH2 0xDD5 JUMP JUMPDEST STOP JUMPDEST CALLVALUE DUP1 ISZERO PUSH2 0x1CA JUMPI PUSH0 DUP1 REVERT JUMPDEST POP PUSH2 0x1D3 PUSH2 0xDE8 JUMP JUMPDEST PUSH1 0x40 MLOAD PUSH2 0x1E0 SWAP2 SWAP1 PUSH2 0x1F1B JUMP JUMPDEST PUSH1 0x40 MLOAD DUP1 SWAP2 SUB SWAP1 RETURN JUMPDEST CALLVALUE DUP1 ISZERO PUSH2 0x1F4 JUMPI PUSH0 DUP1 REVERT JUMPDEST POP PUSH2 0x1FD PUSH2 0xDEF JUMP JUMPDEST PUSH1 0x40 MLOAD PUSH2 0x20A SWAP2 SWAP1 PUSH2 0x2204 JUMP JUMPDEST PUSH1 0x40 MLOAD DUP1 SWAP2 SUB SWAP1 RETURN JUMPDEST CALLVALUE DUP1 ISZERO PUSH2 0x21E JUMPI PUSH0 DUP1 REVERT JUMPDEST POP PUSH2 0x239 PUSH1 0x4 DUP1 CALLDATASIZE SUB DUP2 ADD SWAP1 PUSH2 0x234 SWAP2 SWAP1 PUSH2 0x221D JUMP JUMPDEST PUSH2 0xE16 JUMP JUMPDEST STOP JUMPDEST CALLVALUE DUP1 ISZERO PUSH2 0x246 JUMPI PUSH0 DUP1 REVERT JUMPDEST POP PUSH2 0x261 PUSH1 0x4 DUP1 CALLDATASIZE SUB DUP2 ADD SWAP1 PUSH2 0x25C SWAP2 SWAP1 PUSH2 0x2297 JUMP JUMPDEST PUSH2 0x107A JUMP JUMPDEST PUSH1 0x40 MLOAD PUSH2 0x273 SWAP7 SWAP6 SWAP5 SWAP4 SWAP3 SWAP2 SWAP1 PUSH2 0x233E JUMP JUMPDEST PUSH1 0x40 MLOAD DUP1 SWAP2 SUB SWAP1 RETURN JUMPDEST CALLVALUE DUP1 ISZERO PUSH2 0x287 JUMPI PUSH0 DUP1 REVERT JUMPDEST POP PUSH2 0x2A2 PUSH1 0x4 DUP1 CALLDATASIZE SUB DUP2 ADD SWAP1 PUSH2 0x29D SWAP2 SWAP1 PUSH2 0x221D JUMP JUMPDEST PUSH2 0x1195 JUMP JUMPDEST STOP JUMPDEST PUSH2 0x2BE PUSH1 0x4 DUP1 CALLDATASIZE SUB DUP2 ADD SWAP1 PUSH2 0x2B9 SWAP2 SWAP1 PUSH2 0x23A4 JUMP JUMPDEST PUSH2 0x1652 JUMP JUMPDEST STOP JUMPDEST CALLVALUE DUP1 ISZERO PUSH2 0x2CB JUMPI PUSH0 DUP1 REVERT JUMPDEST POP PUSH2 0x2E6 PUSH1 0x4 DUP1 CALLDATASIZE SUB DUP2 ADD SWAP1 PUSH2 0x2E1 SWAP2 SWAP1 PUSH2 0x23E2 JUMP JUMPDEST PUSH2 0x1803 JUMP JUMPDEST STOP JUMPDEST PUSH2 0x2F0 PUSH2 0x1887 JUMP JUMPDEST PUSH0 PUSH20 0xFFFFFFFFFFFFFFFFFFFFFFFFFFFFFFFFFFFFFFFF AND DUP6 PUSH20 0xFFFFFFFFFFFFFFFFFFFFFFFFFFFFFFFFFFFFFFFF AND SUB PUSH2 0x35E JUMPI PUSH1 0x40 MLOAD PUSH32 0x8C379A000000000000000000000000000000000000000000000000000000000 DUP2 MSTORE PUSH1 0x4 ADD PUSH2 0x355 SWAP1 PUSH2 0x247D JUMP JUMPDEST PUSH1 0x40 MLOAD DUP1 SWAP2 SUB SWAP1 REVERT JUMPDEST PUSH0 DUP5 GT PUSH2 0x3A0 JUMPI PUSH1 0x40 MLOAD PUSH32 0x8C379A000000000000000000000000000000000000000000000000000000000 DUP2 MSTORE PUSH1 0x4 ADD PUSH2 0x397 SWAP1 PUSH2 0x250B JUMP JUMPDEST PUSH1 0x40 MLOAD DUP1 SWAP2 SUB SWAP1 REVERT JUMPDEST PUSH0 DUP3 GT PUSH2 0x3E2 JUMPI PUSH1 0x40 MLOAD PUSH32 0x8C379A000000000000000000000000000000000000000000000000000000000 DUP2 MSTORE PUSH1 0x4 ADD PUSH2 0x3D9 SWAP1 PUSH2 0x2599 JUMP JUMPDEST PUSH1 0x40 MLOAD DUP1 SWAP2 SUB SWAP1 REVERT JUMPDEST PUSH0 DUP6 PUSH20 0xFFFFFFFFFFFFFFFFFFFFFFFFFFFFFFFFFFFFFFFF AND PUSH4 0x70A08231 CALLER PUSH1 0x40 MLOAD DUP3 PUSH4 0xFFFFFFFF AND PUSH1 0xE0 SHL DUP2 MSTORE PUSH1 0x4 ADD PUSH2 0x41C SWAP2 SWAP1 PUSH2 0x2204 JUMP JUMPDEST PUSH1 0x20 PUSH1 0x40 MLOAD DUP1 DUP4 SUB DUP2 DUP7 GAS STATICCALL ISZERO DUP1 ISZERO PUSH2 0x437 JUMPI RETURNDATASIZE PUSH0 DUP1 RETURNDATACOPY RETURNDATASIZE PUSH0 REVERT JUMPDEST POP POP POP POP PUSH1 0x40 MLOAD RETURNDATASIZE PUSH1 0x1F NOT PUSH1 0x1F DUP3 ADD AND DUP3 ADD DUP1 PUSH1 0x40 MSTORE POP DUP2 ADD SWAP1 PUSH2 0x45B SWAP2 SWAP1 PUSH2 0x25CB JUMP JUMPDEST SWAP1 POP DUP1 DUP6 GT ISZERO PUSH2 0x4A0 JUMPI PUSH1 0x40 MLOAD PUSH32 0x8C379A000000000000000000000000000000000000000000000000000000000 DUP2 MSTORE PUSH1 0x4 ADD PUSH2 0x497 SWAP1 PUSH2 0x2640 JUMP JUMPDEST PUSH1 0x40 MLOAD DUP1 SWAP2 SUB SWAP1 REVERT JUMPDEST PUSH2 0x4CD CALLER ADDRESS DUP8 DUP10 PUSH20 0xFFFFFFFFFFFFFFFFFFFFFFFFFFFFFFFFFFFFFFFF AND PUSH2 0x18CD SWAP1 SWAP4 SWAP3 SWAP2 SWAP1 PUSH4 0xFFFFFFFF AND JUMP JUMPDEST PUSH1 0x2 PUSH0 CALLER PUSH20 0xFFFFFFFFFFFFFFFFFFFFFFFFFFFFFFFFFFFFFFFF AND PUSH20 0xFFFFFFFFFFFFFFFFFFFFFFFFFFFFFFFFFFFFFFFF AND DUP2 MSTORE PUSH1 0x20 ADD SWAP1 DUP2 MSTORE PUSH1 0x20 ADD PUSH0 KECCAK256 PUSH0 DUP6 PUSH1 0xFF AND PUSH1 0xFF AND DUP2 MSTORE PUSH1 0x20 ADD SWAP1 DUP2 MSTORE PUSH1 0x20 ADD PUSH0 KECCAK256 PUSH1 0x40 MLOAD DUP1 PUSH1 0xC0 ADD PUSH1 0x40 MSTORE DUP1 DUP9 PUSH20 0xFFFFFFFFFFFFFFFFFFFFFFFFFFFFFFFFFFFFFFFF AND DUP2 MSTORE PUSH1 0x20 ADD DUP8 DUP2 MSTORE PUSH1 0x20 ADD DUP6 TIMESTAMP PUSH2 0x558 SWAP2 SWAP1 PUSH2 0x268B JUMP JUMPDEST DUP2 MSTORE PUSH1 0x20 ADD DUP5 DUP2 MSTORE PUSH1 0x20 ADD PUSH0 ISZERO ISZERO DUP2 MSTORE PUSH1 0x20 ADD PUSH0 ISZERO ISZERO DUP2 MSTORE POP SWAP1 DUP1 PUSH1 0x1 DUP2 SLOAD ADD DUP1 DUP3 SSTORE DUP1 SWAP2 POP POP PUSH1 0x1 SWAP1 SUB SWAP1 PUSH0 MSTORE PUSH1 0x20 PUSH0 KECCAK256 SWAP1 PUSH1 0x5 MUL ADD PUSH0 SWAP1 SWAP2 SWAP1 SWAP2 SWAP1 SWAP2 POP PUSH0 DUP3 ADD MLOAD DUP2 PUSH0 ADD PUSH0 PUSH2 0x100 EXP DUP2 SLOAD DUP2 PUSH20 0xFFFFFFFFFFFFFFFFFFFFFFFFFFFFFFFFFFFFFFFF MUL NOT AND SWAP1 DUP4 PUSH20 0xFFFFFFFFFFFFFFFFFFFFFFFFFFFFFFFFFFFFFFFF AND MUL OR SWAP1 SSTORE POP PUSH1 0x20 DUP3 ADD MLOAD DUP2 PUSH1 0x1 ADD SSTORE PUSH1 0x40 DUP3 ADD MLOAD DUP2 PUSH1 0x2 ADD SSTORE PUSH1 0x60 DUP3 ADD MLOAD DUP2 PUSH1 0x3 ADD SWAP1 DUP2 PUSH2 0x604 SWAP2 SWAP1 PUSH2 0x28B8 JUMP JUMPDEST POP PUSH1 0x80 DUP3 ADD MLOAD DUP2 PUSH1 0x4 ADD PUSH0 PUSH2 0x100 EXP DUP2 SLOAD DUP2 PUSH1 0xFF MUL NOT AND SWAP1 DUP4 ISZERO ISZERO MUL OR SWAP1 SSTORE POP PUSH1 0xA0 DUP3 ADD MLOAD DUP2 PUSH1 0x4 ADD PUSH1 0x1 PUSH2 0x100 EXP DUP2 SLOAD DUP2 PUSH1 0xFF MUL NOT AND SWAP1 DUP4 ISZERO ISZERO MUL OR SWAP1 SSTORE POP POP POP DUP6 PUSH20 0xFFFFFFFFFFFFFFFFFFFFFFFFFFFFFFFFFFFFFFFF AND PUSH32 0xED26BD61B6BF2F43D7471454E53E77FFDC96BEEFA2F198977936F6D02D34563D DUP7 DUP5 DUP8 DUP8 TIMESTAMP PUSH2 0x68D SWAP2 SWAP1 PUSH2 0x268B JUMP JUMPDEST TIMESTAMP PUSH1 0x40 MLOAD PUSH2 0x69F SWAP6 SWAP5 SWAP4 SWAP3 SWAP2 SWAP1 PUSH2 0x2996 JUMP JUMPDEST PUSH1 0x40 MLOAD DUP1 SWAP2 SUB SWAP1 LOG2 POP PUSH2 0x6B0 PUSH2 0x194F JUMP JUMPDEST POP POP POP POP POP JUMP JUMPDEST PUSH2 0x6BF PUSH2 0x1887 JUMP JUMPDEST PUSH0 CALLVALUE GT PUSH2 0x701 JUMPI PUSH1 0x40 MLOAD PUSH32 0x8C379A000000000000000000000000000000000000000000000000000000000 DUP2 MSTORE PUSH1 0x4 ADD PUSH2 0x6F8 SWAP1 PUSH2 0x2A5E JUMP JUMPDEST PUSH1 0x40 MLOAD DUP1 SWAP2 SUB SWAP1 REVERT JUMPDEST PUSH0 DUP3 LT ISZERO PUSH2 0x744 JUMPI PUSH1 0x40 MLOAD PUSH32 0x8C379A000000000000000000000000000000000000000000000000000000000 DUP2 MSTORE PUSH1 0x4 ADD PUSH2 0x73B SWAP1 PUSH2 0x2AEC JUMP JUMPDEST PUSH1 0x40 MLOAD DUP1 SWAP2 SUB SWAP1 REVERT JUMPDEST PUSH1 0x2 PUSH0 CALLER PUSH20 0xFFFFFFFFFFFFFFFFFFFFFFFFFFFFFFFFFFFFFFFF AND PUSH20 0xFFFFFFFFFFFFFFFFFFFFFFFFFFFFFFFFFFFFFFFF AND DUP2 MSTORE PUSH1 0x20 ADD SWAP1 DUP2 MSTORE PUSH1 0x20 ADD PUSH0 KECCAK256 PUSH0 DUP5 PUSH1 0xFF AND PUSH1 0xFF AND DUP2 MSTORE PUSH1 0x20 ADD SWAP1 DUP2 MSTORE PUSH1 0x20 ADD PUSH0 KECCAK256 PUSH1 0x40 MLOAD DUP1 PUSH1 0xC0 ADD PUSH1 0x40 MSTORE DUP1 PUSH0 PUSH20 0xFFFFFFFFFFFFFFFFFFFFFFFFFFFFFFFFFFFFFFFF AND DUP2 MSTORE PUSH1 0x20 ADD CALLVALUE DUP2 MSTORE PUSH1 0x20 ADD DUP5 TIMESTAMP PUSH2 0x7CF SWAP2 SWAP1 PUSH2 0x268B JUMP JUMPDEST DUP2 MSTORE PUSH1 0x20 ADD DUP4 DUP2 MSTORE PUSH1 0x20 ADD PUSH0 ISZERO ISZERO DUP2 MSTORE PUSH1 0x20 ADD PUSH1 0x1 ISZERO ISZERO DUP2 MSTORE POP SWAP1 DUP1 PUSH1 0x1 DUP2 SLOAD ADD DUP1 DUP3 SSTORE DUP1 SWAP2 POP POP PUSH1 0x1 SWAP1 SUB SWAP1 PUSH0 MSTORE PUSH1 0x20 PUSH0 KECCAK256 SWAP1 PUSH1 0x5 MUL ADD PUSH0 SWAP1 SWAP2 SWAP1 SWAP2 SWAP1 SWAP2 POP PUSH0 DUP3 ADD MLOAD DUP2 PUSH0 ADD PUSH0 PUSH2 0x100 EXP DUP2 SLOAD DUP2 PUSH20 0xFFFFFFFFFFFFFFFFFFFFFFFFFFFFFFFFFFFFFFFF MUL NOT AND SWAP1 DUP4 PUSH20 0xFFFFFFFFFFFFFFFFFFFFFFFFFFFFFFFFFFFFFFFF AND MUL OR SWAP1 SSTORE POP PUSH1 0x20 DUP3 ADD MLOAD DUP2 PUSH1 0x1 ADD SSTORE PUSH1 0x40 DUP3 ADD MLOAD DUP2 PUSH1 0x2 ADD SSTORE PUSH1 0x60 DUP3 ADD MLOAD DUP2 PUSH1 0x3 ADD SWAP1 DUP2 PUSH2 0x87C SWAP2 SWAP1 PUSH2 0x28B8 JUMP JUMPDEST POP PUSH1 0x80 DUP3 ADD MLOAD DUP2 PUSH1 0x4 ADD PUSH0 PUSH2 0x100 EXP DUP2 SLOAD DUP2 PUSH1 0xFF MUL NOT AND SWAP1 DUP4 ISZERO ISZERO MUL OR SWAP1 SSTORE POP PUSH1 0xA0 DUP3 ADD MLOAD DUP2 PUSH1 0x4 ADD PUSH1 0x1 PUSH2 0x100 EXP DUP2 SLOAD DUP2 PUSH1 0xFF MUL NOT AND SWAP1 DUP4 ISZERO ISZERO MUL OR SWAP1 SSTORE POP POP POP PUSH0 PUSH20 0xFFFFFFFFFFFFFFFFFFFFFFFFFFFFFFFFFFFFFFFF AND PUSH32 0xED26BD61B6BF2F43D7471454E53E77FFDC96BEEFA2F198977936F6D02D34563D CALLVALUE DUP4 DUP7 DUP7 TIMESTAMP PUSH2 0x905 SWAP2 SWAP1 PUSH2 0x268B JUMP JUMPDEST TIMESTAMP PUSH1 0x40 MLOAD PUSH2 0x917 SWAP6 SWAP5 SWAP4 SWAP3 SWAP2 SWAP1 PUSH2 0x2996 JUMP JUMPDEST PUSH1 0x40 MLOAD DUP1 SWAP2 SUB SWAP1 LOG2 PUSH2 0x927 PUSH2 0x194F JUMP JUMPDEST POP POP POP JUMP JUMPDEST PUSH0 DUP2 PUSH20 0xFFFFFFFFFFFFFFFFFFFFFFFFFFFFFFFFFFFFFFFF AND PUSH4 0x70A08231 ADDRESS PUSH1 0x40 MLOAD DUP3 PUSH4 0xFFFFFFFF AND PUSH1 0xE0 SHL DUP2 MSTORE PUSH1 0x4 ADD PUSH2 0x966 SWAP2 SWAP1 PUSH2 0x2204 JUMP JUMPDEST PUSH1 0x20 PUSH1 0x40 MLOAD DUP1 DUP4 SUB DUP2 DUP7 GAS STATICCALL ISZERO DUP1 ISZERO PUSH2 0x981 JUMPI RETURNDATASIZE PUSH0 DUP1 RETURNDATACOPY RETURNDATASIZE PUSH0 REVERT JUMPDEST POP POP POP POP PUSH1 0x40 MLOAD RETURNDATASIZE PUSH1 0x1F NOT PUSH1 0x1F DUP3 ADD AND DUP3 ADD DUP1 PUSH1 0x40 MSTORE POP DUP2 ADD SWAP1 PUSH2 0x9A5 SWAP2 SWAP1 PUSH2 0x25CB JUMP JUMPDEST SWAP1 POP SWAP2 SWAP1 POP JUMP JUMPDEST PUSH2 0x9B4 PUSH2 0x1887 JUMP JUMPDEST PUSH0 PUSH20 0xFFFFFFFFFFFFFFFFFFFFFFFFFFFFFFFFFFFFFFFF AND DUP5 PUSH20 0xFFFFFFFFFFFFFFFFFFFFFFFFFFFFFFFFFFFFFFFF AND SUB PUSH2 0xA22 JUMPI PUSH1 0x40 MLOAD PUSH32 0x8C379A000000000000000000000000000000000000000000000000000000000 DUP2 MSTORE PUSH1 0x4 ADD PUSH2 0xA19 SWAP1 PUSH2 0x247D JUMP JUMPDEST PUSH1 0x40 MLOAD DUP1 SWAP2 SUB SWAP1 REVERT JUMPDEST PUSH0 DUP3 GT PUSH2 0xA64 JUMPI PUSH1 0x40 MLOAD PUSH32 0x8C379A000000000000000000000000000000000000000000000000000000000 DUP2 MSTORE PUSH1 0x4 ADD PUSH2 0xA5B SWAP1 PUSH2 0x250B JUMP JUMPDEST PUSH1 0x40 MLOAD DUP1 SWAP2 SUB SWAP1 REVERT JUMPDEST PUSH2 0xA91 CALLER ADDRESS DUP5 DUP8 PUSH20 0xFFFFFFFFFFFFFFFFFFFFFFFFFFFFFFFFFFFFFFFF AND PUSH2 0x18CD SWAP1 SWAP4 SWAP3 SWAP2 SWAP1 PUSH4 0xFFFFFFFF AND JUMP JUMPDEST DUP2 PUSH1 0x2 PUSH0 CALLER PUSH20 0xFFFFFFFFFFFFFFFFFFFFFFFFFFFFFFFFFFFFFFFF AND PUSH20 0xFFFFFFFFFFFFFFFFFFFFFFFFFFFFFFFFFFFFFFFF AND DUP2 MSTORE PUSH1 0x20 ADD SWAP1 DUP2 MSTORE PUSH1 0x20 ADD PUSH0 KECCAK256 PUSH0 DUP4 PUSH1 0xFF AND PUSH1 0xFF AND DUP2 MSTORE PUSH1 0x20 ADD SWAP1 DUP2 MSTORE PUSH1 0x20 ADD PUSH0 KECCAK256 DUP5 PUSH4 0xFFFFFFFF AND DUP2 SLOAD DUP2 LT PUSH2 0xAFC JUMPI PUSH2 0xAFB PUSH2 0x2B0A JUMP JUMPDEST JUMPDEST SWAP1 PUSH0 MSTORE PUSH1 0x20 PUSH0 KECCAK256 SWAP1 PUSH1 0x5 MUL ADD PUSH1 0x1 ADD PUSH0 DUP3 DUP3 SLOAD PUSH2 0xB19 SWAP2 SWAP1 PUSH2 0x268B JUMP JUMPDEST SWAP3 POP POP DUP2 SWAP1 SSTORE POP DUP4 PUSH20 0xFFFFFFFFFFFFFFFFFFFFFFFFFFFFFFFFFFFFFFFF AND PUSH32 0xB99CE8321B94FFAA5C5021540EC0668DCBA948D044760A5EF298FA0513B1EF4 DUP4 PUSH1 0x2 PUSH0 CALLER PUSH20 0xFFFFFFFFFFFFFFFFFFFFFFFFFFFFFFFFFFFFFFFF AND PUSH20 0xFFFFFFFFFFFFFFFFFFFFFFFFFFFFFFFFFFFFFFFF AND DUP2 MSTORE PUSH1 0x20 ADD SWAP1 DUP2 MSTORE PUSH1 0x20 ADD PUSH0 KECCAK256 PUSH0 DUP6 PUSH1 0xFF AND PUSH1 0xFF AND DUP2 MSTORE PUSH1 0x20 ADD SWAP1 DUP2 MSTORE PUSH1 0x20 ADD PUSH0 KECCAK256 DUP7 PUSH4 0xFFFFFFFF AND DUP2 SLOAD DUP2 LT PUSH2 0xBC3 JUMPI PUSH2 0xBC2 PUSH2 0x2B0A JUMP JUMPDEST JUMPDEST SWAP1 PUSH0 MSTORE PUSH1 0x20 PUSH0 KECCAK256 SWAP1 PUSH1 0x5 MUL ADD PUSH1 0x3 ADD DUP5 TIMESTAMP PUSH1 0x40 MLOAD PUSH2 0xBE4 SWAP5 SWAP4 SWAP3 SWAP2 SWAP1 PUSH2 0x2BB8 JUMP JUMPDEST PUSH1 0x40 MLOAD DUP1 SWAP2 SUB SWAP1 LOG2 PUSH2 0xBF4 PUSH2 0x194F JUMP JUMPDEST POP POP POP POP JUMP JUMPDEST PUSH1 0x60 PUSH1 0x2 PUSH0 CALLER PUSH20 0xFFFFFFFFFFFFFFFFFFFFFFFFFFFFFFFFFFFFFFFF AND PUSH20 0xFFFFFFFFFFFFFFFFFFFFFFFFFFFFFFFFFFFFFFFF AND DUP2 MSTORE PUSH1 0x20 ADD SWAP1 DUP2 MSTORE PUSH1 0x20 ADD PUSH0 KECCAK256 PUSH0 DUP4 PUSH1 0xFF AND PUSH1 0xFF AND DUP2 MSTORE PUSH1 0x20 ADD SWAP1 DUP2 MSTORE PUSH1 0x20 ADD PUSH0 KECCAK256 DUP1 SLOAD DUP1 PUSH1 0x20 MUL PUSH1 0x20 ADD PUSH1 0x40 MLOAD SWAP1 DUP2 ADD PUSH1 0x40 MSTORE DUP1 SWAP3 SWAP2 SWAP1 DUP2 DUP2 MSTORE PUSH1 0x20 ADD PUSH0 SWAP1 JUMPDEST DUP3 DUP3 LT ISZERO PUSH2 0xDCA JUMPI DUP4 DUP3 SWAP1 PUSH0 MSTORE PUSH1 0x20 PUSH0 KECCAK256 SWAP1 PUSH1 0x5 MUL ADD PUSH1 0x40 MLOAD DUP1 PUSH1 0xC0 ADD PUSH1 0x40 MSTORE SWAP1 DUP2 PUSH0 DUP3 ADD PUSH0 SWAP1 SLOAD SWAP1 PUSH2 0x100 EXP SWAP1 DIV PUSH20 0xFFFFFFFFFFFFFFFFFFFFFFFFFFFFFFFFFFFFFFFF AND PUSH20 0xFFFFFFFFFFFFFFFFFFFFFFFFFFFFFFFFFFFFFFFF AND PUSH20 0xFFFFFFFFFFFFFFFFFFFFFFFFFFFFFFFFFFFFFFFF AND DUP2 MSTORE PUSH1 0x20 ADD PUSH1 0x1 DUP3 ADD SLOAD DUP2 MSTORE PUSH1 0x20 ADD PUSH1 0x2 DUP3 ADD SLOAD DUP2 MSTORE PUSH1 0x20 ADD PUSH1 0x3 DUP3 ADD DUP1 SLOAD PUSH2 0xD06 SWAP1 PUSH2 0x26EB JUMP JUMPDEST DUP1 PUSH1 0x1F ADD PUSH1 0x20 DUP1 SWAP2 DIV MUL PUSH1 0x20 ADD PUSH1 0x40 MLOAD SWAP1 DUP2 ADD PUSH1 0x40 MSTORE DUP1 SWAP3 SWAP2 SWAP1 DUP2 DUP2 MSTORE PUSH1 0x20 ADD DUP3 DUP1 SLOAD PUSH2 0xD32 SWAP1 PUSH2 0x26EB JUMP JUMPDEST DUP1 ISZERO PUSH2 0xD7D JUMPI DUP1 PUSH1 0x1F LT PUSH2 0xD54 JUMPI PUSH2 0x100 DUP1 DUP4 SLOAD DIV MUL DUP4 MSTORE SWAP2 PUSH1 0x20 ADD SWAP2 PUSH2 0xD7D JUMP JUMPDEST DUP3 ADD SWAP2 SWAP1 PUSH0 MSTORE PUSH1 0x20 PUSH0 KECCAK256 SWAP1 JUMPDEST DUP2 SLOAD DUP2 MSTORE SWAP1 PUSH1 0x1 ADD SWAP1 PUSH1 0x20 ADD DUP1 DUP4 GT PUSH2 0xD60 JUMPI DUP3 SWAP1 SUB PUSH1 0x1F AND DUP3 ADD SWAP2 JUMPDEST POP POP POP POP POP DUP2 MSTORE PUSH1 0x20 ADD PUSH1 0x4 DUP3 ADD PUSH0 SWAP1 SLOAD SWAP1 PUSH2 0x100 EXP SWAP1 DIV PUSH1 0xFF AND ISZERO ISZERO ISZERO ISZERO DUP2 MSTORE PUSH1 0x20 ADD PUSH1 0x4 DUP3 ADD PUSH1 0x1 SWAP1 SLOAD SWAP1 PUSH2 0x100 EXP SWAP1 DIV PUSH1 0xFF AND ISZERO ISZERO ISZERO ISZERO DUP2 MSTORE POP POP DUP2 MSTORE PUSH1 0x20 ADD SWAP1 PUSH1 0x1 ADD SWAP1 PUSH2 0xC6D JUMP JUMPDEST POP POP POP POP SWAP1 POP SWAP2 SWAP1 POP JUMP JUMPDEST PUSH2 0xDDD PUSH2 0x1958 JUMP JUMPDEST PUSH2 0xDE6 PUSH0 PUSH2 0x19DF JUMP JUMPDEST JUMP JUMPDEST PUSH0 SELFBALANCE SWAP1 POP SWAP1 JUMP JUMPDEST PUSH0 DUP1 PUSH0 SWAP1 SLOAD SWAP1 PUSH2 0x100 EXP SWAP1 DIV PUSH20 0xFFFFFFFFFFFFFFFFFFFFFFFFFFFFFFFFFFFFFFFF AND SWAP1 POP SWAP1 JUMP JUMPDEST PUSH0 PUSH1 0x2 PUSH0 CALLER PUSH20 0xFFFFFFFFFFFFFFFFFFFFFFFFFFFFFFFFFFFFFFFF AND PUSH20 0xFFFFFFFFFFFFFFFFFFFFFFFFFFFFFFFFFFFFFFFF AND DUP2 MSTORE PUSH1 0x20 ADD SWAP1 DUP2 MSTORE PUSH1 0x20 ADD PUSH0 KECCAK256 PUSH0 DUP5 PUSH1 0xFF AND PUSH1 0xFF AND DUP2 MSTORE PUSH1 0x20 ADD SWAP1 DUP2 MSTORE PUSH1 0x20 ADD PUSH0 KECCAK256 DUP5 PUSH4 0xFFFFFFFF AND DUP2 SLOAD DUP2 LT PUSH2 0xE81 JUMPI PUSH2 0xE80 PUSH2 0x2B0A JUMP JUMPDEST JUMPDEST SWAP1 PUSH0 MSTORE PUSH1 0x20 PUSH0 KECCAK256 SWAP1 PUSH1 0x5 MUL ADD SWAP1 POP PUSH1 0x2 PUSH0 CALLER PUSH20 0xFFFFFFFFFFFFFFFFFFFFFFFFFFFFFFFFFFFFFFFF AND PUSH20 0xFFFFFFFFFFFFFFFFFFFFFFFFFFFFFFFFFFFFFFFF AND DUP2 MSTORE PUSH1 0x20 ADD SWAP1 DUP2 MSTORE PUSH1 0x20 ADD PUSH0 KECCAK256 PUSH0 DUP5 PUSH1 0xFF AND PUSH1 0xFF AND DUP2 MSTORE PUSH1 0x20 ADD SWAP1 DUP2 MSTORE PUSH1 0x20 ADD PUSH0 KECCAK256 DUP1 SLOAD SWAP1 POP DUP5 PUSH4 0xFFFFFFFF AND LT PUSH2 0xF2C JUMPI PUSH1 0x40 MLOAD PUSH32 0x8C379A000000000000000000000000000000000000000000000000000000000 DUP2 MSTORE PUSH1 0x4 ADD PUSH2 0xF23 SWAP1 PUSH2 0x2C72 JUMP JUMPDEST PUSH1 0x40 MLOAD DUP1 SWAP2 SUB SWAP1 REVERT JUMPDEST DUP1 PUSH1 0x2 ADD SLOAD TIMESTAMP GT PUSH2 0xF72 JUMPI PUSH1 0x40 MLOAD PUSH32 0x8C379A000000000000000000000000000000000000000000000000000000000 DUP2 MSTORE PUSH1 0x4 ADD PUSH2 0xF69 SWAP1 PUSH2 0x2D00 JUMP JUMPDEST PUSH1 0x40 MLOAD DUP1 SWAP2 SUB SWAP1 REVERT JUMPDEST DUP2 TIMESTAMP PUSH2 0xF7E SWAP2 SWAP1 PUSH2 0x268B JUMP JUMPDEST PUSH1 0x2 PUSH0 CALLER PUSH20 0xFFFFFFFFFFFFFFFFFFFFFFFFFFFFFFFFFFFFFFFF AND PUSH20 0xFFFFFFFFFFFFFFFFFFFFFFFFFFFFFFFFFFFFFFFF AND DUP2 MSTORE PUSH1 0x20 ADD SWAP1 DUP2 MSTORE PUSH1 0x20 ADD PUSH0 KECCAK256 PUSH0 DUP6 PUSH1 0xFF AND PUSH1 0xFF AND DUP2 MSTORE PUSH1 0x20 ADD SWAP1 DUP2 MSTORE PUSH1 0x20 ADD PUSH0 KECCAK256 DUP6 PUSH4 0xFFFFFFFF AND DUP2 SLOAD DUP2 LT PUSH2 0xFE8 JUMPI PUSH2 0xFE7 PUSH2 0x2B0A JUMP JUMPDEST JUMPDEST SWAP1 PUSH0 MSTORE PUSH1 0x20 PUSH0 KECCAK256 SWAP1 PUSH1 0x5 MUL ADD PUSH1 0x2 ADD DUP2 SWAP1 SSTORE POP DUP1 PUSH0 ADD PUSH0 SWAP1 SLOAD SWAP1 PUSH2 0x100 EXP SWAP1 DIV PUSH20 0xFFFFFFFFFFFFFFFFFFFFFFFFFFFFFFFFFFFFFFFF AND PUSH20 0xFFFFFFFFFFFFFFFFFFFFFFFFFFFFFFFFFFFFFFFF AND PUSH32 0x748CB9768EE3F2567793F42A22F5B0C83DF9E14D32EC82C9CB839CB1B357BE13 DUP5 DUP5 DUP5 PUSH1 0x3 ADD TIMESTAMP PUSH1 0x40 MLOAD PUSH2 0x106C SWAP5 SWAP4 SWAP3 SWAP2 SWAP1 PUSH2 0x2D1E JUMP JUMPDEST PUSH1 0x40 MLOAD DUP1 SWAP2 SUB SWAP1 LOG2 POP POP POP POP JUMP JUMPDEST PUSH1 0x2 PUSH1 0x20 MSTORE DUP3 PUSH0 MSTORE PUSH1 0x40 PUSH0 KECCAK256 PUSH1 0x20 MSTORE DUP2 PUSH0 MSTORE PUSH1 0x40 PUSH0 KECCAK256 DUP2 DUP2 SLOAD DUP2 LT PUSH2 0x109D JUMPI PUSH0 DUP1 REVERT JUMPDEST SWAP1 PUSH0 MSTORE PUSH1 0x20 PUSH0 KECCAK256 SWAP1 PUSH1 0x5 MUL ADD PUSH0 SWAP3 POP SWAP3 POP POP POP DUP1 PUSH0 ADD PUSH0 SWAP1 SLOAD SWAP1 PUSH2 0x100 EXP SWAP1 DIV PUSH20 0xFFFFFFFFFFFFFFFFFFFFFFFFFFFFFFFFFFFFFFFF AND SWAP1 DUP1 PUSH1 0x1 ADD SLOAD SWAP1 DUP1 PUSH1 0x2 ADD SLOAD SWAP1 DUP1 PUSH1 0x3 ADD DUP1 SLOAD PUSH2 0x10EF SWAP1 PUSH2 0x26EB JUMP JUMPDEST DUP1 PUSH1 0x1F ADD PUSH1 0x20 DUP1 SWAP2 DIV MUL PUSH1 0x20 ADD PUSH1 0x40 MLOAD SWAP1 DUP2 ADD PUSH1 0x40 MSTORE DUP1 SWAP3 SWAP2 SWAP1 DUP2 DUP2 MSTORE PUSH1 0x20 ADD DUP3 DUP1 SLOAD PUSH2 0x111B SWAP1 PUSH2 0x26EB JUMP JUMPDEST DUP1 ISZERO PUSH2 0x1166 JUMPI DUP1 PUSH1 0x1F LT PUSH2 0x113D JUMPI PUSH2 0x100 DUP1 DUP4 SLOAD DIV MUL DUP4 MSTORE SWAP2 PUSH1 0x20 ADD SWAP2 PUSH2 0x1166 JUMP JUMPDEST DUP3 ADD SWAP2 SWAP1 PUSH0 MSTORE PUSH1 0x20 PUSH0 KECCAK256 SWAP1 JUMPDEST DUP2 SLOAD DUP2 MSTORE SWAP1 PUSH1 0x1 ADD SWAP1 PUSH1 0x20 ADD DUP1 DUP4 GT PUSH2 0x1149 JUMPI DUP3 SWAP1 SUB PUSH1 0x1F AND DUP3 ADD SWAP2 JUMPDEST POP POP POP POP POP SWAP1 DUP1 PUSH1 0x4 ADD PUSH0 SWAP1 SLOAD SWAP1 PUSH2 0x100 EXP SWAP1 DIV PUSH1 0xFF AND SWAP1 DUP1 PUSH1 0x4 ADD PUSH1 0x1 SWAP1 SLOAD SWAP1 PUSH2 0x100 EXP SWAP1 DIV PUSH1 0xFF AND SWAP1 POP DUP7 JUMP JUMPDEST PUSH2 0x119D PUSH2 0x1887 JUMP JUMPDEST PUSH1 0x2 PUSH0 CALLER PUSH20 0xFFFFFFFFFFFFFFFFFFFFFFFFFFFFFFFFFFFFFFFF AND PUSH20 0xFFFFFFFFFFFFFFFFFFFFFFFFFFFFFFFFFFFFFFFF AND DUP2 MSTORE PUSH1 0x20 ADD SWAP1 DUP2 MSTORE PUSH1 0x20 ADD PUSH0 KECCAK256 PUSH0 DUP4 PUSH1 0xFF AND PUSH1 0xFF AND DUP2 MSTORE PUSH1 0x20 ADD SWAP1 DUP2 MSTORE PUSH1 0x20 ADD PUSH0 KECCAK256 DUP1 SLOAD SWAP1 POP DUP4 PUSH4 0xFFFFFFFF AND LT PUSH2 0x123A JUMPI PUSH1 0x40 MLOAD PUSH32 0x8C379A000000000000000000000000000000000000000000000000000000000 DUP2 MSTORE PUSH1 0x4 ADD PUSH2 0x1231 SWAP1 PUSH2 0x2C72 JUMP JUMPDEST PUSH1 0x40 MLOAD DUP1 SWAP2 SUB SWAP1 REVERT JUMPDEST PUSH0 PUSH1 0x2 PUSH0 CALLER PUSH20 0xFFFFFFFFFFFFFFFFFFFFFFFFFFFFFFFFFFFFFFFF AND PUSH20 0xFFFFFFFFFFFFFFFFFFFFFFFFFFFFFFFFFFFFFFFF AND DUP2 MSTORE PUSH1 0x20 ADD SWAP1 DUP2 MSTORE PUSH1 0x20 ADD PUSH0 KECCAK256 PUSH0 DUP5 PUSH1 0xFF AND PUSH1 0xFF AND DUP2 MSTORE PUSH1 0x20 ADD SWAP1 DUP2 MSTORE PUSH1 0x20 ADD PUSH0 KECCAK256 DUP5 PUSH4 0xFFFFFFFF AND DUP2 SLOAD DUP2 LT PUSH2 0x12A5 JUMPI PUSH2 0x12A4 PUSH2 0x2B0A JUMP JUMPDEST JUMPDEST SWAP1 PUSH0 MSTORE PUSH1 0x20 PUSH0 KECCAK256 SWAP1 PUSH1 0x5 MUL ADD SWAP1 POP DUP1 PUSH1 0x4 ADD PUSH0 SWAP1 SLOAD SWAP1 PUSH2 0x100 EXP SWAP1 DIV PUSH1 0xFF AND ISZERO PUSH2 0x1304 JUMPI PUSH1 0x40 MLOAD PUSH32 0x8C379A000000000000000000000000000000000000000000000000000000000 DUP2 MSTORE PUSH1 0x4 ADD PUSH2 0x12FB SWAP1 PUSH2 0x2DD8 JUMP JUMPDEST PUSH1 0x40 MLOAD DUP1 SWAP2 SUB SWAP1 REVERT JUMPDEST DUP1 PUSH1 0x2 ADD SLOAD TIMESTAMP GT PUSH2 0x134A JUMPI PUSH1 0x40 MLOAD PUSH32 0x8C379A000000000000000000000000000000000000000000000000000000000 DUP2 MSTORE PUSH1 0x4 ADD PUSH2 0x1341 SWAP1 PUSH2 0x2D00 JUMP JUMPDEST PUSH1 0x40 MLOAD DUP1 SWAP2 SUB SWAP1 REVERT JUMPDEST PUSH0 DUP3 DUP3 PUSH1 0x1 ADD SLOAD PUSH2 0x135B SWAP2 SWAP1 PUSH2 0x2DF6 JUMP JUMPDEST SWAP1 POP PUSH0 DUP2 LT ISZERO PUSH2 0x13A0 JUMPI PUSH1 0x40 MLOAD PUSH32 0x8C379A000000000000000000000000000000000000000000000000000000000 DUP2 MSTORE PUSH1 0x4 ADD PUSH2 0x1397 SWAP1 PUSH2 0x2E73 JUMP JUMPDEST PUSH1 0x40 MLOAD DUP1 SWAP2 SUB SWAP1 REVERT JUMPDEST PUSH0 DUP2 SUB PUSH2 0x1439 JUMPI PUSH1 0x1 PUSH1 0x2 PUSH0 CALLER PUSH20 0xFFFFFFFFFFFFFFFFFFFFFFFFFFFFFFFFFFFFFFFF AND PUSH20 0xFFFFFFFFFFFFFFFFFFFFFFFFFFFFFFFFFFFFFFFF AND DUP2 MSTORE PUSH1 0x20 ADD SWAP1 DUP2 MSTORE PUSH1 0x20 ADD PUSH0 KECCAK256 PUSH0 DUP7 PUSH1 0xFF AND PUSH1 0xFF AND DUP2 MSTORE PUSH1 0x20 ADD SWAP1 DUP2 MSTORE PUSH1 0x20 ADD PUSH0 KECCAK256 DUP7 PUSH4 0xFFFFFFFF AND DUP2 SLOAD DUP2 LT PUSH2 0x1413 JUMPI PUSH2 0x1412 PUSH2 0x2B0A JUMP JUMPDEST JUMPDEST SWAP1 PUSH0 MSTORE PUSH1 0x20 PUSH0 KECCAK256 SWAP1 PUSH1 0x5 MUL ADD PUSH1 0x4 ADD PUSH0 PUSH2 0x100 EXP DUP2 SLOAD DUP2 PUSH1 0xFF MUL NOT AND SWAP1 DUP4 ISZERO ISZERO MUL OR SWAP1 SSTORE POP JUMPDEST DUP1 PUSH1 0x2 PUSH0 CALLER PUSH20 0xFFFFFFFFFFFFFFFFFFFFFFFFFFFFFFFFFFFFFFFF AND PUSH20 0xFFFFFFFFFFFFFFFFFFFFFFFFFFFFFFFFFFFFFFFF AND DUP2 MSTORE PUSH1 0x20 ADD SWAP1 DUP2 MSTORE PUSH1 0x20 ADD PUSH0 KECCAK256 PUSH0 DUP7 PUSH1 0xFF AND PUSH1 0xFF AND DUP2 MSTORE PUSH1 0x20 ADD SWAP1 DUP2 MSTORE PUSH1 0x20 ADD PUSH0 KECCAK256 DUP7 PUSH4 0xFFFFFFFF AND DUP2 SLOAD DUP2 LT PUSH2 0x14A4 JUMPI PUSH2 0x14A3 PUSH2 0x2B0A JUMP JUMPDEST JUMPDEST SWAP1 PUSH0 MSTORE PUSH1 0x20 PUSH0 KECCAK256 SWAP1 PUSH1 0x5 MUL ADD PUSH1 0x1 ADD DUP2 SWAP1 SSTORE POP DUP2 PUSH1 0x4 ADD PUSH1 0x1 SWAP1 SLOAD SWAP1 PUSH2 0x100 EXP SWAP1 DIV PUSH1 0xFF AND ISZERO PUSH2 0x157C JUMPI PUSH0 CALLER PUSH20 0xFFFFFFFFFFFFFFFFFFFFFFFFFFFFFFFFFFFFFFFF AND DUP5 PUSH1 0x40 MLOAD PUSH2 0x14F3 SWAP1 PUSH2 0x2EBE JUMP JUMPDEST PUSH0 PUSH1 0x40 MLOAD DUP1 DUP4 SUB DUP2 DUP6 DUP8 GAS CALL SWAP3 POP POP POP RETURNDATASIZE DUP1 PUSH0 DUP2 EQ PUSH2 0x152D JUMPI PUSH1 0x40 MLOAD SWAP2 POP PUSH1 0x1F NOT PUSH1 0x3F RETURNDATASIZE ADD AND DUP3 ADD PUSH1 0x40 MSTORE RETURNDATASIZE DUP3 MSTORE RETURNDATASIZE PUSH0 PUSH1 0x20 DUP5 ADD RETURNDATACOPY PUSH2 0x1532 JUMP JUMPDEST PUSH1 0x60 SWAP2 POP JUMPDEST POP POP SWAP1 POP DUP1 PUSH2 0x1576 JUMPI PUSH1 0x40 MLOAD PUSH32 0x8C379A000000000000000000000000000000000000000000000000000000000 DUP2 MSTORE PUSH1 0x4 ADD PUSH2 0x156D SWAP1 PUSH2 0x2F1C JUMP JUMPDEST PUSH1 0x40 MLOAD DUP1 SWAP2 SUB SWAP1 REVERT JUMPDEST POP PUSH2 0x15CA JUMP JUMPDEST PUSH2 0x15C9 CALLER DUP5 DUP5 PUSH0 ADD PUSH0 SWAP1 SLOAD SWAP1 PUSH2 0x100 EXP SWAP1 DIV PUSH20 0xFFFFFFFFFFFFFFFFFFFFFFFFFFFFFFFFFFFFFFFF AND PUSH20 0xFFFFFFFFFFFFFFFFFFFFFFFFFFFFFFFFFFFFFFFF AND PUSH2 0x1AA0 SWAP1 SWAP3 SWAP2 SWAP1 PUSH4 0xFFFFFFFF AND JUMP JUMPDEST JUMPDEST DUP2 PUSH0 ADD PUSH0 SWAP1 SLOAD SWAP1 PUSH2 0x100 EXP SWAP1 DIV PUSH20 0xFFFFFFFFFFFFFFFFFFFFFFFFFFFFFFFFFFFFFFFF AND PUSH20 0xFFFFFFFFFFFFFFFFFFFFFFFFFFFFFFFFFFFFFFFF AND PUSH32 0x16C4C024C274B52575FFC17396BBC4A59DB7DD13AAC28373E025A9F6269F9E03 DUP5 DUP5 PUSH1 0x3 ADD DUP8 TIMESTAMP PUSH1 0x40 MLOAD PUSH2 0x163B SWAP5 SWAP4 SWAP3 SWAP2 SWAP1 PUSH2 0x2BB8 JUMP JUMPDEST PUSH1 0x40 MLOAD DUP1 SWAP2 SUB SWAP1 LOG2 POP POP PUSH2 0x164D PUSH2 0x194F JUMP JUMPDEST POP POP POP JUMP JUMPDEST PUSH2 0x165A PUSH2 0x1887 JUMP JUMPDEST PUSH0 CALLVALUE GT PUSH2 0x169C JUMPI PUSH1 0x40 MLOAD PUSH32 0x8C379A000000000000000000000000000000000000000000000000000000000 DUP2 MSTORE PUSH1 0x4 ADD PUSH2 0x1693 SWAP1 PUSH2 0x2FAA JUMP JUMPDEST PUSH1 0x40 MLOAD DUP1 SWAP2 SUB SWAP1 REVERT JUMPDEST CALLVALUE PUSH1 0x2 PUSH0 CALLER PUSH20 0xFFFFFFFFFFFFFFFFFFFFFFFFFFFFFFFFFFFFFFFF AND PUSH20 0xFFFFFFFFFFFFFFFFFFFFFFFFFFFFFFFFFFFFFFFF AND DUP2 MSTORE PUSH1 0x20 ADD SWAP1 DUP2 MSTORE PUSH1 0x20 ADD PUSH0 KECCAK256 PUSH0 DUP5 PUSH1 0xFF AND PUSH1 0xFF AND DUP2 MSTORE PUSH1 0x20 ADD SWAP1 DUP2 MSTORE PUSH1 0x20 ADD PUSH0 KECCAK256 DUP3 PUSH4 0xFFFFFFFF AND DUP2 SLOAD DUP2 LT PUSH2 0x1707 JUMPI PUSH2 0x1706 PUSH2 0x2B0A JUMP JUMPDEST JUMPDEST SWAP1 PUSH0 MSTORE PUSH1 0x20 PUSH0 KECCAK256 SWAP1 PUSH1 0x5 MUL ADD PUSH1 0x1 ADD PUSH0 DUP3 DUP3 SLOAD PUSH2 0x1724 SWAP2 SWAP1 PUSH2 0x268B JUMP JUMPDEST SWAP3 POP POP DUP2 SWAP1 SSTORE POP PUSH0 PUSH20 0xFFFFFFFFFFFFFFFFFFFFFFFFFFFFFFFFFFFFFFFF AND PUSH32 0xB99CE8321B94FFAA5C5021540EC0668DCBA948D044760A5EF298FA0513B1EF4 CALLVALUE PUSH1 0x2 PUSH0 CALLER PUSH20 0xFFFFFFFFFFFFFFFFFFFFFFFFFFFFFFFFFFFFFFFF AND PUSH20 0xFFFFFFFFFFFFFFFFFFFFFFFFFFFFFFFFFFFFFFFF AND DUP2 MSTORE PUSH1 0x20 ADD SWAP1 DUP2 MSTORE PUSH1 0x20 ADD PUSH0 KECCAK256 PUSH0 DUP7 PUSH1 0xFF AND PUSH1 0xFF AND DUP2 MSTORE PUSH1 0x20 ADD SWAP1 DUP2 MSTORE PUSH1 0x20 ADD PUSH0 KECCAK256 DUP5 PUSH4 0xFFFFFFFF AND DUP2 SLOAD DUP2 LT PUSH2 0x17CE JUMPI PUSH2 0x17CD PUSH2 0x2B0A JUMP JUMPDEST JUMPDEST SWAP1 PUSH0 MSTORE PUSH1 0x20 PUSH0 KECCAK256 SWAP1 PUSH1 0x5 MUL ADD PUSH1 0x3 ADD DUP6 TIMESTAMP PUSH1 0x40 MLOAD PUSH2 0x17EF SWAP5 SWAP4 SWAP3 SWAP2 SWAP1 PUSH2 0x2BB8 JUMP JUMPDEST PUSH1 0x40 MLOAD DUP1 SWAP2 SUB SWAP1 LOG2 PUSH2 0x17FF PUSH2 0x194F JUMP JUMPDEST POP POP JUMP JUMPDEST PUSH2 0x180B PUSH2 0x1958 JUMP JUMPDEST PUSH0 PUSH20 0xFFFFFFFFFFFFFFFFFFFFFFFFFFFFFFFFFFFFFFFF AND DUP2 PUSH20 0xFFFFFFFFFFFFFFFFFFFFFFFFFFFFFFFFFFFFFFFF AND SUB PUSH2 0x187B JUMPI PUSH0 PUSH1 0x40 MLOAD PUSH32 0x1E4FBDF700000000000000000000000000000000000000000000000000000000 DUP2 MSTORE PUSH1 0x4 ADD PUSH2 0x1872 SWAP2 SWAP1 PUSH2 0x2204 JUMP JUMPDEST PUSH1 0x40 MLOAD DUP1 SWAP2 SUB SWAP1 REVERT JUMPDEST PUSH2 0x1884 DUP2 PUSH2 0x19DF JUMP JUMPDEST POP JUMP JUMPDEST PUSH1 0x2 PUSH1 0x1 SLOAD SUB PUSH2 0x18C3 JUMPI PUSH1 0x40 MLOAD PUSH32 0x3EE5AEB500000000000000000000000000000000000000000000000000000000 DUP2 MSTORE PUSH1 0x4 ADD PUSH1 0x40 MLOAD DUP1 SWAP2 SUB SWAP1 REVERT JUMPDEST PUSH1 0x2 PUSH1 0x1 DUP2 SWAP1 SSTORE POP JUMP JUMPDEST PUSH2 0x1949 DUP5 DUP6 PUSH20 0xFFFFFFFFFFFFFFFFFFFFFFFFFFFFFFFFFFFFFFFF AND PUSH4 0x23B872DD DUP7 DUP7 DUP7 PUSH1 0x40 MLOAD PUSH1 0x24 ADD PUSH2 0x1902 SWAP4 SWAP3 SWAP2 SWAP1 PUSH2 0x2FC8 JUMP JUMPDEST PUSH1 0x40 MLOAD PUSH1 0x20 DUP2 DUP4 SUB SUB DUP2 MSTORE SWAP1 PUSH1 0x40 MSTORE SWAP2 POP PUSH1 0xE0 SHL PUSH1 0x20 DUP3 ADD DUP1 MLOAD PUSH28 0xFFFFFFFFFFFFFFFFFFFFFFFFFFFFFFFFFFFFFFFFFFFFFFFFFFFFFFFF DUP4 DUP2 DUP4 AND OR DUP4 MSTORE POP POP POP POP PUSH2 0x1B1F JUMP JUMPDEST POP POP POP POP JUMP JUMPDEST PUSH1 0x1 DUP1 DUP2 SWAP1 SSTORE POP JUMP JUMPDEST PUSH2 0x1960 PUSH2 0x1BBA JUMP JUMPDEST PUSH20 0xFFFFFFFFFFFFFFFFFFFFFFFFFFFFFFFFFFFFFFFF AND PUSH2 0x197E PUSH2 0xDEF JUMP JUMPDEST PUSH20 0xFFFFFFFFFFFFFFFFFFFFFFFFFFFFFFFFFFFFFFFF AND EQ PUSH2 0x19DD JUMPI PUSH2 0x19A1 PUSH2 0x1BBA JUMP JUMPDEST PUSH1 0x40 MLOAD PUSH32 0x118CDAA700000000000000000000000000000000000000000000000000000000 DUP2 MSTORE PUSH1 0x4 ADD PUSH2 0x19D4 SWAP2 SWAP1 PUSH2 0x2204 JUMP JUMPDEST PUSH1 0x40 MLOAD DUP1 SWAP2 SUB SWAP1 REVERT JUMPDEST JUMP JUMPDEST PUSH0 DUP1 PUSH0 SWAP1 SLOAD SWAP1 PUSH2 0x100 EXP SWAP1 DIV PUSH20 0xFFFFFFFFFFFFFFFFFFFFFFFFFFFFFFFFFFFFFFFF AND SWAP1 POP DUP2 PUSH0 DUP1 PUSH2 0x100 EXP DUP2 SLOAD DUP2 PUSH20 0xFFFFFFFFFFFFFFFFFFFFFFFFFFFFFFFFFFFFFFFF MUL NOT AND SWAP1 DUP4 PUSH20 0xFFFFFFFFFFFFFFFFFFFFFFFFFFFFFFFFFFFFFFFF AND MUL OR SWAP1 SSTORE POP DUP2 PUSH20 0xFFFFFFFFFFFFFFFFFFFFFFFFFFFFFFFFFFFFFFFF AND DUP2 PUSH20 0xFFFFFFFFFFFFFFFFFFFFFFFFFFFFFFFFFFFFFFFF AND PUSH32 0x8BE0079C531659141344CD1FD0A4F28419497F9722A3DAAFE3B4186F6B6457E0 PUSH1 0x40 MLOAD PUSH1 0x40 MLOAD DUP1 SWAP2 SUB SWAP1 LOG3 POP POP JUMP JUMPDEST PUSH2 0x1B1A DUP4 DUP5 PUSH20 0xFFFFFFFFFFFFFFFFFFFFFFFFFFFFFFFFFFFFFFFF AND PUSH4 0xA9059CBB DUP6 DUP6 PUSH1 0x40 MLOAD PUSH1 0x24 ADD PUSH2 0x1AD3 SWAP3 SWAP2 SWAP1 PUSH2 0x2FFD JUMP JUMPDEST PUSH1 0x40 MLOAD PUSH1 0x20 DUP2 DUP4 SUB SUB DUP2 MSTORE SWAP1 PUSH1 0x40 MSTORE SWAP2 POP PUSH1 0xE0 SHL PUSH1 0x20 DUP3 ADD DUP1 MLOAD PUSH28 0xFFFFFFFFFFFFFFFFFFFFFFFFFFFFFFFFFFFFFFFFFFFFFFFFFFFFFFFF DUP4 DUP2 DUP4 AND OR DUP4 MSTORE POP POP POP POP PUSH2 0x1B1F JUMP JUMPDEST POP POP POP JUMP JUMPDEST PUSH0 DUP1 PUSH1 0x20 PUSH0 DUP5 MLOAD PUSH1 0x20 DUP7 ADD PUSH0 DUP9 GAS CALL DUP1 PUSH2 0x1B3E JUMPI PUSH1 0x40 MLOAD RETURNDATASIZE PUSH0 DUP3 RETURNDATACOPY RETURNDATASIZE DUP2 REVERT JUMPDEST RETURNDATASIZE SWAP3 POP PUSH0 MLOAD SWAP2 POP POP PUSH0 DUP3 EQ PUSH2 0x1B57 JUMPI PUSH1 0x1 DUP2 EQ ISZERO PUSH2 0x1B72 JUMP JUMPDEST PUSH0 DUP5 PUSH20 0xFFFFFFFFFFFFFFFFFFFFFFFFFFFFFFFFFFFFFFFF AND EXTCODESIZE EQ JUMPDEST ISZERO PUSH2 0x1BB4 JUMPI DUP4 PUSH1 0x40 MLOAD PUSH32 0x5274AFE700000000000000000000000000000000000000000000000000000000 DUP2 MSTORE PUSH1 0x4 ADD PUSH2 0x1BAB SWAP2 SWAP1 PUSH2 0x2204 JUMP JUMPDEST PUSH1 0x40 MLOAD DUP1 SWAP2 SUB SWAP1 REVERT JUMPDEST POP POP POP POP JUMP JUMPDEST PUSH0 CALLER SWAP1 POP SWAP1 JUMP JUMPDEST PUSH0 PUSH1 0x40 MLOAD SWAP1 POP SWAP1 JUMP JUMPDEST PUSH0 DUP1 REVERT JUMPDEST PUSH0 DUP1 REVERT JUMPDEST PUSH0 PUSH20 0xFFFFFFFFFFFFFFFFFFFFFFFFFFFFFFFFFFFFFFFF DUP3 AND SWAP1 POP SWAP2 SWAP1 POP JUMP JUMPDEST PUSH0 PUSH2 0x1BFB DUP3 PUSH2 0x1BD2 JUMP JUMPDEST SWAP1 POP SWAP2 SWAP1 POP JUMP JUMPDEST PUSH0 PUSH2 0x1C0C DUP3 PUSH2 0x1BF1 JUMP JUMPDEST SWAP1 POP SWAP2 SWAP1 POP JUMP JUMPDEST PUSH2 0x1C1C DUP2 PUSH2 0x1C02 JUMP JUMPDEST DUP2 EQ PUSH2 0x1C26 JUMPI PUSH0 DUP1 REVERT JUMPDEST POP JUMP JUMPDEST PUSH0 DUP2 CALLDATALOAD SWAP1 POP PUSH2 0x1C37 DUP2 PUSH2 0x1C13 JUMP JUMPDEST SWAP3 SWAP2 POP POP JUMP JUMPDEST PUSH0 DUP2 SWAP1 POP SWAP2 SWAP1 POP JUMP JUMPDEST PUSH2 0x1C4F DUP2 PUSH2 0x1C3D JUMP JUMPDEST DUP2 EQ PUSH2 0x1C59 JUMPI PUSH0 DUP1 REVERT JUMPDEST POP JUMP JUMPDEST PUSH0 DUP2 CALLDATALOAD SWAP1 POP PUSH2 0x1C6A DUP2 PUSH2 0x1C46 JUMP JUMPDEST SWAP3 SWAP2 POP POP JUMP JUMPDEST PUSH0 PUSH1 0xFF DUP3 AND SWAP1 POP SWAP2 SWAP1 POP JUMP JUMPDEST PUSH2 0x1C85 DUP2 PUSH2 0x1C70 JUMP JUMPDEST DUP2 EQ PUSH2 0x1C8F JUMPI PUSH0 DUP1 REVERT JUMPDEST POP JUMP JUMPDEST PUSH0 DUP2 CALLDATALOAD SWAP1 POP PUSH2 0x1CA0 DUP2 PUSH2 0x1C7C JUMP JUMPDEST SWAP3 SWAP2 POP POP JUMP JUMPDEST PUSH0 DUP1 REVERT JUMPDEST PUSH0 DUP1 REVERT JUMPDEST PUSH0 PUSH1 0x1F NOT PUSH1 0x1F DUP4 ADD AND SWAP1 POP SWAP2 SWAP1 POP JUMP JUMPDEST PUSH32 0x4E487B7100000000000000000000000000000000000000000000000000000000 PUSH0 MSTORE PUSH1 0x41 PUSH1 0x4 MSTORE PUSH1 0x24 PUSH0 REVERT JUMPDEST PUSH2 0x1CF4 DUP3 PUSH2 0x1CAE JUMP JUMPDEST DUP2 ADD DUP2 DUP2 LT PUSH8 0xFFFFFFFFFFFFFFFF DUP3 GT OR ISZERO PUSH2 0x1D13 JUMPI PUSH2 0x1D12 PUSH2 0x1CBE JUMP JUMPDEST JUMPDEST DUP1 PUSH1 0x40 MSTORE POP POP POP JUMP JUMPDEST PUSH0 PUSH2 0x1D25 PUSH2 0x1BC1 JUMP JUMPDEST SWAP1 POP PUSH2 0x1D31 DUP3 DUP3 PUSH2 0x1CEB JUMP JUMPDEST SWAP2 SWAP1 POP JUMP JUMPDEST PUSH0 PUSH8 0xFFFFFFFFFFFFFFFF DUP3 GT ISZERO PUSH2 0x1D50 JUMPI PUSH2 0x1D4F PUSH2 0x1CBE JUMP JUMPDEST JUMPDEST PUSH2 0x1D59 DUP3 PUSH2 0x1CAE JUMP JUMPDEST SWAP1 POP PUSH1 0x20 DUP2 ADD SWAP1 POP SWAP2 SWAP1 POP JUMP JUMPDEST DUP3 DUP2 DUP4 CALLDATACOPY PUSH0 DUP4 DUP4 ADD MSTORE POP POP POP JUMP JUMPDEST PUSH0 PUSH2 0x1D86 PUSH2 0x1D81 DUP5 PUSH2 0x1D36 JUMP JUMPDEST PUSH2 0x1D1C JUMP JUMPDEST SWAP1 POP DUP3 DUP2 MSTORE PUSH1 0x20 DUP2 ADD DUP5 DUP5 DUP5 ADD GT ISZERO PUSH2 0x1DA2 JUMPI PUSH2 0x1DA1 PUSH2 0x1CAA JUMP JUMPDEST JUMPDEST PUSH2 0x1DAD DUP5 DUP3 DUP6 PUSH2 0x1D66 JUMP JUMPDEST POP SWAP4 SWAP3 POP POP POP JUMP JUMPDEST PUSH0 DUP3 PUSH1 0x1F DUP4 ADD SLT PUSH2 0x1DC9 JUMPI PUSH2 0x1DC8 PUSH2 0x1CA6 JUMP JUMPDEST JUMPDEST DUP2 CALLDATALOAD PUSH2 0x1DD9 DUP5 DUP3 PUSH1 0x20 DUP7 ADD PUSH2 0x1D74 JUMP JUMPDEST SWAP2 POP POP SWAP3 SWAP2 POP POP JUMP JUMPDEST PUSH0 DUP1 PUSH0 DUP1 PUSH0 PUSH1 0xA0 DUP7 DUP9 SUB SLT ISZERO PUSH2 0x1DFB JUMPI PUSH2 0x1DFA PUSH2 0x1BCA JUMP JUMPDEST JUMPDEST PUSH0 PUSH2 0x1E08 DUP9 DUP3 DUP10 ADD PUSH2 0x1C29 JUMP JUMPDEST SWAP6 POP POP PUSH1 0x20 PUSH2 0x1E19 DUP9 DUP3 DUP10 ADD PUSH2 0x1C5C JUMP JUMPDEST SWAP5 POP POP PUSH1 0x40 PUSH2 0x1E2A DUP9 DUP3 DUP10 ADD PUSH2 0x1C92 JUMP JUMPDEST SWAP4 POP POP PUSH1 0x60 PUSH2 0x1E3B DUP9 DUP3 DUP10 ADD PUSH2 0x1C5C JUMP JUMPDEST SWAP3 POP POP PUSH1 0x80 DUP7 ADD CALLDATALOAD PUSH8 0xFFFFFFFFFFFFFFFF DUP2 GT ISZERO PUSH2 0x1E5C JUMPI PUSH2 0x1E5B PUSH2 0x1BCE JUMP JUMPDEST JUMPDEST PUSH2 0x1E68 DUP9 DUP3 DUP10 ADD PUSH2 0x1DB5 JUMP JUMPDEST SWAP2 POP POP SWAP3 SWAP6 POP SWAP3 SWAP6 SWAP1 SWAP4 POP JUMP JUMPDEST PUSH0 DUP1 PUSH0 PUSH1 0x60 DUP5 DUP7 SUB SLT ISZERO PUSH2 0x1E8C JUMPI PUSH2 0x1E8B PUSH2 0x1BCA JUMP JUMPDEST JUMPDEST PUSH0 PUSH2 0x1E99 DUP7 DUP3 DUP8 ADD PUSH2 0x1C92 JUMP JUMPDEST SWAP4 POP POP PUSH1 0x20 PUSH2 0x1EAA DUP7 DUP3 DUP8 ADD PUSH2 0x1C5C JUMP JUMPDEST SWAP3 POP POP PUSH1 0x40 DUP5 ADD CALLDATALOAD PUSH8 0xFFFFFFFFFFFFFFFF DUP2 GT ISZERO PUSH2 0x1ECB JUMPI PUSH2 0x1ECA PUSH2 0x1BCE JUMP JUMPDEST JUMPDEST PUSH2 0x1ED7 DUP7 DUP3 DUP8 ADD PUSH2 0x1DB5 JUMP JUMPDEST SWAP2 POP POP SWAP3 POP SWAP3 POP SWAP3 JUMP JUMPDEST PUSH0 PUSH1 0x20 DUP3 DUP5 SUB SLT ISZERO PUSH2 0x1EF6 JUMPI PUSH2 0x1EF5 PUSH2 0x1BCA JUMP JUMPDEST JUMPDEST PUSH0 PUSH2 0x1F03 DUP5 DUP3 DUP6 ADD PUSH2 0x1C29 JUMP JUMPDEST SWAP2 POP POP SWAP3 SWAP2 POP POP JUMP JUMPDEST PUSH2 0x1F15 DUP2 PUSH2 0x1C3D JUMP JUMPDEST DUP3 MSTORE POP POP JUMP JUMPDEST PUSH0 PUSH1 0x20 DUP3 ADD SWAP1 POP PUSH2 0x1F2E PUSH0 DUP4 ADD DUP5 PUSH2 0x1F0C JUMP JUMPDEST SWAP3 SWAP2 POP POP JUMP JUMPDEST PUSH0 PUSH4 0xFFFFFFFF DUP3 AND SWAP1 POP SWAP2 SWAP1 POP JUMP JUMPDEST PUSH2 0x1F4C DUP2 PUSH2 0x1F34 JUMP JUMPDEST DUP2 EQ PUSH2 0x1F56 JUMPI PUSH0 DUP1 REVERT JUMPDEST POP JUMP JUMPDEST PUSH0 DUP2 CALLDATALOAD SWAP1 POP PUSH2 0x1F67 DUP2 PUSH2 0x1F43 JUMP JUMPDEST SWAP3 SWAP2 POP POP JUMP JUMPDEST PUSH0 DUP1 PUSH0 DUP1 PUSH1 0x80 DUP6 DUP8 SUB SLT ISZERO PUSH2 0x1F85 JUMPI PUSH2 0x1F84 PUSH2 0x1BCA JUMP JUMPDEST JUMPDEST PUSH0 PUSH2 0x1F92 DUP8 DUP3 DUP9 ADD PUSH2 0x1C29 JUMP JUMPDEST SWAP5 POP POP PUSH1 0x20 PUSH2 0x1FA3 DUP8 DUP3 DUP9 ADD PUSH2 0x1F59 JUMP JUMPDEST SWAP4 POP POP PUSH1 0x40 PUSH2 0x1FB4 DUP8 DUP3 DUP9 ADD PUSH2 0x1C5C JUMP JUMPDEST SWAP3 POP POP PUSH1 0x60 PUSH2 0x1FC5 DUP8 DUP3 DUP9 ADD PUSH2 0x1C92 JUMP JUMPDEST SWAP2 POP POP SWAP3 SWAP6 SWAP2 SWAP5 POP SWAP3 POP JUMP JUMPDEST PUSH0 PUSH1 0x20 DUP3 DUP5 SUB SLT ISZERO PUSH2 0x1FE6 JUMPI PUSH2 0x1FE5 PUSH2 0x1BCA JUMP JUMPDEST JUMPDEST PUSH0 PUSH2 0x1FF3 DUP5 DUP3 DUP6 ADD PUSH2 0x1C92 JUMP JUMPDEST SWAP2 POP POP SWAP3 SWAP2 POP POP JUMP JUMPDEST PUSH0 DUP2 MLOAD SWAP1 POP SWAP2 SWAP1 POP JUMP JUMPDEST PUSH0 DUP3 DUP3 MSTORE PUSH1 0x20 DUP3 ADD SWAP1 POP SWAP3 SWAP2 POP POP JUMP JUMPDEST PUSH0 DUP2 SWAP1 POP PUSH1 0x20 DUP3 ADD SWAP1 POP SWAP2 SWAP1 POP JUMP JUMPDEST PUSH2 0x202E DUP2 PUSH2 0x1BF1 JUMP JUMPDEST DUP3 MSTORE POP POP JUMP JUMPDEST PUSH2 0x203D DUP2 PUSH2 0x1C3D JUMP JUMPDEST DUP3 MSTORE POP POP JUMP JUMPDEST PUSH0 DUP2 MLOAD SWAP1 POP SWAP2 SWAP1 POP JUMP JUMPDEST PUSH0 DUP3 DUP3 MSTORE PUSH1 0x20 DUP3 ADD SWAP1 POP SWAP3 SWAP2 POP POP JUMP JUMPDEST DUP3 DUP2 DUP4 MCOPY PUSH0 DUP4 DUP4 ADD MSTORE POP POP POP JUMP JUMPDEST PUSH0 PUSH2 0x2075 DUP3 PUSH2 0x2043 JUMP JUMPDEST PUSH2 0x207F DUP2 DUP6 PUSH2 0x204D JUMP JUMPDEST SWAP4 POP PUSH2 0x208F DUP2 DUP6 PUSH1 0x20 DUP7 ADD PUSH2 0x205D JUMP JUMPDEST PUSH2 0x2098 DUP2 PUSH2 0x1CAE JUMP JUMPDEST DUP5 ADD SWAP2 POP POP SWAP3 SWAP2 POP POP JUMP JUMPDEST PUSH0 DUP2 ISZERO ISZERO SWAP1 POP SWAP2 SWAP1 POP JUMP JUMPDEST PUSH2 0x20B7 DUP2 PUSH2 0x20A3 JUMP JUMPDEST DUP3 MSTORE POP POP JUMP JUMPDEST PUSH0 PUSH1 0xC0 DUP4 ADD PUSH0 DUP4 ADD MLOAD PUSH2 0x20D2 PUSH0 DUP7 ADD DUP3 PUSH2 0x2025 JUMP JUMPDEST POP PUSH1 0x20 DUP4 ADD MLOAD PUSH2 0x20E5 PUSH1 0x20 DUP7 ADD DUP3 PUSH2 0x2034 JUMP JUMPDEST POP PUSH1 0x40 DUP4 ADD MLOAD PUSH2 0x20F8 PUSH1 0x40 DUP7 ADD DUP3 PUSH2 0x2034 JUMP JUMPDEST POP PUSH1 0x60 DUP4 ADD MLOAD DUP5 DUP3 SUB PUSH1 0x60 DUP7 ADD MSTORE PUSH2 0x2110 DUP3 DUP3 PUSH2 0x206B JUMP JUMPDEST SWAP2 POP POP PUSH1 0x80 DUP4 ADD MLOAD PUSH2 0x2125 PUSH1 0x80 DUP7 ADD DUP3 PUSH2 0x20AE JUMP JUMPDEST POP PUSH1 0xA0 DUP4 ADD MLOAD PUSH2 0x2138 PUSH1 0xA0 DUP7 ADD DUP3 PUSH2 0x20AE JUMP JUMPDEST POP DUP1 SWAP2 POP POP SWAP3 SWAP2 POP POP JUMP JUMPDEST PUSH0 PUSH2 0x214E DUP4 DUP4 PUSH2 0x20BD JUMP JUMPDEST SWAP1 POP SWAP3 SWAP2 POP POP JUMP JUMPDEST PUSH0 PUSH1 0x20 DUP3 ADD SWAP1 POP SWAP2 SWAP1 POP JUMP JUMPDEST PUSH0 PUSH2 0x216C DUP3 PUSH2 0x1FFC JUMP JUMPDEST PUSH2 0x2176 DUP2 DUP6 PUSH2 0x2006 JUMP JUMPDEST SWAP4 POP DUP4 PUSH1 0x20 DUP3 MUL DUP6 ADD PUSH2 0x2188 DUP6 PUSH2 0x2016 JUMP JUMPDEST DUP1 PUSH0 JUMPDEST DUP6 DUP2 LT ISZERO PUSH2 0x21C3 JUMPI DUP5 DUP5 SUB DUP10 MSTORE DUP2 MLOAD PUSH2 0x21A4 DUP6 DUP3 PUSH2 0x2143 JUMP JUMPDEST SWAP5 POP PUSH2 0x21AF DUP4 PUSH2 0x2156 JUMP JUMPDEST SWAP3 POP PUSH1 0x20 DUP11 ADD SWAP10 POP POP PUSH1 0x1 DUP2 ADD SWAP1 POP PUSH2 0x218B JUMP JUMPDEST POP DUP3 SWAP8 POP DUP8 SWAP6 POP POP POP POP POP POP SWAP3 SWAP2 POP POP JUMP JUMPDEST PUSH0 PUSH1 0x20 DUP3 ADD SWAP1 POP DUP2 DUP2 SUB PUSH0 DUP4 ADD MSTORE PUSH2 0x21ED DUP2 DUP5 PUSH2 0x2162 JUMP JUMPDEST SWAP1 POP SWAP3 SWAP2 POP POP JUMP JUMPDEST PUSH2 0x21FE DUP2 PUSH2 0x1BF1 JUMP JUMPDEST DUP3 MSTORE POP POP JUMP JUMPDEST PUSH0 PUSH1 0x20 DUP3 ADD SWAP1 POP PUSH2 0x2217 PUSH0 DUP4 ADD DUP5 PUSH2 0x21F5 JUMP JUMPDEST SWAP3 SWAP2 POP POP JUMP JUMPDEST PUSH0 DUP1 PUSH0 PUSH1 0x60 DUP5 DUP7 SUB SLT ISZERO PUSH2 0x2234 JUMPI PUSH2 0x2233 PUSH2 0x1BCA JUMP JUMPDEST JUMPDEST PUSH0 PUSH2 0x2241 DUP7 DUP3 DUP8 ADD PUSH2 0x1F59 JUMP JUMPDEST SWAP4 POP POP PUSH1 0x20 PUSH2 0x2252 DUP7 DUP3 DUP8 ADD PUSH2 0x1C92 JUMP JUMPDEST SWAP3 POP POP PUSH1 0x40 PUSH2 0x2263 DUP7 DUP3 DUP8 ADD PUSH2 0x1C5C JUMP JUMPDEST SWAP2 POP POP SWAP3 POP SWAP3 POP SWAP3 JUMP JUMPDEST PUSH2 0x2276 DUP2 PUSH2 0x1BF1 JUMP JUMPDEST DUP2 EQ PUSH2 0x2280 JUMPI PUSH0 DUP1 REVERT JUMPDEST POP JUMP JUMPDEST PUSH0 DUP2 CALLDATALOAD SWAP1 POP PUSH2 0x2291 DUP2 PUSH2 0x226D JUMP JUMPDEST SWAP3 SWAP2 POP POP JUMP JUMPDEST PUSH0 DUP1 PUSH0 PUSH1 0x60 DUP5 DUP7 SUB SLT ISZERO PUSH2 0x22AE JUMPI PUSH2 0x22AD PUSH2 0x1BCA JUMP JUMPDEST JUMPDEST PUSH0 PUSH2 0x22BB DUP7 DUP3 DUP8 ADD PUSH2 0x2283 JUMP JUMPDEST SWAP4 POP POP PUSH1 0x20 PUSH2 0x22CC DUP7 DUP3 DUP8 ADD PUSH2 0x1C92 JUMP JUMPDEST SWAP3 POP POP PUSH1 0x40 PUSH2 0x22DD DUP7 DUP3 DUP8 ADD PUSH2 0x1C5C JUMP JUMPDEST SWAP2 POP POP SWAP3 POP SWAP3 POP SWAP3 JUMP JUMPDEST PUSH0 DUP3 DUP3 MSTORE PUSH1 0x20 DUP3 ADD SWAP1 POP SWAP3 SWAP2 POP POP JUMP JUMPDEST PUSH0 PUSH2 0x2301 DUP3 PUSH2 0x2043 JUMP JUMPDEST PUSH2 0x230B DUP2 DUP6 PUSH2 0x22E7 JUMP JUMPDEST SWAP4 POP PUSH2 0x231B DUP2 DUP6 PUSH1 0x20 DUP7 ADD PUSH2 0x205D JUMP JUMPDEST PUSH2 0x2324 DUP2 PUSH2 0x1CAE JUMP JUMPDEST DUP5 ADD SWAP2 POP POP SWAP3 SWAP2 POP POP JUMP JUMPDEST PUSH2 0x2338 DUP2 PUSH2 0x20A3 JUMP JUMPDEST DUP3 MSTORE POP POP JUMP JUMPDEST PUSH0 PUSH1 0xC0 DUP3 ADD SWAP1 POP PUSH2 0x2351 PUSH0 DUP4 ADD DUP10 PUSH2 0x21F5 JUMP JUMPDEST PUSH2 0x235E PUSH1 0x20 DUP4 ADD DUP9 PUSH2 0x1F0C JUMP JUMPDEST PUSH2 0x236B PUSH1 0x40 DUP4 ADD DUP8 PUSH2 0x1F0C JUMP JUMPDEST DUP2 DUP2 SUB PUSH1 0x60 DUP4 ADD MSTORE PUSH2 0x237D DUP2 DUP7 PUSH2 0x22F7 JUMP JUMPDEST SWAP1 POP PUSH2 0x238C PUSH1 0x80 DUP4 ADD DUP6 PUSH2 0x232F JUMP JUMPDEST PUSH2 0x2399 PUSH1 0xA0 DUP4 ADD DUP5 PUSH2 0x232F JUMP JUMPDEST SWAP8 SWAP7 POP POP POP POP POP POP POP JUMP JUMPDEST PUSH0 DUP1 PUSH1 0x40 DUP4 DUP6 SUB SLT ISZERO PUSH2 0x23BA JUMPI PUSH2 0x23B9 PUSH2 0x1BCA JUMP JUMPDEST JUMPDEST PUSH0 PUSH2 0x23C7 DUP6 DUP3 DUP7 ADD PUSH2 0x1C92 JUMP JUMPDEST SWAP3 POP POP PUSH1 0x20 PUSH2 0x23D8 DUP6 DUP3 DUP7 ADD PUSH2 0x1F59 JUMP JUMPDEST SWAP2 POP POP SWAP3 POP SWAP3 SWAP1 POP JUMP JUMPDEST PUSH0 PUSH1 0x20 DUP3 DUP5 SUB SLT ISZERO PUSH2 0x23F7 JUMPI PUSH2 0x23F6 PUSH2 0x1BCA JUMP JUMPDEST JUMPDEST PUSH0 PUSH2 0x2404 DUP5 DUP3 DUP6 ADD PUSH2 0x2283 JUMP JUMPDEST SWAP2 POP POP SWAP3 SWAP2 POP POP JUMP JUMPDEST PUSH32 0x4D7573742070726F7669646520612076616C696420746F6B656E206164647265 PUSH0 DUP3 ADD MSTORE PUSH32 0x7373000000000000000000000000000000000000000000000000000000000000 PUSH1 0x20 DUP3 ADD MSTORE POP JUMP JUMPDEST PUSH0 PUSH2 0x2467 PUSH1 0x22 DUP4 PUSH2 0x22E7 JUMP JUMPDEST SWAP2 POP PUSH2 0x2472 DUP3 PUSH2 0x240D JUMP JUMPDEST PUSH1 0x40 DUP3 ADD SWAP1 POP SWAP2 SWAP1 POP JUMP JUMPDEST PUSH0 PUSH1 0x20 DUP3 ADD SWAP1 POP DUP2 DUP2 SUB PUSH0 DUP4 ADD MSTORE PUSH2 0x2494 DUP2 PUSH2 0x245B JUMP JUMPDEST SWAP1 POP SWAP2 SWAP1 POP JUMP JUMPDEST PUSH32 0x546F6B656E20616D6F756E74206D757374206265206772656174657220746865 PUSH0 DUP3 ADD MSTORE PUSH32 0x6E207A65726F0000000000000000000000000000000000000000000000000000 PUSH1 0x20 DUP3 ADD MSTORE POP JUMP JUMPDEST PUSH0 PUSH2 0x24F5 PUSH1 0x26 DUP4 PUSH2 0x22E7 JUMP JUMPDEST SWAP2 POP PUSH2 0x2500 DUP3 PUSH2 0x249B JUMP JUMPDEST PUSH1 0x40 DUP3 ADD SWAP1 POP SWAP2 SWAP1 POP JUMP JUMPDEST PUSH0 PUSH1 0x20 DUP3 ADD SWAP1 POP DUP2 DUP2 SUB PUSH0 DUP4 ADD MSTORE PUSH2 0x2522 DUP2 PUSH2 0x24E9 JUMP JUMPDEST SWAP1 POP SWAP2 SWAP1 POP JUMP JUMPDEST PUSH32 0x546865206C6F636B20706572696F64206D757374206265206772656174657220 PUSH0 DUP3 ADD MSTORE PUSH32 0x7468656E207A65726F0000000000000000000000000000000000000000000000 PUSH1 0x20 DUP3 ADD MSTORE POP JUMP JUMPDEST PUSH0 PUSH2 0x2583 PUSH1 0x29 DUP4 PUSH2 0x22E7 JUMP JUMPDEST SWAP2 POP PUSH2 0x258E DUP3 PUSH2 0x2529 JUMP JUMPDEST PUSH1 0x40 DUP3 ADD SWAP1 POP SWAP2 SWAP1 POP JUMP JUMPDEST PUSH0 PUSH1 0x20 DUP3 ADD SWAP1 POP DUP2 DUP2 SUB PUSH0 DUP4 ADD MSTORE PUSH2 0x25B0 DUP2 PUSH2 0x2577 JUMP JUMPDEST SWAP1 POP SWAP2 SWAP1 POP JUMP JUMPDEST PUSH0 DUP2 MLOAD SWAP1 POP PUSH2 0x25C5 DUP2 PUSH2 0x1C46 JUMP JUMPDEST SWAP3 SWAP2 POP POP JUMP JUMPDEST PUSH0 PUSH1 0x20 DUP3 DUP5 SUB SLT ISZERO PUSH2 0x25E0 JUMPI PUSH2 0x25DF PUSH2 0x1BCA JUMP JUMPDEST JUMPDEST PUSH0 PUSH2 0x25ED DUP5 DUP3 DUP6 ADD PUSH2 0x25B7 JUMP JUMPDEST SWAP2 POP POP SWAP3 SWAP2 POP POP JUMP JUMPDEST PUSH32 0x4E6F7420656E6F75676820746F6B656E7320746F206C6F636B00000000000000 PUSH0 DUP3 ADD MSTORE POP JUMP JUMPDEST PUSH0 PUSH2 0x262A PUSH1 0x19 DUP4 PUSH2 0x22E7 JUMP JUMPDEST SWAP2 POP PUSH2 0x2635 DUP3 PUSH2 0x25F6 JUMP JUMPDEST PUSH1 0x20 DUP3 ADD SWAP1 POP SWAP2 SWAP1 POP JUMP JUMPDEST PUSH0 PUSH1 0x20 DUP3 ADD SWAP1 POP DUP2 DUP2 SUB PUSH0 DUP4 ADD MSTORE PUSH2 0x2657 DUP2 PUSH2 0x261E JUMP JUMPDEST SWAP1 POP SWAP2 SWAP1 POP JUMP JUMPDEST PUSH32 0x4E487B7100000000000000000000000000000000000000000000000000000000 PUSH0 MSTORE PUSH1 0x11 PUSH1 0x4 MSTORE PUSH1 0x24 PUSH0 REVERT JUMPDEST PUSH0 PUSH2 0x2695 DUP3 PUSH2 0x1C3D JUMP JUMPDEST SWAP2 POP PUSH2 0x26A0 DUP4 PUSH2 0x1C3D JUMP JUMPDEST SWAP3 POP DUP3 DUP3 ADD SWAP1 POP DUP1 DUP3 GT ISZERO PUSH2 0x26B8 JUMPI PUSH2 0x26B7 PUSH2 0x265E JUMP JUMPDEST JUMPDEST SWAP3 SWAP2 POP POP JUMP JUMPDEST PUSH32 0x4E487B7100000000000000000000000000000000000000000000000000000000 PUSH0 MSTORE PUSH1 0x22 PUSH1 0x4 MSTORE PUSH1 0x24 PUSH0 REVERT JUMPDEST PUSH0 PUSH1 0x2 DUP3 DIV SWAP1 POP PUSH1 0x1 DUP3 AND DUP1 PUSH2 0x2702 JUMPI PUSH1 0x7F DUP3 AND SWAP2 POP JUMPDEST PUSH1 0x20 DUP3 LT DUP2 SUB PUSH2 0x2715 JUMPI PUSH2 0x2714 PUSH2 0x26BE JUMP JUMPDEST JUMPDEST POP SWAP2 SWAP1 POP JUMP JUMPDEST PUSH0 DUP2 SWAP1 POP DUP2 PUSH0 MSTORE PUSH1 0x20 PUSH0 KECCAK256 SWAP1 POP SWAP2 SWAP1 POP JUMP JUMPDEST PUSH0 PUSH1 0x20 PUSH1 0x1F DUP4 ADD DIV SWAP1 POP SWAP2 SWAP1 POP JUMP JUMPDEST PUSH0 DUP3 DUP3 SHL SWAP1 POP SWAP3 SWAP2 POP POP JUMP JUMPDEST PUSH0 PUSH1 0x8 DUP4 MUL PUSH2 0x2777 PUSH32 0xFFFFFFFFFFFFFFFFFFFFFFFFFFFFFFFFFFFFFFFFFFFFFFFFFFFFFFFFFFFFFFFF DUP3 PUSH2 0x273C JUMP JUMPDEST PUSH2 0x2781 DUP7 DUP4 PUSH2 0x273C JUMP JUMPDEST SWAP6 POP DUP1 NOT DUP5 AND SWAP4 POP DUP1 DUP7 AND DUP5 OR SWAP3 POP POP POP SWAP4 SWAP3 POP POP POP JUMP JUMPDEST PUSH0 DUP2 SWAP1 POP SWAP2 SWAP1 POP JUMP JUMPDEST PUSH0 PUSH2 0x27BC PUSH2 0x27B7 PUSH2 0x27B2 DUP5 PUSH2 0x1C3D JUMP JUMPDEST PUSH2 0x2799 JUMP JUMPDEST PUSH2 0x1C3D JUMP JUMPDEST SWAP1 POP SWAP2 SWAP1 POP JUMP JUMPDEST PUSH0 DUP2 SWAP1 POP SWAP2 SWAP1 POP JUMP JUMPDEST PUSH2 0x27D5 DUP4 PUSH2 0x27A2 JUMP JUMPDEST PUSH2 0x27E9 PUSH2 0x27E1 DUP3 PUSH2 0x27C3 JUMP JUMPDEST DUP5 DUP5 SLOAD PUSH2 0x2748 JUMP JUMPDEST DUP3 SSTORE POP POP POP POP JUMP JUMPDEST PUSH0 SWAP1 JUMP JUMPDEST PUSH2 0x27FD PUSH2 0x27F1 JUMP JUMPDEST PUSH2 0x2808 DUP2 DUP5 DUP5 PUSH2 0x27CC JUMP JUMPDEST POP POP POP JUMP JUMPDEST JUMPDEST DUP2 DUP2 LT ISZERO PUSH2 0x282B JUMPI PUSH2 0x2820 PUSH0 DUP3 PUSH2 0x27F5 JUMP JUMPDEST PUSH1 0x1 DUP2 ADD SWAP1 POP PUSH2 0x280E JUMP JUMPDEST POP POP JUMP JUMPDEST PUSH1 0x1F DUP3 GT ISZERO PUSH2 0x2870 JUMPI PUSH2 0x2841 DUP2 PUSH2 0x271B JUMP JUMPDEST PUSH2 0x284A DUP5 PUSH2 0x272D JUMP JUMPDEST DUP2 ADD PUSH1 0x20 DUP6 LT ISZERO PUSH2 0x2859 JUMPI DUP2 SWAP1 POP JUMPDEST PUSH2 0x286D PUSH2 0x2865 DUP6 PUSH2 0x272D JUMP JUMPDEST DUP4 ADD DUP3 PUSH2 0x280D JUMP JUMPDEST POP POP JUMPDEST POP POP POP JUMP JUMPDEST PUSH0 DUP3 DUP3 SHR SWAP1 POP SWAP3 SWAP2 POP POP JUMP JUMPDEST PUSH0 PUSH2 0x2890 PUSH0 NOT DUP5 PUSH1 0x8 MUL PUSH2 0x2875 JUMP JUMPDEST NOT DUP1 DUP4 AND SWAP2 POP POP SWAP3 SWAP2 POP POP JUMP JUMPDEST PUSH0 PUSH2 0x28A8 DUP4 DUP4 PUSH2 0x2881 JUMP JUMPDEST SWAP2 POP DUP3 PUSH1 0x2 MUL DUP3 OR SWAP1 POP SWAP3 SWAP2 POP POP JUMP JUMPDEST PUSH2 0x28C1 DUP3 PUSH2 0x2043 JUMP JUMPDEST PUSH8 0xFFFFFFFFFFFFFFFF DUP2 GT ISZERO PUSH2 0x28DA JUMPI PUSH2 0x28D9 PUSH2 0x1CBE JUMP JUMPDEST JUMPDEST PUSH2 0x28E4 DUP3 SLOAD PUSH2 0x26EB JUMP JUMPDEST PUSH2 0x28EF DUP3 DUP3 DUP6 PUSH2 0x282F JUMP JUMPDEST PUSH0 PUSH1 0x20 SWAP1 POP PUSH1 0x1F DUP4 GT PUSH1 0x1 DUP2 EQ PUSH2 0x2920 JUMPI PUSH0 DUP5 ISZERO PUSH2 0x290E JUMPI DUP3 DUP8 ADD MLOAD SWAP1 POP JUMPDEST PUSH2 0x2918 DUP6 DUP3 PUSH2 0x289D JUMP JUMPDEST DUP7 SSTORE POP PUSH2 0x297F JUMP JUMPDEST PUSH1 0x1F NOT DUP5 AND PUSH2 0x292E DUP7 PUSH2 0x271B JUMP JUMPDEST PUSH0 JUMPDEST DUP3 DUP2 LT ISZERO PUSH2 0x2955 JUMPI DUP5 DUP10 ADD MLOAD DUP3 SSTORE PUSH1 0x1 DUP3 ADD SWAP2 POP PUSH1 0x20 DUP6 ADD SWAP5 POP PUSH1 0x20 DUP2 ADD SWAP1 POP PUSH2 0x2930 JUMP JUMPDEST DUP7 DUP4 LT ISZERO PUSH2 0x2972 JUMPI DUP5 DUP10 ADD MLOAD PUSH2 0x296E PUSH1 0x1F DUP10 AND DUP3 PUSH2 0x2881 JUMP JUMPDEST DUP4 SSTORE POP JUMPDEST PUSH1 0x1 PUSH1 0x2 DUP9 MUL ADD DUP9 SSTORE POP POP POP JUMPDEST POP POP POP POP POP POP JUMP JUMPDEST PUSH2 0x2990 DUP2 PUSH2 0x1C70 JUMP JUMPDEST DUP3 MSTORE POP POP JUMP JUMPDEST PUSH0 PUSH1 0xA0 DUP3 ADD SWAP1 POP PUSH2 0x29A9 PUSH0 DUP4 ADD DUP9 PUSH2 0x1F0C JUMP JUMPDEST DUP2 DUP2 SUB PUSH1 0x20 DUP4 ADD MSTORE PUSH2 0x29BB DUP2 DUP8 PUSH2 0x22F7 JUMP JUMPDEST SWAP1 POP PUSH2 0x29CA PUSH1 0x40 DUP4 ADD DUP7 PUSH2 0x2987 JUMP JUMPDEST PUSH2 0x29D7 PUSH1 0x60 DUP4 ADD DUP6 PUSH2 0x1F0C JUMP JUMPDEST PUSH2 0x29E4 PUSH1 0x80 DUP4 ADD DUP5 PUSH2 0x1F0C JUMP JUMPDEST SWAP7 SWAP6 POP POP POP POP POP POP JUMP JUMPDEST PUSH32 0x45544820746F206C6F636B206D75737420612076616C75652067726561746572 PUSH0 DUP3 ADD MSTORE PUSH32 0x207468616E203000000000000000000000000000000000000000000000000000 PUSH1 0x20 DUP3 ADD MSTORE POP JUMP JUMPDEST PUSH0 PUSH2 0x2A48 PUSH1 0x27 DUP4 PUSH2 0x22E7 JUMP JUMPDEST SWAP2 POP PUSH2 0x2A53 DUP3 PUSH2 0x29EE JUMP JUMPDEST PUSH1 0x40 DUP3 ADD SWAP1 POP SWAP2 SWAP1 POP JUMP JUMPDEST PUSH0 PUSH1 0x20 DUP3 ADD SWAP1 POP DUP2 DUP2 SUB PUSH0 DUP4 ADD MSTORE PUSH2 0x2A75 DUP2 PUSH2 0x2A3C JUMP JUMPDEST SWAP1 POP SWAP2 SWAP1 POP JUMP JUMPDEST PUSH32 0x546865206C6F636B706572696F64206D75737420626520677265617465722074 PUSH0 DUP3 ADD MSTORE PUSH32 0x68656E207A65726F000000000000000000000000000000000000000000000000 PUSH1 0x20 DUP3 ADD MSTORE POP JUMP JUMPDEST PUSH0 PUSH2 0x2AD6 PUSH1 0x28 DUP4 PUSH2 0x22E7 JUMP JUMPDEST SWAP2 POP PUSH2 0x2AE1 DUP3 PUSH2 0x2A7C JUMP JUMPDEST PUSH1 0x40 DUP3 ADD SWAP1 POP SWAP2 SWAP1 POP JUMP JUMPDEST PUSH0 PUSH1 0x20 DUP3 ADD SWAP1 POP DUP2 DUP2 SUB PUSH0 DUP4 ADD MSTORE PUSH2 0x2B03 DUP2 PUSH2 0x2ACA JUMP JUMPDEST SWAP1 POP SWAP2 SWAP1 POP JUMP JUMPDEST PUSH32 0x4E487B7100000000000000000000000000000000000000000000000000000000 PUSH0 MSTORE PUSH1 0x32 PUSH1 0x4 MSTORE PUSH1 0x24 PUSH0 REVERT JUMPDEST PUSH0 DUP2 SLOAD PUSH2 0x2B43 DUP2 PUSH2 0x26EB JUMP JUMPDEST PUSH2 0x2B4D DUP2 DUP7 PUSH2 0x22E7 JUMP JUMPDEST SWAP5 POP PUSH1 0x1 DUP3 AND PUSH0 DUP2 EQ PUSH2 0x2B67 JUMPI PUSH1 0x1 DUP2 EQ PUSH2 0x2B7D JUMPI PUSH2 0x2BAF JUMP JUMPDEST PUSH1 0xFF NOT DUP4 AND DUP7 MSTORE DUP2 ISZERO ISZERO PUSH1 0x20 MUL DUP7 ADD SWAP4 POP PUSH2 0x2BAF JUMP JUMPDEST PUSH2 0x2B86 DUP6 PUSH2 0x271B JUMP JUMPDEST PUSH0 JUMPDEST DUP4 DUP2 LT ISZERO PUSH2 0x2BA7 JUMPI DUP2 SLOAD DUP2 DUP10 ADD MSTORE PUSH1 0x1 DUP3 ADD SWAP2 POP PUSH1 0x20 DUP2 ADD SWAP1 POP PUSH2 0x2B88 JUMP JUMPDEST DUP1 DUP9 ADD SWAP6 POP POP POP JUMPDEST POP POP POP SWAP3 SWAP2 POP POP JUMP JUMPDEST PUSH0 PUSH1 0x80 DUP3 ADD SWAP1 POP PUSH2 0x2BCB PUSH0 DUP4 ADD DUP8 PUSH2 0x1F0C JUMP JUMPDEST DUP2 DUP2 SUB PUSH1 0x20 DUP4 ADD MSTORE PUSH2 0x2BDD DUP2 DUP7 PUSH2 0x2B37 JUMP JUMPDEST SWAP1 POP PUSH2 0x2BEC PUSH1 0x40 DUP4 ADD DUP6 PUSH2 0x2987 JUMP JUMPDEST PUSH2 0x2BF9 PUSH1 0x60 DUP4 ADD DUP5 PUSH2 0x1F0C JUMP JUMPDEST SWAP6 SWAP5 POP POP POP POP POP JUMP JUMPDEST PUSH32 0x5468652073706563696669656420617373657420494420697320696E76616C69 PUSH0 DUP3 ADD MSTORE PUSH32 0x642E000000000000000000000000000000000000000000000000000000000000 PUSH1 0x20 DUP3 ADD MSTORE POP JUMP JUMPDEST PUSH0 PUSH2 0x2C5C PUSH1 0x22 DUP4 PUSH2 0x22E7 JUMP JUMPDEST SWAP2 POP PUSH2 0x2C67 DUP3 PUSH2 0x2C02 JUMP JUMPDEST PUSH1 0x40 DUP3 ADD SWAP1 POP SWAP2 SWAP1 POP JUMP JUMPDEST PUSH0 PUSH1 0x20 DUP3 ADD SWAP1 POP DUP2 DUP2 SUB PUSH0 DUP4 ADD MSTORE PUSH2 0x2C89 DUP2 PUSH2 0x2C50 JUMP JUMPDEST SWAP1 POP SWAP2 SWAP1 POP JUMP JUMPDEST PUSH32 0x546865206C6F636B20706572696F6420686173206E6F74207965742065787069 PUSH0 DUP3 ADD MSTORE PUSH32 0x7265642100000000000000000000000000000000000000000000000000000000 PUSH1 0x20 DUP3 ADD MSTORE POP JUMP JUMPDEST PUSH0 PUSH2 0x2CEA PUSH1 0x24 DUP4 PUSH2 0x22E7 JUMP JUMPDEST SWAP2 POP PUSH2 0x2CF5 DUP3 PUSH2 0x2C90 JUMP JUMPDEST PUSH1 0x40 DUP3 ADD SWAP1 POP SWAP2 SWAP1 POP JUMP JUMPDEST PUSH0 PUSH1 0x20 DUP3 ADD SWAP1 POP DUP2 DUP2 SUB PUSH0 DUP4 ADD MSTORE PUSH2 0x2D17 DUP2 PUSH2 0x2CDE JUMP JUMPDEST SWAP1 POP SWAP2 SWAP1 POP JUMP JUMPDEST PUSH0 PUSH1 0x80 DUP3 ADD SWAP1 POP PUSH2 0x2D31 PUSH0 DUP4 ADD DUP8 PUSH2 0x2987 JUMP JUMPDEST PUSH2 0x2D3E PUSH1 0x20 DUP4 ADD DUP7 PUSH2 0x1F0C JUMP JUMPDEST DUP2 DUP2 SUB PUSH1 0x40 DUP4 ADD MSTORE PUSH2 0x2D50 DUP2 DUP6 PUSH2 0x2B37 JUMP JUMPDEST SWAP1 POP PUSH2 0x2D5F PUSH1 0x60 DUP4 ADD DUP5 PUSH2 0x1F0C JUMP JUMPDEST SWAP6 SWAP5 POP POP POP POP POP JUMP JUMPDEST PUSH32 0x417373657473206861766520616C7265616479206265656E2077697468647261 PUSH0 DUP3 ADD MSTORE PUSH32 0x776E210000000000000000000000000000000000000000000000000000000000 PUSH1 0x20 DUP3 ADD MSTORE POP JUMP JUMPDEST PUSH0 PUSH2 0x2DC2 PUSH1 0x23 DUP4 PUSH2 0x22E7 JUMP JUMPDEST SWAP2 POP PUSH2 0x2DCD DUP3 PUSH2 0x2D68 JUMP JUMPDEST PUSH1 0x40 DUP3 ADD SWAP1 POP SWAP2 SWAP1 POP JUMP JUMPDEST PUSH0 PUSH1 0x20 DUP3 ADD SWAP1 POP DUP2 DUP2 SUB PUSH0 DUP4 ADD MSTORE PUSH2 0x2DEF DUP2 PUSH2 0x2DB6 JUMP JUMPDEST SWAP1 POP SWAP2 SWAP1 POP JUMP JUMPDEST PUSH0 PUSH2 0x2E00 DUP3 PUSH2 0x1C3D JUMP JUMPDEST SWAP2 POP PUSH2 0x2E0B DUP4 PUSH2 0x1C3D JUMP JUMPDEST SWAP3 POP DUP3 DUP3 SUB SWAP1 POP DUP2 DUP2 GT ISZERO PUSH2 0x2E23 JUMPI PUSH2 0x2E22 PUSH2 0x265E JUMP JUMPDEST JUMPDEST SWAP3 SWAP2 POP POP JUMP JUMPDEST PUSH32 0x4E6F7420656E6F7567682061737365747320746F207769746864726177210000 PUSH0 DUP3 ADD MSTORE POP JUMP JUMPDEST PUSH0 PUSH2 0x2E5D PUSH1 0x1E DUP4 PUSH2 0x22E7 JUMP JUMPDEST SWAP2 POP PUSH2 0x2E68 DUP3 PUSH2 0x2E29 JUMP JUMPDEST PUSH1 0x20 DUP3 ADD SWAP1 POP SWAP2 SWAP1 POP JUMP JUMPDEST PUSH0 PUSH1 0x20 DUP3 ADD SWAP1 POP DUP2 DUP2 SUB PUSH0 DUP4 ADD MSTORE PUSH2 0x2E8A DUP2 PUSH2 0x2E51 JUMP JUMPDEST SWAP1 POP SWAP2 SWAP1 POP JUMP JUMPDEST PUSH0 DUP2 SWAP1 POP SWAP3 SWAP2 POP POP JUMP JUMPDEST POP JUMP JUMPDEST PUSH0 PUSH2 0x2EA9 PUSH0 DUP4 PUSH2 0x2E91 JUMP JUMPDEST SWAP2 POP PUSH2 0x2EB4 DUP3 PUSH2 0x2E9B JUMP JUMPDEST PUSH0 DUP3 ADD SWAP1 POP SWAP2 SWAP1 POP JUMP JUMPDEST PUSH0 PUSH2 0x2EC8 DUP3 PUSH2 0x2E9E JUMP JUMPDEST SWAP2 POP DUP2 SWAP1 POP SWAP2 SWAP1 POP JUMP JUMPDEST PUSH32 0x455448207472616E73666572206661696C656400000000000000000000000000 PUSH0 DUP3 ADD MSTORE POP JUMP JUMPDEST PUSH0 PUSH2 0x2F06 PUSH1 0x13 DUP4 PUSH2 0x22E7 JUMP JUMPDEST SWAP2 POP PUSH2 0x2F11 DUP3 PUSH2 0x2ED2 JUMP JUMPDEST PUSH1 0x20 DUP3 ADD SWAP1 POP SWAP2 SWAP1 POP JUMP JUMPDEST PUSH0 PUSH1 0x20 DUP3 ADD SWAP1 POP DUP2 DUP2 SUB PUSH0 DUP4 ADD MSTORE PUSH2 0x2F33 DUP2 PUSH2 0x2EFA JUMP JUMPDEST SWAP1 POP SWAP2 SWAP1 POP JUMP JUMPDEST PUSH32 0x45544820746F2061646420746F206C6F636B206D75737420626520616E20616D PUSH0 DUP3 ADD MSTORE PUSH32 0x6F756E742067726561746572207468616E203000000000000000000000000000 PUSH1 0x20 DUP3 ADD MSTORE POP JUMP JUMPDEST PUSH0 PUSH2 0x2F94 PUSH1 0x33 DUP4 PUSH2 0x22E7 JUMP JUMPDEST SWAP2 POP PUSH2 0x2F9F DUP3 PUSH2 0x2F3A JUMP JUMPDEST PUSH1 0x40 DUP3 ADD SWAP1 POP SWAP2 SWAP1 POP JUMP JUMPDEST PUSH0 PUSH1 0x20 DUP3 ADD SWAP1 POP DUP2 DUP2 SUB PUSH0 DUP4 ADD MSTORE PUSH2 0x2FC1 DUP2 PUSH2 0x2F88 JUMP JUMPDEST SWAP1 POP SWAP2 SWAP1 POP JUMP JUMPDEST PUSH0 PUSH1 0x60 DUP3 ADD SWAP1 POP PUSH2 0x2FDB PUSH0 DUP4 ADD DUP7 PUSH2 0x21F5 JUMP JUMPDEST PUSH2 0x2FE8 PUSH1 0x20 DUP4 ADD DUP6 PUSH2 0x21F5 JUMP JUMPDEST PUSH2 0x2FF5 PUSH1 0x40 DUP4 ADD DUP5 PUSH2 0x1F0C JUMP JUMPDEST SWAP5 SWAP4 POP POP POP POP JUMP JUMPDEST PUSH0 PUSH1 0x40 DUP3 ADD SWAP1 POP PUSH2 0x3010 PUSH0 DUP4 ADD DUP6 PUSH2 0x21F5 JUMP JUMPDEST PUSH2 0x301D PUSH1 0x20 DUP4 ADD DUP5 PUSH2 0x1F0C JUMP JUMPDEST SWAP4 SWAP3 POP POP POP JUMP INVALID LOG2 PUSH5 0x6970667358 0x22 SLT KECCAK256 CALLDATASIZE 0x4C MSTORE8 BALANCE GT PUSH20 0x3CAB015721B208B2FCA998AD980787016E33473 SSTORE 0xA9 PUSH5 0xF8871C6473 PUSH16 0x6C634300081A00330000000000000000 "
				},
				"gasEstimates": {
					"creation": {
						"codeDepositCost": "2475600",
						"executionCost": "infinite",
						"totalCost": "infinite"
					},
					"external": {
						"addToLockedETH(uint8,uint32)": "infinite",
						"addToLockedTokens(address,uint32,uint256,uint8)": "infinite",
						"extendLockPeriod(uint32,uint8,uint256)": "infinite",
						"getContractETHBalance()": "357",
						"getContractTokenBalance(address)": "infinite",
						"getUserLocks(uint8)": "infinite",
						"lockETH(uint8,uint256,string)": "infinite",
						"lockToken(address,uint256,uint8,uint256,string)": "infinite",
						"owner()": "2560",
						"renounceOwnership()": "infinite",
						"transferAsset(uint32,uint8,uint256)": "infinite",
						"transferOwnership(address)": "infinite",
						"userLockedAssets(address,uint8,uint256)": "infinite"
					}
				},
				"methodIdentifiers": {
					"addToLockedETH(uint8,uint32)": "ecaa9d05",
					"addToLockedTokens(address,uint32,uint256,uint8)": "2d8fefc2",
					"extendLockPeriod(uint32,uint8,uint256)": "8de8107b",
					"getContractETHBalance()": "8c89a0ad",
					"getContractTokenBalance(address)": "14205e28",
					"getUserLocks(uint8)": "3b958c38",
					"lockETH(uint8,uint256,string)": "13a2e884",
					"lockToken(address,uint256,uint8,uint256,string)": "0f1419b5",
					"owner()": "8da5cb5b",
					"renounceOwnership()": "715018a6",
					"transferAsset(uint32,uint8,uint256)": "9e6c3ff2",
					"transferOwnership(address)": "f2fde38b",
					"userLockedAssets(address,uint8,uint256)": "8e06b906"
				}
			},
			"storageLayout": {
				"storage": [
					{
						"astId": 8,
						"contract": "contracts/Fvkry.sol:Fvkry",
						"label": "_owner",
						"offset": 0,
						"slot": "0",
						"type": "t_address"
					},
					{
						"astId": 765,
						"contract": "contracts/Fvkry.sol:Fvkry",
						"label": "_status",
						"offset": 0,
						"slot": "1",
						"type": "t_uint256"
					},
					{
						"astId": 870,
						"contract": "contracts/Fvkry.sol:Fvkry",
						"label": "userLockedAssets",
						"offset": 0,
						"slot": "2",
						"type": "t_mapping(t_address,t_mapping(t_uint8,t_array(t_struct(Lock)862_storage)dyn_storage))"
					}
				],
				"types": {
					"t_address": {
						"encoding": "inplace",
						"label": "address",
						"numberOfBytes": "20"
					},
					"t_array(t_struct(Lock)862_storage)dyn_storage": {
						"base": "t_struct(Lock)862_storage",
						"encoding": "dynamic_array",
						"label": "struct Fvkry.Lock[]",
						"numberOfBytes": "32"
					},
					"t_bool": {
						"encoding": "inplace",
						"label": "bool",
						"numberOfBytes": "1"
					},
					"t_mapping(t_address,t_mapping(t_uint8,t_array(t_struct(Lock)862_storage)dyn_storage))": {
						"encoding": "mapping",
						"key": "t_address",
						"label": "mapping(address => mapping(uint8 => struct Fvkry.Lock[]))",
						"numberOfBytes": "32",
						"value": "t_mapping(t_uint8,t_array(t_struct(Lock)862_storage)dyn_storage)"
					},
					"t_mapping(t_uint8,t_array(t_struct(Lock)862_storage)dyn_storage)": {
						"encoding": "mapping",
						"key": "t_uint8",
						"label": "mapping(uint8 => struct Fvkry.Lock[])",
						"numberOfBytes": "32",
						"value": "t_array(t_struct(Lock)862_storage)dyn_storage"
					},
					"t_string_storage": {
						"encoding": "bytes",
						"label": "string",
						"numberOfBytes": "32"
					},
					"t_struct(Lock)862_storage": {
						"encoding": "inplace",
						"label": "struct Fvkry.Lock",
						"members": [
							{
								"astId": 851,
								"contract": "contracts/Fvkry.sol:Fvkry",
								"label": "token",
								"offset": 0,
								"slot": "0",
								"type": "t_address"
							},
							{
								"astId": 853,
								"contract": "contracts/Fvkry.sol:Fvkry",
								"label": "amount",
								"offset": 0,
								"slot": "1",
								"type": "t_uint256"
							},
							{
								"astId": 855,
								"contract": "contracts/Fvkry.sol:Fvkry",
								"label": "lockEndTime",
								"offset": 0,
								"slot": "2",
								"type": "t_uint256"
							},
							{
								"astId": 857,
								"contract": "contracts/Fvkry.sol:Fvkry",
								"label": "title",
								"offset": 0,
								"slot": "3",
								"type": "t_string_storage"
							},
							{
								"astId": 859,
								"contract": "contracts/Fvkry.sol:Fvkry",
								"label": "withdrawn",
								"offset": 0,
								"slot": "4",
								"type": "t_bool"
							},
							{
								"astId": 861,
								"contract": "contracts/Fvkry.sol:Fvkry",
								"label": "isNative",
								"offset": 1,
								"slot": "4",
								"type": "t_bool"
							}
						],
						"numberOfBytes": "160"
					},
					"t_uint256": {
						"encoding": "inplace",
						"label": "uint256",
						"numberOfBytes": "32"
					},
					"t_uint8": {
						"encoding": "inplace",
						"label": "uint8",
						"numberOfBytes": "1"
					}
				}
			},
			"userdoc": {
				"kind": "user",
				"methods": {},
				"version": 1
			}
		}
	}
}