{
	"contracts/Fvkry.sol": {
		"Fvkry": {
			"abi": [
				{
					"inputs": [],
					"stateMutability": "nonpayable",
					"type": "constructor"
				},
				{
					"inputs": [
						{
							"internalType": "address",
							"name": "owner",
							"type": "address"
						}
					],
					"name": "OwnableInvalidOwner",
					"type": "error"
				},
				{
					"inputs": [
						{
							"internalType": "address",
							"name": "account",
							"type": "address"
						}
					],
					"name": "OwnableUnauthorizedAccount",
					"type": "error"
				},
				{
					"inputs": [],
					"name": "ReentrancyGuardReentrantCall",
					"type": "error"
				},
				{
					"inputs": [
						{
							"internalType": "address",
							"name": "token",
							"type": "address"
						}
					],
					"name": "SafeERC20FailedOperation",
					"type": "error"
				},
				{
					"anonymous": false,
					"inputs": [
						{
							"indexed": true,
							"internalType": "address",
							"name": "token",
							"type": "address"
						},
						{
							"indexed": false,
							"internalType": "uint256",
							"name": "amount",
							"type": "uint256"
						},
						{
							"indexed": false,
							"internalType": "uint8",
							"name": "vault",
							"type": "uint8"
						},
						{
							"indexed": false,
							"internalType": "uint256",
							"name": "timestamp",
							"type": "uint256"
						}
					],
					"name": "AssetAdded",
					"type": "event"
				},
				{
					"anonymous": false,
					"inputs": [
						{
							"indexed": true,
							"internalType": "address",
							"name": "token",
							"type": "address"
						},
						{
							"indexed": false,
							"internalType": "uint256",
							"name": "amount",
							"type": "uint256"
						},
						{
							"indexed": false,
							"internalType": "uint8",
							"name": "vault",
							"type": "uint8"
						},
						{
							"indexed": false,
							"internalType": "uint256",
							"name": "lockEndTime",
							"type": "uint256"
						},
						{
							"indexed": false,
							"internalType": "uint256",
							"name": "timestamp",
							"type": "uint256"
						}
					],
					"name": "AssetLocked",
					"type": "event"
				},
				{
					"anonymous": false,
					"inputs": [
						{
							"indexed": true,
							"internalType": "address",
							"name": "token",
							"type": "address"
						},
						{
							"indexed": false,
							"internalType": "uint256",
							"name": "amount",
							"type": "uint256"
						},
						{
							"indexed": false,
							"internalType": "uint8",
							"name": "vault",
							"type": "uint8"
						},
						{
							"indexed": false,
							"internalType": "uint256",
							"name": "timestamp",
							"type": "uint256"
						}
					],
					"name": "AssetTransfered",
					"type": "event"
				},
				{
					"anonymous": false,
					"inputs": [
						{
							"indexed": true,
							"internalType": "address",
							"name": "previousOwner",
							"type": "address"
						},
						{
							"indexed": true,
							"internalType": "address",
							"name": "newOwner",
							"type": "address"
						}
					],
					"name": "OwnershipTransferred",
					"type": "event"
				},
				{
					"inputs": [
						{
							"internalType": "uint8",
							"name": "_vault",
							"type": "uint8"
						},
						{
							"internalType": "uint32",
							"name": "_assetID",
							"type": "uint32"
						}
					],
					"name": "addToLockedETH",
					"outputs": [],
					"stateMutability": "payable",
					"type": "function"
				},
				{
					"inputs": [],
					"name": "getContractETHBalance",
					"outputs": [
						{
							"internalType": "uint256",
							"name": "",
							"type": "uint256"
						}
					],
					"stateMutability": "view",
					"type": "function"
				},
				{
					"inputs": [
						{
							"internalType": "contract IERC20",
							"name": "token",
							"type": "address"
						}
					],
					"name": "getContractTokenBalance",
					"outputs": [
						{
							"internalType": "uint256",
							"name": "",
							"type": "uint256"
						}
					],
					"stateMutability": "view",
					"type": "function"
				},
				{
					"inputs": [
						{
							"internalType": "uint8",
							"name": "_vault",
							"type": "uint8"
						}
					],
					"name": "getUserLocks",
					"outputs": [
						{
							"components": [
								{
									"internalType": "address",
									"name": "token",
									"type": "address"
								},
								{
									"internalType": "uint256",
									"name": "amount",
									"type": "uint256"
								},
								{
									"internalType": "uint256",
									"name": "lockEndTime",
									"type": "uint256"
								},
								{
									"internalType": "uint8",
									"name": "vault",
									"type": "uint8"
								},
								{
									"internalType": "bool",
									"name": "withdrawn",
									"type": "bool"
								},
								{
									"internalType": "bool",
									"name": "isNative",
									"type": "bool"
								}
							],
							"internalType": "struct Fvkry.Lock[]",
							"name": "",
							"type": "tuple[]"
						}
					],
					"stateMutability": "view",
					"type": "function"
				},
				{
					"inputs": [
						{
							"internalType": "uint8",
							"name": "_vault",
							"type": "uint8"
						},
						{
							"internalType": "uint256",
							"name": "_lockperiod",
							"type": "uint256"
						}
					],
					"name": "lockETH",
					"outputs": [],
					"stateMutability": "payable",
					"type": "function"
				},
				{
					"inputs": [
						{
							"internalType": "contract IERC20",
							"name": "_token",
							"type": "address"
						},
						{
							"internalType": "uint256",
							"name": "_amount",
							"type": "uint256"
						},
						{
							"internalType": "uint8",
							"name": "_vault",
							"type": "uint8"
						},
						{
							"internalType": "uint256",
							"name": "_lockperiod",
							"type": "uint256"
						}
					],
					"name": "lockToken",
					"outputs": [],
					"stateMutability": "nonpayable",
					"type": "function"
				},
				{
					"inputs": [],
					"name": "owner",
					"outputs": [
						{
							"internalType": "address",
							"name": "",
							"type": "address"
						}
					],
					"stateMutability": "view",
					"type": "function"
				},
				{
					"inputs": [],
					"name": "renounceOwnership",
					"outputs": [],
					"stateMutability": "nonpayable",
					"type": "function"
				},
				{
					"inputs": [
						{
							"internalType": "uint32",
							"name": "_assetId",
							"type": "uint32"
						},
						{
							"internalType": "uint8",
							"name": "_vault",
							"type": "uint8"
						},
						{
							"internalType": "uint256",
							"name": "_amount",
							"type": "uint256"
						}
					],
					"name": "transferAsset",
					"outputs": [],
					"stateMutability": "nonpayable",
					"type": "function"
				},
				{
					"inputs": [
						{
							"internalType": "address",
							"name": "newOwner",
							"type": "address"
						}
					],
					"name": "transferOwnership",
					"outputs": [],
					"stateMutability": "nonpayable",
					"type": "function"
				},
				{
					"inputs": [
						{
							"internalType": "address",
							"name": "",
							"type": "address"
						},
						{
							"internalType": "uint8",
							"name": "",
							"type": "uint8"
						},
						{
							"internalType": "uint256",
							"name": "",
							"type": "uint256"
						}
					],
					"name": "userLockedAssets",
					"outputs": [
						{
							"internalType": "address",
							"name": "token",
							"type": "address"
						},
						{
							"internalType": "uint256",
							"name": "amount",
							"type": "uint256"
						},
						{
							"internalType": "uint256",
							"name": "lockEndTime",
							"type": "uint256"
						},
						{
							"internalType": "uint8",
							"name": "vault",
							"type": "uint8"
						},
						{
							"internalType": "bool",
							"name": "withdrawn",
							"type": "bool"
						},
						{
							"internalType": "bool",
							"name": "isNative",
							"type": "bool"
						}
					],
					"stateMutability": "view",
					"type": "function"
				}
			],
			"devdoc": {
				"errors": {
					"OwnableInvalidOwner(address)": [
						{
							"details": "The owner is not a valid owner account. (eg. `address(0)`)"
						}
					],
					"OwnableUnauthorizedAccount(address)": [
						{
							"details": "The caller account is not authorized to perform an operation."
						}
					],
					"ReentrancyGuardReentrantCall()": [
						{
							"details": "Unauthorized reentrant call."
						}
					],
					"SafeERC20FailedOperation(address)": [
						{
							"details": "An operation with an ERC-20 token failed."
						}
					]
				},
				"kind": "dev",
				"methods": {
					"owner()": {
						"details": "Returns the address of the current owner."
					},
					"renounceOwnership()": {
						"details": "Leaves the contract without owner. It will not be possible to call `onlyOwner` functions. Can only be called by the current owner. NOTE: Renouncing ownership will leave the contract without an owner, thereby disabling any functionality that is only available to the owner."
					},
					"transferOwnership(address)": {
						"details": "Transfers ownership of the contract to a new account (`newOwner`). Can only be called by the current owner."
					}
				},
				"version": 1
			},
			"evm": {
				"assembly": "    /* \"contracts/Fvkry.sol\":305:5086  contract Fvkry is Ownable, ReentrancyGuard {... */\n  mstore(0x40, 0x80)\n    /* \"contracts/Fvkry.sol\":977:1013  constructor() Ownable(msg.sender) {} */\n  callvalue\n  dup1\n  iszero\n  tag_1\n  jumpi\n  0x00\n  dup1\n  revert\ntag_1:\n  pop\n    /* \"contracts/Fvkry.sol\":999:1009  msg.sender */\n  caller\n    /* \"@openzeppelin/contracts/access/Ownable.sol\":1297:1298  0 */\n  0x00\n    /* \"@openzeppelin/contracts/access/Ownable.sol\":1273:1299  initialOwner == address(0) */\n  0xffffffffffffffffffffffffffffffffffffffff\n  and\n    /* \"@openzeppelin/contracts/access/Ownable.sol\":1273:1285  initialOwner */\n  dup2\n    /* \"@openzeppelin/contracts/access/Ownable.sol\":1273:1299  initialOwner == address(0) */\n  0xffffffffffffffffffffffffffffffffffffffff\n  and\n  sub\n    /* \"@openzeppelin/contracts/access/Ownable.sol\":1269:1364  if (initialOwner == address(0)) {... */\n  tag_6\n  jumpi\n    /* \"@openzeppelin/contracts/access/Ownable.sol\":1350:1351  0 */\n  0x00\n    /* \"@openzeppelin/contracts/access/Ownable.sol\":1322:1353  OwnableInvalidOwner(address(0)) */\n  mload(0x40)\n  0x1e4fbdf700000000000000000000000000000000000000000000000000000000\n  dup2\n  mstore\n  0x04\n  add\n  tag_7\n  swap2\n  swap1\n  tag_8\n  jump\t// in\ntag_7:\n  mload(0x40)\n  dup1\n  swap2\n  sub\n  swap1\n  revert\n    /* \"@openzeppelin/contracts/access/Ownable.sol\":1269:1364  if (initialOwner == address(0)) {... */\ntag_6:\n    /* \"@openzeppelin/contracts/access/Ownable.sol\":1373:1405  _transferOwnership(initialOwner) */\n  tag_9\n    /* \"@openzeppelin/contracts/access/Ownable.sol\":1392:1404  initialOwner */\n  dup2\n    /* \"@openzeppelin/contracts/access/Ownable.sol\":1373:1391  _transferOwnership */\n  shl(0x20, tag_10)\n    /* \"@openzeppelin/contracts/access/Ownable.sol\":1373:1405  _transferOwnership(initialOwner) */\n  0x20\n  shr\n  jump\t// in\ntag_9:\n    /* \"@openzeppelin/contracts/access/Ownable.sol\":1225:1412  constructor(address initialOwner) {... */\n  pop\n    /* \"@openzeppelin/contracts/utils/ReentrancyGuard.sol\":1857:1858  1 */\n  0x01\n    /* \"@openzeppelin/contracts/utils/ReentrancyGuard.sol\":2061:2068  _status */\n  dup1\n    /* \"@openzeppelin/contracts/utils/ReentrancyGuard.sol\":2061:2082  _status = NOT_ENTERED */\n  dup2\n  swap1\n  sstore\n  pop\n    /* \"contracts/Fvkry.sol\":305:5086  contract Fvkry is Ownable, ReentrancyGuard {... */\n  jump(tag_13)\n    /* \"@openzeppelin/contracts/access/Ownable.sol\":2912:3099  function _transferOwnership(address newOwner) internal virtual {... */\ntag_10:\n    /* \"@openzeppelin/contracts/access/Ownable.sol\":2985:3001  address oldOwner */\n  0x00\n    /* \"@openzeppelin/contracts/access/Ownable.sol\":3004:3010  _owner */\n  dup1\n  0x00\n  swap1\n  sload\n  swap1\n  0x0100\n  exp\n  swap1\n  div\n  0xffffffffffffffffffffffffffffffffffffffff\n  and\n    /* \"@openzeppelin/contracts/access/Ownable.sol\":2985:3010  address oldOwner = _owner */\n  swap1\n  pop\n    /* \"@openzeppelin/contracts/access/Ownable.sol\":3029:3037  newOwner */\n  dup2\n    /* \"@openzeppelin/contracts/access/Ownable.sol\":3020:3026  _owner */\n  0x00\n  dup1\n    /* \"@openzeppelin/contracts/access/Ownable.sol\":3020:3037  _owner = newOwner */\n  0x0100\n  exp\n  dup2\n  sload\n  dup2\n  0xffffffffffffffffffffffffffffffffffffffff\n  mul\n  not\n  and\n  swap1\n  dup4\n  0xffffffffffffffffffffffffffffffffffffffff\n  and\n  mul\n  or\n  swap1\n  sstore\n  pop\n    /* \"@openzeppelin/contracts/access/Ownable.sol\":3083:3091  newOwner */\n  dup2\n    /* \"@openzeppelin/contracts/access/Ownable.sol\":3052:3092  OwnershipTransferred(oldOwner, newOwner) */\n  0xffffffffffffffffffffffffffffffffffffffff\n  and\n    /* \"@openzeppelin/contracts/access/Ownable.sol\":3073:3081  oldOwner */\n  dup2\n    /* \"@openzeppelin/contracts/access/Ownable.sol\":3052:3092  OwnershipTransferred(oldOwner, newOwner) */\n  0xffffffffffffffffffffffffffffffffffffffff\n  and\n  0x8be0079c531659141344cd1fd0a4f28419497f9722a3daafe3b4186f6b6457e0\n  mload(0x40)\n  mload(0x40)\n  dup1\n  swap2\n  sub\n  swap1\n  log3\n    /* \"@openzeppelin/contracts/access/Ownable.sol\":2975:3099  {... */\n  pop\n    /* \"@openzeppelin/contracts/access/Ownable.sol\":2912:3099  function _transferOwnership(address newOwner) internal virtual {... */\n  pop\n  jump\t// out\n    /* \"#utility.yul\":7:133   */\ntag_15:\n    /* \"#utility.yul\":44:51   */\n  0x00\n    /* \"#utility.yul\":84:126   */\n  0xffffffffffffffffffffffffffffffffffffffff\n    /* \"#utility.yul\":77:82   */\n  dup3\n    /* \"#utility.yul\":73:127   */\n  and\n    /* \"#utility.yul\":62:127   */\n  swap1\n  pop\n    /* \"#utility.yul\":7:133   */\n  swap2\n  swap1\n  pop\n  jump\t// out\n    /* \"#utility.yul\":139:235   */\ntag_16:\n    /* \"#utility.yul\":176:183   */\n  0x00\n    /* \"#utility.yul\":205:229   */\n  tag_21\n    /* \"#utility.yul\":223:228   */\n  dup3\n    /* \"#utility.yul\":205:229   */\n  tag_15\n  jump\t// in\ntag_21:\n    /* \"#utility.yul\":194:229   */\n  swap1\n  pop\n    /* \"#utility.yul\":139:235   */\n  swap2\n  swap1\n  pop\n  jump\t// out\n    /* \"#utility.yul\":241:359   */\ntag_17:\n    /* \"#utility.yul\":328:352   */\n  tag_23\n    /* \"#utility.yul\":346:351   */\n  dup2\n    /* \"#utility.yul\":328:352   */\n  tag_16\n  jump\t// in\ntag_23:\n    /* \"#utility.yul\":323:326   */\n  dup3\n    /* \"#utility.yul\":316:353   */\n  mstore\n    /* \"#utility.yul\":241:359   */\n  pop\n  pop\n  jump\t// out\n    /* \"#utility.yul\":365:587   */\ntag_8:\n    /* \"#utility.yul\":458:462   */\n  0x00\n    /* \"#utility.yul\":496:498   */\n  0x20\n    /* \"#utility.yul\":485:494   */\n  dup3\n    /* \"#utility.yul\":481:499   */\n  add\n    /* \"#utility.yul\":473:499   */\n  swap1\n  pop\n    /* \"#utility.yul\":509:580   */\n  tag_25\n    /* \"#utility.yul\":577:578   */\n  0x00\n    /* \"#utility.yul\":566:575   */\n  dup4\n    /* \"#utility.yul\":562:579   */\n  add\n    /* \"#utility.yul\":553:559   */\n  dup5\n    /* \"#utility.yul\":509:580   */\n  tag_17\n  jump\t// in\ntag_25:\n    /* \"#utility.yul\":365:587   */\n  swap3\n  swap2\n  pop\n  pop\n  jump\t// out\n    /* \"contracts/Fvkry.sol\":305:5086  contract Fvkry is Ownable, ReentrancyGuard {... */\ntag_13:\n  dataSize(sub_0)\n  dup1\n  dataOffset(sub_0)\n  0x00\n  codecopy\n  0x00\n  return\nstop\n\nsub_0: assembly {\n        /* \"contracts/Fvkry.sol\":305:5086  contract Fvkry is Ownable, ReentrancyGuard {... */\n      mstore(0x40, 0x80)\n      jumpi(tag_1, lt(calldatasize, 0x04))\n      shr(0xe0, calldataload(0x00))\n      dup1\n      0x8c89a0ad\n      gt\n      tag_13\n      jumpi\n      dup1\n      0x8c89a0ad\n      eq\n      tag_7\n      jumpi\n      dup1\n      0x8da5cb5b\n      eq\n      tag_8\n      jumpi\n      dup1\n      0x8e06b906\n      eq\n      tag_9\n      jumpi\n      dup1\n      0x9e6c3ff2\n      eq\n      tag_10\n      jumpi\n      dup1\n      0xecaa9d05\n      eq\n      tag_11\n      jumpi\n      dup1\n      0xf2fde38b\n      eq\n      tag_12\n      jumpi\n      jump(tag_1)\n    tag_13:\n      dup1\n      0x14205e28\n      eq\n      tag_2\n      jumpi\n      dup1\n      0x3b958c38\n      eq\n      tag_3\n      jumpi\n      dup1\n      0x4ae39e3e\n      eq\n      tag_4\n      jumpi\n      dup1\n      0x5c41ed7c\n      eq\n      tag_5\n      jumpi\n      dup1\n      0x715018a6\n      eq\n      tag_6\n      jumpi\n    tag_1:\n      0x00\n      dup1\n      revert\n        /* \"contracts/Fvkry.sol\":4654:4789  function getContractTokenBalance(IERC20 token) external view returns (uint256) {... */\n    tag_2:\n      callvalue\n      dup1\n      iszero\n      tag_14\n      jumpi\n      0x00\n      dup1\n      revert\n    tag_14:\n      pop\n      tag_15\n      0x04\n      dup1\n      calldatasize\n      sub\n      dup2\n      add\n      swap1\n      tag_16\n      swap2\n      swap1\n      tag_17\n      jump\t// in\n    tag_16:\n      tag_18\n      jump\t// in\n    tag_15:\n      mload(0x40)\n      tag_19\n      swap2\n      swap1\n      tag_20\n      jump\t// in\n    tag_19:\n      mload(0x40)\n      dup1\n      swap2\n      sub\n      swap1\n      return\n        /* \"contracts/Fvkry.sol\":4947:5081  function getUserLocks(uint8 _vault) public view returns (Lock[] memory) {... */\n    tag_3:\n      callvalue\n      dup1\n      iszero\n      tag_21\n      jumpi\n      0x00\n      dup1\n      revert\n    tag_21:\n      pop\n      tag_22\n      0x04\n      dup1\n      calldatasize\n      sub\n      dup2\n      add\n      swap1\n      tag_23\n      swap2\n      swap1\n      tag_24\n      jump\t// in\n    tag_23:\n      tag_25\n      jump\t// in\n    tag_22:\n      mload(0x40)\n      tag_26\n      swap2\n      swap1\n      tag_27\n      jump\t// in\n    tag_26:\n      mload(0x40)\n      dup1\n      swap2\n      sub\n      swap1\n      return\n        /* \"contracts/Fvkry.sol\":1037:1817  function lockETH(uint8 _vault, uint256 _lockperiod) external payable nonReentrant {... */\n    tag_4:\n      tag_28\n      0x04\n      dup1\n      calldatasize\n      sub\n      dup2\n      add\n      swap1\n      tag_29\n      swap2\n      swap1\n      tag_30\n      jump\t// in\n    tag_29:\n      tag_31\n      jump\t// in\n    tag_28:\n      stop\n        /* \"contracts/Fvkry.sol\":2240:3309  function lockToken (IERC20 _token, uint256 _amount, uint8 _vault, uint256 _lockperiod) external nonReentrant {... */\n    tag_5:\n      callvalue\n      dup1\n      iszero\n      tag_32\n      jumpi\n      0x00\n      dup1\n      revert\n    tag_32:\n      pop\n      tag_33\n      0x04\n      dup1\n      calldatasize\n      sub\n      dup2\n      add\n      swap1\n      tag_34\n      swap2\n      swap1\n      tag_35\n      jump\t// in\n    tag_34:\n      tag_36\n      jump\t// in\n    tag_33:\n      stop\n        /* \"@openzeppelin/contracts/access/Ownable.sol\":2293:2394  function renounceOwnership() public virtual onlyOwner {... */\n    tag_6:\n      callvalue\n      dup1\n      iszero\n      tag_37\n      jumpi\n      0x00\n      dup1\n      revert\n    tag_37:\n      pop\n      tag_38\n      tag_39\n      jump\t// in\n    tag_38:\n      stop\n        /* \"contracts/Fvkry.sol\":4797:4909  function getContractETHBalance() external view returns (uint256) {... */\n    tag_7:\n      callvalue\n      dup1\n      iszero\n      tag_40\n      jumpi\n      0x00\n      dup1\n      revert\n    tag_40:\n      pop\n      tag_41\n      tag_42\n      jump\t// in\n    tag_41:\n      mload(0x40)\n      tag_43\n      swap2\n      swap1\n      tag_20\n      jump\t// in\n    tag_43:\n      mload(0x40)\n      dup1\n      swap2\n      sub\n      swap1\n      return\n        /* \"@openzeppelin/contracts/access/Ownable.sol\":1638:1723  function owner() public view virtual returns (address) {... */\n    tag_8:\n      callvalue\n      dup1\n      iszero\n      tag_44\n      jumpi\n      0x00\n      dup1\n      revert\n    tag_44:\n      pop\n      tag_45\n      tag_46\n      jump\t// in\n    tag_45:\n      mload(0x40)\n      tag_47\n      swap2\n      swap1\n      tag_48\n      jump\t// in\n    tag_47:\n      mload(0x40)\n      dup1\n      swap2\n      sub\n      swap1\n      return\n        /* \"contracts/Fvkry.sol\":572:643  mapping  (address => mapping (uint8 => Lock[])) public userLockedAssets */\n    tag_9:\n      callvalue\n      dup1\n      iszero\n      tag_49\n      jumpi\n      0x00\n      dup1\n      revert\n    tag_49:\n      pop\n      tag_50\n      0x04\n      dup1\n      calldatasize\n      sub\n      dup2\n      add\n      swap1\n      tag_51\n      swap2\n      swap1\n      tag_52\n      jump\t// in\n    tag_51:\n      tag_53\n      jump\t// in\n    tag_50:\n      mload(0x40)\n      tag_54\n      swap7\n      swap6\n      swap5\n      swap4\n      swap3\n      swap2\n      swap1\n      tag_55\n      jump\t// in\n    tag_54:\n      mload(0x40)\n      dup1\n      swap2\n      sub\n      swap1\n      return\n        /* \"contracts/Fvkry.sol\":3340:4620  function transferAsset( uint32 _assetId,uint8 _vault, uint256 _amount) external  nonReentrant {... */\n    tag_10:\n      callvalue\n      dup1\n      iszero\n      tag_56\n      jumpi\n      0x00\n      dup1\n      revert\n    tag_56:\n      pop\n      tag_57\n      0x04\n      dup1\n      calldatasize\n      sub\n      dup2\n      add\n      swap1\n      tag_58\n      swap2\n      swap1\n      tag_59\n      jump\t// in\n    tag_58:\n      tag_60\n      jump\t// in\n    tag_57:\n      stop\n        /* \"contracts/Fvkry.sol\":1825:2207  function addToLockedETH(uint8 _vault, uint32 _assetID) external payable  nonReentrant {... */\n    tag_11:\n      tag_61\n      0x04\n      dup1\n      calldatasize\n      sub\n      dup2\n      add\n      swap1\n      tag_62\n      swap2\n      swap1\n      tag_63\n      jump\t// in\n    tag_62:\n      tag_64\n      jump\t// in\n    tag_61:\n      stop\n        /* \"@openzeppelin/contracts/access/Ownable.sol\":2543:2758  function transferOwnership(address newOwner) public virtual onlyOwner {... */\n    tag_12:\n      callvalue\n      dup1\n      iszero\n      tag_65\n      jumpi\n      0x00\n      dup1\n      revert\n    tag_65:\n      pop\n      tag_66\n      0x04\n      dup1\n      calldatasize\n      sub\n      dup2\n      add\n      swap1\n      tag_67\n      swap2\n      swap1\n      tag_68\n      jump\t// in\n    tag_67:\n      tag_69\n      jump\t// in\n    tag_66:\n      stop\n        /* \"contracts/Fvkry.sol\":4654:4789  function getContractTokenBalance(IERC20 token) external view returns (uint256) {... */\n    tag_18:\n        /* \"contracts/Fvkry.sol\":4724:4731  uint256 */\n      0x00\n        /* \"contracts/Fvkry.sol\":4751:4756  token */\n      dup2\n        /* \"contracts/Fvkry.sol\":4751:4766  token.balanceOf */\n      0xffffffffffffffffffffffffffffffffffffffff\n      and\n      0x70a08231\n        /* \"contracts/Fvkry.sol\":4775:4779  this */\n      address\n        /* \"contracts/Fvkry.sol\":4751:4781  token.balanceOf(address(this)) */\n      mload(0x40)\n      dup3\n      0xffffffff\n      and\n      0xe0\n      shl\n      dup2\n      mstore\n      0x04\n      add\n      tag_71\n      swap2\n      swap1\n      tag_48\n      jump\t// in\n    tag_71:\n      0x20\n      mload(0x40)\n      dup1\n      dup4\n      sub\n      dup2\n      dup7\n      gas\n      staticcall\n      iszero\n      dup1\n      iszero\n      tag_73\n      jumpi\n      returndatasize\n      0x00\n      dup1\n      returndatacopy\n      revert(0x00, returndatasize)\n    tag_73:\n      pop\n      pop\n      pop\n      pop\n      mload(0x40)\n      returndatasize\n      not(0x1f)\n      0x1f\n      dup3\n      add\n      and\n      dup3\n      add\n      dup1\n      0x40\n      mstore\n      pop\n      dup2\n      add\n      swap1\n      tag_74\n      swap2\n      swap1\n      tag_75\n      jump\t// in\n    tag_74:\n        /* \"contracts/Fvkry.sol\":4744:4781  return token.balanceOf(address(this)) */\n      swap1\n      pop\n        /* \"contracts/Fvkry.sol\":4654:4789  function getContractTokenBalance(IERC20 token) external view returns (uint256) {... */\n      swap2\n      swap1\n      pop\n      jump\t// out\n        /* \"contracts/Fvkry.sol\":4947:5081  function getUserLocks(uint8 _vault) public view returns (Lock[] memory) {... */\n    tag_25:\n        /* \"contracts/Fvkry.sol\":5004:5017  Lock[] memory */\n      0x60\n        /* \"contracts/Fvkry.sol\":5037:5053  userLockedAssets */\n      0x02\n        /* \"contracts/Fvkry.sol\":5037:5065  userLockedAssets[msg.sender] */\n      0x00\n        /* \"contracts/Fvkry.sol\":5054:5064  msg.sender */\n      caller\n        /* \"contracts/Fvkry.sol\":5037:5065  userLockedAssets[msg.sender] */\n      0xffffffffffffffffffffffffffffffffffffffff\n      and\n      0xffffffffffffffffffffffffffffffffffffffff\n      and\n      dup2\n      mstore\n      0x20\n      add\n      swap1\n      dup2\n      mstore\n      0x20\n      add\n      0x00\n      keccak256\n        /* \"contracts/Fvkry.sol\":5037:5073  userLockedAssets[msg.sender][_vault] */\n      0x00\n        /* \"contracts/Fvkry.sol\":5066:5072  _vault */\n      dup4\n        /* \"contracts/Fvkry.sol\":5037:5073  userLockedAssets[msg.sender][_vault] */\n      0xff\n      and\n      0xff\n      and\n      dup2\n      mstore\n      0x20\n      add\n      swap1\n      dup2\n      mstore\n      0x20\n      add\n      0x00\n      keccak256\n        /* \"contracts/Fvkry.sol\":5030:5073  return userLockedAssets[msg.sender][_vault] */\n      dup1\n      sload\n      dup1\n      0x20\n      mul\n      0x20\n      add\n      mload(0x40)\n      swap1\n      dup2\n      add\n      0x40\n      mstore\n      dup1\n      swap3\n      swap2\n      swap1\n      dup2\n      dup2\n      mstore\n      0x20\n      add\n      0x00\n      swap1\n    tag_77:\n      dup3\n      dup3\n      lt\n      iszero\n      tag_78\n      jumpi\n      dup4\n      dup3\n      swap1\n      0x00\n      mstore\n      keccak256(0x00, 0x20)\n      swap1\n      0x04\n      mul\n      add\n      mload(0x40)\n      dup1\n      0xc0\n      add\n      0x40\n      mstore\n      swap1\n      dup2\n      0x00\n      dup3\n      add\n      0x00\n      swap1\n      sload\n      swap1\n      0x0100\n      exp\n      swap1\n      div\n      0xffffffffffffffffffffffffffffffffffffffff\n      and\n      0xffffffffffffffffffffffffffffffffffffffff\n      and\n      0xffffffffffffffffffffffffffffffffffffffff\n      and\n      dup2\n      mstore\n      0x20\n      add\n      0x01\n      dup3\n      add\n      sload\n      dup2\n      mstore\n      0x20\n      add\n      0x02\n      dup3\n      add\n      sload\n      dup2\n      mstore\n      0x20\n      add\n      0x03\n      dup3\n      add\n      0x00\n      swap1\n      sload\n      swap1\n      0x0100\n      exp\n      swap1\n      div\n      0xff\n      and\n      0xff\n      and\n      0xff\n      and\n      dup2\n      mstore\n      0x20\n      add\n      0x03\n      dup3\n      add\n      0x01\n      swap1\n      sload\n      swap1\n      0x0100\n      exp\n      swap1\n      div\n      0xff\n      and\n      iszero\n      iszero\n      iszero\n      iszero\n      dup2\n      mstore\n      0x20\n      add\n      0x03\n      dup3\n      add\n      0x02\n      swap1\n      sload\n      swap1\n      0x0100\n      exp\n      swap1\n      div\n      0xff\n      and\n      iszero\n      iszero\n      iszero\n      iszero\n      dup2\n      mstore\n      pop\n      pop\n      dup2\n      mstore\n      0x20\n      add\n      swap1\n      0x01\n      add\n      swap1\n      jump(tag_77)\n    tag_78:\n      pop\n      pop\n      pop\n      pop\n      swap1\n      pop\n        /* \"contracts/Fvkry.sol\":4947:5081  function getUserLocks(uint8 _vault) public view returns (Lock[] memory) {... */\n      swap2\n      swap1\n      pop\n      jump\t// out\n        /* \"contracts/Fvkry.sol\":1037:1817  function lockETH(uint8 _vault, uint256 _lockperiod) external payable nonReentrant {... */\n    tag_31:\n        /* \"@openzeppelin/contracts/utils/ReentrancyGuard.sol\":2500:2521  _nonReentrantBefore() */\n      tag_81\n        /* \"@openzeppelin/contracts/utils/ReentrancyGuard.sol\":2500:2519  _nonReentrantBefore */\n      tag_82\n        /* \"@openzeppelin/contracts/utils/ReentrancyGuard.sol\":2500:2521  _nonReentrantBefore() */\n      jump\t// in\n    tag_81:\n        /* \"contracts/Fvkry.sol\":1150:1151  0 */\n      0x00\n        /* \"contracts/Fvkry.sol\":1138:1147  msg.value */\n      callvalue\n        /* \"contracts/Fvkry.sol\":1138:1151  msg.value > 0 */\n      gt\n        /* \"contracts/Fvkry.sol\":1130:1195  require(msg.value > 0, \"ETH to lock must a value greater than 0\") */\n      tag_84\n      jumpi\n      mload(0x40)\n      0x08c379a000000000000000000000000000000000000000000000000000000000\n      dup2\n      mstore\n      0x04\n      add\n      tag_85\n      swap1\n      tag_86\n      jump\t// in\n    tag_85:\n      mload(0x40)\n      dup1\n      swap2\n      sub\n      swap1\n      revert\n    tag_84:\n        /* \"contracts/Fvkry.sol\":1229:1230  0 */\n      0x00\n        /* \"contracts/Fvkry.sol\":1214:1225  _lockperiod */\n      dup2\n        /* \"contracts/Fvkry.sol\":1214:1230  _lockperiod >= 0 */\n      lt\n      iszero\n        /* \"contracts/Fvkry.sol\":1206:1275  require(_lockperiod >= 0, \"The lockperiod must be greater then zero\") */\n      tag_87\n      jumpi\n      mload(0x40)\n      0x08c379a000000000000000000000000000000000000000000000000000000000\n      dup2\n      mstore\n      0x04\n      add\n      tag_88\n      swap1\n      tag_89\n      jump\t// in\n    tag_88:\n      mload(0x40)\n      dup1\n      swap2\n      sub\n      swap1\n      revert\n    tag_87:\n        /* \"contracts/Fvkry.sol\":1307:1308  0 */\n      0x00\n        /* \"contracts/Fvkry.sol\":1292:1303  _lockperiod */\n      dup2\n        /* \"contracts/Fvkry.sol\":1292:1308  _lockperiod != 0 */\n      eq\n        /* \"contracts/Fvkry.sol\":1288:1694  if (_lockperiod != 0) {... */\n      tag_90\n      jumpi\n        /* \"contracts/Fvkry.sol\":1367:1383  userLockedAssets */\n      0x02\n        /* \"contracts/Fvkry.sol\":1367:1395  userLockedAssets[msg.sender] */\n      0x00\n        /* \"contracts/Fvkry.sol\":1384:1394  msg.sender */\n      caller\n        /* \"contracts/Fvkry.sol\":1367:1395  userLockedAssets[msg.sender] */\n      0xffffffffffffffffffffffffffffffffffffffff\n      and\n      0xffffffffffffffffffffffffffffffffffffffff\n      and\n      dup2\n      mstore\n      0x20\n      add\n      swap1\n      dup2\n      mstore\n      0x20\n      add\n      0x00\n      keccak256\n        /* \"contracts/Fvkry.sol\":1367:1403  userLockedAssets[msg.sender][_vault] */\n      0x00\n        /* \"contracts/Fvkry.sol\":1396:1402  _vault */\n      dup4\n        /* \"contracts/Fvkry.sol\":1367:1403  userLockedAssets[msg.sender][_vault] */\n      0xff\n      and\n      0xff\n      and\n      dup2\n      mstore\n      0x20\n      add\n      swap1\n      dup2\n      mstore\n      0x20\n      add\n      0x00\n      keccak256\n        /* \"contracts/Fvkry.sol\":1409:1675  Lock({... */\n      mload(0x40)\n      dup1\n      0xc0\n      add\n      0x40\n      mstore\n      dup1\n        /* \"contracts/Fvkry.sol\":1448:1449  0 */\n      0x00\n        /* \"contracts/Fvkry.sol\":1409:1675  Lock({... */\n      0xffffffffffffffffffffffffffffffffffffffff\n      and\n      dup2\n      mstore\n      0x20\n      add\n        /* \"contracts/Fvkry.sol\":1478:1487  msg.value */\n      callvalue\n        /* \"contracts/Fvkry.sol\":1409:1675  Lock({... */\n      dup2\n      mstore\n      0x20\n      add\n        /* \"contracts/Fvkry.sol\":1539:1550  _lockperiod */\n      dup4\n        /* \"contracts/Fvkry.sol\":1521:1536  block.timestamp */\n      timestamp\n        /* \"contracts/Fvkry.sol\":1521:1550  block.timestamp + _lockperiod */\n      tag_91\n      swap2\n      swap1\n      tag_92\n      jump\t// in\n    tag_91:\n        /* \"contracts/Fvkry.sol\":1409:1675  Lock({... */\n      dup2\n      mstore\n      0x20\n      add\n        /* \"contracts/Fvkry.sol\":1576:1582  _vault */\n      dup5\n        /* \"contracts/Fvkry.sol\":1409:1675  Lock({... */\n      0xff\n      and\n      dup2\n      mstore\n      0x20\n      add\n        /* \"contracts/Fvkry.sol\":1616:1621  false */\n      0x00\n        /* \"contracts/Fvkry.sol\":1409:1675  Lock({... */\n      iszero\n      iszero\n      dup2\n      mstore\n      0x20\n      add\n        /* \"contracts/Fvkry.sol\":1653:1657  true */\n      0x01\n        /* \"contracts/Fvkry.sol\":1409:1675  Lock({... */\n      iszero\n      iszero\n      dup2\n      mstore\n      pop\n        /* \"contracts/Fvkry.sol\":1367:1676  userLockedAssets[msg.sender][_vault].push(Lock({... */\n      swap1\n      dup1\n      0x01\n      dup2\n      sload\n      add\n      dup1\n      dup3\n      sstore\n      dup1\n      swap2\n      pop\n      pop\n      0x01\n      swap1\n      sub\n      swap1\n      0x00\n      mstore\n      keccak256(0x00, 0x20)\n      swap1\n      0x04\n      mul\n      add\n      0x00\n      swap1\n      swap2\n      swap1\n      swap2\n      swap1\n      swap2\n      pop\n      0x00\n      dup3\n      add\n      mload\n      dup2\n      0x00\n      add\n      exp(0x0100, 0x00)\n      dup2\n      sload\n      dup2\n      0xffffffffffffffffffffffffffffffffffffffff\n      mul\n      not\n      and\n      swap1\n      dup4\n      0xffffffffffffffffffffffffffffffffffffffff\n      and\n      mul\n      or\n      swap1\n      sstore\n      pop\n      0x20\n      dup3\n      add\n      mload\n      dup2\n      0x01\n      add\n      sstore\n      0x40\n      dup3\n      add\n      mload\n      dup2\n      0x02\n      add\n      sstore\n      0x60\n      dup3\n      add\n      mload\n      dup2\n      0x03\n      add\n      exp(0x0100, 0x00)\n      dup2\n      sload\n      dup2\n      0xff\n      mul\n      not\n      and\n      swap1\n      dup4\n      0xff\n      and\n      mul\n      or\n      swap1\n      sstore\n      pop\n      0x80\n      dup3\n      add\n      mload\n      dup2\n      0x03\n      add\n      exp(0x0100, 0x01)\n      dup2\n      sload\n      dup2\n      0xff\n      mul\n      not\n      and\n      swap1\n      dup4\n      iszero\n      iszero\n      mul\n      or\n      swap1\n      sstore\n      pop\n      0xa0\n      dup3\n      add\n      mload\n      dup2\n      0x03\n      add\n      exp(0x0100, 0x02)\n      dup2\n      sload\n      dup2\n      0xff\n      mul\n      not\n      and\n      swap1\n      dup4\n      iszero\n      iszero\n      mul\n      or\n      swap1\n      sstore\n      pop\n      pop\n      pop\n        /* \"contracts/Fvkry.sol\":1288:1694  if (_lockperiod != 0) {... */\n    tag_90:\n        /* \"contracts/Fvkry.sol\":1739:1740  0 */\n      0x00\n        /* \"contracts/Fvkry.sol\":1719:1809  AssetLocked(address(0), msg.value, _vault, block.timestamp + _lockperiod, block.timestamp) */\n      0xffffffffffffffffffffffffffffffffffffffff\n      and\n      0xec1e996e081f0b176398a3a553ab4a87ae67bf6f0d2f7848ab1872a30c3b63e9\n        /* \"contracts/Fvkry.sol\":1743:1752  msg.value */\n      callvalue\n        /* \"contracts/Fvkry.sol\":1754:1760  _vault */\n      dup5\n        /* \"contracts/Fvkry.sol\":1780:1791  _lockperiod */\n      dup5\n        /* \"contracts/Fvkry.sol\":1762:1777  block.timestamp */\n      timestamp\n        /* \"contracts/Fvkry.sol\":1762:1791  block.timestamp + _lockperiod */\n      tag_94\n      swap2\n      swap1\n      tag_92\n      jump\t// in\n    tag_94:\n        /* \"contracts/Fvkry.sol\":1793:1808  block.timestamp */\n      timestamp\n        /* \"contracts/Fvkry.sol\":1719:1809  AssetLocked(address(0), msg.value, _vault, block.timestamp + _lockperiod, block.timestamp) */\n      mload(0x40)\n      tag_95\n      swap5\n      swap4\n      swap3\n      swap2\n      swap1\n      tag_96\n      jump\t// in\n    tag_95:\n      mload(0x40)\n      dup1\n      swap2\n      sub\n      swap1\n      log2\n        /* \"@openzeppelin/contracts/utils/ReentrancyGuard.sol\":2542:2562  _nonReentrantAfter() */\n      tag_97\n        /* \"@openzeppelin/contracts/utils/ReentrancyGuard.sol\":2542:2560  _nonReentrantAfter */\n      tag_98\n        /* \"@openzeppelin/contracts/utils/ReentrancyGuard.sol\":2542:2562  _nonReentrantAfter() */\n      jump\t// in\n    tag_97:\n        /* \"contracts/Fvkry.sol\":1037:1817  function lockETH(uint8 _vault, uint256 _lockperiod) external payable nonReentrant {... */\n      pop\n      pop\n      jump\t// out\n        /* \"contracts/Fvkry.sol\":2240:3309  function lockToken (IERC20 _token, uint256 _amount, uint8 _vault, uint256 _lockperiod) external nonReentrant {... */\n    tag_36:\n        /* \"@openzeppelin/contracts/utils/ReentrancyGuard.sol\":2500:2521  _nonReentrantBefore() */\n      tag_100\n        /* \"@openzeppelin/contracts/utils/ReentrancyGuard.sol\":2500:2519  _nonReentrantBefore */\n      tag_82\n        /* \"@openzeppelin/contracts/utils/ReentrancyGuard.sol\":2500:2521  _nonReentrantBefore() */\n      jump\t// in\n    tag_100:\n        /* \"contracts/Fvkry.sol\":2395:2396  0 */\n      0x00\n        /* \"contracts/Fvkry.sol\":2368:2397  address(_token) != address(0) */\n      0xffffffffffffffffffffffffffffffffffffffff\n      and\n        /* \"contracts/Fvkry.sol\":2376:2382  _token */\n      dup5\n        /* \"contracts/Fvkry.sol\":2368:2397  address(_token) != address(0) */\n      0xffffffffffffffffffffffffffffffffffffffff\n      and\n      sub\n        /* \"contracts/Fvkry.sol\":2360:2436  require(address(_token) != address(0), \"Must provide a valid token address\") */\n      tag_102\n      jumpi\n      mload(0x40)\n      0x08c379a000000000000000000000000000000000000000000000000000000000\n      dup2\n      mstore\n      0x04\n      add\n      tag_103\n      swap1\n      tag_104\n      jump\t// in\n    tag_103:\n      mload(0x40)\n      dup1\n      swap2\n      sub\n      swap1\n      revert\n    tag_102:\n        /* \"contracts/Fvkry.sol\":2465:2466  0 */\n      0x00\n        /* \"contracts/Fvkry.sol\":2455:2462  _amount */\n      dup4\n        /* \"contracts/Fvkry.sol\":2455:2466  _amount > 0 */\n      gt\n        /* \"contracts/Fvkry.sol\":2447:2509  require(_amount > 0, \"Token amount must be greater then zero\") */\n      tag_105\n      jumpi\n      mload(0x40)\n      0x08c379a000000000000000000000000000000000000000000000000000000000\n      dup2\n      mstore\n      0x04\n      add\n      tag_106\n      swap1\n      tag_107\n      jump\t// in\n    tag_106:\n      mload(0x40)\n      dup1\n      swap2\n      sub\n      swap1\n      revert\n    tag_105:\n        /* \"contracts/Fvkry.sol\":2542:2543  0 */\n      0x00\n        /* \"contracts/Fvkry.sol\":2528:2539  _lockperiod */\n      dup2\n        /* \"contracts/Fvkry.sol\":2528:2543  _lockperiod > 0 */\n      gt\n        /* \"contracts/Fvkry.sol\":2520:2589  require(_lockperiod > 0, \"The lock period must be greater then zero\") */\n      tag_108\n      jumpi\n      mload(0x40)\n      0x08c379a000000000000000000000000000000000000000000000000000000000\n      dup2\n      mstore\n      0x04\n      add\n      tag_109\n      swap1\n      tag_110\n      jump\t// in\n    tag_109:\n      mload(0x40)\n      dup1\n      swap2\n      sub\n      swap1\n      revert\n    tag_108:\n        /* \"contracts/Fvkry.sol\":2602:2623  uint256 _tokenBalance */\n      0x00\n        /* \"contracts/Fvkry.sol\":2626:2632  _token */\n      dup5\n        /* \"contracts/Fvkry.sol\":2626:2642  _token.balanceOf */\n      0xffffffffffffffffffffffffffffffffffffffff\n      and\n      0x70a08231\n        /* \"contracts/Fvkry.sol\":2643:2653  msg.sender */\n      caller\n        /* \"contracts/Fvkry.sol\":2626:2654  _token.balanceOf(msg.sender) */\n      mload(0x40)\n      dup3\n      0xffffffff\n      and\n      0xe0\n      shl\n      dup2\n      mstore\n      0x04\n      add\n      tag_111\n      swap2\n      swap1\n      tag_48\n      jump\t// in\n    tag_111:\n      0x20\n      mload(0x40)\n      dup1\n      dup4\n      sub\n      dup2\n      dup7\n      gas\n      staticcall\n      iszero\n      dup1\n      iszero\n      tag_113\n      jumpi\n      returndatasize\n      0x00\n      dup1\n      returndatacopy\n      revert(0x00, returndatasize)\n    tag_113:\n      pop\n      pop\n      pop\n      pop\n      mload(0x40)\n      returndatasize\n      not(0x1f)\n      0x1f\n      dup3\n      add\n      and\n      dup3\n      add\n      dup1\n      0x40\n      mstore\n      pop\n      dup2\n      add\n      swap1\n      tag_114\n      swap2\n      swap1\n      tag_75\n      jump\t// in\n    tag_114:\n        /* \"contracts/Fvkry.sol\":2602:2654  uint256 _tokenBalance = _token.balanceOf(msg.sender) */\n      swap1\n      pop\n        /* \"contracts/Fvkry.sol\":2685:2698  _tokenBalance */\n      dup1\n        /* \"contracts/Fvkry.sol\":2674:2681  _amount */\n      dup5\n        /* \"contracts/Fvkry.sol\":2674:2698  _amount <= _tokenBalance */\n      gt\n      iszero\n        /* \"contracts/Fvkry.sol\":2665:2728  require (_amount <= _tokenBalance, \"Not enough tokens to lock\") */\n      tag_115\n      jumpi\n      mload(0x40)\n      0x08c379a000000000000000000000000000000000000000000000000000000000\n      dup2\n      mstore\n      0x04\n      add\n      tag_116\n      swap1\n      tag_117\n      jump\t// in\n    tag_116:\n      mload(0x40)\n      dup1\n      swap2\n      sub\n      swap1\n      revert\n    tag_115:\n        /* \"contracts/Fvkry.sol\":2791:2850  _token.safeTransferFrom(msg.sender, address(this), _amount) */\n      tag_118\n        /* \"contracts/Fvkry.sol\":2815:2825  msg.sender */\n      caller\n        /* \"contracts/Fvkry.sol\":2835:2839  this */\n      address\n        /* \"contracts/Fvkry.sol\":2842:2849  _amount */\n      dup7\n        /* \"contracts/Fvkry.sol\":2791:2797  _token */\n      dup9\n        /* \"contracts/Fvkry.sol\":2791:2814  _token.safeTransferFrom */\n      0xffffffffffffffffffffffffffffffffffffffff\n      and\n      tag_119\n      swap1\n        /* \"contracts/Fvkry.sol\":2791:2850  _token.safeTransferFrom(msg.sender, address(this), _amount) */\n      swap4\n      swap3\n      swap2\n      swap1\n      0xffffffff\n      and\n      jump\t// in\n    tag_118:\n        /* \"contracts/Fvkry.sol\":2905:2921  userLockedAssets */\n      0x02\n        /* \"contracts/Fvkry.sol\":2905:2933  userLockedAssets[msg.sender] */\n      0x00\n        /* \"contracts/Fvkry.sol\":2922:2932  msg.sender */\n      caller\n        /* \"contracts/Fvkry.sol\":2905:2933  userLockedAssets[msg.sender] */\n      0xffffffffffffffffffffffffffffffffffffffff\n      and\n      0xffffffffffffffffffffffffffffffffffffffff\n      and\n      dup2\n      mstore\n      0x20\n      add\n      swap1\n      dup2\n      mstore\n      0x20\n      add\n      0x00\n      keccak256\n        /* \"contracts/Fvkry.sol\":2905:2941  userLockedAssets[msg.sender][_vault] */\n      0x00\n        /* \"contracts/Fvkry.sol\":2934:2940  _vault */\n      dup5\n        /* \"contracts/Fvkry.sol\":2905:2941  userLockedAssets[msg.sender][_vault] */\n      0xff\n      and\n      0xff\n      and\n      dup2\n      mstore\n      0x20\n      add\n      swap1\n      dup2\n      mstore\n      0x20\n      add\n      0x00\n      keccak256\n        /* \"contracts/Fvkry.sol\":2947:3189  Lock({... */\n      mload(0x40)\n      dup1\n      0xc0\n      add\n      0x40\n      mstore\n      dup1\n        /* \"contracts/Fvkry.sol\":2982:2988  _token */\n      dup8\n        /* \"contracts/Fvkry.sol\":2947:3189  Lock({... */\n      0xffffffffffffffffffffffffffffffffffffffff\n      and\n      dup2\n      mstore\n      0x20\n      add\n        /* \"contracts/Fvkry.sol\":3013:3020  _amount */\n      dup7\n        /* \"contracts/Fvkry.sol\":2947:3189  Lock({... */\n      dup2\n      mstore\n      0x20\n      add\n        /* \"contracts/Fvkry.sol\":3068:3079  _lockperiod */\n      dup5\n        /* \"contracts/Fvkry.sol\":3050:3065  block.timestamp */\n      timestamp\n        /* \"contracts/Fvkry.sol\":3050:3079  block.timestamp + _lockperiod */\n      tag_120\n      swap2\n      swap1\n      tag_92\n      jump\t// in\n    tag_120:\n        /* \"contracts/Fvkry.sol\":2947:3189  Lock({... */\n      dup2\n      mstore\n      0x20\n      add\n        /* \"contracts/Fvkry.sol\":3101:3107  _vault */\n      dup6\n        /* \"contracts/Fvkry.sol\":2947:3189  Lock({... */\n      0xff\n      and\n      dup2\n      mstore\n      0x20\n      add\n        /* \"contracts/Fvkry.sol\":3137:3142  false */\n      0x00\n        /* \"contracts/Fvkry.sol\":2947:3189  Lock({... */\n      iszero\n      iszero\n      dup2\n      mstore\n      0x20\n      add\n        /* \"contracts/Fvkry.sol\":3170:3175  false */\n      0x00\n        /* \"contracts/Fvkry.sol\":2947:3189  Lock({... */\n      iszero\n      iszero\n      dup2\n      mstore\n      pop\n        /* \"contracts/Fvkry.sol\":2905:3190  userLockedAssets[msg.sender][_vault].push(Lock({... */\n      swap1\n      dup1\n      0x01\n      dup2\n      sload\n      add\n      dup1\n      dup3\n      sstore\n      dup1\n      swap2\n      pop\n      pop\n      0x01\n      swap1\n      sub\n      swap1\n      0x00\n      mstore\n      keccak256(0x00, 0x20)\n      swap1\n      0x04\n      mul\n      add\n      0x00\n      swap1\n      swap2\n      swap1\n      swap2\n      swap1\n      swap2\n      pop\n      0x00\n      dup3\n      add\n      mload\n      dup2\n      0x00\n      add\n      exp(0x0100, 0x00)\n      dup2\n      sload\n      dup2\n      0xffffffffffffffffffffffffffffffffffffffff\n      mul\n      not\n      and\n      swap1\n      dup4\n      0xffffffffffffffffffffffffffffffffffffffff\n      and\n      mul\n      or\n      swap1\n      sstore\n      pop\n      0x20\n      dup3\n      add\n      mload\n      dup2\n      0x01\n      add\n      sstore\n      0x40\n      dup3\n      add\n      mload\n      dup2\n      0x02\n      add\n      sstore\n      0x60\n      dup3\n      add\n      mload\n      dup2\n      0x03\n      add\n      exp(0x0100, 0x00)\n      dup2\n      sload\n      dup2\n      0xff\n      mul\n      not\n      and\n      swap1\n      dup4\n      0xff\n      and\n      mul\n      or\n      swap1\n      sstore\n      pop\n      0x80\n      dup3\n      add\n      mload\n      dup2\n      0x03\n      add\n      exp(0x0100, 0x01)\n      dup2\n      sload\n      dup2\n      0xff\n      mul\n      not\n      and\n      swap1\n      dup4\n      iszero\n      iszero\n      mul\n      or\n      swap1\n      sstore\n      pop\n      0xa0\n      dup3\n      add\n      mload\n      dup2\n      0x03\n      add\n      exp(0x0100, 0x02)\n      dup2\n      sload\n      dup2\n      0xff\n      mul\n      not\n      and\n      swap1\n      dup4\n      iszero\n      iszero\n      mul\n      or\n      swap1\n      sstore\n      pop\n      pop\n      pop\n        /* \"contracts/Fvkry.sol\":3228:3234  _token */\n      dup5\n        /* \"contracts/Fvkry.sol\":3208:3301  AssetLocked(address(_token), _amount, _vault, block.timestamp + _lockperiod, block.timestamp) */\n      0xffffffffffffffffffffffffffffffffffffffff\n      and\n      0xec1e996e081f0b176398a3a553ab4a87ae67bf6f0d2f7848ab1872a30c3b63e9\n        /* \"contracts/Fvkry.sol\":3237:3244  _amount */\n      dup6\n        /* \"contracts/Fvkry.sol\":3246:3252  _vault */\n      dup6\n        /* \"contracts/Fvkry.sol\":3272:3283  _lockperiod */\n      dup6\n        /* \"contracts/Fvkry.sol\":3254:3269  block.timestamp */\n      timestamp\n        /* \"contracts/Fvkry.sol\":3254:3283  block.timestamp + _lockperiod */\n      tag_122\n      swap2\n      swap1\n      tag_92\n      jump\t// in\n    tag_122:\n        /* \"contracts/Fvkry.sol\":3285:3300  block.timestamp */\n      timestamp\n        /* \"contracts/Fvkry.sol\":3208:3301  AssetLocked(address(_token), _amount, _vault, block.timestamp + _lockperiod, block.timestamp) */\n      mload(0x40)\n      tag_123\n      swap5\n      swap4\n      swap3\n      swap2\n      swap1\n      tag_96\n      jump\t// in\n    tag_123:\n      mload(0x40)\n      dup1\n      swap2\n      sub\n      swap1\n      log2\n        /* \"contracts/Fvkry.sol\":2349:3309  {... */\n      pop\n        /* \"@openzeppelin/contracts/utils/ReentrancyGuard.sol\":2542:2562  _nonReentrantAfter() */\n      tag_124\n        /* \"@openzeppelin/contracts/utils/ReentrancyGuard.sol\":2542:2560  _nonReentrantAfter */\n      tag_98\n        /* \"@openzeppelin/contracts/utils/ReentrancyGuard.sol\":2542:2562  _nonReentrantAfter() */\n      jump\t// in\n    tag_124:\n        /* \"contracts/Fvkry.sol\":2240:3309  function lockToken (IERC20 _token, uint256 _amount, uint8 _vault, uint256 _lockperiod) external nonReentrant {... */\n      pop\n      pop\n      pop\n      pop\n      jump\t// out\n        /* \"@openzeppelin/contracts/access/Ownable.sol\":2293:2394  function renounceOwnership() public virtual onlyOwner {... */\n    tag_39:\n        /* \"@openzeppelin/contracts/access/Ownable.sol\":1531:1544  _checkOwner() */\n      tag_126\n        /* \"@openzeppelin/contracts/access/Ownable.sol\":1531:1542  _checkOwner */\n      tag_127\n        /* \"@openzeppelin/contracts/access/Ownable.sol\":1531:1544  _checkOwner() */\n      jump\t// in\n    tag_126:\n        /* \"@openzeppelin/contracts/access/Ownable.sol\":2357:2387  _transferOwnership(address(0)) */\n      tag_129\n        /* \"@openzeppelin/contracts/access/Ownable.sol\":2384:2385  0 */\n      0x00\n        /* \"@openzeppelin/contracts/access/Ownable.sol\":2357:2375  _transferOwnership */\n      tag_130\n        /* \"@openzeppelin/contracts/access/Ownable.sol\":2357:2387  _transferOwnership(address(0)) */\n      jump\t// in\n    tag_129:\n        /* \"@openzeppelin/contracts/access/Ownable.sol\":2293:2394  function renounceOwnership() public virtual onlyOwner {... */\n      jump\t// out\n        /* \"contracts/Fvkry.sol\":4797:4909  function getContractETHBalance() external view returns (uint256) {... */\n    tag_42:\n        /* \"contracts/Fvkry.sol\":4853:4860  uint256 */\n      0x00\n        /* \"contracts/Fvkry.sol\":4880:4901  address(this).balance */\n      selfbalance\n        /* \"contracts/Fvkry.sol\":4873:4901  return address(this).balance */\n      swap1\n      pop\n        /* \"contracts/Fvkry.sol\":4797:4909  function getContractETHBalance() external view returns (uint256) {... */\n      swap1\n      jump\t// out\n        /* \"@openzeppelin/contracts/access/Ownable.sol\":1638:1723  function owner() public view virtual returns (address) {... */\n    tag_46:\n        /* \"@openzeppelin/contracts/access/Ownable.sol\":1684:1691  address */\n      0x00\n        /* \"@openzeppelin/contracts/access/Ownable.sol\":1710:1716  _owner */\n      dup1\n      0x00\n      swap1\n      sload\n      swap1\n      0x0100\n      exp\n      swap1\n      div\n      0xffffffffffffffffffffffffffffffffffffffff\n      and\n        /* \"@openzeppelin/contracts/access/Ownable.sol\":1703:1716  return _owner */\n      swap1\n      pop\n        /* \"@openzeppelin/contracts/access/Ownable.sol\":1638:1723  function owner() public view virtual returns (address) {... */\n      swap1\n      jump\t// out\n        /* \"contracts/Fvkry.sol\":572:643  mapping  (address => mapping (uint8 => Lock[])) public userLockedAssets */\n    tag_53:\n      mstore(0x20, 0x02)\n      dup3\n      0x00\n      mstore\n      mstore(0x20, keccak256(0x00, 0x40))\n      dup2\n      0x00\n      mstore\n      keccak256(0x00, 0x40)\n      dup2\n      dup2\n      sload\n      dup2\n      lt\n      tag_133\n      jumpi\n      0x00\n      dup1\n      revert\n    tag_133:\n      swap1\n      0x00\n      mstore\n      keccak256(0x00, 0x20)\n      swap1\n      0x04\n      mul\n      add\n      0x00\n      swap3\n      pop\n      swap3\n      pop\n      pop\n      pop\n      dup1\n      0x00\n      add\n      0x00\n      swap1\n      sload\n      swap1\n      0x0100\n      exp\n      swap1\n      div\n      0xffffffffffffffffffffffffffffffffffffffff\n      and\n      swap1\n      dup1\n      0x01\n      add\n      sload\n      swap1\n      dup1\n      0x02\n      add\n      sload\n      swap1\n      dup1\n      0x03\n      add\n      0x00\n      swap1\n      sload\n      swap1\n      0x0100\n      exp\n      swap1\n      div\n      0xff\n      and\n      swap1\n      dup1\n      0x03\n      add\n      0x01\n      swap1\n      sload\n      swap1\n      0x0100\n      exp\n      swap1\n      div\n      0xff\n      and\n      swap1\n      dup1\n      0x03\n      add\n      0x02\n      swap1\n      sload\n      swap1\n      0x0100\n      exp\n      swap1\n      div\n      0xff\n      and\n      swap1\n      pop\n      dup7\n      jump\t// out\n        /* \"contracts/Fvkry.sol\":3340:4620  function transferAsset( uint32 _assetId,uint8 _vault, uint256 _amount) external  nonReentrant {... */\n    tag_60:\n        /* \"@openzeppelin/contracts/utils/ReentrancyGuard.sol\":2500:2521  _nonReentrantBefore() */\n      tag_136\n        /* \"@openzeppelin/contracts/utils/ReentrancyGuard.sol\":2500:2519  _nonReentrantBefore */\n      tag_82\n        /* \"@openzeppelin/contracts/utils/ReentrancyGuard.sol\":2500:2521  _nonReentrantBefore() */\n      jump\t// in\n    tag_136:\n        /* \"contracts/Fvkry.sol\":3464:3480  userLockedAssets */\n      0x02\n        /* \"contracts/Fvkry.sol\":3464:3492  userLockedAssets[msg.sender] */\n      0x00\n        /* \"contracts/Fvkry.sol\":3481:3491  msg.sender */\n      caller\n        /* \"contracts/Fvkry.sol\":3464:3492  userLockedAssets[msg.sender] */\n      0xffffffffffffffffffffffffffffffffffffffff\n      and\n      0xffffffffffffffffffffffffffffffffffffffff\n      and\n      dup2\n      mstore\n      0x20\n      add\n      swap1\n      dup2\n      mstore\n      0x20\n      add\n      0x00\n      keccak256\n        /* \"contracts/Fvkry.sol\":3464:3500  userLockedAssets[msg.sender][_vault] */\n      0x00\n        /* \"contracts/Fvkry.sol\":3493:3499  _vault */\n      dup4\n        /* \"contracts/Fvkry.sol\":3464:3500  userLockedAssets[msg.sender][_vault] */\n      0xff\n      and\n      0xff\n      and\n      dup2\n      mstore\n      0x20\n      add\n      swap1\n      dup2\n      mstore\n      0x20\n      add\n      0x00\n      keccak256\n        /* \"contracts/Fvkry.sol\":3464:3507  userLockedAssets[msg.sender][_vault].length */\n      dup1\n      sload\n      swap1\n      pop\n        /* \"contracts/Fvkry.sol\":3453:3461  _assetId */\n      dup4\n        /* \"contracts/Fvkry.sol\":3453:3507  _assetId < userLockedAssets[msg.sender][_vault].length */\n      0xffffffff\n      and\n      lt\n        /* \"contracts/Fvkry.sol\":3445:3546  require(_assetId < userLockedAssets[msg.sender][_vault].length, \"The specified asset ID is invalid.\") */\n      tag_138\n      jumpi\n      mload(0x40)\n      0x08c379a000000000000000000000000000000000000000000000000000000000\n      dup2\n      mstore\n      0x04\n      add\n      tag_139\n      swap1\n      tag_140\n      jump\t// in\n    tag_139:\n      mload(0x40)\n      dup1\n      swap2\n      sub\n      swap1\n      revert\n    tag_138:\n        /* \"contracts/Fvkry.sol\":3567:3584  Lock storage lock */\n      0x00\n        /* \"contracts/Fvkry.sol\":3587:3603  userLockedAssets */\n      0x02\n        /* \"contracts/Fvkry.sol\":3587:3615  userLockedAssets[msg.sender] */\n      0x00\n        /* \"contracts/Fvkry.sol\":3604:3614  msg.sender */\n      caller\n        /* \"contracts/Fvkry.sol\":3587:3615  userLockedAssets[msg.sender] */\n      0xffffffffffffffffffffffffffffffffffffffff\n      and\n      0xffffffffffffffffffffffffffffffffffffffff\n      and\n      dup2\n      mstore\n      0x20\n      add\n      swap1\n      dup2\n      mstore\n      0x20\n      add\n      0x00\n      keccak256\n        /* \"contracts/Fvkry.sol\":3587:3623  userLockedAssets[msg.sender][_vault] */\n      0x00\n        /* \"contracts/Fvkry.sol\":3616:3622  _vault */\n      dup5\n        /* \"contracts/Fvkry.sol\":3587:3623  userLockedAssets[msg.sender][_vault] */\n      0xff\n      and\n      0xff\n      and\n      dup2\n      mstore\n      0x20\n      add\n      swap1\n      dup2\n      mstore\n      0x20\n      add\n      0x00\n      keccak256\n        /* \"contracts/Fvkry.sol\":3624:3632  _assetId */\n      dup5\n        /* \"contracts/Fvkry.sol\":3587:3633  userLockedAssets[msg.sender][_vault][_assetId] */\n      0xffffffff\n      and\n      dup2\n      sload\n      dup2\n      lt\n      tag_141\n      jumpi\n      tag_142\n      tag_143\n      jump\t// in\n    tag_142:\n    tag_141:\n      swap1\n      0x00\n      mstore\n      keccak256(0x00, 0x20)\n      swap1\n      0x04\n      mul\n      add\n        /* \"contracts/Fvkry.sol\":3567:3633  Lock storage lock = userLockedAssets[msg.sender][_vault][_assetId] */\n      swap1\n      pop\n        /* \"contracts/Fvkry.sol\":3655:3659  lock */\n      dup1\n        /* \"contracts/Fvkry.sol\":3655:3669  lock.withdrawn */\n      0x03\n      add\n      0x01\n      swap1\n      sload\n      swap1\n      0x0100\n      exp\n      swap1\n      div\n      0xff\n      and\n        /* \"contracts/Fvkry.sol\":3654:3669  !lock.withdrawn */\n      iszero\n        /* \"contracts/Fvkry.sol\":3646:3708  require(!lock.withdrawn,\"Assets have already been withdrawn!\") */\n      tag_145\n      jumpi\n      mload(0x40)\n      0x08c379a000000000000000000000000000000000000000000000000000000000\n      dup2\n      mstore\n      0x04\n      add\n      tag_146\n      swap1\n      tag_147\n      jump\t// in\n    tag_146:\n      mload(0x40)\n      dup1\n      swap2\n      sub\n      swap1\n      revert\n    tag_145:\n        /* \"contracts/Fvkry.sol\":3745:3749  lock */\n      dup1\n        /* \"contracts/Fvkry.sol\":3745:3761  lock.lockEndTime */\n      0x02\n      add\n      sload\n        /* \"contracts/Fvkry.sol\":3727:3742  block.timestamp */\n      timestamp\n        /* \"contracts/Fvkry.sol\":3727:3761  block.timestamp > lock.lockEndTime */\n      gt\n        /* \"contracts/Fvkry.sol\":3719:3802  require(block.timestamp > lock.lockEndTime, \"The lock period has not yet expired!\") */\n      tag_148\n      jumpi\n      mload(0x40)\n      0x08c379a000000000000000000000000000000000000000000000000000000000\n      dup2\n      mstore\n      0x04\n      add\n      tag_149\n      swap1\n      tag_150\n      jump\t// in\n    tag_149:\n      mload(0x40)\n      dup1\n      swap2\n      sub\n      swap1\n      revert\n    tag_148:\n        /* \"contracts/Fvkry.sol\":3815:3837  uint256  updateBalance */\n      0x00\n        /* \"contracts/Fvkry.sol\":3854:3861  _amount */\n      dup3\n        /* \"contracts/Fvkry.sol\":3840:3844  lock */\n      dup3\n        /* \"contracts/Fvkry.sol\":3840:3851  lock.amount */\n      0x01\n      add\n      sload\n        /* \"contracts/Fvkry.sol\":3840:3861  lock.amount - _amount */\n      tag_151\n      swap2\n      swap1\n      tag_152\n      jump\t// in\n    tag_151:\n        /* \"contracts/Fvkry.sol\":3815:3861  uint256  updateBalance = lock.amount - _amount */\n      swap1\n      pop\n        /* \"contracts/Fvkry.sol\":3898:3899  0 */\n      0x00\n        /* \"contracts/Fvkry.sol\":3881:3894  updateBalance */\n      dup2\n        /* \"contracts/Fvkry.sol\":3881:3899  updateBalance >= 0 */\n      lt\n      iszero\n        /* \"contracts/Fvkry.sol\":3872:3933  require (updateBalance >= 0,\"Not enough assets to withdraw!\") */\n      tag_153\n      jumpi\n      mload(0x40)\n      0x08c379a000000000000000000000000000000000000000000000000000000000\n      dup2\n      mstore\n      0x04\n      add\n      tag_154\n      swap1\n      tag_155\n      jump\t// in\n    tag_154:\n      mload(0x40)\n      dup1\n      swap2\n      sub\n      swap1\n      revert\n    tag_153:\n        /* \"contracts/Fvkry.sol\":3995:3996  0 */\n      0x00\n        /* \"contracts/Fvkry.sol\":3978:3991  updateBalance */\n      dup2\n        /* \"contracts/Fvkry.sol\":3978:3996  updateBalance == 0 */\n      sub\n        /* \"contracts/Fvkry.sol\":3975:4088  if(updateBalance == 0) {... */\n      tag_156\n      jumpi\n        /* \"contracts/Fvkry.sol\":4072:4076  true */\n      0x01\n        /* \"contracts/Fvkry.sol\":4013:4029  userLockedAssets */\n      0x02\n        /* \"contracts/Fvkry.sol\":4013:4041  userLockedAssets[msg.sender] */\n      0x00\n        /* \"contracts/Fvkry.sol\":4030:4040  msg.sender */\n      caller\n        /* \"contracts/Fvkry.sol\":4013:4041  userLockedAssets[msg.sender] */\n      0xffffffffffffffffffffffffffffffffffffffff\n      and\n      0xffffffffffffffffffffffffffffffffffffffff\n      and\n      dup2\n      mstore\n      0x20\n      add\n      swap1\n      dup2\n      mstore\n      0x20\n      add\n      0x00\n      keccak256\n        /* \"contracts/Fvkry.sol\":4013:4049  userLockedAssets[msg.sender][_vault] */\n      0x00\n        /* \"contracts/Fvkry.sol\":4042:4048  _vault */\n      dup7\n        /* \"contracts/Fvkry.sol\":4013:4049  userLockedAssets[msg.sender][_vault] */\n      0xff\n      and\n      0xff\n      and\n      dup2\n      mstore\n      0x20\n      add\n      swap1\n      dup2\n      mstore\n      0x20\n      add\n      0x00\n      keccak256\n        /* \"contracts/Fvkry.sol\":4050:4058  _assetId */\n      dup7\n        /* \"contracts/Fvkry.sol\":4013:4059  userLockedAssets[msg.sender][_vault][_assetId] */\n      0xffffffff\n      and\n      dup2\n      sload\n      dup2\n      lt\n      tag_157\n      jumpi\n      tag_158\n      tag_143\n      jump\t// in\n    tag_158:\n    tag_157:\n      swap1\n      0x00\n      mstore\n      keccak256(0x00, 0x20)\n      swap1\n      0x04\n      mul\n      add\n        /* \"contracts/Fvkry.sol\":4013:4069  userLockedAssets[msg.sender][_vault][_assetId].withdrawn */\n      0x03\n      add\n      0x01\n        /* \"contracts/Fvkry.sol\":4013:4076  userLockedAssets[msg.sender][_vault][_assetId].withdrawn = true */\n      0x0100\n      exp\n      dup2\n      sload\n      dup2\n      0xff\n      mul\n      not\n      and\n      swap1\n      dup4\n      iszero\n      iszero\n      mul\n      or\n      swap1\n      sstore\n      pop\n        /* \"contracts/Fvkry.sol\":3975:4088  if(updateBalance == 0) {... */\n    tag_156:\n        /* \"contracts/Fvkry.sol\":4185:4198  updateBalance */\n      dup1\n        /* \"contracts/Fvkry.sol\":4129:4145  userLockedAssets */\n      0x02\n        /* \"contracts/Fvkry.sol\":4129:4157  userLockedAssets[msg.sender] */\n      0x00\n        /* \"contracts/Fvkry.sol\":4146:4156  msg.sender */\n      caller\n        /* \"contracts/Fvkry.sol\":4129:4157  userLockedAssets[msg.sender] */\n      0xffffffffffffffffffffffffffffffffffffffff\n      and\n      0xffffffffffffffffffffffffffffffffffffffff\n      and\n      dup2\n      mstore\n      0x20\n      add\n      swap1\n      dup2\n      mstore\n      0x20\n      add\n      0x00\n      keccak256\n        /* \"contracts/Fvkry.sol\":4129:4165  userLockedAssets[msg.sender][_vault] */\n      0x00\n        /* \"contracts/Fvkry.sol\":4158:4164  _vault */\n      dup7\n        /* \"contracts/Fvkry.sol\":4129:4165  userLockedAssets[msg.sender][_vault] */\n      0xff\n      and\n      0xff\n      and\n      dup2\n      mstore\n      0x20\n      add\n      swap1\n      dup2\n      mstore\n      0x20\n      add\n      0x00\n      keccak256\n        /* \"contracts/Fvkry.sol\":4166:4174  _assetId */\n      dup7\n        /* \"contracts/Fvkry.sol\":4129:4175  userLockedAssets[msg.sender][_vault][_assetId] */\n      0xffffffff\n      and\n      dup2\n      sload\n      dup2\n      lt\n      tag_160\n      jumpi\n      tag_161\n      tag_143\n      jump\t// in\n    tag_161:\n    tag_160:\n      swap1\n      0x00\n      mstore\n      keccak256(0x00, 0x20)\n      swap1\n      0x04\n      mul\n      add\n        /* \"contracts/Fvkry.sol\":4129:4182  userLockedAssets[msg.sender][_vault][_assetId].amount */\n      0x01\n      add\n        /* \"contracts/Fvkry.sol\":4129:4198  userLockedAssets[msg.sender][_vault][_assetId].amount = updateBalance */\n      dup2\n      swap1\n      sstore\n      pop\n        /* \"contracts/Fvkry.sol\":4218:4222  lock */\n      dup2\n        /* \"contracts/Fvkry.sol\":4218:4231  lock.isNative */\n      0x03\n      add\n      0x02\n      swap1\n      sload\n      swap1\n      0x0100\n      exp\n      swap1\n      div\n      0xff\n      and\n        /* \"contracts/Fvkry.sol\":4215:4520  if(lock.isNative) {... */\n      iszero\n      tag_163\n      jumpi\n        /* \"contracts/Fvkry.sol\":4278:4290  bool success */\n      0x00\n        /* \"contracts/Fvkry.sol\":4296:4306  msg.sender */\n      caller\n        /* \"contracts/Fvkry.sol\":4296:4311  msg.sender.call */\n      0xffffffffffffffffffffffffffffffffffffffff\n      and\n        /* \"contracts/Fvkry.sol\":4319:4326  _amount */\n      dup5\n        /* \"contracts/Fvkry.sol\":4296:4331  msg.sender.call{value: _amount}(\"\") */\n      mload(0x40)\n      tag_164\n      swap1\n      tag_165\n      jump\t// in\n    tag_164:\n      0x00\n      mload(0x40)\n      dup1\n      dup4\n      sub\n      dup2\n      dup6\n      dup8\n      gas\n      call\n      swap3\n      pop\n      pop\n      pop\n      returndatasize\n      dup1\n      0x00\n      dup2\n      eq\n      tag_168\n      jumpi\n      mload(0x40)\n      swap2\n      pop\n      and(add(returndatasize, 0x3f), not(0x1f))\n      dup3\n      add\n      0x40\n      mstore\n      returndatasize\n      dup3\n      mstore\n      returndatasize\n      0x00\n      0x20\n      dup5\n      add\n      returndatacopy\n      jump(tag_167)\n    tag_168:\n      0x60\n      swap2\n      pop\n    tag_167:\n      pop\n        /* \"contracts/Fvkry.sol\":4277:4331  (bool success, ) = msg.sender.call{value: _amount}(\"\") */\n      pop\n      swap1\n      pop\n        /* \"contracts/Fvkry.sol\":4354:4361  success */\n      dup1\n        /* \"contracts/Fvkry.sol\":4346:4385  require(success, \"ETH transfer failed\") */\n      tag_169\n      jumpi\n      mload(0x40)\n      0x08c379a000000000000000000000000000000000000000000000000000000000\n      dup2\n      mstore\n      0x04\n      add\n      tag_170\n      swap1\n      tag_171\n      jump\t// in\n    tag_170:\n      mload(0x40)\n      dup1\n      swap2\n      sub\n      swap1\n      revert\n    tag_169:\n        /* \"contracts/Fvkry.sol\":4233:4397  {... */\n      pop\n        /* \"contracts/Fvkry.sol\":4215:4520  if(lock.isNative) {... */\n      jump(tag_172)\n    tag_163:\n        /* \"contracts/Fvkry.sol\":4456:4508  IERC20(lock.token).safeTransfer(msg.sender, _amount) */\n      tag_173\n        /* \"contracts/Fvkry.sol\":4488:4498  msg.sender */\n      caller\n        /* \"contracts/Fvkry.sol\":4500:4507  _amount */\n      dup5\n        /* \"contracts/Fvkry.sol\":4463:4467  lock */\n      dup5\n        /* \"contracts/Fvkry.sol\":4463:4473  lock.token */\n      0x00\n      add\n      0x00\n      swap1\n      sload\n      swap1\n      0x0100\n      exp\n      swap1\n      div\n      0xffffffffffffffffffffffffffffffffffffffff\n      and\n        /* \"contracts/Fvkry.sol\":4456:4487  IERC20(lock.token).safeTransfer */\n      0xffffffffffffffffffffffffffffffffffffffff\n      and\n      tag_174\n      swap1\n        /* \"contracts/Fvkry.sol\":4456:4508  IERC20(lock.token).safeTransfer(msg.sender, _amount) */\n      swap3\n      swap2\n      swap1\n      0xffffffff\n      and\n      jump\t// in\n    tag_173:\n        /* \"contracts/Fvkry.sol\":4215:4520  if(lock.isNative) {... */\n    tag_172:\n        /* \"contracts/Fvkry.sol\":4561:4565  lock */\n      dup2\n        /* \"contracts/Fvkry.sol\":4561:4571  lock.token */\n      0x00\n      add\n      0x00\n      swap1\n      sload\n      swap1\n      0x0100\n      exp\n      swap1\n      div\n      0xffffffffffffffffffffffffffffffffffffffff\n      and\n        /* \"contracts/Fvkry.sol\":4537:4612  AssetTransfered(address(lock.token), _amount , lock.vault, block.timestamp) */\n      0xffffffffffffffffffffffffffffffffffffffff\n      and\n      0xf9c1eebf9a6880c5357a85a01ed17f20fed16844f1e75d070866c77eaa1a4fdb\n        /* \"contracts/Fvkry.sol\":4574:4581  _amount */\n      dup5\n        /* \"contracts/Fvkry.sol\":4584:4588  lock */\n      dup5\n        /* \"contracts/Fvkry.sol\":4584:4594  lock.vault */\n      0x03\n      add\n      0x00\n      swap1\n      sload\n      swap1\n      0x0100\n      exp\n      swap1\n      div\n      0xff\n      and\n        /* \"contracts/Fvkry.sol\":4596:4611  block.timestamp */\n      timestamp\n        /* \"contracts/Fvkry.sol\":4537:4612  AssetTransfered(address(lock.token), _amount , lock.vault, block.timestamp) */\n      mload(0x40)\n      tag_175\n      swap4\n      swap3\n      swap2\n      swap1\n      tag_176\n      jump\t// in\n    tag_175:\n      mload(0x40)\n      dup1\n      swap2\n      sub\n      swap1\n      log2\n        /* \"contracts/Fvkry.sol\":3434:4620  {... */\n      pop\n      pop\n        /* \"@openzeppelin/contracts/utils/ReentrancyGuard.sol\":2542:2562  _nonReentrantAfter() */\n      tag_177\n        /* \"@openzeppelin/contracts/utils/ReentrancyGuard.sol\":2542:2560  _nonReentrantAfter */\n      tag_98\n        /* \"@openzeppelin/contracts/utils/ReentrancyGuard.sol\":2542:2562  _nonReentrantAfter() */\n      jump\t// in\n    tag_177:\n        /* \"contracts/Fvkry.sol\":3340:4620  function transferAsset( uint32 _assetId,uint8 _vault, uint256 _amount) external  nonReentrant {... */\n      pop\n      pop\n      pop\n      jump\t// out\n        /* \"contracts/Fvkry.sol\":1825:2207  function addToLockedETH(uint8 _vault, uint32 _assetID) external payable  nonReentrant {... */\n    tag_64:\n        /* \"@openzeppelin/contracts/utils/ReentrancyGuard.sol\":2500:2521  _nonReentrantBefore() */\n      tag_179\n        /* \"@openzeppelin/contracts/utils/ReentrancyGuard.sol\":2500:2519  _nonReentrantBefore */\n      tag_82\n        /* \"@openzeppelin/contracts/utils/ReentrancyGuard.sol\":2500:2521  _nonReentrantBefore() */\n      jump\t// in\n    tag_179:\n        /* \"contracts/Fvkry.sol\":1942:1943  0 */\n      0x00\n        /* \"contracts/Fvkry.sol\":1930:1939  msg.value */\n      callvalue\n        /* \"contracts/Fvkry.sol\":1930:1943  msg.value > 0 */\n      gt\n        /* \"contracts/Fvkry.sol\":1922:1999  require(msg.value > 0, \"ETH to add to lock must be an amount greater than 0\") */\n      tag_181\n      jumpi\n      mload(0x40)\n      0x08c379a000000000000000000000000000000000000000000000000000000000\n      dup2\n      mstore\n      0x04\n      add\n      tag_182\n      swap1\n      tag_183\n      jump\t// in\n    tag_182:\n      mload(0x40)\n      dup1\n      swap2\n      sub\n      swap1\n      revert\n    tag_181:\n        /* \"contracts/Fvkry.sol\":2114:2123  msg.value */\n      callvalue\n        /* \"contracts/Fvkry.sol\":2057:2073  userLockedAssets */\n      0x02\n        /* \"contracts/Fvkry.sol\":2057:2085  userLockedAssets[msg.sender] */\n      0x00\n        /* \"contracts/Fvkry.sol\":2074:2084  msg.sender */\n      caller\n        /* \"contracts/Fvkry.sol\":2057:2085  userLockedAssets[msg.sender] */\n      0xffffffffffffffffffffffffffffffffffffffff\n      and\n      0xffffffffffffffffffffffffffffffffffffffff\n      and\n      dup2\n      mstore\n      0x20\n      add\n      swap1\n      dup2\n      mstore\n      0x20\n      add\n      0x00\n      keccak256\n        /* \"contracts/Fvkry.sol\":2057:2093  userLockedAssets[msg.sender][_vault] */\n      0x00\n        /* \"contracts/Fvkry.sol\":2086:2092  _vault */\n      dup5\n        /* \"contracts/Fvkry.sol\":2057:2093  userLockedAssets[msg.sender][_vault] */\n      0xff\n      and\n      0xff\n      and\n      dup2\n      mstore\n      0x20\n      add\n      swap1\n      dup2\n      mstore\n      0x20\n      add\n      0x00\n      keccak256\n        /* \"contracts/Fvkry.sol\":2094:2102  _assetID */\n      dup3\n        /* \"contracts/Fvkry.sol\":2057:2103  userLockedAssets[msg.sender][_vault][_assetID] */\n      0xffffffff\n      and\n      dup2\n      sload\n      dup2\n      lt\n      tag_184\n      jumpi\n      tag_185\n      tag_143\n      jump\t// in\n    tag_185:\n    tag_184:\n      swap1\n      0x00\n      mstore\n      keccak256(0x00, 0x20)\n      swap1\n      0x04\n      mul\n      add\n        /* \"contracts/Fvkry.sol\":2057:2110  userLockedAssets[msg.sender][_vault][_assetID].amount */\n      0x01\n      add\n      0x00\n        /* \"contracts/Fvkry.sol\":2057:2123  userLockedAssets[msg.sender][_vault][_assetID].amount += msg.value */\n      dup3\n      dup3\n      sload\n      tag_187\n      swap2\n      swap1\n      tag_92\n      jump\t// in\n    tag_187:\n      swap3\n      pop\n      pop\n      dup2\n      swap1\n      sstore\n      pop\n        /* \"contracts/Fvkry.sol\":2160:2161  0 */\n      0x00\n        /* \"contracts/Fvkry.sol\":2141:2199  AssetAdded(address(0), msg.value, _vault, block.timestamp) */\n      0xffffffffffffffffffffffffffffffffffffffff\n      and\n      0xc66e6f7d74d0c9e1b876d9a16e6a5e1cc740b73075424f001b9cf91ad042c317\n        /* \"contracts/Fvkry.sol\":2164:2173  msg.value */\n      callvalue\n        /* \"contracts/Fvkry.sol\":2175:2181  _vault */\n      dup5\n        /* \"contracts/Fvkry.sol\":2183:2198  block.timestamp */\n      timestamp\n        /* \"contracts/Fvkry.sol\":2141:2199  AssetAdded(address(0), msg.value, _vault, block.timestamp) */\n      mload(0x40)\n      tag_188\n      swap4\n      swap3\n      swap2\n      swap1\n      tag_176\n      jump\t// in\n    tag_188:\n      mload(0x40)\n      dup1\n      swap2\n      sub\n      swap1\n      log2\n        /* \"@openzeppelin/contracts/utils/ReentrancyGuard.sol\":2542:2562  _nonReentrantAfter() */\n      tag_189\n        /* \"@openzeppelin/contracts/utils/ReentrancyGuard.sol\":2542:2560  _nonReentrantAfter */\n      tag_98\n        /* \"@openzeppelin/contracts/utils/ReentrancyGuard.sol\":2542:2562  _nonReentrantAfter() */\n      jump\t// in\n    tag_189:\n        /* \"contracts/Fvkry.sol\":1825:2207  function addToLockedETH(uint8 _vault, uint32 _assetID) external payable  nonReentrant {... */\n      pop\n      pop\n      jump\t// out\n        /* \"@openzeppelin/contracts/access/Ownable.sol\":2543:2758  function transferOwnership(address newOwner) public virtual onlyOwner {... */\n    tag_69:\n        /* \"@openzeppelin/contracts/access/Ownable.sol\":1531:1544  _checkOwner() */\n      tag_191\n        /* \"@openzeppelin/contracts/access/Ownable.sol\":1531:1542  _checkOwner */\n      tag_127\n        /* \"@openzeppelin/contracts/access/Ownable.sol\":1531:1544  _checkOwner() */\n      jump\t// in\n    tag_191:\n        /* \"@openzeppelin/contracts/access/Ownable.sol\":2647:2648  0 */\n      0x00\n        /* \"@openzeppelin/contracts/access/Ownable.sol\":2627:2649  newOwner == address(0) */\n      0xffffffffffffffffffffffffffffffffffffffff\n      and\n        /* \"@openzeppelin/contracts/access/Ownable.sol\":2627:2635  newOwner */\n      dup2\n        /* \"@openzeppelin/contracts/access/Ownable.sol\":2627:2649  newOwner == address(0) */\n      0xffffffffffffffffffffffffffffffffffffffff\n      and\n      sub\n        /* \"@openzeppelin/contracts/access/Ownable.sol\":2623:2714  if (newOwner == address(0)) {... */\n      tag_193\n      jumpi\n        /* \"@openzeppelin/contracts/access/Ownable.sol\":2700:2701  0 */\n      0x00\n        /* \"@openzeppelin/contracts/access/Ownable.sol\":2672:2703  OwnableInvalidOwner(address(0)) */\n      mload(0x40)\n      0x1e4fbdf700000000000000000000000000000000000000000000000000000000\n      dup2\n      mstore\n      0x04\n      add\n      tag_194\n      swap2\n      swap1\n      tag_48\n      jump\t// in\n    tag_194:\n      mload(0x40)\n      dup1\n      swap2\n      sub\n      swap1\n      revert\n        /* \"@openzeppelin/contracts/access/Ownable.sol\":2623:2714  if (newOwner == address(0)) {... */\n    tag_193:\n        /* \"@openzeppelin/contracts/access/Ownable.sol\":2723:2751  _transferOwnership(newOwner) */\n      tag_195\n        /* \"@openzeppelin/contracts/access/Ownable.sol\":2742:2750  newOwner */\n      dup2\n        /* \"@openzeppelin/contracts/access/Ownable.sol\":2723:2741  _transferOwnership */\n      tag_130\n        /* \"@openzeppelin/contracts/access/Ownable.sol\":2723:2751  _transferOwnership(newOwner) */\n      jump\t// in\n    tag_195:\n        /* \"@openzeppelin/contracts/access/Ownable.sol\":2543:2758  function transferOwnership(address newOwner) public virtual onlyOwner {... */\n      pop\n      jump\t// out\n        /* \"@openzeppelin/contracts/utils/ReentrancyGuard.sol\":2575:2882  function _nonReentrantBefore() private {... */\n    tag_82:\n        /* \"@openzeppelin/contracts/utils/ReentrancyGuard.sol\":1899:1900  2 */\n      0x02\n        /* \"@openzeppelin/contracts/utils/ReentrancyGuard.sol\":2702:2709  _status */\n      sload(0x01)\n        /* \"@openzeppelin/contracts/utils/ReentrancyGuard.sol\":2702:2720  _status == ENTERED */\n      sub\n        /* \"@openzeppelin/contracts/utils/ReentrancyGuard.sol\":2698:2784  if (_status == ENTERED) {... */\n      tag_197\n      jumpi\n        /* \"@openzeppelin/contracts/utils/ReentrancyGuard.sol\":2743:2773  ReentrancyGuardReentrantCall() */\n      mload(0x40)\n      0x3ee5aeb500000000000000000000000000000000000000000000000000000000\n      dup2\n      mstore\n      0x04\n      add\n      mload(0x40)\n      dup1\n      swap2\n      sub\n      swap1\n      revert\n        /* \"@openzeppelin/contracts/utils/ReentrancyGuard.sol\":2698:2784  if (_status == ENTERED) {... */\n    tag_197:\n        /* \"@openzeppelin/contracts/utils/ReentrancyGuard.sol\":1899:1900  2 */\n      0x02\n        /* \"@openzeppelin/contracts/utils/ReentrancyGuard.sol\":2858:2865  _status */\n      0x01\n        /* \"@openzeppelin/contracts/utils/ReentrancyGuard.sol\":2858:2875  _status = ENTERED */\n      dup2\n      swap1\n      sstore\n      pop\n        /* \"@openzeppelin/contracts/utils/ReentrancyGuard.sol\":2575:2882  function _nonReentrantBefore() private {... */\n      jump\t// out\n        /* \"@openzeppelin/contracts/utils/ReentrancyGuard.sol\":2888:3096  function _nonReentrantAfter() private {... */\n    tag_98:\n        /* \"@openzeppelin/contracts/utils/ReentrancyGuard.sol\":1857:1858  1 */\n      0x01\n        /* \"@openzeppelin/contracts/utils/ReentrancyGuard.sol\":3068:3075  _status */\n      dup1\n        /* \"@openzeppelin/contracts/utils/ReentrancyGuard.sol\":3068:3089  _status = NOT_ENTERED */\n      dup2\n      swap1\n      sstore\n      pop\n        /* \"@openzeppelin/contracts/utils/ReentrancyGuard.sol\":2888:3096  function _nonReentrantAfter() private {... */\n      jump\t// out\n        /* \"@openzeppelin/contracts/token/ERC20/utils/SafeERC20.sol\":1618:1806  function safeTransferFrom(IERC20 token, address from, address to, uint256 value) internal {... */\n    tag_119:\n        /* \"@openzeppelin/contracts/token/ERC20/utils/SafeERC20.sol\":1718:1799  _callOptionalReturn(token, abi.encodeCall(token.transferFrom, (from, to, value))) */\n      tag_200\n        /* \"@openzeppelin/contracts/token/ERC20/utils/SafeERC20.sol\":1738:1743  token */\n      dup5\n        /* \"@openzeppelin/contracts/token/ERC20/utils/SafeERC20.sol\":1760:1765  token */\n      dup6\n        /* \"@openzeppelin/contracts/token/ERC20/utils/SafeERC20.sol\":1760:1778  token.transferFrom */\n      0xffffffffffffffffffffffffffffffffffffffff\n      and\n      0x23b872dd\n        /* \"@openzeppelin/contracts/token/ERC20/utils/SafeERC20.sol\":1781:1785  from */\n      dup7\n        /* \"@openzeppelin/contracts/token/ERC20/utils/SafeERC20.sol\":1787:1789  to */\n      dup7\n        /* \"@openzeppelin/contracts/token/ERC20/utils/SafeERC20.sol\":1791:1796  value */\n      dup7\n        /* \"@openzeppelin/contracts/token/ERC20/utils/SafeERC20.sol\":1745:1798  abi.encodeCall(token.transferFrom, (from, to, value)) */\n      add(0x24, mload(0x40))\n      tag_201\n      swap4\n      swap3\n      swap2\n      swap1\n      tag_202\n      jump\t// in\n    tag_201:\n      mload(0x40)\n      0x20\n      dup2\n      dup4\n      sub\n      sub\n      dup2\n      mstore\n      swap1\n      0x40\n      mstore\n      swap2\n      pop\n      0xe0\n      shl\n      0x20\n      dup3\n      add\n      dup1\n      mload\n      0xffffffffffffffffffffffffffffffffffffffffffffffffffffffff\n      dup4\n      dup2\n      dup4\n      and\n      or\n      dup4\n      mstore\n      pop\n      pop\n      pop\n      pop\n        /* \"@openzeppelin/contracts/token/ERC20/utils/SafeERC20.sol\":1718:1737  _callOptionalReturn */\n      tag_203\n        /* \"@openzeppelin/contracts/token/ERC20/utils/SafeERC20.sol\":1718:1799  _callOptionalReturn(token, abi.encodeCall(token.transferFrom, (from, to, value))) */\n      jump\t// in\n    tag_200:\n        /* \"@openzeppelin/contracts/token/ERC20/utils/SafeERC20.sol\":1618:1806  function safeTransferFrom(IERC20 token, address from, address to, uint256 value) internal {... */\n      pop\n      pop\n      pop\n      pop\n      jump\t// out\n        /* \"@openzeppelin/contracts/access/Ownable.sol\":1796:1958  function _checkOwner() internal view virtual {... */\n    tag_127:\n        /* \"@openzeppelin/contracts/access/Ownable.sol\":1866:1878  _msgSender() */\n      tag_205\n        /* \"@openzeppelin/contracts/access/Ownable.sol\":1866:1876  _msgSender */\n      tag_206\n        /* \"@openzeppelin/contracts/access/Ownable.sol\":1866:1878  _msgSender() */\n      jump\t// in\n    tag_205:\n        /* \"@openzeppelin/contracts/access/Ownable.sol\":1855:1878  owner() != _msgSender() */\n      0xffffffffffffffffffffffffffffffffffffffff\n      and\n        /* \"@openzeppelin/contracts/access/Ownable.sol\":1855:1862  owner() */\n      tag_207\n        /* \"@openzeppelin/contracts/access/Ownable.sol\":1855:1860  owner */\n      tag_46\n        /* \"@openzeppelin/contracts/access/Ownable.sol\":1855:1862  owner() */\n      jump\t// in\n    tag_207:\n        /* \"@openzeppelin/contracts/access/Ownable.sol\":1855:1878  owner() != _msgSender() */\n      0xffffffffffffffffffffffffffffffffffffffff\n      and\n      eq\n        /* \"@openzeppelin/contracts/access/Ownable.sol\":1851:1952  if (owner() != _msgSender()) {... */\n      tag_208\n      jumpi\n        /* \"@openzeppelin/contracts/access/Ownable.sol\":1928:1940  _msgSender() */\n      tag_209\n        /* \"@openzeppelin/contracts/access/Ownable.sol\":1928:1938  _msgSender */\n      tag_206\n        /* \"@openzeppelin/contracts/access/Ownable.sol\":1928:1940  _msgSender() */\n      jump\t// in\n    tag_209:\n        /* \"@openzeppelin/contracts/access/Ownable.sol\":1901:1941  OwnableUnauthorizedAccount(_msgSender()) */\n      mload(0x40)\n      0x118cdaa700000000000000000000000000000000000000000000000000000000\n      dup2\n      mstore\n      0x04\n      add\n      tag_210\n      swap2\n      swap1\n      tag_48\n      jump\t// in\n    tag_210:\n      mload(0x40)\n      dup1\n      swap2\n      sub\n      swap1\n      revert\n        /* \"@openzeppelin/contracts/access/Ownable.sol\":1851:1952  if (owner() != _msgSender()) {... */\n    tag_208:\n        /* \"@openzeppelin/contracts/access/Ownable.sol\":1796:1958  function _checkOwner() internal view virtual {... */\n      jump\t// out\n        /* \"@openzeppelin/contracts/access/Ownable.sol\":2912:3099  function _transferOwnership(address newOwner) internal virtual {... */\n    tag_130:\n        /* \"@openzeppelin/contracts/access/Ownable.sol\":2985:3001  address oldOwner */\n      0x00\n        /* \"@openzeppelin/contracts/access/Ownable.sol\":3004:3010  _owner */\n      dup1\n      0x00\n      swap1\n      sload\n      swap1\n      0x0100\n      exp\n      swap1\n      div\n      0xffffffffffffffffffffffffffffffffffffffff\n      and\n        /* \"@openzeppelin/contracts/access/Ownable.sol\":2985:3010  address oldOwner = _owner */\n      swap1\n      pop\n        /* \"@openzeppelin/contracts/access/Ownable.sol\":3029:3037  newOwner */\n      dup2\n        /* \"@openzeppelin/contracts/access/Ownable.sol\":3020:3026  _owner */\n      0x00\n      dup1\n        /* \"@openzeppelin/contracts/access/Ownable.sol\":3020:3037  _owner = newOwner */\n      0x0100\n      exp\n      dup2\n      sload\n      dup2\n      0xffffffffffffffffffffffffffffffffffffffff\n      mul\n      not\n      and\n      swap1\n      dup4\n      0xffffffffffffffffffffffffffffffffffffffff\n      and\n      mul\n      or\n      swap1\n      sstore\n      pop\n        /* \"@openzeppelin/contracts/access/Ownable.sol\":3083:3091  newOwner */\n      dup2\n        /* \"@openzeppelin/contracts/access/Ownable.sol\":3052:3092  OwnershipTransferred(oldOwner, newOwner) */\n      0xffffffffffffffffffffffffffffffffffffffff\n      and\n        /* \"@openzeppelin/contracts/access/Ownable.sol\":3073:3081  oldOwner */\n      dup2\n        /* \"@openzeppelin/contracts/access/Ownable.sol\":3052:3092  OwnershipTransferred(oldOwner, newOwner) */\n      0xffffffffffffffffffffffffffffffffffffffff\n      and\n      0x8be0079c531659141344cd1fd0a4f28419497f9722a3daafe3b4186f6b6457e0\n      mload(0x40)\n      mload(0x40)\n      dup1\n      swap2\n      sub\n      swap1\n      log3\n        /* \"@openzeppelin/contracts/access/Ownable.sol\":2975:3099  {... */\n      pop\n        /* \"@openzeppelin/contracts/access/Ownable.sol\":2912:3099  function _transferOwnership(address newOwner) internal virtual {... */\n      pop\n      jump\t// out\n        /* \"@openzeppelin/contracts/token/ERC20/utils/SafeERC20.sol\":1219:1379  function safeTransfer(IERC20 token, address to, uint256 value) internal {... */\n    tag_174:\n        /* \"@openzeppelin/contracts/token/ERC20/utils/SafeERC20.sol\":1301:1372  _callOptionalReturn(token, abi.encodeCall(token.transfer, (to, value))) */\n      tag_213\n        /* \"@openzeppelin/contracts/token/ERC20/utils/SafeERC20.sol\":1321:1326  token */\n      dup4\n        /* \"@openzeppelin/contracts/token/ERC20/utils/SafeERC20.sol\":1343:1348  token */\n      dup5\n        /* \"@openzeppelin/contracts/token/ERC20/utils/SafeERC20.sol\":1343:1357  token.transfer */\n      0xffffffffffffffffffffffffffffffffffffffff\n      and\n      0xa9059cbb\n        /* \"@openzeppelin/contracts/token/ERC20/utils/SafeERC20.sol\":1360:1362  to */\n      dup6\n        /* \"@openzeppelin/contracts/token/ERC20/utils/SafeERC20.sol\":1364:1369  value */\n      dup6\n        /* \"@openzeppelin/contracts/token/ERC20/utils/SafeERC20.sol\":1328:1371  abi.encodeCall(token.transfer, (to, value)) */\n      add(0x24, mload(0x40))\n      tag_214\n      swap3\n      swap2\n      swap1\n      tag_215\n      jump\t// in\n    tag_214:\n      mload(0x40)\n      0x20\n      dup2\n      dup4\n      sub\n      sub\n      dup2\n      mstore\n      swap1\n      0x40\n      mstore\n      swap2\n      pop\n      0xe0\n      shl\n      0x20\n      dup3\n      add\n      dup1\n      mload\n      0xffffffffffffffffffffffffffffffffffffffffffffffffffffffff\n      dup4\n      dup2\n      dup4\n      and\n      or\n      dup4\n      mstore\n      pop\n      pop\n      pop\n      pop\n        /* \"@openzeppelin/contracts/token/ERC20/utils/SafeERC20.sol\":1301:1320  _callOptionalReturn */\n      tag_203\n        /* \"@openzeppelin/contracts/token/ERC20/utils/SafeERC20.sol\":1301:1372  _callOptionalReturn(token, abi.encodeCall(token.transfer, (to, value))) */\n      jump\t// in\n    tag_213:\n        /* \"@openzeppelin/contracts/token/ERC20/utils/SafeERC20.sol\":1219:1379  function safeTransfer(IERC20 token, address to, uint256 value) internal {... */\n      pop\n      pop\n      pop\n      jump\t// out\n        /* \"@openzeppelin/contracts/token/ERC20/utils/SafeERC20.sol\":7686:8406  function _callOptionalReturn(IERC20 token, bytes memory data) private {... */\n    tag_203:\n        /* \"@openzeppelin/contracts/token/ERC20/utils/SafeERC20.sol\":7766:7784  uint256 returnSize */\n      0x00\n        /* \"@openzeppelin/contracts/token/ERC20/utils/SafeERC20.sol\":7794:7813  uint256 returnValue */\n      dup1\n        /* \"@openzeppelin/contracts/token/ERC20/utils/SafeERC20.sol\":7932:7936  0x20 */\n      0x20\n        /* \"@openzeppelin/contracts/token/ERC20/utils/SafeERC20.sol\":7929:7930  0 */\n      0x00\n        /* \"@openzeppelin/contracts/token/ERC20/utils/SafeERC20.sol\":7922:7926  data */\n      dup5\n        /* \"@openzeppelin/contracts/token/ERC20/utils/SafeERC20.sol\":7916:7927  mload(data) */\n      mload\n        /* \"@openzeppelin/contracts/token/ERC20/utils/SafeERC20.sol\":7909:7913  0x20 */\n      0x20\n        /* \"@openzeppelin/contracts/token/ERC20/utils/SafeERC20.sol\":7903:7907  data */\n      dup7\n        /* \"@openzeppelin/contracts/token/ERC20/utils/SafeERC20.sol\":7899:7914  add(data, 0x20) */\n      add\n        /* \"@openzeppelin/contracts/token/ERC20/utils/SafeERC20.sol\":7896:7897  0 */\n      0x00\n        /* \"@openzeppelin/contracts/token/ERC20/utils/SafeERC20.sol\":7889:7894  token */\n      dup9\n        /* \"@openzeppelin/contracts/token/ERC20/utils/SafeERC20.sol\":7882:7887  gas() */\n      gas\n        /* \"@openzeppelin/contracts/token/ERC20/utils/SafeERC20.sol\":7877:7937  call(gas(), token, 0, add(data, 0x20), mload(data), 0, 0x20) */\n      call\n        /* \"@openzeppelin/contracts/token/ERC20/utils/SafeERC20.sol\":7989:7996  success */\n      dup1\n        /* \"@openzeppelin/contracts/token/ERC20/utils/SafeERC20.sol\":7979:8155  if iszero(success) {... */\n      tag_217\n      jumpi\n        /* \"@openzeppelin/contracts/token/ERC20/utils/SafeERC20.sol\":8033:8037  0x40 */\n      0x40\n        /* \"@openzeppelin/contracts/token/ERC20/utils/SafeERC20.sol\":8027:8038  mload(0x40) */\n      mload\n        /* \"@openzeppelin/contracts/token/ERC20/utils/SafeERC20.sol\":8078:8094  returndatasize() */\n      returndatasize\n        /* \"@openzeppelin/contracts/token/ERC20/utils/SafeERC20.sol\":8075:8076  0 */\n      0x00\n        /* \"@openzeppelin/contracts/token/ERC20/utils/SafeERC20.sol\":8070:8073  ptr */\n      dup3\n        /* \"@openzeppelin/contracts/token/ERC20/utils/SafeERC20.sol\":8055:8095  returndatacopy(ptr, 0, returndatasize()) */\n      returndatacopy\n        /* \"@openzeppelin/contracts/token/ERC20/utils/SafeERC20.sol\":8124:8140  returndatasize() */\n      returndatasize\n        /* \"@openzeppelin/contracts/token/ERC20/utils/SafeERC20.sol\":8119:8122  ptr */\n      dup2\n        /* \"@openzeppelin/contracts/token/ERC20/utils/SafeERC20.sol\":8112:8141  revert(ptr, returndatasize()) */\n      revert\n        /* \"@openzeppelin/contracts/token/ERC20/utils/SafeERC20.sol\":7979:8155  if iszero(success) {... */\n    tag_217:\n        /* \"@openzeppelin/contracts/token/ERC20/utils/SafeERC20.sol\":8182:8198  returndatasize() */\n      returndatasize\n        /* \"@openzeppelin/contracts/token/ERC20/utils/SafeERC20.sol\":8168:8198  returnSize := returndatasize() */\n      swap3\n      pop\n        /* \"@openzeppelin/contracts/token/ERC20/utils/SafeERC20.sol\":8232:8233  0 */\n      0x00\n        /* \"@openzeppelin/contracts/token/ERC20/utils/SafeERC20.sol\":8226:8234  mload(0) */\n      mload\n        /* \"@openzeppelin/contracts/token/ERC20/utils/SafeERC20.sol\":8211:8234  returnValue := mload(0) */\n      swap2\n      pop\n        /* \"@openzeppelin/contracts/token/ERC20/utils/SafeERC20.sol\":7848:8244  {... */\n      pop\n        /* \"@openzeppelin/contracts/token/ERC20/utils/SafeERC20.sol\":8272:8273  0 */\n      0x00\n        /* \"@openzeppelin/contracts/token/ERC20/utils/SafeERC20.sol\":8258:8268  returnSize */\n      dup3\n        /* \"@openzeppelin/contracts/token/ERC20/utils/SafeERC20.sol\":8258:8273  returnSize == 0 */\n      eq\n        /* \"@openzeppelin/contracts/token/ERC20/utils/SafeERC20.sol\":8258:8326  returnSize == 0 ? address(token).code.length == 0 : returnValue != 1 */\n      tag_218\n      jumpi\n        /* \"@openzeppelin/contracts/token/ERC20/utils/SafeERC20.sol\":8325:8326  1 */\n      0x01\n        /* \"@openzeppelin/contracts/token/ERC20/utils/SafeERC20.sol\":8310:8321  returnValue */\n      dup2\n        /* \"@openzeppelin/contracts/token/ERC20/utils/SafeERC20.sol\":8310:8326  returnValue != 1 */\n      eq\n      iszero\n        /* \"@openzeppelin/contracts/token/ERC20/utils/SafeERC20.sol\":8258:8326  returnSize == 0 ? address(token).code.length == 0 : returnValue != 1 */\n      jump(tag_219)\n    tag_218:\n        /* \"@openzeppelin/contracts/token/ERC20/utils/SafeERC20.sol\":8306:8307  0 */\n      0x00\n        /* \"@openzeppelin/contracts/token/ERC20/utils/SafeERC20.sol\":8284:8289  token */\n      dup5\n        /* \"@openzeppelin/contracts/token/ERC20/utils/SafeERC20.sol\":8276:8302  address(token).code.length */\n      0xffffffffffffffffffffffffffffffffffffffff\n      and\n      extcodesize\n        /* \"@openzeppelin/contracts/token/ERC20/utils/SafeERC20.sol\":8276:8307  address(token).code.length == 0 */\n      eq\n        /* \"@openzeppelin/contracts/token/ERC20/utils/SafeERC20.sol\":8258:8326  returnSize == 0 ? address(token).code.length == 0 : returnValue != 1 */\n    tag_219:\n        /* \"@openzeppelin/contracts/token/ERC20/utils/SafeERC20.sol\":8254:8400  if (returnSize == 0 ? address(token).code.length == 0 : returnValue != 1) {... */\n      iszero\n      tag_220\n      jumpi\n        /* \"@openzeppelin/contracts/token/ERC20/utils/SafeERC20.sol\":8382:8387  token */\n      dup4\n        /* \"@openzeppelin/contracts/token/ERC20/utils/SafeERC20.sol\":8349:8389  SafeERC20FailedOperation(address(token)) */\n      mload(0x40)\n      0x5274afe700000000000000000000000000000000000000000000000000000000\n      dup2\n      mstore\n      0x04\n      add\n      tag_221\n      swap2\n      swap1\n      tag_48\n      jump\t// in\n    tag_221:\n      mload(0x40)\n      dup1\n      swap2\n      sub\n      swap1\n      revert\n        /* \"@openzeppelin/contracts/token/ERC20/utils/SafeERC20.sol\":8254:8400  if (returnSize == 0 ? address(token).code.length == 0 : returnValue != 1) {... */\n    tag_220:\n        /* \"@openzeppelin/contracts/token/ERC20/utils/SafeERC20.sol\":7756:8406  {... */\n      pop\n      pop\n        /* \"@openzeppelin/contracts/token/ERC20/utils/SafeERC20.sol\":7686:8406  function _callOptionalReturn(IERC20 token, bytes memory data) private {... */\n      pop\n      pop\n      jump\t// out\n        /* \"@openzeppelin/contracts/utils/Context.sol\":656:752  function _msgSender() internal view virtual returns (address) {... */\n    tag_206:\n        /* \"@openzeppelin/contracts/utils/Context.sol\":709:716  address */\n      0x00\n        /* \"@openzeppelin/contracts/utils/Context.sol\":735:745  msg.sender */\n      caller\n        /* \"@openzeppelin/contracts/utils/Context.sol\":728:745  return msg.sender */\n      swap1\n      pop\n        /* \"@openzeppelin/contracts/utils/Context.sol\":656:752  function _msgSender() internal view virtual returns (address) {... */\n      swap1\n      jump\t// out\n        /* \"#utility.yul\":88:205   */\n    tag_224:\n        /* \"#utility.yul\":197:198   */\n      0x00\n        /* \"#utility.yul\":194:195   */\n      dup1\n        /* \"#utility.yul\":187:199   */\n      revert\n        /* \"#utility.yul\":334:460   */\n    tag_226:\n        /* \"#utility.yul\":371:378   */\n      0x00\n        /* \"#utility.yul\":411:453   */\n      0xffffffffffffffffffffffffffffffffffffffff\n        /* \"#utility.yul\":404:409   */\n      dup3\n        /* \"#utility.yul\":400:454   */\n      and\n        /* \"#utility.yul\":389:454   */\n      swap1\n      pop\n        /* \"#utility.yul\":334:460   */\n      swap2\n      swap1\n      pop\n      jump\t// out\n        /* \"#utility.yul\":466:562   */\n    tag_227:\n        /* \"#utility.yul\":503:510   */\n      0x00\n        /* \"#utility.yul\":532:556   */\n      tag_294\n        /* \"#utility.yul\":550:555   */\n      dup3\n        /* \"#utility.yul\":532:556   */\n      tag_226\n      jump\t// in\n    tag_294:\n        /* \"#utility.yul\":521:556   */\n      swap1\n      pop\n        /* \"#utility.yul\":466:562   */\n      swap2\n      swap1\n      pop\n      jump\t// out\n        /* \"#utility.yul\":568:678   */\n    tag_228:\n        /* \"#utility.yul\":619:626   */\n      0x00\n        /* \"#utility.yul\":648:672   */\n      tag_296\n        /* \"#utility.yul\":666:671   */\n      dup3\n        /* \"#utility.yul\":648:672   */\n      tag_227\n      jump\t// in\n    tag_296:\n        /* \"#utility.yul\":637:672   */\n      swap1\n      pop\n        /* \"#utility.yul\":568:678   */\n      swap2\n      swap1\n      pop\n      jump\t// out\n        /* \"#utility.yul\":684:834   */\n    tag_229:\n        /* \"#utility.yul\":771:809   */\n      tag_298\n        /* \"#utility.yul\":803:808   */\n      dup2\n        /* \"#utility.yul\":771:809   */\n      tag_228\n      jump\t// in\n    tag_298:\n        /* \"#utility.yul\":764:769   */\n      dup2\n        /* \"#utility.yul\":761:810   */\n      eq\n        /* \"#utility.yul\":751:828   */\n      tag_299\n      jumpi\n        /* \"#utility.yul\":824:825   */\n      0x00\n        /* \"#utility.yul\":821:822   */\n      dup1\n        /* \"#utility.yul\":814:826   */\n      revert\n        /* \"#utility.yul\":751:828   */\n    tag_299:\n        /* \"#utility.yul\":684:834   */\n      pop\n      jump\t// out\n        /* \"#utility.yul\":840:1007   */\n    tag_230:\n        /* \"#utility.yul\":900:905   */\n      0x00\n        /* \"#utility.yul\":938:944   */\n      dup2\n        /* \"#utility.yul\":925:945   */\n      calldataload\n        /* \"#utility.yul\":916:945   */\n      swap1\n      pop\n        /* \"#utility.yul\":954:1001   */\n      tag_301\n        /* \"#utility.yul\":995:1000   */\n      dup2\n        /* \"#utility.yul\":954:1001   */\n      tag_229\n      jump\t// in\n    tag_301:\n        /* \"#utility.yul\":840:1007   */\n      swap3\n      swap2\n      pop\n      pop\n      jump\t// out\n        /* \"#utility.yul\":1013:1370   */\n    tag_17:\n        /* \"#utility.yul\":1086:1092   */\n      0x00\n        /* \"#utility.yul\":1135:1137   */\n      0x20\n        /* \"#utility.yul\":1123:1132   */\n      dup3\n        /* \"#utility.yul\":1114:1121   */\n      dup5\n        /* \"#utility.yul\":1110:1133   */\n      sub\n        /* \"#utility.yul\":1106:1138   */\n      slt\n        /* \"#utility.yul\":1103:1222   */\n      iszero\n      tag_303\n      jumpi\n        /* \"#utility.yul\":1141:1220   */\n      tag_304\n      tag_224\n      jump\t// in\n    tag_304:\n        /* \"#utility.yul\":1103:1222   */\n    tag_303:\n        /* \"#utility.yul\":1261:1262   */\n      0x00\n        /* \"#utility.yul\":1286:1353   */\n      tag_305\n        /* \"#utility.yul\":1345:1352   */\n      dup5\n        /* \"#utility.yul\":1336:1342   */\n      dup3\n        /* \"#utility.yul\":1325:1334   */\n      dup6\n        /* \"#utility.yul\":1321:1343   */\n      add\n        /* \"#utility.yul\":1286:1353   */\n      tag_230\n      jump\t// in\n    tag_305:\n        /* \"#utility.yul\":1276:1353   */\n      swap2\n      pop\n        /* \"#utility.yul\":1232:1363   */\n      pop\n        /* \"#utility.yul\":1013:1370   */\n      swap3\n      swap2\n      pop\n      pop\n      jump\t// out\n        /* \"#utility.yul\":1376:1453   */\n    tag_231:\n        /* \"#utility.yul\":1413:1420   */\n      0x00\n        /* \"#utility.yul\":1442:1447   */\n      dup2\n        /* \"#utility.yul\":1431:1447   */\n      swap1\n      pop\n        /* \"#utility.yul\":1376:1453   */\n      swap2\n      swap1\n      pop\n      jump\t// out\n        /* \"#utility.yul\":1459:1577   */\n    tag_232:\n        /* \"#utility.yul\":1546:1570   */\n      tag_308\n        /* \"#utility.yul\":1564:1569   */\n      dup2\n        /* \"#utility.yul\":1546:1570   */\n      tag_231\n      jump\t// in\n    tag_308:\n        /* \"#utility.yul\":1541:1544   */\n      dup3\n        /* \"#utility.yul\":1534:1571   */\n      mstore\n        /* \"#utility.yul\":1459:1577   */\n      pop\n      pop\n      jump\t// out\n        /* \"#utility.yul\":1583:1805   */\n    tag_20:\n        /* \"#utility.yul\":1676:1680   */\n      0x00\n        /* \"#utility.yul\":1714:1716   */\n      0x20\n        /* \"#utility.yul\":1703:1712   */\n      dup3\n        /* \"#utility.yul\":1699:1717   */\n      add\n        /* \"#utility.yul\":1691:1717   */\n      swap1\n      pop\n        /* \"#utility.yul\":1727:1798   */\n      tag_310\n        /* \"#utility.yul\":1795:1796   */\n      0x00\n        /* \"#utility.yul\":1784:1793   */\n      dup4\n        /* \"#utility.yul\":1780:1797   */\n      add\n        /* \"#utility.yul\":1771:1777   */\n      dup5\n        /* \"#utility.yul\":1727:1798   */\n      tag_232\n      jump\t// in\n    tag_310:\n        /* \"#utility.yul\":1583:1805   */\n      swap3\n      swap2\n      pop\n      pop\n      jump\t// out\n        /* \"#utility.yul\":1811:1897   */\n    tag_233:\n        /* \"#utility.yul\":1846:1853   */\n      0x00\n        /* \"#utility.yul\":1886:1890   */\n      0xff\n        /* \"#utility.yul\":1879:1884   */\n      dup3\n        /* \"#utility.yul\":1875:1891   */\n      and\n        /* \"#utility.yul\":1864:1891   */\n      swap1\n      pop\n        /* \"#utility.yul\":1811:1897   */\n      swap2\n      swap1\n      pop\n      jump\t// out\n        /* \"#utility.yul\":1903:2021   */\n    tag_234:\n        /* \"#utility.yul\":1974:1996   */\n      tag_313\n        /* \"#utility.yul\":1990:1995   */\n      dup2\n        /* \"#utility.yul\":1974:1996   */\n      tag_233\n      jump\t// in\n    tag_313:\n        /* \"#utility.yul\":1967:1972   */\n      dup2\n        /* \"#utility.yul\":1964:1997   */\n      eq\n        /* \"#utility.yul\":1954:2015   */\n      tag_314\n      jumpi\n        /* \"#utility.yul\":2011:2012   */\n      0x00\n        /* \"#utility.yul\":2008:2009   */\n      dup1\n        /* \"#utility.yul\":2001:2013   */\n      revert\n        /* \"#utility.yul\":1954:2015   */\n    tag_314:\n        /* \"#utility.yul\":1903:2021   */\n      pop\n      jump\t// out\n        /* \"#utility.yul\":2027:2162   */\n    tag_235:\n        /* \"#utility.yul\":2071:2076   */\n      0x00\n        /* \"#utility.yul\":2109:2115   */\n      dup2\n        /* \"#utility.yul\":2096:2116   */\n      calldataload\n        /* \"#utility.yul\":2087:2116   */\n      swap1\n      pop\n        /* \"#utility.yul\":2125:2156   */\n      tag_316\n        /* \"#utility.yul\":2150:2155   */\n      dup2\n        /* \"#utility.yul\":2125:2156   */\n      tag_234\n      jump\t// in\n    tag_316:\n        /* \"#utility.yul\":2027:2162   */\n      swap3\n      swap2\n      pop\n      pop\n      jump\t// out\n        /* \"#utility.yul\":2168:2493   */\n    tag_24:\n        /* \"#utility.yul\":2225:2231   */\n      0x00\n        /* \"#utility.yul\":2274:2276   */\n      0x20\n        /* \"#utility.yul\":2262:2271   */\n      dup3\n        /* \"#utility.yul\":2253:2260   */\n      dup5\n        /* \"#utility.yul\":2249:2272   */\n      sub\n        /* \"#utility.yul\":2245:2277   */\n      slt\n        /* \"#utility.yul\":2242:2361   */\n      iszero\n      tag_318\n      jumpi\n        /* \"#utility.yul\":2280:2359   */\n      tag_319\n      tag_224\n      jump\t// in\n    tag_319:\n        /* \"#utility.yul\":2242:2361   */\n    tag_318:\n        /* \"#utility.yul\":2400:2401   */\n      0x00\n        /* \"#utility.yul\":2425:2476   */\n      tag_320\n        /* \"#utility.yul\":2468:2475   */\n      dup5\n        /* \"#utility.yul\":2459:2465   */\n      dup3\n        /* \"#utility.yul\":2448:2457   */\n      dup6\n        /* \"#utility.yul\":2444:2466   */\n      add\n        /* \"#utility.yul\":2425:2476   */\n      tag_235\n      jump\t// in\n    tag_320:\n        /* \"#utility.yul\":2415:2476   */\n      swap2\n      pop\n        /* \"#utility.yul\":2371:2486   */\n      pop\n        /* \"#utility.yul\":2168:2493   */\n      swap3\n      swap2\n      pop\n      pop\n      jump\t// out\n        /* \"#utility.yul\":2499:2634   */\n    tag_236:\n        /* \"#utility.yul\":2587:2593   */\n      0x00\n        /* \"#utility.yul\":2621:2626   */\n      dup2\n        /* \"#utility.yul\":2615:2627   */\n      mload\n        /* \"#utility.yul\":2605:2627   */\n      swap1\n      pop\n        /* \"#utility.yul\":2499:2634   */\n      swap2\n      swap1\n      pop\n      jump\t// out\n        /* \"#utility.yul\":2640:2845   */\n    tag_237:\n        /* \"#utility.yul\":2760:2771   */\n      0x00\n        /* \"#utility.yul\":2794:2800   */\n      dup3\n        /* \"#utility.yul\":2789:2792   */\n      dup3\n        /* \"#utility.yul\":2782:2801   */\n      mstore\n        /* \"#utility.yul\":2834:2838   */\n      0x20\n        /* \"#utility.yul\":2829:2832   */\n      dup3\n        /* \"#utility.yul\":2825:2839   */\n      add\n        /* \"#utility.yul\":2810:2839   */\n      swap1\n      pop\n        /* \"#utility.yul\":2640:2845   */\n      swap3\n      swap2\n      pop\n      pop\n      jump\t// out\n        /* \"#utility.yul\":2851:3004   */\n    tag_238:\n        /* \"#utility.yul\":2939:2943   */\n      0x00\n        /* \"#utility.yul\":2962:2965   */\n      dup2\n        /* \"#utility.yul\":2954:2965   */\n      swap1\n      pop\n        /* \"#utility.yul\":2992:2996   */\n      0x20\n        /* \"#utility.yul\":2987:2990   */\n      dup3\n        /* \"#utility.yul\":2983:2997   */\n      add\n        /* \"#utility.yul\":2975:2997   */\n      swap1\n      pop\n        /* \"#utility.yul\":2851:3004   */\n      swap2\n      swap1\n      pop\n      jump\t// out\n        /* \"#utility.yul\":3010:3118   */\n    tag_239:\n        /* \"#utility.yul\":3087:3111   */\n      tag_325\n        /* \"#utility.yul\":3105:3110   */\n      dup2\n        /* \"#utility.yul\":3087:3111   */\n      tag_227\n      jump\t// in\n    tag_325:\n        /* \"#utility.yul\":3082:3085   */\n      dup3\n        /* \"#utility.yul\":3075:3112   */\n      mstore\n        /* \"#utility.yul\":3010:3118   */\n      pop\n      pop\n      jump\t// out\n        /* \"#utility.yul\":3124:3232   */\n    tag_240:\n        /* \"#utility.yul\":3201:3225   */\n      tag_327\n        /* \"#utility.yul\":3219:3224   */\n      dup2\n        /* \"#utility.yul\":3201:3225   */\n      tag_231\n      jump\t// in\n    tag_327:\n        /* \"#utility.yul\":3196:3199   */\n      dup3\n        /* \"#utility.yul\":3189:3226   */\n      mstore\n        /* \"#utility.yul\":3124:3232   */\n      pop\n      pop\n      jump\t// out\n        /* \"#utility.yul\":3238:3340   */\n    tag_241:\n        /* \"#utility.yul\":3311:3333   */\n      tag_329\n        /* \"#utility.yul\":3327:3332   */\n      dup2\n        /* \"#utility.yul\":3311:3333   */\n      tag_233\n      jump\t// in\n    tag_329:\n        /* \"#utility.yul\":3306:3309   */\n      dup3\n        /* \"#utility.yul\":3299:3334   */\n      mstore\n        /* \"#utility.yul\":3238:3340   */\n      pop\n      pop\n      jump\t// out\n        /* \"#utility.yul\":3346:3436   */\n    tag_242:\n        /* \"#utility.yul\":3380:3387   */\n      0x00\n        /* \"#utility.yul\":3423:3428   */\n      dup2\n        /* \"#utility.yul\":3416:3429   */\n      iszero\n        /* \"#utility.yul\":3409:3430   */\n      iszero\n        /* \"#utility.yul\":3398:3430   */\n      swap1\n      pop\n        /* \"#utility.yul\":3346:3436   */\n      swap2\n      swap1\n      pop\n      jump\t// out\n        /* \"#utility.yul\":3442:3541   */\n    tag_243:\n        /* \"#utility.yul\":3513:3534   */\n      tag_332\n        /* \"#utility.yul\":3528:3533   */\n      dup2\n        /* \"#utility.yul\":3513:3534   */\n      tag_242\n      jump\t// in\n    tag_332:\n        /* \"#utility.yul\":3508:3511   */\n      dup3\n        /* \"#utility.yul\":3501:3535   */\n      mstore\n        /* \"#utility.yul\":3442:3541   */\n      pop\n      pop\n      jump\t// out\n        /* \"#utility.yul\":3593:4782   */\n    tag_244:\n        /* \"#utility.yul\":3722:3726   */\n      0xc0\n        /* \"#utility.yul\":3717:3720   */\n      dup3\n        /* \"#utility.yul\":3713:3727   */\n      add\n        /* \"#utility.yul\":3810:3814   */\n      0x00\n        /* \"#utility.yul\":3803:3808   */\n      dup3\n        /* \"#utility.yul\":3799:3815   */\n      add\n        /* \"#utility.yul\":3793:3816   */\n      mload\n        /* \"#utility.yul\":3829:3892   */\n      tag_334\n        /* \"#utility.yul\":3886:3890   */\n      0x00\n        /* \"#utility.yul\":3881:3884   */\n      dup6\n        /* \"#utility.yul\":3877:3891   */\n      add\n        /* \"#utility.yul\":3863:3875   */\n      dup3\n        /* \"#utility.yul\":3829:3892   */\n      tag_239\n      jump\t// in\n    tag_334:\n        /* \"#utility.yul\":3737:3902   */\n      pop\n        /* \"#utility.yul\":3986:3990   */\n      0x20\n        /* \"#utility.yul\":3979:3984   */\n      dup3\n        /* \"#utility.yul\":3975:3991   */\n      add\n        /* \"#utility.yul\":3969:3992   */\n      mload\n        /* \"#utility.yul\":4005:4068   */\n      tag_335\n        /* \"#utility.yul\":4062:4066   */\n      0x20\n        /* \"#utility.yul\":4057:4060   */\n      dup6\n        /* \"#utility.yul\":4053:4067   */\n      add\n        /* \"#utility.yul\":4039:4051   */\n      dup3\n        /* \"#utility.yul\":4005:4068   */\n      tag_240\n      jump\t// in\n    tag_335:\n        /* \"#utility.yul\":3912:4078   */\n      pop\n        /* \"#utility.yul\":4167:4171   */\n      0x40\n        /* \"#utility.yul\":4160:4165   */\n      dup3\n        /* \"#utility.yul\":4156:4172   */\n      add\n        /* \"#utility.yul\":4150:4173   */\n      mload\n        /* \"#utility.yul\":4186:4249   */\n      tag_336\n        /* \"#utility.yul\":4243:4247   */\n      0x40\n        /* \"#utility.yul\":4238:4241   */\n      dup6\n        /* \"#utility.yul\":4234:4248   */\n      add\n        /* \"#utility.yul\":4220:4232   */\n      dup3\n        /* \"#utility.yul\":4186:4249   */\n      tag_240\n      jump\t// in\n    tag_336:\n        /* \"#utility.yul\":4088:4259   */\n      pop\n        /* \"#utility.yul\":4342:4346   */\n      0x60\n        /* \"#utility.yul\":4335:4340   */\n      dup3\n        /* \"#utility.yul\":4331:4347   */\n      add\n        /* \"#utility.yul\":4325:4348   */\n      mload\n        /* \"#utility.yul\":4361:4420   */\n      tag_337\n        /* \"#utility.yul\":4414:4418   */\n      0x60\n        /* \"#utility.yul\":4409:4412   */\n      dup6\n        /* \"#utility.yul\":4405:4419   */\n      add\n        /* \"#utility.yul\":4391:4403   */\n      dup3\n        /* \"#utility.yul\":4361:4420   */\n      tag_241\n      jump\t// in\n    tag_337:\n        /* \"#utility.yul\":4269:4430   */\n      pop\n        /* \"#utility.yul\":4517:4521   */\n      0x80\n        /* \"#utility.yul\":4510:4515   */\n      dup3\n        /* \"#utility.yul\":4506:4522   */\n      add\n        /* \"#utility.yul\":4500:4523   */\n      mload\n        /* \"#utility.yul\":4536:4593   */\n      tag_338\n        /* \"#utility.yul\":4587:4591   */\n      0x80\n        /* \"#utility.yul\":4582:4585   */\n      dup6\n        /* \"#utility.yul\":4578:4592   */\n      add\n        /* \"#utility.yul\":4564:4576   */\n      dup3\n        /* \"#utility.yul\":4536:4593   */\n      tag_243\n      jump\t// in\n    tag_338:\n        /* \"#utility.yul\":4440:4603   */\n      pop\n        /* \"#utility.yul\":4689:4693   */\n      0xa0\n        /* \"#utility.yul\":4682:4687   */\n      dup3\n        /* \"#utility.yul\":4678:4694   */\n      add\n        /* \"#utility.yul\":4672:4695   */\n      mload\n        /* \"#utility.yul\":4708:4765   */\n      tag_339\n        /* \"#utility.yul\":4759:4763   */\n      0xa0\n        /* \"#utility.yul\":4754:4757   */\n      dup6\n        /* \"#utility.yul\":4750:4764   */\n      add\n        /* \"#utility.yul\":4736:4748   */\n      dup3\n        /* \"#utility.yul\":4708:4765   */\n      tag_243\n      jump\t// in\n    tag_339:\n        /* \"#utility.yul\":4613:4775   */\n      pop\n        /* \"#utility.yul\":3691:4782   */\n      pop\n        /* \"#utility.yul\":3593:4782   */\n      pop\n      pop\n      jump\t// out\n        /* \"#utility.yul\":4788:5051   */\n    tag_245:\n        /* \"#utility.yul\":4899:4909   */\n      0x00\n        /* \"#utility.yul\":4920:5008   */\n      tag_341\n        /* \"#utility.yul\":5004:5007   */\n      dup4\n        /* \"#utility.yul\":4996:5002   */\n      dup4\n        /* \"#utility.yul\":4920:5008   */\n      tag_244\n      jump\t// in\n    tag_341:\n        /* \"#utility.yul\":5040:5044   */\n      0xc0\n        /* \"#utility.yul\":5035:5038   */\n      dup4\n        /* \"#utility.yul\":5031:5045   */\n      add\n        /* \"#utility.yul\":5017:5045   */\n      swap1\n      pop\n        /* \"#utility.yul\":4788:5051   */\n      swap3\n      swap2\n      pop\n      pop\n      jump\t// out\n        /* \"#utility.yul\":5057:5191   */\n    tag_246:\n        /* \"#utility.yul\":5148:5152   */\n      0x00\n        /* \"#utility.yul\":5180:5184   */\n      0x20\n        /* \"#utility.yul\":5175:5178   */\n      dup3\n        /* \"#utility.yul\":5171:5185   */\n      add\n        /* \"#utility.yul\":5163:5185   */\n      swap1\n      pop\n        /* \"#utility.yul\":5057:5191   */\n      swap2\n      swap1\n      pop\n      jump\t// out\n        /* \"#utility.yul\":5247:6147   */\n    tag_247:\n        /* \"#utility.yul\":5408:5411   */\n      0x00\n        /* \"#utility.yul\":5437:5512   */\n      tag_344\n        /* \"#utility.yul\":5506:5511   */\n      dup3\n        /* \"#utility.yul\":5437:5512   */\n      tag_236\n      jump\t// in\n    tag_344:\n        /* \"#utility.yul\":5528:5635   */\n      tag_345\n        /* \"#utility.yul\":5628:5634   */\n      dup2\n        /* \"#utility.yul\":5623:5626   */\n      dup6\n        /* \"#utility.yul\":5528:5635   */\n      tag_237\n      jump\t// in\n    tag_345:\n        /* \"#utility.yul\":5521:5635   */\n      swap4\n      pop\n        /* \"#utility.yul\":5659:5736   */\n      tag_346\n        /* \"#utility.yul\":5730:5735   */\n      dup4\n        /* \"#utility.yul\":5659:5736   */\n      tag_238\n      jump\t// in\n    tag_346:\n        /* \"#utility.yul\":5759:5766   */\n      dup1\n        /* \"#utility.yul\":5790:5791   */\n      0x00\n        /* \"#utility.yul\":5775:6122   */\n    tag_347:\n        /* \"#utility.yul\":5800:5806   */\n      dup4\n        /* \"#utility.yul\":5797:5798   */\n      dup2\n        /* \"#utility.yul\":5794:5807   */\n      lt\n        /* \"#utility.yul\":5775:6122   */\n      iszero\n      tag_349\n      jumpi\n        /* \"#utility.yul\":5876:5882   */\n      dup2\n        /* \"#utility.yul\":5870:5883   */\n      mload\n        /* \"#utility.yul\":5903:6008   */\n      tag_350\n        /* \"#utility.yul\":6004:6007   */\n      dup9\n        /* \"#utility.yul\":5989:6002   */\n      dup3\n        /* \"#utility.yul\":5903:6008   */\n      tag_245\n      jump\t// in\n    tag_350:\n        /* \"#utility.yul\":5896:6008   */\n      swap8\n      pop\n        /* \"#utility.yul\":6031:6112   */\n      tag_351\n        /* \"#utility.yul\":6105:6111   */\n      dup4\n        /* \"#utility.yul\":6031:6112   */\n      tag_246\n      jump\t// in\n    tag_351:\n        /* \"#utility.yul\":6021:6112   */\n      swap3\n      pop\n        /* \"#utility.yul\":5835:6122   */\n      pop\n        /* \"#utility.yul\":5822:5823   */\n      0x01\n        /* \"#utility.yul\":5819:5820   */\n      dup2\n        /* \"#utility.yul\":5815:5824   */\n      add\n        /* \"#utility.yul\":5810:5824   */\n      swap1\n      pop\n        /* \"#utility.yul\":5775:6122   */\n      jump(tag_347)\n    tag_349:\n        /* \"#utility.yul\":5779:5793   */\n      pop\n        /* \"#utility.yul\":6138:6141   */\n      dup6\n        /* \"#utility.yul\":6131:6141   */\n      swap4\n      pop\n        /* \"#utility.yul\":5413:6147   */\n      pop\n      pop\n      pop\n        /* \"#utility.yul\":5247:6147   */\n      swap3\n      swap2\n      pop\n      pop\n      jump\t// out\n        /* \"#utility.yul\":6153:6610   */\n    tag_27:\n        /* \"#utility.yul\":6338:6342   */\n      0x00\n        /* \"#utility.yul\":6376:6378   */\n      0x20\n        /* \"#utility.yul\":6365:6374   */\n      dup3\n        /* \"#utility.yul\":6361:6379   */\n      add\n        /* \"#utility.yul\":6353:6379   */\n      swap1\n      pop\n        /* \"#utility.yul\":6425:6434   */\n      dup2\n        /* \"#utility.yul\":6419:6423   */\n      dup2\n        /* \"#utility.yul\":6415:6435   */\n      sub\n        /* \"#utility.yul\":6411:6412   */\n      0x00\n        /* \"#utility.yul\":6400:6409   */\n      dup4\n        /* \"#utility.yul\":6396:6413   */\n      add\n        /* \"#utility.yul\":6389:6436   */\n      mstore\n        /* \"#utility.yul\":6453:6603   */\n      tag_353\n        /* \"#utility.yul\":6598:6602   */\n      dup2\n        /* \"#utility.yul\":6589:6595   */\n      dup5\n        /* \"#utility.yul\":6453:6603   */\n      tag_247\n      jump\t// in\n    tag_353:\n        /* \"#utility.yul\":6445:6603   */\n      swap1\n      pop\n        /* \"#utility.yul\":6153:6610   */\n      swap3\n      swap2\n      pop\n      pop\n      jump\t// out\n        /* \"#utility.yul\":6616:6738   */\n    tag_248:\n        /* \"#utility.yul\":6689:6713   */\n      tag_355\n        /* \"#utility.yul\":6707:6712   */\n      dup2\n        /* \"#utility.yul\":6689:6713   */\n      tag_231\n      jump\t// in\n    tag_355:\n        /* \"#utility.yul\":6682:6687   */\n      dup2\n        /* \"#utility.yul\":6679:6714   */\n      eq\n        /* \"#utility.yul\":6669:6732   */\n      tag_356\n      jumpi\n        /* \"#utility.yul\":6728:6729   */\n      0x00\n        /* \"#utility.yul\":6725:6726   */\n      dup1\n        /* \"#utility.yul\":6718:6730   */\n      revert\n        /* \"#utility.yul\":6669:6732   */\n    tag_356:\n        /* \"#utility.yul\":6616:6738   */\n      pop\n      jump\t// out\n        /* \"#utility.yul\":6744:6883   */\n    tag_249:\n        /* \"#utility.yul\":6790:6795   */\n      0x00\n        /* \"#utility.yul\":6828:6834   */\n      dup2\n        /* \"#utility.yul\":6815:6835   */\n      calldataload\n        /* \"#utility.yul\":6806:6835   */\n      swap1\n      pop\n        /* \"#utility.yul\":6844:6877   */\n      tag_358\n        /* \"#utility.yul\":6871:6876   */\n      dup2\n        /* \"#utility.yul\":6844:6877   */\n      tag_248\n      jump\t// in\n    tag_358:\n        /* \"#utility.yul\":6744:6883   */\n      swap3\n      swap2\n      pop\n      pop\n      jump\t// out\n        /* \"#utility.yul\":6889:7359   */\n    tag_30:\n        /* \"#utility.yul\":6955:6961   */\n      0x00\n        /* \"#utility.yul\":6963:6969   */\n      dup1\n        /* \"#utility.yul\":7012:7014   */\n      0x40\n        /* \"#utility.yul\":7000:7009   */\n      dup4\n        /* \"#utility.yul\":6991:6998   */\n      dup6\n        /* \"#utility.yul\":6987:7010   */\n      sub\n        /* \"#utility.yul\":6983:7015   */\n      slt\n        /* \"#utility.yul\":6980:7099   */\n      iszero\n      tag_360\n      jumpi\n        /* \"#utility.yul\":7018:7097   */\n      tag_361\n      tag_224\n      jump\t// in\n    tag_361:\n        /* \"#utility.yul\":6980:7099   */\n    tag_360:\n        /* \"#utility.yul\":7138:7139   */\n      0x00\n        /* \"#utility.yul\":7163:7214   */\n      tag_362\n        /* \"#utility.yul\":7206:7213   */\n      dup6\n        /* \"#utility.yul\":7197:7203   */\n      dup3\n        /* \"#utility.yul\":7186:7195   */\n      dup7\n        /* \"#utility.yul\":7182:7204   */\n      add\n        /* \"#utility.yul\":7163:7214   */\n      tag_235\n      jump\t// in\n    tag_362:\n        /* \"#utility.yul\":7153:7214   */\n      swap3\n      pop\n        /* \"#utility.yul\":7109:7224   */\n      pop\n        /* \"#utility.yul\":7263:7265   */\n      0x20\n        /* \"#utility.yul\":7289:7342   */\n      tag_363\n        /* \"#utility.yul\":7334:7341   */\n      dup6\n        /* \"#utility.yul\":7325:7331   */\n      dup3\n        /* \"#utility.yul\":7314:7323   */\n      dup7\n        /* \"#utility.yul\":7310:7332   */\n      add\n        /* \"#utility.yul\":7289:7342   */\n      tag_249\n      jump\t// in\n    tag_363:\n        /* \"#utility.yul\":7279:7342   */\n      swap2\n      pop\n        /* \"#utility.yul\":7234:7352   */\n      pop\n        /* \"#utility.yul\":6889:7359   */\n      swap3\n      pop\n      swap3\n      swap1\n      pop\n      jump\t// out\n        /* \"#utility.yul\":7365:8154   */\n    tag_35:\n        /* \"#utility.yul\":7463:7469   */\n      0x00\n        /* \"#utility.yul\":7471:7477   */\n      dup1\n        /* \"#utility.yul\":7479:7485   */\n      0x00\n        /* \"#utility.yul\":7487:7493   */\n      dup1\n        /* \"#utility.yul\":7536:7539   */\n      0x80\n        /* \"#utility.yul\":7524:7533   */\n      dup6\n        /* \"#utility.yul\":7515:7522   */\n      dup8\n        /* \"#utility.yul\":7511:7534   */\n      sub\n        /* \"#utility.yul\":7507:7540   */\n      slt\n        /* \"#utility.yul\":7504:7624   */\n      iszero\n      tag_365\n      jumpi\n        /* \"#utility.yul\":7543:7622   */\n      tag_366\n      tag_224\n      jump\t// in\n    tag_366:\n        /* \"#utility.yul\":7504:7624   */\n    tag_365:\n        /* \"#utility.yul\":7663:7664   */\n      0x00\n        /* \"#utility.yul\":7688:7755   */\n      tag_367\n        /* \"#utility.yul\":7747:7754   */\n      dup8\n        /* \"#utility.yul\":7738:7744   */\n      dup3\n        /* \"#utility.yul\":7727:7736   */\n      dup9\n        /* \"#utility.yul\":7723:7745   */\n      add\n        /* \"#utility.yul\":7688:7755   */\n      tag_230\n      jump\t// in\n    tag_367:\n        /* \"#utility.yul\":7678:7755   */\n      swap5\n      pop\n        /* \"#utility.yul\":7634:7765   */\n      pop\n        /* \"#utility.yul\":7804:7806   */\n      0x20\n        /* \"#utility.yul\":7830:7883   */\n      tag_368\n        /* \"#utility.yul\":7875:7882   */\n      dup8\n        /* \"#utility.yul\":7866:7872   */\n      dup3\n        /* \"#utility.yul\":7855:7864   */\n      dup9\n        /* \"#utility.yul\":7851:7873   */\n      add\n        /* \"#utility.yul\":7830:7883   */\n      tag_249\n      jump\t// in\n    tag_368:\n        /* \"#utility.yul\":7820:7883   */\n      swap4\n      pop\n        /* \"#utility.yul\":7775:7893   */\n      pop\n        /* \"#utility.yul\":7932:7934   */\n      0x40\n        /* \"#utility.yul\":7958:8009   */\n      tag_369\n        /* \"#utility.yul\":8001:8008   */\n      dup8\n        /* \"#utility.yul\":7992:7998   */\n      dup3\n        /* \"#utility.yul\":7981:7990   */\n      dup9\n        /* \"#utility.yul\":7977:7999   */\n      add\n        /* \"#utility.yul\":7958:8009   */\n      tag_235\n      jump\t// in\n    tag_369:\n        /* \"#utility.yul\":7948:8009   */\n      swap3\n      pop\n        /* \"#utility.yul\":7903:8019   */\n      pop\n        /* \"#utility.yul\":8058:8060   */\n      0x60\n        /* \"#utility.yul\":8084:8137   */\n      tag_370\n        /* \"#utility.yul\":8129:8136   */\n      dup8\n        /* \"#utility.yul\":8120:8126   */\n      dup3\n        /* \"#utility.yul\":8109:8118   */\n      dup9\n        /* \"#utility.yul\":8105:8127   */\n      add\n        /* \"#utility.yul\":8084:8137   */\n      tag_249\n      jump\t// in\n    tag_370:\n        /* \"#utility.yul\":8074:8137   */\n      swap2\n      pop\n        /* \"#utility.yul\":8029:8147   */\n      pop\n        /* \"#utility.yul\":7365:8154   */\n      swap3\n      swap6\n      swap2\n      swap5\n      pop\n      swap3\n      pop\n      jump\t// out\n        /* \"#utility.yul\":8160:8278   */\n    tag_250:\n        /* \"#utility.yul\":8247:8271   */\n      tag_372\n        /* \"#utility.yul\":8265:8270   */\n      dup2\n        /* \"#utility.yul\":8247:8271   */\n      tag_227\n      jump\t// in\n    tag_372:\n        /* \"#utility.yul\":8242:8245   */\n      dup3\n        /* \"#utility.yul\":8235:8272   */\n      mstore\n        /* \"#utility.yul\":8160:8278   */\n      pop\n      pop\n      jump\t// out\n        /* \"#utility.yul\":8284:8506   */\n    tag_48:\n        /* \"#utility.yul\":8377:8381   */\n      0x00\n        /* \"#utility.yul\":8415:8417   */\n      0x20\n        /* \"#utility.yul\":8404:8413   */\n      dup3\n        /* \"#utility.yul\":8400:8418   */\n      add\n        /* \"#utility.yul\":8392:8418   */\n      swap1\n      pop\n        /* \"#utility.yul\":8428:8499   */\n      tag_374\n        /* \"#utility.yul\":8496:8497   */\n      0x00\n        /* \"#utility.yul\":8485:8494   */\n      dup4\n        /* \"#utility.yul\":8481:8498   */\n      add\n        /* \"#utility.yul\":8472:8478   */\n      dup5\n        /* \"#utility.yul\":8428:8499   */\n      tag_250\n      jump\t// in\n    tag_374:\n        /* \"#utility.yul\":8284:8506   */\n      swap3\n      swap2\n      pop\n      pop\n      jump\t// out\n        /* \"#utility.yul\":8512:8634   */\n    tag_251:\n        /* \"#utility.yul\":8585:8609   */\n      tag_376\n        /* \"#utility.yul\":8603:8608   */\n      dup2\n        /* \"#utility.yul\":8585:8609   */\n      tag_227\n      jump\t// in\n    tag_376:\n        /* \"#utility.yul\":8578:8583   */\n      dup2\n        /* \"#utility.yul\":8575:8610   */\n      eq\n        /* \"#utility.yul\":8565:8628   */\n      tag_377\n      jumpi\n        /* \"#utility.yul\":8624:8625   */\n      0x00\n        /* \"#utility.yul\":8621:8622   */\n      dup1\n        /* \"#utility.yul\":8614:8626   */\n      revert\n        /* \"#utility.yul\":8565:8628   */\n    tag_377:\n        /* \"#utility.yul\":8512:8634   */\n      pop\n      jump\t// out\n        /* \"#utility.yul\":8640:8779   */\n    tag_252:\n        /* \"#utility.yul\":8686:8691   */\n      0x00\n        /* \"#utility.yul\":8724:8730   */\n      dup2\n        /* \"#utility.yul\":8711:8731   */\n      calldataload\n        /* \"#utility.yul\":8702:8731   */\n      swap1\n      pop\n        /* \"#utility.yul\":8740:8773   */\n      tag_379\n        /* \"#utility.yul\":8767:8772   */\n      dup2\n        /* \"#utility.yul\":8740:8773   */\n      tag_251\n      jump\t// in\n    tag_379:\n        /* \"#utility.yul\":8640:8779   */\n      swap3\n      swap2\n      pop\n      pop\n      jump\t// out\n        /* \"#utility.yul\":8785:9400   */\n    tag_52:\n        /* \"#utility.yul\":8860:8866   */\n      0x00\n        /* \"#utility.yul\":8868:8874   */\n      dup1\n        /* \"#utility.yul\":8876:8882   */\n      0x00\n        /* \"#utility.yul\":8925:8927   */\n      0x60\n        /* \"#utility.yul\":8913:8922   */\n      dup5\n        /* \"#utility.yul\":8904:8911   */\n      dup7\n        /* \"#utility.yul\":8900:8923   */\n      sub\n        /* \"#utility.yul\":8896:8928   */\n      slt\n        /* \"#utility.yul\":8893:9012   */\n      iszero\n      tag_381\n      jumpi\n        /* \"#utility.yul\":8931:9010   */\n      tag_382\n      tag_224\n      jump\t// in\n    tag_382:\n        /* \"#utility.yul\":8893:9012   */\n    tag_381:\n        /* \"#utility.yul\":9051:9052   */\n      0x00\n        /* \"#utility.yul\":9076:9129   */\n      tag_383\n        /* \"#utility.yul\":9121:9128   */\n      dup7\n        /* \"#utility.yul\":9112:9118   */\n      dup3\n        /* \"#utility.yul\":9101:9110   */\n      dup8\n        /* \"#utility.yul\":9097:9119   */\n      add\n        /* \"#utility.yul\":9076:9129   */\n      tag_252\n      jump\t// in\n    tag_383:\n        /* \"#utility.yul\":9066:9129   */\n      swap4\n      pop\n        /* \"#utility.yul\":9022:9139   */\n      pop\n        /* \"#utility.yul\":9178:9180   */\n      0x20\n        /* \"#utility.yul\":9204:9255   */\n      tag_384\n        /* \"#utility.yul\":9247:9254   */\n      dup7\n        /* \"#utility.yul\":9238:9244   */\n      dup3\n        /* \"#utility.yul\":9227:9236   */\n      dup8\n        /* \"#utility.yul\":9223:9245   */\n      add\n        /* \"#utility.yul\":9204:9255   */\n      tag_235\n      jump\t// in\n    tag_384:\n        /* \"#utility.yul\":9194:9255   */\n      swap3\n      pop\n        /* \"#utility.yul\":9149:9265   */\n      pop\n        /* \"#utility.yul\":9304:9306   */\n      0x40\n        /* \"#utility.yul\":9330:9383   */\n      tag_385\n        /* \"#utility.yul\":9375:9382   */\n      dup7\n        /* \"#utility.yul\":9366:9372   */\n      dup3\n        /* \"#utility.yul\":9355:9364   */\n      dup8\n        /* \"#utility.yul\":9351:9373   */\n      add\n        /* \"#utility.yul\":9330:9383   */\n      tag_249\n      jump\t// in\n    tag_385:\n        /* \"#utility.yul\":9320:9383   */\n      swap2\n      pop\n        /* \"#utility.yul\":9275:9393   */\n      pop\n        /* \"#utility.yul\":8785:9400   */\n      swap3\n      pop\n      swap3\n      pop\n      swap3\n      jump\t// out\n        /* \"#utility.yul\":9406:9518   */\n    tag_253:\n        /* \"#utility.yul\":9489:9511   */\n      tag_387\n        /* \"#utility.yul\":9505:9510   */\n      dup2\n        /* \"#utility.yul\":9489:9511   */\n      tag_233\n      jump\t// in\n    tag_387:\n        /* \"#utility.yul\":9484:9487   */\n      dup3\n        /* \"#utility.yul\":9477:9512   */\n      mstore\n        /* \"#utility.yul\":9406:9518   */\n      pop\n      pop\n      jump\t// out\n        /* \"#utility.yul\":9524:9633   */\n    tag_254:\n        /* \"#utility.yul\":9605:9626   */\n      tag_389\n        /* \"#utility.yul\":9620:9625   */\n      dup2\n        /* \"#utility.yul\":9605:9626   */\n      tag_242\n      jump\t// in\n    tag_389:\n        /* \"#utility.yul\":9600:9603   */\n      dup3\n        /* \"#utility.yul\":9593:9627   */\n      mstore\n        /* \"#utility.yul\":9524:9633   */\n      pop\n      pop\n      jump\t// out\n        /* \"#utility.yul\":9639:10382   */\n    tag_55:\n        /* \"#utility.yul\":9856:9860   */\n      0x00\n        /* \"#utility.yul\":9894:9897   */\n      0xc0\n        /* \"#utility.yul\":9883:9892   */\n      dup3\n        /* \"#utility.yul\":9879:9898   */\n      add\n        /* \"#utility.yul\":9871:9898   */\n      swap1\n      pop\n        /* \"#utility.yul\":9908:9979   */\n      tag_391\n        /* \"#utility.yul\":9976:9977   */\n      0x00\n        /* \"#utility.yul\":9965:9974   */\n      dup4\n        /* \"#utility.yul\":9961:9978   */\n      add\n        /* \"#utility.yul\":9952:9958   */\n      dup10\n        /* \"#utility.yul\":9908:9979   */\n      tag_250\n      jump\t// in\n    tag_391:\n        /* \"#utility.yul\":9989:10061   */\n      tag_392\n        /* \"#utility.yul\":10057:10059   */\n      0x20\n        /* \"#utility.yul\":10046:10055   */\n      dup4\n        /* \"#utility.yul\":10042:10060   */\n      add\n        /* \"#utility.yul\":10033:10039   */\n      dup9\n        /* \"#utility.yul\":9989:10061   */\n      tag_232\n      jump\t// in\n    tag_392:\n        /* \"#utility.yul\":10071:10143   */\n      tag_393\n        /* \"#utility.yul\":10139:10141   */\n      0x40\n        /* \"#utility.yul\":10128:10137   */\n      dup4\n        /* \"#utility.yul\":10124:10142   */\n      add\n        /* \"#utility.yul\":10115:10121   */\n      dup8\n        /* \"#utility.yul\":10071:10143   */\n      tag_232\n      jump\t// in\n    tag_393:\n        /* \"#utility.yul\":10153:10221   */\n      tag_394\n        /* \"#utility.yul\":10217:10219   */\n      0x60\n        /* \"#utility.yul\":10206:10215   */\n      dup4\n        /* \"#utility.yul\":10202:10220   */\n      add\n        /* \"#utility.yul\":10193:10199   */\n      dup7\n        /* \"#utility.yul\":10153:10221   */\n      tag_253\n      jump\t// in\n    tag_394:\n        /* \"#utility.yul\":10231:10298   */\n      tag_395\n        /* \"#utility.yul\":10293:10296   */\n      0x80\n        /* \"#utility.yul\":10282:10291   */\n      dup4\n        /* \"#utility.yul\":10278:10297   */\n      add\n        /* \"#utility.yul\":10269:10275   */\n      dup6\n        /* \"#utility.yul\":10231:10298   */\n      tag_254\n      jump\t// in\n    tag_395:\n        /* \"#utility.yul\":10308:10375   */\n      tag_396\n        /* \"#utility.yul\":10370:10373   */\n      0xa0\n        /* \"#utility.yul\":10359:10368   */\n      dup4\n        /* \"#utility.yul\":10355:10374   */\n      add\n        /* \"#utility.yul\":10346:10352   */\n      dup5\n        /* \"#utility.yul\":10308:10375   */\n      tag_254\n      jump\t// in\n    tag_396:\n        /* \"#utility.yul\":9639:10382   */\n      swap8\n      swap7\n      pop\n      pop\n      pop\n      pop\n      pop\n      pop\n      pop\n      jump\t// out\n        /* \"#utility.yul\":10388:10481   */\n    tag_255:\n        /* \"#utility.yul\":10424:10431   */\n      0x00\n        /* \"#utility.yul\":10464:10474   */\n      0xffffffff\n        /* \"#utility.yul\":10457:10462   */\n      dup3\n        /* \"#utility.yul\":10453:10475   */\n      and\n        /* \"#utility.yul\":10442:10475   */\n      swap1\n      pop\n        /* \"#utility.yul\":10388:10481   */\n      swap2\n      swap1\n      pop\n      jump\t// out\n        /* \"#utility.yul\":10487:10607   */\n    tag_256:\n        /* \"#utility.yul\":10559:10582   */\n      tag_399\n        /* \"#utility.yul\":10576:10581   */\n      dup2\n        /* \"#utility.yul\":10559:10582   */\n      tag_255\n      jump\t// in\n    tag_399:\n        /* \"#utility.yul\":10552:10557   */\n      dup2\n        /* \"#utility.yul\":10549:10583   */\n      eq\n        /* \"#utility.yul\":10539:10601   */\n      tag_400\n      jumpi\n        /* \"#utility.yul\":10597:10598   */\n      0x00\n        /* \"#utility.yul\":10594:10595   */\n      dup1\n        /* \"#utility.yul\":10587:10599   */\n      revert\n        /* \"#utility.yul\":10539:10601   */\n    tag_400:\n        /* \"#utility.yul\":10487:10607   */\n      pop\n      jump\t// out\n        /* \"#utility.yul\":10613:10750   */\n    tag_257:\n        /* \"#utility.yul\":10658:10663   */\n      0x00\n        /* \"#utility.yul\":10696:10702   */\n      dup2\n        /* \"#utility.yul\":10683:10703   */\n      calldataload\n        /* \"#utility.yul\":10674:10703   */\n      swap1\n      pop\n        /* \"#utility.yul\":10712:10744   */\n      tag_402\n        /* \"#utility.yul\":10738:10743   */\n      dup2\n        /* \"#utility.yul\":10712:10744   */\n      tag_256\n      jump\t// in\n    tag_402:\n        /* \"#utility.yul\":10613:10750   */\n      swap3\n      swap2\n      pop\n      pop\n      jump\t// out\n        /* \"#utility.yul\":10756:11369   */\n    tag_59:\n        /* \"#utility.yul\":10830:10836   */\n      0x00\n        /* \"#utility.yul\":10838:10844   */\n      dup1\n        /* \"#utility.yul\":10846:10852   */\n      0x00\n        /* \"#utility.yul\":10895:10897   */\n      0x60\n        /* \"#utility.yul\":10883:10892   */\n      dup5\n        /* \"#utility.yul\":10874:10881   */\n      dup7\n        /* \"#utility.yul\":10870:10893   */\n      sub\n        /* \"#utility.yul\":10866:10898   */\n      slt\n        /* \"#utility.yul\":10863:10982   */\n      iszero\n      tag_404\n      jumpi\n        /* \"#utility.yul\":10901:10980   */\n      tag_405\n      tag_224\n      jump\t// in\n    tag_405:\n        /* \"#utility.yul\":10863:10982   */\n    tag_404:\n        /* \"#utility.yul\":11021:11022   */\n      0x00\n        /* \"#utility.yul\":11046:11098   */\n      tag_406\n        /* \"#utility.yul\":11090:11097   */\n      dup7\n        /* \"#utility.yul\":11081:11087   */\n      dup3\n        /* \"#utility.yul\":11070:11079   */\n      dup8\n        /* \"#utility.yul\":11066:11088   */\n      add\n        /* \"#utility.yul\":11046:11098   */\n      tag_257\n      jump\t// in\n    tag_406:\n        /* \"#utility.yul\":11036:11098   */\n      swap4\n      pop\n        /* \"#utility.yul\":10992:11108   */\n      pop\n        /* \"#utility.yul\":11147:11149   */\n      0x20\n        /* \"#utility.yul\":11173:11224   */\n      tag_407\n        /* \"#utility.yul\":11216:11223   */\n      dup7\n        /* \"#utility.yul\":11207:11213   */\n      dup3\n        /* \"#utility.yul\":11196:11205   */\n      dup8\n        /* \"#utility.yul\":11192:11214   */\n      add\n        /* \"#utility.yul\":11173:11224   */\n      tag_235\n      jump\t// in\n    tag_407:\n        /* \"#utility.yul\":11163:11224   */\n      swap3\n      pop\n        /* \"#utility.yul\":11118:11234   */\n      pop\n        /* \"#utility.yul\":11273:11275   */\n      0x40\n        /* \"#utility.yul\":11299:11352   */\n      tag_408\n        /* \"#utility.yul\":11344:11351   */\n      dup7\n        /* \"#utility.yul\":11335:11341   */\n      dup3\n        /* \"#utility.yul\":11324:11333   */\n      dup8\n        /* \"#utility.yul\":11320:11342   */\n      add\n        /* \"#utility.yul\":11299:11352   */\n      tag_249\n      jump\t// in\n    tag_408:\n        /* \"#utility.yul\":11289:11352   */\n      swap2\n      pop\n        /* \"#utility.yul\":11244:11362   */\n      pop\n        /* \"#utility.yul\":10756:11369   */\n      swap3\n      pop\n      swap3\n      pop\n      swap3\n      jump\t// out\n        /* \"#utility.yul\":11375:11843   */\n    tag_63:\n        /* \"#utility.yul\":11440:11446   */\n      0x00\n        /* \"#utility.yul\":11448:11454   */\n      dup1\n        /* \"#utility.yul\":11497:11499   */\n      0x40\n        /* \"#utility.yul\":11485:11494   */\n      dup4\n        /* \"#utility.yul\":11476:11483   */\n      dup6\n        /* \"#utility.yul\":11472:11495   */\n      sub\n        /* \"#utility.yul\":11468:11500   */\n      slt\n        /* \"#utility.yul\":11465:11584   */\n      iszero\n      tag_410\n      jumpi\n        /* \"#utility.yul\":11503:11582   */\n      tag_411\n      tag_224\n      jump\t// in\n    tag_411:\n        /* \"#utility.yul\":11465:11584   */\n    tag_410:\n        /* \"#utility.yul\":11623:11624   */\n      0x00\n        /* \"#utility.yul\":11648:11699   */\n      tag_412\n        /* \"#utility.yul\":11691:11698   */\n      dup6\n        /* \"#utility.yul\":11682:11688   */\n      dup3\n        /* \"#utility.yul\":11671:11680   */\n      dup7\n        /* \"#utility.yul\":11667:11689   */\n      add\n        /* \"#utility.yul\":11648:11699   */\n      tag_235\n      jump\t// in\n    tag_412:\n        /* \"#utility.yul\":11638:11699   */\n      swap3\n      pop\n        /* \"#utility.yul\":11594:11709   */\n      pop\n        /* \"#utility.yul\":11748:11750   */\n      0x20\n        /* \"#utility.yul\":11774:11826   */\n      tag_413\n        /* \"#utility.yul\":11818:11825   */\n      dup6\n        /* \"#utility.yul\":11809:11815   */\n      dup3\n        /* \"#utility.yul\":11798:11807   */\n      dup7\n        /* \"#utility.yul\":11794:11816   */\n      add\n        /* \"#utility.yul\":11774:11826   */\n      tag_257\n      jump\t// in\n    tag_413:\n        /* \"#utility.yul\":11764:11826   */\n      swap2\n      pop\n        /* \"#utility.yul\":11719:11836   */\n      pop\n        /* \"#utility.yul\":11375:11843   */\n      swap3\n      pop\n      swap3\n      swap1\n      pop\n      jump\t// out\n        /* \"#utility.yul\":11849:12178   */\n    tag_68:\n        /* \"#utility.yul\":11908:11914   */\n      0x00\n        /* \"#utility.yul\":11957:11959   */\n      0x20\n        /* \"#utility.yul\":11945:11954   */\n      dup3\n        /* \"#utility.yul\":11936:11943   */\n      dup5\n        /* \"#utility.yul\":11932:11955   */\n      sub\n        /* \"#utility.yul\":11928:11960   */\n      slt\n        /* \"#utility.yul\":11925:12044   */\n      iszero\n      tag_415\n      jumpi\n        /* \"#utility.yul\":11963:12042   */\n      tag_416\n      tag_224\n      jump\t// in\n    tag_416:\n        /* \"#utility.yul\":11925:12044   */\n    tag_415:\n        /* \"#utility.yul\":12083:12084   */\n      0x00\n        /* \"#utility.yul\":12108:12161   */\n      tag_417\n        /* \"#utility.yul\":12153:12160   */\n      dup5\n        /* \"#utility.yul\":12144:12150   */\n      dup3\n        /* \"#utility.yul\":12133:12142   */\n      dup6\n        /* \"#utility.yul\":12129:12151   */\n      add\n        /* \"#utility.yul\":12108:12161   */\n      tag_252\n      jump\t// in\n    tag_417:\n        /* \"#utility.yul\":12098:12161   */\n      swap2\n      pop\n        /* \"#utility.yul\":12054:12171   */\n      pop\n        /* \"#utility.yul\":11849:12178   */\n      swap3\n      swap2\n      pop\n      pop\n      jump\t// out\n        /* \"#utility.yul\":12184:12327   */\n    tag_258:\n        /* \"#utility.yul\":12241:12246   */\n      0x00\n        /* \"#utility.yul\":12272:12278   */\n      dup2\n        /* \"#utility.yul\":12266:12279   */\n      mload\n        /* \"#utility.yul\":12257:12279   */\n      swap1\n      pop\n        /* \"#utility.yul\":12288:12321   */\n      tag_419\n        /* \"#utility.yul\":12315:12320   */\n      dup2\n        /* \"#utility.yul\":12288:12321   */\n      tag_248\n      jump\t// in\n    tag_419:\n        /* \"#utility.yul\":12184:12327   */\n      swap3\n      swap2\n      pop\n      pop\n      jump\t// out\n        /* \"#utility.yul\":12333:12684   */\n    tag_75:\n        /* \"#utility.yul\":12403:12409   */\n      0x00\n        /* \"#utility.yul\":12452:12454   */\n      0x20\n        /* \"#utility.yul\":12440:12449   */\n      dup3\n        /* \"#utility.yul\":12431:12438   */\n      dup5\n        /* \"#utility.yul\":12427:12450   */\n      sub\n        /* \"#utility.yul\":12423:12455   */\n      slt\n        /* \"#utility.yul\":12420:12539   */\n      iszero\n      tag_421\n      jumpi\n        /* \"#utility.yul\":12458:12537   */\n      tag_422\n      tag_224\n      jump\t// in\n    tag_422:\n        /* \"#utility.yul\":12420:12539   */\n    tag_421:\n        /* \"#utility.yul\":12578:12579   */\n      0x00\n        /* \"#utility.yul\":12603:12667   */\n      tag_423\n        /* \"#utility.yul\":12659:12666   */\n      dup5\n        /* \"#utility.yul\":12650:12656   */\n      dup3\n        /* \"#utility.yul\":12639:12648   */\n      dup6\n        /* \"#utility.yul\":12635:12657   */\n      add\n        /* \"#utility.yul\":12603:12667   */\n      tag_258\n      jump\t// in\n    tag_423:\n        /* \"#utility.yul\":12593:12667   */\n      swap2\n      pop\n        /* \"#utility.yul\":12549:12677   */\n      pop\n        /* \"#utility.yul\":12333:12684   */\n      swap3\n      swap2\n      pop\n      pop\n      jump\t// out\n        /* \"#utility.yul\":12690:12859   */\n    tag_259:\n        /* \"#utility.yul\":12774:12785   */\n      0x00\n        /* \"#utility.yul\":12808:12814   */\n      dup3\n        /* \"#utility.yul\":12803:12806   */\n      dup3\n        /* \"#utility.yul\":12796:12815   */\n      mstore\n        /* \"#utility.yul\":12848:12852   */\n      0x20\n        /* \"#utility.yul\":12843:12846   */\n      dup3\n        /* \"#utility.yul\":12839:12853   */\n      add\n        /* \"#utility.yul\":12824:12853   */\n      swap1\n      pop\n        /* \"#utility.yul\":12690:12859   */\n      swap3\n      swap2\n      pop\n      pop\n      jump\t// out\n        /* \"#utility.yul\":12865:13091   */\n    tag_260:\n        /* \"#utility.yul\":13005:13039   */\n      0x45544820746f206c6f636b206d75737420612076616c75652067726561746572\n        /* \"#utility.yul\":13001:13002   */\n      0x00\n        /* \"#utility.yul\":12993:12999   */\n      dup3\n        /* \"#utility.yul\":12989:13003   */\n      add\n        /* \"#utility.yul\":12982:13040   */\n      mstore\n        /* \"#utility.yul\":13074:13083   */\n      0x207468616e203000000000000000000000000000000000000000000000000000\n        /* \"#utility.yul\":13069:13071   */\n      0x20\n        /* \"#utility.yul\":13061:13067   */\n      dup3\n        /* \"#utility.yul\":13057:13072   */\n      add\n        /* \"#utility.yul\":13050:13084   */\n      mstore\n        /* \"#utility.yul\":12865:13091   */\n      pop\n      jump\t// out\n        /* \"#utility.yul\":13097:13463   */\n    tag_261:\n        /* \"#utility.yul\":13239:13242   */\n      0x00\n        /* \"#utility.yul\":13260:13327   */\n      tag_427\n        /* \"#utility.yul\":13324:13326   */\n      0x27\n        /* \"#utility.yul\":13319:13322   */\n      dup4\n        /* \"#utility.yul\":13260:13327   */\n      tag_259\n      jump\t// in\n    tag_427:\n        /* \"#utility.yul\":13253:13327   */\n      swap2\n      pop\n        /* \"#utility.yul\":13336:13429   */\n      tag_428\n        /* \"#utility.yul\":13425:13428   */\n      dup3\n        /* \"#utility.yul\":13336:13429   */\n      tag_260\n      jump\t// in\n    tag_428:\n        /* \"#utility.yul\":13454:13456   */\n      0x40\n        /* \"#utility.yul\":13449:13452   */\n      dup3\n        /* \"#utility.yul\":13445:13457   */\n      add\n        /* \"#utility.yul\":13438:13457   */\n      swap1\n      pop\n        /* \"#utility.yul\":13097:13463   */\n      swap2\n      swap1\n      pop\n      jump\t// out\n        /* \"#utility.yul\":13469:13888   */\n    tag_86:\n        /* \"#utility.yul\":13635:13639   */\n      0x00\n        /* \"#utility.yul\":13673:13675   */\n      0x20\n        /* \"#utility.yul\":13662:13671   */\n      dup3\n        /* \"#utility.yul\":13658:13676   */\n      add\n        /* \"#utility.yul\":13650:13676   */\n      swap1\n      pop\n        /* \"#utility.yul\":13722:13731   */\n      dup2\n        /* \"#utility.yul\":13716:13720   */\n      dup2\n        /* \"#utility.yul\":13712:13732   */\n      sub\n        /* \"#utility.yul\":13708:13709   */\n      0x00\n        /* \"#utility.yul\":13697:13706   */\n      dup4\n        /* \"#utility.yul\":13693:13710   */\n      add\n        /* \"#utility.yul\":13686:13733   */\n      mstore\n        /* \"#utility.yul\":13750:13881   */\n      tag_430\n        /* \"#utility.yul\":13876:13880   */\n      dup2\n        /* \"#utility.yul\":13750:13881   */\n      tag_261\n      jump\t// in\n    tag_430:\n        /* \"#utility.yul\":13742:13881   */\n      swap1\n      pop\n        /* \"#utility.yul\":13469:13888   */\n      swap2\n      swap1\n      pop\n      jump\t// out\n        /* \"#utility.yul\":13894:14121   */\n    tag_262:\n        /* \"#utility.yul\":14034:14068   */\n      0x546865206c6f636b706572696f64206d75737420626520677265617465722074\n        /* \"#utility.yul\":14030:14031   */\n      0x00\n        /* \"#utility.yul\":14022:14028   */\n      dup3\n        /* \"#utility.yul\":14018:14032   */\n      add\n        /* \"#utility.yul\":14011:14069   */\n      mstore\n        /* \"#utility.yul\":14103:14113   */\n      0x68656e207a65726f000000000000000000000000000000000000000000000000\n        /* \"#utility.yul\":14098:14100   */\n      0x20\n        /* \"#utility.yul\":14090:14096   */\n      dup3\n        /* \"#utility.yul\":14086:14101   */\n      add\n        /* \"#utility.yul\":14079:14114   */\n      mstore\n        /* \"#utility.yul\":13894:14121   */\n      pop\n      jump\t// out\n        /* \"#utility.yul\":14127:14493   */\n    tag_263:\n        /* \"#utility.yul\":14269:14272   */\n      0x00\n        /* \"#utility.yul\":14290:14357   */\n      tag_433\n        /* \"#utility.yul\":14354:14356   */\n      0x28\n        /* \"#utility.yul\":14349:14352   */\n      dup4\n        /* \"#utility.yul\":14290:14357   */\n      tag_259\n      jump\t// in\n    tag_433:\n        /* \"#utility.yul\":14283:14357   */\n      swap2\n      pop\n        /* \"#utility.yul\":14366:14459   */\n      tag_434\n        /* \"#utility.yul\":14455:14458   */\n      dup3\n        /* \"#utility.yul\":14366:14459   */\n      tag_262\n      jump\t// in\n    tag_434:\n        /* \"#utility.yul\":14484:14486   */\n      0x40\n        /* \"#utility.yul\":14479:14482   */\n      dup3\n        /* \"#utility.yul\":14475:14487   */\n      add\n        /* \"#utility.yul\":14468:14487   */\n      swap1\n      pop\n        /* \"#utility.yul\":14127:14493   */\n      swap2\n      swap1\n      pop\n      jump\t// out\n        /* \"#utility.yul\":14499:14918   */\n    tag_89:\n        /* \"#utility.yul\":14665:14669   */\n      0x00\n        /* \"#utility.yul\":14703:14705   */\n      0x20\n        /* \"#utility.yul\":14692:14701   */\n      dup3\n        /* \"#utility.yul\":14688:14706   */\n      add\n        /* \"#utility.yul\":14680:14706   */\n      swap1\n      pop\n        /* \"#utility.yul\":14752:14761   */\n      dup2\n        /* \"#utility.yul\":14746:14750   */\n      dup2\n        /* \"#utility.yul\":14742:14762   */\n      sub\n        /* \"#utility.yul\":14738:14739   */\n      0x00\n        /* \"#utility.yul\":14727:14736   */\n      dup4\n        /* \"#utility.yul\":14723:14740   */\n      add\n        /* \"#utility.yul\":14716:14763   */\n      mstore\n        /* \"#utility.yul\":14780:14911   */\n      tag_436\n        /* \"#utility.yul\":14906:14910   */\n      dup2\n        /* \"#utility.yul\":14780:14911   */\n      tag_263\n      jump\t// in\n    tag_436:\n        /* \"#utility.yul\":14772:14911   */\n      swap1\n      pop\n        /* \"#utility.yul\":14499:14918   */\n      swap2\n      swap1\n      pop\n      jump\t// out\n        /* \"#utility.yul\":14924:15104   */\n    tag_264:\n        /* \"#utility.yul\":14972:15049   */\n      0x4e487b7100000000000000000000000000000000000000000000000000000000\n        /* \"#utility.yul\":14969:14970   */\n      0x00\n        /* \"#utility.yul\":14962:15050   */\n      mstore\n        /* \"#utility.yul\":15069:15073   */\n      0x11\n        /* \"#utility.yul\":15066:15067   */\n      0x04\n        /* \"#utility.yul\":15059:15074   */\n      mstore\n        /* \"#utility.yul\":15093:15097   */\n      0x24\n        /* \"#utility.yul\":15090:15091   */\n      0x00\n        /* \"#utility.yul\":15083:15098   */\n      revert\n        /* \"#utility.yul\":15110:15301   */\n    tag_92:\n        /* \"#utility.yul\":15150:15153   */\n      0x00\n        /* \"#utility.yul\":15169:15189   */\n      tag_439\n        /* \"#utility.yul\":15187:15188   */\n      dup3\n        /* \"#utility.yul\":15169:15189   */\n      tag_231\n      jump\t// in\n    tag_439:\n        /* \"#utility.yul\":15164:15189   */\n      swap2\n      pop\n        /* \"#utility.yul\":15203:15223   */\n      tag_440\n        /* \"#utility.yul\":15221:15222   */\n      dup4\n        /* \"#utility.yul\":15203:15223   */\n      tag_231\n      jump\t// in\n    tag_440:\n        /* \"#utility.yul\":15198:15223   */\n      swap3\n      pop\n        /* \"#utility.yul\":15246:15247   */\n      dup3\n        /* \"#utility.yul\":15243:15244   */\n      dup3\n        /* \"#utility.yul\":15239:15248   */\n      add\n        /* \"#utility.yul\":15232:15248   */\n      swap1\n      pop\n        /* \"#utility.yul\":15267:15270   */\n      dup1\n        /* \"#utility.yul\":15264:15265   */\n      dup3\n        /* \"#utility.yul\":15261:15271   */\n      gt\n        /* \"#utility.yul\":15258:15294   */\n      iszero\n      tag_441\n      jumpi\n        /* \"#utility.yul\":15274:15292   */\n      tag_442\n      tag_264\n      jump\t// in\n    tag_442:\n        /* \"#utility.yul\":15258:15294   */\n    tag_441:\n        /* \"#utility.yul\":15110:15301   */\n      swap3\n      swap2\n      pop\n      pop\n      jump\t// out\n        /* \"#utility.yul\":15307:15852   */\n    tag_96:\n        /* \"#utility.yul\":15480:15484   */\n      0x00\n        /* \"#utility.yul\":15518:15521   */\n      0x80\n        /* \"#utility.yul\":15507:15516   */\n      dup3\n        /* \"#utility.yul\":15503:15522   */\n      add\n        /* \"#utility.yul\":15495:15522   */\n      swap1\n      pop\n        /* \"#utility.yul\":15532:15603   */\n      tag_444\n        /* \"#utility.yul\":15600:15601   */\n      0x00\n        /* \"#utility.yul\":15589:15598   */\n      dup4\n        /* \"#utility.yul\":15585:15602   */\n      add\n        /* \"#utility.yul\":15576:15582   */\n      dup8\n        /* \"#utility.yul\":15532:15603   */\n      tag_232\n      jump\t// in\n    tag_444:\n        /* \"#utility.yul\":15613:15681   */\n      tag_445\n        /* \"#utility.yul\":15677:15679   */\n      0x20\n        /* \"#utility.yul\":15666:15675   */\n      dup4\n        /* \"#utility.yul\":15662:15680   */\n      add\n        /* \"#utility.yul\":15653:15659   */\n      dup7\n        /* \"#utility.yul\":15613:15681   */\n      tag_253\n      jump\t// in\n    tag_445:\n        /* \"#utility.yul\":15691:15763   */\n      tag_446\n        /* \"#utility.yul\":15759:15761   */\n      0x40\n        /* \"#utility.yul\":15748:15757   */\n      dup4\n        /* \"#utility.yul\":15744:15762   */\n      add\n        /* \"#utility.yul\":15735:15741   */\n      dup6\n        /* \"#utility.yul\":15691:15763   */\n      tag_232\n      jump\t// in\n    tag_446:\n        /* \"#utility.yul\":15773:15845   */\n      tag_447\n        /* \"#utility.yul\":15841:15843   */\n      0x60\n        /* \"#utility.yul\":15830:15839   */\n      dup4\n        /* \"#utility.yul\":15826:15844   */\n      add\n        /* \"#utility.yul\":15817:15823   */\n      dup5\n        /* \"#utility.yul\":15773:15845   */\n      tag_232\n      jump\t// in\n    tag_447:\n        /* \"#utility.yul\":15307:15852   */\n      swap6\n      swap5\n      pop\n      pop\n      pop\n      pop\n      pop\n      jump\t// out\n        /* \"#utility.yul\":15858:16079   */\n    tag_265:\n        /* \"#utility.yul\":15998:16032   */\n      0x4d7573742070726f7669646520612076616c696420746f6b656e206164647265\n        /* \"#utility.yul\":15994:15995   */\n      0x00\n        /* \"#utility.yul\":15986:15992   */\n      dup3\n        /* \"#utility.yul\":15982:15996   */\n      add\n        /* \"#utility.yul\":15975:16033   */\n      mstore\n        /* \"#utility.yul\":16067:16071   */\n      0x7373000000000000000000000000000000000000000000000000000000000000\n        /* \"#utility.yul\":16062:16064   */\n      0x20\n        /* \"#utility.yul\":16054:16060   */\n      dup3\n        /* \"#utility.yul\":16050:16065   */\n      add\n        /* \"#utility.yul\":16043:16072   */\n      mstore\n        /* \"#utility.yul\":15858:16079   */\n      pop\n      jump\t// out\n        /* \"#utility.yul\":16085:16451   */\n    tag_266:\n        /* \"#utility.yul\":16227:16230   */\n      0x00\n        /* \"#utility.yul\":16248:16315   */\n      tag_450\n        /* \"#utility.yul\":16312:16314   */\n      0x22\n        /* \"#utility.yul\":16307:16310   */\n      dup4\n        /* \"#utility.yul\":16248:16315   */\n      tag_259\n      jump\t// in\n    tag_450:\n        /* \"#utility.yul\":16241:16315   */\n      swap2\n      pop\n        /* \"#utility.yul\":16324:16417   */\n      tag_451\n        /* \"#utility.yul\":16413:16416   */\n      dup3\n        /* \"#utility.yul\":16324:16417   */\n      tag_265\n      jump\t// in\n    tag_451:\n        /* \"#utility.yul\":16442:16444   */\n      0x40\n        /* \"#utility.yul\":16437:16440   */\n      dup3\n        /* \"#utility.yul\":16433:16445   */\n      add\n        /* \"#utility.yul\":16426:16445   */\n      swap1\n      pop\n        /* \"#utility.yul\":16085:16451   */\n      swap2\n      swap1\n      pop\n      jump\t// out\n        /* \"#utility.yul\":16457:16876   */\n    tag_104:\n        /* \"#utility.yul\":16623:16627   */\n      0x00\n        /* \"#utility.yul\":16661:16663   */\n      0x20\n        /* \"#utility.yul\":16650:16659   */\n      dup3\n        /* \"#utility.yul\":16646:16664   */\n      add\n        /* \"#utility.yul\":16638:16664   */\n      swap1\n      pop\n        /* \"#utility.yul\":16710:16719   */\n      dup2\n        /* \"#utility.yul\":16704:16708   */\n      dup2\n        /* \"#utility.yul\":16700:16720   */\n      sub\n        /* \"#utility.yul\":16696:16697   */\n      0x00\n        /* \"#utility.yul\":16685:16694   */\n      dup4\n        /* \"#utility.yul\":16681:16698   */\n      add\n        /* \"#utility.yul\":16674:16721   */\n      mstore\n        /* \"#utility.yul\":16738:16869   */\n      tag_453\n        /* \"#utility.yul\":16864:16868   */\n      dup2\n        /* \"#utility.yul\":16738:16869   */\n      tag_266\n      jump\t// in\n    tag_453:\n        /* \"#utility.yul\":16730:16869   */\n      swap1\n      pop\n        /* \"#utility.yul\":16457:16876   */\n      swap2\n      swap1\n      pop\n      jump\t// out\n        /* \"#utility.yul\":16882:17107   */\n    tag_267:\n        /* \"#utility.yul\":17022:17056   */\n      0x546f6b656e20616d6f756e74206d757374206265206772656174657220746865\n        /* \"#utility.yul\":17018:17019   */\n      0x00\n        /* \"#utility.yul\":17010:17016   */\n      dup3\n        /* \"#utility.yul\":17006:17020   */\n      add\n        /* \"#utility.yul\":16999:17057   */\n      mstore\n        /* \"#utility.yul\":17091:17099   */\n      0x6e207a65726f0000000000000000000000000000000000000000000000000000\n        /* \"#utility.yul\":17086:17088   */\n      0x20\n        /* \"#utility.yul\":17078:17084   */\n      dup3\n        /* \"#utility.yul\":17074:17089   */\n      add\n        /* \"#utility.yul\":17067:17100   */\n      mstore\n        /* \"#utility.yul\":16882:17107   */\n      pop\n      jump\t// out\n        /* \"#utility.yul\":17113:17479   */\n    tag_268:\n        /* \"#utility.yul\":17255:17258   */\n      0x00\n        /* \"#utility.yul\":17276:17343   */\n      tag_456\n        /* \"#utility.yul\":17340:17342   */\n      0x26\n        /* \"#utility.yul\":17335:17338   */\n      dup4\n        /* \"#utility.yul\":17276:17343   */\n      tag_259\n      jump\t// in\n    tag_456:\n        /* \"#utility.yul\":17269:17343   */\n      swap2\n      pop\n        /* \"#utility.yul\":17352:17445   */\n      tag_457\n        /* \"#utility.yul\":17441:17444   */\n      dup3\n        /* \"#utility.yul\":17352:17445   */\n      tag_267\n      jump\t// in\n    tag_457:\n        /* \"#utility.yul\":17470:17472   */\n      0x40\n        /* \"#utility.yul\":17465:17468   */\n      dup3\n        /* \"#utility.yul\":17461:17473   */\n      add\n        /* \"#utility.yul\":17454:17473   */\n      swap1\n      pop\n        /* \"#utility.yul\":17113:17479   */\n      swap2\n      swap1\n      pop\n      jump\t// out\n        /* \"#utility.yul\":17485:17904   */\n    tag_107:\n        /* \"#utility.yul\":17651:17655   */\n      0x00\n        /* \"#utility.yul\":17689:17691   */\n      0x20\n        /* \"#utility.yul\":17678:17687   */\n      dup3\n        /* \"#utility.yul\":17674:17692   */\n      add\n        /* \"#utility.yul\":17666:17692   */\n      swap1\n      pop\n        /* \"#utility.yul\":17738:17747   */\n      dup2\n        /* \"#utility.yul\":17732:17736   */\n      dup2\n        /* \"#utility.yul\":17728:17748   */\n      sub\n        /* \"#utility.yul\":17724:17725   */\n      0x00\n        /* \"#utility.yul\":17713:17722   */\n      dup4\n        /* \"#utility.yul\":17709:17726   */\n      add\n        /* \"#utility.yul\":17702:17749   */\n      mstore\n        /* \"#utility.yul\":17766:17897   */\n      tag_459\n        /* \"#utility.yul\":17892:17896   */\n      dup2\n        /* \"#utility.yul\":17766:17897   */\n      tag_268\n      jump\t// in\n    tag_459:\n        /* \"#utility.yul\":17758:17897   */\n      swap1\n      pop\n        /* \"#utility.yul\":17485:17904   */\n      swap2\n      swap1\n      pop\n      jump\t// out\n        /* \"#utility.yul\":17910:18138   */\n    tag_269:\n        /* \"#utility.yul\":18050:18084   */\n      0x546865206c6f636b20706572696f64206d757374206265206772656174657220\n        /* \"#utility.yul\":18046:18047   */\n      0x00\n        /* \"#utility.yul\":18038:18044   */\n      dup3\n        /* \"#utility.yul\":18034:18048   */\n      add\n        /* \"#utility.yul\":18027:18085   */\n      mstore\n        /* \"#utility.yul\":18119:18130   */\n      0x7468656e207a65726f0000000000000000000000000000000000000000000000\n        /* \"#utility.yul\":18114:18116   */\n      0x20\n        /* \"#utility.yul\":18106:18112   */\n      dup3\n        /* \"#utility.yul\":18102:18117   */\n      add\n        /* \"#utility.yul\":18095:18131   */\n      mstore\n        /* \"#utility.yul\":17910:18138   */\n      pop\n      jump\t// out\n        /* \"#utility.yul\":18144:18510   */\n    tag_270:\n        /* \"#utility.yul\":18286:18289   */\n      0x00\n        /* \"#utility.yul\":18307:18374   */\n      tag_462\n        /* \"#utility.yul\":18371:18373   */\n      0x29\n        /* \"#utility.yul\":18366:18369   */\n      dup4\n        /* \"#utility.yul\":18307:18374   */\n      tag_259\n      jump\t// in\n    tag_462:\n        /* \"#utility.yul\":18300:18374   */\n      swap2\n      pop\n        /* \"#utility.yul\":18383:18476   */\n      tag_463\n        /* \"#utility.yul\":18472:18475   */\n      dup3\n        /* \"#utility.yul\":18383:18476   */\n      tag_269\n      jump\t// in\n    tag_463:\n        /* \"#utility.yul\":18501:18503   */\n      0x40\n        /* \"#utility.yul\":18496:18499   */\n      dup3\n        /* \"#utility.yul\":18492:18504   */\n      add\n        /* \"#utility.yul\":18485:18504   */\n      swap1\n      pop\n        /* \"#utility.yul\":18144:18510   */\n      swap2\n      swap1\n      pop\n      jump\t// out\n        /* \"#utility.yul\":18516:18935   */\n    tag_110:\n        /* \"#utility.yul\":18682:18686   */\n      0x00\n        /* \"#utility.yul\":18720:18722   */\n      0x20\n        /* \"#utility.yul\":18709:18718   */\n      dup3\n        /* \"#utility.yul\":18705:18723   */\n      add\n        /* \"#utility.yul\":18697:18723   */\n      swap1\n      pop\n        /* \"#utility.yul\":18769:18778   */\n      dup2\n        /* \"#utility.yul\":18763:18767   */\n      dup2\n        /* \"#utility.yul\":18759:18779   */\n      sub\n        /* \"#utility.yul\":18755:18756   */\n      0x00\n        /* \"#utility.yul\":18744:18753   */\n      dup4\n        /* \"#utility.yul\":18740:18757   */\n      add\n        /* \"#utility.yul\":18733:18780   */\n      mstore\n        /* \"#utility.yul\":18797:18928   */\n      tag_465\n        /* \"#utility.yul\":18923:18927   */\n      dup2\n        /* \"#utility.yul\":18797:18928   */\n      tag_270\n      jump\t// in\n    tag_465:\n        /* \"#utility.yul\":18789:18928   */\n      swap1\n      pop\n        /* \"#utility.yul\":18516:18935   */\n      swap2\n      swap1\n      pop\n      jump\t// out\n        /* \"#utility.yul\":18941:19116   */\n    tag_271:\n        /* \"#utility.yul\":19081:19108   */\n      0x4e6f7420656e6f75676820746f6b656e7320746f206c6f636b00000000000000\n        /* \"#utility.yul\":19077:19078   */\n      0x00\n        /* \"#utility.yul\":19069:19075   */\n      dup3\n        /* \"#utility.yul\":19065:19079   */\n      add\n        /* \"#utility.yul\":19058:19109   */\n      mstore\n        /* \"#utility.yul\":18941:19116   */\n      pop\n      jump\t// out\n        /* \"#utility.yul\":19122:19488   */\n    tag_272:\n        /* \"#utility.yul\":19264:19267   */\n      0x00\n        /* \"#utility.yul\":19285:19352   */\n      tag_468\n        /* \"#utility.yul\":19349:19351   */\n      0x19\n        /* \"#utility.yul\":19344:19347   */\n      dup4\n        /* \"#utility.yul\":19285:19352   */\n      tag_259\n      jump\t// in\n    tag_468:\n        /* \"#utility.yul\":19278:19352   */\n      swap2\n      pop\n        /* \"#utility.yul\":19361:19454   */\n      tag_469\n        /* \"#utility.yul\":19450:19453   */\n      dup3\n        /* \"#utility.yul\":19361:19454   */\n      tag_271\n      jump\t// in\n    tag_469:\n        /* \"#utility.yul\":19479:19481   */\n      0x20\n        /* \"#utility.yul\":19474:19477   */\n      dup3\n        /* \"#utility.yul\":19470:19482   */\n      add\n        /* \"#utility.yul\":19463:19482   */\n      swap1\n      pop\n        /* \"#utility.yul\":19122:19488   */\n      swap2\n      swap1\n      pop\n      jump\t// out\n        /* \"#utility.yul\":19494:19913   */\n    tag_117:\n        /* \"#utility.yul\":19660:19664   */\n      0x00\n        /* \"#utility.yul\":19698:19700   */\n      0x20\n        /* \"#utility.yul\":19687:19696   */\n      dup3\n        /* \"#utility.yul\":19683:19701   */\n      add\n        /* \"#utility.yul\":19675:19701   */\n      swap1\n      pop\n        /* \"#utility.yul\":19747:19756   */\n      dup2\n        /* \"#utility.yul\":19741:19745   */\n      dup2\n        /* \"#utility.yul\":19737:19757   */\n      sub\n        /* \"#utility.yul\":19733:19734   */\n      0x00\n        /* \"#utility.yul\":19722:19731   */\n      dup4\n        /* \"#utility.yul\":19718:19735   */\n      add\n        /* \"#utility.yul\":19711:19758   */\n      mstore\n        /* \"#utility.yul\":19775:19906   */\n      tag_471\n        /* \"#utility.yul\":19901:19905   */\n      dup2\n        /* \"#utility.yul\":19775:19906   */\n      tag_272\n      jump\t// in\n    tag_471:\n        /* \"#utility.yul\":19767:19906   */\n      swap1\n      pop\n        /* \"#utility.yul\":19494:19913   */\n      swap2\n      swap1\n      pop\n      jump\t// out\n        /* \"#utility.yul\":19919:20140   */\n    tag_273:\n        /* \"#utility.yul\":20059:20093   */\n      0x5468652073706563696669656420617373657420494420697320696e76616c69\n        /* \"#utility.yul\":20055:20056   */\n      0x00\n        /* \"#utility.yul\":20047:20053   */\n      dup3\n        /* \"#utility.yul\":20043:20057   */\n      add\n        /* \"#utility.yul\":20036:20094   */\n      mstore\n        /* \"#utility.yul\":20128:20132   */\n      0x642e000000000000000000000000000000000000000000000000000000000000\n        /* \"#utility.yul\":20123:20125   */\n      0x20\n        /* \"#utility.yul\":20115:20121   */\n      dup3\n        /* \"#utility.yul\":20111:20126   */\n      add\n        /* \"#utility.yul\":20104:20133   */\n      mstore\n        /* \"#utility.yul\":19919:20140   */\n      pop\n      jump\t// out\n        /* \"#utility.yul\":20146:20512   */\n    tag_274:\n        /* \"#utility.yul\":20288:20291   */\n      0x00\n        /* \"#utility.yul\":20309:20376   */\n      tag_474\n        /* \"#utility.yul\":20373:20375   */\n      0x22\n        /* \"#utility.yul\":20368:20371   */\n      dup4\n        /* \"#utility.yul\":20309:20376   */\n      tag_259\n      jump\t// in\n    tag_474:\n        /* \"#utility.yul\":20302:20376   */\n      swap2\n      pop\n        /* \"#utility.yul\":20385:20478   */\n      tag_475\n        /* \"#utility.yul\":20474:20477   */\n      dup3\n        /* \"#utility.yul\":20385:20478   */\n      tag_273\n      jump\t// in\n    tag_475:\n        /* \"#utility.yul\":20503:20505   */\n      0x40\n        /* \"#utility.yul\":20498:20501   */\n      dup3\n        /* \"#utility.yul\":20494:20506   */\n      add\n        /* \"#utility.yul\":20487:20506   */\n      swap1\n      pop\n        /* \"#utility.yul\":20146:20512   */\n      swap2\n      swap1\n      pop\n      jump\t// out\n        /* \"#utility.yul\":20518:20937   */\n    tag_140:\n        /* \"#utility.yul\":20684:20688   */\n      0x00\n        /* \"#utility.yul\":20722:20724   */\n      0x20\n        /* \"#utility.yul\":20711:20720   */\n      dup3\n        /* \"#utility.yul\":20707:20725   */\n      add\n        /* \"#utility.yul\":20699:20725   */\n      swap1\n      pop\n        /* \"#utility.yul\":20771:20780   */\n      dup2\n        /* \"#utility.yul\":20765:20769   */\n      dup2\n        /* \"#utility.yul\":20761:20781   */\n      sub\n        /* \"#utility.yul\":20757:20758   */\n      0x00\n        /* \"#utility.yul\":20746:20755   */\n      dup4\n        /* \"#utility.yul\":20742:20759   */\n      add\n        /* \"#utility.yul\":20735:20782   */\n      mstore\n        /* \"#utility.yul\":20799:20930   */\n      tag_477\n        /* \"#utility.yul\":20925:20929   */\n      dup2\n        /* \"#utility.yul\":20799:20930   */\n      tag_274\n      jump\t// in\n    tag_477:\n        /* \"#utility.yul\":20791:20930   */\n      swap1\n      pop\n        /* \"#utility.yul\":20518:20937   */\n      swap2\n      swap1\n      pop\n      jump\t// out\n        /* \"#utility.yul\":20943:21123   */\n    tag_143:\n        /* \"#utility.yul\":20991:21068   */\n      0x4e487b7100000000000000000000000000000000000000000000000000000000\n        /* \"#utility.yul\":20988:20989   */\n      0x00\n        /* \"#utility.yul\":20981:21069   */\n      mstore\n        /* \"#utility.yul\":21088:21092   */\n      0x32\n        /* \"#utility.yul\":21085:21086   */\n      0x04\n        /* \"#utility.yul\":21078:21093   */\n      mstore\n        /* \"#utility.yul\":21112:21116   */\n      0x24\n        /* \"#utility.yul\":21109:21110   */\n      0x00\n        /* \"#utility.yul\":21102:21117   */\n      revert\n        /* \"#utility.yul\":21129:21351   */\n    tag_275:\n        /* \"#utility.yul\":21269:21303   */\n      0x417373657473206861766520616c7265616479206265656e2077697468647261\n        /* \"#utility.yul\":21265:21266   */\n      0x00\n        /* \"#utility.yul\":21257:21263   */\n      dup3\n        /* \"#utility.yul\":21253:21267   */\n      add\n        /* \"#utility.yul\":21246:21304   */\n      mstore\n        /* \"#utility.yul\":21338:21343   */\n      0x776e210000000000000000000000000000000000000000000000000000000000\n        /* \"#utility.yul\":21333:21335   */\n      0x20\n        /* \"#utility.yul\":21325:21331   */\n      dup3\n        /* \"#utility.yul\":21321:21336   */\n      add\n        /* \"#utility.yul\":21314:21344   */\n      mstore\n        /* \"#utility.yul\":21129:21351   */\n      pop\n      jump\t// out\n        /* \"#utility.yul\":21357:21723   */\n    tag_276:\n        /* \"#utility.yul\":21499:21502   */\n      0x00\n        /* \"#utility.yul\":21520:21587   */\n      tag_481\n        /* \"#utility.yul\":21584:21586   */\n      0x23\n        /* \"#utility.yul\":21579:21582   */\n      dup4\n        /* \"#utility.yul\":21520:21587   */\n      tag_259\n      jump\t// in\n    tag_481:\n        /* \"#utility.yul\":21513:21587   */\n      swap2\n      pop\n        /* \"#utility.yul\":21596:21689   */\n      tag_482\n        /* \"#utility.yul\":21685:21688   */\n      dup3\n        /* \"#utility.yul\":21596:21689   */\n      tag_275\n      jump\t// in\n    tag_482:\n        /* \"#utility.yul\":21714:21716   */\n      0x40\n        /* \"#utility.yul\":21709:21712   */\n      dup3\n        /* \"#utility.yul\":21705:21717   */\n      add\n        /* \"#utility.yul\":21698:21717   */\n      swap1\n      pop\n        /* \"#utility.yul\":21357:21723   */\n      swap2\n      swap1\n      pop\n      jump\t// out\n        /* \"#utility.yul\":21729:22148   */\n    tag_147:\n        /* \"#utility.yul\":21895:21899   */\n      0x00\n        /* \"#utility.yul\":21933:21935   */\n      0x20\n        /* \"#utility.yul\":21922:21931   */\n      dup3\n        /* \"#utility.yul\":21918:21936   */\n      add\n        /* \"#utility.yul\":21910:21936   */\n      swap1\n      pop\n        /* \"#utility.yul\":21982:21991   */\n      dup2\n        /* \"#utility.yul\":21976:21980   */\n      dup2\n        /* \"#utility.yul\":21972:21992   */\n      sub\n        /* \"#utility.yul\":21968:21969   */\n      0x00\n        /* \"#utility.yul\":21957:21966   */\n      dup4\n        /* \"#utility.yul\":21953:21970   */\n      add\n        /* \"#utility.yul\":21946:21993   */\n      mstore\n        /* \"#utility.yul\":22010:22141   */\n      tag_484\n        /* \"#utility.yul\":22136:22140   */\n      dup2\n        /* \"#utility.yul\":22010:22141   */\n      tag_276\n      jump\t// in\n    tag_484:\n        /* \"#utility.yul\":22002:22141   */\n      swap1\n      pop\n        /* \"#utility.yul\":21729:22148   */\n      swap2\n      swap1\n      pop\n      jump\t// out\n        /* \"#utility.yul\":22154:22377   */\n    tag_277:\n        /* \"#utility.yul\":22294:22328   */\n      0x546865206c6f636b20706572696f6420686173206e6f74207965742065787069\n        /* \"#utility.yul\":22290:22291   */\n      0x00\n        /* \"#utility.yul\":22282:22288   */\n      dup3\n        /* \"#utility.yul\":22278:22292   */\n      add\n        /* \"#utility.yul\":22271:22329   */\n      mstore\n        /* \"#utility.yul\":22363:22369   */\n      0x7265642100000000000000000000000000000000000000000000000000000000\n        /* \"#utility.yul\":22358:22360   */\n      0x20\n        /* \"#utility.yul\":22350:22356   */\n      dup3\n        /* \"#utility.yul\":22346:22361   */\n      add\n        /* \"#utility.yul\":22339:22370   */\n      mstore\n        /* \"#utility.yul\":22154:22377   */\n      pop\n      jump\t// out\n        /* \"#utility.yul\":22383:22749   */\n    tag_278:\n        /* \"#utility.yul\":22525:22528   */\n      0x00\n        /* \"#utility.yul\":22546:22613   */\n      tag_487\n        /* \"#utility.yul\":22610:22612   */\n      0x24\n        /* \"#utility.yul\":22605:22608   */\n      dup4\n        /* \"#utility.yul\":22546:22613   */\n      tag_259\n      jump\t// in\n    tag_487:\n        /* \"#utility.yul\":22539:22613   */\n      swap2\n      pop\n        /* \"#utility.yul\":22622:22715   */\n      tag_488\n        /* \"#utility.yul\":22711:22714   */\n      dup3\n        /* \"#utility.yul\":22622:22715   */\n      tag_277\n      jump\t// in\n    tag_488:\n        /* \"#utility.yul\":22740:22742   */\n      0x40\n        /* \"#utility.yul\":22735:22738   */\n      dup3\n        /* \"#utility.yul\":22731:22743   */\n      add\n        /* \"#utility.yul\":22724:22743   */\n      swap1\n      pop\n        /* \"#utility.yul\":22383:22749   */\n      swap2\n      swap1\n      pop\n      jump\t// out\n        /* \"#utility.yul\":22755:23174   */\n    tag_150:\n        /* \"#utility.yul\":22921:22925   */\n      0x00\n        /* \"#utility.yul\":22959:22961   */\n      0x20\n        /* \"#utility.yul\":22948:22957   */\n      dup3\n        /* \"#utility.yul\":22944:22962   */\n      add\n        /* \"#utility.yul\":22936:22962   */\n      swap1\n      pop\n        /* \"#utility.yul\":23008:23017   */\n      dup2\n        /* \"#utility.yul\":23002:23006   */\n      dup2\n        /* \"#utility.yul\":22998:23018   */\n      sub\n        /* \"#utility.yul\":22994:22995   */\n      0x00\n        /* \"#utility.yul\":22983:22992   */\n      dup4\n        /* \"#utility.yul\":22979:22996   */\n      add\n        /* \"#utility.yul\":22972:23019   */\n      mstore\n        /* \"#utility.yul\":23036:23167   */\n      tag_490\n        /* \"#utility.yul\":23162:23166   */\n      dup2\n        /* \"#utility.yul\":23036:23167   */\n      tag_278\n      jump\t// in\n    tag_490:\n        /* \"#utility.yul\":23028:23167   */\n      swap1\n      pop\n        /* \"#utility.yul\":22755:23174   */\n      swap2\n      swap1\n      pop\n      jump\t// out\n        /* \"#utility.yul\":23180:23374   */\n    tag_152:\n        /* \"#utility.yul\":23220:23224   */\n      0x00\n        /* \"#utility.yul\":23240:23260   */\n      tag_492\n        /* \"#utility.yul\":23258:23259   */\n      dup3\n        /* \"#utility.yul\":23240:23260   */\n      tag_231\n      jump\t// in\n    tag_492:\n        /* \"#utility.yul\":23235:23260   */\n      swap2\n      pop\n        /* \"#utility.yul\":23274:23294   */\n      tag_493\n        /* \"#utility.yul\":23292:23293   */\n      dup4\n        /* \"#utility.yul\":23274:23294   */\n      tag_231\n      jump\t// in\n    tag_493:\n        /* \"#utility.yul\":23269:23294   */\n      swap3\n      pop\n        /* \"#utility.yul\":23318:23319   */\n      dup3\n        /* \"#utility.yul\":23315:23316   */\n      dup3\n        /* \"#utility.yul\":23311:23320   */\n      sub\n        /* \"#utility.yul\":23303:23320   */\n      swap1\n      pop\n        /* \"#utility.yul\":23342:23343   */\n      dup2\n        /* \"#utility.yul\":23336:23340   */\n      dup2\n        /* \"#utility.yul\":23333:23344   */\n      gt\n        /* \"#utility.yul\":23330:23367   */\n      iszero\n      tag_494\n      jumpi\n        /* \"#utility.yul\":23347:23365   */\n      tag_495\n      tag_264\n      jump\t// in\n    tag_495:\n        /* \"#utility.yul\":23330:23367   */\n    tag_494:\n        /* \"#utility.yul\":23180:23374   */\n      swap3\n      swap2\n      pop\n      pop\n      jump\t// out\n        /* \"#utility.yul\":23380:23560   */\n    tag_279:\n        /* \"#utility.yul\":23520:23552   */\n      0x4e6f7420656e6f7567682061737365747320746f207769746864726177210000\n        /* \"#utility.yul\":23516:23517   */\n      0x00\n        /* \"#utility.yul\":23508:23514   */\n      dup3\n        /* \"#utility.yul\":23504:23518   */\n      add\n        /* \"#utility.yul\":23497:23553   */\n      mstore\n        /* \"#utility.yul\":23380:23560   */\n      pop\n      jump\t// out\n        /* \"#utility.yul\":23566:23932   */\n    tag_280:\n        /* \"#utility.yul\":23708:23711   */\n      0x00\n        /* \"#utility.yul\":23729:23796   */\n      tag_498\n        /* \"#utility.yul\":23793:23795   */\n      0x1e\n        /* \"#utility.yul\":23788:23791   */\n      dup4\n        /* \"#utility.yul\":23729:23796   */\n      tag_259\n      jump\t// in\n    tag_498:\n        /* \"#utility.yul\":23722:23796   */\n      swap2\n      pop\n        /* \"#utility.yul\":23805:23898   */\n      tag_499\n        /* \"#utility.yul\":23894:23897   */\n      dup3\n        /* \"#utility.yul\":23805:23898   */\n      tag_279\n      jump\t// in\n    tag_499:\n        /* \"#utility.yul\":23923:23925   */\n      0x20\n        /* \"#utility.yul\":23918:23921   */\n      dup3\n        /* \"#utility.yul\":23914:23926   */\n      add\n        /* \"#utility.yul\":23907:23926   */\n      swap1\n      pop\n        /* \"#utility.yul\":23566:23932   */\n      swap2\n      swap1\n      pop\n      jump\t// out\n        /* \"#utility.yul\":23938:24357   */\n    tag_155:\n        /* \"#utility.yul\":24104:24108   */\n      0x00\n        /* \"#utility.yul\":24142:24144   */\n      0x20\n        /* \"#utility.yul\":24131:24140   */\n      dup3\n        /* \"#utility.yul\":24127:24145   */\n      add\n        /* \"#utility.yul\":24119:24145   */\n      swap1\n      pop\n        /* \"#utility.yul\":24191:24200   */\n      dup2\n        /* \"#utility.yul\":24185:24189   */\n      dup2\n        /* \"#utility.yul\":24181:24201   */\n      sub\n        /* \"#utility.yul\":24177:24178   */\n      0x00\n        /* \"#utility.yul\":24166:24175   */\n      dup4\n        /* \"#utility.yul\":24162:24179   */\n      add\n        /* \"#utility.yul\":24155:24202   */\n      mstore\n        /* \"#utility.yul\":24219:24350   */\n      tag_501\n        /* \"#utility.yul\":24345:24349   */\n      dup2\n        /* \"#utility.yul\":24219:24350   */\n      tag_280\n      jump\t// in\n    tag_501:\n        /* \"#utility.yul\":24211:24350   */\n      swap1\n      pop\n        /* \"#utility.yul\":23938:24357   */\n      swap2\n      swap1\n      pop\n      jump\t// out\n        /* \"#utility.yul\":24363:24510   */\n    tag_281:\n        /* \"#utility.yul\":24464:24475   */\n      0x00\n        /* \"#utility.yul\":24501:24504   */\n      dup2\n        /* \"#utility.yul\":24486:24504   */\n      swap1\n      pop\n        /* \"#utility.yul\":24363:24510   */\n      swap3\n      swap2\n      pop\n      pop\n      jump\t// out\n        /* \"#utility.yul\":24516:24630   */\n    tag_282:\n      pop\n      jump\t// out\n        /* \"#utility.yul\":24636:25034   */\n    tag_283:\n        /* \"#utility.yul\":24795:24798   */\n      0x00\n        /* \"#utility.yul\":24816:24899   */\n      tag_505\n        /* \"#utility.yul\":24897:24898   */\n      0x00\n        /* \"#utility.yul\":24892:24895   */\n      dup4\n        /* \"#utility.yul\":24816:24899   */\n      tag_281\n      jump\t// in\n    tag_505:\n        /* \"#utility.yul\":24809:24899   */\n      swap2\n      pop\n        /* \"#utility.yul\":24908:25001   */\n      tag_506\n        /* \"#utility.yul\":24997:25000   */\n      dup3\n        /* \"#utility.yul\":24908:25001   */\n      tag_282\n      jump\t// in\n    tag_506:\n        /* \"#utility.yul\":25026:25027   */\n      0x00\n        /* \"#utility.yul\":25021:25024   */\n      dup3\n        /* \"#utility.yul\":25017:25028   */\n      add\n        /* \"#utility.yul\":25010:25028   */\n      swap1\n      pop\n        /* \"#utility.yul\":24636:25034   */\n      swap2\n      swap1\n      pop\n      jump\t// out\n        /* \"#utility.yul\":25040:25419   */\n    tag_165:\n        /* \"#utility.yul\":25224:25227   */\n      0x00\n        /* \"#utility.yul\":25246:25393   */\n      tag_508\n        /* \"#utility.yul\":25389:25392   */\n      dup3\n        /* \"#utility.yul\":25246:25393   */\n      tag_283\n      jump\t// in\n    tag_508:\n        /* \"#utility.yul\":25239:25393   */\n      swap2\n      pop\n        /* \"#utility.yul\":25410:25413   */\n      dup2\n        /* \"#utility.yul\":25403:25413   */\n      swap1\n      pop\n        /* \"#utility.yul\":25040:25419   */\n      swap2\n      swap1\n      pop\n      jump\t// out\n        /* \"#utility.yul\":25425:25594   */\n    tag_284:\n        /* \"#utility.yul\":25565:25586   */\n      0x455448207472616e73666572206661696c656400000000000000000000000000\n        /* \"#utility.yul\":25561:25562   */\n      0x00\n        /* \"#utility.yul\":25553:25559   */\n      dup3\n        /* \"#utility.yul\":25549:25563   */\n      add\n        /* \"#utility.yul\":25542:25587   */\n      mstore\n        /* \"#utility.yul\":25425:25594   */\n      pop\n      jump\t// out\n        /* \"#utility.yul\":25600:25966   */\n    tag_285:\n        /* \"#utility.yul\":25742:25745   */\n      0x00\n        /* \"#utility.yul\":25763:25830   */\n      tag_511\n        /* \"#utility.yul\":25827:25829   */\n      0x13\n        /* \"#utility.yul\":25822:25825   */\n      dup4\n        /* \"#utility.yul\":25763:25830   */\n      tag_259\n      jump\t// in\n    tag_511:\n        /* \"#utility.yul\":25756:25830   */\n      swap2\n      pop\n        /* \"#utility.yul\":25839:25932   */\n      tag_512\n        /* \"#utility.yul\":25928:25931   */\n      dup3\n        /* \"#utility.yul\":25839:25932   */\n      tag_284\n      jump\t// in\n    tag_512:\n        /* \"#utility.yul\":25957:25959   */\n      0x20\n        /* \"#utility.yul\":25952:25955   */\n      dup3\n        /* \"#utility.yul\":25948:25960   */\n      add\n        /* \"#utility.yul\":25941:25960   */\n      swap1\n      pop\n        /* \"#utility.yul\":25600:25966   */\n      swap2\n      swap1\n      pop\n      jump\t// out\n        /* \"#utility.yul\":25972:26391   */\n    tag_171:\n        /* \"#utility.yul\":26138:26142   */\n      0x00\n        /* \"#utility.yul\":26176:26178   */\n      0x20\n        /* \"#utility.yul\":26165:26174   */\n      dup3\n        /* \"#utility.yul\":26161:26179   */\n      add\n        /* \"#utility.yul\":26153:26179   */\n      swap1\n      pop\n        /* \"#utility.yul\":26225:26234   */\n      dup2\n        /* \"#utility.yul\":26219:26223   */\n      dup2\n        /* \"#utility.yul\":26215:26235   */\n      sub\n        /* \"#utility.yul\":26211:26212   */\n      0x00\n        /* \"#utility.yul\":26200:26209   */\n      dup4\n        /* \"#utility.yul\":26196:26213   */\n      add\n        /* \"#utility.yul\":26189:26236   */\n      mstore\n        /* \"#utility.yul\":26253:26384   */\n      tag_514\n        /* \"#utility.yul\":26379:26383   */\n      dup2\n        /* \"#utility.yul\":26253:26384   */\n      tag_285\n      jump\t// in\n    tag_514:\n        /* \"#utility.yul\":26245:26384   */\n      swap1\n      pop\n        /* \"#utility.yul\":25972:26391   */\n      swap2\n      swap1\n      pop\n      jump\t// out\n        /* \"#utility.yul\":26397:26831   */\n    tag_176:\n        /* \"#utility.yul\":26542:26546   */\n      0x00\n        /* \"#utility.yul\":26580:26582   */\n      0x60\n        /* \"#utility.yul\":26569:26578   */\n      dup3\n        /* \"#utility.yul\":26565:26583   */\n      add\n        /* \"#utility.yul\":26557:26583   */\n      swap1\n      pop\n        /* \"#utility.yul\":26593:26664   */\n      tag_516\n        /* \"#utility.yul\":26661:26662   */\n      0x00\n        /* \"#utility.yul\":26650:26659   */\n      dup4\n        /* \"#utility.yul\":26646:26663   */\n      add\n        /* \"#utility.yul\":26637:26643   */\n      dup7\n        /* \"#utility.yul\":26593:26664   */\n      tag_232\n      jump\t// in\n    tag_516:\n        /* \"#utility.yul\":26674:26742   */\n      tag_517\n        /* \"#utility.yul\":26738:26740   */\n      0x20\n        /* \"#utility.yul\":26727:26736   */\n      dup4\n        /* \"#utility.yul\":26723:26741   */\n      add\n        /* \"#utility.yul\":26714:26720   */\n      dup6\n        /* \"#utility.yul\":26674:26742   */\n      tag_253\n      jump\t// in\n    tag_517:\n        /* \"#utility.yul\":26752:26824   */\n      tag_518\n        /* \"#utility.yul\":26820:26822   */\n      0x40\n        /* \"#utility.yul\":26809:26818   */\n      dup4\n        /* \"#utility.yul\":26805:26823   */\n      add\n        /* \"#utility.yul\":26796:26802   */\n      dup5\n        /* \"#utility.yul\":26752:26824   */\n      tag_232\n      jump\t// in\n    tag_518:\n        /* \"#utility.yul\":26397:26831   */\n      swap5\n      swap4\n      pop\n      pop\n      pop\n      pop\n      jump\t// out\n        /* \"#utility.yul\":26837:27075   */\n    tag_286:\n        /* \"#utility.yul\":26977:27011   */\n      0x45544820746f2061646420746f206c6f636b206d75737420626520616e20616d\n        /* \"#utility.yul\":26973:26974   */\n      0x00\n        /* \"#utility.yul\":26965:26971   */\n      dup3\n        /* \"#utility.yul\":26961:26975   */\n      add\n        /* \"#utility.yul\":26954:27012   */\n      mstore\n        /* \"#utility.yul\":27046:27067   */\n      0x6f756e742067726561746572207468616e203000000000000000000000000000\n        /* \"#utility.yul\":27041:27043   */\n      0x20\n        /* \"#utility.yul\":27033:27039   */\n      dup3\n        /* \"#utility.yul\":27029:27044   */\n      add\n        /* \"#utility.yul\":27022:27068   */\n      mstore\n        /* \"#utility.yul\":26837:27075   */\n      pop\n      jump\t// out\n        /* \"#utility.yul\":27081:27447   */\n    tag_287:\n        /* \"#utility.yul\":27223:27226   */\n      0x00\n        /* \"#utility.yul\":27244:27311   */\n      tag_521\n        /* \"#utility.yul\":27308:27310   */\n      0x33\n        /* \"#utility.yul\":27303:27306   */\n      dup4\n        /* \"#utility.yul\":27244:27311   */\n      tag_259\n      jump\t// in\n    tag_521:\n        /* \"#utility.yul\":27237:27311   */\n      swap2\n      pop\n        /* \"#utility.yul\":27320:27413   */\n      tag_522\n        /* \"#utility.yul\":27409:27412   */\n      dup3\n        /* \"#utility.yul\":27320:27413   */\n      tag_286\n      jump\t// in\n    tag_522:\n        /* \"#utility.yul\":27438:27440   */\n      0x40\n        /* \"#utility.yul\":27433:27436   */\n      dup3\n        /* \"#utility.yul\":27429:27441   */\n      add\n        /* \"#utility.yul\":27422:27441   */\n      swap1\n      pop\n        /* \"#utility.yul\":27081:27447   */\n      swap2\n      swap1\n      pop\n      jump\t// out\n        /* \"#utility.yul\":27453:27872   */\n    tag_183:\n        /* \"#utility.yul\":27619:27623   */\n      0x00\n        /* \"#utility.yul\":27657:27659   */\n      0x20\n        /* \"#utility.yul\":27646:27655   */\n      dup3\n        /* \"#utility.yul\":27642:27660   */\n      add\n        /* \"#utility.yul\":27634:27660   */\n      swap1\n      pop\n        /* \"#utility.yul\":27706:27715   */\n      dup2\n        /* \"#utility.yul\":27700:27704   */\n      dup2\n        /* \"#utility.yul\":27696:27716   */\n      sub\n        /* \"#utility.yul\":27692:27693   */\n      0x00\n        /* \"#utility.yul\":27681:27690   */\n      dup4\n        /* \"#utility.yul\":27677:27694   */\n      add\n        /* \"#utility.yul\":27670:27717   */\n      mstore\n        /* \"#utility.yul\":27734:27865   */\n      tag_524\n        /* \"#utility.yul\":27860:27864   */\n      dup2\n        /* \"#utility.yul\":27734:27865   */\n      tag_287\n      jump\t// in\n    tag_524:\n        /* \"#utility.yul\":27726:27865   */\n      swap1\n      pop\n        /* \"#utility.yul\":27453:27872   */\n      swap2\n      swap1\n      pop\n      jump\t// out\n        /* \"#utility.yul\":27878:28320   */\n    tag_202:\n        /* \"#utility.yul\":28027:28031   */\n      0x00\n        /* \"#utility.yul\":28065:28067   */\n      0x60\n        /* \"#utility.yul\":28054:28063   */\n      dup3\n        /* \"#utility.yul\":28050:28068   */\n      add\n        /* \"#utility.yul\":28042:28068   */\n      swap1\n      pop\n        /* \"#utility.yul\":28078:28149   */\n      tag_526\n        /* \"#utility.yul\":28146:28147   */\n      0x00\n        /* \"#utility.yul\":28135:28144   */\n      dup4\n        /* \"#utility.yul\":28131:28148   */\n      add\n        /* \"#utility.yul\":28122:28128   */\n      dup7\n        /* \"#utility.yul\":28078:28149   */\n      tag_250\n      jump\t// in\n    tag_526:\n        /* \"#utility.yul\":28159:28231   */\n      tag_527\n        /* \"#utility.yul\":28227:28229   */\n      0x20\n        /* \"#utility.yul\":28216:28225   */\n      dup4\n        /* \"#utility.yul\":28212:28230   */\n      add\n        /* \"#utility.yul\":28203:28209   */\n      dup6\n        /* \"#utility.yul\":28159:28231   */\n      tag_250\n      jump\t// in\n    tag_527:\n        /* \"#utility.yul\":28241:28313   */\n      tag_528\n        /* \"#utility.yul\":28309:28311   */\n      0x40\n        /* \"#utility.yul\":28298:28307   */\n      dup4\n        /* \"#utility.yul\":28294:28312   */\n      add\n        /* \"#utility.yul\":28285:28291   */\n      dup5\n        /* \"#utility.yul\":28241:28313   */\n      tag_232\n      jump\t// in\n    tag_528:\n        /* \"#utility.yul\":27878:28320   */\n      swap5\n      swap4\n      pop\n      pop\n      pop\n      pop\n      jump\t// out\n        /* \"#utility.yul\":28326:28658   */\n    tag_215:\n        /* \"#utility.yul\":28447:28451   */\n      0x00\n        /* \"#utility.yul\":28485:28487   */\n      0x40\n        /* \"#utility.yul\":28474:28483   */\n      dup3\n        /* \"#utility.yul\":28470:28488   */\n      add\n        /* \"#utility.yul\":28462:28488   */\n      swap1\n      pop\n        /* \"#utility.yul\":28498:28569   */\n      tag_530\n        /* \"#utility.yul\":28566:28567   */\n      0x00\n        /* \"#utility.yul\":28555:28564   */\n      dup4\n        /* \"#utility.yul\":28551:28568   */\n      add\n        /* \"#utility.yul\":28542:28548   */\n      dup6\n        /* \"#utility.yul\":28498:28569   */\n      tag_250\n      jump\t// in\n    tag_530:\n        /* \"#utility.yul\":28579:28651   */\n      tag_531\n        /* \"#utility.yul\":28647:28649   */\n      0x20\n        /* \"#utility.yul\":28636:28645   */\n      dup4\n        /* \"#utility.yul\":28632:28650   */\n      add\n        /* \"#utility.yul\":28623:28629   */\n      dup5\n        /* \"#utility.yul\":28579:28651   */\n      tag_232\n      jump\t// in\n    tag_531:\n        /* \"#utility.yul\":28326:28658   */\n      swap4\n      swap3\n      pop\n      pop\n      pop\n      jump\t// out\n\n    auxdata: 0xa2646970667358221220883caaeeeff8566f2abd212c623fd34547c3d3e37746d3d63d6af90a1d32a56064736f6c634300081a0033\n}\n",
				"bytecode": {
					"linkReferences": {},
					"object": "608060405234801561000f575f80fd5b50335f73ffffffffffffffffffffffffffffffffffffffff168173ffffffffffffffffffffffffffffffffffffffff1603610081575f6040517f1e4fbdf7000000000000000000000000000000000000000000000000000000008152600401610078919061019d565b60405180910390fd5b6100908161009d60201b60201c565b50600180819055506101b6565b5f805f9054906101000a900473ffffffffffffffffffffffffffffffffffffffff169050815f806101000a81548173ffffffffffffffffffffffffffffffffffffffff021916908373ffffffffffffffffffffffffffffffffffffffff1602179055508173ffffffffffffffffffffffffffffffffffffffff168173ffffffffffffffffffffffffffffffffffffffff167f8be0079c531659141344cd1fd0a4f28419497f9722a3daafe3b4186f6b6457e060405160405180910390a35050565b5f73ffffffffffffffffffffffffffffffffffffffff82169050919050565b5f6101878261015e565b9050919050565b6101978161017d565b82525050565b5f6020820190506101b05f83018461018e565b92915050565b61237f806101c35f395ff3fe60806040526004361061009b575f3560e01c80638c89a0ad116100635780638c89a0ad146101715780638da5cb5b1461019b5780638e06b906146101c55780639e6c3ff214610206578063ecaa9d051461022e578063f2fde38b1461024a5761009b565b806314205e281461009f5780633b958c38146100db5780634ae39e3e146101175780635c41ed7c14610133578063715018a61461015b575b5f80fd5b3480156100aa575f80fd5b506100c560048036038101906100c091906115cd565b610272565b6040516100d29190611610565b60405180910390f35b3480156100e6575f80fd5b5061010160048036038101906100fc919061165f565b6102f2565b60405161010e91906117f2565b60405180910390f35b610131600480360381019061012c919061183c565b61045a565b005b34801561013e575f80fd5b506101596004803603810190610154919061187a565b6106e2565b005b348015610166575f80fd5b5061016f610abc565b005b34801561017c575f80fd5b50610185610acf565b6040516101929190611610565b60405180910390f35b3480156101a6575f80fd5b506101af610ad6565b6040516101bc91906118ed565b60405180910390f35b3480156101d0575f80fd5b506101eb60048036038101906101e69190611930565b610afd565b6040516101fd9695949392919061199e565b60405180910390f35b348015610211575f80fd5b5061022c60048036038101906102279190611a36565b610b9f565b005b61024860048036038101906102439190611a86565b611069565b005b348015610255575f80fd5b50610270600480360381019061026b9190611ac4565b6111a0565b005b5f8173ffffffffffffffffffffffffffffffffffffffff166370a08231306040518263ffffffff1660e01b81526004016102ac91906118ed565b602060405180830381865afa1580156102c7573d5f803e3d5ffd5b505050506040513d601f19601f820116820180604052508101906102eb9190611b03565b9050919050565b606060025f3373ffffffffffffffffffffffffffffffffffffffff1673ffffffffffffffffffffffffffffffffffffffff1681526020019081526020015f205f8360ff1660ff1681526020019081526020015f20805480602002602001604051908101604052809291908181526020015f905b8282101561044f578382905f5260205f2090600402016040518060c00160405290815f82015f9054906101000a900473ffffffffffffffffffffffffffffffffffffffff1673ffffffffffffffffffffffffffffffffffffffff1673ffffffffffffffffffffffffffffffffffffffff1681526020016001820154815260200160028201548152602001600382015f9054906101000a900460ff1660ff1660ff1681526020016003820160019054906101000a900460ff161515151581526020016003820160029054906101000a900460ff16151515158152505081526020019060010190610365565b505050509050919050565b610462611224565b5f34116104a4576040517f08c379a000000000000000000000000000000000000000000000000000000000815260040161049b90611bae565b60405180910390fd5b5f8110156104e7576040517f08c379a00000000000000000000000000000000000000000000000000000000081526004016104de90611c3c565b60405180910390fd5b5f81146106775760025f3373ffffffffffffffffffffffffffffffffffffffff1673ffffffffffffffffffffffffffffffffffffffff1681526020019081526020015f205f8360ff1660ff1681526020019081526020015f206040518060c001604052805f73ffffffffffffffffffffffffffffffffffffffff16815260200134815260200183426105799190611c87565b81526020018460ff1681526020015f1515815260200160011515815250908060018154018082558091505060019003905f5260205f2090600402015f909190919091505f820151815f015f6101000a81548173ffffffffffffffffffffffffffffffffffffffff021916908373ffffffffffffffffffffffffffffffffffffffff16021790555060208201518160010155604082015181600201556060820151816003015f6101000a81548160ff021916908360ff16021790555060808201518160030160016101000a81548160ff02191690831515021790555060a08201518160030160026101000a81548160ff02191690831515021790555050505b5f73ffffffffffffffffffffffffffffffffffffffff167fec1e996e081f0b176398a3a553ab4a87ae67bf6f0d2f7848ab1872a30c3b63e9348484426106bd9190611c87565b426040516106ce9493929190611cba565b60405180910390a26106de61126a565b5050565b6106ea611224565b5f73ffffffffffffffffffffffffffffffffffffffff168473ffffffffffffffffffffffffffffffffffffffff1603610758576040517f08c379a000000000000000000000000000000000000000000000000000000000815260040161074f90611d6d565b60405180910390fd5b5f831161079a576040517f08c379a000000000000000000000000000000000000000000000000000000000815260040161079190611dfb565b60405180910390fd5b5f81116107dc576040517f08c379a00000000000000000000000000000000000000000000000000000000081526004016107d390611e89565b60405180910390fd5b5f8473ffffffffffffffffffffffffffffffffffffffff166370a08231336040518263ffffffff1660e01b815260040161081691906118ed565b602060405180830381865afa158015610831573d5f803e3d5ffd5b505050506040513d601f19601f820116820180604052508101906108559190611b03565b90508084111561089a576040517f08c379a000000000000000000000000000000000000000000000000000000000815260040161089190611ef1565b60405180910390fd5b6108c73330868873ffffffffffffffffffffffffffffffffffffffff16611273909392919063ffffffff16565b60025f3373ffffffffffffffffffffffffffffffffffffffff1673ffffffffffffffffffffffffffffffffffffffff1681526020019081526020015f205f8460ff1660ff1681526020019081526020015f206040518060c001604052808773ffffffffffffffffffffffffffffffffffffffff16815260200186815260200184426109529190611c87565b81526020018560ff1681526020015f151581526020015f1515815250908060018154018082558091505060019003905f5260205f2090600402015f909190919091505f820151815f015f6101000a81548173ffffffffffffffffffffffffffffffffffffffff021916908373ffffffffffffffffffffffffffffffffffffffff16021790555060208201518160010155604082015181600201556060820151816003015f6101000a81548160ff021916908360ff16021790555060808201518160030160016101000a81548160ff02191690831515021790555060a08201518160030160026101000a81548160ff02191690831515021790555050508473ffffffffffffffffffffffffffffffffffffffff167fec1e996e081f0b176398a3a553ab4a87ae67bf6f0d2f7848ab1872a30c3b63e985858542610a949190611c87565b42604051610aa59493929190611cba565b60405180910390a250610ab661126a565b50505050565b610ac46112f5565b610acd5f61137c565b565b5f47905090565b5f805f9054906101000a900473ffffffffffffffffffffffffffffffffffffffff16905090565b6002602052825f5260405f20602052815f5260405f208181548110610b20575f80fd5b905f5260205f2090600402015f925092505050805f015f9054906101000a900473ffffffffffffffffffffffffffffffffffffffff1690806001015490806002015490806003015f9054906101000a900460ff16908060030160019054906101000a900460ff16908060030160029054906101000a900460ff16905086565b610ba7611224565b60025f3373ffffffffffffffffffffffffffffffffffffffff1673ffffffffffffffffffffffffffffffffffffffff1681526020019081526020015f205f8360ff1660ff1681526020019081526020015f20805490508363ffffffff1610610c44576040517f08c379a0000000000000000000000000000000000000000000000000000000008152600401610c3b90611f7f565b60405180910390fd5b5f60025f3373ffffffffffffffffffffffffffffffffffffffff1673ffffffffffffffffffffffffffffffffffffffff1681526020019081526020015f205f8460ff1660ff1681526020019081526020015f208463ffffffff1681548110610caf57610cae611f9d565b5b905f5260205f20906004020190508060030160019054906101000a900460ff1615610d0f576040517f08c379a0000000000000000000000000000000000000000000000000000000008152600401610d069061203a565b60405180910390fd5b80600201544211610d55576040517f08c379a0000000000000000000000000000000000000000000000000000000008152600401610d4c906120c8565b60405180910390fd5b5f828260010154610d6691906120e6565b90505f811015610dab576040517f08c379a0000000000000000000000000000000000000000000000000000000008152600401610da290612163565b60405180910390fd5b5f8103610e4557600160025f3373ffffffffffffffffffffffffffffffffffffffff1673ffffffffffffffffffffffffffffffffffffffff1681526020019081526020015f205f8660ff1660ff1681526020019081526020015f208663ffffffff1681548110610e1e57610e1d611f9d565b5b905f5260205f20906004020160030160016101000a81548160ff0219169083151502179055505b8060025f3373ffffffffffffffffffffffffffffffffffffffff1673ffffffffffffffffffffffffffffffffffffffff1681526020019081526020015f205f8660ff1660ff1681526020019081526020015f208663ffffffff1681548110610eb057610eaf611f9d565b5b905f5260205f209060040201600101819055508160030160029054906101000a900460ff1615610f88575f3373ffffffffffffffffffffffffffffffffffffffff1684604051610eff906121ae565b5f6040518083038185875af1925050503d805f8114610f39576040519150601f19603f3d011682016040523d82523d5f602084013e610f3e565b606091505b5050905080610f82576040517f08c379a0000000000000000000000000000000000000000000000000000000008152600401610f799061220c565b60405180910390fd5b50610fd6565b610fd53384845f015f9054906101000a900473ffffffffffffffffffffffffffffffffffffffff1673ffffffffffffffffffffffffffffffffffffffff1661143d9092919063ffffffff16565b5b815f015f9054906101000a900473ffffffffffffffffffffffffffffffffffffffff1673ffffffffffffffffffffffffffffffffffffffff167ff9c1eebf9a6880c5357a85a01ed17f20fed16844f1e75d070866c77eaa1a4fdb84846003015f9054906101000a900460ff16426040516110529392919061222a565b60405180910390a2505061106461126a565b505050565b611071611224565b5f34116110b3576040517f08c379a00000000000000000000000000000000000000000000000000000000081526004016110aa906122cf565b60405180910390fd5b3460025f3373ffffffffffffffffffffffffffffffffffffffff1673ffffffffffffffffffffffffffffffffffffffff1681526020019081526020015f205f8460ff1660ff1681526020019081526020015f208263ffffffff168154811061111e5761111d611f9d565b5b905f5260205f2090600402016001015f82825461113b9190611c87565b925050819055505f73ffffffffffffffffffffffffffffffffffffffff167fc66e6f7d74d0c9e1b876d9a16e6a5e1cc740b73075424f001b9cf91ad042c31734844260405161118c9392919061222a565b60405180910390a261119c61126a565b5050565b6111a86112f5565b5f73ffffffffffffffffffffffffffffffffffffffff168173ffffffffffffffffffffffffffffffffffffffff1603611218575f6040517f1e4fbdf700000000000000000000000000000000000000000000000000000000815260040161120f91906118ed565b60405180910390fd5b6112218161137c565b50565b600260015403611260576040517f3ee5aeb500000000000000000000000000000000000000000000000000000000815260040160405180910390fd5b6002600181905550565b60018081905550565b6112ef848573ffffffffffffffffffffffffffffffffffffffff166323b872dd8686866040516024016112a8939291906122ed565b604051602081830303815290604052915060e01b6020820180517bffffffffffffffffffffffffffffffffffffffffffffffffffffffff83818316178352505050506114bc565b50505050565b6112fd611557565b73ffffffffffffffffffffffffffffffffffffffff1661131b610ad6565b73ffffffffffffffffffffffffffffffffffffffff161461137a5761133e611557565b6040517f118cdaa700000000000000000000000000000000000000000000000000000000815260040161137191906118ed565b60405180910390fd5b565b5f805f9054906101000a900473ffffffffffffffffffffffffffffffffffffffff169050815f806101000a81548173ffffffffffffffffffffffffffffffffffffffff021916908373ffffffffffffffffffffffffffffffffffffffff1602179055508173ffffffffffffffffffffffffffffffffffffffff168173ffffffffffffffffffffffffffffffffffffffff167f8be0079c531659141344cd1fd0a4f28419497f9722a3daafe3b4186f6b6457e060405160405180910390a35050565b6114b7838473ffffffffffffffffffffffffffffffffffffffff1663a9059cbb8585604051602401611470929190612322565b604051602081830303815290604052915060e01b6020820180517bffffffffffffffffffffffffffffffffffffffffffffffffffffffff83818316178352505050506114bc565b505050565b5f8060205f8451602086015f885af1806114db576040513d5f823e3d81fd5b3d92505f519150505f82146114f457600181141561150f565b5f8473ffffffffffffffffffffffffffffffffffffffff163b145b1561155157836040517f5274afe700000000000000000000000000000000000000000000000000000000815260040161154891906118ed565b60405180910390fd5b50505050565b5f33905090565b5f80fd5b5f73ffffffffffffffffffffffffffffffffffffffff82169050919050565b5f61158b82611562565b9050919050565b5f61159c82611581565b9050919050565b6115ac81611592565b81146115b6575f80fd5b50565b5f813590506115c7816115a3565b92915050565b5f602082840312156115e2576115e161155e565b5b5f6115ef848285016115b9565b91505092915050565b5f819050919050565b61160a816115f8565b82525050565b5f6020820190506116235f830184611601565b92915050565b5f60ff82169050919050565b61163e81611629565b8114611648575f80fd5b50565b5f8135905061165981611635565b92915050565b5f602082840312156116745761167361155e565b5b5f6116818482850161164b565b91505092915050565b5f81519050919050565b5f82825260208201905092915050565b5f819050602082019050919050565b6116bc81611581565b82525050565b6116cb816115f8565b82525050565b6116da81611629565b82525050565b5f8115159050919050565b6116f4816116e0565b82525050565b60c082015f82015161170e5f8501826116b3565b50602082015161172160208501826116c2565b50604082015161173460408501826116c2565b50606082015161174760608501826116d1565b50608082015161175a60808501826116eb565b5060a082015161176d60a08501826116eb565b50505050565b5f61177e83836116fa565b60c08301905092915050565b5f602082019050919050565b5f6117a08261168a565b6117aa8185611694565b93506117b5836116a4565b805f5b838110156117e55781516117cc8882611773565b97506117d78361178a565b9250506001810190506117b8565b5085935050505092915050565b5f6020820190508181035f83015261180a8184611796565b905092915050565b61181b816115f8565b8114611825575f80fd5b50565b5f8135905061183681611812565b92915050565b5f80604083850312156118525761185161155e565b5b5f61185f8582860161164b565b925050602061187085828601611828565b9150509250929050565b5f805f80608085870312156118925761189161155e565b5b5f61189f878288016115b9565b94505060206118b087828801611828565b93505060406118c18782880161164b565b92505060606118d287828801611828565b91505092959194509250565b6118e781611581565b82525050565b5f6020820190506119005f8301846118de565b92915050565b61190f81611581565b8114611919575f80fd5b50565b5f8135905061192a81611906565b92915050565b5f805f606084860312156119475761194661155e565b5b5f6119548682870161191c565b93505060206119658682870161164b565b925050604061197686828701611828565b9150509250925092565b61198981611629565b82525050565b611998816116e0565b82525050565b5f60c0820190506119b15f8301896118de565b6119be6020830188611601565b6119cb6040830187611601565b6119d86060830186611980565b6119e5608083018561198f565b6119f260a083018461198f565b979650505050505050565b5f63ffffffff82169050919050565b611a15816119fd565b8114611a1f575f80fd5b50565b5f81359050611a3081611a0c565b92915050565b5f805f60608486031215611a4d57611a4c61155e565b5b5f611a5a86828701611a22565b9350506020611a6b8682870161164b565b9250506040611a7c86828701611828565b9150509250925092565b5f8060408385031215611a9c57611a9b61155e565b5b5f611aa98582860161164b565b9250506020611aba85828601611a22565b9150509250929050565b5f60208284031215611ad957611ad861155e565b5b5f611ae68482850161191c565b91505092915050565b5f81519050611afd81611812565b92915050565b5f60208284031215611b1857611b1761155e565b5b5f611b2584828501611aef565b91505092915050565b5f82825260208201905092915050565b7f45544820746f206c6f636b206d75737420612076616c756520677265617465725f8201527f207468616e203000000000000000000000000000000000000000000000000000602082015250565b5f611b98602783611b2e565b9150611ba382611b3e565b604082019050919050565b5f6020820190508181035f830152611bc581611b8c565b9050919050565b7f546865206c6f636b706572696f64206d757374206265206772656174657220745f8201527f68656e207a65726f000000000000000000000000000000000000000000000000602082015250565b5f611c26602883611b2e565b9150611c3182611bcc565b604082019050919050565b5f6020820190508181035f830152611c5381611c1a565b9050919050565b7f4e487b71000000000000000000000000000000000000000000000000000000005f52601160045260245ffd5b5f611c91826115f8565b9150611c9c836115f8565b9250828201905080821115611cb457611cb3611c5a565b5b92915050565b5f608082019050611ccd5f830187611601565b611cda6020830186611980565b611ce76040830185611601565b611cf46060830184611601565b95945050505050565b7f4d7573742070726f7669646520612076616c696420746f6b656e2061646472655f8201527f7373000000000000000000000000000000000000000000000000000000000000602082015250565b5f611d57602283611b2e565b9150611d6282611cfd565b604082019050919050565b5f6020820190508181035f830152611d8481611d4b565b9050919050565b7f546f6b656e20616d6f756e74206d7573742062652067726561746572207468655f8201527f6e207a65726f0000000000000000000000000000000000000000000000000000602082015250565b5f611de5602683611b2e565b9150611df082611d8b565b604082019050919050565b5f6020820190508181035f830152611e1281611dd9565b9050919050565b7f546865206c6f636b20706572696f64206d7573742062652067726561746572205f8201527f7468656e207a65726f0000000000000000000000000000000000000000000000602082015250565b5f611e73602983611b2e565b9150611e7e82611e19565b604082019050919050565b5f6020820190508181035f830152611ea081611e67565b9050919050565b7f4e6f7420656e6f75676820746f6b656e7320746f206c6f636b000000000000005f82015250565b5f611edb601983611b2e565b9150611ee682611ea7565b602082019050919050565b5f6020820190508181035f830152611f0881611ecf565b9050919050565b7f5468652073706563696669656420617373657420494420697320696e76616c695f8201527f642e000000000000000000000000000000000000000000000000000000000000602082015250565b5f611f69602283611b2e565b9150611f7482611f0f565b604082019050919050565b5f6020820190508181035f830152611f9681611f5d565b9050919050565b7f4e487b71000000000000000000000000000000000000000000000000000000005f52603260045260245ffd5b7f417373657473206861766520616c7265616479206265656e20776974686472615f8201527f776e210000000000000000000000000000000000000000000000000000000000602082015250565b5f612024602383611b2e565b915061202f82611fca565b604082019050919050565b5f6020820190508181035f83015261205181612018565b9050919050565b7f546865206c6f636b20706572696f6420686173206e6f742079657420657870695f8201527f7265642100000000000000000000000000000000000000000000000000000000602082015250565b5f6120b2602483611b2e565b91506120bd82612058565b604082019050919050565b5f6020820190508181035f8301526120df816120a6565b9050919050565b5f6120f0826115f8565b91506120fb836115f8565b925082820390508181111561211357612112611c5a565b5b92915050565b7f4e6f7420656e6f7567682061737365747320746f2077697468647261772100005f82015250565b5f61214d601e83611b2e565b915061215882612119565b602082019050919050565b5f6020820190508181035f83015261217a81612141565b9050919050565b5f81905092915050565b50565b5f6121995f83612181565b91506121a48261218b565b5f82019050919050565b5f6121b88261218e565b9150819050919050565b7f455448207472616e73666572206661696c6564000000000000000000000000005f82015250565b5f6121f6601383611b2e565b9150612201826121c2565b602082019050919050565b5f6020820190508181035f830152612223816121ea565b9050919050565b5f60608201905061223d5f830186611601565b61224a6020830185611980565b6122576040830184611601565b949350505050565b7f45544820746f2061646420746f206c6f636b206d75737420626520616e20616d5f8201527f6f756e742067726561746572207468616e203000000000000000000000000000602082015250565b5f6122b9603383611b2e565b91506122c48261225f565b604082019050919050565b5f6020820190508181035f8301526122e6816122ad565b9050919050565b5f6060820190506123005f8301866118de565b61230d60208301856118de565b61231a6040830184611601565b949350505050565b5f6040820190506123355f8301856118de565b6123426020830184611601565b939250505056fea2646970667358221220883caaeeeff8566f2abd212c623fd34547c3d3e37746d3d63d6af90a1d32a56064736f6c634300081a0033",
					"opcodes": "PUSH1 0x80 PUSH1 0x40 MSTORE CALLVALUE DUP1 ISZERO PUSH2 0xF JUMPI PUSH0 DUP1 REVERT JUMPDEST POP CALLER PUSH0 PUSH20 0xFFFFFFFFFFFFFFFFFFFFFFFFFFFFFFFFFFFFFFFF AND DUP2 PUSH20 0xFFFFFFFFFFFFFFFFFFFFFFFFFFFFFFFFFFFFFFFF AND SUB PUSH2 0x81 JUMPI PUSH0 PUSH1 0x40 MLOAD PUSH32 0x1E4FBDF700000000000000000000000000000000000000000000000000000000 DUP2 MSTORE PUSH1 0x4 ADD PUSH2 0x78 SWAP2 SWAP1 PUSH2 0x19D JUMP JUMPDEST PUSH1 0x40 MLOAD DUP1 SWAP2 SUB SWAP1 REVERT JUMPDEST PUSH2 0x90 DUP2 PUSH2 0x9D PUSH1 0x20 SHL PUSH1 0x20 SHR JUMP JUMPDEST POP PUSH1 0x1 DUP1 DUP2 SWAP1 SSTORE POP PUSH2 0x1B6 JUMP JUMPDEST PUSH0 DUP1 PUSH0 SWAP1 SLOAD SWAP1 PUSH2 0x100 EXP SWAP1 DIV PUSH20 0xFFFFFFFFFFFFFFFFFFFFFFFFFFFFFFFFFFFFFFFF AND SWAP1 POP DUP2 PUSH0 DUP1 PUSH2 0x100 EXP DUP2 SLOAD DUP2 PUSH20 0xFFFFFFFFFFFFFFFFFFFFFFFFFFFFFFFFFFFFFFFF MUL NOT AND SWAP1 DUP4 PUSH20 0xFFFFFFFFFFFFFFFFFFFFFFFFFFFFFFFFFFFFFFFF AND MUL OR SWAP1 SSTORE POP DUP2 PUSH20 0xFFFFFFFFFFFFFFFFFFFFFFFFFFFFFFFFFFFFFFFF AND DUP2 PUSH20 0xFFFFFFFFFFFFFFFFFFFFFFFFFFFFFFFFFFFFFFFF AND PUSH32 0x8BE0079C531659141344CD1FD0A4F28419497F9722A3DAAFE3B4186F6B6457E0 PUSH1 0x40 MLOAD PUSH1 0x40 MLOAD DUP1 SWAP2 SUB SWAP1 LOG3 POP POP JUMP JUMPDEST PUSH0 PUSH20 0xFFFFFFFFFFFFFFFFFFFFFFFFFFFFFFFFFFFFFFFF DUP3 AND SWAP1 POP SWAP2 SWAP1 POP JUMP JUMPDEST PUSH0 PUSH2 0x187 DUP3 PUSH2 0x15E JUMP JUMPDEST SWAP1 POP SWAP2 SWAP1 POP JUMP JUMPDEST PUSH2 0x197 DUP2 PUSH2 0x17D JUMP JUMPDEST DUP3 MSTORE POP POP JUMP JUMPDEST PUSH0 PUSH1 0x20 DUP3 ADD SWAP1 POP PUSH2 0x1B0 PUSH0 DUP4 ADD DUP5 PUSH2 0x18E JUMP JUMPDEST SWAP3 SWAP2 POP POP JUMP JUMPDEST PUSH2 0x237F DUP1 PUSH2 0x1C3 PUSH0 CODECOPY PUSH0 RETURN INVALID PUSH1 0x80 PUSH1 0x40 MSTORE PUSH1 0x4 CALLDATASIZE LT PUSH2 0x9B JUMPI PUSH0 CALLDATALOAD PUSH1 0xE0 SHR DUP1 PUSH4 0x8C89A0AD GT PUSH2 0x63 JUMPI DUP1 PUSH4 0x8C89A0AD EQ PUSH2 0x171 JUMPI DUP1 PUSH4 0x8DA5CB5B EQ PUSH2 0x19B JUMPI DUP1 PUSH4 0x8E06B906 EQ PUSH2 0x1C5 JUMPI DUP1 PUSH4 0x9E6C3FF2 EQ PUSH2 0x206 JUMPI DUP1 PUSH4 0xECAA9D05 EQ PUSH2 0x22E JUMPI DUP1 PUSH4 0xF2FDE38B EQ PUSH2 0x24A JUMPI PUSH2 0x9B JUMP JUMPDEST DUP1 PUSH4 0x14205E28 EQ PUSH2 0x9F JUMPI DUP1 PUSH4 0x3B958C38 EQ PUSH2 0xDB JUMPI DUP1 PUSH4 0x4AE39E3E EQ PUSH2 0x117 JUMPI DUP1 PUSH4 0x5C41ED7C EQ PUSH2 0x133 JUMPI DUP1 PUSH4 0x715018A6 EQ PUSH2 0x15B JUMPI JUMPDEST PUSH0 DUP1 REVERT JUMPDEST CALLVALUE DUP1 ISZERO PUSH2 0xAA JUMPI PUSH0 DUP1 REVERT JUMPDEST POP PUSH2 0xC5 PUSH1 0x4 DUP1 CALLDATASIZE SUB DUP2 ADD SWAP1 PUSH2 0xC0 SWAP2 SWAP1 PUSH2 0x15CD JUMP JUMPDEST PUSH2 0x272 JUMP JUMPDEST PUSH1 0x40 MLOAD PUSH2 0xD2 SWAP2 SWAP1 PUSH2 0x1610 JUMP JUMPDEST PUSH1 0x40 MLOAD DUP1 SWAP2 SUB SWAP1 RETURN JUMPDEST CALLVALUE DUP1 ISZERO PUSH2 0xE6 JUMPI PUSH0 DUP1 REVERT JUMPDEST POP PUSH2 0x101 PUSH1 0x4 DUP1 CALLDATASIZE SUB DUP2 ADD SWAP1 PUSH2 0xFC SWAP2 SWAP1 PUSH2 0x165F JUMP JUMPDEST PUSH2 0x2F2 JUMP JUMPDEST PUSH1 0x40 MLOAD PUSH2 0x10E SWAP2 SWAP1 PUSH2 0x17F2 JUMP JUMPDEST PUSH1 0x40 MLOAD DUP1 SWAP2 SUB SWAP1 RETURN JUMPDEST PUSH2 0x131 PUSH1 0x4 DUP1 CALLDATASIZE SUB DUP2 ADD SWAP1 PUSH2 0x12C SWAP2 SWAP1 PUSH2 0x183C JUMP JUMPDEST PUSH2 0x45A JUMP JUMPDEST STOP JUMPDEST CALLVALUE DUP1 ISZERO PUSH2 0x13E JUMPI PUSH0 DUP1 REVERT JUMPDEST POP PUSH2 0x159 PUSH1 0x4 DUP1 CALLDATASIZE SUB DUP2 ADD SWAP1 PUSH2 0x154 SWAP2 SWAP1 PUSH2 0x187A JUMP JUMPDEST PUSH2 0x6E2 JUMP JUMPDEST STOP JUMPDEST CALLVALUE DUP1 ISZERO PUSH2 0x166 JUMPI PUSH0 DUP1 REVERT JUMPDEST POP PUSH2 0x16F PUSH2 0xABC JUMP JUMPDEST STOP JUMPDEST CALLVALUE DUP1 ISZERO PUSH2 0x17C JUMPI PUSH0 DUP1 REVERT JUMPDEST POP PUSH2 0x185 PUSH2 0xACF JUMP JUMPDEST PUSH1 0x40 MLOAD PUSH2 0x192 SWAP2 SWAP1 PUSH2 0x1610 JUMP JUMPDEST PUSH1 0x40 MLOAD DUP1 SWAP2 SUB SWAP1 RETURN JUMPDEST CALLVALUE DUP1 ISZERO PUSH2 0x1A6 JUMPI PUSH0 DUP1 REVERT JUMPDEST POP PUSH2 0x1AF PUSH2 0xAD6 JUMP JUMPDEST PUSH1 0x40 MLOAD PUSH2 0x1BC SWAP2 SWAP1 PUSH2 0x18ED JUMP JUMPDEST PUSH1 0x40 MLOAD DUP1 SWAP2 SUB SWAP1 RETURN JUMPDEST CALLVALUE DUP1 ISZERO PUSH2 0x1D0 JUMPI PUSH0 DUP1 REVERT JUMPDEST POP PUSH2 0x1EB PUSH1 0x4 DUP1 CALLDATASIZE SUB DUP2 ADD SWAP1 PUSH2 0x1E6 SWAP2 SWAP1 PUSH2 0x1930 JUMP JUMPDEST PUSH2 0xAFD JUMP JUMPDEST PUSH1 0x40 MLOAD PUSH2 0x1FD SWAP7 SWAP6 SWAP5 SWAP4 SWAP3 SWAP2 SWAP1 PUSH2 0x199E JUMP JUMPDEST PUSH1 0x40 MLOAD DUP1 SWAP2 SUB SWAP1 RETURN JUMPDEST CALLVALUE DUP1 ISZERO PUSH2 0x211 JUMPI PUSH0 DUP1 REVERT JUMPDEST POP PUSH2 0x22C PUSH1 0x4 DUP1 CALLDATASIZE SUB DUP2 ADD SWAP1 PUSH2 0x227 SWAP2 SWAP1 PUSH2 0x1A36 JUMP JUMPDEST PUSH2 0xB9F JUMP JUMPDEST STOP JUMPDEST PUSH2 0x248 PUSH1 0x4 DUP1 CALLDATASIZE SUB DUP2 ADD SWAP1 PUSH2 0x243 SWAP2 SWAP1 PUSH2 0x1A86 JUMP JUMPDEST PUSH2 0x1069 JUMP JUMPDEST STOP JUMPDEST CALLVALUE DUP1 ISZERO PUSH2 0x255 JUMPI PUSH0 DUP1 REVERT JUMPDEST POP PUSH2 0x270 PUSH1 0x4 DUP1 CALLDATASIZE SUB DUP2 ADD SWAP1 PUSH2 0x26B SWAP2 SWAP1 PUSH2 0x1AC4 JUMP JUMPDEST PUSH2 0x11A0 JUMP JUMPDEST STOP JUMPDEST PUSH0 DUP2 PUSH20 0xFFFFFFFFFFFFFFFFFFFFFFFFFFFFFFFFFFFFFFFF AND PUSH4 0x70A08231 ADDRESS PUSH1 0x40 MLOAD DUP3 PUSH4 0xFFFFFFFF AND PUSH1 0xE0 SHL DUP2 MSTORE PUSH1 0x4 ADD PUSH2 0x2AC SWAP2 SWAP1 PUSH2 0x18ED JUMP JUMPDEST PUSH1 0x20 PUSH1 0x40 MLOAD DUP1 DUP4 SUB DUP2 DUP7 GAS STATICCALL ISZERO DUP1 ISZERO PUSH2 0x2C7 JUMPI RETURNDATASIZE PUSH0 DUP1 RETURNDATACOPY RETURNDATASIZE PUSH0 REVERT JUMPDEST POP POP POP POP PUSH1 0x40 MLOAD RETURNDATASIZE PUSH1 0x1F NOT PUSH1 0x1F DUP3 ADD AND DUP3 ADD DUP1 PUSH1 0x40 MSTORE POP DUP2 ADD SWAP1 PUSH2 0x2EB SWAP2 SWAP1 PUSH2 0x1B03 JUMP JUMPDEST SWAP1 POP SWAP2 SWAP1 POP JUMP JUMPDEST PUSH1 0x60 PUSH1 0x2 PUSH0 CALLER PUSH20 0xFFFFFFFFFFFFFFFFFFFFFFFFFFFFFFFFFFFFFFFF AND PUSH20 0xFFFFFFFFFFFFFFFFFFFFFFFFFFFFFFFFFFFFFFFF AND DUP2 MSTORE PUSH1 0x20 ADD SWAP1 DUP2 MSTORE PUSH1 0x20 ADD PUSH0 KECCAK256 PUSH0 DUP4 PUSH1 0xFF AND PUSH1 0xFF AND DUP2 MSTORE PUSH1 0x20 ADD SWAP1 DUP2 MSTORE PUSH1 0x20 ADD PUSH0 KECCAK256 DUP1 SLOAD DUP1 PUSH1 0x20 MUL PUSH1 0x20 ADD PUSH1 0x40 MLOAD SWAP1 DUP2 ADD PUSH1 0x40 MSTORE DUP1 SWAP3 SWAP2 SWAP1 DUP2 DUP2 MSTORE PUSH1 0x20 ADD PUSH0 SWAP1 JUMPDEST DUP3 DUP3 LT ISZERO PUSH2 0x44F JUMPI DUP4 DUP3 SWAP1 PUSH0 MSTORE PUSH1 0x20 PUSH0 KECCAK256 SWAP1 PUSH1 0x4 MUL ADD PUSH1 0x40 MLOAD DUP1 PUSH1 0xC0 ADD PUSH1 0x40 MSTORE SWAP1 DUP2 PUSH0 DUP3 ADD PUSH0 SWAP1 SLOAD SWAP1 PUSH2 0x100 EXP SWAP1 DIV PUSH20 0xFFFFFFFFFFFFFFFFFFFFFFFFFFFFFFFFFFFFFFFF AND PUSH20 0xFFFFFFFFFFFFFFFFFFFFFFFFFFFFFFFFFFFFFFFF AND PUSH20 0xFFFFFFFFFFFFFFFFFFFFFFFFFFFFFFFFFFFFFFFF AND DUP2 MSTORE PUSH1 0x20 ADD PUSH1 0x1 DUP3 ADD SLOAD DUP2 MSTORE PUSH1 0x20 ADD PUSH1 0x2 DUP3 ADD SLOAD DUP2 MSTORE PUSH1 0x20 ADD PUSH1 0x3 DUP3 ADD PUSH0 SWAP1 SLOAD SWAP1 PUSH2 0x100 EXP SWAP1 DIV PUSH1 0xFF AND PUSH1 0xFF AND PUSH1 0xFF AND DUP2 MSTORE PUSH1 0x20 ADD PUSH1 0x3 DUP3 ADD PUSH1 0x1 SWAP1 SLOAD SWAP1 PUSH2 0x100 EXP SWAP1 DIV PUSH1 0xFF AND ISZERO ISZERO ISZERO ISZERO DUP2 MSTORE PUSH1 0x20 ADD PUSH1 0x3 DUP3 ADD PUSH1 0x2 SWAP1 SLOAD SWAP1 PUSH2 0x100 EXP SWAP1 DIV PUSH1 0xFF AND ISZERO ISZERO ISZERO ISZERO DUP2 MSTORE POP POP DUP2 MSTORE PUSH1 0x20 ADD SWAP1 PUSH1 0x1 ADD SWAP1 PUSH2 0x365 JUMP JUMPDEST POP POP POP POP SWAP1 POP SWAP2 SWAP1 POP JUMP JUMPDEST PUSH2 0x462 PUSH2 0x1224 JUMP JUMPDEST PUSH0 CALLVALUE GT PUSH2 0x4A4 JUMPI PUSH1 0x40 MLOAD PUSH32 0x8C379A000000000000000000000000000000000000000000000000000000000 DUP2 MSTORE PUSH1 0x4 ADD PUSH2 0x49B SWAP1 PUSH2 0x1BAE JUMP JUMPDEST PUSH1 0x40 MLOAD DUP1 SWAP2 SUB SWAP1 REVERT JUMPDEST PUSH0 DUP2 LT ISZERO PUSH2 0x4E7 JUMPI PUSH1 0x40 MLOAD PUSH32 0x8C379A000000000000000000000000000000000000000000000000000000000 DUP2 MSTORE PUSH1 0x4 ADD PUSH2 0x4DE SWAP1 PUSH2 0x1C3C JUMP JUMPDEST PUSH1 0x40 MLOAD DUP1 SWAP2 SUB SWAP1 REVERT JUMPDEST PUSH0 DUP2 EQ PUSH2 0x677 JUMPI PUSH1 0x2 PUSH0 CALLER PUSH20 0xFFFFFFFFFFFFFFFFFFFFFFFFFFFFFFFFFFFFFFFF AND PUSH20 0xFFFFFFFFFFFFFFFFFFFFFFFFFFFFFFFFFFFFFFFF AND DUP2 MSTORE PUSH1 0x20 ADD SWAP1 DUP2 MSTORE PUSH1 0x20 ADD PUSH0 KECCAK256 PUSH0 DUP4 PUSH1 0xFF AND PUSH1 0xFF AND DUP2 MSTORE PUSH1 0x20 ADD SWAP1 DUP2 MSTORE PUSH1 0x20 ADD PUSH0 KECCAK256 PUSH1 0x40 MLOAD DUP1 PUSH1 0xC0 ADD PUSH1 0x40 MSTORE DUP1 PUSH0 PUSH20 0xFFFFFFFFFFFFFFFFFFFFFFFFFFFFFFFFFFFFFFFF AND DUP2 MSTORE PUSH1 0x20 ADD CALLVALUE DUP2 MSTORE PUSH1 0x20 ADD DUP4 TIMESTAMP PUSH2 0x579 SWAP2 SWAP1 PUSH2 0x1C87 JUMP JUMPDEST DUP2 MSTORE PUSH1 0x20 ADD DUP5 PUSH1 0xFF AND DUP2 MSTORE PUSH1 0x20 ADD PUSH0 ISZERO ISZERO DUP2 MSTORE PUSH1 0x20 ADD PUSH1 0x1 ISZERO ISZERO DUP2 MSTORE POP SWAP1 DUP1 PUSH1 0x1 DUP2 SLOAD ADD DUP1 DUP3 SSTORE DUP1 SWAP2 POP POP PUSH1 0x1 SWAP1 SUB SWAP1 PUSH0 MSTORE PUSH1 0x20 PUSH0 KECCAK256 SWAP1 PUSH1 0x4 MUL ADD PUSH0 SWAP1 SWAP2 SWAP1 SWAP2 SWAP1 SWAP2 POP PUSH0 DUP3 ADD MLOAD DUP2 PUSH0 ADD PUSH0 PUSH2 0x100 EXP DUP2 SLOAD DUP2 PUSH20 0xFFFFFFFFFFFFFFFFFFFFFFFFFFFFFFFFFFFFFFFF MUL NOT AND SWAP1 DUP4 PUSH20 0xFFFFFFFFFFFFFFFFFFFFFFFFFFFFFFFFFFFFFFFF AND MUL OR SWAP1 SSTORE POP PUSH1 0x20 DUP3 ADD MLOAD DUP2 PUSH1 0x1 ADD SSTORE PUSH1 0x40 DUP3 ADD MLOAD DUP2 PUSH1 0x2 ADD SSTORE PUSH1 0x60 DUP3 ADD MLOAD DUP2 PUSH1 0x3 ADD PUSH0 PUSH2 0x100 EXP DUP2 SLOAD DUP2 PUSH1 0xFF MUL NOT AND SWAP1 DUP4 PUSH1 0xFF AND MUL OR SWAP1 SSTORE POP PUSH1 0x80 DUP3 ADD MLOAD DUP2 PUSH1 0x3 ADD PUSH1 0x1 PUSH2 0x100 EXP DUP2 SLOAD DUP2 PUSH1 0xFF MUL NOT AND SWAP1 DUP4 ISZERO ISZERO MUL OR SWAP1 SSTORE POP PUSH1 0xA0 DUP3 ADD MLOAD DUP2 PUSH1 0x3 ADD PUSH1 0x2 PUSH2 0x100 EXP DUP2 SLOAD DUP2 PUSH1 0xFF MUL NOT AND SWAP1 DUP4 ISZERO ISZERO MUL OR SWAP1 SSTORE POP POP POP JUMPDEST PUSH0 PUSH20 0xFFFFFFFFFFFFFFFFFFFFFFFFFFFFFFFFFFFFFFFF AND PUSH32 0xEC1E996E081F0B176398A3A553AB4A87AE67BF6F0D2F7848AB1872A30C3B63E9 CALLVALUE DUP5 DUP5 TIMESTAMP PUSH2 0x6BD SWAP2 SWAP1 PUSH2 0x1C87 JUMP JUMPDEST TIMESTAMP PUSH1 0x40 MLOAD PUSH2 0x6CE SWAP5 SWAP4 SWAP3 SWAP2 SWAP1 PUSH2 0x1CBA JUMP JUMPDEST PUSH1 0x40 MLOAD DUP1 SWAP2 SUB SWAP1 LOG2 PUSH2 0x6DE PUSH2 0x126A JUMP JUMPDEST POP POP JUMP JUMPDEST PUSH2 0x6EA PUSH2 0x1224 JUMP JUMPDEST PUSH0 PUSH20 0xFFFFFFFFFFFFFFFFFFFFFFFFFFFFFFFFFFFFFFFF AND DUP5 PUSH20 0xFFFFFFFFFFFFFFFFFFFFFFFFFFFFFFFFFFFFFFFF AND SUB PUSH2 0x758 JUMPI PUSH1 0x40 MLOAD PUSH32 0x8C379A000000000000000000000000000000000000000000000000000000000 DUP2 MSTORE PUSH1 0x4 ADD PUSH2 0x74F SWAP1 PUSH2 0x1D6D JUMP JUMPDEST PUSH1 0x40 MLOAD DUP1 SWAP2 SUB SWAP1 REVERT JUMPDEST PUSH0 DUP4 GT PUSH2 0x79A JUMPI PUSH1 0x40 MLOAD PUSH32 0x8C379A000000000000000000000000000000000000000000000000000000000 DUP2 MSTORE PUSH1 0x4 ADD PUSH2 0x791 SWAP1 PUSH2 0x1DFB JUMP JUMPDEST PUSH1 0x40 MLOAD DUP1 SWAP2 SUB SWAP1 REVERT JUMPDEST PUSH0 DUP2 GT PUSH2 0x7DC JUMPI PUSH1 0x40 MLOAD PUSH32 0x8C379A000000000000000000000000000000000000000000000000000000000 DUP2 MSTORE PUSH1 0x4 ADD PUSH2 0x7D3 SWAP1 PUSH2 0x1E89 JUMP JUMPDEST PUSH1 0x40 MLOAD DUP1 SWAP2 SUB SWAP1 REVERT JUMPDEST PUSH0 DUP5 PUSH20 0xFFFFFFFFFFFFFFFFFFFFFFFFFFFFFFFFFFFFFFFF AND PUSH4 0x70A08231 CALLER PUSH1 0x40 MLOAD DUP3 PUSH4 0xFFFFFFFF AND PUSH1 0xE0 SHL DUP2 MSTORE PUSH1 0x4 ADD PUSH2 0x816 SWAP2 SWAP1 PUSH2 0x18ED JUMP JUMPDEST PUSH1 0x20 PUSH1 0x40 MLOAD DUP1 DUP4 SUB DUP2 DUP7 GAS STATICCALL ISZERO DUP1 ISZERO PUSH2 0x831 JUMPI RETURNDATASIZE PUSH0 DUP1 RETURNDATACOPY RETURNDATASIZE PUSH0 REVERT JUMPDEST POP POP POP POP PUSH1 0x40 MLOAD RETURNDATASIZE PUSH1 0x1F NOT PUSH1 0x1F DUP3 ADD AND DUP3 ADD DUP1 PUSH1 0x40 MSTORE POP DUP2 ADD SWAP1 PUSH2 0x855 SWAP2 SWAP1 PUSH2 0x1B03 JUMP JUMPDEST SWAP1 POP DUP1 DUP5 GT ISZERO PUSH2 0x89A JUMPI PUSH1 0x40 MLOAD PUSH32 0x8C379A000000000000000000000000000000000000000000000000000000000 DUP2 MSTORE PUSH1 0x4 ADD PUSH2 0x891 SWAP1 PUSH2 0x1EF1 JUMP JUMPDEST PUSH1 0x40 MLOAD DUP1 SWAP2 SUB SWAP1 REVERT JUMPDEST PUSH2 0x8C7 CALLER ADDRESS DUP7 DUP9 PUSH20 0xFFFFFFFFFFFFFFFFFFFFFFFFFFFFFFFFFFFFFFFF AND PUSH2 0x1273 SWAP1 SWAP4 SWAP3 SWAP2 SWAP1 PUSH4 0xFFFFFFFF AND JUMP JUMPDEST PUSH1 0x2 PUSH0 CALLER PUSH20 0xFFFFFFFFFFFFFFFFFFFFFFFFFFFFFFFFFFFFFFFF AND PUSH20 0xFFFFFFFFFFFFFFFFFFFFFFFFFFFFFFFFFFFFFFFF AND DUP2 MSTORE PUSH1 0x20 ADD SWAP1 DUP2 MSTORE PUSH1 0x20 ADD PUSH0 KECCAK256 PUSH0 DUP5 PUSH1 0xFF AND PUSH1 0xFF AND DUP2 MSTORE PUSH1 0x20 ADD SWAP1 DUP2 MSTORE PUSH1 0x20 ADD PUSH0 KECCAK256 PUSH1 0x40 MLOAD DUP1 PUSH1 0xC0 ADD PUSH1 0x40 MSTORE DUP1 DUP8 PUSH20 0xFFFFFFFFFFFFFFFFFFFFFFFFFFFFFFFFFFFFFFFF AND DUP2 MSTORE PUSH1 0x20 ADD DUP7 DUP2 MSTORE PUSH1 0x20 ADD DUP5 TIMESTAMP PUSH2 0x952 SWAP2 SWAP1 PUSH2 0x1C87 JUMP JUMPDEST DUP2 MSTORE PUSH1 0x20 ADD DUP6 PUSH1 0xFF AND DUP2 MSTORE PUSH1 0x20 ADD PUSH0 ISZERO ISZERO DUP2 MSTORE PUSH1 0x20 ADD PUSH0 ISZERO ISZERO DUP2 MSTORE POP SWAP1 DUP1 PUSH1 0x1 DUP2 SLOAD ADD DUP1 DUP3 SSTORE DUP1 SWAP2 POP POP PUSH1 0x1 SWAP1 SUB SWAP1 PUSH0 MSTORE PUSH1 0x20 PUSH0 KECCAK256 SWAP1 PUSH1 0x4 MUL ADD PUSH0 SWAP1 SWAP2 SWAP1 SWAP2 SWAP1 SWAP2 POP PUSH0 DUP3 ADD MLOAD DUP2 PUSH0 ADD PUSH0 PUSH2 0x100 EXP DUP2 SLOAD DUP2 PUSH20 0xFFFFFFFFFFFFFFFFFFFFFFFFFFFFFFFFFFFFFFFF MUL NOT AND SWAP1 DUP4 PUSH20 0xFFFFFFFFFFFFFFFFFFFFFFFFFFFFFFFFFFFFFFFF AND MUL OR SWAP1 SSTORE POP PUSH1 0x20 DUP3 ADD MLOAD DUP2 PUSH1 0x1 ADD SSTORE PUSH1 0x40 DUP3 ADD MLOAD DUP2 PUSH1 0x2 ADD SSTORE PUSH1 0x60 DUP3 ADD MLOAD DUP2 PUSH1 0x3 ADD PUSH0 PUSH2 0x100 EXP DUP2 SLOAD DUP2 PUSH1 0xFF MUL NOT AND SWAP1 DUP4 PUSH1 0xFF AND MUL OR SWAP1 SSTORE POP PUSH1 0x80 DUP3 ADD MLOAD DUP2 PUSH1 0x3 ADD PUSH1 0x1 PUSH2 0x100 EXP DUP2 SLOAD DUP2 PUSH1 0xFF MUL NOT AND SWAP1 DUP4 ISZERO ISZERO MUL OR SWAP1 SSTORE POP PUSH1 0xA0 DUP3 ADD MLOAD DUP2 PUSH1 0x3 ADD PUSH1 0x2 PUSH2 0x100 EXP DUP2 SLOAD DUP2 PUSH1 0xFF MUL NOT AND SWAP1 DUP4 ISZERO ISZERO MUL OR SWAP1 SSTORE POP POP POP DUP5 PUSH20 0xFFFFFFFFFFFFFFFFFFFFFFFFFFFFFFFFFFFFFFFF AND PUSH32 0xEC1E996E081F0B176398A3A553AB4A87AE67BF6F0D2F7848AB1872A30C3B63E9 DUP6 DUP6 DUP6 TIMESTAMP PUSH2 0xA94 SWAP2 SWAP1 PUSH2 0x1C87 JUMP JUMPDEST TIMESTAMP PUSH1 0x40 MLOAD PUSH2 0xAA5 SWAP5 SWAP4 SWAP3 SWAP2 SWAP1 PUSH2 0x1CBA JUMP JUMPDEST PUSH1 0x40 MLOAD DUP1 SWAP2 SUB SWAP1 LOG2 POP PUSH2 0xAB6 PUSH2 0x126A JUMP JUMPDEST POP POP POP POP JUMP JUMPDEST PUSH2 0xAC4 PUSH2 0x12F5 JUMP JUMPDEST PUSH2 0xACD PUSH0 PUSH2 0x137C JUMP JUMPDEST JUMP JUMPDEST PUSH0 SELFBALANCE SWAP1 POP SWAP1 JUMP JUMPDEST PUSH0 DUP1 PUSH0 SWAP1 SLOAD SWAP1 PUSH2 0x100 EXP SWAP1 DIV PUSH20 0xFFFFFFFFFFFFFFFFFFFFFFFFFFFFFFFFFFFFFFFF AND SWAP1 POP SWAP1 JUMP JUMPDEST PUSH1 0x2 PUSH1 0x20 MSTORE DUP3 PUSH0 MSTORE PUSH1 0x40 PUSH0 KECCAK256 PUSH1 0x20 MSTORE DUP2 PUSH0 MSTORE PUSH1 0x40 PUSH0 KECCAK256 DUP2 DUP2 SLOAD DUP2 LT PUSH2 0xB20 JUMPI PUSH0 DUP1 REVERT JUMPDEST SWAP1 PUSH0 MSTORE PUSH1 0x20 PUSH0 KECCAK256 SWAP1 PUSH1 0x4 MUL ADD PUSH0 SWAP3 POP SWAP3 POP POP POP DUP1 PUSH0 ADD PUSH0 SWAP1 SLOAD SWAP1 PUSH2 0x100 EXP SWAP1 DIV PUSH20 0xFFFFFFFFFFFFFFFFFFFFFFFFFFFFFFFFFFFFFFFF AND SWAP1 DUP1 PUSH1 0x1 ADD SLOAD SWAP1 DUP1 PUSH1 0x2 ADD SLOAD SWAP1 DUP1 PUSH1 0x3 ADD PUSH0 SWAP1 SLOAD SWAP1 PUSH2 0x100 EXP SWAP1 DIV PUSH1 0xFF AND SWAP1 DUP1 PUSH1 0x3 ADD PUSH1 0x1 SWAP1 SLOAD SWAP1 PUSH2 0x100 EXP SWAP1 DIV PUSH1 0xFF AND SWAP1 DUP1 PUSH1 0x3 ADD PUSH1 0x2 SWAP1 SLOAD SWAP1 PUSH2 0x100 EXP SWAP1 DIV PUSH1 0xFF AND SWAP1 POP DUP7 JUMP JUMPDEST PUSH2 0xBA7 PUSH2 0x1224 JUMP JUMPDEST PUSH1 0x2 PUSH0 CALLER PUSH20 0xFFFFFFFFFFFFFFFFFFFFFFFFFFFFFFFFFFFFFFFF AND PUSH20 0xFFFFFFFFFFFFFFFFFFFFFFFFFFFFFFFFFFFFFFFF AND DUP2 MSTORE PUSH1 0x20 ADD SWAP1 DUP2 MSTORE PUSH1 0x20 ADD PUSH0 KECCAK256 PUSH0 DUP4 PUSH1 0xFF AND PUSH1 0xFF AND DUP2 MSTORE PUSH1 0x20 ADD SWAP1 DUP2 MSTORE PUSH1 0x20 ADD PUSH0 KECCAK256 DUP1 SLOAD SWAP1 POP DUP4 PUSH4 0xFFFFFFFF AND LT PUSH2 0xC44 JUMPI PUSH1 0x40 MLOAD PUSH32 0x8C379A000000000000000000000000000000000000000000000000000000000 DUP2 MSTORE PUSH1 0x4 ADD PUSH2 0xC3B SWAP1 PUSH2 0x1F7F JUMP JUMPDEST PUSH1 0x40 MLOAD DUP1 SWAP2 SUB SWAP1 REVERT JUMPDEST PUSH0 PUSH1 0x2 PUSH0 CALLER PUSH20 0xFFFFFFFFFFFFFFFFFFFFFFFFFFFFFFFFFFFFFFFF AND PUSH20 0xFFFFFFFFFFFFFFFFFFFFFFFFFFFFFFFFFFFFFFFF AND DUP2 MSTORE PUSH1 0x20 ADD SWAP1 DUP2 MSTORE PUSH1 0x20 ADD PUSH0 KECCAK256 PUSH0 DUP5 PUSH1 0xFF AND PUSH1 0xFF AND DUP2 MSTORE PUSH1 0x20 ADD SWAP1 DUP2 MSTORE PUSH1 0x20 ADD PUSH0 KECCAK256 DUP5 PUSH4 0xFFFFFFFF AND DUP2 SLOAD DUP2 LT PUSH2 0xCAF JUMPI PUSH2 0xCAE PUSH2 0x1F9D JUMP JUMPDEST JUMPDEST SWAP1 PUSH0 MSTORE PUSH1 0x20 PUSH0 KECCAK256 SWAP1 PUSH1 0x4 MUL ADD SWAP1 POP DUP1 PUSH1 0x3 ADD PUSH1 0x1 SWAP1 SLOAD SWAP1 PUSH2 0x100 EXP SWAP1 DIV PUSH1 0xFF AND ISZERO PUSH2 0xD0F JUMPI PUSH1 0x40 MLOAD PUSH32 0x8C379A000000000000000000000000000000000000000000000000000000000 DUP2 MSTORE PUSH1 0x4 ADD PUSH2 0xD06 SWAP1 PUSH2 0x203A JUMP JUMPDEST PUSH1 0x40 MLOAD DUP1 SWAP2 SUB SWAP1 REVERT JUMPDEST DUP1 PUSH1 0x2 ADD SLOAD TIMESTAMP GT PUSH2 0xD55 JUMPI PUSH1 0x40 MLOAD PUSH32 0x8C379A000000000000000000000000000000000000000000000000000000000 DUP2 MSTORE PUSH1 0x4 ADD PUSH2 0xD4C SWAP1 PUSH2 0x20C8 JUMP JUMPDEST PUSH1 0x40 MLOAD DUP1 SWAP2 SUB SWAP1 REVERT JUMPDEST PUSH0 DUP3 DUP3 PUSH1 0x1 ADD SLOAD PUSH2 0xD66 SWAP2 SWAP1 PUSH2 0x20E6 JUMP JUMPDEST SWAP1 POP PUSH0 DUP2 LT ISZERO PUSH2 0xDAB JUMPI PUSH1 0x40 MLOAD PUSH32 0x8C379A000000000000000000000000000000000000000000000000000000000 DUP2 MSTORE PUSH1 0x4 ADD PUSH2 0xDA2 SWAP1 PUSH2 0x2163 JUMP JUMPDEST PUSH1 0x40 MLOAD DUP1 SWAP2 SUB SWAP1 REVERT JUMPDEST PUSH0 DUP2 SUB PUSH2 0xE45 JUMPI PUSH1 0x1 PUSH1 0x2 PUSH0 CALLER PUSH20 0xFFFFFFFFFFFFFFFFFFFFFFFFFFFFFFFFFFFFFFFF AND PUSH20 0xFFFFFFFFFFFFFFFFFFFFFFFFFFFFFFFFFFFFFFFF AND DUP2 MSTORE PUSH1 0x20 ADD SWAP1 DUP2 MSTORE PUSH1 0x20 ADD PUSH0 KECCAK256 PUSH0 DUP7 PUSH1 0xFF AND PUSH1 0xFF AND DUP2 MSTORE PUSH1 0x20 ADD SWAP1 DUP2 MSTORE PUSH1 0x20 ADD PUSH0 KECCAK256 DUP7 PUSH4 0xFFFFFFFF AND DUP2 SLOAD DUP2 LT PUSH2 0xE1E JUMPI PUSH2 0xE1D PUSH2 0x1F9D JUMP JUMPDEST JUMPDEST SWAP1 PUSH0 MSTORE PUSH1 0x20 PUSH0 KECCAK256 SWAP1 PUSH1 0x4 MUL ADD PUSH1 0x3 ADD PUSH1 0x1 PUSH2 0x100 EXP DUP2 SLOAD DUP2 PUSH1 0xFF MUL NOT AND SWAP1 DUP4 ISZERO ISZERO MUL OR SWAP1 SSTORE POP JUMPDEST DUP1 PUSH1 0x2 PUSH0 CALLER PUSH20 0xFFFFFFFFFFFFFFFFFFFFFFFFFFFFFFFFFFFFFFFF AND PUSH20 0xFFFFFFFFFFFFFFFFFFFFFFFFFFFFFFFFFFFFFFFF AND DUP2 MSTORE PUSH1 0x20 ADD SWAP1 DUP2 MSTORE PUSH1 0x20 ADD PUSH0 KECCAK256 PUSH0 DUP7 PUSH1 0xFF AND PUSH1 0xFF AND DUP2 MSTORE PUSH1 0x20 ADD SWAP1 DUP2 MSTORE PUSH1 0x20 ADD PUSH0 KECCAK256 DUP7 PUSH4 0xFFFFFFFF AND DUP2 SLOAD DUP2 LT PUSH2 0xEB0 JUMPI PUSH2 0xEAF PUSH2 0x1F9D JUMP JUMPDEST JUMPDEST SWAP1 PUSH0 MSTORE PUSH1 0x20 PUSH0 KECCAK256 SWAP1 PUSH1 0x4 MUL ADD PUSH1 0x1 ADD DUP2 SWAP1 SSTORE POP DUP2 PUSH1 0x3 ADD PUSH1 0x2 SWAP1 SLOAD SWAP1 PUSH2 0x100 EXP SWAP1 DIV PUSH1 0xFF AND ISZERO PUSH2 0xF88 JUMPI PUSH0 CALLER PUSH20 0xFFFFFFFFFFFFFFFFFFFFFFFFFFFFFFFFFFFFFFFF AND DUP5 PUSH1 0x40 MLOAD PUSH2 0xEFF SWAP1 PUSH2 0x21AE JUMP JUMPDEST PUSH0 PUSH1 0x40 MLOAD DUP1 DUP4 SUB DUP2 DUP6 DUP8 GAS CALL SWAP3 POP POP POP RETURNDATASIZE DUP1 PUSH0 DUP2 EQ PUSH2 0xF39 JUMPI PUSH1 0x40 MLOAD SWAP2 POP PUSH1 0x1F NOT PUSH1 0x3F RETURNDATASIZE ADD AND DUP3 ADD PUSH1 0x40 MSTORE RETURNDATASIZE DUP3 MSTORE RETURNDATASIZE PUSH0 PUSH1 0x20 DUP5 ADD RETURNDATACOPY PUSH2 0xF3E JUMP JUMPDEST PUSH1 0x60 SWAP2 POP JUMPDEST POP POP SWAP1 POP DUP1 PUSH2 0xF82 JUMPI PUSH1 0x40 MLOAD PUSH32 0x8C379A000000000000000000000000000000000000000000000000000000000 DUP2 MSTORE PUSH1 0x4 ADD PUSH2 0xF79 SWAP1 PUSH2 0x220C JUMP JUMPDEST PUSH1 0x40 MLOAD DUP1 SWAP2 SUB SWAP1 REVERT JUMPDEST POP PUSH2 0xFD6 JUMP JUMPDEST PUSH2 0xFD5 CALLER DUP5 DUP5 PUSH0 ADD PUSH0 SWAP1 SLOAD SWAP1 PUSH2 0x100 EXP SWAP1 DIV PUSH20 0xFFFFFFFFFFFFFFFFFFFFFFFFFFFFFFFFFFFFFFFF AND PUSH20 0xFFFFFFFFFFFFFFFFFFFFFFFFFFFFFFFFFFFFFFFF AND PUSH2 0x143D SWAP1 SWAP3 SWAP2 SWAP1 PUSH4 0xFFFFFFFF AND JUMP JUMPDEST JUMPDEST DUP2 PUSH0 ADD PUSH0 SWAP1 SLOAD SWAP1 PUSH2 0x100 EXP SWAP1 DIV PUSH20 0xFFFFFFFFFFFFFFFFFFFFFFFFFFFFFFFFFFFFFFFF AND PUSH20 0xFFFFFFFFFFFFFFFFFFFFFFFFFFFFFFFFFFFFFFFF AND PUSH32 0xF9C1EEBF9A6880C5357A85A01ED17F20FED16844F1E75D070866C77EAA1A4FDB DUP5 DUP5 PUSH1 0x3 ADD PUSH0 SWAP1 SLOAD SWAP1 PUSH2 0x100 EXP SWAP1 DIV PUSH1 0xFF AND TIMESTAMP PUSH1 0x40 MLOAD PUSH2 0x1052 SWAP4 SWAP3 SWAP2 SWAP1 PUSH2 0x222A JUMP JUMPDEST PUSH1 0x40 MLOAD DUP1 SWAP2 SUB SWAP1 LOG2 POP POP PUSH2 0x1064 PUSH2 0x126A JUMP JUMPDEST POP POP POP JUMP JUMPDEST PUSH2 0x1071 PUSH2 0x1224 JUMP JUMPDEST PUSH0 CALLVALUE GT PUSH2 0x10B3 JUMPI PUSH1 0x40 MLOAD PUSH32 0x8C379A000000000000000000000000000000000000000000000000000000000 DUP2 MSTORE PUSH1 0x4 ADD PUSH2 0x10AA SWAP1 PUSH2 0x22CF JUMP JUMPDEST PUSH1 0x40 MLOAD DUP1 SWAP2 SUB SWAP1 REVERT JUMPDEST CALLVALUE PUSH1 0x2 PUSH0 CALLER PUSH20 0xFFFFFFFFFFFFFFFFFFFFFFFFFFFFFFFFFFFFFFFF AND PUSH20 0xFFFFFFFFFFFFFFFFFFFFFFFFFFFFFFFFFFFFFFFF AND DUP2 MSTORE PUSH1 0x20 ADD SWAP1 DUP2 MSTORE PUSH1 0x20 ADD PUSH0 KECCAK256 PUSH0 DUP5 PUSH1 0xFF AND PUSH1 0xFF AND DUP2 MSTORE PUSH1 0x20 ADD SWAP1 DUP2 MSTORE PUSH1 0x20 ADD PUSH0 KECCAK256 DUP3 PUSH4 0xFFFFFFFF AND DUP2 SLOAD DUP2 LT PUSH2 0x111E JUMPI PUSH2 0x111D PUSH2 0x1F9D JUMP JUMPDEST JUMPDEST SWAP1 PUSH0 MSTORE PUSH1 0x20 PUSH0 KECCAK256 SWAP1 PUSH1 0x4 MUL ADD PUSH1 0x1 ADD PUSH0 DUP3 DUP3 SLOAD PUSH2 0x113B SWAP2 SWAP1 PUSH2 0x1C87 JUMP JUMPDEST SWAP3 POP POP DUP2 SWAP1 SSTORE POP PUSH0 PUSH20 0xFFFFFFFFFFFFFFFFFFFFFFFFFFFFFFFFFFFFFFFF AND PUSH32 0xC66E6F7D74D0C9E1B876D9A16E6A5E1CC740B73075424F001B9CF91AD042C317 CALLVALUE DUP5 TIMESTAMP PUSH1 0x40 MLOAD PUSH2 0x118C SWAP4 SWAP3 SWAP2 SWAP1 PUSH2 0x222A JUMP JUMPDEST PUSH1 0x40 MLOAD DUP1 SWAP2 SUB SWAP1 LOG2 PUSH2 0x119C PUSH2 0x126A JUMP JUMPDEST POP POP JUMP JUMPDEST PUSH2 0x11A8 PUSH2 0x12F5 JUMP JUMPDEST PUSH0 PUSH20 0xFFFFFFFFFFFFFFFFFFFFFFFFFFFFFFFFFFFFFFFF AND DUP2 PUSH20 0xFFFFFFFFFFFFFFFFFFFFFFFFFFFFFFFFFFFFFFFF AND SUB PUSH2 0x1218 JUMPI PUSH0 PUSH1 0x40 MLOAD PUSH32 0x1E4FBDF700000000000000000000000000000000000000000000000000000000 DUP2 MSTORE PUSH1 0x4 ADD PUSH2 0x120F SWAP2 SWAP1 PUSH2 0x18ED JUMP JUMPDEST PUSH1 0x40 MLOAD DUP1 SWAP2 SUB SWAP1 REVERT JUMPDEST PUSH2 0x1221 DUP2 PUSH2 0x137C JUMP JUMPDEST POP JUMP JUMPDEST PUSH1 0x2 PUSH1 0x1 SLOAD SUB PUSH2 0x1260 JUMPI PUSH1 0x40 MLOAD PUSH32 0x3EE5AEB500000000000000000000000000000000000000000000000000000000 DUP2 MSTORE PUSH1 0x4 ADD PUSH1 0x40 MLOAD DUP1 SWAP2 SUB SWAP1 REVERT JUMPDEST PUSH1 0x2 PUSH1 0x1 DUP2 SWAP1 SSTORE POP JUMP JUMPDEST PUSH1 0x1 DUP1 DUP2 SWAP1 SSTORE POP JUMP JUMPDEST PUSH2 0x12EF DUP5 DUP6 PUSH20 0xFFFFFFFFFFFFFFFFFFFFFFFFFFFFFFFFFFFFFFFF AND PUSH4 0x23B872DD DUP7 DUP7 DUP7 PUSH1 0x40 MLOAD PUSH1 0x24 ADD PUSH2 0x12A8 SWAP4 SWAP3 SWAP2 SWAP1 PUSH2 0x22ED JUMP JUMPDEST PUSH1 0x40 MLOAD PUSH1 0x20 DUP2 DUP4 SUB SUB DUP2 MSTORE SWAP1 PUSH1 0x40 MSTORE SWAP2 POP PUSH1 0xE0 SHL PUSH1 0x20 DUP3 ADD DUP1 MLOAD PUSH28 0xFFFFFFFFFFFFFFFFFFFFFFFFFFFFFFFFFFFFFFFFFFFFFFFFFFFFFFFF DUP4 DUP2 DUP4 AND OR DUP4 MSTORE POP POP POP POP PUSH2 0x14BC JUMP JUMPDEST POP POP POP POP JUMP JUMPDEST PUSH2 0x12FD PUSH2 0x1557 JUMP JUMPDEST PUSH20 0xFFFFFFFFFFFFFFFFFFFFFFFFFFFFFFFFFFFFFFFF AND PUSH2 0x131B PUSH2 0xAD6 JUMP JUMPDEST PUSH20 0xFFFFFFFFFFFFFFFFFFFFFFFFFFFFFFFFFFFFFFFF AND EQ PUSH2 0x137A JUMPI PUSH2 0x133E PUSH2 0x1557 JUMP JUMPDEST PUSH1 0x40 MLOAD PUSH32 0x118CDAA700000000000000000000000000000000000000000000000000000000 DUP2 MSTORE PUSH1 0x4 ADD PUSH2 0x1371 SWAP2 SWAP1 PUSH2 0x18ED JUMP JUMPDEST PUSH1 0x40 MLOAD DUP1 SWAP2 SUB SWAP1 REVERT JUMPDEST JUMP JUMPDEST PUSH0 DUP1 PUSH0 SWAP1 SLOAD SWAP1 PUSH2 0x100 EXP SWAP1 DIV PUSH20 0xFFFFFFFFFFFFFFFFFFFFFFFFFFFFFFFFFFFFFFFF AND SWAP1 POP DUP2 PUSH0 DUP1 PUSH2 0x100 EXP DUP2 SLOAD DUP2 PUSH20 0xFFFFFFFFFFFFFFFFFFFFFFFFFFFFFFFFFFFFFFFF MUL NOT AND SWAP1 DUP4 PUSH20 0xFFFFFFFFFFFFFFFFFFFFFFFFFFFFFFFFFFFFFFFF AND MUL OR SWAP1 SSTORE POP DUP2 PUSH20 0xFFFFFFFFFFFFFFFFFFFFFFFFFFFFFFFFFFFFFFFF AND DUP2 PUSH20 0xFFFFFFFFFFFFFFFFFFFFFFFFFFFFFFFFFFFFFFFF AND PUSH32 0x8BE0079C531659141344CD1FD0A4F28419497F9722A3DAAFE3B4186F6B6457E0 PUSH1 0x40 MLOAD PUSH1 0x40 MLOAD DUP1 SWAP2 SUB SWAP1 LOG3 POP POP JUMP JUMPDEST PUSH2 0x14B7 DUP4 DUP5 PUSH20 0xFFFFFFFFFFFFFFFFFFFFFFFFFFFFFFFFFFFFFFFF AND PUSH4 0xA9059CBB DUP6 DUP6 PUSH1 0x40 MLOAD PUSH1 0x24 ADD PUSH2 0x1470 SWAP3 SWAP2 SWAP1 PUSH2 0x2322 JUMP JUMPDEST PUSH1 0x40 MLOAD PUSH1 0x20 DUP2 DUP4 SUB SUB DUP2 MSTORE SWAP1 PUSH1 0x40 MSTORE SWAP2 POP PUSH1 0xE0 SHL PUSH1 0x20 DUP3 ADD DUP1 MLOAD PUSH28 0xFFFFFFFFFFFFFFFFFFFFFFFFFFFFFFFFFFFFFFFFFFFFFFFFFFFFFFFF DUP4 DUP2 DUP4 AND OR DUP4 MSTORE POP POP POP POP PUSH2 0x14BC JUMP JUMPDEST POP POP POP JUMP JUMPDEST PUSH0 DUP1 PUSH1 0x20 PUSH0 DUP5 MLOAD PUSH1 0x20 DUP7 ADD PUSH0 DUP9 GAS CALL DUP1 PUSH2 0x14DB JUMPI PUSH1 0x40 MLOAD RETURNDATASIZE PUSH0 DUP3 RETURNDATACOPY RETURNDATASIZE DUP2 REVERT JUMPDEST RETURNDATASIZE SWAP3 POP PUSH0 MLOAD SWAP2 POP POP PUSH0 DUP3 EQ PUSH2 0x14F4 JUMPI PUSH1 0x1 DUP2 EQ ISZERO PUSH2 0x150F JUMP JUMPDEST PUSH0 DUP5 PUSH20 0xFFFFFFFFFFFFFFFFFFFFFFFFFFFFFFFFFFFFFFFF AND EXTCODESIZE EQ JUMPDEST ISZERO PUSH2 0x1551 JUMPI DUP4 PUSH1 0x40 MLOAD PUSH32 0x5274AFE700000000000000000000000000000000000000000000000000000000 DUP2 MSTORE PUSH1 0x4 ADD PUSH2 0x1548 SWAP2 SWAP1 PUSH2 0x18ED JUMP JUMPDEST PUSH1 0x40 MLOAD DUP1 SWAP2 SUB SWAP1 REVERT JUMPDEST POP POP POP POP JUMP JUMPDEST PUSH0 CALLER SWAP1 POP SWAP1 JUMP JUMPDEST PUSH0 DUP1 REVERT JUMPDEST PUSH0 PUSH20 0xFFFFFFFFFFFFFFFFFFFFFFFFFFFFFFFFFFFFFFFF DUP3 AND SWAP1 POP SWAP2 SWAP1 POP JUMP JUMPDEST PUSH0 PUSH2 0x158B DUP3 PUSH2 0x1562 JUMP JUMPDEST SWAP1 POP SWAP2 SWAP1 POP JUMP JUMPDEST PUSH0 PUSH2 0x159C DUP3 PUSH2 0x1581 JUMP JUMPDEST SWAP1 POP SWAP2 SWAP1 POP JUMP JUMPDEST PUSH2 0x15AC DUP2 PUSH2 0x1592 JUMP JUMPDEST DUP2 EQ PUSH2 0x15B6 JUMPI PUSH0 DUP1 REVERT JUMPDEST POP JUMP JUMPDEST PUSH0 DUP2 CALLDATALOAD SWAP1 POP PUSH2 0x15C7 DUP2 PUSH2 0x15A3 JUMP JUMPDEST SWAP3 SWAP2 POP POP JUMP JUMPDEST PUSH0 PUSH1 0x20 DUP3 DUP5 SUB SLT ISZERO PUSH2 0x15E2 JUMPI PUSH2 0x15E1 PUSH2 0x155E JUMP JUMPDEST JUMPDEST PUSH0 PUSH2 0x15EF DUP5 DUP3 DUP6 ADD PUSH2 0x15B9 JUMP JUMPDEST SWAP2 POP POP SWAP3 SWAP2 POP POP JUMP JUMPDEST PUSH0 DUP2 SWAP1 POP SWAP2 SWAP1 POP JUMP JUMPDEST PUSH2 0x160A DUP2 PUSH2 0x15F8 JUMP JUMPDEST DUP3 MSTORE POP POP JUMP JUMPDEST PUSH0 PUSH1 0x20 DUP3 ADD SWAP1 POP PUSH2 0x1623 PUSH0 DUP4 ADD DUP5 PUSH2 0x1601 JUMP JUMPDEST SWAP3 SWAP2 POP POP JUMP JUMPDEST PUSH0 PUSH1 0xFF DUP3 AND SWAP1 POP SWAP2 SWAP1 POP JUMP JUMPDEST PUSH2 0x163E DUP2 PUSH2 0x1629 JUMP JUMPDEST DUP2 EQ PUSH2 0x1648 JUMPI PUSH0 DUP1 REVERT JUMPDEST POP JUMP JUMPDEST PUSH0 DUP2 CALLDATALOAD SWAP1 POP PUSH2 0x1659 DUP2 PUSH2 0x1635 JUMP JUMPDEST SWAP3 SWAP2 POP POP JUMP JUMPDEST PUSH0 PUSH1 0x20 DUP3 DUP5 SUB SLT ISZERO PUSH2 0x1674 JUMPI PUSH2 0x1673 PUSH2 0x155E JUMP JUMPDEST JUMPDEST PUSH0 PUSH2 0x1681 DUP5 DUP3 DUP6 ADD PUSH2 0x164B JUMP JUMPDEST SWAP2 POP POP SWAP3 SWAP2 POP POP JUMP JUMPDEST PUSH0 DUP2 MLOAD SWAP1 POP SWAP2 SWAP1 POP JUMP JUMPDEST PUSH0 DUP3 DUP3 MSTORE PUSH1 0x20 DUP3 ADD SWAP1 POP SWAP3 SWAP2 POP POP JUMP JUMPDEST PUSH0 DUP2 SWAP1 POP PUSH1 0x20 DUP3 ADD SWAP1 POP SWAP2 SWAP1 POP JUMP JUMPDEST PUSH2 0x16BC DUP2 PUSH2 0x1581 JUMP JUMPDEST DUP3 MSTORE POP POP JUMP JUMPDEST PUSH2 0x16CB DUP2 PUSH2 0x15F8 JUMP JUMPDEST DUP3 MSTORE POP POP JUMP JUMPDEST PUSH2 0x16DA DUP2 PUSH2 0x1629 JUMP JUMPDEST DUP3 MSTORE POP POP JUMP JUMPDEST PUSH0 DUP2 ISZERO ISZERO SWAP1 POP SWAP2 SWAP1 POP JUMP JUMPDEST PUSH2 0x16F4 DUP2 PUSH2 0x16E0 JUMP JUMPDEST DUP3 MSTORE POP POP JUMP JUMPDEST PUSH1 0xC0 DUP3 ADD PUSH0 DUP3 ADD MLOAD PUSH2 0x170E PUSH0 DUP6 ADD DUP3 PUSH2 0x16B3 JUMP JUMPDEST POP PUSH1 0x20 DUP3 ADD MLOAD PUSH2 0x1721 PUSH1 0x20 DUP6 ADD DUP3 PUSH2 0x16C2 JUMP JUMPDEST POP PUSH1 0x40 DUP3 ADD MLOAD PUSH2 0x1734 PUSH1 0x40 DUP6 ADD DUP3 PUSH2 0x16C2 JUMP JUMPDEST POP PUSH1 0x60 DUP3 ADD MLOAD PUSH2 0x1747 PUSH1 0x60 DUP6 ADD DUP3 PUSH2 0x16D1 JUMP JUMPDEST POP PUSH1 0x80 DUP3 ADD MLOAD PUSH2 0x175A PUSH1 0x80 DUP6 ADD DUP3 PUSH2 0x16EB JUMP JUMPDEST POP PUSH1 0xA0 DUP3 ADD MLOAD PUSH2 0x176D PUSH1 0xA0 DUP6 ADD DUP3 PUSH2 0x16EB JUMP JUMPDEST POP POP POP POP JUMP JUMPDEST PUSH0 PUSH2 0x177E DUP4 DUP4 PUSH2 0x16FA JUMP JUMPDEST PUSH1 0xC0 DUP4 ADD SWAP1 POP SWAP3 SWAP2 POP POP JUMP JUMPDEST PUSH0 PUSH1 0x20 DUP3 ADD SWAP1 POP SWAP2 SWAP1 POP JUMP JUMPDEST PUSH0 PUSH2 0x17A0 DUP3 PUSH2 0x168A JUMP JUMPDEST PUSH2 0x17AA DUP2 DUP6 PUSH2 0x1694 JUMP JUMPDEST SWAP4 POP PUSH2 0x17B5 DUP4 PUSH2 0x16A4 JUMP JUMPDEST DUP1 PUSH0 JUMPDEST DUP4 DUP2 LT ISZERO PUSH2 0x17E5 JUMPI DUP2 MLOAD PUSH2 0x17CC DUP9 DUP3 PUSH2 0x1773 JUMP JUMPDEST SWAP8 POP PUSH2 0x17D7 DUP4 PUSH2 0x178A JUMP JUMPDEST SWAP3 POP POP PUSH1 0x1 DUP2 ADD SWAP1 POP PUSH2 0x17B8 JUMP JUMPDEST POP DUP6 SWAP4 POP POP POP POP SWAP3 SWAP2 POP POP JUMP JUMPDEST PUSH0 PUSH1 0x20 DUP3 ADD SWAP1 POP DUP2 DUP2 SUB PUSH0 DUP4 ADD MSTORE PUSH2 0x180A DUP2 DUP5 PUSH2 0x1796 JUMP JUMPDEST SWAP1 POP SWAP3 SWAP2 POP POP JUMP JUMPDEST PUSH2 0x181B DUP2 PUSH2 0x15F8 JUMP JUMPDEST DUP2 EQ PUSH2 0x1825 JUMPI PUSH0 DUP1 REVERT JUMPDEST POP JUMP JUMPDEST PUSH0 DUP2 CALLDATALOAD SWAP1 POP PUSH2 0x1836 DUP2 PUSH2 0x1812 JUMP JUMPDEST SWAP3 SWAP2 POP POP JUMP JUMPDEST PUSH0 DUP1 PUSH1 0x40 DUP4 DUP6 SUB SLT ISZERO PUSH2 0x1852 JUMPI PUSH2 0x1851 PUSH2 0x155E JUMP JUMPDEST JUMPDEST PUSH0 PUSH2 0x185F DUP6 DUP3 DUP7 ADD PUSH2 0x164B JUMP JUMPDEST SWAP3 POP POP PUSH1 0x20 PUSH2 0x1870 DUP6 DUP3 DUP7 ADD PUSH2 0x1828 JUMP JUMPDEST SWAP2 POP POP SWAP3 POP SWAP3 SWAP1 POP JUMP JUMPDEST PUSH0 DUP1 PUSH0 DUP1 PUSH1 0x80 DUP6 DUP8 SUB SLT ISZERO PUSH2 0x1892 JUMPI PUSH2 0x1891 PUSH2 0x155E JUMP JUMPDEST JUMPDEST PUSH0 PUSH2 0x189F DUP8 DUP3 DUP9 ADD PUSH2 0x15B9 JUMP JUMPDEST SWAP5 POP POP PUSH1 0x20 PUSH2 0x18B0 DUP8 DUP3 DUP9 ADD PUSH2 0x1828 JUMP JUMPDEST SWAP4 POP POP PUSH1 0x40 PUSH2 0x18C1 DUP8 DUP3 DUP9 ADD PUSH2 0x164B JUMP JUMPDEST SWAP3 POP POP PUSH1 0x60 PUSH2 0x18D2 DUP8 DUP3 DUP9 ADD PUSH2 0x1828 JUMP JUMPDEST SWAP2 POP POP SWAP3 SWAP6 SWAP2 SWAP5 POP SWAP3 POP JUMP JUMPDEST PUSH2 0x18E7 DUP2 PUSH2 0x1581 JUMP JUMPDEST DUP3 MSTORE POP POP JUMP JUMPDEST PUSH0 PUSH1 0x20 DUP3 ADD SWAP1 POP PUSH2 0x1900 PUSH0 DUP4 ADD DUP5 PUSH2 0x18DE JUMP JUMPDEST SWAP3 SWAP2 POP POP JUMP JUMPDEST PUSH2 0x190F DUP2 PUSH2 0x1581 JUMP JUMPDEST DUP2 EQ PUSH2 0x1919 JUMPI PUSH0 DUP1 REVERT JUMPDEST POP JUMP JUMPDEST PUSH0 DUP2 CALLDATALOAD SWAP1 POP PUSH2 0x192A DUP2 PUSH2 0x1906 JUMP JUMPDEST SWAP3 SWAP2 POP POP JUMP JUMPDEST PUSH0 DUP1 PUSH0 PUSH1 0x60 DUP5 DUP7 SUB SLT ISZERO PUSH2 0x1947 JUMPI PUSH2 0x1946 PUSH2 0x155E JUMP JUMPDEST JUMPDEST PUSH0 PUSH2 0x1954 DUP7 DUP3 DUP8 ADD PUSH2 0x191C JUMP JUMPDEST SWAP4 POP POP PUSH1 0x20 PUSH2 0x1965 DUP7 DUP3 DUP8 ADD PUSH2 0x164B JUMP JUMPDEST SWAP3 POP POP PUSH1 0x40 PUSH2 0x1976 DUP7 DUP3 DUP8 ADD PUSH2 0x1828 JUMP JUMPDEST SWAP2 POP POP SWAP3 POP SWAP3 POP SWAP3 JUMP JUMPDEST PUSH2 0x1989 DUP2 PUSH2 0x1629 JUMP JUMPDEST DUP3 MSTORE POP POP JUMP JUMPDEST PUSH2 0x1998 DUP2 PUSH2 0x16E0 JUMP JUMPDEST DUP3 MSTORE POP POP JUMP JUMPDEST PUSH0 PUSH1 0xC0 DUP3 ADD SWAP1 POP PUSH2 0x19B1 PUSH0 DUP4 ADD DUP10 PUSH2 0x18DE JUMP JUMPDEST PUSH2 0x19BE PUSH1 0x20 DUP4 ADD DUP9 PUSH2 0x1601 JUMP JUMPDEST PUSH2 0x19CB PUSH1 0x40 DUP4 ADD DUP8 PUSH2 0x1601 JUMP JUMPDEST PUSH2 0x19D8 PUSH1 0x60 DUP4 ADD DUP7 PUSH2 0x1980 JUMP JUMPDEST PUSH2 0x19E5 PUSH1 0x80 DUP4 ADD DUP6 PUSH2 0x198F JUMP JUMPDEST PUSH2 0x19F2 PUSH1 0xA0 DUP4 ADD DUP5 PUSH2 0x198F JUMP JUMPDEST SWAP8 SWAP7 POP POP POP POP POP POP POP JUMP JUMPDEST PUSH0 PUSH4 0xFFFFFFFF DUP3 AND SWAP1 POP SWAP2 SWAP1 POP JUMP JUMPDEST PUSH2 0x1A15 DUP2 PUSH2 0x19FD JUMP JUMPDEST DUP2 EQ PUSH2 0x1A1F JUMPI PUSH0 DUP1 REVERT JUMPDEST POP JUMP JUMPDEST PUSH0 DUP2 CALLDATALOAD SWAP1 POP PUSH2 0x1A30 DUP2 PUSH2 0x1A0C JUMP JUMPDEST SWAP3 SWAP2 POP POP JUMP JUMPDEST PUSH0 DUP1 PUSH0 PUSH1 0x60 DUP5 DUP7 SUB SLT ISZERO PUSH2 0x1A4D JUMPI PUSH2 0x1A4C PUSH2 0x155E JUMP JUMPDEST JUMPDEST PUSH0 PUSH2 0x1A5A DUP7 DUP3 DUP8 ADD PUSH2 0x1A22 JUMP JUMPDEST SWAP4 POP POP PUSH1 0x20 PUSH2 0x1A6B DUP7 DUP3 DUP8 ADD PUSH2 0x164B JUMP JUMPDEST SWAP3 POP POP PUSH1 0x40 PUSH2 0x1A7C DUP7 DUP3 DUP8 ADD PUSH2 0x1828 JUMP JUMPDEST SWAP2 POP POP SWAP3 POP SWAP3 POP SWAP3 JUMP JUMPDEST PUSH0 DUP1 PUSH1 0x40 DUP4 DUP6 SUB SLT ISZERO PUSH2 0x1A9C JUMPI PUSH2 0x1A9B PUSH2 0x155E JUMP JUMPDEST JUMPDEST PUSH0 PUSH2 0x1AA9 DUP6 DUP3 DUP7 ADD PUSH2 0x164B JUMP JUMPDEST SWAP3 POP POP PUSH1 0x20 PUSH2 0x1ABA DUP6 DUP3 DUP7 ADD PUSH2 0x1A22 JUMP JUMPDEST SWAP2 POP POP SWAP3 POP SWAP3 SWAP1 POP JUMP JUMPDEST PUSH0 PUSH1 0x20 DUP3 DUP5 SUB SLT ISZERO PUSH2 0x1AD9 JUMPI PUSH2 0x1AD8 PUSH2 0x155E JUMP JUMPDEST JUMPDEST PUSH0 PUSH2 0x1AE6 DUP5 DUP3 DUP6 ADD PUSH2 0x191C JUMP JUMPDEST SWAP2 POP POP SWAP3 SWAP2 POP POP JUMP JUMPDEST PUSH0 DUP2 MLOAD SWAP1 POP PUSH2 0x1AFD DUP2 PUSH2 0x1812 JUMP JUMPDEST SWAP3 SWAP2 POP POP JUMP JUMPDEST PUSH0 PUSH1 0x20 DUP3 DUP5 SUB SLT ISZERO PUSH2 0x1B18 JUMPI PUSH2 0x1B17 PUSH2 0x155E JUMP JUMPDEST JUMPDEST PUSH0 PUSH2 0x1B25 DUP5 DUP3 DUP6 ADD PUSH2 0x1AEF JUMP JUMPDEST SWAP2 POP POP SWAP3 SWAP2 POP POP JUMP JUMPDEST PUSH0 DUP3 DUP3 MSTORE PUSH1 0x20 DUP3 ADD SWAP1 POP SWAP3 SWAP2 POP POP JUMP JUMPDEST PUSH32 0x45544820746F206C6F636B206D75737420612076616C75652067726561746572 PUSH0 DUP3 ADD MSTORE PUSH32 0x207468616E203000000000000000000000000000000000000000000000000000 PUSH1 0x20 DUP3 ADD MSTORE POP JUMP JUMPDEST PUSH0 PUSH2 0x1B98 PUSH1 0x27 DUP4 PUSH2 0x1B2E JUMP JUMPDEST SWAP2 POP PUSH2 0x1BA3 DUP3 PUSH2 0x1B3E JUMP JUMPDEST PUSH1 0x40 DUP3 ADD SWAP1 POP SWAP2 SWAP1 POP JUMP JUMPDEST PUSH0 PUSH1 0x20 DUP3 ADD SWAP1 POP DUP2 DUP2 SUB PUSH0 DUP4 ADD MSTORE PUSH2 0x1BC5 DUP2 PUSH2 0x1B8C JUMP JUMPDEST SWAP1 POP SWAP2 SWAP1 POP JUMP JUMPDEST PUSH32 0x546865206C6F636B706572696F64206D75737420626520677265617465722074 PUSH0 DUP3 ADD MSTORE PUSH32 0x68656E207A65726F000000000000000000000000000000000000000000000000 PUSH1 0x20 DUP3 ADD MSTORE POP JUMP JUMPDEST PUSH0 PUSH2 0x1C26 PUSH1 0x28 DUP4 PUSH2 0x1B2E JUMP JUMPDEST SWAP2 POP PUSH2 0x1C31 DUP3 PUSH2 0x1BCC JUMP JUMPDEST PUSH1 0x40 DUP3 ADD SWAP1 POP SWAP2 SWAP1 POP JUMP JUMPDEST PUSH0 PUSH1 0x20 DUP3 ADD SWAP1 POP DUP2 DUP2 SUB PUSH0 DUP4 ADD MSTORE PUSH2 0x1C53 DUP2 PUSH2 0x1C1A JUMP JUMPDEST SWAP1 POP SWAP2 SWAP1 POP JUMP JUMPDEST PUSH32 0x4E487B7100000000000000000000000000000000000000000000000000000000 PUSH0 MSTORE PUSH1 0x11 PUSH1 0x4 MSTORE PUSH1 0x24 PUSH0 REVERT JUMPDEST PUSH0 PUSH2 0x1C91 DUP3 PUSH2 0x15F8 JUMP JUMPDEST SWAP2 POP PUSH2 0x1C9C DUP4 PUSH2 0x15F8 JUMP JUMPDEST SWAP3 POP DUP3 DUP3 ADD SWAP1 POP DUP1 DUP3 GT ISZERO PUSH2 0x1CB4 JUMPI PUSH2 0x1CB3 PUSH2 0x1C5A JUMP JUMPDEST JUMPDEST SWAP3 SWAP2 POP POP JUMP JUMPDEST PUSH0 PUSH1 0x80 DUP3 ADD SWAP1 POP PUSH2 0x1CCD PUSH0 DUP4 ADD DUP8 PUSH2 0x1601 JUMP JUMPDEST PUSH2 0x1CDA PUSH1 0x20 DUP4 ADD DUP7 PUSH2 0x1980 JUMP JUMPDEST PUSH2 0x1CE7 PUSH1 0x40 DUP4 ADD DUP6 PUSH2 0x1601 JUMP JUMPDEST PUSH2 0x1CF4 PUSH1 0x60 DUP4 ADD DUP5 PUSH2 0x1601 JUMP JUMPDEST SWAP6 SWAP5 POP POP POP POP POP JUMP JUMPDEST PUSH32 0x4D7573742070726F7669646520612076616C696420746F6B656E206164647265 PUSH0 DUP3 ADD MSTORE PUSH32 0x7373000000000000000000000000000000000000000000000000000000000000 PUSH1 0x20 DUP3 ADD MSTORE POP JUMP JUMPDEST PUSH0 PUSH2 0x1D57 PUSH1 0x22 DUP4 PUSH2 0x1B2E JUMP JUMPDEST SWAP2 POP PUSH2 0x1D62 DUP3 PUSH2 0x1CFD JUMP JUMPDEST PUSH1 0x40 DUP3 ADD SWAP1 POP SWAP2 SWAP1 POP JUMP JUMPDEST PUSH0 PUSH1 0x20 DUP3 ADD SWAP1 POP DUP2 DUP2 SUB PUSH0 DUP4 ADD MSTORE PUSH2 0x1D84 DUP2 PUSH2 0x1D4B JUMP JUMPDEST SWAP1 POP SWAP2 SWAP1 POP JUMP JUMPDEST PUSH32 0x546F6B656E20616D6F756E74206D757374206265206772656174657220746865 PUSH0 DUP3 ADD MSTORE PUSH32 0x6E207A65726F0000000000000000000000000000000000000000000000000000 PUSH1 0x20 DUP3 ADD MSTORE POP JUMP JUMPDEST PUSH0 PUSH2 0x1DE5 PUSH1 0x26 DUP4 PUSH2 0x1B2E JUMP JUMPDEST SWAP2 POP PUSH2 0x1DF0 DUP3 PUSH2 0x1D8B JUMP JUMPDEST PUSH1 0x40 DUP3 ADD SWAP1 POP SWAP2 SWAP1 POP JUMP JUMPDEST PUSH0 PUSH1 0x20 DUP3 ADD SWAP1 POP DUP2 DUP2 SUB PUSH0 DUP4 ADD MSTORE PUSH2 0x1E12 DUP2 PUSH2 0x1DD9 JUMP JUMPDEST SWAP1 POP SWAP2 SWAP1 POP JUMP JUMPDEST PUSH32 0x546865206C6F636B20706572696F64206D757374206265206772656174657220 PUSH0 DUP3 ADD MSTORE PUSH32 0x7468656E207A65726F0000000000000000000000000000000000000000000000 PUSH1 0x20 DUP3 ADD MSTORE POP JUMP JUMPDEST PUSH0 PUSH2 0x1E73 PUSH1 0x29 DUP4 PUSH2 0x1B2E JUMP JUMPDEST SWAP2 POP PUSH2 0x1E7E DUP3 PUSH2 0x1E19 JUMP JUMPDEST PUSH1 0x40 DUP3 ADD SWAP1 POP SWAP2 SWAP1 POP JUMP JUMPDEST PUSH0 PUSH1 0x20 DUP3 ADD SWAP1 POP DUP2 DUP2 SUB PUSH0 DUP4 ADD MSTORE PUSH2 0x1EA0 DUP2 PUSH2 0x1E67 JUMP JUMPDEST SWAP1 POP SWAP2 SWAP1 POP JUMP JUMPDEST PUSH32 0x4E6F7420656E6F75676820746F6B656E7320746F206C6F636B00000000000000 PUSH0 DUP3 ADD MSTORE POP JUMP JUMPDEST PUSH0 PUSH2 0x1EDB PUSH1 0x19 DUP4 PUSH2 0x1B2E JUMP JUMPDEST SWAP2 POP PUSH2 0x1EE6 DUP3 PUSH2 0x1EA7 JUMP JUMPDEST PUSH1 0x20 DUP3 ADD SWAP1 POP SWAP2 SWAP1 POP JUMP JUMPDEST PUSH0 PUSH1 0x20 DUP3 ADD SWAP1 POP DUP2 DUP2 SUB PUSH0 DUP4 ADD MSTORE PUSH2 0x1F08 DUP2 PUSH2 0x1ECF JUMP JUMPDEST SWAP1 POP SWAP2 SWAP1 POP JUMP JUMPDEST PUSH32 0x5468652073706563696669656420617373657420494420697320696E76616C69 PUSH0 DUP3 ADD MSTORE PUSH32 0x642E000000000000000000000000000000000000000000000000000000000000 PUSH1 0x20 DUP3 ADD MSTORE POP JUMP JUMPDEST PUSH0 PUSH2 0x1F69 PUSH1 0x22 DUP4 PUSH2 0x1B2E JUMP JUMPDEST SWAP2 POP PUSH2 0x1F74 DUP3 PUSH2 0x1F0F JUMP JUMPDEST PUSH1 0x40 DUP3 ADD SWAP1 POP SWAP2 SWAP1 POP JUMP JUMPDEST PUSH0 PUSH1 0x20 DUP3 ADD SWAP1 POP DUP2 DUP2 SUB PUSH0 DUP4 ADD MSTORE PUSH2 0x1F96 DUP2 PUSH2 0x1F5D JUMP JUMPDEST SWAP1 POP SWAP2 SWAP1 POP JUMP JUMPDEST PUSH32 0x4E487B7100000000000000000000000000000000000000000000000000000000 PUSH0 MSTORE PUSH1 0x32 PUSH1 0x4 MSTORE PUSH1 0x24 PUSH0 REVERT JUMPDEST PUSH32 0x417373657473206861766520616C7265616479206265656E2077697468647261 PUSH0 DUP3 ADD MSTORE PUSH32 0x776E210000000000000000000000000000000000000000000000000000000000 PUSH1 0x20 DUP3 ADD MSTORE POP JUMP JUMPDEST PUSH0 PUSH2 0x2024 PUSH1 0x23 DUP4 PUSH2 0x1B2E JUMP JUMPDEST SWAP2 POP PUSH2 0x202F DUP3 PUSH2 0x1FCA JUMP JUMPDEST PUSH1 0x40 DUP3 ADD SWAP1 POP SWAP2 SWAP1 POP JUMP JUMPDEST PUSH0 PUSH1 0x20 DUP3 ADD SWAP1 POP DUP2 DUP2 SUB PUSH0 DUP4 ADD MSTORE PUSH2 0x2051 DUP2 PUSH2 0x2018 JUMP JUMPDEST SWAP1 POP SWAP2 SWAP1 POP JUMP JUMPDEST PUSH32 0x546865206C6F636B20706572696F6420686173206E6F74207965742065787069 PUSH0 DUP3 ADD MSTORE PUSH32 0x7265642100000000000000000000000000000000000000000000000000000000 PUSH1 0x20 DUP3 ADD MSTORE POP JUMP JUMPDEST PUSH0 PUSH2 0x20B2 PUSH1 0x24 DUP4 PUSH2 0x1B2E JUMP JUMPDEST SWAP2 POP PUSH2 0x20BD DUP3 PUSH2 0x2058 JUMP JUMPDEST PUSH1 0x40 DUP3 ADD SWAP1 POP SWAP2 SWAP1 POP JUMP JUMPDEST PUSH0 PUSH1 0x20 DUP3 ADD SWAP1 POP DUP2 DUP2 SUB PUSH0 DUP4 ADD MSTORE PUSH2 0x20DF DUP2 PUSH2 0x20A6 JUMP JUMPDEST SWAP1 POP SWAP2 SWAP1 POP JUMP JUMPDEST PUSH0 PUSH2 0x20F0 DUP3 PUSH2 0x15F8 JUMP JUMPDEST SWAP2 POP PUSH2 0x20FB DUP4 PUSH2 0x15F8 JUMP JUMPDEST SWAP3 POP DUP3 DUP3 SUB SWAP1 POP DUP2 DUP2 GT ISZERO PUSH2 0x2113 JUMPI PUSH2 0x2112 PUSH2 0x1C5A JUMP JUMPDEST JUMPDEST SWAP3 SWAP2 POP POP JUMP JUMPDEST PUSH32 0x4E6F7420656E6F7567682061737365747320746F207769746864726177210000 PUSH0 DUP3 ADD MSTORE POP JUMP JUMPDEST PUSH0 PUSH2 0x214D PUSH1 0x1E DUP4 PUSH2 0x1B2E JUMP JUMPDEST SWAP2 POP PUSH2 0x2158 DUP3 PUSH2 0x2119 JUMP JUMPDEST PUSH1 0x20 DUP3 ADD SWAP1 POP SWAP2 SWAP1 POP JUMP JUMPDEST PUSH0 PUSH1 0x20 DUP3 ADD SWAP1 POP DUP2 DUP2 SUB PUSH0 DUP4 ADD MSTORE PUSH2 0x217A DUP2 PUSH2 0x2141 JUMP JUMPDEST SWAP1 POP SWAP2 SWAP1 POP JUMP JUMPDEST PUSH0 DUP2 SWAP1 POP SWAP3 SWAP2 POP POP JUMP JUMPDEST POP JUMP JUMPDEST PUSH0 PUSH2 0x2199 PUSH0 DUP4 PUSH2 0x2181 JUMP JUMPDEST SWAP2 POP PUSH2 0x21A4 DUP3 PUSH2 0x218B JUMP JUMPDEST PUSH0 DUP3 ADD SWAP1 POP SWAP2 SWAP1 POP JUMP JUMPDEST PUSH0 PUSH2 0x21B8 DUP3 PUSH2 0x218E JUMP JUMPDEST SWAP2 POP DUP2 SWAP1 POP SWAP2 SWAP1 POP JUMP JUMPDEST PUSH32 0x455448207472616E73666572206661696C656400000000000000000000000000 PUSH0 DUP3 ADD MSTORE POP JUMP JUMPDEST PUSH0 PUSH2 0x21F6 PUSH1 0x13 DUP4 PUSH2 0x1B2E JUMP JUMPDEST SWAP2 POP PUSH2 0x2201 DUP3 PUSH2 0x21C2 JUMP JUMPDEST PUSH1 0x20 DUP3 ADD SWAP1 POP SWAP2 SWAP1 POP JUMP JUMPDEST PUSH0 PUSH1 0x20 DUP3 ADD SWAP1 POP DUP2 DUP2 SUB PUSH0 DUP4 ADD MSTORE PUSH2 0x2223 DUP2 PUSH2 0x21EA JUMP JUMPDEST SWAP1 POP SWAP2 SWAP1 POP JUMP JUMPDEST PUSH0 PUSH1 0x60 DUP3 ADD SWAP1 POP PUSH2 0x223D PUSH0 DUP4 ADD DUP7 PUSH2 0x1601 JUMP JUMPDEST PUSH2 0x224A PUSH1 0x20 DUP4 ADD DUP6 PUSH2 0x1980 JUMP JUMPDEST PUSH2 0x2257 PUSH1 0x40 DUP4 ADD DUP5 PUSH2 0x1601 JUMP JUMPDEST SWAP5 SWAP4 POP POP POP POP JUMP JUMPDEST PUSH32 0x45544820746F2061646420746F206C6F636B206D75737420626520616E20616D PUSH0 DUP3 ADD MSTORE PUSH32 0x6F756E742067726561746572207468616E203000000000000000000000000000 PUSH1 0x20 DUP3 ADD MSTORE POP JUMP JUMPDEST PUSH0 PUSH2 0x22B9 PUSH1 0x33 DUP4 PUSH2 0x1B2E JUMP JUMPDEST SWAP2 POP PUSH2 0x22C4 DUP3 PUSH2 0x225F JUMP JUMPDEST PUSH1 0x40 DUP3 ADD SWAP1 POP SWAP2 SWAP1 POP JUMP JUMPDEST PUSH0 PUSH1 0x20 DUP3 ADD SWAP1 POP DUP2 DUP2 SUB PUSH0 DUP4 ADD MSTORE PUSH2 0x22E6 DUP2 PUSH2 0x22AD JUMP JUMPDEST SWAP1 POP SWAP2 SWAP1 POP JUMP JUMPDEST PUSH0 PUSH1 0x60 DUP3 ADD SWAP1 POP PUSH2 0x2300 PUSH0 DUP4 ADD DUP7 PUSH2 0x18DE JUMP JUMPDEST PUSH2 0x230D PUSH1 0x20 DUP4 ADD DUP6 PUSH2 0x18DE JUMP JUMPDEST PUSH2 0x231A PUSH1 0x40 DUP4 ADD DUP5 PUSH2 0x1601 JUMP JUMPDEST SWAP5 SWAP4 POP POP POP POP JUMP JUMPDEST PUSH0 PUSH1 0x40 DUP3 ADD SWAP1 POP PUSH2 0x2335 PUSH0 DUP4 ADD DUP6 PUSH2 0x18DE JUMP JUMPDEST PUSH2 0x2342 PUSH1 0x20 DUP4 ADD DUP5 PUSH2 0x1601 JUMP JUMPDEST SWAP4 SWAP3 POP POP POP JUMP INVALID LOG2 PUSH5 0x6970667358 0x22 SLT KECCAK256 DUP9 EXTCODECOPY 0xAA 0xEE 0xEF 0xF8 JUMP PUSH16 0x2ABD212C623FD34547C3D3E37746D3D6 RETURNDATASIZE PUSH11 0xF90A1D32A56064736F6C63 NUMBER STOP ADDMOD BYTE STOP CALLER "
				},
				"gasEstimates": {
					"creation": {
						"codeDepositCost": "1817400",
						"executionCost": "infinite",
						"totalCost": "infinite"
					},
					"external": {
						"addToLockedETH(uint8,uint32)": "infinite",
						"getContractETHBalance()": "334",
						"getContractTokenBalance(address)": "infinite",
						"getUserLocks(uint8)": "infinite",
						"lockETH(uint8,uint256)": "infinite",
						"lockToken(address,uint256,uint8,uint256)": "infinite",
						"owner()": "2537",
						"renounceOwnership()": "infinite",
						"transferAsset(uint32,uint8,uint256)": "infinite",
						"transferOwnership(address)": "infinite",
						"userLockedAssets(address,uint8,uint256)": "infinite"
					}
				},
				"methodIdentifiers": {
					"addToLockedETH(uint8,uint32)": "ecaa9d05",
					"getContractETHBalance()": "8c89a0ad",
					"getContractTokenBalance(address)": "14205e28",
					"getUserLocks(uint8)": "3b958c38",
					"lockETH(uint8,uint256)": "4ae39e3e",
					"lockToken(address,uint256,uint8,uint256)": "5c41ed7c",
					"owner()": "8da5cb5b",
					"renounceOwnership()": "715018a6",
					"transferAsset(uint32,uint8,uint256)": "9e6c3ff2",
					"transferOwnership(address)": "f2fde38b",
					"userLockedAssets(address,uint8,uint256)": "8e06b906"
				}
			},
			"storageLayout": {
				"storage": [
					{
						"astId": 8,
						"contract": "contracts/Fvkry.sol:Fvkry",
						"label": "_owner",
						"offset": 0,
						"slot": "0",
						"type": "t_address"
					},
					{
						"astId": 765,
						"contract": "contracts/Fvkry.sol:Fvkry",
						"label": "_status",
						"offset": 0,
						"slot": "1",
						"type": "t_uint256"
					},
					{
						"astId": 870,
						"contract": "contracts/Fvkry.sol:Fvkry",
						"label": "userLockedAssets",
						"offset": 0,
						"slot": "2",
						"type": "t_mapping(t_address,t_mapping(t_uint8,t_array(t_struct(Lock)862_storage)dyn_storage))"
					}
				],
				"types": {
					"t_address": {
						"encoding": "inplace",
						"label": "address",
						"numberOfBytes": "20"
					},
					"t_array(t_struct(Lock)862_storage)dyn_storage": {
						"base": "t_struct(Lock)862_storage",
						"encoding": "dynamic_array",
						"label": "struct Fvkry.Lock[]",
						"numberOfBytes": "32"
					},
					"t_bool": {
						"encoding": "inplace",
						"label": "bool",
						"numberOfBytes": "1"
					},
					"t_mapping(t_address,t_mapping(t_uint8,t_array(t_struct(Lock)862_storage)dyn_storage))": {
						"encoding": "mapping",
						"key": "t_address",
						"label": "mapping(address => mapping(uint8 => struct Fvkry.Lock[]))",
						"numberOfBytes": "32",
						"value": "t_mapping(t_uint8,t_array(t_struct(Lock)862_storage)dyn_storage)"
					},
					"t_mapping(t_uint8,t_array(t_struct(Lock)862_storage)dyn_storage)": {
						"encoding": "mapping",
						"key": "t_uint8",
						"label": "mapping(uint8 => struct Fvkry.Lock[])",
						"numberOfBytes": "32",
						"value": "t_array(t_struct(Lock)862_storage)dyn_storage"
					},
					"t_struct(Lock)862_storage": {
						"encoding": "inplace",
						"label": "struct Fvkry.Lock",
						"members": [
							{
								"astId": 851,
								"contract": "contracts/Fvkry.sol:Fvkry",
								"label": "token",
								"offset": 0,
								"slot": "0",
								"type": "t_address"
							},
							{
								"astId": 853,
								"contract": "contracts/Fvkry.sol:Fvkry",
								"label": "amount",
								"offset": 0,
								"slot": "1",
								"type": "t_uint256"
							},
							{
								"astId": 855,
								"contract": "contracts/Fvkry.sol:Fvkry",
								"label": "lockEndTime",
								"offset": 0,
								"slot": "2",
								"type": "t_uint256"
							},
							{
								"astId": 857,
								"contract": "contracts/Fvkry.sol:Fvkry",
								"label": "vault",
								"offset": 0,
								"slot": "3",
								"type": "t_uint8"
							},
							{
								"astId": 859,
								"contract": "contracts/Fvkry.sol:Fvkry",
								"label": "withdrawn",
								"offset": 1,
								"slot": "3",
								"type": "t_bool"
							},
							{
								"astId": 861,
								"contract": "contracts/Fvkry.sol:Fvkry",
								"label": "isNative",
								"offset": 2,
								"slot": "3",
								"type": "t_bool"
							}
						],
						"numberOfBytes": "128"
					},
					"t_uint256": {
						"encoding": "inplace",
						"label": "uint256",
						"numberOfBytes": "32"
					},
					"t_uint8": {
						"encoding": "inplace",
						"label": "uint8",
						"numberOfBytes": "1"
					}
				}
			},
			"userdoc": {
				"kind": "user",
				"methods": {},
				"version": 1
			}
		}
	}
}