{
	"contracts/Fvkry.sol": {
		"Fvkry": {
			"abi": [
				{
					"inputs": [],
					"stateMutability": "nonpayable",
					"type": "constructor"
				},
				{
					"inputs": [
						{
							"internalType": "address",
							"name": "owner",
							"type": "address"
						}
					],
					"name": "OwnableInvalidOwner",
					"type": "error"
				},
				{
					"inputs": [
						{
							"internalType": "address",
							"name": "account",
							"type": "address"
						}
					],
					"name": "OwnableUnauthorizedAccount",
					"type": "error"
				},
				{
					"inputs": [],
					"name": "ReentrancyGuardReentrantCall",
					"type": "error"
				},
				{
					"inputs": [
						{
							"internalType": "address",
							"name": "token",
							"type": "address"
						}
					],
					"name": "SafeERC20FailedOperation",
					"type": "error"
				},
				{
					"anonymous": false,
					"inputs": [
						{
							"indexed": true,
							"internalType": "address",
							"name": "token",
							"type": "address"
						},
						{
							"indexed": false,
							"internalType": "uint256",
							"name": "amount",
							"type": "uint256"
						},
						{
							"indexed": false,
							"internalType": "string",
							"name": "title",
							"type": "string"
						},
						{
							"indexed": false,
							"internalType": "uint8",
							"name": "vault",
							"type": "uint8"
						},
						{
							"indexed": false,
							"internalType": "uint256",
							"name": "timestamp",
							"type": "uint256"
						}
					],
					"name": "AssetAdded",
					"type": "event"
				},
				{
					"anonymous": false,
					"inputs": [
						{
							"indexed": true,
							"internalType": "address",
							"name": "token",
							"type": "address"
						},
						{
							"indexed": false,
							"internalType": "uint256",
							"name": "amount",
							"type": "uint256"
						},
						{
							"indexed": false,
							"internalType": "string",
							"name": "title",
							"type": "string"
						},
						{
							"indexed": false,
							"internalType": "uint8",
							"name": "vault",
							"type": "uint8"
						},
						{
							"indexed": false,
							"internalType": "uint256",
							"name": "lockEndTime",
							"type": "uint256"
						},
						{
							"indexed": false,
							"internalType": "uint256",
							"name": "timestamp",
							"type": "uint256"
						}
					],
					"name": "AssetLocked",
					"type": "event"
				},
				{
					"anonymous": false,
					"inputs": [
						{
							"indexed": true,
							"internalType": "address",
							"name": "token",
							"type": "address"
						},
						{
							"indexed": false,
							"internalType": "uint256",
							"name": "amount",
							"type": "uint256"
						},
						{
							"indexed": false,
							"internalType": "string",
							"name": "title",
							"type": "string"
						},
						{
							"indexed": false,
							"internalType": "uint8",
							"name": "vault",
							"type": "uint8"
						},
						{
							"indexed": false,
							"internalType": "uint256",
							"name": "timestamp",
							"type": "uint256"
						}
					],
					"name": "AssetTransfered",
					"type": "event"
				},
				{
					"anonymous": false,
					"inputs": [
						{
							"indexed": true,
							"internalType": "address",
							"name": "token",
							"type": "address"
						},
						{
							"indexed": false,
							"internalType": "uint8",
							"name": "vault",
							"type": "uint8"
						},
						{
							"indexed": false,
							"internalType": "uint256",
							"name": "lockperiod",
							"type": "uint256"
						},
						{
							"indexed": false,
							"internalType": "string",
							"name": "title",
							"type": "string"
						},
						{
							"indexed": false,
							"internalType": "uint256",
							"name": "timestamp",
							"type": "uint256"
						}
					],
					"name": "LockPeriodExtended",
					"type": "event"
				},
				{
					"anonymous": false,
					"inputs": [
						{
							"indexed": true,
							"internalType": "address",
							"name": "previousOwner",
							"type": "address"
						},
						{
							"indexed": true,
							"internalType": "address",
							"name": "newOwner",
							"type": "address"
						}
					],
					"name": "OwnershipTransferred",
					"type": "event"
				},
				{
					"inputs": [
						{
							"internalType": "uint8",
							"name": "_vault",
							"type": "uint8"
						},
						{
							"internalType": "uint32",
							"name": "_assetID",
							"type": "uint32"
						}
					],
					"name": "addToLockedETH",
					"outputs": [],
					"stateMutability": "payable",
					"type": "function"
				},
				{
					"inputs": [
						{
							"internalType": "contract IERC20",
							"name": "_token",
							"type": "address"
						},
						{
							"internalType": "uint32",
							"name": "_assetID",
							"type": "uint32"
						},
						{
							"internalType": "uint256",
							"name": "_amount",
							"type": "uint256"
						},
						{
							"internalType": "uint8",
							"name": "_vault",
							"type": "uint8"
						}
					],
					"name": "addToLockedTokens",
					"outputs": [],
					"stateMutability": "nonpayable",
					"type": "function"
				},
				{
					"inputs": [
						{
							"internalType": "uint32",
							"name": "_assetID",
							"type": "uint32"
						},
						{
							"internalType": "uint8",
							"name": "_vault",
							"type": "uint8"
						},
						{
							"internalType": "uint256",
							"name": "_lockperiod",
							"type": "uint256"
						}
					],
					"name": "extendLockPeriod",
					"outputs": [],
					"stateMutability": "nonpayable",
					"type": "function"
				},
				{
					"inputs": [],
					"name": "getContractETHBalance",
					"outputs": [
						{
							"internalType": "uint256",
							"name": "",
							"type": "uint256"
						}
					],
					"stateMutability": "view",
					"type": "function"
				},
				{
					"inputs": [
						{
							"internalType": "contract IERC20",
							"name": "token",
							"type": "address"
						}
					],
					"name": "getContractTokenBalance",
					"outputs": [
						{
							"internalType": "uint256",
							"name": "",
							"type": "uint256"
						}
					],
					"stateMutability": "view",
					"type": "function"
				},
				{
					"inputs": [
						{
							"internalType": "uint8",
							"name": "_vault",
							"type": "uint8"
						}
					],
					"name": "getUserLocks",
					"outputs": [
						{
							"components": [
								{
									"internalType": "address",
									"name": "token",
									"type": "address"
								},
								{
									"internalType": "uint256",
									"name": "amount",
									"type": "uint256"
								},
								{
									"internalType": "uint256",
									"name": "lockEndTime",
									"type": "uint256"
								},
								{
									"internalType": "string",
									"name": "title",
									"type": "string"
								},
								{
									"internalType": "bool",
									"name": "withdrawn",
									"type": "bool"
								},
								{
									"internalType": "bool",
									"name": "isNative",
									"type": "bool"
								}
							],
							"internalType": "struct Fvkry.Lock[]",
							"name": "",
							"type": "tuple[]"
						}
					],
					"stateMutability": "view",
					"type": "function"
				},
				{
					"inputs": [
						{
							"internalType": "uint8",
							"name": "_vault",
							"type": "uint8"
						},
						{
							"internalType": "uint256",
							"name": "_lockperiod",
							"type": "uint256"
						},
						{
							"internalType": "string",
							"name": "_title",
							"type": "string"
						}
					],
					"name": "lockETH",
					"outputs": [],
					"stateMutability": "payable",
					"type": "function"
				},
				{
					"inputs": [
						{
							"internalType": "contract IERC20",
							"name": "_token",
							"type": "address"
						},
						{
							"internalType": "uint256",
							"name": "_amount",
							"type": "uint256"
						},
						{
							"internalType": "uint8",
							"name": "_vault",
							"type": "uint8"
						},
						{
							"internalType": "uint256",
							"name": "_lockperiod",
							"type": "uint256"
						},
						{
							"internalType": "string",
							"name": "_title",
							"type": "string"
						}
					],
					"name": "lockToken",
					"outputs": [],
					"stateMutability": "nonpayable",
					"type": "function"
				},
				{
					"inputs": [],
					"name": "owner",
					"outputs": [
						{
							"internalType": "address",
							"name": "",
							"type": "address"
						}
					],
					"stateMutability": "view",
					"type": "function"
				},
				{
					"inputs": [],
					"name": "renounceOwnership",
					"outputs": [],
					"stateMutability": "nonpayable",
					"type": "function"
				},
				{
					"inputs": [
						{
							"internalType": "uint32",
							"name": "_assetId",
							"type": "uint32"
						},
						{
							"internalType": "uint8",
							"name": "_vault",
							"type": "uint8"
						},
						{
							"internalType": "uint256",
							"name": "_amount",
							"type": "uint256"
						}
					],
					"name": "transferAsset",
					"outputs": [],
					"stateMutability": "nonpayable",
					"type": "function"
				},
				{
					"inputs": [
						{
							"internalType": "address",
							"name": "newOwner",
							"type": "address"
						}
					],
					"name": "transferOwnership",
					"outputs": [],
					"stateMutability": "nonpayable",
					"type": "function"
				},
				{
					"inputs": [
						{
							"internalType": "address",
							"name": "",
							"type": "address"
						},
						{
							"internalType": "uint8",
							"name": "",
							"type": "uint8"
						},
						{
							"internalType": "uint256",
							"name": "",
							"type": "uint256"
						}
					],
					"name": "userLockedAssets",
					"outputs": [
						{
							"internalType": "address",
							"name": "token",
							"type": "address"
						},
						{
							"internalType": "uint256",
							"name": "amount",
							"type": "uint256"
						},
						{
							"internalType": "uint256",
							"name": "lockEndTime",
							"type": "uint256"
						},
						{
							"internalType": "string",
							"name": "title",
							"type": "string"
						},
						{
							"internalType": "bool",
							"name": "withdrawn",
							"type": "bool"
						},
						{
							"internalType": "bool",
							"name": "isNative",
							"type": "bool"
						}
					],
					"stateMutability": "view",
					"type": "function"
				},
				{
					"inputs": [
						{
							"internalType": "address",
							"name": "",
							"type": "address"
						},
						{
							"internalType": "uint8",
							"name": "",
							"type": "uint8"
						},
						{
							"internalType": "uint256",
							"name": "",
							"type": "uint256"
						}
					],
					"name": "userTransactions",
					"outputs": [
						{
							"internalType": "address",
							"name": "token",
							"type": "address"
						},
						{
							"internalType": "uint256",
							"name": "amount",
							"type": "uint256"
						},
						{
							"internalType": "string",
							"name": "title",
							"type": "string"
						},
						{
							"internalType": "bool",
							"name": "withdrawn",
							"type": "bool"
						},
						{
							"internalType": "uint256",
							"name": "timestamp",
							"type": "uint256"
						}
					],
					"stateMutability": "view",
					"type": "function"
				}
			],
			"devdoc": {
				"errors": {
					"OwnableInvalidOwner(address)": [
						{
							"details": "The owner is not a valid owner account. (eg. `address(0)`)"
						}
					],
					"OwnableUnauthorizedAccount(address)": [
						{
							"details": "The caller account is not authorized to perform an operation."
						}
					],
					"ReentrancyGuardReentrantCall()": [
						{
							"details": "Unauthorized reentrant call."
						}
					],
					"SafeERC20FailedOperation(address)": [
						{
							"details": "An operation with an ERC-20 token failed."
						}
					]
				},
				"kind": "dev",
				"methods": {
					"owner()": {
						"details": "Returns the address of the current owner."
					},
					"renounceOwnership()": {
						"details": "Leaves the contract without owner. It will not be possible to call `onlyOwner` functions. Can only be called by the current owner. NOTE: Renouncing ownership will leave the contract without an owner, thereby disabling any functionality that is only available to the owner."
					},
					"transferOwnership(address)": {
						"details": "Transfers ownership of the contract to a new account (`newOwner`). Can only be called by the current owner."
					}
				},
				"version": 1
			},
			"evm": {
				"assembly": "    /* \"contracts/Fvkry.sol\":305:7905  contract Fvkry is Ownable, ReentrancyGuard {... */\n  mstore(0x40, 0x80)\n    /* \"contracts/Fvkry.sol\":1386:1422  constructor() Ownable(msg.sender) {} */\n  callvalue\n  dup1\n  iszero\n  tag_1\n  jumpi\n  0x00\n  dup1\n  revert\ntag_1:\n  pop\n    /* \"contracts/Fvkry.sol\":1408:1418  msg.sender */\n  caller\n    /* \"@openzeppelin/contracts/access/Ownable.sol\":1297:1298  0 */\n  0x00\n    /* \"@openzeppelin/contracts/access/Ownable.sol\":1273:1299  initialOwner == address(0) */\n  0xffffffffffffffffffffffffffffffffffffffff\n  and\n    /* \"@openzeppelin/contracts/access/Ownable.sol\":1273:1285  initialOwner */\n  dup2\n    /* \"@openzeppelin/contracts/access/Ownable.sol\":1273:1299  initialOwner == address(0) */\n  0xffffffffffffffffffffffffffffffffffffffff\n  and\n  sub\n    /* \"@openzeppelin/contracts/access/Ownable.sol\":1269:1364  if (initialOwner == address(0)) {... */\n  tag_6\n  jumpi\n    /* \"@openzeppelin/contracts/access/Ownable.sol\":1350:1351  0 */\n  0x00\n    /* \"@openzeppelin/contracts/access/Ownable.sol\":1322:1353  OwnableInvalidOwner(address(0)) */\n  mload(0x40)\n  0x1e4fbdf700000000000000000000000000000000000000000000000000000000\n  dup2\n  mstore\n  0x04\n  add\n  tag_7\n  swap2\n  swap1\n  tag_8\n  jump\t// in\ntag_7:\n  mload(0x40)\n  dup1\n  swap2\n  sub\n  swap1\n  revert\n    /* \"@openzeppelin/contracts/access/Ownable.sol\":1269:1364  if (initialOwner == address(0)) {... */\ntag_6:\n    /* \"@openzeppelin/contracts/access/Ownable.sol\":1373:1405  _transferOwnership(initialOwner) */\n  tag_9\n    /* \"@openzeppelin/contracts/access/Ownable.sol\":1392:1404  initialOwner */\n  dup2\n    /* \"@openzeppelin/contracts/access/Ownable.sol\":1373:1391  _transferOwnership */\n  shl(0x20, tag_10)\n    /* \"@openzeppelin/contracts/access/Ownable.sol\":1373:1405  _transferOwnership(initialOwner) */\n  0x20\n  shr\n  jump\t// in\ntag_9:\n    /* \"@openzeppelin/contracts/access/Ownable.sol\":1225:1412  constructor(address initialOwner) {... */\n  pop\n    /* \"@openzeppelin/contracts/utils/ReentrancyGuard.sol\":1857:1858  1 */\n  0x01\n    /* \"@openzeppelin/contracts/utils/ReentrancyGuard.sol\":2061:2068  _status */\n  dup1\n    /* \"@openzeppelin/contracts/utils/ReentrancyGuard.sol\":2061:2082  _status = NOT_ENTERED */\n  dup2\n  swap1\n  sstore\n  pop\n    /* \"contracts/Fvkry.sol\":305:7905  contract Fvkry is Ownable, ReentrancyGuard {... */\n  jump(tag_13)\n    /* \"@openzeppelin/contracts/access/Ownable.sol\":2912:3099  function _transferOwnership(address newOwner) internal virtual {... */\ntag_10:\n    /* \"@openzeppelin/contracts/access/Ownable.sol\":2985:3001  address oldOwner */\n  0x00\n    /* \"@openzeppelin/contracts/access/Ownable.sol\":3004:3010  _owner */\n  dup1\n  0x00\n  swap1\n  sload\n  swap1\n  0x0100\n  exp\n  swap1\n  div\n  0xffffffffffffffffffffffffffffffffffffffff\n  and\n    /* \"@openzeppelin/contracts/access/Ownable.sol\":2985:3010  address oldOwner = _owner */\n  swap1\n  pop\n    /* \"@openzeppelin/contracts/access/Ownable.sol\":3029:3037  newOwner */\n  dup2\n    /* \"@openzeppelin/contracts/access/Ownable.sol\":3020:3026  _owner */\n  0x00\n  dup1\n    /* \"@openzeppelin/contracts/access/Ownable.sol\":3020:3037  _owner = newOwner */\n  0x0100\n  exp\n  dup2\n  sload\n  dup2\n  0xffffffffffffffffffffffffffffffffffffffff\n  mul\n  not\n  and\n  swap1\n  dup4\n  0xffffffffffffffffffffffffffffffffffffffff\n  and\n  mul\n  or\n  swap1\n  sstore\n  pop\n    /* \"@openzeppelin/contracts/access/Ownable.sol\":3083:3091  newOwner */\n  dup2\n    /* \"@openzeppelin/contracts/access/Ownable.sol\":3052:3092  OwnershipTransferred(oldOwner, newOwner) */\n  0xffffffffffffffffffffffffffffffffffffffff\n  and\n    /* \"@openzeppelin/contracts/access/Ownable.sol\":3073:3081  oldOwner */\n  dup2\n    /* \"@openzeppelin/contracts/access/Ownable.sol\":3052:3092  OwnershipTransferred(oldOwner, newOwner) */\n  0xffffffffffffffffffffffffffffffffffffffff\n  and\n  0x8be0079c531659141344cd1fd0a4f28419497f9722a3daafe3b4186f6b6457e0\n  mload(0x40)\n  mload(0x40)\n  dup1\n  swap2\n  sub\n  swap1\n  log3\n    /* \"@openzeppelin/contracts/access/Ownable.sol\":2975:3099  {... */\n  pop\n    /* \"@openzeppelin/contracts/access/Ownable.sol\":2912:3099  function _transferOwnership(address newOwner) internal virtual {... */\n  pop\n  jump\t// out\n    /* \"#utility.yul\":7:133   */\ntag_15:\n    /* \"#utility.yul\":44:51   */\n  0x00\n    /* \"#utility.yul\":84:126   */\n  0xffffffffffffffffffffffffffffffffffffffff\n    /* \"#utility.yul\":77:82   */\n  dup3\n    /* \"#utility.yul\":73:127   */\n  and\n    /* \"#utility.yul\":62:127   */\n  swap1\n  pop\n    /* \"#utility.yul\":7:133   */\n  swap2\n  swap1\n  pop\n  jump\t// out\n    /* \"#utility.yul\":139:235   */\ntag_16:\n    /* \"#utility.yul\":176:183   */\n  0x00\n    /* \"#utility.yul\":205:229   */\n  tag_21\n    /* \"#utility.yul\":223:228   */\n  dup3\n    /* \"#utility.yul\":205:229   */\n  tag_15\n  jump\t// in\ntag_21:\n    /* \"#utility.yul\":194:229   */\n  swap1\n  pop\n    /* \"#utility.yul\":139:235   */\n  swap2\n  swap1\n  pop\n  jump\t// out\n    /* \"#utility.yul\":241:359   */\ntag_17:\n    /* \"#utility.yul\":328:352   */\n  tag_23\n    /* \"#utility.yul\":346:351   */\n  dup2\n    /* \"#utility.yul\":328:352   */\n  tag_16\n  jump\t// in\ntag_23:\n    /* \"#utility.yul\":323:326   */\n  dup3\n    /* \"#utility.yul\":316:353   */\n  mstore\n    /* \"#utility.yul\":241:359   */\n  pop\n  pop\n  jump\t// out\n    /* \"#utility.yul\":365:587   */\ntag_8:\n    /* \"#utility.yul\":458:462   */\n  0x00\n    /* \"#utility.yul\":496:498   */\n  0x20\n    /* \"#utility.yul\":485:494   */\n  dup3\n    /* \"#utility.yul\":481:499   */\n  add\n    /* \"#utility.yul\":473:499   */\n  swap1\n  pop\n    /* \"#utility.yul\":509:580   */\n  tag_25\n    /* \"#utility.yul\":577:578   */\n  0x00\n    /* \"#utility.yul\":566:575   */\n  dup4\n    /* \"#utility.yul\":562:579   */\n  add\n    /* \"#utility.yul\":553:559   */\n  dup5\n    /* \"#utility.yul\":509:580   */\n  tag_17\n  jump\t// in\ntag_25:\n    /* \"#utility.yul\":365:587   */\n  swap3\n  swap2\n  pop\n  pop\n  jump\t// out\n    /* \"contracts/Fvkry.sol\":305:7905  contract Fvkry is Ownable, ReentrancyGuard {... */\ntag_13:\n  dataSize(sub_0)\n  dup1\n  dataOffset(sub_0)\n  0x00\n  codecopy\n  0x00\n  return\nstop\n\nsub_0: assembly {\n        /* \"contracts/Fvkry.sol\":305:7905  contract Fvkry is Ownable, ReentrancyGuard {... */\n      mstore(0x40, 0x80)\n      jumpi(tag_1, lt(calldatasize, 0x04))\n      shr(0xe0, calldataload(0x00))\n      dup1\n      0x8c89a0ad\n      gt\n      tag_16\n      jumpi\n      dup1\n      0x8e06b906\n      gt\n      tag_17\n      jumpi\n      dup1\n      0x8e06b906\n      eq\n      tag_12\n      jumpi\n      dup1\n      0x9e6c3ff2\n      eq\n      tag_13\n      jumpi\n      dup1\n      0xecaa9d05\n      eq\n      tag_14\n      jumpi\n      dup1\n      0xf2fde38b\n      eq\n      tag_15\n      jumpi\n      jump(tag_1)\n    tag_17:\n      dup1\n      0x8c89a0ad\n      eq\n      tag_9\n      jumpi\n      dup1\n      0x8da5cb5b\n      eq\n      tag_10\n      jumpi\n      dup1\n      0x8de8107b\n      eq\n      tag_11\n      jumpi\n      jump(tag_1)\n    tag_16:\n      dup1\n      0x2d8fefc2\n      gt\n      tag_18\n      jumpi\n      dup1\n      0x2d8fefc2\n      eq\n      tag_5\n      jumpi\n      dup1\n      0x3b958c38\n      eq\n      tag_6\n      jumpi\n      dup1\n      0x60864eed\n      eq\n      tag_7\n      jumpi\n      dup1\n      0x715018a6\n      eq\n      tag_8\n      jumpi\n      jump(tag_1)\n    tag_18:\n      dup1\n      0x0f1419b5\n      eq\n      tag_2\n      jumpi\n      dup1\n      0x13a2e884\n      eq\n      tag_3\n      jumpi\n      dup1\n      0x14205e28\n      eq\n      tag_4\n      jumpi\n    tag_1:\n      0x00\n      dup1\n      revert\n        /* \"contracts/Fvkry.sol\":2897:4101  function lockToken (IERC20 _token, uint256 _amount, uint8 _vault, uint256 _lockperiod, string memory _title) external nonReentrant {... */\n    tag_2:\n      callvalue\n      dup1\n      iszero\n      tag_19\n      jumpi\n      0x00\n      dup1\n      revert\n    tag_19:\n      pop\n      tag_20\n      0x04\n      dup1\n      calldatasize\n      sub\n      dup2\n      add\n      swap1\n      tag_21\n      swap2\n      swap1\n      tag_22\n      jump\t// in\n    tag_21:\n      tag_23\n      jump\t// in\n    tag_20:\n      stop\n        /* \"contracts/Fvkry.sol\":1446:2277  function lockETH(uint8 _vault, uint256 _lockperiod, string memory _title) external payable nonReentrant {... */\n    tag_3:\n      tag_24\n      0x04\n      dup1\n      calldatasize\n      sub\n      dup2\n      add\n      swap1\n      tag_25\n      swap2\n      swap1\n      tag_26\n      jump\t// in\n    tag_25:\n      tag_27\n      jump\t// in\n    tag_24:\n      stop\n        /* \"contracts/Fvkry.sol\":6836:6971  function getContractTokenBalance(IERC20 token) external view returns (uint256) {... */\n    tag_4:\n      callvalue\n      dup1\n      iszero\n      tag_28\n      jumpi\n      0x00\n      dup1\n      revert\n    tag_28:\n      pop\n      tag_29\n      0x04\n      dup1\n      calldatasize\n      sub\n      dup2\n      add\n      swap1\n      tag_30\n      swap2\n      swap1\n      tag_31\n      jump\t// in\n    tag_30:\n      tag_32\n      jump\t// in\n    tag_29:\n      mload(0x40)\n      tag_33\n      swap2\n      swap1\n      tag_34\n      jump\t// in\n    tag_33:\n      mload(0x40)\n      dup1\n      swap2\n      sub\n      swap1\n      return\n        /* \"contracts/Fvkry.sol\":4109:4890  function addToLockedTokens(IERC20 _token, uint32 _assetID, uint256 _amount, uint8 _vault) external  nonReentrant {... */\n    tag_5:\n      callvalue\n      dup1\n      iszero\n      tag_35\n      jumpi\n      0x00\n      dup1\n      revert\n    tag_35:\n      pop\n      tag_36\n      0x04\n      dup1\n      calldatasize\n      sub\n      dup2\n      add\n      swap1\n      tag_37\n      swap2\n      swap1\n      tag_38\n      jump\t// in\n    tag_37:\n      tag_39\n      jump\t// in\n    tag_36:\n      stop\n        /* \"contracts/Fvkry.sol\":7129:7263  function getUserLocks(uint8 _vault) public view returns (Lock[] memory) {... */\n    tag_6:\n      callvalue\n      dup1\n      iszero\n      tag_40\n      jumpi\n      0x00\n      dup1\n      revert\n    tag_40:\n      pop\n      tag_41\n      0x04\n      dup1\n      calldatasize\n      sub\n      dup2\n      add\n      swap1\n      tag_42\n      swap2\n      swap1\n      tag_43\n      jump\t// in\n    tag_42:\n      tag_44\n      jump\t// in\n    tag_41:\n      mload(0x40)\n      tag_45\n      swap2\n      swap1\n      tag_46\n      jump\t// in\n    tag_45:\n      mload(0x40)\n      dup1\n      swap2\n      sub\n      swap1\n      return\n        /* \"contracts/Fvkry.sol\":811:889  mapping  (address => mapping (uint8 => TransacHist[])) public userTransactions */\n    tag_7:\n      callvalue\n      dup1\n      iszero\n      tag_47\n      jumpi\n      0x00\n      dup1\n      revert\n    tag_47:\n      pop\n      tag_48\n      0x04\n      dup1\n      calldatasize\n      sub\n      dup2\n      add\n      swap1\n      tag_49\n      swap2\n      swap1\n      tag_50\n      jump\t// in\n    tag_49:\n      tag_51\n      jump\t// in\n    tag_48:\n      mload(0x40)\n      tag_52\n      swap6\n      swap5\n      swap4\n      swap3\n      swap2\n      swap1\n      tag_53\n      jump\t// in\n    tag_52:\n      mload(0x40)\n      dup1\n      swap2\n      sub\n      swap1\n      return\n        /* \"@openzeppelin/contracts/access/Ownable.sol\":2293:2394  function renounceOwnership() public virtual onlyOwner {... */\n    tag_8:\n      callvalue\n      dup1\n      iszero\n      tag_54\n      jumpi\n      0x00\n      dup1\n      revert\n    tag_54:\n      pop\n      tag_55\n      tag_56\n      jump\t// in\n    tag_55:\n      stop\n        /* \"contracts/Fvkry.sol\":6979:7091  function getContractETHBalance() external view returns (uint256) {... */\n    tag_9:\n      callvalue\n      dup1\n      iszero\n      tag_57\n      jumpi\n      0x00\n      dup1\n      revert\n    tag_57:\n      pop\n      tag_58\n      tag_59\n      jump\t// in\n    tag_58:\n      mload(0x40)\n      tag_60\n      swap2\n      swap1\n      tag_34\n      jump\t// in\n    tag_60:\n      mload(0x40)\n      dup1\n      swap2\n      sub\n      swap1\n      return\n        /* \"@openzeppelin/contracts/access/Ownable.sol\":1638:1723  function owner() public view virtual returns (address) {... */\n    tag_10:\n      callvalue\n      dup1\n      iszero\n      tag_61\n      jumpi\n      0x00\n      dup1\n      revert\n    tag_61:\n      pop\n      tag_62\n      tag_63\n      jump\t// in\n    tag_62:\n      mload(0x40)\n      tag_64\n      swap2\n      swap1\n      tag_65\n      jump\t// in\n    tag_64:\n      mload(0x40)\n      dup1\n      swap2\n      sub\n      swap1\n      return\n        /* \"contracts/Fvkry.sol\":7310:7900  function extendLockPeriod(uint32 _assetID, uint8 _vault, uint256 _lockperiod) external  {... */\n    tag_11:\n      callvalue\n      dup1\n      iszero\n      tag_66\n      jumpi\n      0x00\n      dup1\n      revert\n    tag_66:\n      pop\n      tag_67\n      0x04\n      dup1\n      calldatasize\n      sub\n      dup2\n      add\n      swap1\n      tag_68\n      swap2\n      swap1\n      tag_69\n      jump\t// in\n    tag_68:\n      tag_70\n      jump\t// in\n    tag_67:\n      stop\n        /* \"contracts/Fvkry.sol\":733:804  mapping  (address => mapping (uint8 => Lock[])) public userLockedAssets */\n    tag_12:\n      callvalue\n      dup1\n      iszero\n      tag_71\n      jumpi\n      0x00\n      dup1\n      revert\n    tag_71:\n      pop\n      tag_72\n      0x04\n      dup1\n      calldatasize\n      sub\n      dup2\n      add\n      swap1\n      tag_73\n      swap2\n      swap1\n      tag_50\n      jump\t// in\n    tag_73:\n      tag_74\n      jump\t// in\n    tag_72:\n      mload(0x40)\n      tag_75\n      swap7\n      swap6\n      swap5\n      swap4\n      swap3\n      swap2\n      swap1\n      tag_76\n      jump\t// in\n    tag_75:\n      mload(0x40)\n      dup1\n      swap2\n      sub\n      swap1\n      return\n        /* \"contracts/Fvkry.sol\":4921:6372  function transferAsset( uint32 _assetId,uint8 _vault, uint256 _amount) external  nonReentrant {... */\n    tag_13:\n      callvalue\n      dup1\n      iszero\n      tag_77\n      jumpi\n      0x00\n      dup1\n      revert\n    tag_77:\n      pop\n      tag_78\n      0x04\n      dup1\n      calldatasize\n      sub\n      dup2\n      add\n      swap1\n      tag_79\n      swap2\n      swap1\n      tag_69\n      jump\t// in\n    tag_79:\n      tag_80\n      jump\t// in\n    tag_78:\n      stop\n        /* \"contracts/Fvkry.sol\":2285:2864  function addToLockedETH(uint8 _vault, uint32 _assetID) external payable  nonReentrant {... */\n    tag_14:\n      tag_81\n      0x04\n      dup1\n      calldatasize\n      sub\n      dup2\n      add\n      swap1\n      tag_82\n      swap2\n      swap1\n      tag_83\n      jump\t// in\n    tag_82:\n      tag_84\n      jump\t// in\n    tag_81:\n      stop\n        /* \"@openzeppelin/contracts/access/Ownable.sol\":2543:2758  function transferOwnership(address newOwner) public virtual onlyOwner {... */\n    tag_15:\n      callvalue\n      dup1\n      iszero\n      tag_85\n      jumpi\n      0x00\n      dup1\n      revert\n    tag_85:\n      pop\n      tag_86\n      0x04\n      dup1\n      calldatasize\n      sub\n      dup2\n      add\n      swap1\n      tag_87\n      swap2\n      swap1\n      tag_88\n      jump\t// in\n    tag_87:\n      tag_89\n      jump\t// in\n    tag_86:\n      stop\n        /* \"contracts/Fvkry.sol\":2897:4101  function lockToken (IERC20 _token, uint256 _amount, uint8 _vault, uint256 _lockperiod, string memory _title) external nonReentrant {... */\n    tag_23:\n        /* \"@openzeppelin/contracts/utils/ReentrancyGuard.sol\":2500:2521  _nonReentrantBefore() */\n      tag_91\n        /* \"@openzeppelin/contracts/utils/ReentrancyGuard.sol\":2500:2519  _nonReentrantBefore */\n      tag_92\n        /* \"@openzeppelin/contracts/utils/ReentrancyGuard.sol\":2500:2521  _nonReentrantBefore() */\n      jump\t// in\n    tag_91:\n        /* \"contracts/Fvkry.sol\":3074:3075  0 */\n      0x00\n        /* \"contracts/Fvkry.sol\":3047:3076  address(_token) != address(0) */\n      0xffffffffffffffffffffffffffffffffffffffff\n      and\n        /* \"contracts/Fvkry.sol\":3055:3061  _token */\n      dup6\n        /* \"contracts/Fvkry.sol\":3047:3076  address(_token) != address(0) */\n      0xffffffffffffffffffffffffffffffffffffffff\n      and\n      sub\n        /* \"contracts/Fvkry.sol\":3039:3115  require(address(_token) != address(0), \"Must provide a valid token address\") */\n      tag_94\n      jumpi\n      mload(0x40)\n      0x08c379a000000000000000000000000000000000000000000000000000000000\n      dup2\n      mstore\n      0x04\n      add\n      tag_95\n      swap1\n      tag_96\n      jump\t// in\n    tag_95:\n      mload(0x40)\n      dup1\n      swap2\n      sub\n      swap1\n      revert\n    tag_94:\n        /* \"contracts/Fvkry.sol\":3144:3145  0 */\n      0x00\n        /* \"contracts/Fvkry.sol\":3134:3141  _amount */\n      dup5\n        /* \"contracts/Fvkry.sol\":3134:3145  _amount > 0 */\n      gt\n        /* \"contracts/Fvkry.sol\":3126:3188  require(_amount > 0, \"Token amount must be greater then zero\") */\n      tag_97\n      jumpi\n      mload(0x40)\n      0x08c379a000000000000000000000000000000000000000000000000000000000\n      dup2\n      mstore\n      0x04\n      add\n      tag_98\n      swap1\n      tag_99\n      jump\t// in\n    tag_98:\n      mload(0x40)\n      dup1\n      swap2\n      sub\n      swap1\n      revert\n    tag_97:\n        /* \"contracts/Fvkry.sol\":3221:3222  0 */\n      0x00\n        /* \"contracts/Fvkry.sol\":3207:3218  _lockperiod */\n      dup3\n        /* \"contracts/Fvkry.sol\":3207:3222  _lockperiod > 0 */\n      gt\n        /* \"contracts/Fvkry.sol\":3199:3268  require(_lockperiod > 0, \"The lock period must be greater then zero\") */\n      tag_100\n      jumpi\n      mload(0x40)\n      0x08c379a000000000000000000000000000000000000000000000000000000000\n      dup2\n      mstore\n      0x04\n      add\n      tag_101\n      swap1\n      tag_102\n      jump\t// in\n    tag_101:\n      mload(0x40)\n      dup1\n      swap2\n      sub\n      swap1\n      revert\n    tag_100:\n        /* \"contracts/Fvkry.sol\":3281:3302  uint256 _tokenBalance */\n      0x00\n        /* \"contracts/Fvkry.sol\":3305:3311  _token */\n      dup6\n        /* \"contracts/Fvkry.sol\":3305:3321  _token.balanceOf */\n      0xffffffffffffffffffffffffffffffffffffffff\n      and\n      0x70a08231\n        /* \"contracts/Fvkry.sol\":3322:3332  msg.sender */\n      caller\n        /* \"contracts/Fvkry.sol\":3305:3333  _token.balanceOf(msg.sender) */\n      mload(0x40)\n      dup3\n      0xffffffff\n      and\n      0xe0\n      shl\n      dup2\n      mstore\n      0x04\n      add\n      tag_103\n      swap2\n      swap1\n      tag_65\n      jump\t// in\n    tag_103:\n      0x20\n      mload(0x40)\n      dup1\n      dup4\n      sub\n      dup2\n      dup7\n      gas\n      staticcall\n      iszero\n      dup1\n      iszero\n      tag_105\n      jumpi\n      returndatasize\n      0x00\n      dup1\n      returndatacopy\n      revert(0x00, returndatasize)\n    tag_105:\n      pop\n      pop\n      pop\n      pop\n      mload(0x40)\n      returndatasize\n      not(0x1f)\n      0x1f\n      dup3\n      add\n      and\n      dup3\n      add\n      dup1\n      0x40\n      mstore\n      pop\n      dup2\n      add\n      swap1\n      tag_106\n      swap2\n      swap1\n      tag_107\n      jump\t// in\n    tag_106:\n        /* \"contracts/Fvkry.sol\":3281:3333  uint256 _tokenBalance = _token.balanceOf(msg.sender) */\n      swap1\n      pop\n        /* \"contracts/Fvkry.sol\":3364:3377  _tokenBalance */\n      dup1\n        /* \"contracts/Fvkry.sol\":3353:3360  _amount */\n      dup6\n        /* \"contracts/Fvkry.sol\":3353:3377  _amount <= _tokenBalance */\n      gt\n      iszero\n        /* \"contracts/Fvkry.sol\":3344:3407  require (_amount <= _tokenBalance, \"Not enough tokens to lock\") */\n      tag_108\n      jumpi\n      mload(0x40)\n      0x08c379a000000000000000000000000000000000000000000000000000000000\n      dup2\n      mstore\n      0x04\n      add\n      tag_109\n      swap1\n      tag_110\n      jump\t// in\n    tag_109:\n      mload(0x40)\n      dup1\n      swap2\n      sub\n      swap1\n      revert\n    tag_108:\n        /* \"contracts/Fvkry.sol\":3470:3529  _token.safeTransferFrom(msg.sender, address(this), _amount) */\n      tag_111\n        /* \"contracts/Fvkry.sol\":3494:3504  msg.sender */\n      caller\n        /* \"contracts/Fvkry.sol\":3514:3518  this */\n      address\n        /* \"contracts/Fvkry.sol\":3521:3528  _amount */\n      dup8\n        /* \"contracts/Fvkry.sol\":3470:3476  _token */\n      dup10\n        /* \"contracts/Fvkry.sol\":3470:3493  _token.safeTransferFrom */\n      0xffffffffffffffffffffffffffffffffffffffff\n      and\n      tag_112\n      swap1\n        /* \"contracts/Fvkry.sol\":3470:3529  _token.safeTransferFrom(msg.sender, address(this), _amount) */\n      swap4\n      swap3\n      swap2\n      swap1\n      0xffffffff\n      and\n      jump\t// in\n    tag_111:\n        /* \"contracts/Fvkry.sol\":3584:3600  userLockedAssets */\n      0x02\n        /* \"contracts/Fvkry.sol\":3584:3612  userLockedAssets[msg.sender] */\n      0x00\n        /* \"contracts/Fvkry.sol\":3601:3611  msg.sender */\n      caller\n        /* \"contracts/Fvkry.sol\":3584:3612  userLockedAssets[msg.sender] */\n      0xffffffffffffffffffffffffffffffffffffffff\n      and\n      0xffffffffffffffffffffffffffffffffffffffff\n      and\n      dup2\n      mstore\n      0x20\n      add\n      swap1\n      dup2\n      mstore\n      0x20\n      add\n      0x00\n      keccak256\n        /* \"contracts/Fvkry.sol\":3584:3620  userLockedAssets[msg.sender][_vault] */\n      0x00\n        /* \"contracts/Fvkry.sol\":3613:3619  _vault */\n      dup6\n        /* \"contracts/Fvkry.sol\":3584:3620  userLockedAssets[msg.sender][_vault] */\n      0xff\n      and\n      0xff\n      and\n      dup2\n      mstore\n      0x20\n      add\n      swap1\n      dup2\n      mstore\n      0x20\n      add\n      0x00\n      keccak256\n        /* \"contracts/Fvkry.sol\":3626:3868  Lock({... */\n      mload(0x40)\n      dup1\n      0xc0\n      add\n      0x40\n      mstore\n      dup1\n        /* \"contracts/Fvkry.sol\":3661:3667  _token */\n      dup9\n        /* \"contracts/Fvkry.sol\":3626:3868  Lock({... */\n      0xffffffffffffffffffffffffffffffffffffffff\n      and\n      dup2\n      mstore\n      0x20\n      add\n        /* \"contracts/Fvkry.sol\":3692:3699  _amount */\n      dup8\n        /* \"contracts/Fvkry.sol\":3626:3868  Lock({... */\n      dup2\n      mstore\n      0x20\n      add\n        /* \"contracts/Fvkry.sol\":3747:3758  _lockperiod */\n      dup6\n        /* \"contracts/Fvkry.sol\":3729:3744  block.timestamp */\n      timestamp\n        /* \"contracts/Fvkry.sol\":3729:3758  block.timestamp + _lockperiod */\n      tag_113\n      swap2\n      swap1\n      tag_114\n      jump\t// in\n    tag_113:\n        /* \"contracts/Fvkry.sol\":3626:3868  Lock({... */\n      dup2\n      mstore\n      0x20\n      add\n        /* \"contracts/Fvkry.sol\":3780:3786  _title */\n      dup5\n        /* \"contracts/Fvkry.sol\":3626:3868  Lock({... */\n      dup2\n      mstore\n      0x20\n      add\n        /* \"contracts/Fvkry.sol\":3816:3821  false */\n      0x00\n        /* \"contracts/Fvkry.sol\":3626:3868  Lock({... */\n      iszero\n      iszero\n      dup2\n      mstore\n      0x20\n      add\n        /* \"contracts/Fvkry.sol\":3849:3854  false */\n      0x00\n        /* \"contracts/Fvkry.sol\":3626:3868  Lock({... */\n      iszero\n      iszero\n      dup2\n      mstore\n      pop\n        /* \"contracts/Fvkry.sol\":3584:3869  userLockedAssets[msg.sender][_vault].push(Lock({... */\n      swap1\n      dup1\n      0x01\n      dup2\n      sload\n      add\n      dup1\n      dup3\n      sstore\n      dup1\n      swap2\n      pop\n      pop\n      0x01\n      swap1\n      sub\n      swap1\n      0x00\n      mstore\n      keccak256(0x00, 0x20)\n      swap1\n      0x05\n      mul\n      add\n      0x00\n      swap1\n      swap2\n      swap1\n      swap2\n      swap1\n      swap2\n      pop\n      0x00\n      dup3\n      add\n      mload\n      dup2\n      0x00\n      add\n      exp(0x0100, 0x00)\n      dup2\n      sload\n      dup2\n      0xffffffffffffffffffffffffffffffffffffffff\n      mul\n      not\n      and\n      swap1\n      dup4\n      0xffffffffffffffffffffffffffffffffffffffff\n      and\n      mul\n      or\n      swap1\n      sstore\n      pop\n      0x20\n      dup3\n      add\n      mload\n      dup2\n      0x01\n      add\n      sstore\n      0x40\n      dup3\n      add\n      mload\n      dup2\n      0x02\n      add\n      sstore\n      0x60\n      dup3\n      add\n      mload\n      dup2\n      0x03\n      add\n      swap1\n      dup2\n      tag_116\n      swap2\n      swap1\n      tag_117\n      jump\t// in\n    tag_116:\n      pop\n      0x80\n      dup3\n      add\n      mload\n      dup2\n      0x04\n      add\n      exp(0x0100, 0x00)\n      dup2\n      sload\n      dup2\n      0xff\n      mul\n      not\n      and\n      swap1\n      dup4\n      iszero\n      iszero\n      mul\n      or\n      swap1\n      sstore\n      pop\n      0xa0\n      dup3\n      add\n      mload\n      dup2\n      0x04\n      add\n      exp(0x0100, 0x01)\n      dup2\n      sload\n      dup2\n      0xff\n      mul\n      not\n      and\n      swap1\n      dup4\n      iszero\n      iszero\n      mul\n      or\n      swap1\n      sstore\n      pop\n      pop\n      pop\n        /* \"contracts/Fvkry.sol\":3912:3974  recordTransac(address(_token), _vault, _amount, _title, false) */\n      tag_118\n        /* \"contracts/Fvkry.sol\":3934:3940  _token */\n      dup7\n        /* \"contracts/Fvkry.sol\":3943:3949  _vault */\n      dup6\n        /* \"contracts/Fvkry.sol\":3951:3958  _amount */\n      dup8\n        /* \"contracts/Fvkry.sol\":3960:3966  _title */\n      dup6\n        /* \"contracts/Fvkry.sol\":3968:3973  false */\n      0x00\n        /* \"contracts/Fvkry.sol\":3912:3925  recordTransac */\n      tag_119\n        /* \"contracts/Fvkry.sol\":3912:3974  recordTransac(address(_token), _vault, _amount, _title, false) */\n      jump\t// in\n    tag_118:\n        /* \"contracts/Fvkry.sol\":4012:4018  _token */\n      dup6\n        /* \"contracts/Fvkry.sol\":3992:4093  AssetLocked(address(_token), _amount, _title, _vault, block.timestamp + _lockperiod, block.timestamp) */\n      0xffffffffffffffffffffffffffffffffffffffff\n      and\n      0xed26bd61b6bf2f43d7471454e53e77ffdc96beefa2f198977936f6d02d34563d\n        /* \"contracts/Fvkry.sol\":4021:4028  _amount */\n      dup7\n        /* \"contracts/Fvkry.sol\":4030:4036  _title */\n      dup5\n        /* \"contracts/Fvkry.sol\":4038:4044  _vault */\n      dup8\n        /* \"contracts/Fvkry.sol\":4064:4075  _lockperiod */\n      dup8\n        /* \"contracts/Fvkry.sol\":4046:4061  block.timestamp */\n      timestamp\n        /* \"contracts/Fvkry.sol\":4046:4075  block.timestamp + _lockperiod */\n      tag_120\n      swap2\n      swap1\n      tag_114\n      jump\t// in\n    tag_120:\n        /* \"contracts/Fvkry.sol\":4077:4092  block.timestamp */\n      timestamp\n        /* \"contracts/Fvkry.sol\":3992:4093  AssetLocked(address(_token), _amount, _title, _vault, block.timestamp + _lockperiod, block.timestamp) */\n      mload(0x40)\n      tag_121\n      swap6\n      swap5\n      swap4\n      swap3\n      swap2\n      swap1\n      tag_122\n      jump\t// in\n    tag_121:\n      mload(0x40)\n      dup1\n      swap2\n      sub\n      swap1\n      log2\n        /* \"contracts/Fvkry.sol\":3028:4101  {... */\n      pop\n        /* \"@openzeppelin/contracts/utils/ReentrancyGuard.sol\":2542:2562  _nonReentrantAfter() */\n      tag_123\n        /* \"@openzeppelin/contracts/utils/ReentrancyGuard.sol\":2542:2560  _nonReentrantAfter */\n      tag_124\n        /* \"@openzeppelin/contracts/utils/ReentrancyGuard.sol\":2542:2562  _nonReentrantAfter() */\n      jump\t// in\n    tag_123:\n        /* \"contracts/Fvkry.sol\":2897:4101  function lockToken (IERC20 _token, uint256 _amount, uint8 _vault, uint256 _lockperiod, string memory _title) external nonReentrant {... */\n      pop\n      pop\n      pop\n      pop\n      pop\n      jump\t// out\n        /* \"contracts/Fvkry.sol\":1446:2277  function lockETH(uint8 _vault, uint256 _lockperiod, string memory _title) external payable nonReentrant {... */\n    tag_27:\n        /* \"@openzeppelin/contracts/utils/ReentrancyGuard.sol\":2500:2521  _nonReentrantBefore() */\n      tag_126\n        /* \"@openzeppelin/contracts/utils/ReentrancyGuard.sol\":2500:2519  _nonReentrantBefore */\n      tag_92\n        /* \"@openzeppelin/contracts/utils/ReentrancyGuard.sol\":2500:2521  _nonReentrantBefore() */\n      jump\t// in\n    tag_126:\n        /* \"contracts/Fvkry.sol\":1581:1582  0 */\n      0x00\n        /* \"contracts/Fvkry.sol\":1569:1578  msg.value */\n      callvalue\n        /* \"contracts/Fvkry.sol\":1569:1582  msg.value > 0 */\n      gt\n        /* \"contracts/Fvkry.sol\":1561:1626  require(msg.value > 0, \"ETH to lock must a value greater than 0\") */\n      tag_128\n      jumpi\n      mload(0x40)\n      0x08c379a000000000000000000000000000000000000000000000000000000000\n      dup2\n      mstore\n      0x04\n      add\n      tag_129\n      swap1\n      tag_130\n      jump\t// in\n    tag_129:\n      mload(0x40)\n      dup1\n      swap2\n      sub\n      swap1\n      revert\n    tag_128:\n        /* \"contracts/Fvkry.sol\":1660:1661  0 */\n      0x00\n        /* \"contracts/Fvkry.sol\":1645:1656  _lockperiod */\n      dup3\n        /* \"contracts/Fvkry.sol\":1645:1661  _lockperiod >= 0 */\n      lt\n      iszero\n        /* \"contracts/Fvkry.sol\":1637:1706  require(_lockperiod >= 0, \"The lockperiod must be greater then zero\") */\n      tag_131\n      jumpi\n      mload(0x40)\n      0x08c379a000000000000000000000000000000000000000000000000000000000\n      dup2\n      mstore\n      0x04\n      add\n      tag_132\n      swap1\n      tag_133\n      jump\t// in\n    tag_132:\n      mload(0x40)\n      dup1\n      swap2\n      sub\n      swap1\n      revert\n    tag_131:\n        /* \"contracts/Fvkry.sol\":1757:1773  userLockedAssets */\n      0x02\n        /* \"contracts/Fvkry.sol\":1757:1785  userLockedAssets[msg.sender] */\n      0x00\n        /* \"contracts/Fvkry.sol\":1774:1784  msg.sender */\n      caller\n        /* \"contracts/Fvkry.sol\":1757:1785  userLockedAssets[msg.sender] */\n      0xffffffffffffffffffffffffffffffffffffffff\n      and\n      0xffffffffffffffffffffffffffffffffffffffff\n      and\n      dup2\n      mstore\n      0x20\n      add\n      swap1\n      dup2\n      mstore\n      0x20\n      add\n      0x00\n      keccak256\n        /* \"contracts/Fvkry.sol\":1757:1793  userLockedAssets[msg.sender][_vault] */\n      0x00\n        /* \"contracts/Fvkry.sol\":1786:1792  _vault */\n      dup5\n        /* \"contracts/Fvkry.sol\":1757:1793  userLockedAssets[msg.sender][_vault] */\n      0xff\n      and\n      0xff\n      and\n      dup2\n      mstore\n      0x20\n      add\n      swap1\n      dup2\n      mstore\n      0x20\n      add\n      0x00\n      keccak256\n        /* \"contracts/Fvkry.sol\":1799:2037  Lock({... */\n      mload(0x40)\n      dup1\n      0xc0\n      add\n      0x40\n      mstore\n      dup1\n        /* \"contracts/Fvkry.sol\":1834:1835  0 */\n      0x00\n        /* \"contracts/Fvkry.sol\":1799:2037  Lock({... */\n      0xffffffffffffffffffffffffffffffffffffffff\n      and\n      dup2\n      mstore\n      0x20\n      add\n        /* \"contracts/Fvkry.sol\":1860:1869  msg.value */\n      callvalue\n        /* \"contracts/Fvkry.sol\":1799:2037  Lock({... */\n      dup2\n      mstore\n      0x20\n      add\n        /* \"contracts/Fvkry.sol\":1917:1928  _lockperiod */\n      dup5\n        /* \"contracts/Fvkry.sol\":1899:1914  block.timestamp */\n      timestamp\n        /* \"contracts/Fvkry.sol\":1899:1928  block.timestamp + _lockperiod */\n      tag_134\n      swap2\n      swap1\n      tag_114\n      jump\t// in\n    tag_134:\n        /* \"contracts/Fvkry.sol\":1799:2037  Lock({... */\n      dup2\n      mstore\n      0x20\n      add\n        /* \"contracts/Fvkry.sol\":1950:1956  _title */\n      dup4\n        /* \"contracts/Fvkry.sol\":1799:2037  Lock({... */\n      dup2\n      mstore\n      0x20\n      add\n        /* \"contracts/Fvkry.sol\":1986:1991  false */\n      0x00\n        /* \"contracts/Fvkry.sol\":1799:2037  Lock({... */\n      iszero\n      iszero\n      dup2\n      mstore\n      0x20\n      add\n        /* \"contracts/Fvkry.sol\":2019:2023  true */\n      0x01\n        /* \"contracts/Fvkry.sol\":1799:2037  Lock({... */\n      iszero\n      iszero\n      dup2\n      mstore\n      pop\n        /* \"contracts/Fvkry.sol\":1757:2038  userLockedAssets[msg.sender][_vault].push(Lock({... */\n      swap1\n      dup1\n      0x01\n      dup2\n      sload\n      add\n      dup1\n      dup3\n      sstore\n      dup1\n      swap2\n      pop\n      pop\n      0x01\n      swap1\n      sub\n      swap1\n      0x00\n      mstore\n      keccak256(0x00, 0x20)\n      swap1\n      0x05\n      mul\n      add\n      0x00\n      swap1\n      swap2\n      swap1\n      swap2\n      swap1\n      swap2\n      pop\n      0x00\n      dup3\n      add\n      mload\n      dup2\n      0x00\n      add\n      exp(0x0100, 0x00)\n      dup2\n      sload\n      dup2\n      0xffffffffffffffffffffffffffffffffffffffff\n      mul\n      not\n      and\n      swap1\n      dup4\n      0xffffffffffffffffffffffffffffffffffffffff\n      and\n      mul\n      or\n      swap1\n      sstore\n      pop\n      0x20\n      dup3\n      add\n      mload\n      dup2\n      0x01\n      add\n      sstore\n      0x40\n      dup3\n      add\n      mload\n      dup2\n      0x02\n      add\n      sstore\n      0x60\n      dup3\n      add\n      mload\n      dup2\n      0x03\n      add\n      swap1\n      dup2\n      tag_136\n      swap2\n      swap1\n      tag_117\n      jump\t// in\n    tag_136:\n      pop\n      0x80\n      dup3\n      add\n      mload\n      dup2\n      0x04\n      add\n      exp(0x0100, 0x00)\n      dup2\n      sload\n      dup2\n      0xff\n      mul\n      not\n      and\n      swap1\n      dup4\n      iszero\n      iszero\n      mul\n      or\n      swap1\n      sstore\n      pop\n      0xa0\n      dup3\n      add\n      mload\n      dup2\n      0x04\n      add\n      exp(0x0100, 0x01)\n      dup2\n      sload\n      dup2\n      0xff\n      mul\n      not\n      and\n      swap1\n      dup4\n      iszero\n      iszero\n      mul\n      or\n      swap1\n      sstore\n      pop\n      pop\n      pop\n        /* \"contracts/Fvkry.sol\":2086:2145  recordTransac(address(0), _vault, msg.value, _title, false) */\n      tag_137\n        /* \"contracts/Fvkry.sol\":2108:2109  0 */\n      0x00\n        /* \"contracts/Fvkry.sol\":2112:2118  _vault */\n      dup5\n        /* \"contracts/Fvkry.sol\":2120:2129  msg.value */\n      callvalue\n        /* \"contracts/Fvkry.sol\":2131:2137  _title */\n      dup5\n        /* \"contracts/Fvkry.sol\":2139:2144  false */\n      0x00\n        /* \"contracts/Fvkry.sol\":2086:2099  recordTransac */\n      tag_119\n        /* \"contracts/Fvkry.sol\":2086:2145  recordTransac(address(0), _vault, msg.value, _title, false) */\n      jump\t// in\n    tag_137:\n        /* \"contracts/Fvkry.sol\":2191:2192  0 */\n      0x00\n        /* \"contracts/Fvkry.sol\":2171:2269  AssetLocked(address(0), msg.value, _title, _vault, block.timestamp + _lockperiod, block.timestamp) */\n      0xffffffffffffffffffffffffffffffffffffffff\n      and\n      0xed26bd61b6bf2f43d7471454e53e77ffdc96beefa2f198977936f6d02d34563d\n        /* \"contracts/Fvkry.sol\":2195:2204  msg.value */\n      callvalue\n        /* \"contracts/Fvkry.sol\":2206:2212  _title */\n      dup4\n        /* \"contracts/Fvkry.sol\":2214:2220  _vault */\n      dup7\n        /* \"contracts/Fvkry.sol\":2240:2251  _lockperiod */\n      dup7\n        /* \"contracts/Fvkry.sol\":2222:2237  block.timestamp */\n      timestamp\n        /* \"contracts/Fvkry.sol\":2222:2251  block.timestamp + _lockperiod */\n      tag_138\n      swap2\n      swap1\n      tag_114\n      jump\t// in\n    tag_138:\n        /* \"contracts/Fvkry.sol\":2253:2268  block.timestamp */\n      timestamp\n        /* \"contracts/Fvkry.sol\":2171:2269  AssetLocked(address(0), msg.value, _title, _vault, block.timestamp + _lockperiod, block.timestamp) */\n      mload(0x40)\n      tag_139\n      swap6\n      swap5\n      swap4\n      swap3\n      swap2\n      swap1\n      tag_122\n      jump\t// in\n    tag_139:\n      mload(0x40)\n      dup1\n      swap2\n      sub\n      swap1\n      log2\n        /* \"@openzeppelin/contracts/utils/ReentrancyGuard.sol\":2542:2562  _nonReentrantAfter() */\n      tag_140\n        /* \"@openzeppelin/contracts/utils/ReentrancyGuard.sol\":2542:2560  _nonReentrantAfter */\n      tag_124\n        /* \"@openzeppelin/contracts/utils/ReentrancyGuard.sol\":2542:2562  _nonReentrantAfter() */\n      jump\t// in\n    tag_140:\n        /* \"contracts/Fvkry.sol\":1446:2277  function lockETH(uint8 _vault, uint256 _lockperiod, string memory _title) external payable nonReentrant {... */\n      pop\n      pop\n      pop\n      jump\t// out\n        /* \"contracts/Fvkry.sol\":6836:6971  function getContractTokenBalance(IERC20 token) external view returns (uint256) {... */\n    tag_32:\n        /* \"contracts/Fvkry.sol\":6906:6913  uint256 */\n      0x00\n        /* \"contracts/Fvkry.sol\":6933:6938  token */\n      dup2\n        /* \"contracts/Fvkry.sol\":6933:6948  token.balanceOf */\n      0xffffffffffffffffffffffffffffffffffffffff\n      and\n      0x70a08231\n        /* \"contracts/Fvkry.sol\":6957:6961  this */\n      address\n        /* \"contracts/Fvkry.sol\":6933:6963  token.balanceOf(address(this)) */\n      mload(0x40)\n      dup3\n      0xffffffff\n      and\n      0xe0\n      shl\n      dup2\n      mstore\n      0x04\n      add\n      tag_142\n      swap2\n      swap1\n      tag_65\n      jump\t// in\n    tag_142:\n      0x20\n      mload(0x40)\n      dup1\n      dup4\n      sub\n      dup2\n      dup7\n      gas\n      staticcall\n      iszero\n      dup1\n      iszero\n      tag_144\n      jumpi\n      returndatasize\n      0x00\n      dup1\n      returndatacopy\n      revert(0x00, returndatasize)\n    tag_144:\n      pop\n      pop\n      pop\n      pop\n      mload(0x40)\n      returndatasize\n      not(0x1f)\n      0x1f\n      dup3\n      add\n      and\n      dup3\n      add\n      dup1\n      0x40\n      mstore\n      pop\n      dup2\n      add\n      swap1\n      tag_145\n      swap2\n      swap1\n      tag_107\n      jump\t// in\n    tag_145:\n        /* \"contracts/Fvkry.sol\":6926:6963  return token.balanceOf(address(this)) */\n      swap1\n      pop\n        /* \"contracts/Fvkry.sol\":6836:6971  function getContractTokenBalance(IERC20 token) external view returns (uint256) {... */\n      swap2\n      swap1\n      pop\n      jump\t// out\n        /* \"contracts/Fvkry.sol\":4109:4890  function addToLockedTokens(IERC20 _token, uint32 _assetID, uint256 _amount, uint8 _vault) external  nonReentrant {... */\n    tag_39:\n        /* \"@openzeppelin/contracts/utils/ReentrancyGuard.sol\":2500:2521  _nonReentrantBefore() */\n      tag_147\n        /* \"@openzeppelin/contracts/utils/ReentrancyGuard.sol\":2500:2519  _nonReentrantBefore */\n      tag_92\n        /* \"@openzeppelin/contracts/utils/ReentrancyGuard.sol\":2500:2521  _nonReentrantBefore() */\n      jump\t// in\n    tag_147:\n        /* \"contracts/Fvkry.sol\":4268:4269  0 */\n      0x00\n        /* \"contracts/Fvkry.sol\":4241:4270  address(_token) != address(0) */\n      0xffffffffffffffffffffffffffffffffffffffff\n      and\n        /* \"contracts/Fvkry.sol\":4249:4255  _token */\n      dup5\n        /* \"contracts/Fvkry.sol\":4241:4270  address(_token) != address(0) */\n      0xffffffffffffffffffffffffffffffffffffffff\n      and\n      sub\n        /* \"contracts/Fvkry.sol\":4233:4309  require(address(_token) != address(0), \"Must provide a valid token address\") */\n      tag_149\n      jumpi\n      mload(0x40)\n      0x08c379a000000000000000000000000000000000000000000000000000000000\n      dup2\n      mstore\n      0x04\n      add\n      tag_150\n      swap1\n      tag_96\n      jump\t// in\n    tag_150:\n      mload(0x40)\n      dup1\n      swap2\n      sub\n      swap1\n      revert\n    tag_149:\n        /* \"contracts/Fvkry.sol\":4338:4339  0 */\n      0x00\n        /* \"contracts/Fvkry.sol\":4328:4335  _amount */\n      dup3\n        /* \"contracts/Fvkry.sol\":4328:4339  _amount > 0 */\n      gt\n        /* \"contracts/Fvkry.sol\":4320:4382  require(_amount > 0, \"Token amount must be greater then zero\") */\n      tag_151\n      jumpi\n      mload(0x40)\n      0x08c379a000000000000000000000000000000000000000000000000000000000\n      dup2\n      mstore\n      0x04\n      add\n      tag_152\n      swap1\n      tag_99\n      jump\t// in\n    tag_152:\n      mload(0x40)\n      dup1\n      swap2\n      sub\n      swap1\n      revert\n    tag_151:\n        /* \"contracts/Fvkry.sol\":4395:4412  Lock storage lock */\n      0x00\n        /* \"contracts/Fvkry.sol\":4415:4431  userLockedAssets */\n      0x02\n        /* \"contracts/Fvkry.sol\":4415:4443  userLockedAssets[msg.sender] */\n      0x00\n        /* \"contracts/Fvkry.sol\":4432:4442  msg.sender */\n      caller\n        /* \"contracts/Fvkry.sol\":4415:4443  userLockedAssets[msg.sender] */\n      0xffffffffffffffffffffffffffffffffffffffff\n      and\n      0xffffffffffffffffffffffffffffffffffffffff\n      and\n      dup2\n      mstore\n      0x20\n      add\n      swap1\n      dup2\n      mstore\n      0x20\n      add\n      0x00\n      keccak256\n        /* \"contracts/Fvkry.sol\":4415:4451  userLockedAssets[msg.sender][_vault] */\n      0x00\n        /* \"contracts/Fvkry.sol\":4444:4450  _vault */\n      dup4\n        /* \"contracts/Fvkry.sol\":4415:4451  userLockedAssets[msg.sender][_vault] */\n      0xff\n      and\n      0xff\n      and\n      dup2\n      mstore\n      0x20\n      add\n      swap1\n      dup2\n      mstore\n      0x20\n      add\n      0x00\n      keccak256\n        /* \"contracts/Fvkry.sol\":4452:4460  _assetID */\n      dup5\n        /* \"contracts/Fvkry.sol\":4415:4461  userLockedAssets[msg.sender][_vault][_assetID] */\n      0xffffffff\n      and\n      dup2\n      sload\n      dup2\n      lt\n      tag_153\n      jumpi\n      tag_154\n      tag_155\n      jump\t// in\n    tag_154:\n    tag_153:\n      swap1\n      0x00\n      mstore\n      keccak256(0x00, 0x20)\n      swap1\n      0x05\n      mul\n      add\n        /* \"contracts/Fvkry.sol\":4395:4461  Lock storage lock = userLockedAssets[msg.sender][_vault][_assetID] */\n      swap1\n      pop\n        /* \"contracts/Fvkry.sol\":4498:4557  _token.safeTransferFrom(msg.sender, address(this), _amount) */\n      tag_157\n        /* \"contracts/Fvkry.sol\":4522:4532  msg.sender */\n      caller\n        /* \"contracts/Fvkry.sol\":4542:4546  this */\n      address\n        /* \"contracts/Fvkry.sol\":4549:4556  _amount */\n      dup6\n        /* \"contracts/Fvkry.sol\":4498:4504  _token */\n      dup9\n        /* \"contracts/Fvkry.sol\":4498:4521  _token.safeTransferFrom */\n      0xffffffffffffffffffffffffffffffffffffffff\n      and\n      tag_112\n      swap1\n        /* \"contracts/Fvkry.sol\":4498:4557  _token.safeTransferFrom(msg.sender, address(this), _amount) */\n      swap4\n      swap3\n      swap2\n      swap1\n      0xffffffff\n      and\n      jump\t// in\n    tag_157:\n        /* \"contracts/Fvkry.sol\":4667:4674  _amount */\n      dup3\n        /* \"contracts/Fvkry.sol\":4610:4626  userLockedAssets */\n      0x02\n        /* \"contracts/Fvkry.sol\":4610:4638  userLockedAssets[msg.sender] */\n      0x00\n        /* \"contracts/Fvkry.sol\":4627:4637  msg.sender */\n      caller\n        /* \"contracts/Fvkry.sol\":4610:4638  userLockedAssets[msg.sender] */\n      0xffffffffffffffffffffffffffffffffffffffff\n      and\n      0xffffffffffffffffffffffffffffffffffffffff\n      and\n      dup2\n      mstore\n      0x20\n      add\n      swap1\n      dup2\n      mstore\n      0x20\n      add\n      0x00\n      keccak256\n        /* \"contracts/Fvkry.sol\":4610:4646  userLockedAssets[msg.sender][_vault] */\n      0x00\n        /* \"contracts/Fvkry.sol\":4639:4645  _vault */\n      dup5\n        /* \"contracts/Fvkry.sol\":4610:4646  userLockedAssets[msg.sender][_vault] */\n      0xff\n      and\n      0xff\n      and\n      dup2\n      mstore\n      0x20\n      add\n      swap1\n      dup2\n      mstore\n      0x20\n      add\n      0x00\n      keccak256\n        /* \"contracts/Fvkry.sol\":4647:4655  _assetID */\n      dup6\n        /* \"contracts/Fvkry.sol\":4610:4656  userLockedAssets[msg.sender][_vault][_assetID] */\n      0xffffffff\n      and\n      dup2\n      sload\n      dup2\n      lt\n      tag_158\n      jumpi\n      tag_159\n      tag_155\n      jump\t// in\n    tag_159:\n    tag_158:\n      swap1\n      0x00\n      mstore\n      keccak256(0x00, 0x20)\n      swap1\n      0x05\n      mul\n      add\n        /* \"contracts/Fvkry.sol\":4610:4663  userLockedAssets[msg.sender][_vault][_assetID].amount */\n      0x01\n      add\n      0x00\n        /* \"contracts/Fvkry.sol\":4610:4674  userLockedAssets[msg.sender][_vault][_assetID].amount += _amount */\n      dup3\n      dup3\n      sload\n      tag_161\n      swap2\n      swap1\n      tag_114\n      jump\t// in\n    tag_161:\n      swap3\n      pop\n      pop\n      dup2\n      swap1\n      sstore\n      pop\n        /* \"contracts/Fvkry.sol\":4717:4783  recordTransac(address(_token), _vault, _amount, lock.title, false) */\n      tag_162\n        /* \"contracts/Fvkry.sol\":4739:4745  _token */\n      dup6\n        /* \"contracts/Fvkry.sol\":4748:4754  _vault */\n      dup4\n        /* \"contracts/Fvkry.sol\":4756:4763  _amount */\n      dup6\n        /* \"contracts/Fvkry.sol\":4765:4769  lock */\n      dup5\n        /* \"contracts/Fvkry.sol\":4765:4775  lock.title */\n      0x03\n      add\n        /* \"contracts/Fvkry.sol\":4717:4783  recordTransac(address(_token), _vault, _amount, lock.title, false) */\n      dup1\n      sload\n      tag_163\n      swap1\n      tag_164\n      jump\t// in\n    tag_163:\n      dup1\n      0x1f\n      add\n      0x20\n      dup1\n      swap2\n      div\n      mul\n      0x20\n      add\n      mload(0x40)\n      swap1\n      dup2\n      add\n      0x40\n      mstore\n      dup1\n      swap3\n      swap2\n      swap1\n      dup2\n      dup2\n      mstore\n      0x20\n      add\n      dup3\n      dup1\n      sload\n      tag_165\n      swap1\n      tag_164\n      jump\t// in\n    tag_165:\n      dup1\n      iszero\n      tag_166\n      jumpi\n      dup1\n      0x1f\n      lt\n      tag_167\n      jumpi\n      0x0100\n      dup1\n      dup4\n      sload\n      div\n      mul\n      dup4\n      mstore\n      swap2\n      0x20\n      add\n      swap2\n      jump(tag_166)\n    tag_167:\n      dup3\n      add\n      swap2\n      swap1\n      0x00\n      mstore\n      keccak256(0x00, 0x20)\n      swap1\n    tag_168:\n      dup2\n      sload\n      dup2\n      mstore\n      swap1\n      0x01\n      add\n      swap1\n      0x20\n      add\n      dup1\n      dup4\n      gt\n      tag_168\n      jumpi\n      dup3\n      swap1\n      sub\n      0x1f\n      and\n      dup3\n      add\n      swap2\n    tag_166:\n      pop\n      pop\n      pop\n      pop\n      pop\n        /* \"contracts/Fvkry.sol\":4777:4782  false */\n      0x00\n        /* \"contracts/Fvkry.sol\":4717:4730  recordTransac */\n      tag_119\n        /* \"contracts/Fvkry.sol\":4717:4783  recordTransac(address(_token), _vault, _amount, lock.title, false) */\n      jump\t// in\n    tag_162:\n        /* \"contracts/Fvkry.sol\":4828:4834  _token */\n      dup5\n        /* \"contracts/Fvkry.sol\":4809:4882  AssetAdded(address(_token), _amount, lock.title, _vault, block.timestamp) */\n      0xffffffffffffffffffffffffffffffffffffffff\n      and\n      0x0b99ce8321b94ffaa5c5021540ec0668dcba948d044760a5ef298fa0513b1ef4\n        /* \"contracts/Fvkry.sol\":4837:4844  _amount */\n      dup5\n        /* \"contracts/Fvkry.sol\":4846:4850  lock */\n      dup4\n        /* \"contracts/Fvkry.sol\":4846:4856  lock.title */\n      0x03\n      add\n        /* \"contracts/Fvkry.sol\":4858:4864  _vault */\n      dup6\n        /* \"contracts/Fvkry.sol\":4866:4881  block.timestamp */\n      timestamp\n        /* \"contracts/Fvkry.sol\":4809:4882  AssetAdded(address(_token), _amount, lock.title, _vault, block.timestamp) */\n      mload(0x40)\n      tag_169\n      swap5\n      swap4\n      swap3\n      swap2\n      swap1\n      tag_170\n      jump\t// in\n    tag_169:\n      mload(0x40)\n      dup1\n      swap2\n      sub\n      swap1\n      log2\n        /* \"contracts/Fvkry.sol\":4222:4890  {... */\n      pop\n        /* \"@openzeppelin/contracts/utils/ReentrancyGuard.sol\":2542:2562  _nonReentrantAfter() */\n      tag_171\n        /* \"@openzeppelin/contracts/utils/ReentrancyGuard.sol\":2542:2560  _nonReentrantAfter */\n      tag_124\n        /* \"@openzeppelin/contracts/utils/ReentrancyGuard.sol\":2542:2562  _nonReentrantAfter() */\n      jump\t// in\n    tag_171:\n        /* \"contracts/Fvkry.sol\":4109:4890  function addToLockedTokens(IERC20 _token, uint32 _assetID, uint256 _amount, uint8 _vault) external  nonReentrant {... */\n      pop\n      pop\n      pop\n      pop\n      jump\t// out\n        /* \"contracts/Fvkry.sol\":7129:7263  function getUserLocks(uint8 _vault) public view returns (Lock[] memory) {... */\n    tag_44:\n        /* \"contracts/Fvkry.sol\":7186:7199  Lock[] memory */\n      0x60\n        /* \"contracts/Fvkry.sol\":7219:7235  userLockedAssets */\n      0x02\n        /* \"contracts/Fvkry.sol\":7219:7247  userLockedAssets[msg.sender] */\n      0x00\n        /* \"contracts/Fvkry.sol\":7236:7246  msg.sender */\n      caller\n        /* \"contracts/Fvkry.sol\":7219:7247  userLockedAssets[msg.sender] */\n      0xffffffffffffffffffffffffffffffffffffffff\n      and\n      0xffffffffffffffffffffffffffffffffffffffff\n      and\n      dup2\n      mstore\n      0x20\n      add\n      swap1\n      dup2\n      mstore\n      0x20\n      add\n      0x00\n      keccak256\n        /* \"contracts/Fvkry.sol\":7219:7255  userLockedAssets[msg.sender][_vault] */\n      0x00\n        /* \"contracts/Fvkry.sol\":7248:7254  _vault */\n      dup4\n        /* \"contracts/Fvkry.sol\":7219:7255  userLockedAssets[msg.sender][_vault] */\n      0xff\n      and\n      0xff\n      and\n      dup2\n      mstore\n      0x20\n      add\n      swap1\n      dup2\n      mstore\n      0x20\n      add\n      0x00\n      keccak256\n        /* \"contracts/Fvkry.sol\":7212:7255  return userLockedAssets[msg.sender][_vault] */\n      dup1\n      sload\n      dup1\n      0x20\n      mul\n      0x20\n      add\n      mload(0x40)\n      swap1\n      dup2\n      add\n      0x40\n      mstore\n      dup1\n      swap3\n      swap2\n      swap1\n      dup2\n      dup2\n      mstore\n      0x20\n      add\n      0x00\n      swap1\n    tag_173:\n      dup3\n      dup3\n      lt\n      iszero\n      tag_174\n      jumpi\n      dup4\n      dup3\n      swap1\n      0x00\n      mstore\n      keccak256(0x00, 0x20)\n      swap1\n      0x05\n      mul\n      add\n      mload(0x40)\n      dup1\n      0xc0\n      add\n      0x40\n      mstore\n      swap1\n      dup2\n      0x00\n      dup3\n      add\n      0x00\n      swap1\n      sload\n      swap1\n      0x0100\n      exp\n      swap1\n      div\n      0xffffffffffffffffffffffffffffffffffffffff\n      and\n      0xffffffffffffffffffffffffffffffffffffffff\n      and\n      0xffffffffffffffffffffffffffffffffffffffff\n      and\n      dup2\n      mstore\n      0x20\n      add\n      0x01\n      dup3\n      add\n      sload\n      dup2\n      mstore\n      0x20\n      add\n      0x02\n      dup3\n      add\n      sload\n      dup2\n      mstore\n      0x20\n      add\n      0x03\n      dup3\n      add\n      dup1\n      sload\n      tag_176\n      swap1\n      tag_164\n      jump\t// in\n    tag_176:\n      dup1\n      0x1f\n      add\n      0x20\n      dup1\n      swap2\n      div\n      mul\n      0x20\n      add\n      mload(0x40)\n      swap1\n      dup2\n      add\n      0x40\n      mstore\n      dup1\n      swap3\n      swap2\n      swap1\n      dup2\n      dup2\n      mstore\n      0x20\n      add\n      dup3\n      dup1\n      sload\n      tag_177\n      swap1\n      tag_164\n      jump\t// in\n    tag_177:\n      dup1\n      iszero\n      tag_178\n      jumpi\n      dup1\n      0x1f\n      lt\n      tag_179\n      jumpi\n      0x0100\n      dup1\n      dup4\n      sload\n      div\n      mul\n      dup4\n      mstore\n      swap2\n      0x20\n      add\n      swap2\n      jump(tag_178)\n    tag_179:\n      dup3\n      add\n      swap2\n      swap1\n      0x00\n      mstore\n      keccak256(0x00, 0x20)\n      swap1\n    tag_180:\n      dup2\n      sload\n      dup2\n      mstore\n      swap1\n      0x01\n      add\n      swap1\n      0x20\n      add\n      dup1\n      dup4\n      gt\n      tag_180\n      jumpi\n      dup3\n      swap1\n      sub\n      0x1f\n      and\n      dup3\n      add\n      swap2\n    tag_178:\n      pop\n      pop\n      pop\n      pop\n      pop\n      dup2\n      mstore\n      0x20\n      add\n      0x04\n      dup3\n      add\n      0x00\n      swap1\n      sload\n      swap1\n      0x0100\n      exp\n      swap1\n      div\n      0xff\n      and\n      iszero\n      iszero\n      iszero\n      iszero\n      dup2\n      mstore\n      0x20\n      add\n      0x04\n      dup3\n      add\n      0x01\n      swap1\n      sload\n      swap1\n      0x0100\n      exp\n      swap1\n      div\n      0xff\n      and\n      iszero\n      iszero\n      iszero\n      iszero\n      dup2\n      mstore\n      pop\n      pop\n      dup2\n      mstore\n      0x20\n      add\n      swap1\n      0x01\n      add\n      swap1\n      jump(tag_173)\n    tag_174:\n      pop\n      pop\n      pop\n      pop\n      swap1\n      pop\n        /* \"contracts/Fvkry.sol\":7129:7263  function getUserLocks(uint8 _vault) public view returns (Lock[] memory) {... */\n      swap2\n      swap1\n      pop\n      jump\t// out\n        /* \"contracts/Fvkry.sol\":811:889  mapping  (address => mapping (uint8 => TransacHist[])) public userTransactions */\n    tag_51:\n      mstore(0x20, 0x03)\n      dup3\n      0x00\n      mstore\n      mstore(0x20, keccak256(0x00, 0x40))\n      dup2\n      0x00\n      mstore\n      keccak256(0x00, 0x40)\n      dup2\n      dup2\n      sload\n      dup2\n      lt\n      tag_181\n      jumpi\n      0x00\n      dup1\n      revert\n    tag_181:\n      swap1\n      0x00\n      mstore\n      keccak256(0x00, 0x20)\n      swap1\n      0x05\n      mul\n      add\n      0x00\n      swap3\n      pop\n      swap3\n      pop\n      pop\n      pop\n      dup1\n      0x00\n      add\n      0x00\n      swap1\n      sload\n      swap1\n      0x0100\n      exp\n      swap1\n      div\n      0xffffffffffffffffffffffffffffffffffffffff\n      and\n      swap1\n      dup1\n      0x01\n      add\n      sload\n      swap1\n      dup1\n      0x02\n      add\n      dup1\n      sload\n      tag_183\n      swap1\n      tag_164\n      jump\t// in\n    tag_183:\n      dup1\n      0x1f\n      add\n      0x20\n      dup1\n      swap2\n      div\n      mul\n      0x20\n      add\n      mload(0x40)\n      swap1\n      dup2\n      add\n      0x40\n      mstore\n      dup1\n      swap3\n      swap2\n      swap1\n      dup2\n      dup2\n      mstore\n      0x20\n      add\n      dup3\n      dup1\n      sload\n      tag_184\n      swap1\n      tag_164\n      jump\t// in\n    tag_184:\n      dup1\n      iszero\n      tag_185\n      jumpi\n      dup1\n      0x1f\n      lt\n      tag_186\n      jumpi\n      0x0100\n      dup1\n      dup4\n      sload\n      div\n      mul\n      dup4\n      mstore\n      swap2\n      0x20\n      add\n      swap2\n      jump(tag_185)\n    tag_186:\n      dup3\n      add\n      swap2\n      swap1\n      0x00\n      mstore\n      keccak256(0x00, 0x20)\n      swap1\n    tag_187:\n      dup2\n      sload\n      dup2\n      mstore\n      swap1\n      0x01\n      add\n      swap1\n      0x20\n      add\n      dup1\n      dup4\n      gt\n      tag_187\n      jumpi\n      dup3\n      swap1\n      sub\n      0x1f\n      and\n      dup3\n      add\n      swap2\n    tag_185:\n      pop\n      pop\n      pop\n      pop\n      pop\n      swap1\n      dup1\n      0x03\n      add\n      0x00\n      swap1\n      sload\n      swap1\n      0x0100\n      exp\n      swap1\n      div\n      0xff\n      and\n      swap1\n      dup1\n      0x04\n      add\n      sload\n      swap1\n      pop\n      dup6\n      jump\t// out\n        /* \"@openzeppelin/contracts/access/Ownable.sol\":2293:2394  function renounceOwnership() public virtual onlyOwner {... */\n    tag_56:\n        /* \"@openzeppelin/contracts/access/Ownable.sol\":1531:1544  _checkOwner() */\n      tag_189\n        /* \"@openzeppelin/contracts/access/Ownable.sol\":1531:1542  _checkOwner */\n      tag_190\n        /* \"@openzeppelin/contracts/access/Ownable.sol\":1531:1544  _checkOwner() */\n      jump\t// in\n    tag_189:\n        /* \"@openzeppelin/contracts/access/Ownable.sol\":2357:2387  _transferOwnership(address(0)) */\n      tag_192\n        /* \"@openzeppelin/contracts/access/Ownable.sol\":2384:2385  0 */\n      0x00\n        /* \"@openzeppelin/contracts/access/Ownable.sol\":2357:2375  _transferOwnership */\n      tag_193\n        /* \"@openzeppelin/contracts/access/Ownable.sol\":2357:2387  _transferOwnership(address(0)) */\n      jump\t// in\n    tag_192:\n        /* \"@openzeppelin/contracts/access/Ownable.sol\":2293:2394  function renounceOwnership() public virtual onlyOwner {... */\n      jump\t// out\n        /* \"contracts/Fvkry.sol\":6979:7091  function getContractETHBalance() external view returns (uint256) {... */\n    tag_59:\n        /* \"contracts/Fvkry.sol\":7035:7042  uint256 */\n      0x00\n        /* \"contracts/Fvkry.sol\":7062:7083  address(this).balance */\n      selfbalance\n        /* \"contracts/Fvkry.sol\":7055:7083  return address(this).balance */\n      swap1\n      pop\n        /* \"contracts/Fvkry.sol\":6979:7091  function getContractETHBalance() external view returns (uint256) {... */\n      swap1\n      jump\t// out\n        /* \"@openzeppelin/contracts/access/Ownable.sol\":1638:1723  function owner() public view virtual returns (address) {... */\n    tag_63:\n        /* \"@openzeppelin/contracts/access/Ownable.sol\":1684:1691  address */\n      0x00\n        /* \"@openzeppelin/contracts/access/Ownable.sol\":1710:1716  _owner */\n      dup1\n      0x00\n      swap1\n      sload\n      swap1\n      0x0100\n      exp\n      swap1\n      div\n      0xffffffffffffffffffffffffffffffffffffffff\n      and\n        /* \"@openzeppelin/contracts/access/Ownable.sol\":1703:1716  return _owner */\n      swap1\n      pop\n        /* \"@openzeppelin/contracts/access/Ownable.sol\":1638:1723  function owner() public view virtual returns (address) {... */\n      swap1\n      jump\t// out\n        /* \"contracts/Fvkry.sol\":7310:7900  function extendLockPeriod(uint32 _assetID, uint8 _vault, uint256 _lockperiod) external  {... */\n    tag_70:\n        /* \"contracts/Fvkry.sol\":7409:7426  Lock storage lock */\n      0x00\n        /* \"contracts/Fvkry.sol\":7429:7445  userLockedAssets */\n      0x02\n        /* \"contracts/Fvkry.sol\":7429:7457  userLockedAssets[msg.sender] */\n      0x00\n        /* \"contracts/Fvkry.sol\":7446:7456  msg.sender */\n      caller\n        /* \"contracts/Fvkry.sol\":7429:7457  userLockedAssets[msg.sender] */\n      0xffffffffffffffffffffffffffffffffffffffff\n      and\n      0xffffffffffffffffffffffffffffffffffffffff\n      and\n      dup2\n      mstore\n      0x20\n      add\n      swap1\n      dup2\n      mstore\n      0x20\n      add\n      0x00\n      keccak256\n        /* \"contracts/Fvkry.sol\":7429:7465  userLockedAssets[msg.sender][_vault] */\n      0x00\n        /* \"contracts/Fvkry.sol\":7458:7464  _vault */\n      dup5\n        /* \"contracts/Fvkry.sol\":7429:7465  userLockedAssets[msg.sender][_vault] */\n      0xff\n      and\n      0xff\n      and\n      dup2\n      mstore\n      0x20\n      add\n      swap1\n      dup2\n      mstore\n      0x20\n      add\n      0x00\n      keccak256\n        /* \"contracts/Fvkry.sol\":7466:7474  _assetID */\n      dup5\n        /* \"contracts/Fvkry.sol\":7429:7475  userLockedAssets[msg.sender][_vault][_assetID] */\n      0xffffffff\n      and\n      dup2\n      sload\n      dup2\n      lt\n      tag_197\n      jumpi\n      tag_198\n      tag_155\n      jump\t// in\n    tag_198:\n    tag_197:\n      swap1\n      0x00\n      mstore\n      keccak256(0x00, 0x20)\n      swap1\n      0x05\n      mul\n      add\n        /* \"contracts/Fvkry.sol\":7409:7475  Lock storage lock = userLockedAssets[msg.sender][_vault][_assetID] */\n      swap1\n      pop\n        /* \"contracts/Fvkry.sol\":7507:7523  userLockedAssets */\n      0x02\n        /* \"contracts/Fvkry.sol\":7507:7535  userLockedAssets[msg.sender] */\n      0x00\n        /* \"contracts/Fvkry.sol\":7524:7534  msg.sender */\n      caller\n        /* \"contracts/Fvkry.sol\":7507:7535  userLockedAssets[msg.sender] */\n      0xffffffffffffffffffffffffffffffffffffffff\n      and\n      0xffffffffffffffffffffffffffffffffffffffff\n      and\n      dup2\n      mstore\n      0x20\n      add\n      swap1\n      dup2\n      mstore\n      0x20\n      add\n      0x00\n      keccak256\n        /* \"contracts/Fvkry.sol\":7507:7543  userLockedAssets[msg.sender][_vault] */\n      0x00\n        /* \"contracts/Fvkry.sol\":7536:7542  _vault */\n      dup5\n        /* \"contracts/Fvkry.sol\":7507:7543  userLockedAssets[msg.sender][_vault] */\n      0xff\n      and\n      0xff\n      and\n      dup2\n      mstore\n      0x20\n      add\n      swap1\n      dup2\n      mstore\n      0x20\n      add\n      0x00\n      keccak256\n        /* \"contracts/Fvkry.sol\":7507:7550  userLockedAssets[msg.sender][_vault].length */\n      dup1\n      sload\n      swap1\n      pop\n        /* \"contracts/Fvkry.sol\":7496:7504  _assetID */\n      dup5\n        /* \"contracts/Fvkry.sol\":7496:7550  _assetID < userLockedAssets[msg.sender][_vault].length */\n      0xffffffff\n      and\n      lt\n        /* \"contracts/Fvkry.sol\":7488:7589  require(_assetID < userLockedAssets[msg.sender][_vault].length, \"The specified asset ID is invalid.\") */\n      tag_200\n      jumpi\n      mload(0x40)\n      0x08c379a000000000000000000000000000000000000000000000000000000000\n      dup2\n      mstore\n      0x04\n      add\n      tag_201\n      swap1\n      tag_202\n      jump\t// in\n    tag_201:\n      mload(0x40)\n      dup1\n      swap2\n      sub\n      swap1\n      revert\n    tag_200:\n        /* \"contracts/Fvkry.sol\":7626:7630  lock */\n      dup1\n        /* \"contracts/Fvkry.sol\":7626:7642  lock.lockEndTime */\n      0x02\n      add\n      sload\n        /* \"contracts/Fvkry.sol\":7608:7623  block.timestamp */\n      timestamp\n        /* \"contracts/Fvkry.sol\":7608:7642  block.timestamp > lock.lockEndTime */\n      gt\n        /* \"contracts/Fvkry.sol\":7600:7683  require(block.timestamp > lock.lockEndTime, \"The lock period has not yet expired!\") */\n      tag_203\n      jumpi\n      mload(0x40)\n      0x08c379a000000000000000000000000000000000000000000000000000000000\n      dup2\n      mstore\n      0x04\n      add\n      tag_204\n      swap1\n      tag_205\n      jump\t// in\n    tag_204:\n      mload(0x40)\n      dup1\n      swap2\n      sub\n      swap1\n      revert\n    tag_203:\n        /* \"contracts/Fvkry.sol\":7783:7794  _lockperiod */\n      dup2\n        /* \"contracts/Fvkry.sol\":7765:7780  block.timestamp */\n      timestamp\n        /* \"contracts/Fvkry.sol\":7765:7794  block.timestamp + _lockperiod */\n      tag_206\n      swap2\n      swap1\n      tag_114\n      jump\t// in\n    tag_206:\n        /* \"contracts/Fvkry.sol\":7704:7720  userLockedAssets */\n      0x02\n        /* \"contracts/Fvkry.sol\":7704:7732  userLockedAssets[msg.sender] */\n      0x00\n        /* \"contracts/Fvkry.sol\":7721:7731  msg.sender */\n      caller\n        /* \"contracts/Fvkry.sol\":7704:7732  userLockedAssets[msg.sender] */\n      0xffffffffffffffffffffffffffffffffffffffff\n      and\n      0xffffffffffffffffffffffffffffffffffffffff\n      and\n      dup2\n      mstore\n      0x20\n      add\n      swap1\n      dup2\n      mstore\n      0x20\n      add\n      0x00\n      keccak256\n        /* \"contracts/Fvkry.sol\":7704:7740  userLockedAssets[msg.sender][_vault] */\n      0x00\n        /* \"contracts/Fvkry.sol\":7733:7739  _vault */\n      dup6\n        /* \"contracts/Fvkry.sol\":7704:7740  userLockedAssets[msg.sender][_vault] */\n      0xff\n      and\n      0xff\n      and\n      dup2\n      mstore\n      0x20\n      add\n      swap1\n      dup2\n      mstore\n      0x20\n      add\n      0x00\n      keccak256\n        /* \"contracts/Fvkry.sol\":7741:7749  _assetID */\n      dup6\n        /* \"contracts/Fvkry.sol\":7704:7750  userLockedAssets[msg.sender][_vault][_assetID] */\n      0xffffffff\n      and\n      dup2\n      sload\n      dup2\n      lt\n      tag_207\n      jumpi\n      tag_208\n      tag_155\n      jump\t// in\n    tag_208:\n    tag_207:\n      swap1\n      0x00\n      mstore\n      keccak256(0x00, 0x20)\n      swap1\n      0x05\n      mul\n      add\n        /* \"contracts/Fvkry.sol\":7704:7762  userLockedAssets[msg.sender][_vault][_assetID].lockEndTime */\n      0x02\n      add\n        /* \"contracts/Fvkry.sol\":7704:7794  userLockedAssets[msg.sender][_vault][_assetID].lockEndTime = block.timestamp + _lockperiod */\n      dup2\n      swap1\n      sstore\n      pop\n        /* \"contracts/Fvkry.sol\":7831:7835  lock */\n      dup1\n        /* \"contracts/Fvkry.sol\":7831:7841  lock.token */\n      0x00\n      add\n      0x00\n      swap1\n      sload\n      swap1\n      0x0100\n      exp\n      swap1\n      div\n      0xffffffffffffffffffffffffffffffffffffffff\n      and\n        /* \"contracts/Fvkry.sol\":7812:7892  LockPeriodExtended(lock.token, _vault, _lockperiod, lock.title, block.timestamp) */\n      0xffffffffffffffffffffffffffffffffffffffff\n      and\n      0x748cb9768ee3f2567793f42a22f5b0c83df9e14d32ec82c9cb839cb1b357be13\n        /* \"contracts/Fvkry.sol\":7843:7849  _vault */\n      dup5\n        /* \"contracts/Fvkry.sol\":7851:7862  _lockperiod */\n      dup5\n        /* \"contracts/Fvkry.sol\":7864:7868  lock */\n      dup5\n        /* \"contracts/Fvkry.sol\":7864:7874  lock.title */\n      0x03\n      add\n        /* \"contracts/Fvkry.sol\":7876:7891  block.timestamp */\n      timestamp\n        /* \"contracts/Fvkry.sol\":7812:7892  LockPeriodExtended(lock.token, _vault, _lockperiod, lock.title, block.timestamp) */\n      mload(0x40)\n      tag_210\n      swap5\n      swap4\n      swap3\n      swap2\n      swap1\n      tag_211\n      jump\t// in\n    tag_210:\n      mload(0x40)\n      dup1\n      swap2\n      sub\n      swap1\n      log2\n        /* \"contracts/Fvkry.sol\":7398:7900  {... */\n      pop\n        /* \"contracts/Fvkry.sol\":7310:7900  function extendLockPeriod(uint32 _assetID, uint8 _vault, uint256 _lockperiod) external  {... */\n      pop\n      pop\n      pop\n      jump\t// out\n        /* \"contracts/Fvkry.sol\":733:804  mapping  (address => mapping (uint8 => Lock[])) public userLockedAssets */\n    tag_74:\n      mstore(0x20, 0x02)\n      dup3\n      0x00\n      mstore\n      mstore(0x20, keccak256(0x00, 0x40))\n      dup2\n      0x00\n      mstore\n      keccak256(0x00, 0x40)\n      dup2\n      dup2\n      sload\n      dup2\n      lt\n      tag_212\n      jumpi\n      0x00\n      dup1\n      revert\n    tag_212:\n      swap1\n      0x00\n      mstore\n      keccak256(0x00, 0x20)\n      swap1\n      0x05\n      mul\n      add\n      0x00\n      swap3\n      pop\n      swap3\n      pop\n      pop\n      pop\n      dup1\n      0x00\n      add\n      0x00\n      swap1\n      sload\n      swap1\n      0x0100\n      exp\n      swap1\n      div\n      0xffffffffffffffffffffffffffffffffffffffff\n      and\n      swap1\n      dup1\n      0x01\n      add\n      sload\n      swap1\n      dup1\n      0x02\n      add\n      sload\n      swap1\n      dup1\n      0x03\n      add\n      dup1\n      sload\n      tag_214\n      swap1\n      tag_164\n      jump\t// in\n    tag_214:\n      dup1\n      0x1f\n      add\n      0x20\n      dup1\n      swap2\n      div\n      mul\n      0x20\n      add\n      mload(0x40)\n      swap1\n      dup2\n      add\n      0x40\n      mstore\n      dup1\n      swap3\n      swap2\n      swap1\n      dup2\n      dup2\n      mstore\n      0x20\n      add\n      dup3\n      dup1\n      sload\n      tag_215\n      swap1\n      tag_164\n      jump\t// in\n    tag_215:\n      dup1\n      iszero\n      tag_216\n      jumpi\n      dup1\n      0x1f\n      lt\n      tag_217\n      jumpi\n      0x0100\n      dup1\n      dup4\n      sload\n      div\n      mul\n      dup4\n      mstore\n      swap2\n      0x20\n      add\n      swap2\n      jump(tag_216)\n    tag_217:\n      dup3\n      add\n      swap2\n      swap1\n      0x00\n      mstore\n      keccak256(0x00, 0x20)\n      swap1\n    tag_218:\n      dup2\n      sload\n      dup2\n      mstore\n      swap1\n      0x01\n      add\n      swap1\n      0x20\n      add\n      dup1\n      dup4\n      gt\n      tag_218\n      jumpi\n      dup3\n      swap1\n      sub\n      0x1f\n      and\n      dup3\n      add\n      swap2\n    tag_216:\n      pop\n      pop\n      pop\n      pop\n      pop\n      swap1\n      dup1\n      0x04\n      add\n      0x00\n      swap1\n      sload\n      swap1\n      0x0100\n      exp\n      swap1\n      div\n      0xff\n      and\n      swap1\n      dup1\n      0x04\n      add\n      0x01\n      swap1\n      sload\n      swap1\n      0x0100\n      exp\n      swap1\n      div\n      0xff\n      and\n      swap1\n      pop\n      dup7\n      jump\t// out\n        /* \"contracts/Fvkry.sol\":4921:6372  function transferAsset( uint32 _assetId,uint8 _vault, uint256 _amount) external  nonReentrant {... */\n    tag_80:\n        /* \"@openzeppelin/contracts/utils/ReentrancyGuard.sol\":2500:2521  _nonReentrantBefore() */\n      tag_220\n        /* \"@openzeppelin/contracts/utils/ReentrancyGuard.sol\":2500:2519  _nonReentrantBefore */\n      tag_92\n        /* \"@openzeppelin/contracts/utils/ReentrancyGuard.sol\":2500:2521  _nonReentrantBefore() */\n      jump\t// in\n    tag_220:\n        /* \"contracts/Fvkry.sol\":5045:5061  userLockedAssets */\n      0x02\n        /* \"contracts/Fvkry.sol\":5045:5073  userLockedAssets[msg.sender] */\n      0x00\n        /* \"contracts/Fvkry.sol\":5062:5072  msg.sender */\n      caller\n        /* \"contracts/Fvkry.sol\":5045:5073  userLockedAssets[msg.sender] */\n      0xffffffffffffffffffffffffffffffffffffffff\n      and\n      0xffffffffffffffffffffffffffffffffffffffff\n      and\n      dup2\n      mstore\n      0x20\n      add\n      swap1\n      dup2\n      mstore\n      0x20\n      add\n      0x00\n      keccak256\n        /* \"contracts/Fvkry.sol\":5045:5081  userLockedAssets[msg.sender][_vault] */\n      0x00\n        /* \"contracts/Fvkry.sol\":5074:5080  _vault */\n      dup4\n        /* \"contracts/Fvkry.sol\":5045:5081  userLockedAssets[msg.sender][_vault] */\n      0xff\n      and\n      0xff\n      and\n      dup2\n      mstore\n      0x20\n      add\n      swap1\n      dup2\n      mstore\n      0x20\n      add\n      0x00\n      keccak256\n        /* \"contracts/Fvkry.sol\":5045:5088  userLockedAssets[msg.sender][_vault].length */\n      dup1\n      sload\n      swap1\n      pop\n        /* \"contracts/Fvkry.sol\":5034:5042  _assetId */\n      dup4\n        /* \"contracts/Fvkry.sol\":5034:5088  _assetId < userLockedAssets[msg.sender][_vault].length */\n      0xffffffff\n      and\n      lt\n        /* \"contracts/Fvkry.sol\":5026:5127  require(_assetId < userLockedAssets[msg.sender][_vault].length, \"The specified asset ID is invalid.\") */\n      tag_222\n      jumpi\n      mload(0x40)\n      0x08c379a000000000000000000000000000000000000000000000000000000000\n      dup2\n      mstore\n      0x04\n      add\n      tag_223\n      swap1\n      tag_202\n      jump\t// in\n    tag_223:\n      mload(0x40)\n      dup1\n      swap2\n      sub\n      swap1\n      revert\n    tag_222:\n        /* \"contracts/Fvkry.sol\":5148:5165  Lock storage lock */\n      0x00\n        /* \"contracts/Fvkry.sol\":5168:5184  userLockedAssets */\n      0x02\n        /* \"contracts/Fvkry.sol\":5168:5196  userLockedAssets[msg.sender] */\n      0x00\n        /* \"contracts/Fvkry.sol\":5185:5195  msg.sender */\n      caller\n        /* \"contracts/Fvkry.sol\":5168:5196  userLockedAssets[msg.sender] */\n      0xffffffffffffffffffffffffffffffffffffffff\n      and\n      0xffffffffffffffffffffffffffffffffffffffff\n      and\n      dup2\n      mstore\n      0x20\n      add\n      swap1\n      dup2\n      mstore\n      0x20\n      add\n      0x00\n      keccak256\n        /* \"contracts/Fvkry.sol\":5168:5204  userLockedAssets[msg.sender][_vault] */\n      0x00\n        /* \"contracts/Fvkry.sol\":5197:5203  _vault */\n      dup5\n        /* \"contracts/Fvkry.sol\":5168:5204  userLockedAssets[msg.sender][_vault] */\n      0xff\n      and\n      0xff\n      and\n      dup2\n      mstore\n      0x20\n      add\n      swap1\n      dup2\n      mstore\n      0x20\n      add\n      0x00\n      keccak256\n        /* \"contracts/Fvkry.sol\":5205:5213  _assetId */\n      dup5\n        /* \"contracts/Fvkry.sol\":5168:5214  userLockedAssets[msg.sender][_vault][_assetId] */\n      0xffffffff\n      and\n      dup2\n      sload\n      dup2\n      lt\n      tag_224\n      jumpi\n      tag_225\n      tag_155\n      jump\t// in\n    tag_225:\n    tag_224:\n      swap1\n      0x00\n      mstore\n      keccak256(0x00, 0x20)\n      swap1\n      0x05\n      mul\n      add\n        /* \"contracts/Fvkry.sol\":5148:5214  Lock storage lock = userLockedAssets[msg.sender][_vault][_assetId] */\n      swap1\n      pop\n        /* \"contracts/Fvkry.sol\":5236:5240  lock */\n      dup1\n        /* \"contracts/Fvkry.sol\":5236:5250  lock.withdrawn */\n      0x04\n      add\n      0x00\n      swap1\n      sload\n      swap1\n      0x0100\n      exp\n      swap1\n      div\n      0xff\n      and\n        /* \"contracts/Fvkry.sol\":5235:5250  !lock.withdrawn */\n      iszero\n        /* \"contracts/Fvkry.sol\":5227:5289  require(!lock.withdrawn,\"Assets have already been withdrawn!\") */\n      tag_227\n      jumpi\n      mload(0x40)\n      0x08c379a000000000000000000000000000000000000000000000000000000000\n      dup2\n      mstore\n      0x04\n      add\n      tag_228\n      swap1\n      tag_229\n      jump\t// in\n    tag_228:\n      mload(0x40)\n      dup1\n      swap2\n      sub\n      swap1\n      revert\n    tag_227:\n        /* \"contracts/Fvkry.sol\":5326:5330  lock */\n      dup1\n        /* \"contracts/Fvkry.sol\":5326:5342  lock.lockEndTime */\n      0x02\n      add\n      sload\n        /* \"contracts/Fvkry.sol\":5308:5323  block.timestamp */\n      timestamp\n        /* \"contracts/Fvkry.sol\":5308:5342  block.timestamp > lock.lockEndTime */\n      gt\n        /* \"contracts/Fvkry.sol\":5300:5383  require(block.timestamp > lock.lockEndTime, \"The lock period has not yet expired!\") */\n      tag_230\n      jumpi\n      mload(0x40)\n      0x08c379a000000000000000000000000000000000000000000000000000000000\n      dup2\n      mstore\n      0x04\n      add\n      tag_231\n      swap1\n      tag_205\n      jump\t// in\n    tag_231:\n      mload(0x40)\n      dup1\n      swap2\n      sub\n      swap1\n      revert\n    tag_230:\n        /* \"contracts/Fvkry.sol\":5396:5418  uint256  updateBalance */\n      0x00\n        /* \"contracts/Fvkry.sol\":5435:5442  _amount */\n      dup3\n        /* \"contracts/Fvkry.sol\":5421:5425  lock */\n      dup3\n        /* \"contracts/Fvkry.sol\":5421:5432  lock.amount */\n      0x01\n      add\n      sload\n        /* \"contracts/Fvkry.sol\":5421:5442  lock.amount - _amount */\n      tag_232\n      swap2\n      swap1\n      tag_233\n      jump\t// in\n    tag_232:\n        /* \"contracts/Fvkry.sol\":5396:5442  uint256  updateBalance = lock.amount - _amount */\n      swap1\n      pop\n        /* \"contracts/Fvkry.sol\":5479:5480  0 */\n      0x00\n        /* \"contracts/Fvkry.sol\":5462:5475  updateBalance */\n      dup2\n        /* \"contracts/Fvkry.sol\":5462:5480  updateBalance >= 0 */\n      lt\n      iszero\n        /* \"contracts/Fvkry.sol\":5453:5514  require (updateBalance >= 0,\"Not enough assets to withdraw!\") */\n      tag_234\n      jumpi\n      mload(0x40)\n      0x08c379a000000000000000000000000000000000000000000000000000000000\n      dup2\n      mstore\n      0x04\n      add\n      tag_235\n      swap1\n      tag_236\n      jump\t// in\n    tag_235:\n      mload(0x40)\n      dup1\n      swap2\n      sub\n      swap1\n      revert\n    tag_234:\n        /* \"contracts/Fvkry.sol\":5576:5577  0 */\n      0x00\n        /* \"contracts/Fvkry.sol\":5559:5572  updateBalance */\n      dup2\n        /* \"contracts/Fvkry.sol\":5559:5577  updateBalance == 0 */\n      sub\n        /* \"contracts/Fvkry.sol\":5556:5669  if(updateBalance == 0) {... */\n      tag_237\n      jumpi\n        /* \"contracts/Fvkry.sol\":5653:5657  true */\n      0x01\n        /* \"contracts/Fvkry.sol\":5594:5610  userLockedAssets */\n      0x02\n        /* \"contracts/Fvkry.sol\":5594:5622  userLockedAssets[msg.sender] */\n      0x00\n        /* \"contracts/Fvkry.sol\":5611:5621  msg.sender */\n      caller\n        /* \"contracts/Fvkry.sol\":5594:5622  userLockedAssets[msg.sender] */\n      0xffffffffffffffffffffffffffffffffffffffff\n      and\n      0xffffffffffffffffffffffffffffffffffffffff\n      and\n      dup2\n      mstore\n      0x20\n      add\n      swap1\n      dup2\n      mstore\n      0x20\n      add\n      0x00\n      keccak256\n        /* \"contracts/Fvkry.sol\":5594:5630  userLockedAssets[msg.sender][_vault] */\n      0x00\n        /* \"contracts/Fvkry.sol\":5623:5629  _vault */\n      dup7\n        /* \"contracts/Fvkry.sol\":5594:5630  userLockedAssets[msg.sender][_vault] */\n      0xff\n      and\n      0xff\n      and\n      dup2\n      mstore\n      0x20\n      add\n      swap1\n      dup2\n      mstore\n      0x20\n      add\n      0x00\n      keccak256\n        /* \"contracts/Fvkry.sol\":5631:5639  _assetId */\n      dup7\n        /* \"contracts/Fvkry.sol\":5594:5640  userLockedAssets[msg.sender][_vault][_assetId] */\n      0xffffffff\n      and\n      dup2\n      sload\n      dup2\n      lt\n      tag_238\n      jumpi\n      tag_239\n      tag_155\n      jump\t// in\n    tag_239:\n    tag_238:\n      swap1\n      0x00\n      mstore\n      keccak256(0x00, 0x20)\n      swap1\n      0x05\n      mul\n      add\n        /* \"contracts/Fvkry.sol\":5594:5650  userLockedAssets[msg.sender][_vault][_assetId].withdrawn */\n      0x04\n      add\n      0x00\n        /* \"contracts/Fvkry.sol\":5594:5657  userLockedAssets[msg.sender][_vault][_assetId].withdrawn = true */\n      0x0100\n      exp\n      dup2\n      sload\n      dup2\n      0xff\n      mul\n      not\n      and\n      swap1\n      dup4\n      iszero\n      iszero\n      mul\n      or\n      swap1\n      sstore\n      pop\n        /* \"contracts/Fvkry.sol\":5556:5669  if(updateBalance == 0) {... */\n    tag_237:\n        /* \"contracts/Fvkry.sol\":5766:5779  updateBalance */\n      dup1\n        /* \"contracts/Fvkry.sol\":5710:5726  userLockedAssets */\n      0x02\n        /* \"contracts/Fvkry.sol\":5710:5738  userLockedAssets[msg.sender] */\n      0x00\n        /* \"contracts/Fvkry.sol\":5727:5737  msg.sender */\n      caller\n        /* \"contracts/Fvkry.sol\":5710:5738  userLockedAssets[msg.sender] */\n      0xffffffffffffffffffffffffffffffffffffffff\n      and\n      0xffffffffffffffffffffffffffffffffffffffff\n      and\n      dup2\n      mstore\n      0x20\n      add\n      swap1\n      dup2\n      mstore\n      0x20\n      add\n      0x00\n      keccak256\n        /* \"contracts/Fvkry.sol\":5710:5746  userLockedAssets[msg.sender][_vault] */\n      0x00\n        /* \"contracts/Fvkry.sol\":5739:5745  _vault */\n      dup7\n        /* \"contracts/Fvkry.sol\":5710:5746  userLockedAssets[msg.sender][_vault] */\n      0xff\n      and\n      0xff\n      and\n      dup2\n      mstore\n      0x20\n      add\n      swap1\n      dup2\n      mstore\n      0x20\n      add\n      0x00\n      keccak256\n        /* \"contracts/Fvkry.sol\":5747:5755  _assetId */\n      dup7\n        /* \"contracts/Fvkry.sol\":5710:5756  userLockedAssets[msg.sender][_vault][_assetId] */\n      0xffffffff\n      and\n      dup2\n      sload\n      dup2\n      lt\n      tag_241\n      jumpi\n      tag_242\n      tag_155\n      jump\t// in\n    tag_242:\n    tag_241:\n      swap1\n      0x00\n      mstore\n      keccak256(0x00, 0x20)\n      swap1\n      0x05\n      mul\n      add\n        /* \"contracts/Fvkry.sol\":5710:5763  userLockedAssets[msg.sender][_vault][_assetId].amount */\n      0x01\n      add\n        /* \"contracts/Fvkry.sol\":5710:5779  userLockedAssets[msg.sender][_vault][_assetId].amount = updateBalance */\n      dup2\n      swap1\n      sstore\n      pop\n        /* \"contracts/Fvkry.sol\":5799:5803  lock */\n      dup2\n        /* \"contracts/Fvkry.sol\":5799:5812  lock.isNative */\n      0x04\n      add\n      0x01\n      swap1\n      sload\n      swap1\n      0x0100\n      exp\n      swap1\n      div\n      0xff\n      and\n        /* \"contracts/Fvkry.sol\":5796:6264  if(lock.isNative) {... */\n      iszero\n      tag_244\n      jumpi\n        /* \"contracts/Fvkry.sol\":5859:5871  bool success */\n      0x00\n        /* \"contracts/Fvkry.sol\":5877:5887  msg.sender */\n      caller\n        /* \"contracts/Fvkry.sol\":5877:5892  msg.sender.call */\n      0xffffffffffffffffffffffffffffffffffffffff\n      and\n        /* \"contracts/Fvkry.sol\":5900:5907  _amount */\n      dup5\n        /* \"contracts/Fvkry.sol\":5877:5912  msg.sender.call{value: _amount}(\"\") */\n      mload(0x40)\n      tag_245\n      swap1\n      tag_246\n      jump\t// in\n    tag_245:\n      0x00\n      mload(0x40)\n      dup1\n      dup4\n      sub\n      dup2\n      dup6\n      dup8\n      gas\n      call\n      swap3\n      pop\n      pop\n      pop\n      returndatasize\n      dup1\n      0x00\n      dup2\n      eq\n      tag_249\n      jumpi\n      mload(0x40)\n      swap2\n      pop\n      and(add(returndatasize, 0x3f), not(0x1f))\n      dup3\n      add\n      0x40\n      mstore\n      returndatasize\n      dup3\n      mstore\n      returndatasize\n      0x00\n      0x20\n      dup5\n      add\n      returndatacopy\n      jump(tag_248)\n    tag_249:\n      0x60\n      swap2\n      pop\n    tag_248:\n      pop\n        /* \"contracts/Fvkry.sol\":5858:5912  (bool success, ) = msg.sender.call{value: _amount}(\"\") */\n      pop\n      swap1\n      pop\n        /* \"contracts/Fvkry.sol\":5935:5942  success */\n      dup1\n        /* \"contracts/Fvkry.sol\":5927:5966  require(success, \"ETH transfer failed\") */\n      tag_250\n      jumpi\n      mload(0x40)\n      0x08c379a000000000000000000000000000000000000000000000000000000000\n      dup2\n      mstore\n      0x04\n      add\n      tag_251\n      swap1\n      tag_252\n      jump\t// in\n    tag_251:\n      mload(0x40)\n      dup1\n      swap2\n      sub\n      swap1\n      revert\n    tag_250:\n        /* \"contracts/Fvkry.sol\":5983:6043  recordTransac(address(0), _vault, _amount, lock.title, true) */\n      tag_253\n        /* \"contracts/Fvkry.sol\":6005:6006  0 */\n      0x00\n        /* \"contracts/Fvkry.sol\":6009:6015  _vault */\n      dup7\n        /* \"contracts/Fvkry.sol\":6017:6024  _amount */\n      dup7\n        /* \"contracts/Fvkry.sol\":6026:6030  lock */\n      dup7\n        /* \"contracts/Fvkry.sol\":6026:6036  lock.title */\n      0x03\n      add\n        /* \"contracts/Fvkry.sol\":5983:6043  recordTransac(address(0), _vault, _amount, lock.title, true) */\n      dup1\n      sload\n      tag_254\n      swap1\n      tag_164\n      jump\t// in\n    tag_254:\n      dup1\n      0x1f\n      add\n      0x20\n      dup1\n      swap2\n      div\n      mul\n      0x20\n      add\n      mload(0x40)\n      swap1\n      dup2\n      add\n      0x40\n      mstore\n      dup1\n      swap3\n      swap2\n      swap1\n      dup2\n      dup2\n      mstore\n      0x20\n      add\n      dup3\n      dup1\n      sload\n      tag_255\n      swap1\n      tag_164\n      jump\t// in\n    tag_255:\n      dup1\n      iszero\n      tag_256\n      jumpi\n      dup1\n      0x1f\n      lt\n      tag_257\n      jumpi\n      0x0100\n      dup1\n      dup4\n      sload\n      div\n      mul\n      dup4\n      mstore\n      swap2\n      0x20\n      add\n      swap2\n      jump(tag_256)\n    tag_257:\n      dup3\n      add\n      swap2\n      swap1\n      0x00\n      mstore\n      keccak256(0x00, 0x20)\n      swap1\n    tag_258:\n      dup2\n      sload\n      dup2\n      mstore\n      swap1\n      0x01\n      add\n      swap1\n      0x20\n      add\n      dup1\n      dup4\n      gt\n      tag_258\n      jumpi\n      dup3\n      swap1\n      sub\n      0x1f\n      and\n      dup3\n      add\n      swap2\n    tag_256:\n      pop\n      pop\n      pop\n      pop\n      pop\n        /* \"contracts/Fvkry.sol\":6038:6042  true */\n      0x01\n        /* \"contracts/Fvkry.sol\":5983:5996  recordTransac */\n      tag_119\n        /* \"contracts/Fvkry.sol\":5983:6043  recordTransac(address(0), _vault, _amount, lock.title, true) */\n      jump\t// in\n    tag_253:\n        /* \"contracts/Fvkry.sol\":5814:6055  {... */\n      pop\n        /* \"contracts/Fvkry.sol\":5796:6264  if(lock.isNative) {... */\n      jump(tag_259)\n    tag_244:\n        /* \"contracts/Fvkry.sol\":6114:6166  IERC20(lock.token).safeTransfer(msg.sender, _amount) */\n      tag_260\n        /* \"contracts/Fvkry.sol\":6146:6156  msg.sender */\n      caller\n        /* \"contracts/Fvkry.sol\":6158:6165  _amount */\n      dup5\n        /* \"contracts/Fvkry.sol\":6121:6125  lock */\n      dup5\n        /* \"contracts/Fvkry.sol\":6121:6131  lock.token */\n      0x00\n      add\n      0x00\n      swap1\n      sload\n      swap1\n      0x0100\n      exp\n      swap1\n      div\n      0xffffffffffffffffffffffffffffffffffffffff\n      and\n        /* \"contracts/Fvkry.sol\":6114:6145  IERC20(lock.token).safeTransfer */\n      0xffffffffffffffffffffffffffffffffffffffff\n      and\n      tag_261\n      swap1\n        /* \"contracts/Fvkry.sol\":6114:6166  IERC20(lock.token).safeTransfer(msg.sender, _amount) */\n      swap3\n      swap2\n      swap1\n      0xffffffff\n      and\n      jump\t// in\n    tag_260:\n        /* \"contracts/Fvkry.sol\":6183:6252  recordTransac(address(lock.token), _vault, _amount, lock.title, true) */\n      tag_262\n        /* \"contracts/Fvkry.sol\":6205:6209  lock */\n      dup3\n        /* \"contracts/Fvkry.sol\":6205:6215  lock.token */\n      0x00\n      add\n      0x00\n      swap1\n      sload\n      swap1\n      0x0100\n      exp\n      swap1\n      div\n      0xffffffffffffffffffffffffffffffffffffffff\n      and\n        /* \"contracts/Fvkry.sol\":6218:6224  _vault */\n      dup6\n        /* \"contracts/Fvkry.sol\":6226:6233  _amount */\n      dup6\n        /* \"contracts/Fvkry.sol\":6235:6239  lock */\n      dup6\n        /* \"contracts/Fvkry.sol\":6235:6245  lock.title */\n      0x03\n      add\n        /* \"contracts/Fvkry.sol\":6183:6252  recordTransac(address(lock.token), _vault, _amount, lock.title, true) */\n      dup1\n      sload\n      tag_263\n      swap1\n      tag_164\n      jump\t// in\n    tag_263:\n      dup1\n      0x1f\n      add\n      0x20\n      dup1\n      swap2\n      div\n      mul\n      0x20\n      add\n      mload(0x40)\n      swap1\n      dup2\n      add\n      0x40\n      mstore\n      dup1\n      swap3\n      swap2\n      swap1\n      dup2\n      dup2\n      mstore\n      0x20\n      add\n      dup3\n      dup1\n      sload\n      tag_264\n      swap1\n      tag_164\n      jump\t// in\n    tag_264:\n      dup1\n      iszero\n      tag_265\n      jumpi\n      dup1\n      0x1f\n      lt\n      tag_266\n      jumpi\n      0x0100\n      dup1\n      dup4\n      sload\n      div\n      mul\n      dup4\n      mstore\n      swap2\n      0x20\n      add\n      swap2\n      jump(tag_265)\n    tag_266:\n      dup3\n      add\n      swap2\n      swap1\n      0x00\n      mstore\n      keccak256(0x00, 0x20)\n      swap1\n    tag_267:\n      dup2\n      sload\n      dup2\n      mstore\n      swap1\n      0x01\n      add\n      swap1\n      0x20\n      add\n      dup1\n      dup4\n      gt\n      tag_267\n      jumpi\n      dup3\n      swap1\n      sub\n      0x1f\n      and\n      dup3\n      add\n      swap2\n    tag_265:\n      pop\n      pop\n      pop\n      pop\n      pop\n        /* \"contracts/Fvkry.sol\":6247:6251  true */\n      0x01\n        /* \"contracts/Fvkry.sol\":6183:6196  recordTransac */\n      tag_119\n        /* \"contracts/Fvkry.sol\":6183:6252  recordTransac(address(lock.token), _vault, _amount, lock.title, true) */\n      jump\t// in\n    tag_262:\n        /* \"contracts/Fvkry.sol\":5796:6264  if(lock.isNative) {... */\n    tag_259:\n        /* \"contracts/Fvkry.sol\":6305:6309  lock */\n      dup2\n        /* \"contracts/Fvkry.sol\":6305:6315  lock.token */\n      0x00\n      add\n      0x00\n      swap1\n      sload\n      swap1\n      0x0100\n      exp\n      swap1\n      div\n      0xffffffffffffffffffffffffffffffffffffffff\n      and\n        /* \"contracts/Fvkry.sol\":6281:6364  AssetTransfered(address(lock.token), _amount , lock.title, _vault, block.timestamp) */\n      0xffffffffffffffffffffffffffffffffffffffff\n      and\n      0x16c4c024c274b52575ffc17396bbc4a59db7dd13aac28373e025a9f6269f9e03\n        /* \"contracts/Fvkry.sol\":6318:6325  _amount */\n      dup5\n        /* \"contracts/Fvkry.sol\":6328:6332  lock */\n      dup5\n        /* \"contracts/Fvkry.sol\":6328:6338  lock.title */\n      0x03\n      add\n        /* \"contracts/Fvkry.sol\":6340:6346  _vault */\n      dup8\n        /* \"contracts/Fvkry.sol\":6348:6363  block.timestamp */\n      timestamp\n        /* \"contracts/Fvkry.sol\":6281:6364  AssetTransfered(address(lock.token), _amount , lock.title, _vault, block.timestamp) */\n      mload(0x40)\n      tag_268\n      swap5\n      swap4\n      swap3\n      swap2\n      swap1\n      tag_170\n      jump\t// in\n    tag_268:\n      mload(0x40)\n      dup1\n      swap2\n      sub\n      swap1\n      log2\n        /* \"contracts/Fvkry.sol\":5015:6372  {... */\n      pop\n      pop\n        /* \"@openzeppelin/contracts/utils/ReentrancyGuard.sol\":2542:2562  _nonReentrantAfter() */\n      tag_269\n        /* \"@openzeppelin/contracts/utils/ReentrancyGuard.sol\":2542:2560  _nonReentrantAfter */\n      tag_124\n        /* \"@openzeppelin/contracts/utils/ReentrancyGuard.sol\":2542:2562  _nonReentrantAfter() */\n      jump\t// in\n    tag_269:\n        /* \"contracts/Fvkry.sol\":4921:6372  function transferAsset( uint32 _assetId,uint8 _vault, uint256 _amount) external  nonReentrant {... */\n      pop\n      pop\n      pop\n      jump\t// out\n        /* \"contracts/Fvkry.sol\":2285:2864  function addToLockedETH(uint8 _vault, uint32 _assetID) external payable  nonReentrant {... */\n    tag_84:\n        /* \"@openzeppelin/contracts/utils/ReentrancyGuard.sol\":2500:2521  _nonReentrantBefore() */\n      tag_271\n        /* \"@openzeppelin/contracts/utils/ReentrancyGuard.sol\":2500:2519  _nonReentrantBefore */\n      tag_92\n        /* \"@openzeppelin/contracts/utils/ReentrancyGuard.sol\":2500:2521  _nonReentrantBefore() */\n      jump\t// in\n    tag_271:\n        /* \"contracts/Fvkry.sol\":2402:2403  0 */\n      0x00\n        /* \"contracts/Fvkry.sol\":2390:2399  msg.value */\n      callvalue\n        /* \"contracts/Fvkry.sol\":2390:2403  msg.value > 0 */\n      gt\n        /* \"contracts/Fvkry.sol\":2382:2459  require(msg.value > 0, \"ETH to add to lock must be an amount greater than 0\") */\n      tag_273\n      jumpi\n      mload(0x40)\n      0x08c379a000000000000000000000000000000000000000000000000000000000\n      dup2\n      mstore\n      0x04\n      add\n      tag_274\n      swap1\n      tag_275\n      jump\t// in\n    tag_274:\n      mload(0x40)\n      dup1\n      swap2\n      sub\n      swap1\n      revert\n    tag_273:\n        /* \"contracts/Fvkry.sol\":2472:2489  Lock storage lock */\n      0x00\n        /* \"contracts/Fvkry.sol\":2492:2508  userLockedAssets */\n      0x02\n        /* \"contracts/Fvkry.sol\":2492:2520  userLockedAssets[msg.sender] */\n      0x00\n        /* \"contracts/Fvkry.sol\":2509:2519  msg.sender */\n      caller\n        /* \"contracts/Fvkry.sol\":2492:2520  userLockedAssets[msg.sender] */\n      0xffffffffffffffffffffffffffffffffffffffff\n      and\n      0xffffffffffffffffffffffffffffffffffffffff\n      and\n      dup2\n      mstore\n      0x20\n      add\n      swap1\n      dup2\n      mstore\n      0x20\n      add\n      0x00\n      keccak256\n        /* \"contracts/Fvkry.sol\":2492:2528  userLockedAssets[msg.sender][_vault] */\n      0x00\n        /* \"contracts/Fvkry.sol\":2521:2527  _vault */\n      dup5\n        /* \"contracts/Fvkry.sol\":2492:2528  userLockedAssets[msg.sender][_vault] */\n      0xff\n      and\n      0xff\n      and\n      dup2\n      mstore\n      0x20\n      add\n      swap1\n      dup2\n      mstore\n      0x20\n      add\n      0x00\n      keccak256\n        /* \"contracts/Fvkry.sol\":2529:2537  _assetID */\n      dup3\n        /* \"contracts/Fvkry.sol\":2492:2538  userLockedAssets[msg.sender][_vault][_assetID] */\n      0xffffffff\n      and\n      dup2\n      sload\n      dup2\n      lt\n      tag_276\n      jumpi\n      tag_277\n      tag_155\n      jump\t// in\n    tag_277:\n    tag_276:\n      swap1\n      0x00\n      mstore\n      keccak256(0x00, 0x20)\n      swap1\n      0x05\n      mul\n      add\n        /* \"contracts/Fvkry.sol\":2472:2538  Lock storage lock = userLockedAssets[msg.sender][_vault][_assetID] */\n      swap1\n      pop\n        /* \"contracts/Fvkry.sol\":2653:2662  msg.value */\n      callvalue\n        /* \"contracts/Fvkry.sol\":2596:2612  userLockedAssets */\n      0x02\n        /* \"contracts/Fvkry.sol\":2596:2624  userLockedAssets[msg.sender] */\n      0x00\n        /* \"contracts/Fvkry.sol\":2613:2623  msg.sender */\n      caller\n        /* \"contracts/Fvkry.sol\":2596:2624  userLockedAssets[msg.sender] */\n      0xffffffffffffffffffffffffffffffffffffffff\n      and\n      0xffffffffffffffffffffffffffffffffffffffff\n      and\n      dup2\n      mstore\n      0x20\n      add\n      swap1\n      dup2\n      mstore\n      0x20\n      add\n      0x00\n      keccak256\n        /* \"contracts/Fvkry.sol\":2596:2632  userLockedAssets[msg.sender][_vault] */\n      0x00\n        /* \"contracts/Fvkry.sol\":2625:2631  _vault */\n      dup6\n        /* \"contracts/Fvkry.sol\":2596:2632  userLockedAssets[msg.sender][_vault] */\n      0xff\n      and\n      0xff\n      and\n      dup2\n      mstore\n      0x20\n      add\n      swap1\n      dup2\n      mstore\n      0x20\n      add\n      0x00\n      keccak256\n        /* \"contracts/Fvkry.sol\":2633:2641  _assetID */\n      dup4\n        /* \"contracts/Fvkry.sol\":2596:2642  userLockedAssets[msg.sender][_vault][_assetID] */\n      0xffffffff\n      and\n      dup2\n      sload\n      dup2\n      lt\n      tag_279\n      jumpi\n      tag_280\n      tag_155\n      jump\t// in\n    tag_280:\n    tag_279:\n      swap1\n      0x00\n      mstore\n      keccak256(0x00, 0x20)\n      swap1\n      0x05\n      mul\n      add\n        /* \"contracts/Fvkry.sol\":2596:2649  userLockedAssets[msg.sender][_vault][_assetID].amount */\n      0x01\n      add\n      0x00\n        /* \"contracts/Fvkry.sol\":2596:2662  userLockedAssets[msg.sender][_vault][_assetID].amount += msg.value */\n      dup3\n      dup3\n      sload\n      tag_282\n      swap2\n      swap1\n      tag_114\n      jump\t// in\n    tag_282:\n      swap3\n      pop\n      pop\n      dup2\n      swap1\n      sstore\n      pop\n        /* \"contracts/Fvkry.sol\":2705:2768  recordTransac(address(0), _vault, msg.value, lock.title, false) */\n      tag_283\n        /* \"contracts/Fvkry.sol\":2727:2728  0 */\n      0x00\n        /* \"contracts/Fvkry.sol\":2731:2737  _vault */\n      dup5\n        /* \"contracts/Fvkry.sol\":2739:2748  msg.value */\n      callvalue\n        /* \"contracts/Fvkry.sol\":2750:2754  lock */\n      dup5\n        /* \"contracts/Fvkry.sol\":2750:2760  lock.title */\n      0x03\n      add\n        /* \"contracts/Fvkry.sol\":2705:2768  recordTransac(address(0), _vault, msg.value, lock.title, false) */\n      dup1\n      sload\n      tag_284\n      swap1\n      tag_164\n      jump\t// in\n    tag_284:\n      dup1\n      0x1f\n      add\n      0x20\n      dup1\n      swap2\n      div\n      mul\n      0x20\n      add\n      mload(0x40)\n      swap1\n      dup2\n      add\n      0x40\n      mstore\n      dup1\n      swap3\n      swap2\n      swap1\n      dup2\n      dup2\n      mstore\n      0x20\n      add\n      dup3\n      dup1\n      sload\n      tag_285\n      swap1\n      tag_164\n      jump\t// in\n    tag_285:\n      dup1\n      iszero\n      tag_286\n      jumpi\n      dup1\n      0x1f\n      lt\n      tag_287\n      jumpi\n      0x0100\n      dup1\n      dup4\n      sload\n      div\n      mul\n      dup4\n      mstore\n      swap2\n      0x20\n      add\n      swap2\n      jump(tag_286)\n    tag_287:\n      dup3\n      add\n      swap2\n      swap1\n      0x00\n      mstore\n      keccak256(0x00, 0x20)\n      swap1\n    tag_288:\n      dup2\n      sload\n      dup2\n      mstore\n      swap1\n      0x01\n      add\n      swap1\n      0x20\n      add\n      dup1\n      dup4\n      gt\n      tag_288\n      jumpi\n      dup3\n      swap1\n      sub\n      0x1f\n      and\n      dup3\n      add\n      swap2\n    tag_286:\n      pop\n      pop\n      pop\n      pop\n      pop\n        /* \"contracts/Fvkry.sol\":2762:2767  false */\n      0x00\n        /* \"contracts/Fvkry.sol\":2705:2718  recordTransac */\n      tag_119\n        /* \"contracts/Fvkry.sol\":2705:2768  recordTransac(address(0), _vault, msg.value, lock.title, false) */\n      jump\t// in\n    tag_283:\n        /* \"contracts/Fvkry.sol\":2805:2806  0 */\n      0x00\n        /* \"contracts/Fvkry.sol\":2786:2856  AssetAdded(address(0), msg.value, lock.title, _vault, block.timestamp) */\n      0xffffffffffffffffffffffffffffffffffffffff\n      and\n      0x0b99ce8321b94ffaa5c5021540ec0668dcba948d044760a5ef298fa0513b1ef4\n        /* \"contracts/Fvkry.sol\":2809:2818  msg.value */\n      callvalue\n        /* \"contracts/Fvkry.sol\":2820:2824  lock */\n      dup4\n        /* \"contracts/Fvkry.sol\":2820:2830  lock.title */\n      0x03\n      add\n        /* \"contracts/Fvkry.sol\":2832:2838  _vault */\n      dup7\n        /* \"contracts/Fvkry.sol\":2840:2855  block.timestamp */\n      timestamp\n        /* \"contracts/Fvkry.sol\":2786:2856  AssetAdded(address(0), msg.value, lock.title, _vault, block.timestamp) */\n      mload(0x40)\n      tag_289\n      swap5\n      swap4\n      swap3\n      swap2\n      swap1\n      tag_170\n      jump\t// in\n    tag_289:\n      mload(0x40)\n      dup1\n      swap2\n      sub\n      swap1\n      log2\n        /* \"contracts/Fvkry.sol\":2371:2864  {... */\n      pop\n        /* \"@openzeppelin/contracts/utils/ReentrancyGuard.sol\":2542:2562  _nonReentrantAfter() */\n      tag_290\n        /* \"@openzeppelin/contracts/utils/ReentrancyGuard.sol\":2542:2560  _nonReentrantAfter */\n      tag_124\n        /* \"@openzeppelin/contracts/utils/ReentrancyGuard.sol\":2542:2562  _nonReentrantAfter() */\n      jump\t// in\n    tag_290:\n        /* \"contracts/Fvkry.sol\":2285:2864  function addToLockedETH(uint8 _vault, uint32 _assetID) external payable  nonReentrant {... */\n      pop\n      pop\n      jump\t// out\n        /* \"@openzeppelin/contracts/access/Ownable.sol\":2543:2758  function transferOwnership(address newOwner) public virtual onlyOwner {... */\n    tag_89:\n        /* \"@openzeppelin/contracts/access/Ownable.sol\":1531:1544  _checkOwner() */\n      tag_292\n        /* \"@openzeppelin/contracts/access/Ownable.sol\":1531:1542  _checkOwner */\n      tag_190\n        /* \"@openzeppelin/contracts/access/Ownable.sol\":1531:1544  _checkOwner() */\n      jump\t// in\n    tag_292:\n        /* \"@openzeppelin/contracts/access/Ownable.sol\":2647:2648  0 */\n      0x00\n        /* \"@openzeppelin/contracts/access/Ownable.sol\":2627:2649  newOwner == address(0) */\n      0xffffffffffffffffffffffffffffffffffffffff\n      and\n        /* \"@openzeppelin/contracts/access/Ownable.sol\":2627:2635  newOwner */\n      dup2\n        /* \"@openzeppelin/contracts/access/Ownable.sol\":2627:2649  newOwner == address(0) */\n      0xffffffffffffffffffffffffffffffffffffffff\n      and\n      sub\n        /* \"@openzeppelin/contracts/access/Ownable.sol\":2623:2714  if (newOwner == address(0)) {... */\n      tag_294\n      jumpi\n        /* \"@openzeppelin/contracts/access/Ownable.sol\":2700:2701  0 */\n      0x00\n        /* \"@openzeppelin/contracts/access/Ownable.sol\":2672:2703  OwnableInvalidOwner(address(0)) */\n      mload(0x40)\n      0x1e4fbdf700000000000000000000000000000000000000000000000000000000\n      dup2\n      mstore\n      0x04\n      add\n      tag_295\n      swap2\n      swap1\n      tag_65\n      jump\t// in\n    tag_295:\n      mload(0x40)\n      dup1\n      swap2\n      sub\n      swap1\n      revert\n        /* \"@openzeppelin/contracts/access/Ownable.sol\":2623:2714  if (newOwner == address(0)) {... */\n    tag_294:\n        /* \"@openzeppelin/contracts/access/Ownable.sol\":2723:2751  _transferOwnership(newOwner) */\n      tag_296\n        /* \"@openzeppelin/contracts/access/Ownable.sol\":2742:2750  newOwner */\n      dup2\n        /* \"@openzeppelin/contracts/access/Ownable.sol\":2723:2741  _transferOwnership */\n      tag_193\n        /* \"@openzeppelin/contracts/access/Ownable.sol\":2723:2751  _transferOwnership(newOwner) */\n      jump\t// in\n    tag_296:\n        /* \"@openzeppelin/contracts/access/Ownable.sol\":2543:2758  function transferOwnership(address newOwner) public virtual onlyOwner {... */\n      pop\n      jump\t// out\n        /* \"@openzeppelin/contracts/utils/ReentrancyGuard.sol\":2575:2882  function _nonReentrantBefore() private {... */\n    tag_92:\n        /* \"@openzeppelin/contracts/utils/ReentrancyGuard.sol\":1899:1900  2 */\n      0x02\n        /* \"@openzeppelin/contracts/utils/ReentrancyGuard.sol\":2702:2709  _status */\n      sload(0x01)\n        /* \"@openzeppelin/contracts/utils/ReentrancyGuard.sol\":2702:2720  _status == ENTERED */\n      sub\n        /* \"@openzeppelin/contracts/utils/ReentrancyGuard.sol\":2698:2784  if (_status == ENTERED) {... */\n      tag_298\n      jumpi\n        /* \"@openzeppelin/contracts/utils/ReentrancyGuard.sol\":2743:2773  ReentrancyGuardReentrantCall() */\n      mload(0x40)\n      0x3ee5aeb500000000000000000000000000000000000000000000000000000000\n      dup2\n      mstore\n      0x04\n      add\n      mload(0x40)\n      dup1\n      swap2\n      sub\n      swap1\n      revert\n        /* \"@openzeppelin/contracts/utils/ReentrancyGuard.sol\":2698:2784  if (_status == ENTERED) {... */\n    tag_298:\n        /* \"@openzeppelin/contracts/utils/ReentrancyGuard.sol\":1899:1900  2 */\n      0x02\n        /* \"@openzeppelin/contracts/utils/ReentrancyGuard.sol\":2858:2865  _status */\n      0x01\n        /* \"@openzeppelin/contracts/utils/ReentrancyGuard.sol\":2858:2875  _status = ENTERED */\n      dup2\n      swap1\n      sstore\n      pop\n        /* \"@openzeppelin/contracts/utils/ReentrancyGuard.sol\":2575:2882  function _nonReentrantBefore() private {... */\n      jump\t// out\n        /* \"@openzeppelin/contracts/token/ERC20/utils/SafeERC20.sol\":1618:1806  function safeTransferFrom(IERC20 token, address from, address to, uint256 value) internal {... */\n    tag_112:\n        /* \"@openzeppelin/contracts/token/ERC20/utils/SafeERC20.sol\":1718:1799  _callOptionalReturn(token, abi.encodeCall(token.transferFrom, (from, to, value))) */\n      tag_300\n        /* \"@openzeppelin/contracts/token/ERC20/utils/SafeERC20.sol\":1738:1743  token */\n      dup5\n        /* \"@openzeppelin/contracts/token/ERC20/utils/SafeERC20.sol\":1760:1765  token */\n      dup6\n        /* \"@openzeppelin/contracts/token/ERC20/utils/SafeERC20.sol\":1760:1778  token.transferFrom */\n      0xffffffffffffffffffffffffffffffffffffffff\n      and\n      0x23b872dd\n        /* \"@openzeppelin/contracts/token/ERC20/utils/SafeERC20.sol\":1781:1785  from */\n      dup7\n        /* \"@openzeppelin/contracts/token/ERC20/utils/SafeERC20.sol\":1787:1789  to */\n      dup7\n        /* \"@openzeppelin/contracts/token/ERC20/utils/SafeERC20.sol\":1791:1796  value */\n      dup7\n        /* \"@openzeppelin/contracts/token/ERC20/utils/SafeERC20.sol\":1745:1798  abi.encodeCall(token.transferFrom, (from, to, value)) */\n      add(0x24, mload(0x40))\n      tag_301\n      swap4\n      swap3\n      swap2\n      swap1\n      tag_302\n      jump\t// in\n    tag_301:\n      mload(0x40)\n      0x20\n      dup2\n      dup4\n      sub\n      sub\n      dup2\n      mstore\n      swap1\n      0x40\n      mstore\n      swap2\n      pop\n      0xe0\n      shl\n      0x20\n      dup3\n      add\n      dup1\n      mload\n      0xffffffffffffffffffffffffffffffffffffffffffffffffffffffff\n      dup4\n      dup2\n      dup4\n      and\n      or\n      dup4\n      mstore\n      pop\n      pop\n      pop\n      pop\n        /* \"@openzeppelin/contracts/token/ERC20/utils/SafeERC20.sol\":1718:1737  _callOptionalReturn */\n      tag_303\n        /* \"@openzeppelin/contracts/token/ERC20/utils/SafeERC20.sol\":1718:1799  _callOptionalReturn(token, abi.encodeCall(token.transferFrom, (from, to, value))) */\n      jump\t// in\n    tag_300:\n        /* \"@openzeppelin/contracts/token/ERC20/utils/SafeERC20.sol\":1618:1806  function safeTransferFrom(IERC20 token, address from, address to, uint256 value) internal {... */\n      pop\n      pop\n      pop\n      pop\n      jump\t// out\n        /* \"contracts/Fvkry.sol\":6406:6793  function recordTransac(address _token, uint8 _vault, uint256 _amount, string memory _title, bool _withdraw) internal {... */\n    tag_119:\n        /* \"contracts/Fvkry.sol\":6534:6550  userTransactions */\n      0x03\n        /* \"contracts/Fvkry.sol\":6534:6562  userTransactions[msg.sender] */\n      0x00\n        /* \"contracts/Fvkry.sol\":6551:6561  msg.sender */\n      caller\n        /* \"contracts/Fvkry.sol\":6534:6562  userTransactions[msg.sender] */\n      0xffffffffffffffffffffffffffffffffffffffff\n      and\n      0xffffffffffffffffffffffffffffffffffffffff\n      and\n      dup2\n      mstore\n      0x20\n      add\n      swap1\n      dup2\n      mstore\n      0x20\n      add\n      0x00\n      keccak256\n        /* \"contracts/Fvkry.sol\":6534:6570  userTransactions[msg.sender][_vault] */\n      0x00\n        /* \"contracts/Fvkry.sol\":6563:6569  _vault */\n      dup6\n        /* \"contracts/Fvkry.sol\":6534:6570  userTransactions[msg.sender][_vault] */\n      0xff\n      and\n      0xff\n      and\n      dup2\n      mstore\n      0x20\n      add\n      swap1\n      dup2\n      mstore\n      0x20\n      add\n      0x00\n      keccak256\n        /* \"contracts/Fvkry.sol\":6576:6784  TransacHist({ ... */\n      mload(0x40)\n      dup1\n      0xa0\n      add\n      0x40\n      mstore\n      dup1\n        /* \"contracts/Fvkry.sol\":6611:6617  _token */\n      dup8\n        /* \"contracts/Fvkry.sol\":6576:6784  TransacHist({ ... */\n      0xffffffffffffffffffffffffffffffffffffffff\n      and\n      dup2\n      mstore\n      0x20\n      add\n        /* \"contracts/Fvkry.sol\":6645:6652  _amount */\n      dup6\n        /* \"contracts/Fvkry.sol\":6576:6784  TransacHist({ ... */\n      dup2\n      mstore\n      0x20\n      add\n        /* \"contracts/Fvkry.sol\":6676:6682  _title */\n      dup5\n        /* \"contracts/Fvkry.sol\":6576:6784  TransacHist({ ... */\n      dup2\n      mstore\n      0x20\n      add\n        /* \"contracts/Fvkry.sol\":6712:6721  _withdraw */\n      dup4\n        /* \"contracts/Fvkry.sol\":6576:6784  TransacHist({ ... */\n      iszero\n      iszero\n      dup2\n      mstore\n      0x20\n      add\n        /* \"contracts/Fvkry.sol\":6750:6765  block.timestamp */\n      timestamp\n        /* \"contracts/Fvkry.sol\":6576:6784  TransacHist({ ... */\n      dup2\n      mstore\n      pop\n        /* \"contracts/Fvkry.sol\":6534:6785  userTransactions[msg.sender][_vault].push(TransacHist({ ... */\n      swap1\n      dup1\n      0x01\n      dup2\n      sload\n      add\n      dup1\n      dup3\n      sstore\n      dup1\n      swap2\n      pop\n      pop\n      0x01\n      swap1\n      sub\n      swap1\n      0x00\n      mstore\n      keccak256(0x00, 0x20)\n      swap1\n      0x05\n      mul\n      add\n      0x00\n      swap1\n      swap2\n      swap1\n      swap2\n      swap1\n      swap2\n      pop\n      0x00\n      dup3\n      add\n      mload\n      dup2\n      0x00\n      add\n      exp(0x0100, 0x00)\n      dup2\n      sload\n      dup2\n      0xffffffffffffffffffffffffffffffffffffffff\n      mul\n      not\n      and\n      swap1\n      dup4\n      0xffffffffffffffffffffffffffffffffffffffff\n      and\n      mul\n      or\n      swap1\n      sstore\n      pop\n      0x20\n      dup3\n      add\n      mload\n      dup2\n      0x01\n      add\n      sstore\n      0x40\n      dup3\n      add\n      mload\n      dup2\n      0x02\n      add\n      swap1\n      dup2\n      tag_306\n      swap2\n      swap1\n      tag_117\n      jump\t// in\n    tag_306:\n      pop\n      0x60\n      dup3\n      add\n      mload\n      dup2\n      0x03\n      add\n      exp(0x0100, 0x00)\n      dup2\n      sload\n      dup2\n      0xff\n      mul\n      not\n      and\n      swap1\n      dup4\n      iszero\n      iszero\n      mul\n      or\n      swap1\n      sstore\n      pop\n      0x80\n      dup3\n      add\n      mload\n      dup2\n      0x04\n      add\n      sstore\n      pop\n      pop\n        /* \"contracts/Fvkry.sol\":6406:6793  function recordTransac(address _token, uint8 _vault, uint256 _amount, string memory _title, bool _withdraw) internal {... */\n      pop\n      pop\n      pop\n      pop\n      pop\n      jump\t// out\n        /* \"@openzeppelin/contracts/utils/ReentrancyGuard.sol\":2888:3096  function _nonReentrantAfter() private {... */\n    tag_124:\n        /* \"@openzeppelin/contracts/utils/ReentrancyGuard.sol\":1857:1858  1 */\n      0x01\n        /* \"@openzeppelin/contracts/utils/ReentrancyGuard.sol\":3068:3075  _status */\n      dup1\n        /* \"@openzeppelin/contracts/utils/ReentrancyGuard.sol\":3068:3089  _status = NOT_ENTERED */\n      dup2\n      swap1\n      sstore\n      pop\n        /* \"@openzeppelin/contracts/utils/ReentrancyGuard.sol\":2888:3096  function _nonReentrantAfter() private {... */\n      jump\t// out\n        /* \"@openzeppelin/contracts/access/Ownable.sol\":1796:1958  function _checkOwner() internal view virtual {... */\n    tag_190:\n        /* \"@openzeppelin/contracts/access/Ownable.sol\":1866:1878  _msgSender() */\n      tag_309\n        /* \"@openzeppelin/contracts/access/Ownable.sol\":1866:1876  _msgSender */\n      tag_310\n        /* \"@openzeppelin/contracts/access/Ownable.sol\":1866:1878  _msgSender() */\n      jump\t// in\n    tag_309:\n        /* \"@openzeppelin/contracts/access/Ownable.sol\":1855:1878  owner() != _msgSender() */\n      0xffffffffffffffffffffffffffffffffffffffff\n      and\n        /* \"@openzeppelin/contracts/access/Ownable.sol\":1855:1862  owner() */\n      tag_311\n        /* \"@openzeppelin/contracts/access/Ownable.sol\":1855:1860  owner */\n      tag_63\n        /* \"@openzeppelin/contracts/access/Ownable.sol\":1855:1862  owner() */\n      jump\t// in\n    tag_311:\n        /* \"@openzeppelin/contracts/access/Ownable.sol\":1855:1878  owner() != _msgSender() */\n      0xffffffffffffffffffffffffffffffffffffffff\n      and\n      eq\n        /* \"@openzeppelin/contracts/access/Ownable.sol\":1851:1952  if (owner() != _msgSender()) {... */\n      tag_312\n      jumpi\n        /* \"@openzeppelin/contracts/access/Ownable.sol\":1928:1940  _msgSender() */\n      tag_313\n        /* \"@openzeppelin/contracts/access/Ownable.sol\":1928:1938  _msgSender */\n      tag_310\n        /* \"@openzeppelin/contracts/access/Ownable.sol\":1928:1940  _msgSender() */\n      jump\t// in\n    tag_313:\n        /* \"@openzeppelin/contracts/access/Ownable.sol\":1901:1941  OwnableUnauthorizedAccount(_msgSender()) */\n      mload(0x40)\n      0x118cdaa700000000000000000000000000000000000000000000000000000000\n      dup2\n      mstore\n      0x04\n      add\n      tag_314\n      swap2\n      swap1\n      tag_65\n      jump\t// in\n    tag_314:\n      mload(0x40)\n      dup1\n      swap2\n      sub\n      swap1\n      revert\n        /* \"@openzeppelin/contracts/access/Ownable.sol\":1851:1952  if (owner() != _msgSender()) {... */\n    tag_312:\n        /* \"@openzeppelin/contracts/access/Ownable.sol\":1796:1958  function _checkOwner() internal view virtual {... */\n      jump\t// out\n        /* \"@openzeppelin/contracts/access/Ownable.sol\":2912:3099  function _transferOwnership(address newOwner) internal virtual {... */\n    tag_193:\n        /* \"@openzeppelin/contracts/access/Ownable.sol\":2985:3001  address oldOwner */\n      0x00\n        /* \"@openzeppelin/contracts/access/Ownable.sol\":3004:3010  _owner */\n      dup1\n      0x00\n      swap1\n      sload\n      swap1\n      0x0100\n      exp\n      swap1\n      div\n      0xffffffffffffffffffffffffffffffffffffffff\n      and\n        /* \"@openzeppelin/contracts/access/Ownable.sol\":2985:3010  address oldOwner = _owner */\n      swap1\n      pop\n        /* \"@openzeppelin/contracts/access/Ownable.sol\":3029:3037  newOwner */\n      dup2\n        /* \"@openzeppelin/contracts/access/Ownable.sol\":3020:3026  _owner */\n      0x00\n      dup1\n        /* \"@openzeppelin/contracts/access/Ownable.sol\":3020:3037  _owner = newOwner */\n      0x0100\n      exp\n      dup2\n      sload\n      dup2\n      0xffffffffffffffffffffffffffffffffffffffff\n      mul\n      not\n      and\n      swap1\n      dup4\n      0xffffffffffffffffffffffffffffffffffffffff\n      and\n      mul\n      or\n      swap1\n      sstore\n      pop\n        /* \"@openzeppelin/contracts/access/Ownable.sol\":3083:3091  newOwner */\n      dup2\n        /* \"@openzeppelin/contracts/access/Ownable.sol\":3052:3092  OwnershipTransferred(oldOwner, newOwner) */\n      0xffffffffffffffffffffffffffffffffffffffff\n      and\n        /* \"@openzeppelin/contracts/access/Ownable.sol\":3073:3081  oldOwner */\n      dup2\n        /* \"@openzeppelin/contracts/access/Ownable.sol\":3052:3092  OwnershipTransferred(oldOwner, newOwner) */\n      0xffffffffffffffffffffffffffffffffffffffff\n      and\n      0x8be0079c531659141344cd1fd0a4f28419497f9722a3daafe3b4186f6b6457e0\n      mload(0x40)\n      mload(0x40)\n      dup1\n      swap2\n      sub\n      swap1\n      log3\n        /* \"@openzeppelin/contracts/access/Ownable.sol\":2975:3099  {... */\n      pop\n        /* \"@openzeppelin/contracts/access/Ownable.sol\":2912:3099  function _transferOwnership(address newOwner) internal virtual {... */\n      pop\n      jump\t// out\n        /* \"@openzeppelin/contracts/token/ERC20/utils/SafeERC20.sol\":1219:1379  function safeTransfer(IERC20 token, address to, uint256 value) internal {... */\n    tag_261:\n        /* \"@openzeppelin/contracts/token/ERC20/utils/SafeERC20.sol\":1301:1372  _callOptionalReturn(token, abi.encodeCall(token.transfer, (to, value))) */\n      tag_317\n        /* \"@openzeppelin/contracts/token/ERC20/utils/SafeERC20.sol\":1321:1326  token */\n      dup4\n        /* \"@openzeppelin/contracts/token/ERC20/utils/SafeERC20.sol\":1343:1348  token */\n      dup5\n        /* \"@openzeppelin/contracts/token/ERC20/utils/SafeERC20.sol\":1343:1357  token.transfer */\n      0xffffffffffffffffffffffffffffffffffffffff\n      and\n      0xa9059cbb\n        /* \"@openzeppelin/contracts/token/ERC20/utils/SafeERC20.sol\":1360:1362  to */\n      dup6\n        /* \"@openzeppelin/contracts/token/ERC20/utils/SafeERC20.sol\":1364:1369  value */\n      dup6\n        /* \"@openzeppelin/contracts/token/ERC20/utils/SafeERC20.sol\":1328:1371  abi.encodeCall(token.transfer, (to, value)) */\n      add(0x24, mload(0x40))\n      tag_318\n      swap3\n      swap2\n      swap1\n      tag_319\n      jump\t// in\n    tag_318:\n      mload(0x40)\n      0x20\n      dup2\n      dup4\n      sub\n      sub\n      dup2\n      mstore\n      swap1\n      0x40\n      mstore\n      swap2\n      pop\n      0xe0\n      shl\n      0x20\n      dup3\n      add\n      dup1\n      mload\n      0xffffffffffffffffffffffffffffffffffffffffffffffffffffffff\n      dup4\n      dup2\n      dup4\n      and\n      or\n      dup4\n      mstore\n      pop\n      pop\n      pop\n      pop\n        /* \"@openzeppelin/contracts/token/ERC20/utils/SafeERC20.sol\":1301:1320  _callOptionalReturn */\n      tag_303\n        /* \"@openzeppelin/contracts/token/ERC20/utils/SafeERC20.sol\":1301:1372  _callOptionalReturn(token, abi.encodeCall(token.transfer, (to, value))) */\n      jump\t// in\n    tag_317:\n        /* \"@openzeppelin/contracts/token/ERC20/utils/SafeERC20.sol\":1219:1379  function safeTransfer(IERC20 token, address to, uint256 value) internal {... */\n      pop\n      pop\n      pop\n      jump\t// out\n        /* \"@openzeppelin/contracts/token/ERC20/utils/SafeERC20.sol\":7686:8406  function _callOptionalReturn(IERC20 token, bytes memory data) private {... */\n    tag_303:\n        /* \"@openzeppelin/contracts/token/ERC20/utils/SafeERC20.sol\":7766:7784  uint256 returnSize */\n      0x00\n        /* \"@openzeppelin/contracts/token/ERC20/utils/SafeERC20.sol\":7794:7813  uint256 returnValue */\n      dup1\n        /* \"@openzeppelin/contracts/token/ERC20/utils/SafeERC20.sol\":7932:7936  0x20 */\n      0x20\n        /* \"@openzeppelin/contracts/token/ERC20/utils/SafeERC20.sol\":7929:7930  0 */\n      0x00\n        /* \"@openzeppelin/contracts/token/ERC20/utils/SafeERC20.sol\":7922:7926  data */\n      dup5\n        /* \"@openzeppelin/contracts/token/ERC20/utils/SafeERC20.sol\":7916:7927  mload(data) */\n      mload\n        /* \"@openzeppelin/contracts/token/ERC20/utils/SafeERC20.sol\":7909:7913  0x20 */\n      0x20\n        /* \"@openzeppelin/contracts/token/ERC20/utils/SafeERC20.sol\":7903:7907  data */\n      dup7\n        /* \"@openzeppelin/contracts/token/ERC20/utils/SafeERC20.sol\":7899:7914  add(data, 0x20) */\n      add\n        /* \"@openzeppelin/contracts/token/ERC20/utils/SafeERC20.sol\":7896:7897  0 */\n      0x00\n        /* \"@openzeppelin/contracts/token/ERC20/utils/SafeERC20.sol\":7889:7894  token */\n      dup9\n        /* \"@openzeppelin/contracts/token/ERC20/utils/SafeERC20.sol\":7882:7887  gas() */\n      gas\n        /* \"@openzeppelin/contracts/token/ERC20/utils/SafeERC20.sol\":7877:7937  call(gas(), token, 0, add(data, 0x20), mload(data), 0, 0x20) */\n      call\n        /* \"@openzeppelin/contracts/token/ERC20/utils/SafeERC20.sol\":7989:7996  success */\n      dup1\n        /* \"@openzeppelin/contracts/token/ERC20/utils/SafeERC20.sol\":7979:8155  if iszero(success) {... */\n      tag_321\n      jumpi\n        /* \"@openzeppelin/contracts/token/ERC20/utils/SafeERC20.sol\":8033:8037  0x40 */\n      0x40\n        /* \"@openzeppelin/contracts/token/ERC20/utils/SafeERC20.sol\":8027:8038  mload(0x40) */\n      mload\n        /* \"@openzeppelin/contracts/token/ERC20/utils/SafeERC20.sol\":8078:8094  returndatasize() */\n      returndatasize\n        /* \"@openzeppelin/contracts/token/ERC20/utils/SafeERC20.sol\":8075:8076  0 */\n      0x00\n        /* \"@openzeppelin/contracts/token/ERC20/utils/SafeERC20.sol\":8070:8073  ptr */\n      dup3\n        /* \"@openzeppelin/contracts/token/ERC20/utils/SafeERC20.sol\":8055:8095  returndatacopy(ptr, 0, returndatasize()) */\n      returndatacopy\n        /* \"@openzeppelin/contracts/token/ERC20/utils/SafeERC20.sol\":8124:8140  returndatasize() */\n      returndatasize\n        /* \"@openzeppelin/contracts/token/ERC20/utils/SafeERC20.sol\":8119:8122  ptr */\n      dup2\n        /* \"@openzeppelin/contracts/token/ERC20/utils/SafeERC20.sol\":8112:8141  revert(ptr, returndatasize()) */\n      revert\n        /* \"@openzeppelin/contracts/token/ERC20/utils/SafeERC20.sol\":7979:8155  if iszero(success) {... */\n    tag_321:\n        /* \"@openzeppelin/contracts/token/ERC20/utils/SafeERC20.sol\":8182:8198  returndatasize() */\n      returndatasize\n        /* \"@openzeppelin/contracts/token/ERC20/utils/SafeERC20.sol\":8168:8198  returnSize := returndatasize() */\n      swap3\n      pop\n        /* \"@openzeppelin/contracts/token/ERC20/utils/SafeERC20.sol\":8232:8233  0 */\n      0x00\n        /* \"@openzeppelin/contracts/token/ERC20/utils/SafeERC20.sol\":8226:8234  mload(0) */\n      mload\n        /* \"@openzeppelin/contracts/token/ERC20/utils/SafeERC20.sol\":8211:8234  returnValue := mload(0) */\n      swap2\n      pop\n        /* \"@openzeppelin/contracts/token/ERC20/utils/SafeERC20.sol\":7848:8244  {... */\n      pop\n        /* \"@openzeppelin/contracts/token/ERC20/utils/SafeERC20.sol\":8272:8273  0 */\n      0x00\n        /* \"@openzeppelin/contracts/token/ERC20/utils/SafeERC20.sol\":8258:8268  returnSize */\n      dup3\n        /* \"@openzeppelin/contracts/token/ERC20/utils/SafeERC20.sol\":8258:8273  returnSize == 0 */\n      eq\n        /* \"@openzeppelin/contracts/token/ERC20/utils/SafeERC20.sol\":8258:8326  returnSize == 0 ? address(token).code.length == 0 : returnValue != 1 */\n      tag_322\n      jumpi\n        /* \"@openzeppelin/contracts/token/ERC20/utils/SafeERC20.sol\":8325:8326  1 */\n      0x01\n        /* \"@openzeppelin/contracts/token/ERC20/utils/SafeERC20.sol\":8310:8321  returnValue */\n      dup2\n        /* \"@openzeppelin/contracts/token/ERC20/utils/SafeERC20.sol\":8310:8326  returnValue != 1 */\n      eq\n      iszero\n        /* \"@openzeppelin/contracts/token/ERC20/utils/SafeERC20.sol\":8258:8326  returnSize == 0 ? address(token).code.length == 0 : returnValue != 1 */\n      jump(tag_323)\n    tag_322:\n        /* \"@openzeppelin/contracts/token/ERC20/utils/SafeERC20.sol\":8306:8307  0 */\n      0x00\n        /* \"@openzeppelin/contracts/token/ERC20/utils/SafeERC20.sol\":8284:8289  token */\n      dup5\n        /* \"@openzeppelin/contracts/token/ERC20/utils/SafeERC20.sol\":8276:8302  address(token).code.length */\n      0xffffffffffffffffffffffffffffffffffffffff\n      and\n      extcodesize\n        /* \"@openzeppelin/contracts/token/ERC20/utils/SafeERC20.sol\":8276:8307  address(token).code.length == 0 */\n      eq\n        /* \"@openzeppelin/contracts/token/ERC20/utils/SafeERC20.sol\":8258:8326  returnSize == 0 ? address(token).code.length == 0 : returnValue != 1 */\n    tag_323:\n        /* \"@openzeppelin/contracts/token/ERC20/utils/SafeERC20.sol\":8254:8400  if (returnSize == 0 ? address(token).code.length == 0 : returnValue != 1) {... */\n      iszero\n      tag_324\n      jumpi\n        /* \"@openzeppelin/contracts/token/ERC20/utils/SafeERC20.sol\":8382:8387  token */\n      dup4\n        /* \"@openzeppelin/contracts/token/ERC20/utils/SafeERC20.sol\":8349:8389  SafeERC20FailedOperation(address(token)) */\n      mload(0x40)\n      0x5274afe700000000000000000000000000000000000000000000000000000000\n      dup2\n      mstore\n      0x04\n      add\n      tag_325\n      swap2\n      swap1\n      tag_65\n      jump\t// in\n    tag_325:\n      mload(0x40)\n      dup1\n      swap2\n      sub\n      swap1\n      revert\n        /* \"@openzeppelin/contracts/token/ERC20/utils/SafeERC20.sol\":8254:8400  if (returnSize == 0 ? address(token).code.length == 0 : returnValue != 1) {... */\n    tag_324:\n        /* \"@openzeppelin/contracts/token/ERC20/utils/SafeERC20.sol\":7756:8406  {... */\n      pop\n      pop\n        /* \"@openzeppelin/contracts/token/ERC20/utils/SafeERC20.sol\":7686:8406  function _callOptionalReturn(IERC20 token, bytes memory data) private {... */\n      pop\n      pop\n      jump\t// out\n        /* \"@openzeppelin/contracts/utils/Context.sol\":656:752  function _msgSender() internal view virtual returns (address) {... */\n    tag_310:\n        /* \"@openzeppelin/contracts/utils/Context.sol\":709:716  address */\n      0x00\n        /* \"@openzeppelin/contracts/utils/Context.sol\":735:745  msg.sender */\n      caller\n        /* \"@openzeppelin/contracts/utils/Context.sol\":728:745  return msg.sender */\n      swap1\n      pop\n        /* \"@openzeppelin/contracts/utils/Context.sol\":656:752  function _msgSender() internal view virtual returns (address) {... */\n      swap1\n      jump\t// out\n        /* \"#utility.yul\":7:82   */\n    tag_327:\n        /* \"#utility.yul\":40:46   */\n      0x00\n        /* \"#utility.yul\":73:75   */\n      0x40\n        /* \"#utility.yul\":67:76   */\n      mload\n        /* \"#utility.yul\":57:76   */\n      swap1\n      pop\n        /* \"#utility.yul\":7:82   */\n      swap1\n      jump\t// out\n        /* \"#utility.yul\":88:205   */\n    tag_328:\n        /* \"#utility.yul\":197:198   */\n      0x00\n        /* \"#utility.yul\":194:195   */\n      dup1\n        /* \"#utility.yul\":187:199   */\n      revert\n        /* \"#utility.yul\":211:328   */\n    tag_329:\n        /* \"#utility.yul\":320:321   */\n      0x00\n        /* \"#utility.yul\":317:318   */\n      dup1\n        /* \"#utility.yul\":310:322   */\n      revert\n        /* \"#utility.yul\":334:460   */\n    tag_330:\n        /* \"#utility.yul\":371:378   */\n      0x00\n        /* \"#utility.yul\":411:453   */\n      0xffffffffffffffffffffffffffffffffffffffff\n        /* \"#utility.yul\":404:409   */\n      dup3\n        /* \"#utility.yul\":400:454   */\n      and\n        /* \"#utility.yul\":389:454   */\n      swap1\n      pop\n        /* \"#utility.yul\":334:460   */\n      swap2\n      swap1\n      pop\n      jump\t// out\n        /* \"#utility.yul\":466:562   */\n    tag_331:\n        /* \"#utility.yul\":503:510   */\n      0x00\n        /* \"#utility.yul\":532:556   */\n      tag_429\n        /* \"#utility.yul\":550:555   */\n      dup3\n        /* \"#utility.yul\":532:556   */\n      tag_330\n      jump\t// in\n    tag_429:\n        /* \"#utility.yul\":521:556   */\n      swap1\n      pop\n        /* \"#utility.yul\":466:562   */\n      swap2\n      swap1\n      pop\n      jump\t// out\n        /* \"#utility.yul\":568:678   */\n    tag_332:\n        /* \"#utility.yul\":619:626   */\n      0x00\n        /* \"#utility.yul\":648:672   */\n      tag_431\n        /* \"#utility.yul\":666:671   */\n      dup3\n        /* \"#utility.yul\":648:672   */\n      tag_331\n      jump\t// in\n    tag_431:\n        /* \"#utility.yul\":637:672   */\n      swap1\n      pop\n        /* \"#utility.yul\":568:678   */\n      swap2\n      swap1\n      pop\n      jump\t// out\n        /* \"#utility.yul\":684:834   */\n    tag_333:\n        /* \"#utility.yul\":771:809   */\n      tag_433\n        /* \"#utility.yul\":803:808   */\n      dup2\n        /* \"#utility.yul\":771:809   */\n      tag_332\n      jump\t// in\n    tag_433:\n        /* \"#utility.yul\":764:769   */\n      dup2\n        /* \"#utility.yul\":761:810   */\n      eq\n        /* \"#utility.yul\":751:828   */\n      tag_434\n      jumpi\n        /* \"#utility.yul\":824:825   */\n      0x00\n        /* \"#utility.yul\":821:822   */\n      dup1\n        /* \"#utility.yul\":814:826   */\n      revert\n        /* \"#utility.yul\":751:828   */\n    tag_434:\n        /* \"#utility.yul\":684:834   */\n      pop\n      jump\t// out\n        /* \"#utility.yul\":840:1007   */\n    tag_334:\n        /* \"#utility.yul\":900:905   */\n      0x00\n        /* \"#utility.yul\":938:944   */\n      dup2\n        /* \"#utility.yul\":925:945   */\n      calldataload\n        /* \"#utility.yul\":916:945   */\n      swap1\n      pop\n        /* \"#utility.yul\":954:1001   */\n      tag_436\n        /* \"#utility.yul\":995:1000   */\n      dup2\n        /* \"#utility.yul\":954:1001   */\n      tag_333\n      jump\t// in\n    tag_436:\n        /* \"#utility.yul\":840:1007   */\n      swap3\n      swap2\n      pop\n      pop\n      jump\t// out\n        /* \"#utility.yul\":1013:1090   */\n    tag_335:\n        /* \"#utility.yul\":1050:1057   */\n      0x00\n        /* \"#utility.yul\":1079:1084   */\n      dup2\n        /* \"#utility.yul\":1068:1084   */\n      swap1\n      pop\n        /* \"#utility.yul\":1013:1090   */\n      swap2\n      swap1\n      pop\n      jump\t// out\n        /* \"#utility.yul\":1096:1218   */\n    tag_336:\n        /* \"#utility.yul\":1169:1193   */\n      tag_439\n        /* \"#utility.yul\":1187:1192   */\n      dup2\n        /* \"#utility.yul\":1169:1193   */\n      tag_335\n      jump\t// in\n    tag_439:\n        /* \"#utility.yul\":1162:1167   */\n      dup2\n        /* \"#utility.yul\":1159:1194   */\n      eq\n        /* \"#utility.yul\":1149:1212   */\n      tag_440\n      jumpi\n        /* \"#utility.yul\":1208:1209   */\n      0x00\n        /* \"#utility.yul\":1205:1206   */\n      dup1\n        /* \"#utility.yul\":1198:1210   */\n      revert\n        /* \"#utility.yul\":1149:1212   */\n    tag_440:\n        /* \"#utility.yul\":1096:1218   */\n      pop\n      jump\t// out\n        /* \"#utility.yul\":1224:1363   */\n    tag_337:\n        /* \"#utility.yul\":1270:1275   */\n      0x00\n        /* \"#utility.yul\":1308:1314   */\n      dup2\n        /* \"#utility.yul\":1295:1315   */\n      calldataload\n        /* \"#utility.yul\":1286:1315   */\n      swap1\n      pop\n        /* \"#utility.yul\":1324:1357   */\n      tag_442\n        /* \"#utility.yul\":1351:1356   */\n      dup2\n        /* \"#utility.yul\":1324:1357   */\n      tag_336\n      jump\t// in\n    tag_442:\n        /* \"#utility.yul\":1224:1363   */\n      swap3\n      swap2\n      pop\n      pop\n      jump\t// out\n        /* \"#utility.yul\":1369:1455   */\n    tag_338:\n        /* \"#utility.yul\":1404:1411   */\n      0x00\n        /* \"#utility.yul\":1444:1448   */\n      0xff\n        /* \"#utility.yul\":1437:1442   */\n      dup3\n        /* \"#utility.yul\":1433:1449   */\n      and\n        /* \"#utility.yul\":1422:1449   */\n      swap1\n      pop\n        /* \"#utility.yul\":1369:1455   */\n      swap2\n      swap1\n      pop\n      jump\t// out\n        /* \"#utility.yul\":1461:1579   */\n    tag_339:\n        /* \"#utility.yul\":1532:1554   */\n      tag_445\n        /* \"#utility.yul\":1548:1553   */\n      dup2\n        /* \"#utility.yul\":1532:1554   */\n      tag_338\n      jump\t// in\n    tag_445:\n        /* \"#utility.yul\":1525:1530   */\n      dup2\n        /* \"#utility.yul\":1522:1555   */\n      eq\n        /* \"#utility.yul\":1512:1573   */\n      tag_446\n      jumpi\n        /* \"#utility.yul\":1569:1570   */\n      0x00\n        /* \"#utility.yul\":1566:1567   */\n      dup1\n        /* \"#utility.yul\":1559:1571   */\n      revert\n        /* \"#utility.yul\":1512:1573   */\n    tag_446:\n        /* \"#utility.yul\":1461:1579   */\n      pop\n      jump\t// out\n        /* \"#utility.yul\":1585:1720   */\n    tag_340:\n        /* \"#utility.yul\":1629:1634   */\n      0x00\n        /* \"#utility.yul\":1667:1673   */\n      dup2\n        /* \"#utility.yul\":1654:1674   */\n      calldataload\n        /* \"#utility.yul\":1645:1674   */\n      swap1\n      pop\n        /* \"#utility.yul\":1683:1714   */\n      tag_448\n        /* \"#utility.yul\":1708:1713   */\n      dup2\n        /* \"#utility.yul\":1683:1714   */\n      tag_339\n      jump\t// in\n    tag_448:\n        /* \"#utility.yul\":1585:1720   */\n      swap3\n      swap2\n      pop\n      pop\n      jump\t// out\n        /* \"#utility.yul\":1726:1843   */\n    tag_341:\n        /* \"#utility.yul\":1835:1836   */\n      0x00\n        /* \"#utility.yul\":1832:1833   */\n      dup1\n        /* \"#utility.yul\":1825:1837   */\n      revert\n        /* \"#utility.yul\":1849:1966   */\n    tag_342:\n        /* \"#utility.yul\":1958:1959   */\n      0x00\n        /* \"#utility.yul\":1955:1956   */\n      dup1\n        /* \"#utility.yul\":1948:1960   */\n      revert\n        /* \"#utility.yul\":1972:2074   */\n    tag_343:\n        /* \"#utility.yul\":2013:2019   */\n      0x00\n        /* \"#utility.yul\":2064:2066   */\n      0x1f\n        /* \"#utility.yul\":2060:2067   */\n      not\n        /* \"#utility.yul\":2055:2057   */\n      0x1f\n        /* \"#utility.yul\":2048:2053   */\n      dup4\n        /* \"#utility.yul\":2044:2058   */\n      add\n        /* \"#utility.yul\":2040:2068   */\n      and\n        /* \"#utility.yul\":2030:2068   */\n      swap1\n      pop\n        /* \"#utility.yul\":1972:2074   */\n      swap2\n      swap1\n      pop\n      jump\t// out\n        /* \"#utility.yul\":2080:2260   */\n    tag_344:\n        /* \"#utility.yul\":2128:2205   */\n      0x4e487b7100000000000000000000000000000000000000000000000000000000\n        /* \"#utility.yul\":2125:2126   */\n      0x00\n        /* \"#utility.yul\":2118:2206   */\n      mstore\n        /* \"#utility.yul\":2225:2229   */\n      0x41\n        /* \"#utility.yul\":2222:2223   */\n      0x04\n        /* \"#utility.yul\":2215:2230   */\n      mstore\n        /* \"#utility.yul\":2249:2253   */\n      0x24\n        /* \"#utility.yul\":2246:2247   */\n      0x00\n        /* \"#utility.yul\":2239:2254   */\n      revert\n        /* \"#utility.yul\":2266:2547   */\n    tag_345:\n        /* \"#utility.yul\":2349:2376   */\n      tag_454\n        /* \"#utility.yul\":2371:2375   */\n      dup3\n        /* \"#utility.yul\":2349:2376   */\n      tag_343\n      jump\t// in\n    tag_454:\n        /* \"#utility.yul\":2341:2347   */\n      dup2\n        /* \"#utility.yul\":2337:2377   */\n      add\n        /* \"#utility.yul\":2479:2485   */\n      dup2\n        /* \"#utility.yul\":2467:2477   */\n      dup2\n        /* \"#utility.yul\":2464:2486   */\n      lt\n        /* \"#utility.yul\":2443:2461   */\n      0xffffffffffffffff\n        /* \"#utility.yul\":2431:2441   */\n      dup3\n        /* \"#utility.yul\":2428:2462   */\n      gt\n        /* \"#utility.yul\":2425:2487   */\n      or\n        /* \"#utility.yul\":2422:2510   */\n      iszero\n      tag_455\n      jumpi\n        /* \"#utility.yul\":2490:2508   */\n      tag_456\n      tag_344\n      jump\t// in\n    tag_456:\n        /* \"#utility.yul\":2422:2510   */\n    tag_455:\n        /* \"#utility.yul\":2530:2540   */\n      dup1\n        /* \"#utility.yul\":2526:2528   */\n      0x40\n        /* \"#utility.yul\":2519:2541   */\n      mstore\n        /* \"#utility.yul\":2309:2547   */\n      pop\n        /* \"#utility.yul\":2266:2547   */\n      pop\n      pop\n      jump\t// out\n        /* \"#utility.yul\":2553:2682   */\n    tag_346:\n        /* \"#utility.yul\":2587:2593   */\n      0x00\n        /* \"#utility.yul\":2614:2634   */\n      tag_458\n      tag_327\n      jump\t// in\n    tag_458:\n        /* \"#utility.yul\":2604:2634   */\n      swap1\n      pop\n        /* \"#utility.yul\":2643:2676   */\n      tag_459\n        /* \"#utility.yul\":2671:2675   */\n      dup3\n        /* \"#utility.yul\":2663:2669   */\n      dup3\n        /* \"#utility.yul\":2643:2676   */\n      tag_345\n      jump\t// in\n    tag_459:\n        /* \"#utility.yul\":2553:2682   */\n      swap2\n      swap1\n      pop\n      jump\t// out\n        /* \"#utility.yul\":2688:2996   */\n    tag_347:\n        /* \"#utility.yul\":2750:2754   */\n      0x00\n        /* \"#utility.yul\":2840:2858   */\n      0xffffffffffffffff\n        /* \"#utility.yul\":2832:2838   */\n      dup3\n        /* \"#utility.yul\":2829:2859   */\n      gt\n        /* \"#utility.yul\":2826:2882   */\n      iszero\n      tag_461\n      jumpi\n        /* \"#utility.yul\":2862:2880   */\n      tag_462\n      tag_344\n      jump\t// in\n    tag_462:\n        /* \"#utility.yul\":2826:2882   */\n    tag_461:\n        /* \"#utility.yul\":2900:2929   */\n      tag_463\n        /* \"#utility.yul\":2922:2928   */\n      dup3\n        /* \"#utility.yul\":2900:2929   */\n      tag_343\n      jump\t// in\n    tag_463:\n        /* \"#utility.yul\":2892:2929   */\n      swap1\n      pop\n        /* \"#utility.yul\":2984:2988   */\n      0x20\n        /* \"#utility.yul\":2978:2982   */\n      dup2\n        /* \"#utility.yul\":2974:2989   */\n      add\n        /* \"#utility.yul\":2966:2989   */\n      swap1\n      pop\n        /* \"#utility.yul\":2688:2996   */\n      swap2\n      swap1\n      pop\n      jump\t// out\n        /* \"#utility.yul\":3002:3150   */\n    tag_348:\n        /* \"#utility.yul\":3100:3106   */\n      dup3\n        /* \"#utility.yul\":3095:3098   */\n      dup2\n        /* \"#utility.yul\":3090:3093   */\n      dup4\n        /* \"#utility.yul\":3077:3107   */\n      calldatacopy\n        /* \"#utility.yul\":3141:3142   */\n      0x00\n        /* \"#utility.yul\":3132:3138   */\n      dup4\n        /* \"#utility.yul\":3127:3130   */\n      dup4\n        /* \"#utility.yul\":3123:3139   */\n      add\n        /* \"#utility.yul\":3116:3143   */\n      mstore\n        /* \"#utility.yul\":3002:3150   */\n      pop\n      pop\n      pop\n      jump\t// out\n        /* \"#utility.yul\":3156:3581   */\n    tag_349:\n        /* \"#utility.yul\":3234:3239   */\n      0x00\n        /* \"#utility.yul\":3259:3325   */\n      tag_466\n        /* \"#utility.yul\":3275:3324   */\n      tag_467\n        /* \"#utility.yul\":3317:3323   */\n      dup5\n        /* \"#utility.yul\":3275:3324   */\n      tag_347\n      jump\t// in\n    tag_467:\n        /* \"#utility.yul\":3259:3325   */\n      tag_346\n      jump\t// in\n    tag_466:\n        /* \"#utility.yul\":3250:3325   */\n      swap1\n      pop\n        /* \"#utility.yul\":3348:3354   */\n      dup3\n        /* \"#utility.yul\":3341:3346   */\n      dup2\n        /* \"#utility.yul\":3334:3355   */\n      mstore\n        /* \"#utility.yul\":3386:3390   */\n      0x20\n        /* \"#utility.yul\":3379:3384   */\n      dup2\n        /* \"#utility.yul\":3375:3391   */\n      add\n        /* \"#utility.yul\":3424:3427   */\n      dup5\n        /* \"#utility.yul\":3415:3421   */\n      dup5\n        /* \"#utility.yul\":3410:3413   */\n      dup5\n        /* \"#utility.yul\":3406:3422   */\n      add\n        /* \"#utility.yul\":3403:3428   */\n      gt\n        /* \"#utility.yul\":3400:3512   */\n      iszero\n      tag_468\n      jumpi\n        /* \"#utility.yul\":3431:3510   */\n      tag_469\n      tag_342\n      jump\t// in\n    tag_469:\n        /* \"#utility.yul\":3400:3512   */\n    tag_468:\n        /* \"#utility.yul\":3521:3575   */\n      tag_470\n        /* \"#utility.yul\":3568:3574   */\n      dup5\n        /* \"#utility.yul\":3563:3566   */\n      dup3\n        /* \"#utility.yul\":3558:3561   */\n      dup6\n        /* \"#utility.yul\":3521:3575   */\n      tag_348\n      jump\t// in\n    tag_470:\n        /* \"#utility.yul\":3240:3581   */\n      pop\n        /* \"#utility.yul\":3156:3581   */\n      swap4\n      swap3\n      pop\n      pop\n      pop\n      jump\t// out\n        /* \"#utility.yul\":3601:3941   */\n    tag_350:\n        /* \"#utility.yul\":3657:3662   */\n      0x00\n        /* \"#utility.yul\":3706:3709   */\n      dup3\n        /* \"#utility.yul\":3699:3703   */\n      0x1f\n        /* \"#utility.yul\":3691:3697   */\n      dup4\n        /* \"#utility.yul\":3687:3704   */\n      add\n        /* \"#utility.yul\":3683:3710   */\n      slt\n        /* \"#utility.yul\":3673:3795   */\n      tag_472\n      jumpi\n        /* \"#utility.yul\":3714:3793   */\n      tag_473\n      tag_341\n      jump\t// in\n    tag_473:\n        /* \"#utility.yul\":3673:3795   */\n    tag_472:\n        /* \"#utility.yul\":3831:3837   */\n      dup2\n        /* \"#utility.yul\":3818:3838   */\n      calldataload\n        /* \"#utility.yul\":3856:3935   */\n      tag_474\n        /* \"#utility.yul\":3931:3934   */\n      dup5\n        /* \"#utility.yul\":3923:3929   */\n      dup3\n        /* \"#utility.yul\":3916:3920   */\n      0x20\n        /* \"#utility.yul\":3908:3914   */\n      dup7\n        /* \"#utility.yul\":3904:3921   */\n      add\n        /* \"#utility.yul\":3856:3935   */\n      tag_349\n      jump\t// in\n    tag_474:\n        /* \"#utility.yul\":3847:3935   */\n      swap2\n      pop\n        /* \"#utility.yul\":3663:3941   */\n      pop\n        /* \"#utility.yul\":3601:3941   */\n      swap3\n      swap2\n      pop\n      pop\n      jump\t// out\n        /* \"#utility.yul\":3947:5062   */\n    tag_22:\n        /* \"#utility.yul\":4064:4070   */\n      0x00\n        /* \"#utility.yul\":4072:4078   */\n      dup1\n        /* \"#utility.yul\":4080:4086   */\n      0x00\n        /* \"#utility.yul\":4088:4094   */\n      dup1\n        /* \"#utility.yul\":4096:4102   */\n      0x00\n        /* \"#utility.yul\":4145:4148   */\n      0xa0\n        /* \"#utility.yul\":4133:4142   */\n      dup7\n        /* \"#utility.yul\":4124:4131   */\n      dup9\n        /* \"#utility.yul\":4120:4143   */\n      sub\n        /* \"#utility.yul\":4116:4149   */\n      slt\n        /* \"#utility.yul\":4113:4233   */\n      iszero\n      tag_476\n      jumpi\n        /* \"#utility.yul\":4152:4231   */\n      tag_477\n      tag_328\n      jump\t// in\n    tag_477:\n        /* \"#utility.yul\":4113:4233   */\n    tag_476:\n        /* \"#utility.yul\":4272:4273   */\n      0x00\n        /* \"#utility.yul\":4297:4364   */\n      tag_478\n        /* \"#utility.yul\":4356:4363   */\n      dup9\n        /* \"#utility.yul\":4347:4353   */\n      dup3\n        /* \"#utility.yul\":4336:4345   */\n      dup10\n        /* \"#utility.yul\":4332:4354   */\n      add\n        /* \"#utility.yul\":4297:4364   */\n      tag_334\n      jump\t// in\n    tag_478:\n        /* \"#utility.yul\":4287:4364   */\n      swap6\n      pop\n        /* \"#utility.yul\":4243:4374   */\n      pop\n        /* \"#utility.yul\":4413:4415   */\n      0x20\n        /* \"#utility.yul\":4439:4492   */\n      tag_479\n        /* \"#utility.yul\":4484:4491   */\n      dup9\n        /* \"#utility.yul\":4475:4481   */\n      dup3\n        /* \"#utility.yul\":4464:4473   */\n      dup10\n        /* \"#utility.yul\":4460:4482   */\n      add\n        /* \"#utility.yul\":4439:4492   */\n      tag_337\n      jump\t// in\n    tag_479:\n        /* \"#utility.yul\":4429:4492   */\n      swap5\n      pop\n        /* \"#utility.yul\":4384:4502   */\n      pop\n        /* \"#utility.yul\":4541:4543   */\n      0x40\n        /* \"#utility.yul\":4567:4618   */\n      tag_480\n        /* \"#utility.yul\":4610:4617   */\n      dup9\n        /* \"#utility.yul\":4601:4607   */\n      dup3\n        /* \"#utility.yul\":4590:4599   */\n      dup10\n        /* \"#utility.yul\":4586:4608   */\n      add\n        /* \"#utility.yul\":4567:4618   */\n      tag_340\n      jump\t// in\n    tag_480:\n        /* \"#utility.yul\":4557:4618   */\n      swap4\n      pop\n        /* \"#utility.yul\":4512:4628   */\n      pop\n        /* \"#utility.yul\":4667:4669   */\n      0x60\n        /* \"#utility.yul\":4693:4746   */\n      tag_481\n        /* \"#utility.yul\":4738:4745   */\n      dup9\n        /* \"#utility.yul\":4729:4735   */\n      dup3\n        /* \"#utility.yul\":4718:4727   */\n      dup10\n        /* \"#utility.yul\":4714:4736   */\n      add\n        /* \"#utility.yul\":4693:4746   */\n      tag_337\n      jump\t// in\n    tag_481:\n        /* \"#utility.yul\":4683:4746   */\n      swap3\n      pop\n        /* \"#utility.yul\":4638:4756   */\n      pop\n        /* \"#utility.yul\":4823:4826   */\n      0x80\n        /* \"#utility.yul\":4812:4821   */\n      dup7\n        /* \"#utility.yul\":4808:4827   */\n      add\n        /* \"#utility.yul\":4795:4828   */\n      calldataload\n        /* \"#utility.yul\":4855:4873   */\n      0xffffffffffffffff\n        /* \"#utility.yul\":4847:4853   */\n      dup2\n        /* \"#utility.yul\":4844:4874   */\n      gt\n        /* \"#utility.yul\":4841:4958   */\n      iszero\n      tag_482\n      jumpi\n        /* \"#utility.yul\":4877:4956   */\n      tag_483\n      tag_329\n      jump\t// in\n    tag_483:\n        /* \"#utility.yul\":4841:4958   */\n    tag_482:\n        /* \"#utility.yul\":4982:5045   */\n      tag_484\n        /* \"#utility.yul\":5037:5044   */\n      dup9\n        /* \"#utility.yul\":5028:5034   */\n      dup3\n        /* \"#utility.yul\":5017:5026   */\n      dup10\n        /* \"#utility.yul\":5013:5035   */\n      add\n        /* \"#utility.yul\":4982:5045   */\n      tag_350\n      jump\t// in\n    tag_484:\n        /* \"#utility.yul\":4972:5045   */\n      swap2\n      pop\n        /* \"#utility.yul\":4766:5055   */\n      pop\n        /* \"#utility.yul\":3947:5062   */\n      swap3\n      swap6\n      pop\n      swap3\n      swap6\n      swap1\n      swap4\n      pop\n      jump\t// out\n        /* \"#utility.yul\":5068:5863   */\n    tag_26:\n        /* \"#utility.yul\":5153:5159   */\n      0x00\n        /* \"#utility.yul\":5161:5167   */\n      dup1\n        /* \"#utility.yul\":5169:5175   */\n      0x00\n        /* \"#utility.yul\":5218:5220   */\n      0x60\n        /* \"#utility.yul\":5206:5215   */\n      dup5\n        /* \"#utility.yul\":5197:5204   */\n      dup7\n        /* \"#utility.yul\":5193:5216   */\n      sub\n        /* \"#utility.yul\":5189:5221   */\n      slt\n        /* \"#utility.yul\":5186:5305   */\n      iszero\n      tag_486\n      jumpi\n        /* \"#utility.yul\":5224:5303   */\n      tag_487\n      tag_328\n      jump\t// in\n    tag_487:\n        /* \"#utility.yul\":5186:5305   */\n    tag_486:\n        /* \"#utility.yul\":5344:5345   */\n      0x00\n        /* \"#utility.yul\":5369:5420   */\n      tag_488\n        /* \"#utility.yul\":5412:5419   */\n      dup7\n        /* \"#utility.yul\":5403:5409   */\n      dup3\n        /* \"#utility.yul\":5392:5401   */\n      dup8\n        /* \"#utility.yul\":5388:5410   */\n      add\n        /* \"#utility.yul\":5369:5420   */\n      tag_340\n      jump\t// in\n    tag_488:\n        /* \"#utility.yul\":5359:5420   */\n      swap4\n      pop\n        /* \"#utility.yul\":5315:5430   */\n      pop\n        /* \"#utility.yul\":5469:5471   */\n      0x20\n        /* \"#utility.yul\":5495:5548   */\n      tag_489\n        /* \"#utility.yul\":5540:5547   */\n      dup7\n        /* \"#utility.yul\":5531:5537   */\n      dup3\n        /* \"#utility.yul\":5520:5529   */\n      dup8\n        /* \"#utility.yul\":5516:5538   */\n      add\n        /* \"#utility.yul\":5495:5548   */\n      tag_337\n      jump\t// in\n    tag_489:\n        /* \"#utility.yul\":5485:5548   */\n      swap3\n      pop\n        /* \"#utility.yul\":5440:5558   */\n      pop\n        /* \"#utility.yul\":5625:5627   */\n      0x40\n        /* \"#utility.yul\":5614:5623   */\n      dup5\n        /* \"#utility.yul\":5610:5628   */\n      add\n        /* \"#utility.yul\":5597:5629   */\n      calldataload\n        /* \"#utility.yul\":5656:5674   */\n      0xffffffffffffffff\n        /* \"#utility.yul\":5648:5654   */\n      dup2\n        /* \"#utility.yul\":5645:5675   */\n      gt\n        /* \"#utility.yul\":5642:5759   */\n      iszero\n      tag_490\n      jumpi\n        /* \"#utility.yul\":5678:5757   */\n      tag_491\n      tag_329\n      jump\t// in\n    tag_491:\n        /* \"#utility.yul\":5642:5759   */\n    tag_490:\n        /* \"#utility.yul\":5783:5846   */\n      tag_492\n        /* \"#utility.yul\":5838:5845   */\n      dup7\n        /* \"#utility.yul\":5829:5835   */\n      dup3\n        /* \"#utility.yul\":5818:5827   */\n      dup8\n        /* \"#utility.yul\":5814:5836   */\n      add\n        /* \"#utility.yul\":5783:5846   */\n      tag_350\n      jump\t// in\n    tag_492:\n        /* \"#utility.yul\":5773:5846   */\n      swap2\n      pop\n        /* \"#utility.yul\":5568:5856   */\n      pop\n        /* \"#utility.yul\":5068:5863   */\n      swap3\n      pop\n      swap3\n      pop\n      swap3\n      jump\t// out\n        /* \"#utility.yul\":5869:6226   */\n    tag_31:\n        /* \"#utility.yul\":5942:5948   */\n      0x00\n        /* \"#utility.yul\":5991:5993   */\n      0x20\n        /* \"#utility.yul\":5979:5988   */\n      dup3\n        /* \"#utility.yul\":5970:5977   */\n      dup5\n        /* \"#utility.yul\":5966:5989   */\n      sub\n        /* \"#utility.yul\":5962:5994   */\n      slt\n        /* \"#utility.yul\":5959:6078   */\n      iszero\n      tag_494\n      jumpi\n        /* \"#utility.yul\":5997:6076   */\n      tag_495\n      tag_328\n      jump\t// in\n    tag_495:\n        /* \"#utility.yul\":5959:6078   */\n    tag_494:\n        /* \"#utility.yul\":6117:6118   */\n      0x00\n        /* \"#utility.yul\":6142:6209   */\n      tag_496\n        /* \"#utility.yul\":6201:6208   */\n      dup5\n        /* \"#utility.yul\":6192:6198   */\n      dup3\n        /* \"#utility.yul\":6181:6190   */\n      dup6\n        /* \"#utility.yul\":6177:6199   */\n      add\n        /* \"#utility.yul\":6142:6209   */\n      tag_334\n      jump\t// in\n    tag_496:\n        /* \"#utility.yul\":6132:6209   */\n      swap2\n      pop\n        /* \"#utility.yul\":6088:6219   */\n      pop\n        /* \"#utility.yul\":5869:6226   */\n      swap3\n      swap2\n      pop\n      pop\n      jump\t// out\n        /* \"#utility.yul\":6232:6350   */\n    tag_351:\n        /* \"#utility.yul\":6319:6343   */\n      tag_498\n        /* \"#utility.yul\":6337:6342   */\n      dup2\n        /* \"#utility.yul\":6319:6343   */\n      tag_335\n      jump\t// in\n    tag_498:\n        /* \"#utility.yul\":6314:6317   */\n      dup3\n        /* \"#utility.yul\":6307:6344   */\n      mstore\n        /* \"#utility.yul\":6232:6350   */\n      pop\n      pop\n      jump\t// out\n        /* \"#utility.yul\":6356:6578   */\n    tag_34:\n        /* \"#utility.yul\":6449:6453   */\n      0x00\n        /* \"#utility.yul\":6487:6489   */\n      0x20\n        /* \"#utility.yul\":6476:6485   */\n      dup3\n        /* \"#utility.yul\":6472:6490   */\n      add\n        /* \"#utility.yul\":6464:6490   */\n      swap1\n      pop\n        /* \"#utility.yul\":6500:6571   */\n      tag_500\n        /* \"#utility.yul\":6568:6569   */\n      0x00\n        /* \"#utility.yul\":6557:6566   */\n      dup4\n        /* \"#utility.yul\":6553:6570   */\n      add\n        /* \"#utility.yul\":6544:6550   */\n      dup5\n        /* \"#utility.yul\":6500:6571   */\n      tag_351\n      jump\t// in\n    tag_500:\n        /* \"#utility.yul\":6356:6578   */\n      swap3\n      swap2\n      pop\n      pop\n      jump\t// out\n        /* \"#utility.yul\":6584:6677   */\n    tag_352:\n        /* \"#utility.yul\":6620:6627   */\n      0x00\n        /* \"#utility.yul\":6660:6670   */\n      0xffffffff\n        /* \"#utility.yul\":6653:6658   */\n      dup3\n        /* \"#utility.yul\":6649:6671   */\n      and\n        /* \"#utility.yul\":6638:6671   */\n      swap1\n      pop\n        /* \"#utility.yul\":6584:6677   */\n      swap2\n      swap1\n      pop\n      jump\t// out\n        /* \"#utility.yul\":6683:6803   */\n    tag_353:\n        /* \"#utility.yul\":6755:6778   */\n      tag_503\n        /* \"#utility.yul\":6772:6777   */\n      dup2\n        /* \"#utility.yul\":6755:6778   */\n      tag_352\n      jump\t// in\n    tag_503:\n        /* \"#utility.yul\":6748:6753   */\n      dup2\n        /* \"#utility.yul\":6745:6779   */\n      eq\n        /* \"#utility.yul\":6735:6797   */\n      tag_504\n      jumpi\n        /* \"#utility.yul\":6793:6794   */\n      0x00\n        /* \"#utility.yul\":6790:6791   */\n      dup1\n        /* \"#utility.yul\":6783:6795   */\n      revert\n        /* \"#utility.yul\":6735:6797   */\n    tag_504:\n        /* \"#utility.yul\":6683:6803   */\n      pop\n      jump\t// out\n        /* \"#utility.yul\":6809:6946   */\n    tag_354:\n        /* \"#utility.yul\":6854:6859   */\n      0x00\n        /* \"#utility.yul\":6892:6898   */\n      dup2\n        /* \"#utility.yul\":6879:6899   */\n      calldataload\n        /* \"#utility.yul\":6870:6899   */\n      swap1\n      pop\n        /* \"#utility.yul\":6908:6940   */\n      tag_506\n        /* \"#utility.yul\":6934:6939   */\n      dup2\n        /* \"#utility.yul\":6908:6940   */\n      tag_353\n      jump\t// in\n    tag_506:\n        /* \"#utility.yul\":6809:6946   */\n      swap3\n      swap2\n      pop\n      pop\n      jump\t// out\n        /* \"#utility.yul\":6952:7739   */\n    tag_38:\n        /* \"#utility.yul\":7049:7055   */\n      0x00\n        /* \"#utility.yul\":7057:7063   */\n      dup1\n        /* \"#utility.yul\":7065:7071   */\n      0x00\n        /* \"#utility.yul\":7073:7079   */\n      dup1\n        /* \"#utility.yul\":7122:7125   */\n      0x80\n        /* \"#utility.yul\":7110:7119   */\n      dup6\n        /* \"#utility.yul\":7101:7108   */\n      dup8\n        /* \"#utility.yul\":7097:7120   */\n      sub\n        /* \"#utility.yul\":7093:7126   */\n      slt\n        /* \"#utility.yul\":7090:7210   */\n      iszero\n      tag_508\n      jumpi\n        /* \"#utility.yul\":7129:7208   */\n      tag_509\n      tag_328\n      jump\t// in\n    tag_509:\n        /* \"#utility.yul\":7090:7210   */\n    tag_508:\n        /* \"#utility.yul\":7249:7250   */\n      0x00\n        /* \"#utility.yul\":7274:7341   */\n      tag_510\n        /* \"#utility.yul\":7333:7340   */\n      dup8\n        /* \"#utility.yul\":7324:7330   */\n      dup3\n        /* \"#utility.yul\":7313:7322   */\n      dup9\n        /* \"#utility.yul\":7309:7331   */\n      add\n        /* \"#utility.yul\":7274:7341   */\n      tag_334\n      jump\t// in\n    tag_510:\n        /* \"#utility.yul\":7264:7341   */\n      swap5\n      pop\n        /* \"#utility.yul\":7220:7351   */\n      pop\n        /* \"#utility.yul\":7390:7392   */\n      0x20\n        /* \"#utility.yul\":7416:7468   */\n      tag_511\n        /* \"#utility.yul\":7460:7467   */\n      dup8\n        /* \"#utility.yul\":7451:7457   */\n      dup3\n        /* \"#utility.yul\":7440:7449   */\n      dup9\n        /* \"#utility.yul\":7436:7458   */\n      add\n        /* \"#utility.yul\":7416:7468   */\n      tag_354\n      jump\t// in\n    tag_511:\n        /* \"#utility.yul\":7406:7468   */\n      swap4\n      pop\n        /* \"#utility.yul\":7361:7478   */\n      pop\n        /* \"#utility.yul\":7517:7519   */\n      0x40\n        /* \"#utility.yul\":7543:7596   */\n      tag_512\n        /* \"#utility.yul\":7588:7595   */\n      dup8\n        /* \"#utility.yul\":7579:7585   */\n      dup3\n        /* \"#utility.yul\":7568:7577   */\n      dup9\n        /* \"#utility.yul\":7564:7586   */\n      add\n        /* \"#utility.yul\":7543:7596   */\n      tag_337\n      jump\t// in\n    tag_512:\n        /* \"#utility.yul\":7533:7596   */\n      swap3\n      pop\n        /* \"#utility.yul\":7488:7606   */\n      pop\n        /* \"#utility.yul\":7645:7647   */\n      0x60\n        /* \"#utility.yul\":7671:7722   */\n      tag_513\n        /* \"#utility.yul\":7714:7721   */\n      dup8\n        /* \"#utility.yul\":7705:7711   */\n      dup3\n        /* \"#utility.yul\":7694:7703   */\n      dup9\n        /* \"#utility.yul\":7690:7712   */\n      add\n        /* \"#utility.yul\":7671:7722   */\n      tag_340\n      jump\t// in\n    tag_513:\n        /* \"#utility.yul\":7661:7722   */\n      swap2\n      pop\n        /* \"#utility.yul\":7616:7732   */\n      pop\n        /* \"#utility.yul\":6952:7739   */\n      swap3\n      swap6\n      swap2\n      swap5\n      pop\n      swap3\n      pop\n      jump\t// out\n        /* \"#utility.yul\":7745:8070   */\n    tag_43:\n        /* \"#utility.yul\":7802:7808   */\n      0x00\n        /* \"#utility.yul\":7851:7853   */\n      0x20\n        /* \"#utility.yul\":7839:7848   */\n      dup3\n        /* \"#utility.yul\":7830:7837   */\n      dup5\n        /* \"#utility.yul\":7826:7849   */\n      sub\n        /* \"#utility.yul\":7822:7854   */\n      slt\n        /* \"#utility.yul\":7819:7938   */\n      iszero\n      tag_515\n      jumpi\n        /* \"#utility.yul\":7857:7936   */\n      tag_516\n      tag_328\n      jump\t// in\n    tag_516:\n        /* \"#utility.yul\":7819:7938   */\n    tag_515:\n        /* \"#utility.yul\":7977:7978   */\n      0x00\n        /* \"#utility.yul\":8002:8053   */\n      tag_517\n        /* \"#utility.yul\":8045:8052   */\n      dup5\n        /* \"#utility.yul\":8036:8042   */\n      dup3\n        /* \"#utility.yul\":8025:8034   */\n      dup6\n        /* \"#utility.yul\":8021:8043   */\n      add\n        /* \"#utility.yul\":8002:8053   */\n      tag_340\n      jump\t// in\n    tag_517:\n        /* \"#utility.yul\":7992:8053   */\n      swap2\n      pop\n        /* \"#utility.yul\":7948:8063   */\n      pop\n        /* \"#utility.yul\":7745:8070   */\n      swap3\n      swap2\n      pop\n      pop\n      jump\t// out\n        /* \"#utility.yul\":8076:8211   */\n    tag_355:\n        /* \"#utility.yul\":8164:8170   */\n      0x00\n        /* \"#utility.yul\":8198:8203   */\n      dup2\n        /* \"#utility.yul\":8192:8204   */\n      mload\n        /* \"#utility.yul\":8182:8204   */\n      swap1\n      pop\n        /* \"#utility.yul\":8076:8211   */\n      swap2\n      swap1\n      pop\n      jump\t// out\n        /* \"#utility.yul\":8217:8422   */\n    tag_356:\n        /* \"#utility.yul\":8337:8348   */\n      0x00\n        /* \"#utility.yul\":8371:8377   */\n      dup3\n        /* \"#utility.yul\":8366:8369   */\n      dup3\n        /* \"#utility.yul\":8359:8378   */\n      mstore\n        /* \"#utility.yul\":8411:8415   */\n      0x20\n        /* \"#utility.yul\":8406:8409   */\n      dup3\n        /* \"#utility.yul\":8402:8416   */\n      add\n        /* \"#utility.yul\":8387:8416   */\n      swap1\n      pop\n        /* \"#utility.yul\":8217:8422   */\n      swap3\n      swap2\n      pop\n      pop\n      jump\t// out\n        /* \"#utility.yul\":8428:8581   */\n    tag_357:\n        /* \"#utility.yul\":8516:8520   */\n      0x00\n        /* \"#utility.yul\":8539:8542   */\n      dup2\n        /* \"#utility.yul\":8531:8542   */\n      swap1\n      pop\n        /* \"#utility.yul\":8569:8573   */\n      0x20\n        /* \"#utility.yul\":8564:8567   */\n      dup3\n        /* \"#utility.yul\":8560:8574   */\n      add\n        /* \"#utility.yul\":8552:8574   */\n      swap1\n      pop\n        /* \"#utility.yul\":8428:8581   */\n      swap2\n      swap1\n      pop\n      jump\t// out\n        /* \"#utility.yul\":8587:8695   */\n    tag_358:\n        /* \"#utility.yul\":8664:8688   */\n      tag_522\n        /* \"#utility.yul\":8682:8687   */\n      dup2\n        /* \"#utility.yul\":8664:8688   */\n      tag_331\n      jump\t// in\n    tag_522:\n        /* \"#utility.yul\":8659:8662   */\n      dup3\n        /* \"#utility.yul\":8652:8689   */\n      mstore\n        /* \"#utility.yul\":8587:8695   */\n      pop\n      pop\n      jump\t// out\n        /* \"#utility.yul\":8701:8809   */\n    tag_359:\n        /* \"#utility.yul\":8778:8802   */\n      tag_524\n        /* \"#utility.yul\":8796:8801   */\n      dup2\n        /* \"#utility.yul\":8778:8802   */\n      tag_335\n      jump\t// in\n    tag_524:\n        /* \"#utility.yul\":8773:8776   */\n      dup3\n        /* \"#utility.yul\":8766:8803   */\n      mstore\n        /* \"#utility.yul\":8701:8809   */\n      pop\n      pop\n      jump\t// out\n        /* \"#utility.yul\":8815:8914   */\n    tag_360:\n        /* \"#utility.yul\":8867:8873   */\n      0x00\n        /* \"#utility.yul\":8901:8906   */\n      dup2\n        /* \"#utility.yul\":8895:8907   */\n      mload\n        /* \"#utility.yul\":8885:8907   */\n      swap1\n      pop\n        /* \"#utility.yul\":8815:8914   */\n      swap2\n      swap1\n      pop\n      jump\t// out\n        /* \"#utility.yul\":8920:9079   */\n    tag_361:\n        /* \"#utility.yul\":8994:9005   */\n      0x00\n        /* \"#utility.yul\":9028:9034   */\n      dup3\n        /* \"#utility.yul\":9023:9026   */\n      dup3\n        /* \"#utility.yul\":9016:9035   */\n      mstore\n        /* \"#utility.yul\":9068:9072   */\n      0x20\n        /* \"#utility.yul\":9063:9066   */\n      dup3\n        /* \"#utility.yul\":9059:9073   */\n      add\n        /* \"#utility.yul\":9044:9073   */\n      swap1\n      pop\n        /* \"#utility.yul\":8920:9079   */\n      swap3\n      swap2\n      pop\n      pop\n      jump\t// out\n        /* \"#utility.yul\":9085:9224   */\n    tag_362:\n        /* \"#utility.yul\":9174:9180   */\n      dup3\n        /* \"#utility.yul\":9169:9172   */\n      dup2\n        /* \"#utility.yul\":9164:9167   */\n      dup4\n        /* \"#utility.yul\":9158:9181   */\n      mcopy\n        /* \"#utility.yul\":9215:9216   */\n      0x00\n        /* \"#utility.yul\":9206:9212   */\n      dup4\n        /* \"#utility.yul\":9201:9204   */\n      dup4\n        /* \"#utility.yul\":9197:9213   */\n      add\n        /* \"#utility.yul\":9190:9217   */\n      mstore\n        /* \"#utility.yul\":9085:9224   */\n      pop\n      pop\n      pop\n      jump\t// out\n        /* \"#utility.yul\":9230:9587   */\n    tag_363:\n        /* \"#utility.yul\":9308:9311   */\n      0x00\n        /* \"#utility.yul\":9336:9375   */\n      tag_529\n        /* \"#utility.yul\":9369:9374   */\n      dup3\n        /* \"#utility.yul\":9336:9375   */\n      tag_360\n      jump\t// in\n    tag_529:\n        /* \"#utility.yul\":9391:9452   */\n      tag_530\n        /* \"#utility.yul\":9445:9451   */\n      dup2\n        /* \"#utility.yul\":9440:9443   */\n      dup6\n        /* \"#utility.yul\":9391:9452   */\n      tag_361\n      jump\t// in\n    tag_530:\n        /* \"#utility.yul\":9384:9452   */\n      swap4\n      pop\n        /* \"#utility.yul\":9461:9526   */\n      tag_531\n        /* \"#utility.yul\":9519:9525   */\n      dup2\n        /* \"#utility.yul\":9514:9517   */\n      dup6\n        /* \"#utility.yul\":9507:9511   */\n      0x20\n        /* \"#utility.yul\":9500:9505   */\n      dup7\n        /* \"#utility.yul\":9496:9512   */\n      add\n        /* \"#utility.yul\":9461:9526   */\n      tag_362\n      jump\t// in\n    tag_531:\n        /* \"#utility.yul\":9551:9580   */\n      tag_532\n        /* \"#utility.yul\":9573:9579   */\n      dup2\n        /* \"#utility.yul\":9551:9580   */\n      tag_343\n      jump\t// in\n    tag_532:\n        /* \"#utility.yul\":9546:9549   */\n      dup5\n        /* \"#utility.yul\":9542:9581   */\n      add\n        /* \"#utility.yul\":9535:9581   */\n      swap2\n      pop\n        /* \"#utility.yul\":9312:9587   */\n      pop\n        /* \"#utility.yul\":9230:9587   */\n      swap3\n      swap2\n      pop\n      pop\n      jump\t// out\n        /* \"#utility.yul\":9593:9683   */\n    tag_364:\n        /* \"#utility.yul\":9627:9634   */\n      0x00\n        /* \"#utility.yul\":9670:9675   */\n      dup2\n        /* \"#utility.yul\":9663:9676   */\n      iszero\n        /* \"#utility.yul\":9656:9677   */\n      iszero\n        /* \"#utility.yul\":9645:9677   */\n      swap1\n      pop\n        /* \"#utility.yul\":9593:9683   */\n      swap2\n      swap1\n      pop\n      jump\t// out\n        /* \"#utility.yul\":9689:9788   */\n    tag_365:\n        /* \"#utility.yul\":9760:9781   */\n      tag_535\n        /* \"#utility.yul\":9775:9780   */\n      dup2\n        /* \"#utility.yul\":9760:9781   */\n      tag_364\n      jump\t// in\n    tag_535:\n        /* \"#utility.yul\":9755:9758   */\n      dup3\n        /* \"#utility.yul\":9748:9782   */\n      mstore\n        /* \"#utility.yul\":9689:9788   */\n      pop\n      pop\n      jump\t// out\n        /* \"#utility.yul\":9840:11132   */\n    tag_366:\n        /* \"#utility.yul\":9941:9944   */\n      0x00\n        /* \"#utility.yul\":9977:9981   */\n      0xc0\n        /* \"#utility.yul\":9972:9975   */\n      dup4\n        /* \"#utility.yul\":9968:9982   */\n      add\n        /* \"#utility.yul\":10065:10069   */\n      0x00\n        /* \"#utility.yul\":10058:10063   */\n      dup4\n        /* \"#utility.yul\":10054:10070   */\n      add\n        /* \"#utility.yul\":10048:10071   */\n      mload\n        /* \"#utility.yul\":10084:10147   */\n      tag_537\n        /* \"#utility.yul\":10141:10145   */\n      0x00\n        /* \"#utility.yul\":10136:10139   */\n      dup7\n        /* \"#utility.yul\":10132:10146   */\n      add\n        /* \"#utility.yul\":10118:10130   */\n      dup3\n        /* \"#utility.yul\":10084:10147   */\n      tag_358\n      jump\t// in\n    tag_537:\n        /* \"#utility.yul\":9992:10157   */\n      pop\n        /* \"#utility.yul\":10241:10245   */\n      0x20\n        /* \"#utility.yul\":10234:10239   */\n      dup4\n        /* \"#utility.yul\":10230:10246   */\n      add\n        /* \"#utility.yul\":10224:10247   */\n      mload\n        /* \"#utility.yul\":10260:10323   */\n      tag_538\n        /* \"#utility.yul\":10317:10321   */\n      0x20\n        /* \"#utility.yul\":10312:10315   */\n      dup7\n        /* \"#utility.yul\":10308:10322   */\n      add\n        /* \"#utility.yul\":10294:10306   */\n      dup3\n        /* \"#utility.yul\":10260:10323   */\n      tag_359\n      jump\t// in\n    tag_538:\n        /* \"#utility.yul\":10167:10333   */\n      pop\n        /* \"#utility.yul\":10422:10426   */\n      0x40\n        /* \"#utility.yul\":10415:10420   */\n      dup4\n        /* \"#utility.yul\":10411:10427   */\n      add\n        /* \"#utility.yul\":10405:10428   */\n      mload\n        /* \"#utility.yul\":10441:10504   */\n      tag_539\n        /* \"#utility.yul\":10498:10502   */\n      0x40\n        /* \"#utility.yul\":10493:10496   */\n      dup7\n        /* \"#utility.yul\":10489:10503   */\n      add\n        /* \"#utility.yul\":10475:10487   */\n      dup3\n        /* \"#utility.yul\":10441:10504   */\n      tag_359\n      jump\t// in\n    tag_539:\n        /* \"#utility.yul\":10343:10514   */\n      pop\n        /* \"#utility.yul\":10597:10601   */\n      0x60\n        /* \"#utility.yul\":10590:10595   */\n      dup4\n        /* \"#utility.yul\":10586:10602   */\n      add\n        /* \"#utility.yul\":10580:10603   */\n      mload\n        /* \"#utility.yul\":10650:10653   */\n      dup5\n        /* \"#utility.yul\":10644:10648   */\n      dup3\n        /* \"#utility.yul\":10640:10654   */\n      sub\n        /* \"#utility.yul\":10633:10637   */\n      0x60\n        /* \"#utility.yul\":10628:10631   */\n      dup7\n        /* \"#utility.yul\":10624:10638   */\n      add\n        /* \"#utility.yul\":10617:10655   */\n      mstore\n        /* \"#utility.yul\":10676:10749   */\n      tag_540\n        /* \"#utility.yul\":10744:10748   */\n      dup3\n        /* \"#utility.yul\":10730:10742   */\n      dup3\n        /* \"#utility.yul\":10676:10749   */\n      tag_363\n      jump\t// in\n    tag_540:\n        /* \"#utility.yul\":10668:10749   */\n      swap2\n      pop\n        /* \"#utility.yul\":10524:10760   */\n      pop\n        /* \"#utility.yul\":10847:10851   */\n      0x80\n        /* \"#utility.yul\":10840:10845   */\n      dup4\n        /* \"#utility.yul\":10836:10852   */\n      add\n        /* \"#utility.yul\":10830:10853   */\n      mload\n        /* \"#utility.yul\":10866:10923   */\n      tag_541\n        /* \"#utility.yul\":10917:10921   */\n      0x80\n        /* \"#utility.yul\":10912:10915   */\n      dup7\n        /* \"#utility.yul\":10908:10922   */\n      add\n        /* \"#utility.yul\":10894:10906   */\n      dup3\n        /* \"#utility.yul\":10866:10923   */\n      tag_365\n      jump\t// in\n    tag_541:\n        /* \"#utility.yul\":10770:10933   */\n      pop\n        /* \"#utility.yul\":11019:11023   */\n      0xa0\n        /* \"#utility.yul\":11012:11017   */\n      dup4\n        /* \"#utility.yul\":11008:11024   */\n      add\n        /* \"#utility.yul\":11002:11025   */\n      mload\n        /* \"#utility.yul\":11038:11095   */\n      tag_542\n        /* \"#utility.yul\":11089:11093   */\n      0xa0\n        /* \"#utility.yul\":11084:11087   */\n      dup7\n        /* \"#utility.yul\":11080:11094   */\n      add\n        /* \"#utility.yul\":11066:11078   */\n      dup3\n        /* \"#utility.yul\":11038:11095   */\n      tag_365\n      jump\t// in\n    tag_542:\n        /* \"#utility.yul\":10943:11105   */\n      pop\n        /* \"#utility.yul\":11122:11126   */\n      dup1\n        /* \"#utility.yul\":11115:11126   */\n      swap2\n      pop\n        /* \"#utility.yul\":9946:11132   */\n      pop\n        /* \"#utility.yul\":9840:11132   */\n      swap3\n      swap2\n      pop\n      pop\n      jump\t// out\n        /* \"#utility.yul\":11138:11378   */\n    tag_367:\n        /* \"#utility.yul\":11249:11259   */\n      0x00\n        /* \"#utility.yul\":11284:11372   */\n      tag_544\n        /* \"#utility.yul\":11368:11371   */\n      dup4\n        /* \"#utility.yul\":11360:11366   */\n      dup4\n        /* \"#utility.yul\":11284:11372   */\n      tag_366\n      jump\t// in\n    tag_544:\n        /* \"#utility.yul\":11270:11372   */\n      swap1\n      pop\n        /* \"#utility.yul\":11138:11378   */\n      swap3\n      swap2\n      pop\n      pop\n      jump\t// out\n        /* \"#utility.yul\":11384:11518   */\n    tag_368:\n        /* \"#utility.yul\":11475:11479   */\n      0x00\n        /* \"#utility.yul\":11507:11511   */\n      0x20\n        /* \"#utility.yul\":11502:11505   */\n      dup3\n        /* \"#utility.yul\":11498:11512   */\n      add\n        /* \"#utility.yul\":11490:11512   */\n      swap1\n      pop\n        /* \"#utility.yul\":11384:11518   */\n      swap2\n      swap1\n      pop\n      jump\t// out\n        /* \"#utility.yul\":11574:12653   */\n    tag_369:\n        /* \"#utility.yul\":11735:11738   */\n      0x00\n        /* \"#utility.yul\":11764:11839   */\n      tag_547\n        /* \"#utility.yul\":11833:11838   */\n      dup3\n        /* \"#utility.yul\":11764:11839   */\n      tag_355\n      jump\t// in\n    tag_547:\n        /* \"#utility.yul\":11855:11962   */\n      tag_548\n        /* \"#utility.yul\":11955:11961   */\n      dup2\n        /* \"#utility.yul\":11950:11953   */\n      dup6\n        /* \"#utility.yul\":11855:11962   */\n      tag_356\n      jump\t// in\n    tag_548:\n        /* \"#utility.yul\":11848:11962   */\n      swap4\n      pop\n        /* \"#utility.yul\":11988:11991   */\n      dup4\n        /* \"#utility.yul\":12033:12037   */\n      0x20\n        /* \"#utility.yul\":12025:12031   */\n      dup3\n        /* \"#utility.yul\":12021:12038   */\n      mul\n        /* \"#utility.yul\":12016:12019   */\n      dup6\n        /* \"#utility.yul\":12012:12039   */\n      add\n        /* \"#utility.yul\":12063:12140   */\n      tag_549\n        /* \"#utility.yul\":12134:12139   */\n      dup6\n        /* \"#utility.yul\":12063:12140   */\n      tag_357\n      jump\t// in\n    tag_549:\n        /* \"#utility.yul\":12163:12170   */\n      dup1\n        /* \"#utility.yul\":12194:12195   */\n      0x00\n        /* \"#utility.yul\":12179:12608   */\n    tag_550:\n        /* \"#utility.yul\":12204:12210   */\n      dup6\n        /* \"#utility.yul\":12201:12202   */\n      dup2\n        /* \"#utility.yul\":12198:12211   */\n      lt\n        /* \"#utility.yul\":12179:12608   */\n      iszero\n      tag_552\n      jumpi\n        /* \"#utility.yul\":12275:12284   */\n      dup5\n        /* \"#utility.yul\":12269:12273   */\n      dup5\n        /* \"#utility.yul\":12265:12285   */\n      sub\n        /* \"#utility.yul\":12260:12263   */\n      dup10\n        /* \"#utility.yul\":12253:12286   */\n      mstore\n        /* \"#utility.yul\":12326:12332   */\n      dup2\n        /* \"#utility.yul\":12320:12333   */\n      mload\n        /* \"#utility.yul\":12354:12460   */\n      tag_553\n        /* \"#utility.yul\":12455:12459   */\n      dup6\n        /* \"#utility.yul\":12440:12453   */\n      dup3\n        /* \"#utility.yul\":12354:12460   */\n      tag_367\n      jump\t// in\n    tag_553:\n        /* \"#utility.yul\":12346:12460   */\n      swap5\n      pop\n        /* \"#utility.yul\":12483:12564   */\n      tag_554\n        /* \"#utility.yul\":12557:12563   */\n      dup4\n        /* \"#utility.yul\":12483:12564   */\n      tag_368\n      jump\t// in\n    tag_554:\n        /* \"#utility.yul\":12473:12564   */\n      swap3\n      pop\n        /* \"#utility.yul\":12593:12597   */\n      0x20\n        /* \"#utility.yul\":12588:12591   */\n      dup11\n        /* \"#utility.yul\":12584:12598   */\n      add\n        /* \"#utility.yul\":12577:12598   */\n      swap10\n      pop\n        /* \"#utility.yul\":12239:12608   */\n      pop\n        /* \"#utility.yul\":12226:12227   */\n      0x01\n        /* \"#utility.yul\":12223:12224   */\n      dup2\n        /* \"#utility.yul\":12219:12228   */\n      add\n        /* \"#utility.yul\":12214:12228   */\n      swap1\n      pop\n        /* \"#utility.yul\":12179:12608   */\n      jump(tag_550)\n    tag_552:\n        /* \"#utility.yul\":12183:12197   */\n      pop\n        /* \"#utility.yul\":12624:12628   */\n      dup3\n        /* \"#utility.yul\":12617:12628   */\n      swap8\n      pop\n        /* \"#utility.yul\":12644:12647   */\n      dup8\n        /* \"#utility.yul\":12637:12647   */\n      swap6\n      pop\n        /* \"#utility.yul\":11740:12653   */\n      pop\n      pop\n      pop\n      pop\n      pop\n        /* \"#utility.yul\":11574:12653   */\n      swap3\n      swap2\n      pop\n      pop\n      jump\t// out\n        /* \"#utility.yul\":12659:13116   */\n    tag_46:\n        /* \"#utility.yul\":12844:12848   */\n      0x00\n        /* \"#utility.yul\":12882:12884   */\n      0x20\n        /* \"#utility.yul\":12871:12880   */\n      dup3\n        /* \"#utility.yul\":12867:12885   */\n      add\n        /* \"#utility.yul\":12859:12885   */\n      swap1\n      pop\n        /* \"#utility.yul\":12931:12940   */\n      dup2\n        /* \"#utility.yul\":12925:12929   */\n      dup2\n        /* \"#utility.yul\":12921:12941   */\n      sub\n        /* \"#utility.yul\":12917:12918   */\n      0x00\n        /* \"#utility.yul\":12906:12915   */\n      dup4\n        /* \"#utility.yul\":12902:12919   */\n      add\n        /* \"#utility.yul\":12895:12942   */\n      mstore\n        /* \"#utility.yul\":12959:13109   */\n      tag_556\n        /* \"#utility.yul\":13104:13108   */\n      dup2\n        /* \"#utility.yul\":13095:13101   */\n      dup5\n        /* \"#utility.yul\":12959:13109   */\n      tag_369\n      jump\t// in\n    tag_556:\n        /* \"#utility.yul\":12951:13109   */\n      swap1\n      pop\n        /* \"#utility.yul\":12659:13116   */\n      swap3\n      swap2\n      pop\n      pop\n      jump\t// out\n        /* \"#utility.yul\":13122:13244   */\n    tag_370:\n        /* \"#utility.yul\":13195:13219   */\n      tag_558\n        /* \"#utility.yul\":13213:13218   */\n      dup2\n        /* \"#utility.yul\":13195:13219   */\n      tag_331\n      jump\t// in\n    tag_558:\n        /* \"#utility.yul\":13188:13193   */\n      dup2\n        /* \"#utility.yul\":13185:13220   */\n      eq\n        /* \"#utility.yul\":13175:13238   */\n      tag_559\n      jumpi\n        /* \"#utility.yul\":13234:13235   */\n      0x00\n        /* \"#utility.yul\":13231:13232   */\n      dup1\n        /* \"#utility.yul\":13224:13236   */\n      revert\n        /* \"#utility.yul\":13175:13238   */\n    tag_559:\n        /* \"#utility.yul\":13122:13244   */\n      pop\n      jump\t// out\n        /* \"#utility.yul\":13250:13389   */\n    tag_371:\n        /* \"#utility.yul\":13296:13301   */\n      0x00\n        /* \"#utility.yul\":13334:13340   */\n      dup2\n        /* \"#utility.yul\":13321:13341   */\n      calldataload\n        /* \"#utility.yul\":13312:13341   */\n      swap1\n      pop\n        /* \"#utility.yul\":13350:13383   */\n      tag_561\n        /* \"#utility.yul\":13377:13382   */\n      dup2\n        /* \"#utility.yul\":13350:13383   */\n      tag_370\n      jump\t// in\n    tag_561:\n        /* \"#utility.yul\":13250:13389   */\n      swap3\n      swap2\n      pop\n      pop\n      jump\t// out\n        /* \"#utility.yul\":13395:14010   */\n    tag_50:\n        /* \"#utility.yul\":13470:13476   */\n      0x00\n        /* \"#utility.yul\":13478:13484   */\n      dup1\n        /* \"#utility.yul\":13486:13492   */\n      0x00\n        /* \"#utility.yul\":13535:13537   */\n      0x60\n        /* \"#utility.yul\":13523:13532   */\n      dup5\n        /* \"#utility.yul\":13514:13521   */\n      dup7\n        /* \"#utility.yul\":13510:13533   */\n      sub\n        /* \"#utility.yul\":13506:13538   */\n      slt\n        /* \"#utility.yul\":13503:13622   */\n      iszero\n      tag_563\n      jumpi\n        /* \"#utility.yul\":13541:13620   */\n      tag_564\n      tag_328\n      jump\t// in\n    tag_564:\n        /* \"#utility.yul\":13503:13622   */\n    tag_563:\n        /* \"#utility.yul\":13661:13662   */\n      0x00\n        /* \"#utility.yul\":13686:13739   */\n      tag_565\n        /* \"#utility.yul\":13731:13738   */\n      dup7\n        /* \"#utility.yul\":13722:13728   */\n      dup3\n        /* \"#utility.yul\":13711:13720   */\n      dup8\n        /* \"#utility.yul\":13707:13729   */\n      add\n        /* \"#utility.yul\":13686:13739   */\n      tag_371\n      jump\t// in\n    tag_565:\n        /* \"#utility.yul\":13676:13739   */\n      swap4\n      pop\n        /* \"#utility.yul\":13632:13749   */\n      pop\n        /* \"#utility.yul\":13788:13790   */\n      0x20\n        /* \"#utility.yul\":13814:13865   */\n      tag_566\n        /* \"#utility.yul\":13857:13864   */\n      dup7\n        /* \"#utility.yul\":13848:13854   */\n      dup3\n        /* \"#utility.yul\":13837:13846   */\n      dup8\n        /* \"#utility.yul\":13833:13855   */\n      add\n        /* \"#utility.yul\":13814:13865   */\n      tag_340\n      jump\t// in\n    tag_566:\n        /* \"#utility.yul\":13804:13865   */\n      swap3\n      pop\n        /* \"#utility.yul\":13759:13875   */\n      pop\n        /* \"#utility.yul\":13914:13916   */\n      0x40\n        /* \"#utility.yul\":13940:13993   */\n      tag_567\n        /* \"#utility.yul\":13985:13992   */\n      dup7\n        /* \"#utility.yul\":13976:13982   */\n      dup3\n        /* \"#utility.yul\":13965:13974   */\n      dup8\n        /* \"#utility.yul\":13961:13983   */\n      add\n        /* \"#utility.yul\":13940:13993   */\n      tag_337\n      jump\t// in\n    tag_567:\n        /* \"#utility.yul\":13930:13993   */\n      swap2\n      pop\n        /* \"#utility.yul\":13885:14003   */\n      pop\n        /* \"#utility.yul\":13395:14010   */\n      swap3\n      pop\n      swap3\n      pop\n      swap3\n      jump\t// out\n        /* \"#utility.yul\":14016:14134   */\n    tag_372:\n        /* \"#utility.yul\":14103:14127   */\n      tag_569\n        /* \"#utility.yul\":14121:14126   */\n      dup2\n        /* \"#utility.yul\":14103:14127   */\n      tag_331\n      jump\t// in\n    tag_569:\n        /* \"#utility.yul\":14098:14101   */\n      dup3\n        /* \"#utility.yul\":14091:14128   */\n      mstore\n        /* \"#utility.yul\":14016:14134   */\n      pop\n      pop\n      jump\t// out\n        /* \"#utility.yul\":14140:14309   */\n    tag_373:\n        /* \"#utility.yul\":14224:14235   */\n      0x00\n        /* \"#utility.yul\":14258:14264   */\n      dup3\n        /* \"#utility.yul\":14253:14256   */\n      dup3\n        /* \"#utility.yul\":14246:14265   */\n      mstore\n        /* \"#utility.yul\":14298:14302   */\n      0x20\n        /* \"#utility.yul\":14293:14296   */\n      dup3\n        /* \"#utility.yul\":14289:14303   */\n      add\n        /* \"#utility.yul\":14274:14303   */\n      swap1\n      pop\n        /* \"#utility.yul\":14140:14309   */\n      swap3\n      swap2\n      pop\n      pop\n      jump\t// out\n        /* \"#utility.yul\":14315:14692   */\n    tag_374:\n        /* \"#utility.yul\":14403:14406   */\n      0x00\n        /* \"#utility.yul\":14431:14470   */\n      tag_572\n        /* \"#utility.yul\":14464:14469   */\n      dup3\n        /* \"#utility.yul\":14431:14470   */\n      tag_360\n      jump\t// in\n    tag_572:\n        /* \"#utility.yul\":14486:14557   */\n      tag_573\n        /* \"#utility.yul\":14550:14556   */\n      dup2\n        /* \"#utility.yul\":14545:14548   */\n      dup6\n        /* \"#utility.yul\":14486:14557   */\n      tag_373\n      jump\t// in\n    tag_573:\n        /* \"#utility.yul\":14479:14557   */\n      swap4\n      pop\n        /* \"#utility.yul\":14566:14631   */\n      tag_574\n        /* \"#utility.yul\":14624:14630   */\n      dup2\n        /* \"#utility.yul\":14619:14622   */\n      dup6\n        /* \"#utility.yul\":14612:14616   */\n      0x20\n        /* \"#utility.yul\":14605:14610   */\n      dup7\n        /* \"#utility.yul\":14601:14617   */\n      add\n        /* \"#utility.yul\":14566:14631   */\n      tag_362\n      jump\t// in\n    tag_574:\n        /* \"#utility.yul\":14656:14685   */\n      tag_575\n        /* \"#utility.yul\":14678:14684   */\n      dup2\n        /* \"#utility.yul\":14656:14685   */\n      tag_343\n      jump\t// in\n    tag_575:\n        /* \"#utility.yul\":14651:14654   */\n      dup5\n        /* \"#utility.yul\":14647:14686   */\n      add\n        /* \"#utility.yul\":14640:14686   */\n      swap2\n      pop\n        /* \"#utility.yul\":14407:14692   */\n      pop\n        /* \"#utility.yul\":14315:14692   */\n      swap3\n      swap2\n      pop\n      pop\n      jump\t// out\n        /* \"#utility.yul\":14698:14807   */\n    tag_375:\n        /* \"#utility.yul\":14779:14800   */\n      tag_577\n        /* \"#utility.yul\":14794:14799   */\n      dup2\n        /* \"#utility.yul\":14779:14800   */\n      tag_364\n      jump\t// in\n    tag_577:\n        /* \"#utility.yul\":14774:14777   */\n      dup3\n        /* \"#utility.yul\":14767:14801   */\n      mstore\n        /* \"#utility.yul\":14698:14807   */\n      pop\n      pop\n      jump\t// out\n        /* \"#utility.yul\":14813:15556   */\n    tag_53:\n        /* \"#utility.yul\":15032:15036   */\n      0x00\n        /* \"#utility.yul\":15070:15073   */\n      0xa0\n        /* \"#utility.yul\":15059:15068   */\n      dup3\n        /* \"#utility.yul\":15055:15074   */\n      add\n        /* \"#utility.yul\":15047:15074   */\n      swap1\n      pop\n        /* \"#utility.yul\":15084:15155   */\n      tag_579\n        /* \"#utility.yul\":15152:15153   */\n      0x00\n        /* \"#utility.yul\":15141:15150   */\n      dup4\n        /* \"#utility.yul\":15137:15154   */\n      add\n        /* \"#utility.yul\":15128:15134   */\n      dup9\n        /* \"#utility.yul\":15084:15155   */\n      tag_372\n      jump\t// in\n    tag_579:\n        /* \"#utility.yul\":15165:15237   */\n      tag_580\n        /* \"#utility.yul\":15233:15235   */\n      0x20\n        /* \"#utility.yul\":15222:15231   */\n      dup4\n        /* \"#utility.yul\":15218:15236   */\n      add\n        /* \"#utility.yul\":15209:15215   */\n      dup8\n        /* \"#utility.yul\":15165:15237   */\n      tag_351\n      jump\t// in\n    tag_580:\n        /* \"#utility.yul\":15284:15293   */\n      dup2\n        /* \"#utility.yul\":15278:15282   */\n      dup2\n        /* \"#utility.yul\":15274:15294   */\n      sub\n        /* \"#utility.yul\":15269:15271   */\n      0x40\n        /* \"#utility.yul\":15258:15267   */\n      dup4\n        /* \"#utility.yul\":15254:15272   */\n      add\n        /* \"#utility.yul\":15247:15295   */\n      mstore\n        /* \"#utility.yul\":15312:15390   */\n      tag_581\n        /* \"#utility.yul\":15385:15389   */\n      dup2\n        /* \"#utility.yul\":15376:15382   */\n      dup7\n        /* \"#utility.yul\":15312:15390   */\n      tag_374\n      jump\t// in\n    tag_581:\n        /* \"#utility.yul\":15304:15390   */\n      swap1\n      pop\n        /* \"#utility.yul\":15400:15466   */\n      tag_582\n        /* \"#utility.yul\":15462:15464   */\n      0x60\n        /* \"#utility.yul\":15451:15460   */\n      dup4\n        /* \"#utility.yul\":15447:15465   */\n      add\n        /* \"#utility.yul\":15438:15444   */\n      dup6\n        /* \"#utility.yul\":15400:15466   */\n      tag_375\n      jump\t// in\n    tag_582:\n        /* \"#utility.yul\":15476:15549   */\n      tag_583\n        /* \"#utility.yul\":15544:15547   */\n      0x80\n        /* \"#utility.yul\":15533:15542   */\n      dup4\n        /* \"#utility.yul\":15529:15548   */\n      add\n        /* \"#utility.yul\":15520:15526   */\n      dup5\n        /* \"#utility.yul\":15476:15549   */\n      tag_351\n      jump\t// in\n    tag_583:\n        /* \"#utility.yul\":14813:15556   */\n      swap7\n      swap6\n      pop\n      pop\n      pop\n      pop\n      pop\n      pop\n      jump\t// out\n        /* \"#utility.yul\":15562:15784   */\n    tag_65:\n        /* \"#utility.yul\":15655:15659   */\n      0x00\n        /* \"#utility.yul\":15693:15695   */\n      0x20\n        /* \"#utility.yul\":15682:15691   */\n      dup3\n        /* \"#utility.yul\":15678:15696   */\n      add\n        /* \"#utility.yul\":15670:15696   */\n      swap1\n      pop\n        /* \"#utility.yul\":15706:15777   */\n      tag_585\n        /* \"#utility.yul\":15774:15775   */\n      0x00\n        /* \"#utility.yul\":15763:15772   */\n      dup4\n        /* \"#utility.yul\":15759:15776   */\n      add\n        /* \"#utility.yul\":15750:15756   */\n      dup5\n        /* \"#utility.yul\":15706:15777   */\n      tag_372\n      jump\t// in\n    tag_585:\n        /* \"#utility.yul\":15562:15784   */\n      swap3\n      swap2\n      pop\n      pop\n      jump\t// out\n        /* \"#utility.yul\":15790:16403   */\n    tag_69:\n        /* \"#utility.yul\":15864:15870   */\n      0x00\n        /* \"#utility.yul\":15872:15878   */\n      dup1\n        /* \"#utility.yul\":15880:15886   */\n      0x00\n        /* \"#utility.yul\":15929:15931   */\n      0x60\n        /* \"#utility.yul\":15917:15926   */\n      dup5\n        /* \"#utility.yul\":15908:15915   */\n      dup7\n        /* \"#utility.yul\":15904:15927   */\n      sub\n        /* \"#utility.yul\":15900:15932   */\n      slt\n        /* \"#utility.yul\":15897:16016   */\n      iszero\n      tag_587\n      jumpi\n        /* \"#utility.yul\":15935:16014   */\n      tag_588\n      tag_328\n      jump\t// in\n    tag_588:\n        /* \"#utility.yul\":15897:16016   */\n    tag_587:\n        /* \"#utility.yul\":16055:16056   */\n      0x00\n        /* \"#utility.yul\":16080:16132   */\n      tag_589\n        /* \"#utility.yul\":16124:16131   */\n      dup7\n        /* \"#utility.yul\":16115:16121   */\n      dup3\n        /* \"#utility.yul\":16104:16113   */\n      dup8\n        /* \"#utility.yul\":16100:16122   */\n      add\n        /* \"#utility.yul\":16080:16132   */\n      tag_354\n      jump\t// in\n    tag_589:\n        /* \"#utility.yul\":16070:16132   */\n      swap4\n      pop\n        /* \"#utility.yul\":16026:16142   */\n      pop\n        /* \"#utility.yul\":16181:16183   */\n      0x20\n        /* \"#utility.yul\":16207:16258   */\n      tag_590\n        /* \"#utility.yul\":16250:16257   */\n      dup7\n        /* \"#utility.yul\":16241:16247   */\n      dup3\n        /* \"#utility.yul\":16230:16239   */\n      dup8\n        /* \"#utility.yul\":16226:16248   */\n      add\n        /* \"#utility.yul\":16207:16258   */\n      tag_340\n      jump\t// in\n    tag_590:\n        /* \"#utility.yul\":16197:16258   */\n      swap3\n      pop\n        /* \"#utility.yul\":16152:16268   */\n      pop\n        /* \"#utility.yul\":16307:16309   */\n      0x40\n        /* \"#utility.yul\":16333:16386   */\n      tag_591\n        /* \"#utility.yul\":16378:16385   */\n      dup7\n        /* \"#utility.yul\":16369:16375   */\n      dup3\n        /* \"#utility.yul\":16358:16367   */\n      dup8\n        /* \"#utility.yul\":16354:16376   */\n      add\n        /* \"#utility.yul\":16333:16386   */\n      tag_337\n      jump\t// in\n    tag_591:\n        /* \"#utility.yul\":16323:16386   */\n      swap2\n      pop\n        /* \"#utility.yul\":16278:16396   */\n      pop\n        /* \"#utility.yul\":15790:16403   */\n      swap3\n      pop\n      swap3\n      pop\n      swap3\n      jump\t// out\n        /* \"#utility.yul\":16409:17251   */\n    tag_76:\n        /* \"#utility.yul\":16650:16654   */\n      0x00\n        /* \"#utility.yul\":16688:16691   */\n      0xc0\n        /* \"#utility.yul\":16677:16686   */\n      dup3\n        /* \"#utility.yul\":16673:16692   */\n      add\n        /* \"#utility.yul\":16665:16692   */\n      swap1\n      pop\n        /* \"#utility.yul\":16702:16773   */\n      tag_593\n        /* \"#utility.yul\":16770:16771   */\n      0x00\n        /* \"#utility.yul\":16759:16768   */\n      dup4\n        /* \"#utility.yul\":16755:16772   */\n      add\n        /* \"#utility.yul\":16746:16752   */\n      dup10\n        /* \"#utility.yul\":16702:16773   */\n      tag_372\n      jump\t// in\n    tag_593:\n        /* \"#utility.yul\":16783:16855   */\n      tag_594\n        /* \"#utility.yul\":16851:16853   */\n      0x20\n        /* \"#utility.yul\":16840:16849   */\n      dup4\n        /* \"#utility.yul\":16836:16854   */\n      add\n        /* \"#utility.yul\":16827:16833   */\n      dup9\n        /* \"#utility.yul\":16783:16855   */\n      tag_351\n      jump\t// in\n    tag_594:\n        /* \"#utility.yul\":16865:16937   */\n      tag_595\n        /* \"#utility.yul\":16933:16935   */\n      0x40\n        /* \"#utility.yul\":16922:16931   */\n      dup4\n        /* \"#utility.yul\":16918:16936   */\n      add\n        /* \"#utility.yul\":16909:16915   */\n      dup8\n        /* \"#utility.yul\":16865:16937   */\n      tag_351\n      jump\t// in\n    tag_595:\n        /* \"#utility.yul\":16984:16993   */\n      dup2\n        /* \"#utility.yul\":16978:16982   */\n      dup2\n        /* \"#utility.yul\":16974:16994   */\n      sub\n        /* \"#utility.yul\":16969:16971   */\n      0x60\n        /* \"#utility.yul\":16958:16967   */\n      dup4\n        /* \"#utility.yul\":16954:16972   */\n      add\n        /* \"#utility.yul\":16947:16995   */\n      mstore\n        /* \"#utility.yul\":17012:17090   */\n      tag_596\n        /* \"#utility.yul\":17085:17089   */\n      dup2\n        /* \"#utility.yul\":17076:17082   */\n      dup7\n        /* \"#utility.yul\":17012:17090   */\n      tag_374\n      jump\t// in\n    tag_596:\n        /* \"#utility.yul\":17004:17090   */\n      swap1\n      pop\n        /* \"#utility.yul\":17100:17167   */\n      tag_597\n        /* \"#utility.yul\":17162:17165   */\n      0x80\n        /* \"#utility.yul\":17151:17160   */\n      dup4\n        /* \"#utility.yul\":17147:17166   */\n      add\n        /* \"#utility.yul\":17138:17144   */\n      dup6\n        /* \"#utility.yul\":17100:17167   */\n      tag_375\n      jump\t// in\n    tag_597:\n        /* \"#utility.yul\":17177:17244   */\n      tag_598\n        /* \"#utility.yul\":17239:17242   */\n      0xa0\n        /* \"#utility.yul\":17228:17237   */\n      dup4\n        /* \"#utility.yul\":17224:17243   */\n      add\n        /* \"#utility.yul\":17215:17221   */\n      dup5\n        /* \"#utility.yul\":17177:17244   */\n      tag_375\n      jump\t// in\n    tag_598:\n        /* \"#utility.yul\":16409:17251   */\n      swap8\n      swap7\n      pop\n      pop\n      pop\n      pop\n      pop\n      pop\n      pop\n      jump\t// out\n        /* \"#utility.yul\":17257:17725   */\n    tag_83:\n        /* \"#utility.yul\":17322:17328   */\n      0x00\n        /* \"#utility.yul\":17330:17336   */\n      dup1\n        /* \"#utility.yul\":17379:17381   */\n      0x40\n        /* \"#utility.yul\":17367:17376   */\n      dup4\n        /* \"#utility.yul\":17358:17365   */\n      dup6\n        /* \"#utility.yul\":17354:17377   */\n      sub\n        /* \"#utility.yul\":17350:17382   */\n      slt\n        /* \"#utility.yul\":17347:17466   */\n      iszero\n      tag_600\n      jumpi\n        /* \"#utility.yul\":17385:17464   */\n      tag_601\n      tag_328\n      jump\t// in\n    tag_601:\n        /* \"#utility.yul\":17347:17466   */\n    tag_600:\n        /* \"#utility.yul\":17505:17506   */\n      0x00\n        /* \"#utility.yul\":17530:17581   */\n      tag_602\n        /* \"#utility.yul\":17573:17580   */\n      dup6\n        /* \"#utility.yul\":17564:17570   */\n      dup3\n        /* \"#utility.yul\":17553:17562   */\n      dup7\n        /* \"#utility.yul\":17549:17571   */\n      add\n        /* \"#utility.yul\":17530:17581   */\n      tag_340\n      jump\t// in\n    tag_602:\n        /* \"#utility.yul\":17520:17581   */\n      swap3\n      pop\n        /* \"#utility.yul\":17476:17591   */\n      pop\n        /* \"#utility.yul\":17630:17632   */\n      0x20\n        /* \"#utility.yul\":17656:17708   */\n      tag_603\n        /* \"#utility.yul\":17700:17707   */\n      dup6\n        /* \"#utility.yul\":17691:17697   */\n      dup3\n        /* \"#utility.yul\":17680:17689   */\n      dup7\n        /* \"#utility.yul\":17676:17698   */\n      add\n        /* \"#utility.yul\":17656:17708   */\n      tag_354\n      jump\t// in\n    tag_603:\n        /* \"#utility.yul\":17646:17708   */\n      swap2\n      pop\n        /* \"#utility.yul\":17601:17718   */\n      pop\n        /* \"#utility.yul\":17257:17725   */\n      swap3\n      pop\n      swap3\n      swap1\n      pop\n      jump\t// out\n        /* \"#utility.yul\":17731:18060   */\n    tag_88:\n        /* \"#utility.yul\":17790:17796   */\n      0x00\n        /* \"#utility.yul\":17839:17841   */\n      0x20\n        /* \"#utility.yul\":17827:17836   */\n      dup3\n        /* \"#utility.yul\":17818:17825   */\n      dup5\n        /* \"#utility.yul\":17814:17837   */\n      sub\n        /* \"#utility.yul\":17810:17842   */\n      slt\n        /* \"#utility.yul\":17807:17926   */\n      iszero\n      tag_605\n      jumpi\n        /* \"#utility.yul\":17845:17924   */\n      tag_606\n      tag_328\n      jump\t// in\n    tag_606:\n        /* \"#utility.yul\":17807:17926   */\n    tag_605:\n        /* \"#utility.yul\":17965:17966   */\n      0x00\n        /* \"#utility.yul\":17990:18043   */\n      tag_607\n        /* \"#utility.yul\":18035:18042   */\n      dup5\n        /* \"#utility.yul\":18026:18032   */\n      dup3\n        /* \"#utility.yul\":18015:18024   */\n      dup6\n        /* \"#utility.yul\":18011:18033   */\n      add\n        /* \"#utility.yul\":17990:18043   */\n      tag_371\n      jump\t// in\n    tag_607:\n        /* \"#utility.yul\":17980:18043   */\n      swap2\n      pop\n        /* \"#utility.yul\":17936:18053   */\n      pop\n        /* \"#utility.yul\":17731:18060   */\n      swap3\n      swap2\n      pop\n      pop\n      jump\t// out\n        /* \"#utility.yul\":18066:18287   */\n    tag_376:\n        /* \"#utility.yul\":18206:18240   */\n      0x4d7573742070726f7669646520612076616c696420746f6b656e206164647265\n        /* \"#utility.yul\":18202:18203   */\n      0x00\n        /* \"#utility.yul\":18194:18200   */\n      dup3\n        /* \"#utility.yul\":18190:18204   */\n      add\n        /* \"#utility.yul\":18183:18241   */\n      mstore\n        /* \"#utility.yul\":18275:18279   */\n      0x7373000000000000000000000000000000000000000000000000000000000000\n        /* \"#utility.yul\":18270:18272   */\n      0x20\n        /* \"#utility.yul\":18262:18268   */\n      dup3\n        /* \"#utility.yul\":18258:18273   */\n      add\n        /* \"#utility.yul\":18251:18280   */\n      mstore\n        /* \"#utility.yul\":18066:18287   */\n      pop\n      jump\t// out\n        /* \"#utility.yul\":18293:18659   */\n    tag_377:\n        /* \"#utility.yul\":18435:18438   */\n      0x00\n        /* \"#utility.yul\":18456:18523   */\n      tag_610\n        /* \"#utility.yul\":18520:18522   */\n      0x22\n        /* \"#utility.yul\":18515:18518   */\n      dup4\n        /* \"#utility.yul\":18456:18523   */\n      tag_373\n      jump\t// in\n    tag_610:\n        /* \"#utility.yul\":18449:18523   */\n      swap2\n      pop\n        /* \"#utility.yul\":18532:18625   */\n      tag_611\n        /* \"#utility.yul\":18621:18624   */\n      dup3\n        /* \"#utility.yul\":18532:18625   */\n      tag_376\n      jump\t// in\n    tag_611:\n        /* \"#utility.yul\":18650:18652   */\n      0x40\n        /* \"#utility.yul\":18645:18648   */\n      dup3\n        /* \"#utility.yul\":18641:18653   */\n      add\n        /* \"#utility.yul\":18634:18653   */\n      swap1\n      pop\n        /* \"#utility.yul\":18293:18659   */\n      swap2\n      swap1\n      pop\n      jump\t// out\n        /* \"#utility.yul\":18665:19084   */\n    tag_96:\n        /* \"#utility.yul\":18831:18835   */\n      0x00\n        /* \"#utility.yul\":18869:18871   */\n      0x20\n        /* \"#utility.yul\":18858:18867   */\n      dup3\n        /* \"#utility.yul\":18854:18872   */\n      add\n        /* \"#utility.yul\":18846:18872   */\n      swap1\n      pop\n        /* \"#utility.yul\":18918:18927   */\n      dup2\n        /* \"#utility.yul\":18912:18916   */\n      dup2\n        /* \"#utility.yul\":18908:18928   */\n      sub\n        /* \"#utility.yul\":18904:18905   */\n      0x00\n        /* \"#utility.yul\":18893:18902   */\n      dup4\n        /* \"#utility.yul\":18889:18906   */\n      add\n        /* \"#utility.yul\":18882:18929   */\n      mstore\n        /* \"#utility.yul\":18946:19077   */\n      tag_613\n        /* \"#utility.yul\":19072:19076   */\n      dup2\n        /* \"#utility.yul\":18946:19077   */\n      tag_377\n      jump\t// in\n    tag_613:\n        /* \"#utility.yul\":18938:19077   */\n      swap1\n      pop\n        /* \"#utility.yul\":18665:19084   */\n      swap2\n      swap1\n      pop\n      jump\t// out\n        /* \"#utility.yul\":19090:19315   */\n    tag_378:\n        /* \"#utility.yul\":19230:19264   */\n      0x546f6b656e20616d6f756e74206d757374206265206772656174657220746865\n        /* \"#utility.yul\":19226:19227   */\n      0x00\n        /* \"#utility.yul\":19218:19224   */\n      dup3\n        /* \"#utility.yul\":19214:19228   */\n      add\n        /* \"#utility.yul\":19207:19265   */\n      mstore\n        /* \"#utility.yul\":19299:19307   */\n      0x6e207a65726f0000000000000000000000000000000000000000000000000000\n        /* \"#utility.yul\":19294:19296   */\n      0x20\n        /* \"#utility.yul\":19286:19292   */\n      dup3\n        /* \"#utility.yul\":19282:19297   */\n      add\n        /* \"#utility.yul\":19275:19308   */\n      mstore\n        /* \"#utility.yul\":19090:19315   */\n      pop\n      jump\t// out\n        /* \"#utility.yul\":19321:19687   */\n    tag_379:\n        /* \"#utility.yul\":19463:19466   */\n      0x00\n        /* \"#utility.yul\":19484:19551   */\n      tag_616\n        /* \"#utility.yul\":19548:19550   */\n      0x26\n        /* \"#utility.yul\":19543:19546   */\n      dup4\n        /* \"#utility.yul\":19484:19551   */\n      tag_373\n      jump\t// in\n    tag_616:\n        /* \"#utility.yul\":19477:19551   */\n      swap2\n      pop\n        /* \"#utility.yul\":19560:19653   */\n      tag_617\n        /* \"#utility.yul\":19649:19652   */\n      dup3\n        /* \"#utility.yul\":19560:19653   */\n      tag_378\n      jump\t// in\n    tag_617:\n        /* \"#utility.yul\":19678:19680   */\n      0x40\n        /* \"#utility.yul\":19673:19676   */\n      dup3\n        /* \"#utility.yul\":19669:19681   */\n      add\n        /* \"#utility.yul\":19662:19681   */\n      swap1\n      pop\n        /* \"#utility.yul\":19321:19687   */\n      swap2\n      swap1\n      pop\n      jump\t// out\n        /* \"#utility.yul\":19693:20112   */\n    tag_99:\n        /* \"#utility.yul\":19859:19863   */\n      0x00\n        /* \"#utility.yul\":19897:19899   */\n      0x20\n        /* \"#utility.yul\":19886:19895   */\n      dup3\n        /* \"#utility.yul\":19882:19900   */\n      add\n        /* \"#utility.yul\":19874:19900   */\n      swap1\n      pop\n        /* \"#utility.yul\":19946:19955   */\n      dup2\n        /* \"#utility.yul\":19940:19944   */\n      dup2\n        /* \"#utility.yul\":19936:19956   */\n      sub\n        /* \"#utility.yul\":19932:19933   */\n      0x00\n        /* \"#utility.yul\":19921:19930   */\n      dup4\n        /* \"#utility.yul\":19917:19934   */\n      add\n        /* \"#utility.yul\":19910:19957   */\n      mstore\n        /* \"#utility.yul\":19974:20105   */\n      tag_619\n        /* \"#utility.yul\":20100:20104   */\n      dup2\n        /* \"#utility.yul\":19974:20105   */\n      tag_379\n      jump\t// in\n    tag_619:\n        /* \"#utility.yul\":19966:20105   */\n      swap1\n      pop\n        /* \"#utility.yul\":19693:20112   */\n      swap2\n      swap1\n      pop\n      jump\t// out\n        /* \"#utility.yul\":20118:20346   */\n    tag_380:\n        /* \"#utility.yul\":20258:20292   */\n      0x546865206c6f636b20706572696f64206d757374206265206772656174657220\n        /* \"#utility.yul\":20254:20255   */\n      0x00\n        /* \"#utility.yul\":20246:20252   */\n      dup3\n        /* \"#utility.yul\":20242:20256   */\n      add\n        /* \"#utility.yul\":20235:20293   */\n      mstore\n        /* \"#utility.yul\":20327:20338   */\n      0x7468656e207a65726f0000000000000000000000000000000000000000000000\n        /* \"#utility.yul\":20322:20324   */\n      0x20\n        /* \"#utility.yul\":20314:20320   */\n      dup3\n        /* \"#utility.yul\":20310:20325   */\n      add\n        /* \"#utility.yul\":20303:20339   */\n      mstore\n        /* \"#utility.yul\":20118:20346   */\n      pop\n      jump\t// out\n        /* \"#utility.yul\":20352:20718   */\n    tag_381:\n        /* \"#utility.yul\":20494:20497   */\n      0x00\n        /* \"#utility.yul\":20515:20582   */\n      tag_622\n        /* \"#utility.yul\":20579:20581   */\n      0x29\n        /* \"#utility.yul\":20574:20577   */\n      dup4\n        /* \"#utility.yul\":20515:20582   */\n      tag_373\n      jump\t// in\n    tag_622:\n        /* \"#utility.yul\":20508:20582   */\n      swap2\n      pop\n        /* \"#utility.yul\":20591:20684   */\n      tag_623\n        /* \"#utility.yul\":20680:20683   */\n      dup3\n        /* \"#utility.yul\":20591:20684   */\n      tag_380\n      jump\t// in\n    tag_623:\n        /* \"#utility.yul\":20709:20711   */\n      0x40\n        /* \"#utility.yul\":20704:20707   */\n      dup3\n        /* \"#utility.yul\":20700:20712   */\n      add\n        /* \"#utility.yul\":20693:20712   */\n      swap1\n      pop\n        /* \"#utility.yul\":20352:20718   */\n      swap2\n      swap1\n      pop\n      jump\t// out\n        /* \"#utility.yul\":20724:21143   */\n    tag_102:\n        /* \"#utility.yul\":20890:20894   */\n      0x00\n        /* \"#utility.yul\":20928:20930   */\n      0x20\n        /* \"#utility.yul\":20917:20926   */\n      dup3\n        /* \"#utility.yul\":20913:20931   */\n      add\n        /* \"#utility.yul\":20905:20931   */\n      swap1\n      pop\n        /* \"#utility.yul\":20977:20986   */\n      dup2\n        /* \"#utility.yul\":20971:20975   */\n      dup2\n        /* \"#utility.yul\":20967:20987   */\n      sub\n        /* \"#utility.yul\":20963:20964   */\n      0x00\n        /* \"#utility.yul\":20952:20961   */\n      dup4\n        /* \"#utility.yul\":20948:20965   */\n      add\n        /* \"#utility.yul\":20941:20988   */\n      mstore\n        /* \"#utility.yul\":21005:21136   */\n      tag_625\n        /* \"#utility.yul\":21131:21135   */\n      dup2\n        /* \"#utility.yul\":21005:21136   */\n      tag_381\n      jump\t// in\n    tag_625:\n        /* \"#utility.yul\":20997:21136   */\n      swap1\n      pop\n        /* \"#utility.yul\":20724:21143   */\n      swap2\n      swap1\n      pop\n      jump\t// out\n        /* \"#utility.yul\":21149:21292   */\n    tag_382:\n        /* \"#utility.yul\":21206:21211   */\n      0x00\n        /* \"#utility.yul\":21237:21243   */\n      dup2\n        /* \"#utility.yul\":21231:21244   */\n      mload\n        /* \"#utility.yul\":21222:21244   */\n      swap1\n      pop\n        /* \"#utility.yul\":21253:21286   */\n      tag_627\n        /* \"#utility.yul\":21280:21285   */\n      dup2\n        /* \"#utility.yul\":21253:21286   */\n      tag_336\n      jump\t// in\n    tag_627:\n        /* \"#utility.yul\":21149:21292   */\n      swap3\n      swap2\n      pop\n      pop\n      jump\t// out\n        /* \"#utility.yul\":21298:21649   */\n    tag_107:\n        /* \"#utility.yul\":21368:21374   */\n      0x00\n        /* \"#utility.yul\":21417:21419   */\n      0x20\n        /* \"#utility.yul\":21405:21414   */\n      dup3\n        /* \"#utility.yul\":21396:21403   */\n      dup5\n        /* \"#utility.yul\":21392:21415   */\n      sub\n        /* \"#utility.yul\":21388:21420   */\n      slt\n        /* \"#utility.yul\":21385:21504   */\n      iszero\n      tag_629\n      jumpi\n        /* \"#utility.yul\":21423:21502   */\n      tag_630\n      tag_328\n      jump\t// in\n    tag_630:\n        /* \"#utility.yul\":21385:21504   */\n    tag_629:\n        /* \"#utility.yul\":21543:21544   */\n      0x00\n        /* \"#utility.yul\":21568:21632   */\n      tag_631\n        /* \"#utility.yul\":21624:21631   */\n      dup5\n        /* \"#utility.yul\":21615:21621   */\n      dup3\n        /* \"#utility.yul\":21604:21613   */\n      dup6\n        /* \"#utility.yul\":21600:21622   */\n      add\n        /* \"#utility.yul\":21568:21632   */\n      tag_382\n      jump\t// in\n    tag_631:\n        /* \"#utility.yul\":21558:21632   */\n      swap2\n      pop\n        /* \"#utility.yul\":21514:21642   */\n      pop\n        /* \"#utility.yul\":21298:21649   */\n      swap3\n      swap2\n      pop\n      pop\n      jump\t// out\n        /* \"#utility.yul\":21655:21830   */\n    tag_383:\n        /* \"#utility.yul\":21795:21822   */\n      0x4e6f7420656e6f75676820746f6b656e7320746f206c6f636b00000000000000\n        /* \"#utility.yul\":21791:21792   */\n      0x00\n        /* \"#utility.yul\":21783:21789   */\n      dup3\n        /* \"#utility.yul\":21779:21793   */\n      add\n        /* \"#utility.yul\":21772:21823   */\n      mstore\n        /* \"#utility.yul\":21655:21830   */\n      pop\n      jump\t// out\n        /* \"#utility.yul\":21836:22202   */\n    tag_384:\n        /* \"#utility.yul\":21978:21981   */\n      0x00\n        /* \"#utility.yul\":21999:22066   */\n      tag_634\n        /* \"#utility.yul\":22063:22065   */\n      0x19\n        /* \"#utility.yul\":22058:22061   */\n      dup4\n        /* \"#utility.yul\":21999:22066   */\n      tag_373\n      jump\t// in\n    tag_634:\n        /* \"#utility.yul\":21992:22066   */\n      swap2\n      pop\n        /* \"#utility.yul\":22075:22168   */\n      tag_635\n        /* \"#utility.yul\":22164:22167   */\n      dup3\n        /* \"#utility.yul\":22075:22168   */\n      tag_383\n      jump\t// in\n    tag_635:\n        /* \"#utility.yul\":22193:22195   */\n      0x20\n        /* \"#utility.yul\":22188:22191   */\n      dup3\n        /* \"#utility.yul\":22184:22196   */\n      add\n        /* \"#utility.yul\":22177:22196   */\n      swap1\n      pop\n        /* \"#utility.yul\":21836:22202   */\n      swap2\n      swap1\n      pop\n      jump\t// out\n        /* \"#utility.yul\":22208:22627   */\n    tag_110:\n        /* \"#utility.yul\":22374:22378   */\n      0x00\n        /* \"#utility.yul\":22412:22414   */\n      0x20\n        /* \"#utility.yul\":22401:22410   */\n      dup3\n        /* \"#utility.yul\":22397:22415   */\n      add\n        /* \"#utility.yul\":22389:22415   */\n      swap1\n      pop\n        /* \"#utility.yul\":22461:22470   */\n      dup2\n        /* \"#utility.yul\":22455:22459   */\n      dup2\n        /* \"#utility.yul\":22451:22471   */\n      sub\n        /* \"#utility.yul\":22447:22448   */\n      0x00\n        /* \"#utility.yul\":22436:22445   */\n      dup4\n        /* \"#utility.yul\":22432:22449   */\n      add\n        /* \"#utility.yul\":22425:22472   */\n      mstore\n        /* \"#utility.yul\":22489:22620   */\n      tag_637\n        /* \"#utility.yul\":22615:22619   */\n      dup2\n        /* \"#utility.yul\":22489:22620   */\n      tag_384\n      jump\t// in\n    tag_637:\n        /* \"#utility.yul\":22481:22620   */\n      swap1\n      pop\n        /* \"#utility.yul\":22208:22627   */\n      swap2\n      swap1\n      pop\n      jump\t// out\n        /* \"#utility.yul\":22633:22813   */\n    tag_385:\n        /* \"#utility.yul\":22681:22758   */\n      0x4e487b7100000000000000000000000000000000000000000000000000000000\n        /* \"#utility.yul\":22678:22679   */\n      0x00\n        /* \"#utility.yul\":22671:22759   */\n      mstore\n        /* \"#utility.yul\":22778:22782   */\n      0x11\n        /* \"#utility.yul\":22775:22776   */\n      0x04\n        /* \"#utility.yul\":22768:22783   */\n      mstore\n        /* \"#utility.yul\":22802:22806   */\n      0x24\n        /* \"#utility.yul\":22799:22800   */\n      0x00\n        /* \"#utility.yul\":22792:22807   */\n      revert\n        /* \"#utility.yul\":22819:23010   */\n    tag_114:\n        /* \"#utility.yul\":22859:22862   */\n      0x00\n        /* \"#utility.yul\":22878:22898   */\n      tag_640\n        /* \"#utility.yul\":22896:22897   */\n      dup3\n        /* \"#utility.yul\":22878:22898   */\n      tag_335\n      jump\t// in\n    tag_640:\n        /* \"#utility.yul\":22873:22898   */\n      swap2\n      pop\n        /* \"#utility.yul\":22912:22932   */\n      tag_641\n        /* \"#utility.yul\":22930:22931   */\n      dup4\n        /* \"#utility.yul\":22912:22932   */\n      tag_335\n      jump\t// in\n    tag_641:\n        /* \"#utility.yul\":22907:22932   */\n      swap3\n      pop\n        /* \"#utility.yul\":22955:22956   */\n      dup3\n        /* \"#utility.yul\":22952:22953   */\n      dup3\n        /* \"#utility.yul\":22948:22957   */\n      add\n        /* \"#utility.yul\":22941:22957   */\n      swap1\n      pop\n        /* \"#utility.yul\":22976:22979   */\n      dup1\n        /* \"#utility.yul\":22973:22974   */\n      dup3\n        /* \"#utility.yul\":22970:22980   */\n      gt\n        /* \"#utility.yul\":22967:23003   */\n      iszero\n      tag_642\n      jumpi\n        /* \"#utility.yul\":22983:23001   */\n      tag_643\n      tag_385\n      jump\t// in\n    tag_643:\n        /* \"#utility.yul\":22967:23003   */\n    tag_642:\n        /* \"#utility.yul\":22819:23010   */\n      swap3\n      swap2\n      pop\n      pop\n      jump\t// out\n        /* \"#utility.yul\":23016:23196   */\n    tag_386:\n        /* \"#utility.yul\":23064:23141   */\n      0x4e487b7100000000000000000000000000000000000000000000000000000000\n        /* \"#utility.yul\":23061:23062   */\n      0x00\n        /* \"#utility.yul\":23054:23142   */\n      mstore\n        /* \"#utility.yul\":23161:23165   */\n      0x22\n        /* \"#utility.yul\":23158:23159   */\n      0x04\n        /* \"#utility.yul\":23151:23166   */\n      mstore\n        /* \"#utility.yul\":23185:23189   */\n      0x24\n        /* \"#utility.yul\":23182:23183   */\n      0x00\n        /* \"#utility.yul\":23175:23190   */\n      revert\n        /* \"#utility.yul\":23202:23522   */\n    tag_164:\n        /* \"#utility.yul\":23246:23252   */\n      0x00\n        /* \"#utility.yul\":23283:23284   */\n      0x02\n        /* \"#utility.yul\":23277:23281   */\n      dup3\n        /* \"#utility.yul\":23273:23285   */\n      div\n        /* \"#utility.yul\":23263:23285   */\n      swap1\n      pop\n        /* \"#utility.yul\":23330:23331   */\n      0x01\n        /* \"#utility.yul\":23324:23328   */\n      dup3\n        /* \"#utility.yul\":23320:23332   */\n      and\n        /* \"#utility.yul\":23351:23369   */\n      dup1\n        /* \"#utility.yul\":23341:23422   */\n      tag_646\n      jumpi\n        /* \"#utility.yul\":23407:23411   */\n      0x7f\n        /* \"#utility.yul\":23399:23405   */\n      dup3\n        /* \"#utility.yul\":23395:23412   */\n      and\n        /* \"#utility.yul\":23385:23412   */\n      swap2\n      pop\n        /* \"#utility.yul\":23341:23422   */\n    tag_646:\n        /* \"#utility.yul\":23469:23471   */\n      0x20\n        /* \"#utility.yul\":23461:23467   */\n      dup3\n        /* \"#utility.yul\":23458:23472   */\n      lt\n        /* \"#utility.yul\":23438:23456   */\n      dup2\n        /* \"#utility.yul\":23435:23473   */\n      sub\n        /* \"#utility.yul\":23432:23516   */\n      tag_647\n      jumpi\n        /* \"#utility.yul\":23488:23506   */\n      tag_648\n      tag_386\n      jump\t// in\n    tag_648:\n        /* \"#utility.yul\":23432:23516   */\n    tag_647:\n        /* \"#utility.yul\":23253:23522   */\n      pop\n        /* \"#utility.yul\":23202:23522   */\n      swap2\n      swap1\n      pop\n      jump\t// out\n        /* \"#utility.yul\":23528:23669   */\n    tag_387:\n        /* \"#utility.yul\":23577:23581   */\n      0x00\n        /* \"#utility.yul\":23600:23603   */\n      dup2\n        /* \"#utility.yul\":23592:23603   */\n      swap1\n      pop\n        /* \"#utility.yul\":23623:23626   */\n      dup2\n        /* \"#utility.yul\":23620:23621   */\n      0x00\n        /* \"#utility.yul\":23613:23627   */\n      mstore\n        /* \"#utility.yul\":23657:23661   */\n      0x20\n        /* \"#utility.yul\":23654:23655   */\n      0x00\n        /* \"#utility.yul\":23644:23662   */\n      keccak256\n        /* \"#utility.yul\":23636:23662   */\n      swap1\n      pop\n        /* \"#utility.yul\":23528:23669   */\n      swap2\n      swap1\n      pop\n      jump\t// out\n        /* \"#utility.yul\":23675:23768   */\n    tag_388:\n        /* \"#utility.yul\":23712:23718   */\n      0x00\n        /* \"#utility.yul\":23759:23761   */\n      0x20\n        /* \"#utility.yul\":23754:23756   */\n      0x1f\n        /* \"#utility.yul\":23747:23752   */\n      dup4\n        /* \"#utility.yul\":23743:23757   */\n      add\n        /* \"#utility.yul\":23739:23762   */\n      div\n        /* \"#utility.yul\":23729:23762   */\n      swap1\n      pop\n        /* \"#utility.yul\":23675:23768   */\n      swap2\n      swap1\n      pop\n      jump\t// out\n        /* \"#utility.yul\":23774:23881   */\n    tag_389:\n        /* \"#utility.yul\":23818:23826   */\n      0x00\n        /* \"#utility.yul\":23868:23873   */\n      dup3\n        /* \"#utility.yul\":23862:23866   */\n      dup3\n        /* \"#utility.yul\":23858:23874   */\n      shl\n        /* \"#utility.yul\":23837:23874   */\n      swap1\n      pop\n        /* \"#utility.yul\":23774:23881   */\n      swap3\n      swap2\n      pop\n      pop\n      jump\t// out\n        /* \"#utility.yul\":23887:24280   */\n    tag_390:\n        /* \"#utility.yul\":23956:23962   */\n      0x00\n        /* \"#utility.yul\":24006:24007   */\n      0x08\n        /* \"#utility.yul\":23994:24004   */\n      dup4\n        /* \"#utility.yul\":23990:24008   */\n      mul\n        /* \"#utility.yul\":24029:24126   */\n      tag_653\n        /* \"#utility.yul\":24059:24125   */\n      0xffffffffffffffffffffffffffffffffffffffffffffffffffffffffffffffff\n        /* \"#utility.yul\":24048:24057   */\n      dup3\n        /* \"#utility.yul\":24029:24126   */\n      tag_389\n      jump\t// in\n    tag_653:\n        /* \"#utility.yul\":24147:24186   */\n      tag_654\n        /* \"#utility.yul\":24177:24185   */\n      dup7\n        /* \"#utility.yul\":24166:24175   */\n      dup4\n        /* \"#utility.yul\":24147:24186   */\n      tag_389\n      jump\t// in\n    tag_654:\n        /* \"#utility.yul\":24135:24186   */\n      swap6\n      pop\n        /* \"#utility.yul\":24219:24223   */\n      dup1\n        /* \"#utility.yul\":24215:24224   */\n      not\n        /* \"#utility.yul\":24208:24213   */\n      dup5\n        /* \"#utility.yul\":24204:24225   */\n      and\n        /* \"#utility.yul\":24195:24225   */\n      swap4\n      pop\n        /* \"#utility.yul\":24268:24272   */\n      dup1\n        /* \"#utility.yul\":24258:24266   */\n      dup7\n        /* \"#utility.yul\":24254:24273   */\n      and\n        /* \"#utility.yul\":24247:24252   */\n      dup5\n        /* \"#utility.yul\":24244:24274   */\n      or\n        /* \"#utility.yul\":24234:24274   */\n      swap3\n      pop\n        /* \"#utility.yul\":23963:24280   */\n      pop\n      pop\n        /* \"#utility.yul\":23887:24280   */\n      swap4\n      swap3\n      pop\n      pop\n      pop\n      jump\t// out\n        /* \"#utility.yul\":24286:24346   */\n    tag_391:\n        /* \"#utility.yul\":24314:24317   */\n      0x00\n        /* \"#utility.yul\":24335:24340   */\n      dup2\n        /* \"#utility.yul\":24328:24340   */\n      swap1\n      pop\n        /* \"#utility.yul\":24286:24346   */\n      swap2\n      swap1\n      pop\n      jump\t// out\n        /* \"#utility.yul\":24352:24494   */\n    tag_392:\n        /* \"#utility.yul\":24402:24411   */\n      0x00\n        /* \"#utility.yul\":24435:24488   */\n      tag_657\n        /* \"#utility.yul\":24453:24487   */\n      tag_658\n        /* \"#utility.yul\":24462:24486   */\n      tag_659\n        /* \"#utility.yul\":24480:24485   */\n      dup5\n        /* \"#utility.yul\":24462:24486   */\n      tag_335\n      jump\t// in\n    tag_659:\n        /* \"#utility.yul\":24453:24487   */\n      tag_391\n      jump\t// in\n    tag_658:\n        /* \"#utility.yul\":24435:24488   */\n      tag_335\n      jump\t// in\n    tag_657:\n        /* \"#utility.yul\":24422:24488   */\n      swap1\n      pop\n        /* \"#utility.yul\":24352:24494   */\n      swap2\n      swap1\n      pop\n      jump\t// out\n        /* \"#utility.yul\":24500:24575   */\n    tag_393:\n        /* \"#utility.yul\":24543:24546   */\n      0x00\n        /* \"#utility.yul\":24564:24569   */\n      dup2\n        /* \"#utility.yul\":24557:24569   */\n      swap1\n      pop\n        /* \"#utility.yul\":24500:24575   */\n      swap2\n      swap1\n      pop\n      jump\t// out\n        /* \"#utility.yul\":24581:24850   */\n    tag_394:\n        /* \"#utility.yul\":24691:24730   */\n      tag_662\n        /* \"#utility.yul\":24722:24729   */\n      dup4\n        /* \"#utility.yul\":24691:24730   */\n      tag_392\n      jump\t// in\n    tag_662:\n        /* \"#utility.yul\":24752:24843   */\n      tag_663\n        /* \"#utility.yul\":24801:24842   */\n      tag_664\n        /* \"#utility.yul\":24825:24841   */\n      dup3\n        /* \"#utility.yul\":24801:24842   */\n      tag_393\n      jump\t// in\n    tag_664:\n        /* \"#utility.yul\":24793:24799   */\n      dup5\n        /* \"#utility.yul\":24786:24790   */\n      dup5\n        /* \"#utility.yul\":24780:24791   */\n      sload\n        /* \"#utility.yul\":24752:24843   */\n      tag_390\n      jump\t// in\n    tag_663:\n        /* \"#utility.yul\":24746:24750   */\n      dup3\n        /* \"#utility.yul\":24739:24844   */\n      sstore\n        /* \"#utility.yul\":24657:24850   */\n      pop\n        /* \"#utility.yul\":24581:24850   */\n      pop\n      pop\n      pop\n      jump\t// out\n        /* \"#utility.yul\":24856:24929   */\n    tag_395:\n        /* \"#utility.yul\":24901:24904   */\n      0x00\n        /* \"#utility.yul\":24856:24929   */\n      swap1\n      jump\t// out\n        /* \"#utility.yul\":24935:25124   */\n    tag_396:\n        /* \"#utility.yul\":25012:25044   */\n      tag_667\n      tag_395\n      jump\t// in\n    tag_667:\n        /* \"#utility.yul\":25053:25118   */\n      tag_668\n        /* \"#utility.yul\":25111:25117   */\n      dup2\n        /* \"#utility.yul\":25103:25109   */\n      dup5\n        /* \"#utility.yul\":25097:25101   */\n      dup5\n        /* \"#utility.yul\":25053:25118   */\n      tag_394\n      jump\t// in\n    tag_668:\n        /* \"#utility.yul\":24988:25124   */\n      pop\n        /* \"#utility.yul\":24935:25124   */\n      pop\n      pop\n      jump\t// out\n        /* \"#utility.yul\":25130:25316   */\n    tag_397:\n        /* \"#utility.yul\":25190:25310   */\n    tag_670:\n        /* \"#utility.yul\":25207:25210   */\n      dup2\n        /* \"#utility.yul\":25200:25205   */\n      dup2\n        /* \"#utility.yul\":25197:25211   */\n      lt\n        /* \"#utility.yul\":25190:25310   */\n      iszero\n      tag_672\n      jumpi\n        /* \"#utility.yul\":25261:25300   */\n      tag_673\n        /* \"#utility.yul\":25298:25299   */\n      0x00\n        /* \"#utility.yul\":25291:25296   */\n      dup3\n        /* \"#utility.yul\":25261:25300   */\n      tag_396\n      jump\t// in\n    tag_673:\n        /* \"#utility.yul\":25234:25235   */\n      0x01\n        /* \"#utility.yul\":25227:25232   */\n      dup2\n        /* \"#utility.yul\":25223:25236   */\n      add\n        /* \"#utility.yul\":25214:25236   */\n      swap1\n      pop\n        /* \"#utility.yul\":25190:25310   */\n      jump(tag_670)\n    tag_672:\n        /* \"#utility.yul\":25130:25316   */\n      pop\n      pop\n      jump\t// out\n        /* \"#utility.yul\":25322:25865   */\n    tag_398:\n        /* \"#utility.yul\":25423:25425   */\n      0x1f\n        /* \"#utility.yul\":25418:25421   */\n      dup3\n        /* \"#utility.yul\":25415:25426   */\n      gt\n        /* \"#utility.yul\":25412:25858   */\n      iszero\n      tag_675\n      jumpi\n        /* \"#utility.yul\":25457:25495   */\n      tag_676\n        /* \"#utility.yul\":25489:25494   */\n      dup2\n        /* \"#utility.yul\":25457:25495   */\n      tag_387\n      jump\t// in\n    tag_676:\n        /* \"#utility.yul\":25541:25570   */\n      tag_677\n        /* \"#utility.yul\":25559:25569   */\n      dup5\n        /* \"#utility.yul\":25541:25570   */\n      tag_388\n      jump\t// in\n    tag_677:\n        /* \"#utility.yul\":25531:25539   */\n      dup2\n        /* \"#utility.yul\":25527:25571   */\n      add\n        /* \"#utility.yul\":25724:25726   */\n      0x20\n        /* \"#utility.yul\":25712:25722   */\n      dup6\n        /* \"#utility.yul\":25709:25727   */\n      lt\n        /* \"#utility.yul\":25706:25755   */\n      iszero\n      tag_678\n      jumpi\n        /* \"#utility.yul\":25745:25753   */\n      dup2\n        /* \"#utility.yul\":25730:25753   */\n      swap1\n      pop\n        /* \"#utility.yul\":25706:25755   */\n    tag_678:\n        /* \"#utility.yul\":25768:25848   */\n      tag_679\n        /* \"#utility.yul\":25824:25846   */\n      tag_680\n        /* \"#utility.yul\":25842:25845   */\n      dup6\n        /* \"#utility.yul\":25824:25846   */\n      tag_388\n      jump\t// in\n    tag_680:\n        /* \"#utility.yul\":25814:25822   */\n      dup4\n        /* \"#utility.yul\":25810:25847   */\n      add\n        /* \"#utility.yul\":25797:25808   */\n      dup3\n        /* \"#utility.yul\":25768:25848   */\n      tag_397\n      jump\t// in\n    tag_679:\n        /* \"#utility.yul\":25427:25858   */\n      pop\n      pop\n        /* \"#utility.yul\":25412:25858   */\n    tag_675:\n        /* \"#utility.yul\":25322:25865   */\n      pop\n      pop\n      pop\n      jump\t// out\n        /* \"#utility.yul\":25871:25988   */\n    tag_399:\n        /* \"#utility.yul\":25925:25933   */\n      0x00\n        /* \"#utility.yul\":25975:25980   */\n      dup3\n        /* \"#utility.yul\":25969:25973   */\n      dup3\n        /* \"#utility.yul\":25965:25981   */\n      shr\n        /* \"#utility.yul\":25944:25981   */\n      swap1\n      pop\n        /* \"#utility.yul\":25871:25988   */\n      swap3\n      swap2\n      pop\n      pop\n      jump\t// out\n        /* \"#utility.yul\":25994:26163   */\n    tag_400:\n        /* \"#utility.yul\":26038:26044   */\n      0x00\n        /* \"#utility.yul\":26071:26122   */\n      tag_683\n        /* \"#utility.yul\":26119:26120   */\n      0x00\n        /* \"#utility.yul\":26115:26121   */\n      not\n        /* \"#utility.yul\":26107:26112   */\n      dup5\n        /* \"#utility.yul\":26104:26105   */\n      0x08\n        /* \"#utility.yul\":26100:26113   */\n      mul\n        /* \"#utility.yul\":26071:26122   */\n      tag_399\n      jump\t// in\n    tag_683:\n        /* \"#utility.yul\":26067:26123   */\n      not\n        /* \"#utility.yul\":26152:26156   */\n      dup1\n        /* \"#utility.yul\":26146:26150   */\n      dup4\n        /* \"#utility.yul\":26142:26157   */\n      and\n        /* \"#utility.yul\":26132:26157   */\n      swap2\n      pop\n        /* \"#utility.yul\":26045:26163   */\n      pop\n        /* \"#utility.yul\":25994:26163   */\n      swap3\n      swap2\n      pop\n      pop\n      jump\t// out\n        /* \"#utility.yul\":26168:26463   */\n    tag_401:\n        /* \"#utility.yul\":26244:26248   */\n      0x00\n        /* \"#utility.yul\":26390:26419   */\n      tag_685\n        /* \"#utility.yul\":26415:26418   */\n      dup4\n        /* \"#utility.yul\":26409:26413   */\n      dup4\n        /* \"#utility.yul\":26390:26419   */\n      tag_400\n      jump\t// in\n    tag_685:\n        /* \"#utility.yul\":26382:26419   */\n      swap2\n      pop\n        /* \"#utility.yul\":26452:26455   */\n      dup3\n        /* \"#utility.yul\":26449:26450   */\n      0x02\n        /* \"#utility.yul\":26445:26456   */\n      mul\n        /* \"#utility.yul\":26439:26443   */\n      dup3\n        /* \"#utility.yul\":26436:26457   */\n      or\n        /* \"#utility.yul\":26428:26457   */\n      swap1\n      pop\n        /* \"#utility.yul\":26168:26463   */\n      swap3\n      swap2\n      pop\n      pop\n      jump\t// out\n        /* \"#utility.yul\":26468:27863   */\n    tag_117:\n        /* \"#utility.yul\":26585:26622   */\n      tag_687\n        /* \"#utility.yul\":26618:26621   */\n      dup3\n        /* \"#utility.yul\":26585:26622   */\n      tag_360\n      jump\t// in\n    tag_687:\n        /* \"#utility.yul\":26687:26705   */\n      0xffffffffffffffff\n        /* \"#utility.yul\":26679:26685   */\n      dup2\n        /* \"#utility.yul\":26676:26706   */\n      gt\n        /* \"#utility.yul\":26673:26729   */\n      iszero\n      tag_688\n      jumpi\n        /* \"#utility.yul\":26709:26727   */\n      tag_689\n      tag_344\n      jump\t// in\n    tag_689:\n        /* \"#utility.yul\":26673:26729   */\n    tag_688:\n        /* \"#utility.yul\":26753:26791   */\n      tag_690\n        /* \"#utility.yul\":26785:26789   */\n      dup3\n        /* \"#utility.yul\":26779:26790   */\n      sload\n        /* \"#utility.yul\":26753:26791   */\n      tag_164\n      jump\t// in\n    tag_690:\n        /* \"#utility.yul\":26838:26905   */\n      tag_691\n        /* \"#utility.yul\":26898:26904   */\n      dup3\n        /* \"#utility.yul\":26890:26896   */\n      dup3\n        /* \"#utility.yul\":26884:26888   */\n      dup6\n        /* \"#utility.yul\":26838:26905   */\n      tag_398\n      jump\t// in\n    tag_691:\n        /* \"#utility.yul\":26932:26933   */\n      0x00\n        /* \"#utility.yul\":26956:26960   */\n      0x20\n        /* \"#utility.yul\":26943:26960   */\n      swap1\n      pop\n        /* \"#utility.yul\":26988:26990   */\n      0x1f\n        /* \"#utility.yul\":26980:26986   */\n      dup4\n        /* \"#utility.yul\":26977:26991   */\n      gt\n        /* \"#utility.yul\":27005:27006   */\n      0x01\n        /* \"#utility.yul\":27000:27618   */\n      dup2\n      eq\n      tag_693\n      jumpi\n        /* \"#utility.yul\":27662:27663   */\n      0x00\n        /* \"#utility.yul\":27679:27685   */\n      dup5\n        /* \"#utility.yul\":27676:27753   */\n      iszero\n      tag_694\n      jumpi\n        /* \"#utility.yul\":27728:27737   */\n      dup3\n        /* \"#utility.yul\":27723:27726   */\n      dup8\n        /* \"#utility.yul\":27719:27738   */\n      add\n        /* \"#utility.yul\":27713:27739   */\n      mload\n        /* \"#utility.yul\":27704:27739   */\n      swap1\n      pop\n        /* \"#utility.yul\":27676:27753   */\n    tag_694:\n        /* \"#utility.yul\":27779:27846   */\n      tag_695\n        /* \"#utility.yul\":27839:27845   */\n      dup6\n        /* \"#utility.yul\":27832:27837   */\n      dup3\n        /* \"#utility.yul\":27779:27846   */\n      tag_401\n      jump\t// in\n    tag_695:\n        /* \"#utility.yul\":27773:27777   */\n      dup7\n        /* \"#utility.yul\":27766:27847   */\n      sstore\n        /* \"#utility.yul\":27635:27857   */\n      pop\n        /* \"#utility.yul\":26970:27857   */\n      jump(tag_692)\n        /* \"#utility.yul\":27000:27618   */\n    tag_693:\n        /* \"#utility.yul\":27052:27056   */\n      0x1f\n        /* \"#utility.yul\":27048:27057   */\n      not\n        /* \"#utility.yul\":27040:27046   */\n      dup5\n        /* \"#utility.yul\":27036:27058   */\n      and\n        /* \"#utility.yul\":27086:27123   */\n      tag_696\n        /* \"#utility.yul\":27118:27122   */\n      dup7\n        /* \"#utility.yul\":27086:27123   */\n      tag_387\n      jump\t// in\n    tag_696:\n        /* \"#utility.yul\":27145:27146   */\n      0x00\n        /* \"#utility.yul\":27159:27367   */\n    tag_697:\n        /* \"#utility.yul\":27173:27180   */\n      dup3\n        /* \"#utility.yul\":27170:27171   */\n      dup2\n        /* \"#utility.yul\":27167:27181   */\n      lt\n        /* \"#utility.yul\":27159:27367   */\n      iszero\n      tag_699\n      jumpi\n        /* \"#utility.yul\":27252:27261   */\n      dup5\n        /* \"#utility.yul\":27247:27250   */\n      dup10\n        /* \"#utility.yul\":27243:27262   */\n      add\n        /* \"#utility.yul\":27237:27263   */\n      mload\n        /* \"#utility.yul\":27229:27235   */\n      dup3\n        /* \"#utility.yul\":27222:27264   */\n      sstore\n        /* \"#utility.yul\":27303:27304   */\n      0x01\n        /* \"#utility.yul\":27295:27301   */\n      dup3\n        /* \"#utility.yul\":27291:27305   */\n      add\n        /* \"#utility.yul\":27281:27305   */\n      swap2\n      pop\n        /* \"#utility.yul\":27350:27352   */\n      0x20\n        /* \"#utility.yul\":27339:27348   */\n      dup6\n        /* \"#utility.yul\":27335:27353   */\n      add\n        /* \"#utility.yul\":27322:27353   */\n      swap5\n      pop\n        /* \"#utility.yul\":27196:27200   */\n      0x20\n        /* \"#utility.yul\":27193:27194   */\n      dup2\n        /* \"#utility.yul\":27189:27201   */\n      add\n        /* \"#utility.yul\":27184:27201   */\n      swap1\n      pop\n        /* \"#utility.yul\":27159:27367   */\n      jump(tag_697)\n    tag_699:\n        /* \"#utility.yul\":27395:27401   */\n      dup7\n        /* \"#utility.yul\":27386:27393   */\n      dup4\n        /* \"#utility.yul\":27383:27402   */\n      lt\n        /* \"#utility.yul\":27380:27559   */\n      iszero\n      tag_700\n      jumpi\n        /* \"#utility.yul\":27453:27462   */\n      dup5\n        /* \"#utility.yul\":27448:27451   */\n      dup10\n        /* \"#utility.yul\":27444:27463   */\n      add\n        /* \"#utility.yul\":27438:27464   */\n      mload\n        /* \"#utility.yul\":27496:27544   */\n      tag_701\n        /* \"#utility.yul\":27538:27542   */\n      0x1f\n        /* \"#utility.yul\":27530:27536   */\n      dup10\n        /* \"#utility.yul\":27526:27543   */\n      and\n        /* \"#utility.yul\":27515:27524   */\n      dup3\n        /* \"#utility.yul\":27496:27544   */\n      tag_400\n      jump\t// in\n    tag_701:\n        /* \"#utility.yul\":27488:27494   */\n      dup4\n        /* \"#utility.yul\":27481:27545   */\n      sstore\n        /* \"#utility.yul\":27403:27559   */\n      pop\n        /* \"#utility.yul\":27380:27559   */\n    tag_700:\n        /* \"#utility.yul\":27605:27606   */\n      0x01\n        /* \"#utility.yul\":27601:27602   */\n      0x02\n        /* \"#utility.yul\":27593:27599   */\n      dup9\n        /* \"#utility.yul\":27589:27603   */\n      mul\n        /* \"#utility.yul\":27585:27607   */\n      add\n        /* \"#utility.yul\":27579:27583   */\n      dup9\n        /* \"#utility.yul\":27572:27608   */\n      sstore\n        /* \"#utility.yul\":27007:27618   */\n      pop\n      pop\n      pop\n        /* \"#utility.yul\":26970:27857   */\n    tag_692:\n      pop\n        /* \"#utility.yul\":26560:27863   */\n      pop\n      pop\n      pop\n        /* \"#utility.yul\":26468:27863   */\n      pop\n      pop\n      jump\t// out\n        /* \"#utility.yul\":27869:27981   */\n    tag_402:\n        /* \"#utility.yul\":27952:27974   */\n      tag_703\n        /* \"#utility.yul\":27968:27973   */\n      dup2\n        /* \"#utility.yul\":27952:27974   */\n      tag_338\n      jump\t// in\n    tag_703:\n        /* \"#utility.yul\":27947:27950   */\n      dup3\n        /* \"#utility.yul\":27940:27975   */\n      mstore\n        /* \"#utility.yul\":27869:27981   */\n      pop\n      pop\n      jump\t// out\n        /* \"#utility.yul\":27987:28734   */\n    tag_122:\n        /* \"#utility.yul\":28208:28212   */\n      0x00\n        /* \"#utility.yul\":28246:28249   */\n      0xa0\n        /* \"#utility.yul\":28235:28244   */\n      dup3\n        /* \"#utility.yul\":28231:28250   */\n      add\n        /* \"#utility.yul\":28223:28250   */\n      swap1\n      pop\n        /* \"#utility.yul\":28260:28331   */\n      tag_705\n        /* \"#utility.yul\":28328:28329   */\n      0x00\n        /* \"#utility.yul\":28317:28326   */\n      dup4\n        /* \"#utility.yul\":28313:28330   */\n      add\n        /* \"#utility.yul\":28304:28310   */\n      dup9\n        /* \"#utility.yul\":28260:28331   */\n      tag_351\n      jump\t// in\n    tag_705:\n        /* \"#utility.yul\":28378:28387   */\n      dup2\n        /* \"#utility.yul\":28372:28376   */\n      dup2\n        /* \"#utility.yul\":28368:28388   */\n      sub\n        /* \"#utility.yul\":28363:28365   */\n      0x20\n        /* \"#utility.yul\":28352:28361   */\n      dup4\n        /* \"#utility.yul\":28348:28366   */\n      add\n        /* \"#utility.yul\":28341:28389   */\n      mstore\n        /* \"#utility.yul\":28406:28484   */\n      tag_706\n        /* \"#utility.yul\":28479:28483   */\n      dup2\n        /* \"#utility.yul\":28470:28476   */\n      dup8\n        /* \"#utility.yul\":28406:28484   */\n      tag_374\n      jump\t// in\n    tag_706:\n        /* \"#utility.yul\":28398:28484   */\n      swap1\n      pop\n        /* \"#utility.yul\":28494:28562   */\n      tag_707\n        /* \"#utility.yul\":28558:28560   */\n      0x40\n        /* \"#utility.yul\":28547:28556   */\n      dup4\n        /* \"#utility.yul\":28543:28561   */\n      add\n        /* \"#utility.yul\":28534:28540   */\n      dup7\n        /* \"#utility.yul\":28494:28562   */\n      tag_402\n      jump\t// in\n    tag_707:\n        /* \"#utility.yul\":28572:28644   */\n      tag_708\n        /* \"#utility.yul\":28640:28642   */\n      0x60\n        /* \"#utility.yul\":28629:28638   */\n      dup4\n        /* \"#utility.yul\":28625:28643   */\n      add\n        /* \"#utility.yul\":28616:28622   */\n      dup6\n        /* \"#utility.yul\":28572:28644   */\n      tag_351\n      jump\t// in\n    tag_708:\n        /* \"#utility.yul\":28654:28727   */\n      tag_709\n        /* \"#utility.yul\":28722:28725   */\n      0x80\n        /* \"#utility.yul\":28711:28720   */\n      dup4\n        /* \"#utility.yul\":28707:28726   */\n      add\n        /* \"#utility.yul\":28698:28704   */\n      dup5\n        /* \"#utility.yul\":28654:28727   */\n      tag_351\n      jump\t// in\n    tag_709:\n        /* \"#utility.yul\":27987:28734   */\n      swap7\n      swap6\n      pop\n      pop\n      pop\n      pop\n      pop\n      pop\n      jump\t// out\n        /* \"#utility.yul\":28740:28966   */\n    tag_403:\n        /* \"#utility.yul\":28880:28914   */\n      0x45544820746f206c6f636b206d75737420612076616c75652067726561746572\n        /* \"#utility.yul\":28876:28877   */\n      0x00\n        /* \"#utility.yul\":28868:28874   */\n      dup3\n        /* \"#utility.yul\":28864:28878   */\n      add\n        /* \"#utility.yul\":28857:28915   */\n      mstore\n        /* \"#utility.yul\":28949:28958   */\n      0x207468616e203000000000000000000000000000000000000000000000000000\n        /* \"#utility.yul\":28944:28946   */\n      0x20\n        /* \"#utility.yul\":28936:28942   */\n      dup3\n        /* \"#utility.yul\":28932:28947   */\n      add\n        /* \"#utility.yul\":28925:28959   */\n      mstore\n        /* \"#utility.yul\":28740:28966   */\n      pop\n      jump\t// out\n        /* \"#utility.yul\":28972:29338   */\n    tag_404:\n        /* \"#utility.yul\":29114:29117   */\n      0x00\n        /* \"#utility.yul\":29135:29202   */\n      tag_712\n        /* \"#utility.yul\":29199:29201   */\n      0x27\n        /* \"#utility.yul\":29194:29197   */\n      dup4\n        /* \"#utility.yul\":29135:29202   */\n      tag_373\n      jump\t// in\n    tag_712:\n        /* \"#utility.yul\":29128:29202   */\n      swap2\n      pop\n        /* \"#utility.yul\":29211:29304   */\n      tag_713\n        /* \"#utility.yul\":29300:29303   */\n      dup3\n        /* \"#utility.yul\":29211:29304   */\n      tag_403\n      jump\t// in\n    tag_713:\n        /* \"#utility.yul\":29329:29331   */\n      0x40\n        /* \"#utility.yul\":29324:29327   */\n      dup3\n        /* \"#utility.yul\":29320:29332   */\n      add\n        /* \"#utility.yul\":29313:29332   */\n      swap1\n      pop\n        /* \"#utility.yul\":28972:29338   */\n      swap2\n      swap1\n      pop\n      jump\t// out\n        /* \"#utility.yul\":29344:29763   */\n    tag_130:\n        /* \"#utility.yul\":29510:29514   */\n      0x00\n        /* \"#utility.yul\":29548:29550   */\n      0x20\n        /* \"#utility.yul\":29537:29546   */\n      dup3\n        /* \"#utility.yul\":29533:29551   */\n      add\n        /* \"#utility.yul\":29525:29551   */\n      swap1\n      pop\n        /* \"#utility.yul\":29597:29606   */\n      dup2\n        /* \"#utility.yul\":29591:29595   */\n      dup2\n        /* \"#utility.yul\":29587:29607   */\n      sub\n        /* \"#utility.yul\":29583:29584   */\n      0x00\n        /* \"#utility.yul\":29572:29581   */\n      dup4\n        /* \"#utility.yul\":29568:29585   */\n      add\n        /* \"#utility.yul\":29561:29608   */\n      mstore\n        /* \"#utility.yul\":29625:29756   */\n      tag_715\n        /* \"#utility.yul\":29751:29755   */\n      dup2\n        /* \"#utility.yul\":29625:29756   */\n      tag_404\n      jump\t// in\n    tag_715:\n        /* \"#utility.yul\":29617:29756   */\n      swap1\n      pop\n        /* \"#utility.yul\":29344:29763   */\n      swap2\n      swap1\n      pop\n      jump\t// out\n        /* \"#utility.yul\":29769:29996   */\n    tag_405:\n        /* \"#utility.yul\":29909:29943   */\n      0x546865206c6f636b706572696f64206d75737420626520677265617465722074\n        /* \"#utility.yul\":29905:29906   */\n      0x00\n        /* \"#utility.yul\":29897:29903   */\n      dup3\n        /* \"#utility.yul\":29893:29907   */\n      add\n        /* \"#utility.yul\":29886:29944   */\n      mstore\n        /* \"#utility.yul\":29978:29988   */\n      0x68656e207a65726f000000000000000000000000000000000000000000000000\n        /* \"#utility.yul\":29973:29975   */\n      0x20\n        /* \"#utility.yul\":29965:29971   */\n      dup3\n        /* \"#utility.yul\":29961:29976   */\n      add\n        /* \"#utility.yul\":29954:29989   */\n      mstore\n        /* \"#utility.yul\":29769:29996   */\n      pop\n      jump\t// out\n        /* \"#utility.yul\":30002:30368   */\n    tag_406:\n        /* \"#utility.yul\":30144:30147   */\n      0x00\n        /* \"#utility.yul\":30165:30232   */\n      tag_718\n        /* \"#utility.yul\":30229:30231   */\n      0x28\n        /* \"#utility.yul\":30224:30227   */\n      dup4\n        /* \"#utility.yul\":30165:30232   */\n      tag_373\n      jump\t// in\n    tag_718:\n        /* \"#utility.yul\":30158:30232   */\n      swap2\n      pop\n        /* \"#utility.yul\":30241:30334   */\n      tag_719\n        /* \"#utility.yul\":30330:30333   */\n      dup3\n        /* \"#utility.yul\":30241:30334   */\n      tag_405\n      jump\t// in\n    tag_719:\n        /* \"#utility.yul\":30359:30361   */\n      0x40\n        /* \"#utility.yul\":30354:30357   */\n      dup3\n        /* \"#utility.yul\":30350:30362   */\n      add\n        /* \"#utility.yul\":30343:30362   */\n      swap1\n      pop\n        /* \"#utility.yul\":30002:30368   */\n      swap2\n      swap1\n      pop\n      jump\t// out\n        /* \"#utility.yul\":30374:30793   */\n    tag_133:\n        /* \"#utility.yul\":30540:30544   */\n      0x00\n        /* \"#utility.yul\":30578:30580   */\n      0x20\n        /* \"#utility.yul\":30567:30576   */\n      dup3\n        /* \"#utility.yul\":30563:30581   */\n      add\n        /* \"#utility.yul\":30555:30581   */\n      swap1\n      pop\n        /* \"#utility.yul\":30627:30636   */\n      dup2\n        /* \"#utility.yul\":30621:30625   */\n      dup2\n        /* \"#utility.yul\":30617:30637   */\n      sub\n        /* \"#utility.yul\":30613:30614   */\n      0x00\n        /* \"#utility.yul\":30602:30611   */\n      dup4\n        /* \"#utility.yul\":30598:30615   */\n      add\n        /* \"#utility.yul\":30591:30638   */\n      mstore\n        /* \"#utility.yul\":30655:30786   */\n      tag_721\n        /* \"#utility.yul\":30781:30785   */\n      dup2\n        /* \"#utility.yul\":30655:30786   */\n      tag_406\n      jump\t// in\n    tag_721:\n        /* \"#utility.yul\":30647:30786   */\n      swap1\n      pop\n        /* \"#utility.yul\":30374:30793   */\n      swap2\n      swap1\n      pop\n      jump\t// out\n        /* \"#utility.yul\":30799:30979   */\n    tag_155:\n        /* \"#utility.yul\":30847:30924   */\n      0x4e487b7100000000000000000000000000000000000000000000000000000000\n        /* \"#utility.yul\":30844:30845   */\n      0x00\n        /* \"#utility.yul\":30837:30925   */\n      mstore\n        /* \"#utility.yul\":30944:30948   */\n      0x32\n        /* \"#utility.yul\":30941:30942   */\n      0x04\n        /* \"#utility.yul\":30934:30949   */\n      mstore\n        /* \"#utility.yul\":30968:30972   */\n      0x24\n        /* \"#utility.yul\":30965:30966   */\n      0x00\n        /* \"#utility.yul\":30958:30973   */\n      revert\n        /* \"#utility.yul\":31009:31840   */\n    tag_407:\n        /* \"#utility.yul\":31094:31097   */\n      0x00\n        /* \"#utility.yul\":31131:31136   */\n      dup2\n        /* \"#utility.yul\":31125:31137   */\n      sload\n        /* \"#utility.yul\":31160:31196   */\n      tag_724\n        /* \"#utility.yul\":31186:31195   */\n      dup2\n        /* \"#utility.yul\":31160:31196   */\n      tag_164\n      jump\t// in\n    tag_724:\n        /* \"#utility.yul\":31212:31283   */\n      tag_725\n        /* \"#utility.yul\":31276:31282   */\n      dup2\n        /* \"#utility.yul\":31271:31274   */\n      dup7\n        /* \"#utility.yul\":31212:31283   */\n      tag_373\n      jump\t// in\n    tag_725:\n        /* \"#utility.yul\":31205:31283   */\n      swap5\n      pop\n        /* \"#utility.yul\":31314:31315   */\n      0x01\n        /* \"#utility.yul\":31303:31312   */\n      dup3\n        /* \"#utility.yul\":31299:31316   */\n      and\n        /* \"#utility.yul\":31330:31331   */\n      0x00\n        /* \"#utility.yul\":31325:31489   */\n      dup2\n      eq\n      tag_727\n      jumpi\n        /* \"#utility.yul\":31503:31504   */\n      0x01\n        /* \"#utility.yul\":31498:31834   */\n      dup2\n      eq\n      tag_728\n      jumpi\n        /* \"#utility.yul\":31292:31834   */\n      jump(tag_726)\n        /* \"#utility.yul\":31325:31489   */\n    tag_727:\n        /* \"#utility.yul\":31409:31413   */\n      0xff\n        /* \"#utility.yul\":31405:31414   */\n      not\n        /* \"#utility.yul\":31394:31403   */\n      dup4\n        /* \"#utility.yul\":31390:31415   */\n      and\n        /* \"#utility.yul\":31385:31388   */\n      dup7\n        /* \"#utility.yul\":31378:31416   */\n      mstore\n        /* \"#utility.yul\":31469:31475   */\n      dup2\n        /* \"#utility.yul\":31462:31476   */\n      iszero\n        /* \"#utility.yul\":31455:31477   */\n      iszero\n        /* \"#utility.yul\":31449:31453   */\n      0x20\n        /* \"#utility.yul\":31445:31478   */\n      mul\n        /* \"#utility.yul\":31440:31443   */\n      dup7\n        /* \"#utility.yul\":31436:31479   */\n      add\n        /* \"#utility.yul\":31429:31479   */\n      swap4\n      pop\n        /* \"#utility.yul\":31325:31489   */\n      jump(tag_726)\n        /* \"#utility.yul\":31498:31834   */\n    tag_728:\n        /* \"#utility.yul\":31565:31603   */\n      tag_729\n        /* \"#utility.yul\":31597:31602   */\n      dup6\n        /* \"#utility.yul\":31565:31603   */\n      tag_387\n      jump\t// in\n    tag_729:\n        /* \"#utility.yul\":31625:31626   */\n      0x00\n        /* \"#utility.yul\":31639:31793   */\n    tag_730:\n        /* \"#utility.yul\":31653:31659   */\n      dup4\n        /* \"#utility.yul\":31650:31651   */\n      dup2\n        /* \"#utility.yul\":31647:31660   */\n      lt\n        /* \"#utility.yul\":31639:31793   */\n      iszero\n      tag_732\n      jumpi\n        /* \"#utility.yul\":31727:31734   */\n      dup2\n        /* \"#utility.yul\":31721:31735   */\n      sload\n        /* \"#utility.yul\":31717:31718   */\n      dup2\n        /* \"#utility.yul\":31712:31715   */\n      dup10\n        /* \"#utility.yul\":31708:31719   */\n      add\n        /* \"#utility.yul\":31701:31736   */\n      mstore\n        /* \"#utility.yul\":31777:31778   */\n      0x01\n        /* \"#utility.yul\":31768:31775   */\n      dup3\n        /* \"#utility.yul\":31764:31779   */\n      add\n        /* \"#utility.yul\":31753:31779   */\n      swap2\n      pop\n        /* \"#utility.yul\":31675:31679   */\n      0x20\n        /* \"#utility.yul\":31672:31673   */\n      dup2\n        /* \"#utility.yul\":31668:31680   */\n      add\n        /* \"#utility.yul\":31663:31680   */\n      swap1\n      pop\n        /* \"#utility.yul\":31639:31793   */\n      jump(tag_730)\n    tag_732:\n        /* \"#utility.yul\":31822:31823   */\n      dup1\n        /* \"#utility.yul\":31817:31820   */\n      dup9\n        /* \"#utility.yul\":31813:31824   */\n      add\n        /* \"#utility.yul\":31806:31824   */\n      swap6\n      pop\n        /* \"#utility.yul\":31505:31834   */\n      pop\n      pop\n        /* \"#utility.yul\":31292:31834   */\n    tag_726:\n      pop\n        /* \"#utility.yul\":31098:31840   */\n      pop\n      pop\n        /* \"#utility.yul\":31009:31840   */\n      swap3\n      swap2\n      pop\n      pop\n      jump\t// out\n        /* \"#utility.yul\":31846:32476   */\n    tag_170:\n        /* \"#utility.yul\":32036:32040   */\n      0x00\n        /* \"#utility.yul\":32074:32077   */\n      0x80\n        /* \"#utility.yul\":32063:32072   */\n      dup3\n        /* \"#utility.yul\":32059:32078   */\n      add\n        /* \"#utility.yul\":32051:32078   */\n      swap1\n      pop\n        /* \"#utility.yul\":32088:32159   */\n      tag_734\n        /* \"#utility.yul\":32156:32157   */\n      0x00\n        /* \"#utility.yul\":32145:32154   */\n      dup4\n        /* \"#utility.yul\":32141:32158   */\n      add\n        /* \"#utility.yul\":32132:32138   */\n      dup8\n        /* \"#utility.yul\":32088:32159   */\n      tag_351\n      jump\t// in\n    tag_734:\n        /* \"#utility.yul\":32206:32215   */\n      dup2\n        /* \"#utility.yul\":32200:32204   */\n      dup2\n        /* \"#utility.yul\":32196:32216   */\n      sub\n        /* \"#utility.yul\":32191:32193   */\n      0x20\n        /* \"#utility.yul\":32180:32189   */\n      dup4\n        /* \"#utility.yul\":32176:32194   */\n      add\n        /* \"#utility.yul\":32169:32217   */\n      mstore\n        /* \"#utility.yul\":32234:32309   */\n      tag_735\n        /* \"#utility.yul\":32304:32308   */\n      dup2\n        /* \"#utility.yul\":32295:32301   */\n      dup7\n        /* \"#utility.yul\":32234:32309   */\n      tag_407\n      jump\t// in\n    tag_735:\n        /* \"#utility.yul\":32226:32309   */\n      swap1\n      pop\n        /* \"#utility.yul\":32319:32387   */\n      tag_736\n        /* \"#utility.yul\":32383:32385   */\n      0x40\n        /* \"#utility.yul\":32372:32381   */\n      dup4\n        /* \"#utility.yul\":32368:32386   */\n      add\n        /* \"#utility.yul\":32359:32365   */\n      dup6\n        /* \"#utility.yul\":32319:32387   */\n      tag_402\n      jump\t// in\n    tag_736:\n        /* \"#utility.yul\":32397:32469   */\n      tag_737\n        /* \"#utility.yul\":32465:32467   */\n      0x60\n        /* \"#utility.yul\":32454:32463   */\n      dup4\n        /* \"#utility.yul\":32450:32468   */\n      add\n        /* \"#utility.yul\":32441:32447   */\n      dup5\n        /* \"#utility.yul\":32397:32469   */\n      tag_351\n      jump\t// in\n    tag_737:\n        /* \"#utility.yul\":31846:32476   */\n      swap6\n      swap5\n      pop\n      pop\n      pop\n      pop\n      pop\n      jump\t// out\n        /* \"#utility.yul\":32482:32703   */\n    tag_408:\n        /* \"#utility.yul\":32622:32656   */\n      0x5468652073706563696669656420617373657420494420697320696e76616c69\n        /* \"#utility.yul\":32618:32619   */\n      0x00\n        /* \"#utility.yul\":32610:32616   */\n      dup3\n        /* \"#utility.yul\":32606:32620   */\n      add\n        /* \"#utility.yul\":32599:32657   */\n      mstore\n        /* \"#utility.yul\":32691:32695   */\n      0x642e000000000000000000000000000000000000000000000000000000000000\n        /* \"#utility.yul\":32686:32688   */\n      0x20\n        /* \"#utility.yul\":32678:32684   */\n      dup3\n        /* \"#utility.yul\":32674:32689   */\n      add\n        /* \"#utility.yul\":32667:32696   */\n      mstore\n        /* \"#utility.yul\":32482:32703   */\n      pop\n      jump\t// out\n        /* \"#utility.yul\":32709:33075   */\n    tag_409:\n        /* \"#utility.yul\":32851:32854   */\n      0x00\n        /* \"#utility.yul\":32872:32939   */\n      tag_740\n        /* \"#utility.yul\":32936:32938   */\n      0x22\n        /* \"#utility.yul\":32931:32934   */\n      dup4\n        /* \"#utility.yul\":32872:32939   */\n      tag_373\n      jump\t// in\n    tag_740:\n        /* \"#utility.yul\":32865:32939   */\n      swap2\n      pop\n        /* \"#utility.yul\":32948:33041   */\n      tag_741\n        /* \"#utility.yul\":33037:33040   */\n      dup3\n        /* \"#utility.yul\":32948:33041   */\n      tag_408\n      jump\t// in\n    tag_741:\n        /* \"#utility.yul\":33066:33068   */\n      0x40\n        /* \"#utility.yul\":33061:33064   */\n      dup3\n        /* \"#utility.yul\":33057:33069   */\n      add\n        /* \"#utility.yul\":33050:33069   */\n      swap1\n      pop\n        /* \"#utility.yul\":32709:33075   */\n      swap2\n      swap1\n      pop\n      jump\t// out\n        /* \"#utility.yul\":33081:33500   */\n    tag_202:\n        /* \"#utility.yul\":33247:33251   */\n      0x00\n        /* \"#utility.yul\":33285:33287   */\n      0x20\n        /* \"#utility.yul\":33274:33283   */\n      dup3\n        /* \"#utility.yul\":33270:33288   */\n      add\n        /* \"#utility.yul\":33262:33288   */\n      swap1\n      pop\n        /* \"#utility.yul\":33334:33343   */\n      dup2\n        /* \"#utility.yul\":33328:33332   */\n      dup2\n        /* \"#utility.yul\":33324:33344   */\n      sub\n        /* \"#utility.yul\":33320:33321   */\n      0x00\n        /* \"#utility.yul\":33309:33318   */\n      dup4\n        /* \"#utility.yul\":33305:33322   */\n      add\n        /* \"#utility.yul\":33298:33345   */\n      mstore\n        /* \"#utility.yul\":33362:33493   */\n      tag_743\n        /* \"#utility.yul\":33488:33492   */\n      dup2\n        /* \"#utility.yul\":33362:33493   */\n      tag_409\n      jump\t// in\n    tag_743:\n        /* \"#utility.yul\":33354:33493   */\n      swap1\n      pop\n        /* \"#utility.yul\":33081:33500   */\n      swap2\n      swap1\n      pop\n      jump\t// out\n        /* \"#utility.yul\":33506:33729   */\n    tag_410:\n        /* \"#utility.yul\":33646:33680   */\n      0x546865206c6f636b20706572696f6420686173206e6f74207965742065787069\n        /* \"#utility.yul\":33642:33643   */\n      0x00\n        /* \"#utility.yul\":33634:33640   */\n      dup3\n        /* \"#utility.yul\":33630:33644   */\n      add\n        /* \"#utility.yul\":33623:33681   */\n      mstore\n        /* \"#utility.yul\":33715:33721   */\n      0x7265642100000000000000000000000000000000000000000000000000000000\n        /* \"#utility.yul\":33710:33712   */\n      0x20\n        /* \"#utility.yul\":33702:33708   */\n      dup3\n        /* \"#utility.yul\":33698:33713   */\n      add\n        /* \"#utility.yul\":33691:33722   */\n      mstore\n        /* \"#utility.yul\":33506:33729   */\n      pop\n      jump\t// out\n        /* \"#utility.yul\":33735:34101   */\n    tag_411:\n        /* \"#utility.yul\":33877:33880   */\n      0x00\n        /* \"#utility.yul\":33898:33965   */\n      tag_746\n        /* \"#utility.yul\":33962:33964   */\n      0x24\n        /* \"#utility.yul\":33957:33960   */\n      dup4\n        /* \"#utility.yul\":33898:33965   */\n      tag_373\n      jump\t// in\n    tag_746:\n        /* \"#utility.yul\":33891:33965   */\n      swap2\n      pop\n        /* \"#utility.yul\":33974:34067   */\n      tag_747\n        /* \"#utility.yul\":34063:34066   */\n      dup3\n        /* \"#utility.yul\":33974:34067   */\n      tag_410\n      jump\t// in\n    tag_747:\n        /* \"#utility.yul\":34092:34094   */\n      0x40\n        /* \"#utility.yul\":34087:34090   */\n      dup3\n        /* \"#utility.yul\":34083:34095   */\n      add\n        /* \"#utility.yul\":34076:34095   */\n      swap1\n      pop\n        /* \"#utility.yul\":33735:34101   */\n      swap2\n      swap1\n      pop\n      jump\t// out\n        /* \"#utility.yul\":34107:34526   */\n    tag_205:\n        /* \"#utility.yul\":34273:34277   */\n      0x00\n        /* \"#utility.yul\":34311:34313   */\n      0x20\n        /* \"#utility.yul\":34300:34309   */\n      dup3\n        /* \"#utility.yul\":34296:34314   */\n      add\n        /* \"#utility.yul\":34288:34314   */\n      swap1\n      pop\n        /* \"#utility.yul\":34360:34369   */\n      dup2\n        /* \"#utility.yul\":34354:34358   */\n      dup2\n        /* \"#utility.yul\":34350:34370   */\n      sub\n        /* \"#utility.yul\":34346:34347   */\n      0x00\n        /* \"#utility.yul\":34335:34344   */\n      dup4\n        /* \"#utility.yul\":34331:34348   */\n      add\n        /* \"#utility.yul\":34324:34371   */\n      mstore\n        /* \"#utility.yul\":34388:34519   */\n      tag_749\n        /* \"#utility.yul\":34514:34518   */\n      dup2\n        /* \"#utility.yul\":34388:34519   */\n      tag_411\n      jump\t// in\n    tag_749:\n        /* \"#utility.yul\":34380:34519   */\n      swap1\n      pop\n        /* \"#utility.yul\":34107:34526   */\n      swap2\n      swap1\n      pop\n      jump\t// out\n        /* \"#utility.yul\":34532:35162   */\n    tag_211:\n        /* \"#utility.yul\":34722:34726   */\n      0x00\n        /* \"#utility.yul\":34760:34763   */\n      0x80\n        /* \"#utility.yul\":34749:34758   */\n      dup3\n        /* \"#utility.yul\":34745:34764   */\n      add\n        /* \"#utility.yul\":34737:34764   */\n      swap1\n      pop\n        /* \"#utility.yul\":34774:34841   */\n      tag_751\n        /* \"#utility.yul\":34838:34839   */\n      0x00\n        /* \"#utility.yul\":34827:34836   */\n      dup4\n        /* \"#utility.yul\":34823:34840   */\n      add\n        /* \"#utility.yul\":34814:34820   */\n      dup8\n        /* \"#utility.yul\":34774:34841   */\n      tag_402\n      jump\t// in\n    tag_751:\n        /* \"#utility.yul\":34851:34923   */\n      tag_752\n        /* \"#utility.yul\":34919:34921   */\n      0x20\n        /* \"#utility.yul\":34908:34917   */\n      dup4\n        /* \"#utility.yul\":34904:34922   */\n      add\n        /* \"#utility.yul\":34895:34901   */\n      dup7\n        /* \"#utility.yul\":34851:34923   */\n      tag_351\n      jump\t// in\n    tag_752:\n        /* \"#utility.yul\":34970:34979   */\n      dup2\n        /* \"#utility.yul\":34964:34968   */\n      dup2\n        /* \"#utility.yul\":34960:34980   */\n      sub\n        /* \"#utility.yul\":34955:34957   */\n      0x40\n        /* \"#utility.yul\":34944:34953   */\n      dup4\n        /* \"#utility.yul\":34940:34958   */\n      add\n        /* \"#utility.yul\":34933:34981   */\n      mstore\n        /* \"#utility.yul\":34998:35073   */\n      tag_753\n        /* \"#utility.yul\":35068:35072   */\n      dup2\n        /* \"#utility.yul\":35059:35065   */\n      dup6\n        /* \"#utility.yul\":34998:35073   */\n      tag_407\n      jump\t// in\n    tag_753:\n        /* \"#utility.yul\":34990:35073   */\n      swap1\n      pop\n        /* \"#utility.yul\":35083:35155   */\n      tag_754\n        /* \"#utility.yul\":35151:35153   */\n      0x60\n        /* \"#utility.yul\":35140:35149   */\n      dup4\n        /* \"#utility.yul\":35136:35154   */\n      add\n        /* \"#utility.yul\":35127:35133   */\n      dup5\n        /* \"#utility.yul\":35083:35155   */\n      tag_351\n      jump\t// in\n    tag_754:\n        /* \"#utility.yul\":34532:35162   */\n      swap6\n      swap5\n      pop\n      pop\n      pop\n      pop\n      pop\n      jump\t// out\n        /* \"#utility.yul\":35168:35390   */\n    tag_412:\n        /* \"#utility.yul\":35308:35342   */\n      0x417373657473206861766520616c7265616479206265656e2077697468647261\n        /* \"#utility.yul\":35304:35305   */\n      0x00\n        /* \"#utility.yul\":35296:35302   */\n      dup3\n        /* \"#utility.yul\":35292:35306   */\n      add\n        /* \"#utility.yul\":35285:35343   */\n      mstore\n        /* \"#utility.yul\":35377:35382   */\n      0x776e210000000000000000000000000000000000000000000000000000000000\n        /* \"#utility.yul\":35372:35374   */\n      0x20\n        /* \"#utility.yul\":35364:35370   */\n      dup3\n        /* \"#utility.yul\":35360:35375   */\n      add\n        /* \"#utility.yul\":35353:35383   */\n      mstore\n        /* \"#utility.yul\":35168:35390   */\n      pop\n      jump\t// out\n        /* \"#utility.yul\":35396:35762   */\n    tag_413:\n        /* \"#utility.yul\":35538:35541   */\n      0x00\n        /* \"#utility.yul\":35559:35626   */\n      tag_757\n        /* \"#utility.yul\":35623:35625   */\n      0x23\n        /* \"#utility.yul\":35618:35621   */\n      dup4\n        /* \"#utility.yul\":35559:35626   */\n      tag_373\n      jump\t// in\n    tag_757:\n        /* \"#utility.yul\":35552:35626   */\n      swap2\n      pop\n        /* \"#utility.yul\":35635:35728   */\n      tag_758\n        /* \"#utility.yul\":35724:35727   */\n      dup3\n        /* \"#utility.yul\":35635:35728   */\n      tag_412\n      jump\t// in\n    tag_758:\n        /* \"#utility.yul\":35753:35755   */\n      0x40\n        /* \"#utility.yul\":35748:35751   */\n      dup3\n        /* \"#utility.yul\":35744:35756   */\n      add\n        /* \"#utility.yul\":35737:35756   */\n      swap1\n      pop\n        /* \"#utility.yul\":35396:35762   */\n      swap2\n      swap1\n      pop\n      jump\t// out\n        /* \"#utility.yul\":35768:36187   */\n    tag_229:\n        /* \"#utility.yul\":35934:35938   */\n      0x00\n        /* \"#utility.yul\":35972:35974   */\n      0x20\n        /* \"#utility.yul\":35961:35970   */\n      dup3\n        /* \"#utility.yul\":35957:35975   */\n      add\n        /* \"#utility.yul\":35949:35975   */\n      swap1\n      pop\n        /* \"#utility.yul\":36021:36030   */\n      dup2\n        /* \"#utility.yul\":36015:36019   */\n      dup2\n        /* \"#utility.yul\":36011:36031   */\n      sub\n        /* \"#utility.yul\":36007:36008   */\n      0x00\n        /* \"#utility.yul\":35996:36005   */\n      dup4\n        /* \"#utility.yul\":35992:36009   */\n      add\n        /* \"#utility.yul\":35985:36032   */\n      mstore\n        /* \"#utility.yul\":36049:36180   */\n      tag_760\n        /* \"#utility.yul\":36175:36179   */\n      dup2\n        /* \"#utility.yul\":36049:36180   */\n      tag_413\n      jump\t// in\n    tag_760:\n        /* \"#utility.yul\":36041:36180   */\n      swap1\n      pop\n        /* \"#utility.yul\":35768:36187   */\n      swap2\n      swap1\n      pop\n      jump\t// out\n        /* \"#utility.yul\":36193:36387   */\n    tag_233:\n        /* \"#utility.yul\":36233:36237   */\n      0x00\n        /* \"#utility.yul\":36253:36273   */\n      tag_762\n        /* \"#utility.yul\":36271:36272   */\n      dup3\n        /* \"#utility.yul\":36253:36273   */\n      tag_335\n      jump\t// in\n    tag_762:\n        /* \"#utility.yul\":36248:36273   */\n      swap2\n      pop\n        /* \"#utility.yul\":36287:36307   */\n      tag_763\n        /* \"#utility.yul\":36305:36306   */\n      dup4\n        /* \"#utility.yul\":36287:36307   */\n      tag_335\n      jump\t// in\n    tag_763:\n        /* \"#utility.yul\":36282:36307   */\n      swap3\n      pop\n        /* \"#utility.yul\":36331:36332   */\n      dup3\n        /* \"#utility.yul\":36328:36329   */\n      dup3\n        /* \"#utility.yul\":36324:36333   */\n      sub\n        /* \"#utility.yul\":36316:36333   */\n      swap1\n      pop\n        /* \"#utility.yul\":36355:36356   */\n      dup2\n        /* \"#utility.yul\":36349:36353   */\n      dup2\n        /* \"#utility.yul\":36346:36357   */\n      gt\n        /* \"#utility.yul\":36343:36380   */\n      iszero\n      tag_764\n      jumpi\n        /* \"#utility.yul\":36360:36378   */\n      tag_765\n      tag_385\n      jump\t// in\n    tag_765:\n        /* \"#utility.yul\":36343:36380   */\n    tag_764:\n        /* \"#utility.yul\":36193:36387   */\n      swap3\n      swap2\n      pop\n      pop\n      jump\t// out\n        /* \"#utility.yul\":36393:36573   */\n    tag_414:\n        /* \"#utility.yul\":36533:36565   */\n      0x4e6f7420656e6f7567682061737365747320746f207769746864726177210000\n        /* \"#utility.yul\":36529:36530   */\n      0x00\n        /* \"#utility.yul\":36521:36527   */\n      dup3\n        /* \"#utility.yul\":36517:36531   */\n      add\n        /* \"#utility.yul\":36510:36566   */\n      mstore\n        /* \"#utility.yul\":36393:36573   */\n      pop\n      jump\t// out\n        /* \"#utility.yul\":36579:36945   */\n    tag_415:\n        /* \"#utility.yul\":36721:36724   */\n      0x00\n        /* \"#utility.yul\":36742:36809   */\n      tag_768\n        /* \"#utility.yul\":36806:36808   */\n      0x1e\n        /* \"#utility.yul\":36801:36804   */\n      dup4\n        /* \"#utility.yul\":36742:36809   */\n      tag_373\n      jump\t// in\n    tag_768:\n        /* \"#utility.yul\":36735:36809   */\n      swap2\n      pop\n        /* \"#utility.yul\":36818:36911   */\n      tag_769\n        /* \"#utility.yul\":36907:36910   */\n      dup3\n        /* \"#utility.yul\":36818:36911   */\n      tag_414\n      jump\t// in\n    tag_769:\n        /* \"#utility.yul\":36936:36938   */\n      0x20\n        /* \"#utility.yul\":36931:36934   */\n      dup3\n        /* \"#utility.yul\":36927:36939   */\n      add\n        /* \"#utility.yul\":36920:36939   */\n      swap1\n      pop\n        /* \"#utility.yul\":36579:36945   */\n      swap2\n      swap1\n      pop\n      jump\t// out\n        /* \"#utility.yul\":36951:37370   */\n    tag_236:\n        /* \"#utility.yul\":37117:37121   */\n      0x00\n        /* \"#utility.yul\":37155:37157   */\n      0x20\n        /* \"#utility.yul\":37144:37153   */\n      dup3\n        /* \"#utility.yul\":37140:37158   */\n      add\n        /* \"#utility.yul\":37132:37158   */\n      swap1\n      pop\n        /* \"#utility.yul\":37204:37213   */\n      dup2\n        /* \"#utility.yul\":37198:37202   */\n      dup2\n        /* \"#utility.yul\":37194:37214   */\n      sub\n        /* \"#utility.yul\":37190:37191   */\n      0x00\n        /* \"#utility.yul\":37179:37188   */\n      dup4\n        /* \"#utility.yul\":37175:37192   */\n      add\n        /* \"#utility.yul\":37168:37215   */\n      mstore\n        /* \"#utility.yul\":37232:37363   */\n      tag_771\n        /* \"#utility.yul\":37358:37362   */\n      dup2\n        /* \"#utility.yul\":37232:37363   */\n      tag_415\n      jump\t// in\n    tag_771:\n        /* \"#utility.yul\":37224:37363   */\n      swap1\n      pop\n        /* \"#utility.yul\":36951:37370   */\n      swap2\n      swap1\n      pop\n      jump\t// out\n        /* \"#utility.yul\":37376:37523   */\n    tag_416:\n        /* \"#utility.yul\":37477:37488   */\n      0x00\n        /* \"#utility.yul\":37514:37517   */\n      dup2\n        /* \"#utility.yul\":37499:37517   */\n      swap1\n      pop\n        /* \"#utility.yul\":37376:37523   */\n      swap3\n      swap2\n      pop\n      pop\n      jump\t// out\n        /* \"#utility.yul\":37529:37643   */\n    tag_417:\n      pop\n      jump\t// out\n        /* \"#utility.yul\":37649:38047   */\n    tag_418:\n        /* \"#utility.yul\":37808:37811   */\n      0x00\n        /* \"#utility.yul\":37829:37912   */\n      tag_775\n        /* \"#utility.yul\":37910:37911   */\n      0x00\n        /* \"#utility.yul\":37905:37908   */\n      dup4\n        /* \"#utility.yul\":37829:37912   */\n      tag_416\n      jump\t// in\n    tag_775:\n        /* \"#utility.yul\":37822:37912   */\n      swap2\n      pop\n        /* \"#utility.yul\":37921:38014   */\n      tag_776\n        /* \"#utility.yul\":38010:38013   */\n      dup3\n        /* \"#utility.yul\":37921:38014   */\n      tag_417\n      jump\t// in\n    tag_776:\n        /* \"#utility.yul\":38039:38040   */\n      0x00\n        /* \"#utility.yul\":38034:38037   */\n      dup3\n        /* \"#utility.yul\":38030:38041   */\n      add\n        /* \"#utility.yul\":38023:38041   */\n      swap1\n      pop\n        /* \"#utility.yul\":37649:38047   */\n      swap2\n      swap1\n      pop\n      jump\t// out\n        /* \"#utility.yul\":38053:38432   */\n    tag_246:\n        /* \"#utility.yul\":38237:38240   */\n      0x00\n        /* \"#utility.yul\":38259:38406   */\n      tag_778\n        /* \"#utility.yul\":38402:38405   */\n      dup3\n        /* \"#utility.yul\":38259:38406   */\n      tag_418\n      jump\t// in\n    tag_778:\n        /* \"#utility.yul\":38252:38406   */\n      swap2\n      pop\n        /* \"#utility.yul\":38423:38426   */\n      dup2\n        /* \"#utility.yul\":38416:38426   */\n      swap1\n      pop\n        /* \"#utility.yul\":38053:38432   */\n      swap2\n      swap1\n      pop\n      jump\t// out\n        /* \"#utility.yul\":38438:38607   */\n    tag_419:\n        /* \"#utility.yul\":38578:38599   */\n      0x455448207472616e73666572206661696c656400000000000000000000000000\n        /* \"#utility.yul\":38574:38575   */\n      0x00\n        /* \"#utility.yul\":38566:38572   */\n      dup3\n        /* \"#utility.yul\":38562:38576   */\n      add\n        /* \"#utility.yul\":38555:38600   */\n      mstore\n        /* \"#utility.yul\":38438:38607   */\n      pop\n      jump\t// out\n        /* \"#utility.yul\":38613:38979   */\n    tag_420:\n        /* \"#utility.yul\":38755:38758   */\n      0x00\n        /* \"#utility.yul\":38776:38843   */\n      tag_781\n        /* \"#utility.yul\":38840:38842   */\n      0x13\n        /* \"#utility.yul\":38835:38838   */\n      dup4\n        /* \"#utility.yul\":38776:38843   */\n      tag_373\n      jump\t// in\n    tag_781:\n        /* \"#utility.yul\":38769:38843   */\n      swap2\n      pop\n        /* \"#utility.yul\":38852:38945   */\n      tag_782\n        /* \"#utility.yul\":38941:38944   */\n      dup3\n        /* \"#utility.yul\":38852:38945   */\n      tag_419\n      jump\t// in\n    tag_782:\n        /* \"#utility.yul\":38970:38972   */\n      0x20\n        /* \"#utility.yul\":38965:38968   */\n      dup3\n        /* \"#utility.yul\":38961:38973   */\n      add\n        /* \"#utility.yul\":38954:38973   */\n      swap1\n      pop\n        /* \"#utility.yul\":38613:38979   */\n      swap2\n      swap1\n      pop\n      jump\t// out\n        /* \"#utility.yul\":38985:39404   */\n    tag_252:\n        /* \"#utility.yul\":39151:39155   */\n      0x00\n        /* \"#utility.yul\":39189:39191   */\n      0x20\n        /* \"#utility.yul\":39178:39187   */\n      dup3\n        /* \"#utility.yul\":39174:39192   */\n      add\n        /* \"#utility.yul\":39166:39192   */\n      swap1\n      pop\n        /* \"#utility.yul\":39238:39247   */\n      dup2\n        /* \"#utility.yul\":39232:39236   */\n      dup2\n        /* \"#utility.yul\":39228:39248   */\n      sub\n        /* \"#utility.yul\":39224:39225   */\n      0x00\n        /* \"#utility.yul\":39213:39222   */\n      dup4\n        /* \"#utility.yul\":39209:39226   */\n      add\n        /* \"#utility.yul\":39202:39249   */\n      mstore\n        /* \"#utility.yul\":39266:39397   */\n      tag_784\n        /* \"#utility.yul\":39392:39396   */\n      dup2\n        /* \"#utility.yul\":39266:39397   */\n      tag_420\n      jump\t// in\n    tag_784:\n        /* \"#utility.yul\":39258:39397   */\n      swap1\n      pop\n        /* \"#utility.yul\":38985:39404   */\n      swap2\n      swap1\n      pop\n      jump\t// out\n        /* \"#utility.yul\":39410:39648   */\n    tag_421:\n        /* \"#utility.yul\":39550:39584   */\n      0x45544820746f2061646420746f206c6f636b206d75737420626520616e20616d\n        /* \"#utility.yul\":39546:39547   */\n      0x00\n        /* \"#utility.yul\":39538:39544   */\n      dup3\n        /* \"#utility.yul\":39534:39548   */\n      add\n        /* \"#utility.yul\":39527:39585   */\n      mstore\n        /* \"#utility.yul\":39619:39640   */\n      0x6f756e742067726561746572207468616e203000000000000000000000000000\n        /* \"#utility.yul\":39614:39616   */\n      0x20\n        /* \"#utility.yul\":39606:39612   */\n      dup3\n        /* \"#utility.yul\":39602:39617   */\n      add\n        /* \"#utility.yul\":39595:39641   */\n      mstore\n        /* \"#utility.yul\":39410:39648   */\n      pop\n      jump\t// out\n        /* \"#utility.yul\":39654:40020   */\n    tag_422:\n        /* \"#utility.yul\":39796:39799   */\n      0x00\n        /* \"#utility.yul\":39817:39884   */\n      tag_787\n        /* \"#utility.yul\":39881:39883   */\n      0x33\n        /* \"#utility.yul\":39876:39879   */\n      dup4\n        /* \"#utility.yul\":39817:39884   */\n      tag_373\n      jump\t// in\n    tag_787:\n        /* \"#utility.yul\":39810:39884   */\n      swap2\n      pop\n        /* \"#utility.yul\":39893:39986   */\n      tag_788\n        /* \"#utility.yul\":39982:39985   */\n      dup3\n        /* \"#utility.yul\":39893:39986   */\n      tag_421\n      jump\t// in\n    tag_788:\n        /* \"#utility.yul\":40011:40013   */\n      0x40\n        /* \"#utility.yul\":40006:40009   */\n      dup3\n        /* \"#utility.yul\":40002:40014   */\n      add\n        /* \"#utility.yul\":39995:40014   */\n      swap1\n      pop\n        /* \"#utility.yul\":39654:40020   */\n      swap2\n      swap1\n      pop\n      jump\t// out\n        /* \"#utility.yul\":40026:40445   */\n    tag_275:\n        /* \"#utility.yul\":40192:40196   */\n      0x00\n        /* \"#utility.yul\":40230:40232   */\n      0x20\n        /* \"#utility.yul\":40219:40228   */\n      dup3\n        /* \"#utility.yul\":40215:40233   */\n      add\n        /* \"#utility.yul\":40207:40233   */\n      swap1\n      pop\n        /* \"#utility.yul\":40279:40288   */\n      dup2\n        /* \"#utility.yul\":40273:40277   */\n      dup2\n        /* \"#utility.yul\":40269:40289   */\n      sub\n        /* \"#utility.yul\":40265:40266   */\n      0x00\n        /* \"#utility.yul\":40254:40263   */\n      dup4\n        /* \"#utility.yul\":40250:40267   */\n      add\n        /* \"#utility.yul\":40243:40290   */\n      mstore\n        /* \"#utility.yul\":40307:40438   */\n      tag_790\n        /* \"#utility.yul\":40433:40437   */\n      dup2\n        /* \"#utility.yul\":40307:40438   */\n      tag_422\n      jump\t// in\n    tag_790:\n        /* \"#utility.yul\":40299:40438   */\n      swap1\n      pop\n        /* \"#utility.yul\":40026:40445   */\n      swap2\n      swap1\n      pop\n      jump\t// out\n        /* \"#utility.yul\":40451:40893   */\n    tag_302:\n        /* \"#utility.yul\":40600:40604   */\n      0x00\n        /* \"#utility.yul\":40638:40640   */\n      0x60\n        /* \"#utility.yul\":40627:40636   */\n      dup3\n        /* \"#utility.yul\":40623:40641   */\n      add\n        /* \"#utility.yul\":40615:40641   */\n      swap1\n      pop\n        /* \"#utility.yul\":40651:40722   */\n      tag_792\n        /* \"#utility.yul\":40719:40720   */\n      0x00\n        /* \"#utility.yul\":40708:40717   */\n      dup4\n        /* \"#utility.yul\":40704:40721   */\n      add\n        /* \"#utility.yul\":40695:40701   */\n      dup7\n        /* \"#utility.yul\":40651:40722   */\n      tag_372\n      jump\t// in\n    tag_792:\n        /* \"#utility.yul\":40732:40804   */\n      tag_793\n        /* \"#utility.yul\":40800:40802   */\n      0x20\n        /* \"#utility.yul\":40789:40798   */\n      dup4\n        /* \"#utility.yul\":40785:40803   */\n      add\n        /* \"#utility.yul\":40776:40782   */\n      dup6\n        /* \"#utility.yul\":40732:40804   */\n      tag_372\n      jump\t// in\n    tag_793:\n        /* \"#utility.yul\":40814:40886   */\n      tag_794\n        /* \"#utility.yul\":40882:40884   */\n      0x40\n        /* \"#utility.yul\":40871:40880   */\n      dup4\n        /* \"#utility.yul\":40867:40885   */\n      add\n        /* \"#utility.yul\":40858:40864   */\n      dup5\n        /* \"#utility.yul\":40814:40886   */\n      tag_351\n      jump\t// in\n    tag_794:\n        /* \"#utility.yul\":40451:40893   */\n      swap5\n      swap4\n      pop\n      pop\n      pop\n      pop\n      jump\t// out\n        /* \"#utility.yul\":40899:41231   */\n    tag_319:\n        /* \"#utility.yul\":41020:41024   */\n      0x00\n        /* \"#utility.yul\":41058:41060   */\n      0x40\n        /* \"#utility.yul\":41047:41056   */\n      dup3\n        /* \"#utility.yul\":41043:41061   */\n      add\n        /* \"#utility.yul\":41035:41061   */\n      swap1\n      pop\n        /* \"#utility.yul\":41071:41142   */\n      tag_796\n        /* \"#utility.yul\":41139:41140   */\n      0x00\n        /* \"#utility.yul\":41128:41137   */\n      dup4\n        /* \"#utility.yul\":41124:41141   */\n      add\n        /* \"#utility.yul\":41115:41121   */\n      dup6\n        /* \"#utility.yul\":41071:41142   */\n      tag_372\n      jump\t// in\n    tag_796:\n        /* \"#utility.yul\":41152:41224   */\n      tag_797\n        /* \"#utility.yul\":41220:41222   */\n      0x20\n        /* \"#utility.yul\":41209:41218   */\n      dup4\n        /* \"#utility.yul\":41205:41223   */\n      add\n        /* \"#utility.yul\":41196:41202   */\n      dup5\n        /* \"#utility.yul\":41152:41224   */\n      tag_351\n      jump\t// in\n    tag_797:\n        /* \"#utility.yul\":40899:41231   */\n      swap4\n      swap3\n      pop\n      pop\n      pop\n      jump\t// out\n\n    auxdata: 0xa264697066735822122002c60200c2aecad16b21713258d377d0ef8d84c17fa63d3a7bdca071ea39dd1c64736f6c634300081a0033\n}\n",
				"bytecode": {
					"linkReferences": {},
					"object": "608060405234801561000f575f80fd5b50335f73ffffffffffffffffffffffffffffffffffffffff168173ffffffffffffffffffffffffffffffffffffffff1603610081575f6040517f1e4fbdf7000000000000000000000000000000000000000000000000000000008152600401610078919061019d565b60405180910390fd5b6100908161009d60201b60201c565b50600180819055506101b6565b5f805f9054906101000a900473ffffffffffffffffffffffffffffffffffffffff169050815f806101000a81548173ffffffffffffffffffffffffffffffffffffffff021916908373ffffffffffffffffffffffffffffffffffffffff1602179055508173ffffffffffffffffffffffffffffffffffffffff168173ffffffffffffffffffffffffffffffffffffffff167f8be0079c531659141344cd1fd0a4f28419497f9722a3daafe3b4186f6b6457e060405160405180910390a35050565b5f73ffffffffffffffffffffffffffffffffffffffff82169050919050565b5f6101878261015e565b9050919050565b6101978161017d565b82525050565b5f6020820190506101b05f83018461018e565b92915050565b613606806101c35f395ff3fe6080604052600436106100dc575f3560e01c80638c89a0ad1161007e5780638e06b906116100585780638e06b906146102965780639e6c3ff2146102d7578063ecaa9d05146102ff578063f2fde38b1461031b576100dc565b80638c89a0ad1461021a5780638da5cb5b146102445780638de8107b1461026e576100dc565b80632d8fefc2116100ba5780632d8fefc2146101605780633b958c381461018857806360864eed146101c4578063715018a614610204576100dc565b80630f1419b5146100e057806313a2e8841461010857806314205e2814610124575b5f80fd5b3480156100eb575f80fd5b5061010660048036038101906101019190612336565b610343565b005b610122600480360381019061011d91906123c9565b61071f565b005b34801561012f575f80fd5b5061014a60048036038101906101459190612435565b6109a1565b604051610157919061246f565b60405180910390f35b34801561016b575f80fd5b50610186600480360381019061018191906124c1565b610a21565b005b348015610193575f80fd5b506101ae60048036038101906101a99190612525565b610d0b565b6040516101bb9190612729565b60405180910390f35b3480156101cf575f80fd5b506101ea60048036038101906101e59190612773565b610ee6565b6040516101fb959493929190612829565b60405180910390f35b34801561020f575f80fd5b50610218610fee565b005b348015610225575f80fd5b5061022e611001565b60405161023b919061246f565b60405180910390f35b34801561024f575f80fd5b50610258611008565b6040516102659190612881565b60405180910390f35b348015610279575f80fd5b50610294600480360381019061028f919061289a565b61102f565b005b3480156102a1575f80fd5b506102bc60048036038101906102b79190612773565b611293565b6040516102ce969594939291906128ea565b60405180910390f35b3480156102e2575f80fd5b506102fd60048036038101906102f8919061289a565b6113ae565b005b61031960048036038101906103149190612950565b6119bd565b005b348015610326575f80fd5b50610341600480360381019061033c919061298e565b611c0a565b005b61034b611c8e565b5f73ffffffffffffffffffffffffffffffffffffffff168573ffffffffffffffffffffffffffffffffffffffff16036103b9576040517f08c379a00000000000000000000000000000000000000000000000000000000081526004016103b090612a29565b60405180910390fd5b5f84116103fb576040517f08c379a00000000000000000000000000000000000000000000000000000000081526004016103f290612ab7565b60405180910390fd5b5f821161043d576040517f08c379a000000000000000000000000000000000000000000000000000000000815260040161043490612b45565b60405180910390fd5b5f8573ffffffffffffffffffffffffffffffffffffffff166370a08231336040518263ffffffff1660e01b81526004016104779190612881565b602060405180830381865afa158015610492573d5f803e3d5ffd5b505050506040513d601f19601f820116820180604052508101906104b69190612b77565b9050808511156104fb576040517f08c379a00000000000000000000000000000000000000000000000000000000081526004016104f290612bec565b60405180910390fd5b6105283330878973ffffffffffffffffffffffffffffffffffffffff16611cd4909392919063ffffffff16565b60025f3373ffffffffffffffffffffffffffffffffffffffff1673ffffffffffffffffffffffffffffffffffffffff1681526020019081526020015f205f8560ff1660ff1681526020019081526020015f206040518060c001604052808873ffffffffffffffffffffffffffffffffffffffff16815260200187815260200185426105b39190612c37565b81526020018481526020015f151581526020015f1515815250908060018154018082558091505060019003905f5260205f2090600502015f909190919091505f820151815f015f6101000a81548173ffffffffffffffffffffffffffffffffffffffff021916908373ffffffffffffffffffffffffffffffffffffffff1602179055506020820151816001015560408201518160020155606082015181600301908161065f9190612e64565b506080820151816004015f6101000a81548160ff02191690831515021790555060a08201518160040160016101000a81548160ff02191690831515021790555050506106ae868587855f611d56565b8573ffffffffffffffffffffffffffffffffffffffff167fed26bd61b6bf2f43d7471454e53e77ffdc96beefa2f198977936f6d02d34563d86848787426106f59190612c37565b42604051610707959493929190612f42565b60405180910390a250610718611ea3565b5050505050565b610727611c8e565b5f3411610769576040517f08c379a00000000000000000000000000000000000000000000000000000000081526004016107609061300a565b60405180910390fd5b5f8210156107ac576040517f08c379a00000000000000000000000000000000000000000000000000000000081526004016107a390613098565b60405180910390fd5b60025f3373ffffffffffffffffffffffffffffffffffffffff1673ffffffffffffffffffffffffffffffffffffffff1681526020019081526020015f205f8460ff1660ff1681526020019081526020015f206040518060c001604052805f73ffffffffffffffffffffffffffffffffffffffff16815260200134815260200184426108379190612c37565b81526020018381526020015f1515815260200160011515815250908060018154018082558091505060019003905f5260205f2090600502015f909190919091505f820151815f015f6101000a81548173ffffffffffffffffffffffffffffffffffffffff021916908373ffffffffffffffffffffffffffffffffffffffff160217905550602082015181600101556040820151816002015560608201518160030190816108e49190612e64565b506080820151816004015f6101000a81548160ff02191690831515021790555060a08201518160040160016101000a81548160ff02191690831515021790555050506109335f8434845f611d56565b5f73ffffffffffffffffffffffffffffffffffffffff167fed26bd61b6bf2f43d7471454e53e77ffdc96beefa2f198977936f6d02d34563d348386864261097a9190612c37565b4260405161098c959493929190612f42565b60405180910390a261099c611ea3565b505050565b5f8173ffffffffffffffffffffffffffffffffffffffff166370a08231306040518263ffffffff1660e01b81526004016109db9190612881565b602060405180830381865afa1580156109f6573d5f803e3d5ffd5b505050506040513d601f19601f82011682018060405250810190610a1a9190612b77565b9050919050565b610a29611c8e565b5f73ffffffffffffffffffffffffffffffffffffffff168473ffffffffffffffffffffffffffffffffffffffff1603610a97576040517f08c379a0000000000000000000000000000000000000000000000000000000008152600401610a8e90612a29565b60405180910390fd5b5f8211610ad9576040517f08c379a0000000000000000000000000000000000000000000000000000000008152600401610ad090612ab7565b60405180910390fd5b5f60025f3373ffffffffffffffffffffffffffffffffffffffff1673ffffffffffffffffffffffffffffffffffffffff1681526020019081526020015f205f8360ff1660ff1681526020019081526020015f208463ffffffff1681548110610b4457610b436130b6565b5b905f5260205f2090600502019050610b7f3330858873ffffffffffffffffffffffffffffffffffffffff16611cd4909392919063ffffffff16565b8260025f3373ffffffffffffffffffffffffffffffffffffffff1673ffffffffffffffffffffffffffffffffffffffff1681526020019081526020015f205f8460ff1660ff1681526020019081526020015f208563ffffffff1681548110610bea57610be96130b6565b5b905f5260205f2090600502016001015f828254610c079190612c37565b92505081905550610ca5858385846003018054610c2390612c97565b80601f0160208091040260200160405190810160405280929190818152602001828054610c4f90612c97565b8015610c9a5780601f10610c7157610100808354040283529160200191610c9a565b820191905f5260205f20905b815481529060010190602001808311610c7d57829003601f168201915b50505050505f611d56565b8473ffffffffffffffffffffffffffffffffffffffff167f0b99ce8321b94ffaa5c5021540ec0668dcba948d044760a5ef298fa0513b1ef484836003018542604051610cf49493929190613164565b60405180910390a250610d05611ea3565b50505050565b606060025f3373ffffffffffffffffffffffffffffffffffffffff1673ffffffffffffffffffffffffffffffffffffffff1681526020019081526020015f205f8360ff1660ff1681526020019081526020015f20805480602002602001604051908101604052809291908181526020015f905b82821015610edb578382905f5260205f2090600502016040518060c00160405290815f82015f9054906101000a900473ffffffffffffffffffffffffffffffffffffffff1673ffffffffffffffffffffffffffffffffffffffff1673ffffffffffffffffffffffffffffffffffffffff1681526020016001820154815260200160028201548152602001600382018054610e1790612c97565b80601f0160208091040260200160405190810160405280929190818152602001828054610e4390612c97565b8015610e8e5780601f10610e6557610100808354040283529160200191610e8e565b820191905f5260205f20905b815481529060010190602001808311610e7157829003601f168201915b50505050508152602001600482015f9054906101000a900460ff161515151581526020016004820160019054906101000a900460ff16151515158152505081526020019060010190610d7e565b505050509050919050565b6003602052825f5260405f20602052815f5260405f208181548110610f09575f80fd5b905f5260205f2090600502015f925092505050805f015f9054906101000a900473ffffffffffffffffffffffffffffffffffffffff1690806001015490806002018054610f5590612c97565b80601f0160208091040260200160405190810160405280929190818152602001828054610f8190612c97565b8015610fcc5780601f10610fa357610100808354040283529160200191610fcc565b820191905f5260205f20905b815481529060010190602001808311610faf57829003601f168201915b505050505090806003015f9054906101000a900460ff16908060040154905085565b610ff6611eac565b610fff5f611f33565b565b5f47905090565b5f805f9054906101000a900473ffffffffffffffffffffffffffffffffffffffff16905090565b5f60025f3373ffffffffffffffffffffffffffffffffffffffff1673ffffffffffffffffffffffffffffffffffffffff1681526020019081526020015f205f8460ff1660ff1681526020019081526020015f208463ffffffff168154811061109a576110996130b6565b5b905f5260205f209060050201905060025f3373ffffffffffffffffffffffffffffffffffffffff1673ffffffffffffffffffffffffffffffffffffffff1681526020019081526020015f205f8460ff1660ff1681526020019081526020015f20805490508463ffffffff1610611145576040517f08c379a000000000000000000000000000000000000000000000000000000000815260040161113c9061321e565b60405180910390fd5b8060020154421161118b576040517f08c379a0000000000000000000000000000000000000000000000000000000008152600401611182906132ac565b60405180910390fd5b81426111979190612c37565b60025f3373ffffffffffffffffffffffffffffffffffffffff1673ffffffffffffffffffffffffffffffffffffffff1681526020019081526020015f205f8560ff1660ff1681526020019081526020015f208563ffffffff1681548110611201576112006130b6565b5b905f5260205f20906005020160020181905550805f015f9054906101000a900473ffffffffffffffffffffffffffffffffffffffff1673ffffffffffffffffffffffffffffffffffffffff167f748cb9768ee3f2567793f42a22f5b0c83df9e14d32ec82c9cb839cb1b357be138484846003014260405161128594939291906132ca565b60405180910390a250505050565b6002602052825f5260405f20602052815f5260405f2081815481106112b6575f80fd5b905f5260205f2090600502015f925092505050805f015f9054906101000a900473ffffffffffffffffffffffffffffffffffffffff169080600101549080600201549080600301805461130890612c97565b80601f016020809104026020016040519081016040528092919081815260200182805461133490612c97565b801561137f5780601f106113565761010080835404028352916020019161137f565b820191905f5260205f20905b81548152906001019060200180831161136257829003601f168201915b505050505090806004015f9054906101000a900460ff16908060040160019054906101000a900460ff16905086565b6113b6611c8e565b60025f3373ffffffffffffffffffffffffffffffffffffffff1673ffffffffffffffffffffffffffffffffffffffff1681526020019081526020015f205f8360ff1660ff1681526020019081526020015f20805490508363ffffffff1610611453576040517f08c379a000000000000000000000000000000000000000000000000000000000815260040161144a9061321e565b60405180910390fd5b5f60025f3373ffffffffffffffffffffffffffffffffffffffff1673ffffffffffffffffffffffffffffffffffffffff1681526020019081526020015f205f8460ff1660ff1681526020019081526020015f208463ffffffff16815481106114be576114bd6130b6565b5b905f5260205f2090600502019050806004015f9054906101000a900460ff161561151d576040517f08c379a000000000000000000000000000000000000000000000000000000000815260040161151490613384565b60405180910390fd5b80600201544211611563576040517f08c379a000000000000000000000000000000000000000000000000000000000815260040161155a906132ac565b60405180910390fd5b5f82826001015461157491906133a2565b90505f8110156115b9576040517f08c379a00000000000000000000000000000000000000000000000000000000081526004016115b09061341f565b60405180910390fd5b5f810361165257600160025f3373ffffffffffffffffffffffffffffffffffffffff1673ffffffffffffffffffffffffffffffffffffffff1681526020019081526020015f205f8660ff1660ff1681526020019081526020015f208663ffffffff168154811061162c5761162b6130b6565b5b905f5260205f2090600502016004015f6101000a81548160ff0219169083151502179055505b8060025f3373ffffffffffffffffffffffffffffffffffffffff1673ffffffffffffffffffffffffffffffffffffffff1681526020019081526020015f205f8660ff1660ff1681526020019081526020015f208663ffffffff16815481106116bd576116bc6130b6565b5b905f5260205f209060050201600101819055508160040160019054906101000a900460ff161561182d575f3373ffffffffffffffffffffffffffffffffffffffff168460405161170c9061346a565b5f6040518083038185875af1925050503d805f8114611746576040519150601f19603f3d011682016040523d82523d5f602084013e61174b565b606091505b505090508061178f576040517f08c379a0000000000000000000000000000000000000000000000000000000008152600401611786906134c8565b60405180910390fd5b6118275f86868660030180546117a490612c97565b80601f01602080910402602001604051908101604052809291908181526020018280546117d090612c97565b801561181b5780601f106117f25761010080835404028352916020019161181b565b820191905f5260205f20905b8154815290600101906020018083116117fe57829003601f168201915b50505050506001611d56565b50611935565b61187a3384845f015f9054906101000a900473ffffffffffffffffffffffffffffffffffffffff1673ffffffffffffffffffffffffffffffffffffffff16611ff49092919063ffffffff16565b611934825f015f9054906101000a900473ffffffffffffffffffffffffffffffffffffffff1685858560030180546118b190612c97565b80601f01602080910402602001604051908101604052809291908181526020018280546118dd90612c97565b80156119285780601f106118ff57610100808354040283529160200191611928565b820191905f5260205f20905b81548152906001019060200180831161190b57829003601f168201915b50505050506001611d56565b5b815f015f9054906101000a900473ffffffffffffffffffffffffffffffffffffffff1673ffffffffffffffffffffffffffffffffffffffff167f16c4c024c274b52575ffc17396bbc4a59db7dd13aac28373e025a9f6269f9e03848460030187426040516119a69493929190613164565b60405180910390a250506119b8611ea3565b505050565b6119c5611c8e565b5f3411611a07576040517f08c379a00000000000000000000000000000000000000000000000000000000081526004016119fe90613556565b60405180910390fd5b5f60025f3373ffffffffffffffffffffffffffffffffffffffff1673ffffffffffffffffffffffffffffffffffffffff1681526020019081526020015f205f8460ff1660ff1681526020019081526020015f208263ffffffff1681548110611a7257611a716130b6565b5b905f5260205f20906005020190503460025f3373ffffffffffffffffffffffffffffffffffffffff1673ffffffffffffffffffffffffffffffffffffffff1681526020019081526020015f205f8560ff1660ff1681526020019081526020015f208363ffffffff1681548110611aeb57611aea6130b6565b5b905f5260205f2090600502016001015f828254611b089190612c37565b92505081905550611ba65f8434846003018054611b2490612c97565b80601f0160208091040260200160405190810160405280929190818152602001828054611b5090612c97565b8015611b9b5780601f10611b7257610100808354040283529160200191611b9b565b820191905f5260205f20905b815481529060010190602001808311611b7e57829003601f168201915b50505050505f611d56565b5f73ffffffffffffffffffffffffffffffffffffffff167f0b99ce8321b94ffaa5c5021540ec0668dcba948d044760a5ef298fa0513b1ef434836003018642604051611bf59493929190613164565b60405180910390a250611c06611ea3565b5050565b611c12611eac565b5f73ffffffffffffffffffffffffffffffffffffffff168173ffffffffffffffffffffffffffffffffffffffff1603611c82575f6040517f1e4fbdf7000000000000000000000000000000000000000000000000000000008152600401611c799190612881565b60405180910390fd5b611c8b81611f33565b50565b600260015403611cca576040517f3ee5aeb500000000000000000000000000000000000000000000000000000000815260040160405180910390fd5b6002600181905550565b611d50848573ffffffffffffffffffffffffffffffffffffffff166323b872dd868686604051602401611d0993929190613574565b604051602081830303815290604052915060e01b6020820180517bffffffffffffffffffffffffffffffffffffffffffffffffffffffff8381831617835250505050612073565b50505050565b60035f3373ffffffffffffffffffffffffffffffffffffffff1673ffffffffffffffffffffffffffffffffffffffff1681526020019081526020015f205f8560ff1660ff1681526020019081526020015f206040518060a001604052808773ffffffffffffffffffffffffffffffffffffffff168152602001858152602001848152602001831515815260200142815250908060018154018082558091505060019003905f5260205f2090600502015f909190919091505f820151815f015f6101000a81548173ffffffffffffffffffffffffffffffffffffffff021916908373ffffffffffffffffffffffffffffffffffffffff160217905550602082015181600101556040820151816002019081611e709190612e64565b506060820151816003015f6101000a81548160ff0219169083151502179055506080820151816004015550505050505050565b60018081905550565b611eb461210e565b73ffffffffffffffffffffffffffffffffffffffff16611ed2611008565b73ffffffffffffffffffffffffffffffffffffffff1614611f3157611ef561210e565b6040517f118cdaa7000000000000000000000000000000000000000000000000000000008152600401611f289190612881565b60405180910390fd5b565b5f805f9054906101000a900473ffffffffffffffffffffffffffffffffffffffff169050815f806101000a81548173ffffffffffffffffffffffffffffffffffffffff021916908373ffffffffffffffffffffffffffffffffffffffff1602179055508173ffffffffffffffffffffffffffffffffffffffff168173ffffffffffffffffffffffffffffffffffffffff167f8be0079c531659141344cd1fd0a4f28419497f9722a3daafe3b4186f6b6457e060405160405180910390a35050565b61206e838473ffffffffffffffffffffffffffffffffffffffff1663a9059cbb85856040516024016120279291906135a9565b604051602081830303815290604052915060e01b6020820180517bffffffffffffffffffffffffffffffffffffffffffffffffffffffff8381831617835250505050612073565b505050565b5f8060205f8451602086015f885af180612092576040513d5f823e3d81fd5b3d92505f519150505f82146120ab5760018114156120c6565b5f8473ffffffffffffffffffffffffffffffffffffffff163b145b1561210857836040517f5274afe70000000000000000000000000000000000000000000000000000000081526004016120ff9190612881565b60405180910390fd5b50505050565b5f33905090565b5f604051905090565b5f80fd5b5f80fd5b5f73ffffffffffffffffffffffffffffffffffffffff82169050919050565b5f61214f82612126565b9050919050565b5f61216082612145565b9050919050565b61217081612156565b811461217a575f80fd5b50565b5f8135905061218b81612167565b92915050565b5f819050919050565b6121a381612191565b81146121ad575f80fd5b50565b5f813590506121be8161219a565b92915050565b5f60ff82169050919050565b6121d9816121c4565b81146121e3575f80fd5b50565b5f813590506121f4816121d0565b92915050565b5f80fd5b5f80fd5b5f601f19601f8301169050919050565b7f4e487b71000000000000000000000000000000000000000000000000000000005f52604160045260245ffd5b61224882612202565b810181811067ffffffffffffffff8211171561226757612266612212565b5b80604052505050565b5f612279612115565b9050612285828261223f565b919050565b5f67ffffffffffffffff8211156122a4576122a3612212565b5b6122ad82612202565b9050602081019050919050565b828183375f83830152505050565b5f6122da6122d58461228a565b612270565b9050828152602081018484840111156122f6576122f56121fe565b5b6123018482856122ba565b509392505050565b5f82601f83011261231d5761231c6121fa565b5b813561232d8482602086016122c8565b91505092915050565b5f805f805f60a0868803121561234f5761234e61211e565b5b5f61235c8882890161217d565b955050602061236d888289016121b0565b945050604061237e888289016121e6565b935050606061238f888289016121b0565b925050608086013567ffffffffffffffff8111156123b0576123af612122565b5b6123bc88828901612309565b9150509295509295909350565b5f805f606084860312156123e0576123df61211e565b5b5f6123ed868287016121e6565b93505060206123fe868287016121b0565b925050604084013567ffffffffffffffff81111561241f5761241e612122565b5b61242b86828701612309565b9150509250925092565b5f6020828403121561244a5761244961211e565b5b5f6124578482850161217d565b91505092915050565b61246981612191565b82525050565b5f6020820190506124825f830184612460565b92915050565b5f63ffffffff82169050919050565b6124a081612488565b81146124aa575f80fd5b50565b5f813590506124bb81612497565b92915050565b5f805f80608085870312156124d9576124d861211e565b5b5f6124e68782880161217d565b94505060206124f7878288016124ad565b9350506040612508878288016121b0565b9250506060612519878288016121e6565b91505092959194509250565b5f6020828403121561253a5761253961211e565b5b5f612547848285016121e6565b91505092915050565b5f81519050919050565b5f82825260208201905092915050565b5f819050602082019050919050565b61258281612145565b82525050565b61259181612191565b82525050565b5f81519050919050565b5f82825260208201905092915050565b8281835e5f83830152505050565b5f6125c982612597565b6125d381856125a1565b93506125e38185602086016125b1565b6125ec81612202565b840191505092915050565b5f8115159050919050565b61260b816125f7565b82525050565b5f60c083015f8301516126265f860182612579565b5060208301516126396020860182612588565b50604083015161264c6040860182612588565b506060830151848203606086015261266482826125bf565b91505060808301516126796080860182612602565b5060a083015161268c60a0860182612602565b508091505092915050565b5f6126a28383612611565b905092915050565b5f602082019050919050565b5f6126c082612550565b6126ca818561255a565b9350836020820285016126dc8561256a565b805f5b8581101561271757848403895281516126f88582612697565b9450612703836126aa565b925060208a019950506001810190506126df565b50829750879550505050505092915050565b5f6020820190508181035f83015261274181846126b6565b905092915050565b61275281612145565b811461275c575f80fd5b50565b5f8135905061276d81612749565b92915050565b5f805f6060848603121561278a5761278961211e565b5b5f6127978682870161275f565b93505060206127a8868287016121e6565b92505060406127b9868287016121b0565b9150509250925092565b6127cc81612145565b82525050565b5f82825260208201905092915050565b5f6127ec82612597565b6127f681856127d2565b93506128068185602086016125b1565b61280f81612202565b840191505092915050565b612823816125f7565b82525050565b5f60a08201905061283c5f8301886127c3565b6128496020830187612460565b818103604083015261285b81866127e2565b905061286a606083018561281a565b6128776080830184612460565b9695505050505050565b5f6020820190506128945f8301846127c3565b92915050565b5f805f606084860312156128b1576128b061211e565b5b5f6128be868287016124ad565b93505060206128cf868287016121e6565b92505060406128e0868287016121b0565b9150509250925092565b5f60c0820190506128fd5f8301896127c3565b61290a6020830188612460565b6129176040830187612460565b818103606083015261292981866127e2565b9050612938608083018561281a565b61294560a083018461281a565b979650505050505050565b5f80604083850312156129665761296561211e565b5b5f612973858286016121e6565b9250506020612984858286016124ad565b9150509250929050565b5f602082840312156129a3576129a261211e565b5b5f6129b08482850161275f565b91505092915050565b7f4d7573742070726f7669646520612076616c696420746f6b656e2061646472655f8201527f7373000000000000000000000000000000000000000000000000000000000000602082015250565b5f612a136022836127d2565b9150612a1e826129b9565b604082019050919050565b5f6020820190508181035f830152612a4081612a07565b9050919050565b7f546f6b656e20616d6f756e74206d7573742062652067726561746572207468655f8201527f6e207a65726f0000000000000000000000000000000000000000000000000000602082015250565b5f612aa16026836127d2565b9150612aac82612a47565b604082019050919050565b5f6020820190508181035f830152612ace81612a95565b9050919050565b7f546865206c6f636b20706572696f64206d7573742062652067726561746572205f8201527f7468656e207a65726f0000000000000000000000000000000000000000000000602082015250565b5f612b2f6029836127d2565b9150612b3a82612ad5565b604082019050919050565b5f6020820190508181035f830152612b5c81612b23565b9050919050565b5f81519050612b718161219a565b92915050565b5f60208284031215612b8c57612b8b61211e565b5b5f612b9984828501612b63565b91505092915050565b7f4e6f7420656e6f75676820746f6b656e7320746f206c6f636b000000000000005f82015250565b5f612bd66019836127d2565b9150612be182612ba2565b602082019050919050565b5f6020820190508181035f830152612c0381612bca565b9050919050565b7f4e487b71000000000000000000000000000000000000000000000000000000005f52601160045260245ffd5b5f612c4182612191565b9150612c4c83612191565b9250828201905080821115612c6457612c63612c0a565b5b92915050565b7f4e487b71000000000000000000000000000000000000000000000000000000005f52602260045260245ffd5b5f6002820490506001821680612cae57607f821691505b602082108103612cc157612cc0612c6a565b5b50919050565b5f819050815f5260205f209050919050565b5f6020601f8301049050919050565b5f82821b905092915050565b5f60088302612d237fffffffffffffffffffffffffffffffffffffffffffffffffffffffffffffffff82612ce8565b612d2d8683612ce8565b95508019841693508086168417925050509392505050565b5f819050919050565b5f612d68612d63612d5e84612191565b612d45565b612191565b9050919050565b5f819050919050565b612d8183612d4e565b612d95612d8d82612d6f565b848454612cf4565b825550505050565b5f90565b612da9612d9d565b612db4818484612d78565b505050565b5b81811015612dd757612dcc5f82612da1565b600181019050612dba565b5050565b601f821115612e1c57612ded81612cc7565b612df684612cd9565b81016020851015612e05578190505b612e19612e1185612cd9565b830182612db9565b50505b505050565b5f82821c905092915050565b5f612e3c5f1984600802612e21565b1980831691505092915050565b5f612e548383612e2d565b9150826002028217905092915050565b612e6d82612597565b67ffffffffffffffff811115612e8657612e85612212565b5b612e908254612c97565b612e9b828285612ddb565b5f60209050601f831160018114612ecc575f8415612eba578287015190505b612ec48582612e49565b865550612f2b565b601f198416612eda86612cc7565b5f5b82811015612f0157848901518255600182019150602085019450602081019050612edc565b86831015612f1e5784890151612f1a601f891682612e2d565b8355505b6001600288020188555050505b505050505050565b612f3c816121c4565b82525050565b5f60a082019050612f555f830188612460565b8181036020830152612f6781876127e2565b9050612f766040830186612f33565b612f836060830185612460565b612f906080830184612460565b9695505050505050565b7f45544820746f206c6f636b206d75737420612076616c756520677265617465725f8201527f207468616e203000000000000000000000000000000000000000000000000000602082015250565b5f612ff46027836127d2565b9150612fff82612f9a565b604082019050919050565b5f6020820190508181035f83015261302181612fe8565b9050919050565b7f546865206c6f636b706572696f64206d757374206265206772656174657220745f8201527f68656e207a65726f000000000000000000000000000000000000000000000000602082015250565b5f6130826028836127d2565b915061308d82613028565b604082019050919050565b5f6020820190508181035f8301526130af81613076565b9050919050565b7f4e487b71000000000000000000000000000000000000000000000000000000005f52603260045260245ffd5b5f81546130ef81612c97565b6130f981866127d2565b9450600182165f811461311357600181146131295761315b565b60ff19831686528115156020028601935061315b565b61313285612cc7565b5f5b8381101561315357815481890152600182019150602081019050613134565b808801955050505b50505092915050565b5f6080820190506131775f830187612460565b818103602083015261318981866130e3565b90506131986040830185612f33565b6131a56060830184612460565b95945050505050565b7f5468652073706563696669656420617373657420494420697320696e76616c695f8201527f642e000000000000000000000000000000000000000000000000000000000000602082015250565b5f6132086022836127d2565b9150613213826131ae565b604082019050919050565b5f6020820190508181035f830152613235816131fc565b9050919050565b7f546865206c6f636b20706572696f6420686173206e6f742079657420657870695f8201527f7265642100000000000000000000000000000000000000000000000000000000602082015250565b5f6132966024836127d2565b91506132a18261323c565b604082019050919050565b5f6020820190508181035f8301526132c38161328a565b9050919050565b5f6080820190506132dd5f830187612f33565b6132ea6020830186612460565b81810360408301526132fc81856130e3565b905061330b6060830184612460565b95945050505050565b7f417373657473206861766520616c7265616479206265656e20776974686472615f8201527f776e210000000000000000000000000000000000000000000000000000000000602082015250565b5f61336e6023836127d2565b915061337982613314565b604082019050919050565b5f6020820190508181035f83015261339b81613362565b9050919050565b5f6133ac82612191565b91506133b783612191565b92508282039050818111156133cf576133ce612c0a565b5b92915050565b7f4e6f7420656e6f7567682061737365747320746f2077697468647261772100005f82015250565b5f613409601e836127d2565b9150613414826133d5565b602082019050919050565b5f6020820190508181035f830152613436816133fd565b9050919050565b5f81905092915050565b50565b5f6134555f8361343d565b915061346082613447565b5f82019050919050565b5f6134748261344a565b9150819050919050565b7f455448207472616e73666572206661696c6564000000000000000000000000005f82015250565b5f6134b26013836127d2565b91506134bd8261347e565b602082019050919050565b5f6020820190508181035f8301526134df816134a6565b9050919050565b7f45544820746f2061646420746f206c6f636b206d75737420626520616e20616d5f8201527f6f756e742067726561746572207468616e203000000000000000000000000000602082015250565b5f6135406033836127d2565b915061354b826134e6565b604082019050919050565b5f6020820190508181035f83015261356d81613534565b9050919050565b5f6060820190506135875f8301866127c3565b61359460208301856127c3565b6135a16040830184612460565b949350505050565b5f6040820190506135bc5f8301856127c3565b6135c96020830184612460565b939250505056fea264697066735822122002c60200c2aecad16b21713258d377d0ef8d84c17fa63d3a7bdca071ea39dd1c64736f6c634300081a0033",
					"opcodes": "PUSH1 0x80 PUSH1 0x40 MSTORE CALLVALUE DUP1 ISZERO PUSH2 0xF JUMPI PUSH0 DUP1 REVERT JUMPDEST POP CALLER PUSH0 PUSH20 0xFFFFFFFFFFFFFFFFFFFFFFFFFFFFFFFFFFFFFFFF AND DUP2 PUSH20 0xFFFFFFFFFFFFFFFFFFFFFFFFFFFFFFFFFFFFFFFF AND SUB PUSH2 0x81 JUMPI PUSH0 PUSH1 0x40 MLOAD PUSH32 0x1E4FBDF700000000000000000000000000000000000000000000000000000000 DUP2 MSTORE PUSH1 0x4 ADD PUSH2 0x78 SWAP2 SWAP1 PUSH2 0x19D JUMP JUMPDEST PUSH1 0x40 MLOAD DUP1 SWAP2 SUB SWAP1 REVERT JUMPDEST PUSH2 0x90 DUP2 PUSH2 0x9D PUSH1 0x20 SHL PUSH1 0x20 SHR JUMP JUMPDEST POP PUSH1 0x1 DUP1 DUP2 SWAP1 SSTORE POP PUSH2 0x1B6 JUMP JUMPDEST PUSH0 DUP1 PUSH0 SWAP1 SLOAD SWAP1 PUSH2 0x100 EXP SWAP1 DIV PUSH20 0xFFFFFFFFFFFFFFFFFFFFFFFFFFFFFFFFFFFFFFFF AND SWAP1 POP DUP2 PUSH0 DUP1 PUSH2 0x100 EXP DUP2 SLOAD DUP2 PUSH20 0xFFFFFFFFFFFFFFFFFFFFFFFFFFFFFFFFFFFFFFFF MUL NOT AND SWAP1 DUP4 PUSH20 0xFFFFFFFFFFFFFFFFFFFFFFFFFFFFFFFFFFFFFFFF AND MUL OR SWAP1 SSTORE POP DUP2 PUSH20 0xFFFFFFFFFFFFFFFFFFFFFFFFFFFFFFFFFFFFFFFF AND DUP2 PUSH20 0xFFFFFFFFFFFFFFFFFFFFFFFFFFFFFFFFFFFFFFFF AND PUSH32 0x8BE0079C531659141344CD1FD0A4F28419497F9722A3DAAFE3B4186F6B6457E0 PUSH1 0x40 MLOAD PUSH1 0x40 MLOAD DUP1 SWAP2 SUB SWAP1 LOG3 POP POP JUMP JUMPDEST PUSH0 PUSH20 0xFFFFFFFFFFFFFFFFFFFFFFFFFFFFFFFFFFFFFFFF DUP3 AND SWAP1 POP SWAP2 SWAP1 POP JUMP JUMPDEST PUSH0 PUSH2 0x187 DUP3 PUSH2 0x15E JUMP JUMPDEST SWAP1 POP SWAP2 SWAP1 POP JUMP JUMPDEST PUSH2 0x197 DUP2 PUSH2 0x17D JUMP JUMPDEST DUP3 MSTORE POP POP JUMP JUMPDEST PUSH0 PUSH1 0x20 DUP3 ADD SWAP1 POP PUSH2 0x1B0 PUSH0 DUP4 ADD DUP5 PUSH2 0x18E JUMP JUMPDEST SWAP3 SWAP2 POP POP JUMP JUMPDEST PUSH2 0x3606 DUP1 PUSH2 0x1C3 PUSH0 CODECOPY PUSH0 RETURN INVALID PUSH1 0x80 PUSH1 0x40 MSTORE PUSH1 0x4 CALLDATASIZE LT PUSH2 0xDC JUMPI PUSH0 CALLDATALOAD PUSH1 0xE0 SHR DUP1 PUSH4 0x8C89A0AD GT PUSH2 0x7E JUMPI DUP1 PUSH4 0x8E06B906 GT PUSH2 0x58 JUMPI DUP1 PUSH4 0x8E06B906 EQ PUSH2 0x296 JUMPI DUP1 PUSH4 0x9E6C3FF2 EQ PUSH2 0x2D7 JUMPI DUP1 PUSH4 0xECAA9D05 EQ PUSH2 0x2FF JUMPI DUP1 PUSH4 0xF2FDE38B EQ PUSH2 0x31B JUMPI PUSH2 0xDC JUMP JUMPDEST DUP1 PUSH4 0x8C89A0AD EQ PUSH2 0x21A JUMPI DUP1 PUSH4 0x8DA5CB5B EQ PUSH2 0x244 JUMPI DUP1 PUSH4 0x8DE8107B EQ PUSH2 0x26E JUMPI PUSH2 0xDC JUMP JUMPDEST DUP1 PUSH4 0x2D8FEFC2 GT PUSH2 0xBA JUMPI DUP1 PUSH4 0x2D8FEFC2 EQ PUSH2 0x160 JUMPI DUP1 PUSH4 0x3B958C38 EQ PUSH2 0x188 JUMPI DUP1 PUSH4 0x60864EED EQ PUSH2 0x1C4 JUMPI DUP1 PUSH4 0x715018A6 EQ PUSH2 0x204 JUMPI PUSH2 0xDC JUMP JUMPDEST DUP1 PUSH4 0xF1419B5 EQ PUSH2 0xE0 JUMPI DUP1 PUSH4 0x13A2E884 EQ PUSH2 0x108 JUMPI DUP1 PUSH4 0x14205E28 EQ PUSH2 0x124 JUMPI JUMPDEST PUSH0 DUP1 REVERT JUMPDEST CALLVALUE DUP1 ISZERO PUSH2 0xEB JUMPI PUSH0 DUP1 REVERT JUMPDEST POP PUSH2 0x106 PUSH1 0x4 DUP1 CALLDATASIZE SUB DUP2 ADD SWAP1 PUSH2 0x101 SWAP2 SWAP1 PUSH2 0x2336 JUMP JUMPDEST PUSH2 0x343 JUMP JUMPDEST STOP JUMPDEST PUSH2 0x122 PUSH1 0x4 DUP1 CALLDATASIZE SUB DUP2 ADD SWAP1 PUSH2 0x11D SWAP2 SWAP1 PUSH2 0x23C9 JUMP JUMPDEST PUSH2 0x71F JUMP JUMPDEST STOP JUMPDEST CALLVALUE DUP1 ISZERO PUSH2 0x12F JUMPI PUSH0 DUP1 REVERT JUMPDEST POP PUSH2 0x14A PUSH1 0x4 DUP1 CALLDATASIZE SUB DUP2 ADD SWAP1 PUSH2 0x145 SWAP2 SWAP1 PUSH2 0x2435 JUMP JUMPDEST PUSH2 0x9A1 JUMP JUMPDEST PUSH1 0x40 MLOAD PUSH2 0x157 SWAP2 SWAP1 PUSH2 0x246F JUMP JUMPDEST PUSH1 0x40 MLOAD DUP1 SWAP2 SUB SWAP1 RETURN JUMPDEST CALLVALUE DUP1 ISZERO PUSH2 0x16B JUMPI PUSH0 DUP1 REVERT JUMPDEST POP PUSH2 0x186 PUSH1 0x4 DUP1 CALLDATASIZE SUB DUP2 ADD SWAP1 PUSH2 0x181 SWAP2 SWAP1 PUSH2 0x24C1 JUMP JUMPDEST PUSH2 0xA21 JUMP JUMPDEST STOP JUMPDEST CALLVALUE DUP1 ISZERO PUSH2 0x193 JUMPI PUSH0 DUP1 REVERT JUMPDEST POP PUSH2 0x1AE PUSH1 0x4 DUP1 CALLDATASIZE SUB DUP2 ADD SWAP1 PUSH2 0x1A9 SWAP2 SWAP1 PUSH2 0x2525 JUMP JUMPDEST PUSH2 0xD0B JUMP JUMPDEST PUSH1 0x40 MLOAD PUSH2 0x1BB SWAP2 SWAP1 PUSH2 0x2729 JUMP JUMPDEST PUSH1 0x40 MLOAD DUP1 SWAP2 SUB SWAP1 RETURN JUMPDEST CALLVALUE DUP1 ISZERO PUSH2 0x1CF JUMPI PUSH0 DUP1 REVERT JUMPDEST POP PUSH2 0x1EA PUSH1 0x4 DUP1 CALLDATASIZE SUB DUP2 ADD SWAP1 PUSH2 0x1E5 SWAP2 SWAP1 PUSH2 0x2773 JUMP JUMPDEST PUSH2 0xEE6 JUMP JUMPDEST PUSH1 0x40 MLOAD PUSH2 0x1FB SWAP6 SWAP5 SWAP4 SWAP3 SWAP2 SWAP1 PUSH2 0x2829 JUMP JUMPDEST PUSH1 0x40 MLOAD DUP1 SWAP2 SUB SWAP1 RETURN JUMPDEST CALLVALUE DUP1 ISZERO PUSH2 0x20F JUMPI PUSH0 DUP1 REVERT JUMPDEST POP PUSH2 0x218 PUSH2 0xFEE JUMP JUMPDEST STOP JUMPDEST CALLVALUE DUP1 ISZERO PUSH2 0x225 JUMPI PUSH0 DUP1 REVERT JUMPDEST POP PUSH2 0x22E PUSH2 0x1001 JUMP JUMPDEST PUSH1 0x40 MLOAD PUSH2 0x23B SWAP2 SWAP1 PUSH2 0x246F JUMP JUMPDEST PUSH1 0x40 MLOAD DUP1 SWAP2 SUB SWAP1 RETURN JUMPDEST CALLVALUE DUP1 ISZERO PUSH2 0x24F JUMPI PUSH0 DUP1 REVERT JUMPDEST POP PUSH2 0x258 PUSH2 0x1008 JUMP JUMPDEST PUSH1 0x40 MLOAD PUSH2 0x265 SWAP2 SWAP1 PUSH2 0x2881 JUMP JUMPDEST PUSH1 0x40 MLOAD DUP1 SWAP2 SUB SWAP1 RETURN JUMPDEST CALLVALUE DUP1 ISZERO PUSH2 0x279 JUMPI PUSH0 DUP1 REVERT JUMPDEST POP PUSH2 0x294 PUSH1 0x4 DUP1 CALLDATASIZE SUB DUP2 ADD SWAP1 PUSH2 0x28F SWAP2 SWAP1 PUSH2 0x289A JUMP JUMPDEST PUSH2 0x102F JUMP JUMPDEST STOP JUMPDEST CALLVALUE DUP1 ISZERO PUSH2 0x2A1 JUMPI PUSH0 DUP1 REVERT JUMPDEST POP PUSH2 0x2BC PUSH1 0x4 DUP1 CALLDATASIZE SUB DUP2 ADD SWAP1 PUSH2 0x2B7 SWAP2 SWAP1 PUSH2 0x2773 JUMP JUMPDEST PUSH2 0x1293 JUMP JUMPDEST PUSH1 0x40 MLOAD PUSH2 0x2CE SWAP7 SWAP6 SWAP5 SWAP4 SWAP3 SWAP2 SWAP1 PUSH2 0x28EA JUMP JUMPDEST PUSH1 0x40 MLOAD DUP1 SWAP2 SUB SWAP1 RETURN JUMPDEST CALLVALUE DUP1 ISZERO PUSH2 0x2E2 JUMPI PUSH0 DUP1 REVERT JUMPDEST POP PUSH2 0x2FD PUSH1 0x4 DUP1 CALLDATASIZE SUB DUP2 ADD SWAP1 PUSH2 0x2F8 SWAP2 SWAP1 PUSH2 0x289A JUMP JUMPDEST PUSH2 0x13AE JUMP JUMPDEST STOP JUMPDEST PUSH2 0x319 PUSH1 0x4 DUP1 CALLDATASIZE SUB DUP2 ADD SWAP1 PUSH2 0x314 SWAP2 SWAP1 PUSH2 0x2950 JUMP JUMPDEST PUSH2 0x19BD JUMP JUMPDEST STOP JUMPDEST CALLVALUE DUP1 ISZERO PUSH2 0x326 JUMPI PUSH0 DUP1 REVERT JUMPDEST POP PUSH2 0x341 PUSH1 0x4 DUP1 CALLDATASIZE SUB DUP2 ADD SWAP1 PUSH2 0x33C SWAP2 SWAP1 PUSH2 0x298E JUMP JUMPDEST PUSH2 0x1C0A JUMP JUMPDEST STOP JUMPDEST PUSH2 0x34B PUSH2 0x1C8E JUMP JUMPDEST PUSH0 PUSH20 0xFFFFFFFFFFFFFFFFFFFFFFFFFFFFFFFFFFFFFFFF AND DUP6 PUSH20 0xFFFFFFFFFFFFFFFFFFFFFFFFFFFFFFFFFFFFFFFF AND SUB PUSH2 0x3B9 JUMPI PUSH1 0x40 MLOAD PUSH32 0x8C379A000000000000000000000000000000000000000000000000000000000 DUP2 MSTORE PUSH1 0x4 ADD PUSH2 0x3B0 SWAP1 PUSH2 0x2A29 JUMP JUMPDEST PUSH1 0x40 MLOAD DUP1 SWAP2 SUB SWAP1 REVERT JUMPDEST PUSH0 DUP5 GT PUSH2 0x3FB JUMPI PUSH1 0x40 MLOAD PUSH32 0x8C379A000000000000000000000000000000000000000000000000000000000 DUP2 MSTORE PUSH1 0x4 ADD PUSH2 0x3F2 SWAP1 PUSH2 0x2AB7 JUMP JUMPDEST PUSH1 0x40 MLOAD DUP1 SWAP2 SUB SWAP1 REVERT JUMPDEST PUSH0 DUP3 GT PUSH2 0x43D JUMPI PUSH1 0x40 MLOAD PUSH32 0x8C379A000000000000000000000000000000000000000000000000000000000 DUP2 MSTORE PUSH1 0x4 ADD PUSH2 0x434 SWAP1 PUSH2 0x2B45 JUMP JUMPDEST PUSH1 0x40 MLOAD DUP1 SWAP2 SUB SWAP1 REVERT JUMPDEST PUSH0 DUP6 PUSH20 0xFFFFFFFFFFFFFFFFFFFFFFFFFFFFFFFFFFFFFFFF AND PUSH4 0x70A08231 CALLER PUSH1 0x40 MLOAD DUP3 PUSH4 0xFFFFFFFF AND PUSH1 0xE0 SHL DUP2 MSTORE PUSH1 0x4 ADD PUSH2 0x477 SWAP2 SWAP1 PUSH2 0x2881 JUMP JUMPDEST PUSH1 0x20 PUSH1 0x40 MLOAD DUP1 DUP4 SUB DUP2 DUP7 GAS STATICCALL ISZERO DUP1 ISZERO PUSH2 0x492 JUMPI RETURNDATASIZE PUSH0 DUP1 RETURNDATACOPY RETURNDATASIZE PUSH0 REVERT JUMPDEST POP POP POP POP PUSH1 0x40 MLOAD RETURNDATASIZE PUSH1 0x1F NOT PUSH1 0x1F DUP3 ADD AND DUP3 ADD DUP1 PUSH1 0x40 MSTORE POP DUP2 ADD SWAP1 PUSH2 0x4B6 SWAP2 SWAP1 PUSH2 0x2B77 JUMP JUMPDEST SWAP1 POP DUP1 DUP6 GT ISZERO PUSH2 0x4FB JUMPI PUSH1 0x40 MLOAD PUSH32 0x8C379A000000000000000000000000000000000000000000000000000000000 DUP2 MSTORE PUSH1 0x4 ADD PUSH2 0x4F2 SWAP1 PUSH2 0x2BEC JUMP JUMPDEST PUSH1 0x40 MLOAD DUP1 SWAP2 SUB SWAP1 REVERT JUMPDEST PUSH2 0x528 CALLER ADDRESS DUP8 DUP10 PUSH20 0xFFFFFFFFFFFFFFFFFFFFFFFFFFFFFFFFFFFFFFFF AND PUSH2 0x1CD4 SWAP1 SWAP4 SWAP3 SWAP2 SWAP1 PUSH4 0xFFFFFFFF AND JUMP JUMPDEST PUSH1 0x2 PUSH0 CALLER PUSH20 0xFFFFFFFFFFFFFFFFFFFFFFFFFFFFFFFFFFFFFFFF AND PUSH20 0xFFFFFFFFFFFFFFFFFFFFFFFFFFFFFFFFFFFFFFFF AND DUP2 MSTORE PUSH1 0x20 ADD SWAP1 DUP2 MSTORE PUSH1 0x20 ADD PUSH0 KECCAK256 PUSH0 DUP6 PUSH1 0xFF AND PUSH1 0xFF AND DUP2 MSTORE PUSH1 0x20 ADD SWAP1 DUP2 MSTORE PUSH1 0x20 ADD PUSH0 KECCAK256 PUSH1 0x40 MLOAD DUP1 PUSH1 0xC0 ADD PUSH1 0x40 MSTORE DUP1 DUP9 PUSH20 0xFFFFFFFFFFFFFFFFFFFFFFFFFFFFFFFFFFFFFFFF AND DUP2 MSTORE PUSH1 0x20 ADD DUP8 DUP2 MSTORE PUSH1 0x20 ADD DUP6 TIMESTAMP PUSH2 0x5B3 SWAP2 SWAP1 PUSH2 0x2C37 JUMP JUMPDEST DUP2 MSTORE PUSH1 0x20 ADD DUP5 DUP2 MSTORE PUSH1 0x20 ADD PUSH0 ISZERO ISZERO DUP2 MSTORE PUSH1 0x20 ADD PUSH0 ISZERO ISZERO DUP2 MSTORE POP SWAP1 DUP1 PUSH1 0x1 DUP2 SLOAD ADD DUP1 DUP3 SSTORE DUP1 SWAP2 POP POP PUSH1 0x1 SWAP1 SUB SWAP1 PUSH0 MSTORE PUSH1 0x20 PUSH0 KECCAK256 SWAP1 PUSH1 0x5 MUL ADD PUSH0 SWAP1 SWAP2 SWAP1 SWAP2 SWAP1 SWAP2 POP PUSH0 DUP3 ADD MLOAD DUP2 PUSH0 ADD PUSH0 PUSH2 0x100 EXP DUP2 SLOAD DUP2 PUSH20 0xFFFFFFFFFFFFFFFFFFFFFFFFFFFFFFFFFFFFFFFF MUL NOT AND SWAP1 DUP4 PUSH20 0xFFFFFFFFFFFFFFFFFFFFFFFFFFFFFFFFFFFFFFFF AND MUL OR SWAP1 SSTORE POP PUSH1 0x20 DUP3 ADD MLOAD DUP2 PUSH1 0x1 ADD SSTORE PUSH1 0x40 DUP3 ADD MLOAD DUP2 PUSH1 0x2 ADD SSTORE PUSH1 0x60 DUP3 ADD MLOAD DUP2 PUSH1 0x3 ADD SWAP1 DUP2 PUSH2 0x65F SWAP2 SWAP1 PUSH2 0x2E64 JUMP JUMPDEST POP PUSH1 0x80 DUP3 ADD MLOAD DUP2 PUSH1 0x4 ADD PUSH0 PUSH2 0x100 EXP DUP2 SLOAD DUP2 PUSH1 0xFF MUL NOT AND SWAP1 DUP4 ISZERO ISZERO MUL OR SWAP1 SSTORE POP PUSH1 0xA0 DUP3 ADD MLOAD DUP2 PUSH1 0x4 ADD PUSH1 0x1 PUSH2 0x100 EXP DUP2 SLOAD DUP2 PUSH1 0xFF MUL NOT AND SWAP1 DUP4 ISZERO ISZERO MUL OR SWAP1 SSTORE POP POP POP PUSH2 0x6AE DUP7 DUP6 DUP8 DUP6 PUSH0 PUSH2 0x1D56 JUMP JUMPDEST DUP6 PUSH20 0xFFFFFFFFFFFFFFFFFFFFFFFFFFFFFFFFFFFFFFFF AND PUSH32 0xED26BD61B6BF2F43D7471454E53E77FFDC96BEEFA2F198977936F6D02D34563D DUP7 DUP5 DUP8 DUP8 TIMESTAMP PUSH2 0x6F5 SWAP2 SWAP1 PUSH2 0x2C37 JUMP JUMPDEST TIMESTAMP PUSH1 0x40 MLOAD PUSH2 0x707 SWAP6 SWAP5 SWAP4 SWAP3 SWAP2 SWAP1 PUSH2 0x2F42 JUMP JUMPDEST PUSH1 0x40 MLOAD DUP1 SWAP2 SUB SWAP1 LOG2 POP PUSH2 0x718 PUSH2 0x1EA3 JUMP JUMPDEST POP POP POP POP POP JUMP JUMPDEST PUSH2 0x727 PUSH2 0x1C8E JUMP JUMPDEST PUSH0 CALLVALUE GT PUSH2 0x769 JUMPI PUSH1 0x40 MLOAD PUSH32 0x8C379A000000000000000000000000000000000000000000000000000000000 DUP2 MSTORE PUSH1 0x4 ADD PUSH2 0x760 SWAP1 PUSH2 0x300A JUMP JUMPDEST PUSH1 0x40 MLOAD DUP1 SWAP2 SUB SWAP1 REVERT JUMPDEST PUSH0 DUP3 LT ISZERO PUSH2 0x7AC JUMPI PUSH1 0x40 MLOAD PUSH32 0x8C379A000000000000000000000000000000000000000000000000000000000 DUP2 MSTORE PUSH1 0x4 ADD PUSH2 0x7A3 SWAP1 PUSH2 0x3098 JUMP JUMPDEST PUSH1 0x40 MLOAD DUP1 SWAP2 SUB SWAP1 REVERT JUMPDEST PUSH1 0x2 PUSH0 CALLER PUSH20 0xFFFFFFFFFFFFFFFFFFFFFFFFFFFFFFFFFFFFFFFF AND PUSH20 0xFFFFFFFFFFFFFFFFFFFFFFFFFFFFFFFFFFFFFFFF AND DUP2 MSTORE PUSH1 0x20 ADD SWAP1 DUP2 MSTORE PUSH1 0x20 ADD PUSH0 KECCAK256 PUSH0 DUP5 PUSH1 0xFF AND PUSH1 0xFF AND DUP2 MSTORE PUSH1 0x20 ADD SWAP1 DUP2 MSTORE PUSH1 0x20 ADD PUSH0 KECCAK256 PUSH1 0x40 MLOAD DUP1 PUSH1 0xC0 ADD PUSH1 0x40 MSTORE DUP1 PUSH0 PUSH20 0xFFFFFFFFFFFFFFFFFFFFFFFFFFFFFFFFFFFFFFFF AND DUP2 MSTORE PUSH1 0x20 ADD CALLVALUE DUP2 MSTORE PUSH1 0x20 ADD DUP5 TIMESTAMP PUSH2 0x837 SWAP2 SWAP1 PUSH2 0x2C37 JUMP JUMPDEST DUP2 MSTORE PUSH1 0x20 ADD DUP4 DUP2 MSTORE PUSH1 0x20 ADD PUSH0 ISZERO ISZERO DUP2 MSTORE PUSH1 0x20 ADD PUSH1 0x1 ISZERO ISZERO DUP2 MSTORE POP SWAP1 DUP1 PUSH1 0x1 DUP2 SLOAD ADD DUP1 DUP3 SSTORE DUP1 SWAP2 POP POP PUSH1 0x1 SWAP1 SUB SWAP1 PUSH0 MSTORE PUSH1 0x20 PUSH0 KECCAK256 SWAP1 PUSH1 0x5 MUL ADD PUSH0 SWAP1 SWAP2 SWAP1 SWAP2 SWAP1 SWAP2 POP PUSH0 DUP3 ADD MLOAD DUP2 PUSH0 ADD PUSH0 PUSH2 0x100 EXP DUP2 SLOAD DUP2 PUSH20 0xFFFFFFFFFFFFFFFFFFFFFFFFFFFFFFFFFFFFFFFF MUL NOT AND SWAP1 DUP4 PUSH20 0xFFFFFFFFFFFFFFFFFFFFFFFFFFFFFFFFFFFFFFFF AND MUL OR SWAP1 SSTORE POP PUSH1 0x20 DUP3 ADD MLOAD DUP2 PUSH1 0x1 ADD SSTORE PUSH1 0x40 DUP3 ADD MLOAD DUP2 PUSH1 0x2 ADD SSTORE PUSH1 0x60 DUP3 ADD MLOAD DUP2 PUSH1 0x3 ADD SWAP1 DUP2 PUSH2 0x8E4 SWAP2 SWAP1 PUSH2 0x2E64 JUMP JUMPDEST POP PUSH1 0x80 DUP3 ADD MLOAD DUP2 PUSH1 0x4 ADD PUSH0 PUSH2 0x100 EXP DUP2 SLOAD DUP2 PUSH1 0xFF MUL NOT AND SWAP1 DUP4 ISZERO ISZERO MUL OR SWAP1 SSTORE POP PUSH1 0xA0 DUP3 ADD MLOAD DUP2 PUSH1 0x4 ADD PUSH1 0x1 PUSH2 0x100 EXP DUP2 SLOAD DUP2 PUSH1 0xFF MUL NOT AND SWAP1 DUP4 ISZERO ISZERO MUL OR SWAP1 SSTORE POP POP POP PUSH2 0x933 PUSH0 DUP5 CALLVALUE DUP5 PUSH0 PUSH2 0x1D56 JUMP JUMPDEST PUSH0 PUSH20 0xFFFFFFFFFFFFFFFFFFFFFFFFFFFFFFFFFFFFFFFF AND PUSH32 0xED26BD61B6BF2F43D7471454E53E77FFDC96BEEFA2F198977936F6D02D34563D CALLVALUE DUP4 DUP7 DUP7 TIMESTAMP PUSH2 0x97A SWAP2 SWAP1 PUSH2 0x2C37 JUMP JUMPDEST TIMESTAMP PUSH1 0x40 MLOAD PUSH2 0x98C SWAP6 SWAP5 SWAP4 SWAP3 SWAP2 SWAP1 PUSH2 0x2F42 JUMP JUMPDEST PUSH1 0x40 MLOAD DUP1 SWAP2 SUB SWAP1 LOG2 PUSH2 0x99C PUSH2 0x1EA3 JUMP JUMPDEST POP POP POP JUMP JUMPDEST PUSH0 DUP2 PUSH20 0xFFFFFFFFFFFFFFFFFFFFFFFFFFFFFFFFFFFFFFFF AND PUSH4 0x70A08231 ADDRESS PUSH1 0x40 MLOAD DUP3 PUSH4 0xFFFFFFFF AND PUSH1 0xE0 SHL DUP2 MSTORE PUSH1 0x4 ADD PUSH2 0x9DB SWAP2 SWAP1 PUSH2 0x2881 JUMP JUMPDEST PUSH1 0x20 PUSH1 0x40 MLOAD DUP1 DUP4 SUB DUP2 DUP7 GAS STATICCALL ISZERO DUP1 ISZERO PUSH2 0x9F6 JUMPI RETURNDATASIZE PUSH0 DUP1 RETURNDATACOPY RETURNDATASIZE PUSH0 REVERT JUMPDEST POP POP POP POP PUSH1 0x40 MLOAD RETURNDATASIZE PUSH1 0x1F NOT PUSH1 0x1F DUP3 ADD AND DUP3 ADD DUP1 PUSH1 0x40 MSTORE POP DUP2 ADD SWAP1 PUSH2 0xA1A SWAP2 SWAP1 PUSH2 0x2B77 JUMP JUMPDEST SWAP1 POP SWAP2 SWAP1 POP JUMP JUMPDEST PUSH2 0xA29 PUSH2 0x1C8E JUMP JUMPDEST PUSH0 PUSH20 0xFFFFFFFFFFFFFFFFFFFFFFFFFFFFFFFFFFFFFFFF AND DUP5 PUSH20 0xFFFFFFFFFFFFFFFFFFFFFFFFFFFFFFFFFFFFFFFF AND SUB PUSH2 0xA97 JUMPI PUSH1 0x40 MLOAD PUSH32 0x8C379A000000000000000000000000000000000000000000000000000000000 DUP2 MSTORE PUSH1 0x4 ADD PUSH2 0xA8E SWAP1 PUSH2 0x2A29 JUMP JUMPDEST PUSH1 0x40 MLOAD DUP1 SWAP2 SUB SWAP1 REVERT JUMPDEST PUSH0 DUP3 GT PUSH2 0xAD9 JUMPI PUSH1 0x40 MLOAD PUSH32 0x8C379A000000000000000000000000000000000000000000000000000000000 DUP2 MSTORE PUSH1 0x4 ADD PUSH2 0xAD0 SWAP1 PUSH2 0x2AB7 JUMP JUMPDEST PUSH1 0x40 MLOAD DUP1 SWAP2 SUB SWAP1 REVERT JUMPDEST PUSH0 PUSH1 0x2 PUSH0 CALLER PUSH20 0xFFFFFFFFFFFFFFFFFFFFFFFFFFFFFFFFFFFFFFFF AND PUSH20 0xFFFFFFFFFFFFFFFFFFFFFFFFFFFFFFFFFFFFFFFF AND DUP2 MSTORE PUSH1 0x20 ADD SWAP1 DUP2 MSTORE PUSH1 0x20 ADD PUSH0 KECCAK256 PUSH0 DUP4 PUSH1 0xFF AND PUSH1 0xFF AND DUP2 MSTORE PUSH1 0x20 ADD SWAP1 DUP2 MSTORE PUSH1 0x20 ADD PUSH0 KECCAK256 DUP5 PUSH4 0xFFFFFFFF AND DUP2 SLOAD DUP2 LT PUSH2 0xB44 JUMPI PUSH2 0xB43 PUSH2 0x30B6 JUMP JUMPDEST JUMPDEST SWAP1 PUSH0 MSTORE PUSH1 0x20 PUSH0 KECCAK256 SWAP1 PUSH1 0x5 MUL ADD SWAP1 POP PUSH2 0xB7F CALLER ADDRESS DUP6 DUP9 PUSH20 0xFFFFFFFFFFFFFFFFFFFFFFFFFFFFFFFFFFFFFFFF AND PUSH2 0x1CD4 SWAP1 SWAP4 SWAP3 SWAP2 SWAP1 PUSH4 0xFFFFFFFF AND JUMP JUMPDEST DUP3 PUSH1 0x2 PUSH0 CALLER PUSH20 0xFFFFFFFFFFFFFFFFFFFFFFFFFFFFFFFFFFFFFFFF AND PUSH20 0xFFFFFFFFFFFFFFFFFFFFFFFFFFFFFFFFFFFFFFFF AND DUP2 MSTORE PUSH1 0x20 ADD SWAP1 DUP2 MSTORE PUSH1 0x20 ADD PUSH0 KECCAK256 PUSH0 DUP5 PUSH1 0xFF AND PUSH1 0xFF AND DUP2 MSTORE PUSH1 0x20 ADD SWAP1 DUP2 MSTORE PUSH1 0x20 ADD PUSH0 KECCAK256 DUP6 PUSH4 0xFFFFFFFF AND DUP2 SLOAD DUP2 LT PUSH2 0xBEA JUMPI PUSH2 0xBE9 PUSH2 0x30B6 JUMP JUMPDEST JUMPDEST SWAP1 PUSH0 MSTORE PUSH1 0x20 PUSH0 KECCAK256 SWAP1 PUSH1 0x5 MUL ADD PUSH1 0x1 ADD PUSH0 DUP3 DUP3 SLOAD PUSH2 0xC07 SWAP2 SWAP1 PUSH2 0x2C37 JUMP JUMPDEST SWAP3 POP POP DUP2 SWAP1 SSTORE POP PUSH2 0xCA5 DUP6 DUP4 DUP6 DUP5 PUSH1 0x3 ADD DUP1 SLOAD PUSH2 0xC23 SWAP1 PUSH2 0x2C97 JUMP JUMPDEST DUP1 PUSH1 0x1F ADD PUSH1 0x20 DUP1 SWAP2 DIV MUL PUSH1 0x20 ADD PUSH1 0x40 MLOAD SWAP1 DUP2 ADD PUSH1 0x40 MSTORE DUP1 SWAP3 SWAP2 SWAP1 DUP2 DUP2 MSTORE PUSH1 0x20 ADD DUP3 DUP1 SLOAD PUSH2 0xC4F SWAP1 PUSH2 0x2C97 JUMP JUMPDEST DUP1 ISZERO PUSH2 0xC9A JUMPI DUP1 PUSH1 0x1F LT PUSH2 0xC71 JUMPI PUSH2 0x100 DUP1 DUP4 SLOAD DIV MUL DUP4 MSTORE SWAP2 PUSH1 0x20 ADD SWAP2 PUSH2 0xC9A JUMP JUMPDEST DUP3 ADD SWAP2 SWAP1 PUSH0 MSTORE PUSH1 0x20 PUSH0 KECCAK256 SWAP1 JUMPDEST DUP2 SLOAD DUP2 MSTORE SWAP1 PUSH1 0x1 ADD SWAP1 PUSH1 0x20 ADD DUP1 DUP4 GT PUSH2 0xC7D JUMPI DUP3 SWAP1 SUB PUSH1 0x1F AND DUP3 ADD SWAP2 JUMPDEST POP POP POP POP POP PUSH0 PUSH2 0x1D56 JUMP JUMPDEST DUP5 PUSH20 0xFFFFFFFFFFFFFFFFFFFFFFFFFFFFFFFFFFFFFFFF AND PUSH32 0xB99CE8321B94FFAA5C5021540EC0668DCBA948D044760A5EF298FA0513B1EF4 DUP5 DUP4 PUSH1 0x3 ADD DUP6 TIMESTAMP PUSH1 0x40 MLOAD PUSH2 0xCF4 SWAP5 SWAP4 SWAP3 SWAP2 SWAP1 PUSH2 0x3164 JUMP JUMPDEST PUSH1 0x40 MLOAD DUP1 SWAP2 SUB SWAP1 LOG2 POP PUSH2 0xD05 PUSH2 0x1EA3 JUMP JUMPDEST POP POP POP POP JUMP JUMPDEST PUSH1 0x60 PUSH1 0x2 PUSH0 CALLER PUSH20 0xFFFFFFFFFFFFFFFFFFFFFFFFFFFFFFFFFFFFFFFF AND PUSH20 0xFFFFFFFFFFFFFFFFFFFFFFFFFFFFFFFFFFFFFFFF AND DUP2 MSTORE PUSH1 0x20 ADD SWAP1 DUP2 MSTORE PUSH1 0x20 ADD PUSH0 KECCAK256 PUSH0 DUP4 PUSH1 0xFF AND PUSH1 0xFF AND DUP2 MSTORE PUSH1 0x20 ADD SWAP1 DUP2 MSTORE PUSH1 0x20 ADD PUSH0 KECCAK256 DUP1 SLOAD DUP1 PUSH1 0x20 MUL PUSH1 0x20 ADD PUSH1 0x40 MLOAD SWAP1 DUP2 ADD PUSH1 0x40 MSTORE DUP1 SWAP3 SWAP2 SWAP1 DUP2 DUP2 MSTORE PUSH1 0x20 ADD PUSH0 SWAP1 JUMPDEST DUP3 DUP3 LT ISZERO PUSH2 0xEDB JUMPI DUP4 DUP3 SWAP1 PUSH0 MSTORE PUSH1 0x20 PUSH0 KECCAK256 SWAP1 PUSH1 0x5 MUL ADD PUSH1 0x40 MLOAD DUP1 PUSH1 0xC0 ADD PUSH1 0x40 MSTORE SWAP1 DUP2 PUSH0 DUP3 ADD PUSH0 SWAP1 SLOAD SWAP1 PUSH2 0x100 EXP SWAP1 DIV PUSH20 0xFFFFFFFFFFFFFFFFFFFFFFFFFFFFFFFFFFFFFFFF AND PUSH20 0xFFFFFFFFFFFFFFFFFFFFFFFFFFFFFFFFFFFFFFFF AND PUSH20 0xFFFFFFFFFFFFFFFFFFFFFFFFFFFFFFFFFFFFFFFF AND DUP2 MSTORE PUSH1 0x20 ADD PUSH1 0x1 DUP3 ADD SLOAD DUP2 MSTORE PUSH1 0x20 ADD PUSH1 0x2 DUP3 ADD SLOAD DUP2 MSTORE PUSH1 0x20 ADD PUSH1 0x3 DUP3 ADD DUP1 SLOAD PUSH2 0xE17 SWAP1 PUSH2 0x2C97 JUMP JUMPDEST DUP1 PUSH1 0x1F ADD PUSH1 0x20 DUP1 SWAP2 DIV MUL PUSH1 0x20 ADD PUSH1 0x40 MLOAD SWAP1 DUP2 ADD PUSH1 0x40 MSTORE DUP1 SWAP3 SWAP2 SWAP1 DUP2 DUP2 MSTORE PUSH1 0x20 ADD DUP3 DUP1 SLOAD PUSH2 0xE43 SWAP1 PUSH2 0x2C97 JUMP JUMPDEST DUP1 ISZERO PUSH2 0xE8E JUMPI DUP1 PUSH1 0x1F LT PUSH2 0xE65 JUMPI PUSH2 0x100 DUP1 DUP4 SLOAD DIV MUL DUP4 MSTORE SWAP2 PUSH1 0x20 ADD SWAP2 PUSH2 0xE8E JUMP JUMPDEST DUP3 ADD SWAP2 SWAP1 PUSH0 MSTORE PUSH1 0x20 PUSH0 KECCAK256 SWAP1 JUMPDEST DUP2 SLOAD DUP2 MSTORE SWAP1 PUSH1 0x1 ADD SWAP1 PUSH1 0x20 ADD DUP1 DUP4 GT PUSH2 0xE71 JUMPI DUP3 SWAP1 SUB PUSH1 0x1F AND DUP3 ADD SWAP2 JUMPDEST POP POP POP POP POP DUP2 MSTORE PUSH1 0x20 ADD PUSH1 0x4 DUP3 ADD PUSH0 SWAP1 SLOAD SWAP1 PUSH2 0x100 EXP SWAP1 DIV PUSH1 0xFF AND ISZERO ISZERO ISZERO ISZERO DUP2 MSTORE PUSH1 0x20 ADD PUSH1 0x4 DUP3 ADD PUSH1 0x1 SWAP1 SLOAD SWAP1 PUSH2 0x100 EXP SWAP1 DIV PUSH1 0xFF AND ISZERO ISZERO ISZERO ISZERO DUP2 MSTORE POP POP DUP2 MSTORE PUSH1 0x20 ADD SWAP1 PUSH1 0x1 ADD SWAP1 PUSH2 0xD7E JUMP JUMPDEST POP POP POP POP SWAP1 POP SWAP2 SWAP1 POP JUMP JUMPDEST PUSH1 0x3 PUSH1 0x20 MSTORE DUP3 PUSH0 MSTORE PUSH1 0x40 PUSH0 KECCAK256 PUSH1 0x20 MSTORE DUP2 PUSH0 MSTORE PUSH1 0x40 PUSH0 KECCAK256 DUP2 DUP2 SLOAD DUP2 LT PUSH2 0xF09 JUMPI PUSH0 DUP1 REVERT JUMPDEST SWAP1 PUSH0 MSTORE PUSH1 0x20 PUSH0 KECCAK256 SWAP1 PUSH1 0x5 MUL ADD PUSH0 SWAP3 POP SWAP3 POP POP POP DUP1 PUSH0 ADD PUSH0 SWAP1 SLOAD SWAP1 PUSH2 0x100 EXP SWAP1 DIV PUSH20 0xFFFFFFFFFFFFFFFFFFFFFFFFFFFFFFFFFFFFFFFF AND SWAP1 DUP1 PUSH1 0x1 ADD SLOAD SWAP1 DUP1 PUSH1 0x2 ADD DUP1 SLOAD PUSH2 0xF55 SWAP1 PUSH2 0x2C97 JUMP JUMPDEST DUP1 PUSH1 0x1F ADD PUSH1 0x20 DUP1 SWAP2 DIV MUL PUSH1 0x20 ADD PUSH1 0x40 MLOAD SWAP1 DUP2 ADD PUSH1 0x40 MSTORE DUP1 SWAP3 SWAP2 SWAP1 DUP2 DUP2 MSTORE PUSH1 0x20 ADD DUP3 DUP1 SLOAD PUSH2 0xF81 SWAP1 PUSH2 0x2C97 JUMP JUMPDEST DUP1 ISZERO PUSH2 0xFCC JUMPI DUP1 PUSH1 0x1F LT PUSH2 0xFA3 JUMPI PUSH2 0x100 DUP1 DUP4 SLOAD DIV MUL DUP4 MSTORE SWAP2 PUSH1 0x20 ADD SWAP2 PUSH2 0xFCC JUMP JUMPDEST DUP3 ADD SWAP2 SWAP1 PUSH0 MSTORE PUSH1 0x20 PUSH0 KECCAK256 SWAP1 JUMPDEST DUP2 SLOAD DUP2 MSTORE SWAP1 PUSH1 0x1 ADD SWAP1 PUSH1 0x20 ADD DUP1 DUP4 GT PUSH2 0xFAF JUMPI DUP3 SWAP1 SUB PUSH1 0x1F AND DUP3 ADD SWAP2 JUMPDEST POP POP POP POP POP SWAP1 DUP1 PUSH1 0x3 ADD PUSH0 SWAP1 SLOAD SWAP1 PUSH2 0x100 EXP SWAP1 DIV PUSH1 0xFF AND SWAP1 DUP1 PUSH1 0x4 ADD SLOAD SWAP1 POP DUP6 JUMP JUMPDEST PUSH2 0xFF6 PUSH2 0x1EAC JUMP JUMPDEST PUSH2 0xFFF PUSH0 PUSH2 0x1F33 JUMP JUMPDEST JUMP JUMPDEST PUSH0 SELFBALANCE SWAP1 POP SWAP1 JUMP JUMPDEST PUSH0 DUP1 PUSH0 SWAP1 SLOAD SWAP1 PUSH2 0x100 EXP SWAP1 DIV PUSH20 0xFFFFFFFFFFFFFFFFFFFFFFFFFFFFFFFFFFFFFFFF AND SWAP1 POP SWAP1 JUMP JUMPDEST PUSH0 PUSH1 0x2 PUSH0 CALLER PUSH20 0xFFFFFFFFFFFFFFFFFFFFFFFFFFFFFFFFFFFFFFFF AND PUSH20 0xFFFFFFFFFFFFFFFFFFFFFFFFFFFFFFFFFFFFFFFF AND DUP2 MSTORE PUSH1 0x20 ADD SWAP1 DUP2 MSTORE PUSH1 0x20 ADD PUSH0 KECCAK256 PUSH0 DUP5 PUSH1 0xFF AND PUSH1 0xFF AND DUP2 MSTORE PUSH1 0x20 ADD SWAP1 DUP2 MSTORE PUSH1 0x20 ADD PUSH0 KECCAK256 DUP5 PUSH4 0xFFFFFFFF AND DUP2 SLOAD DUP2 LT PUSH2 0x109A JUMPI PUSH2 0x1099 PUSH2 0x30B6 JUMP JUMPDEST JUMPDEST SWAP1 PUSH0 MSTORE PUSH1 0x20 PUSH0 KECCAK256 SWAP1 PUSH1 0x5 MUL ADD SWAP1 POP PUSH1 0x2 PUSH0 CALLER PUSH20 0xFFFFFFFFFFFFFFFFFFFFFFFFFFFFFFFFFFFFFFFF AND PUSH20 0xFFFFFFFFFFFFFFFFFFFFFFFFFFFFFFFFFFFFFFFF AND DUP2 MSTORE PUSH1 0x20 ADD SWAP1 DUP2 MSTORE PUSH1 0x20 ADD PUSH0 KECCAK256 PUSH0 DUP5 PUSH1 0xFF AND PUSH1 0xFF AND DUP2 MSTORE PUSH1 0x20 ADD SWAP1 DUP2 MSTORE PUSH1 0x20 ADD PUSH0 KECCAK256 DUP1 SLOAD SWAP1 POP DUP5 PUSH4 0xFFFFFFFF AND LT PUSH2 0x1145 JUMPI PUSH1 0x40 MLOAD PUSH32 0x8C379A000000000000000000000000000000000000000000000000000000000 DUP2 MSTORE PUSH1 0x4 ADD PUSH2 0x113C SWAP1 PUSH2 0x321E JUMP JUMPDEST PUSH1 0x40 MLOAD DUP1 SWAP2 SUB SWAP1 REVERT JUMPDEST DUP1 PUSH1 0x2 ADD SLOAD TIMESTAMP GT PUSH2 0x118B JUMPI PUSH1 0x40 MLOAD PUSH32 0x8C379A000000000000000000000000000000000000000000000000000000000 DUP2 MSTORE PUSH1 0x4 ADD PUSH2 0x1182 SWAP1 PUSH2 0x32AC JUMP JUMPDEST PUSH1 0x40 MLOAD DUP1 SWAP2 SUB SWAP1 REVERT JUMPDEST DUP2 TIMESTAMP PUSH2 0x1197 SWAP2 SWAP1 PUSH2 0x2C37 JUMP JUMPDEST PUSH1 0x2 PUSH0 CALLER PUSH20 0xFFFFFFFFFFFFFFFFFFFFFFFFFFFFFFFFFFFFFFFF AND PUSH20 0xFFFFFFFFFFFFFFFFFFFFFFFFFFFFFFFFFFFFFFFF AND DUP2 MSTORE PUSH1 0x20 ADD SWAP1 DUP2 MSTORE PUSH1 0x20 ADD PUSH0 KECCAK256 PUSH0 DUP6 PUSH1 0xFF AND PUSH1 0xFF AND DUP2 MSTORE PUSH1 0x20 ADD SWAP1 DUP2 MSTORE PUSH1 0x20 ADD PUSH0 KECCAK256 DUP6 PUSH4 0xFFFFFFFF AND DUP2 SLOAD DUP2 LT PUSH2 0x1201 JUMPI PUSH2 0x1200 PUSH2 0x30B6 JUMP JUMPDEST JUMPDEST SWAP1 PUSH0 MSTORE PUSH1 0x20 PUSH0 KECCAK256 SWAP1 PUSH1 0x5 MUL ADD PUSH1 0x2 ADD DUP2 SWAP1 SSTORE POP DUP1 PUSH0 ADD PUSH0 SWAP1 SLOAD SWAP1 PUSH2 0x100 EXP SWAP1 DIV PUSH20 0xFFFFFFFFFFFFFFFFFFFFFFFFFFFFFFFFFFFFFFFF AND PUSH20 0xFFFFFFFFFFFFFFFFFFFFFFFFFFFFFFFFFFFFFFFF AND PUSH32 0x748CB9768EE3F2567793F42A22F5B0C83DF9E14D32EC82C9CB839CB1B357BE13 DUP5 DUP5 DUP5 PUSH1 0x3 ADD TIMESTAMP PUSH1 0x40 MLOAD PUSH2 0x1285 SWAP5 SWAP4 SWAP3 SWAP2 SWAP1 PUSH2 0x32CA JUMP JUMPDEST PUSH1 0x40 MLOAD DUP1 SWAP2 SUB SWAP1 LOG2 POP POP POP POP JUMP JUMPDEST PUSH1 0x2 PUSH1 0x20 MSTORE DUP3 PUSH0 MSTORE PUSH1 0x40 PUSH0 KECCAK256 PUSH1 0x20 MSTORE DUP2 PUSH0 MSTORE PUSH1 0x40 PUSH0 KECCAK256 DUP2 DUP2 SLOAD DUP2 LT PUSH2 0x12B6 JUMPI PUSH0 DUP1 REVERT JUMPDEST SWAP1 PUSH0 MSTORE PUSH1 0x20 PUSH0 KECCAK256 SWAP1 PUSH1 0x5 MUL ADD PUSH0 SWAP3 POP SWAP3 POP POP POP DUP1 PUSH0 ADD PUSH0 SWAP1 SLOAD SWAP1 PUSH2 0x100 EXP SWAP1 DIV PUSH20 0xFFFFFFFFFFFFFFFFFFFFFFFFFFFFFFFFFFFFFFFF AND SWAP1 DUP1 PUSH1 0x1 ADD SLOAD SWAP1 DUP1 PUSH1 0x2 ADD SLOAD SWAP1 DUP1 PUSH1 0x3 ADD DUP1 SLOAD PUSH2 0x1308 SWAP1 PUSH2 0x2C97 JUMP JUMPDEST DUP1 PUSH1 0x1F ADD PUSH1 0x20 DUP1 SWAP2 DIV MUL PUSH1 0x20 ADD PUSH1 0x40 MLOAD SWAP1 DUP2 ADD PUSH1 0x40 MSTORE DUP1 SWAP3 SWAP2 SWAP1 DUP2 DUP2 MSTORE PUSH1 0x20 ADD DUP3 DUP1 SLOAD PUSH2 0x1334 SWAP1 PUSH2 0x2C97 JUMP JUMPDEST DUP1 ISZERO PUSH2 0x137F JUMPI DUP1 PUSH1 0x1F LT PUSH2 0x1356 JUMPI PUSH2 0x100 DUP1 DUP4 SLOAD DIV MUL DUP4 MSTORE SWAP2 PUSH1 0x20 ADD SWAP2 PUSH2 0x137F JUMP JUMPDEST DUP3 ADD SWAP2 SWAP1 PUSH0 MSTORE PUSH1 0x20 PUSH0 KECCAK256 SWAP1 JUMPDEST DUP2 SLOAD DUP2 MSTORE SWAP1 PUSH1 0x1 ADD SWAP1 PUSH1 0x20 ADD DUP1 DUP4 GT PUSH2 0x1362 JUMPI DUP3 SWAP1 SUB PUSH1 0x1F AND DUP3 ADD SWAP2 JUMPDEST POP POP POP POP POP SWAP1 DUP1 PUSH1 0x4 ADD PUSH0 SWAP1 SLOAD SWAP1 PUSH2 0x100 EXP SWAP1 DIV PUSH1 0xFF AND SWAP1 DUP1 PUSH1 0x4 ADD PUSH1 0x1 SWAP1 SLOAD SWAP1 PUSH2 0x100 EXP SWAP1 DIV PUSH1 0xFF AND SWAP1 POP DUP7 JUMP JUMPDEST PUSH2 0x13B6 PUSH2 0x1C8E JUMP JUMPDEST PUSH1 0x2 PUSH0 CALLER PUSH20 0xFFFFFFFFFFFFFFFFFFFFFFFFFFFFFFFFFFFFFFFF AND PUSH20 0xFFFFFFFFFFFFFFFFFFFFFFFFFFFFFFFFFFFFFFFF AND DUP2 MSTORE PUSH1 0x20 ADD SWAP1 DUP2 MSTORE PUSH1 0x20 ADD PUSH0 KECCAK256 PUSH0 DUP4 PUSH1 0xFF AND PUSH1 0xFF AND DUP2 MSTORE PUSH1 0x20 ADD SWAP1 DUP2 MSTORE PUSH1 0x20 ADD PUSH0 KECCAK256 DUP1 SLOAD SWAP1 POP DUP4 PUSH4 0xFFFFFFFF AND LT PUSH2 0x1453 JUMPI PUSH1 0x40 MLOAD PUSH32 0x8C379A000000000000000000000000000000000000000000000000000000000 DUP2 MSTORE PUSH1 0x4 ADD PUSH2 0x144A SWAP1 PUSH2 0x321E JUMP JUMPDEST PUSH1 0x40 MLOAD DUP1 SWAP2 SUB SWAP1 REVERT JUMPDEST PUSH0 PUSH1 0x2 PUSH0 CALLER PUSH20 0xFFFFFFFFFFFFFFFFFFFFFFFFFFFFFFFFFFFFFFFF AND PUSH20 0xFFFFFFFFFFFFFFFFFFFFFFFFFFFFFFFFFFFFFFFF AND DUP2 MSTORE PUSH1 0x20 ADD SWAP1 DUP2 MSTORE PUSH1 0x20 ADD PUSH0 KECCAK256 PUSH0 DUP5 PUSH1 0xFF AND PUSH1 0xFF AND DUP2 MSTORE PUSH1 0x20 ADD SWAP1 DUP2 MSTORE PUSH1 0x20 ADD PUSH0 KECCAK256 DUP5 PUSH4 0xFFFFFFFF AND DUP2 SLOAD DUP2 LT PUSH2 0x14BE JUMPI PUSH2 0x14BD PUSH2 0x30B6 JUMP JUMPDEST JUMPDEST SWAP1 PUSH0 MSTORE PUSH1 0x20 PUSH0 KECCAK256 SWAP1 PUSH1 0x5 MUL ADD SWAP1 POP DUP1 PUSH1 0x4 ADD PUSH0 SWAP1 SLOAD SWAP1 PUSH2 0x100 EXP SWAP1 DIV PUSH1 0xFF AND ISZERO PUSH2 0x151D JUMPI PUSH1 0x40 MLOAD PUSH32 0x8C379A000000000000000000000000000000000000000000000000000000000 DUP2 MSTORE PUSH1 0x4 ADD PUSH2 0x1514 SWAP1 PUSH2 0x3384 JUMP JUMPDEST PUSH1 0x40 MLOAD DUP1 SWAP2 SUB SWAP1 REVERT JUMPDEST DUP1 PUSH1 0x2 ADD SLOAD TIMESTAMP GT PUSH2 0x1563 JUMPI PUSH1 0x40 MLOAD PUSH32 0x8C379A000000000000000000000000000000000000000000000000000000000 DUP2 MSTORE PUSH1 0x4 ADD PUSH2 0x155A SWAP1 PUSH2 0x32AC JUMP JUMPDEST PUSH1 0x40 MLOAD DUP1 SWAP2 SUB SWAP1 REVERT JUMPDEST PUSH0 DUP3 DUP3 PUSH1 0x1 ADD SLOAD PUSH2 0x1574 SWAP2 SWAP1 PUSH2 0x33A2 JUMP JUMPDEST SWAP1 POP PUSH0 DUP2 LT ISZERO PUSH2 0x15B9 JUMPI PUSH1 0x40 MLOAD PUSH32 0x8C379A000000000000000000000000000000000000000000000000000000000 DUP2 MSTORE PUSH1 0x4 ADD PUSH2 0x15B0 SWAP1 PUSH2 0x341F JUMP JUMPDEST PUSH1 0x40 MLOAD DUP1 SWAP2 SUB SWAP1 REVERT JUMPDEST PUSH0 DUP2 SUB PUSH2 0x1652 JUMPI PUSH1 0x1 PUSH1 0x2 PUSH0 CALLER PUSH20 0xFFFFFFFFFFFFFFFFFFFFFFFFFFFFFFFFFFFFFFFF AND PUSH20 0xFFFFFFFFFFFFFFFFFFFFFFFFFFFFFFFFFFFFFFFF AND DUP2 MSTORE PUSH1 0x20 ADD SWAP1 DUP2 MSTORE PUSH1 0x20 ADD PUSH0 KECCAK256 PUSH0 DUP7 PUSH1 0xFF AND PUSH1 0xFF AND DUP2 MSTORE PUSH1 0x20 ADD SWAP1 DUP2 MSTORE PUSH1 0x20 ADD PUSH0 KECCAK256 DUP7 PUSH4 0xFFFFFFFF AND DUP2 SLOAD DUP2 LT PUSH2 0x162C JUMPI PUSH2 0x162B PUSH2 0x30B6 JUMP JUMPDEST JUMPDEST SWAP1 PUSH0 MSTORE PUSH1 0x20 PUSH0 KECCAK256 SWAP1 PUSH1 0x5 MUL ADD PUSH1 0x4 ADD PUSH0 PUSH2 0x100 EXP DUP2 SLOAD DUP2 PUSH1 0xFF MUL NOT AND SWAP1 DUP4 ISZERO ISZERO MUL OR SWAP1 SSTORE POP JUMPDEST DUP1 PUSH1 0x2 PUSH0 CALLER PUSH20 0xFFFFFFFFFFFFFFFFFFFFFFFFFFFFFFFFFFFFFFFF AND PUSH20 0xFFFFFFFFFFFFFFFFFFFFFFFFFFFFFFFFFFFFFFFF AND DUP2 MSTORE PUSH1 0x20 ADD SWAP1 DUP2 MSTORE PUSH1 0x20 ADD PUSH0 KECCAK256 PUSH0 DUP7 PUSH1 0xFF AND PUSH1 0xFF AND DUP2 MSTORE PUSH1 0x20 ADD SWAP1 DUP2 MSTORE PUSH1 0x20 ADD PUSH0 KECCAK256 DUP7 PUSH4 0xFFFFFFFF AND DUP2 SLOAD DUP2 LT PUSH2 0x16BD JUMPI PUSH2 0x16BC PUSH2 0x30B6 JUMP JUMPDEST JUMPDEST SWAP1 PUSH0 MSTORE PUSH1 0x20 PUSH0 KECCAK256 SWAP1 PUSH1 0x5 MUL ADD PUSH1 0x1 ADD DUP2 SWAP1 SSTORE POP DUP2 PUSH1 0x4 ADD PUSH1 0x1 SWAP1 SLOAD SWAP1 PUSH2 0x100 EXP SWAP1 DIV PUSH1 0xFF AND ISZERO PUSH2 0x182D JUMPI PUSH0 CALLER PUSH20 0xFFFFFFFFFFFFFFFFFFFFFFFFFFFFFFFFFFFFFFFF AND DUP5 PUSH1 0x40 MLOAD PUSH2 0x170C SWAP1 PUSH2 0x346A JUMP JUMPDEST PUSH0 PUSH1 0x40 MLOAD DUP1 DUP4 SUB DUP2 DUP6 DUP8 GAS CALL SWAP3 POP POP POP RETURNDATASIZE DUP1 PUSH0 DUP2 EQ PUSH2 0x1746 JUMPI PUSH1 0x40 MLOAD SWAP2 POP PUSH1 0x1F NOT PUSH1 0x3F RETURNDATASIZE ADD AND DUP3 ADD PUSH1 0x40 MSTORE RETURNDATASIZE DUP3 MSTORE RETURNDATASIZE PUSH0 PUSH1 0x20 DUP5 ADD RETURNDATACOPY PUSH2 0x174B JUMP JUMPDEST PUSH1 0x60 SWAP2 POP JUMPDEST POP POP SWAP1 POP DUP1 PUSH2 0x178F JUMPI PUSH1 0x40 MLOAD PUSH32 0x8C379A000000000000000000000000000000000000000000000000000000000 DUP2 MSTORE PUSH1 0x4 ADD PUSH2 0x1786 SWAP1 PUSH2 0x34C8 JUMP JUMPDEST PUSH1 0x40 MLOAD DUP1 SWAP2 SUB SWAP1 REVERT JUMPDEST PUSH2 0x1827 PUSH0 DUP7 DUP7 DUP7 PUSH1 0x3 ADD DUP1 SLOAD PUSH2 0x17A4 SWAP1 PUSH2 0x2C97 JUMP JUMPDEST DUP1 PUSH1 0x1F ADD PUSH1 0x20 DUP1 SWAP2 DIV MUL PUSH1 0x20 ADD PUSH1 0x40 MLOAD SWAP1 DUP2 ADD PUSH1 0x40 MSTORE DUP1 SWAP3 SWAP2 SWAP1 DUP2 DUP2 MSTORE PUSH1 0x20 ADD DUP3 DUP1 SLOAD PUSH2 0x17D0 SWAP1 PUSH2 0x2C97 JUMP JUMPDEST DUP1 ISZERO PUSH2 0x181B JUMPI DUP1 PUSH1 0x1F LT PUSH2 0x17F2 JUMPI PUSH2 0x100 DUP1 DUP4 SLOAD DIV MUL DUP4 MSTORE SWAP2 PUSH1 0x20 ADD SWAP2 PUSH2 0x181B JUMP JUMPDEST DUP3 ADD SWAP2 SWAP1 PUSH0 MSTORE PUSH1 0x20 PUSH0 KECCAK256 SWAP1 JUMPDEST DUP2 SLOAD DUP2 MSTORE SWAP1 PUSH1 0x1 ADD SWAP1 PUSH1 0x20 ADD DUP1 DUP4 GT PUSH2 0x17FE JUMPI DUP3 SWAP1 SUB PUSH1 0x1F AND DUP3 ADD SWAP2 JUMPDEST POP POP POP POP POP PUSH1 0x1 PUSH2 0x1D56 JUMP JUMPDEST POP PUSH2 0x1935 JUMP JUMPDEST PUSH2 0x187A CALLER DUP5 DUP5 PUSH0 ADD PUSH0 SWAP1 SLOAD SWAP1 PUSH2 0x100 EXP SWAP1 DIV PUSH20 0xFFFFFFFFFFFFFFFFFFFFFFFFFFFFFFFFFFFFFFFF AND PUSH20 0xFFFFFFFFFFFFFFFFFFFFFFFFFFFFFFFFFFFFFFFF AND PUSH2 0x1FF4 SWAP1 SWAP3 SWAP2 SWAP1 PUSH4 0xFFFFFFFF AND JUMP JUMPDEST PUSH2 0x1934 DUP3 PUSH0 ADD PUSH0 SWAP1 SLOAD SWAP1 PUSH2 0x100 EXP SWAP1 DIV PUSH20 0xFFFFFFFFFFFFFFFFFFFFFFFFFFFFFFFFFFFFFFFF AND DUP6 DUP6 DUP6 PUSH1 0x3 ADD DUP1 SLOAD PUSH2 0x18B1 SWAP1 PUSH2 0x2C97 JUMP JUMPDEST DUP1 PUSH1 0x1F ADD PUSH1 0x20 DUP1 SWAP2 DIV MUL PUSH1 0x20 ADD PUSH1 0x40 MLOAD SWAP1 DUP2 ADD PUSH1 0x40 MSTORE DUP1 SWAP3 SWAP2 SWAP1 DUP2 DUP2 MSTORE PUSH1 0x20 ADD DUP3 DUP1 SLOAD PUSH2 0x18DD SWAP1 PUSH2 0x2C97 JUMP JUMPDEST DUP1 ISZERO PUSH2 0x1928 JUMPI DUP1 PUSH1 0x1F LT PUSH2 0x18FF JUMPI PUSH2 0x100 DUP1 DUP4 SLOAD DIV MUL DUP4 MSTORE SWAP2 PUSH1 0x20 ADD SWAP2 PUSH2 0x1928 JUMP JUMPDEST DUP3 ADD SWAP2 SWAP1 PUSH0 MSTORE PUSH1 0x20 PUSH0 KECCAK256 SWAP1 JUMPDEST DUP2 SLOAD DUP2 MSTORE SWAP1 PUSH1 0x1 ADD SWAP1 PUSH1 0x20 ADD DUP1 DUP4 GT PUSH2 0x190B JUMPI DUP3 SWAP1 SUB PUSH1 0x1F AND DUP3 ADD SWAP2 JUMPDEST POP POP POP POP POP PUSH1 0x1 PUSH2 0x1D56 JUMP JUMPDEST JUMPDEST DUP2 PUSH0 ADD PUSH0 SWAP1 SLOAD SWAP1 PUSH2 0x100 EXP SWAP1 DIV PUSH20 0xFFFFFFFFFFFFFFFFFFFFFFFFFFFFFFFFFFFFFFFF AND PUSH20 0xFFFFFFFFFFFFFFFFFFFFFFFFFFFFFFFFFFFFFFFF AND PUSH32 0x16C4C024C274B52575FFC17396BBC4A59DB7DD13AAC28373E025A9F6269F9E03 DUP5 DUP5 PUSH1 0x3 ADD DUP8 TIMESTAMP PUSH1 0x40 MLOAD PUSH2 0x19A6 SWAP5 SWAP4 SWAP3 SWAP2 SWAP1 PUSH2 0x3164 JUMP JUMPDEST PUSH1 0x40 MLOAD DUP1 SWAP2 SUB SWAP1 LOG2 POP POP PUSH2 0x19B8 PUSH2 0x1EA3 JUMP JUMPDEST POP POP POP JUMP JUMPDEST PUSH2 0x19C5 PUSH2 0x1C8E JUMP JUMPDEST PUSH0 CALLVALUE GT PUSH2 0x1A07 JUMPI PUSH1 0x40 MLOAD PUSH32 0x8C379A000000000000000000000000000000000000000000000000000000000 DUP2 MSTORE PUSH1 0x4 ADD PUSH2 0x19FE SWAP1 PUSH2 0x3556 JUMP JUMPDEST PUSH1 0x40 MLOAD DUP1 SWAP2 SUB SWAP1 REVERT JUMPDEST PUSH0 PUSH1 0x2 PUSH0 CALLER PUSH20 0xFFFFFFFFFFFFFFFFFFFFFFFFFFFFFFFFFFFFFFFF AND PUSH20 0xFFFFFFFFFFFFFFFFFFFFFFFFFFFFFFFFFFFFFFFF AND DUP2 MSTORE PUSH1 0x20 ADD SWAP1 DUP2 MSTORE PUSH1 0x20 ADD PUSH0 KECCAK256 PUSH0 DUP5 PUSH1 0xFF AND PUSH1 0xFF AND DUP2 MSTORE PUSH1 0x20 ADD SWAP1 DUP2 MSTORE PUSH1 0x20 ADD PUSH0 KECCAK256 DUP3 PUSH4 0xFFFFFFFF AND DUP2 SLOAD DUP2 LT PUSH2 0x1A72 JUMPI PUSH2 0x1A71 PUSH2 0x30B6 JUMP JUMPDEST JUMPDEST SWAP1 PUSH0 MSTORE PUSH1 0x20 PUSH0 KECCAK256 SWAP1 PUSH1 0x5 MUL ADD SWAP1 POP CALLVALUE PUSH1 0x2 PUSH0 CALLER PUSH20 0xFFFFFFFFFFFFFFFFFFFFFFFFFFFFFFFFFFFFFFFF AND PUSH20 0xFFFFFFFFFFFFFFFFFFFFFFFFFFFFFFFFFFFFFFFF AND DUP2 MSTORE PUSH1 0x20 ADD SWAP1 DUP2 MSTORE PUSH1 0x20 ADD PUSH0 KECCAK256 PUSH0 DUP6 PUSH1 0xFF AND PUSH1 0xFF AND DUP2 MSTORE PUSH1 0x20 ADD SWAP1 DUP2 MSTORE PUSH1 0x20 ADD PUSH0 KECCAK256 DUP4 PUSH4 0xFFFFFFFF AND DUP2 SLOAD DUP2 LT PUSH2 0x1AEB JUMPI PUSH2 0x1AEA PUSH2 0x30B6 JUMP JUMPDEST JUMPDEST SWAP1 PUSH0 MSTORE PUSH1 0x20 PUSH0 KECCAK256 SWAP1 PUSH1 0x5 MUL ADD PUSH1 0x1 ADD PUSH0 DUP3 DUP3 SLOAD PUSH2 0x1B08 SWAP2 SWAP1 PUSH2 0x2C37 JUMP JUMPDEST SWAP3 POP POP DUP2 SWAP1 SSTORE POP PUSH2 0x1BA6 PUSH0 DUP5 CALLVALUE DUP5 PUSH1 0x3 ADD DUP1 SLOAD PUSH2 0x1B24 SWAP1 PUSH2 0x2C97 JUMP JUMPDEST DUP1 PUSH1 0x1F ADD PUSH1 0x20 DUP1 SWAP2 DIV MUL PUSH1 0x20 ADD PUSH1 0x40 MLOAD SWAP1 DUP2 ADD PUSH1 0x40 MSTORE DUP1 SWAP3 SWAP2 SWAP1 DUP2 DUP2 MSTORE PUSH1 0x20 ADD DUP3 DUP1 SLOAD PUSH2 0x1B50 SWAP1 PUSH2 0x2C97 JUMP JUMPDEST DUP1 ISZERO PUSH2 0x1B9B JUMPI DUP1 PUSH1 0x1F LT PUSH2 0x1B72 JUMPI PUSH2 0x100 DUP1 DUP4 SLOAD DIV MUL DUP4 MSTORE SWAP2 PUSH1 0x20 ADD SWAP2 PUSH2 0x1B9B JUMP JUMPDEST DUP3 ADD SWAP2 SWAP1 PUSH0 MSTORE PUSH1 0x20 PUSH0 KECCAK256 SWAP1 JUMPDEST DUP2 SLOAD DUP2 MSTORE SWAP1 PUSH1 0x1 ADD SWAP1 PUSH1 0x20 ADD DUP1 DUP4 GT PUSH2 0x1B7E JUMPI DUP3 SWAP1 SUB PUSH1 0x1F AND DUP3 ADD SWAP2 JUMPDEST POP POP POP POP POP PUSH0 PUSH2 0x1D56 JUMP JUMPDEST PUSH0 PUSH20 0xFFFFFFFFFFFFFFFFFFFFFFFFFFFFFFFFFFFFFFFF AND PUSH32 0xB99CE8321B94FFAA5C5021540EC0668DCBA948D044760A5EF298FA0513B1EF4 CALLVALUE DUP4 PUSH1 0x3 ADD DUP7 TIMESTAMP PUSH1 0x40 MLOAD PUSH2 0x1BF5 SWAP5 SWAP4 SWAP3 SWAP2 SWAP1 PUSH2 0x3164 JUMP JUMPDEST PUSH1 0x40 MLOAD DUP1 SWAP2 SUB SWAP1 LOG2 POP PUSH2 0x1C06 PUSH2 0x1EA3 JUMP JUMPDEST POP POP JUMP JUMPDEST PUSH2 0x1C12 PUSH2 0x1EAC JUMP JUMPDEST PUSH0 PUSH20 0xFFFFFFFFFFFFFFFFFFFFFFFFFFFFFFFFFFFFFFFF AND DUP2 PUSH20 0xFFFFFFFFFFFFFFFFFFFFFFFFFFFFFFFFFFFFFFFF AND SUB PUSH2 0x1C82 JUMPI PUSH0 PUSH1 0x40 MLOAD PUSH32 0x1E4FBDF700000000000000000000000000000000000000000000000000000000 DUP2 MSTORE PUSH1 0x4 ADD PUSH2 0x1C79 SWAP2 SWAP1 PUSH2 0x2881 JUMP JUMPDEST PUSH1 0x40 MLOAD DUP1 SWAP2 SUB SWAP1 REVERT JUMPDEST PUSH2 0x1C8B DUP2 PUSH2 0x1F33 JUMP JUMPDEST POP JUMP JUMPDEST PUSH1 0x2 PUSH1 0x1 SLOAD SUB PUSH2 0x1CCA JUMPI PUSH1 0x40 MLOAD PUSH32 0x3EE5AEB500000000000000000000000000000000000000000000000000000000 DUP2 MSTORE PUSH1 0x4 ADD PUSH1 0x40 MLOAD DUP1 SWAP2 SUB SWAP1 REVERT JUMPDEST PUSH1 0x2 PUSH1 0x1 DUP2 SWAP1 SSTORE POP JUMP JUMPDEST PUSH2 0x1D50 DUP5 DUP6 PUSH20 0xFFFFFFFFFFFFFFFFFFFFFFFFFFFFFFFFFFFFFFFF AND PUSH4 0x23B872DD DUP7 DUP7 DUP7 PUSH1 0x40 MLOAD PUSH1 0x24 ADD PUSH2 0x1D09 SWAP4 SWAP3 SWAP2 SWAP1 PUSH2 0x3574 JUMP JUMPDEST PUSH1 0x40 MLOAD PUSH1 0x20 DUP2 DUP4 SUB SUB DUP2 MSTORE SWAP1 PUSH1 0x40 MSTORE SWAP2 POP PUSH1 0xE0 SHL PUSH1 0x20 DUP3 ADD DUP1 MLOAD PUSH28 0xFFFFFFFFFFFFFFFFFFFFFFFFFFFFFFFFFFFFFFFFFFFFFFFFFFFFFFFF DUP4 DUP2 DUP4 AND OR DUP4 MSTORE POP POP POP POP PUSH2 0x2073 JUMP JUMPDEST POP POP POP POP JUMP JUMPDEST PUSH1 0x3 PUSH0 CALLER PUSH20 0xFFFFFFFFFFFFFFFFFFFFFFFFFFFFFFFFFFFFFFFF AND PUSH20 0xFFFFFFFFFFFFFFFFFFFFFFFFFFFFFFFFFFFFFFFF AND DUP2 MSTORE PUSH1 0x20 ADD SWAP1 DUP2 MSTORE PUSH1 0x20 ADD PUSH0 KECCAK256 PUSH0 DUP6 PUSH1 0xFF AND PUSH1 0xFF AND DUP2 MSTORE PUSH1 0x20 ADD SWAP1 DUP2 MSTORE PUSH1 0x20 ADD PUSH0 KECCAK256 PUSH1 0x40 MLOAD DUP1 PUSH1 0xA0 ADD PUSH1 0x40 MSTORE DUP1 DUP8 PUSH20 0xFFFFFFFFFFFFFFFFFFFFFFFFFFFFFFFFFFFFFFFF AND DUP2 MSTORE PUSH1 0x20 ADD DUP6 DUP2 MSTORE PUSH1 0x20 ADD DUP5 DUP2 MSTORE PUSH1 0x20 ADD DUP4 ISZERO ISZERO DUP2 MSTORE PUSH1 0x20 ADD TIMESTAMP DUP2 MSTORE POP SWAP1 DUP1 PUSH1 0x1 DUP2 SLOAD ADD DUP1 DUP3 SSTORE DUP1 SWAP2 POP POP PUSH1 0x1 SWAP1 SUB SWAP1 PUSH0 MSTORE PUSH1 0x20 PUSH0 KECCAK256 SWAP1 PUSH1 0x5 MUL ADD PUSH0 SWAP1 SWAP2 SWAP1 SWAP2 SWAP1 SWAP2 POP PUSH0 DUP3 ADD MLOAD DUP2 PUSH0 ADD PUSH0 PUSH2 0x100 EXP DUP2 SLOAD DUP2 PUSH20 0xFFFFFFFFFFFFFFFFFFFFFFFFFFFFFFFFFFFFFFFF MUL NOT AND SWAP1 DUP4 PUSH20 0xFFFFFFFFFFFFFFFFFFFFFFFFFFFFFFFFFFFFFFFF AND MUL OR SWAP1 SSTORE POP PUSH1 0x20 DUP3 ADD MLOAD DUP2 PUSH1 0x1 ADD SSTORE PUSH1 0x40 DUP3 ADD MLOAD DUP2 PUSH1 0x2 ADD SWAP1 DUP2 PUSH2 0x1E70 SWAP2 SWAP1 PUSH2 0x2E64 JUMP JUMPDEST POP PUSH1 0x60 DUP3 ADD MLOAD DUP2 PUSH1 0x3 ADD PUSH0 PUSH2 0x100 EXP DUP2 SLOAD DUP2 PUSH1 0xFF MUL NOT AND SWAP1 DUP4 ISZERO ISZERO MUL OR SWAP1 SSTORE POP PUSH1 0x80 DUP3 ADD MLOAD DUP2 PUSH1 0x4 ADD SSTORE POP POP POP POP POP POP POP JUMP JUMPDEST PUSH1 0x1 DUP1 DUP2 SWAP1 SSTORE POP JUMP JUMPDEST PUSH2 0x1EB4 PUSH2 0x210E JUMP JUMPDEST PUSH20 0xFFFFFFFFFFFFFFFFFFFFFFFFFFFFFFFFFFFFFFFF AND PUSH2 0x1ED2 PUSH2 0x1008 JUMP JUMPDEST PUSH20 0xFFFFFFFFFFFFFFFFFFFFFFFFFFFFFFFFFFFFFFFF AND EQ PUSH2 0x1F31 JUMPI PUSH2 0x1EF5 PUSH2 0x210E JUMP JUMPDEST PUSH1 0x40 MLOAD PUSH32 0x118CDAA700000000000000000000000000000000000000000000000000000000 DUP2 MSTORE PUSH1 0x4 ADD PUSH2 0x1F28 SWAP2 SWAP1 PUSH2 0x2881 JUMP JUMPDEST PUSH1 0x40 MLOAD DUP1 SWAP2 SUB SWAP1 REVERT JUMPDEST JUMP JUMPDEST PUSH0 DUP1 PUSH0 SWAP1 SLOAD SWAP1 PUSH2 0x100 EXP SWAP1 DIV PUSH20 0xFFFFFFFFFFFFFFFFFFFFFFFFFFFFFFFFFFFFFFFF AND SWAP1 POP DUP2 PUSH0 DUP1 PUSH2 0x100 EXP DUP2 SLOAD DUP2 PUSH20 0xFFFFFFFFFFFFFFFFFFFFFFFFFFFFFFFFFFFFFFFF MUL NOT AND SWAP1 DUP4 PUSH20 0xFFFFFFFFFFFFFFFFFFFFFFFFFFFFFFFFFFFFFFFF AND MUL OR SWAP1 SSTORE POP DUP2 PUSH20 0xFFFFFFFFFFFFFFFFFFFFFFFFFFFFFFFFFFFFFFFF AND DUP2 PUSH20 0xFFFFFFFFFFFFFFFFFFFFFFFFFFFFFFFFFFFFFFFF AND PUSH32 0x8BE0079C531659141344CD1FD0A4F28419497F9722A3DAAFE3B4186F6B6457E0 PUSH1 0x40 MLOAD PUSH1 0x40 MLOAD DUP1 SWAP2 SUB SWAP1 LOG3 POP POP JUMP JUMPDEST PUSH2 0x206E DUP4 DUP5 PUSH20 0xFFFFFFFFFFFFFFFFFFFFFFFFFFFFFFFFFFFFFFFF AND PUSH4 0xA9059CBB DUP6 DUP6 PUSH1 0x40 MLOAD PUSH1 0x24 ADD PUSH2 0x2027 SWAP3 SWAP2 SWAP1 PUSH2 0x35A9 JUMP JUMPDEST PUSH1 0x40 MLOAD PUSH1 0x20 DUP2 DUP4 SUB SUB DUP2 MSTORE SWAP1 PUSH1 0x40 MSTORE SWAP2 POP PUSH1 0xE0 SHL PUSH1 0x20 DUP3 ADD DUP1 MLOAD PUSH28 0xFFFFFFFFFFFFFFFFFFFFFFFFFFFFFFFFFFFFFFFFFFFFFFFFFFFFFFFF DUP4 DUP2 DUP4 AND OR DUP4 MSTORE POP POP POP POP PUSH2 0x2073 JUMP JUMPDEST POP POP POP JUMP JUMPDEST PUSH0 DUP1 PUSH1 0x20 PUSH0 DUP5 MLOAD PUSH1 0x20 DUP7 ADD PUSH0 DUP9 GAS CALL DUP1 PUSH2 0x2092 JUMPI PUSH1 0x40 MLOAD RETURNDATASIZE PUSH0 DUP3 RETURNDATACOPY RETURNDATASIZE DUP2 REVERT JUMPDEST RETURNDATASIZE SWAP3 POP PUSH0 MLOAD SWAP2 POP POP PUSH0 DUP3 EQ PUSH2 0x20AB JUMPI PUSH1 0x1 DUP2 EQ ISZERO PUSH2 0x20C6 JUMP JUMPDEST PUSH0 DUP5 PUSH20 0xFFFFFFFFFFFFFFFFFFFFFFFFFFFFFFFFFFFFFFFF AND EXTCODESIZE EQ JUMPDEST ISZERO PUSH2 0x2108 JUMPI DUP4 PUSH1 0x40 MLOAD PUSH32 0x5274AFE700000000000000000000000000000000000000000000000000000000 DUP2 MSTORE PUSH1 0x4 ADD PUSH2 0x20FF SWAP2 SWAP1 PUSH2 0x2881 JUMP JUMPDEST PUSH1 0x40 MLOAD DUP1 SWAP2 SUB SWAP1 REVERT JUMPDEST POP POP POP POP JUMP JUMPDEST PUSH0 CALLER SWAP1 POP SWAP1 JUMP JUMPDEST PUSH0 PUSH1 0x40 MLOAD SWAP1 POP SWAP1 JUMP JUMPDEST PUSH0 DUP1 REVERT JUMPDEST PUSH0 DUP1 REVERT JUMPDEST PUSH0 PUSH20 0xFFFFFFFFFFFFFFFFFFFFFFFFFFFFFFFFFFFFFFFF DUP3 AND SWAP1 POP SWAP2 SWAP1 POP JUMP JUMPDEST PUSH0 PUSH2 0x214F DUP3 PUSH2 0x2126 JUMP JUMPDEST SWAP1 POP SWAP2 SWAP1 POP JUMP JUMPDEST PUSH0 PUSH2 0x2160 DUP3 PUSH2 0x2145 JUMP JUMPDEST SWAP1 POP SWAP2 SWAP1 POP JUMP JUMPDEST PUSH2 0x2170 DUP2 PUSH2 0x2156 JUMP JUMPDEST DUP2 EQ PUSH2 0x217A JUMPI PUSH0 DUP1 REVERT JUMPDEST POP JUMP JUMPDEST PUSH0 DUP2 CALLDATALOAD SWAP1 POP PUSH2 0x218B DUP2 PUSH2 0x2167 JUMP JUMPDEST SWAP3 SWAP2 POP POP JUMP JUMPDEST PUSH0 DUP2 SWAP1 POP SWAP2 SWAP1 POP JUMP JUMPDEST PUSH2 0x21A3 DUP2 PUSH2 0x2191 JUMP JUMPDEST DUP2 EQ PUSH2 0x21AD JUMPI PUSH0 DUP1 REVERT JUMPDEST POP JUMP JUMPDEST PUSH0 DUP2 CALLDATALOAD SWAP1 POP PUSH2 0x21BE DUP2 PUSH2 0x219A JUMP JUMPDEST SWAP3 SWAP2 POP POP JUMP JUMPDEST PUSH0 PUSH1 0xFF DUP3 AND SWAP1 POP SWAP2 SWAP1 POP JUMP JUMPDEST PUSH2 0x21D9 DUP2 PUSH2 0x21C4 JUMP JUMPDEST DUP2 EQ PUSH2 0x21E3 JUMPI PUSH0 DUP1 REVERT JUMPDEST POP JUMP JUMPDEST PUSH0 DUP2 CALLDATALOAD SWAP1 POP PUSH2 0x21F4 DUP2 PUSH2 0x21D0 JUMP JUMPDEST SWAP3 SWAP2 POP POP JUMP JUMPDEST PUSH0 DUP1 REVERT JUMPDEST PUSH0 DUP1 REVERT JUMPDEST PUSH0 PUSH1 0x1F NOT PUSH1 0x1F DUP4 ADD AND SWAP1 POP SWAP2 SWAP1 POP JUMP JUMPDEST PUSH32 0x4E487B7100000000000000000000000000000000000000000000000000000000 PUSH0 MSTORE PUSH1 0x41 PUSH1 0x4 MSTORE PUSH1 0x24 PUSH0 REVERT JUMPDEST PUSH2 0x2248 DUP3 PUSH2 0x2202 JUMP JUMPDEST DUP2 ADD DUP2 DUP2 LT PUSH8 0xFFFFFFFFFFFFFFFF DUP3 GT OR ISZERO PUSH2 0x2267 JUMPI PUSH2 0x2266 PUSH2 0x2212 JUMP JUMPDEST JUMPDEST DUP1 PUSH1 0x40 MSTORE POP POP POP JUMP JUMPDEST PUSH0 PUSH2 0x2279 PUSH2 0x2115 JUMP JUMPDEST SWAP1 POP PUSH2 0x2285 DUP3 DUP3 PUSH2 0x223F JUMP JUMPDEST SWAP2 SWAP1 POP JUMP JUMPDEST PUSH0 PUSH8 0xFFFFFFFFFFFFFFFF DUP3 GT ISZERO PUSH2 0x22A4 JUMPI PUSH2 0x22A3 PUSH2 0x2212 JUMP JUMPDEST JUMPDEST PUSH2 0x22AD DUP3 PUSH2 0x2202 JUMP JUMPDEST SWAP1 POP PUSH1 0x20 DUP2 ADD SWAP1 POP SWAP2 SWAP1 POP JUMP JUMPDEST DUP3 DUP2 DUP4 CALLDATACOPY PUSH0 DUP4 DUP4 ADD MSTORE POP POP POP JUMP JUMPDEST PUSH0 PUSH2 0x22DA PUSH2 0x22D5 DUP5 PUSH2 0x228A JUMP JUMPDEST PUSH2 0x2270 JUMP JUMPDEST SWAP1 POP DUP3 DUP2 MSTORE PUSH1 0x20 DUP2 ADD DUP5 DUP5 DUP5 ADD GT ISZERO PUSH2 0x22F6 JUMPI PUSH2 0x22F5 PUSH2 0x21FE JUMP JUMPDEST JUMPDEST PUSH2 0x2301 DUP5 DUP3 DUP6 PUSH2 0x22BA JUMP JUMPDEST POP SWAP4 SWAP3 POP POP POP JUMP JUMPDEST PUSH0 DUP3 PUSH1 0x1F DUP4 ADD SLT PUSH2 0x231D JUMPI PUSH2 0x231C PUSH2 0x21FA JUMP JUMPDEST JUMPDEST DUP2 CALLDATALOAD PUSH2 0x232D DUP5 DUP3 PUSH1 0x20 DUP7 ADD PUSH2 0x22C8 JUMP JUMPDEST SWAP2 POP POP SWAP3 SWAP2 POP POP JUMP JUMPDEST PUSH0 DUP1 PUSH0 DUP1 PUSH0 PUSH1 0xA0 DUP7 DUP9 SUB SLT ISZERO PUSH2 0x234F JUMPI PUSH2 0x234E PUSH2 0x211E JUMP JUMPDEST JUMPDEST PUSH0 PUSH2 0x235C DUP9 DUP3 DUP10 ADD PUSH2 0x217D JUMP JUMPDEST SWAP6 POP POP PUSH1 0x20 PUSH2 0x236D DUP9 DUP3 DUP10 ADD PUSH2 0x21B0 JUMP JUMPDEST SWAP5 POP POP PUSH1 0x40 PUSH2 0x237E DUP9 DUP3 DUP10 ADD PUSH2 0x21E6 JUMP JUMPDEST SWAP4 POP POP PUSH1 0x60 PUSH2 0x238F DUP9 DUP3 DUP10 ADD PUSH2 0x21B0 JUMP JUMPDEST SWAP3 POP POP PUSH1 0x80 DUP7 ADD CALLDATALOAD PUSH8 0xFFFFFFFFFFFFFFFF DUP2 GT ISZERO PUSH2 0x23B0 JUMPI PUSH2 0x23AF PUSH2 0x2122 JUMP JUMPDEST JUMPDEST PUSH2 0x23BC DUP9 DUP3 DUP10 ADD PUSH2 0x2309 JUMP JUMPDEST SWAP2 POP POP SWAP3 SWAP6 POP SWAP3 SWAP6 SWAP1 SWAP4 POP JUMP JUMPDEST PUSH0 DUP1 PUSH0 PUSH1 0x60 DUP5 DUP7 SUB SLT ISZERO PUSH2 0x23E0 JUMPI PUSH2 0x23DF PUSH2 0x211E JUMP JUMPDEST JUMPDEST PUSH0 PUSH2 0x23ED DUP7 DUP3 DUP8 ADD PUSH2 0x21E6 JUMP JUMPDEST SWAP4 POP POP PUSH1 0x20 PUSH2 0x23FE DUP7 DUP3 DUP8 ADD PUSH2 0x21B0 JUMP JUMPDEST SWAP3 POP POP PUSH1 0x40 DUP5 ADD CALLDATALOAD PUSH8 0xFFFFFFFFFFFFFFFF DUP2 GT ISZERO PUSH2 0x241F JUMPI PUSH2 0x241E PUSH2 0x2122 JUMP JUMPDEST JUMPDEST PUSH2 0x242B DUP7 DUP3 DUP8 ADD PUSH2 0x2309 JUMP JUMPDEST SWAP2 POP POP SWAP3 POP SWAP3 POP SWAP3 JUMP JUMPDEST PUSH0 PUSH1 0x20 DUP3 DUP5 SUB SLT ISZERO PUSH2 0x244A JUMPI PUSH2 0x2449 PUSH2 0x211E JUMP JUMPDEST JUMPDEST PUSH0 PUSH2 0x2457 DUP5 DUP3 DUP6 ADD PUSH2 0x217D JUMP JUMPDEST SWAP2 POP POP SWAP3 SWAP2 POP POP JUMP JUMPDEST PUSH2 0x2469 DUP2 PUSH2 0x2191 JUMP JUMPDEST DUP3 MSTORE POP POP JUMP JUMPDEST PUSH0 PUSH1 0x20 DUP3 ADD SWAP1 POP PUSH2 0x2482 PUSH0 DUP4 ADD DUP5 PUSH2 0x2460 JUMP JUMPDEST SWAP3 SWAP2 POP POP JUMP JUMPDEST PUSH0 PUSH4 0xFFFFFFFF DUP3 AND SWAP1 POP SWAP2 SWAP1 POP JUMP JUMPDEST PUSH2 0x24A0 DUP2 PUSH2 0x2488 JUMP JUMPDEST DUP2 EQ PUSH2 0x24AA JUMPI PUSH0 DUP1 REVERT JUMPDEST POP JUMP JUMPDEST PUSH0 DUP2 CALLDATALOAD SWAP1 POP PUSH2 0x24BB DUP2 PUSH2 0x2497 JUMP JUMPDEST SWAP3 SWAP2 POP POP JUMP JUMPDEST PUSH0 DUP1 PUSH0 DUP1 PUSH1 0x80 DUP6 DUP8 SUB SLT ISZERO PUSH2 0x24D9 JUMPI PUSH2 0x24D8 PUSH2 0x211E JUMP JUMPDEST JUMPDEST PUSH0 PUSH2 0x24E6 DUP8 DUP3 DUP9 ADD PUSH2 0x217D JUMP JUMPDEST SWAP5 POP POP PUSH1 0x20 PUSH2 0x24F7 DUP8 DUP3 DUP9 ADD PUSH2 0x24AD JUMP JUMPDEST SWAP4 POP POP PUSH1 0x40 PUSH2 0x2508 DUP8 DUP3 DUP9 ADD PUSH2 0x21B0 JUMP JUMPDEST SWAP3 POP POP PUSH1 0x60 PUSH2 0x2519 DUP8 DUP3 DUP9 ADD PUSH2 0x21E6 JUMP JUMPDEST SWAP2 POP POP SWAP3 SWAP6 SWAP2 SWAP5 POP SWAP3 POP JUMP JUMPDEST PUSH0 PUSH1 0x20 DUP3 DUP5 SUB SLT ISZERO PUSH2 0x253A JUMPI PUSH2 0x2539 PUSH2 0x211E JUMP JUMPDEST JUMPDEST PUSH0 PUSH2 0x2547 DUP5 DUP3 DUP6 ADD PUSH2 0x21E6 JUMP JUMPDEST SWAP2 POP POP SWAP3 SWAP2 POP POP JUMP JUMPDEST PUSH0 DUP2 MLOAD SWAP1 POP SWAP2 SWAP1 POP JUMP JUMPDEST PUSH0 DUP3 DUP3 MSTORE PUSH1 0x20 DUP3 ADD SWAP1 POP SWAP3 SWAP2 POP POP JUMP JUMPDEST PUSH0 DUP2 SWAP1 POP PUSH1 0x20 DUP3 ADD SWAP1 POP SWAP2 SWAP1 POP JUMP JUMPDEST PUSH2 0x2582 DUP2 PUSH2 0x2145 JUMP JUMPDEST DUP3 MSTORE POP POP JUMP JUMPDEST PUSH2 0x2591 DUP2 PUSH2 0x2191 JUMP JUMPDEST DUP3 MSTORE POP POP JUMP JUMPDEST PUSH0 DUP2 MLOAD SWAP1 POP SWAP2 SWAP1 POP JUMP JUMPDEST PUSH0 DUP3 DUP3 MSTORE PUSH1 0x20 DUP3 ADD SWAP1 POP SWAP3 SWAP2 POP POP JUMP JUMPDEST DUP3 DUP2 DUP4 MCOPY PUSH0 DUP4 DUP4 ADD MSTORE POP POP POP JUMP JUMPDEST PUSH0 PUSH2 0x25C9 DUP3 PUSH2 0x2597 JUMP JUMPDEST PUSH2 0x25D3 DUP2 DUP6 PUSH2 0x25A1 JUMP JUMPDEST SWAP4 POP PUSH2 0x25E3 DUP2 DUP6 PUSH1 0x20 DUP7 ADD PUSH2 0x25B1 JUMP JUMPDEST PUSH2 0x25EC DUP2 PUSH2 0x2202 JUMP JUMPDEST DUP5 ADD SWAP2 POP POP SWAP3 SWAP2 POP POP JUMP JUMPDEST PUSH0 DUP2 ISZERO ISZERO SWAP1 POP SWAP2 SWAP1 POP JUMP JUMPDEST PUSH2 0x260B DUP2 PUSH2 0x25F7 JUMP JUMPDEST DUP3 MSTORE POP POP JUMP JUMPDEST PUSH0 PUSH1 0xC0 DUP4 ADD PUSH0 DUP4 ADD MLOAD PUSH2 0x2626 PUSH0 DUP7 ADD DUP3 PUSH2 0x2579 JUMP JUMPDEST POP PUSH1 0x20 DUP4 ADD MLOAD PUSH2 0x2639 PUSH1 0x20 DUP7 ADD DUP3 PUSH2 0x2588 JUMP JUMPDEST POP PUSH1 0x40 DUP4 ADD MLOAD PUSH2 0x264C PUSH1 0x40 DUP7 ADD DUP3 PUSH2 0x2588 JUMP JUMPDEST POP PUSH1 0x60 DUP4 ADD MLOAD DUP5 DUP3 SUB PUSH1 0x60 DUP7 ADD MSTORE PUSH2 0x2664 DUP3 DUP3 PUSH2 0x25BF JUMP JUMPDEST SWAP2 POP POP PUSH1 0x80 DUP4 ADD MLOAD PUSH2 0x2679 PUSH1 0x80 DUP7 ADD DUP3 PUSH2 0x2602 JUMP JUMPDEST POP PUSH1 0xA0 DUP4 ADD MLOAD PUSH2 0x268C PUSH1 0xA0 DUP7 ADD DUP3 PUSH2 0x2602 JUMP JUMPDEST POP DUP1 SWAP2 POP POP SWAP3 SWAP2 POP POP JUMP JUMPDEST PUSH0 PUSH2 0x26A2 DUP4 DUP4 PUSH2 0x2611 JUMP JUMPDEST SWAP1 POP SWAP3 SWAP2 POP POP JUMP JUMPDEST PUSH0 PUSH1 0x20 DUP3 ADD SWAP1 POP SWAP2 SWAP1 POP JUMP JUMPDEST PUSH0 PUSH2 0x26C0 DUP3 PUSH2 0x2550 JUMP JUMPDEST PUSH2 0x26CA DUP2 DUP6 PUSH2 0x255A JUMP JUMPDEST SWAP4 POP DUP4 PUSH1 0x20 DUP3 MUL DUP6 ADD PUSH2 0x26DC DUP6 PUSH2 0x256A JUMP JUMPDEST DUP1 PUSH0 JUMPDEST DUP6 DUP2 LT ISZERO PUSH2 0x2717 JUMPI DUP5 DUP5 SUB DUP10 MSTORE DUP2 MLOAD PUSH2 0x26F8 DUP6 DUP3 PUSH2 0x2697 JUMP JUMPDEST SWAP5 POP PUSH2 0x2703 DUP4 PUSH2 0x26AA JUMP JUMPDEST SWAP3 POP PUSH1 0x20 DUP11 ADD SWAP10 POP POP PUSH1 0x1 DUP2 ADD SWAP1 POP PUSH2 0x26DF JUMP JUMPDEST POP DUP3 SWAP8 POP DUP8 SWAP6 POP POP POP POP POP POP SWAP3 SWAP2 POP POP JUMP JUMPDEST PUSH0 PUSH1 0x20 DUP3 ADD SWAP1 POP DUP2 DUP2 SUB PUSH0 DUP4 ADD MSTORE PUSH2 0x2741 DUP2 DUP5 PUSH2 0x26B6 JUMP JUMPDEST SWAP1 POP SWAP3 SWAP2 POP POP JUMP JUMPDEST PUSH2 0x2752 DUP2 PUSH2 0x2145 JUMP JUMPDEST DUP2 EQ PUSH2 0x275C JUMPI PUSH0 DUP1 REVERT JUMPDEST POP JUMP JUMPDEST PUSH0 DUP2 CALLDATALOAD SWAP1 POP PUSH2 0x276D DUP2 PUSH2 0x2749 JUMP JUMPDEST SWAP3 SWAP2 POP POP JUMP JUMPDEST PUSH0 DUP1 PUSH0 PUSH1 0x60 DUP5 DUP7 SUB SLT ISZERO PUSH2 0x278A JUMPI PUSH2 0x2789 PUSH2 0x211E JUMP JUMPDEST JUMPDEST PUSH0 PUSH2 0x2797 DUP7 DUP3 DUP8 ADD PUSH2 0x275F JUMP JUMPDEST SWAP4 POP POP PUSH1 0x20 PUSH2 0x27A8 DUP7 DUP3 DUP8 ADD PUSH2 0x21E6 JUMP JUMPDEST SWAP3 POP POP PUSH1 0x40 PUSH2 0x27B9 DUP7 DUP3 DUP8 ADD PUSH2 0x21B0 JUMP JUMPDEST SWAP2 POP POP SWAP3 POP SWAP3 POP SWAP3 JUMP JUMPDEST PUSH2 0x27CC DUP2 PUSH2 0x2145 JUMP JUMPDEST DUP3 MSTORE POP POP JUMP JUMPDEST PUSH0 DUP3 DUP3 MSTORE PUSH1 0x20 DUP3 ADD SWAP1 POP SWAP3 SWAP2 POP POP JUMP JUMPDEST PUSH0 PUSH2 0x27EC DUP3 PUSH2 0x2597 JUMP JUMPDEST PUSH2 0x27F6 DUP2 DUP6 PUSH2 0x27D2 JUMP JUMPDEST SWAP4 POP PUSH2 0x2806 DUP2 DUP6 PUSH1 0x20 DUP7 ADD PUSH2 0x25B1 JUMP JUMPDEST PUSH2 0x280F DUP2 PUSH2 0x2202 JUMP JUMPDEST DUP5 ADD SWAP2 POP POP SWAP3 SWAP2 POP POP JUMP JUMPDEST PUSH2 0x2823 DUP2 PUSH2 0x25F7 JUMP JUMPDEST DUP3 MSTORE POP POP JUMP JUMPDEST PUSH0 PUSH1 0xA0 DUP3 ADD SWAP1 POP PUSH2 0x283C PUSH0 DUP4 ADD DUP9 PUSH2 0x27C3 JUMP JUMPDEST PUSH2 0x2849 PUSH1 0x20 DUP4 ADD DUP8 PUSH2 0x2460 JUMP JUMPDEST DUP2 DUP2 SUB PUSH1 0x40 DUP4 ADD MSTORE PUSH2 0x285B DUP2 DUP7 PUSH2 0x27E2 JUMP JUMPDEST SWAP1 POP PUSH2 0x286A PUSH1 0x60 DUP4 ADD DUP6 PUSH2 0x281A JUMP JUMPDEST PUSH2 0x2877 PUSH1 0x80 DUP4 ADD DUP5 PUSH2 0x2460 JUMP JUMPDEST SWAP7 SWAP6 POP POP POP POP POP POP JUMP JUMPDEST PUSH0 PUSH1 0x20 DUP3 ADD SWAP1 POP PUSH2 0x2894 PUSH0 DUP4 ADD DUP5 PUSH2 0x27C3 JUMP JUMPDEST SWAP3 SWAP2 POP POP JUMP JUMPDEST PUSH0 DUP1 PUSH0 PUSH1 0x60 DUP5 DUP7 SUB SLT ISZERO PUSH2 0x28B1 JUMPI PUSH2 0x28B0 PUSH2 0x211E JUMP JUMPDEST JUMPDEST PUSH0 PUSH2 0x28BE DUP7 DUP3 DUP8 ADD PUSH2 0x24AD JUMP JUMPDEST SWAP4 POP POP PUSH1 0x20 PUSH2 0x28CF DUP7 DUP3 DUP8 ADD PUSH2 0x21E6 JUMP JUMPDEST SWAP3 POP POP PUSH1 0x40 PUSH2 0x28E0 DUP7 DUP3 DUP8 ADD PUSH2 0x21B0 JUMP JUMPDEST SWAP2 POP POP SWAP3 POP SWAP3 POP SWAP3 JUMP JUMPDEST PUSH0 PUSH1 0xC0 DUP3 ADD SWAP1 POP PUSH2 0x28FD PUSH0 DUP4 ADD DUP10 PUSH2 0x27C3 JUMP JUMPDEST PUSH2 0x290A PUSH1 0x20 DUP4 ADD DUP9 PUSH2 0x2460 JUMP JUMPDEST PUSH2 0x2917 PUSH1 0x40 DUP4 ADD DUP8 PUSH2 0x2460 JUMP JUMPDEST DUP2 DUP2 SUB PUSH1 0x60 DUP4 ADD MSTORE PUSH2 0x2929 DUP2 DUP7 PUSH2 0x27E2 JUMP JUMPDEST SWAP1 POP PUSH2 0x2938 PUSH1 0x80 DUP4 ADD DUP6 PUSH2 0x281A JUMP JUMPDEST PUSH2 0x2945 PUSH1 0xA0 DUP4 ADD DUP5 PUSH2 0x281A JUMP JUMPDEST SWAP8 SWAP7 POP POP POP POP POP POP POP JUMP JUMPDEST PUSH0 DUP1 PUSH1 0x40 DUP4 DUP6 SUB SLT ISZERO PUSH2 0x2966 JUMPI PUSH2 0x2965 PUSH2 0x211E JUMP JUMPDEST JUMPDEST PUSH0 PUSH2 0x2973 DUP6 DUP3 DUP7 ADD PUSH2 0x21E6 JUMP JUMPDEST SWAP3 POP POP PUSH1 0x20 PUSH2 0x2984 DUP6 DUP3 DUP7 ADD PUSH2 0x24AD JUMP JUMPDEST SWAP2 POP POP SWAP3 POP SWAP3 SWAP1 POP JUMP JUMPDEST PUSH0 PUSH1 0x20 DUP3 DUP5 SUB SLT ISZERO PUSH2 0x29A3 JUMPI PUSH2 0x29A2 PUSH2 0x211E JUMP JUMPDEST JUMPDEST PUSH0 PUSH2 0x29B0 DUP5 DUP3 DUP6 ADD PUSH2 0x275F JUMP JUMPDEST SWAP2 POP POP SWAP3 SWAP2 POP POP JUMP JUMPDEST PUSH32 0x4D7573742070726F7669646520612076616C696420746F6B656E206164647265 PUSH0 DUP3 ADD MSTORE PUSH32 0x7373000000000000000000000000000000000000000000000000000000000000 PUSH1 0x20 DUP3 ADD MSTORE POP JUMP JUMPDEST PUSH0 PUSH2 0x2A13 PUSH1 0x22 DUP4 PUSH2 0x27D2 JUMP JUMPDEST SWAP2 POP PUSH2 0x2A1E DUP3 PUSH2 0x29B9 JUMP JUMPDEST PUSH1 0x40 DUP3 ADD SWAP1 POP SWAP2 SWAP1 POP JUMP JUMPDEST PUSH0 PUSH1 0x20 DUP3 ADD SWAP1 POP DUP2 DUP2 SUB PUSH0 DUP4 ADD MSTORE PUSH2 0x2A40 DUP2 PUSH2 0x2A07 JUMP JUMPDEST SWAP1 POP SWAP2 SWAP1 POP JUMP JUMPDEST PUSH32 0x546F6B656E20616D6F756E74206D757374206265206772656174657220746865 PUSH0 DUP3 ADD MSTORE PUSH32 0x6E207A65726F0000000000000000000000000000000000000000000000000000 PUSH1 0x20 DUP3 ADD MSTORE POP JUMP JUMPDEST PUSH0 PUSH2 0x2AA1 PUSH1 0x26 DUP4 PUSH2 0x27D2 JUMP JUMPDEST SWAP2 POP PUSH2 0x2AAC DUP3 PUSH2 0x2A47 JUMP JUMPDEST PUSH1 0x40 DUP3 ADD SWAP1 POP SWAP2 SWAP1 POP JUMP JUMPDEST PUSH0 PUSH1 0x20 DUP3 ADD SWAP1 POP DUP2 DUP2 SUB PUSH0 DUP4 ADD MSTORE PUSH2 0x2ACE DUP2 PUSH2 0x2A95 JUMP JUMPDEST SWAP1 POP SWAP2 SWAP1 POP JUMP JUMPDEST PUSH32 0x546865206C6F636B20706572696F64206D757374206265206772656174657220 PUSH0 DUP3 ADD MSTORE PUSH32 0x7468656E207A65726F0000000000000000000000000000000000000000000000 PUSH1 0x20 DUP3 ADD MSTORE POP JUMP JUMPDEST PUSH0 PUSH2 0x2B2F PUSH1 0x29 DUP4 PUSH2 0x27D2 JUMP JUMPDEST SWAP2 POP PUSH2 0x2B3A DUP3 PUSH2 0x2AD5 JUMP JUMPDEST PUSH1 0x40 DUP3 ADD SWAP1 POP SWAP2 SWAP1 POP JUMP JUMPDEST PUSH0 PUSH1 0x20 DUP3 ADD SWAP1 POP DUP2 DUP2 SUB PUSH0 DUP4 ADD MSTORE PUSH2 0x2B5C DUP2 PUSH2 0x2B23 JUMP JUMPDEST SWAP1 POP SWAP2 SWAP1 POP JUMP JUMPDEST PUSH0 DUP2 MLOAD SWAP1 POP PUSH2 0x2B71 DUP2 PUSH2 0x219A JUMP JUMPDEST SWAP3 SWAP2 POP POP JUMP JUMPDEST PUSH0 PUSH1 0x20 DUP3 DUP5 SUB SLT ISZERO PUSH2 0x2B8C JUMPI PUSH2 0x2B8B PUSH2 0x211E JUMP JUMPDEST JUMPDEST PUSH0 PUSH2 0x2B99 DUP5 DUP3 DUP6 ADD PUSH2 0x2B63 JUMP JUMPDEST SWAP2 POP POP SWAP3 SWAP2 POP POP JUMP JUMPDEST PUSH32 0x4E6F7420656E6F75676820746F6B656E7320746F206C6F636B00000000000000 PUSH0 DUP3 ADD MSTORE POP JUMP JUMPDEST PUSH0 PUSH2 0x2BD6 PUSH1 0x19 DUP4 PUSH2 0x27D2 JUMP JUMPDEST SWAP2 POP PUSH2 0x2BE1 DUP3 PUSH2 0x2BA2 JUMP JUMPDEST PUSH1 0x20 DUP3 ADD SWAP1 POP SWAP2 SWAP1 POP JUMP JUMPDEST PUSH0 PUSH1 0x20 DUP3 ADD SWAP1 POP DUP2 DUP2 SUB PUSH0 DUP4 ADD MSTORE PUSH2 0x2C03 DUP2 PUSH2 0x2BCA JUMP JUMPDEST SWAP1 POP SWAP2 SWAP1 POP JUMP JUMPDEST PUSH32 0x4E487B7100000000000000000000000000000000000000000000000000000000 PUSH0 MSTORE PUSH1 0x11 PUSH1 0x4 MSTORE PUSH1 0x24 PUSH0 REVERT JUMPDEST PUSH0 PUSH2 0x2C41 DUP3 PUSH2 0x2191 JUMP JUMPDEST SWAP2 POP PUSH2 0x2C4C DUP4 PUSH2 0x2191 JUMP JUMPDEST SWAP3 POP DUP3 DUP3 ADD SWAP1 POP DUP1 DUP3 GT ISZERO PUSH2 0x2C64 JUMPI PUSH2 0x2C63 PUSH2 0x2C0A JUMP JUMPDEST JUMPDEST SWAP3 SWAP2 POP POP JUMP JUMPDEST PUSH32 0x4E487B7100000000000000000000000000000000000000000000000000000000 PUSH0 MSTORE PUSH1 0x22 PUSH1 0x4 MSTORE PUSH1 0x24 PUSH0 REVERT JUMPDEST PUSH0 PUSH1 0x2 DUP3 DIV SWAP1 POP PUSH1 0x1 DUP3 AND DUP1 PUSH2 0x2CAE JUMPI PUSH1 0x7F DUP3 AND SWAP2 POP JUMPDEST PUSH1 0x20 DUP3 LT DUP2 SUB PUSH2 0x2CC1 JUMPI PUSH2 0x2CC0 PUSH2 0x2C6A JUMP JUMPDEST JUMPDEST POP SWAP2 SWAP1 POP JUMP JUMPDEST PUSH0 DUP2 SWAP1 POP DUP2 PUSH0 MSTORE PUSH1 0x20 PUSH0 KECCAK256 SWAP1 POP SWAP2 SWAP1 POP JUMP JUMPDEST PUSH0 PUSH1 0x20 PUSH1 0x1F DUP4 ADD DIV SWAP1 POP SWAP2 SWAP1 POP JUMP JUMPDEST PUSH0 DUP3 DUP3 SHL SWAP1 POP SWAP3 SWAP2 POP POP JUMP JUMPDEST PUSH0 PUSH1 0x8 DUP4 MUL PUSH2 0x2D23 PUSH32 0xFFFFFFFFFFFFFFFFFFFFFFFFFFFFFFFFFFFFFFFFFFFFFFFFFFFFFFFFFFFFFFFF DUP3 PUSH2 0x2CE8 JUMP JUMPDEST PUSH2 0x2D2D DUP7 DUP4 PUSH2 0x2CE8 JUMP JUMPDEST SWAP6 POP DUP1 NOT DUP5 AND SWAP4 POP DUP1 DUP7 AND DUP5 OR SWAP3 POP POP POP SWAP4 SWAP3 POP POP POP JUMP JUMPDEST PUSH0 DUP2 SWAP1 POP SWAP2 SWAP1 POP JUMP JUMPDEST PUSH0 PUSH2 0x2D68 PUSH2 0x2D63 PUSH2 0x2D5E DUP5 PUSH2 0x2191 JUMP JUMPDEST PUSH2 0x2D45 JUMP JUMPDEST PUSH2 0x2191 JUMP JUMPDEST SWAP1 POP SWAP2 SWAP1 POP JUMP JUMPDEST PUSH0 DUP2 SWAP1 POP SWAP2 SWAP1 POP JUMP JUMPDEST PUSH2 0x2D81 DUP4 PUSH2 0x2D4E JUMP JUMPDEST PUSH2 0x2D95 PUSH2 0x2D8D DUP3 PUSH2 0x2D6F JUMP JUMPDEST DUP5 DUP5 SLOAD PUSH2 0x2CF4 JUMP JUMPDEST DUP3 SSTORE POP POP POP POP JUMP JUMPDEST PUSH0 SWAP1 JUMP JUMPDEST PUSH2 0x2DA9 PUSH2 0x2D9D JUMP JUMPDEST PUSH2 0x2DB4 DUP2 DUP5 DUP5 PUSH2 0x2D78 JUMP JUMPDEST POP POP POP JUMP JUMPDEST JUMPDEST DUP2 DUP2 LT ISZERO PUSH2 0x2DD7 JUMPI PUSH2 0x2DCC PUSH0 DUP3 PUSH2 0x2DA1 JUMP JUMPDEST PUSH1 0x1 DUP2 ADD SWAP1 POP PUSH2 0x2DBA JUMP JUMPDEST POP POP JUMP JUMPDEST PUSH1 0x1F DUP3 GT ISZERO PUSH2 0x2E1C JUMPI PUSH2 0x2DED DUP2 PUSH2 0x2CC7 JUMP JUMPDEST PUSH2 0x2DF6 DUP5 PUSH2 0x2CD9 JUMP JUMPDEST DUP2 ADD PUSH1 0x20 DUP6 LT ISZERO PUSH2 0x2E05 JUMPI DUP2 SWAP1 POP JUMPDEST PUSH2 0x2E19 PUSH2 0x2E11 DUP6 PUSH2 0x2CD9 JUMP JUMPDEST DUP4 ADD DUP3 PUSH2 0x2DB9 JUMP JUMPDEST POP POP JUMPDEST POP POP POP JUMP JUMPDEST PUSH0 DUP3 DUP3 SHR SWAP1 POP SWAP3 SWAP2 POP POP JUMP JUMPDEST PUSH0 PUSH2 0x2E3C PUSH0 NOT DUP5 PUSH1 0x8 MUL PUSH2 0x2E21 JUMP JUMPDEST NOT DUP1 DUP4 AND SWAP2 POP POP SWAP3 SWAP2 POP POP JUMP JUMPDEST PUSH0 PUSH2 0x2E54 DUP4 DUP4 PUSH2 0x2E2D JUMP JUMPDEST SWAP2 POP DUP3 PUSH1 0x2 MUL DUP3 OR SWAP1 POP SWAP3 SWAP2 POP POP JUMP JUMPDEST PUSH2 0x2E6D DUP3 PUSH2 0x2597 JUMP JUMPDEST PUSH8 0xFFFFFFFFFFFFFFFF DUP2 GT ISZERO PUSH2 0x2E86 JUMPI PUSH2 0x2E85 PUSH2 0x2212 JUMP JUMPDEST JUMPDEST PUSH2 0x2E90 DUP3 SLOAD PUSH2 0x2C97 JUMP JUMPDEST PUSH2 0x2E9B DUP3 DUP3 DUP6 PUSH2 0x2DDB JUMP JUMPDEST PUSH0 PUSH1 0x20 SWAP1 POP PUSH1 0x1F DUP4 GT PUSH1 0x1 DUP2 EQ PUSH2 0x2ECC JUMPI PUSH0 DUP5 ISZERO PUSH2 0x2EBA JUMPI DUP3 DUP8 ADD MLOAD SWAP1 POP JUMPDEST PUSH2 0x2EC4 DUP6 DUP3 PUSH2 0x2E49 JUMP JUMPDEST DUP7 SSTORE POP PUSH2 0x2F2B JUMP JUMPDEST PUSH1 0x1F NOT DUP5 AND PUSH2 0x2EDA DUP7 PUSH2 0x2CC7 JUMP JUMPDEST PUSH0 JUMPDEST DUP3 DUP2 LT ISZERO PUSH2 0x2F01 JUMPI DUP5 DUP10 ADD MLOAD DUP3 SSTORE PUSH1 0x1 DUP3 ADD SWAP2 POP PUSH1 0x20 DUP6 ADD SWAP5 POP PUSH1 0x20 DUP2 ADD SWAP1 POP PUSH2 0x2EDC JUMP JUMPDEST DUP7 DUP4 LT ISZERO PUSH2 0x2F1E JUMPI DUP5 DUP10 ADD MLOAD PUSH2 0x2F1A PUSH1 0x1F DUP10 AND DUP3 PUSH2 0x2E2D JUMP JUMPDEST DUP4 SSTORE POP JUMPDEST PUSH1 0x1 PUSH1 0x2 DUP9 MUL ADD DUP9 SSTORE POP POP POP JUMPDEST POP POP POP POP POP POP JUMP JUMPDEST PUSH2 0x2F3C DUP2 PUSH2 0x21C4 JUMP JUMPDEST DUP3 MSTORE POP POP JUMP JUMPDEST PUSH0 PUSH1 0xA0 DUP3 ADD SWAP1 POP PUSH2 0x2F55 PUSH0 DUP4 ADD DUP9 PUSH2 0x2460 JUMP JUMPDEST DUP2 DUP2 SUB PUSH1 0x20 DUP4 ADD MSTORE PUSH2 0x2F67 DUP2 DUP8 PUSH2 0x27E2 JUMP JUMPDEST SWAP1 POP PUSH2 0x2F76 PUSH1 0x40 DUP4 ADD DUP7 PUSH2 0x2F33 JUMP JUMPDEST PUSH2 0x2F83 PUSH1 0x60 DUP4 ADD DUP6 PUSH2 0x2460 JUMP JUMPDEST PUSH2 0x2F90 PUSH1 0x80 DUP4 ADD DUP5 PUSH2 0x2460 JUMP JUMPDEST SWAP7 SWAP6 POP POP POP POP POP POP JUMP JUMPDEST PUSH32 0x45544820746F206C6F636B206D75737420612076616C75652067726561746572 PUSH0 DUP3 ADD MSTORE PUSH32 0x207468616E203000000000000000000000000000000000000000000000000000 PUSH1 0x20 DUP3 ADD MSTORE POP JUMP JUMPDEST PUSH0 PUSH2 0x2FF4 PUSH1 0x27 DUP4 PUSH2 0x27D2 JUMP JUMPDEST SWAP2 POP PUSH2 0x2FFF DUP3 PUSH2 0x2F9A JUMP JUMPDEST PUSH1 0x40 DUP3 ADD SWAP1 POP SWAP2 SWAP1 POP JUMP JUMPDEST PUSH0 PUSH1 0x20 DUP3 ADD SWAP1 POP DUP2 DUP2 SUB PUSH0 DUP4 ADD MSTORE PUSH2 0x3021 DUP2 PUSH2 0x2FE8 JUMP JUMPDEST SWAP1 POP SWAP2 SWAP1 POP JUMP JUMPDEST PUSH32 0x546865206C6F636B706572696F64206D75737420626520677265617465722074 PUSH0 DUP3 ADD MSTORE PUSH32 0x68656E207A65726F000000000000000000000000000000000000000000000000 PUSH1 0x20 DUP3 ADD MSTORE POP JUMP JUMPDEST PUSH0 PUSH2 0x3082 PUSH1 0x28 DUP4 PUSH2 0x27D2 JUMP JUMPDEST SWAP2 POP PUSH2 0x308D DUP3 PUSH2 0x3028 JUMP JUMPDEST PUSH1 0x40 DUP3 ADD SWAP1 POP SWAP2 SWAP1 POP JUMP JUMPDEST PUSH0 PUSH1 0x20 DUP3 ADD SWAP1 POP DUP2 DUP2 SUB PUSH0 DUP4 ADD MSTORE PUSH2 0x30AF DUP2 PUSH2 0x3076 JUMP JUMPDEST SWAP1 POP SWAP2 SWAP1 POP JUMP JUMPDEST PUSH32 0x4E487B7100000000000000000000000000000000000000000000000000000000 PUSH0 MSTORE PUSH1 0x32 PUSH1 0x4 MSTORE PUSH1 0x24 PUSH0 REVERT JUMPDEST PUSH0 DUP2 SLOAD PUSH2 0x30EF DUP2 PUSH2 0x2C97 JUMP JUMPDEST PUSH2 0x30F9 DUP2 DUP7 PUSH2 0x27D2 JUMP JUMPDEST SWAP5 POP PUSH1 0x1 DUP3 AND PUSH0 DUP2 EQ PUSH2 0x3113 JUMPI PUSH1 0x1 DUP2 EQ PUSH2 0x3129 JUMPI PUSH2 0x315B JUMP JUMPDEST PUSH1 0xFF NOT DUP4 AND DUP7 MSTORE DUP2 ISZERO ISZERO PUSH1 0x20 MUL DUP7 ADD SWAP4 POP PUSH2 0x315B JUMP JUMPDEST PUSH2 0x3132 DUP6 PUSH2 0x2CC7 JUMP JUMPDEST PUSH0 JUMPDEST DUP4 DUP2 LT ISZERO PUSH2 0x3153 JUMPI DUP2 SLOAD DUP2 DUP10 ADD MSTORE PUSH1 0x1 DUP3 ADD SWAP2 POP PUSH1 0x20 DUP2 ADD SWAP1 POP PUSH2 0x3134 JUMP JUMPDEST DUP1 DUP9 ADD SWAP6 POP POP POP JUMPDEST POP POP POP SWAP3 SWAP2 POP POP JUMP JUMPDEST PUSH0 PUSH1 0x80 DUP3 ADD SWAP1 POP PUSH2 0x3177 PUSH0 DUP4 ADD DUP8 PUSH2 0x2460 JUMP JUMPDEST DUP2 DUP2 SUB PUSH1 0x20 DUP4 ADD MSTORE PUSH2 0x3189 DUP2 DUP7 PUSH2 0x30E3 JUMP JUMPDEST SWAP1 POP PUSH2 0x3198 PUSH1 0x40 DUP4 ADD DUP6 PUSH2 0x2F33 JUMP JUMPDEST PUSH2 0x31A5 PUSH1 0x60 DUP4 ADD DUP5 PUSH2 0x2460 JUMP JUMPDEST SWAP6 SWAP5 POP POP POP POP POP JUMP JUMPDEST PUSH32 0x5468652073706563696669656420617373657420494420697320696E76616C69 PUSH0 DUP3 ADD MSTORE PUSH32 0x642E000000000000000000000000000000000000000000000000000000000000 PUSH1 0x20 DUP3 ADD MSTORE POP JUMP JUMPDEST PUSH0 PUSH2 0x3208 PUSH1 0x22 DUP4 PUSH2 0x27D2 JUMP JUMPDEST SWAP2 POP PUSH2 0x3213 DUP3 PUSH2 0x31AE JUMP JUMPDEST PUSH1 0x40 DUP3 ADD SWAP1 POP SWAP2 SWAP1 POP JUMP JUMPDEST PUSH0 PUSH1 0x20 DUP3 ADD SWAP1 POP DUP2 DUP2 SUB PUSH0 DUP4 ADD MSTORE PUSH2 0x3235 DUP2 PUSH2 0x31FC JUMP JUMPDEST SWAP1 POP SWAP2 SWAP1 POP JUMP JUMPDEST PUSH32 0x546865206C6F636B20706572696F6420686173206E6F74207965742065787069 PUSH0 DUP3 ADD MSTORE PUSH32 0x7265642100000000000000000000000000000000000000000000000000000000 PUSH1 0x20 DUP3 ADD MSTORE POP JUMP JUMPDEST PUSH0 PUSH2 0x3296 PUSH1 0x24 DUP4 PUSH2 0x27D2 JUMP JUMPDEST SWAP2 POP PUSH2 0x32A1 DUP3 PUSH2 0x323C JUMP JUMPDEST PUSH1 0x40 DUP3 ADD SWAP1 POP SWAP2 SWAP1 POP JUMP JUMPDEST PUSH0 PUSH1 0x20 DUP3 ADD SWAP1 POP DUP2 DUP2 SUB PUSH0 DUP4 ADD MSTORE PUSH2 0x32C3 DUP2 PUSH2 0x328A JUMP JUMPDEST SWAP1 POP SWAP2 SWAP1 POP JUMP JUMPDEST PUSH0 PUSH1 0x80 DUP3 ADD SWAP1 POP PUSH2 0x32DD PUSH0 DUP4 ADD DUP8 PUSH2 0x2F33 JUMP JUMPDEST PUSH2 0x32EA PUSH1 0x20 DUP4 ADD DUP7 PUSH2 0x2460 JUMP JUMPDEST DUP2 DUP2 SUB PUSH1 0x40 DUP4 ADD MSTORE PUSH2 0x32FC DUP2 DUP6 PUSH2 0x30E3 JUMP JUMPDEST SWAP1 POP PUSH2 0x330B PUSH1 0x60 DUP4 ADD DUP5 PUSH2 0x2460 JUMP JUMPDEST SWAP6 SWAP5 POP POP POP POP POP JUMP JUMPDEST PUSH32 0x417373657473206861766520616C7265616479206265656E2077697468647261 PUSH0 DUP3 ADD MSTORE PUSH32 0x776E210000000000000000000000000000000000000000000000000000000000 PUSH1 0x20 DUP3 ADD MSTORE POP JUMP JUMPDEST PUSH0 PUSH2 0x336E PUSH1 0x23 DUP4 PUSH2 0x27D2 JUMP JUMPDEST SWAP2 POP PUSH2 0x3379 DUP3 PUSH2 0x3314 JUMP JUMPDEST PUSH1 0x40 DUP3 ADD SWAP1 POP SWAP2 SWAP1 POP JUMP JUMPDEST PUSH0 PUSH1 0x20 DUP3 ADD SWAP1 POP DUP2 DUP2 SUB PUSH0 DUP4 ADD MSTORE PUSH2 0x339B DUP2 PUSH2 0x3362 JUMP JUMPDEST SWAP1 POP SWAP2 SWAP1 POP JUMP JUMPDEST PUSH0 PUSH2 0x33AC DUP3 PUSH2 0x2191 JUMP JUMPDEST SWAP2 POP PUSH2 0x33B7 DUP4 PUSH2 0x2191 JUMP JUMPDEST SWAP3 POP DUP3 DUP3 SUB SWAP1 POP DUP2 DUP2 GT ISZERO PUSH2 0x33CF JUMPI PUSH2 0x33CE PUSH2 0x2C0A JUMP JUMPDEST JUMPDEST SWAP3 SWAP2 POP POP JUMP JUMPDEST PUSH32 0x4E6F7420656E6F7567682061737365747320746F207769746864726177210000 PUSH0 DUP3 ADD MSTORE POP JUMP JUMPDEST PUSH0 PUSH2 0x3409 PUSH1 0x1E DUP4 PUSH2 0x27D2 JUMP JUMPDEST SWAP2 POP PUSH2 0x3414 DUP3 PUSH2 0x33D5 JUMP JUMPDEST PUSH1 0x20 DUP3 ADD SWAP1 POP SWAP2 SWAP1 POP JUMP JUMPDEST PUSH0 PUSH1 0x20 DUP3 ADD SWAP1 POP DUP2 DUP2 SUB PUSH0 DUP4 ADD MSTORE PUSH2 0x3436 DUP2 PUSH2 0x33FD JUMP JUMPDEST SWAP1 POP SWAP2 SWAP1 POP JUMP JUMPDEST PUSH0 DUP2 SWAP1 POP SWAP3 SWAP2 POP POP JUMP JUMPDEST POP JUMP JUMPDEST PUSH0 PUSH2 0x3455 PUSH0 DUP4 PUSH2 0x343D JUMP JUMPDEST SWAP2 POP PUSH2 0x3460 DUP3 PUSH2 0x3447 JUMP JUMPDEST PUSH0 DUP3 ADD SWAP1 POP SWAP2 SWAP1 POP JUMP JUMPDEST PUSH0 PUSH2 0x3474 DUP3 PUSH2 0x344A JUMP JUMPDEST SWAP2 POP DUP2 SWAP1 POP SWAP2 SWAP1 POP JUMP JUMPDEST PUSH32 0x455448207472616E73666572206661696C656400000000000000000000000000 PUSH0 DUP3 ADD MSTORE POP JUMP JUMPDEST PUSH0 PUSH2 0x34B2 PUSH1 0x13 DUP4 PUSH2 0x27D2 JUMP JUMPDEST SWAP2 POP PUSH2 0x34BD DUP3 PUSH2 0x347E JUMP JUMPDEST PUSH1 0x20 DUP3 ADD SWAP1 POP SWAP2 SWAP1 POP JUMP JUMPDEST PUSH0 PUSH1 0x20 DUP3 ADD SWAP1 POP DUP2 DUP2 SUB PUSH0 DUP4 ADD MSTORE PUSH2 0x34DF DUP2 PUSH2 0x34A6 JUMP JUMPDEST SWAP1 POP SWAP2 SWAP1 POP JUMP JUMPDEST PUSH32 0x45544820746F2061646420746F206C6F636B206D75737420626520616E20616D PUSH0 DUP3 ADD MSTORE PUSH32 0x6F756E742067726561746572207468616E203000000000000000000000000000 PUSH1 0x20 DUP3 ADD MSTORE POP JUMP JUMPDEST PUSH0 PUSH2 0x3540 PUSH1 0x33 DUP4 PUSH2 0x27D2 JUMP JUMPDEST SWAP2 POP PUSH2 0x354B DUP3 PUSH2 0x34E6 JUMP JUMPDEST PUSH1 0x40 DUP3 ADD SWAP1 POP SWAP2 SWAP1 POP JUMP JUMPDEST PUSH0 PUSH1 0x20 DUP3 ADD SWAP1 POP DUP2 DUP2 SUB PUSH0 DUP4 ADD MSTORE PUSH2 0x356D DUP2 PUSH2 0x3534 JUMP JUMPDEST SWAP1 POP SWAP2 SWAP1 POP JUMP JUMPDEST PUSH0 PUSH1 0x60 DUP3 ADD SWAP1 POP PUSH2 0x3587 PUSH0 DUP4 ADD DUP7 PUSH2 0x27C3 JUMP JUMPDEST PUSH2 0x3594 PUSH1 0x20 DUP4 ADD DUP6 PUSH2 0x27C3 JUMP JUMPDEST PUSH2 0x35A1 PUSH1 0x40 DUP4 ADD DUP5 PUSH2 0x2460 JUMP JUMPDEST SWAP5 SWAP4 POP POP POP POP JUMP JUMPDEST PUSH0 PUSH1 0x40 DUP3 ADD SWAP1 POP PUSH2 0x35BC PUSH0 DUP4 ADD DUP6 PUSH2 0x27C3 JUMP JUMPDEST PUSH2 0x35C9 PUSH1 0x20 DUP4 ADD DUP5 PUSH2 0x2460 JUMP JUMPDEST SWAP4 SWAP3 POP POP POP JUMP INVALID LOG2 PUSH5 0x6970667358 0x22 SLT KECCAK256 MUL 0xC6 MUL STOP 0xC2 0xAE 0xCA 0xD1 PUSH12 0x21713258D377D0EF8D84C17F 0xA6 RETURNDATASIZE GASPRICE PUSH28 0xDCA071EA39DD1C64736F6C634300081A003300000000000000000000 "
				},
				"gasEstimates": {
					"creation": {
						"codeDepositCost": "2766000",
						"executionCost": "infinite",
						"totalCost": "infinite"
					},
					"external": {
						"addToLockedETH(uint8,uint32)": "infinite",
						"addToLockedTokens(address,uint32,uint256,uint8)": "infinite",
						"extendLockPeriod(uint32,uint8,uint256)": "infinite",
						"getContractETHBalance()": "357",
						"getContractTokenBalance(address)": "infinite",
						"getUserLocks(uint8)": "infinite",
						"lockETH(uint8,uint256,string)": "infinite",
						"lockToken(address,uint256,uint8,uint256,string)": "infinite",
						"owner()": "2560",
						"renounceOwnership()": "infinite",
						"transferAsset(uint32,uint8,uint256)": "infinite",
						"transferOwnership(address)": "infinite",
						"userLockedAssets(address,uint8,uint256)": "infinite",
						"userTransactions(address,uint8,uint256)": "infinite"
					},
					"internal": {
						"recordTransac(address,uint8,uint256,string memory,bool)": "infinite"
					}
				},
				"methodIdentifiers": {
					"addToLockedETH(uint8,uint32)": "ecaa9d05",
					"addToLockedTokens(address,uint32,uint256,uint8)": "2d8fefc2",
					"extendLockPeriod(uint32,uint8,uint256)": "8de8107b",
					"getContractETHBalance()": "8c89a0ad",
					"getContractTokenBalance(address)": "14205e28",
					"getUserLocks(uint8)": "3b958c38",
					"lockETH(uint8,uint256,string)": "13a2e884",
					"lockToken(address,uint256,uint8,uint256,string)": "0f1419b5",
					"owner()": "8da5cb5b",
					"renounceOwnership()": "715018a6",
					"transferAsset(uint32,uint8,uint256)": "9e6c3ff2",
					"transferOwnership(address)": "f2fde38b",
					"userLockedAssets(address,uint8,uint256)": "8e06b906",
					"userTransactions(address,uint8,uint256)": "60864eed"
				}
			},
			"storageLayout": {
				"storage": [
					{
						"astId": 8,
						"contract": "contracts/Fvkry.sol:Fvkry",
						"label": "_owner",
						"offset": 0,
						"slot": "0",
						"type": "t_address"
					},
					{
						"astId": 765,
						"contract": "contracts/Fvkry.sol:Fvkry",
						"label": "_status",
						"offset": 0,
						"slot": "1",
						"type": "t_uint256"
					},
					{
						"astId": 881,
						"contract": "contracts/Fvkry.sol:Fvkry",
						"label": "userLockedAssets",
						"offset": 0,
						"slot": "2",
						"type": "t_mapping(t_address,t_mapping(t_uint8,t_array(t_struct(Lock)862_storage)dyn_storage))"
					},
					{
						"astId": 889,
						"contract": "contracts/Fvkry.sol:Fvkry",
						"label": "userTransactions",
						"offset": 0,
						"slot": "3",
						"type": "t_mapping(t_address,t_mapping(t_uint8,t_array(t_struct(TransacHist)873_storage)dyn_storage))"
					}
				],
				"types": {
					"t_address": {
						"encoding": "inplace",
						"label": "address",
						"numberOfBytes": "20"
					},
					"t_array(t_struct(Lock)862_storage)dyn_storage": {
						"base": "t_struct(Lock)862_storage",
						"encoding": "dynamic_array",
						"label": "struct Fvkry.Lock[]",
						"numberOfBytes": "32"
					},
					"t_array(t_struct(TransacHist)873_storage)dyn_storage": {
						"base": "t_struct(TransacHist)873_storage",
						"encoding": "dynamic_array",
						"label": "struct Fvkry.TransacHist[]",
						"numberOfBytes": "32"
					},
					"t_bool": {
						"encoding": "inplace",
						"label": "bool",
						"numberOfBytes": "1"
					},
					"t_mapping(t_address,t_mapping(t_uint8,t_array(t_struct(Lock)862_storage)dyn_storage))": {
						"encoding": "mapping",
						"key": "t_address",
						"label": "mapping(address => mapping(uint8 => struct Fvkry.Lock[]))",
						"numberOfBytes": "32",
						"value": "t_mapping(t_uint8,t_array(t_struct(Lock)862_storage)dyn_storage)"
					},
					"t_mapping(t_address,t_mapping(t_uint8,t_array(t_struct(TransacHist)873_storage)dyn_storage))": {
						"encoding": "mapping",
						"key": "t_address",
						"label": "mapping(address => mapping(uint8 => struct Fvkry.TransacHist[]))",
						"numberOfBytes": "32",
						"value": "t_mapping(t_uint8,t_array(t_struct(TransacHist)873_storage)dyn_storage)"
					},
					"t_mapping(t_uint8,t_array(t_struct(Lock)862_storage)dyn_storage)": {
						"encoding": "mapping",
						"key": "t_uint8",
						"label": "mapping(uint8 => struct Fvkry.Lock[])",
						"numberOfBytes": "32",
						"value": "t_array(t_struct(Lock)862_storage)dyn_storage"
					},
					"t_mapping(t_uint8,t_array(t_struct(TransacHist)873_storage)dyn_storage)": {
						"encoding": "mapping",
						"key": "t_uint8",
						"label": "mapping(uint8 => struct Fvkry.TransacHist[])",
						"numberOfBytes": "32",
						"value": "t_array(t_struct(TransacHist)873_storage)dyn_storage"
					},
					"t_string_storage": {
						"encoding": "bytes",
						"label": "string",
						"numberOfBytes": "32"
					},
					"t_struct(Lock)862_storage": {
						"encoding": "inplace",
						"label": "struct Fvkry.Lock",
						"members": [
							{
								"astId": 851,
								"contract": "contracts/Fvkry.sol:Fvkry",
								"label": "token",
								"offset": 0,
								"slot": "0",
								"type": "t_address"
							},
							{
								"astId": 853,
								"contract": "contracts/Fvkry.sol:Fvkry",
								"label": "amount",
								"offset": 0,
								"slot": "1",
								"type": "t_uint256"
							},
							{
								"astId": 855,
								"contract": "contracts/Fvkry.sol:Fvkry",
								"label": "lockEndTime",
								"offset": 0,
								"slot": "2",
								"type": "t_uint256"
							},
							{
								"astId": 857,
								"contract": "contracts/Fvkry.sol:Fvkry",
								"label": "title",
								"offset": 0,
								"slot": "3",
								"type": "t_string_storage"
							},
							{
								"astId": 859,
								"contract": "contracts/Fvkry.sol:Fvkry",
								"label": "withdrawn",
								"offset": 0,
								"slot": "4",
								"type": "t_bool"
							},
							{
								"astId": 861,
								"contract": "contracts/Fvkry.sol:Fvkry",
								"label": "isNative",
								"offset": 1,
								"slot": "4",
								"type": "t_bool"
							}
						],
						"numberOfBytes": "160"
					},
					"t_struct(TransacHist)873_storage": {
						"encoding": "inplace",
						"label": "struct Fvkry.TransacHist",
						"members": [
							{
								"astId": 864,
								"contract": "contracts/Fvkry.sol:Fvkry",
								"label": "token",
								"offset": 0,
								"slot": "0",
								"type": "t_address"
							},
							{
								"astId": 866,
								"contract": "contracts/Fvkry.sol:Fvkry",
								"label": "amount",
								"offset": 0,
								"slot": "1",
								"type": "t_uint256"
							},
							{
								"astId": 868,
								"contract": "contracts/Fvkry.sol:Fvkry",
								"label": "title",
								"offset": 0,
								"slot": "2",
								"type": "t_string_storage"
							},
							{
								"astId": 870,
								"contract": "contracts/Fvkry.sol:Fvkry",
								"label": "withdrawn",
								"offset": 0,
								"slot": "3",
								"type": "t_bool"
							},
							{
								"astId": 872,
								"contract": "contracts/Fvkry.sol:Fvkry",
								"label": "timestamp",
								"offset": 0,
								"slot": "4",
								"type": "t_uint256"
							}
						],
						"numberOfBytes": "160"
					},
					"t_uint256": {
						"encoding": "inplace",
						"label": "uint256",
						"numberOfBytes": "32"
					},
					"t_uint8": {
						"encoding": "inplace",
						"label": "uint8",
						"numberOfBytes": "1"
					}
				}
			},
			"userdoc": {
				"kind": "user",
				"methods": {},
				"version": 1
			}
		}
	}
}