{
	"contracts/Fvkry.sol": {
		"Fvkry": {
			"abi": [
				{
					"inputs": [],
					"stateMutability": "nonpayable",
					"type": "constructor"
				},
				{
					"inputs": [
						{
							"internalType": "address",
							"name": "owner",
							"type": "address"
						}
					],
					"name": "OwnableInvalidOwner",
					"type": "error"
				},
				{
					"inputs": [
						{
							"internalType": "address",
							"name": "account",
							"type": "address"
						}
					],
					"name": "OwnableUnauthorizedAccount",
					"type": "error"
				},
				{
					"inputs": [],
					"name": "ReentrancyGuardReentrantCall",
					"type": "error"
				},
				{
					"inputs": [
						{
							"internalType": "address",
							"name": "token",
							"type": "address"
						}
					],
					"name": "SafeERC20FailedOperation",
					"type": "error"
				},
				{
					"anonymous": false,
					"inputs": [
						{
							"indexed": true,
							"internalType": "address",
							"name": "_token",
							"type": "address"
						},
						{
							"indexed": false,
							"internalType": "uint256",
							"name": "amount",
							"type": "uint256"
						},
						{
							"indexed": false,
							"internalType": "uint8",
							"name": "vault",
							"type": "uint8"
						},
						{
							"indexed": false,
							"internalType": "uint256",
							"name": "lockEndTime",
							"type": "uint256"
						}
					],
					"name": "AssetLocked",
					"type": "event"
				},
				{
					"anonymous": false,
					"inputs": [
						{
							"indexed": true,
							"internalType": "address",
							"name": "_token",
							"type": "address"
						},
						{
							"indexed": false,
							"internalType": "uint256",
							"name": "amount",
							"type": "uint256"
						},
						{
							"indexed": false,
							"internalType": "uint8",
							"name": "vault",
							"type": "uint8"
						}
					],
					"name": "AssetTransfered",
					"type": "event"
				},
				{
					"anonymous": false,
					"inputs": [
						{
							"indexed": true,
							"internalType": "address",
							"name": "previousOwner",
							"type": "address"
						},
						{
							"indexed": true,
							"internalType": "address",
							"name": "newOwner",
							"type": "address"
						}
					],
					"name": "OwnershipTransferred",
					"type": "event"
				},
				{
					"inputs": [],
					"name": "getContractETHBalance",
					"outputs": [
						{
							"internalType": "uint256",
							"name": "",
							"type": "uint256"
						}
					],
					"stateMutability": "view",
					"type": "function"
				},
				{
					"inputs": [
						{
							"internalType": "contract IERC20",
							"name": "token",
							"type": "address"
						}
					],
					"name": "getContractTokenBalance",
					"outputs": [
						{
							"internalType": "uint256",
							"name": "",
							"type": "uint256"
						}
					],
					"stateMutability": "view",
					"type": "function"
				},
				{
					"inputs": [
						{
							"internalType": "uint8",
							"name": "_vault",
							"type": "uint8"
						},
						{
							"internalType": "uint256",
							"name": "_lockperiod",
							"type": "uint256"
						}
					],
					"name": "lockETH",
					"outputs": [],
					"stateMutability": "payable",
					"type": "function"
				},
				{
					"inputs": [
						{
							"internalType": "contract IERC20",
							"name": "_token",
							"type": "address"
						},
						{
							"internalType": "uint256",
							"name": "_amount",
							"type": "uint256"
						},
						{
							"internalType": "uint8",
							"name": "_vault",
							"type": "uint8"
						},
						{
							"internalType": "uint256",
							"name": "_lockperiod",
							"type": "uint256"
						}
					],
					"name": "lockToken",
					"outputs": [],
					"stateMutability": "nonpayable",
					"type": "function"
				},
				{
					"inputs": [],
					"name": "owner",
					"outputs": [
						{
							"internalType": "address",
							"name": "",
							"type": "address"
						}
					],
					"stateMutability": "view",
					"type": "function"
				},
				{
					"inputs": [],
					"name": "renounceOwnership",
					"outputs": [],
					"stateMutability": "nonpayable",
					"type": "function"
				},
				{
					"inputs": [
						{
							"internalType": "uint256",
							"name": "_assetId",
							"type": "uint256"
						},
						{
							"internalType": "uint256",
							"name": "_amount",
							"type": "uint256"
						}
					],
					"name": "transferAsset",
					"outputs": [],
					"stateMutability": "nonpayable",
					"type": "function"
				},
				{
					"inputs": [
						{
							"internalType": "address",
							"name": "newOwner",
							"type": "address"
						}
					],
					"name": "transferOwnership",
					"outputs": [],
					"stateMutability": "nonpayable",
					"type": "function"
				},
				{
					"inputs": [
						{
							"internalType": "address",
							"name": "",
							"type": "address"
						},
						{
							"internalType": "uint256",
							"name": "",
							"type": "uint256"
						}
					],
					"name": "userLockedAssets",
					"outputs": [
						{
							"internalType": "address",
							"name": "token",
							"type": "address"
						},
						{
							"internalType": "uint256",
							"name": "amount",
							"type": "uint256"
						},
						{
							"internalType": "uint256",
							"name": "lockEndTime",
							"type": "uint256"
						},
						{
							"internalType": "uint8",
							"name": "vault",
							"type": "uint8"
						},
						{
							"internalType": "bool",
							"name": "withdrawn",
							"type": "bool"
						},
						{
							"internalType": "bool",
							"name": "isNative",
							"type": "bool"
						}
					],
					"stateMutability": "view",
					"type": "function"
				}
			],
			"devdoc": {
				"errors": {
					"OwnableInvalidOwner(address)": [
						{
							"details": "The owner is not a valid owner account. (eg. `address(0)`)"
						}
					],
					"OwnableUnauthorizedAccount(address)": [
						{
							"details": "The caller account is not authorized to perform an operation."
						}
					],
					"ReentrancyGuardReentrantCall()": [
						{
							"details": "Unauthorized reentrant call."
						}
					],
					"SafeERC20FailedOperation(address)": [
						{
							"details": "An operation with an ERC-20 token failed."
						}
					]
				},
				"kind": "dev",
				"methods": {
					"owner()": {
						"details": "Returns the address of the current owner."
					},
					"renounceOwnership()": {
						"details": "Leaves the contract without owner. It will not be possible to call `onlyOwner` functions. Can only be called by the current owner. NOTE: Renouncing ownership will leave the contract without an owner, thereby disabling any functionality that is only available to the owner."
					},
					"transferOwnership(address)": {
						"details": "Transfers ownership of the contract to a new account (`newOwner`). Can only be called by the current owner."
					}
				},
				"version": 1
			},
			"evm": {
				"assembly": "    /* \"contracts/Fvkry.sol\":305:4182  contract Fvkry is Ownable, ReentrancyGuard {... */\n  mstore(0x40, 0x80)\n    /* \"contracts/Fvkry.sol\":828:864  constructor() Ownable(msg.sender) {} */\n  callvalue\n  dup1\n  iszero\n  tag_1\n  jumpi\n  0x00\n  dup1\n  revert\ntag_1:\n  pop\n    /* \"contracts/Fvkry.sol\":850:860  msg.sender */\n  caller\n    /* \"@openzeppelin/contracts/access/Ownable.sol\":1297:1298  0 */\n  0x00\n    /* \"@openzeppelin/contracts/access/Ownable.sol\":1273:1299  initialOwner == address(0) */\n  0xffffffffffffffffffffffffffffffffffffffff\n  and\n    /* \"@openzeppelin/contracts/access/Ownable.sol\":1273:1285  initialOwner */\n  dup2\n    /* \"@openzeppelin/contracts/access/Ownable.sol\":1273:1299  initialOwner == address(0) */\n  0xffffffffffffffffffffffffffffffffffffffff\n  and\n  sub\n    /* \"@openzeppelin/contracts/access/Ownable.sol\":1269:1364  if (initialOwner == address(0)) {... */\n  tag_6\n  jumpi\n    /* \"@openzeppelin/contracts/access/Ownable.sol\":1350:1351  0 */\n  0x00\n    /* \"@openzeppelin/contracts/access/Ownable.sol\":1322:1353  OwnableInvalidOwner(address(0)) */\n  mload(0x40)\n  0x1e4fbdf700000000000000000000000000000000000000000000000000000000\n  dup2\n  mstore\n  0x04\n  add\n  tag_7\n  swap2\n  swap1\n  tag_8\n  jump\t// in\ntag_7:\n  mload(0x40)\n  dup1\n  swap2\n  sub\n  swap1\n  revert\n    /* \"@openzeppelin/contracts/access/Ownable.sol\":1269:1364  if (initialOwner == address(0)) {... */\ntag_6:\n    /* \"@openzeppelin/contracts/access/Ownable.sol\":1373:1405  _transferOwnership(initialOwner) */\n  tag_9\n    /* \"@openzeppelin/contracts/access/Ownable.sol\":1392:1404  initialOwner */\n  dup2\n    /* \"@openzeppelin/contracts/access/Ownable.sol\":1373:1391  _transferOwnership */\n  shl(0x20, tag_10)\n    /* \"@openzeppelin/contracts/access/Ownable.sol\":1373:1405  _transferOwnership(initialOwner) */\n  0x20\n  shr\n  jump\t// in\ntag_9:\n    /* \"@openzeppelin/contracts/access/Ownable.sol\":1225:1412  constructor(address initialOwner) {... */\n  pop\n    /* \"@openzeppelin/contracts/utils/ReentrancyGuard.sol\":1857:1858  1 */\n  0x01\n    /* \"@openzeppelin/contracts/utils/ReentrancyGuard.sol\":2061:2068  _status */\n  dup1\n    /* \"@openzeppelin/contracts/utils/ReentrancyGuard.sol\":2061:2082  _status = NOT_ENTERED */\n  dup2\n  swap1\n  sstore\n  pop\n    /* \"contracts/Fvkry.sol\":305:4182  contract Fvkry is Ownable, ReentrancyGuard {... */\n  jump(tag_13)\n    /* \"@openzeppelin/contracts/access/Ownable.sol\":2912:3099  function _transferOwnership(address newOwner) internal virtual {... */\ntag_10:\n    /* \"@openzeppelin/contracts/access/Ownable.sol\":2985:3001  address oldOwner */\n  0x00\n    /* \"@openzeppelin/contracts/access/Ownable.sol\":3004:3010  _owner */\n  dup1\n  0x00\n  swap1\n  sload\n  swap1\n  0x0100\n  exp\n  swap1\n  div\n  0xffffffffffffffffffffffffffffffffffffffff\n  and\n    /* \"@openzeppelin/contracts/access/Ownable.sol\":2985:3010  address oldOwner = _owner */\n  swap1\n  pop\n    /* \"@openzeppelin/contracts/access/Ownable.sol\":3029:3037  newOwner */\n  dup2\n    /* \"@openzeppelin/contracts/access/Ownable.sol\":3020:3026  _owner */\n  0x00\n  dup1\n    /* \"@openzeppelin/contracts/access/Ownable.sol\":3020:3037  _owner = newOwner */\n  0x0100\n  exp\n  dup2\n  sload\n  dup2\n  0xffffffffffffffffffffffffffffffffffffffff\n  mul\n  not\n  and\n  swap1\n  dup4\n  0xffffffffffffffffffffffffffffffffffffffff\n  and\n  mul\n  or\n  swap1\n  sstore\n  pop\n    /* \"@openzeppelin/contracts/access/Ownable.sol\":3083:3091  newOwner */\n  dup2\n    /* \"@openzeppelin/contracts/access/Ownable.sol\":3052:3092  OwnershipTransferred(oldOwner, newOwner) */\n  0xffffffffffffffffffffffffffffffffffffffff\n  and\n    /* \"@openzeppelin/contracts/access/Ownable.sol\":3073:3081  oldOwner */\n  dup2\n    /* \"@openzeppelin/contracts/access/Ownable.sol\":3052:3092  OwnershipTransferred(oldOwner, newOwner) */\n  0xffffffffffffffffffffffffffffffffffffffff\n  and\n  0x8be0079c531659141344cd1fd0a4f28419497f9722a3daafe3b4186f6b6457e0\n  mload(0x40)\n  mload(0x40)\n  dup1\n  swap2\n  sub\n  swap1\n  log3\n    /* \"@openzeppelin/contracts/access/Ownable.sol\":2975:3099  {... */\n  pop\n    /* \"@openzeppelin/contracts/access/Ownable.sol\":2912:3099  function _transferOwnership(address newOwner) internal virtual {... */\n  pop\n  jump\t// out\n    /* \"#utility.yul\":7:133   */\ntag_15:\n    /* \"#utility.yul\":44:51   */\n  0x00\n    /* \"#utility.yul\":84:126   */\n  0xffffffffffffffffffffffffffffffffffffffff\n    /* \"#utility.yul\":77:82   */\n  dup3\n    /* \"#utility.yul\":73:127   */\n  and\n    /* \"#utility.yul\":62:127   */\n  swap1\n  pop\n    /* \"#utility.yul\":7:133   */\n  swap2\n  swap1\n  pop\n  jump\t// out\n    /* \"#utility.yul\":139:235   */\ntag_16:\n    /* \"#utility.yul\":176:183   */\n  0x00\n    /* \"#utility.yul\":205:229   */\n  tag_21\n    /* \"#utility.yul\":223:228   */\n  dup3\n    /* \"#utility.yul\":205:229   */\n  tag_15\n  jump\t// in\ntag_21:\n    /* \"#utility.yul\":194:229   */\n  swap1\n  pop\n    /* \"#utility.yul\":139:235   */\n  swap2\n  swap1\n  pop\n  jump\t// out\n    /* \"#utility.yul\":241:359   */\ntag_17:\n    /* \"#utility.yul\":328:352   */\n  tag_23\n    /* \"#utility.yul\":346:351   */\n  dup2\n    /* \"#utility.yul\":328:352   */\n  tag_16\n  jump\t// in\ntag_23:\n    /* \"#utility.yul\":323:326   */\n  dup3\n    /* \"#utility.yul\":316:353   */\n  mstore\n    /* \"#utility.yul\":241:359   */\n  pop\n  pop\n  jump\t// out\n    /* \"#utility.yul\":365:587   */\ntag_8:\n    /* \"#utility.yul\":458:462   */\n  0x00\n    /* \"#utility.yul\":496:498   */\n  0x20\n    /* \"#utility.yul\":485:494   */\n  dup3\n    /* \"#utility.yul\":481:499   */\n  add\n    /* \"#utility.yul\":473:499   */\n  swap1\n  pop\n    /* \"#utility.yul\":509:580   */\n  tag_25\n    /* \"#utility.yul\":577:578   */\n  0x00\n    /* \"#utility.yul\":566:575   */\n  dup4\n    /* \"#utility.yul\":562:579   */\n  add\n    /* \"#utility.yul\":553:559   */\n  dup5\n    /* \"#utility.yul\":509:580   */\n  tag_17\n  jump\t// in\ntag_25:\n    /* \"#utility.yul\":365:587   */\n  swap3\n  swap2\n  pop\n  pop\n  jump\t// out\n    /* \"contracts/Fvkry.sol\":305:4182  contract Fvkry is Ownable, ReentrancyGuard {... */\ntag_13:\n  dataSize(sub_0)\n  dup1\n  dataOffset(sub_0)\n  0x00\n  codecopy\n  0x00\n  return\nstop\n\nsub_0: assembly {\n        /* \"contracts/Fvkry.sol\":305:4182  contract Fvkry is Ownable, ReentrancyGuard {... */\n      mstore(0x40, 0x80)\n      jumpi(tag_1, lt(calldatasize, 0x04))\n      shr(0xe0, calldataload(0x00))\n      dup1\n      0x715018a6\n      gt\n      tag_11\n      jumpi\n      dup1\n      0x715018a6\n      eq\n      tag_6\n      jumpi\n      dup1\n      0x8c89a0ad\n      eq\n      tag_7\n      jumpi\n      dup1\n      0x8da5cb5b\n      eq\n      tag_8\n      jumpi\n      dup1\n      0xa0ffe2ba\n      eq\n      tag_9\n      jumpi\n      dup1\n      0xf2fde38b\n      eq\n      tag_10\n      jumpi\n      jump(tag_1)\n    tag_11:\n      dup1\n      0x14205e28\n      eq\n      tag_2\n      jumpi\n      dup1\n      0x3fcbb6ac\n      eq\n      tag_3\n      jumpi\n      dup1\n      0x4ae39e3e\n      eq\n      tag_4\n      jumpi\n      dup1\n      0x5c41ed7c\n      eq\n      tag_5\n      jumpi\n    tag_1:\n      0x00\n      dup1\n      revert\n        /* \"contracts/Fvkry.sol\":3922:4057  function getContractTokenBalance(IERC20 token) external view returns (uint256) {... */\n    tag_2:\n      callvalue\n      dup1\n      iszero\n      tag_12\n      jumpi\n      0x00\n      dup1\n      revert\n    tag_12:\n      pop\n      tag_13\n      0x04\n      dup1\n      calldatasize\n      sub\n      dup2\n      add\n      swap1\n      tag_14\n      swap2\n      swap1\n      tag_15\n      jump\t// in\n    tag_14:\n      tag_16\n      jump\t// in\n    tag_13:\n      mload(0x40)\n      tag_17\n      swap2\n      swap1\n      tag_18\n      jump\t// in\n    tag_17:\n      mload(0x40)\n      dup1\n      swap2\n      sub\n      swap1\n      return\n        /* \"contracts/Fvkry.sol\":2670:3888  function transferAsset(uint256 _assetId, uint256 _amount) external  nonReentrant {... */\n    tag_3:\n      callvalue\n      dup1\n      iszero\n      tag_19\n      jumpi\n      0x00\n      dup1\n      revert\n    tag_19:\n      pop\n      tag_20\n      0x04\n      dup1\n      calldatasize\n      sub\n      dup2\n      add\n      swap1\n      tag_21\n      swap2\n      swap1\n      tag_22\n      jump\t// in\n    tag_21:\n      tag_23\n      jump\t// in\n    tag_20:\n      stop\n        /* \"contracts/Fvkry.sol\":888:1562  function lockETH(uint8 _vault, uint256 _lockperiod) external payable nonReentrant {... */\n    tag_4:\n      tag_24\n      0x04\n      dup1\n      calldatasize\n      sub\n      dup2\n      add\n      swap1\n      tag_25\n      swap2\n      swap1\n      tag_26\n      jump\t// in\n    tag_25:\n      tag_27\n      jump\t// in\n    tag_24:\n      stop\n        /* \"contracts/Fvkry.sol\":1595:2639  function lockToken (IERC20 _token, uint256 _amount, uint8 _vault, uint256 _lockperiod) external nonReentrant {... */\n    tag_5:\n      callvalue\n      dup1\n      iszero\n      tag_28\n      jumpi\n      0x00\n      dup1\n      revert\n    tag_28:\n      pop\n      tag_29\n      0x04\n      dup1\n      calldatasize\n      sub\n      dup2\n      add\n      swap1\n      tag_30\n      swap2\n      swap1\n      tag_31\n      jump\t// in\n    tag_30:\n      tag_32\n      jump\t// in\n    tag_29:\n      stop\n        /* \"@openzeppelin/contracts/access/Ownable.sol\":2293:2394  function renounceOwnership() public virtual onlyOwner {... */\n    tag_6:\n      callvalue\n      dup1\n      iszero\n      tag_33\n      jumpi\n      0x00\n      dup1\n      revert\n    tag_33:\n      pop\n      tag_34\n      tag_35\n      jump\t// in\n    tag_34:\n      stop\n        /* \"contracts/Fvkry.sol\":4065:4177  function getContractETHBalance() external view returns (uint256) {... */\n    tag_7:\n      callvalue\n      dup1\n      iszero\n      tag_36\n      jumpi\n      0x00\n      dup1\n      revert\n    tag_36:\n      pop\n      tag_37\n      tag_38\n      jump\t// in\n    tag_37:\n      mload(0x40)\n      tag_39\n      swap2\n      swap1\n      tag_18\n      jump\t// in\n    tag_39:\n      mload(0x40)\n      dup1\n      swap2\n      sub\n      swap1\n      return\n        /* \"@openzeppelin/contracts/access/Ownable.sol\":1638:1723  function owner() public view virtual returns (address) {... */\n    tag_8:\n      callvalue\n      dup1\n      iszero\n      tag_40\n      jumpi\n      0x00\n      dup1\n      revert\n    tag_40:\n      pop\n      tag_41\n      tag_42\n      jump\t// in\n    tag_41:\n      mload(0x40)\n      tag_43\n      swap2\n      swap1\n      tag_44\n      jump\t// in\n    tag_43:\n      mload(0x40)\n      dup1\n      swap2\n      sub\n      swap1\n      return\n        /* \"contracts/Fvkry.sol\":572:624  mapping  (address => Lock[]) public userLockedAssets */\n    tag_9:\n      callvalue\n      dup1\n      iszero\n      tag_45\n      jumpi\n      0x00\n      dup1\n      revert\n    tag_45:\n      pop\n      tag_46\n      0x04\n      dup1\n      calldatasize\n      sub\n      dup2\n      add\n      swap1\n      tag_47\n      swap2\n      swap1\n      tag_48\n      jump\t// in\n    tag_47:\n      tag_49\n      jump\t// in\n    tag_46:\n      mload(0x40)\n      tag_50\n      swap7\n      swap6\n      swap5\n      swap4\n      swap3\n      swap2\n      swap1\n      tag_51\n      jump\t// in\n    tag_50:\n      mload(0x40)\n      dup1\n      swap2\n      sub\n      swap1\n      return\n        /* \"@openzeppelin/contracts/access/Ownable.sol\":2543:2758  function transferOwnership(address newOwner) public virtual onlyOwner {... */\n    tag_10:\n      callvalue\n      dup1\n      iszero\n      tag_52\n      jumpi\n      0x00\n      dup1\n      revert\n    tag_52:\n      pop\n      tag_53\n      0x04\n      dup1\n      calldatasize\n      sub\n      dup2\n      add\n      swap1\n      tag_54\n      swap2\n      swap1\n      tag_55\n      jump\t// in\n    tag_54:\n      tag_56\n      jump\t// in\n    tag_53:\n      stop\n        /* \"contracts/Fvkry.sol\":3922:4057  function getContractTokenBalance(IERC20 token) external view returns (uint256) {... */\n    tag_16:\n        /* \"contracts/Fvkry.sol\":3992:3999  uint256 */\n      0x00\n        /* \"contracts/Fvkry.sol\":4019:4024  token */\n      dup2\n        /* \"contracts/Fvkry.sol\":4019:4034  token.balanceOf */\n      0xffffffffffffffffffffffffffffffffffffffff\n      and\n      0x70a08231\n        /* \"contracts/Fvkry.sol\":4043:4047  this */\n      address\n        /* \"contracts/Fvkry.sol\":4019:4049  token.balanceOf(address(this)) */\n      mload(0x40)\n      dup3\n      0xffffffff\n      and\n      0xe0\n      shl\n      dup2\n      mstore\n      0x04\n      add\n      tag_58\n      swap2\n      swap1\n      tag_44\n      jump\t// in\n    tag_58:\n      0x20\n      mload(0x40)\n      dup1\n      dup4\n      sub\n      dup2\n      dup7\n      gas\n      staticcall\n      iszero\n      dup1\n      iszero\n      tag_60\n      jumpi\n      returndatasize\n      0x00\n      dup1\n      returndatacopy\n      revert(0x00, returndatasize)\n    tag_60:\n      pop\n      pop\n      pop\n      pop\n      mload(0x40)\n      returndatasize\n      not(0x1f)\n      0x1f\n      dup3\n      add\n      and\n      dup3\n      add\n      dup1\n      0x40\n      mstore\n      pop\n      dup2\n      add\n      swap1\n      tag_61\n      swap2\n      swap1\n      tag_62\n      jump\t// in\n    tag_61:\n        /* \"contracts/Fvkry.sol\":4012:4049  return token.balanceOf(address(this)) */\n      swap1\n      pop\n        /* \"contracts/Fvkry.sol\":3922:4057  function getContractTokenBalance(IERC20 token) external view returns (uint256) {... */\n      swap2\n      swap1\n      pop\n      jump\t// out\n        /* \"contracts/Fvkry.sol\":2670:3888  function transferAsset(uint256 _assetId, uint256 _amount) external  nonReentrant {... */\n    tag_23:\n        /* \"@openzeppelin/contracts/utils/ReentrancyGuard.sol\":2500:2521  _nonReentrantBefore() */\n      tag_64\n        /* \"@openzeppelin/contracts/utils/ReentrancyGuard.sol\":2500:2519  _nonReentrantBefore */\n      tag_65\n        /* \"@openzeppelin/contracts/utils/ReentrancyGuard.sol\":2500:2521  _nonReentrantBefore() */\n      jump\t// in\n    tag_64:\n        /* \"contracts/Fvkry.sol\":2781:2797  userLockedAssets */\n      0x02\n        /* \"contracts/Fvkry.sol\":2781:2809  userLockedAssets[msg.sender] */\n      0x00\n        /* \"contracts/Fvkry.sol\":2798:2808  msg.sender */\n      caller\n        /* \"contracts/Fvkry.sol\":2781:2809  userLockedAssets[msg.sender] */\n      0xffffffffffffffffffffffffffffffffffffffff\n      and\n      0xffffffffffffffffffffffffffffffffffffffff\n      and\n      dup2\n      mstore\n      0x20\n      add\n      swap1\n      dup2\n      mstore\n      0x20\n      add\n      0x00\n      keccak256\n        /* \"contracts/Fvkry.sol\":2781:2816  userLockedAssets[msg.sender].length */\n      dup1\n      sload\n      swap1\n      pop\n        /* \"contracts/Fvkry.sol\":2770:2778  _assetId */\n      dup3\n        /* \"contracts/Fvkry.sol\":2770:2816  _assetId < userLockedAssets[msg.sender].length */\n      lt\n        /* \"contracts/Fvkry.sol\":2762:2855  require(_assetId < userLockedAssets[msg.sender].length, \"The specified asset ID is invalid.\") */\n      tag_67\n      jumpi\n      mload(0x40)\n      0x08c379a000000000000000000000000000000000000000000000000000000000\n      dup2\n      mstore\n      0x04\n      add\n      tag_68\n      swap1\n      tag_69\n      jump\t// in\n    tag_68:\n      mload(0x40)\n      dup1\n      swap2\n      sub\n      swap1\n      revert\n    tag_67:\n        /* \"contracts/Fvkry.sol\":2876:2893  Lock storage lock */\n      0x00\n        /* \"contracts/Fvkry.sol\":2896:2912  userLockedAssets */\n      0x02\n        /* \"contracts/Fvkry.sol\":2896:2924  userLockedAssets[msg.sender] */\n      0x00\n        /* \"contracts/Fvkry.sol\":2913:2923  msg.sender */\n      caller\n        /* \"contracts/Fvkry.sol\":2896:2924  userLockedAssets[msg.sender] */\n      0xffffffffffffffffffffffffffffffffffffffff\n      and\n      0xffffffffffffffffffffffffffffffffffffffff\n      and\n      dup2\n      mstore\n      0x20\n      add\n      swap1\n      dup2\n      mstore\n      0x20\n      add\n      0x00\n      keccak256\n        /* \"contracts/Fvkry.sol\":2925:2933  _assetId */\n      dup4\n        /* \"contracts/Fvkry.sol\":2896:2934  userLockedAssets[msg.sender][_assetId] */\n      dup2\n      sload\n      dup2\n      lt\n      tag_70\n      jumpi\n      tag_71\n      tag_72\n      jump\t// in\n    tag_71:\n    tag_70:\n      swap1\n      0x00\n      mstore\n      keccak256(0x00, 0x20)\n      swap1\n      0x04\n      mul\n      add\n        /* \"contracts/Fvkry.sol\":2876:2934  Lock storage lock = userLockedAssets[msg.sender][_assetId] */\n      swap1\n      pop\n        /* \"contracts/Fvkry.sol\":2956:2960  lock */\n      dup1\n        /* \"contracts/Fvkry.sol\":2956:2970  lock.withdrawn */\n      0x03\n      add\n      0x01\n      swap1\n      sload\n      swap1\n      0x0100\n      exp\n      swap1\n      div\n      0xff\n      and\n        /* \"contracts/Fvkry.sol\":2955:2970  !lock.withdrawn */\n      iszero\n        /* \"contracts/Fvkry.sol\":2947:3009  require(!lock.withdrawn,\"Assets have already been withdrawn!\") */\n      tag_74\n      jumpi\n      mload(0x40)\n      0x08c379a000000000000000000000000000000000000000000000000000000000\n      dup2\n      mstore\n      0x04\n      add\n      tag_75\n      swap1\n      tag_76\n      jump\t// in\n    tag_75:\n      mload(0x40)\n      dup1\n      swap2\n      sub\n      swap1\n      revert\n    tag_74:\n        /* \"contracts/Fvkry.sol\":3046:3050  lock */\n      dup1\n        /* \"contracts/Fvkry.sol\":3046:3062  lock.lockEndTime */\n      0x02\n      add\n      sload\n        /* \"contracts/Fvkry.sol\":3028:3043  block.timestamp */\n      timestamp\n        /* \"contracts/Fvkry.sol\":3028:3062  block.timestamp > lock.lockEndTime */\n      gt\n        /* \"contracts/Fvkry.sol\":3020:3103  require(block.timestamp > lock.lockEndTime, \"The lock period has not yet expired!\") */\n      tag_77\n      jumpi\n      mload(0x40)\n      0x08c379a000000000000000000000000000000000000000000000000000000000\n      dup2\n      mstore\n      0x04\n      add\n      tag_78\n      swap1\n      tag_79\n      jump\t// in\n    tag_78:\n      mload(0x40)\n      dup1\n      swap2\n      sub\n      swap1\n      revert\n    tag_77:\n        /* \"contracts/Fvkry.sol\":3116:3138  uint256  updateBalance */\n      0x00\n        /* \"contracts/Fvkry.sol\":3155:3162  _amount */\n      dup3\n        /* \"contracts/Fvkry.sol\":3141:3145  lock */\n      dup3\n        /* \"contracts/Fvkry.sol\":3141:3152  lock.amount */\n      0x01\n      add\n      sload\n        /* \"contracts/Fvkry.sol\":3141:3162  lock.amount - _amount */\n      tag_80\n      swap2\n      swap1\n      tag_81\n      jump\t// in\n    tag_80:\n        /* \"contracts/Fvkry.sol\":3116:3162  uint256  updateBalance = lock.amount - _amount */\n      swap1\n      pop\n        /* \"contracts/Fvkry.sol\":3199:3200  0 */\n      0x00\n        /* \"contracts/Fvkry.sol\":3182:3195  updateBalance */\n      dup2\n        /* \"contracts/Fvkry.sol\":3182:3200  updateBalance >= 0 */\n      lt\n      iszero\n        /* \"contracts/Fvkry.sol\":3173:3234  require (updateBalance >= 0,\"Not enough assets to withdraw!\") */\n      tag_82\n      jumpi\n      mload(0x40)\n      0x08c379a000000000000000000000000000000000000000000000000000000000\n      dup2\n      mstore\n      0x04\n      add\n      tag_83\n      swap1\n      tag_84\n      jump\t// in\n    tag_83:\n      mload(0x40)\n      dup1\n      swap2\n      sub\n      swap1\n      revert\n    tag_82:\n        /* \"contracts/Fvkry.sol\":3296:3297  0 */\n      0x00\n        /* \"contracts/Fvkry.sol\":3279:3292  updateBalance */\n      dup2\n        /* \"contracts/Fvkry.sol\":3279:3297  updateBalance == 0 */\n      sub\n        /* \"contracts/Fvkry.sol\":3276:3381  if(updateBalance == 0) {... */\n      tag_85\n      jumpi\n        /* \"contracts/Fvkry.sol\":3365:3369  true */\n      0x01\n        /* \"contracts/Fvkry.sol\":3314:3330  userLockedAssets */\n      0x02\n        /* \"contracts/Fvkry.sol\":3314:3342  userLockedAssets[msg.sender] */\n      0x00\n        /* \"contracts/Fvkry.sol\":3331:3341  msg.sender */\n      caller\n        /* \"contracts/Fvkry.sol\":3314:3342  userLockedAssets[msg.sender] */\n      0xffffffffffffffffffffffffffffffffffffffff\n      and\n      0xffffffffffffffffffffffffffffffffffffffff\n      and\n      dup2\n      mstore\n      0x20\n      add\n      swap1\n      dup2\n      mstore\n      0x20\n      add\n      0x00\n      keccak256\n        /* \"contracts/Fvkry.sol\":3343:3351  _assetId */\n      dup6\n        /* \"contracts/Fvkry.sol\":3314:3352  userLockedAssets[msg.sender][_assetId] */\n      dup2\n      sload\n      dup2\n      lt\n      tag_86\n      jumpi\n      tag_87\n      tag_72\n      jump\t// in\n    tag_87:\n    tag_86:\n      swap1\n      0x00\n      mstore\n      keccak256(0x00, 0x20)\n      swap1\n      0x04\n      mul\n      add\n        /* \"contracts/Fvkry.sol\":3314:3362  userLockedAssets[msg.sender][_assetId].withdrawn */\n      0x03\n      add\n      0x01\n        /* \"contracts/Fvkry.sol\":3314:3369  userLockedAssets[msg.sender][_assetId].withdrawn = true */\n      0x0100\n      exp\n      dup2\n      sload\n      dup2\n      0xff\n      mul\n      not\n      and\n      swap1\n      dup4\n      iszero\n      iszero\n      mul\n      or\n      swap1\n      sstore\n      pop\n        /* \"contracts/Fvkry.sol\":3276:3381  if(updateBalance == 0) {... */\n    tag_85:\n        /* \"contracts/Fvkry.sol\":3470:3483  updateBalance */\n      dup1\n        /* \"contracts/Fvkry.sol\":3422:3438  userLockedAssets */\n      0x02\n        /* \"contracts/Fvkry.sol\":3422:3450  userLockedAssets[msg.sender] */\n      0x00\n        /* \"contracts/Fvkry.sol\":3439:3449  msg.sender */\n      caller\n        /* \"contracts/Fvkry.sol\":3422:3450  userLockedAssets[msg.sender] */\n      0xffffffffffffffffffffffffffffffffffffffff\n      and\n      0xffffffffffffffffffffffffffffffffffffffff\n      and\n      dup2\n      mstore\n      0x20\n      add\n      swap1\n      dup2\n      mstore\n      0x20\n      add\n      0x00\n      keccak256\n        /* \"contracts/Fvkry.sol\":3451:3459  _assetId */\n      dup6\n        /* \"contracts/Fvkry.sol\":3422:3460  userLockedAssets[msg.sender][_assetId] */\n      dup2\n      sload\n      dup2\n      lt\n      tag_89\n      jumpi\n      tag_90\n      tag_72\n      jump\t// in\n    tag_90:\n    tag_89:\n      swap1\n      0x00\n      mstore\n      keccak256(0x00, 0x20)\n      swap1\n      0x04\n      mul\n      add\n        /* \"contracts/Fvkry.sol\":3422:3467  userLockedAssets[msg.sender][_assetId].amount */\n      0x01\n      add\n        /* \"contracts/Fvkry.sol\":3422:3483  userLockedAssets[msg.sender][_assetId].amount = updateBalance */\n      dup2\n      swap1\n      sstore\n      pop\n        /* \"contracts/Fvkry.sol\":3503:3507  lock */\n      dup2\n        /* \"contracts/Fvkry.sol\":3503:3516  lock.isNative */\n      0x03\n      add\n      0x02\n      swap1\n      sload\n      swap1\n      0x0100\n      exp\n      swap1\n      div\n      0xff\n      and\n        /* \"contracts/Fvkry.sol\":3500:3805  if(lock.isNative) {... */\n      iszero\n      tag_92\n      jumpi\n        /* \"contracts/Fvkry.sol\":3563:3575  bool success */\n      0x00\n        /* \"contracts/Fvkry.sol\":3581:3591  msg.sender */\n      caller\n        /* \"contracts/Fvkry.sol\":3581:3596  msg.sender.call */\n      0xffffffffffffffffffffffffffffffffffffffff\n      and\n        /* \"contracts/Fvkry.sol\":3604:3611  _amount */\n      dup5\n        /* \"contracts/Fvkry.sol\":3581:3616  msg.sender.call{value: _amount}(\"\") */\n      mload(0x40)\n      tag_93\n      swap1\n      tag_94\n      jump\t// in\n    tag_93:\n      0x00\n      mload(0x40)\n      dup1\n      dup4\n      sub\n      dup2\n      dup6\n      dup8\n      gas\n      call\n      swap3\n      pop\n      pop\n      pop\n      returndatasize\n      dup1\n      0x00\n      dup2\n      eq\n      tag_97\n      jumpi\n      mload(0x40)\n      swap2\n      pop\n      and(add(returndatasize, 0x3f), not(0x1f))\n      dup3\n      add\n      0x40\n      mstore\n      returndatasize\n      dup3\n      mstore\n      returndatasize\n      0x00\n      0x20\n      dup5\n      add\n      returndatacopy\n      jump(tag_96)\n    tag_97:\n      0x60\n      swap2\n      pop\n    tag_96:\n      pop\n        /* \"contracts/Fvkry.sol\":3562:3616  (bool success, ) = msg.sender.call{value: _amount}(\"\") */\n      pop\n      swap1\n      pop\n        /* \"contracts/Fvkry.sol\":3639:3646  success */\n      dup1\n        /* \"contracts/Fvkry.sol\":3631:3670  require(success, \"ETH transfer failed\") */\n      tag_98\n      jumpi\n      mload(0x40)\n      0x08c379a000000000000000000000000000000000000000000000000000000000\n      dup2\n      mstore\n      0x04\n      add\n      tag_99\n      swap1\n      tag_100\n      jump\t// in\n    tag_99:\n      mload(0x40)\n      dup1\n      swap2\n      sub\n      swap1\n      revert\n    tag_98:\n        /* \"contracts/Fvkry.sol\":3518:3682  {... */\n      pop\n        /* \"contracts/Fvkry.sol\":3500:3805  if(lock.isNative) {... */\n      jump(tag_101)\n    tag_92:\n        /* \"contracts/Fvkry.sol\":3741:3793  IERC20(lock.token).safeTransfer(msg.sender, _amount) */\n      tag_102\n        /* \"contracts/Fvkry.sol\":3773:3783  msg.sender */\n      caller\n        /* \"contracts/Fvkry.sol\":3785:3792  _amount */\n      dup5\n        /* \"contracts/Fvkry.sol\":3748:3752  lock */\n      dup5\n        /* \"contracts/Fvkry.sol\":3748:3758  lock.token */\n      0x00\n      add\n      0x00\n      swap1\n      sload\n      swap1\n      0x0100\n      exp\n      swap1\n      div\n      0xffffffffffffffffffffffffffffffffffffffff\n      and\n        /* \"contracts/Fvkry.sol\":3741:3772  IERC20(lock.token).safeTransfer */\n      0xffffffffffffffffffffffffffffffffffffffff\n      and\n      tag_103\n      swap1\n        /* \"contracts/Fvkry.sol\":3741:3793  IERC20(lock.token).safeTransfer(msg.sender, _amount) */\n      swap3\n      swap2\n      swap1\n      0xffffffff\n      and\n      jump\t// in\n    tag_102:\n        /* \"contracts/Fvkry.sol\":3500:3805  if(lock.isNative) {... */\n    tag_101:\n        /* \"contracts/Fvkry.sol\":3846:3850  lock */\n      dup2\n        /* \"contracts/Fvkry.sol\":3846:3856  lock.token */\n      0x00\n      add\n      0x00\n      swap1\n      sload\n      swap1\n      0x0100\n      exp\n      swap1\n      div\n      0xffffffffffffffffffffffffffffffffffffffff\n      and\n        /* \"contracts/Fvkry.sol\":3822:3880  AssetTransfered(address(lock.token), _amount , lock.vault) */\n      0xffffffffffffffffffffffffffffffffffffffff\n      and\n      0xc609bb1b9c1bfb64d61dbdff01ddbdc74ec1a868f724ceb4991148740c7e423c\n        /* \"contracts/Fvkry.sol\":3859:3866  _amount */\n      dup5\n        /* \"contracts/Fvkry.sol\":3869:3873  lock */\n      dup5\n        /* \"contracts/Fvkry.sol\":3869:3879  lock.vault */\n      0x03\n      add\n      0x00\n      swap1\n      sload\n      swap1\n      0x0100\n      exp\n      swap1\n      div\n      0xff\n      and\n        /* \"contracts/Fvkry.sol\":3822:3880  AssetTransfered(address(lock.token), _amount , lock.vault) */\n      mload(0x40)\n      tag_104\n      swap3\n      swap2\n      swap1\n      tag_105\n      jump\t// in\n    tag_104:\n      mload(0x40)\n      dup1\n      swap2\n      sub\n      swap1\n      log2\n        /* \"contracts/Fvkry.sol\":2751:3888  {... */\n      pop\n      pop\n        /* \"@openzeppelin/contracts/utils/ReentrancyGuard.sol\":2542:2562  _nonReentrantAfter() */\n      tag_106\n        /* \"@openzeppelin/contracts/utils/ReentrancyGuard.sol\":2542:2560  _nonReentrantAfter */\n      tag_107\n        /* \"@openzeppelin/contracts/utils/ReentrancyGuard.sol\":2542:2562  _nonReentrantAfter() */\n      jump\t// in\n    tag_106:\n        /* \"contracts/Fvkry.sol\":2670:3888  function transferAsset(uint256 _assetId, uint256 _amount) external  nonReentrant {... */\n      pop\n      pop\n      jump\t// out\n        /* \"contracts/Fvkry.sol\":888:1562  function lockETH(uint8 _vault, uint256 _lockperiod) external payable nonReentrant {... */\n    tag_27:\n        /* \"@openzeppelin/contracts/utils/ReentrancyGuard.sol\":2500:2521  _nonReentrantBefore() */\n      tag_109\n        /* \"@openzeppelin/contracts/utils/ReentrancyGuard.sol\":2500:2519  _nonReentrantBefore */\n      tag_65\n        /* \"@openzeppelin/contracts/utils/ReentrancyGuard.sol\":2500:2521  _nonReentrantBefore() */\n      jump\t// in\n    tag_109:\n        /* \"contracts/Fvkry.sol\":1001:1002  0 */\n      0x00\n        /* \"contracts/Fvkry.sol\":989:998  msg.value */\n      callvalue\n        /* \"contracts/Fvkry.sol\":989:1002  msg.value > 0 */\n      gt\n        /* \"contracts/Fvkry.sol\":981:1046  require(msg.value > 0, \"ETH to lock must a value greater than 0\") */\n      tag_111\n      jumpi\n      mload(0x40)\n      0x08c379a000000000000000000000000000000000000000000000000000000000\n      dup2\n      mstore\n      0x04\n      add\n      tag_112\n      swap1\n      tag_113\n      jump\t// in\n    tag_112:\n      mload(0x40)\n      dup1\n      swap2\n      sub\n      swap1\n      revert\n    tag_111:\n        /* \"contracts/Fvkry.sol\":1079:1080  0 */\n      0x00\n        /* \"contracts/Fvkry.sol\":1065:1076  _lockperiod */\n      dup2\n        /* \"contracts/Fvkry.sol\":1065:1080  _lockperiod > 0 */\n      gt\n        /* \"contracts/Fvkry.sol\":1057:1125  require(_lockperiod > 0, \"The lockperiod must be greater then zero\") */\n      tag_114\n      jumpi\n      mload(0x40)\n      0x08c379a000000000000000000000000000000000000000000000000000000000\n      dup2\n      mstore\n      0x04\n      add\n      tag_115\n      swap1\n      tag_116\n      jump\t// in\n    tag_115:\n      mload(0x40)\n      dup1\n      swap2\n      sub\n      swap1\n      revert\n    tag_114:\n        /* \"contracts/Fvkry.sol\":1176:1192  userLockedAssets */\n      0x02\n        /* \"contracts/Fvkry.sol\":1176:1204  userLockedAssets[msg.sender] */\n      0x00\n        /* \"contracts/Fvkry.sol\":1193:1203  msg.sender */\n      caller\n        /* \"contracts/Fvkry.sol\":1176:1204  userLockedAssets[msg.sender] */\n      0xffffffffffffffffffffffffffffffffffffffff\n      and\n      0xffffffffffffffffffffffffffffffffffffffff\n      and\n      dup2\n      mstore\n      0x20\n      add\n      swap1\n      dup2\n      mstore\n      0x20\n      add\n      0x00\n      keccak256\n        /* \"contracts/Fvkry.sol\":1210:1448  Lock({... */\n      mload(0x40)\n      dup1\n      0xc0\n      add\n      0x40\n      mstore\n      dup1\n        /* \"contracts/Fvkry.sol\":1245:1246  0 */\n      0x00\n        /* \"contracts/Fvkry.sol\":1210:1448  Lock({... */\n      0xffffffffffffffffffffffffffffffffffffffff\n      and\n      dup2\n      mstore\n      0x20\n      add\n        /* \"contracts/Fvkry.sol\":1271:1280  msg.value */\n      callvalue\n        /* \"contracts/Fvkry.sol\":1210:1448  Lock({... */\n      dup2\n      mstore\n      0x20\n      add\n        /* \"contracts/Fvkry.sol\":1328:1339  _lockperiod */\n      dup4\n        /* \"contracts/Fvkry.sol\":1310:1325  block.timestamp */\n      timestamp\n        /* \"contracts/Fvkry.sol\":1310:1339  block.timestamp + _lockperiod */\n      tag_117\n      swap2\n      swap1\n      tag_118\n      jump\t// in\n    tag_117:\n        /* \"contracts/Fvkry.sol\":1210:1448  Lock({... */\n      dup2\n      mstore\n      0x20\n      add\n        /* \"contracts/Fvkry.sol\":1361:1367  _vault */\n      dup5\n        /* \"contracts/Fvkry.sol\":1210:1448  Lock({... */\n      0xff\n      and\n      dup2\n      mstore\n      0x20\n      add\n        /* \"contracts/Fvkry.sol\":1397:1402  false */\n      0x00\n        /* \"contracts/Fvkry.sol\":1210:1448  Lock({... */\n      iszero\n      iszero\n      dup2\n      mstore\n      0x20\n      add\n        /* \"contracts/Fvkry.sol\":1430:1434  true */\n      0x01\n        /* \"contracts/Fvkry.sol\":1210:1448  Lock({... */\n      iszero\n      iszero\n      dup2\n      mstore\n      pop\n        /* \"contracts/Fvkry.sol\":1176:1449  userLockedAssets[msg.sender].push(Lock({... */\n      swap1\n      dup1\n      0x01\n      dup2\n      sload\n      add\n      dup1\n      dup3\n      sstore\n      dup1\n      swap2\n      pop\n      pop\n      0x01\n      swap1\n      sub\n      swap1\n      0x00\n      mstore\n      keccak256(0x00, 0x20)\n      swap1\n      0x04\n      mul\n      add\n      0x00\n      swap1\n      swap2\n      swap1\n      swap2\n      swap1\n      swap2\n      pop\n      0x00\n      dup3\n      add\n      mload\n      dup2\n      0x00\n      add\n      exp(0x0100, 0x00)\n      dup2\n      sload\n      dup2\n      0xffffffffffffffffffffffffffffffffffffffff\n      mul\n      not\n      and\n      swap1\n      dup4\n      0xffffffffffffffffffffffffffffffffffffffff\n      and\n      mul\n      or\n      swap1\n      sstore\n      pop\n      0x20\n      dup3\n      add\n      mload\n      dup2\n      0x01\n      add\n      sstore\n      0x40\n      dup3\n      add\n      mload\n      dup2\n      0x02\n      add\n      sstore\n      0x60\n      dup3\n      add\n      mload\n      dup2\n      0x03\n      add\n      exp(0x0100, 0x00)\n      dup2\n      sload\n      dup2\n      0xff\n      mul\n      not\n      and\n      swap1\n      dup4\n      0xff\n      and\n      mul\n      or\n      swap1\n      sstore\n      pop\n      0x80\n      dup3\n      add\n      mload\n      dup2\n      0x03\n      add\n      exp(0x0100, 0x01)\n      dup2\n      sload\n      dup2\n      0xff\n      mul\n      not\n      and\n      swap1\n      dup4\n      iszero\n      iszero\n      mul\n      or\n      swap1\n      sstore\n      pop\n      0xa0\n      dup3\n      add\n      mload\n      dup2\n      0x03\n      add\n      exp(0x0100, 0x02)\n      dup2\n      sload\n      dup2\n      0xff\n      mul\n      not\n      and\n      swap1\n      dup4\n      iszero\n      iszero\n      mul\n      or\n      swap1\n      sstore\n      pop\n      pop\n      pop\n        /* \"contracts/Fvkry.sol\":1501:1502  0 */\n      0x00\n        /* \"contracts/Fvkry.sol\":1481:1554  AssetLocked(address(0), msg.value, _vault, block.timestamp + _lockperiod) */\n      0xffffffffffffffffffffffffffffffffffffffff\n      and\n      0x93e2e96397ee6091fadabbe37102770c2ed73784ac2b17d1de3d8afcb368ea41\n        /* \"contracts/Fvkry.sol\":1505:1514  msg.value */\n      callvalue\n        /* \"contracts/Fvkry.sol\":1516:1522  _vault */\n      dup5\n        /* \"contracts/Fvkry.sol\":1542:1553  _lockperiod */\n      dup5\n        /* \"contracts/Fvkry.sol\":1524:1539  block.timestamp */\n      timestamp\n        /* \"contracts/Fvkry.sol\":1524:1553  block.timestamp + _lockperiod */\n      tag_120\n      swap2\n      swap1\n      tag_118\n      jump\t// in\n    tag_120:\n        /* \"contracts/Fvkry.sol\":1481:1554  AssetLocked(address(0), msg.value, _vault, block.timestamp + _lockperiod) */\n      mload(0x40)\n      tag_121\n      swap4\n      swap3\n      swap2\n      swap1\n      tag_122\n      jump\t// in\n    tag_121:\n      mload(0x40)\n      dup1\n      swap2\n      sub\n      swap1\n      log2\n        /* \"@openzeppelin/contracts/utils/ReentrancyGuard.sol\":2542:2562  _nonReentrantAfter() */\n      tag_123\n        /* \"@openzeppelin/contracts/utils/ReentrancyGuard.sol\":2542:2560  _nonReentrantAfter */\n      tag_107\n        /* \"@openzeppelin/contracts/utils/ReentrancyGuard.sol\":2542:2562  _nonReentrantAfter() */\n      jump\t// in\n    tag_123:\n        /* \"contracts/Fvkry.sol\":888:1562  function lockETH(uint8 _vault, uint256 _lockperiod) external payable nonReentrant {... */\n      pop\n      pop\n      jump\t// out\n        /* \"contracts/Fvkry.sol\":1595:2639  function lockToken (IERC20 _token, uint256 _amount, uint8 _vault, uint256 _lockperiod) external nonReentrant {... */\n    tag_32:\n        /* \"@openzeppelin/contracts/utils/ReentrancyGuard.sol\":2500:2521  _nonReentrantBefore() */\n      tag_125\n        /* \"@openzeppelin/contracts/utils/ReentrancyGuard.sol\":2500:2519  _nonReentrantBefore */\n      tag_65\n        /* \"@openzeppelin/contracts/utils/ReentrancyGuard.sol\":2500:2521  _nonReentrantBefore() */\n      jump\t// in\n    tag_125:\n        /* \"contracts/Fvkry.sol\":1750:1751  0 */\n      0x00\n        /* \"contracts/Fvkry.sol\":1723:1752  address(_token) != address(0) */\n      0xffffffffffffffffffffffffffffffffffffffff\n      and\n        /* \"contracts/Fvkry.sol\":1731:1737  _token */\n      dup5\n        /* \"contracts/Fvkry.sol\":1723:1752  address(_token) != address(0) */\n      0xffffffffffffffffffffffffffffffffffffffff\n      and\n      sub\n        /* \"contracts/Fvkry.sol\":1715:1791  require(address(_token) != address(0), \"Must provide a valid token address\") */\n      tag_127\n      jumpi\n      mload(0x40)\n      0x08c379a000000000000000000000000000000000000000000000000000000000\n      dup2\n      mstore\n      0x04\n      add\n      tag_128\n      swap1\n      tag_129\n      jump\t// in\n    tag_128:\n      mload(0x40)\n      dup1\n      swap2\n      sub\n      swap1\n      revert\n    tag_127:\n        /* \"contracts/Fvkry.sol\":1820:1821  0 */\n      0x00\n        /* \"contracts/Fvkry.sol\":1810:1817  _amount */\n      dup4\n        /* \"contracts/Fvkry.sol\":1810:1821  _amount > 0 */\n      gt\n        /* \"contracts/Fvkry.sol\":1802:1864  require(_amount > 0, \"Token amount must be greater then zero\") */\n      tag_130\n      jumpi\n      mload(0x40)\n      0x08c379a000000000000000000000000000000000000000000000000000000000\n      dup2\n      mstore\n      0x04\n      add\n      tag_131\n      swap1\n      tag_132\n      jump\t// in\n    tag_131:\n      mload(0x40)\n      dup1\n      swap2\n      sub\n      swap1\n      revert\n    tag_130:\n        /* \"contracts/Fvkry.sol\":1897:1898  0 */\n      0x00\n        /* \"contracts/Fvkry.sol\":1883:1894  _lockperiod */\n      dup2\n        /* \"contracts/Fvkry.sol\":1883:1898  _lockperiod > 0 */\n      gt\n        /* \"contracts/Fvkry.sol\":1875:1944  require(_lockperiod > 0, \"The lock period must be greater then zero\") */\n      tag_133\n      jumpi\n      mload(0x40)\n      0x08c379a000000000000000000000000000000000000000000000000000000000\n      dup2\n      mstore\n      0x04\n      add\n      tag_134\n      swap1\n      tag_135\n      jump\t// in\n    tag_134:\n      mload(0x40)\n      dup1\n      swap2\n      sub\n      swap1\n      revert\n    tag_133:\n        /* \"contracts/Fvkry.sol\":1957:1978  uint256 _tokenBalance */\n      0x00\n        /* \"contracts/Fvkry.sol\":1981:1987  _token */\n      dup5\n        /* \"contracts/Fvkry.sol\":1981:1997  _token.balanceOf */\n      0xffffffffffffffffffffffffffffffffffffffff\n      and\n      0x70a08231\n        /* \"contracts/Fvkry.sol\":1998:2008  msg.sender */\n      caller\n        /* \"contracts/Fvkry.sol\":1981:2009  _token.balanceOf(msg.sender) */\n      mload(0x40)\n      dup3\n      0xffffffff\n      and\n      0xe0\n      shl\n      dup2\n      mstore\n      0x04\n      add\n      tag_136\n      swap2\n      swap1\n      tag_44\n      jump\t// in\n    tag_136:\n      0x20\n      mload(0x40)\n      dup1\n      dup4\n      sub\n      dup2\n      dup7\n      gas\n      staticcall\n      iszero\n      dup1\n      iszero\n      tag_138\n      jumpi\n      returndatasize\n      0x00\n      dup1\n      returndatacopy\n      revert(0x00, returndatasize)\n    tag_138:\n      pop\n      pop\n      pop\n      pop\n      mload(0x40)\n      returndatasize\n      not(0x1f)\n      0x1f\n      dup3\n      add\n      and\n      dup3\n      add\n      dup1\n      0x40\n      mstore\n      pop\n      dup2\n      add\n      swap1\n      tag_139\n      swap2\n      swap1\n      tag_62\n      jump\t// in\n    tag_139:\n        /* \"contracts/Fvkry.sol\":1957:2009  uint256 _tokenBalance = _token.balanceOf(msg.sender) */\n      swap1\n      pop\n        /* \"contracts/Fvkry.sol\":2040:2053  _tokenBalance */\n      dup1\n        /* \"contracts/Fvkry.sol\":2029:2036  _amount */\n      dup5\n        /* \"contracts/Fvkry.sol\":2029:2053  _amount <= _tokenBalance */\n      gt\n      iszero\n        /* \"contracts/Fvkry.sol\":2020:2083  require (_amount <= _tokenBalance, \"Not enough tokens to lock\") */\n      tag_140\n      jumpi\n      mload(0x40)\n      0x08c379a000000000000000000000000000000000000000000000000000000000\n      dup2\n      mstore\n      0x04\n      add\n      tag_141\n      swap1\n      tag_142\n      jump\t// in\n    tag_141:\n      mload(0x40)\n      dup1\n      swap2\n      sub\n      swap1\n      revert\n    tag_140:\n        /* \"contracts/Fvkry.sol\":2146:2205  _token.safeTransferFrom(msg.sender, address(this), _amount) */\n      tag_143\n        /* \"contracts/Fvkry.sol\":2170:2180  msg.sender */\n      caller\n        /* \"contracts/Fvkry.sol\":2190:2194  this */\n      address\n        /* \"contracts/Fvkry.sol\":2197:2204  _amount */\n      dup7\n        /* \"contracts/Fvkry.sol\":2146:2152  _token */\n      dup9\n        /* \"contracts/Fvkry.sol\":2146:2169  _token.safeTransferFrom */\n      0xffffffffffffffffffffffffffffffffffffffff\n      and\n      tag_144\n      swap1\n        /* \"contracts/Fvkry.sol\":2146:2205  _token.safeTransferFrom(msg.sender, address(this), _amount) */\n      swap4\n      swap3\n      swap2\n      swap1\n      0xffffffff\n      and\n      jump\t// in\n    tag_143:\n        /* \"contracts/Fvkry.sol\":2260:2276  userLockedAssets */\n      0x02\n        /* \"contracts/Fvkry.sol\":2260:2288  userLockedAssets[msg.sender] */\n      0x00\n        /* \"contracts/Fvkry.sol\":2277:2287  msg.sender */\n      caller\n        /* \"contracts/Fvkry.sol\":2260:2288  userLockedAssets[msg.sender] */\n      0xffffffffffffffffffffffffffffffffffffffff\n      and\n      0xffffffffffffffffffffffffffffffffffffffff\n      and\n      dup2\n      mstore\n      0x20\n      add\n      swap1\n      dup2\n      mstore\n      0x20\n      add\n      0x00\n      keccak256\n        /* \"contracts/Fvkry.sol\":2294:2536  Lock({... */\n      mload(0x40)\n      dup1\n      0xc0\n      add\n      0x40\n      mstore\n      dup1\n        /* \"contracts/Fvkry.sol\":2329:2335  _token */\n      dup8\n        /* \"contracts/Fvkry.sol\":2294:2536  Lock({... */\n      0xffffffffffffffffffffffffffffffffffffffff\n      and\n      dup2\n      mstore\n      0x20\n      add\n        /* \"contracts/Fvkry.sol\":2360:2367  _amount */\n      dup7\n        /* \"contracts/Fvkry.sol\":2294:2536  Lock({... */\n      dup2\n      mstore\n      0x20\n      add\n        /* \"contracts/Fvkry.sol\":2415:2426  _lockperiod */\n      dup5\n        /* \"contracts/Fvkry.sol\":2397:2412  block.timestamp */\n      timestamp\n        /* \"contracts/Fvkry.sol\":2397:2426  block.timestamp + _lockperiod */\n      tag_145\n      swap2\n      swap1\n      tag_118\n      jump\t// in\n    tag_145:\n        /* \"contracts/Fvkry.sol\":2294:2536  Lock({... */\n      dup2\n      mstore\n      0x20\n      add\n        /* \"contracts/Fvkry.sol\":2448:2454  _vault */\n      dup6\n        /* \"contracts/Fvkry.sol\":2294:2536  Lock({... */\n      0xff\n      and\n      dup2\n      mstore\n      0x20\n      add\n        /* \"contracts/Fvkry.sol\":2484:2489  false */\n      0x00\n        /* \"contracts/Fvkry.sol\":2294:2536  Lock({... */\n      iszero\n      iszero\n      dup2\n      mstore\n      0x20\n      add\n        /* \"contracts/Fvkry.sol\":2517:2522  false */\n      0x00\n        /* \"contracts/Fvkry.sol\":2294:2536  Lock({... */\n      iszero\n      iszero\n      dup2\n      mstore\n      pop\n        /* \"contracts/Fvkry.sol\":2260:2537  userLockedAssets[msg.sender].push(Lock({... */\n      swap1\n      dup1\n      0x01\n      dup2\n      sload\n      add\n      dup1\n      dup3\n      sstore\n      dup1\n      swap2\n      pop\n      pop\n      0x01\n      swap1\n      sub\n      swap1\n      0x00\n      mstore\n      keccak256(0x00, 0x20)\n      swap1\n      0x04\n      mul\n      add\n      0x00\n      swap1\n      swap2\n      swap1\n      swap2\n      swap1\n      swap2\n      pop\n      0x00\n      dup3\n      add\n      mload\n      dup2\n      0x00\n      add\n      exp(0x0100, 0x00)\n      dup2\n      sload\n      dup2\n      0xffffffffffffffffffffffffffffffffffffffff\n      mul\n      not\n      and\n      swap1\n      dup4\n      0xffffffffffffffffffffffffffffffffffffffff\n      and\n      mul\n      or\n      swap1\n      sstore\n      pop\n      0x20\n      dup3\n      add\n      mload\n      dup2\n      0x01\n      add\n      sstore\n      0x40\n      dup3\n      add\n      mload\n      dup2\n      0x02\n      add\n      sstore\n      0x60\n      dup3\n      add\n      mload\n      dup2\n      0x03\n      add\n      exp(0x0100, 0x00)\n      dup2\n      sload\n      dup2\n      0xff\n      mul\n      not\n      and\n      swap1\n      dup4\n      0xff\n      and\n      mul\n      or\n      swap1\n      sstore\n      pop\n      0x80\n      dup3\n      add\n      mload\n      dup2\n      0x03\n      add\n      exp(0x0100, 0x01)\n      dup2\n      sload\n      dup2\n      0xff\n      mul\n      not\n      and\n      swap1\n      dup4\n      iszero\n      iszero\n      mul\n      or\n      swap1\n      sstore\n      pop\n      0xa0\n      dup3\n      add\n      mload\n      dup2\n      0x03\n      add\n      exp(0x0100, 0x02)\n      dup2\n      sload\n      dup2\n      0xff\n      mul\n      not\n      and\n      swap1\n      dup4\n      iszero\n      iszero\n      mul\n      or\n      swap1\n      sstore\n      pop\n      pop\n      pop\n        /* \"contracts/Fvkry.sol\":2575:2581  _token */\n      dup5\n        /* \"contracts/Fvkry.sol\":2555:2631  AssetLocked(address(_token), _amount, _vault, block.timestamp + _lockperiod) */\n      0xffffffffffffffffffffffffffffffffffffffff\n      and\n      0x93e2e96397ee6091fadabbe37102770c2ed73784ac2b17d1de3d8afcb368ea41\n        /* \"contracts/Fvkry.sol\":2584:2591  _amount */\n      dup6\n        /* \"contracts/Fvkry.sol\":2593:2599  _vault */\n      dup6\n        /* \"contracts/Fvkry.sol\":2619:2630  _lockperiod */\n      dup6\n        /* \"contracts/Fvkry.sol\":2601:2616  block.timestamp */\n      timestamp\n        /* \"contracts/Fvkry.sol\":2601:2630  block.timestamp + _lockperiod */\n      tag_147\n      swap2\n      swap1\n      tag_118\n      jump\t// in\n    tag_147:\n        /* \"contracts/Fvkry.sol\":2555:2631  AssetLocked(address(_token), _amount, _vault, block.timestamp + _lockperiod) */\n      mload(0x40)\n      tag_148\n      swap4\n      swap3\n      swap2\n      swap1\n      tag_122\n      jump\t// in\n    tag_148:\n      mload(0x40)\n      dup1\n      swap2\n      sub\n      swap1\n      log2\n        /* \"contracts/Fvkry.sol\":1704:2639  {... */\n      pop\n        /* \"@openzeppelin/contracts/utils/ReentrancyGuard.sol\":2542:2562  _nonReentrantAfter() */\n      tag_149\n        /* \"@openzeppelin/contracts/utils/ReentrancyGuard.sol\":2542:2560  _nonReentrantAfter */\n      tag_107\n        /* \"@openzeppelin/contracts/utils/ReentrancyGuard.sol\":2542:2562  _nonReentrantAfter() */\n      jump\t// in\n    tag_149:\n        /* \"contracts/Fvkry.sol\":1595:2639  function lockToken (IERC20 _token, uint256 _amount, uint8 _vault, uint256 _lockperiod) external nonReentrant {... */\n      pop\n      pop\n      pop\n      pop\n      jump\t// out\n        /* \"@openzeppelin/contracts/access/Ownable.sol\":2293:2394  function renounceOwnership() public virtual onlyOwner {... */\n    tag_35:\n        /* \"@openzeppelin/contracts/access/Ownable.sol\":1531:1544  _checkOwner() */\n      tag_151\n        /* \"@openzeppelin/contracts/access/Ownable.sol\":1531:1542  _checkOwner */\n      tag_152\n        /* \"@openzeppelin/contracts/access/Ownable.sol\":1531:1544  _checkOwner() */\n      jump\t// in\n    tag_151:\n        /* \"@openzeppelin/contracts/access/Ownable.sol\":2357:2387  _transferOwnership(address(0)) */\n      tag_154\n        /* \"@openzeppelin/contracts/access/Ownable.sol\":2384:2385  0 */\n      0x00\n        /* \"@openzeppelin/contracts/access/Ownable.sol\":2357:2375  _transferOwnership */\n      tag_155\n        /* \"@openzeppelin/contracts/access/Ownable.sol\":2357:2387  _transferOwnership(address(0)) */\n      jump\t// in\n    tag_154:\n        /* \"@openzeppelin/contracts/access/Ownable.sol\":2293:2394  function renounceOwnership() public virtual onlyOwner {... */\n      jump\t// out\n        /* \"contracts/Fvkry.sol\":4065:4177  function getContractETHBalance() external view returns (uint256) {... */\n    tag_38:\n        /* \"contracts/Fvkry.sol\":4121:4128  uint256 */\n      0x00\n        /* \"contracts/Fvkry.sol\":4148:4169  address(this).balance */\n      selfbalance\n        /* \"contracts/Fvkry.sol\":4141:4169  return address(this).balance */\n      swap1\n      pop\n        /* \"contracts/Fvkry.sol\":4065:4177  function getContractETHBalance() external view returns (uint256) {... */\n      swap1\n      jump\t// out\n        /* \"@openzeppelin/contracts/access/Ownable.sol\":1638:1723  function owner() public view virtual returns (address) {... */\n    tag_42:\n        /* \"@openzeppelin/contracts/access/Ownable.sol\":1684:1691  address */\n      0x00\n        /* \"@openzeppelin/contracts/access/Ownable.sol\":1710:1716  _owner */\n      dup1\n      0x00\n      swap1\n      sload\n      swap1\n      0x0100\n      exp\n      swap1\n      div\n      0xffffffffffffffffffffffffffffffffffffffff\n      and\n        /* \"@openzeppelin/contracts/access/Ownable.sol\":1703:1716  return _owner */\n      swap1\n      pop\n        /* \"@openzeppelin/contracts/access/Ownable.sol\":1638:1723  function owner() public view virtual returns (address) {... */\n      swap1\n      jump\t// out\n        /* \"contracts/Fvkry.sol\":572:624  mapping  (address => Lock[]) public userLockedAssets */\n    tag_49:\n      mstore(0x20, 0x02)\n      dup2\n      0x00\n      mstore\n      keccak256(0x00, 0x40)\n      dup2\n      dup2\n      sload\n      dup2\n      lt\n      tag_158\n      jumpi\n      0x00\n      dup1\n      revert\n    tag_158:\n      swap1\n      0x00\n      mstore\n      keccak256(0x00, 0x20)\n      swap1\n      0x04\n      mul\n      add\n      0x00\n      swap2\n      pop\n      swap2\n      pop\n      pop\n      dup1\n      0x00\n      add\n      0x00\n      swap1\n      sload\n      swap1\n      0x0100\n      exp\n      swap1\n      div\n      0xffffffffffffffffffffffffffffffffffffffff\n      and\n      swap1\n      dup1\n      0x01\n      add\n      sload\n      swap1\n      dup1\n      0x02\n      add\n      sload\n      swap1\n      dup1\n      0x03\n      add\n      0x00\n      swap1\n      sload\n      swap1\n      0x0100\n      exp\n      swap1\n      div\n      0xff\n      and\n      swap1\n      dup1\n      0x03\n      add\n      0x01\n      swap1\n      sload\n      swap1\n      0x0100\n      exp\n      swap1\n      div\n      0xff\n      and\n      swap1\n      dup1\n      0x03\n      add\n      0x02\n      swap1\n      sload\n      swap1\n      0x0100\n      exp\n      swap1\n      div\n      0xff\n      and\n      swap1\n      pop\n      dup7\n      jump\t// out\n        /* \"@openzeppelin/contracts/access/Ownable.sol\":2543:2758  function transferOwnership(address newOwner) public virtual onlyOwner {... */\n    tag_56:\n        /* \"@openzeppelin/contracts/access/Ownable.sol\":1531:1544  _checkOwner() */\n      tag_161\n        /* \"@openzeppelin/contracts/access/Ownable.sol\":1531:1542  _checkOwner */\n      tag_152\n        /* \"@openzeppelin/contracts/access/Ownable.sol\":1531:1544  _checkOwner() */\n      jump\t// in\n    tag_161:\n        /* \"@openzeppelin/contracts/access/Ownable.sol\":2647:2648  0 */\n      0x00\n        /* \"@openzeppelin/contracts/access/Ownable.sol\":2627:2649  newOwner == address(0) */\n      0xffffffffffffffffffffffffffffffffffffffff\n      and\n        /* \"@openzeppelin/contracts/access/Ownable.sol\":2627:2635  newOwner */\n      dup2\n        /* \"@openzeppelin/contracts/access/Ownable.sol\":2627:2649  newOwner == address(0) */\n      0xffffffffffffffffffffffffffffffffffffffff\n      and\n      sub\n        /* \"@openzeppelin/contracts/access/Ownable.sol\":2623:2714  if (newOwner == address(0)) {... */\n      tag_163\n      jumpi\n        /* \"@openzeppelin/contracts/access/Ownable.sol\":2700:2701  0 */\n      0x00\n        /* \"@openzeppelin/contracts/access/Ownable.sol\":2672:2703  OwnableInvalidOwner(address(0)) */\n      mload(0x40)\n      0x1e4fbdf700000000000000000000000000000000000000000000000000000000\n      dup2\n      mstore\n      0x04\n      add\n      tag_164\n      swap2\n      swap1\n      tag_44\n      jump\t// in\n    tag_164:\n      mload(0x40)\n      dup1\n      swap2\n      sub\n      swap1\n      revert\n        /* \"@openzeppelin/contracts/access/Ownable.sol\":2623:2714  if (newOwner == address(0)) {... */\n    tag_163:\n        /* \"@openzeppelin/contracts/access/Ownable.sol\":2723:2751  _transferOwnership(newOwner) */\n      tag_165\n        /* \"@openzeppelin/contracts/access/Ownable.sol\":2742:2750  newOwner */\n      dup2\n        /* \"@openzeppelin/contracts/access/Ownable.sol\":2723:2741  _transferOwnership */\n      tag_155\n        /* \"@openzeppelin/contracts/access/Ownable.sol\":2723:2751  _transferOwnership(newOwner) */\n      jump\t// in\n    tag_165:\n        /* \"@openzeppelin/contracts/access/Ownable.sol\":2543:2758  function transferOwnership(address newOwner) public virtual onlyOwner {... */\n      pop\n      jump\t// out\n        /* \"@openzeppelin/contracts/utils/ReentrancyGuard.sol\":2575:2882  function _nonReentrantBefore() private {... */\n    tag_65:\n        /* \"@openzeppelin/contracts/utils/ReentrancyGuard.sol\":1899:1900  2 */\n      0x02\n        /* \"@openzeppelin/contracts/utils/ReentrancyGuard.sol\":2702:2709  _status */\n      sload(0x01)\n        /* \"@openzeppelin/contracts/utils/ReentrancyGuard.sol\":2702:2720  _status == ENTERED */\n      sub\n        /* \"@openzeppelin/contracts/utils/ReentrancyGuard.sol\":2698:2784  if (_status == ENTERED) {... */\n      tag_167\n      jumpi\n        /* \"@openzeppelin/contracts/utils/ReentrancyGuard.sol\":2743:2773  ReentrancyGuardReentrantCall() */\n      mload(0x40)\n      0x3ee5aeb500000000000000000000000000000000000000000000000000000000\n      dup2\n      mstore\n      0x04\n      add\n      mload(0x40)\n      dup1\n      swap2\n      sub\n      swap1\n      revert\n        /* \"@openzeppelin/contracts/utils/ReentrancyGuard.sol\":2698:2784  if (_status == ENTERED) {... */\n    tag_167:\n        /* \"@openzeppelin/contracts/utils/ReentrancyGuard.sol\":1899:1900  2 */\n      0x02\n        /* \"@openzeppelin/contracts/utils/ReentrancyGuard.sol\":2858:2865  _status */\n      0x01\n        /* \"@openzeppelin/contracts/utils/ReentrancyGuard.sol\":2858:2875  _status = ENTERED */\n      dup2\n      swap1\n      sstore\n      pop\n        /* \"@openzeppelin/contracts/utils/ReentrancyGuard.sol\":2575:2882  function _nonReentrantBefore() private {... */\n      jump\t// out\n        /* \"@openzeppelin/contracts/token/ERC20/utils/SafeERC20.sol\":1219:1379  function safeTransfer(IERC20 token, address to, uint256 value) internal {... */\n    tag_103:\n        /* \"@openzeppelin/contracts/token/ERC20/utils/SafeERC20.sol\":1301:1372  _callOptionalReturn(token, abi.encodeCall(token.transfer, (to, value))) */\n      tag_169\n        /* \"@openzeppelin/contracts/token/ERC20/utils/SafeERC20.sol\":1321:1326  token */\n      dup4\n        /* \"@openzeppelin/contracts/token/ERC20/utils/SafeERC20.sol\":1343:1348  token */\n      dup5\n        /* \"@openzeppelin/contracts/token/ERC20/utils/SafeERC20.sol\":1343:1357  token.transfer */\n      0xffffffffffffffffffffffffffffffffffffffff\n      and\n      0xa9059cbb\n        /* \"@openzeppelin/contracts/token/ERC20/utils/SafeERC20.sol\":1360:1362  to */\n      dup6\n        /* \"@openzeppelin/contracts/token/ERC20/utils/SafeERC20.sol\":1364:1369  value */\n      dup6\n        /* \"@openzeppelin/contracts/token/ERC20/utils/SafeERC20.sol\":1328:1371  abi.encodeCall(token.transfer, (to, value)) */\n      add(0x24, mload(0x40))\n      tag_170\n      swap3\n      swap2\n      swap1\n      tag_171\n      jump\t// in\n    tag_170:\n      mload(0x40)\n      0x20\n      dup2\n      dup4\n      sub\n      sub\n      dup2\n      mstore\n      swap1\n      0x40\n      mstore\n      swap2\n      pop\n      0xe0\n      shl\n      0x20\n      dup3\n      add\n      dup1\n      mload\n      0xffffffffffffffffffffffffffffffffffffffffffffffffffffffff\n      dup4\n      dup2\n      dup4\n      and\n      or\n      dup4\n      mstore\n      pop\n      pop\n      pop\n      pop\n        /* \"@openzeppelin/contracts/token/ERC20/utils/SafeERC20.sol\":1301:1320  _callOptionalReturn */\n      tag_172\n        /* \"@openzeppelin/contracts/token/ERC20/utils/SafeERC20.sol\":1301:1372  _callOptionalReturn(token, abi.encodeCall(token.transfer, (to, value))) */\n      jump\t// in\n    tag_169:\n        /* \"@openzeppelin/contracts/token/ERC20/utils/SafeERC20.sol\":1219:1379  function safeTransfer(IERC20 token, address to, uint256 value) internal {... */\n      pop\n      pop\n      pop\n      jump\t// out\n        /* \"@openzeppelin/contracts/utils/ReentrancyGuard.sol\":2888:3096  function _nonReentrantAfter() private {... */\n    tag_107:\n        /* \"@openzeppelin/contracts/utils/ReentrancyGuard.sol\":1857:1858  1 */\n      0x01\n        /* \"@openzeppelin/contracts/utils/ReentrancyGuard.sol\":3068:3075  _status */\n      dup1\n        /* \"@openzeppelin/contracts/utils/ReentrancyGuard.sol\":3068:3089  _status = NOT_ENTERED */\n      dup2\n      swap1\n      sstore\n      pop\n        /* \"@openzeppelin/contracts/utils/ReentrancyGuard.sol\":2888:3096  function _nonReentrantAfter() private {... */\n      jump\t// out\n        /* \"@openzeppelin/contracts/token/ERC20/utils/SafeERC20.sol\":1618:1806  function safeTransferFrom(IERC20 token, address from, address to, uint256 value) internal {... */\n    tag_144:\n        /* \"@openzeppelin/contracts/token/ERC20/utils/SafeERC20.sol\":1718:1799  _callOptionalReturn(token, abi.encodeCall(token.transferFrom, (from, to, value))) */\n      tag_175\n        /* \"@openzeppelin/contracts/token/ERC20/utils/SafeERC20.sol\":1738:1743  token */\n      dup5\n        /* \"@openzeppelin/contracts/token/ERC20/utils/SafeERC20.sol\":1760:1765  token */\n      dup6\n        /* \"@openzeppelin/contracts/token/ERC20/utils/SafeERC20.sol\":1760:1778  token.transferFrom */\n      0xffffffffffffffffffffffffffffffffffffffff\n      and\n      0x23b872dd\n        /* \"@openzeppelin/contracts/token/ERC20/utils/SafeERC20.sol\":1781:1785  from */\n      dup7\n        /* \"@openzeppelin/contracts/token/ERC20/utils/SafeERC20.sol\":1787:1789  to */\n      dup7\n        /* \"@openzeppelin/contracts/token/ERC20/utils/SafeERC20.sol\":1791:1796  value */\n      dup7\n        /* \"@openzeppelin/contracts/token/ERC20/utils/SafeERC20.sol\":1745:1798  abi.encodeCall(token.transferFrom, (from, to, value)) */\n      add(0x24, mload(0x40))\n      tag_176\n      swap4\n      swap3\n      swap2\n      swap1\n      tag_177\n      jump\t// in\n    tag_176:\n      mload(0x40)\n      0x20\n      dup2\n      dup4\n      sub\n      sub\n      dup2\n      mstore\n      swap1\n      0x40\n      mstore\n      swap2\n      pop\n      0xe0\n      shl\n      0x20\n      dup3\n      add\n      dup1\n      mload\n      0xffffffffffffffffffffffffffffffffffffffffffffffffffffffff\n      dup4\n      dup2\n      dup4\n      and\n      or\n      dup4\n      mstore\n      pop\n      pop\n      pop\n      pop\n        /* \"@openzeppelin/contracts/token/ERC20/utils/SafeERC20.sol\":1718:1737  _callOptionalReturn */\n      tag_172\n        /* \"@openzeppelin/contracts/token/ERC20/utils/SafeERC20.sol\":1718:1799  _callOptionalReturn(token, abi.encodeCall(token.transferFrom, (from, to, value))) */\n      jump\t// in\n    tag_175:\n        /* \"@openzeppelin/contracts/token/ERC20/utils/SafeERC20.sol\":1618:1806  function safeTransferFrom(IERC20 token, address from, address to, uint256 value) internal {... */\n      pop\n      pop\n      pop\n      pop\n      jump\t// out\n        /* \"@openzeppelin/contracts/access/Ownable.sol\":1796:1958  function _checkOwner() internal view virtual {... */\n    tag_152:\n        /* \"@openzeppelin/contracts/access/Ownable.sol\":1866:1878  _msgSender() */\n      tag_179\n        /* \"@openzeppelin/contracts/access/Ownable.sol\":1866:1876  _msgSender */\n      tag_180\n        /* \"@openzeppelin/contracts/access/Ownable.sol\":1866:1878  _msgSender() */\n      jump\t// in\n    tag_179:\n        /* \"@openzeppelin/contracts/access/Ownable.sol\":1855:1878  owner() != _msgSender() */\n      0xffffffffffffffffffffffffffffffffffffffff\n      and\n        /* \"@openzeppelin/contracts/access/Ownable.sol\":1855:1862  owner() */\n      tag_181\n        /* \"@openzeppelin/contracts/access/Ownable.sol\":1855:1860  owner */\n      tag_42\n        /* \"@openzeppelin/contracts/access/Ownable.sol\":1855:1862  owner() */\n      jump\t// in\n    tag_181:\n        /* \"@openzeppelin/contracts/access/Ownable.sol\":1855:1878  owner() != _msgSender() */\n      0xffffffffffffffffffffffffffffffffffffffff\n      and\n      eq\n        /* \"@openzeppelin/contracts/access/Ownable.sol\":1851:1952  if (owner() != _msgSender()) {... */\n      tag_182\n      jumpi\n        /* \"@openzeppelin/contracts/access/Ownable.sol\":1928:1940  _msgSender() */\n      tag_183\n        /* \"@openzeppelin/contracts/access/Ownable.sol\":1928:1938  _msgSender */\n      tag_180\n        /* \"@openzeppelin/contracts/access/Ownable.sol\":1928:1940  _msgSender() */\n      jump\t// in\n    tag_183:\n        /* \"@openzeppelin/contracts/access/Ownable.sol\":1901:1941  OwnableUnauthorizedAccount(_msgSender()) */\n      mload(0x40)\n      0x118cdaa700000000000000000000000000000000000000000000000000000000\n      dup2\n      mstore\n      0x04\n      add\n      tag_184\n      swap2\n      swap1\n      tag_44\n      jump\t// in\n    tag_184:\n      mload(0x40)\n      dup1\n      swap2\n      sub\n      swap1\n      revert\n        /* \"@openzeppelin/contracts/access/Ownable.sol\":1851:1952  if (owner() != _msgSender()) {... */\n    tag_182:\n        /* \"@openzeppelin/contracts/access/Ownable.sol\":1796:1958  function _checkOwner() internal view virtual {... */\n      jump\t// out\n        /* \"@openzeppelin/contracts/access/Ownable.sol\":2912:3099  function _transferOwnership(address newOwner) internal virtual {... */\n    tag_155:\n        /* \"@openzeppelin/contracts/access/Ownable.sol\":2985:3001  address oldOwner */\n      0x00\n        /* \"@openzeppelin/contracts/access/Ownable.sol\":3004:3010  _owner */\n      dup1\n      0x00\n      swap1\n      sload\n      swap1\n      0x0100\n      exp\n      swap1\n      div\n      0xffffffffffffffffffffffffffffffffffffffff\n      and\n        /* \"@openzeppelin/contracts/access/Ownable.sol\":2985:3010  address oldOwner = _owner */\n      swap1\n      pop\n        /* \"@openzeppelin/contracts/access/Ownable.sol\":3029:3037  newOwner */\n      dup2\n        /* \"@openzeppelin/contracts/access/Ownable.sol\":3020:3026  _owner */\n      0x00\n      dup1\n        /* \"@openzeppelin/contracts/access/Ownable.sol\":3020:3037  _owner = newOwner */\n      0x0100\n      exp\n      dup2\n      sload\n      dup2\n      0xffffffffffffffffffffffffffffffffffffffff\n      mul\n      not\n      and\n      swap1\n      dup4\n      0xffffffffffffffffffffffffffffffffffffffff\n      and\n      mul\n      or\n      swap1\n      sstore\n      pop\n        /* \"@openzeppelin/contracts/access/Ownable.sol\":3083:3091  newOwner */\n      dup2\n        /* \"@openzeppelin/contracts/access/Ownable.sol\":3052:3092  OwnershipTransferred(oldOwner, newOwner) */\n      0xffffffffffffffffffffffffffffffffffffffff\n      and\n        /* \"@openzeppelin/contracts/access/Ownable.sol\":3073:3081  oldOwner */\n      dup2\n        /* \"@openzeppelin/contracts/access/Ownable.sol\":3052:3092  OwnershipTransferred(oldOwner, newOwner) */\n      0xffffffffffffffffffffffffffffffffffffffff\n      and\n      0x8be0079c531659141344cd1fd0a4f28419497f9722a3daafe3b4186f6b6457e0\n      mload(0x40)\n      mload(0x40)\n      dup1\n      swap2\n      sub\n      swap1\n      log3\n        /* \"@openzeppelin/contracts/access/Ownable.sol\":2975:3099  {... */\n      pop\n        /* \"@openzeppelin/contracts/access/Ownable.sol\":2912:3099  function _transferOwnership(address newOwner) internal virtual {... */\n      pop\n      jump\t// out\n        /* \"@openzeppelin/contracts/token/ERC20/utils/SafeERC20.sol\":7686:8406  function _callOptionalReturn(IERC20 token, bytes memory data) private {... */\n    tag_172:\n        /* \"@openzeppelin/contracts/token/ERC20/utils/SafeERC20.sol\":7766:7784  uint256 returnSize */\n      0x00\n        /* \"@openzeppelin/contracts/token/ERC20/utils/SafeERC20.sol\":7794:7813  uint256 returnValue */\n      dup1\n        /* \"@openzeppelin/contracts/token/ERC20/utils/SafeERC20.sol\":7932:7936  0x20 */\n      0x20\n        /* \"@openzeppelin/contracts/token/ERC20/utils/SafeERC20.sol\":7929:7930  0 */\n      0x00\n        /* \"@openzeppelin/contracts/token/ERC20/utils/SafeERC20.sol\":7922:7926  data */\n      dup5\n        /* \"@openzeppelin/contracts/token/ERC20/utils/SafeERC20.sol\":7916:7927  mload(data) */\n      mload\n        /* \"@openzeppelin/contracts/token/ERC20/utils/SafeERC20.sol\":7909:7913  0x20 */\n      0x20\n        /* \"@openzeppelin/contracts/token/ERC20/utils/SafeERC20.sol\":7903:7907  data */\n      dup7\n        /* \"@openzeppelin/contracts/token/ERC20/utils/SafeERC20.sol\":7899:7914  add(data, 0x20) */\n      add\n        /* \"@openzeppelin/contracts/token/ERC20/utils/SafeERC20.sol\":7896:7897  0 */\n      0x00\n        /* \"@openzeppelin/contracts/token/ERC20/utils/SafeERC20.sol\":7889:7894  token */\n      dup9\n        /* \"@openzeppelin/contracts/token/ERC20/utils/SafeERC20.sol\":7882:7887  gas() */\n      gas\n        /* \"@openzeppelin/contracts/token/ERC20/utils/SafeERC20.sol\":7877:7937  call(gas(), token, 0, add(data, 0x20), mload(data), 0, 0x20) */\n      call\n        /* \"@openzeppelin/contracts/token/ERC20/utils/SafeERC20.sol\":7989:7996  success */\n      dup1\n        /* \"@openzeppelin/contracts/token/ERC20/utils/SafeERC20.sol\":7979:8155  if iszero(success) {... */\n      tag_187\n      jumpi\n        /* \"@openzeppelin/contracts/token/ERC20/utils/SafeERC20.sol\":8033:8037  0x40 */\n      0x40\n        /* \"@openzeppelin/contracts/token/ERC20/utils/SafeERC20.sol\":8027:8038  mload(0x40) */\n      mload\n        /* \"@openzeppelin/contracts/token/ERC20/utils/SafeERC20.sol\":8078:8094  returndatasize() */\n      returndatasize\n        /* \"@openzeppelin/contracts/token/ERC20/utils/SafeERC20.sol\":8075:8076  0 */\n      0x00\n        /* \"@openzeppelin/contracts/token/ERC20/utils/SafeERC20.sol\":8070:8073  ptr */\n      dup3\n        /* \"@openzeppelin/contracts/token/ERC20/utils/SafeERC20.sol\":8055:8095  returndatacopy(ptr, 0, returndatasize()) */\n      returndatacopy\n        /* \"@openzeppelin/contracts/token/ERC20/utils/SafeERC20.sol\":8124:8140  returndatasize() */\n      returndatasize\n        /* \"@openzeppelin/contracts/token/ERC20/utils/SafeERC20.sol\":8119:8122  ptr */\n      dup2\n        /* \"@openzeppelin/contracts/token/ERC20/utils/SafeERC20.sol\":8112:8141  revert(ptr, returndatasize()) */\n      revert\n        /* \"@openzeppelin/contracts/token/ERC20/utils/SafeERC20.sol\":7979:8155  if iszero(success) {... */\n    tag_187:\n        /* \"@openzeppelin/contracts/token/ERC20/utils/SafeERC20.sol\":8182:8198  returndatasize() */\n      returndatasize\n        /* \"@openzeppelin/contracts/token/ERC20/utils/SafeERC20.sol\":8168:8198  returnSize := returndatasize() */\n      swap3\n      pop\n        /* \"@openzeppelin/contracts/token/ERC20/utils/SafeERC20.sol\":8232:8233  0 */\n      0x00\n        /* \"@openzeppelin/contracts/token/ERC20/utils/SafeERC20.sol\":8226:8234  mload(0) */\n      mload\n        /* \"@openzeppelin/contracts/token/ERC20/utils/SafeERC20.sol\":8211:8234  returnValue := mload(0) */\n      swap2\n      pop\n        /* \"@openzeppelin/contracts/token/ERC20/utils/SafeERC20.sol\":7848:8244  {... */\n      pop\n        /* \"@openzeppelin/contracts/token/ERC20/utils/SafeERC20.sol\":8272:8273  0 */\n      0x00\n        /* \"@openzeppelin/contracts/token/ERC20/utils/SafeERC20.sol\":8258:8268  returnSize */\n      dup3\n        /* \"@openzeppelin/contracts/token/ERC20/utils/SafeERC20.sol\":8258:8273  returnSize == 0 */\n      eq\n        /* \"@openzeppelin/contracts/token/ERC20/utils/SafeERC20.sol\":8258:8326  returnSize == 0 ? address(token).code.length == 0 : returnValue != 1 */\n      tag_188\n      jumpi\n        /* \"@openzeppelin/contracts/token/ERC20/utils/SafeERC20.sol\":8325:8326  1 */\n      0x01\n        /* \"@openzeppelin/contracts/token/ERC20/utils/SafeERC20.sol\":8310:8321  returnValue */\n      dup2\n        /* \"@openzeppelin/contracts/token/ERC20/utils/SafeERC20.sol\":8310:8326  returnValue != 1 */\n      eq\n      iszero\n        /* \"@openzeppelin/contracts/token/ERC20/utils/SafeERC20.sol\":8258:8326  returnSize == 0 ? address(token).code.length == 0 : returnValue != 1 */\n      jump(tag_189)\n    tag_188:\n        /* \"@openzeppelin/contracts/token/ERC20/utils/SafeERC20.sol\":8306:8307  0 */\n      0x00\n        /* \"@openzeppelin/contracts/token/ERC20/utils/SafeERC20.sol\":8284:8289  token */\n      dup5\n        /* \"@openzeppelin/contracts/token/ERC20/utils/SafeERC20.sol\":8276:8302  address(token).code.length */\n      0xffffffffffffffffffffffffffffffffffffffff\n      and\n      extcodesize\n        /* \"@openzeppelin/contracts/token/ERC20/utils/SafeERC20.sol\":8276:8307  address(token).code.length == 0 */\n      eq\n        /* \"@openzeppelin/contracts/token/ERC20/utils/SafeERC20.sol\":8258:8326  returnSize == 0 ? address(token).code.length == 0 : returnValue != 1 */\n    tag_189:\n        /* \"@openzeppelin/contracts/token/ERC20/utils/SafeERC20.sol\":8254:8400  if (returnSize == 0 ? address(token).code.length == 0 : returnValue != 1) {... */\n      iszero\n      tag_190\n      jumpi\n        /* \"@openzeppelin/contracts/token/ERC20/utils/SafeERC20.sol\":8382:8387  token */\n      dup4\n        /* \"@openzeppelin/contracts/token/ERC20/utils/SafeERC20.sol\":8349:8389  SafeERC20FailedOperation(address(token)) */\n      mload(0x40)\n      0x5274afe700000000000000000000000000000000000000000000000000000000\n      dup2\n      mstore\n      0x04\n      add\n      tag_191\n      swap2\n      swap1\n      tag_44\n      jump\t// in\n    tag_191:\n      mload(0x40)\n      dup1\n      swap2\n      sub\n      swap1\n      revert\n        /* \"@openzeppelin/contracts/token/ERC20/utils/SafeERC20.sol\":8254:8400  if (returnSize == 0 ? address(token).code.length == 0 : returnValue != 1) {... */\n    tag_190:\n        /* \"@openzeppelin/contracts/token/ERC20/utils/SafeERC20.sol\":7756:8406  {... */\n      pop\n      pop\n        /* \"@openzeppelin/contracts/token/ERC20/utils/SafeERC20.sol\":7686:8406  function _callOptionalReturn(IERC20 token, bytes memory data) private {... */\n      pop\n      pop\n      jump\t// out\n        /* \"@openzeppelin/contracts/utils/Context.sol\":656:752  function _msgSender() internal view virtual returns (address) {... */\n    tag_180:\n        /* \"@openzeppelin/contracts/utils/Context.sol\":709:716  address */\n      0x00\n        /* \"@openzeppelin/contracts/utils/Context.sol\":735:745  msg.sender */\n      caller\n        /* \"@openzeppelin/contracts/utils/Context.sol\":728:745  return msg.sender */\n      swap1\n      pop\n        /* \"@openzeppelin/contracts/utils/Context.sol\":656:752  function _msgSender() internal view virtual returns (address) {... */\n      swap1\n      jump\t// out\n        /* \"#utility.yul\":88:205   */\n    tag_194:\n        /* \"#utility.yul\":197:198   */\n      0x00\n        /* \"#utility.yul\":194:195   */\n      dup1\n        /* \"#utility.yul\":187:199   */\n      revert\n        /* \"#utility.yul\":334:460   */\n    tag_196:\n        /* \"#utility.yul\":371:378   */\n      0x00\n        /* \"#utility.yul\":411:453   */\n      0xffffffffffffffffffffffffffffffffffffffff\n        /* \"#utility.yul\":404:409   */\n      dup3\n        /* \"#utility.yul\":400:454   */\n      and\n        /* \"#utility.yul\":389:454   */\n      swap1\n      pop\n        /* \"#utility.yul\":334:460   */\n      swap2\n      swap1\n      pop\n      jump\t// out\n        /* \"#utility.yul\":466:562   */\n    tag_197:\n        /* \"#utility.yul\":503:510   */\n      0x00\n        /* \"#utility.yul\":532:556   */\n      tag_248\n        /* \"#utility.yul\":550:555   */\n      dup3\n        /* \"#utility.yul\":532:556   */\n      tag_196\n      jump\t// in\n    tag_248:\n        /* \"#utility.yul\":521:556   */\n      swap1\n      pop\n        /* \"#utility.yul\":466:562   */\n      swap2\n      swap1\n      pop\n      jump\t// out\n        /* \"#utility.yul\":568:678   */\n    tag_198:\n        /* \"#utility.yul\":619:626   */\n      0x00\n        /* \"#utility.yul\":648:672   */\n      tag_250\n        /* \"#utility.yul\":666:671   */\n      dup3\n        /* \"#utility.yul\":648:672   */\n      tag_197\n      jump\t// in\n    tag_250:\n        /* \"#utility.yul\":637:672   */\n      swap1\n      pop\n        /* \"#utility.yul\":568:678   */\n      swap2\n      swap1\n      pop\n      jump\t// out\n        /* \"#utility.yul\":684:834   */\n    tag_199:\n        /* \"#utility.yul\":771:809   */\n      tag_252\n        /* \"#utility.yul\":803:808   */\n      dup2\n        /* \"#utility.yul\":771:809   */\n      tag_198\n      jump\t// in\n    tag_252:\n        /* \"#utility.yul\":764:769   */\n      dup2\n        /* \"#utility.yul\":761:810   */\n      eq\n        /* \"#utility.yul\":751:828   */\n      tag_253\n      jumpi\n        /* \"#utility.yul\":824:825   */\n      0x00\n        /* \"#utility.yul\":821:822   */\n      dup1\n        /* \"#utility.yul\":814:826   */\n      revert\n        /* \"#utility.yul\":751:828   */\n    tag_253:\n        /* \"#utility.yul\":684:834   */\n      pop\n      jump\t// out\n        /* \"#utility.yul\":840:1007   */\n    tag_200:\n        /* \"#utility.yul\":900:905   */\n      0x00\n        /* \"#utility.yul\":938:944   */\n      dup2\n        /* \"#utility.yul\":925:945   */\n      calldataload\n        /* \"#utility.yul\":916:945   */\n      swap1\n      pop\n        /* \"#utility.yul\":954:1001   */\n      tag_255\n        /* \"#utility.yul\":995:1000   */\n      dup2\n        /* \"#utility.yul\":954:1001   */\n      tag_199\n      jump\t// in\n    tag_255:\n        /* \"#utility.yul\":840:1007   */\n      swap3\n      swap2\n      pop\n      pop\n      jump\t// out\n        /* \"#utility.yul\":1013:1370   */\n    tag_15:\n        /* \"#utility.yul\":1086:1092   */\n      0x00\n        /* \"#utility.yul\":1135:1137   */\n      0x20\n        /* \"#utility.yul\":1123:1132   */\n      dup3\n        /* \"#utility.yul\":1114:1121   */\n      dup5\n        /* \"#utility.yul\":1110:1133   */\n      sub\n        /* \"#utility.yul\":1106:1138   */\n      slt\n        /* \"#utility.yul\":1103:1222   */\n      iszero\n      tag_257\n      jumpi\n        /* \"#utility.yul\":1141:1220   */\n      tag_258\n      tag_194\n      jump\t// in\n    tag_258:\n        /* \"#utility.yul\":1103:1222   */\n    tag_257:\n        /* \"#utility.yul\":1261:1262   */\n      0x00\n        /* \"#utility.yul\":1286:1353   */\n      tag_259\n        /* \"#utility.yul\":1345:1352   */\n      dup5\n        /* \"#utility.yul\":1336:1342   */\n      dup3\n        /* \"#utility.yul\":1325:1334   */\n      dup6\n        /* \"#utility.yul\":1321:1343   */\n      add\n        /* \"#utility.yul\":1286:1353   */\n      tag_200\n      jump\t// in\n    tag_259:\n        /* \"#utility.yul\":1276:1353   */\n      swap2\n      pop\n        /* \"#utility.yul\":1232:1363   */\n      pop\n        /* \"#utility.yul\":1013:1370   */\n      swap3\n      swap2\n      pop\n      pop\n      jump\t// out\n        /* \"#utility.yul\":1376:1453   */\n    tag_201:\n        /* \"#utility.yul\":1413:1420   */\n      0x00\n        /* \"#utility.yul\":1442:1447   */\n      dup2\n        /* \"#utility.yul\":1431:1447   */\n      swap1\n      pop\n        /* \"#utility.yul\":1376:1453   */\n      swap2\n      swap1\n      pop\n      jump\t// out\n        /* \"#utility.yul\":1459:1577   */\n    tag_202:\n        /* \"#utility.yul\":1546:1570   */\n      tag_262\n        /* \"#utility.yul\":1564:1569   */\n      dup2\n        /* \"#utility.yul\":1546:1570   */\n      tag_201\n      jump\t// in\n    tag_262:\n        /* \"#utility.yul\":1541:1544   */\n      dup3\n        /* \"#utility.yul\":1534:1571   */\n      mstore\n        /* \"#utility.yul\":1459:1577   */\n      pop\n      pop\n      jump\t// out\n        /* \"#utility.yul\":1583:1805   */\n    tag_18:\n        /* \"#utility.yul\":1676:1680   */\n      0x00\n        /* \"#utility.yul\":1714:1716   */\n      0x20\n        /* \"#utility.yul\":1703:1712   */\n      dup3\n        /* \"#utility.yul\":1699:1717   */\n      add\n        /* \"#utility.yul\":1691:1717   */\n      swap1\n      pop\n        /* \"#utility.yul\":1727:1798   */\n      tag_264\n        /* \"#utility.yul\":1795:1796   */\n      0x00\n        /* \"#utility.yul\":1784:1793   */\n      dup4\n        /* \"#utility.yul\":1780:1797   */\n      add\n        /* \"#utility.yul\":1771:1777   */\n      dup5\n        /* \"#utility.yul\":1727:1798   */\n      tag_202\n      jump\t// in\n    tag_264:\n        /* \"#utility.yul\":1583:1805   */\n      swap3\n      swap2\n      pop\n      pop\n      jump\t// out\n        /* \"#utility.yul\":1811:1933   */\n    tag_203:\n        /* \"#utility.yul\":1884:1908   */\n      tag_266\n        /* \"#utility.yul\":1902:1907   */\n      dup2\n        /* \"#utility.yul\":1884:1908   */\n      tag_201\n      jump\t// in\n    tag_266:\n        /* \"#utility.yul\":1877:1882   */\n      dup2\n        /* \"#utility.yul\":1874:1909   */\n      eq\n        /* \"#utility.yul\":1864:1927   */\n      tag_267\n      jumpi\n        /* \"#utility.yul\":1923:1924   */\n      0x00\n        /* \"#utility.yul\":1920:1921   */\n      dup1\n        /* \"#utility.yul\":1913:1925   */\n      revert\n        /* \"#utility.yul\":1864:1927   */\n    tag_267:\n        /* \"#utility.yul\":1811:1933   */\n      pop\n      jump\t// out\n        /* \"#utility.yul\":1939:2078   */\n    tag_204:\n        /* \"#utility.yul\":1985:1990   */\n      0x00\n        /* \"#utility.yul\":2023:2029   */\n      dup2\n        /* \"#utility.yul\":2010:2030   */\n      calldataload\n        /* \"#utility.yul\":2001:2030   */\n      swap1\n      pop\n        /* \"#utility.yul\":2039:2072   */\n      tag_269\n        /* \"#utility.yul\":2066:2071   */\n      dup2\n        /* \"#utility.yul\":2039:2072   */\n      tag_203\n      jump\t// in\n    tag_269:\n        /* \"#utility.yul\":1939:2078   */\n      swap3\n      swap2\n      pop\n      pop\n      jump\t// out\n        /* \"#utility.yul\":2084:2558   */\n    tag_22:\n        /* \"#utility.yul\":2152:2158   */\n      0x00\n        /* \"#utility.yul\":2160:2166   */\n      dup1\n        /* \"#utility.yul\":2209:2211   */\n      0x40\n        /* \"#utility.yul\":2197:2206   */\n      dup4\n        /* \"#utility.yul\":2188:2195   */\n      dup6\n        /* \"#utility.yul\":2184:2207   */\n      sub\n        /* \"#utility.yul\":2180:2212   */\n      slt\n        /* \"#utility.yul\":2177:2296   */\n      iszero\n      tag_271\n      jumpi\n        /* \"#utility.yul\":2215:2294   */\n      tag_272\n      tag_194\n      jump\t// in\n    tag_272:\n        /* \"#utility.yul\":2177:2296   */\n    tag_271:\n        /* \"#utility.yul\":2335:2336   */\n      0x00\n        /* \"#utility.yul\":2360:2413   */\n      tag_273\n        /* \"#utility.yul\":2405:2412   */\n      dup6\n        /* \"#utility.yul\":2396:2402   */\n      dup3\n        /* \"#utility.yul\":2385:2394   */\n      dup7\n        /* \"#utility.yul\":2381:2403   */\n      add\n        /* \"#utility.yul\":2360:2413   */\n      tag_204\n      jump\t// in\n    tag_273:\n        /* \"#utility.yul\":2350:2413   */\n      swap3\n      pop\n        /* \"#utility.yul\":2306:2423   */\n      pop\n        /* \"#utility.yul\":2462:2464   */\n      0x20\n        /* \"#utility.yul\":2488:2541   */\n      tag_274\n        /* \"#utility.yul\":2533:2540   */\n      dup6\n        /* \"#utility.yul\":2524:2530   */\n      dup3\n        /* \"#utility.yul\":2513:2522   */\n      dup7\n        /* \"#utility.yul\":2509:2531   */\n      add\n        /* \"#utility.yul\":2488:2541   */\n      tag_204\n      jump\t// in\n    tag_274:\n        /* \"#utility.yul\":2478:2541   */\n      swap2\n      pop\n        /* \"#utility.yul\":2433:2551   */\n      pop\n        /* \"#utility.yul\":2084:2558   */\n      swap3\n      pop\n      swap3\n      swap1\n      pop\n      jump\t// out\n        /* \"#utility.yul\":2564:2650   */\n    tag_205:\n        /* \"#utility.yul\":2599:2606   */\n      0x00\n        /* \"#utility.yul\":2639:2643   */\n      0xff\n        /* \"#utility.yul\":2632:2637   */\n      dup3\n        /* \"#utility.yul\":2628:2644   */\n      and\n        /* \"#utility.yul\":2617:2644   */\n      swap1\n      pop\n        /* \"#utility.yul\":2564:2650   */\n      swap2\n      swap1\n      pop\n      jump\t// out\n        /* \"#utility.yul\":2656:2774   */\n    tag_206:\n        /* \"#utility.yul\":2727:2749   */\n      tag_277\n        /* \"#utility.yul\":2743:2748   */\n      dup2\n        /* \"#utility.yul\":2727:2749   */\n      tag_205\n      jump\t// in\n    tag_277:\n        /* \"#utility.yul\":2720:2725   */\n      dup2\n        /* \"#utility.yul\":2717:2750   */\n      eq\n        /* \"#utility.yul\":2707:2768   */\n      tag_278\n      jumpi\n        /* \"#utility.yul\":2764:2765   */\n      0x00\n        /* \"#utility.yul\":2761:2762   */\n      dup1\n        /* \"#utility.yul\":2754:2766   */\n      revert\n        /* \"#utility.yul\":2707:2768   */\n    tag_278:\n        /* \"#utility.yul\":2656:2774   */\n      pop\n      jump\t// out\n        /* \"#utility.yul\":2780:2915   */\n    tag_207:\n        /* \"#utility.yul\":2824:2829   */\n      0x00\n        /* \"#utility.yul\":2862:2868   */\n      dup2\n        /* \"#utility.yul\":2849:2869   */\n      calldataload\n        /* \"#utility.yul\":2840:2869   */\n      swap1\n      pop\n        /* \"#utility.yul\":2878:2909   */\n      tag_280\n        /* \"#utility.yul\":2903:2908   */\n      dup2\n        /* \"#utility.yul\":2878:2909   */\n      tag_206\n      jump\t// in\n    tag_280:\n        /* \"#utility.yul\":2780:2915   */\n      swap3\n      swap2\n      pop\n      pop\n      jump\t// out\n        /* \"#utility.yul\":2921:3391   */\n    tag_26:\n        /* \"#utility.yul\":2987:2993   */\n      0x00\n        /* \"#utility.yul\":2995:3001   */\n      dup1\n        /* \"#utility.yul\":3044:3046   */\n      0x40\n        /* \"#utility.yul\":3032:3041   */\n      dup4\n        /* \"#utility.yul\":3023:3030   */\n      dup6\n        /* \"#utility.yul\":3019:3042   */\n      sub\n        /* \"#utility.yul\":3015:3047   */\n      slt\n        /* \"#utility.yul\":3012:3131   */\n      iszero\n      tag_282\n      jumpi\n        /* \"#utility.yul\":3050:3129   */\n      tag_283\n      tag_194\n      jump\t// in\n    tag_283:\n        /* \"#utility.yul\":3012:3131   */\n    tag_282:\n        /* \"#utility.yul\":3170:3171   */\n      0x00\n        /* \"#utility.yul\":3195:3246   */\n      tag_284\n        /* \"#utility.yul\":3238:3245   */\n      dup6\n        /* \"#utility.yul\":3229:3235   */\n      dup3\n        /* \"#utility.yul\":3218:3227   */\n      dup7\n        /* \"#utility.yul\":3214:3236   */\n      add\n        /* \"#utility.yul\":3195:3246   */\n      tag_207\n      jump\t// in\n    tag_284:\n        /* \"#utility.yul\":3185:3246   */\n      swap3\n      pop\n        /* \"#utility.yul\":3141:3256   */\n      pop\n        /* \"#utility.yul\":3295:3297   */\n      0x20\n        /* \"#utility.yul\":3321:3374   */\n      tag_285\n        /* \"#utility.yul\":3366:3373   */\n      dup6\n        /* \"#utility.yul\":3357:3363   */\n      dup3\n        /* \"#utility.yul\":3346:3355   */\n      dup7\n        /* \"#utility.yul\":3342:3364   */\n      add\n        /* \"#utility.yul\":3321:3374   */\n      tag_204\n      jump\t// in\n    tag_285:\n        /* \"#utility.yul\":3311:3374   */\n      swap2\n      pop\n        /* \"#utility.yul\":3266:3384   */\n      pop\n        /* \"#utility.yul\":2921:3391   */\n      swap3\n      pop\n      swap3\n      swap1\n      pop\n      jump\t// out\n        /* \"#utility.yul\":3397:4186   */\n    tag_31:\n        /* \"#utility.yul\":3495:3501   */\n      0x00\n        /* \"#utility.yul\":3503:3509   */\n      dup1\n        /* \"#utility.yul\":3511:3517   */\n      0x00\n        /* \"#utility.yul\":3519:3525   */\n      dup1\n        /* \"#utility.yul\":3568:3571   */\n      0x80\n        /* \"#utility.yul\":3556:3565   */\n      dup6\n        /* \"#utility.yul\":3547:3554   */\n      dup8\n        /* \"#utility.yul\":3543:3566   */\n      sub\n        /* \"#utility.yul\":3539:3572   */\n      slt\n        /* \"#utility.yul\":3536:3656   */\n      iszero\n      tag_287\n      jumpi\n        /* \"#utility.yul\":3575:3654   */\n      tag_288\n      tag_194\n      jump\t// in\n    tag_288:\n        /* \"#utility.yul\":3536:3656   */\n    tag_287:\n        /* \"#utility.yul\":3695:3696   */\n      0x00\n        /* \"#utility.yul\":3720:3787   */\n      tag_289\n        /* \"#utility.yul\":3779:3786   */\n      dup8\n        /* \"#utility.yul\":3770:3776   */\n      dup3\n        /* \"#utility.yul\":3759:3768   */\n      dup9\n        /* \"#utility.yul\":3755:3777   */\n      add\n        /* \"#utility.yul\":3720:3787   */\n      tag_200\n      jump\t// in\n    tag_289:\n        /* \"#utility.yul\":3710:3787   */\n      swap5\n      pop\n        /* \"#utility.yul\":3666:3797   */\n      pop\n        /* \"#utility.yul\":3836:3838   */\n      0x20\n        /* \"#utility.yul\":3862:3915   */\n      tag_290\n        /* \"#utility.yul\":3907:3914   */\n      dup8\n        /* \"#utility.yul\":3898:3904   */\n      dup3\n        /* \"#utility.yul\":3887:3896   */\n      dup9\n        /* \"#utility.yul\":3883:3905   */\n      add\n        /* \"#utility.yul\":3862:3915   */\n      tag_204\n      jump\t// in\n    tag_290:\n        /* \"#utility.yul\":3852:3915   */\n      swap4\n      pop\n        /* \"#utility.yul\":3807:3925   */\n      pop\n        /* \"#utility.yul\":3964:3966   */\n      0x40\n        /* \"#utility.yul\":3990:4041   */\n      tag_291\n        /* \"#utility.yul\":4033:4040   */\n      dup8\n        /* \"#utility.yul\":4024:4030   */\n      dup3\n        /* \"#utility.yul\":4013:4022   */\n      dup9\n        /* \"#utility.yul\":4009:4031   */\n      add\n        /* \"#utility.yul\":3990:4041   */\n      tag_207\n      jump\t// in\n    tag_291:\n        /* \"#utility.yul\":3980:4041   */\n      swap3\n      pop\n        /* \"#utility.yul\":3935:4051   */\n      pop\n        /* \"#utility.yul\":4090:4092   */\n      0x60\n        /* \"#utility.yul\":4116:4169   */\n      tag_292\n        /* \"#utility.yul\":4161:4168   */\n      dup8\n        /* \"#utility.yul\":4152:4158   */\n      dup3\n        /* \"#utility.yul\":4141:4150   */\n      dup9\n        /* \"#utility.yul\":4137:4159   */\n      add\n        /* \"#utility.yul\":4116:4169   */\n      tag_204\n      jump\t// in\n    tag_292:\n        /* \"#utility.yul\":4106:4169   */\n      swap2\n      pop\n        /* \"#utility.yul\":4061:4179   */\n      pop\n        /* \"#utility.yul\":3397:4186   */\n      swap3\n      swap6\n      swap2\n      swap5\n      pop\n      swap3\n      pop\n      jump\t// out\n        /* \"#utility.yul\":4192:4310   */\n    tag_208:\n        /* \"#utility.yul\":4279:4303   */\n      tag_294\n        /* \"#utility.yul\":4297:4302   */\n      dup2\n        /* \"#utility.yul\":4279:4303   */\n      tag_197\n      jump\t// in\n    tag_294:\n        /* \"#utility.yul\":4274:4277   */\n      dup3\n        /* \"#utility.yul\":4267:4304   */\n      mstore\n        /* \"#utility.yul\":4192:4310   */\n      pop\n      pop\n      jump\t// out\n        /* \"#utility.yul\":4316:4538   */\n    tag_44:\n        /* \"#utility.yul\":4409:4413   */\n      0x00\n        /* \"#utility.yul\":4447:4449   */\n      0x20\n        /* \"#utility.yul\":4436:4445   */\n      dup3\n        /* \"#utility.yul\":4432:4450   */\n      add\n        /* \"#utility.yul\":4424:4450   */\n      swap1\n      pop\n        /* \"#utility.yul\":4460:4531   */\n      tag_296\n        /* \"#utility.yul\":4528:4529   */\n      0x00\n        /* \"#utility.yul\":4517:4526   */\n      dup4\n        /* \"#utility.yul\":4513:4530   */\n      add\n        /* \"#utility.yul\":4504:4510   */\n      dup5\n        /* \"#utility.yul\":4460:4531   */\n      tag_208\n      jump\t// in\n    tag_296:\n        /* \"#utility.yul\":4316:4538   */\n      swap3\n      swap2\n      pop\n      pop\n      jump\t// out\n        /* \"#utility.yul\":4544:4666   */\n    tag_209:\n        /* \"#utility.yul\":4617:4641   */\n      tag_298\n        /* \"#utility.yul\":4635:4640   */\n      dup2\n        /* \"#utility.yul\":4617:4641   */\n      tag_197\n      jump\t// in\n    tag_298:\n        /* \"#utility.yul\":4610:4615   */\n      dup2\n        /* \"#utility.yul\":4607:4642   */\n      eq\n        /* \"#utility.yul\":4597:4660   */\n      tag_299\n      jumpi\n        /* \"#utility.yul\":4656:4657   */\n      0x00\n        /* \"#utility.yul\":4653:4654   */\n      dup1\n        /* \"#utility.yul\":4646:4658   */\n      revert\n        /* \"#utility.yul\":4597:4660   */\n    tag_299:\n        /* \"#utility.yul\":4544:4666   */\n      pop\n      jump\t// out\n        /* \"#utility.yul\":4672:4811   */\n    tag_210:\n        /* \"#utility.yul\":4718:4723   */\n      0x00\n        /* \"#utility.yul\":4756:4762   */\n      dup2\n        /* \"#utility.yul\":4743:4763   */\n      calldataload\n        /* \"#utility.yul\":4734:4763   */\n      swap1\n      pop\n        /* \"#utility.yul\":4772:4805   */\n      tag_301\n        /* \"#utility.yul\":4799:4804   */\n      dup2\n        /* \"#utility.yul\":4772:4805   */\n      tag_209\n      jump\t// in\n    tag_301:\n        /* \"#utility.yul\":4672:4811   */\n      swap3\n      swap2\n      pop\n      pop\n      jump\t// out\n        /* \"#utility.yul\":4817:5291   */\n    tag_48:\n        /* \"#utility.yul\":4885:4891   */\n      0x00\n        /* \"#utility.yul\":4893:4899   */\n      dup1\n        /* \"#utility.yul\":4942:4944   */\n      0x40\n        /* \"#utility.yul\":4930:4939   */\n      dup4\n        /* \"#utility.yul\":4921:4928   */\n      dup6\n        /* \"#utility.yul\":4917:4940   */\n      sub\n        /* \"#utility.yul\":4913:4945   */\n      slt\n        /* \"#utility.yul\":4910:5029   */\n      iszero\n      tag_303\n      jumpi\n        /* \"#utility.yul\":4948:5027   */\n      tag_304\n      tag_194\n      jump\t// in\n    tag_304:\n        /* \"#utility.yul\":4910:5029   */\n    tag_303:\n        /* \"#utility.yul\":5068:5069   */\n      0x00\n        /* \"#utility.yul\":5093:5146   */\n      tag_305\n        /* \"#utility.yul\":5138:5145   */\n      dup6\n        /* \"#utility.yul\":5129:5135   */\n      dup3\n        /* \"#utility.yul\":5118:5127   */\n      dup7\n        /* \"#utility.yul\":5114:5136   */\n      add\n        /* \"#utility.yul\":5093:5146   */\n      tag_210\n      jump\t// in\n    tag_305:\n        /* \"#utility.yul\":5083:5146   */\n      swap3\n      pop\n        /* \"#utility.yul\":5039:5156   */\n      pop\n        /* \"#utility.yul\":5195:5197   */\n      0x20\n        /* \"#utility.yul\":5221:5274   */\n      tag_306\n        /* \"#utility.yul\":5266:5273   */\n      dup6\n        /* \"#utility.yul\":5257:5263   */\n      dup3\n        /* \"#utility.yul\":5246:5255   */\n      dup7\n        /* \"#utility.yul\":5242:5264   */\n      add\n        /* \"#utility.yul\":5221:5274   */\n      tag_204\n      jump\t// in\n    tag_306:\n        /* \"#utility.yul\":5211:5274   */\n      swap2\n      pop\n        /* \"#utility.yul\":5166:5284   */\n      pop\n        /* \"#utility.yul\":4817:5291   */\n      swap3\n      pop\n      swap3\n      swap1\n      pop\n      jump\t// out\n        /* \"#utility.yul\":5297:5409   */\n    tag_211:\n        /* \"#utility.yul\":5380:5402   */\n      tag_308\n        /* \"#utility.yul\":5396:5401   */\n      dup2\n        /* \"#utility.yul\":5380:5402   */\n      tag_205\n      jump\t// in\n    tag_308:\n        /* \"#utility.yul\":5375:5378   */\n      dup3\n        /* \"#utility.yul\":5368:5403   */\n      mstore\n        /* \"#utility.yul\":5297:5409   */\n      pop\n      pop\n      jump\t// out\n        /* \"#utility.yul\":5415:5505   */\n    tag_212:\n        /* \"#utility.yul\":5449:5456   */\n      0x00\n        /* \"#utility.yul\":5492:5497   */\n      dup2\n        /* \"#utility.yul\":5485:5498   */\n      iszero\n        /* \"#utility.yul\":5478:5499   */\n      iszero\n        /* \"#utility.yul\":5467:5499   */\n      swap1\n      pop\n        /* \"#utility.yul\":5415:5505   */\n      swap2\n      swap1\n      pop\n      jump\t// out\n        /* \"#utility.yul\":5511:5620   */\n    tag_213:\n        /* \"#utility.yul\":5592:5613   */\n      tag_311\n        /* \"#utility.yul\":5607:5612   */\n      dup2\n        /* \"#utility.yul\":5592:5613   */\n      tag_212\n      jump\t// in\n    tag_311:\n        /* \"#utility.yul\":5587:5590   */\n      dup3\n        /* \"#utility.yul\":5580:5614   */\n      mstore\n        /* \"#utility.yul\":5511:5620   */\n      pop\n      pop\n      jump\t// out\n        /* \"#utility.yul\":5626:6369   */\n    tag_51:\n        /* \"#utility.yul\":5843:5847   */\n      0x00\n        /* \"#utility.yul\":5881:5884   */\n      0xc0\n        /* \"#utility.yul\":5870:5879   */\n      dup3\n        /* \"#utility.yul\":5866:5885   */\n      add\n        /* \"#utility.yul\":5858:5885   */\n      swap1\n      pop\n        /* \"#utility.yul\":5895:5966   */\n      tag_313\n        /* \"#utility.yul\":5963:5964   */\n      0x00\n        /* \"#utility.yul\":5952:5961   */\n      dup4\n        /* \"#utility.yul\":5948:5965   */\n      add\n        /* \"#utility.yul\":5939:5945   */\n      dup10\n        /* \"#utility.yul\":5895:5966   */\n      tag_208\n      jump\t// in\n    tag_313:\n        /* \"#utility.yul\":5976:6048   */\n      tag_314\n        /* \"#utility.yul\":6044:6046   */\n      0x20\n        /* \"#utility.yul\":6033:6042   */\n      dup4\n        /* \"#utility.yul\":6029:6047   */\n      add\n        /* \"#utility.yul\":6020:6026   */\n      dup9\n        /* \"#utility.yul\":5976:6048   */\n      tag_202\n      jump\t// in\n    tag_314:\n        /* \"#utility.yul\":6058:6130   */\n      tag_315\n        /* \"#utility.yul\":6126:6128   */\n      0x40\n        /* \"#utility.yul\":6115:6124   */\n      dup4\n        /* \"#utility.yul\":6111:6129   */\n      add\n        /* \"#utility.yul\":6102:6108   */\n      dup8\n        /* \"#utility.yul\":6058:6130   */\n      tag_202\n      jump\t// in\n    tag_315:\n        /* \"#utility.yul\":6140:6208   */\n      tag_316\n        /* \"#utility.yul\":6204:6206   */\n      0x60\n        /* \"#utility.yul\":6193:6202   */\n      dup4\n        /* \"#utility.yul\":6189:6207   */\n      add\n        /* \"#utility.yul\":6180:6186   */\n      dup7\n        /* \"#utility.yul\":6140:6208   */\n      tag_211\n      jump\t// in\n    tag_316:\n        /* \"#utility.yul\":6218:6285   */\n      tag_317\n        /* \"#utility.yul\":6280:6283   */\n      0x80\n        /* \"#utility.yul\":6269:6278   */\n      dup4\n        /* \"#utility.yul\":6265:6284   */\n      add\n        /* \"#utility.yul\":6256:6262   */\n      dup6\n        /* \"#utility.yul\":6218:6285   */\n      tag_213\n      jump\t// in\n    tag_317:\n        /* \"#utility.yul\":6295:6362   */\n      tag_318\n        /* \"#utility.yul\":6357:6360   */\n      0xa0\n        /* \"#utility.yul\":6346:6355   */\n      dup4\n        /* \"#utility.yul\":6342:6361   */\n      add\n        /* \"#utility.yul\":6333:6339   */\n      dup5\n        /* \"#utility.yul\":6295:6362   */\n      tag_213\n      jump\t// in\n    tag_318:\n        /* \"#utility.yul\":5626:6369   */\n      swap8\n      swap7\n      pop\n      pop\n      pop\n      pop\n      pop\n      pop\n      pop\n      jump\t// out\n        /* \"#utility.yul\":6375:6704   */\n    tag_55:\n        /* \"#utility.yul\":6434:6440   */\n      0x00\n        /* \"#utility.yul\":6483:6485   */\n      0x20\n        /* \"#utility.yul\":6471:6480   */\n      dup3\n        /* \"#utility.yul\":6462:6469   */\n      dup5\n        /* \"#utility.yul\":6458:6481   */\n      sub\n        /* \"#utility.yul\":6454:6486   */\n      slt\n        /* \"#utility.yul\":6451:6570   */\n      iszero\n      tag_320\n      jumpi\n        /* \"#utility.yul\":6489:6568   */\n      tag_321\n      tag_194\n      jump\t// in\n    tag_321:\n        /* \"#utility.yul\":6451:6570   */\n    tag_320:\n        /* \"#utility.yul\":6609:6610   */\n      0x00\n        /* \"#utility.yul\":6634:6687   */\n      tag_322\n        /* \"#utility.yul\":6679:6686   */\n      dup5\n        /* \"#utility.yul\":6670:6676   */\n      dup3\n        /* \"#utility.yul\":6659:6668   */\n      dup6\n        /* \"#utility.yul\":6655:6677   */\n      add\n        /* \"#utility.yul\":6634:6687   */\n      tag_210\n      jump\t// in\n    tag_322:\n        /* \"#utility.yul\":6624:6687   */\n      swap2\n      pop\n        /* \"#utility.yul\":6580:6697   */\n      pop\n        /* \"#utility.yul\":6375:6704   */\n      swap3\n      swap2\n      pop\n      pop\n      jump\t// out\n        /* \"#utility.yul\":6710:6853   */\n    tag_214:\n        /* \"#utility.yul\":6767:6772   */\n      0x00\n        /* \"#utility.yul\":6798:6804   */\n      dup2\n        /* \"#utility.yul\":6792:6805   */\n      mload\n        /* \"#utility.yul\":6783:6805   */\n      swap1\n      pop\n        /* \"#utility.yul\":6814:6847   */\n      tag_324\n        /* \"#utility.yul\":6841:6846   */\n      dup2\n        /* \"#utility.yul\":6814:6847   */\n      tag_203\n      jump\t// in\n    tag_324:\n        /* \"#utility.yul\":6710:6853   */\n      swap3\n      swap2\n      pop\n      pop\n      jump\t// out\n        /* \"#utility.yul\":6859:7210   */\n    tag_62:\n        /* \"#utility.yul\":6929:6935   */\n      0x00\n        /* \"#utility.yul\":6978:6980   */\n      0x20\n        /* \"#utility.yul\":6966:6975   */\n      dup3\n        /* \"#utility.yul\":6957:6964   */\n      dup5\n        /* \"#utility.yul\":6953:6976   */\n      sub\n        /* \"#utility.yul\":6949:6981   */\n      slt\n        /* \"#utility.yul\":6946:7065   */\n      iszero\n      tag_326\n      jumpi\n        /* \"#utility.yul\":6984:7063   */\n      tag_327\n      tag_194\n      jump\t// in\n    tag_327:\n        /* \"#utility.yul\":6946:7065   */\n    tag_326:\n        /* \"#utility.yul\":7104:7105   */\n      0x00\n        /* \"#utility.yul\":7129:7193   */\n      tag_328\n        /* \"#utility.yul\":7185:7192   */\n      dup5\n        /* \"#utility.yul\":7176:7182   */\n      dup3\n        /* \"#utility.yul\":7165:7174   */\n      dup6\n        /* \"#utility.yul\":7161:7183   */\n      add\n        /* \"#utility.yul\":7129:7193   */\n      tag_214\n      jump\t// in\n    tag_328:\n        /* \"#utility.yul\":7119:7193   */\n      swap2\n      pop\n        /* \"#utility.yul\":7075:7203   */\n      pop\n        /* \"#utility.yul\":6859:7210   */\n      swap3\n      swap2\n      pop\n      pop\n      jump\t// out\n        /* \"#utility.yul\":7216:7385   */\n    tag_215:\n        /* \"#utility.yul\":7300:7311   */\n      0x00\n        /* \"#utility.yul\":7334:7340   */\n      dup3\n        /* \"#utility.yul\":7329:7332   */\n      dup3\n        /* \"#utility.yul\":7322:7341   */\n      mstore\n        /* \"#utility.yul\":7374:7378   */\n      0x20\n        /* \"#utility.yul\":7369:7372   */\n      dup3\n        /* \"#utility.yul\":7365:7379   */\n      add\n        /* \"#utility.yul\":7350:7379   */\n      swap1\n      pop\n        /* \"#utility.yul\":7216:7385   */\n      swap3\n      swap2\n      pop\n      pop\n      jump\t// out\n        /* \"#utility.yul\":7391:7612   */\n    tag_216:\n        /* \"#utility.yul\":7531:7565   */\n      0x5468652073706563696669656420617373657420494420697320696e76616c69\n        /* \"#utility.yul\":7527:7528   */\n      0x00\n        /* \"#utility.yul\":7519:7525   */\n      dup3\n        /* \"#utility.yul\":7515:7529   */\n      add\n        /* \"#utility.yul\":7508:7566   */\n      mstore\n        /* \"#utility.yul\":7600:7604   */\n      0x642e000000000000000000000000000000000000000000000000000000000000\n        /* \"#utility.yul\":7595:7597   */\n      0x20\n        /* \"#utility.yul\":7587:7593   */\n      dup3\n        /* \"#utility.yul\":7583:7598   */\n      add\n        /* \"#utility.yul\":7576:7605   */\n      mstore\n        /* \"#utility.yul\":7391:7612   */\n      pop\n      jump\t// out\n        /* \"#utility.yul\":7618:7984   */\n    tag_217:\n        /* \"#utility.yul\":7760:7763   */\n      0x00\n        /* \"#utility.yul\":7781:7848   */\n      tag_332\n        /* \"#utility.yul\":7845:7847   */\n      0x22\n        /* \"#utility.yul\":7840:7843   */\n      dup4\n        /* \"#utility.yul\":7781:7848   */\n      tag_215\n      jump\t// in\n    tag_332:\n        /* \"#utility.yul\":7774:7848   */\n      swap2\n      pop\n        /* \"#utility.yul\":7857:7950   */\n      tag_333\n        /* \"#utility.yul\":7946:7949   */\n      dup3\n        /* \"#utility.yul\":7857:7950   */\n      tag_216\n      jump\t// in\n    tag_333:\n        /* \"#utility.yul\":7975:7977   */\n      0x40\n        /* \"#utility.yul\":7970:7973   */\n      dup3\n        /* \"#utility.yul\":7966:7978   */\n      add\n        /* \"#utility.yul\":7959:7978   */\n      swap1\n      pop\n        /* \"#utility.yul\":7618:7984   */\n      swap2\n      swap1\n      pop\n      jump\t// out\n        /* \"#utility.yul\":7990:8409   */\n    tag_69:\n        /* \"#utility.yul\":8156:8160   */\n      0x00\n        /* \"#utility.yul\":8194:8196   */\n      0x20\n        /* \"#utility.yul\":8183:8192   */\n      dup3\n        /* \"#utility.yul\":8179:8197   */\n      add\n        /* \"#utility.yul\":8171:8197   */\n      swap1\n      pop\n        /* \"#utility.yul\":8243:8252   */\n      dup2\n        /* \"#utility.yul\":8237:8241   */\n      dup2\n        /* \"#utility.yul\":8233:8253   */\n      sub\n        /* \"#utility.yul\":8229:8230   */\n      0x00\n        /* \"#utility.yul\":8218:8227   */\n      dup4\n        /* \"#utility.yul\":8214:8231   */\n      add\n        /* \"#utility.yul\":8207:8254   */\n      mstore\n        /* \"#utility.yul\":8271:8402   */\n      tag_335\n        /* \"#utility.yul\":8397:8401   */\n      dup2\n        /* \"#utility.yul\":8271:8402   */\n      tag_217\n      jump\t// in\n    tag_335:\n        /* \"#utility.yul\":8263:8402   */\n      swap1\n      pop\n        /* \"#utility.yul\":7990:8409   */\n      swap2\n      swap1\n      pop\n      jump\t// out\n        /* \"#utility.yul\":8415:8595   */\n    tag_72:\n        /* \"#utility.yul\":8463:8540   */\n      0x4e487b7100000000000000000000000000000000000000000000000000000000\n        /* \"#utility.yul\":8460:8461   */\n      0x00\n        /* \"#utility.yul\":8453:8541   */\n      mstore\n        /* \"#utility.yul\":8560:8564   */\n      0x32\n        /* \"#utility.yul\":8557:8558   */\n      0x04\n        /* \"#utility.yul\":8550:8565   */\n      mstore\n        /* \"#utility.yul\":8584:8588   */\n      0x24\n        /* \"#utility.yul\":8581:8582   */\n      0x00\n        /* \"#utility.yul\":8574:8589   */\n      revert\n        /* \"#utility.yul\":8601:8823   */\n    tag_218:\n        /* \"#utility.yul\":8741:8775   */\n      0x417373657473206861766520616c7265616479206265656e2077697468647261\n        /* \"#utility.yul\":8737:8738   */\n      0x00\n        /* \"#utility.yul\":8729:8735   */\n      dup3\n        /* \"#utility.yul\":8725:8739   */\n      add\n        /* \"#utility.yul\":8718:8776   */\n      mstore\n        /* \"#utility.yul\":8810:8815   */\n      0x776e210000000000000000000000000000000000000000000000000000000000\n        /* \"#utility.yul\":8805:8807   */\n      0x20\n        /* \"#utility.yul\":8797:8803   */\n      dup3\n        /* \"#utility.yul\":8793:8808   */\n      add\n        /* \"#utility.yul\":8786:8816   */\n      mstore\n        /* \"#utility.yul\":8601:8823   */\n      pop\n      jump\t// out\n        /* \"#utility.yul\":8829:9195   */\n    tag_219:\n        /* \"#utility.yul\":8971:8974   */\n      0x00\n        /* \"#utility.yul\":8992:9059   */\n      tag_339\n        /* \"#utility.yul\":9056:9058   */\n      0x23\n        /* \"#utility.yul\":9051:9054   */\n      dup4\n        /* \"#utility.yul\":8992:9059   */\n      tag_215\n      jump\t// in\n    tag_339:\n        /* \"#utility.yul\":8985:9059   */\n      swap2\n      pop\n        /* \"#utility.yul\":9068:9161   */\n      tag_340\n        /* \"#utility.yul\":9157:9160   */\n      dup3\n        /* \"#utility.yul\":9068:9161   */\n      tag_218\n      jump\t// in\n    tag_340:\n        /* \"#utility.yul\":9186:9188   */\n      0x40\n        /* \"#utility.yul\":9181:9184   */\n      dup3\n        /* \"#utility.yul\":9177:9189   */\n      add\n        /* \"#utility.yul\":9170:9189   */\n      swap1\n      pop\n        /* \"#utility.yul\":8829:9195   */\n      swap2\n      swap1\n      pop\n      jump\t// out\n        /* \"#utility.yul\":9201:9620   */\n    tag_76:\n        /* \"#utility.yul\":9367:9371   */\n      0x00\n        /* \"#utility.yul\":9405:9407   */\n      0x20\n        /* \"#utility.yul\":9394:9403   */\n      dup3\n        /* \"#utility.yul\":9390:9408   */\n      add\n        /* \"#utility.yul\":9382:9408   */\n      swap1\n      pop\n        /* \"#utility.yul\":9454:9463   */\n      dup2\n        /* \"#utility.yul\":9448:9452   */\n      dup2\n        /* \"#utility.yul\":9444:9464   */\n      sub\n        /* \"#utility.yul\":9440:9441   */\n      0x00\n        /* \"#utility.yul\":9429:9438   */\n      dup4\n        /* \"#utility.yul\":9425:9442   */\n      add\n        /* \"#utility.yul\":9418:9465   */\n      mstore\n        /* \"#utility.yul\":9482:9613   */\n      tag_342\n        /* \"#utility.yul\":9608:9612   */\n      dup2\n        /* \"#utility.yul\":9482:9613   */\n      tag_219\n      jump\t// in\n    tag_342:\n        /* \"#utility.yul\":9474:9613   */\n      swap1\n      pop\n        /* \"#utility.yul\":9201:9620   */\n      swap2\n      swap1\n      pop\n      jump\t// out\n        /* \"#utility.yul\":9626:9849   */\n    tag_220:\n        /* \"#utility.yul\":9766:9800   */\n      0x546865206c6f636b20706572696f6420686173206e6f74207965742065787069\n        /* \"#utility.yul\":9762:9763   */\n      0x00\n        /* \"#utility.yul\":9754:9760   */\n      dup3\n        /* \"#utility.yul\":9750:9764   */\n      add\n        /* \"#utility.yul\":9743:9801   */\n      mstore\n        /* \"#utility.yul\":9835:9841   */\n      0x7265642100000000000000000000000000000000000000000000000000000000\n        /* \"#utility.yul\":9830:9832   */\n      0x20\n        /* \"#utility.yul\":9822:9828   */\n      dup3\n        /* \"#utility.yul\":9818:9833   */\n      add\n        /* \"#utility.yul\":9811:9842   */\n      mstore\n        /* \"#utility.yul\":9626:9849   */\n      pop\n      jump\t// out\n        /* \"#utility.yul\":9855:10221   */\n    tag_221:\n        /* \"#utility.yul\":9997:10000   */\n      0x00\n        /* \"#utility.yul\":10018:10085   */\n      tag_345\n        /* \"#utility.yul\":10082:10084   */\n      0x24\n        /* \"#utility.yul\":10077:10080   */\n      dup4\n        /* \"#utility.yul\":10018:10085   */\n      tag_215\n      jump\t// in\n    tag_345:\n        /* \"#utility.yul\":10011:10085   */\n      swap2\n      pop\n        /* \"#utility.yul\":10094:10187   */\n      tag_346\n        /* \"#utility.yul\":10183:10186   */\n      dup3\n        /* \"#utility.yul\":10094:10187   */\n      tag_220\n      jump\t// in\n    tag_346:\n        /* \"#utility.yul\":10212:10214   */\n      0x40\n        /* \"#utility.yul\":10207:10210   */\n      dup3\n        /* \"#utility.yul\":10203:10215   */\n      add\n        /* \"#utility.yul\":10196:10215   */\n      swap1\n      pop\n        /* \"#utility.yul\":9855:10221   */\n      swap2\n      swap1\n      pop\n      jump\t// out\n        /* \"#utility.yul\":10227:10646   */\n    tag_79:\n        /* \"#utility.yul\":10393:10397   */\n      0x00\n        /* \"#utility.yul\":10431:10433   */\n      0x20\n        /* \"#utility.yul\":10420:10429   */\n      dup3\n        /* \"#utility.yul\":10416:10434   */\n      add\n        /* \"#utility.yul\":10408:10434   */\n      swap1\n      pop\n        /* \"#utility.yul\":10480:10489   */\n      dup2\n        /* \"#utility.yul\":10474:10478   */\n      dup2\n        /* \"#utility.yul\":10470:10490   */\n      sub\n        /* \"#utility.yul\":10466:10467   */\n      0x00\n        /* \"#utility.yul\":10455:10464   */\n      dup4\n        /* \"#utility.yul\":10451:10468   */\n      add\n        /* \"#utility.yul\":10444:10491   */\n      mstore\n        /* \"#utility.yul\":10508:10639   */\n      tag_348\n        /* \"#utility.yul\":10634:10638   */\n      dup2\n        /* \"#utility.yul\":10508:10639   */\n      tag_221\n      jump\t// in\n    tag_348:\n        /* \"#utility.yul\":10500:10639   */\n      swap1\n      pop\n        /* \"#utility.yul\":10227:10646   */\n      swap2\n      swap1\n      pop\n      jump\t// out\n        /* \"#utility.yul\":10652:10832   */\n    tag_222:\n        /* \"#utility.yul\":10700:10777   */\n      0x4e487b7100000000000000000000000000000000000000000000000000000000\n        /* \"#utility.yul\":10697:10698   */\n      0x00\n        /* \"#utility.yul\":10690:10778   */\n      mstore\n        /* \"#utility.yul\":10797:10801   */\n      0x11\n        /* \"#utility.yul\":10794:10795   */\n      0x04\n        /* \"#utility.yul\":10787:10802   */\n      mstore\n        /* \"#utility.yul\":10821:10825   */\n      0x24\n        /* \"#utility.yul\":10818:10819   */\n      0x00\n        /* \"#utility.yul\":10811:10826   */\n      revert\n        /* \"#utility.yul\":10838:11032   */\n    tag_81:\n        /* \"#utility.yul\":10878:10882   */\n      0x00\n        /* \"#utility.yul\":10898:10918   */\n      tag_351\n        /* \"#utility.yul\":10916:10917   */\n      dup3\n        /* \"#utility.yul\":10898:10918   */\n      tag_201\n      jump\t// in\n    tag_351:\n        /* \"#utility.yul\":10893:10918   */\n      swap2\n      pop\n        /* \"#utility.yul\":10932:10952   */\n      tag_352\n        /* \"#utility.yul\":10950:10951   */\n      dup4\n        /* \"#utility.yul\":10932:10952   */\n      tag_201\n      jump\t// in\n    tag_352:\n        /* \"#utility.yul\":10927:10952   */\n      swap3\n      pop\n        /* \"#utility.yul\":10976:10977   */\n      dup3\n        /* \"#utility.yul\":10973:10974   */\n      dup3\n        /* \"#utility.yul\":10969:10978   */\n      sub\n        /* \"#utility.yul\":10961:10978   */\n      swap1\n      pop\n        /* \"#utility.yul\":11000:11001   */\n      dup2\n        /* \"#utility.yul\":10994:10998   */\n      dup2\n        /* \"#utility.yul\":10991:11002   */\n      gt\n        /* \"#utility.yul\":10988:11025   */\n      iszero\n      tag_353\n      jumpi\n        /* \"#utility.yul\":11005:11023   */\n      tag_354\n      tag_222\n      jump\t// in\n    tag_354:\n        /* \"#utility.yul\":10988:11025   */\n    tag_353:\n        /* \"#utility.yul\":10838:11032   */\n      swap3\n      swap2\n      pop\n      pop\n      jump\t// out\n        /* \"#utility.yul\":11038:11218   */\n    tag_223:\n        /* \"#utility.yul\":11178:11210   */\n      0x4e6f7420656e6f7567682061737365747320746f207769746864726177210000\n        /* \"#utility.yul\":11174:11175   */\n      0x00\n        /* \"#utility.yul\":11166:11172   */\n      dup3\n        /* \"#utility.yul\":11162:11176   */\n      add\n        /* \"#utility.yul\":11155:11211   */\n      mstore\n        /* \"#utility.yul\":11038:11218   */\n      pop\n      jump\t// out\n        /* \"#utility.yul\":11224:11590   */\n    tag_224:\n        /* \"#utility.yul\":11366:11369   */\n      0x00\n        /* \"#utility.yul\":11387:11454   */\n      tag_357\n        /* \"#utility.yul\":11451:11453   */\n      0x1e\n        /* \"#utility.yul\":11446:11449   */\n      dup4\n        /* \"#utility.yul\":11387:11454   */\n      tag_215\n      jump\t// in\n    tag_357:\n        /* \"#utility.yul\":11380:11454   */\n      swap2\n      pop\n        /* \"#utility.yul\":11463:11556   */\n      tag_358\n        /* \"#utility.yul\":11552:11555   */\n      dup3\n        /* \"#utility.yul\":11463:11556   */\n      tag_223\n      jump\t// in\n    tag_358:\n        /* \"#utility.yul\":11581:11583   */\n      0x20\n        /* \"#utility.yul\":11576:11579   */\n      dup3\n        /* \"#utility.yul\":11572:11584   */\n      add\n        /* \"#utility.yul\":11565:11584   */\n      swap1\n      pop\n        /* \"#utility.yul\":11224:11590   */\n      swap2\n      swap1\n      pop\n      jump\t// out\n        /* \"#utility.yul\":11596:12015   */\n    tag_84:\n        /* \"#utility.yul\":11762:11766   */\n      0x00\n        /* \"#utility.yul\":11800:11802   */\n      0x20\n        /* \"#utility.yul\":11789:11798   */\n      dup3\n        /* \"#utility.yul\":11785:11803   */\n      add\n        /* \"#utility.yul\":11777:11803   */\n      swap1\n      pop\n        /* \"#utility.yul\":11849:11858   */\n      dup2\n        /* \"#utility.yul\":11843:11847   */\n      dup2\n        /* \"#utility.yul\":11839:11859   */\n      sub\n        /* \"#utility.yul\":11835:11836   */\n      0x00\n        /* \"#utility.yul\":11824:11833   */\n      dup4\n        /* \"#utility.yul\":11820:11837   */\n      add\n        /* \"#utility.yul\":11813:11860   */\n      mstore\n        /* \"#utility.yul\":11877:12008   */\n      tag_360\n        /* \"#utility.yul\":12003:12007   */\n      dup2\n        /* \"#utility.yul\":11877:12008   */\n      tag_224\n      jump\t// in\n    tag_360:\n        /* \"#utility.yul\":11869:12008   */\n      swap1\n      pop\n        /* \"#utility.yul\":11596:12015   */\n      swap2\n      swap1\n      pop\n      jump\t// out\n        /* \"#utility.yul\":12021:12168   */\n    tag_225:\n        /* \"#utility.yul\":12122:12133   */\n      0x00\n        /* \"#utility.yul\":12159:12162   */\n      dup2\n        /* \"#utility.yul\":12144:12162   */\n      swap1\n      pop\n        /* \"#utility.yul\":12021:12168   */\n      swap3\n      swap2\n      pop\n      pop\n      jump\t// out\n        /* \"#utility.yul\":12174:12288   */\n    tag_226:\n      pop\n      jump\t// out\n        /* \"#utility.yul\":12294:12692   */\n    tag_227:\n        /* \"#utility.yul\":12453:12456   */\n      0x00\n        /* \"#utility.yul\":12474:12557   */\n      tag_364\n        /* \"#utility.yul\":12555:12556   */\n      0x00\n        /* \"#utility.yul\":12550:12553   */\n      dup4\n        /* \"#utility.yul\":12474:12557   */\n      tag_225\n      jump\t// in\n    tag_364:\n        /* \"#utility.yul\":12467:12557   */\n      swap2\n      pop\n        /* \"#utility.yul\":12566:12659   */\n      tag_365\n        /* \"#utility.yul\":12655:12658   */\n      dup3\n        /* \"#utility.yul\":12566:12659   */\n      tag_226\n      jump\t// in\n    tag_365:\n        /* \"#utility.yul\":12684:12685   */\n      0x00\n        /* \"#utility.yul\":12679:12682   */\n      dup3\n        /* \"#utility.yul\":12675:12686   */\n      add\n        /* \"#utility.yul\":12668:12686   */\n      swap1\n      pop\n        /* \"#utility.yul\":12294:12692   */\n      swap2\n      swap1\n      pop\n      jump\t// out\n        /* \"#utility.yul\":12698:13077   */\n    tag_94:\n        /* \"#utility.yul\":12882:12885   */\n      0x00\n        /* \"#utility.yul\":12904:13051   */\n      tag_367\n        /* \"#utility.yul\":13047:13050   */\n      dup3\n        /* \"#utility.yul\":12904:13051   */\n      tag_227\n      jump\t// in\n    tag_367:\n        /* \"#utility.yul\":12897:13051   */\n      swap2\n      pop\n        /* \"#utility.yul\":13068:13071   */\n      dup2\n        /* \"#utility.yul\":13061:13071   */\n      swap1\n      pop\n        /* \"#utility.yul\":12698:13077   */\n      swap2\n      swap1\n      pop\n      jump\t// out\n        /* \"#utility.yul\":13083:13252   */\n    tag_228:\n        /* \"#utility.yul\":13223:13244   */\n      0x455448207472616e73666572206661696c656400000000000000000000000000\n        /* \"#utility.yul\":13219:13220   */\n      0x00\n        /* \"#utility.yul\":13211:13217   */\n      dup3\n        /* \"#utility.yul\":13207:13221   */\n      add\n        /* \"#utility.yul\":13200:13245   */\n      mstore\n        /* \"#utility.yul\":13083:13252   */\n      pop\n      jump\t// out\n        /* \"#utility.yul\":13258:13624   */\n    tag_229:\n        /* \"#utility.yul\":13400:13403   */\n      0x00\n        /* \"#utility.yul\":13421:13488   */\n      tag_370\n        /* \"#utility.yul\":13485:13487   */\n      0x13\n        /* \"#utility.yul\":13480:13483   */\n      dup4\n        /* \"#utility.yul\":13421:13488   */\n      tag_215\n      jump\t// in\n    tag_370:\n        /* \"#utility.yul\":13414:13488   */\n      swap2\n      pop\n        /* \"#utility.yul\":13497:13590   */\n      tag_371\n        /* \"#utility.yul\":13586:13589   */\n      dup3\n        /* \"#utility.yul\":13497:13590   */\n      tag_228\n      jump\t// in\n    tag_371:\n        /* \"#utility.yul\":13615:13617   */\n      0x20\n        /* \"#utility.yul\":13610:13613   */\n      dup3\n        /* \"#utility.yul\":13606:13618   */\n      add\n        /* \"#utility.yul\":13599:13618   */\n      swap1\n      pop\n        /* \"#utility.yul\":13258:13624   */\n      swap2\n      swap1\n      pop\n      jump\t// out\n        /* \"#utility.yul\":13630:14049   */\n    tag_100:\n        /* \"#utility.yul\":13796:13800   */\n      0x00\n        /* \"#utility.yul\":13834:13836   */\n      0x20\n        /* \"#utility.yul\":13823:13832   */\n      dup3\n        /* \"#utility.yul\":13819:13837   */\n      add\n        /* \"#utility.yul\":13811:13837   */\n      swap1\n      pop\n        /* \"#utility.yul\":13883:13892   */\n      dup2\n        /* \"#utility.yul\":13877:13881   */\n      dup2\n        /* \"#utility.yul\":13873:13893   */\n      sub\n        /* \"#utility.yul\":13869:13870   */\n      0x00\n        /* \"#utility.yul\":13858:13867   */\n      dup4\n        /* \"#utility.yul\":13854:13871   */\n      add\n        /* \"#utility.yul\":13847:13894   */\n      mstore\n        /* \"#utility.yul\":13911:14042   */\n      tag_373\n        /* \"#utility.yul\":14037:14041   */\n      dup2\n        /* \"#utility.yul\":13911:14042   */\n      tag_229\n      jump\t// in\n    tag_373:\n        /* \"#utility.yul\":13903:14042   */\n      swap1\n      pop\n        /* \"#utility.yul\":13630:14049   */\n      swap2\n      swap1\n      pop\n      jump\t// out\n        /* \"#utility.yul\":14055:14379   */\n    tag_105:\n        /* \"#utility.yul\":14172:14176   */\n      0x00\n        /* \"#utility.yul\":14210:14212   */\n      0x40\n        /* \"#utility.yul\":14199:14208   */\n      dup3\n        /* \"#utility.yul\":14195:14213   */\n      add\n        /* \"#utility.yul\":14187:14213   */\n      swap1\n      pop\n        /* \"#utility.yul\":14223:14294   */\n      tag_375\n        /* \"#utility.yul\":14291:14292   */\n      0x00\n        /* \"#utility.yul\":14280:14289   */\n      dup4\n        /* \"#utility.yul\":14276:14293   */\n      add\n        /* \"#utility.yul\":14267:14273   */\n      dup6\n        /* \"#utility.yul\":14223:14294   */\n      tag_202\n      jump\t// in\n    tag_375:\n        /* \"#utility.yul\":14304:14372   */\n      tag_376\n        /* \"#utility.yul\":14368:14370   */\n      0x20\n        /* \"#utility.yul\":14357:14366   */\n      dup4\n        /* \"#utility.yul\":14353:14371   */\n      add\n        /* \"#utility.yul\":14344:14350   */\n      dup5\n        /* \"#utility.yul\":14304:14372   */\n      tag_211\n      jump\t// in\n    tag_376:\n        /* \"#utility.yul\":14055:14379   */\n      swap4\n      swap3\n      pop\n      pop\n      pop\n      jump\t// out\n        /* \"#utility.yul\":14385:14611   */\n    tag_230:\n        /* \"#utility.yul\":14525:14559   */\n      0x45544820746f206c6f636b206d75737420612076616c75652067726561746572\n        /* \"#utility.yul\":14521:14522   */\n      0x00\n        /* \"#utility.yul\":14513:14519   */\n      dup3\n        /* \"#utility.yul\":14509:14523   */\n      add\n        /* \"#utility.yul\":14502:14560   */\n      mstore\n        /* \"#utility.yul\":14594:14603   */\n      0x207468616e203000000000000000000000000000000000000000000000000000\n        /* \"#utility.yul\":14589:14591   */\n      0x20\n        /* \"#utility.yul\":14581:14587   */\n      dup3\n        /* \"#utility.yul\":14577:14592   */\n      add\n        /* \"#utility.yul\":14570:14604   */\n      mstore\n        /* \"#utility.yul\":14385:14611   */\n      pop\n      jump\t// out\n        /* \"#utility.yul\":14617:14983   */\n    tag_231:\n        /* \"#utility.yul\":14759:14762   */\n      0x00\n        /* \"#utility.yul\":14780:14847   */\n      tag_379\n        /* \"#utility.yul\":14844:14846   */\n      0x27\n        /* \"#utility.yul\":14839:14842   */\n      dup4\n        /* \"#utility.yul\":14780:14847   */\n      tag_215\n      jump\t// in\n    tag_379:\n        /* \"#utility.yul\":14773:14847   */\n      swap2\n      pop\n        /* \"#utility.yul\":14856:14949   */\n      tag_380\n        /* \"#utility.yul\":14945:14948   */\n      dup3\n        /* \"#utility.yul\":14856:14949   */\n      tag_230\n      jump\t// in\n    tag_380:\n        /* \"#utility.yul\":14974:14976   */\n      0x40\n        /* \"#utility.yul\":14969:14972   */\n      dup3\n        /* \"#utility.yul\":14965:14977   */\n      add\n        /* \"#utility.yul\":14958:14977   */\n      swap1\n      pop\n        /* \"#utility.yul\":14617:14983   */\n      swap2\n      swap1\n      pop\n      jump\t// out\n        /* \"#utility.yul\":14989:15408   */\n    tag_113:\n        /* \"#utility.yul\":15155:15159   */\n      0x00\n        /* \"#utility.yul\":15193:15195   */\n      0x20\n        /* \"#utility.yul\":15182:15191   */\n      dup3\n        /* \"#utility.yul\":15178:15196   */\n      add\n        /* \"#utility.yul\":15170:15196   */\n      swap1\n      pop\n        /* \"#utility.yul\":15242:15251   */\n      dup2\n        /* \"#utility.yul\":15236:15240   */\n      dup2\n        /* \"#utility.yul\":15232:15252   */\n      sub\n        /* \"#utility.yul\":15228:15229   */\n      0x00\n        /* \"#utility.yul\":15217:15226   */\n      dup4\n        /* \"#utility.yul\":15213:15230   */\n      add\n        /* \"#utility.yul\":15206:15253   */\n      mstore\n        /* \"#utility.yul\":15270:15401   */\n      tag_382\n        /* \"#utility.yul\":15396:15400   */\n      dup2\n        /* \"#utility.yul\":15270:15401   */\n      tag_231\n      jump\t// in\n    tag_382:\n        /* \"#utility.yul\":15262:15401   */\n      swap1\n      pop\n        /* \"#utility.yul\":14989:15408   */\n      swap2\n      swap1\n      pop\n      jump\t// out\n        /* \"#utility.yul\":15414:15641   */\n    tag_232:\n        /* \"#utility.yul\":15554:15588   */\n      0x546865206c6f636b706572696f64206d75737420626520677265617465722074\n        /* \"#utility.yul\":15550:15551   */\n      0x00\n        /* \"#utility.yul\":15542:15548   */\n      dup3\n        /* \"#utility.yul\":15538:15552   */\n      add\n        /* \"#utility.yul\":15531:15589   */\n      mstore\n        /* \"#utility.yul\":15623:15633   */\n      0x68656e207a65726f000000000000000000000000000000000000000000000000\n        /* \"#utility.yul\":15618:15620   */\n      0x20\n        /* \"#utility.yul\":15610:15616   */\n      dup3\n        /* \"#utility.yul\":15606:15621   */\n      add\n        /* \"#utility.yul\":15599:15634   */\n      mstore\n        /* \"#utility.yul\":15414:15641   */\n      pop\n      jump\t// out\n        /* \"#utility.yul\":15647:16013   */\n    tag_233:\n        /* \"#utility.yul\":15789:15792   */\n      0x00\n        /* \"#utility.yul\":15810:15877   */\n      tag_385\n        /* \"#utility.yul\":15874:15876   */\n      0x28\n        /* \"#utility.yul\":15869:15872   */\n      dup4\n        /* \"#utility.yul\":15810:15877   */\n      tag_215\n      jump\t// in\n    tag_385:\n        /* \"#utility.yul\":15803:15877   */\n      swap2\n      pop\n        /* \"#utility.yul\":15886:15979   */\n      tag_386\n        /* \"#utility.yul\":15975:15978   */\n      dup3\n        /* \"#utility.yul\":15886:15979   */\n      tag_232\n      jump\t// in\n    tag_386:\n        /* \"#utility.yul\":16004:16006   */\n      0x40\n        /* \"#utility.yul\":15999:16002   */\n      dup3\n        /* \"#utility.yul\":15995:16007   */\n      add\n        /* \"#utility.yul\":15988:16007   */\n      swap1\n      pop\n        /* \"#utility.yul\":15647:16013   */\n      swap2\n      swap1\n      pop\n      jump\t// out\n        /* \"#utility.yul\":16019:16438   */\n    tag_116:\n        /* \"#utility.yul\":16185:16189   */\n      0x00\n        /* \"#utility.yul\":16223:16225   */\n      0x20\n        /* \"#utility.yul\":16212:16221   */\n      dup3\n        /* \"#utility.yul\":16208:16226   */\n      add\n        /* \"#utility.yul\":16200:16226   */\n      swap1\n      pop\n        /* \"#utility.yul\":16272:16281   */\n      dup2\n        /* \"#utility.yul\":16266:16270   */\n      dup2\n        /* \"#utility.yul\":16262:16282   */\n      sub\n        /* \"#utility.yul\":16258:16259   */\n      0x00\n        /* \"#utility.yul\":16247:16256   */\n      dup4\n        /* \"#utility.yul\":16243:16260   */\n      add\n        /* \"#utility.yul\":16236:16283   */\n      mstore\n        /* \"#utility.yul\":16300:16431   */\n      tag_388\n        /* \"#utility.yul\":16426:16430   */\n      dup2\n        /* \"#utility.yul\":16300:16431   */\n      tag_233\n      jump\t// in\n    tag_388:\n        /* \"#utility.yul\":16292:16431   */\n      swap1\n      pop\n        /* \"#utility.yul\":16019:16438   */\n      swap2\n      swap1\n      pop\n      jump\t// out\n        /* \"#utility.yul\":16444:16635   */\n    tag_118:\n        /* \"#utility.yul\":16484:16487   */\n      0x00\n        /* \"#utility.yul\":16503:16523   */\n      tag_390\n        /* \"#utility.yul\":16521:16522   */\n      dup3\n        /* \"#utility.yul\":16503:16523   */\n      tag_201\n      jump\t// in\n    tag_390:\n        /* \"#utility.yul\":16498:16523   */\n      swap2\n      pop\n        /* \"#utility.yul\":16537:16557   */\n      tag_391\n        /* \"#utility.yul\":16555:16556   */\n      dup4\n        /* \"#utility.yul\":16537:16557   */\n      tag_201\n      jump\t// in\n    tag_391:\n        /* \"#utility.yul\":16532:16557   */\n      swap3\n      pop\n        /* \"#utility.yul\":16580:16581   */\n      dup3\n        /* \"#utility.yul\":16577:16578   */\n      dup3\n        /* \"#utility.yul\":16573:16582   */\n      add\n        /* \"#utility.yul\":16566:16582   */\n      swap1\n      pop\n        /* \"#utility.yul\":16601:16604   */\n      dup1\n        /* \"#utility.yul\":16598:16599   */\n      dup3\n        /* \"#utility.yul\":16595:16605   */\n      gt\n        /* \"#utility.yul\":16592:16628   */\n      iszero\n      tag_392\n      jumpi\n        /* \"#utility.yul\":16608:16626   */\n      tag_393\n      tag_222\n      jump\t// in\n    tag_393:\n        /* \"#utility.yul\":16592:16628   */\n    tag_392:\n        /* \"#utility.yul\":16444:16635   */\n      swap3\n      swap2\n      pop\n      pop\n      jump\t// out\n        /* \"#utility.yul\":16641:17075   */\n    tag_122:\n        /* \"#utility.yul\":16786:16790   */\n      0x00\n        /* \"#utility.yul\":16824:16826   */\n      0x60\n        /* \"#utility.yul\":16813:16822   */\n      dup3\n        /* \"#utility.yul\":16809:16827   */\n      add\n        /* \"#utility.yul\":16801:16827   */\n      swap1\n      pop\n        /* \"#utility.yul\":16837:16908   */\n      tag_395\n        /* \"#utility.yul\":16905:16906   */\n      0x00\n        /* \"#utility.yul\":16894:16903   */\n      dup4\n        /* \"#utility.yul\":16890:16907   */\n      add\n        /* \"#utility.yul\":16881:16887   */\n      dup7\n        /* \"#utility.yul\":16837:16908   */\n      tag_202\n      jump\t// in\n    tag_395:\n        /* \"#utility.yul\":16918:16986   */\n      tag_396\n        /* \"#utility.yul\":16982:16984   */\n      0x20\n        /* \"#utility.yul\":16971:16980   */\n      dup4\n        /* \"#utility.yul\":16967:16985   */\n      add\n        /* \"#utility.yul\":16958:16964   */\n      dup6\n        /* \"#utility.yul\":16918:16986   */\n      tag_211\n      jump\t// in\n    tag_396:\n        /* \"#utility.yul\":16996:17068   */\n      tag_397\n        /* \"#utility.yul\":17064:17066   */\n      0x40\n        /* \"#utility.yul\":17053:17062   */\n      dup4\n        /* \"#utility.yul\":17049:17067   */\n      add\n        /* \"#utility.yul\":17040:17046   */\n      dup5\n        /* \"#utility.yul\":16996:17068   */\n      tag_202\n      jump\t// in\n    tag_397:\n        /* \"#utility.yul\":16641:17075   */\n      swap5\n      swap4\n      pop\n      pop\n      pop\n      pop\n      jump\t// out\n        /* \"#utility.yul\":17081:17302   */\n    tag_234:\n        /* \"#utility.yul\":17221:17255   */\n      0x4d7573742070726f7669646520612076616c696420746f6b656e206164647265\n        /* \"#utility.yul\":17217:17218   */\n      0x00\n        /* \"#utility.yul\":17209:17215   */\n      dup3\n        /* \"#utility.yul\":17205:17219   */\n      add\n        /* \"#utility.yul\":17198:17256   */\n      mstore\n        /* \"#utility.yul\":17290:17294   */\n      0x7373000000000000000000000000000000000000000000000000000000000000\n        /* \"#utility.yul\":17285:17287   */\n      0x20\n        /* \"#utility.yul\":17277:17283   */\n      dup3\n        /* \"#utility.yul\":17273:17288   */\n      add\n        /* \"#utility.yul\":17266:17295   */\n      mstore\n        /* \"#utility.yul\":17081:17302   */\n      pop\n      jump\t// out\n        /* \"#utility.yul\":17308:17674   */\n    tag_235:\n        /* \"#utility.yul\":17450:17453   */\n      0x00\n        /* \"#utility.yul\":17471:17538   */\n      tag_400\n        /* \"#utility.yul\":17535:17537   */\n      0x22\n        /* \"#utility.yul\":17530:17533   */\n      dup4\n        /* \"#utility.yul\":17471:17538   */\n      tag_215\n      jump\t// in\n    tag_400:\n        /* \"#utility.yul\":17464:17538   */\n      swap2\n      pop\n        /* \"#utility.yul\":17547:17640   */\n      tag_401\n        /* \"#utility.yul\":17636:17639   */\n      dup3\n        /* \"#utility.yul\":17547:17640   */\n      tag_234\n      jump\t// in\n    tag_401:\n        /* \"#utility.yul\":17665:17667   */\n      0x40\n        /* \"#utility.yul\":17660:17663   */\n      dup3\n        /* \"#utility.yul\":17656:17668   */\n      add\n        /* \"#utility.yul\":17649:17668   */\n      swap1\n      pop\n        /* \"#utility.yul\":17308:17674   */\n      swap2\n      swap1\n      pop\n      jump\t// out\n        /* \"#utility.yul\":17680:18099   */\n    tag_129:\n        /* \"#utility.yul\":17846:17850   */\n      0x00\n        /* \"#utility.yul\":17884:17886   */\n      0x20\n        /* \"#utility.yul\":17873:17882   */\n      dup3\n        /* \"#utility.yul\":17869:17887   */\n      add\n        /* \"#utility.yul\":17861:17887   */\n      swap1\n      pop\n        /* \"#utility.yul\":17933:17942   */\n      dup2\n        /* \"#utility.yul\":17927:17931   */\n      dup2\n        /* \"#utility.yul\":17923:17943   */\n      sub\n        /* \"#utility.yul\":17919:17920   */\n      0x00\n        /* \"#utility.yul\":17908:17917   */\n      dup4\n        /* \"#utility.yul\":17904:17921   */\n      add\n        /* \"#utility.yul\":17897:17944   */\n      mstore\n        /* \"#utility.yul\":17961:18092   */\n      tag_403\n        /* \"#utility.yul\":18087:18091   */\n      dup2\n        /* \"#utility.yul\":17961:18092   */\n      tag_235\n      jump\t// in\n    tag_403:\n        /* \"#utility.yul\":17953:18092   */\n      swap1\n      pop\n        /* \"#utility.yul\":17680:18099   */\n      swap2\n      swap1\n      pop\n      jump\t// out\n        /* \"#utility.yul\":18105:18330   */\n    tag_236:\n        /* \"#utility.yul\":18245:18279   */\n      0x546f6b656e20616d6f756e74206d757374206265206772656174657220746865\n        /* \"#utility.yul\":18241:18242   */\n      0x00\n        /* \"#utility.yul\":18233:18239   */\n      dup3\n        /* \"#utility.yul\":18229:18243   */\n      add\n        /* \"#utility.yul\":18222:18280   */\n      mstore\n        /* \"#utility.yul\":18314:18322   */\n      0x6e207a65726f0000000000000000000000000000000000000000000000000000\n        /* \"#utility.yul\":18309:18311   */\n      0x20\n        /* \"#utility.yul\":18301:18307   */\n      dup3\n        /* \"#utility.yul\":18297:18312   */\n      add\n        /* \"#utility.yul\":18290:18323   */\n      mstore\n        /* \"#utility.yul\":18105:18330   */\n      pop\n      jump\t// out\n        /* \"#utility.yul\":18336:18702   */\n    tag_237:\n        /* \"#utility.yul\":18478:18481   */\n      0x00\n        /* \"#utility.yul\":18499:18566   */\n      tag_406\n        /* \"#utility.yul\":18563:18565   */\n      0x26\n        /* \"#utility.yul\":18558:18561   */\n      dup4\n        /* \"#utility.yul\":18499:18566   */\n      tag_215\n      jump\t// in\n    tag_406:\n        /* \"#utility.yul\":18492:18566   */\n      swap2\n      pop\n        /* \"#utility.yul\":18575:18668   */\n      tag_407\n        /* \"#utility.yul\":18664:18667   */\n      dup3\n        /* \"#utility.yul\":18575:18668   */\n      tag_236\n      jump\t// in\n    tag_407:\n        /* \"#utility.yul\":18693:18695   */\n      0x40\n        /* \"#utility.yul\":18688:18691   */\n      dup3\n        /* \"#utility.yul\":18684:18696   */\n      add\n        /* \"#utility.yul\":18677:18696   */\n      swap1\n      pop\n        /* \"#utility.yul\":18336:18702   */\n      swap2\n      swap1\n      pop\n      jump\t// out\n        /* \"#utility.yul\":18708:19127   */\n    tag_132:\n        /* \"#utility.yul\":18874:18878   */\n      0x00\n        /* \"#utility.yul\":18912:18914   */\n      0x20\n        /* \"#utility.yul\":18901:18910   */\n      dup3\n        /* \"#utility.yul\":18897:18915   */\n      add\n        /* \"#utility.yul\":18889:18915   */\n      swap1\n      pop\n        /* \"#utility.yul\":18961:18970   */\n      dup2\n        /* \"#utility.yul\":18955:18959   */\n      dup2\n        /* \"#utility.yul\":18951:18971   */\n      sub\n        /* \"#utility.yul\":18947:18948   */\n      0x00\n        /* \"#utility.yul\":18936:18945   */\n      dup4\n        /* \"#utility.yul\":18932:18949   */\n      add\n        /* \"#utility.yul\":18925:18972   */\n      mstore\n        /* \"#utility.yul\":18989:19120   */\n      tag_409\n        /* \"#utility.yul\":19115:19119   */\n      dup2\n        /* \"#utility.yul\":18989:19120   */\n      tag_237\n      jump\t// in\n    tag_409:\n        /* \"#utility.yul\":18981:19120   */\n      swap1\n      pop\n        /* \"#utility.yul\":18708:19127   */\n      swap2\n      swap1\n      pop\n      jump\t// out\n        /* \"#utility.yul\":19133:19361   */\n    tag_238:\n        /* \"#utility.yul\":19273:19307   */\n      0x546865206c6f636b20706572696f64206d757374206265206772656174657220\n        /* \"#utility.yul\":19269:19270   */\n      0x00\n        /* \"#utility.yul\":19261:19267   */\n      dup3\n        /* \"#utility.yul\":19257:19271   */\n      add\n        /* \"#utility.yul\":19250:19308   */\n      mstore\n        /* \"#utility.yul\":19342:19353   */\n      0x7468656e207a65726f0000000000000000000000000000000000000000000000\n        /* \"#utility.yul\":19337:19339   */\n      0x20\n        /* \"#utility.yul\":19329:19335   */\n      dup3\n        /* \"#utility.yul\":19325:19340   */\n      add\n        /* \"#utility.yul\":19318:19354   */\n      mstore\n        /* \"#utility.yul\":19133:19361   */\n      pop\n      jump\t// out\n        /* \"#utility.yul\":19367:19733   */\n    tag_239:\n        /* \"#utility.yul\":19509:19512   */\n      0x00\n        /* \"#utility.yul\":19530:19597   */\n      tag_412\n        /* \"#utility.yul\":19594:19596   */\n      0x29\n        /* \"#utility.yul\":19589:19592   */\n      dup4\n        /* \"#utility.yul\":19530:19597   */\n      tag_215\n      jump\t// in\n    tag_412:\n        /* \"#utility.yul\":19523:19597   */\n      swap2\n      pop\n        /* \"#utility.yul\":19606:19699   */\n      tag_413\n        /* \"#utility.yul\":19695:19698   */\n      dup3\n        /* \"#utility.yul\":19606:19699   */\n      tag_238\n      jump\t// in\n    tag_413:\n        /* \"#utility.yul\":19724:19726   */\n      0x40\n        /* \"#utility.yul\":19719:19722   */\n      dup3\n        /* \"#utility.yul\":19715:19727   */\n      add\n        /* \"#utility.yul\":19708:19727   */\n      swap1\n      pop\n        /* \"#utility.yul\":19367:19733   */\n      swap2\n      swap1\n      pop\n      jump\t// out\n        /* \"#utility.yul\":19739:20158   */\n    tag_135:\n        /* \"#utility.yul\":19905:19909   */\n      0x00\n        /* \"#utility.yul\":19943:19945   */\n      0x20\n        /* \"#utility.yul\":19932:19941   */\n      dup3\n        /* \"#utility.yul\":19928:19946   */\n      add\n        /* \"#utility.yul\":19920:19946   */\n      swap1\n      pop\n        /* \"#utility.yul\":19992:20001   */\n      dup2\n        /* \"#utility.yul\":19986:19990   */\n      dup2\n        /* \"#utility.yul\":19982:20002   */\n      sub\n        /* \"#utility.yul\":19978:19979   */\n      0x00\n        /* \"#utility.yul\":19967:19976   */\n      dup4\n        /* \"#utility.yul\":19963:19980   */\n      add\n        /* \"#utility.yul\":19956:20003   */\n      mstore\n        /* \"#utility.yul\":20020:20151   */\n      tag_415\n        /* \"#utility.yul\":20146:20150   */\n      dup2\n        /* \"#utility.yul\":20020:20151   */\n      tag_239\n      jump\t// in\n    tag_415:\n        /* \"#utility.yul\":20012:20151   */\n      swap1\n      pop\n        /* \"#utility.yul\":19739:20158   */\n      swap2\n      swap1\n      pop\n      jump\t// out\n        /* \"#utility.yul\":20164:20339   */\n    tag_240:\n        /* \"#utility.yul\":20304:20331   */\n      0x4e6f7420656e6f75676820746f6b656e7320746f206c6f636b00000000000000\n        /* \"#utility.yul\":20300:20301   */\n      0x00\n        /* \"#utility.yul\":20292:20298   */\n      dup3\n        /* \"#utility.yul\":20288:20302   */\n      add\n        /* \"#utility.yul\":20281:20332   */\n      mstore\n        /* \"#utility.yul\":20164:20339   */\n      pop\n      jump\t// out\n        /* \"#utility.yul\":20345:20711   */\n    tag_241:\n        /* \"#utility.yul\":20487:20490   */\n      0x00\n        /* \"#utility.yul\":20508:20575   */\n      tag_418\n        /* \"#utility.yul\":20572:20574   */\n      0x19\n        /* \"#utility.yul\":20567:20570   */\n      dup4\n        /* \"#utility.yul\":20508:20575   */\n      tag_215\n      jump\t// in\n    tag_418:\n        /* \"#utility.yul\":20501:20575   */\n      swap2\n      pop\n        /* \"#utility.yul\":20584:20677   */\n      tag_419\n        /* \"#utility.yul\":20673:20676   */\n      dup3\n        /* \"#utility.yul\":20584:20677   */\n      tag_240\n      jump\t// in\n    tag_419:\n        /* \"#utility.yul\":20702:20704   */\n      0x20\n        /* \"#utility.yul\":20697:20700   */\n      dup3\n        /* \"#utility.yul\":20693:20705   */\n      add\n        /* \"#utility.yul\":20686:20705   */\n      swap1\n      pop\n        /* \"#utility.yul\":20345:20711   */\n      swap2\n      swap1\n      pop\n      jump\t// out\n        /* \"#utility.yul\":20717:21136   */\n    tag_142:\n        /* \"#utility.yul\":20883:20887   */\n      0x00\n        /* \"#utility.yul\":20921:20923   */\n      0x20\n        /* \"#utility.yul\":20910:20919   */\n      dup3\n        /* \"#utility.yul\":20906:20924   */\n      add\n        /* \"#utility.yul\":20898:20924   */\n      swap1\n      pop\n        /* \"#utility.yul\":20970:20979   */\n      dup2\n        /* \"#utility.yul\":20964:20968   */\n      dup2\n        /* \"#utility.yul\":20960:20980   */\n      sub\n        /* \"#utility.yul\":20956:20957   */\n      0x00\n        /* \"#utility.yul\":20945:20954   */\n      dup4\n        /* \"#utility.yul\":20941:20958   */\n      add\n        /* \"#utility.yul\":20934:20981   */\n      mstore\n        /* \"#utility.yul\":20998:21129   */\n      tag_421\n        /* \"#utility.yul\":21124:21128   */\n      dup2\n        /* \"#utility.yul\":20998:21129   */\n      tag_241\n      jump\t// in\n    tag_421:\n        /* \"#utility.yul\":20990:21129   */\n      swap1\n      pop\n        /* \"#utility.yul\":20717:21136   */\n      swap2\n      swap1\n      pop\n      jump\t// out\n        /* \"#utility.yul\":21142:21474   */\n    tag_171:\n        /* \"#utility.yul\":21263:21267   */\n      0x00\n        /* \"#utility.yul\":21301:21303   */\n      0x40\n        /* \"#utility.yul\":21290:21299   */\n      dup3\n        /* \"#utility.yul\":21286:21304   */\n      add\n        /* \"#utility.yul\":21278:21304   */\n      swap1\n      pop\n        /* \"#utility.yul\":21314:21385   */\n      tag_423\n        /* \"#utility.yul\":21382:21383   */\n      0x00\n        /* \"#utility.yul\":21371:21380   */\n      dup4\n        /* \"#utility.yul\":21367:21384   */\n      add\n        /* \"#utility.yul\":21358:21364   */\n      dup6\n        /* \"#utility.yul\":21314:21385   */\n      tag_208\n      jump\t// in\n    tag_423:\n        /* \"#utility.yul\":21395:21467   */\n      tag_424\n        /* \"#utility.yul\":21463:21465   */\n      0x20\n        /* \"#utility.yul\":21452:21461   */\n      dup4\n        /* \"#utility.yul\":21448:21466   */\n      add\n        /* \"#utility.yul\":21439:21445   */\n      dup5\n        /* \"#utility.yul\":21395:21467   */\n      tag_202\n      jump\t// in\n    tag_424:\n        /* \"#utility.yul\":21142:21474   */\n      swap4\n      swap3\n      pop\n      pop\n      pop\n      jump\t// out\n        /* \"#utility.yul\":21480:21922   */\n    tag_177:\n        /* \"#utility.yul\":21629:21633   */\n      0x00\n        /* \"#utility.yul\":21667:21669   */\n      0x60\n        /* \"#utility.yul\":21656:21665   */\n      dup3\n        /* \"#utility.yul\":21652:21670   */\n      add\n        /* \"#utility.yul\":21644:21670   */\n      swap1\n      pop\n        /* \"#utility.yul\":21680:21751   */\n      tag_426\n        /* \"#utility.yul\":21748:21749   */\n      0x00\n        /* \"#utility.yul\":21737:21746   */\n      dup4\n        /* \"#utility.yul\":21733:21750   */\n      add\n        /* \"#utility.yul\":21724:21730   */\n      dup7\n        /* \"#utility.yul\":21680:21751   */\n      tag_208\n      jump\t// in\n    tag_426:\n        /* \"#utility.yul\":21761:21833   */\n      tag_427\n        /* \"#utility.yul\":21829:21831   */\n      0x20\n        /* \"#utility.yul\":21818:21827   */\n      dup4\n        /* \"#utility.yul\":21814:21832   */\n      add\n        /* \"#utility.yul\":21805:21811   */\n      dup6\n        /* \"#utility.yul\":21761:21833   */\n      tag_208\n      jump\t// in\n    tag_427:\n        /* \"#utility.yul\":21843:21915   */\n      tag_428\n        /* \"#utility.yul\":21911:21913   */\n      0x40\n        /* \"#utility.yul\":21900:21909   */\n      dup4\n        /* \"#utility.yul\":21896:21914   */\n      add\n        /* \"#utility.yul\":21887:21893   */\n      dup5\n        /* \"#utility.yul\":21843:21915   */\n      tag_202\n      jump\t// in\n    tag_428:\n        /* \"#utility.yul\":21480:21922   */\n      swap5\n      swap4\n      pop\n      pop\n      pop\n      pop\n      jump\t// out\n\n    auxdata: 0xa2646970667358221220000365e3d8ab505d434594253e01f6a60259186687a925e9885353b582ebdb5b64736f6c634300081a0033\n}\n",
				"bytecode": {
					"linkReferences": {},
					"object": "608060405234801561000f575f80fd5b50335f73ffffffffffffffffffffffffffffffffffffffff168173ffffffffffffffffffffffffffffffffffffffff1603610081575f6040517f1e4fbdf7000000000000000000000000000000000000000000000000000000008152600401610078919061019d565b60405180910390fd5b6100908161009d60201b60201c565b50600180819055506101b6565b5f805f9054906101000a900473ffffffffffffffffffffffffffffffffffffffff169050815f806101000a81548173ffffffffffffffffffffffffffffffffffffffff021916908373ffffffffffffffffffffffffffffffffffffffff1602179055508173ffffffffffffffffffffffffffffffffffffffff168173ffffffffffffffffffffffffffffffffffffffff167f8be0079c531659141344cd1fd0a4f28419497f9722a3daafe3b4186f6b6457e060405160405180910390a35050565b5f73ffffffffffffffffffffffffffffffffffffffff82169050919050565b5f6101878261015e565b9050919050565b6101978161017d565b82525050565b5f6020820190506101b05f83018461018e565b92915050565b611cd4806101c35f395ff3fe608060405260043610610085575f3560e01c8063715018a611610058578063715018a6146101315780638c89a0ad146101475780638da5cb5b14610171578063a0ffe2ba1461019b578063f2fde38b146101dc57610085565b806314205e28146100895780633fcbb6ac146100c55780634ae39e3e146100ed5780635c41ed7c14610109575b5f80fd5b348015610094575f80fd5b506100af60048036038101906100aa919061120f565b610204565b6040516100bc9190611252565b60405180910390f35b3480156100d0575f80fd5b506100eb60048036038101906100e69190611295565b610284565b005b61010760048036038101906101029190611309565b6106df565b005b348015610114575f80fd5b5061012f600480360381019061012a9190611347565b610947565b005b34801561013c575f80fd5b50610145610d0a565b005b348015610152575f80fd5b5061015b610d1d565b6040516101689190611252565b60405180910390f35b34801561017c575f80fd5b50610185610d24565b60405161019291906113ba565b60405180910390f35b3480156101a6575f80fd5b506101c160048036038101906101bc91906113fd565b610d4b565b6040516101d396959493929190611464565b60405180910390f35b3480156101e7575f80fd5b5061020260048036038101906101fd91906114c3565b610de2565b005b5f8173ffffffffffffffffffffffffffffffffffffffff166370a08231306040518263ffffffff1660e01b815260040161023e91906113ba565b602060405180830381865afa158015610259573d5f803e3d5ffd5b505050506040513d601f19601f8201168201806040525081019061027d9190611502565b9050919050565b61028c610e66565b60025f3373ffffffffffffffffffffffffffffffffffffffff1673ffffffffffffffffffffffffffffffffffffffff1681526020019081526020015f2080549050821061030e576040517f08c379a0000000000000000000000000000000000000000000000000000000008152600401610305906115ad565b60405180910390fd5b5f60025f3373ffffffffffffffffffffffffffffffffffffffff1673ffffffffffffffffffffffffffffffffffffffff1681526020019081526020015f20838154811061035e5761035d6115cb565b5b905f5260205f20906004020190508060030160019054906101000a900460ff16156103be576040517f08c379a00000000000000000000000000000000000000000000000000000000081526004016103b590611668565b60405180910390fd5b80600201544211610404576040517f08c379a00000000000000000000000000000000000000000000000000000000081526004016103fb906116f6565b60405180910390fd5b5f8282600101546104159190611741565b90505f81101561045a576040517f08c379a0000000000000000000000000000000000000000000000000000000008152600401610451906117be565b60405180910390fd5b5f81036104d957600160025f3373ffffffffffffffffffffffffffffffffffffffff1673ffffffffffffffffffffffffffffffffffffffff1681526020019081526020015f2085815481106104b2576104b16115cb565b5b905f5260205f20906004020160030160016101000a81548160ff0219169083151502179055505b8060025f3373ffffffffffffffffffffffffffffffffffffffff1673ffffffffffffffffffffffffffffffffffffffff1681526020019081526020015f208581548110610529576105286115cb565b5b905f5260205f209060040201600101819055508160030160029054906101000a900460ff1615610601575f3373ffffffffffffffffffffffffffffffffffffffff168460405161057890611809565b5f6040518083038185875af1925050503d805f81146105b2576040519150601f19603f3d011682016040523d82523d5f602084013e6105b7565b606091505b50509050806105fb576040517f08c379a00000000000000000000000000000000000000000000000000000000081526004016105f290611867565b60405180910390fd5b5061064f565b61064e3384845f015f9054906101000a900473ffffffffffffffffffffffffffffffffffffffff1673ffffffffffffffffffffffffffffffffffffffff16610eac9092919063ffffffff16565b5b815f015f9054906101000a900473ffffffffffffffffffffffffffffffffffffffff1673ffffffffffffffffffffffffffffffffffffffff167fc609bb1b9c1bfb64d61dbdff01ddbdc74ec1a868f724ceb4991148740c7e423c84846003015f9054906101000a900460ff166040516106c9929190611885565b60405180910390a250506106db610f2b565b5050565b6106e7610e66565b5f3411610729576040517f08c379a00000000000000000000000000000000000000000000000000000000081526004016107209061191c565b60405180910390fd5b5f811161076b576040517f08c379a0000000000000000000000000000000000000000000000000000000008152600401610762906119aa565b60405180910390fd5b60025f3373ffffffffffffffffffffffffffffffffffffffff1673ffffffffffffffffffffffffffffffffffffffff1681526020019081526020015f206040518060c001604052805f73ffffffffffffffffffffffffffffffffffffffff16815260200134815260200183426107e191906119c8565b81526020018460ff1681526020015f1515815260200160011515815250908060018154018082558091505060019003905f5260205f2090600402015f909190919091505f820151815f015f6101000a81548173ffffffffffffffffffffffffffffffffffffffff021916908373ffffffffffffffffffffffffffffffffffffffff16021790555060208201518160010155604082015181600201556060820151816003015f6101000a81548160ff021916908360ff16021790555060808201518160030160016101000a81548160ff02191690831515021790555060a08201518160030160026101000a81548160ff02191690831515021790555050505f73ffffffffffffffffffffffffffffffffffffffff167f93e2e96397ee6091fadabbe37102770c2ed73784ac2b17d1de3d8afcb368ea413484844261092491906119c8565b604051610933939291906119fb565b60405180910390a2610943610f2b565b5050565b61094f610e66565b5f73ffffffffffffffffffffffffffffffffffffffff168473ffffffffffffffffffffffffffffffffffffffff16036109bd576040517f08c379a00000000000000000000000000000000000000000000000000000000081526004016109b490611aa0565b60405180910390fd5b5f83116109ff576040517f08c379a00000000000000000000000000000000000000000000000000000000081526004016109f690611b2e565b60405180910390fd5b5f8111610a41576040517f08c379a0000000000000000000000000000000000000000000000000000000008152600401610a3890611bbc565b60405180910390fd5b5f8473ffffffffffffffffffffffffffffffffffffffff166370a08231336040518263ffffffff1660e01b8152600401610a7b91906113ba565b602060405180830381865afa158015610a96573d5f803e3d5ffd5b505050506040513d601f19601f82011682018060405250810190610aba9190611502565b905080841115610aff576040517f08c379a0000000000000000000000000000000000000000000000000000000008152600401610af690611c24565b60405180910390fd5b610b2c3330868873ffffffffffffffffffffffffffffffffffffffff16610f34909392919063ffffffff16565b60025f3373ffffffffffffffffffffffffffffffffffffffff1673ffffffffffffffffffffffffffffffffffffffff1681526020019081526020015f206040518060c001604052808773ffffffffffffffffffffffffffffffffffffffff1681526020018681526020018442610ba291906119c8565b81526020018560ff1681526020015f151581526020015f1515815250908060018154018082558091505060019003905f5260205f2090600402015f909190919091505f820151815f015f6101000a81548173ffffffffffffffffffffffffffffffffffffffff021916908373ffffffffffffffffffffffffffffffffffffffff16021790555060208201518160010155604082015181600201556060820151816003015f6101000a81548160ff021916908360ff16021790555060808201518160030160016101000a81548160ff02191690831515021790555060a08201518160030160026101000a81548160ff02191690831515021790555050508473ffffffffffffffffffffffffffffffffffffffff167f93e2e96397ee6091fadabbe37102770c2ed73784ac2b17d1de3d8afcb368ea4185858542610ce491906119c8565b604051610cf3939291906119fb565b60405180910390a250610d04610f2b565b50505050565b610d12610fb6565b610d1b5f61103d565b565b5f47905090565b5f805f9054906101000a900473ffffffffffffffffffffffffffffffffffffffff16905090565b6002602052815f5260405f208181548110610d64575f80fd5b905f5260205f2090600402015f9150915050805f015f9054906101000a900473ffffffffffffffffffffffffffffffffffffffff1690806001015490806002015490806003015f9054906101000a900460ff16908060030160019054906101000a900460ff16908060030160029054906101000a900460ff16905086565b610dea610fb6565b5f73ffffffffffffffffffffffffffffffffffffffff168173ffffffffffffffffffffffffffffffffffffffff1603610e5a575f6040517f1e4fbdf7000000000000000000000000000000000000000000000000000000008152600401610e5191906113ba565b60405180910390fd5b610e638161103d565b50565b600260015403610ea2576040517f3ee5aeb500000000000000000000000000000000000000000000000000000000815260040160405180910390fd5b6002600181905550565b610f26838473ffffffffffffffffffffffffffffffffffffffff1663a9059cbb8585604051602401610edf929190611c42565b604051602081830303815290604052915060e01b6020820180517bffffffffffffffffffffffffffffffffffffffffffffffffffffffff83818316178352505050506110fe565b505050565b60018081905550565b610fb0848573ffffffffffffffffffffffffffffffffffffffff166323b872dd868686604051602401610f6993929190611c69565b604051602081830303815290604052915060e01b6020820180517bffffffffffffffffffffffffffffffffffffffffffffffffffffffff83818316178352505050506110fe565b50505050565b610fbe611199565b73ffffffffffffffffffffffffffffffffffffffff16610fdc610d24565b73ffffffffffffffffffffffffffffffffffffffff161461103b57610fff611199565b6040517f118cdaa700000000000000000000000000000000000000000000000000000000815260040161103291906113ba565b60405180910390fd5b565b5f805f9054906101000a900473ffffffffffffffffffffffffffffffffffffffff169050815f806101000a81548173ffffffffffffffffffffffffffffffffffffffff021916908373ffffffffffffffffffffffffffffffffffffffff1602179055508173ffffffffffffffffffffffffffffffffffffffff168173ffffffffffffffffffffffffffffffffffffffff167f8be0079c531659141344cd1fd0a4f28419497f9722a3daafe3b4186f6b6457e060405160405180910390a35050565b5f8060205f8451602086015f885af18061111d576040513d5f823e3d81fd5b3d92505f519150505f8214611136576001811415611151565b5f8473ffffffffffffffffffffffffffffffffffffffff163b145b1561119357836040517f5274afe700000000000000000000000000000000000000000000000000000000815260040161118a91906113ba565b60405180910390fd5b50505050565b5f33905090565b5f80fd5b5f73ffffffffffffffffffffffffffffffffffffffff82169050919050565b5f6111cd826111a4565b9050919050565b5f6111de826111c3565b9050919050565b6111ee816111d4565b81146111f8575f80fd5b50565b5f81359050611209816111e5565b92915050565b5f60208284031215611224576112236111a0565b5b5f611231848285016111fb565b91505092915050565b5f819050919050565b61124c8161123a565b82525050565b5f6020820190506112655f830184611243565b92915050565b6112748161123a565b811461127e575f80fd5b50565b5f8135905061128f8161126b565b92915050565b5f80604083850312156112ab576112aa6111a0565b5b5f6112b885828601611281565b92505060206112c985828601611281565b9150509250929050565b5f60ff82169050919050565b6112e8816112d3565b81146112f2575f80fd5b50565b5f81359050611303816112df565b92915050565b5f806040838503121561131f5761131e6111a0565b5b5f61132c858286016112f5565b925050602061133d85828601611281565b9150509250929050565b5f805f806080858703121561135f5761135e6111a0565b5b5f61136c878288016111fb565b945050602061137d87828801611281565b935050604061138e878288016112f5565b925050606061139f87828801611281565b91505092959194509250565b6113b4816111c3565b82525050565b5f6020820190506113cd5f8301846113ab565b92915050565b6113dc816111c3565b81146113e6575f80fd5b50565b5f813590506113f7816113d3565b92915050565b5f8060408385031215611413576114126111a0565b5b5f611420858286016113e9565b925050602061143185828601611281565b9150509250929050565b611444816112d3565b82525050565b5f8115159050919050565b61145e8161144a565b82525050565b5f60c0820190506114775f8301896113ab565b6114846020830188611243565b6114916040830187611243565b61149e606083018661143b565b6114ab6080830185611455565b6114b860a0830184611455565b979650505050505050565b5f602082840312156114d8576114d76111a0565b5b5f6114e5848285016113e9565b91505092915050565b5f815190506114fc8161126b565b92915050565b5f60208284031215611517576115166111a0565b5b5f611524848285016114ee565b91505092915050565b5f82825260208201905092915050565b7f5468652073706563696669656420617373657420494420697320696e76616c695f8201527f642e000000000000000000000000000000000000000000000000000000000000602082015250565b5f61159760228361152d565b91506115a28261153d565b604082019050919050565b5f6020820190508181035f8301526115c48161158b565b9050919050565b7f4e487b71000000000000000000000000000000000000000000000000000000005f52603260045260245ffd5b7f417373657473206861766520616c7265616479206265656e20776974686472615f8201527f776e210000000000000000000000000000000000000000000000000000000000602082015250565b5f61165260238361152d565b915061165d826115f8565b604082019050919050565b5f6020820190508181035f83015261167f81611646565b9050919050565b7f546865206c6f636b20706572696f6420686173206e6f742079657420657870695f8201527f7265642100000000000000000000000000000000000000000000000000000000602082015250565b5f6116e060248361152d565b91506116eb82611686565b604082019050919050565b5f6020820190508181035f83015261170d816116d4565b9050919050565b7f4e487b71000000000000000000000000000000000000000000000000000000005f52601160045260245ffd5b5f61174b8261123a565b91506117568361123a565b925082820390508181111561176e5761176d611714565b5b92915050565b7f4e6f7420656e6f7567682061737365747320746f2077697468647261772100005f82015250565b5f6117a8601e8361152d565b91506117b382611774565b602082019050919050565b5f6020820190508181035f8301526117d58161179c565b9050919050565b5f81905092915050565b50565b5f6117f45f836117dc565b91506117ff826117e6565b5f82019050919050565b5f611813826117e9565b9150819050919050565b7f455448207472616e73666572206661696c6564000000000000000000000000005f82015250565b5f61185160138361152d565b915061185c8261181d565b602082019050919050565b5f6020820190508181035f83015261187e81611845565b9050919050565b5f6040820190506118985f830185611243565b6118a5602083018461143b565b9392505050565b7f45544820746f206c6f636b206d75737420612076616c756520677265617465725f8201527f207468616e203000000000000000000000000000000000000000000000000000602082015250565b5f61190660278361152d565b9150611911826118ac565b604082019050919050565b5f6020820190508181035f830152611933816118fa565b9050919050565b7f546865206c6f636b706572696f64206d757374206265206772656174657220745f8201527f68656e207a65726f000000000000000000000000000000000000000000000000602082015250565b5f61199460288361152d565b915061199f8261193a565b604082019050919050565b5f6020820190508181035f8301526119c181611988565b9050919050565b5f6119d28261123a565b91506119dd8361123a565b92508282019050808211156119f5576119f4611714565b5b92915050565b5f606082019050611a0e5f830186611243565b611a1b602083018561143b565b611a286040830184611243565b949350505050565b7f4d7573742070726f7669646520612076616c696420746f6b656e2061646472655f8201527f7373000000000000000000000000000000000000000000000000000000000000602082015250565b5f611a8a60228361152d565b9150611a9582611a30565b604082019050919050565b5f6020820190508181035f830152611ab781611a7e565b9050919050565b7f546f6b656e20616d6f756e74206d7573742062652067726561746572207468655f8201527f6e207a65726f0000000000000000000000000000000000000000000000000000602082015250565b5f611b1860268361152d565b9150611b2382611abe565b604082019050919050565b5f6020820190508181035f830152611b4581611b0c565b9050919050565b7f546865206c6f636b20706572696f64206d7573742062652067726561746572205f8201527f7468656e207a65726f0000000000000000000000000000000000000000000000602082015250565b5f611ba660298361152d565b9150611bb182611b4c565b604082019050919050565b5f6020820190508181035f830152611bd381611b9a565b9050919050565b7f4e6f7420656e6f75676820746f6b656e7320746f206c6f636b000000000000005f82015250565b5f611c0e60198361152d565b9150611c1982611bda565b602082019050919050565b5f6020820190508181035f830152611c3b81611c02565b9050919050565b5f604082019050611c555f8301856113ab565b611c626020830184611243565b9392505050565b5f606082019050611c7c5f8301866113ab565b611c8960208301856113ab565b611c966040830184611243565b94935050505056fea2646970667358221220000365e3d8ab505d434594253e01f6a60259186687a925e9885353b582ebdb5b64736f6c634300081a0033",
					"opcodes": "PUSH1 0x80 PUSH1 0x40 MSTORE CALLVALUE DUP1 ISZERO PUSH2 0xF JUMPI PUSH0 DUP1 REVERT JUMPDEST POP CALLER PUSH0 PUSH20 0xFFFFFFFFFFFFFFFFFFFFFFFFFFFFFFFFFFFFFFFF AND DUP2 PUSH20 0xFFFFFFFFFFFFFFFFFFFFFFFFFFFFFFFFFFFFFFFF AND SUB PUSH2 0x81 JUMPI PUSH0 PUSH1 0x40 MLOAD PUSH32 0x1E4FBDF700000000000000000000000000000000000000000000000000000000 DUP2 MSTORE PUSH1 0x4 ADD PUSH2 0x78 SWAP2 SWAP1 PUSH2 0x19D JUMP JUMPDEST PUSH1 0x40 MLOAD DUP1 SWAP2 SUB SWAP1 REVERT JUMPDEST PUSH2 0x90 DUP2 PUSH2 0x9D PUSH1 0x20 SHL PUSH1 0x20 SHR JUMP JUMPDEST POP PUSH1 0x1 DUP1 DUP2 SWAP1 SSTORE POP PUSH2 0x1B6 JUMP JUMPDEST PUSH0 DUP1 PUSH0 SWAP1 SLOAD SWAP1 PUSH2 0x100 EXP SWAP1 DIV PUSH20 0xFFFFFFFFFFFFFFFFFFFFFFFFFFFFFFFFFFFFFFFF AND SWAP1 POP DUP2 PUSH0 DUP1 PUSH2 0x100 EXP DUP2 SLOAD DUP2 PUSH20 0xFFFFFFFFFFFFFFFFFFFFFFFFFFFFFFFFFFFFFFFF MUL NOT AND SWAP1 DUP4 PUSH20 0xFFFFFFFFFFFFFFFFFFFFFFFFFFFFFFFFFFFFFFFF AND MUL OR SWAP1 SSTORE POP DUP2 PUSH20 0xFFFFFFFFFFFFFFFFFFFFFFFFFFFFFFFFFFFFFFFF AND DUP2 PUSH20 0xFFFFFFFFFFFFFFFFFFFFFFFFFFFFFFFFFFFFFFFF AND PUSH32 0x8BE0079C531659141344CD1FD0A4F28419497F9722A3DAAFE3B4186F6B6457E0 PUSH1 0x40 MLOAD PUSH1 0x40 MLOAD DUP1 SWAP2 SUB SWAP1 LOG3 POP POP JUMP JUMPDEST PUSH0 PUSH20 0xFFFFFFFFFFFFFFFFFFFFFFFFFFFFFFFFFFFFFFFF DUP3 AND SWAP1 POP SWAP2 SWAP1 POP JUMP JUMPDEST PUSH0 PUSH2 0x187 DUP3 PUSH2 0x15E JUMP JUMPDEST SWAP1 POP SWAP2 SWAP1 POP JUMP JUMPDEST PUSH2 0x197 DUP2 PUSH2 0x17D JUMP JUMPDEST DUP3 MSTORE POP POP JUMP JUMPDEST PUSH0 PUSH1 0x20 DUP3 ADD SWAP1 POP PUSH2 0x1B0 PUSH0 DUP4 ADD DUP5 PUSH2 0x18E JUMP JUMPDEST SWAP3 SWAP2 POP POP JUMP JUMPDEST PUSH2 0x1CD4 DUP1 PUSH2 0x1C3 PUSH0 CODECOPY PUSH0 RETURN INVALID PUSH1 0x80 PUSH1 0x40 MSTORE PUSH1 0x4 CALLDATASIZE LT PUSH2 0x85 JUMPI PUSH0 CALLDATALOAD PUSH1 0xE0 SHR DUP1 PUSH4 0x715018A6 GT PUSH2 0x58 JUMPI DUP1 PUSH4 0x715018A6 EQ PUSH2 0x131 JUMPI DUP1 PUSH4 0x8C89A0AD EQ PUSH2 0x147 JUMPI DUP1 PUSH4 0x8DA5CB5B EQ PUSH2 0x171 JUMPI DUP1 PUSH4 0xA0FFE2BA EQ PUSH2 0x19B JUMPI DUP1 PUSH4 0xF2FDE38B EQ PUSH2 0x1DC JUMPI PUSH2 0x85 JUMP JUMPDEST DUP1 PUSH4 0x14205E28 EQ PUSH2 0x89 JUMPI DUP1 PUSH4 0x3FCBB6AC EQ PUSH2 0xC5 JUMPI DUP1 PUSH4 0x4AE39E3E EQ PUSH2 0xED JUMPI DUP1 PUSH4 0x5C41ED7C EQ PUSH2 0x109 JUMPI JUMPDEST PUSH0 DUP1 REVERT JUMPDEST CALLVALUE DUP1 ISZERO PUSH2 0x94 JUMPI PUSH0 DUP1 REVERT JUMPDEST POP PUSH2 0xAF PUSH1 0x4 DUP1 CALLDATASIZE SUB DUP2 ADD SWAP1 PUSH2 0xAA SWAP2 SWAP1 PUSH2 0x120F JUMP JUMPDEST PUSH2 0x204 JUMP JUMPDEST PUSH1 0x40 MLOAD PUSH2 0xBC SWAP2 SWAP1 PUSH2 0x1252 JUMP JUMPDEST PUSH1 0x40 MLOAD DUP1 SWAP2 SUB SWAP1 RETURN JUMPDEST CALLVALUE DUP1 ISZERO PUSH2 0xD0 JUMPI PUSH0 DUP1 REVERT JUMPDEST POP PUSH2 0xEB PUSH1 0x4 DUP1 CALLDATASIZE SUB DUP2 ADD SWAP1 PUSH2 0xE6 SWAP2 SWAP1 PUSH2 0x1295 JUMP JUMPDEST PUSH2 0x284 JUMP JUMPDEST STOP JUMPDEST PUSH2 0x107 PUSH1 0x4 DUP1 CALLDATASIZE SUB DUP2 ADD SWAP1 PUSH2 0x102 SWAP2 SWAP1 PUSH2 0x1309 JUMP JUMPDEST PUSH2 0x6DF JUMP JUMPDEST STOP JUMPDEST CALLVALUE DUP1 ISZERO PUSH2 0x114 JUMPI PUSH0 DUP1 REVERT JUMPDEST POP PUSH2 0x12F PUSH1 0x4 DUP1 CALLDATASIZE SUB DUP2 ADD SWAP1 PUSH2 0x12A SWAP2 SWAP1 PUSH2 0x1347 JUMP JUMPDEST PUSH2 0x947 JUMP JUMPDEST STOP JUMPDEST CALLVALUE DUP1 ISZERO PUSH2 0x13C JUMPI PUSH0 DUP1 REVERT JUMPDEST POP PUSH2 0x145 PUSH2 0xD0A JUMP JUMPDEST STOP JUMPDEST CALLVALUE DUP1 ISZERO PUSH2 0x152 JUMPI PUSH0 DUP1 REVERT JUMPDEST POP PUSH2 0x15B PUSH2 0xD1D JUMP JUMPDEST PUSH1 0x40 MLOAD PUSH2 0x168 SWAP2 SWAP1 PUSH2 0x1252 JUMP JUMPDEST PUSH1 0x40 MLOAD DUP1 SWAP2 SUB SWAP1 RETURN JUMPDEST CALLVALUE DUP1 ISZERO PUSH2 0x17C JUMPI PUSH0 DUP1 REVERT JUMPDEST POP PUSH2 0x185 PUSH2 0xD24 JUMP JUMPDEST PUSH1 0x40 MLOAD PUSH2 0x192 SWAP2 SWAP1 PUSH2 0x13BA JUMP JUMPDEST PUSH1 0x40 MLOAD DUP1 SWAP2 SUB SWAP1 RETURN JUMPDEST CALLVALUE DUP1 ISZERO PUSH2 0x1A6 JUMPI PUSH0 DUP1 REVERT JUMPDEST POP PUSH2 0x1C1 PUSH1 0x4 DUP1 CALLDATASIZE SUB DUP2 ADD SWAP1 PUSH2 0x1BC SWAP2 SWAP1 PUSH2 0x13FD JUMP JUMPDEST PUSH2 0xD4B JUMP JUMPDEST PUSH1 0x40 MLOAD PUSH2 0x1D3 SWAP7 SWAP6 SWAP5 SWAP4 SWAP3 SWAP2 SWAP1 PUSH2 0x1464 JUMP JUMPDEST PUSH1 0x40 MLOAD DUP1 SWAP2 SUB SWAP1 RETURN JUMPDEST CALLVALUE DUP1 ISZERO PUSH2 0x1E7 JUMPI PUSH0 DUP1 REVERT JUMPDEST POP PUSH2 0x202 PUSH1 0x4 DUP1 CALLDATASIZE SUB DUP2 ADD SWAP1 PUSH2 0x1FD SWAP2 SWAP1 PUSH2 0x14C3 JUMP JUMPDEST PUSH2 0xDE2 JUMP JUMPDEST STOP JUMPDEST PUSH0 DUP2 PUSH20 0xFFFFFFFFFFFFFFFFFFFFFFFFFFFFFFFFFFFFFFFF AND PUSH4 0x70A08231 ADDRESS PUSH1 0x40 MLOAD DUP3 PUSH4 0xFFFFFFFF AND PUSH1 0xE0 SHL DUP2 MSTORE PUSH1 0x4 ADD PUSH2 0x23E SWAP2 SWAP1 PUSH2 0x13BA JUMP JUMPDEST PUSH1 0x20 PUSH1 0x40 MLOAD DUP1 DUP4 SUB DUP2 DUP7 GAS STATICCALL ISZERO DUP1 ISZERO PUSH2 0x259 JUMPI RETURNDATASIZE PUSH0 DUP1 RETURNDATACOPY RETURNDATASIZE PUSH0 REVERT JUMPDEST POP POP POP POP PUSH1 0x40 MLOAD RETURNDATASIZE PUSH1 0x1F NOT PUSH1 0x1F DUP3 ADD AND DUP3 ADD DUP1 PUSH1 0x40 MSTORE POP DUP2 ADD SWAP1 PUSH2 0x27D SWAP2 SWAP1 PUSH2 0x1502 JUMP JUMPDEST SWAP1 POP SWAP2 SWAP1 POP JUMP JUMPDEST PUSH2 0x28C PUSH2 0xE66 JUMP JUMPDEST PUSH1 0x2 PUSH0 CALLER PUSH20 0xFFFFFFFFFFFFFFFFFFFFFFFFFFFFFFFFFFFFFFFF AND PUSH20 0xFFFFFFFFFFFFFFFFFFFFFFFFFFFFFFFFFFFFFFFF AND DUP2 MSTORE PUSH1 0x20 ADD SWAP1 DUP2 MSTORE PUSH1 0x20 ADD PUSH0 KECCAK256 DUP1 SLOAD SWAP1 POP DUP3 LT PUSH2 0x30E JUMPI PUSH1 0x40 MLOAD PUSH32 0x8C379A000000000000000000000000000000000000000000000000000000000 DUP2 MSTORE PUSH1 0x4 ADD PUSH2 0x305 SWAP1 PUSH2 0x15AD JUMP JUMPDEST PUSH1 0x40 MLOAD DUP1 SWAP2 SUB SWAP1 REVERT JUMPDEST PUSH0 PUSH1 0x2 PUSH0 CALLER PUSH20 0xFFFFFFFFFFFFFFFFFFFFFFFFFFFFFFFFFFFFFFFF AND PUSH20 0xFFFFFFFFFFFFFFFFFFFFFFFFFFFFFFFFFFFFFFFF AND DUP2 MSTORE PUSH1 0x20 ADD SWAP1 DUP2 MSTORE PUSH1 0x20 ADD PUSH0 KECCAK256 DUP4 DUP2 SLOAD DUP2 LT PUSH2 0x35E JUMPI PUSH2 0x35D PUSH2 0x15CB JUMP JUMPDEST JUMPDEST SWAP1 PUSH0 MSTORE PUSH1 0x20 PUSH0 KECCAK256 SWAP1 PUSH1 0x4 MUL ADD SWAP1 POP DUP1 PUSH1 0x3 ADD PUSH1 0x1 SWAP1 SLOAD SWAP1 PUSH2 0x100 EXP SWAP1 DIV PUSH1 0xFF AND ISZERO PUSH2 0x3BE JUMPI PUSH1 0x40 MLOAD PUSH32 0x8C379A000000000000000000000000000000000000000000000000000000000 DUP2 MSTORE PUSH1 0x4 ADD PUSH2 0x3B5 SWAP1 PUSH2 0x1668 JUMP JUMPDEST PUSH1 0x40 MLOAD DUP1 SWAP2 SUB SWAP1 REVERT JUMPDEST DUP1 PUSH1 0x2 ADD SLOAD TIMESTAMP GT PUSH2 0x404 JUMPI PUSH1 0x40 MLOAD PUSH32 0x8C379A000000000000000000000000000000000000000000000000000000000 DUP2 MSTORE PUSH1 0x4 ADD PUSH2 0x3FB SWAP1 PUSH2 0x16F6 JUMP JUMPDEST PUSH1 0x40 MLOAD DUP1 SWAP2 SUB SWAP1 REVERT JUMPDEST PUSH0 DUP3 DUP3 PUSH1 0x1 ADD SLOAD PUSH2 0x415 SWAP2 SWAP1 PUSH2 0x1741 JUMP JUMPDEST SWAP1 POP PUSH0 DUP2 LT ISZERO PUSH2 0x45A JUMPI PUSH1 0x40 MLOAD PUSH32 0x8C379A000000000000000000000000000000000000000000000000000000000 DUP2 MSTORE PUSH1 0x4 ADD PUSH2 0x451 SWAP1 PUSH2 0x17BE JUMP JUMPDEST PUSH1 0x40 MLOAD DUP1 SWAP2 SUB SWAP1 REVERT JUMPDEST PUSH0 DUP2 SUB PUSH2 0x4D9 JUMPI PUSH1 0x1 PUSH1 0x2 PUSH0 CALLER PUSH20 0xFFFFFFFFFFFFFFFFFFFFFFFFFFFFFFFFFFFFFFFF AND PUSH20 0xFFFFFFFFFFFFFFFFFFFFFFFFFFFFFFFFFFFFFFFF AND DUP2 MSTORE PUSH1 0x20 ADD SWAP1 DUP2 MSTORE PUSH1 0x20 ADD PUSH0 KECCAK256 DUP6 DUP2 SLOAD DUP2 LT PUSH2 0x4B2 JUMPI PUSH2 0x4B1 PUSH2 0x15CB JUMP JUMPDEST JUMPDEST SWAP1 PUSH0 MSTORE PUSH1 0x20 PUSH0 KECCAK256 SWAP1 PUSH1 0x4 MUL ADD PUSH1 0x3 ADD PUSH1 0x1 PUSH2 0x100 EXP DUP2 SLOAD DUP2 PUSH1 0xFF MUL NOT AND SWAP1 DUP4 ISZERO ISZERO MUL OR SWAP1 SSTORE POP JUMPDEST DUP1 PUSH1 0x2 PUSH0 CALLER PUSH20 0xFFFFFFFFFFFFFFFFFFFFFFFFFFFFFFFFFFFFFFFF AND PUSH20 0xFFFFFFFFFFFFFFFFFFFFFFFFFFFFFFFFFFFFFFFF AND DUP2 MSTORE PUSH1 0x20 ADD SWAP1 DUP2 MSTORE PUSH1 0x20 ADD PUSH0 KECCAK256 DUP6 DUP2 SLOAD DUP2 LT PUSH2 0x529 JUMPI PUSH2 0x528 PUSH2 0x15CB JUMP JUMPDEST JUMPDEST SWAP1 PUSH0 MSTORE PUSH1 0x20 PUSH0 KECCAK256 SWAP1 PUSH1 0x4 MUL ADD PUSH1 0x1 ADD DUP2 SWAP1 SSTORE POP DUP2 PUSH1 0x3 ADD PUSH1 0x2 SWAP1 SLOAD SWAP1 PUSH2 0x100 EXP SWAP1 DIV PUSH1 0xFF AND ISZERO PUSH2 0x601 JUMPI PUSH0 CALLER PUSH20 0xFFFFFFFFFFFFFFFFFFFFFFFFFFFFFFFFFFFFFFFF AND DUP5 PUSH1 0x40 MLOAD PUSH2 0x578 SWAP1 PUSH2 0x1809 JUMP JUMPDEST PUSH0 PUSH1 0x40 MLOAD DUP1 DUP4 SUB DUP2 DUP6 DUP8 GAS CALL SWAP3 POP POP POP RETURNDATASIZE DUP1 PUSH0 DUP2 EQ PUSH2 0x5B2 JUMPI PUSH1 0x40 MLOAD SWAP2 POP PUSH1 0x1F NOT PUSH1 0x3F RETURNDATASIZE ADD AND DUP3 ADD PUSH1 0x40 MSTORE RETURNDATASIZE DUP3 MSTORE RETURNDATASIZE PUSH0 PUSH1 0x20 DUP5 ADD RETURNDATACOPY PUSH2 0x5B7 JUMP JUMPDEST PUSH1 0x60 SWAP2 POP JUMPDEST POP POP SWAP1 POP DUP1 PUSH2 0x5FB JUMPI PUSH1 0x40 MLOAD PUSH32 0x8C379A000000000000000000000000000000000000000000000000000000000 DUP2 MSTORE PUSH1 0x4 ADD PUSH2 0x5F2 SWAP1 PUSH2 0x1867 JUMP JUMPDEST PUSH1 0x40 MLOAD DUP1 SWAP2 SUB SWAP1 REVERT JUMPDEST POP PUSH2 0x64F JUMP JUMPDEST PUSH2 0x64E CALLER DUP5 DUP5 PUSH0 ADD PUSH0 SWAP1 SLOAD SWAP1 PUSH2 0x100 EXP SWAP1 DIV PUSH20 0xFFFFFFFFFFFFFFFFFFFFFFFFFFFFFFFFFFFFFFFF AND PUSH20 0xFFFFFFFFFFFFFFFFFFFFFFFFFFFFFFFFFFFFFFFF AND PUSH2 0xEAC SWAP1 SWAP3 SWAP2 SWAP1 PUSH4 0xFFFFFFFF AND JUMP JUMPDEST JUMPDEST DUP2 PUSH0 ADD PUSH0 SWAP1 SLOAD SWAP1 PUSH2 0x100 EXP SWAP1 DIV PUSH20 0xFFFFFFFFFFFFFFFFFFFFFFFFFFFFFFFFFFFFFFFF AND PUSH20 0xFFFFFFFFFFFFFFFFFFFFFFFFFFFFFFFFFFFFFFFF AND PUSH32 0xC609BB1B9C1BFB64D61DBDFF01DDBDC74EC1A868F724CEB4991148740C7E423C DUP5 DUP5 PUSH1 0x3 ADD PUSH0 SWAP1 SLOAD SWAP1 PUSH2 0x100 EXP SWAP1 DIV PUSH1 0xFF AND PUSH1 0x40 MLOAD PUSH2 0x6C9 SWAP3 SWAP2 SWAP1 PUSH2 0x1885 JUMP JUMPDEST PUSH1 0x40 MLOAD DUP1 SWAP2 SUB SWAP1 LOG2 POP POP PUSH2 0x6DB PUSH2 0xF2B JUMP JUMPDEST POP POP JUMP JUMPDEST PUSH2 0x6E7 PUSH2 0xE66 JUMP JUMPDEST PUSH0 CALLVALUE GT PUSH2 0x729 JUMPI PUSH1 0x40 MLOAD PUSH32 0x8C379A000000000000000000000000000000000000000000000000000000000 DUP2 MSTORE PUSH1 0x4 ADD PUSH2 0x720 SWAP1 PUSH2 0x191C JUMP JUMPDEST PUSH1 0x40 MLOAD DUP1 SWAP2 SUB SWAP1 REVERT JUMPDEST PUSH0 DUP2 GT PUSH2 0x76B JUMPI PUSH1 0x40 MLOAD PUSH32 0x8C379A000000000000000000000000000000000000000000000000000000000 DUP2 MSTORE PUSH1 0x4 ADD PUSH2 0x762 SWAP1 PUSH2 0x19AA JUMP JUMPDEST PUSH1 0x40 MLOAD DUP1 SWAP2 SUB SWAP1 REVERT JUMPDEST PUSH1 0x2 PUSH0 CALLER PUSH20 0xFFFFFFFFFFFFFFFFFFFFFFFFFFFFFFFFFFFFFFFF AND PUSH20 0xFFFFFFFFFFFFFFFFFFFFFFFFFFFFFFFFFFFFFFFF AND DUP2 MSTORE PUSH1 0x20 ADD SWAP1 DUP2 MSTORE PUSH1 0x20 ADD PUSH0 KECCAK256 PUSH1 0x40 MLOAD DUP1 PUSH1 0xC0 ADD PUSH1 0x40 MSTORE DUP1 PUSH0 PUSH20 0xFFFFFFFFFFFFFFFFFFFFFFFFFFFFFFFFFFFFFFFF AND DUP2 MSTORE PUSH1 0x20 ADD CALLVALUE DUP2 MSTORE PUSH1 0x20 ADD DUP4 TIMESTAMP PUSH2 0x7E1 SWAP2 SWAP1 PUSH2 0x19C8 JUMP JUMPDEST DUP2 MSTORE PUSH1 0x20 ADD DUP5 PUSH1 0xFF AND DUP2 MSTORE PUSH1 0x20 ADD PUSH0 ISZERO ISZERO DUP2 MSTORE PUSH1 0x20 ADD PUSH1 0x1 ISZERO ISZERO DUP2 MSTORE POP SWAP1 DUP1 PUSH1 0x1 DUP2 SLOAD ADD DUP1 DUP3 SSTORE DUP1 SWAP2 POP POP PUSH1 0x1 SWAP1 SUB SWAP1 PUSH0 MSTORE PUSH1 0x20 PUSH0 KECCAK256 SWAP1 PUSH1 0x4 MUL ADD PUSH0 SWAP1 SWAP2 SWAP1 SWAP2 SWAP1 SWAP2 POP PUSH0 DUP3 ADD MLOAD DUP2 PUSH0 ADD PUSH0 PUSH2 0x100 EXP DUP2 SLOAD DUP2 PUSH20 0xFFFFFFFFFFFFFFFFFFFFFFFFFFFFFFFFFFFFFFFF MUL NOT AND SWAP1 DUP4 PUSH20 0xFFFFFFFFFFFFFFFFFFFFFFFFFFFFFFFFFFFFFFFF AND MUL OR SWAP1 SSTORE POP PUSH1 0x20 DUP3 ADD MLOAD DUP2 PUSH1 0x1 ADD SSTORE PUSH1 0x40 DUP3 ADD MLOAD DUP2 PUSH1 0x2 ADD SSTORE PUSH1 0x60 DUP3 ADD MLOAD DUP2 PUSH1 0x3 ADD PUSH0 PUSH2 0x100 EXP DUP2 SLOAD DUP2 PUSH1 0xFF MUL NOT AND SWAP1 DUP4 PUSH1 0xFF AND MUL OR SWAP1 SSTORE POP PUSH1 0x80 DUP3 ADD MLOAD DUP2 PUSH1 0x3 ADD PUSH1 0x1 PUSH2 0x100 EXP DUP2 SLOAD DUP2 PUSH1 0xFF MUL NOT AND SWAP1 DUP4 ISZERO ISZERO MUL OR SWAP1 SSTORE POP PUSH1 0xA0 DUP3 ADD MLOAD DUP2 PUSH1 0x3 ADD PUSH1 0x2 PUSH2 0x100 EXP DUP2 SLOAD DUP2 PUSH1 0xFF MUL NOT AND SWAP1 DUP4 ISZERO ISZERO MUL OR SWAP1 SSTORE POP POP POP PUSH0 PUSH20 0xFFFFFFFFFFFFFFFFFFFFFFFFFFFFFFFFFFFFFFFF AND PUSH32 0x93E2E96397EE6091FADABBE37102770C2ED73784AC2B17D1DE3D8AFCB368EA41 CALLVALUE DUP5 DUP5 TIMESTAMP PUSH2 0x924 SWAP2 SWAP1 PUSH2 0x19C8 JUMP JUMPDEST PUSH1 0x40 MLOAD PUSH2 0x933 SWAP4 SWAP3 SWAP2 SWAP1 PUSH2 0x19FB JUMP JUMPDEST PUSH1 0x40 MLOAD DUP1 SWAP2 SUB SWAP1 LOG2 PUSH2 0x943 PUSH2 0xF2B JUMP JUMPDEST POP POP JUMP JUMPDEST PUSH2 0x94F PUSH2 0xE66 JUMP JUMPDEST PUSH0 PUSH20 0xFFFFFFFFFFFFFFFFFFFFFFFFFFFFFFFFFFFFFFFF AND DUP5 PUSH20 0xFFFFFFFFFFFFFFFFFFFFFFFFFFFFFFFFFFFFFFFF AND SUB PUSH2 0x9BD JUMPI PUSH1 0x40 MLOAD PUSH32 0x8C379A000000000000000000000000000000000000000000000000000000000 DUP2 MSTORE PUSH1 0x4 ADD PUSH2 0x9B4 SWAP1 PUSH2 0x1AA0 JUMP JUMPDEST PUSH1 0x40 MLOAD DUP1 SWAP2 SUB SWAP1 REVERT JUMPDEST PUSH0 DUP4 GT PUSH2 0x9FF JUMPI PUSH1 0x40 MLOAD PUSH32 0x8C379A000000000000000000000000000000000000000000000000000000000 DUP2 MSTORE PUSH1 0x4 ADD PUSH2 0x9F6 SWAP1 PUSH2 0x1B2E JUMP JUMPDEST PUSH1 0x40 MLOAD DUP1 SWAP2 SUB SWAP1 REVERT JUMPDEST PUSH0 DUP2 GT PUSH2 0xA41 JUMPI PUSH1 0x40 MLOAD PUSH32 0x8C379A000000000000000000000000000000000000000000000000000000000 DUP2 MSTORE PUSH1 0x4 ADD PUSH2 0xA38 SWAP1 PUSH2 0x1BBC JUMP JUMPDEST PUSH1 0x40 MLOAD DUP1 SWAP2 SUB SWAP1 REVERT JUMPDEST PUSH0 DUP5 PUSH20 0xFFFFFFFFFFFFFFFFFFFFFFFFFFFFFFFFFFFFFFFF AND PUSH4 0x70A08231 CALLER PUSH1 0x40 MLOAD DUP3 PUSH4 0xFFFFFFFF AND PUSH1 0xE0 SHL DUP2 MSTORE PUSH1 0x4 ADD PUSH2 0xA7B SWAP2 SWAP1 PUSH2 0x13BA JUMP JUMPDEST PUSH1 0x20 PUSH1 0x40 MLOAD DUP1 DUP4 SUB DUP2 DUP7 GAS STATICCALL ISZERO DUP1 ISZERO PUSH2 0xA96 JUMPI RETURNDATASIZE PUSH0 DUP1 RETURNDATACOPY RETURNDATASIZE PUSH0 REVERT JUMPDEST POP POP POP POP PUSH1 0x40 MLOAD RETURNDATASIZE PUSH1 0x1F NOT PUSH1 0x1F DUP3 ADD AND DUP3 ADD DUP1 PUSH1 0x40 MSTORE POP DUP2 ADD SWAP1 PUSH2 0xABA SWAP2 SWAP1 PUSH2 0x1502 JUMP JUMPDEST SWAP1 POP DUP1 DUP5 GT ISZERO PUSH2 0xAFF JUMPI PUSH1 0x40 MLOAD PUSH32 0x8C379A000000000000000000000000000000000000000000000000000000000 DUP2 MSTORE PUSH1 0x4 ADD PUSH2 0xAF6 SWAP1 PUSH2 0x1C24 JUMP JUMPDEST PUSH1 0x40 MLOAD DUP1 SWAP2 SUB SWAP1 REVERT JUMPDEST PUSH2 0xB2C CALLER ADDRESS DUP7 DUP9 PUSH20 0xFFFFFFFFFFFFFFFFFFFFFFFFFFFFFFFFFFFFFFFF AND PUSH2 0xF34 SWAP1 SWAP4 SWAP3 SWAP2 SWAP1 PUSH4 0xFFFFFFFF AND JUMP JUMPDEST PUSH1 0x2 PUSH0 CALLER PUSH20 0xFFFFFFFFFFFFFFFFFFFFFFFFFFFFFFFFFFFFFFFF AND PUSH20 0xFFFFFFFFFFFFFFFFFFFFFFFFFFFFFFFFFFFFFFFF AND DUP2 MSTORE PUSH1 0x20 ADD SWAP1 DUP2 MSTORE PUSH1 0x20 ADD PUSH0 KECCAK256 PUSH1 0x40 MLOAD DUP1 PUSH1 0xC0 ADD PUSH1 0x40 MSTORE DUP1 DUP8 PUSH20 0xFFFFFFFFFFFFFFFFFFFFFFFFFFFFFFFFFFFFFFFF AND DUP2 MSTORE PUSH1 0x20 ADD DUP7 DUP2 MSTORE PUSH1 0x20 ADD DUP5 TIMESTAMP PUSH2 0xBA2 SWAP2 SWAP1 PUSH2 0x19C8 JUMP JUMPDEST DUP2 MSTORE PUSH1 0x20 ADD DUP6 PUSH1 0xFF AND DUP2 MSTORE PUSH1 0x20 ADD PUSH0 ISZERO ISZERO DUP2 MSTORE PUSH1 0x20 ADD PUSH0 ISZERO ISZERO DUP2 MSTORE POP SWAP1 DUP1 PUSH1 0x1 DUP2 SLOAD ADD DUP1 DUP3 SSTORE DUP1 SWAP2 POP POP PUSH1 0x1 SWAP1 SUB SWAP1 PUSH0 MSTORE PUSH1 0x20 PUSH0 KECCAK256 SWAP1 PUSH1 0x4 MUL ADD PUSH0 SWAP1 SWAP2 SWAP1 SWAP2 SWAP1 SWAP2 POP PUSH0 DUP3 ADD MLOAD DUP2 PUSH0 ADD PUSH0 PUSH2 0x100 EXP DUP2 SLOAD DUP2 PUSH20 0xFFFFFFFFFFFFFFFFFFFFFFFFFFFFFFFFFFFFFFFF MUL NOT AND SWAP1 DUP4 PUSH20 0xFFFFFFFFFFFFFFFFFFFFFFFFFFFFFFFFFFFFFFFF AND MUL OR SWAP1 SSTORE POP PUSH1 0x20 DUP3 ADD MLOAD DUP2 PUSH1 0x1 ADD SSTORE PUSH1 0x40 DUP3 ADD MLOAD DUP2 PUSH1 0x2 ADD SSTORE PUSH1 0x60 DUP3 ADD MLOAD DUP2 PUSH1 0x3 ADD PUSH0 PUSH2 0x100 EXP DUP2 SLOAD DUP2 PUSH1 0xFF MUL NOT AND SWAP1 DUP4 PUSH1 0xFF AND MUL OR SWAP1 SSTORE POP PUSH1 0x80 DUP3 ADD MLOAD DUP2 PUSH1 0x3 ADD PUSH1 0x1 PUSH2 0x100 EXP DUP2 SLOAD DUP2 PUSH1 0xFF MUL NOT AND SWAP1 DUP4 ISZERO ISZERO MUL OR SWAP1 SSTORE POP PUSH1 0xA0 DUP3 ADD MLOAD DUP2 PUSH1 0x3 ADD PUSH1 0x2 PUSH2 0x100 EXP DUP2 SLOAD DUP2 PUSH1 0xFF MUL NOT AND SWAP1 DUP4 ISZERO ISZERO MUL OR SWAP1 SSTORE POP POP POP DUP5 PUSH20 0xFFFFFFFFFFFFFFFFFFFFFFFFFFFFFFFFFFFFFFFF AND PUSH32 0x93E2E96397EE6091FADABBE37102770C2ED73784AC2B17D1DE3D8AFCB368EA41 DUP6 DUP6 DUP6 TIMESTAMP PUSH2 0xCE4 SWAP2 SWAP1 PUSH2 0x19C8 JUMP JUMPDEST PUSH1 0x40 MLOAD PUSH2 0xCF3 SWAP4 SWAP3 SWAP2 SWAP1 PUSH2 0x19FB JUMP JUMPDEST PUSH1 0x40 MLOAD DUP1 SWAP2 SUB SWAP1 LOG2 POP PUSH2 0xD04 PUSH2 0xF2B JUMP JUMPDEST POP POP POP POP JUMP JUMPDEST PUSH2 0xD12 PUSH2 0xFB6 JUMP JUMPDEST PUSH2 0xD1B PUSH0 PUSH2 0x103D JUMP JUMPDEST JUMP JUMPDEST PUSH0 SELFBALANCE SWAP1 POP SWAP1 JUMP JUMPDEST PUSH0 DUP1 PUSH0 SWAP1 SLOAD SWAP1 PUSH2 0x100 EXP SWAP1 DIV PUSH20 0xFFFFFFFFFFFFFFFFFFFFFFFFFFFFFFFFFFFFFFFF AND SWAP1 POP SWAP1 JUMP JUMPDEST PUSH1 0x2 PUSH1 0x20 MSTORE DUP2 PUSH0 MSTORE PUSH1 0x40 PUSH0 KECCAK256 DUP2 DUP2 SLOAD DUP2 LT PUSH2 0xD64 JUMPI PUSH0 DUP1 REVERT JUMPDEST SWAP1 PUSH0 MSTORE PUSH1 0x20 PUSH0 KECCAK256 SWAP1 PUSH1 0x4 MUL ADD PUSH0 SWAP2 POP SWAP2 POP POP DUP1 PUSH0 ADD PUSH0 SWAP1 SLOAD SWAP1 PUSH2 0x100 EXP SWAP1 DIV PUSH20 0xFFFFFFFFFFFFFFFFFFFFFFFFFFFFFFFFFFFFFFFF AND SWAP1 DUP1 PUSH1 0x1 ADD SLOAD SWAP1 DUP1 PUSH1 0x2 ADD SLOAD SWAP1 DUP1 PUSH1 0x3 ADD PUSH0 SWAP1 SLOAD SWAP1 PUSH2 0x100 EXP SWAP1 DIV PUSH1 0xFF AND SWAP1 DUP1 PUSH1 0x3 ADD PUSH1 0x1 SWAP1 SLOAD SWAP1 PUSH2 0x100 EXP SWAP1 DIV PUSH1 0xFF AND SWAP1 DUP1 PUSH1 0x3 ADD PUSH1 0x2 SWAP1 SLOAD SWAP1 PUSH2 0x100 EXP SWAP1 DIV PUSH1 0xFF AND SWAP1 POP DUP7 JUMP JUMPDEST PUSH2 0xDEA PUSH2 0xFB6 JUMP JUMPDEST PUSH0 PUSH20 0xFFFFFFFFFFFFFFFFFFFFFFFFFFFFFFFFFFFFFFFF AND DUP2 PUSH20 0xFFFFFFFFFFFFFFFFFFFFFFFFFFFFFFFFFFFFFFFF AND SUB PUSH2 0xE5A JUMPI PUSH0 PUSH1 0x40 MLOAD PUSH32 0x1E4FBDF700000000000000000000000000000000000000000000000000000000 DUP2 MSTORE PUSH1 0x4 ADD PUSH2 0xE51 SWAP2 SWAP1 PUSH2 0x13BA JUMP JUMPDEST PUSH1 0x40 MLOAD DUP1 SWAP2 SUB SWAP1 REVERT JUMPDEST PUSH2 0xE63 DUP2 PUSH2 0x103D JUMP JUMPDEST POP JUMP JUMPDEST PUSH1 0x2 PUSH1 0x1 SLOAD SUB PUSH2 0xEA2 JUMPI PUSH1 0x40 MLOAD PUSH32 0x3EE5AEB500000000000000000000000000000000000000000000000000000000 DUP2 MSTORE PUSH1 0x4 ADD PUSH1 0x40 MLOAD DUP1 SWAP2 SUB SWAP1 REVERT JUMPDEST PUSH1 0x2 PUSH1 0x1 DUP2 SWAP1 SSTORE POP JUMP JUMPDEST PUSH2 0xF26 DUP4 DUP5 PUSH20 0xFFFFFFFFFFFFFFFFFFFFFFFFFFFFFFFFFFFFFFFF AND PUSH4 0xA9059CBB DUP6 DUP6 PUSH1 0x40 MLOAD PUSH1 0x24 ADD PUSH2 0xEDF SWAP3 SWAP2 SWAP1 PUSH2 0x1C42 JUMP JUMPDEST PUSH1 0x40 MLOAD PUSH1 0x20 DUP2 DUP4 SUB SUB DUP2 MSTORE SWAP1 PUSH1 0x40 MSTORE SWAP2 POP PUSH1 0xE0 SHL PUSH1 0x20 DUP3 ADD DUP1 MLOAD PUSH28 0xFFFFFFFFFFFFFFFFFFFFFFFFFFFFFFFFFFFFFFFFFFFFFFFFFFFFFFFF DUP4 DUP2 DUP4 AND OR DUP4 MSTORE POP POP POP POP PUSH2 0x10FE JUMP JUMPDEST POP POP POP JUMP JUMPDEST PUSH1 0x1 DUP1 DUP2 SWAP1 SSTORE POP JUMP JUMPDEST PUSH2 0xFB0 DUP5 DUP6 PUSH20 0xFFFFFFFFFFFFFFFFFFFFFFFFFFFFFFFFFFFFFFFF AND PUSH4 0x23B872DD DUP7 DUP7 DUP7 PUSH1 0x40 MLOAD PUSH1 0x24 ADD PUSH2 0xF69 SWAP4 SWAP3 SWAP2 SWAP1 PUSH2 0x1C69 JUMP JUMPDEST PUSH1 0x40 MLOAD PUSH1 0x20 DUP2 DUP4 SUB SUB DUP2 MSTORE SWAP1 PUSH1 0x40 MSTORE SWAP2 POP PUSH1 0xE0 SHL PUSH1 0x20 DUP3 ADD DUP1 MLOAD PUSH28 0xFFFFFFFFFFFFFFFFFFFFFFFFFFFFFFFFFFFFFFFFFFFFFFFFFFFFFFFF DUP4 DUP2 DUP4 AND OR DUP4 MSTORE POP POP POP POP PUSH2 0x10FE JUMP JUMPDEST POP POP POP POP JUMP JUMPDEST PUSH2 0xFBE PUSH2 0x1199 JUMP JUMPDEST PUSH20 0xFFFFFFFFFFFFFFFFFFFFFFFFFFFFFFFFFFFFFFFF AND PUSH2 0xFDC PUSH2 0xD24 JUMP JUMPDEST PUSH20 0xFFFFFFFFFFFFFFFFFFFFFFFFFFFFFFFFFFFFFFFF AND EQ PUSH2 0x103B JUMPI PUSH2 0xFFF PUSH2 0x1199 JUMP JUMPDEST PUSH1 0x40 MLOAD PUSH32 0x118CDAA700000000000000000000000000000000000000000000000000000000 DUP2 MSTORE PUSH1 0x4 ADD PUSH2 0x1032 SWAP2 SWAP1 PUSH2 0x13BA JUMP JUMPDEST PUSH1 0x40 MLOAD DUP1 SWAP2 SUB SWAP1 REVERT JUMPDEST JUMP JUMPDEST PUSH0 DUP1 PUSH0 SWAP1 SLOAD SWAP1 PUSH2 0x100 EXP SWAP1 DIV PUSH20 0xFFFFFFFFFFFFFFFFFFFFFFFFFFFFFFFFFFFFFFFF AND SWAP1 POP DUP2 PUSH0 DUP1 PUSH2 0x100 EXP DUP2 SLOAD DUP2 PUSH20 0xFFFFFFFFFFFFFFFFFFFFFFFFFFFFFFFFFFFFFFFF MUL NOT AND SWAP1 DUP4 PUSH20 0xFFFFFFFFFFFFFFFFFFFFFFFFFFFFFFFFFFFFFFFF AND MUL OR SWAP1 SSTORE POP DUP2 PUSH20 0xFFFFFFFFFFFFFFFFFFFFFFFFFFFFFFFFFFFFFFFF AND DUP2 PUSH20 0xFFFFFFFFFFFFFFFFFFFFFFFFFFFFFFFFFFFFFFFF AND PUSH32 0x8BE0079C531659141344CD1FD0A4F28419497F9722A3DAAFE3B4186F6B6457E0 PUSH1 0x40 MLOAD PUSH1 0x40 MLOAD DUP1 SWAP2 SUB SWAP1 LOG3 POP POP JUMP JUMPDEST PUSH0 DUP1 PUSH1 0x20 PUSH0 DUP5 MLOAD PUSH1 0x20 DUP7 ADD PUSH0 DUP9 GAS CALL DUP1 PUSH2 0x111D JUMPI PUSH1 0x40 MLOAD RETURNDATASIZE PUSH0 DUP3 RETURNDATACOPY RETURNDATASIZE DUP2 REVERT JUMPDEST RETURNDATASIZE SWAP3 POP PUSH0 MLOAD SWAP2 POP POP PUSH0 DUP3 EQ PUSH2 0x1136 JUMPI PUSH1 0x1 DUP2 EQ ISZERO PUSH2 0x1151 JUMP JUMPDEST PUSH0 DUP5 PUSH20 0xFFFFFFFFFFFFFFFFFFFFFFFFFFFFFFFFFFFFFFFF AND EXTCODESIZE EQ JUMPDEST ISZERO PUSH2 0x1193 JUMPI DUP4 PUSH1 0x40 MLOAD PUSH32 0x5274AFE700000000000000000000000000000000000000000000000000000000 DUP2 MSTORE PUSH1 0x4 ADD PUSH2 0x118A SWAP2 SWAP1 PUSH2 0x13BA JUMP JUMPDEST PUSH1 0x40 MLOAD DUP1 SWAP2 SUB SWAP1 REVERT JUMPDEST POP POP POP POP JUMP JUMPDEST PUSH0 CALLER SWAP1 POP SWAP1 JUMP JUMPDEST PUSH0 DUP1 REVERT JUMPDEST PUSH0 PUSH20 0xFFFFFFFFFFFFFFFFFFFFFFFFFFFFFFFFFFFFFFFF DUP3 AND SWAP1 POP SWAP2 SWAP1 POP JUMP JUMPDEST PUSH0 PUSH2 0x11CD DUP3 PUSH2 0x11A4 JUMP JUMPDEST SWAP1 POP SWAP2 SWAP1 POP JUMP JUMPDEST PUSH0 PUSH2 0x11DE DUP3 PUSH2 0x11C3 JUMP JUMPDEST SWAP1 POP SWAP2 SWAP1 POP JUMP JUMPDEST PUSH2 0x11EE DUP2 PUSH2 0x11D4 JUMP JUMPDEST DUP2 EQ PUSH2 0x11F8 JUMPI PUSH0 DUP1 REVERT JUMPDEST POP JUMP JUMPDEST PUSH0 DUP2 CALLDATALOAD SWAP1 POP PUSH2 0x1209 DUP2 PUSH2 0x11E5 JUMP JUMPDEST SWAP3 SWAP2 POP POP JUMP JUMPDEST PUSH0 PUSH1 0x20 DUP3 DUP5 SUB SLT ISZERO PUSH2 0x1224 JUMPI PUSH2 0x1223 PUSH2 0x11A0 JUMP JUMPDEST JUMPDEST PUSH0 PUSH2 0x1231 DUP5 DUP3 DUP6 ADD PUSH2 0x11FB JUMP JUMPDEST SWAP2 POP POP SWAP3 SWAP2 POP POP JUMP JUMPDEST PUSH0 DUP2 SWAP1 POP SWAP2 SWAP1 POP JUMP JUMPDEST PUSH2 0x124C DUP2 PUSH2 0x123A JUMP JUMPDEST DUP3 MSTORE POP POP JUMP JUMPDEST PUSH0 PUSH1 0x20 DUP3 ADD SWAP1 POP PUSH2 0x1265 PUSH0 DUP4 ADD DUP5 PUSH2 0x1243 JUMP JUMPDEST SWAP3 SWAP2 POP POP JUMP JUMPDEST PUSH2 0x1274 DUP2 PUSH2 0x123A JUMP JUMPDEST DUP2 EQ PUSH2 0x127E JUMPI PUSH0 DUP1 REVERT JUMPDEST POP JUMP JUMPDEST PUSH0 DUP2 CALLDATALOAD SWAP1 POP PUSH2 0x128F DUP2 PUSH2 0x126B JUMP JUMPDEST SWAP3 SWAP2 POP POP JUMP JUMPDEST PUSH0 DUP1 PUSH1 0x40 DUP4 DUP6 SUB SLT ISZERO PUSH2 0x12AB JUMPI PUSH2 0x12AA PUSH2 0x11A0 JUMP JUMPDEST JUMPDEST PUSH0 PUSH2 0x12B8 DUP6 DUP3 DUP7 ADD PUSH2 0x1281 JUMP JUMPDEST SWAP3 POP POP PUSH1 0x20 PUSH2 0x12C9 DUP6 DUP3 DUP7 ADD PUSH2 0x1281 JUMP JUMPDEST SWAP2 POP POP SWAP3 POP SWAP3 SWAP1 POP JUMP JUMPDEST PUSH0 PUSH1 0xFF DUP3 AND SWAP1 POP SWAP2 SWAP1 POP JUMP JUMPDEST PUSH2 0x12E8 DUP2 PUSH2 0x12D3 JUMP JUMPDEST DUP2 EQ PUSH2 0x12F2 JUMPI PUSH0 DUP1 REVERT JUMPDEST POP JUMP JUMPDEST PUSH0 DUP2 CALLDATALOAD SWAP1 POP PUSH2 0x1303 DUP2 PUSH2 0x12DF JUMP JUMPDEST SWAP3 SWAP2 POP POP JUMP JUMPDEST PUSH0 DUP1 PUSH1 0x40 DUP4 DUP6 SUB SLT ISZERO PUSH2 0x131F JUMPI PUSH2 0x131E PUSH2 0x11A0 JUMP JUMPDEST JUMPDEST PUSH0 PUSH2 0x132C DUP6 DUP3 DUP7 ADD PUSH2 0x12F5 JUMP JUMPDEST SWAP3 POP POP PUSH1 0x20 PUSH2 0x133D DUP6 DUP3 DUP7 ADD PUSH2 0x1281 JUMP JUMPDEST SWAP2 POP POP SWAP3 POP SWAP3 SWAP1 POP JUMP JUMPDEST PUSH0 DUP1 PUSH0 DUP1 PUSH1 0x80 DUP6 DUP8 SUB SLT ISZERO PUSH2 0x135F JUMPI PUSH2 0x135E PUSH2 0x11A0 JUMP JUMPDEST JUMPDEST PUSH0 PUSH2 0x136C DUP8 DUP3 DUP9 ADD PUSH2 0x11FB JUMP JUMPDEST SWAP5 POP POP PUSH1 0x20 PUSH2 0x137D DUP8 DUP3 DUP9 ADD PUSH2 0x1281 JUMP JUMPDEST SWAP4 POP POP PUSH1 0x40 PUSH2 0x138E DUP8 DUP3 DUP9 ADD PUSH2 0x12F5 JUMP JUMPDEST SWAP3 POP POP PUSH1 0x60 PUSH2 0x139F DUP8 DUP3 DUP9 ADD PUSH2 0x1281 JUMP JUMPDEST SWAP2 POP POP SWAP3 SWAP6 SWAP2 SWAP5 POP SWAP3 POP JUMP JUMPDEST PUSH2 0x13B4 DUP2 PUSH2 0x11C3 JUMP JUMPDEST DUP3 MSTORE POP POP JUMP JUMPDEST PUSH0 PUSH1 0x20 DUP3 ADD SWAP1 POP PUSH2 0x13CD PUSH0 DUP4 ADD DUP5 PUSH2 0x13AB JUMP JUMPDEST SWAP3 SWAP2 POP POP JUMP JUMPDEST PUSH2 0x13DC DUP2 PUSH2 0x11C3 JUMP JUMPDEST DUP2 EQ PUSH2 0x13E6 JUMPI PUSH0 DUP1 REVERT JUMPDEST POP JUMP JUMPDEST PUSH0 DUP2 CALLDATALOAD SWAP1 POP PUSH2 0x13F7 DUP2 PUSH2 0x13D3 JUMP JUMPDEST SWAP3 SWAP2 POP POP JUMP JUMPDEST PUSH0 DUP1 PUSH1 0x40 DUP4 DUP6 SUB SLT ISZERO PUSH2 0x1413 JUMPI PUSH2 0x1412 PUSH2 0x11A0 JUMP JUMPDEST JUMPDEST PUSH0 PUSH2 0x1420 DUP6 DUP3 DUP7 ADD PUSH2 0x13E9 JUMP JUMPDEST SWAP3 POP POP PUSH1 0x20 PUSH2 0x1431 DUP6 DUP3 DUP7 ADD PUSH2 0x1281 JUMP JUMPDEST SWAP2 POP POP SWAP3 POP SWAP3 SWAP1 POP JUMP JUMPDEST PUSH2 0x1444 DUP2 PUSH2 0x12D3 JUMP JUMPDEST DUP3 MSTORE POP POP JUMP JUMPDEST PUSH0 DUP2 ISZERO ISZERO SWAP1 POP SWAP2 SWAP1 POP JUMP JUMPDEST PUSH2 0x145E DUP2 PUSH2 0x144A JUMP JUMPDEST DUP3 MSTORE POP POP JUMP JUMPDEST PUSH0 PUSH1 0xC0 DUP3 ADD SWAP1 POP PUSH2 0x1477 PUSH0 DUP4 ADD DUP10 PUSH2 0x13AB JUMP JUMPDEST PUSH2 0x1484 PUSH1 0x20 DUP4 ADD DUP9 PUSH2 0x1243 JUMP JUMPDEST PUSH2 0x1491 PUSH1 0x40 DUP4 ADD DUP8 PUSH2 0x1243 JUMP JUMPDEST PUSH2 0x149E PUSH1 0x60 DUP4 ADD DUP7 PUSH2 0x143B JUMP JUMPDEST PUSH2 0x14AB PUSH1 0x80 DUP4 ADD DUP6 PUSH2 0x1455 JUMP JUMPDEST PUSH2 0x14B8 PUSH1 0xA0 DUP4 ADD DUP5 PUSH2 0x1455 JUMP JUMPDEST SWAP8 SWAP7 POP POP POP POP POP POP POP JUMP JUMPDEST PUSH0 PUSH1 0x20 DUP3 DUP5 SUB SLT ISZERO PUSH2 0x14D8 JUMPI PUSH2 0x14D7 PUSH2 0x11A0 JUMP JUMPDEST JUMPDEST PUSH0 PUSH2 0x14E5 DUP5 DUP3 DUP6 ADD PUSH2 0x13E9 JUMP JUMPDEST SWAP2 POP POP SWAP3 SWAP2 POP POP JUMP JUMPDEST PUSH0 DUP2 MLOAD SWAP1 POP PUSH2 0x14FC DUP2 PUSH2 0x126B JUMP JUMPDEST SWAP3 SWAP2 POP POP JUMP JUMPDEST PUSH0 PUSH1 0x20 DUP3 DUP5 SUB SLT ISZERO PUSH2 0x1517 JUMPI PUSH2 0x1516 PUSH2 0x11A0 JUMP JUMPDEST JUMPDEST PUSH0 PUSH2 0x1524 DUP5 DUP3 DUP6 ADD PUSH2 0x14EE JUMP JUMPDEST SWAP2 POP POP SWAP3 SWAP2 POP POP JUMP JUMPDEST PUSH0 DUP3 DUP3 MSTORE PUSH1 0x20 DUP3 ADD SWAP1 POP SWAP3 SWAP2 POP POP JUMP JUMPDEST PUSH32 0x5468652073706563696669656420617373657420494420697320696E76616C69 PUSH0 DUP3 ADD MSTORE PUSH32 0x642E000000000000000000000000000000000000000000000000000000000000 PUSH1 0x20 DUP3 ADD MSTORE POP JUMP JUMPDEST PUSH0 PUSH2 0x1597 PUSH1 0x22 DUP4 PUSH2 0x152D JUMP JUMPDEST SWAP2 POP PUSH2 0x15A2 DUP3 PUSH2 0x153D JUMP JUMPDEST PUSH1 0x40 DUP3 ADD SWAP1 POP SWAP2 SWAP1 POP JUMP JUMPDEST PUSH0 PUSH1 0x20 DUP3 ADD SWAP1 POP DUP2 DUP2 SUB PUSH0 DUP4 ADD MSTORE PUSH2 0x15C4 DUP2 PUSH2 0x158B JUMP JUMPDEST SWAP1 POP SWAP2 SWAP1 POP JUMP JUMPDEST PUSH32 0x4E487B7100000000000000000000000000000000000000000000000000000000 PUSH0 MSTORE PUSH1 0x32 PUSH1 0x4 MSTORE PUSH1 0x24 PUSH0 REVERT JUMPDEST PUSH32 0x417373657473206861766520616C7265616479206265656E2077697468647261 PUSH0 DUP3 ADD MSTORE PUSH32 0x776E210000000000000000000000000000000000000000000000000000000000 PUSH1 0x20 DUP3 ADD MSTORE POP JUMP JUMPDEST PUSH0 PUSH2 0x1652 PUSH1 0x23 DUP4 PUSH2 0x152D JUMP JUMPDEST SWAP2 POP PUSH2 0x165D DUP3 PUSH2 0x15F8 JUMP JUMPDEST PUSH1 0x40 DUP3 ADD SWAP1 POP SWAP2 SWAP1 POP JUMP JUMPDEST PUSH0 PUSH1 0x20 DUP3 ADD SWAP1 POP DUP2 DUP2 SUB PUSH0 DUP4 ADD MSTORE PUSH2 0x167F DUP2 PUSH2 0x1646 JUMP JUMPDEST SWAP1 POP SWAP2 SWAP1 POP JUMP JUMPDEST PUSH32 0x546865206C6F636B20706572696F6420686173206E6F74207965742065787069 PUSH0 DUP3 ADD MSTORE PUSH32 0x7265642100000000000000000000000000000000000000000000000000000000 PUSH1 0x20 DUP3 ADD MSTORE POP JUMP JUMPDEST PUSH0 PUSH2 0x16E0 PUSH1 0x24 DUP4 PUSH2 0x152D JUMP JUMPDEST SWAP2 POP PUSH2 0x16EB DUP3 PUSH2 0x1686 JUMP JUMPDEST PUSH1 0x40 DUP3 ADD SWAP1 POP SWAP2 SWAP1 POP JUMP JUMPDEST PUSH0 PUSH1 0x20 DUP3 ADD SWAP1 POP DUP2 DUP2 SUB PUSH0 DUP4 ADD MSTORE PUSH2 0x170D DUP2 PUSH2 0x16D4 JUMP JUMPDEST SWAP1 POP SWAP2 SWAP1 POP JUMP JUMPDEST PUSH32 0x4E487B7100000000000000000000000000000000000000000000000000000000 PUSH0 MSTORE PUSH1 0x11 PUSH1 0x4 MSTORE PUSH1 0x24 PUSH0 REVERT JUMPDEST PUSH0 PUSH2 0x174B DUP3 PUSH2 0x123A JUMP JUMPDEST SWAP2 POP PUSH2 0x1756 DUP4 PUSH2 0x123A JUMP JUMPDEST SWAP3 POP DUP3 DUP3 SUB SWAP1 POP DUP2 DUP2 GT ISZERO PUSH2 0x176E JUMPI PUSH2 0x176D PUSH2 0x1714 JUMP JUMPDEST JUMPDEST SWAP3 SWAP2 POP POP JUMP JUMPDEST PUSH32 0x4E6F7420656E6F7567682061737365747320746F207769746864726177210000 PUSH0 DUP3 ADD MSTORE POP JUMP JUMPDEST PUSH0 PUSH2 0x17A8 PUSH1 0x1E DUP4 PUSH2 0x152D JUMP JUMPDEST SWAP2 POP PUSH2 0x17B3 DUP3 PUSH2 0x1774 JUMP JUMPDEST PUSH1 0x20 DUP3 ADD SWAP1 POP SWAP2 SWAP1 POP JUMP JUMPDEST PUSH0 PUSH1 0x20 DUP3 ADD SWAP1 POP DUP2 DUP2 SUB PUSH0 DUP4 ADD MSTORE PUSH2 0x17D5 DUP2 PUSH2 0x179C JUMP JUMPDEST SWAP1 POP SWAP2 SWAP1 POP JUMP JUMPDEST PUSH0 DUP2 SWAP1 POP SWAP3 SWAP2 POP POP JUMP JUMPDEST POP JUMP JUMPDEST PUSH0 PUSH2 0x17F4 PUSH0 DUP4 PUSH2 0x17DC JUMP JUMPDEST SWAP2 POP PUSH2 0x17FF DUP3 PUSH2 0x17E6 JUMP JUMPDEST PUSH0 DUP3 ADD SWAP1 POP SWAP2 SWAP1 POP JUMP JUMPDEST PUSH0 PUSH2 0x1813 DUP3 PUSH2 0x17E9 JUMP JUMPDEST SWAP2 POP DUP2 SWAP1 POP SWAP2 SWAP1 POP JUMP JUMPDEST PUSH32 0x455448207472616E73666572206661696C656400000000000000000000000000 PUSH0 DUP3 ADD MSTORE POP JUMP JUMPDEST PUSH0 PUSH2 0x1851 PUSH1 0x13 DUP4 PUSH2 0x152D JUMP JUMPDEST SWAP2 POP PUSH2 0x185C DUP3 PUSH2 0x181D JUMP JUMPDEST PUSH1 0x20 DUP3 ADD SWAP1 POP SWAP2 SWAP1 POP JUMP JUMPDEST PUSH0 PUSH1 0x20 DUP3 ADD SWAP1 POP DUP2 DUP2 SUB PUSH0 DUP4 ADD MSTORE PUSH2 0x187E DUP2 PUSH2 0x1845 JUMP JUMPDEST SWAP1 POP SWAP2 SWAP1 POP JUMP JUMPDEST PUSH0 PUSH1 0x40 DUP3 ADD SWAP1 POP PUSH2 0x1898 PUSH0 DUP4 ADD DUP6 PUSH2 0x1243 JUMP JUMPDEST PUSH2 0x18A5 PUSH1 0x20 DUP4 ADD DUP5 PUSH2 0x143B JUMP JUMPDEST SWAP4 SWAP3 POP POP POP JUMP JUMPDEST PUSH32 0x45544820746F206C6F636B206D75737420612076616C75652067726561746572 PUSH0 DUP3 ADD MSTORE PUSH32 0x207468616E203000000000000000000000000000000000000000000000000000 PUSH1 0x20 DUP3 ADD MSTORE POP JUMP JUMPDEST PUSH0 PUSH2 0x1906 PUSH1 0x27 DUP4 PUSH2 0x152D JUMP JUMPDEST SWAP2 POP PUSH2 0x1911 DUP3 PUSH2 0x18AC JUMP JUMPDEST PUSH1 0x40 DUP3 ADD SWAP1 POP SWAP2 SWAP1 POP JUMP JUMPDEST PUSH0 PUSH1 0x20 DUP3 ADD SWAP1 POP DUP2 DUP2 SUB PUSH0 DUP4 ADD MSTORE PUSH2 0x1933 DUP2 PUSH2 0x18FA JUMP JUMPDEST SWAP1 POP SWAP2 SWAP1 POP JUMP JUMPDEST PUSH32 0x546865206C6F636B706572696F64206D75737420626520677265617465722074 PUSH0 DUP3 ADD MSTORE PUSH32 0x68656E207A65726F000000000000000000000000000000000000000000000000 PUSH1 0x20 DUP3 ADD MSTORE POP JUMP JUMPDEST PUSH0 PUSH2 0x1994 PUSH1 0x28 DUP4 PUSH2 0x152D JUMP JUMPDEST SWAP2 POP PUSH2 0x199F DUP3 PUSH2 0x193A JUMP JUMPDEST PUSH1 0x40 DUP3 ADD SWAP1 POP SWAP2 SWAP1 POP JUMP JUMPDEST PUSH0 PUSH1 0x20 DUP3 ADD SWAP1 POP DUP2 DUP2 SUB PUSH0 DUP4 ADD MSTORE PUSH2 0x19C1 DUP2 PUSH2 0x1988 JUMP JUMPDEST SWAP1 POP SWAP2 SWAP1 POP JUMP JUMPDEST PUSH0 PUSH2 0x19D2 DUP3 PUSH2 0x123A JUMP JUMPDEST SWAP2 POP PUSH2 0x19DD DUP4 PUSH2 0x123A JUMP JUMPDEST SWAP3 POP DUP3 DUP3 ADD SWAP1 POP DUP1 DUP3 GT ISZERO PUSH2 0x19F5 JUMPI PUSH2 0x19F4 PUSH2 0x1714 JUMP JUMPDEST JUMPDEST SWAP3 SWAP2 POP POP JUMP JUMPDEST PUSH0 PUSH1 0x60 DUP3 ADD SWAP1 POP PUSH2 0x1A0E PUSH0 DUP4 ADD DUP7 PUSH2 0x1243 JUMP JUMPDEST PUSH2 0x1A1B PUSH1 0x20 DUP4 ADD DUP6 PUSH2 0x143B JUMP JUMPDEST PUSH2 0x1A28 PUSH1 0x40 DUP4 ADD DUP5 PUSH2 0x1243 JUMP JUMPDEST SWAP5 SWAP4 POP POP POP POP JUMP JUMPDEST PUSH32 0x4D7573742070726F7669646520612076616C696420746F6B656E206164647265 PUSH0 DUP3 ADD MSTORE PUSH32 0x7373000000000000000000000000000000000000000000000000000000000000 PUSH1 0x20 DUP3 ADD MSTORE POP JUMP JUMPDEST PUSH0 PUSH2 0x1A8A PUSH1 0x22 DUP4 PUSH2 0x152D JUMP JUMPDEST SWAP2 POP PUSH2 0x1A95 DUP3 PUSH2 0x1A30 JUMP JUMPDEST PUSH1 0x40 DUP3 ADD SWAP1 POP SWAP2 SWAP1 POP JUMP JUMPDEST PUSH0 PUSH1 0x20 DUP3 ADD SWAP1 POP DUP2 DUP2 SUB PUSH0 DUP4 ADD MSTORE PUSH2 0x1AB7 DUP2 PUSH2 0x1A7E JUMP JUMPDEST SWAP1 POP SWAP2 SWAP1 POP JUMP JUMPDEST PUSH32 0x546F6B656E20616D6F756E74206D757374206265206772656174657220746865 PUSH0 DUP3 ADD MSTORE PUSH32 0x6E207A65726F0000000000000000000000000000000000000000000000000000 PUSH1 0x20 DUP3 ADD MSTORE POP JUMP JUMPDEST PUSH0 PUSH2 0x1B18 PUSH1 0x26 DUP4 PUSH2 0x152D JUMP JUMPDEST SWAP2 POP PUSH2 0x1B23 DUP3 PUSH2 0x1ABE JUMP JUMPDEST PUSH1 0x40 DUP3 ADD SWAP1 POP SWAP2 SWAP1 POP JUMP JUMPDEST PUSH0 PUSH1 0x20 DUP3 ADD SWAP1 POP DUP2 DUP2 SUB PUSH0 DUP4 ADD MSTORE PUSH2 0x1B45 DUP2 PUSH2 0x1B0C JUMP JUMPDEST SWAP1 POP SWAP2 SWAP1 POP JUMP JUMPDEST PUSH32 0x546865206C6F636B20706572696F64206D757374206265206772656174657220 PUSH0 DUP3 ADD MSTORE PUSH32 0x7468656E207A65726F0000000000000000000000000000000000000000000000 PUSH1 0x20 DUP3 ADD MSTORE POP JUMP JUMPDEST PUSH0 PUSH2 0x1BA6 PUSH1 0x29 DUP4 PUSH2 0x152D JUMP JUMPDEST SWAP2 POP PUSH2 0x1BB1 DUP3 PUSH2 0x1B4C JUMP JUMPDEST PUSH1 0x40 DUP3 ADD SWAP1 POP SWAP2 SWAP1 POP JUMP JUMPDEST PUSH0 PUSH1 0x20 DUP3 ADD SWAP1 POP DUP2 DUP2 SUB PUSH0 DUP4 ADD MSTORE PUSH2 0x1BD3 DUP2 PUSH2 0x1B9A JUMP JUMPDEST SWAP1 POP SWAP2 SWAP1 POP JUMP JUMPDEST PUSH32 0x4E6F7420656E6F75676820746F6B656E7320746F206C6F636B00000000000000 PUSH0 DUP3 ADD MSTORE POP JUMP JUMPDEST PUSH0 PUSH2 0x1C0E PUSH1 0x19 DUP4 PUSH2 0x152D JUMP JUMPDEST SWAP2 POP PUSH2 0x1C19 DUP3 PUSH2 0x1BDA JUMP JUMPDEST PUSH1 0x20 DUP3 ADD SWAP1 POP SWAP2 SWAP1 POP JUMP JUMPDEST PUSH0 PUSH1 0x20 DUP3 ADD SWAP1 POP DUP2 DUP2 SUB PUSH0 DUP4 ADD MSTORE PUSH2 0x1C3B DUP2 PUSH2 0x1C02 JUMP JUMPDEST SWAP1 POP SWAP2 SWAP1 POP JUMP JUMPDEST PUSH0 PUSH1 0x40 DUP3 ADD SWAP1 POP PUSH2 0x1C55 PUSH0 DUP4 ADD DUP6 PUSH2 0x13AB JUMP JUMPDEST PUSH2 0x1C62 PUSH1 0x20 DUP4 ADD DUP5 PUSH2 0x1243 JUMP JUMPDEST SWAP4 SWAP3 POP POP POP JUMP JUMPDEST PUSH0 PUSH1 0x60 DUP3 ADD SWAP1 POP PUSH2 0x1C7C PUSH0 DUP4 ADD DUP7 PUSH2 0x13AB JUMP JUMPDEST PUSH2 0x1C89 PUSH1 0x20 DUP4 ADD DUP6 PUSH2 0x13AB JUMP JUMPDEST PUSH2 0x1C96 PUSH1 0x40 DUP4 ADD DUP5 PUSH2 0x1243 JUMP JUMPDEST SWAP5 SWAP4 POP POP POP POP JUMP INVALID LOG2 PUSH5 0x6970667358 0x22 SLT KECCAK256 STOP SUB PUSH6 0xE3D8AB505D43 GASLIMIT SWAP5 0x25 RETURNDATACOPY ADD 0xF6 0xA6 MUL MSIZE XOR PUSH7 0x87A925E9885353 0xB5 DUP3 0xEB 0xDB JUMPDEST PUSH5 0x736F6C6343 STOP ADDMOD BYTE STOP CALLER "
				},
				"gasEstimates": {
					"creation": {
						"codeDepositCost": "1476000",
						"executionCost": "infinite",
						"totalCost": "infinite"
					},
					"external": {
						"getContractETHBalance()": "356",
						"getContractTokenBalance(address)": "infinite",
						"lockETH(uint8,uint256)": "infinite",
						"lockToken(address,uint256,uint8,uint256)": "infinite",
						"owner()": "2559",
						"renounceOwnership()": "infinite",
						"transferAsset(uint256,uint256)": "infinite",
						"transferOwnership(address)": "infinite",
						"userLockedAssets(address,uint256)": "infinite"
					}
				},
				"methodIdentifiers": {
					"getContractETHBalance()": "8c89a0ad",
					"getContractTokenBalance(address)": "14205e28",
					"lockETH(uint8,uint256)": "4ae39e3e",
					"lockToken(address,uint256,uint8,uint256)": "5c41ed7c",
					"owner()": "8da5cb5b",
					"renounceOwnership()": "715018a6",
					"transferAsset(uint256,uint256)": "3fcbb6ac",
					"transferOwnership(address)": "f2fde38b",
					"userLockedAssets(address,uint256)": "a0ffe2ba"
				}
			},
			"storageLayout": {
				"storage": [
					{
						"astId": 8,
						"contract": "contracts/Fvkry.sol:Fvkry",
						"label": "_owner",
						"offset": 0,
						"slot": "0",
						"type": "t_address"
					},
					{
						"astId": 765,
						"contract": "contracts/Fvkry.sol:Fvkry",
						"label": "_status",
						"offset": 0,
						"slot": "1",
						"type": "t_uint256"
					},
					{
						"astId": 868,
						"contract": "contracts/Fvkry.sol:Fvkry",
						"label": "userLockedAssets",
						"offset": 0,
						"slot": "2",
						"type": "t_mapping(t_address,t_array(t_struct(Lock)862_storage)dyn_storage)"
					}
				],
				"types": {
					"t_address": {
						"encoding": "inplace",
						"label": "address",
						"numberOfBytes": "20"
					},
					"t_array(t_struct(Lock)862_storage)dyn_storage": {
						"base": "t_struct(Lock)862_storage",
						"encoding": "dynamic_array",
						"label": "struct Fvkry.Lock[]",
						"numberOfBytes": "32"
					},
					"t_bool": {
						"encoding": "inplace",
						"label": "bool",
						"numberOfBytes": "1"
					},
					"t_mapping(t_address,t_array(t_struct(Lock)862_storage)dyn_storage)": {
						"encoding": "mapping",
						"key": "t_address",
						"label": "mapping(address => struct Fvkry.Lock[])",
						"numberOfBytes": "32",
						"value": "t_array(t_struct(Lock)862_storage)dyn_storage"
					},
					"t_struct(Lock)862_storage": {
						"encoding": "inplace",
						"label": "struct Fvkry.Lock",
						"members": [
							{
								"astId": 851,
								"contract": "contracts/Fvkry.sol:Fvkry",
								"label": "token",
								"offset": 0,
								"slot": "0",
								"type": "t_address"
							},
							{
								"astId": 853,
								"contract": "contracts/Fvkry.sol:Fvkry",
								"label": "amount",
								"offset": 0,
								"slot": "1",
								"type": "t_uint256"
							},
							{
								"astId": 855,
								"contract": "contracts/Fvkry.sol:Fvkry",
								"label": "lockEndTime",
								"offset": 0,
								"slot": "2",
								"type": "t_uint256"
							},
							{
								"astId": 857,
								"contract": "contracts/Fvkry.sol:Fvkry",
								"label": "vault",
								"offset": 0,
								"slot": "3",
								"type": "t_uint8"
							},
							{
								"astId": 859,
								"contract": "contracts/Fvkry.sol:Fvkry",
								"label": "withdrawn",
								"offset": 1,
								"slot": "3",
								"type": "t_bool"
							},
							{
								"astId": 861,
								"contract": "contracts/Fvkry.sol:Fvkry",
								"label": "isNative",
								"offset": 2,
								"slot": "3",
								"type": "t_bool"
							}
						],
						"numberOfBytes": "128"
					},
					"t_uint256": {
						"encoding": "inplace",
						"label": "uint256",
						"numberOfBytes": "32"
					},
					"t_uint8": {
						"encoding": "inplace",
						"label": "uint8",
						"numberOfBytes": "1"
					}
				}
			},
			"userdoc": {
				"kind": "user",
				"methods": {},
				"version": 1
			}
		}
	}
}