{
	"contracts/Fvkry.sol": {
		"Fvkry": {
			"abi": [
				{
					"inputs": [],
					"stateMutability": "nonpayable",
					"type": "constructor"
				},
				{
					"inputs": [
						{
							"internalType": "address",
							"name": "owner",
							"type": "address"
						}
					],
					"name": "OwnableInvalidOwner",
					"type": "error"
				},
				{
					"inputs": [
						{
							"internalType": "address",
							"name": "account",
							"type": "address"
						}
					],
					"name": "OwnableUnauthorizedAccount",
					"type": "error"
				},
				{
					"inputs": [],
					"name": "ReentrancyGuardReentrantCall",
					"type": "error"
				},
				{
					"inputs": [
						{
							"internalType": "address",
							"name": "token",
							"type": "address"
						}
					],
					"name": "SafeERC20FailedOperation",
					"type": "error"
				},
				{
					"anonymous": false,
					"inputs": [
						{
							"indexed": true,
							"internalType": "address",
							"name": "_token",
							"type": "address"
						},
						{
							"indexed": false,
							"internalType": "uint256",
							"name": "amount",
							"type": "uint256"
						},
						{
							"indexed": false,
							"internalType": "uint8",
							"name": "vault",
							"type": "uint8"
						},
						{
							"indexed": false,
							"internalType": "uint256",
							"name": "lockEndTime",
							"type": "uint256"
						}
					],
					"name": "AssetLocked",
					"type": "event"
				},
				{
					"anonymous": false,
					"inputs": [
						{
							"indexed": true,
							"internalType": "address",
							"name": "_token",
							"type": "address"
						},
						{
							"indexed": false,
							"internalType": "uint256",
							"name": "amount",
							"type": "uint256"
						},
						{
							"indexed": false,
							"internalType": "uint8",
							"name": "vault",
							"type": "uint8"
						}
					],
					"name": "AssetTransfered",
					"type": "event"
				},
				{
					"anonymous": false,
					"inputs": [
						{
							"indexed": true,
							"internalType": "address",
							"name": "previousOwner",
							"type": "address"
						},
						{
							"indexed": true,
							"internalType": "address",
							"name": "newOwner",
							"type": "address"
						}
					],
					"name": "OwnershipTransferred",
					"type": "event"
				},
				{
					"inputs": [],
					"name": "getContractETHBalance",
					"outputs": [
						{
							"internalType": "uint256",
							"name": "",
							"type": "uint256"
						}
					],
					"stateMutability": "view",
					"type": "function"
				},
				{
					"inputs": [
						{
							"internalType": "contract IERC20",
							"name": "token",
							"type": "address"
						}
					],
					"name": "getContractTokenBalance",
					"outputs": [
						{
							"internalType": "uint256",
							"name": "",
							"type": "uint256"
						}
					],
					"stateMutability": "view",
					"type": "function"
				},
				{
					"inputs": [],
					"name": "getUserLocks",
					"outputs": [
						{
							"components": [
								{
									"internalType": "address",
									"name": "token",
									"type": "address"
								},
								{
									"internalType": "uint256",
									"name": "amount",
									"type": "uint256"
								},
								{
									"internalType": "uint256",
									"name": "lockEndTime",
									"type": "uint256"
								},
								{
									"internalType": "uint8",
									"name": "vault",
									"type": "uint8"
								},
								{
									"internalType": "bool",
									"name": "withdrawn",
									"type": "bool"
								},
								{
									"internalType": "bool",
									"name": "isNative",
									"type": "bool"
								}
							],
							"internalType": "struct Fvkry.Lock[]",
							"name": "",
							"type": "tuple[]"
						}
					],
					"stateMutability": "view",
					"type": "function"
				},
				{
					"inputs": [
						{
							"internalType": "uint8",
							"name": "_vault",
							"type": "uint8"
						},
						{
							"internalType": "uint256",
							"name": "_lockperiod",
							"type": "uint256"
						}
					],
					"name": "lockETH",
					"outputs": [],
					"stateMutability": "payable",
					"type": "function"
				},
				{
					"inputs": [
						{
							"internalType": "contract IERC20",
							"name": "_token",
							"type": "address"
						},
						{
							"internalType": "uint256",
							"name": "_amount",
							"type": "uint256"
						},
						{
							"internalType": "uint8",
							"name": "_vault",
							"type": "uint8"
						},
						{
							"internalType": "uint256",
							"name": "_lockperiod",
							"type": "uint256"
						}
					],
					"name": "lockToken",
					"outputs": [],
					"stateMutability": "nonpayable",
					"type": "function"
				},
				{
					"inputs": [],
					"name": "owner",
					"outputs": [
						{
							"internalType": "address",
							"name": "",
							"type": "address"
						}
					],
					"stateMutability": "view",
					"type": "function"
				},
				{
					"inputs": [],
					"name": "renounceOwnership",
					"outputs": [],
					"stateMutability": "nonpayable",
					"type": "function"
				},
				{
					"inputs": [
						{
							"internalType": "uint256",
							"name": "_assetId",
							"type": "uint256"
						},
						{
							"internalType": "uint256",
							"name": "_amount",
							"type": "uint256"
						}
					],
					"name": "transferAsset",
					"outputs": [],
					"stateMutability": "nonpayable",
					"type": "function"
				},
				{
					"inputs": [
						{
							"internalType": "address",
							"name": "newOwner",
							"type": "address"
						}
					],
					"name": "transferOwnership",
					"outputs": [],
					"stateMutability": "nonpayable",
					"type": "function"
				},
				{
					"inputs": [
						{
							"internalType": "address",
							"name": "",
							"type": "address"
						},
						{
							"internalType": "uint256",
							"name": "",
							"type": "uint256"
						}
					],
					"name": "userLockedAssets",
					"outputs": [
						{
							"internalType": "address",
							"name": "token",
							"type": "address"
						},
						{
							"internalType": "uint256",
							"name": "amount",
							"type": "uint256"
						},
						{
							"internalType": "uint256",
							"name": "lockEndTime",
							"type": "uint256"
						},
						{
							"internalType": "uint8",
							"name": "vault",
							"type": "uint8"
						},
						{
							"internalType": "bool",
							"name": "withdrawn",
							"type": "bool"
						},
						{
							"internalType": "bool",
							"name": "isNative",
							"type": "bool"
						}
					],
					"stateMutability": "view",
					"type": "function"
				}
			],
			"devdoc": {
				"errors": {
					"OwnableInvalidOwner(address)": [
						{
							"details": "The owner is not a valid owner account. (eg. `address(0)`)"
						}
					],
					"OwnableUnauthorizedAccount(address)": [
						{
							"details": "The caller account is not authorized to perform an operation."
						}
					],
					"ReentrancyGuardReentrantCall()": [
						{
							"details": "Unauthorized reentrant call."
						}
					],
					"SafeERC20FailedOperation(address)": [
						{
							"details": "An operation with an ERC-20 token failed."
						}
					]
				},
				"kind": "dev",
				"methods": {
					"owner()": {
						"details": "Returns the address of the current owner."
					},
					"renounceOwnership()": {
						"details": "Leaves the contract without owner. It will not be possible to call `onlyOwner` functions. Can only be called by the current owner. NOTE: Renouncing ownership will leave the contract without an owner, thereby disabling any functionality that is only available to the owner."
					},
					"transferOwnership(address)": {
						"details": "Transfers ownership of the contract to a new account (`newOwner`). Can only be called by the current owner."
					}
				},
				"version": 1
			},
			"evm": {
				"assembly": "    /* \"contracts/Fvkry.sol\":305:4334  contract Fvkry is Ownable, ReentrancyGuard {... */\n  mstore(0x40, 0x80)\n    /* \"contracts/Fvkry.sol\":828:864  constructor() Ownable(msg.sender) {} */\n  callvalue\n  dup1\n  iszero\n  tag_1\n  jumpi\n  0x00\n  dup1\n  revert\ntag_1:\n  pop\n    /* \"contracts/Fvkry.sol\":850:860  msg.sender */\n  caller\n    /* \"@openzeppelin/contracts/access/Ownable.sol\":1297:1298  0 */\n  0x00\n    /* \"@openzeppelin/contracts/access/Ownable.sol\":1273:1299  initialOwner == address(0) */\n  0xffffffffffffffffffffffffffffffffffffffff\n  and\n    /* \"@openzeppelin/contracts/access/Ownable.sol\":1273:1285  initialOwner */\n  dup2\n    /* \"@openzeppelin/contracts/access/Ownable.sol\":1273:1299  initialOwner == address(0) */\n  0xffffffffffffffffffffffffffffffffffffffff\n  and\n  sub\n    /* \"@openzeppelin/contracts/access/Ownable.sol\":1269:1364  if (initialOwner == address(0)) {... */\n  tag_6\n  jumpi\n    /* \"@openzeppelin/contracts/access/Ownable.sol\":1350:1351  0 */\n  0x00\n    /* \"@openzeppelin/contracts/access/Ownable.sol\":1322:1353  OwnableInvalidOwner(address(0)) */\n  mload(0x40)\n  0x1e4fbdf700000000000000000000000000000000000000000000000000000000\n  dup2\n  mstore\n  0x04\n  add\n  tag_7\n  swap2\n  swap1\n  tag_8\n  jump\t// in\ntag_7:\n  mload(0x40)\n  dup1\n  swap2\n  sub\n  swap1\n  revert\n    /* \"@openzeppelin/contracts/access/Ownable.sol\":1269:1364  if (initialOwner == address(0)) {... */\ntag_6:\n    /* \"@openzeppelin/contracts/access/Ownable.sol\":1373:1405  _transferOwnership(initialOwner) */\n  tag_9\n    /* \"@openzeppelin/contracts/access/Ownable.sol\":1392:1404  initialOwner */\n  dup2\n    /* \"@openzeppelin/contracts/access/Ownable.sol\":1373:1391  _transferOwnership */\n  shl(0x20, tag_10)\n    /* \"@openzeppelin/contracts/access/Ownable.sol\":1373:1405  _transferOwnership(initialOwner) */\n  0x20\n  shr\n  jump\t// in\ntag_9:\n    /* \"@openzeppelin/contracts/access/Ownable.sol\":1225:1412  constructor(address initialOwner) {... */\n  pop\n    /* \"@openzeppelin/contracts/utils/ReentrancyGuard.sol\":1857:1858  1 */\n  0x01\n    /* \"@openzeppelin/contracts/utils/ReentrancyGuard.sol\":2061:2068  _status */\n  dup1\n    /* \"@openzeppelin/contracts/utils/ReentrancyGuard.sol\":2061:2082  _status = NOT_ENTERED */\n  dup2\n  swap1\n  sstore\n  pop\n    /* \"contracts/Fvkry.sol\":305:4334  contract Fvkry is Ownable, ReentrancyGuard {... */\n  jump(tag_13)\n    /* \"@openzeppelin/contracts/access/Ownable.sol\":2912:3099  function _transferOwnership(address newOwner) internal virtual {... */\ntag_10:\n    /* \"@openzeppelin/contracts/access/Ownable.sol\":2985:3001  address oldOwner */\n  0x00\n    /* \"@openzeppelin/contracts/access/Ownable.sol\":3004:3010  _owner */\n  dup1\n  0x00\n  swap1\n  sload\n  swap1\n  0x0100\n  exp\n  swap1\n  div\n  0xffffffffffffffffffffffffffffffffffffffff\n  and\n    /* \"@openzeppelin/contracts/access/Ownable.sol\":2985:3010  address oldOwner = _owner */\n  swap1\n  pop\n    /* \"@openzeppelin/contracts/access/Ownable.sol\":3029:3037  newOwner */\n  dup2\n    /* \"@openzeppelin/contracts/access/Ownable.sol\":3020:3026  _owner */\n  0x00\n  dup1\n    /* \"@openzeppelin/contracts/access/Ownable.sol\":3020:3037  _owner = newOwner */\n  0x0100\n  exp\n  dup2\n  sload\n  dup2\n  0xffffffffffffffffffffffffffffffffffffffff\n  mul\n  not\n  and\n  swap1\n  dup4\n  0xffffffffffffffffffffffffffffffffffffffff\n  and\n  mul\n  or\n  swap1\n  sstore\n  pop\n    /* \"@openzeppelin/contracts/access/Ownable.sol\":3083:3091  newOwner */\n  dup2\n    /* \"@openzeppelin/contracts/access/Ownable.sol\":3052:3092  OwnershipTransferred(oldOwner, newOwner) */\n  0xffffffffffffffffffffffffffffffffffffffff\n  and\n    /* \"@openzeppelin/contracts/access/Ownable.sol\":3073:3081  oldOwner */\n  dup2\n    /* \"@openzeppelin/contracts/access/Ownable.sol\":3052:3092  OwnershipTransferred(oldOwner, newOwner) */\n  0xffffffffffffffffffffffffffffffffffffffff\n  and\n  0x8be0079c531659141344cd1fd0a4f28419497f9722a3daafe3b4186f6b6457e0\n  mload(0x40)\n  mload(0x40)\n  dup1\n  swap2\n  sub\n  swap1\n  log3\n    /* \"@openzeppelin/contracts/access/Ownable.sol\":2975:3099  {... */\n  pop\n    /* \"@openzeppelin/contracts/access/Ownable.sol\":2912:3099  function _transferOwnership(address newOwner) internal virtual {... */\n  pop\n  jump\t// out\n    /* \"#utility.yul\":7:133   */\ntag_15:\n    /* \"#utility.yul\":44:51   */\n  0x00\n    /* \"#utility.yul\":84:126   */\n  0xffffffffffffffffffffffffffffffffffffffff\n    /* \"#utility.yul\":77:82   */\n  dup3\n    /* \"#utility.yul\":73:127   */\n  and\n    /* \"#utility.yul\":62:127   */\n  swap1\n  pop\n    /* \"#utility.yul\":7:133   */\n  swap2\n  swap1\n  pop\n  jump\t// out\n    /* \"#utility.yul\":139:235   */\ntag_16:\n    /* \"#utility.yul\":176:183   */\n  0x00\n    /* \"#utility.yul\":205:229   */\n  tag_21\n    /* \"#utility.yul\":223:228   */\n  dup3\n    /* \"#utility.yul\":205:229   */\n  tag_15\n  jump\t// in\ntag_21:\n    /* \"#utility.yul\":194:229   */\n  swap1\n  pop\n    /* \"#utility.yul\":139:235   */\n  swap2\n  swap1\n  pop\n  jump\t// out\n    /* \"#utility.yul\":241:359   */\ntag_17:\n    /* \"#utility.yul\":328:352   */\n  tag_23\n    /* \"#utility.yul\":346:351   */\n  dup2\n    /* \"#utility.yul\":328:352   */\n  tag_16\n  jump\t// in\ntag_23:\n    /* \"#utility.yul\":323:326   */\n  dup3\n    /* \"#utility.yul\":316:353   */\n  mstore\n    /* \"#utility.yul\":241:359   */\n  pop\n  pop\n  jump\t// out\n    /* \"#utility.yul\":365:587   */\ntag_8:\n    /* \"#utility.yul\":458:462   */\n  0x00\n    /* \"#utility.yul\":496:498   */\n  0x20\n    /* \"#utility.yul\":485:494   */\n  dup3\n    /* \"#utility.yul\":481:499   */\n  add\n    /* \"#utility.yul\":473:499   */\n  swap1\n  pop\n    /* \"#utility.yul\":509:580   */\n  tag_25\n    /* \"#utility.yul\":577:578   */\n  0x00\n    /* \"#utility.yul\":566:575   */\n  dup4\n    /* \"#utility.yul\":562:579   */\n  add\n    /* \"#utility.yul\":553:559   */\n  dup5\n    /* \"#utility.yul\":509:580   */\n  tag_17\n  jump\t// in\ntag_25:\n    /* \"#utility.yul\":365:587   */\n  swap3\n  swap2\n  pop\n  pop\n  jump\t// out\n    /* \"contracts/Fvkry.sol\":305:4334  contract Fvkry is Ownable, ReentrancyGuard {... */\ntag_13:\n  dataSize(sub_0)\n  dup1\n  dataOffset(sub_0)\n  0x00\n  codecopy\n  0x00\n  return\nstop\n\nsub_0: assembly {\n        /* \"contracts/Fvkry.sol\":305:4334  contract Fvkry is Ownable, ReentrancyGuard {... */\n      mstore(0x40, 0x80)\n      jumpi(tag_1, lt(calldatasize, 0x04))\n      shr(0xe0, calldataload(0x00))\n      dup1\n      0x8c89a0ad\n      gt\n      tag_12\n      jumpi\n      dup1\n      0x8c89a0ad\n      eq\n      tag_7\n      jumpi\n      dup1\n      0x8da5cb5b\n      eq\n      tag_8\n      jumpi\n      dup1\n      0xa0ffe2ba\n      eq\n      tag_9\n      jumpi\n      dup1\n      0xf2fde38b\n      eq\n      tag_10\n      jumpi\n      dup1\n      0xf504b0a4\n      eq\n      tag_11\n      jumpi\n      jump(tag_1)\n    tag_12:\n      dup1\n      0x14205e28\n      eq\n      tag_2\n      jumpi\n      dup1\n      0x3fcbb6ac\n      eq\n      tag_3\n      jumpi\n      dup1\n      0x4ae39e3e\n      eq\n      tag_4\n      jumpi\n      dup1\n      0x5c41ed7c\n      eq\n      tag_5\n      jumpi\n      dup1\n      0x715018a6\n      eq\n      tag_6\n      jumpi\n    tag_1:\n      0x00\n      dup1\n      revert\n        /* \"contracts/Fvkry.sol\":3922:4057  function getContractTokenBalance(IERC20 token) external view returns (uint256) {... */\n    tag_2:\n      callvalue\n      dup1\n      iszero\n      tag_13\n      jumpi\n      0x00\n      dup1\n      revert\n    tag_13:\n      pop\n      tag_14\n      0x04\n      dup1\n      calldatasize\n      sub\n      dup2\n      add\n      swap1\n      tag_15\n      swap2\n      swap1\n      tag_16\n      jump\t// in\n    tag_15:\n      tag_17\n      jump\t// in\n    tag_14:\n      mload(0x40)\n      tag_18\n      swap2\n      swap1\n      tag_19\n      jump\t// in\n    tag_18:\n      mload(0x40)\n      dup1\n      swap2\n      sub\n      swap1\n      return\n        /* \"contracts/Fvkry.sol\":2670:3888  function transferAsset(uint256 _assetId, uint256 _amount) external  nonReentrant {... */\n    tag_3:\n      callvalue\n      dup1\n      iszero\n      tag_20\n      jumpi\n      0x00\n      dup1\n      revert\n    tag_20:\n      pop\n      tag_21\n      0x04\n      dup1\n      calldatasize\n      sub\n      dup2\n      add\n      swap1\n      tag_22\n      swap2\n      swap1\n      tag_23\n      jump\t// in\n    tag_22:\n      tag_24\n      jump\t// in\n    tag_21:\n      stop\n        /* \"contracts/Fvkry.sol\":888:1562  function lockETH(uint8 _vault, uint256 _lockperiod) external payable nonReentrant {... */\n    tag_4:\n      tag_25\n      0x04\n      dup1\n      calldatasize\n      sub\n      dup2\n      add\n      swap1\n      tag_26\n      swap2\n      swap1\n      tag_27\n      jump\t// in\n    tag_26:\n      tag_28\n      jump\t// in\n    tag_25:\n      stop\n        /* \"contracts/Fvkry.sol\":1595:2639  function lockToken (IERC20 _token, uint256 _amount, uint8 _vault, uint256 _lockperiod) external nonReentrant {... */\n    tag_5:\n      callvalue\n      dup1\n      iszero\n      tag_29\n      jumpi\n      0x00\n      dup1\n      revert\n    tag_29:\n      pop\n      tag_30\n      0x04\n      dup1\n      calldatasize\n      sub\n      dup2\n      add\n      swap1\n      tag_31\n      swap2\n      swap1\n      tag_32\n      jump\t// in\n    tag_31:\n      tag_33\n      jump\t// in\n    tag_30:\n      stop\n        /* \"@openzeppelin/contracts/access/Ownable.sol\":2293:2394  function renounceOwnership() public virtual onlyOwner {... */\n    tag_6:\n      callvalue\n      dup1\n      iszero\n      tag_34\n      jumpi\n      0x00\n      dup1\n      revert\n    tag_34:\n      pop\n      tag_35\n      tag_36\n      jump\t// in\n    tag_35:\n      stop\n        /* \"contracts/Fvkry.sol\":4065:4177  function getContractETHBalance() external view returns (uint256) {... */\n    tag_7:\n      callvalue\n      dup1\n      iszero\n      tag_37\n      jumpi\n      0x00\n      dup1\n      revert\n    tag_37:\n      pop\n      tag_38\n      tag_39\n      jump\t// in\n    tag_38:\n      mload(0x40)\n      tag_40\n      swap2\n      swap1\n      tag_19\n      jump\t// in\n    tag_40:\n      mload(0x40)\n      dup1\n      swap2\n      sub\n      swap1\n      return\n        /* \"@openzeppelin/contracts/access/Ownable.sol\":1638:1723  function owner() public view virtual returns (address) {... */\n    tag_8:\n      callvalue\n      dup1\n      iszero\n      tag_41\n      jumpi\n      0x00\n      dup1\n      revert\n    tag_41:\n      pop\n      tag_42\n      tag_43\n      jump\t// in\n    tag_42:\n      mload(0x40)\n      tag_44\n      swap2\n      swap1\n      tag_45\n      jump\t// in\n    tag_44:\n      mload(0x40)\n      dup1\n      swap2\n      sub\n      swap1\n      return\n        /* \"contracts/Fvkry.sol\":572:624  mapping  (address => Lock[]) public userLockedAssets */\n    tag_9:\n      callvalue\n      dup1\n      iszero\n      tag_46\n      jumpi\n      0x00\n      dup1\n      revert\n    tag_46:\n      pop\n      tag_47\n      0x04\n      dup1\n      calldatasize\n      sub\n      dup2\n      add\n      swap1\n      tag_48\n      swap2\n      swap1\n      tag_49\n      jump\t// in\n    tag_48:\n      tag_50\n      jump\t// in\n    tag_47:\n      mload(0x40)\n      tag_51\n      swap7\n      swap6\n      swap5\n      swap4\n      swap3\n      swap2\n      swap1\n      tag_52\n      jump\t// in\n    tag_51:\n      mload(0x40)\n      dup1\n      swap2\n      sub\n      swap1\n      return\n        /* \"@openzeppelin/contracts/access/Ownable.sol\":2543:2758  function transferOwnership(address newOwner) public virtual onlyOwner {... */\n    tag_10:\n      callvalue\n      dup1\n      iszero\n      tag_53\n      jumpi\n      0x00\n      dup1\n      revert\n    tag_53:\n      pop\n      tag_54\n      0x04\n      dup1\n      calldatasize\n      sub\n      dup2\n      add\n      swap1\n      tag_55\n      swap2\n      swap1\n      tag_56\n      jump\t// in\n    tag_55:\n      tag_57\n      jump\t// in\n    tag_54:\n      stop\n        /* \"contracts/Fvkry.sol\":4215:4329  function getUserLocks() public view returns (Lock[] memory) {... */\n    tag_11:\n      callvalue\n      dup1\n      iszero\n      tag_58\n      jumpi\n      0x00\n      dup1\n      revert\n    tag_58:\n      pop\n      tag_59\n      tag_60\n      jump\t// in\n    tag_59:\n      mload(0x40)\n      tag_61\n      swap2\n      swap1\n      tag_62\n      jump\t// in\n    tag_61:\n      mload(0x40)\n      dup1\n      swap2\n      sub\n      swap1\n      return\n        /* \"contracts/Fvkry.sol\":3922:4057  function getContractTokenBalance(IERC20 token) external view returns (uint256) {... */\n    tag_17:\n        /* \"contracts/Fvkry.sol\":3992:3999  uint256 */\n      0x00\n        /* \"contracts/Fvkry.sol\":4019:4024  token */\n      dup2\n        /* \"contracts/Fvkry.sol\":4019:4034  token.balanceOf */\n      0xffffffffffffffffffffffffffffffffffffffff\n      and\n      0x70a08231\n        /* \"contracts/Fvkry.sol\":4043:4047  this */\n      address\n        /* \"contracts/Fvkry.sol\":4019:4049  token.balanceOf(address(this)) */\n      mload(0x40)\n      dup3\n      0xffffffff\n      and\n      0xe0\n      shl\n      dup2\n      mstore\n      0x04\n      add\n      tag_64\n      swap2\n      swap1\n      tag_45\n      jump\t// in\n    tag_64:\n      0x20\n      mload(0x40)\n      dup1\n      dup4\n      sub\n      dup2\n      dup7\n      gas\n      staticcall\n      iszero\n      dup1\n      iszero\n      tag_66\n      jumpi\n      returndatasize\n      0x00\n      dup1\n      returndatacopy\n      revert(0x00, returndatasize)\n    tag_66:\n      pop\n      pop\n      pop\n      pop\n      mload(0x40)\n      returndatasize\n      not(0x1f)\n      0x1f\n      dup3\n      add\n      and\n      dup3\n      add\n      dup1\n      0x40\n      mstore\n      pop\n      dup2\n      add\n      swap1\n      tag_67\n      swap2\n      swap1\n      tag_68\n      jump\t// in\n    tag_67:\n        /* \"contracts/Fvkry.sol\":4012:4049  return token.balanceOf(address(this)) */\n      swap1\n      pop\n        /* \"contracts/Fvkry.sol\":3922:4057  function getContractTokenBalance(IERC20 token) external view returns (uint256) {... */\n      swap2\n      swap1\n      pop\n      jump\t// out\n        /* \"contracts/Fvkry.sol\":2670:3888  function transferAsset(uint256 _assetId, uint256 _amount) external  nonReentrant {... */\n    tag_24:\n        /* \"@openzeppelin/contracts/utils/ReentrancyGuard.sol\":2500:2521  _nonReentrantBefore() */\n      tag_70\n        /* \"@openzeppelin/contracts/utils/ReentrancyGuard.sol\":2500:2519  _nonReentrantBefore */\n      tag_71\n        /* \"@openzeppelin/contracts/utils/ReentrancyGuard.sol\":2500:2521  _nonReentrantBefore() */\n      jump\t// in\n    tag_70:\n        /* \"contracts/Fvkry.sol\":2781:2797  userLockedAssets */\n      0x02\n        /* \"contracts/Fvkry.sol\":2781:2809  userLockedAssets[msg.sender] */\n      0x00\n        /* \"contracts/Fvkry.sol\":2798:2808  msg.sender */\n      caller\n        /* \"contracts/Fvkry.sol\":2781:2809  userLockedAssets[msg.sender] */\n      0xffffffffffffffffffffffffffffffffffffffff\n      and\n      0xffffffffffffffffffffffffffffffffffffffff\n      and\n      dup2\n      mstore\n      0x20\n      add\n      swap1\n      dup2\n      mstore\n      0x20\n      add\n      0x00\n      keccak256\n        /* \"contracts/Fvkry.sol\":2781:2816  userLockedAssets[msg.sender].length */\n      dup1\n      sload\n      swap1\n      pop\n        /* \"contracts/Fvkry.sol\":2770:2778  _assetId */\n      dup3\n        /* \"contracts/Fvkry.sol\":2770:2816  _assetId < userLockedAssets[msg.sender].length */\n      lt\n        /* \"contracts/Fvkry.sol\":2762:2855  require(_assetId < userLockedAssets[msg.sender].length, \"The specified asset ID is invalid.\") */\n      tag_73\n      jumpi\n      mload(0x40)\n      0x08c379a000000000000000000000000000000000000000000000000000000000\n      dup2\n      mstore\n      0x04\n      add\n      tag_74\n      swap1\n      tag_75\n      jump\t// in\n    tag_74:\n      mload(0x40)\n      dup1\n      swap2\n      sub\n      swap1\n      revert\n    tag_73:\n        /* \"contracts/Fvkry.sol\":2876:2893  Lock storage lock */\n      0x00\n        /* \"contracts/Fvkry.sol\":2896:2912  userLockedAssets */\n      0x02\n        /* \"contracts/Fvkry.sol\":2896:2924  userLockedAssets[msg.sender] */\n      0x00\n        /* \"contracts/Fvkry.sol\":2913:2923  msg.sender */\n      caller\n        /* \"contracts/Fvkry.sol\":2896:2924  userLockedAssets[msg.sender] */\n      0xffffffffffffffffffffffffffffffffffffffff\n      and\n      0xffffffffffffffffffffffffffffffffffffffff\n      and\n      dup2\n      mstore\n      0x20\n      add\n      swap1\n      dup2\n      mstore\n      0x20\n      add\n      0x00\n      keccak256\n        /* \"contracts/Fvkry.sol\":2925:2933  _assetId */\n      dup4\n        /* \"contracts/Fvkry.sol\":2896:2934  userLockedAssets[msg.sender][_assetId] */\n      dup2\n      sload\n      dup2\n      lt\n      tag_76\n      jumpi\n      tag_77\n      tag_78\n      jump\t// in\n    tag_77:\n    tag_76:\n      swap1\n      0x00\n      mstore\n      keccak256(0x00, 0x20)\n      swap1\n      0x04\n      mul\n      add\n        /* \"contracts/Fvkry.sol\":2876:2934  Lock storage lock = userLockedAssets[msg.sender][_assetId] */\n      swap1\n      pop\n        /* \"contracts/Fvkry.sol\":2956:2960  lock */\n      dup1\n        /* \"contracts/Fvkry.sol\":2956:2970  lock.withdrawn */\n      0x03\n      add\n      0x01\n      swap1\n      sload\n      swap1\n      0x0100\n      exp\n      swap1\n      div\n      0xff\n      and\n        /* \"contracts/Fvkry.sol\":2955:2970  !lock.withdrawn */\n      iszero\n        /* \"contracts/Fvkry.sol\":2947:3009  require(!lock.withdrawn,\"Assets have already been withdrawn!\") */\n      tag_80\n      jumpi\n      mload(0x40)\n      0x08c379a000000000000000000000000000000000000000000000000000000000\n      dup2\n      mstore\n      0x04\n      add\n      tag_81\n      swap1\n      tag_82\n      jump\t// in\n    tag_81:\n      mload(0x40)\n      dup1\n      swap2\n      sub\n      swap1\n      revert\n    tag_80:\n        /* \"contracts/Fvkry.sol\":3046:3050  lock */\n      dup1\n        /* \"contracts/Fvkry.sol\":3046:3062  lock.lockEndTime */\n      0x02\n      add\n      sload\n        /* \"contracts/Fvkry.sol\":3028:3043  block.timestamp */\n      timestamp\n        /* \"contracts/Fvkry.sol\":3028:3062  block.timestamp > lock.lockEndTime */\n      gt\n        /* \"contracts/Fvkry.sol\":3020:3103  require(block.timestamp > lock.lockEndTime, \"The lock period has not yet expired!\") */\n      tag_83\n      jumpi\n      mload(0x40)\n      0x08c379a000000000000000000000000000000000000000000000000000000000\n      dup2\n      mstore\n      0x04\n      add\n      tag_84\n      swap1\n      tag_85\n      jump\t// in\n    tag_84:\n      mload(0x40)\n      dup1\n      swap2\n      sub\n      swap1\n      revert\n    tag_83:\n        /* \"contracts/Fvkry.sol\":3116:3138  uint256  updateBalance */\n      0x00\n        /* \"contracts/Fvkry.sol\":3155:3162  _amount */\n      dup3\n        /* \"contracts/Fvkry.sol\":3141:3145  lock */\n      dup3\n        /* \"contracts/Fvkry.sol\":3141:3152  lock.amount */\n      0x01\n      add\n      sload\n        /* \"contracts/Fvkry.sol\":3141:3162  lock.amount - _amount */\n      tag_86\n      swap2\n      swap1\n      tag_87\n      jump\t// in\n    tag_86:\n        /* \"contracts/Fvkry.sol\":3116:3162  uint256  updateBalance = lock.amount - _amount */\n      swap1\n      pop\n        /* \"contracts/Fvkry.sol\":3199:3200  0 */\n      0x00\n        /* \"contracts/Fvkry.sol\":3182:3195  updateBalance */\n      dup2\n        /* \"contracts/Fvkry.sol\":3182:3200  updateBalance >= 0 */\n      lt\n      iszero\n        /* \"contracts/Fvkry.sol\":3173:3234  require (updateBalance >= 0,\"Not enough assets to withdraw!\") */\n      tag_88\n      jumpi\n      mload(0x40)\n      0x08c379a000000000000000000000000000000000000000000000000000000000\n      dup2\n      mstore\n      0x04\n      add\n      tag_89\n      swap1\n      tag_90\n      jump\t// in\n    tag_89:\n      mload(0x40)\n      dup1\n      swap2\n      sub\n      swap1\n      revert\n    tag_88:\n        /* \"contracts/Fvkry.sol\":3296:3297  0 */\n      0x00\n        /* \"contracts/Fvkry.sol\":3279:3292  updateBalance */\n      dup2\n        /* \"contracts/Fvkry.sol\":3279:3297  updateBalance == 0 */\n      sub\n        /* \"contracts/Fvkry.sol\":3276:3381  if(updateBalance == 0) {... */\n      tag_91\n      jumpi\n        /* \"contracts/Fvkry.sol\":3365:3369  true */\n      0x01\n        /* \"contracts/Fvkry.sol\":3314:3330  userLockedAssets */\n      0x02\n        /* \"contracts/Fvkry.sol\":3314:3342  userLockedAssets[msg.sender] */\n      0x00\n        /* \"contracts/Fvkry.sol\":3331:3341  msg.sender */\n      caller\n        /* \"contracts/Fvkry.sol\":3314:3342  userLockedAssets[msg.sender] */\n      0xffffffffffffffffffffffffffffffffffffffff\n      and\n      0xffffffffffffffffffffffffffffffffffffffff\n      and\n      dup2\n      mstore\n      0x20\n      add\n      swap1\n      dup2\n      mstore\n      0x20\n      add\n      0x00\n      keccak256\n        /* \"contracts/Fvkry.sol\":3343:3351  _assetId */\n      dup6\n        /* \"contracts/Fvkry.sol\":3314:3352  userLockedAssets[msg.sender][_assetId] */\n      dup2\n      sload\n      dup2\n      lt\n      tag_92\n      jumpi\n      tag_93\n      tag_78\n      jump\t// in\n    tag_93:\n    tag_92:\n      swap1\n      0x00\n      mstore\n      keccak256(0x00, 0x20)\n      swap1\n      0x04\n      mul\n      add\n        /* \"contracts/Fvkry.sol\":3314:3362  userLockedAssets[msg.sender][_assetId].withdrawn */\n      0x03\n      add\n      0x01\n        /* \"contracts/Fvkry.sol\":3314:3369  userLockedAssets[msg.sender][_assetId].withdrawn = true */\n      0x0100\n      exp\n      dup2\n      sload\n      dup2\n      0xff\n      mul\n      not\n      and\n      swap1\n      dup4\n      iszero\n      iszero\n      mul\n      or\n      swap1\n      sstore\n      pop\n        /* \"contracts/Fvkry.sol\":3276:3381  if(updateBalance == 0) {... */\n    tag_91:\n        /* \"contracts/Fvkry.sol\":3470:3483  updateBalance */\n      dup1\n        /* \"contracts/Fvkry.sol\":3422:3438  userLockedAssets */\n      0x02\n        /* \"contracts/Fvkry.sol\":3422:3450  userLockedAssets[msg.sender] */\n      0x00\n        /* \"contracts/Fvkry.sol\":3439:3449  msg.sender */\n      caller\n        /* \"contracts/Fvkry.sol\":3422:3450  userLockedAssets[msg.sender] */\n      0xffffffffffffffffffffffffffffffffffffffff\n      and\n      0xffffffffffffffffffffffffffffffffffffffff\n      and\n      dup2\n      mstore\n      0x20\n      add\n      swap1\n      dup2\n      mstore\n      0x20\n      add\n      0x00\n      keccak256\n        /* \"contracts/Fvkry.sol\":3451:3459  _assetId */\n      dup6\n        /* \"contracts/Fvkry.sol\":3422:3460  userLockedAssets[msg.sender][_assetId] */\n      dup2\n      sload\n      dup2\n      lt\n      tag_95\n      jumpi\n      tag_96\n      tag_78\n      jump\t// in\n    tag_96:\n    tag_95:\n      swap1\n      0x00\n      mstore\n      keccak256(0x00, 0x20)\n      swap1\n      0x04\n      mul\n      add\n        /* \"contracts/Fvkry.sol\":3422:3467  userLockedAssets[msg.sender][_assetId].amount */\n      0x01\n      add\n        /* \"contracts/Fvkry.sol\":3422:3483  userLockedAssets[msg.sender][_assetId].amount = updateBalance */\n      dup2\n      swap1\n      sstore\n      pop\n        /* \"contracts/Fvkry.sol\":3503:3507  lock */\n      dup2\n        /* \"contracts/Fvkry.sol\":3503:3516  lock.isNative */\n      0x03\n      add\n      0x02\n      swap1\n      sload\n      swap1\n      0x0100\n      exp\n      swap1\n      div\n      0xff\n      and\n        /* \"contracts/Fvkry.sol\":3500:3805  if(lock.isNative) {... */\n      iszero\n      tag_98\n      jumpi\n        /* \"contracts/Fvkry.sol\":3563:3575  bool success */\n      0x00\n        /* \"contracts/Fvkry.sol\":3581:3591  msg.sender */\n      caller\n        /* \"contracts/Fvkry.sol\":3581:3596  msg.sender.call */\n      0xffffffffffffffffffffffffffffffffffffffff\n      and\n        /* \"contracts/Fvkry.sol\":3604:3611  _amount */\n      dup5\n        /* \"contracts/Fvkry.sol\":3581:3616  msg.sender.call{value: _amount}(\"\") */\n      mload(0x40)\n      tag_99\n      swap1\n      tag_100\n      jump\t// in\n    tag_99:\n      0x00\n      mload(0x40)\n      dup1\n      dup4\n      sub\n      dup2\n      dup6\n      dup8\n      gas\n      call\n      swap3\n      pop\n      pop\n      pop\n      returndatasize\n      dup1\n      0x00\n      dup2\n      eq\n      tag_103\n      jumpi\n      mload(0x40)\n      swap2\n      pop\n      and(add(returndatasize, 0x3f), not(0x1f))\n      dup3\n      add\n      0x40\n      mstore\n      returndatasize\n      dup3\n      mstore\n      returndatasize\n      0x00\n      0x20\n      dup5\n      add\n      returndatacopy\n      jump(tag_102)\n    tag_103:\n      0x60\n      swap2\n      pop\n    tag_102:\n      pop\n        /* \"contracts/Fvkry.sol\":3562:3616  (bool success, ) = msg.sender.call{value: _amount}(\"\") */\n      pop\n      swap1\n      pop\n        /* \"contracts/Fvkry.sol\":3639:3646  success */\n      dup1\n        /* \"contracts/Fvkry.sol\":3631:3670  require(success, \"ETH transfer failed\") */\n      tag_104\n      jumpi\n      mload(0x40)\n      0x08c379a000000000000000000000000000000000000000000000000000000000\n      dup2\n      mstore\n      0x04\n      add\n      tag_105\n      swap1\n      tag_106\n      jump\t// in\n    tag_105:\n      mload(0x40)\n      dup1\n      swap2\n      sub\n      swap1\n      revert\n    tag_104:\n        /* \"contracts/Fvkry.sol\":3518:3682  {... */\n      pop\n        /* \"contracts/Fvkry.sol\":3500:3805  if(lock.isNative) {... */\n      jump(tag_107)\n    tag_98:\n        /* \"contracts/Fvkry.sol\":3741:3793  IERC20(lock.token).safeTransfer(msg.sender, _amount) */\n      tag_108\n        /* \"contracts/Fvkry.sol\":3773:3783  msg.sender */\n      caller\n        /* \"contracts/Fvkry.sol\":3785:3792  _amount */\n      dup5\n        /* \"contracts/Fvkry.sol\":3748:3752  lock */\n      dup5\n        /* \"contracts/Fvkry.sol\":3748:3758  lock.token */\n      0x00\n      add\n      0x00\n      swap1\n      sload\n      swap1\n      0x0100\n      exp\n      swap1\n      div\n      0xffffffffffffffffffffffffffffffffffffffff\n      and\n        /* \"contracts/Fvkry.sol\":3741:3772  IERC20(lock.token).safeTransfer */\n      0xffffffffffffffffffffffffffffffffffffffff\n      and\n      tag_109\n      swap1\n        /* \"contracts/Fvkry.sol\":3741:3793  IERC20(lock.token).safeTransfer(msg.sender, _amount) */\n      swap3\n      swap2\n      swap1\n      0xffffffff\n      and\n      jump\t// in\n    tag_108:\n        /* \"contracts/Fvkry.sol\":3500:3805  if(lock.isNative) {... */\n    tag_107:\n        /* \"contracts/Fvkry.sol\":3846:3850  lock */\n      dup2\n        /* \"contracts/Fvkry.sol\":3846:3856  lock.token */\n      0x00\n      add\n      0x00\n      swap1\n      sload\n      swap1\n      0x0100\n      exp\n      swap1\n      div\n      0xffffffffffffffffffffffffffffffffffffffff\n      and\n        /* \"contracts/Fvkry.sol\":3822:3880  AssetTransfered(address(lock.token), _amount , lock.vault) */\n      0xffffffffffffffffffffffffffffffffffffffff\n      and\n      0xc609bb1b9c1bfb64d61dbdff01ddbdc74ec1a868f724ceb4991148740c7e423c\n        /* \"contracts/Fvkry.sol\":3859:3866  _amount */\n      dup5\n        /* \"contracts/Fvkry.sol\":3869:3873  lock */\n      dup5\n        /* \"contracts/Fvkry.sol\":3869:3879  lock.vault */\n      0x03\n      add\n      0x00\n      swap1\n      sload\n      swap1\n      0x0100\n      exp\n      swap1\n      div\n      0xff\n      and\n        /* \"contracts/Fvkry.sol\":3822:3880  AssetTransfered(address(lock.token), _amount , lock.vault) */\n      mload(0x40)\n      tag_110\n      swap3\n      swap2\n      swap1\n      tag_111\n      jump\t// in\n    tag_110:\n      mload(0x40)\n      dup1\n      swap2\n      sub\n      swap1\n      log2\n        /* \"contracts/Fvkry.sol\":2751:3888  {... */\n      pop\n      pop\n        /* \"@openzeppelin/contracts/utils/ReentrancyGuard.sol\":2542:2562  _nonReentrantAfter() */\n      tag_112\n        /* \"@openzeppelin/contracts/utils/ReentrancyGuard.sol\":2542:2560  _nonReentrantAfter */\n      tag_113\n        /* \"@openzeppelin/contracts/utils/ReentrancyGuard.sol\":2542:2562  _nonReentrantAfter() */\n      jump\t// in\n    tag_112:\n        /* \"contracts/Fvkry.sol\":2670:3888  function transferAsset(uint256 _assetId, uint256 _amount) external  nonReentrant {... */\n      pop\n      pop\n      jump\t// out\n        /* \"contracts/Fvkry.sol\":888:1562  function lockETH(uint8 _vault, uint256 _lockperiod) external payable nonReentrant {... */\n    tag_28:\n        /* \"@openzeppelin/contracts/utils/ReentrancyGuard.sol\":2500:2521  _nonReentrantBefore() */\n      tag_115\n        /* \"@openzeppelin/contracts/utils/ReentrancyGuard.sol\":2500:2519  _nonReentrantBefore */\n      tag_71\n        /* \"@openzeppelin/contracts/utils/ReentrancyGuard.sol\":2500:2521  _nonReentrantBefore() */\n      jump\t// in\n    tag_115:\n        /* \"contracts/Fvkry.sol\":1001:1002  0 */\n      0x00\n        /* \"contracts/Fvkry.sol\":989:998  msg.value */\n      callvalue\n        /* \"contracts/Fvkry.sol\":989:1002  msg.value > 0 */\n      gt\n        /* \"contracts/Fvkry.sol\":981:1046  require(msg.value > 0, \"ETH to lock must a value greater than 0\") */\n      tag_117\n      jumpi\n      mload(0x40)\n      0x08c379a000000000000000000000000000000000000000000000000000000000\n      dup2\n      mstore\n      0x04\n      add\n      tag_118\n      swap1\n      tag_119\n      jump\t// in\n    tag_118:\n      mload(0x40)\n      dup1\n      swap2\n      sub\n      swap1\n      revert\n    tag_117:\n        /* \"contracts/Fvkry.sol\":1079:1080  0 */\n      0x00\n        /* \"contracts/Fvkry.sol\":1065:1076  _lockperiod */\n      dup2\n        /* \"contracts/Fvkry.sol\":1065:1080  _lockperiod > 0 */\n      gt\n        /* \"contracts/Fvkry.sol\":1057:1125  require(_lockperiod > 0, \"The lockperiod must be greater then zero\") */\n      tag_120\n      jumpi\n      mload(0x40)\n      0x08c379a000000000000000000000000000000000000000000000000000000000\n      dup2\n      mstore\n      0x04\n      add\n      tag_121\n      swap1\n      tag_122\n      jump\t// in\n    tag_121:\n      mload(0x40)\n      dup1\n      swap2\n      sub\n      swap1\n      revert\n    tag_120:\n        /* \"contracts/Fvkry.sol\":1176:1192  userLockedAssets */\n      0x02\n        /* \"contracts/Fvkry.sol\":1176:1204  userLockedAssets[msg.sender] */\n      0x00\n        /* \"contracts/Fvkry.sol\":1193:1203  msg.sender */\n      caller\n        /* \"contracts/Fvkry.sol\":1176:1204  userLockedAssets[msg.sender] */\n      0xffffffffffffffffffffffffffffffffffffffff\n      and\n      0xffffffffffffffffffffffffffffffffffffffff\n      and\n      dup2\n      mstore\n      0x20\n      add\n      swap1\n      dup2\n      mstore\n      0x20\n      add\n      0x00\n      keccak256\n        /* \"contracts/Fvkry.sol\":1210:1448  Lock({... */\n      mload(0x40)\n      dup1\n      0xc0\n      add\n      0x40\n      mstore\n      dup1\n        /* \"contracts/Fvkry.sol\":1245:1246  0 */\n      0x00\n        /* \"contracts/Fvkry.sol\":1210:1448  Lock({... */\n      0xffffffffffffffffffffffffffffffffffffffff\n      and\n      dup2\n      mstore\n      0x20\n      add\n        /* \"contracts/Fvkry.sol\":1271:1280  msg.value */\n      callvalue\n        /* \"contracts/Fvkry.sol\":1210:1448  Lock({... */\n      dup2\n      mstore\n      0x20\n      add\n        /* \"contracts/Fvkry.sol\":1328:1339  _lockperiod */\n      dup4\n        /* \"contracts/Fvkry.sol\":1310:1325  block.timestamp */\n      timestamp\n        /* \"contracts/Fvkry.sol\":1310:1339  block.timestamp + _lockperiod */\n      tag_123\n      swap2\n      swap1\n      tag_124\n      jump\t// in\n    tag_123:\n        /* \"contracts/Fvkry.sol\":1210:1448  Lock({... */\n      dup2\n      mstore\n      0x20\n      add\n        /* \"contracts/Fvkry.sol\":1361:1367  _vault */\n      dup5\n        /* \"contracts/Fvkry.sol\":1210:1448  Lock({... */\n      0xff\n      and\n      dup2\n      mstore\n      0x20\n      add\n        /* \"contracts/Fvkry.sol\":1397:1402  false */\n      0x00\n        /* \"contracts/Fvkry.sol\":1210:1448  Lock({... */\n      iszero\n      iszero\n      dup2\n      mstore\n      0x20\n      add\n        /* \"contracts/Fvkry.sol\":1430:1434  true */\n      0x01\n        /* \"contracts/Fvkry.sol\":1210:1448  Lock({... */\n      iszero\n      iszero\n      dup2\n      mstore\n      pop\n        /* \"contracts/Fvkry.sol\":1176:1449  userLockedAssets[msg.sender].push(Lock({... */\n      swap1\n      dup1\n      0x01\n      dup2\n      sload\n      add\n      dup1\n      dup3\n      sstore\n      dup1\n      swap2\n      pop\n      pop\n      0x01\n      swap1\n      sub\n      swap1\n      0x00\n      mstore\n      keccak256(0x00, 0x20)\n      swap1\n      0x04\n      mul\n      add\n      0x00\n      swap1\n      swap2\n      swap1\n      swap2\n      swap1\n      swap2\n      pop\n      0x00\n      dup3\n      add\n      mload\n      dup2\n      0x00\n      add\n      exp(0x0100, 0x00)\n      dup2\n      sload\n      dup2\n      0xffffffffffffffffffffffffffffffffffffffff\n      mul\n      not\n      and\n      swap1\n      dup4\n      0xffffffffffffffffffffffffffffffffffffffff\n      and\n      mul\n      or\n      swap1\n      sstore\n      pop\n      0x20\n      dup3\n      add\n      mload\n      dup2\n      0x01\n      add\n      sstore\n      0x40\n      dup3\n      add\n      mload\n      dup2\n      0x02\n      add\n      sstore\n      0x60\n      dup3\n      add\n      mload\n      dup2\n      0x03\n      add\n      exp(0x0100, 0x00)\n      dup2\n      sload\n      dup2\n      0xff\n      mul\n      not\n      and\n      swap1\n      dup4\n      0xff\n      and\n      mul\n      or\n      swap1\n      sstore\n      pop\n      0x80\n      dup3\n      add\n      mload\n      dup2\n      0x03\n      add\n      exp(0x0100, 0x01)\n      dup2\n      sload\n      dup2\n      0xff\n      mul\n      not\n      and\n      swap1\n      dup4\n      iszero\n      iszero\n      mul\n      or\n      swap1\n      sstore\n      pop\n      0xa0\n      dup3\n      add\n      mload\n      dup2\n      0x03\n      add\n      exp(0x0100, 0x02)\n      dup2\n      sload\n      dup2\n      0xff\n      mul\n      not\n      and\n      swap1\n      dup4\n      iszero\n      iszero\n      mul\n      or\n      swap1\n      sstore\n      pop\n      pop\n      pop\n        /* \"contracts/Fvkry.sol\":1501:1502  0 */\n      0x00\n        /* \"contracts/Fvkry.sol\":1481:1554  AssetLocked(address(0), msg.value, _vault, block.timestamp + _lockperiod) */\n      0xffffffffffffffffffffffffffffffffffffffff\n      and\n      0x93e2e96397ee6091fadabbe37102770c2ed73784ac2b17d1de3d8afcb368ea41\n        /* \"contracts/Fvkry.sol\":1505:1514  msg.value */\n      callvalue\n        /* \"contracts/Fvkry.sol\":1516:1522  _vault */\n      dup5\n        /* \"contracts/Fvkry.sol\":1542:1553  _lockperiod */\n      dup5\n        /* \"contracts/Fvkry.sol\":1524:1539  block.timestamp */\n      timestamp\n        /* \"contracts/Fvkry.sol\":1524:1553  block.timestamp + _lockperiod */\n      tag_126\n      swap2\n      swap1\n      tag_124\n      jump\t// in\n    tag_126:\n        /* \"contracts/Fvkry.sol\":1481:1554  AssetLocked(address(0), msg.value, _vault, block.timestamp + _lockperiod) */\n      mload(0x40)\n      tag_127\n      swap4\n      swap3\n      swap2\n      swap1\n      tag_128\n      jump\t// in\n    tag_127:\n      mload(0x40)\n      dup1\n      swap2\n      sub\n      swap1\n      log2\n        /* \"@openzeppelin/contracts/utils/ReentrancyGuard.sol\":2542:2562  _nonReentrantAfter() */\n      tag_129\n        /* \"@openzeppelin/contracts/utils/ReentrancyGuard.sol\":2542:2560  _nonReentrantAfter */\n      tag_113\n        /* \"@openzeppelin/contracts/utils/ReentrancyGuard.sol\":2542:2562  _nonReentrantAfter() */\n      jump\t// in\n    tag_129:\n        /* \"contracts/Fvkry.sol\":888:1562  function lockETH(uint8 _vault, uint256 _lockperiod) external payable nonReentrant {... */\n      pop\n      pop\n      jump\t// out\n        /* \"contracts/Fvkry.sol\":1595:2639  function lockToken (IERC20 _token, uint256 _amount, uint8 _vault, uint256 _lockperiod) external nonReentrant {... */\n    tag_33:\n        /* \"@openzeppelin/contracts/utils/ReentrancyGuard.sol\":2500:2521  _nonReentrantBefore() */\n      tag_131\n        /* \"@openzeppelin/contracts/utils/ReentrancyGuard.sol\":2500:2519  _nonReentrantBefore */\n      tag_71\n        /* \"@openzeppelin/contracts/utils/ReentrancyGuard.sol\":2500:2521  _nonReentrantBefore() */\n      jump\t// in\n    tag_131:\n        /* \"contracts/Fvkry.sol\":1750:1751  0 */\n      0x00\n        /* \"contracts/Fvkry.sol\":1723:1752  address(_token) != address(0) */\n      0xffffffffffffffffffffffffffffffffffffffff\n      and\n        /* \"contracts/Fvkry.sol\":1731:1737  _token */\n      dup5\n        /* \"contracts/Fvkry.sol\":1723:1752  address(_token) != address(0) */\n      0xffffffffffffffffffffffffffffffffffffffff\n      and\n      sub\n        /* \"contracts/Fvkry.sol\":1715:1791  require(address(_token) != address(0), \"Must provide a valid token address\") */\n      tag_133\n      jumpi\n      mload(0x40)\n      0x08c379a000000000000000000000000000000000000000000000000000000000\n      dup2\n      mstore\n      0x04\n      add\n      tag_134\n      swap1\n      tag_135\n      jump\t// in\n    tag_134:\n      mload(0x40)\n      dup1\n      swap2\n      sub\n      swap1\n      revert\n    tag_133:\n        /* \"contracts/Fvkry.sol\":1820:1821  0 */\n      0x00\n        /* \"contracts/Fvkry.sol\":1810:1817  _amount */\n      dup4\n        /* \"contracts/Fvkry.sol\":1810:1821  _amount > 0 */\n      gt\n        /* \"contracts/Fvkry.sol\":1802:1864  require(_amount > 0, \"Token amount must be greater then zero\") */\n      tag_136\n      jumpi\n      mload(0x40)\n      0x08c379a000000000000000000000000000000000000000000000000000000000\n      dup2\n      mstore\n      0x04\n      add\n      tag_137\n      swap1\n      tag_138\n      jump\t// in\n    tag_137:\n      mload(0x40)\n      dup1\n      swap2\n      sub\n      swap1\n      revert\n    tag_136:\n        /* \"contracts/Fvkry.sol\":1897:1898  0 */\n      0x00\n        /* \"contracts/Fvkry.sol\":1883:1894  _lockperiod */\n      dup2\n        /* \"contracts/Fvkry.sol\":1883:1898  _lockperiod > 0 */\n      gt\n        /* \"contracts/Fvkry.sol\":1875:1944  require(_lockperiod > 0, \"The lock period must be greater then zero\") */\n      tag_139\n      jumpi\n      mload(0x40)\n      0x08c379a000000000000000000000000000000000000000000000000000000000\n      dup2\n      mstore\n      0x04\n      add\n      tag_140\n      swap1\n      tag_141\n      jump\t// in\n    tag_140:\n      mload(0x40)\n      dup1\n      swap2\n      sub\n      swap1\n      revert\n    tag_139:\n        /* \"contracts/Fvkry.sol\":1957:1978  uint256 _tokenBalance */\n      0x00\n        /* \"contracts/Fvkry.sol\":1981:1987  _token */\n      dup5\n        /* \"contracts/Fvkry.sol\":1981:1997  _token.balanceOf */\n      0xffffffffffffffffffffffffffffffffffffffff\n      and\n      0x70a08231\n        /* \"contracts/Fvkry.sol\":1998:2008  msg.sender */\n      caller\n        /* \"contracts/Fvkry.sol\":1981:2009  _token.balanceOf(msg.sender) */\n      mload(0x40)\n      dup3\n      0xffffffff\n      and\n      0xe0\n      shl\n      dup2\n      mstore\n      0x04\n      add\n      tag_142\n      swap2\n      swap1\n      tag_45\n      jump\t// in\n    tag_142:\n      0x20\n      mload(0x40)\n      dup1\n      dup4\n      sub\n      dup2\n      dup7\n      gas\n      staticcall\n      iszero\n      dup1\n      iszero\n      tag_144\n      jumpi\n      returndatasize\n      0x00\n      dup1\n      returndatacopy\n      revert(0x00, returndatasize)\n    tag_144:\n      pop\n      pop\n      pop\n      pop\n      mload(0x40)\n      returndatasize\n      not(0x1f)\n      0x1f\n      dup3\n      add\n      and\n      dup3\n      add\n      dup1\n      0x40\n      mstore\n      pop\n      dup2\n      add\n      swap1\n      tag_145\n      swap2\n      swap1\n      tag_68\n      jump\t// in\n    tag_145:\n        /* \"contracts/Fvkry.sol\":1957:2009  uint256 _tokenBalance = _token.balanceOf(msg.sender) */\n      swap1\n      pop\n        /* \"contracts/Fvkry.sol\":2040:2053  _tokenBalance */\n      dup1\n        /* \"contracts/Fvkry.sol\":2029:2036  _amount */\n      dup5\n        /* \"contracts/Fvkry.sol\":2029:2053  _amount <= _tokenBalance */\n      gt\n      iszero\n        /* \"contracts/Fvkry.sol\":2020:2083  require (_amount <= _tokenBalance, \"Not enough tokens to lock\") */\n      tag_146\n      jumpi\n      mload(0x40)\n      0x08c379a000000000000000000000000000000000000000000000000000000000\n      dup2\n      mstore\n      0x04\n      add\n      tag_147\n      swap1\n      tag_148\n      jump\t// in\n    tag_147:\n      mload(0x40)\n      dup1\n      swap2\n      sub\n      swap1\n      revert\n    tag_146:\n        /* \"contracts/Fvkry.sol\":2146:2205  _token.safeTransferFrom(msg.sender, address(this), _amount) */\n      tag_149\n        /* \"contracts/Fvkry.sol\":2170:2180  msg.sender */\n      caller\n        /* \"contracts/Fvkry.sol\":2190:2194  this */\n      address\n        /* \"contracts/Fvkry.sol\":2197:2204  _amount */\n      dup7\n        /* \"contracts/Fvkry.sol\":2146:2152  _token */\n      dup9\n        /* \"contracts/Fvkry.sol\":2146:2169  _token.safeTransferFrom */\n      0xffffffffffffffffffffffffffffffffffffffff\n      and\n      tag_150\n      swap1\n        /* \"contracts/Fvkry.sol\":2146:2205  _token.safeTransferFrom(msg.sender, address(this), _amount) */\n      swap4\n      swap3\n      swap2\n      swap1\n      0xffffffff\n      and\n      jump\t// in\n    tag_149:\n        /* \"contracts/Fvkry.sol\":2260:2276  userLockedAssets */\n      0x02\n        /* \"contracts/Fvkry.sol\":2260:2288  userLockedAssets[msg.sender] */\n      0x00\n        /* \"contracts/Fvkry.sol\":2277:2287  msg.sender */\n      caller\n        /* \"contracts/Fvkry.sol\":2260:2288  userLockedAssets[msg.sender] */\n      0xffffffffffffffffffffffffffffffffffffffff\n      and\n      0xffffffffffffffffffffffffffffffffffffffff\n      and\n      dup2\n      mstore\n      0x20\n      add\n      swap1\n      dup2\n      mstore\n      0x20\n      add\n      0x00\n      keccak256\n        /* \"contracts/Fvkry.sol\":2294:2536  Lock({... */\n      mload(0x40)\n      dup1\n      0xc0\n      add\n      0x40\n      mstore\n      dup1\n        /* \"contracts/Fvkry.sol\":2329:2335  _token */\n      dup8\n        /* \"contracts/Fvkry.sol\":2294:2536  Lock({... */\n      0xffffffffffffffffffffffffffffffffffffffff\n      and\n      dup2\n      mstore\n      0x20\n      add\n        /* \"contracts/Fvkry.sol\":2360:2367  _amount */\n      dup7\n        /* \"contracts/Fvkry.sol\":2294:2536  Lock({... */\n      dup2\n      mstore\n      0x20\n      add\n        /* \"contracts/Fvkry.sol\":2415:2426  _lockperiod */\n      dup5\n        /* \"contracts/Fvkry.sol\":2397:2412  block.timestamp */\n      timestamp\n        /* \"contracts/Fvkry.sol\":2397:2426  block.timestamp + _lockperiod */\n      tag_151\n      swap2\n      swap1\n      tag_124\n      jump\t// in\n    tag_151:\n        /* \"contracts/Fvkry.sol\":2294:2536  Lock({... */\n      dup2\n      mstore\n      0x20\n      add\n        /* \"contracts/Fvkry.sol\":2448:2454  _vault */\n      dup6\n        /* \"contracts/Fvkry.sol\":2294:2536  Lock({... */\n      0xff\n      and\n      dup2\n      mstore\n      0x20\n      add\n        /* \"contracts/Fvkry.sol\":2484:2489  false */\n      0x00\n        /* \"contracts/Fvkry.sol\":2294:2536  Lock({... */\n      iszero\n      iszero\n      dup2\n      mstore\n      0x20\n      add\n        /* \"contracts/Fvkry.sol\":2517:2522  false */\n      0x00\n        /* \"contracts/Fvkry.sol\":2294:2536  Lock({... */\n      iszero\n      iszero\n      dup2\n      mstore\n      pop\n        /* \"contracts/Fvkry.sol\":2260:2537  userLockedAssets[msg.sender].push(Lock({... */\n      swap1\n      dup1\n      0x01\n      dup2\n      sload\n      add\n      dup1\n      dup3\n      sstore\n      dup1\n      swap2\n      pop\n      pop\n      0x01\n      swap1\n      sub\n      swap1\n      0x00\n      mstore\n      keccak256(0x00, 0x20)\n      swap1\n      0x04\n      mul\n      add\n      0x00\n      swap1\n      swap2\n      swap1\n      swap2\n      swap1\n      swap2\n      pop\n      0x00\n      dup3\n      add\n      mload\n      dup2\n      0x00\n      add\n      exp(0x0100, 0x00)\n      dup2\n      sload\n      dup2\n      0xffffffffffffffffffffffffffffffffffffffff\n      mul\n      not\n      and\n      swap1\n      dup4\n      0xffffffffffffffffffffffffffffffffffffffff\n      and\n      mul\n      or\n      swap1\n      sstore\n      pop\n      0x20\n      dup3\n      add\n      mload\n      dup2\n      0x01\n      add\n      sstore\n      0x40\n      dup3\n      add\n      mload\n      dup2\n      0x02\n      add\n      sstore\n      0x60\n      dup3\n      add\n      mload\n      dup2\n      0x03\n      add\n      exp(0x0100, 0x00)\n      dup2\n      sload\n      dup2\n      0xff\n      mul\n      not\n      and\n      swap1\n      dup4\n      0xff\n      and\n      mul\n      or\n      swap1\n      sstore\n      pop\n      0x80\n      dup3\n      add\n      mload\n      dup2\n      0x03\n      add\n      exp(0x0100, 0x01)\n      dup2\n      sload\n      dup2\n      0xff\n      mul\n      not\n      and\n      swap1\n      dup4\n      iszero\n      iszero\n      mul\n      or\n      swap1\n      sstore\n      pop\n      0xa0\n      dup3\n      add\n      mload\n      dup2\n      0x03\n      add\n      exp(0x0100, 0x02)\n      dup2\n      sload\n      dup2\n      0xff\n      mul\n      not\n      and\n      swap1\n      dup4\n      iszero\n      iszero\n      mul\n      or\n      swap1\n      sstore\n      pop\n      pop\n      pop\n        /* \"contracts/Fvkry.sol\":2575:2581  _token */\n      dup5\n        /* \"contracts/Fvkry.sol\":2555:2631  AssetLocked(address(_token), _amount, _vault, block.timestamp + _lockperiod) */\n      0xffffffffffffffffffffffffffffffffffffffff\n      and\n      0x93e2e96397ee6091fadabbe37102770c2ed73784ac2b17d1de3d8afcb368ea41\n        /* \"contracts/Fvkry.sol\":2584:2591  _amount */\n      dup6\n        /* \"contracts/Fvkry.sol\":2593:2599  _vault */\n      dup6\n        /* \"contracts/Fvkry.sol\":2619:2630  _lockperiod */\n      dup6\n        /* \"contracts/Fvkry.sol\":2601:2616  block.timestamp */\n      timestamp\n        /* \"contracts/Fvkry.sol\":2601:2630  block.timestamp + _lockperiod */\n      tag_153\n      swap2\n      swap1\n      tag_124\n      jump\t// in\n    tag_153:\n        /* \"contracts/Fvkry.sol\":2555:2631  AssetLocked(address(_token), _amount, _vault, block.timestamp + _lockperiod) */\n      mload(0x40)\n      tag_154\n      swap4\n      swap3\n      swap2\n      swap1\n      tag_128\n      jump\t// in\n    tag_154:\n      mload(0x40)\n      dup1\n      swap2\n      sub\n      swap1\n      log2\n        /* \"contracts/Fvkry.sol\":1704:2639  {... */\n      pop\n        /* \"@openzeppelin/contracts/utils/ReentrancyGuard.sol\":2542:2562  _nonReentrantAfter() */\n      tag_155\n        /* \"@openzeppelin/contracts/utils/ReentrancyGuard.sol\":2542:2560  _nonReentrantAfter */\n      tag_113\n        /* \"@openzeppelin/contracts/utils/ReentrancyGuard.sol\":2542:2562  _nonReentrantAfter() */\n      jump\t// in\n    tag_155:\n        /* \"contracts/Fvkry.sol\":1595:2639  function lockToken (IERC20 _token, uint256 _amount, uint8 _vault, uint256 _lockperiod) external nonReentrant {... */\n      pop\n      pop\n      pop\n      pop\n      jump\t// out\n        /* \"@openzeppelin/contracts/access/Ownable.sol\":2293:2394  function renounceOwnership() public virtual onlyOwner {... */\n    tag_36:\n        /* \"@openzeppelin/contracts/access/Ownable.sol\":1531:1544  _checkOwner() */\n      tag_157\n        /* \"@openzeppelin/contracts/access/Ownable.sol\":1531:1542  _checkOwner */\n      tag_158\n        /* \"@openzeppelin/contracts/access/Ownable.sol\":1531:1544  _checkOwner() */\n      jump\t// in\n    tag_157:\n        /* \"@openzeppelin/contracts/access/Ownable.sol\":2357:2387  _transferOwnership(address(0)) */\n      tag_160\n        /* \"@openzeppelin/contracts/access/Ownable.sol\":2384:2385  0 */\n      0x00\n        /* \"@openzeppelin/contracts/access/Ownable.sol\":2357:2375  _transferOwnership */\n      tag_161\n        /* \"@openzeppelin/contracts/access/Ownable.sol\":2357:2387  _transferOwnership(address(0)) */\n      jump\t// in\n    tag_160:\n        /* \"@openzeppelin/contracts/access/Ownable.sol\":2293:2394  function renounceOwnership() public virtual onlyOwner {... */\n      jump\t// out\n        /* \"contracts/Fvkry.sol\":4065:4177  function getContractETHBalance() external view returns (uint256) {... */\n    tag_39:\n        /* \"contracts/Fvkry.sol\":4121:4128  uint256 */\n      0x00\n        /* \"contracts/Fvkry.sol\":4148:4169  address(this).balance */\n      selfbalance\n        /* \"contracts/Fvkry.sol\":4141:4169  return address(this).balance */\n      swap1\n      pop\n        /* \"contracts/Fvkry.sol\":4065:4177  function getContractETHBalance() external view returns (uint256) {... */\n      swap1\n      jump\t// out\n        /* \"@openzeppelin/contracts/access/Ownable.sol\":1638:1723  function owner() public view virtual returns (address) {... */\n    tag_43:\n        /* \"@openzeppelin/contracts/access/Ownable.sol\":1684:1691  address */\n      0x00\n        /* \"@openzeppelin/contracts/access/Ownable.sol\":1710:1716  _owner */\n      dup1\n      0x00\n      swap1\n      sload\n      swap1\n      0x0100\n      exp\n      swap1\n      div\n      0xffffffffffffffffffffffffffffffffffffffff\n      and\n        /* \"@openzeppelin/contracts/access/Ownable.sol\":1703:1716  return _owner */\n      swap1\n      pop\n        /* \"@openzeppelin/contracts/access/Ownable.sol\":1638:1723  function owner() public view virtual returns (address) {... */\n      swap1\n      jump\t// out\n        /* \"contracts/Fvkry.sol\":572:624  mapping  (address => Lock[]) public userLockedAssets */\n    tag_50:\n      mstore(0x20, 0x02)\n      dup2\n      0x00\n      mstore\n      keccak256(0x00, 0x40)\n      dup2\n      dup2\n      sload\n      dup2\n      lt\n      tag_164\n      jumpi\n      0x00\n      dup1\n      revert\n    tag_164:\n      swap1\n      0x00\n      mstore\n      keccak256(0x00, 0x20)\n      swap1\n      0x04\n      mul\n      add\n      0x00\n      swap2\n      pop\n      swap2\n      pop\n      pop\n      dup1\n      0x00\n      add\n      0x00\n      swap1\n      sload\n      swap1\n      0x0100\n      exp\n      swap1\n      div\n      0xffffffffffffffffffffffffffffffffffffffff\n      and\n      swap1\n      dup1\n      0x01\n      add\n      sload\n      swap1\n      dup1\n      0x02\n      add\n      sload\n      swap1\n      dup1\n      0x03\n      add\n      0x00\n      swap1\n      sload\n      swap1\n      0x0100\n      exp\n      swap1\n      div\n      0xff\n      and\n      swap1\n      dup1\n      0x03\n      add\n      0x01\n      swap1\n      sload\n      swap1\n      0x0100\n      exp\n      swap1\n      div\n      0xff\n      and\n      swap1\n      dup1\n      0x03\n      add\n      0x02\n      swap1\n      sload\n      swap1\n      0x0100\n      exp\n      swap1\n      div\n      0xff\n      and\n      swap1\n      pop\n      dup7\n      jump\t// out\n        /* \"@openzeppelin/contracts/access/Ownable.sol\":2543:2758  function transferOwnership(address newOwner) public virtual onlyOwner {... */\n    tag_57:\n        /* \"@openzeppelin/contracts/access/Ownable.sol\":1531:1544  _checkOwner() */\n      tag_167\n        /* \"@openzeppelin/contracts/access/Ownable.sol\":1531:1542  _checkOwner */\n      tag_158\n        /* \"@openzeppelin/contracts/access/Ownable.sol\":1531:1544  _checkOwner() */\n      jump\t// in\n    tag_167:\n        /* \"@openzeppelin/contracts/access/Ownable.sol\":2647:2648  0 */\n      0x00\n        /* \"@openzeppelin/contracts/access/Ownable.sol\":2627:2649  newOwner == address(0) */\n      0xffffffffffffffffffffffffffffffffffffffff\n      and\n        /* \"@openzeppelin/contracts/access/Ownable.sol\":2627:2635  newOwner */\n      dup2\n        /* \"@openzeppelin/contracts/access/Ownable.sol\":2627:2649  newOwner == address(0) */\n      0xffffffffffffffffffffffffffffffffffffffff\n      and\n      sub\n        /* \"@openzeppelin/contracts/access/Ownable.sol\":2623:2714  if (newOwner == address(0)) {... */\n      tag_169\n      jumpi\n        /* \"@openzeppelin/contracts/access/Ownable.sol\":2700:2701  0 */\n      0x00\n        /* \"@openzeppelin/contracts/access/Ownable.sol\":2672:2703  OwnableInvalidOwner(address(0)) */\n      mload(0x40)\n      0x1e4fbdf700000000000000000000000000000000000000000000000000000000\n      dup2\n      mstore\n      0x04\n      add\n      tag_170\n      swap2\n      swap1\n      tag_45\n      jump\t// in\n    tag_170:\n      mload(0x40)\n      dup1\n      swap2\n      sub\n      swap1\n      revert\n        /* \"@openzeppelin/contracts/access/Ownable.sol\":2623:2714  if (newOwner == address(0)) {... */\n    tag_169:\n        /* \"@openzeppelin/contracts/access/Ownable.sol\":2723:2751  _transferOwnership(newOwner) */\n      tag_171\n        /* \"@openzeppelin/contracts/access/Ownable.sol\":2742:2750  newOwner */\n      dup2\n        /* \"@openzeppelin/contracts/access/Ownable.sol\":2723:2741  _transferOwnership */\n      tag_161\n        /* \"@openzeppelin/contracts/access/Ownable.sol\":2723:2751  _transferOwnership(newOwner) */\n      jump\t// in\n    tag_171:\n        /* \"@openzeppelin/contracts/access/Ownable.sol\":2543:2758  function transferOwnership(address newOwner) public virtual onlyOwner {... */\n      pop\n      jump\t// out\n        /* \"contracts/Fvkry.sol\":4215:4329  function getUserLocks() public view returns (Lock[] memory) {... */\n    tag_60:\n        /* \"contracts/Fvkry.sol\":4260:4273  Lock[] memory */\n      0x60\n        /* \"contracts/Fvkry.sol\":4293:4309  userLockedAssets */\n      0x02\n        /* \"contracts/Fvkry.sol\":4293:4321  userLockedAssets[msg.sender] */\n      0x00\n        /* \"contracts/Fvkry.sol\":4310:4320  msg.sender */\n      caller\n        /* \"contracts/Fvkry.sol\":4293:4321  userLockedAssets[msg.sender] */\n      0xffffffffffffffffffffffffffffffffffffffff\n      and\n      0xffffffffffffffffffffffffffffffffffffffff\n      and\n      dup2\n      mstore\n      0x20\n      add\n      swap1\n      dup2\n      mstore\n      0x20\n      add\n      0x00\n      keccak256\n        /* \"contracts/Fvkry.sol\":4286:4321  return userLockedAssets[msg.sender] */\n      dup1\n      sload\n      dup1\n      0x20\n      mul\n      0x20\n      add\n      mload(0x40)\n      swap1\n      dup2\n      add\n      0x40\n      mstore\n      dup1\n      swap3\n      swap2\n      swap1\n      dup2\n      dup2\n      mstore\n      0x20\n      add\n      0x00\n      swap1\n    tag_173:\n      dup3\n      dup3\n      lt\n      iszero\n      tag_174\n      jumpi\n      dup4\n      dup3\n      swap1\n      0x00\n      mstore\n      keccak256(0x00, 0x20)\n      swap1\n      0x04\n      mul\n      add\n      mload(0x40)\n      dup1\n      0xc0\n      add\n      0x40\n      mstore\n      swap1\n      dup2\n      0x00\n      dup3\n      add\n      0x00\n      swap1\n      sload\n      swap1\n      0x0100\n      exp\n      swap1\n      div\n      0xffffffffffffffffffffffffffffffffffffffff\n      and\n      0xffffffffffffffffffffffffffffffffffffffff\n      and\n      0xffffffffffffffffffffffffffffffffffffffff\n      and\n      dup2\n      mstore\n      0x20\n      add\n      0x01\n      dup3\n      add\n      sload\n      dup2\n      mstore\n      0x20\n      add\n      0x02\n      dup3\n      add\n      sload\n      dup2\n      mstore\n      0x20\n      add\n      0x03\n      dup3\n      add\n      0x00\n      swap1\n      sload\n      swap1\n      0x0100\n      exp\n      swap1\n      div\n      0xff\n      and\n      0xff\n      and\n      0xff\n      and\n      dup2\n      mstore\n      0x20\n      add\n      0x03\n      dup3\n      add\n      0x01\n      swap1\n      sload\n      swap1\n      0x0100\n      exp\n      swap1\n      div\n      0xff\n      and\n      iszero\n      iszero\n      iszero\n      iszero\n      dup2\n      mstore\n      0x20\n      add\n      0x03\n      dup3\n      add\n      0x02\n      swap1\n      sload\n      swap1\n      0x0100\n      exp\n      swap1\n      div\n      0xff\n      and\n      iszero\n      iszero\n      iszero\n      iszero\n      dup2\n      mstore\n      pop\n      pop\n      dup2\n      mstore\n      0x20\n      add\n      swap1\n      0x01\n      add\n      swap1\n      jump(tag_173)\n    tag_174:\n      pop\n      pop\n      pop\n      pop\n      swap1\n      pop\n        /* \"contracts/Fvkry.sol\":4215:4329  function getUserLocks() public view returns (Lock[] memory) {... */\n      swap1\n      jump\t// out\n        /* \"@openzeppelin/contracts/utils/ReentrancyGuard.sol\":2575:2882  function _nonReentrantBefore() private {... */\n    tag_71:\n        /* \"@openzeppelin/contracts/utils/ReentrancyGuard.sol\":1899:1900  2 */\n      0x02\n        /* \"@openzeppelin/contracts/utils/ReentrancyGuard.sol\":2702:2709  _status */\n      sload(0x01)\n        /* \"@openzeppelin/contracts/utils/ReentrancyGuard.sol\":2702:2720  _status == ENTERED */\n      sub\n        /* \"@openzeppelin/contracts/utils/ReentrancyGuard.sol\":2698:2784  if (_status == ENTERED) {... */\n      tag_177\n      jumpi\n        /* \"@openzeppelin/contracts/utils/ReentrancyGuard.sol\":2743:2773  ReentrancyGuardReentrantCall() */\n      mload(0x40)\n      0x3ee5aeb500000000000000000000000000000000000000000000000000000000\n      dup2\n      mstore\n      0x04\n      add\n      mload(0x40)\n      dup1\n      swap2\n      sub\n      swap1\n      revert\n        /* \"@openzeppelin/contracts/utils/ReentrancyGuard.sol\":2698:2784  if (_status == ENTERED) {... */\n    tag_177:\n        /* \"@openzeppelin/contracts/utils/ReentrancyGuard.sol\":1899:1900  2 */\n      0x02\n        /* \"@openzeppelin/contracts/utils/ReentrancyGuard.sol\":2858:2865  _status */\n      0x01\n        /* \"@openzeppelin/contracts/utils/ReentrancyGuard.sol\":2858:2875  _status = ENTERED */\n      dup2\n      swap1\n      sstore\n      pop\n        /* \"@openzeppelin/contracts/utils/ReentrancyGuard.sol\":2575:2882  function _nonReentrantBefore() private {... */\n      jump\t// out\n        /* \"@openzeppelin/contracts/token/ERC20/utils/SafeERC20.sol\":1219:1379  function safeTransfer(IERC20 token, address to, uint256 value) internal {... */\n    tag_109:\n        /* \"@openzeppelin/contracts/token/ERC20/utils/SafeERC20.sol\":1301:1372  _callOptionalReturn(token, abi.encodeCall(token.transfer, (to, value))) */\n      tag_179\n        /* \"@openzeppelin/contracts/token/ERC20/utils/SafeERC20.sol\":1321:1326  token */\n      dup4\n        /* \"@openzeppelin/contracts/token/ERC20/utils/SafeERC20.sol\":1343:1348  token */\n      dup5\n        /* \"@openzeppelin/contracts/token/ERC20/utils/SafeERC20.sol\":1343:1357  token.transfer */\n      0xffffffffffffffffffffffffffffffffffffffff\n      and\n      0xa9059cbb\n        /* \"@openzeppelin/contracts/token/ERC20/utils/SafeERC20.sol\":1360:1362  to */\n      dup6\n        /* \"@openzeppelin/contracts/token/ERC20/utils/SafeERC20.sol\":1364:1369  value */\n      dup6\n        /* \"@openzeppelin/contracts/token/ERC20/utils/SafeERC20.sol\":1328:1371  abi.encodeCall(token.transfer, (to, value)) */\n      add(0x24, mload(0x40))\n      tag_180\n      swap3\n      swap2\n      swap1\n      tag_181\n      jump\t// in\n    tag_180:\n      mload(0x40)\n      0x20\n      dup2\n      dup4\n      sub\n      sub\n      dup2\n      mstore\n      swap1\n      0x40\n      mstore\n      swap2\n      pop\n      0xe0\n      shl\n      0x20\n      dup3\n      add\n      dup1\n      mload\n      0xffffffffffffffffffffffffffffffffffffffffffffffffffffffff\n      dup4\n      dup2\n      dup4\n      and\n      or\n      dup4\n      mstore\n      pop\n      pop\n      pop\n      pop\n        /* \"@openzeppelin/contracts/token/ERC20/utils/SafeERC20.sol\":1301:1320  _callOptionalReturn */\n      tag_182\n        /* \"@openzeppelin/contracts/token/ERC20/utils/SafeERC20.sol\":1301:1372  _callOptionalReturn(token, abi.encodeCall(token.transfer, (to, value))) */\n      jump\t// in\n    tag_179:\n        /* \"@openzeppelin/contracts/token/ERC20/utils/SafeERC20.sol\":1219:1379  function safeTransfer(IERC20 token, address to, uint256 value) internal {... */\n      pop\n      pop\n      pop\n      jump\t// out\n        /* \"@openzeppelin/contracts/utils/ReentrancyGuard.sol\":2888:3096  function _nonReentrantAfter() private {... */\n    tag_113:\n        /* \"@openzeppelin/contracts/utils/ReentrancyGuard.sol\":1857:1858  1 */\n      0x01\n        /* \"@openzeppelin/contracts/utils/ReentrancyGuard.sol\":3068:3075  _status */\n      dup1\n        /* \"@openzeppelin/contracts/utils/ReentrancyGuard.sol\":3068:3089  _status = NOT_ENTERED */\n      dup2\n      swap1\n      sstore\n      pop\n        /* \"@openzeppelin/contracts/utils/ReentrancyGuard.sol\":2888:3096  function _nonReentrantAfter() private {... */\n      jump\t// out\n        /* \"@openzeppelin/contracts/token/ERC20/utils/SafeERC20.sol\":1618:1806  function safeTransferFrom(IERC20 token, address from, address to, uint256 value) internal {... */\n    tag_150:\n        /* \"@openzeppelin/contracts/token/ERC20/utils/SafeERC20.sol\":1718:1799  _callOptionalReturn(token, abi.encodeCall(token.transferFrom, (from, to, value))) */\n      tag_185\n        /* \"@openzeppelin/contracts/token/ERC20/utils/SafeERC20.sol\":1738:1743  token */\n      dup5\n        /* \"@openzeppelin/contracts/token/ERC20/utils/SafeERC20.sol\":1760:1765  token */\n      dup6\n        /* \"@openzeppelin/contracts/token/ERC20/utils/SafeERC20.sol\":1760:1778  token.transferFrom */\n      0xffffffffffffffffffffffffffffffffffffffff\n      and\n      0x23b872dd\n        /* \"@openzeppelin/contracts/token/ERC20/utils/SafeERC20.sol\":1781:1785  from */\n      dup7\n        /* \"@openzeppelin/contracts/token/ERC20/utils/SafeERC20.sol\":1787:1789  to */\n      dup7\n        /* \"@openzeppelin/contracts/token/ERC20/utils/SafeERC20.sol\":1791:1796  value */\n      dup7\n        /* \"@openzeppelin/contracts/token/ERC20/utils/SafeERC20.sol\":1745:1798  abi.encodeCall(token.transferFrom, (from, to, value)) */\n      add(0x24, mload(0x40))\n      tag_186\n      swap4\n      swap3\n      swap2\n      swap1\n      tag_187\n      jump\t// in\n    tag_186:\n      mload(0x40)\n      0x20\n      dup2\n      dup4\n      sub\n      sub\n      dup2\n      mstore\n      swap1\n      0x40\n      mstore\n      swap2\n      pop\n      0xe0\n      shl\n      0x20\n      dup3\n      add\n      dup1\n      mload\n      0xffffffffffffffffffffffffffffffffffffffffffffffffffffffff\n      dup4\n      dup2\n      dup4\n      and\n      or\n      dup4\n      mstore\n      pop\n      pop\n      pop\n      pop\n        /* \"@openzeppelin/contracts/token/ERC20/utils/SafeERC20.sol\":1718:1737  _callOptionalReturn */\n      tag_182\n        /* \"@openzeppelin/contracts/token/ERC20/utils/SafeERC20.sol\":1718:1799  _callOptionalReturn(token, abi.encodeCall(token.transferFrom, (from, to, value))) */\n      jump\t// in\n    tag_185:\n        /* \"@openzeppelin/contracts/token/ERC20/utils/SafeERC20.sol\":1618:1806  function safeTransferFrom(IERC20 token, address from, address to, uint256 value) internal {... */\n      pop\n      pop\n      pop\n      pop\n      jump\t// out\n        /* \"@openzeppelin/contracts/access/Ownable.sol\":1796:1958  function _checkOwner() internal view virtual {... */\n    tag_158:\n        /* \"@openzeppelin/contracts/access/Ownable.sol\":1866:1878  _msgSender() */\n      tag_189\n        /* \"@openzeppelin/contracts/access/Ownable.sol\":1866:1876  _msgSender */\n      tag_190\n        /* \"@openzeppelin/contracts/access/Ownable.sol\":1866:1878  _msgSender() */\n      jump\t// in\n    tag_189:\n        /* \"@openzeppelin/contracts/access/Ownable.sol\":1855:1878  owner() != _msgSender() */\n      0xffffffffffffffffffffffffffffffffffffffff\n      and\n        /* \"@openzeppelin/contracts/access/Ownable.sol\":1855:1862  owner() */\n      tag_191\n        /* \"@openzeppelin/contracts/access/Ownable.sol\":1855:1860  owner */\n      tag_43\n        /* \"@openzeppelin/contracts/access/Ownable.sol\":1855:1862  owner() */\n      jump\t// in\n    tag_191:\n        /* \"@openzeppelin/contracts/access/Ownable.sol\":1855:1878  owner() != _msgSender() */\n      0xffffffffffffffffffffffffffffffffffffffff\n      and\n      eq\n        /* \"@openzeppelin/contracts/access/Ownable.sol\":1851:1952  if (owner() != _msgSender()) {... */\n      tag_192\n      jumpi\n        /* \"@openzeppelin/contracts/access/Ownable.sol\":1928:1940  _msgSender() */\n      tag_193\n        /* \"@openzeppelin/contracts/access/Ownable.sol\":1928:1938  _msgSender */\n      tag_190\n        /* \"@openzeppelin/contracts/access/Ownable.sol\":1928:1940  _msgSender() */\n      jump\t// in\n    tag_193:\n        /* \"@openzeppelin/contracts/access/Ownable.sol\":1901:1941  OwnableUnauthorizedAccount(_msgSender()) */\n      mload(0x40)\n      0x118cdaa700000000000000000000000000000000000000000000000000000000\n      dup2\n      mstore\n      0x04\n      add\n      tag_194\n      swap2\n      swap1\n      tag_45\n      jump\t// in\n    tag_194:\n      mload(0x40)\n      dup1\n      swap2\n      sub\n      swap1\n      revert\n        /* \"@openzeppelin/contracts/access/Ownable.sol\":1851:1952  if (owner() != _msgSender()) {... */\n    tag_192:\n        /* \"@openzeppelin/contracts/access/Ownable.sol\":1796:1958  function _checkOwner() internal view virtual {... */\n      jump\t// out\n        /* \"@openzeppelin/contracts/access/Ownable.sol\":2912:3099  function _transferOwnership(address newOwner) internal virtual {... */\n    tag_161:\n        /* \"@openzeppelin/contracts/access/Ownable.sol\":2985:3001  address oldOwner */\n      0x00\n        /* \"@openzeppelin/contracts/access/Ownable.sol\":3004:3010  _owner */\n      dup1\n      0x00\n      swap1\n      sload\n      swap1\n      0x0100\n      exp\n      swap1\n      div\n      0xffffffffffffffffffffffffffffffffffffffff\n      and\n        /* \"@openzeppelin/contracts/access/Ownable.sol\":2985:3010  address oldOwner = _owner */\n      swap1\n      pop\n        /* \"@openzeppelin/contracts/access/Ownable.sol\":3029:3037  newOwner */\n      dup2\n        /* \"@openzeppelin/contracts/access/Ownable.sol\":3020:3026  _owner */\n      0x00\n      dup1\n        /* \"@openzeppelin/contracts/access/Ownable.sol\":3020:3037  _owner = newOwner */\n      0x0100\n      exp\n      dup2\n      sload\n      dup2\n      0xffffffffffffffffffffffffffffffffffffffff\n      mul\n      not\n      and\n      swap1\n      dup4\n      0xffffffffffffffffffffffffffffffffffffffff\n      and\n      mul\n      or\n      swap1\n      sstore\n      pop\n        /* \"@openzeppelin/contracts/access/Ownable.sol\":3083:3091  newOwner */\n      dup2\n        /* \"@openzeppelin/contracts/access/Ownable.sol\":3052:3092  OwnershipTransferred(oldOwner, newOwner) */\n      0xffffffffffffffffffffffffffffffffffffffff\n      and\n        /* \"@openzeppelin/contracts/access/Ownable.sol\":3073:3081  oldOwner */\n      dup2\n        /* \"@openzeppelin/contracts/access/Ownable.sol\":3052:3092  OwnershipTransferred(oldOwner, newOwner) */\n      0xffffffffffffffffffffffffffffffffffffffff\n      and\n      0x8be0079c531659141344cd1fd0a4f28419497f9722a3daafe3b4186f6b6457e0\n      mload(0x40)\n      mload(0x40)\n      dup1\n      swap2\n      sub\n      swap1\n      log3\n        /* \"@openzeppelin/contracts/access/Ownable.sol\":2975:3099  {... */\n      pop\n        /* \"@openzeppelin/contracts/access/Ownable.sol\":2912:3099  function _transferOwnership(address newOwner) internal virtual {... */\n      pop\n      jump\t// out\n        /* \"@openzeppelin/contracts/token/ERC20/utils/SafeERC20.sol\":7686:8406  function _callOptionalReturn(IERC20 token, bytes memory data) private {... */\n    tag_182:\n        /* \"@openzeppelin/contracts/token/ERC20/utils/SafeERC20.sol\":7766:7784  uint256 returnSize */\n      0x00\n        /* \"@openzeppelin/contracts/token/ERC20/utils/SafeERC20.sol\":7794:7813  uint256 returnValue */\n      dup1\n        /* \"@openzeppelin/contracts/token/ERC20/utils/SafeERC20.sol\":7932:7936  0x20 */\n      0x20\n        /* \"@openzeppelin/contracts/token/ERC20/utils/SafeERC20.sol\":7929:7930  0 */\n      0x00\n        /* \"@openzeppelin/contracts/token/ERC20/utils/SafeERC20.sol\":7922:7926  data */\n      dup5\n        /* \"@openzeppelin/contracts/token/ERC20/utils/SafeERC20.sol\":7916:7927  mload(data) */\n      mload\n        /* \"@openzeppelin/contracts/token/ERC20/utils/SafeERC20.sol\":7909:7913  0x20 */\n      0x20\n        /* \"@openzeppelin/contracts/token/ERC20/utils/SafeERC20.sol\":7903:7907  data */\n      dup7\n        /* \"@openzeppelin/contracts/token/ERC20/utils/SafeERC20.sol\":7899:7914  add(data, 0x20) */\n      add\n        /* \"@openzeppelin/contracts/token/ERC20/utils/SafeERC20.sol\":7896:7897  0 */\n      0x00\n        /* \"@openzeppelin/contracts/token/ERC20/utils/SafeERC20.sol\":7889:7894  token */\n      dup9\n        /* \"@openzeppelin/contracts/token/ERC20/utils/SafeERC20.sol\":7882:7887  gas() */\n      gas\n        /* \"@openzeppelin/contracts/token/ERC20/utils/SafeERC20.sol\":7877:7937  call(gas(), token, 0, add(data, 0x20), mload(data), 0, 0x20) */\n      call\n        /* \"@openzeppelin/contracts/token/ERC20/utils/SafeERC20.sol\":7989:7996  success */\n      dup1\n        /* \"@openzeppelin/contracts/token/ERC20/utils/SafeERC20.sol\":7979:8155  if iszero(success) {... */\n      tag_197\n      jumpi\n        /* \"@openzeppelin/contracts/token/ERC20/utils/SafeERC20.sol\":8033:8037  0x40 */\n      0x40\n        /* \"@openzeppelin/contracts/token/ERC20/utils/SafeERC20.sol\":8027:8038  mload(0x40) */\n      mload\n        /* \"@openzeppelin/contracts/token/ERC20/utils/SafeERC20.sol\":8078:8094  returndatasize() */\n      returndatasize\n        /* \"@openzeppelin/contracts/token/ERC20/utils/SafeERC20.sol\":8075:8076  0 */\n      0x00\n        /* \"@openzeppelin/contracts/token/ERC20/utils/SafeERC20.sol\":8070:8073  ptr */\n      dup3\n        /* \"@openzeppelin/contracts/token/ERC20/utils/SafeERC20.sol\":8055:8095  returndatacopy(ptr, 0, returndatasize()) */\n      returndatacopy\n        /* \"@openzeppelin/contracts/token/ERC20/utils/SafeERC20.sol\":8124:8140  returndatasize() */\n      returndatasize\n        /* \"@openzeppelin/contracts/token/ERC20/utils/SafeERC20.sol\":8119:8122  ptr */\n      dup2\n        /* \"@openzeppelin/contracts/token/ERC20/utils/SafeERC20.sol\":8112:8141  revert(ptr, returndatasize()) */\n      revert\n        /* \"@openzeppelin/contracts/token/ERC20/utils/SafeERC20.sol\":7979:8155  if iszero(success) {... */\n    tag_197:\n        /* \"@openzeppelin/contracts/token/ERC20/utils/SafeERC20.sol\":8182:8198  returndatasize() */\n      returndatasize\n        /* \"@openzeppelin/contracts/token/ERC20/utils/SafeERC20.sol\":8168:8198  returnSize := returndatasize() */\n      swap3\n      pop\n        /* \"@openzeppelin/contracts/token/ERC20/utils/SafeERC20.sol\":8232:8233  0 */\n      0x00\n        /* \"@openzeppelin/contracts/token/ERC20/utils/SafeERC20.sol\":8226:8234  mload(0) */\n      mload\n        /* \"@openzeppelin/contracts/token/ERC20/utils/SafeERC20.sol\":8211:8234  returnValue := mload(0) */\n      swap2\n      pop\n        /* \"@openzeppelin/contracts/token/ERC20/utils/SafeERC20.sol\":7848:8244  {... */\n      pop\n        /* \"@openzeppelin/contracts/token/ERC20/utils/SafeERC20.sol\":8272:8273  0 */\n      0x00\n        /* \"@openzeppelin/contracts/token/ERC20/utils/SafeERC20.sol\":8258:8268  returnSize */\n      dup3\n        /* \"@openzeppelin/contracts/token/ERC20/utils/SafeERC20.sol\":8258:8273  returnSize == 0 */\n      eq\n        /* \"@openzeppelin/contracts/token/ERC20/utils/SafeERC20.sol\":8258:8326  returnSize == 0 ? address(token).code.length == 0 : returnValue != 1 */\n      tag_198\n      jumpi\n        /* \"@openzeppelin/contracts/token/ERC20/utils/SafeERC20.sol\":8325:8326  1 */\n      0x01\n        /* \"@openzeppelin/contracts/token/ERC20/utils/SafeERC20.sol\":8310:8321  returnValue */\n      dup2\n        /* \"@openzeppelin/contracts/token/ERC20/utils/SafeERC20.sol\":8310:8326  returnValue != 1 */\n      eq\n      iszero\n        /* \"@openzeppelin/contracts/token/ERC20/utils/SafeERC20.sol\":8258:8326  returnSize == 0 ? address(token).code.length == 0 : returnValue != 1 */\n      jump(tag_199)\n    tag_198:\n        /* \"@openzeppelin/contracts/token/ERC20/utils/SafeERC20.sol\":8306:8307  0 */\n      0x00\n        /* \"@openzeppelin/contracts/token/ERC20/utils/SafeERC20.sol\":8284:8289  token */\n      dup5\n        /* \"@openzeppelin/contracts/token/ERC20/utils/SafeERC20.sol\":8276:8302  address(token).code.length */\n      0xffffffffffffffffffffffffffffffffffffffff\n      and\n      extcodesize\n        /* \"@openzeppelin/contracts/token/ERC20/utils/SafeERC20.sol\":8276:8307  address(token).code.length == 0 */\n      eq\n        /* \"@openzeppelin/contracts/token/ERC20/utils/SafeERC20.sol\":8258:8326  returnSize == 0 ? address(token).code.length == 0 : returnValue != 1 */\n    tag_199:\n        /* \"@openzeppelin/contracts/token/ERC20/utils/SafeERC20.sol\":8254:8400  if (returnSize == 0 ? address(token).code.length == 0 : returnValue != 1) {... */\n      iszero\n      tag_200\n      jumpi\n        /* \"@openzeppelin/contracts/token/ERC20/utils/SafeERC20.sol\":8382:8387  token */\n      dup4\n        /* \"@openzeppelin/contracts/token/ERC20/utils/SafeERC20.sol\":8349:8389  SafeERC20FailedOperation(address(token)) */\n      mload(0x40)\n      0x5274afe700000000000000000000000000000000000000000000000000000000\n      dup2\n      mstore\n      0x04\n      add\n      tag_201\n      swap2\n      swap1\n      tag_45\n      jump\t// in\n    tag_201:\n      mload(0x40)\n      dup1\n      swap2\n      sub\n      swap1\n      revert\n        /* \"@openzeppelin/contracts/token/ERC20/utils/SafeERC20.sol\":8254:8400  if (returnSize == 0 ? address(token).code.length == 0 : returnValue != 1) {... */\n    tag_200:\n        /* \"@openzeppelin/contracts/token/ERC20/utils/SafeERC20.sol\":7756:8406  {... */\n      pop\n      pop\n        /* \"@openzeppelin/contracts/token/ERC20/utils/SafeERC20.sol\":7686:8406  function _callOptionalReturn(IERC20 token, bytes memory data) private {... */\n      pop\n      pop\n      jump\t// out\n        /* \"@openzeppelin/contracts/utils/Context.sol\":656:752  function _msgSender() internal view virtual returns (address) {... */\n    tag_190:\n        /* \"@openzeppelin/contracts/utils/Context.sol\":709:716  address */\n      0x00\n        /* \"@openzeppelin/contracts/utils/Context.sol\":735:745  msg.sender */\n      caller\n        /* \"@openzeppelin/contracts/utils/Context.sol\":728:745  return msg.sender */\n      swap1\n      pop\n        /* \"@openzeppelin/contracts/utils/Context.sol\":656:752  function _msgSender() internal view virtual returns (address) {... */\n      swap1\n      jump\t// out\n        /* \"#utility.yul\":88:205   */\n    tag_204:\n        /* \"#utility.yul\":197:198   */\n      0x00\n        /* \"#utility.yul\":194:195   */\n      dup1\n        /* \"#utility.yul\":187:199   */\n      revert\n        /* \"#utility.yul\":334:460   */\n    tag_206:\n        /* \"#utility.yul\":371:378   */\n      0x00\n        /* \"#utility.yul\":411:453   */\n      0xffffffffffffffffffffffffffffffffffffffff\n        /* \"#utility.yul\":404:409   */\n      dup3\n        /* \"#utility.yul\":400:454   */\n      and\n        /* \"#utility.yul\":389:454   */\n      swap1\n      pop\n        /* \"#utility.yul\":334:460   */\n      swap2\n      swap1\n      pop\n      jump\t// out\n        /* \"#utility.yul\":466:562   */\n    tag_207:\n        /* \"#utility.yul\":503:510   */\n      0x00\n        /* \"#utility.yul\":532:556   */\n      tag_269\n        /* \"#utility.yul\":550:555   */\n      dup3\n        /* \"#utility.yul\":532:556   */\n      tag_206\n      jump\t// in\n    tag_269:\n        /* \"#utility.yul\":521:556   */\n      swap1\n      pop\n        /* \"#utility.yul\":466:562   */\n      swap2\n      swap1\n      pop\n      jump\t// out\n        /* \"#utility.yul\":568:678   */\n    tag_208:\n        /* \"#utility.yul\":619:626   */\n      0x00\n        /* \"#utility.yul\":648:672   */\n      tag_271\n        /* \"#utility.yul\":666:671   */\n      dup3\n        /* \"#utility.yul\":648:672   */\n      tag_207\n      jump\t// in\n    tag_271:\n        /* \"#utility.yul\":637:672   */\n      swap1\n      pop\n        /* \"#utility.yul\":568:678   */\n      swap2\n      swap1\n      pop\n      jump\t// out\n        /* \"#utility.yul\":684:834   */\n    tag_209:\n        /* \"#utility.yul\":771:809   */\n      tag_273\n        /* \"#utility.yul\":803:808   */\n      dup2\n        /* \"#utility.yul\":771:809   */\n      tag_208\n      jump\t// in\n    tag_273:\n        /* \"#utility.yul\":764:769   */\n      dup2\n        /* \"#utility.yul\":761:810   */\n      eq\n        /* \"#utility.yul\":751:828   */\n      tag_274\n      jumpi\n        /* \"#utility.yul\":824:825   */\n      0x00\n        /* \"#utility.yul\":821:822   */\n      dup1\n        /* \"#utility.yul\":814:826   */\n      revert\n        /* \"#utility.yul\":751:828   */\n    tag_274:\n        /* \"#utility.yul\":684:834   */\n      pop\n      jump\t// out\n        /* \"#utility.yul\":840:1007   */\n    tag_210:\n        /* \"#utility.yul\":900:905   */\n      0x00\n        /* \"#utility.yul\":938:944   */\n      dup2\n        /* \"#utility.yul\":925:945   */\n      calldataload\n        /* \"#utility.yul\":916:945   */\n      swap1\n      pop\n        /* \"#utility.yul\":954:1001   */\n      tag_276\n        /* \"#utility.yul\":995:1000   */\n      dup2\n        /* \"#utility.yul\":954:1001   */\n      tag_209\n      jump\t// in\n    tag_276:\n        /* \"#utility.yul\":840:1007   */\n      swap3\n      swap2\n      pop\n      pop\n      jump\t// out\n        /* \"#utility.yul\":1013:1370   */\n    tag_16:\n        /* \"#utility.yul\":1086:1092   */\n      0x00\n        /* \"#utility.yul\":1135:1137   */\n      0x20\n        /* \"#utility.yul\":1123:1132   */\n      dup3\n        /* \"#utility.yul\":1114:1121   */\n      dup5\n        /* \"#utility.yul\":1110:1133   */\n      sub\n        /* \"#utility.yul\":1106:1138   */\n      slt\n        /* \"#utility.yul\":1103:1222   */\n      iszero\n      tag_278\n      jumpi\n        /* \"#utility.yul\":1141:1220   */\n      tag_279\n      tag_204\n      jump\t// in\n    tag_279:\n        /* \"#utility.yul\":1103:1222   */\n    tag_278:\n        /* \"#utility.yul\":1261:1262   */\n      0x00\n        /* \"#utility.yul\":1286:1353   */\n      tag_280\n        /* \"#utility.yul\":1345:1352   */\n      dup5\n        /* \"#utility.yul\":1336:1342   */\n      dup3\n        /* \"#utility.yul\":1325:1334   */\n      dup6\n        /* \"#utility.yul\":1321:1343   */\n      add\n        /* \"#utility.yul\":1286:1353   */\n      tag_210\n      jump\t// in\n    tag_280:\n        /* \"#utility.yul\":1276:1353   */\n      swap2\n      pop\n        /* \"#utility.yul\":1232:1363   */\n      pop\n        /* \"#utility.yul\":1013:1370   */\n      swap3\n      swap2\n      pop\n      pop\n      jump\t// out\n        /* \"#utility.yul\":1376:1453   */\n    tag_211:\n        /* \"#utility.yul\":1413:1420   */\n      0x00\n        /* \"#utility.yul\":1442:1447   */\n      dup2\n        /* \"#utility.yul\":1431:1447   */\n      swap1\n      pop\n        /* \"#utility.yul\":1376:1453   */\n      swap2\n      swap1\n      pop\n      jump\t// out\n        /* \"#utility.yul\":1459:1577   */\n    tag_212:\n        /* \"#utility.yul\":1546:1570   */\n      tag_283\n        /* \"#utility.yul\":1564:1569   */\n      dup2\n        /* \"#utility.yul\":1546:1570   */\n      tag_211\n      jump\t// in\n    tag_283:\n        /* \"#utility.yul\":1541:1544   */\n      dup3\n        /* \"#utility.yul\":1534:1571   */\n      mstore\n        /* \"#utility.yul\":1459:1577   */\n      pop\n      pop\n      jump\t// out\n        /* \"#utility.yul\":1583:1805   */\n    tag_19:\n        /* \"#utility.yul\":1676:1680   */\n      0x00\n        /* \"#utility.yul\":1714:1716   */\n      0x20\n        /* \"#utility.yul\":1703:1712   */\n      dup3\n        /* \"#utility.yul\":1699:1717   */\n      add\n        /* \"#utility.yul\":1691:1717   */\n      swap1\n      pop\n        /* \"#utility.yul\":1727:1798   */\n      tag_285\n        /* \"#utility.yul\":1795:1796   */\n      0x00\n        /* \"#utility.yul\":1784:1793   */\n      dup4\n        /* \"#utility.yul\":1780:1797   */\n      add\n        /* \"#utility.yul\":1771:1777   */\n      dup5\n        /* \"#utility.yul\":1727:1798   */\n      tag_212\n      jump\t// in\n    tag_285:\n        /* \"#utility.yul\":1583:1805   */\n      swap3\n      swap2\n      pop\n      pop\n      jump\t// out\n        /* \"#utility.yul\":1811:1933   */\n    tag_213:\n        /* \"#utility.yul\":1884:1908   */\n      tag_287\n        /* \"#utility.yul\":1902:1907   */\n      dup2\n        /* \"#utility.yul\":1884:1908   */\n      tag_211\n      jump\t// in\n    tag_287:\n        /* \"#utility.yul\":1877:1882   */\n      dup2\n        /* \"#utility.yul\":1874:1909   */\n      eq\n        /* \"#utility.yul\":1864:1927   */\n      tag_288\n      jumpi\n        /* \"#utility.yul\":1923:1924   */\n      0x00\n        /* \"#utility.yul\":1920:1921   */\n      dup1\n        /* \"#utility.yul\":1913:1925   */\n      revert\n        /* \"#utility.yul\":1864:1927   */\n    tag_288:\n        /* \"#utility.yul\":1811:1933   */\n      pop\n      jump\t// out\n        /* \"#utility.yul\":1939:2078   */\n    tag_214:\n        /* \"#utility.yul\":1985:1990   */\n      0x00\n        /* \"#utility.yul\":2023:2029   */\n      dup2\n        /* \"#utility.yul\":2010:2030   */\n      calldataload\n        /* \"#utility.yul\":2001:2030   */\n      swap1\n      pop\n        /* \"#utility.yul\":2039:2072   */\n      tag_290\n        /* \"#utility.yul\":2066:2071   */\n      dup2\n        /* \"#utility.yul\":2039:2072   */\n      tag_213\n      jump\t// in\n    tag_290:\n        /* \"#utility.yul\":1939:2078   */\n      swap3\n      swap2\n      pop\n      pop\n      jump\t// out\n        /* \"#utility.yul\":2084:2558   */\n    tag_23:\n        /* \"#utility.yul\":2152:2158   */\n      0x00\n        /* \"#utility.yul\":2160:2166   */\n      dup1\n        /* \"#utility.yul\":2209:2211   */\n      0x40\n        /* \"#utility.yul\":2197:2206   */\n      dup4\n        /* \"#utility.yul\":2188:2195   */\n      dup6\n        /* \"#utility.yul\":2184:2207   */\n      sub\n        /* \"#utility.yul\":2180:2212   */\n      slt\n        /* \"#utility.yul\":2177:2296   */\n      iszero\n      tag_292\n      jumpi\n        /* \"#utility.yul\":2215:2294   */\n      tag_293\n      tag_204\n      jump\t// in\n    tag_293:\n        /* \"#utility.yul\":2177:2296   */\n    tag_292:\n        /* \"#utility.yul\":2335:2336   */\n      0x00\n        /* \"#utility.yul\":2360:2413   */\n      tag_294\n        /* \"#utility.yul\":2405:2412   */\n      dup6\n        /* \"#utility.yul\":2396:2402   */\n      dup3\n        /* \"#utility.yul\":2385:2394   */\n      dup7\n        /* \"#utility.yul\":2381:2403   */\n      add\n        /* \"#utility.yul\":2360:2413   */\n      tag_214\n      jump\t// in\n    tag_294:\n        /* \"#utility.yul\":2350:2413   */\n      swap3\n      pop\n        /* \"#utility.yul\":2306:2423   */\n      pop\n        /* \"#utility.yul\":2462:2464   */\n      0x20\n        /* \"#utility.yul\":2488:2541   */\n      tag_295\n        /* \"#utility.yul\":2533:2540   */\n      dup6\n        /* \"#utility.yul\":2524:2530   */\n      dup3\n        /* \"#utility.yul\":2513:2522   */\n      dup7\n        /* \"#utility.yul\":2509:2531   */\n      add\n        /* \"#utility.yul\":2488:2541   */\n      tag_214\n      jump\t// in\n    tag_295:\n        /* \"#utility.yul\":2478:2541   */\n      swap2\n      pop\n        /* \"#utility.yul\":2433:2551   */\n      pop\n        /* \"#utility.yul\":2084:2558   */\n      swap3\n      pop\n      swap3\n      swap1\n      pop\n      jump\t// out\n        /* \"#utility.yul\":2564:2650   */\n    tag_215:\n        /* \"#utility.yul\":2599:2606   */\n      0x00\n        /* \"#utility.yul\":2639:2643   */\n      0xff\n        /* \"#utility.yul\":2632:2637   */\n      dup3\n        /* \"#utility.yul\":2628:2644   */\n      and\n        /* \"#utility.yul\":2617:2644   */\n      swap1\n      pop\n        /* \"#utility.yul\":2564:2650   */\n      swap2\n      swap1\n      pop\n      jump\t// out\n        /* \"#utility.yul\":2656:2774   */\n    tag_216:\n        /* \"#utility.yul\":2727:2749   */\n      tag_298\n        /* \"#utility.yul\":2743:2748   */\n      dup2\n        /* \"#utility.yul\":2727:2749   */\n      tag_215\n      jump\t// in\n    tag_298:\n        /* \"#utility.yul\":2720:2725   */\n      dup2\n        /* \"#utility.yul\":2717:2750   */\n      eq\n        /* \"#utility.yul\":2707:2768   */\n      tag_299\n      jumpi\n        /* \"#utility.yul\":2764:2765   */\n      0x00\n        /* \"#utility.yul\":2761:2762   */\n      dup1\n        /* \"#utility.yul\":2754:2766   */\n      revert\n        /* \"#utility.yul\":2707:2768   */\n    tag_299:\n        /* \"#utility.yul\":2656:2774   */\n      pop\n      jump\t// out\n        /* \"#utility.yul\":2780:2915   */\n    tag_217:\n        /* \"#utility.yul\":2824:2829   */\n      0x00\n        /* \"#utility.yul\":2862:2868   */\n      dup2\n        /* \"#utility.yul\":2849:2869   */\n      calldataload\n        /* \"#utility.yul\":2840:2869   */\n      swap1\n      pop\n        /* \"#utility.yul\":2878:2909   */\n      tag_301\n        /* \"#utility.yul\":2903:2908   */\n      dup2\n        /* \"#utility.yul\":2878:2909   */\n      tag_216\n      jump\t// in\n    tag_301:\n        /* \"#utility.yul\":2780:2915   */\n      swap3\n      swap2\n      pop\n      pop\n      jump\t// out\n        /* \"#utility.yul\":2921:3391   */\n    tag_27:\n        /* \"#utility.yul\":2987:2993   */\n      0x00\n        /* \"#utility.yul\":2995:3001   */\n      dup1\n        /* \"#utility.yul\":3044:3046   */\n      0x40\n        /* \"#utility.yul\":3032:3041   */\n      dup4\n        /* \"#utility.yul\":3023:3030   */\n      dup6\n        /* \"#utility.yul\":3019:3042   */\n      sub\n        /* \"#utility.yul\":3015:3047   */\n      slt\n        /* \"#utility.yul\":3012:3131   */\n      iszero\n      tag_303\n      jumpi\n        /* \"#utility.yul\":3050:3129   */\n      tag_304\n      tag_204\n      jump\t// in\n    tag_304:\n        /* \"#utility.yul\":3012:3131   */\n    tag_303:\n        /* \"#utility.yul\":3170:3171   */\n      0x00\n        /* \"#utility.yul\":3195:3246   */\n      tag_305\n        /* \"#utility.yul\":3238:3245   */\n      dup6\n        /* \"#utility.yul\":3229:3235   */\n      dup3\n        /* \"#utility.yul\":3218:3227   */\n      dup7\n        /* \"#utility.yul\":3214:3236   */\n      add\n        /* \"#utility.yul\":3195:3246   */\n      tag_217\n      jump\t// in\n    tag_305:\n        /* \"#utility.yul\":3185:3246   */\n      swap3\n      pop\n        /* \"#utility.yul\":3141:3256   */\n      pop\n        /* \"#utility.yul\":3295:3297   */\n      0x20\n        /* \"#utility.yul\":3321:3374   */\n      tag_306\n        /* \"#utility.yul\":3366:3373   */\n      dup6\n        /* \"#utility.yul\":3357:3363   */\n      dup3\n        /* \"#utility.yul\":3346:3355   */\n      dup7\n        /* \"#utility.yul\":3342:3364   */\n      add\n        /* \"#utility.yul\":3321:3374   */\n      tag_214\n      jump\t// in\n    tag_306:\n        /* \"#utility.yul\":3311:3374   */\n      swap2\n      pop\n        /* \"#utility.yul\":3266:3384   */\n      pop\n        /* \"#utility.yul\":2921:3391   */\n      swap3\n      pop\n      swap3\n      swap1\n      pop\n      jump\t// out\n        /* \"#utility.yul\":3397:4186   */\n    tag_32:\n        /* \"#utility.yul\":3495:3501   */\n      0x00\n        /* \"#utility.yul\":3503:3509   */\n      dup1\n        /* \"#utility.yul\":3511:3517   */\n      0x00\n        /* \"#utility.yul\":3519:3525   */\n      dup1\n        /* \"#utility.yul\":3568:3571   */\n      0x80\n        /* \"#utility.yul\":3556:3565   */\n      dup6\n        /* \"#utility.yul\":3547:3554   */\n      dup8\n        /* \"#utility.yul\":3543:3566   */\n      sub\n        /* \"#utility.yul\":3539:3572   */\n      slt\n        /* \"#utility.yul\":3536:3656   */\n      iszero\n      tag_308\n      jumpi\n        /* \"#utility.yul\":3575:3654   */\n      tag_309\n      tag_204\n      jump\t// in\n    tag_309:\n        /* \"#utility.yul\":3536:3656   */\n    tag_308:\n        /* \"#utility.yul\":3695:3696   */\n      0x00\n        /* \"#utility.yul\":3720:3787   */\n      tag_310\n        /* \"#utility.yul\":3779:3786   */\n      dup8\n        /* \"#utility.yul\":3770:3776   */\n      dup3\n        /* \"#utility.yul\":3759:3768   */\n      dup9\n        /* \"#utility.yul\":3755:3777   */\n      add\n        /* \"#utility.yul\":3720:3787   */\n      tag_210\n      jump\t// in\n    tag_310:\n        /* \"#utility.yul\":3710:3787   */\n      swap5\n      pop\n        /* \"#utility.yul\":3666:3797   */\n      pop\n        /* \"#utility.yul\":3836:3838   */\n      0x20\n        /* \"#utility.yul\":3862:3915   */\n      tag_311\n        /* \"#utility.yul\":3907:3914   */\n      dup8\n        /* \"#utility.yul\":3898:3904   */\n      dup3\n        /* \"#utility.yul\":3887:3896   */\n      dup9\n        /* \"#utility.yul\":3883:3905   */\n      add\n        /* \"#utility.yul\":3862:3915   */\n      tag_214\n      jump\t// in\n    tag_311:\n        /* \"#utility.yul\":3852:3915   */\n      swap4\n      pop\n        /* \"#utility.yul\":3807:3925   */\n      pop\n        /* \"#utility.yul\":3964:3966   */\n      0x40\n        /* \"#utility.yul\":3990:4041   */\n      tag_312\n        /* \"#utility.yul\":4033:4040   */\n      dup8\n        /* \"#utility.yul\":4024:4030   */\n      dup3\n        /* \"#utility.yul\":4013:4022   */\n      dup9\n        /* \"#utility.yul\":4009:4031   */\n      add\n        /* \"#utility.yul\":3990:4041   */\n      tag_217\n      jump\t// in\n    tag_312:\n        /* \"#utility.yul\":3980:4041   */\n      swap3\n      pop\n        /* \"#utility.yul\":3935:4051   */\n      pop\n        /* \"#utility.yul\":4090:4092   */\n      0x60\n        /* \"#utility.yul\":4116:4169   */\n      tag_313\n        /* \"#utility.yul\":4161:4168   */\n      dup8\n        /* \"#utility.yul\":4152:4158   */\n      dup3\n        /* \"#utility.yul\":4141:4150   */\n      dup9\n        /* \"#utility.yul\":4137:4159   */\n      add\n        /* \"#utility.yul\":4116:4169   */\n      tag_214\n      jump\t// in\n    tag_313:\n        /* \"#utility.yul\":4106:4169   */\n      swap2\n      pop\n        /* \"#utility.yul\":4061:4179   */\n      pop\n        /* \"#utility.yul\":3397:4186   */\n      swap3\n      swap6\n      swap2\n      swap5\n      pop\n      swap3\n      pop\n      jump\t// out\n        /* \"#utility.yul\":4192:4310   */\n    tag_218:\n        /* \"#utility.yul\":4279:4303   */\n      tag_315\n        /* \"#utility.yul\":4297:4302   */\n      dup2\n        /* \"#utility.yul\":4279:4303   */\n      tag_207\n      jump\t// in\n    tag_315:\n        /* \"#utility.yul\":4274:4277   */\n      dup3\n        /* \"#utility.yul\":4267:4304   */\n      mstore\n        /* \"#utility.yul\":4192:4310   */\n      pop\n      pop\n      jump\t// out\n        /* \"#utility.yul\":4316:4538   */\n    tag_45:\n        /* \"#utility.yul\":4409:4413   */\n      0x00\n        /* \"#utility.yul\":4447:4449   */\n      0x20\n        /* \"#utility.yul\":4436:4445   */\n      dup3\n        /* \"#utility.yul\":4432:4450   */\n      add\n        /* \"#utility.yul\":4424:4450   */\n      swap1\n      pop\n        /* \"#utility.yul\":4460:4531   */\n      tag_317\n        /* \"#utility.yul\":4528:4529   */\n      0x00\n        /* \"#utility.yul\":4517:4526   */\n      dup4\n        /* \"#utility.yul\":4513:4530   */\n      add\n        /* \"#utility.yul\":4504:4510   */\n      dup5\n        /* \"#utility.yul\":4460:4531   */\n      tag_218\n      jump\t// in\n    tag_317:\n        /* \"#utility.yul\":4316:4538   */\n      swap3\n      swap2\n      pop\n      pop\n      jump\t// out\n        /* \"#utility.yul\":4544:4666   */\n    tag_219:\n        /* \"#utility.yul\":4617:4641   */\n      tag_319\n        /* \"#utility.yul\":4635:4640   */\n      dup2\n        /* \"#utility.yul\":4617:4641   */\n      tag_207\n      jump\t// in\n    tag_319:\n        /* \"#utility.yul\":4610:4615   */\n      dup2\n        /* \"#utility.yul\":4607:4642   */\n      eq\n        /* \"#utility.yul\":4597:4660   */\n      tag_320\n      jumpi\n        /* \"#utility.yul\":4656:4657   */\n      0x00\n        /* \"#utility.yul\":4653:4654   */\n      dup1\n        /* \"#utility.yul\":4646:4658   */\n      revert\n        /* \"#utility.yul\":4597:4660   */\n    tag_320:\n        /* \"#utility.yul\":4544:4666   */\n      pop\n      jump\t// out\n        /* \"#utility.yul\":4672:4811   */\n    tag_220:\n        /* \"#utility.yul\":4718:4723   */\n      0x00\n        /* \"#utility.yul\":4756:4762   */\n      dup2\n        /* \"#utility.yul\":4743:4763   */\n      calldataload\n        /* \"#utility.yul\":4734:4763   */\n      swap1\n      pop\n        /* \"#utility.yul\":4772:4805   */\n      tag_322\n        /* \"#utility.yul\":4799:4804   */\n      dup2\n        /* \"#utility.yul\":4772:4805   */\n      tag_219\n      jump\t// in\n    tag_322:\n        /* \"#utility.yul\":4672:4811   */\n      swap3\n      swap2\n      pop\n      pop\n      jump\t// out\n        /* \"#utility.yul\":4817:5291   */\n    tag_49:\n        /* \"#utility.yul\":4885:4891   */\n      0x00\n        /* \"#utility.yul\":4893:4899   */\n      dup1\n        /* \"#utility.yul\":4942:4944   */\n      0x40\n        /* \"#utility.yul\":4930:4939   */\n      dup4\n        /* \"#utility.yul\":4921:4928   */\n      dup6\n        /* \"#utility.yul\":4917:4940   */\n      sub\n        /* \"#utility.yul\":4913:4945   */\n      slt\n        /* \"#utility.yul\":4910:5029   */\n      iszero\n      tag_324\n      jumpi\n        /* \"#utility.yul\":4948:5027   */\n      tag_325\n      tag_204\n      jump\t// in\n    tag_325:\n        /* \"#utility.yul\":4910:5029   */\n    tag_324:\n        /* \"#utility.yul\":5068:5069   */\n      0x00\n        /* \"#utility.yul\":5093:5146   */\n      tag_326\n        /* \"#utility.yul\":5138:5145   */\n      dup6\n        /* \"#utility.yul\":5129:5135   */\n      dup3\n        /* \"#utility.yul\":5118:5127   */\n      dup7\n        /* \"#utility.yul\":5114:5136   */\n      add\n        /* \"#utility.yul\":5093:5146   */\n      tag_220\n      jump\t// in\n    tag_326:\n        /* \"#utility.yul\":5083:5146   */\n      swap3\n      pop\n        /* \"#utility.yul\":5039:5156   */\n      pop\n        /* \"#utility.yul\":5195:5197   */\n      0x20\n        /* \"#utility.yul\":5221:5274   */\n      tag_327\n        /* \"#utility.yul\":5266:5273   */\n      dup6\n        /* \"#utility.yul\":5257:5263   */\n      dup3\n        /* \"#utility.yul\":5246:5255   */\n      dup7\n        /* \"#utility.yul\":5242:5264   */\n      add\n        /* \"#utility.yul\":5221:5274   */\n      tag_214\n      jump\t// in\n    tag_327:\n        /* \"#utility.yul\":5211:5274   */\n      swap2\n      pop\n        /* \"#utility.yul\":5166:5284   */\n      pop\n        /* \"#utility.yul\":4817:5291   */\n      swap3\n      pop\n      swap3\n      swap1\n      pop\n      jump\t// out\n        /* \"#utility.yul\":5297:5409   */\n    tag_221:\n        /* \"#utility.yul\":5380:5402   */\n      tag_329\n        /* \"#utility.yul\":5396:5401   */\n      dup2\n        /* \"#utility.yul\":5380:5402   */\n      tag_215\n      jump\t// in\n    tag_329:\n        /* \"#utility.yul\":5375:5378   */\n      dup3\n        /* \"#utility.yul\":5368:5403   */\n      mstore\n        /* \"#utility.yul\":5297:5409   */\n      pop\n      pop\n      jump\t// out\n        /* \"#utility.yul\":5415:5505   */\n    tag_222:\n        /* \"#utility.yul\":5449:5456   */\n      0x00\n        /* \"#utility.yul\":5492:5497   */\n      dup2\n        /* \"#utility.yul\":5485:5498   */\n      iszero\n        /* \"#utility.yul\":5478:5499   */\n      iszero\n        /* \"#utility.yul\":5467:5499   */\n      swap1\n      pop\n        /* \"#utility.yul\":5415:5505   */\n      swap2\n      swap1\n      pop\n      jump\t// out\n        /* \"#utility.yul\":5511:5620   */\n    tag_223:\n        /* \"#utility.yul\":5592:5613   */\n      tag_332\n        /* \"#utility.yul\":5607:5612   */\n      dup2\n        /* \"#utility.yul\":5592:5613   */\n      tag_222\n      jump\t// in\n    tag_332:\n        /* \"#utility.yul\":5587:5590   */\n      dup3\n        /* \"#utility.yul\":5580:5614   */\n      mstore\n        /* \"#utility.yul\":5511:5620   */\n      pop\n      pop\n      jump\t// out\n        /* \"#utility.yul\":5626:6369   */\n    tag_52:\n        /* \"#utility.yul\":5843:5847   */\n      0x00\n        /* \"#utility.yul\":5881:5884   */\n      0xc0\n        /* \"#utility.yul\":5870:5879   */\n      dup3\n        /* \"#utility.yul\":5866:5885   */\n      add\n        /* \"#utility.yul\":5858:5885   */\n      swap1\n      pop\n        /* \"#utility.yul\":5895:5966   */\n      tag_334\n        /* \"#utility.yul\":5963:5964   */\n      0x00\n        /* \"#utility.yul\":5952:5961   */\n      dup4\n        /* \"#utility.yul\":5948:5965   */\n      add\n        /* \"#utility.yul\":5939:5945   */\n      dup10\n        /* \"#utility.yul\":5895:5966   */\n      tag_218\n      jump\t// in\n    tag_334:\n        /* \"#utility.yul\":5976:6048   */\n      tag_335\n        /* \"#utility.yul\":6044:6046   */\n      0x20\n        /* \"#utility.yul\":6033:6042   */\n      dup4\n        /* \"#utility.yul\":6029:6047   */\n      add\n        /* \"#utility.yul\":6020:6026   */\n      dup9\n        /* \"#utility.yul\":5976:6048   */\n      tag_212\n      jump\t// in\n    tag_335:\n        /* \"#utility.yul\":6058:6130   */\n      tag_336\n        /* \"#utility.yul\":6126:6128   */\n      0x40\n        /* \"#utility.yul\":6115:6124   */\n      dup4\n        /* \"#utility.yul\":6111:6129   */\n      add\n        /* \"#utility.yul\":6102:6108   */\n      dup8\n        /* \"#utility.yul\":6058:6130   */\n      tag_212\n      jump\t// in\n    tag_336:\n        /* \"#utility.yul\":6140:6208   */\n      tag_337\n        /* \"#utility.yul\":6204:6206   */\n      0x60\n        /* \"#utility.yul\":6193:6202   */\n      dup4\n        /* \"#utility.yul\":6189:6207   */\n      add\n        /* \"#utility.yul\":6180:6186   */\n      dup7\n        /* \"#utility.yul\":6140:6208   */\n      tag_221\n      jump\t// in\n    tag_337:\n        /* \"#utility.yul\":6218:6285   */\n      tag_338\n        /* \"#utility.yul\":6280:6283   */\n      0x80\n        /* \"#utility.yul\":6269:6278   */\n      dup4\n        /* \"#utility.yul\":6265:6284   */\n      add\n        /* \"#utility.yul\":6256:6262   */\n      dup6\n        /* \"#utility.yul\":6218:6285   */\n      tag_223\n      jump\t// in\n    tag_338:\n        /* \"#utility.yul\":6295:6362   */\n      tag_339\n        /* \"#utility.yul\":6357:6360   */\n      0xa0\n        /* \"#utility.yul\":6346:6355   */\n      dup4\n        /* \"#utility.yul\":6342:6361   */\n      add\n        /* \"#utility.yul\":6333:6339   */\n      dup5\n        /* \"#utility.yul\":6295:6362   */\n      tag_223\n      jump\t// in\n    tag_339:\n        /* \"#utility.yul\":5626:6369   */\n      swap8\n      swap7\n      pop\n      pop\n      pop\n      pop\n      pop\n      pop\n      pop\n      jump\t// out\n        /* \"#utility.yul\":6375:6704   */\n    tag_56:\n        /* \"#utility.yul\":6434:6440   */\n      0x00\n        /* \"#utility.yul\":6483:6485   */\n      0x20\n        /* \"#utility.yul\":6471:6480   */\n      dup3\n        /* \"#utility.yul\":6462:6469   */\n      dup5\n        /* \"#utility.yul\":6458:6481   */\n      sub\n        /* \"#utility.yul\":6454:6486   */\n      slt\n        /* \"#utility.yul\":6451:6570   */\n      iszero\n      tag_341\n      jumpi\n        /* \"#utility.yul\":6489:6568   */\n      tag_342\n      tag_204\n      jump\t// in\n    tag_342:\n        /* \"#utility.yul\":6451:6570   */\n    tag_341:\n        /* \"#utility.yul\":6609:6610   */\n      0x00\n        /* \"#utility.yul\":6634:6687   */\n      tag_343\n        /* \"#utility.yul\":6679:6686   */\n      dup5\n        /* \"#utility.yul\":6670:6676   */\n      dup3\n        /* \"#utility.yul\":6659:6668   */\n      dup6\n        /* \"#utility.yul\":6655:6677   */\n      add\n        /* \"#utility.yul\":6634:6687   */\n      tag_220\n      jump\t// in\n    tag_343:\n        /* \"#utility.yul\":6624:6687   */\n      swap2\n      pop\n        /* \"#utility.yul\":6580:6697   */\n      pop\n        /* \"#utility.yul\":6375:6704   */\n      swap3\n      swap2\n      pop\n      pop\n      jump\t// out\n        /* \"#utility.yul\":6710:6845   */\n    tag_224:\n        /* \"#utility.yul\":6798:6804   */\n      0x00\n        /* \"#utility.yul\":6832:6837   */\n      dup2\n        /* \"#utility.yul\":6826:6838   */\n      mload\n        /* \"#utility.yul\":6816:6838   */\n      swap1\n      pop\n        /* \"#utility.yul\":6710:6845   */\n      swap2\n      swap1\n      pop\n      jump\t// out\n        /* \"#utility.yul\":6851:7056   */\n    tag_225:\n        /* \"#utility.yul\":6971:6982   */\n      0x00\n        /* \"#utility.yul\":7005:7011   */\n      dup3\n        /* \"#utility.yul\":7000:7003   */\n      dup3\n        /* \"#utility.yul\":6993:7012   */\n      mstore\n        /* \"#utility.yul\":7045:7049   */\n      0x20\n        /* \"#utility.yul\":7040:7043   */\n      dup3\n        /* \"#utility.yul\":7036:7050   */\n      add\n        /* \"#utility.yul\":7021:7050   */\n      swap1\n      pop\n        /* \"#utility.yul\":6851:7056   */\n      swap3\n      swap2\n      pop\n      pop\n      jump\t// out\n        /* \"#utility.yul\":7062:7215   */\n    tag_226:\n        /* \"#utility.yul\":7150:7154   */\n      0x00\n        /* \"#utility.yul\":7173:7176   */\n      dup2\n        /* \"#utility.yul\":7165:7176   */\n      swap1\n      pop\n        /* \"#utility.yul\":7203:7207   */\n      0x20\n        /* \"#utility.yul\":7198:7201   */\n      dup3\n        /* \"#utility.yul\":7194:7208   */\n      add\n        /* \"#utility.yul\":7186:7208   */\n      swap1\n      pop\n        /* \"#utility.yul\":7062:7215   */\n      swap2\n      swap1\n      pop\n      jump\t// out\n        /* \"#utility.yul\":7221:7329   */\n    tag_227:\n        /* \"#utility.yul\":7298:7322   */\n      tag_348\n        /* \"#utility.yul\":7316:7321   */\n      dup2\n        /* \"#utility.yul\":7298:7322   */\n      tag_207\n      jump\t// in\n    tag_348:\n        /* \"#utility.yul\":7293:7296   */\n      dup3\n        /* \"#utility.yul\":7286:7323   */\n      mstore\n        /* \"#utility.yul\":7221:7329   */\n      pop\n      pop\n      jump\t// out\n        /* \"#utility.yul\":7335:7443   */\n    tag_228:\n        /* \"#utility.yul\":7412:7436   */\n      tag_350\n        /* \"#utility.yul\":7430:7435   */\n      dup2\n        /* \"#utility.yul\":7412:7436   */\n      tag_211\n      jump\t// in\n    tag_350:\n        /* \"#utility.yul\":7407:7410   */\n      dup3\n        /* \"#utility.yul\":7400:7437   */\n      mstore\n        /* \"#utility.yul\":7335:7443   */\n      pop\n      pop\n      jump\t// out\n        /* \"#utility.yul\":7449:7551   */\n    tag_229:\n        /* \"#utility.yul\":7522:7544   */\n      tag_352\n        /* \"#utility.yul\":7538:7543   */\n      dup2\n        /* \"#utility.yul\":7522:7544   */\n      tag_215\n      jump\t// in\n    tag_352:\n        /* \"#utility.yul\":7517:7520   */\n      dup3\n        /* \"#utility.yul\":7510:7545   */\n      mstore\n        /* \"#utility.yul\":7449:7551   */\n      pop\n      pop\n      jump\t// out\n        /* \"#utility.yul\":7557:7656   */\n    tag_230:\n        /* \"#utility.yul\":7628:7649   */\n      tag_354\n        /* \"#utility.yul\":7643:7648   */\n      dup2\n        /* \"#utility.yul\":7628:7649   */\n      tag_222\n      jump\t// in\n    tag_354:\n        /* \"#utility.yul\":7623:7626   */\n      dup3\n        /* \"#utility.yul\":7616:7650   */\n      mstore\n        /* \"#utility.yul\":7557:7656   */\n      pop\n      pop\n      jump\t// out\n        /* \"#utility.yul\":7708:8897   */\n    tag_231:\n        /* \"#utility.yul\":7837:7841   */\n      0xc0\n        /* \"#utility.yul\":7832:7835   */\n      dup3\n        /* \"#utility.yul\":7828:7842   */\n      add\n        /* \"#utility.yul\":7925:7929   */\n      0x00\n        /* \"#utility.yul\":7918:7923   */\n      dup3\n        /* \"#utility.yul\":7914:7930   */\n      add\n        /* \"#utility.yul\":7908:7931   */\n      mload\n        /* \"#utility.yul\":7944:8007   */\n      tag_356\n        /* \"#utility.yul\":8001:8005   */\n      0x00\n        /* \"#utility.yul\":7996:7999   */\n      dup6\n        /* \"#utility.yul\":7992:8006   */\n      add\n        /* \"#utility.yul\":7978:7990   */\n      dup3\n        /* \"#utility.yul\":7944:8007   */\n      tag_227\n      jump\t// in\n    tag_356:\n        /* \"#utility.yul\":7852:8017   */\n      pop\n        /* \"#utility.yul\":8101:8105   */\n      0x20\n        /* \"#utility.yul\":8094:8099   */\n      dup3\n        /* \"#utility.yul\":8090:8106   */\n      add\n        /* \"#utility.yul\":8084:8107   */\n      mload\n        /* \"#utility.yul\":8120:8183   */\n      tag_357\n        /* \"#utility.yul\":8177:8181   */\n      0x20\n        /* \"#utility.yul\":8172:8175   */\n      dup6\n        /* \"#utility.yul\":8168:8182   */\n      add\n        /* \"#utility.yul\":8154:8166   */\n      dup3\n        /* \"#utility.yul\":8120:8183   */\n      tag_228\n      jump\t// in\n    tag_357:\n        /* \"#utility.yul\":8027:8193   */\n      pop\n        /* \"#utility.yul\":8282:8286   */\n      0x40\n        /* \"#utility.yul\":8275:8280   */\n      dup3\n        /* \"#utility.yul\":8271:8287   */\n      add\n        /* \"#utility.yul\":8265:8288   */\n      mload\n        /* \"#utility.yul\":8301:8364   */\n      tag_358\n        /* \"#utility.yul\":8358:8362   */\n      0x40\n        /* \"#utility.yul\":8353:8356   */\n      dup6\n        /* \"#utility.yul\":8349:8363   */\n      add\n        /* \"#utility.yul\":8335:8347   */\n      dup3\n        /* \"#utility.yul\":8301:8364   */\n      tag_228\n      jump\t// in\n    tag_358:\n        /* \"#utility.yul\":8203:8374   */\n      pop\n        /* \"#utility.yul\":8457:8461   */\n      0x60\n        /* \"#utility.yul\":8450:8455   */\n      dup3\n        /* \"#utility.yul\":8446:8462   */\n      add\n        /* \"#utility.yul\":8440:8463   */\n      mload\n        /* \"#utility.yul\":8476:8535   */\n      tag_359\n        /* \"#utility.yul\":8529:8533   */\n      0x60\n        /* \"#utility.yul\":8524:8527   */\n      dup6\n        /* \"#utility.yul\":8520:8534   */\n      add\n        /* \"#utility.yul\":8506:8518   */\n      dup3\n        /* \"#utility.yul\":8476:8535   */\n      tag_229\n      jump\t// in\n    tag_359:\n        /* \"#utility.yul\":8384:8545   */\n      pop\n        /* \"#utility.yul\":8632:8636   */\n      0x80\n        /* \"#utility.yul\":8625:8630   */\n      dup3\n        /* \"#utility.yul\":8621:8637   */\n      add\n        /* \"#utility.yul\":8615:8638   */\n      mload\n        /* \"#utility.yul\":8651:8708   */\n      tag_360\n        /* \"#utility.yul\":8702:8706   */\n      0x80\n        /* \"#utility.yul\":8697:8700   */\n      dup6\n        /* \"#utility.yul\":8693:8707   */\n      add\n        /* \"#utility.yul\":8679:8691   */\n      dup3\n        /* \"#utility.yul\":8651:8708   */\n      tag_230\n      jump\t// in\n    tag_360:\n        /* \"#utility.yul\":8555:8718   */\n      pop\n        /* \"#utility.yul\":8804:8808   */\n      0xa0\n        /* \"#utility.yul\":8797:8802   */\n      dup3\n        /* \"#utility.yul\":8793:8809   */\n      add\n        /* \"#utility.yul\":8787:8810   */\n      mload\n        /* \"#utility.yul\":8823:8880   */\n      tag_361\n        /* \"#utility.yul\":8874:8878   */\n      0xa0\n        /* \"#utility.yul\":8869:8872   */\n      dup6\n        /* \"#utility.yul\":8865:8879   */\n      add\n        /* \"#utility.yul\":8851:8863   */\n      dup3\n        /* \"#utility.yul\":8823:8880   */\n      tag_230\n      jump\t// in\n    tag_361:\n        /* \"#utility.yul\":8728:8890   */\n      pop\n        /* \"#utility.yul\":7806:8897   */\n      pop\n        /* \"#utility.yul\":7708:8897   */\n      pop\n      pop\n      jump\t// out\n        /* \"#utility.yul\":8903:9166   */\n    tag_232:\n        /* \"#utility.yul\":9014:9024   */\n      0x00\n        /* \"#utility.yul\":9035:9123   */\n      tag_363\n        /* \"#utility.yul\":9119:9122   */\n      dup4\n        /* \"#utility.yul\":9111:9117   */\n      dup4\n        /* \"#utility.yul\":9035:9123   */\n      tag_231\n      jump\t// in\n    tag_363:\n        /* \"#utility.yul\":9155:9159   */\n      0xc0\n        /* \"#utility.yul\":9150:9153   */\n      dup4\n        /* \"#utility.yul\":9146:9160   */\n      add\n        /* \"#utility.yul\":9132:9160   */\n      swap1\n      pop\n        /* \"#utility.yul\":8903:9166   */\n      swap3\n      swap2\n      pop\n      pop\n      jump\t// out\n        /* \"#utility.yul\":9172:9306   */\n    tag_233:\n        /* \"#utility.yul\":9263:9267   */\n      0x00\n        /* \"#utility.yul\":9295:9299   */\n      0x20\n        /* \"#utility.yul\":9290:9293   */\n      dup3\n        /* \"#utility.yul\":9286:9300   */\n      add\n        /* \"#utility.yul\":9278:9300   */\n      swap1\n      pop\n        /* \"#utility.yul\":9172:9306   */\n      swap2\n      swap1\n      pop\n      jump\t// out\n        /* \"#utility.yul\":9362:10262   */\n    tag_234:\n        /* \"#utility.yul\":9523:9526   */\n      0x00\n        /* \"#utility.yul\":9552:9627   */\n      tag_366\n        /* \"#utility.yul\":9621:9626   */\n      dup3\n        /* \"#utility.yul\":9552:9627   */\n      tag_224\n      jump\t// in\n    tag_366:\n        /* \"#utility.yul\":9643:9750   */\n      tag_367\n        /* \"#utility.yul\":9743:9749   */\n      dup2\n        /* \"#utility.yul\":9738:9741   */\n      dup6\n        /* \"#utility.yul\":9643:9750   */\n      tag_225\n      jump\t// in\n    tag_367:\n        /* \"#utility.yul\":9636:9750   */\n      swap4\n      pop\n        /* \"#utility.yul\":9774:9851   */\n      tag_368\n        /* \"#utility.yul\":9845:9850   */\n      dup4\n        /* \"#utility.yul\":9774:9851   */\n      tag_226\n      jump\t// in\n    tag_368:\n        /* \"#utility.yul\":9874:9881   */\n      dup1\n        /* \"#utility.yul\":9905:9906   */\n      0x00\n        /* \"#utility.yul\":9890:10237   */\n    tag_369:\n        /* \"#utility.yul\":9915:9921   */\n      dup4\n        /* \"#utility.yul\":9912:9913   */\n      dup2\n        /* \"#utility.yul\":9909:9922   */\n      lt\n        /* \"#utility.yul\":9890:10237   */\n      iszero\n      tag_371\n      jumpi\n        /* \"#utility.yul\":9991:9997   */\n      dup2\n        /* \"#utility.yul\":9985:9998   */\n      mload\n        /* \"#utility.yul\":10018:10123   */\n      tag_372\n        /* \"#utility.yul\":10119:10122   */\n      dup9\n        /* \"#utility.yul\":10104:10117   */\n      dup3\n        /* \"#utility.yul\":10018:10123   */\n      tag_232\n      jump\t// in\n    tag_372:\n        /* \"#utility.yul\":10011:10123   */\n      swap8\n      pop\n        /* \"#utility.yul\":10146:10227   */\n      tag_373\n        /* \"#utility.yul\":10220:10226   */\n      dup4\n        /* \"#utility.yul\":10146:10227   */\n      tag_233\n      jump\t// in\n    tag_373:\n        /* \"#utility.yul\":10136:10227   */\n      swap3\n      pop\n        /* \"#utility.yul\":9950:10237   */\n      pop\n        /* \"#utility.yul\":9937:9938   */\n      0x01\n        /* \"#utility.yul\":9934:9935   */\n      dup2\n        /* \"#utility.yul\":9930:9939   */\n      add\n        /* \"#utility.yul\":9925:9939   */\n      swap1\n      pop\n        /* \"#utility.yul\":9890:10237   */\n      jump(tag_369)\n    tag_371:\n        /* \"#utility.yul\":9894:9908   */\n      pop\n        /* \"#utility.yul\":10253:10256   */\n      dup6\n        /* \"#utility.yul\":10246:10256   */\n      swap4\n      pop\n        /* \"#utility.yul\":9528:10262   */\n      pop\n      pop\n      pop\n        /* \"#utility.yul\":9362:10262   */\n      swap3\n      swap2\n      pop\n      pop\n      jump\t// out\n        /* \"#utility.yul\":10268:10725   */\n    tag_62:\n        /* \"#utility.yul\":10453:10457   */\n      0x00\n        /* \"#utility.yul\":10491:10493   */\n      0x20\n        /* \"#utility.yul\":10480:10489   */\n      dup3\n        /* \"#utility.yul\":10476:10494   */\n      add\n        /* \"#utility.yul\":10468:10494   */\n      swap1\n      pop\n        /* \"#utility.yul\":10540:10549   */\n      dup2\n        /* \"#utility.yul\":10534:10538   */\n      dup2\n        /* \"#utility.yul\":10530:10550   */\n      sub\n        /* \"#utility.yul\":10526:10527   */\n      0x00\n        /* \"#utility.yul\":10515:10524   */\n      dup4\n        /* \"#utility.yul\":10511:10528   */\n      add\n        /* \"#utility.yul\":10504:10551   */\n      mstore\n        /* \"#utility.yul\":10568:10718   */\n      tag_375\n        /* \"#utility.yul\":10713:10717   */\n      dup2\n        /* \"#utility.yul\":10704:10710   */\n      dup5\n        /* \"#utility.yul\":10568:10718   */\n      tag_234\n      jump\t// in\n    tag_375:\n        /* \"#utility.yul\":10560:10718   */\n      swap1\n      pop\n        /* \"#utility.yul\":10268:10725   */\n      swap3\n      swap2\n      pop\n      pop\n      jump\t// out\n        /* \"#utility.yul\":10731:10874   */\n    tag_235:\n        /* \"#utility.yul\":10788:10793   */\n      0x00\n        /* \"#utility.yul\":10819:10825   */\n      dup2\n        /* \"#utility.yul\":10813:10826   */\n      mload\n        /* \"#utility.yul\":10804:10826   */\n      swap1\n      pop\n        /* \"#utility.yul\":10835:10868   */\n      tag_377\n        /* \"#utility.yul\":10862:10867   */\n      dup2\n        /* \"#utility.yul\":10835:10868   */\n      tag_213\n      jump\t// in\n    tag_377:\n        /* \"#utility.yul\":10731:10874   */\n      swap3\n      swap2\n      pop\n      pop\n      jump\t// out\n        /* \"#utility.yul\":10880:11231   */\n    tag_68:\n        /* \"#utility.yul\":10950:10956   */\n      0x00\n        /* \"#utility.yul\":10999:11001   */\n      0x20\n        /* \"#utility.yul\":10987:10996   */\n      dup3\n        /* \"#utility.yul\":10978:10985   */\n      dup5\n        /* \"#utility.yul\":10974:10997   */\n      sub\n        /* \"#utility.yul\":10970:11002   */\n      slt\n        /* \"#utility.yul\":10967:11086   */\n      iszero\n      tag_379\n      jumpi\n        /* \"#utility.yul\":11005:11084   */\n      tag_380\n      tag_204\n      jump\t// in\n    tag_380:\n        /* \"#utility.yul\":10967:11086   */\n    tag_379:\n        /* \"#utility.yul\":11125:11126   */\n      0x00\n        /* \"#utility.yul\":11150:11214   */\n      tag_381\n        /* \"#utility.yul\":11206:11213   */\n      dup5\n        /* \"#utility.yul\":11197:11203   */\n      dup3\n        /* \"#utility.yul\":11186:11195   */\n      dup6\n        /* \"#utility.yul\":11182:11204   */\n      add\n        /* \"#utility.yul\":11150:11214   */\n      tag_235\n      jump\t// in\n    tag_381:\n        /* \"#utility.yul\":11140:11214   */\n      swap2\n      pop\n        /* \"#utility.yul\":11096:11224   */\n      pop\n        /* \"#utility.yul\":10880:11231   */\n      swap3\n      swap2\n      pop\n      pop\n      jump\t// out\n        /* \"#utility.yul\":11237:11406   */\n    tag_236:\n        /* \"#utility.yul\":11321:11332   */\n      0x00\n        /* \"#utility.yul\":11355:11361   */\n      dup3\n        /* \"#utility.yul\":11350:11353   */\n      dup3\n        /* \"#utility.yul\":11343:11362   */\n      mstore\n        /* \"#utility.yul\":11395:11399   */\n      0x20\n        /* \"#utility.yul\":11390:11393   */\n      dup3\n        /* \"#utility.yul\":11386:11400   */\n      add\n        /* \"#utility.yul\":11371:11400   */\n      swap1\n      pop\n        /* \"#utility.yul\":11237:11406   */\n      swap3\n      swap2\n      pop\n      pop\n      jump\t// out\n        /* \"#utility.yul\":11412:11633   */\n    tag_237:\n        /* \"#utility.yul\":11552:11586   */\n      0x5468652073706563696669656420617373657420494420697320696e76616c69\n        /* \"#utility.yul\":11548:11549   */\n      0x00\n        /* \"#utility.yul\":11540:11546   */\n      dup3\n        /* \"#utility.yul\":11536:11550   */\n      add\n        /* \"#utility.yul\":11529:11587   */\n      mstore\n        /* \"#utility.yul\":11621:11625   */\n      0x642e000000000000000000000000000000000000000000000000000000000000\n        /* \"#utility.yul\":11616:11618   */\n      0x20\n        /* \"#utility.yul\":11608:11614   */\n      dup3\n        /* \"#utility.yul\":11604:11619   */\n      add\n        /* \"#utility.yul\":11597:11626   */\n      mstore\n        /* \"#utility.yul\":11412:11633   */\n      pop\n      jump\t// out\n        /* \"#utility.yul\":11639:12005   */\n    tag_238:\n        /* \"#utility.yul\":11781:11784   */\n      0x00\n        /* \"#utility.yul\":11802:11869   */\n      tag_385\n        /* \"#utility.yul\":11866:11868   */\n      0x22\n        /* \"#utility.yul\":11861:11864   */\n      dup4\n        /* \"#utility.yul\":11802:11869   */\n      tag_236\n      jump\t// in\n    tag_385:\n        /* \"#utility.yul\":11795:11869   */\n      swap2\n      pop\n        /* \"#utility.yul\":11878:11971   */\n      tag_386\n        /* \"#utility.yul\":11967:11970   */\n      dup3\n        /* \"#utility.yul\":11878:11971   */\n      tag_237\n      jump\t// in\n    tag_386:\n        /* \"#utility.yul\":11996:11998   */\n      0x40\n        /* \"#utility.yul\":11991:11994   */\n      dup3\n        /* \"#utility.yul\":11987:11999   */\n      add\n        /* \"#utility.yul\":11980:11999   */\n      swap1\n      pop\n        /* \"#utility.yul\":11639:12005   */\n      swap2\n      swap1\n      pop\n      jump\t// out\n        /* \"#utility.yul\":12011:12430   */\n    tag_75:\n        /* \"#utility.yul\":12177:12181   */\n      0x00\n        /* \"#utility.yul\":12215:12217   */\n      0x20\n        /* \"#utility.yul\":12204:12213   */\n      dup3\n        /* \"#utility.yul\":12200:12218   */\n      add\n        /* \"#utility.yul\":12192:12218   */\n      swap1\n      pop\n        /* \"#utility.yul\":12264:12273   */\n      dup2\n        /* \"#utility.yul\":12258:12262   */\n      dup2\n        /* \"#utility.yul\":12254:12274   */\n      sub\n        /* \"#utility.yul\":12250:12251   */\n      0x00\n        /* \"#utility.yul\":12239:12248   */\n      dup4\n        /* \"#utility.yul\":12235:12252   */\n      add\n        /* \"#utility.yul\":12228:12275   */\n      mstore\n        /* \"#utility.yul\":12292:12423   */\n      tag_388\n        /* \"#utility.yul\":12418:12422   */\n      dup2\n        /* \"#utility.yul\":12292:12423   */\n      tag_238\n      jump\t// in\n    tag_388:\n        /* \"#utility.yul\":12284:12423   */\n      swap1\n      pop\n        /* \"#utility.yul\":12011:12430   */\n      swap2\n      swap1\n      pop\n      jump\t// out\n        /* \"#utility.yul\":12436:12616   */\n    tag_78:\n        /* \"#utility.yul\":12484:12561   */\n      0x4e487b7100000000000000000000000000000000000000000000000000000000\n        /* \"#utility.yul\":12481:12482   */\n      0x00\n        /* \"#utility.yul\":12474:12562   */\n      mstore\n        /* \"#utility.yul\":12581:12585   */\n      0x32\n        /* \"#utility.yul\":12578:12579   */\n      0x04\n        /* \"#utility.yul\":12571:12586   */\n      mstore\n        /* \"#utility.yul\":12605:12609   */\n      0x24\n        /* \"#utility.yul\":12602:12603   */\n      0x00\n        /* \"#utility.yul\":12595:12610   */\n      revert\n        /* \"#utility.yul\":12622:12844   */\n    tag_239:\n        /* \"#utility.yul\":12762:12796   */\n      0x417373657473206861766520616c7265616479206265656e2077697468647261\n        /* \"#utility.yul\":12758:12759   */\n      0x00\n        /* \"#utility.yul\":12750:12756   */\n      dup3\n        /* \"#utility.yul\":12746:12760   */\n      add\n        /* \"#utility.yul\":12739:12797   */\n      mstore\n        /* \"#utility.yul\":12831:12836   */\n      0x776e210000000000000000000000000000000000000000000000000000000000\n        /* \"#utility.yul\":12826:12828   */\n      0x20\n        /* \"#utility.yul\":12818:12824   */\n      dup3\n        /* \"#utility.yul\":12814:12829   */\n      add\n        /* \"#utility.yul\":12807:12837   */\n      mstore\n        /* \"#utility.yul\":12622:12844   */\n      pop\n      jump\t// out\n        /* \"#utility.yul\":12850:13216   */\n    tag_240:\n        /* \"#utility.yul\":12992:12995   */\n      0x00\n        /* \"#utility.yul\":13013:13080   */\n      tag_392\n        /* \"#utility.yul\":13077:13079   */\n      0x23\n        /* \"#utility.yul\":13072:13075   */\n      dup4\n        /* \"#utility.yul\":13013:13080   */\n      tag_236\n      jump\t// in\n    tag_392:\n        /* \"#utility.yul\":13006:13080   */\n      swap2\n      pop\n        /* \"#utility.yul\":13089:13182   */\n      tag_393\n        /* \"#utility.yul\":13178:13181   */\n      dup3\n        /* \"#utility.yul\":13089:13182   */\n      tag_239\n      jump\t// in\n    tag_393:\n        /* \"#utility.yul\":13207:13209   */\n      0x40\n        /* \"#utility.yul\":13202:13205   */\n      dup3\n        /* \"#utility.yul\":13198:13210   */\n      add\n        /* \"#utility.yul\":13191:13210   */\n      swap1\n      pop\n        /* \"#utility.yul\":12850:13216   */\n      swap2\n      swap1\n      pop\n      jump\t// out\n        /* \"#utility.yul\":13222:13641   */\n    tag_82:\n        /* \"#utility.yul\":13388:13392   */\n      0x00\n        /* \"#utility.yul\":13426:13428   */\n      0x20\n        /* \"#utility.yul\":13415:13424   */\n      dup3\n        /* \"#utility.yul\":13411:13429   */\n      add\n        /* \"#utility.yul\":13403:13429   */\n      swap1\n      pop\n        /* \"#utility.yul\":13475:13484   */\n      dup2\n        /* \"#utility.yul\":13469:13473   */\n      dup2\n        /* \"#utility.yul\":13465:13485   */\n      sub\n        /* \"#utility.yul\":13461:13462   */\n      0x00\n        /* \"#utility.yul\":13450:13459   */\n      dup4\n        /* \"#utility.yul\":13446:13463   */\n      add\n        /* \"#utility.yul\":13439:13486   */\n      mstore\n        /* \"#utility.yul\":13503:13634   */\n      tag_395\n        /* \"#utility.yul\":13629:13633   */\n      dup2\n        /* \"#utility.yul\":13503:13634   */\n      tag_240\n      jump\t// in\n    tag_395:\n        /* \"#utility.yul\":13495:13634   */\n      swap1\n      pop\n        /* \"#utility.yul\":13222:13641   */\n      swap2\n      swap1\n      pop\n      jump\t// out\n        /* \"#utility.yul\":13647:13870   */\n    tag_241:\n        /* \"#utility.yul\":13787:13821   */\n      0x546865206c6f636b20706572696f6420686173206e6f74207965742065787069\n        /* \"#utility.yul\":13783:13784   */\n      0x00\n        /* \"#utility.yul\":13775:13781   */\n      dup3\n        /* \"#utility.yul\":13771:13785   */\n      add\n        /* \"#utility.yul\":13764:13822   */\n      mstore\n        /* \"#utility.yul\":13856:13862   */\n      0x7265642100000000000000000000000000000000000000000000000000000000\n        /* \"#utility.yul\":13851:13853   */\n      0x20\n        /* \"#utility.yul\":13843:13849   */\n      dup3\n        /* \"#utility.yul\":13839:13854   */\n      add\n        /* \"#utility.yul\":13832:13863   */\n      mstore\n        /* \"#utility.yul\":13647:13870   */\n      pop\n      jump\t// out\n        /* \"#utility.yul\":13876:14242   */\n    tag_242:\n        /* \"#utility.yul\":14018:14021   */\n      0x00\n        /* \"#utility.yul\":14039:14106   */\n      tag_398\n        /* \"#utility.yul\":14103:14105   */\n      0x24\n        /* \"#utility.yul\":14098:14101   */\n      dup4\n        /* \"#utility.yul\":14039:14106   */\n      tag_236\n      jump\t// in\n    tag_398:\n        /* \"#utility.yul\":14032:14106   */\n      swap2\n      pop\n        /* \"#utility.yul\":14115:14208   */\n      tag_399\n        /* \"#utility.yul\":14204:14207   */\n      dup3\n        /* \"#utility.yul\":14115:14208   */\n      tag_241\n      jump\t// in\n    tag_399:\n        /* \"#utility.yul\":14233:14235   */\n      0x40\n        /* \"#utility.yul\":14228:14231   */\n      dup3\n        /* \"#utility.yul\":14224:14236   */\n      add\n        /* \"#utility.yul\":14217:14236   */\n      swap1\n      pop\n        /* \"#utility.yul\":13876:14242   */\n      swap2\n      swap1\n      pop\n      jump\t// out\n        /* \"#utility.yul\":14248:14667   */\n    tag_85:\n        /* \"#utility.yul\":14414:14418   */\n      0x00\n        /* \"#utility.yul\":14452:14454   */\n      0x20\n        /* \"#utility.yul\":14441:14450   */\n      dup3\n        /* \"#utility.yul\":14437:14455   */\n      add\n        /* \"#utility.yul\":14429:14455   */\n      swap1\n      pop\n        /* \"#utility.yul\":14501:14510   */\n      dup2\n        /* \"#utility.yul\":14495:14499   */\n      dup2\n        /* \"#utility.yul\":14491:14511   */\n      sub\n        /* \"#utility.yul\":14487:14488   */\n      0x00\n        /* \"#utility.yul\":14476:14485   */\n      dup4\n        /* \"#utility.yul\":14472:14489   */\n      add\n        /* \"#utility.yul\":14465:14512   */\n      mstore\n        /* \"#utility.yul\":14529:14660   */\n      tag_401\n        /* \"#utility.yul\":14655:14659   */\n      dup2\n        /* \"#utility.yul\":14529:14660   */\n      tag_242\n      jump\t// in\n    tag_401:\n        /* \"#utility.yul\":14521:14660   */\n      swap1\n      pop\n        /* \"#utility.yul\":14248:14667   */\n      swap2\n      swap1\n      pop\n      jump\t// out\n        /* \"#utility.yul\":14673:14853   */\n    tag_243:\n        /* \"#utility.yul\":14721:14798   */\n      0x4e487b7100000000000000000000000000000000000000000000000000000000\n        /* \"#utility.yul\":14718:14719   */\n      0x00\n        /* \"#utility.yul\":14711:14799   */\n      mstore\n        /* \"#utility.yul\":14818:14822   */\n      0x11\n        /* \"#utility.yul\":14815:14816   */\n      0x04\n        /* \"#utility.yul\":14808:14823   */\n      mstore\n        /* \"#utility.yul\":14842:14846   */\n      0x24\n        /* \"#utility.yul\":14839:14840   */\n      0x00\n        /* \"#utility.yul\":14832:14847   */\n      revert\n        /* \"#utility.yul\":14859:15053   */\n    tag_87:\n        /* \"#utility.yul\":14899:14903   */\n      0x00\n        /* \"#utility.yul\":14919:14939   */\n      tag_404\n        /* \"#utility.yul\":14937:14938   */\n      dup3\n        /* \"#utility.yul\":14919:14939   */\n      tag_211\n      jump\t// in\n    tag_404:\n        /* \"#utility.yul\":14914:14939   */\n      swap2\n      pop\n        /* \"#utility.yul\":14953:14973   */\n      tag_405\n        /* \"#utility.yul\":14971:14972   */\n      dup4\n        /* \"#utility.yul\":14953:14973   */\n      tag_211\n      jump\t// in\n    tag_405:\n        /* \"#utility.yul\":14948:14973   */\n      swap3\n      pop\n        /* \"#utility.yul\":14997:14998   */\n      dup3\n        /* \"#utility.yul\":14994:14995   */\n      dup3\n        /* \"#utility.yul\":14990:14999   */\n      sub\n        /* \"#utility.yul\":14982:14999   */\n      swap1\n      pop\n        /* \"#utility.yul\":15021:15022   */\n      dup2\n        /* \"#utility.yul\":15015:15019   */\n      dup2\n        /* \"#utility.yul\":15012:15023   */\n      gt\n        /* \"#utility.yul\":15009:15046   */\n      iszero\n      tag_406\n      jumpi\n        /* \"#utility.yul\":15026:15044   */\n      tag_407\n      tag_243\n      jump\t// in\n    tag_407:\n        /* \"#utility.yul\":15009:15046   */\n    tag_406:\n        /* \"#utility.yul\":14859:15053   */\n      swap3\n      swap2\n      pop\n      pop\n      jump\t// out\n        /* \"#utility.yul\":15059:15239   */\n    tag_244:\n        /* \"#utility.yul\":15199:15231   */\n      0x4e6f7420656e6f7567682061737365747320746f207769746864726177210000\n        /* \"#utility.yul\":15195:15196   */\n      0x00\n        /* \"#utility.yul\":15187:15193   */\n      dup3\n        /* \"#utility.yul\":15183:15197   */\n      add\n        /* \"#utility.yul\":15176:15232   */\n      mstore\n        /* \"#utility.yul\":15059:15239   */\n      pop\n      jump\t// out\n        /* \"#utility.yul\":15245:15611   */\n    tag_245:\n        /* \"#utility.yul\":15387:15390   */\n      0x00\n        /* \"#utility.yul\":15408:15475   */\n      tag_410\n        /* \"#utility.yul\":15472:15474   */\n      0x1e\n        /* \"#utility.yul\":15467:15470   */\n      dup4\n        /* \"#utility.yul\":15408:15475   */\n      tag_236\n      jump\t// in\n    tag_410:\n        /* \"#utility.yul\":15401:15475   */\n      swap2\n      pop\n        /* \"#utility.yul\":15484:15577   */\n      tag_411\n        /* \"#utility.yul\":15573:15576   */\n      dup3\n        /* \"#utility.yul\":15484:15577   */\n      tag_244\n      jump\t// in\n    tag_411:\n        /* \"#utility.yul\":15602:15604   */\n      0x20\n        /* \"#utility.yul\":15597:15600   */\n      dup3\n        /* \"#utility.yul\":15593:15605   */\n      add\n        /* \"#utility.yul\":15586:15605   */\n      swap1\n      pop\n        /* \"#utility.yul\":15245:15611   */\n      swap2\n      swap1\n      pop\n      jump\t// out\n        /* \"#utility.yul\":15617:16036   */\n    tag_90:\n        /* \"#utility.yul\":15783:15787   */\n      0x00\n        /* \"#utility.yul\":15821:15823   */\n      0x20\n        /* \"#utility.yul\":15810:15819   */\n      dup3\n        /* \"#utility.yul\":15806:15824   */\n      add\n        /* \"#utility.yul\":15798:15824   */\n      swap1\n      pop\n        /* \"#utility.yul\":15870:15879   */\n      dup2\n        /* \"#utility.yul\":15864:15868   */\n      dup2\n        /* \"#utility.yul\":15860:15880   */\n      sub\n        /* \"#utility.yul\":15856:15857   */\n      0x00\n        /* \"#utility.yul\":15845:15854   */\n      dup4\n        /* \"#utility.yul\":15841:15858   */\n      add\n        /* \"#utility.yul\":15834:15881   */\n      mstore\n        /* \"#utility.yul\":15898:16029   */\n      tag_413\n        /* \"#utility.yul\":16024:16028   */\n      dup2\n        /* \"#utility.yul\":15898:16029   */\n      tag_245\n      jump\t// in\n    tag_413:\n        /* \"#utility.yul\":15890:16029   */\n      swap1\n      pop\n        /* \"#utility.yul\":15617:16036   */\n      swap2\n      swap1\n      pop\n      jump\t// out\n        /* \"#utility.yul\":16042:16189   */\n    tag_246:\n        /* \"#utility.yul\":16143:16154   */\n      0x00\n        /* \"#utility.yul\":16180:16183   */\n      dup2\n        /* \"#utility.yul\":16165:16183   */\n      swap1\n      pop\n        /* \"#utility.yul\":16042:16189   */\n      swap3\n      swap2\n      pop\n      pop\n      jump\t// out\n        /* \"#utility.yul\":16195:16309   */\n    tag_247:\n      pop\n      jump\t// out\n        /* \"#utility.yul\":16315:16713   */\n    tag_248:\n        /* \"#utility.yul\":16474:16477   */\n      0x00\n        /* \"#utility.yul\":16495:16578   */\n      tag_417\n        /* \"#utility.yul\":16576:16577   */\n      0x00\n        /* \"#utility.yul\":16571:16574   */\n      dup4\n        /* \"#utility.yul\":16495:16578   */\n      tag_246\n      jump\t// in\n    tag_417:\n        /* \"#utility.yul\":16488:16578   */\n      swap2\n      pop\n        /* \"#utility.yul\":16587:16680   */\n      tag_418\n        /* \"#utility.yul\":16676:16679   */\n      dup3\n        /* \"#utility.yul\":16587:16680   */\n      tag_247\n      jump\t// in\n    tag_418:\n        /* \"#utility.yul\":16705:16706   */\n      0x00\n        /* \"#utility.yul\":16700:16703   */\n      dup3\n        /* \"#utility.yul\":16696:16707   */\n      add\n        /* \"#utility.yul\":16689:16707   */\n      swap1\n      pop\n        /* \"#utility.yul\":16315:16713   */\n      swap2\n      swap1\n      pop\n      jump\t// out\n        /* \"#utility.yul\":16719:17098   */\n    tag_100:\n        /* \"#utility.yul\":16903:16906   */\n      0x00\n        /* \"#utility.yul\":16925:17072   */\n      tag_420\n        /* \"#utility.yul\":17068:17071   */\n      dup3\n        /* \"#utility.yul\":16925:17072   */\n      tag_248\n      jump\t// in\n    tag_420:\n        /* \"#utility.yul\":16918:17072   */\n      swap2\n      pop\n        /* \"#utility.yul\":17089:17092   */\n      dup2\n        /* \"#utility.yul\":17082:17092   */\n      swap1\n      pop\n        /* \"#utility.yul\":16719:17098   */\n      swap2\n      swap1\n      pop\n      jump\t// out\n        /* \"#utility.yul\":17104:17273   */\n    tag_249:\n        /* \"#utility.yul\":17244:17265   */\n      0x455448207472616e73666572206661696c656400000000000000000000000000\n        /* \"#utility.yul\":17240:17241   */\n      0x00\n        /* \"#utility.yul\":17232:17238   */\n      dup3\n        /* \"#utility.yul\":17228:17242   */\n      add\n        /* \"#utility.yul\":17221:17266   */\n      mstore\n        /* \"#utility.yul\":17104:17273   */\n      pop\n      jump\t// out\n        /* \"#utility.yul\":17279:17645   */\n    tag_250:\n        /* \"#utility.yul\":17421:17424   */\n      0x00\n        /* \"#utility.yul\":17442:17509   */\n      tag_423\n        /* \"#utility.yul\":17506:17508   */\n      0x13\n        /* \"#utility.yul\":17501:17504   */\n      dup4\n        /* \"#utility.yul\":17442:17509   */\n      tag_236\n      jump\t// in\n    tag_423:\n        /* \"#utility.yul\":17435:17509   */\n      swap2\n      pop\n        /* \"#utility.yul\":17518:17611   */\n      tag_424\n        /* \"#utility.yul\":17607:17610   */\n      dup3\n        /* \"#utility.yul\":17518:17611   */\n      tag_249\n      jump\t// in\n    tag_424:\n        /* \"#utility.yul\":17636:17638   */\n      0x20\n        /* \"#utility.yul\":17631:17634   */\n      dup3\n        /* \"#utility.yul\":17627:17639   */\n      add\n        /* \"#utility.yul\":17620:17639   */\n      swap1\n      pop\n        /* \"#utility.yul\":17279:17645   */\n      swap2\n      swap1\n      pop\n      jump\t// out\n        /* \"#utility.yul\":17651:18070   */\n    tag_106:\n        /* \"#utility.yul\":17817:17821   */\n      0x00\n        /* \"#utility.yul\":17855:17857   */\n      0x20\n        /* \"#utility.yul\":17844:17853   */\n      dup3\n        /* \"#utility.yul\":17840:17858   */\n      add\n        /* \"#utility.yul\":17832:17858   */\n      swap1\n      pop\n        /* \"#utility.yul\":17904:17913   */\n      dup2\n        /* \"#utility.yul\":17898:17902   */\n      dup2\n        /* \"#utility.yul\":17894:17914   */\n      sub\n        /* \"#utility.yul\":17890:17891   */\n      0x00\n        /* \"#utility.yul\":17879:17888   */\n      dup4\n        /* \"#utility.yul\":17875:17892   */\n      add\n        /* \"#utility.yul\":17868:17915   */\n      mstore\n        /* \"#utility.yul\":17932:18063   */\n      tag_426\n        /* \"#utility.yul\":18058:18062   */\n      dup2\n        /* \"#utility.yul\":17932:18063   */\n      tag_250\n      jump\t// in\n    tag_426:\n        /* \"#utility.yul\":17924:18063   */\n      swap1\n      pop\n        /* \"#utility.yul\":17651:18070   */\n      swap2\n      swap1\n      pop\n      jump\t// out\n        /* \"#utility.yul\":18076:18400   */\n    tag_111:\n        /* \"#utility.yul\":18193:18197   */\n      0x00\n        /* \"#utility.yul\":18231:18233   */\n      0x40\n        /* \"#utility.yul\":18220:18229   */\n      dup3\n        /* \"#utility.yul\":18216:18234   */\n      add\n        /* \"#utility.yul\":18208:18234   */\n      swap1\n      pop\n        /* \"#utility.yul\":18244:18315   */\n      tag_428\n        /* \"#utility.yul\":18312:18313   */\n      0x00\n        /* \"#utility.yul\":18301:18310   */\n      dup4\n        /* \"#utility.yul\":18297:18314   */\n      add\n        /* \"#utility.yul\":18288:18294   */\n      dup6\n        /* \"#utility.yul\":18244:18315   */\n      tag_212\n      jump\t// in\n    tag_428:\n        /* \"#utility.yul\":18325:18393   */\n      tag_429\n        /* \"#utility.yul\":18389:18391   */\n      0x20\n        /* \"#utility.yul\":18378:18387   */\n      dup4\n        /* \"#utility.yul\":18374:18392   */\n      add\n        /* \"#utility.yul\":18365:18371   */\n      dup5\n        /* \"#utility.yul\":18325:18393   */\n      tag_221\n      jump\t// in\n    tag_429:\n        /* \"#utility.yul\":18076:18400   */\n      swap4\n      swap3\n      pop\n      pop\n      pop\n      jump\t// out\n        /* \"#utility.yul\":18406:18632   */\n    tag_251:\n        /* \"#utility.yul\":18546:18580   */\n      0x45544820746f206c6f636b206d75737420612076616c75652067726561746572\n        /* \"#utility.yul\":18542:18543   */\n      0x00\n        /* \"#utility.yul\":18534:18540   */\n      dup3\n        /* \"#utility.yul\":18530:18544   */\n      add\n        /* \"#utility.yul\":18523:18581   */\n      mstore\n        /* \"#utility.yul\":18615:18624   */\n      0x207468616e203000000000000000000000000000000000000000000000000000\n        /* \"#utility.yul\":18610:18612   */\n      0x20\n        /* \"#utility.yul\":18602:18608   */\n      dup3\n        /* \"#utility.yul\":18598:18613   */\n      add\n        /* \"#utility.yul\":18591:18625   */\n      mstore\n        /* \"#utility.yul\":18406:18632   */\n      pop\n      jump\t// out\n        /* \"#utility.yul\":18638:19004   */\n    tag_252:\n        /* \"#utility.yul\":18780:18783   */\n      0x00\n        /* \"#utility.yul\":18801:18868   */\n      tag_432\n        /* \"#utility.yul\":18865:18867   */\n      0x27\n        /* \"#utility.yul\":18860:18863   */\n      dup4\n        /* \"#utility.yul\":18801:18868   */\n      tag_236\n      jump\t// in\n    tag_432:\n        /* \"#utility.yul\":18794:18868   */\n      swap2\n      pop\n        /* \"#utility.yul\":18877:18970   */\n      tag_433\n        /* \"#utility.yul\":18966:18969   */\n      dup3\n        /* \"#utility.yul\":18877:18970   */\n      tag_251\n      jump\t// in\n    tag_433:\n        /* \"#utility.yul\":18995:18997   */\n      0x40\n        /* \"#utility.yul\":18990:18993   */\n      dup3\n        /* \"#utility.yul\":18986:18998   */\n      add\n        /* \"#utility.yul\":18979:18998   */\n      swap1\n      pop\n        /* \"#utility.yul\":18638:19004   */\n      swap2\n      swap1\n      pop\n      jump\t// out\n        /* \"#utility.yul\":19010:19429   */\n    tag_119:\n        /* \"#utility.yul\":19176:19180   */\n      0x00\n        /* \"#utility.yul\":19214:19216   */\n      0x20\n        /* \"#utility.yul\":19203:19212   */\n      dup3\n        /* \"#utility.yul\":19199:19217   */\n      add\n        /* \"#utility.yul\":19191:19217   */\n      swap1\n      pop\n        /* \"#utility.yul\":19263:19272   */\n      dup2\n        /* \"#utility.yul\":19257:19261   */\n      dup2\n        /* \"#utility.yul\":19253:19273   */\n      sub\n        /* \"#utility.yul\":19249:19250   */\n      0x00\n        /* \"#utility.yul\":19238:19247   */\n      dup4\n        /* \"#utility.yul\":19234:19251   */\n      add\n        /* \"#utility.yul\":19227:19274   */\n      mstore\n        /* \"#utility.yul\":19291:19422   */\n      tag_435\n        /* \"#utility.yul\":19417:19421   */\n      dup2\n        /* \"#utility.yul\":19291:19422   */\n      tag_252\n      jump\t// in\n    tag_435:\n        /* \"#utility.yul\":19283:19422   */\n      swap1\n      pop\n        /* \"#utility.yul\":19010:19429   */\n      swap2\n      swap1\n      pop\n      jump\t// out\n        /* \"#utility.yul\":19435:19662   */\n    tag_253:\n        /* \"#utility.yul\":19575:19609   */\n      0x546865206c6f636b706572696f64206d75737420626520677265617465722074\n        /* \"#utility.yul\":19571:19572   */\n      0x00\n        /* \"#utility.yul\":19563:19569   */\n      dup3\n        /* \"#utility.yul\":19559:19573   */\n      add\n        /* \"#utility.yul\":19552:19610   */\n      mstore\n        /* \"#utility.yul\":19644:19654   */\n      0x68656e207a65726f000000000000000000000000000000000000000000000000\n        /* \"#utility.yul\":19639:19641   */\n      0x20\n        /* \"#utility.yul\":19631:19637   */\n      dup3\n        /* \"#utility.yul\":19627:19642   */\n      add\n        /* \"#utility.yul\":19620:19655   */\n      mstore\n        /* \"#utility.yul\":19435:19662   */\n      pop\n      jump\t// out\n        /* \"#utility.yul\":19668:20034   */\n    tag_254:\n        /* \"#utility.yul\":19810:19813   */\n      0x00\n        /* \"#utility.yul\":19831:19898   */\n      tag_438\n        /* \"#utility.yul\":19895:19897   */\n      0x28\n        /* \"#utility.yul\":19890:19893   */\n      dup4\n        /* \"#utility.yul\":19831:19898   */\n      tag_236\n      jump\t// in\n    tag_438:\n        /* \"#utility.yul\":19824:19898   */\n      swap2\n      pop\n        /* \"#utility.yul\":19907:20000   */\n      tag_439\n        /* \"#utility.yul\":19996:19999   */\n      dup3\n        /* \"#utility.yul\":19907:20000   */\n      tag_253\n      jump\t// in\n    tag_439:\n        /* \"#utility.yul\":20025:20027   */\n      0x40\n        /* \"#utility.yul\":20020:20023   */\n      dup3\n        /* \"#utility.yul\":20016:20028   */\n      add\n        /* \"#utility.yul\":20009:20028   */\n      swap1\n      pop\n        /* \"#utility.yul\":19668:20034   */\n      swap2\n      swap1\n      pop\n      jump\t// out\n        /* \"#utility.yul\":20040:20459   */\n    tag_122:\n        /* \"#utility.yul\":20206:20210   */\n      0x00\n        /* \"#utility.yul\":20244:20246   */\n      0x20\n        /* \"#utility.yul\":20233:20242   */\n      dup3\n        /* \"#utility.yul\":20229:20247   */\n      add\n        /* \"#utility.yul\":20221:20247   */\n      swap1\n      pop\n        /* \"#utility.yul\":20293:20302   */\n      dup2\n        /* \"#utility.yul\":20287:20291   */\n      dup2\n        /* \"#utility.yul\":20283:20303   */\n      sub\n        /* \"#utility.yul\":20279:20280   */\n      0x00\n        /* \"#utility.yul\":20268:20277   */\n      dup4\n        /* \"#utility.yul\":20264:20281   */\n      add\n        /* \"#utility.yul\":20257:20304   */\n      mstore\n        /* \"#utility.yul\":20321:20452   */\n      tag_441\n        /* \"#utility.yul\":20447:20451   */\n      dup2\n        /* \"#utility.yul\":20321:20452   */\n      tag_254\n      jump\t// in\n    tag_441:\n        /* \"#utility.yul\":20313:20452   */\n      swap1\n      pop\n        /* \"#utility.yul\":20040:20459   */\n      swap2\n      swap1\n      pop\n      jump\t// out\n        /* \"#utility.yul\":20465:20656   */\n    tag_124:\n        /* \"#utility.yul\":20505:20508   */\n      0x00\n        /* \"#utility.yul\":20524:20544   */\n      tag_443\n        /* \"#utility.yul\":20542:20543   */\n      dup3\n        /* \"#utility.yul\":20524:20544   */\n      tag_211\n      jump\t// in\n    tag_443:\n        /* \"#utility.yul\":20519:20544   */\n      swap2\n      pop\n        /* \"#utility.yul\":20558:20578   */\n      tag_444\n        /* \"#utility.yul\":20576:20577   */\n      dup4\n        /* \"#utility.yul\":20558:20578   */\n      tag_211\n      jump\t// in\n    tag_444:\n        /* \"#utility.yul\":20553:20578   */\n      swap3\n      pop\n        /* \"#utility.yul\":20601:20602   */\n      dup3\n        /* \"#utility.yul\":20598:20599   */\n      dup3\n        /* \"#utility.yul\":20594:20603   */\n      add\n        /* \"#utility.yul\":20587:20603   */\n      swap1\n      pop\n        /* \"#utility.yul\":20622:20625   */\n      dup1\n        /* \"#utility.yul\":20619:20620   */\n      dup3\n        /* \"#utility.yul\":20616:20626   */\n      gt\n        /* \"#utility.yul\":20613:20649   */\n      iszero\n      tag_445\n      jumpi\n        /* \"#utility.yul\":20629:20647   */\n      tag_446\n      tag_243\n      jump\t// in\n    tag_446:\n        /* \"#utility.yul\":20613:20649   */\n    tag_445:\n        /* \"#utility.yul\":20465:20656   */\n      swap3\n      swap2\n      pop\n      pop\n      jump\t// out\n        /* \"#utility.yul\":20662:21096   */\n    tag_128:\n        /* \"#utility.yul\":20807:20811   */\n      0x00\n        /* \"#utility.yul\":20845:20847   */\n      0x60\n        /* \"#utility.yul\":20834:20843   */\n      dup3\n        /* \"#utility.yul\":20830:20848   */\n      add\n        /* \"#utility.yul\":20822:20848   */\n      swap1\n      pop\n        /* \"#utility.yul\":20858:20929   */\n      tag_448\n        /* \"#utility.yul\":20926:20927   */\n      0x00\n        /* \"#utility.yul\":20915:20924   */\n      dup4\n        /* \"#utility.yul\":20911:20928   */\n      add\n        /* \"#utility.yul\":20902:20908   */\n      dup7\n        /* \"#utility.yul\":20858:20929   */\n      tag_212\n      jump\t// in\n    tag_448:\n        /* \"#utility.yul\":20939:21007   */\n      tag_449\n        /* \"#utility.yul\":21003:21005   */\n      0x20\n        /* \"#utility.yul\":20992:21001   */\n      dup4\n        /* \"#utility.yul\":20988:21006   */\n      add\n        /* \"#utility.yul\":20979:20985   */\n      dup6\n        /* \"#utility.yul\":20939:21007   */\n      tag_221\n      jump\t// in\n    tag_449:\n        /* \"#utility.yul\":21017:21089   */\n      tag_450\n        /* \"#utility.yul\":21085:21087   */\n      0x40\n        /* \"#utility.yul\":21074:21083   */\n      dup4\n        /* \"#utility.yul\":21070:21088   */\n      add\n        /* \"#utility.yul\":21061:21067   */\n      dup5\n        /* \"#utility.yul\":21017:21089   */\n      tag_212\n      jump\t// in\n    tag_450:\n        /* \"#utility.yul\":20662:21096   */\n      swap5\n      swap4\n      pop\n      pop\n      pop\n      pop\n      jump\t// out\n        /* \"#utility.yul\":21102:21323   */\n    tag_255:\n        /* \"#utility.yul\":21242:21276   */\n      0x4d7573742070726f7669646520612076616c696420746f6b656e206164647265\n        /* \"#utility.yul\":21238:21239   */\n      0x00\n        /* \"#utility.yul\":21230:21236   */\n      dup3\n        /* \"#utility.yul\":21226:21240   */\n      add\n        /* \"#utility.yul\":21219:21277   */\n      mstore\n        /* \"#utility.yul\":21311:21315   */\n      0x7373000000000000000000000000000000000000000000000000000000000000\n        /* \"#utility.yul\":21306:21308   */\n      0x20\n        /* \"#utility.yul\":21298:21304   */\n      dup3\n        /* \"#utility.yul\":21294:21309   */\n      add\n        /* \"#utility.yul\":21287:21316   */\n      mstore\n        /* \"#utility.yul\":21102:21323   */\n      pop\n      jump\t// out\n        /* \"#utility.yul\":21329:21695   */\n    tag_256:\n        /* \"#utility.yul\":21471:21474   */\n      0x00\n        /* \"#utility.yul\":21492:21559   */\n      tag_453\n        /* \"#utility.yul\":21556:21558   */\n      0x22\n        /* \"#utility.yul\":21551:21554   */\n      dup4\n        /* \"#utility.yul\":21492:21559   */\n      tag_236\n      jump\t// in\n    tag_453:\n        /* \"#utility.yul\":21485:21559   */\n      swap2\n      pop\n        /* \"#utility.yul\":21568:21661   */\n      tag_454\n        /* \"#utility.yul\":21657:21660   */\n      dup3\n        /* \"#utility.yul\":21568:21661   */\n      tag_255\n      jump\t// in\n    tag_454:\n        /* \"#utility.yul\":21686:21688   */\n      0x40\n        /* \"#utility.yul\":21681:21684   */\n      dup3\n        /* \"#utility.yul\":21677:21689   */\n      add\n        /* \"#utility.yul\":21670:21689   */\n      swap1\n      pop\n        /* \"#utility.yul\":21329:21695   */\n      swap2\n      swap1\n      pop\n      jump\t// out\n        /* \"#utility.yul\":21701:22120   */\n    tag_135:\n        /* \"#utility.yul\":21867:21871   */\n      0x00\n        /* \"#utility.yul\":21905:21907   */\n      0x20\n        /* \"#utility.yul\":21894:21903   */\n      dup3\n        /* \"#utility.yul\":21890:21908   */\n      add\n        /* \"#utility.yul\":21882:21908   */\n      swap1\n      pop\n        /* \"#utility.yul\":21954:21963   */\n      dup2\n        /* \"#utility.yul\":21948:21952   */\n      dup2\n        /* \"#utility.yul\":21944:21964   */\n      sub\n        /* \"#utility.yul\":21940:21941   */\n      0x00\n        /* \"#utility.yul\":21929:21938   */\n      dup4\n        /* \"#utility.yul\":21925:21942   */\n      add\n        /* \"#utility.yul\":21918:21965   */\n      mstore\n        /* \"#utility.yul\":21982:22113   */\n      tag_456\n        /* \"#utility.yul\":22108:22112   */\n      dup2\n        /* \"#utility.yul\":21982:22113   */\n      tag_256\n      jump\t// in\n    tag_456:\n        /* \"#utility.yul\":21974:22113   */\n      swap1\n      pop\n        /* \"#utility.yul\":21701:22120   */\n      swap2\n      swap1\n      pop\n      jump\t// out\n        /* \"#utility.yul\":22126:22351   */\n    tag_257:\n        /* \"#utility.yul\":22266:22300   */\n      0x546f6b656e20616d6f756e74206d757374206265206772656174657220746865\n        /* \"#utility.yul\":22262:22263   */\n      0x00\n        /* \"#utility.yul\":22254:22260   */\n      dup3\n        /* \"#utility.yul\":22250:22264   */\n      add\n        /* \"#utility.yul\":22243:22301   */\n      mstore\n        /* \"#utility.yul\":22335:22343   */\n      0x6e207a65726f0000000000000000000000000000000000000000000000000000\n        /* \"#utility.yul\":22330:22332   */\n      0x20\n        /* \"#utility.yul\":22322:22328   */\n      dup3\n        /* \"#utility.yul\":22318:22333   */\n      add\n        /* \"#utility.yul\":22311:22344   */\n      mstore\n        /* \"#utility.yul\":22126:22351   */\n      pop\n      jump\t// out\n        /* \"#utility.yul\":22357:22723   */\n    tag_258:\n        /* \"#utility.yul\":22499:22502   */\n      0x00\n        /* \"#utility.yul\":22520:22587   */\n      tag_459\n        /* \"#utility.yul\":22584:22586   */\n      0x26\n        /* \"#utility.yul\":22579:22582   */\n      dup4\n        /* \"#utility.yul\":22520:22587   */\n      tag_236\n      jump\t// in\n    tag_459:\n        /* \"#utility.yul\":22513:22587   */\n      swap2\n      pop\n        /* \"#utility.yul\":22596:22689   */\n      tag_460\n        /* \"#utility.yul\":22685:22688   */\n      dup3\n        /* \"#utility.yul\":22596:22689   */\n      tag_257\n      jump\t// in\n    tag_460:\n        /* \"#utility.yul\":22714:22716   */\n      0x40\n        /* \"#utility.yul\":22709:22712   */\n      dup3\n        /* \"#utility.yul\":22705:22717   */\n      add\n        /* \"#utility.yul\":22698:22717   */\n      swap1\n      pop\n        /* \"#utility.yul\":22357:22723   */\n      swap2\n      swap1\n      pop\n      jump\t// out\n        /* \"#utility.yul\":22729:23148   */\n    tag_138:\n        /* \"#utility.yul\":22895:22899   */\n      0x00\n        /* \"#utility.yul\":22933:22935   */\n      0x20\n        /* \"#utility.yul\":22922:22931   */\n      dup3\n        /* \"#utility.yul\":22918:22936   */\n      add\n        /* \"#utility.yul\":22910:22936   */\n      swap1\n      pop\n        /* \"#utility.yul\":22982:22991   */\n      dup2\n        /* \"#utility.yul\":22976:22980   */\n      dup2\n        /* \"#utility.yul\":22972:22992   */\n      sub\n        /* \"#utility.yul\":22968:22969   */\n      0x00\n        /* \"#utility.yul\":22957:22966   */\n      dup4\n        /* \"#utility.yul\":22953:22970   */\n      add\n        /* \"#utility.yul\":22946:22993   */\n      mstore\n        /* \"#utility.yul\":23010:23141   */\n      tag_462\n        /* \"#utility.yul\":23136:23140   */\n      dup2\n        /* \"#utility.yul\":23010:23141   */\n      tag_258\n      jump\t// in\n    tag_462:\n        /* \"#utility.yul\":23002:23141   */\n      swap1\n      pop\n        /* \"#utility.yul\":22729:23148   */\n      swap2\n      swap1\n      pop\n      jump\t// out\n        /* \"#utility.yul\":23154:23382   */\n    tag_259:\n        /* \"#utility.yul\":23294:23328   */\n      0x546865206c6f636b20706572696f64206d757374206265206772656174657220\n        /* \"#utility.yul\":23290:23291   */\n      0x00\n        /* \"#utility.yul\":23282:23288   */\n      dup3\n        /* \"#utility.yul\":23278:23292   */\n      add\n        /* \"#utility.yul\":23271:23329   */\n      mstore\n        /* \"#utility.yul\":23363:23374   */\n      0x7468656e207a65726f0000000000000000000000000000000000000000000000\n        /* \"#utility.yul\":23358:23360   */\n      0x20\n        /* \"#utility.yul\":23350:23356   */\n      dup3\n        /* \"#utility.yul\":23346:23361   */\n      add\n        /* \"#utility.yul\":23339:23375   */\n      mstore\n        /* \"#utility.yul\":23154:23382   */\n      pop\n      jump\t// out\n        /* \"#utility.yul\":23388:23754   */\n    tag_260:\n        /* \"#utility.yul\":23530:23533   */\n      0x00\n        /* \"#utility.yul\":23551:23618   */\n      tag_465\n        /* \"#utility.yul\":23615:23617   */\n      0x29\n        /* \"#utility.yul\":23610:23613   */\n      dup4\n        /* \"#utility.yul\":23551:23618   */\n      tag_236\n      jump\t// in\n    tag_465:\n        /* \"#utility.yul\":23544:23618   */\n      swap2\n      pop\n        /* \"#utility.yul\":23627:23720   */\n      tag_466\n        /* \"#utility.yul\":23716:23719   */\n      dup3\n        /* \"#utility.yul\":23627:23720   */\n      tag_259\n      jump\t// in\n    tag_466:\n        /* \"#utility.yul\":23745:23747   */\n      0x40\n        /* \"#utility.yul\":23740:23743   */\n      dup3\n        /* \"#utility.yul\":23736:23748   */\n      add\n        /* \"#utility.yul\":23729:23748   */\n      swap1\n      pop\n        /* \"#utility.yul\":23388:23754   */\n      swap2\n      swap1\n      pop\n      jump\t// out\n        /* \"#utility.yul\":23760:24179   */\n    tag_141:\n        /* \"#utility.yul\":23926:23930   */\n      0x00\n        /* \"#utility.yul\":23964:23966   */\n      0x20\n        /* \"#utility.yul\":23953:23962   */\n      dup3\n        /* \"#utility.yul\":23949:23967   */\n      add\n        /* \"#utility.yul\":23941:23967   */\n      swap1\n      pop\n        /* \"#utility.yul\":24013:24022   */\n      dup2\n        /* \"#utility.yul\":24007:24011   */\n      dup2\n        /* \"#utility.yul\":24003:24023   */\n      sub\n        /* \"#utility.yul\":23999:24000   */\n      0x00\n        /* \"#utility.yul\":23988:23997   */\n      dup4\n        /* \"#utility.yul\":23984:24001   */\n      add\n        /* \"#utility.yul\":23977:24024   */\n      mstore\n        /* \"#utility.yul\":24041:24172   */\n      tag_468\n        /* \"#utility.yul\":24167:24171   */\n      dup2\n        /* \"#utility.yul\":24041:24172   */\n      tag_260\n      jump\t// in\n    tag_468:\n        /* \"#utility.yul\":24033:24172   */\n      swap1\n      pop\n        /* \"#utility.yul\":23760:24179   */\n      swap2\n      swap1\n      pop\n      jump\t// out\n        /* \"#utility.yul\":24185:24360   */\n    tag_261:\n        /* \"#utility.yul\":24325:24352   */\n      0x4e6f7420656e6f75676820746f6b656e7320746f206c6f636b00000000000000\n        /* \"#utility.yul\":24321:24322   */\n      0x00\n        /* \"#utility.yul\":24313:24319   */\n      dup3\n        /* \"#utility.yul\":24309:24323   */\n      add\n        /* \"#utility.yul\":24302:24353   */\n      mstore\n        /* \"#utility.yul\":24185:24360   */\n      pop\n      jump\t// out\n        /* \"#utility.yul\":24366:24732   */\n    tag_262:\n        /* \"#utility.yul\":24508:24511   */\n      0x00\n        /* \"#utility.yul\":24529:24596   */\n      tag_471\n        /* \"#utility.yul\":24593:24595   */\n      0x19\n        /* \"#utility.yul\":24588:24591   */\n      dup4\n        /* \"#utility.yul\":24529:24596   */\n      tag_236\n      jump\t// in\n    tag_471:\n        /* \"#utility.yul\":24522:24596   */\n      swap2\n      pop\n        /* \"#utility.yul\":24605:24698   */\n      tag_472\n        /* \"#utility.yul\":24694:24697   */\n      dup3\n        /* \"#utility.yul\":24605:24698   */\n      tag_261\n      jump\t// in\n    tag_472:\n        /* \"#utility.yul\":24723:24725   */\n      0x20\n        /* \"#utility.yul\":24718:24721   */\n      dup3\n        /* \"#utility.yul\":24714:24726   */\n      add\n        /* \"#utility.yul\":24707:24726   */\n      swap1\n      pop\n        /* \"#utility.yul\":24366:24732   */\n      swap2\n      swap1\n      pop\n      jump\t// out\n        /* \"#utility.yul\":24738:25157   */\n    tag_148:\n        /* \"#utility.yul\":24904:24908   */\n      0x00\n        /* \"#utility.yul\":24942:24944   */\n      0x20\n        /* \"#utility.yul\":24931:24940   */\n      dup3\n        /* \"#utility.yul\":24927:24945   */\n      add\n        /* \"#utility.yul\":24919:24945   */\n      swap1\n      pop\n        /* \"#utility.yul\":24991:25000   */\n      dup2\n        /* \"#utility.yul\":24985:24989   */\n      dup2\n        /* \"#utility.yul\":24981:25001   */\n      sub\n        /* \"#utility.yul\":24977:24978   */\n      0x00\n        /* \"#utility.yul\":24966:24975   */\n      dup4\n        /* \"#utility.yul\":24962:24979   */\n      add\n        /* \"#utility.yul\":24955:25002   */\n      mstore\n        /* \"#utility.yul\":25019:25150   */\n      tag_474\n        /* \"#utility.yul\":25145:25149   */\n      dup2\n        /* \"#utility.yul\":25019:25150   */\n      tag_262\n      jump\t// in\n    tag_474:\n        /* \"#utility.yul\":25011:25150   */\n      swap1\n      pop\n        /* \"#utility.yul\":24738:25157   */\n      swap2\n      swap1\n      pop\n      jump\t// out\n        /* \"#utility.yul\":25163:25495   */\n    tag_181:\n        /* \"#utility.yul\":25284:25288   */\n      0x00\n        /* \"#utility.yul\":25322:25324   */\n      0x40\n        /* \"#utility.yul\":25311:25320   */\n      dup3\n        /* \"#utility.yul\":25307:25325   */\n      add\n        /* \"#utility.yul\":25299:25325   */\n      swap1\n      pop\n        /* \"#utility.yul\":25335:25406   */\n      tag_476\n        /* \"#utility.yul\":25403:25404   */\n      0x00\n        /* \"#utility.yul\":25392:25401   */\n      dup4\n        /* \"#utility.yul\":25388:25405   */\n      add\n        /* \"#utility.yul\":25379:25385   */\n      dup6\n        /* \"#utility.yul\":25335:25406   */\n      tag_218\n      jump\t// in\n    tag_476:\n        /* \"#utility.yul\":25416:25488   */\n      tag_477\n        /* \"#utility.yul\":25484:25486   */\n      0x20\n        /* \"#utility.yul\":25473:25482   */\n      dup4\n        /* \"#utility.yul\":25469:25487   */\n      add\n        /* \"#utility.yul\":25460:25466   */\n      dup5\n        /* \"#utility.yul\":25416:25488   */\n      tag_212\n      jump\t// in\n    tag_477:\n        /* \"#utility.yul\":25163:25495   */\n      swap4\n      swap3\n      pop\n      pop\n      pop\n      jump\t// out\n        /* \"#utility.yul\":25501:25943   */\n    tag_187:\n        /* \"#utility.yul\":25650:25654   */\n      0x00\n        /* \"#utility.yul\":25688:25690   */\n      0x60\n        /* \"#utility.yul\":25677:25686   */\n      dup3\n        /* \"#utility.yul\":25673:25691   */\n      add\n        /* \"#utility.yul\":25665:25691   */\n      swap1\n      pop\n        /* \"#utility.yul\":25701:25772   */\n      tag_479\n        /* \"#utility.yul\":25769:25770   */\n      0x00\n        /* \"#utility.yul\":25758:25767   */\n      dup4\n        /* \"#utility.yul\":25754:25771   */\n      add\n        /* \"#utility.yul\":25745:25751   */\n      dup7\n        /* \"#utility.yul\":25701:25772   */\n      tag_218\n      jump\t// in\n    tag_479:\n        /* \"#utility.yul\":25782:25854   */\n      tag_480\n        /* \"#utility.yul\":25850:25852   */\n      0x20\n        /* \"#utility.yul\":25839:25848   */\n      dup4\n        /* \"#utility.yul\":25835:25853   */\n      add\n        /* \"#utility.yul\":25826:25832   */\n      dup6\n        /* \"#utility.yul\":25782:25854   */\n      tag_218\n      jump\t// in\n    tag_480:\n        /* \"#utility.yul\":25864:25936   */\n      tag_481\n        /* \"#utility.yul\":25932:25934   */\n      0x40\n        /* \"#utility.yul\":25921:25930   */\n      dup4\n        /* \"#utility.yul\":25917:25935   */\n      add\n        /* \"#utility.yul\":25908:25914   */\n      dup5\n        /* \"#utility.yul\":25864:25936   */\n      tag_212\n      jump\t// in\n    tag_481:\n        /* \"#utility.yul\":25501:25943   */\n      swap5\n      swap4\n      pop\n      pop\n      pop\n      pop\n      jump\t// out\n\n    auxdata: 0xa264697066735822122018f2b841b5826fffad3fc79a6e23f34230e1454ad8b7da3bb03faad2ccccbf2364736f6c634300081a0033\n}\n",
				"bytecode": {
					"linkReferences": {},
					"object": "608060405234801561000f575f80fd5b50335f73ffffffffffffffffffffffffffffffffffffffff168173ffffffffffffffffffffffffffffffffffffffff1603610081575f6040517f1e4fbdf7000000000000000000000000000000000000000000000000000000008152600401610078919061019d565b60405180910390fd5b6100908161009d60201b60201c565b50600180819055506101b6565b5f805f9054906101000a900473ffffffffffffffffffffffffffffffffffffffff169050815f806101000a81548173ffffffffffffffffffffffffffffffffffffffff021916908373ffffffffffffffffffffffffffffffffffffffff1602179055508173ffffffffffffffffffffffffffffffffffffffff168173ffffffffffffffffffffffffffffffffffffffff167f8be0079c531659141344cd1fd0a4f28419497f9722a3daafe3b4186f6b6457e060405160405180910390a35050565b5f73ffffffffffffffffffffffffffffffffffffffff82169050919050565b5f6101878261015e565b9050919050565b6101978161017d565b82525050565b5f6020820190506101b05f83018461018e565b92915050565b611fd7806101c35f395ff3fe608060405260043610610090575f3560e01c80638c89a0ad116100585780638c89a0ad146101525780638da5cb5b1461017c578063a0ffe2ba146101a6578063f2fde38b146101e7578063f504b0a41461020f57610090565b806314205e28146100945780633fcbb6ac146100d05780634ae39e3e146100f85780635c41ed7c14610114578063715018a61461013c575b5f80fd5b34801561009f575f80fd5b506100ba60048036038101906100b59190611395565b610239565b6040516100c791906113d8565b60405180910390f35b3480156100db575f80fd5b506100f660048036038101906100f1919061141b565b6102b9565b005b610112600480360381019061010d919061148f565b610714565b005b34801561011f575f80fd5b5061013a600480360381019061013591906114cd565b61097c565b005b348015610147575f80fd5b50610150610d3f565b005b34801561015d575f80fd5b50610166610d52565b60405161017391906113d8565b60405180910390f35b348015610187575f80fd5b50610190610d59565b60405161019d9190611540565b60405180910390f35b3480156101b1575f80fd5b506101cc60048036038101906101c79190611583565b610d80565b6040516101de969594939291906115ea565b60405180910390f35b3480156101f2575f80fd5b5061020d60048036038101906102089190611649565b610e17565b005b34801561021a575f80fd5b50610223610e9b565b60405161023091906117d1565b60405180910390f35b5f8173ffffffffffffffffffffffffffffffffffffffff166370a08231306040518263ffffffff1660e01b81526004016102739190611540565b602060405180830381865afa15801561028e573d5f803e3d5ffd5b505050506040513d601f19601f820116820180604052508101906102b29190611805565b9050919050565b6102c1610fec565b60025f3373ffffffffffffffffffffffffffffffffffffffff1673ffffffffffffffffffffffffffffffffffffffff1681526020019081526020015f20805490508210610343576040517f08c379a000000000000000000000000000000000000000000000000000000000815260040161033a906118b0565b60405180910390fd5b5f60025f3373ffffffffffffffffffffffffffffffffffffffff1673ffffffffffffffffffffffffffffffffffffffff1681526020019081526020015f208381548110610393576103926118ce565b5b905f5260205f20906004020190508060030160019054906101000a900460ff16156103f3576040517f08c379a00000000000000000000000000000000000000000000000000000000081526004016103ea9061196b565b60405180910390fd5b80600201544211610439576040517f08c379a0000000000000000000000000000000000000000000000000000000008152600401610430906119f9565b60405180910390fd5b5f82826001015461044a9190611a44565b90505f81101561048f576040517f08c379a000000000000000000000000000000000000000000000000000000000815260040161048690611ac1565b60405180910390fd5b5f810361050e57600160025f3373ffffffffffffffffffffffffffffffffffffffff1673ffffffffffffffffffffffffffffffffffffffff1681526020019081526020015f2085815481106104e7576104e66118ce565b5b905f5260205f20906004020160030160016101000a81548160ff0219169083151502179055505b8060025f3373ffffffffffffffffffffffffffffffffffffffff1673ffffffffffffffffffffffffffffffffffffffff1681526020019081526020015f20858154811061055e5761055d6118ce565b5b905f5260205f209060040201600101819055508160030160029054906101000a900460ff1615610636575f3373ffffffffffffffffffffffffffffffffffffffff16846040516105ad90611b0c565b5f6040518083038185875af1925050503d805f81146105e7576040519150601f19603f3d011682016040523d82523d5f602084013e6105ec565b606091505b5050905080610630576040517f08c379a000000000000000000000000000000000000000000000000000000000815260040161062790611b6a565b60405180910390fd5b50610684565b6106833384845f015f9054906101000a900473ffffffffffffffffffffffffffffffffffffffff1673ffffffffffffffffffffffffffffffffffffffff166110329092919063ffffffff16565b5b815f015f9054906101000a900473ffffffffffffffffffffffffffffffffffffffff1673ffffffffffffffffffffffffffffffffffffffff167fc609bb1b9c1bfb64d61dbdff01ddbdc74ec1a868f724ceb4991148740c7e423c84846003015f9054906101000a900460ff166040516106fe929190611b88565b60405180910390a250506107106110b1565b5050565b61071c610fec565b5f341161075e576040517f08c379a000000000000000000000000000000000000000000000000000000000815260040161075590611c1f565b60405180910390fd5b5f81116107a0576040517f08c379a000000000000000000000000000000000000000000000000000000000815260040161079790611cad565b60405180910390fd5b60025f3373ffffffffffffffffffffffffffffffffffffffff1673ffffffffffffffffffffffffffffffffffffffff1681526020019081526020015f206040518060c001604052805f73ffffffffffffffffffffffffffffffffffffffff16815260200134815260200183426108169190611ccb565b81526020018460ff1681526020015f1515815260200160011515815250908060018154018082558091505060019003905f5260205f2090600402015f909190919091505f820151815f015f6101000a81548173ffffffffffffffffffffffffffffffffffffffff021916908373ffffffffffffffffffffffffffffffffffffffff16021790555060208201518160010155604082015181600201556060820151816003015f6101000a81548160ff021916908360ff16021790555060808201518160030160016101000a81548160ff02191690831515021790555060a08201518160030160026101000a81548160ff02191690831515021790555050505f73ffffffffffffffffffffffffffffffffffffffff167f93e2e96397ee6091fadabbe37102770c2ed73784ac2b17d1de3d8afcb368ea41348484426109599190611ccb565b60405161096893929190611cfe565b60405180910390a26109786110b1565b5050565b610984610fec565b5f73ffffffffffffffffffffffffffffffffffffffff168473ffffffffffffffffffffffffffffffffffffffff16036109f2576040517f08c379a00000000000000000000000000000000000000000000000000000000081526004016109e990611da3565b60405180910390fd5b5f8311610a34576040517f08c379a0000000000000000000000000000000000000000000000000000000008152600401610a2b90611e31565b60405180910390fd5b5f8111610a76576040517f08c379a0000000000000000000000000000000000000000000000000000000008152600401610a6d90611ebf565b60405180910390fd5b5f8473ffffffffffffffffffffffffffffffffffffffff166370a08231336040518263ffffffff1660e01b8152600401610ab09190611540565b602060405180830381865afa158015610acb573d5f803e3d5ffd5b505050506040513d601f19601f82011682018060405250810190610aef9190611805565b905080841115610b34576040517f08c379a0000000000000000000000000000000000000000000000000000000008152600401610b2b90611f27565b60405180910390fd5b610b613330868873ffffffffffffffffffffffffffffffffffffffff166110ba909392919063ffffffff16565b60025f3373ffffffffffffffffffffffffffffffffffffffff1673ffffffffffffffffffffffffffffffffffffffff1681526020019081526020015f206040518060c001604052808773ffffffffffffffffffffffffffffffffffffffff1681526020018681526020018442610bd79190611ccb565b81526020018560ff1681526020015f151581526020015f1515815250908060018154018082558091505060019003905f5260205f2090600402015f909190919091505f820151815f015f6101000a81548173ffffffffffffffffffffffffffffffffffffffff021916908373ffffffffffffffffffffffffffffffffffffffff16021790555060208201518160010155604082015181600201556060820151816003015f6101000a81548160ff021916908360ff16021790555060808201518160030160016101000a81548160ff02191690831515021790555060a08201518160030160026101000a81548160ff02191690831515021790555050508473ffffffffffffffffffffffffffffffffffffffff167f93e2e96397ee6091fadabbe37102770c2ed73784ac2b17d1de3d8afcb368ea4185858542610d199190611ccb565b604051610d2893929190611cfe565b60405180910390a250610d396110b1565b50505050565b610d4761113c565b610d505f6111c3565b565b5f47905090565b5f805f9054906101000a900473ffffffffffffffffffffffffffffffffffffffff16905090565b6002602052815f5260405f208181548110610d99575f80fd5b905f5260205f2090600402015f9150915050805f015f9054906101000a900473ffffffffffffffffffffffffffffffffffffffff1690806001015490806002015490806003015f9054906101000a900460ff16908060030160019054906101000a900460ff16908060030160029054906101000a900460ff16905086565b610e1f61113c565b5f73ffffffffffffffffffffffffffffffffffffffff168173ffffffffffffffffffffffffffffffffffffffff1603610e8f575f6040517f1e4fbdf7000000000000000000000000000000000000000000000000000000008152600401610e869190611540565b60405180910390fd5b610e98816111c3565b50565b606060025f3373ffffffffffffffffffffffffffffffffffffffff1673ffffffffffffffffffffffffffffffffffffffff1681526020019081526020015f20805480602002602001604051908101604052809291908181526020015f905b82821015610fe3578382905f5260205f2090600402016040518060c00160405290815f82015f9054906101000a900473ffffffffffffffffffffffffffffffffffffffff1673ffffffffffffffffffffffffffffffffffffffff1673ffffffffffffffffffffffffffffffffffffffff1681526020016001820154815260200160028201548152602001600382015f9054906101000a900460ff1660ff1660ff1681526020016003820160019054906101000a900460ff161515151581526020016003820160029054906101000a900460ff16151515158152505081526020019060010190610ef9565b50505050905090565b600260015403611028576040517f3ee5aeb500000000000000000000000000000000000000000000000000000000815260040160405180910390fd5b6002600181905550565b6110ac838473ffffffffffffffffffffffffffffffffffffffff1663a9059cbb8585604051602401611065929190611f45565b604051602081830303815290604052915060e01b6020820180517bffffffffffffffffffffffffffffffffffffffffffffffffffffffff8381831617835250505050611284565b505050565b60018081905550565b611136848573ffffffffffffffffffffffffffffffffffffffff166323b872dd8686866040516024016110ef93929190611f6c565b604051602081830303815290604052915060e01b6020820180517bffffffffffffffffffffffffffffffffffffffffffffffffffffffff8381831617835250505050611284565b50505050565b61114461131f565b73ffffffffffffffffffffffffffffffffffffffff16611162610d59565b73ffffffffffffffffffffffffffffffffffffffff16146111c15761118561131f565b6040517f118cdaa70000000000000000000000000000000000000000000000000000000081526004016111b89190611540565b60405180910390fd5b565b5f805f9054906101000a900473ffffffffffffffffffffffffffffffffffffffff169050815f806101000a81548173ffffffffffffffffffffffffffffffffffffffff021916908373ffffffffffffffffffffffffffffffffffffffff1602179055508173ffffffffffffffffffffffffffffffffffffffff168173ffffffffffffffffffffffffffffffffffffffff167f8be0079c531659141344cd1fd0a4f28419497f9722a3daafe3b4186f6b6457e060405160405180910390a35050565b5f8060205f8451602086015f885af1806112a3576040513d5f823e3d81fd5b3d92505f519150505f82146112bc5760018114156112d7565b5f8473ffffffffffffffffffffffffffffffffffffffff163b145b1561131957836040517f5274afe70000000000000000000000000000000000000000000000000000000081526004016113109190611540565b60405180910390fd5b50505050565b5f33905090565b5f80fd5b5f73ffffffffffffffffffffffffffffffffffffffff82169050919050565b5f6113538261132a565b9050919050565b5f61136482611349565b9050919050565b6113748161135a565b811461137e575f80fd5b50565b5f8135905061138f8161136b565b92915050565b5f602082840312156113aa576113a9611326565b5b5f6113b784828501611381565b91505092915050565b5f819050919050565b6113d2816113c0565b82525050565b5f6020820190506113eb5f8301846113c9565b92915050565b6113fa816113c0565b8114611404575f80fd5b50565b5f81359050611415816113f1565b92915050565b5f806040838503121561143157611430611326565b5b5f61143e85828601611407565b925050602061144f85828601611407565b9150509250929050565b5f60ff82169050919050565b61146e81611459565b8114611478575f80fd5b50565b5f8135905061148981611465565b92915050565b5f80604083850312156114a5576114a4611326565b5b5f6114b28582860161147b565b92505060206114c385828601611407565b9150509250929050565b5f805f80608085870312156114e5576114e4611326565b5b5f6114f287828801611381565b945050602061150387828801611407565b93505060406115148782880161147b565b925050606061152587828801611407565b91505092959194509250565b61153a81611349565b82525050565b5f6020820190506115535f830184611531565b92915050565b61156281611349565b811461156c575f80fd5b50565b5f8135905061157d81611559565b92915050565b5f806040838503121561159957611598611326565b5b5f6115a68582860161156f565b92505060206115b785828601611407565b9150509250929050565b6115ca81611459565b82525050565b5f8115159050919050565b6115e4816115d0565b82525050565b5f60c0820190506115fd5f830189611531565b61160a60208301886113c9565b61161760408301876113c9565b61162460608301866115c1565b61163160808301856115db565b61163e60a08301846115db565b979650505050505050565b5f6020828403121561165e5761165d611326565b5b5f61166b8482850161156f565b91505092915050565b5f81519050919050565b5f82825260208201905092915050565b5f819050602082019050919050565b6116a681611349565b82525050565b6116b5816113c0565b82525050565b6116c481611459565b82525050565b6116d3816115d0565b82525050565b60c082015f8201516116ed5f85018261169d565b50602082015161170060208501826116ac565b50604082015161171360408501826116ac565b50606082015161172660608501826116bb565b50608082015161173960808501826116ca565b5060a082015161174c60a08501826116ca565b50505050565b5f61175d83836116d9565b60c08301905092915050565b5f602082019050919050565b5f61177f82611674565b611789818561167e565b93506117948361168e565b805f5b838110156117c45781516117ab8882611752565b97506117b683611769565b925050600181019050611797565b5085935050505092915050565b5f6020820190508181035f8301526117e98184611775565b905092915050565b5f815190506117ff816113f1565b92915050565b5f6020828403121561181a57611819611326565b5b5f611827848285016117f1565b91505092915050565b5f82825260208201905092915050565b7f5468652073706563696669656420617373657420494420697320696e76616c695f8201527f642e000000000000000000000000000000000000000000000000000000000000602082015250565b5f61189a602283611830565b91506118a582611840565b604082019050919050565b5f6020820190508181035f8301526118c78161188e565b9050919050565b7f4e487b71000000000000000000000000000000000000000000000000000000005f52603260045260245ffd5b7f417373657473206861766520616c7265616479206265656e20776974686472615f8201527f776e210000000000000000000000000000000000000000000000000000000000602082015250565b5f611955602383611830565b9150611960826118fb565b604082019050919050565b5f6020820190508181035f83015261198281611949565b9050919050565b7f546865206c6f636b20706572696f6420686173206e6f742079657420657870695f8201527f7265642100000000000000000000000000000000000000000000000000000000602082015250565b5f6119e3602483611830565b91506119ee82611989565b604082019050919050565b5f6020820190508181035f830152611a10816119d7565b9050919050565b7f4e487b71000000000000000000000000000000000000000000000000000000005f52601160045260245ffd5b5f611a4e826113c0565b9150611a59836113c0565b9250828203905081811115611a7157611a70611a17565b5b92915050565b7f4e6f7420656e6f7567682061737365747320746f2077697468647261772100005f82015250565b5f611aab601e83611830565b9150611ab682611a77565b602082019050919050565b5f6020820190508181035f830152611ad881611a9f565b9050919050565b5f81905092915050565b50565b5f611af75f83611adf565b9150611b0282611ae9565b5f82019050919050565b5f611b1682611aec565b9150819050919050565b7f455448207472616e73666572206661696c6564000000000000000000000000005f82015250565b5f611b54601383611830565b9150611b5f82611b20565b602082019050919050565b5f6020820190508181035f830152611b8181611b48565b9050919050565b5f604082019050611b9b5f8301856113c9565b611ba860208301846115c1565b9392505050565b7f45544820746f206c6f636b206d75737420612076616c756520677265617465725f8201527f207468616e203000000000000000000000000000000000000000000000000000602082015250565b5f611c09602783611830565b9150611c1482611baf565b604082019050919050565b5f6020820190508181035f830152611c3681611bfd565b9050919050565b7f546865206c6f636b706572696f64206d757374206265206772656174657220745f8201527f68656e207a65726f000000000000000000000000000000000000000000000000602082015250565b5f611c97602883611830565b9150611ca282611c3d565b604082019050919050565b5f6020820190508181035f830152611cc481611c8b565b9050919050565b5f611cd5826113c0565b9150611ce0836113c0565b9250828201905080821115611cf857611cf7611a17565b5b92915050565b5f606082019050611d115f8301866113c9565b611d1e60208301856115c1565b611d2b60408301846113c9565b949350505050565b7f4d7573742070726f7669646520612076616c696420746f6b656e2061646472655f8201527f7373000000000000000000000000000000000000000000000000000000000000602082015250565b5f611d8d602283611830565b9150611d9882611d33565b604082019050919050565b5f6020820190508181035f830152611dba81611d81565b9050919050565b7f546f6b656e20616d6f756e74206d7573742062652067726561746572207468655f8201527f6e207a65726f0000000000000000000000000000000000000000000000000000602082015250565b5f611e1b602683611830565b9150611e2682611dc1565b604082019050919050565b5f6020820190508181035f830152611e4881611e0f565b9050919050565b7f546865206c6f636b20706572696f64206d7573742062652067726561746572205f8201527f7468656e207a65726f0000000000000000000000000000000000000000000000602082015250565b5f611ea9602983611830565b9150611eb482611e4f565b604082019050919050565b5f6020820190508181035f830152611ed681611e9d565b9050919050565b7f4e6f7420656e6f75676820746f6b656e7320746f206c6f636b000000000000005f82015250565b5f611f11601983611830565b9150611f1c82611edd565b602082019050919050565b5f6020820190508181035f830152611f3e81611f05565b9050919050565b5f604082019050611f585f830185611531565b611f6560208301846113c9565b9392505050565b5f606082019050611f7f5f830186611531565b611f8c6020830185611531565b611f9960408301846113c9565b94935050505056fea264697066735822122018f2b841b5826fffad3fc79a6e23f34230e1454ad8b7da3bb03faad2ccccbf2364736f6c634300081a0033",
					"opcodes": "PUSH1 0x80 PUSH1 0x40 MSTORE CALLVALUE DUP1 ISZERO PUSH2 0xF JUMPI PUSH0 DUP1 REVERT JUMPDEST POP CALLER PUSH0 PUSH20 0xFFFFFFFFFFFFFFFFFFFFFFFFFFFFFFFFFFFFFFFF AND DUP2 PUSH20 0xFFFFFFFFFFFFFFFFFFFFFFFFFFFFFFFFFFFFFFFF AND SUB PUSH2 0x81 JUMPI PUSH0 PUSH1 0x40 MLOAD PUSH32 0x1E4FBDF700000000000000000000000000000000000000000000000000000000 DUP2 MSTORE PUSH1 0x4 ADD PUSH2 0x78 SWAP2 SWAP1 PUSH2 0x19D JUMP JUMPDEST PUSH1 0x40 MLOAD DUP1 SWAP2 SUB SWAP1 REVERT JUMPDEST PUSH2 0x90 DUP2 PUSH2 0x9D PUSH1 0x20 SHL PUSH1 0x20 SHR JUMP JUMPDEST POP PUSH1 0x1 DUP1 DUP2 SWAP1 SSTORE POP PUSH2 0x1B6 JUMP JUMPDEST PUSH0 DUP1 PUSH0 SWAP1 SLOAD SWAP1 PUSH2 0x100 EXP SWAP1 DIV PUSH20 0xFFFFFFFFFFFFFFFFFFFFFFFFFFFFFFFFFFFFFFFF AND SWAP1 POP DUP2 PUSH0 DUP1 PUSH2 0x100 EXP DUP2 SLOAD DUP2 PUSH20 0xFFFFFFFFFFFFFFFFFFFFFFFFFFFFFFFFFFFFFFFF MUL NOT AND SWAP1 DUP4 PUSH20 0xFFFFFFFFFFFFFFFFFFFFFFFFFFFFFFFFFFFFFFFF AND MUL OR SWAP1 SSTORE POP DUP2 PUSH20 0xFFFFFFFFFFFFFFFFFFFFFFFFFFFFFFFFFFFFFFFF AND DUP2 PUSH20 0xFFFFFFFFFFFFFFFFFFFFFFFFFFFFFFFFFFFFFFFF AND PUSH32 0x8BE0079C531659141344CD1FD0A4F28419497F9722A3DAAFE3B4186F6B6457E0 PUSH1 0x40 MLOAD PUSH1 0x40 MLOAD DUP1 SWAP2 SUB SWAP1 LOG3 POP POP JUMP JUMPDEST PUSH0 PUSH20 0xFFFFFFFFFFFFFFFFFFFFFFFFFFFFFFFFFFFFFFFF DUP3 AND SWAP1 POP SWAP2 SWAP1 POP JUMP JUMPDEST PUSH0 PUSH2 0x187 DUP3 PUSH2 0x15E JUMP JUMPDEST SWAP1 POP SWAP2 SWAP1 POP JUMP JUMPDEST PUSH2 0x197 DUP2 PUSH2 0x17D JUMP JUMPDEST DUP3 MSTORE POP POP JUMP JUMPDEST PUSH0 PUSH1 0x20 DUP3 ADD SWAP1 POP PUSH2 0x1B0 PUSH0 DUP4 ADD DUP5 PUSH2 0x18E JUMP JUMPDEST SWAP3 SWAP2 POP POP JUMP JUMPDEST PUSH2 0x1FD7 DUP1 PUSH2 0x1C3 PUSH0 CODECOPY PUSH0 RETURN INVALID PUSH1 0x80 PUSH1 0x40 MSTORE PUSH1 0x4 CALLDATASIZE LT PUSH2 0x90 JUMPI PUSH0 CALLDATALOAD PUSH1 0xE0 SHR DUP1 PUSH4 0x8C89A0AD GT PUSH2 0x58 JUMPI DUP1 PUSH4 0x8C89A0AD EQ PUSH2 0x152 JUMPI DUP1 PUSH4 0x8DA5CB5B EQ PUSH2 0x17C JUMPI DUP1 PUSH4 0xA0FFE2BA EQ PUSH2 0x1A6 JUMPI DUP1 PUSH4 0xF2FDE38B EQ PUSH2 0x1E7 JUMPI DUP1 PUSH4 0xF504B0A4 EQ PUSH2 0x20F JUMPI PUSH2 0x90 JUMP JUMPDEST DUP1 PUSH4 0x14205E28 EQ PUSH2 0x94 JUMPI DUP1 PUSH4 0x3FCBB6AC EQ PUSH2 0xD0 JUMPI DUP1 PUSH4 0x4AE39E3E EQ PUSH2 0xF8 JUMPI DUP1 PUSH4 0x5C41ED7C EQ PUSH2 0x114 JUMPI DUP1 PUSH4 0x715018A6 EQ PUSH2 0x13C JUMPI JUMPDEST PUSH0 DUP1 REVERT JUMPDEST CALLVALUE DUP1 ISZERO PUSH2 0x9F JUMPI PUSH0 DUP1 REVERT JUMPDEST POP PUSH2 0xBA PUSH1 0x4 DUP1 CALLDATASIZE SUB DUP2 ADD SWAP1 PUSH2 0xB5 SWAP2 SWAP1 PUSH2 0x1395 JUMP JUMPDEST PUSH2 0x239 JUMP JUMPDEST PUSH1 0x40 MLOAD PUSH2 0xC7 SWAP2 SWAP1 PUSH2 0x13D8 JUMP JUMPDEST PUSH1 0x40 MLOAD DUP1 SWAP2 SUB SWAP1 RETURN JUMPDEST CALLVALUE DUP1 ISZERO PUSH2 0xDB JUMPI PUSH0 DUP1 REVERT JUMPDEST POP PUSH2 0xF6 PUSH1 0x4 DUP1 CALLDATASIZE SUB DUP2 ADD SWAP1 PUSH2 0xF1 SWAP2 SWAP1 PUSH2 0x141B JUMP JUMPDEST PUSH2 0x2B9 JUMP JUMPDEST STOP JUMPDEST PUSH2 0x112 PUSH1 0x4 DUP1 CALLDATASIZE SUB DUP2 ADD SWAP1 PUSH2 0x10D SWAP2 SWAP1 PUSH2 0x148F JUMP JUMPDEST PUSH2 0x714 JUMP JUMPDEST STOP JUMPDEST CALLVALUE DUP1 ISZERO PUSH2 0x11F JUMPI PUSH0 DUP1 REVERT JUMPDEST POP PUSH2 0x13A PUSH1 0x4 DUP1 CALLDATASIZE SUB DUP2 ADD SWAP1 PUSH2 0x135 SWAP2 SWAP1 PUSH2 0x14CD JUMP JUMPDEST PUSH2 0x97C JUMP JUMPDEST STOP JUMPDEST CALLVALUE DUP1 ISZERO PUSH2 0x147 JUMPI PUSH0 DUP1 REVERT JUMPDEST POP PUSH2 0x150 PUSH2 0xD3F JUMP JUMPDEST STOP JUMPDEST CALLVALUE DUP1 ISZERO PUSH2 0x15D JUMPI PUSH0 DUP1 REVERT JUMPDEST POP PUSH2 0x166 PUSH2 0xD52 JUMP JUMPDEST PUSH1 0x40 MLOAD PUSH2 0x173 SWAP2 SWAP1 PUSH2 0x13D8 JUMP JUMPDEST PUSH1 0x40 MLOAD DUP1 SWAP2 SUB SWAP1 RETURN JUMPDEST CALLVALUE DUP1 ISZERO PUSH2 0x187 JUMPI PUSH0 DUP1 REVERT JUMPDEST POP PUSH2 0x190 PUSH2 0xD59 JUMP JUMPDEST PUSH1 0x40 MLOAD PUSH2 0x19D SWAP2 SWAP1 PUSH2 0x1540 JUMP JUMPDEST PUSH1 0x40 MLOAD DUP1 SWAP2 SUB SWAP1 RETURN JUMPDEST CALLVALUE DUP1 ISZERO PUSH2 0x1B1 JUMPI PUSH0 DUP1 REVERT JUMPDEST POP PUSH2 0x1CC PUSH1 0x4 DUP1 CALLDATASIZE SUB DUP2 ADD SWAP1 PUSH2 0x1C7 SWAP2 SWAP1 PUSH2 0x1583 JUMP JUMPDEST PUSH2 0xD80 JUMP JUMPDEST PUSH1 0x40 MLOAD PUSH2 0x1DE SWAP7 SWAP6 SWAP5 SWAP4 SWAP3 SWAP2 SWAP1 PUSH2 0x15EA JUMP JUMPDEST PUSH1 0x40 MLOAD DUP1 SWAP2 SUB SWAP1 RETURN JUMPDEST CALLVALUE DUP1 ISZERO PUSH2 0x1F2 JUMPI PUSH0 DUP1 REVERT JUMPDEST POP PUSH2 0x20D PUSH1 0x4 DUP1 CALLDATASIZE SUB DUP2 ADD SWAP1 PUSH2 0x208 SWAP2 SWAP1 PUSH2 0x1649 JUMP JUMPDEST PUSH2 0xE17 JUMP JUMPDEST STOP JUMPDEST CALLVALUE DUP1 ISZERO PUSH2 0x21A JUMPI PUSH0 DUP1 REVERT JUMPDEST POP PUSH2 0x223 PUSH2 0xE9B JUMP JUMPDEST PUSH1 0x40 MLOAD PUSH2 0x230 SWAP2 SWAP1 PUSH2 0x17D1 JUMP JUMPDEST PUSH1 0x40 MLOAD DUP1 SWAP2 SUB SWAP1 RETURN JUMPDEST PUSH0 DUP2 PUSH20 0xFFFFFFFFFFFFFFFFFFFFFFFFFFFFFFFFFFFFFFFF AND PUSH4 0x70A08231 ADDRESS PUSH1 0x40 MLOAD DUP3 PUSH4 0xFFFFFFFF AND PUSH1 0xE0 SHL DUP2 MSTORE PUSH1 0x4 ADD PUSH2 0x273 SWAP2 SWAP1 PUSH2 0x1540 JUMP JUMPDEST PUSH1 0x20 PUSH1 0x40 MLOAD DUP1 DUP4 SUB DUP2 DUP7 GAS STATICCALL ISZERO DUP1 ISZERO PUSH2 0x28E JUMPI RETURNDATASIZE PUSH0 DUP1 RETURNDATACOPY RETURNDATASIZE PUSH0 REVERT JUMPDEST POP POP POP POP PUSH1 0x40 MLOAD RETURNDATASIZE PUSH1 0x1F NOT PUSH1 0x1F DUP3 ADD AND DUP3 ADD DUP1 PUSH1 0x40 MSTORE POP DUP2 ADD SWAP1 PUSH2 0x2B2 SWAP2 SWAP1 PUSH2 0x1805 JUMP JUMPDEST SWAP1 POP SWAP2 SWAP1 POP JUMP JUMPDEST PUSH2 0x2C1 PUSH2 0xFEC JUMP JUMPDEST PUSH1 0x2 PUSH0 CALLER PUSH20 0xFFFFFFFFFFFFFFFFFFFFFFFFFFFFFFFFFFFFFFFF AND PUSH20 0xFFFFFFFFFFFFFFFFFFFFFFFFFFFFFFFFFFFFFFFF AND DUP2 MSTORE PUSH1 0x20 ADD SWAP1 DUP2 MSTORE PUSH1 0x20 ADD PUSH0 KECCAK256 DUP1 SLOAD SWAP1 POP DUP3 LT PUSH2 0x343 JUMPI PUSH1 0x40 MLOAD PUSH32 0x8C379A000000000000000000000000000000000000000000000000000000000 DUP2 MSTORE PUSH1 0x4 ADD PUSH2 0x33A SWAP1 PUSH2 0x18B0 JUMP JUMPDEST PUSH1 0x40 MLOAD DUP1 SWAP2 SUB SWAP1 REVERT JUMPDEST PUSH0 PUSH1 0x2 PUSH0 CALLER PUSH20 0xFFFFFFFFFFFFFFFFFFFFFFFFFFFFFFFFFFFFFFFF AND PUSH20 0xFFFFFFFFFFFFFFFFFFFFFFFFFFFFFFFFFFFFFFFF AND DUP2 MSTORE PUSH1 0x20 ADD SWAP1 DUP2 MSTORE PUSH1 0x20 ADD PUSH0 KECCAK256 DUP4 DUP2 SLOAD DUP2 LT PUSH2 0x393 JUMPI PUSH2 0x392 PUSH2 0x18CE JUMP JUMPDEST JUMPDEST SWAP1 PUSH0 MSTORE PUSH1 0x20 PUSH0 KECCAK256 SWAP1 PUSH1 0x4 MUL ADD SWAP1 POP DUP1 PUSH1 0x3 ADD PUSH1 0x1 SWAP1 SLOAD SWAP1 PUSH2 0x100 EXP SWAP1 DIV PUSH1 0xFF AND ISZERO PUSH2 0x3F3 JUMPI PUSH1 0x40 MLOAD PUSH32 0x8C379A000000000000000000000000000000000000000000000000000000000 DUP2 MSTORE PUSH1 0x4 ADD PUSH2 0x3EA SWAP1 PUSH2 0x196B JUMP JUMPDEST PUSH1 0x40 MLOAD DUP1 SWAP2 SUB SWAP1 REVERT JUMPDEST DUP1 PUSH1 0x2 ADD SLOAD TIMESTAMP GT PUSH2 0x439 JUMPI PUSH1 0x40 MLOAD PUSH32 0x8C379A000000000000000000000000000000000000000000000000000000000 DUP2 MSTORE PUSH1 0x4 ADD PUSH2 0x430 SWAP1 PUSH2 0x19F9 JUMP JUMPDEST PUSH1 0x40 MLOAD DUP1 SWAP2 SUB SWAP1 REVERT JUMPDEST PUSH0 DUP3 DUP3 PUSH1 0x1 ADD SLOAD PUSH2 0x44A SWAP2 SWAP1 PUSH2 0x1A44 JUMP JUMPDEST SWAP1 POP PUSH0 DUP2 LT ISZERO PUSH2 0x48F JUMPI PUSH1 0x40 MLOAD PUSH32 0x8C379A000000000000000000000000000000000000000000000000000000000 DUP2 MSTORE PUSH1 0x4 ADD PUSH2 0x486 SWAP1 PUSH2 0x1AC1 JUMP JUMPDEST PUSH1 0x40 MLOAD DUP1 SWAP2 SUB SWAP1 REVERT JUMPDEST PUSH0 DUP2 SUB PUSH2 0x50E JUMPI PUSH1 0x1 PUSH1 0x2 PUSH0 CALLER PUSH20 0xFFFFFFFFFFFFFFFFFFFFFFFFFFFFFFFFFFFFFFFF AND PUSH20 0xFFFFFFFFFFFFFFFFFFFFFFFFFFFFFFFFFFFFFFFF AND DUP2 MSTORE PUSH1 0x20 ADD SWAP1 DUP2 MSTORE PUSH1 0x20 ADD PUSH0 KECCAK256 DUP6 DUP2 SLOAD DUP2 LT PUSH2 0x4E7 JUMPI PUSH2 0x4E6 PUSH2 0x18CE JUMP JUMPDEST JUMPDEST SWAP1 PUSH0 MSTORE PUSH1 0x20 PUSH0 KECCAK256 SWAP1 PUSH1 0x4 MUL ADD PUSH1 0x3 ADD PUSH1 0x1 PUSH2 0x100 EXP DUP2 SLOAD DUP2 PUSH1 0xFF MUL NOT AND SWAP1 DUP4 ISZERO ISZERO MUL OR SWAP1 SSTORE POP JUMPDEST DUP1 PUSH1 0x2 PUSH0 CALLER PUSH20 0xFFFFFFFFFFFFFFFFFFFFFFFFFFFFFFFFFFFFFFFF AND PUSH20 0xFFFFFFFFFFFFFFFFFFFFFFFFFFFFFFFFFFFFFFFF AND DUP2 MSTORE PUSH1 0x20 ADD SWAP1 DUP2 MSTORE PUSH1 0x20 ADD PUSH0 KECCAK256 DUP6 DUP2 SLOAD DUP2 LT PUSH2 0x55E JUMPI PUSH2 0x55D PUSH2 0x18CE JUMP JUMPDEST JUMPDEST SWAP1 PUSH0 MSTORE PUSH1 0x20 PUSH0 KECCAK256 SWAP1 PUSH1 0x4 MUL ADD PUSH1 0x1 ADD DUP2 SWAP1 SSTORE POP DUP2 PUSH1 0x3 ADD PUSH1 0x2 SWAP1 SLOAD SWAP1 PUSH2 0x100 EXP SWAP1 DIV PUSH1 0xFF AND ISZERO PUSH2 0x636 JUMPI PUSH0 CALLER PUSH20 0xFFFFFFFFFFFFFFFFFFFFFFFFFFFFFFFFFFFFFFFF AND DUP5 PUSH1 0x40 MLOAD PUSH2 0x5AD SWAP1 PUSH2 0x1B0C JUMP JUMPDEST PUSH0 PUSH1 0x40 MLOAD DUP1 DUP4 SUB DUP2 DUP6 DUP8 GAS CALL SWAP3 POP POP POP RETURNDATASIZE DUP1 PUSH0 DUP2 EQ PUSH2 0x5E7 JUMPI PUSH1 0x40 MLOAD SWAP2 POP PUSH1 0x1F NOT PUSH1 0x3F RETURNDATASIZE ADD AND DUP3 ADD PUSH1 0x40 MSTORE RETURNDATASIZE DUP3 MSTORE RETURNDATASIZE PUSH0 PUSH1 0x20 DUP5 ADD RETURNDATACOPY PUSH2 0x5EC JUMP JUMPDEST PUSH1 0x60 SWAP2 POP JUMPDEST POP POP SWAP1 POP DUP1 PUSH2 0x630 JUMPI PUSH1 0x40 MLOAD PUSH32 0x8C379A000000000000000000000000000000000000000000000000000000000 DUP2 MSTORE PUSH1 0x4 ADD PUSH2 0x627 SWAP1 PUSH2 0x1B6A JUMP JUMPDEST PUSH1 0x40 MLOAD DUP1 SWAP2 SUB SWAP1 REVERT JUMPDEST POP PUSH2 0x684 JUMP JUMPDEST PUSH2 0x683 CALLER DUP5 DUP5 PUSH0 ADD PUSH0 SWAP1 SLOAD SWAP1 PUSH2 0x100 EXP SWAP1 DIV PUSH20 0xFFFFFFFFFFFFFFFFFFFFFFFFFFFFFFFFFFFFFFFF AND PUSH20 0xFFFFFFFFFFFFFFFFFFFFFFFFFFFFFFFFFFFFFFFF AND PUSH2 0x1032 SWAP1 SWAP3 SWAP2 SWAP1 PUSH4 0xFFFFFFFF AND JUMP JUMPDEST JUMPDEST DUP2 PUSH0 ADD PUSH0 SWAP1 SLOAD SWAP1 PUSH2 0x100 EXP SWAP1 DIV PUSH20 0xFFFFFFFFFFFFFFFFFFFFFFFFFFFFFFFFFFFFFFFF AND PUSH20 0xFFFFFFFFFFFFFFFFFFFFFFFFFFFFFFFFFFFFFFFF AND PUSH32 0xC609BB1B9C1BFB64D61DBDFF01DDBDC74EC1A868F724CEB4991148740C7E423C DUP5 DUP5 PUSH1 0x3 ADD PUSH0 SWAP1 SLOAD SWAP1 PUSH2 0x100 EXP SWAP1 DIV PUSH1 0xFF AND PUSH1 0x40 MLOAD PUSH2 0x6FE SWAP3 SWAP2 SWAP1 PUSH2 0x1B88 JUMP JUMPDEST PUSH1 0x40 MLOAD DUP1 SWAP2 SUB SWAP1 LOG2 POP POP PUSH2 0x710 PUSH2 0x10B1 JUMP JUMPDEST POP POP JUMP JUMPDEST PUSH2 0x71C PUSH2 0xFEC JUMP JUMPDEST PUSH0 CALLVALUE GT PUSH2 0x75E JUMPI PUSH1 0x40 MLOAD PUSH32 0x8C379A000000000000000000000000000000000000000000000000000000000 DUP2 MSTORE PUSH1 0x4 ADD PUSH2 0x755 SWAP1 PUSH2 0x1C1F JUMP JUMPDEST PUSH1 0x40 MLOAD DUP1 SWAP2 SUB SWAP1 REVERT JUMPDEST PUSH0 DUP2 GT PUSH2 0x7A0 JUMPI PUSH1 0x40 MLOAD PUSH32 0x8C379A000000000000000000000000000000000000000000000000000000000 DUP2 MSTORE PUSH1 0x4 ADD PUSH2 0x797 SWAP1 PUSH2 0x1CAD JUMP JUMPDEST PUSH1 0x40 MLOAD DUP1 SWAP2 SUB SWAP1 REVERT JUMPDEST PUSH1 0x2 PUSH0 CALLER PUSH20 0xFFFFFFFFFFFFFFFFFFFFFFFFFFFFFFFFFFFFFFFF AND PUSH20 0xFFFFFFFFFFFFFFFFFFFFFFFFFFFFFFFFFFFFFFFF AND DUP2 MSTORE PUSH1 0x20 ADD SWAP1 DUP2 MSTORE PUSH1 0x20 ADD PUSH0 KECCAK256 PUSH1 0x40 MLOAD DUP1 PUSH1 0xC0 ADD PUSH1 0x40 MSTORE DUP1 PUSH0 PUSH20 0xFFFFFFFFFFFFFFFFFFFFFFFFFFFFFFFFFFFFFFFF AND DUP2 MSTORE PUSH1 0x20 ADD CALLVALUE DUP2 MSTORE PUSH1 0x20 ADD DUP4 TIMESTAMP PUSH2 0x816 SWAP2 SWAP1 PUSH2 0x1CCB JUMP JUMPDEST DUP2 MSTORE PUSH1 0x20 ADD DUP5 PUSH1 0xFF AND DUP2 MSTORE PUSH1 0x20 ADD PUSH0 ISZERO ISZERO DUP2 MSTORE PUSH1 0x20 ADD PUSH1 0x1 ISZERO ISZERO DUP2 MSTORE POP SWAP1 DUP1 PUSH1 0x1 DUP2 SLOAD ADD DUP1 DUP3 SSTORE DUP1 SWAP2 POP POP PUSH1 0x1 SWAP1 SUB SWAP1 PUSH0 MSTORE PUSH1 0x20 PUSH0 KECCAK256 SWAP1 PUSH1 0x4 MUL ADD PUSH0 SWAP1 SWAP2 SWAP1 SWAP2 SWAP1 SWAP2 POP PUSH0 DUP3 ADD MLOAD DUP2 PUSH0 ADD PUSH0 PUSH2 0x100 EXP DUP2 SLOAD DUP2 PUSH20 0xFFFFFFFFFFFFFFFFFFFFFFFFFFFFFFFFFFFFFFFF MUL NOT AND SWAP1 DUP4 PUSH20 0xFFFFFFFFFFFFFFFFFFFFFFFFFFFFFFFFFFFFFFFF AND MUL OR SWAP1 SSTORE POP PUSH1 0x20 DUP3 ADD MLOAD DUP2 PUSH1 0x1 ADD SSTORE PUSH1 0x40 DUP3 ADD MLOAD DUP2 PUSH1 0x2 ADD SSTORE PUSH1 0x60 DUP3 ADD MLOAD DUP2 PUSH1 0x3 ADD PUSH0 PUSH2 0x100 EXP DUP2 SLOAD DUP2 PUSH1 0xFF MUL NOT AND SWAP1 DUP4 PUSH1 0xFF AND MUL OR SWAP1 SSTORE POP PUSH1 0x80 DUP3 ADD MLOAD DUP2 PUSH1 0x3 ADD PUSH1 0x1 PUSH2 0x100 EXP DUP2 SLOAD DUP2 PUSH1 0xFF MUL NOT AND SWAP1 DUP4 ISZERO ISZERO MUL OR SWAP1 SSTORE POP PUSH1 0xA0 DUP3 ADD MLOAD DUP2 PUSH1 0x3 ADD PUSH1 0x2 PUSH2 0x100 EXP DUP2 SLOAD DUP2 PUSH1 0xFF MUL NOT AND SWAP1 DUP4 ISZERO ISZERO MUL OR SWAP1 SSTORE POP POP POP PUSH0 PUSH20 0xFFFFFFFFFFFFFFFFFFFFFFFFFFFFFFFFFFFFFFFF AND PUSH32 0x93E2E96397EE6091FADABBE37102770C2ED73784AC2B17D1DE3D8AFCB368EA41 CALLVALUE DUP5 DUP5 TIMESTAMP PUSH2 0x959 SWAP2 SWAP1 PUSH2 0x1CCB JUMP JUMPDEST PUSH1 0x40 MLOAD PUSH2 0x968 SWAP4 SWAP3 SWAP2 SWAP1 PUSH2 0x1CFE JUMP JUMPDEST PUSH1 0x40 MLOAD DUP1 SWAP2 SUB SWAP1 LOG2 PUSH2 0x978 PUSH2 0x10B1 JUMP JUMPDEST POP POP JUMP JUMPDEST PUSH2 0x984 PUSH2 0xFEC JUMP JUMPDEST PUSH0 PUSH20 0xFFFFFFFFFFFFFFFFFFFFFFFFFFFFFFFFFFFFFFFF AND DUP5 PUSH20 0xFFFFFFFFFFFFFFFFFFFFFFFFFFFFFFFFFFFFFFFF AND SUB PUSH2 0x9F2 JUMPI PUSH1 0x40 MLOAD PUSH32 0x8C379A000000000000000000000000000000000000000000000000000000000 DUP2 MSTORE PUSH1 0x4 ADD PUSH2 0x9E9 SWAP1 PUSH2 0x1DA3 JUMP JUMPDEST PUSH1 0x40 MLOAD DUP1 SWAP2 SUB SWAP1 REVERT JUMPDEST PUSH0 DUP4 GT PUSH2 0xA34 JUMPI PUSH1 0x40 MLOAD PUSH32 0x8C379A000000000000000000000000000000000000000000000000000000000 DUP2 MSTORE PUSH1 0x4 ADD PUSH2 0xA2B SWAP1 PUSH2 0x1E31 JUMP JUMPDEST PUSH1 0x40 MLOAD DUP1 SWAP2 SUB SWAP1 REVERT JUMPDEST PUSH0 DUP2 GT PUSH2 0xA76 JUMPI PUSH1 0x40 MLOAD PUSH32 0x8C379A000000000000000000000000000000000000000000000000000000000 DUP2 MSTORE PUSH1 0x4 ADD PUSH2 0xA6D SWAP1 PUSH2 0x1EBF JUMP JUMPDEST PUSH1 0x40 MLOAD DUP1 SWAP2 SUB SWAP1 REVERT JUMPDEST PUSH0 DUP5 PUSH20 0xFFFFFFFFFFFFFFFFFFFFFFFFFFFFFFFFFFFFFFFF AND PUSH4 0x70A08231 CALLER PUSH1 0x40 MLOAD DUP3 PUSH4 0xFFFFFFFF AND PUSH1 0xE0 SHL DUP2 MSTORE PUSH1 0x4 ADD PUSH2 0xAB0 SWAP2 SWAP1 PUSH2 0x1540 JUMP JUMPDEST PUSH1 0x20 PUSH1 0x40 MLOAD DUP1 DUP4 SUB DUP2 DUP7 GAS STATICCALL ISZERO DUP1 ISZERO PUSH2 0xACB JUMPI RETURNDATASIZE PUSH0 DUP1 RETURNDATACOPY RETURNDATASIZE PUSH0 REVERT JUMPDEST POP POP POP POP PUSH1 0x40 MLOAD RETURNDATASIZE PUSH1 0x1F NOT PUSH1 0x1F DUP3 ADD AND DUP3 ADD DUP1 PUSH1 0x40 MSTORE POP DUP2 ADD SWAP1 PUSH2 0xAEF SWAP2 SWAP1 PUSH2 0x1805 JUMP JUMPDEST SWAP1 POP DUP1 DUP5 GT ISZERO PUSH2 0xB34 JUMPI PUSH1 0x40 MLOAD PUSH32 0x8C379A000000000000000000000000000000000000000000000000000000000 DUP2 MSTORE PUSH1 0x4 ADD PUSH2 0xB2B SWAP1 PUSH2 0x1F27 JUMP JUMPDEST PUSH1 0x40 MLOAD DUP1 SWAP2 SUB SWAP1 REVERT JUMPDEST PUSH2 0xB61 CALLER ADDRESS DUP7 DUP9 PUSH20 0xFFFFFFFFFFFFFFFFFFFFFFFFFFFFFFFFFFFFFFFF AND PUSH2 0x10BA SWAP1 SWAP4 SWAP3 SWAP2 SWAP1 PUSH4 0xFFFFFFFF AND JUMP JUMPDEST PUSH1 0x2 PUSH0 CALLER PUSH20 0xFFFFFFFFFFFFFFFFFFFFFFFFFFFFFFFFFFFFFFFF AND PUSH20 0xFFFFFFFFFFFFFFFFFFFFFFFFFFFFFFFFFFFFFFFF AND DUP2 MSTORE PUSH1 0x20 ADD SWAP1 DUP2 MSTORE PUSH1 0x20 ADD PUSH0 KECCAK256 PUSH1 0x40 MLOAD DUP1 PUSH1 0xC0 ADD PUSH1 0x40 MSTORE DUP1 DUP8 PUSH20 0xFFFFFFFFFFFFFFFFFFFFFFFFFFFFFFFFFFFFFFFF AND DUP2 MSTORE PUSH1 0x20 ADD DUP7 DUP2 MSTORE PUSH1 0x20 ADD DUP5 TIMESTAMP PUSH2 0xBD7 SWAP2 SWAP1 PUSH2 0x1CCB JUMP JUMPDEST DUP2 MSTORE PUSH1 0x20 ADD DUP6 PUSH1 0xFF AND DUP2 MSTORE PUSH1 0x20 ADD PUSH0 ISZERO ISZERO DUP2 MSTORE PUSH1 0x20 ADD PUSH0 ISZERO ISZERO DUP2 MSTORE POP SWAP1 DUP1 PUSH1 0x1 DUP2 SLOAD ADD DUP1 DUP3 SSTORE DUP1 SWAP2 POP POP PUSH1 0x1 SWAP1 SUB SWAP1 PUSH0 MSTORE PUSH1 0x20 PUSH0 KECCAK256 SWAP1 PUSH1 0x4 MUL ADD PUSH0 SWAP1 SWAP2 SWAP1 SWAP2 SWAP1 SWAP2 POP PUSH0 DUP3 ADD MLOAD DUP2 PUSH0 ADD PUSH0 PUSH2 0x100 EXP DUP2 SLOAD DUP2 PUSH20 0xFFFFFFFFFFFFFFFFFFFFFFFFFFFFFFFFFFFFFFFF MUL NOT AND SWAP1 DUP4 PUSH20 0xFFFFFFFFFFFFFFFFFFFFFFFFFFFFFFFFFFFFFFFF AND MUL OR SWAP1 SSTORE POP PUSH1 0x20 DUP3 ADD MLOAD DUP2 PUSH1 0x1 ADD SSTORE PUSH1 0x40 DUP3 ADD MLOAD DUP2 PUSH1 0x2 ADD SSTORE PUSH1 0x60 DUP3 ADD MLOAD DUP2 PUSH1 0x3 ADD PUSH0 PUSH2 0x100 EXP DUP2 SLOAD DUP2 PUSH1 0xFF MUL NOT AND SWAP1 DUP4 PUSH1 0xFF AND MUL OR SWAP1 SSTORE POP PUSH1 0x80 DUP3 ADD MLOAD DUP2 PUSH1 0x3 ADD PUSH1 0x1 PUSH2 0x100 EXP DUP2 SLOAD DUP2 PUSH1 0xFF MUL NOT AND SWAP1 DUP4 ISZERO ISZERO MUL OR SWAP1 SSTORE POP PUSH1 0xA0 DUP3 ADD MLOAD DUP2 PUSH1 0x3 ADD PUSH1 0x2 PUSH2 0x100 EXP DUP2 SLOAD DUP2 PUSH1 0xFF MUL NOT AND SWAP1 DUP4 ISZERO ISZERO MUL OR SWAP1 SSTORE POP POP POP DUP5 PUSH20 0xFFFFFFFFFFFFFFFFFFFFFFFFFFFFFFFFFFFFFFFF AND PUSH32 0x93E2E96397EE6091FADABBE37102770C2ED73784AC2B17D1DE3D8AFCB368EA41 DUP6 DUP6 DUP6 TIMESTAMP PUSH2 0xD19 SWAP2 SWAP1 PUSH2 0x1CCB JUMP JUMPDEST PUSH1 0x40 MLOAD PUSH2 0xD28 SWAP4 SWAP3 SWAP2 SWAP1 PUSH2 0x1CFE JUMP JUMPDEST PUSH1 0x40 MLOAD DUP1 SWAP2 SUB SWAP1 LOG2 POP PUSH2 0xD39 PUSH2 0x10B1 JUMP JUMPDEST POP POP POP POP JUMP JUMPDEST PUSH2 0xD47 PUSH2 0x113C JUMP JUMPDEST PUSH2 0xD50 PUSH0 PUSH2 0x11C3 JUMP JUMPDEST JUMP JUMPDEST PUSH0 SELFBALANCE SWAP1 POP SWAP1 JUMP JUMPDEST PUSH0 DUP1 PUSH0 SWAP1 SLOAD SWAP1 PUSH2 0x100 EXP SWAP1 DIV PUSH20 0xFFFFFFFFFFFFFFFFFFFFFFFFFFFFFFFFFFFFFFFF AND SWAP1 POP SWAP1 JUMP JUMPDEST PUSH1 0x2 PUSH1 0x20 MSTORE DUP2 PUSH0 MSTORE PUSH1 0x40 PUSH0 KECCAK256 DUP2 DUP2 SLOAD DUP2 LT PUSH2 0xD99 JUMPI PUSH0 DUP1 REVERT JUMPDEST SWAP1 PUSH0 MSTORE PUSH1 0x20 PUSH0 KECCAK256 SWAP1 PUSH1 0x4 MUL ADD PUSH0 SWAP2 POP SWAP2 POP POP DUP1 PUSH0 ADD PUSH0 SWAP1 SLOAD SWAP1 PUSH2 0x100 EXP SWAP1 DIV PUSH20 0xFFFFFFFFFFFFFFFFFFFFFFFFFFFFFFFFFFFFFFFF AND SWAP1 DUP1 PUSH1 0x1 ADD SLOAD SWAP1 DUP1 PUSH1 0x2 ADD SLOAD SWAP1 DUP1 PUSH1 0x3 ADD PUSH0 SWAP1 SLOAD SWAP1 PUSH2 0x100 EXP SWAP1 DIV PUSH1 0xFF AND SWAP1 DUP1 PUSH1 0x3 ADD PUSH1 0x1 SWAP1 SLOAD SWAP1 PUSH2 0x100 EXP SWAP1 DIV PUSH1 0xFF AND SWAP1 DUP1 PUSH1 0x3 ADD PUSH1 0x2 SWAP1 SLOAD SWAP1 PUSH2 0x100 EXP SWAP1 DIV PUSH1 0xFF AND SWAP1 POP DUP7 JUMP JUMPDEST PUSH2 0xE1F PUSH2 0x113C JUMP JUMPDEST PUSH0 PUSH20 0xFFFFFFFFFFFFFFFFFFFFFFFFFFFFFFFFFFFFFFFF AND DUP2 PUSH20 0xFFFFFFFFFFFFFFFFFFFFFFFFFFFFFFFFFFFFFFFF AND SUB PUSH2 0xE8F JUMPI PUSH0 PUSH1 0x40 MLOAD PUSH32 0x1E4FBDF700000000000000000000000000000000000000000000000000000000 DUP2 MSTORE PUSH1 0x4 ADD PUSH2 0xE86 SWAP2 SWAP1 PUSH2 0x1540 JUMP JUMPDEST PUSH1 0x40 MLOAD DUP1 SWAP2 SUB SWAP1 REVERT JUMPDEST PUSH2 0xE98 DUP2 PUSH2 0x11C3 JUMP JUMPDEST POP JUMP JUMPDEST PUSH1 0x60 PUSH1 0x2 PUSH0 CALLER PUSH20 0xFFFFFFFFFFFFFFFFFFFFFFFFFFFFFFFFFFFFFFFF AND PUSH20 0xFFFFFFFFFFFFFFFFFFFFFFFFFFFFFFFFFFFFFFFF AND DUP2 MSTORE PUSH1 0x20 ADD SWAP1 DUP2 MSTORE PUSH1 0x20 ADD PUSH0 KECCAK256 DUP1 SLOAD DUP1 PUSH1 0x20 MUL PUSH1 0x20 ADD PUSH1 0x40 MLOAD SWAP1 DUP2 ADD PUSH1 0x40 MSTORE DUP1 SWAP3 SWAP2 SWAP1 DUP2 DUP2 MSTORE PUSH1 0x20 ADD PUSH0 SWAP1 JUMPDEST DUP3 DUP3 LT ISZERO PUSH2 0xFE3 JUMPI DUP4 DUP3 SWAP1 PUSH0 MSTORE PUSH1 0x20 PUSH0 KECCAK256 SWAP1 PUSH1 0x4 MUL ADD PUSH1 0x40 MLOAD DUP1 PUSH1 0xC0 ADD PUSH1 0x40 MSTORE SWAP1 DUP2 PUSH0 DUP3 ADD PUSH0 SWAP1 SLOAD SWAP1 PUSH2 0x100 EXP SWAP1 DIV PUSH20 0xFFFFFFFFFFFFFFFFFFFFFFFFFFFFFFFFFFFFFFFF AND PUSH20 0xFFFFFFFFFFFFFFFFFFFFFFFFFFFFFFFFFFFFFFFF AND PUSH20 0xFFFFFFFFFFFFFFFFFFFFFFFFFFFFFFFFFFFFFFFF AND DUP2 MSTORE PUSH1 0x20 ADD PUSH1 0x1 DUP3 ADD SLOAD DUP2 MSTORE PUSH1 0x20 ADD PUSH1 0x2 DUP3 ADD SLOAD DUP2 MSTORE PUSH1 0x20 ADD PUSH1 0x3 DUP3 ADD PUSH0 SWAP1 SLOAD SWAP1 PUSH2 0x100 EXP SWAP1 DIV PUSH1 0xFF AND PUSH1 0xFF AND PUSH1 0xFF AND DUP2 MSTORE PUSH1 0x20 ADD PUSH1 0x3 DUP3 ADD PUSH1 0x1 SWAP1 SLOAD SWAP1 PUSH2 0x100 EXP SWAP1 DIV PUSH1 0xFF AND ISZERO ISZERO ISZERO ISZERO DUP2 MSTORE PUSH1 0x20 ADD PUSH1 0x3 DUP3 ADD PUSH1 0x2 SWAP1 SLOAD SWAP1 PUSH2 0x100 EXP SWAP1 DIV PUSH1 0xFF AND ISZERO ISZERO ISZERO ISZERO DUP2 MSTORE POP POP DUP2 MSTORE PUSH1 0x20 ADD SWAP1 PUSH1 0x1 ADD SWAP1 PUSH2 0xEF9 JUMP JUMPDEST POP POP POP POP SWAP1 POP SWAP1 JUMP JUMPDEST PUSH1 0x2 PUSH1 0x1 SLOAD SUB PUSH2 0x1028 JUMPI PUSH1 0x40 MLOAD PUSH32 0x3EE5AEB500000000000000000000000000000000000000000000000000000000 DUP2 MSTORE PUSH1 0x4 ADD PUSH1 0x40 MLOAD DUP1 SWAP2 SUB SWAP1 REVERT JUMPDEST PUSH1 0x2 PUSH1 0x1 DUP2 SWAP1 SSTORE POP JUMP JUMPDEST PUSH2 0x10AC DUP4 DUP5 PUSH20 0xFFFFFFFFFFFFFFFFFFFFFFFFFFFFFFFFFFFFFFFF AND PUSH4 0xA9059CBB DUP6 DUP6 PUSH1 0x40 MLOAD PUSH1 0x24 ADD PUSH2 0x1065 SWAP3 SWAP2 SWAP1 PUSH2 0x1F45 JUMP JUMPDEST PUSH1 0x40 MLOAD PUSH1 0x20 DUP2 DUP4 SUB SUB DUP2 MSTORE SWAP1 PUSH1 0x40 MSTORE SWAP2 POP PUSH1 0xE0 SHL PUSH1 0x20 DUP3 ADD DUP1 MLOAD PUSH28 0xFFFFFFFFFFFFFFFFFFFFFFFFFFFFFFFFFFFFFFFFFFFFFFFFFFFFFFFF DUP4 DUP2 DUP4 AND OR DUP4 MSTORE POP POP POP POP PUSH2 0x1284 JUMP JUMPDEST POP POP POP JUMP JUMPDEST PUSH1 0x1 DUP1 DUP2 SWAP1 SSTORE POP JUMP JUMPDEST PUSH2 0x1136 DUP5 DUP6 PUSH20 0xFFFFFFFFFFFFFFFFFFFFFFFFFFFFFFFFFFFFFFFF AND PUSH4 0x23B872DD DUP7 DUP7 DUP7 PUSH1 0x40 MLOAD PUSH1 0x24 ADD PUSH2 0x10EF SWAP4 SWAP3 SWAP2 SWAP1 PUSH2 0x1F6C JUMP JUMPDEST PUSH1 0x40 MLOAD PUSH1 0x20 DUP2 DUP4 SUB SUB DUP2 MSTORE SWAP1 PUSH1 0x40 MSTORE SWAP2 POP PUSH1 0xE0 SHL PUSH1 0x20 DUP3 ADD DUP1 MLOAD PUSH28 0xFFFFFFFFFFFFFFFFFFFFFFFFFFFFFFFFFFFFFFFFFFFFFFFFFFFFFFFF DUP4 DUP2 DUP4 AND OR DUP4 MSTORE POP POP POP POP PUSH2 0x1284 JUMP JUMPDEST POP POP POP POP JUMP JUMPDEST PUSH2 0x1144 PUSH2 0x131F JUMP JUMPDEST PUSH20 0xFFFFFFFFFFFFFFFFFFFFFFFFFFFFFFFFFFFFFFFF AND PUSH2 0x1162 PUSH2 0xD59 JUMP JUMPDEST PUSH20 0xFFFFFFFFFFFFFFFFFFFFFFFFFFFFFFFFFFFFFFFF AND EQ PUSH2 0x11C1 JUMPI PUSH2 0x1185 PUSH2 0x131F JUMP JUMPDEST PUSH1 0x40 MLOAD PUSH32 0x118CDAA700000000000000000000000000000000000000000000000000000000 DUP2 MSTORE PUSH1 0x4 ADD PUSH2 0x11B8 SWAP2 SWAP1 PUSH2 0x1540 JUMP JUMPDEST PUSH1 0x40 MLOAD DUP1 SWAP2 SUB SWAP1 REVERT JUMPDEST JUMP JUMPDEST PUSH0 DUP1 PUSH0 SWAP1 SLOAD SWAP1 PUSH2 0x100 EXP SWAP1 DIV PUSH20 0xFFFFFFFFFFFFFFFFFFFFFFFFFFFFFFFFFFFFFFFF AND SWAP1 POP DUP2 PUSH0 DUP1 PUSH2 0x100 EXP DUP2 SLOAD DUP2 PUSH20 0xFFFFFFFFFFFFFFFFFFFFFFFFFFFFFFFFFFFFFFFF MUL NOT AND SWAP1 DUP4 PUSH20 0xFFFFFFFFFFFFFFFFFFFFFFFFFFFFFFFFFFFFFFFF AND MUL OR SWAP1 SSTORE POP DUP2 PUSH20 0xFFFFFFFFFFFFFFFFFFFFFFFFFFFFFFFFFFFFFFFF AND DUP2 PUSH20 0xFFFFFFFFFFFFFFFFFFFFFFFFFFFFFFFFFFFFFFFF AND PUSH32 0x8BE0079C531659141344CD1FD0A4F28419497F9722A3DAAFE3B4186F6B6457E0 PUSH1 0x40 MLOAD PUSH1 0x40 MLOAD DUP1 SWAP2 SUB SWAP1 LOG3 POP POP JUMP JUMPDEST PUSH0 DUP1 PUSH1 0x20 PUSH0 DUP5 MLOAD PUSH1 0x20 DUP7 ADD PUSH0 DUP9 GAS CALL DUP1 PUSH2 0x12A3 JUMPI PUSH1 0x40 MLOAD RETURNDATASIZE PUSH0 DUP3 RETURNDATACOPY RETURNDATASIZE DUP2 REVERT JUMPDEST RETURNDATASIZE SWAP3 POP PUSH0 MLOAD SWAP2 POP POP PUSH0 DUP3 EQ PUSH2 0x12BC JUMPI PUSH1 0x1 DUP2 EQ ISZERO PUSH2 0x12D7 JUMP JUMPDEST PUSH0 DUP5 PUSH20 0xFFFFFFFFFFFFFFFFFFFFFFFFFFFFFFFFFFFFFFFF AND EXTCODESIZE EQ JUMPDEST ISZERO PUSH2 0x1319 JUMPI DUP4 PUSH1 0x40 MLOAD PUSH32 0x5274AFE700000000000000000000000000000000000000000000000000000000 DUP2 MSTORE PUSH1 0x4 ADD PUSH2 0x1310 SWAP2 SWAP1 PUSH2 0x1540 JUMP JUMPDEST PUSH1 0x40 MLOAD DUP1 SWAP2 SUB SWAP1 REVERT JUMPDEST POP POP POP POP JUMP JUMPDEST PUSH0 CALLER SWAP1 POP SWAP1 JUMP JUMPDEST PUSH0 DUP1 REVERT JUMPDEST PUSH0 PUSH20 0xFFFFFFFFFFFFFFFFFFFFFFFFFFFFFFFFFFFFFFFF DUP3 AND SWAP1 POP SWAP2 SWAP1 POP JUMP JUMPDEST PUSH0 PUSH2 0x1353 DUP3 PUSH2 0x132A JUMP JUMPDEST SWAP1 POP SWAP2 SWAP1 POP JUMP JUMPDEST PUSH0 PUSH2 0x1364 DUP3 PUSH2 0x1349 JUMP JUMPDEST SWAP1 POP SWAP2 SWAP1 POP JUMP JUMPDEST PUSH2 0x1374 DUP2 PUSH2 0x135A JUMP JUMPDEST DUP2 EQ PUSH2 0x137E JUMPI PUSH0 DUP1 REVERT JUMPDEST POP JUMP JUMPDEST PUSH0 DUP2 CALLDATALOAD SWAP1 POP PUSH2 0x138F DUP2 PUSH2 0x136B JUMP JUMPDEST SWAP3 SWAP2 POP POP JUMP JUMPDEST PUSH0 PUSH1 0x20 DUP3 DUP5 SUB SLT ISZERO PUSH2 0x13AA JUMPI PUSH2 0x13A9 PUSH2 0x1326 JUMP JUMPDEST JUMPDEST PUSH0 PUSH2 0x13B7 DUP5 DUP3 DUP6 ADD PUSH2 0x1381 JUMP JUMPDEST SWAP2 POP POP SWAP3 SWAP2 POP POP JUMP JUMPDEST PUSH0 DUP2 SWAP1 POP SWAP2 SWAP1 POP JUMP JUMPDEST PUSH2 0x13D2 DUP2 PUSH2 0x13C0 JUMP JUMPDEST DUP3 MSTORE POP POP JUMP JUMPDEST PUSH0 PUSH1 0x20 DUP3 ADD SWAP1 POP PUSH2 0x13EB PUSH0 DUP4 ADD DUP5 PUSH2 0x13C9 JUMP JUMPDEST SWAP3 SWAP2 POP POP JUMP JUMPDEST PUSH2 0x13FA DUP2 PUSH2 0x13C0 JUMP JUMPDEST DUP2 EQ PUSH2 0x1404 JUMPI PUSH0 DUP1 REVERT JUMPDEST POP JUMP JUMPDEST PUSH0 DUP2 CALLDATALOAD SWAP1 POP PUSH2 0x1415 DUP2 PUSH2 0x13F1 JUMP JUMPDEST SWAP3 SWAP2 POP POP JUMP JUMPDEST PUSH0 DUP1 PUSH1 0x40 DUP4 DUP6 SUB SLT ISZERO PUSH2 0x1431 JUMPI PUSH2 0x1430 PUSH2 0x1326 JUMP JUMPDEST JUMPDEST PUSH0 PUSH2 0x143E DUP6 DUP3 DUP7 ADD PUSH2 0x1407 JUMP JUMPDEST SWAP3 POP POP PUSH1 0x20 PUSH2 0x144F DUP6 DUP3 DUP7 ADD PUSH2 0x1407 JUMP JUMPDEST SWAP2 POP POP SWAP3 POP SWAP3 SWAP1 POP JUMP JUMPDEST PUSH0 PUSH1 0xFF DUP3 AND SWAP1 POP SWAP2 SWAP1 POP JUMP JUMPDEST PUSH2 0x146E DUP2 PUSH2 0x1459 JUMP JUMPDEST DUP2 EQ PUSH2 0x1478 JUMPI PUSH0 DUP1 REVERT JUMPDEST POP JUMP JUMPDEST PUSH0 DUP2 CALLDATALOAD SWAP1 POP PUSH2 0x1489 DUP2 PUSH2 0x1465 JUMP JUMPDEST SWAP3 SWAP2 POP POP JUMP JUMPDEST PUSH0 DUP1 PUSH1 0x40 DUP4 DUP6 SUB SLT ISZERO PUSH2 0x14A5 JUMPI PUSH2 0x14A4 PUSH2 0x1326 JUMP JUMPDEST JUMPDEST PUSH0 PUSH2 0x14B2 DUP6 DUP3 DUP7 ADD PUSH2 0x147B JUMP JUMPDEST SWAP3 POP POP PUSH1 0x20 PUSH2 0x14C3 DUP6 DUP3 DUP7 ADD PUSH2 0x1407 JUMP JUMPDEST SWAP2 POP POP SWAP3 POP SWAP3 SWAP1 POP JUMP JUMPDEST PUSH0 DUP1 PUSH0 DUP1 PUSH1 0x80 DUP6 DUP8 SUB SLT ISZERO PUSH2 0x14E5 JUMPI PUSH2 0x14E4 PUSH2 0x1326 JUMP JUMPDEST JUMPDEST PUSH0 PUSH2 0x14F2 DUP8 DUP3 DUP9 ADD PUSH2 0x1381 JUMP JUMPDEST SWAP5 POP POP PUSH1 0x20 PUSH2 0x1503 DUP8 DUP3 DUP9 ADD PUSH2 0x1407 JUMP JUMPDEST SWAP4 POP POP PUSH1 0x40 PUSH2 0x1514 DUP8 DUP3 DUP9 ADD PUSH2 0x147B JUMP JUMPDEST SWAP3 POP POP PUSH1 0x60 PUSH2 0x1525 DUP8 DUP3 DUP9 ADD PUSH2 0x1407 JUMP JUMPDEST SWAP2 POP POP SWAP3 SWAP6 SWAP2 SWAP5 POP SWAP3 POP JUMP JUMPDEST PUSH2 0x153A DUP2 PUSH2 0x1349 JUMP JUMPDEST DUP3 MSTORE POP POP JUMP JUMPDEST PUSH0 PUSH1 0x20 DUP3 ADD SWAP1 POP PUSH2 0x1553 PUSH0 DUP4 ADD DUP5 PUSH2 0x1531 JUMP JUMPDEST SWAP3 SWAP2 POP POP JUMP JUMPDEST PUSH2 0x1562 DUP2 PUSH2 0x1349 JUMP JUMPDEST DUP2 EQ PUSH2 0x156C JUMPI PUSH0 DUP1 REVERT JUMPDEST POP JUMP JUMPDEST PUSH0 DUP2 CALLDATALOAD SWAP1 POP PUSH2 0x157D DUP2 PUSH2 0x1559 JUMP JUMPDEST SWAP3 SWAP2 POP POP JUMP JUMPDEST PUSH0 DUP1 PUSH1 0x40 DUP4 DUP6 SUB SLT ISZERO PUSH2 0x1599 JUMPI PUSH2 0x1598 PUSH2 0x1326 JUMP JUMPDEST JUMPDEST PUSH0 PUSH2 0x15A6 DUP6 DUP3 DUP7 ADD PUSH2 0x156F JUMP JUMPDEST SWAP3 POP POP PUSH1 0x20 PUSH2 0x15B7 DUP6 DUP3 DUP7 ADD PUSH2 0x1407 JUMP JUMPDEST SWAP2 POP POP SWAP3 POP SWAP3 SWAP1 POP JUMP JUMPDEST PUSH2 0x15CA DUP2 PUSH2 0x1459 JUMP JUMPDEST DUP3 MSTORE POP POP JUMP JUMPDEST PUSH0 DUP2 ISZERO ISZERO SWAP1 POP SWAP2 SWAP1 POP JUMP JUMPDEST PUSH2 0x15E4 DUP2 PUSH2 0x15D0 JUMP JUMPDEST DUP3 MSTORE POP POP JUMP JUMPDEST PUSH0 PUSH1 0xC0 DUP3 ADD SWAP1 POP PUSH2 0x15FD PUSH0 DUP4 ADD DUP10 PUSH2 0x1531 JUMP JUMPDEST PUSH2 0x160A PUSH1 0x20 DUP4 ADD DUP9 PUSH2 0x13C9 JUMP JUMPDEST PUSH2 0x1617 PUSH1 0x40 DUP4 ADD DUP8 PUSH2 0x13C9 JUMP JUMPDEST PUSH2 0x1624 PUSH1 0x60 DUP4 ADD DUP7 PUSH2 0x15C1 JUMP JUMPDEST PUSH2 0x1631 PUSH1 0x80 DUP4 ADD DUP6 PUSH2 0x15DB JUMP JUMPDEST PUSH2 0x163E PUSH1 0xA0 DUP4 ADD DUP5 PUSH2 0x15DB JUMP JUMPDEST SWAP8 SWAP7 POP POP POP POP POP POP POP JUMP JUMPDEST PUSH0 PUSH1 0x20 DUP3 DUP5 SUB SLT ISZERO PUSH2 0x165E JUMPI PUSH2 0x165D PUSH2 0x1326 JUMP JUMPDEST JUMPDEST PUSH0 PUSH2 0x166B DUP5 DUP3 DUP6 ADD PUSH2 0x156F JUMP JUMPDEST SWAP2 POP POP SWAP3 SWAP2 POP POP JUMP JUMPDEST PUSH0 DUP2 MLOAD SWAP1 POP SWAP2 SWAP1 POP JUMP JUMPDEST PUSH0 DUP3 DUP3 MSTORE PUSH1 0x20 DUP3 ADD SWAP1 POP SWAP3 SWAP2 POP POP JUMP JUMPDEST PUSH0 DUP2 SWAP1 POP PUSH1 0x20 DUP3 ADD SWAP1 POP SWAP2 SWAP1 POP JUMP JUMPDEST PUSH2 0x16A6 DUP2 PUSH2 0x1349 JUMP JUMPDEST DUP3 MSTORE POP POP JUMP JUMPDEST PUSH2 0x16B5 DUP2 PUSH2 0x13C0 JUMP JUMPDEST DUP3 MSTORE POP POP JUMP JUMPDEST PUSH2 0x16C4 DUP2 PUSH2 0x1459 JUMP JUMPDEST DUP3 MSTORE POP POP JUMP JUMPDEST PUSH2 0x16D3 DUP2 PUSH2 0x15D0 JUMP JUMPDEST DUP3 MSTORE POP POP JUMP JUMPDEST PUSH1 0xC0 DUP3 ADD PUSH0 DUP3 ADD MLOAD PUSH2 0x16ED PUSH0 DUP6 ADD DUP3 PUSH2 0x169D JUMP JUMPDEST POP PUSH1 0x20 DUP3 ADD MLOAD PUSH2 0x1700 PUSH1 0x20 DUP6 ADD DUP3 PUSH2 0x16AC JUMP JUMPDEST POP PUSH1 0x40 DUP3 ADD MLOAD PUSH2 0x1713 PUSH1 0x40 DUP6 ADD DUP3 PUSH2 0x16AC JUMP JUMPDEST POP PUSH1 0x60 DUP3 ADD MLOAD PUSH2 0x1726 PUSH1 0x60 DUP6 ADD DUP3 PUSH2 0x16BB JUMP JUMPDEST POP PUSH1 0x80 DUP3 ADD MLOAD PUSH2 0x1739 PUSH1 0x80 DUP6 ADD DUP3 PUSH2 0x16CA JUMP JUMPDEST POP PUSH1 0xA0 DUP3 ADD MLOAD PUSH2 0x174C PUSH1 0xA0 DUP6 ADD DUP3 PUSH2 0x16CA JUMP JUMPDEST POP POP POP POP JUMP JUMPDEST PUSH0 PUSH2 0x175D DUP4 DUP4 PUSH2 0x16D9 JUMP JUMPDEST PUSH1 0xC0 DUP4 ADD SWAP1 POP SWAP3 SWAP2 POP POP JUMP JUMPDEST PUSH0 PUSH1 0x20 DUP3 ADD SWAP1 POP SWAP2 SWAP1 POP JUMP JUMPDEST PUSH0 PUSH2 0x177F DUP3 PUSH2 0x1674 JUMP JUMPDEST PUSH2 0x1789 DUP2 DUP6 PUSH2 0x167E JUMP JUMPDEST SWAP4 POP PUSH2 0x1794 DUP4 PUSH2 0x168E JUMP JUMPDEST DUP1 PUSH0 JUMPDEST DUP4 DUP2 LT ISZERO PUSH2 0x17C4 JUMPI DUP2 MLOAD PUSH2 0x17AB DUP9 DUP3 PUSH2 0x1752 JUMP JUMPDEST SWAP8 POP PUSH2 0x17B6 DUP4 PUSH2 0x1769 JUMP JUMPDEST SWAP3 POP POP PUSH1 0x1 DUP2 ADD SWAP1 POP PUSH2 0x1797 JUMP JUMPDEST POP DUP6 SWAP4 POP POP POP POP SWAP3 SWAP2 POP POP JUMP JUMPDEST PUSH0 PUSH1 0x20 DUP3 ADD SWAP1 POP DUP2 DUP2 SUB PUSH0 DUP4 ADD MSTORE PUSH2 0x17E9 DUP2 DUP5 PUSH2 0x1775 JUMP JUMPDEST SWAP1 POP SWAP3 SWAP2 POP POP JUMP JUMPDEST PUSH0 DUP2 MLOAD SWAP1 POP PUSH2 0x17FF DUP2 PUSH2 0x13F1 JUMP JUMPDEST SWAP3 SWAP2 POP POP JUMP JUMPDEST PUSH0 PUSH1 0x20 DUP3 DUP5 SUB SLT ISZERO PUSH2 0x181A JUMPI PUSH2 0x1819 PUSH2 0x1326 JUMP JUMPDEST JUMPDEST PUSH0 PUSH2 0x1827 DUP5 DUP3 DUP6 ADD PUSH2 0x17F1 JUMP JUMPDEST SWAP2 POP POP SWAP3 SWAP2 POP POP JUMP JUMPDEST PUSH0 DUP3 DUP3 MSTORE PUSH1 0x20 DUP3 ADD SWAP1 POP SWAP3 SWAP2 POP POP JUMP JUMPDEST PUSH32 0x5468652073706563696669656420617373657420494420697320696E76616C69 PUSH0 DUP3 ADD MSTORE PUSH32 0x642E000000000000000000000000000000000000000000000000000000000000 PUSH1 0x20 DUP3 ADD MSTORE POP JUMP JUMPDEST PUSH0 PUSH2 0x189A PUSH1 0x22 DUP4 PUSH2 0x1830 JUMP JUMPDEST SWAP2 POP PUSH2 0x18A5 DUP3 PUSH2 0x1840 JUMP JUMPDEST PUSH1 0x40 DUP3 ADD SWAP1 POP SWAP2 SWAP1 POP JUMP JUMPDEST PUSH0 PUSH1 0x20 DUP3 ADD SWAP1 POP DUP2 DUP2 SUB PUSH0 DUP4 ADD MSTORE PUSH2 0x18C7 DUP2 PUSH2 0x188E JUMP JUMPDEST SWAP1 POP SWAP2 SWAP1 POP JUMP JUMPDEST PUSH32 0x4E487B7100000000000000000000000000000000000000000000000000000000 PUSH0 MSTORE PUSH1 0x32 PUSH1 0x4 MSTORE PUSH1 0x24 PUSH0 REVERT JUMPDEST PUSH32 0x417373657473206861766520616C7265616479206265656E2077697468647261 PUSH0 DUP3 ADD MSTORE PUSH32 0x776E210000000000000000000000000000000000000000000000000000000000 PUSH1 0x20 DUP3 ADD MSTORE POP JUMP JUMPDEST PUSH0 PUSH2 0x1955 PUSH1 0x23 DUP4 PUSH2 0x1830 JUMP JUMPDEST SWAP2 POP PUSH2 0x1960 DUP3 PUSH2 0x18FB JUMP JUMPDEST PUSH1 0x40 DUP3 ADD SWAP1 POP SWAP2 SWAP1 POP JUMP JUMPDEST PUSH0 PUSH1 0x20 DUP3 ADD SWAP1 POP DUP2 DUP2 SUB PUSH0 DUP4 ADD MSTORE PUSH2 0x1982 DUP2 PUSH2 0x1949 JUMP JUMPDEST SWAP1 POP SWAP2 SWAP1 POP JUMP JUMPDEST PUSH32 0x546865206C6F636B20706572696F6420686173206E6F74207965742065787069 PUSH0 DUP3 ADD MSTORE PUSH32 0x7265642100000000000000000000000000000000000000000000000000000000 PUSH1 0x20 DUP3 ADD MSTORE POP JUMP JUMPDEST PUSH0 PUSH2 0x19E3 PUSH1 0x24 DUP4 PUSH2 0x1830 JUMP JUMPDEST SWAP2 POP PUSH2 0x19EE DUP3 PUSH2 0x1989 JUMP JUMPDEST PUSH1 0x40 DUP3 ADD SWAP1 POP SWAP2 SWAP1 POP JUMP JUMPDEST PUSH0 PUSH1 0x20 DUP3 ADD SWAP1 POP DUP2 DUP2 SUB PUSH0 DUP4 ADD MSTORE PUSH2 0x1A10 DUP2 PUSH2 0x19D7 JUMP JUMPDEST SWAP1 POP SWAP2 SWAP1 POP JUMP JUMPDEST PUSH32 0x4E487B7100000000000000000000000000000000000000000000000000000000 PUSH0 MSTORE PUSH1 0x11 PUSH1 0x4 MSTORE PUSH1 0x24 PUSH0 REVERT JUMPDEST PUSH0 PUSH2 0x1A4E DUP3 PUSH2 0x13C0 JUMP JUMPDEST SWAP2 POP PUSH2 0x1A59 DUP4 PUSH2 0x13C0 JUMP JUMPDEST SWAP3 POP DUP3 DUP3 SUB SWAP1 POP DUP2 DUP2 GT ISZERO PUSH2 0x1A71 JUMPI PUSH2 0x1A70 PUSH2 0x1A17 JUMP JUMPDEST JUMPDEST SWAP3 SWAP2 POP POP JUMP JUMPDEST PUSH32 0x4E6F7420656E6F7567682061737365747320746F207769746864726177210000 PUSH0 DUP3 ADD MSTORE POP JUMP JUMPDEST PUSH0 PUSH2 0x1AAB PUSH1 0x1E DUP4 PUSH2 0x1830 JUMP JUMPDEST SWAP2 POP PUSH2 0x1AB6 DUP3 PUSH2 0x1A77 JUMP JUMPDEST PUSH1 0x20 DUP3 ADD SWAP1 POP SWAP2 SWAP1 POP JUMP JUMPDEST PUSH0 PUSH1 0x20 DUP3 ADD SWAP1 POP DUP2 DUP2 SUB PUSH0 DUP4 ADD MSTORE PUSH2 0x1AD8 DUP2 PUSH2 0x1A9F JUMP JUMPDEST SWAP1 POP SWAP2 SWAP1 POP JUMP JUMPDEST PUSH0 DUP2 SWAP1 POP SWAP3 SWAP2 POP POP JUMP JUMPDEST POP JUMP JUMPDEST PUSH0 PUSH2 0x1AF7 PUSH0 DUP4 PUSH2 0x1ADF JUMP JUMPDEST SWAP2 POP PUSH2 0x1B02 DUP3 PUSH2 0x1AE9 JUMP JUMPDEST PUSH0 DUP3 ADD SWAP1 POP SWAP2 SWAP1 POP JUMP JUMPDEST PUSH0 PUSH2 0x1B16 DUP3 PUSH2 0x1AEC JUMP JUMPDEST SWAP2 POP DUP2 SWAP1 POP SWAP2 SWAP1 POP JUMP JUMPDEST PUSH32 0x455448207472616E73666572206661696C656400000000000000000000000000 PUSH0 DUP3 ADD MSTORE POP JUMP JUMPDEST PUSH0 PUSH2 0x1B54 PUSH1 0x13 DUP4 PUSH2 0x1830 JUMP JUMPDEST SWAP2 POP PUSH2 0x1B5F DUP3 PUSH2 0x1B20 JUMP JUMPDEST PUSH1 0x20 DUP3 ADD SWAP1 POP SWAP2 SWAP1 POP JUMP JUMPDEST PUSH0 PUSH1 0x20 DUP3 ADD SWAP1 POP DUP2 DUP2 SUB PUSH0 DUP4 ADD MSTORE PUSH2 0x1B81 DUP2 PUSH2 0x1B48 JUMP JUMPDEST SWAP1 POP SWAP2 SWAP1 POP JUMP JUMPDEST PUSH0 PUSH1 0x40 DUP3 ADD SWAP1 POP PUSH2 0x1B9B PUSH0 DUP4 ADD DUP6 PUSH2 0x13C9 JUMP JUMPDEST PUSH2 0x1BA8 PUSH1 0x20 DUP4 ADD DUP5 PUSH2 0x15C1 JUMP JUMPDEST SWAP4 SWAP3 POP POP POP JUMP JUMPDEST PUSH32 0x45544820746F206C6F636B206D75737420612076616C75652067726561746572 PUSH0 DUP3 ADD MSTORE PUSH32 0x207468616E203000000000000000000000000000000000000000000000000000 PUSH1 0x20 DUP3 ADD MSTORE POP JUMP JUMPDEST PUSH0 PUSH2 0x1C09 PUSH1 0x27 DUP4 PUSH2 0x1830 JUMP JUMPDEST SWAP2 POP PUSH2 0x1C14 DUP3 PUSH2 0x1BAF JUMP JUMPDEST PUSH1 0x40 DUP3 ADD SWAP1 POP SWAP2 SWAP1 POP JUMP JUMPDEST PUSH0 PUSH1 0x20 DUP3 ADD SWAP1 POP DUP2 DUP2 SUB PUSH0 DUP4 ADD MSTORE PUSH2 0x1C36 DUP2 PUSH2 0x1BFD JUMP JUMPDEST SWAP1 POP SWAP2 SWAP1 POP JUMP JUMPDEST PUSH32 0x546865206C6F636B706572696F64206D75737420626520677265617465722074 PUSH0 DUP3 ADD MSTORE PUSH32 0x68656E207A65726F000000000000000000000000000000000000000000000000 PUSH1 0x20 DUP3 ADD MSTORE POP JUMP JUMPDEST PUSH0 PUSH2 0x1C97 PUSH1 0x28 DUP4 PUSH2 0x1830 JUMP JUMPDEST SWAP2 POP PUSH2 0x1CA2 DUP3 PUSH2 0x1C3D JUMP JUMPDEST PUSH1 0x40 DUP3 ADD SWAP1 POP SWAP2 SWAP1 POP JUMP JUMPDEST PUSH0 PUSH1 0x20 DUP3 ADD SWAP1 POP DUP2 DUP2 SUB PUSH0 DUP4 ADD MSTORE PUSH2 0x1CC4 DUP2 PUSH2 0x1C8B JUMP JUMPDEST SWAP1 POP SWAP2 SWAP1 POP JUMP JUMPDEST PUSH0 PUSH2 0x1CD5 DUP3 PUSH2 0x13C0 JUMP JUMPDEST SWAP2 POP PUSH2 0x1CE0 DUP4 PUSH2 0x13C0 JUMP JUMPDEST SWAP3 POP DUP3 DUP3 ADD SWAP1 POP DUP1 DUP3 GT ISZERO PUSH2 0x1CF8 JUMPI PUSH2 0x1CF7 PUSH2 0x1A17 JUMP JUMPDEST JUMPDEST SWAP3 SWAP2 POP POP JUMP JUMPDEST PUSH0 PUSH1 0x60 DUP3 ADD SWAP1 POP PUSH2 0x1D11 PUSH0 DUP4 ADD DUP7 PUSH2 0x13C9 JUMP JUMPDEST PUSH2 0x1D1E PUSH1 0x20 DUP4 ADD DUP6 PUSH2 0x15C1 JUMP JUMPDEST PUSH2 0x1D2B PUSH1 0x40 DUP4 ADD DUP5 PUSH2 0x13C9 JUMP JUMPDEST SWAP5 SWAP4 POP POP POP POP JUMP JUMPDEST PUSH32 0x4D7573742070726F7669646520612076616C696420746F6B656E206164647265 PUSH0 DUP3 ADD MSTORE PUSH32 0x7373000000000000000000000000000000000000000000000000000000000000 PUSH1 0x20 DUP3 ADD MSTORE POP JUMP JUMPDEST PUSH0 PUSH2 0x1D8D PUSH1 0x22 DUP4 PUSH2 0x1830 JUMP JUMPDEST SWAP2 POP PUSH2 0x1D98 DUP3 PUSH2 0x1D33 JUMP JUMPDEST PUSH1 0x40 DUP3 ADD SWAP1 POP SWAP2 SWAP1 POP JUMP JUMPDEST PUSH0 PUSH1 0x20 DUP3 ADD SWAP1 POP DUP2 DUP2 SUB PUSH0 DUP4 ADD MSTORE PUSH2 0x1DBA DUP2 PUSH2 0x1D81 JUMP JUMPDEST SWAP1 POP SWAP2 SWAP1 POP JUMP JUMPDEST PUSH32 0x546F6B656E20616D6F756E74206D757374206265206772656174657220746865 PUSH0 DUP3 ADD MSTORE PUSH32 0x6E207A65726F0000000000000000000000000000000000000000000000000000 PUSH1 0x20 DUP3 ADD MSTORE POP JUMP JUMPDEST PUSH0 PUSH2 0x1E1B PUSH1 0x26 DUP4 PUSH2 0x1830 JUMP JUMPDEST SWAP2 POP PUSH2 0x1E26 DUP3 PUSH2 0x1DC1 JUMP JUMPDEST PUSH1 0x40 DUP3 ADD SWAP1 POP SWAP2 SWAP1 POP JUMP JUMPDEST PUSH0 PUSH1 0x20 DUP3 ADD SWAP1 POP DUP2 DUP2 SUB PUSH0 DUP4 ADD MSTORE PUSH2 0x1E48 DUP2 PUSH2 0x1E0F JUMP JUMPDEST SWAP1 POP SWAP2 SWAP1 POP JUMP JUMPDEST PUSH32 0x546865206C6F636B20706572696F64206D757374206265206772656174657220 PUSH0 DUP3 ADD MSTORE PUSH32 0x7468656E207A65726F0000000000000000000000000000000000000000000000 PUSH1 0x20 DUP3 ADD MSTORE POP JUMP JUMPDEST PUSH0 PUSH2 0x1EA9 PUSH1 0x29 DUP4 PUSH2 0x1830 JUMP JUMPDEST SWAP2 POP PUSH2 0x1EB4 DUP3 PUSH2 0x1E4F JUMP JUMPDEST PUSH1 0x40 DUP3 ADD SWAP1 POP SWAP2 SWAP1 POP JUMP JUMPDEST PUSH0 PUSH1 0x20 DUP3 ADD SWAP1 POP DUP2 DUP2 SUB PUSH0 DUP4 ADD MSTORE PUSH2 0x1ED6 DUP2 PUSH2 0x1E9D JUMP JUMPDEST SWAP1 POP SWAP2 SWAP1 POP JUMP JUMPDEST PUSH32 0x4E6F7420656E6F75676820746F6B656E7320746F206C6F636B00000000000000 PUSH0 DUP3 ADD MSTORE POP JUMP JUMPDEST PUSH0 PUSH2 0x1F11 PUSH1 0x19 DUP4 PUSH2 0x1830 JUMP JUMPDEST SWAP2 POP PUSH2 0x1F1C DUP3 PUSH2 0x1EDD JUMP JUMPDEST PUSH1 0x20 DUP3 ADD SWAP1 POP SWAP2 SWAP1 POP JUMP JUMPDEST PUSH0 PUSH1 0x20 DUP3 ADD SWAP1 POP DUP2 DUP2 SUB PUSH0 DUP4 ADD MSTORE PUSH2 0x1F3E DUP2 PUSH2 0x1F05 JUMP JUMPDEST SWAP1 POP SWAP2 SWAP1 POP JUMP JUMPDEST PUSH0 PUSH1 0x40 DUP3 ADD SWAP1 POP PUSH2 0x1F58 PUSH0 DUP4 ADD DUP6 PUSH2 0x1531 JUMP JUMPDEST PUSH2 0x1F65 PUSH1 0x20 DUP4 ADD DUP5 PUSH2 0x13C9 JUMP JUMPDEST SWAP4 SWAP3 POP POP POP JUMP JUMPDEST PUSH0 PUSH1 0x60 DUP3 ADD SWAP1 POP PUSH2 0x1F7F PUSH0 DUP4 ADD DUP7 PUSH2 0x1531 JUMP JUMPDEST PUSH2 0x1F8C PUSH1 0x20 DUP4 ADD DUP6 PUSH2 0x1531 JUMP JUMPDEST PUSH2 0x1F99 PUSH1 0x40 DUP4 ADD DUP5 PUSH2 0x13C9 JUMP JUMPDEST SWAP5 SWAP4 POP POP POP POP JUMP INVALID LOG2 PUSH5 0x6970667358 0x22 SLT KECCAK256 XOR CALLCODE 0xB8 COINBASE 0xB5 DUP3 PUSH16 0xFFAD3FC79A6E23F34230E1454AD8B7DA EXTCODESIZE 0xB0 EXTCODEHASH 0xAA 0xD2 0xCC 0xCC 0xBF 0x23 PUSH5 0x736F6C6343 STOP ADDMOD BYTE STOP CALLER "
				},
				"gasEstimates": {
					"creation": {
						"codeDepositCost": "1630200",
						"executionCost": "infinite",
						"totalCost": "infinite"
					},
					"external": {
						"getContractETHBalance()": "334",
						"getContractTokenBalance(address)": "infinite",
						"getUserLocks()": "infinite",
						"lockETH(uint8,uint256)": "infinite",
						"lockToken(address,uint256,uint8,uint256)": "infinite",
						"owner()": "2537",
						"renounceOwnership()": "infinite",
						"transferAsset(uint256,uint256)": "infinite",
						"transferOwnership(address)": "infinite",
						"userLockedAssets(address,uint256)": "infinite"
					}
				},
				"methodIdentifiers": {
					"getContractETHBalance()": "8c89a0ad",
					"getContractTokenBalance(address)": "14205e28",
					"getUserLocks()": "f504b0a4",
					"lockETH(uint8,uint256)": "4ae39e3e",
					"lockToken(address,uint256,uint8,uint256)": "5c41ed7c",
					"owner()": "8da5cb5b",
					"renounceOwnership()": "715018a6",
					"transferAsset(uint256,uint256)": "3fcbb6ac",
					"transferOwnership(address)": "f2fde38b",
					"userLockedAssets(address,uint256)": "a0ffe2ba"
				}
			},
			"storageLayout": {
				"storage": [
					{
						"astId": 8,
						"contract": "contracts/Fvkry.sol:Fvkry",
						"label": "_owner",
						"offset": 0,
						"slot": "0",
						"type": "t_address"
					},
					{
						"astId": 765,
						"contract": "contracts/Fvkry.sol:Fvkry",
						"label": "_status",
						"offset": 0,
						"slot": "1",
						"type": "t_uint256"
					},
					{
						"astId": 868,
						"contract": "contracts/Fvkry.sol:Fvkry",
						"label": "userLockedAssets",
						"offset": 0,
						"slot": "2",
						"type": "t_mapping(t_address,t_array(t_struct(Lock)862_storage)dyn_storage)"
					}
				],
				"types": {
					"t_address": {
						"encoding": "inplace",
						"label": "address",
						"numberOfBytes": "20"
					},
					"t_array(t_struct(Lock)862_storage)dyn_storage": {
						"base": "t_struct(Lock)862_storage",
						"encoding": "dynamic_array",
						"label": "struct Fvkry.Lock[]",
						"numberOfBytes": "32"
					},
					"t_bool": {
						"encoding": "inplace",
						"label": "bool",
						"numberOfBytes": "1"
					},
					"t_mapping(t_address,t_array(t_struct(Lock)862_storage)dyn_storage)": {
						"encoding": "mapping",
						"key": "t_address",
						"label": "mapping(address => struct Fvkry.Lock[])",
						"numberOfBytes": "32",
						"value": "t_array(t_struct(Lock)862_storage)dyn_storage"
					},
					"t_struct(Lock)862_storage": {
						"encoding": "inplace",
						"label": "struct Fvkry.Lock",
						"members": [
							{
								"astId": 851,
								"contract": "contracts/Fvkry.sol:Fvkry",
								"label": "token",
								"offset": 0,
								"slot": "0",
								"type": "t_address"
							},
							{
								"astId": 853,
								"contract": "contracts/Fvkry.sol:Fvkry",
								"label": "amount",
								"offset": 0,
								"slot": "1",
								"type": "t_uint256"
							},
							{
								"astId": 855,
								"contract": "contracts/Fvkry.sol:Fvkry",
								"label": "lockEndTime",
								"offset": 0,
								"slot": "2",
								"type": "t_uint256"
							},
							{
								"astId": 857,
								"contract": "contracts/Fvkry.sol:Fvkry",
								"label": "vault",
								"offset": 0,
								"slot": "3",
								"type": "t_uint8"
							},
							{
								"astId": 859,
								"contract": "contracts/Fvkry.sol:Fvkry",
								"label": "withdrawn",
								"offset": 1,
								"slot": "3",
								"type": "t_bool"
							},
							{
								"astId": 861,
								"contract": "contracts/Fvkry.sol:Fvkry",
								"label": "isNative",
								"offset": 2,
								"slot": "3",
								"type": "t_bool"
							}
						],
						"numberOfBytes": "128"
					},
					"t_uint256": {
						"encoding": "inplace",
						"label": "uint256",
						"numberOfBytes": "32"
					},
					"t_uint8": {
						"encoding": "inplace",
						"label": "uint8",
						"numberOfBytes": "1"
					}
				}
			},
			"userdoc": {
				"kind": "user",
				"methods": {},
				"version": 1
			}
		}
	}
}