{
	"contracts/Fvkry.sol": {
		"Fvkry": {
			"abi": [
				{
					"inputs": [],
					"stateMutability": "nonpayable",
					"type": "constructor"
				},
				{
					"inputs": [
						{
							"internalType": "address",
							"name": "owner",
							"type": "address"
						}
					],
					"name": "OwnableInvalidOwner",
					"type": "error"
				},
				{
					"inputs": [
						{
							"internalType": "address",
							"name": "account",
							"type": "address"
						}
					],
					"name": "OwnableUnauthorizedAccount",
					"type": "error"
				},
				{
					"inputs": [],
					"name": "ReentrancyGuardReentrantCall",
					"type": "error"
				},
				{
					"inputs": [
						{
							"internalType": "address",
							"name": "token",
							"type": "address"
						}
					],
					"name": "SafeERC20FailedOperation",
					"type": "error"
				},
				{
					"anonymous": false,
					"inputs": [
						{
							"indexed": true,
							"internalType": "address",
							"name": "token",
							"type": "address"
						},
						{
							"indexed": false,
							"internalType": "uint256",
							"name": "amount",
							"type": "uint256"
						},
						{
							"indexed": false,
							"internalType": "string",
							"name": "title",
							"type": "string"
						},
						{
							"indexed": false,
							"internalType": "uint8",
							"name": "vault",
							"type": "uint8"
						},
						{
							"indexed": false,
							"internalType": "uint256",
							"name": "timestamp",
							"type": "uint256"
						}
					],
					"name": "AssetAdded",
					"type": "event"
				},
				{
					"anonymous": false,
					"inputs": [
						{
							"indexed": true,
							"internalType": "address",
							"name": "token",
							"type": "address"
						},
						{
							"indexed": false,
							"internalType": "uint256",
							"name": "amount",
							"type": "uint256"
						},
						{
							"indexed": false,
							"internalType": "string",
							"name": "title",
							"type": "string"
						},
						{
							"indexed": false,
							"internalType": "uint8",
							"name": "vault",
							"type": "uint8"
						},
						{
							"indexed": false,
							"internalType": "uint256",
							"name": "lockEndTime",
							"type": "uint256"
						},
						{
							"indexed": false,
							"internalType": "uint256",
							"name": "timestamp",
							"type": "uint256"
						}
					],
					"name": "AssetLocked",
					"type": "event"
				},
				{
					"anonymous": false,
					"inputs": [
						{
							"indexed": true,
							"internalType": "address",
							"name": "token",
							"type": "address"
						},
						{
							"indexed": false,
							"internalType": "uint256",
							"name": "amount",
							"type": "uint256"
						},
						{
							"indexed": false,
							"internalType": "string",
							"name": "title",
							"type": "string"
						},
						{
							"indexed": false,
							"internalType": "uint8",
							"name": "vault",
							"type": "uint8"
						},
						{
							"indexed": false,
							"internalType": "uint256",
							"name": "timestamp",
							"type": "uint256"
						}
					],
					"name": "AssetTransfered",
					"type": "event"
				},
				{
					"anonymous": false,
					"inputs": [
						{
							"indexed": true,
							"internalType": "address",
							"name": "token",
							"type": "address"
						},
						{
							"indexed": false,
							"internalType": "uint8",
							"name": "vault",
							"type": "uint8"
						},
						{
							"indexed": false,
							"internalType": "uint256",
							"name": "lockperiod",
							"type": "uint256"
						},
						{
							"indexed": false,
							"internalType": "string",
							"name": "title",
							"type": "string"
						},
						{
							"indexed": false,
							"internalType": "uint256",
							"name": "timestamp",
							"type": "uint256"
						}
					],
					"name": "LockPeriodExtended",
					"type": "event"
				},
				{
					"anonymous": false,
					"inputs": [
						{
							"indexed": true,
							"internalType": "address",
							"name": "previousOwner",
							"type": "address"
						},
						{
							"indexed": true,
							"internalType": "address",
							"name": "newOwner",
							"type": "address"
						}
					],
					"name": "OwnershipTransferred",
					"type": "event"
				},
				{
					"inputs": [
						{
							"internalType": "uint8",
							"name": "_vault",
							"type": "uint8"
						},
						{
							"internalType": "uint32",
							"name": "_assetID",
							"type": "uint32"
						}
					],
					"name": "addToLockedETH",
					"outputs": [],
					"stateMutability": "payable",
					"type": "function"
				},
				{
					"inputs": [
						{
							"internalType": "contract IERC20",
							"name": "_token",
							"type": "address"
						},
						{
							"internalType": "uint32",
							"name": "_assetID",
							"type": "uint32"
						},
						{
							"internalType": "uint256",
							"name": "_amount",
							"type": "uint256"
						},
						{
							"internalType": "uint8",
							"name": "_vault",
							"type": "uint8"
						}
					],
					"name": "addToLockedTokens",
					"outputs": [],
					"stateMutability": "nonpayable",
					"type": "function"
				},
				{
					"inputs": [
						{
							"internalType": "uint32",
							"name": "_assetID",
							"type": "uint32"
						},
						{
							"internalType": "uint8",
							"name": "_vault",
							"type": "uint8"
						},
						{
							"internalType": "uint256",
							"name": "_lockperiod",
							"type": "uint256"
						}
					],
					"name": "extendLockPeriod",
					"outputs": [],
					"stateMutability": "nonpayable",
					"type": "function"
				},
				{
					"inputs": [],
					"name": "getContractETHBalance",
					"outputs": [
						{
							"internalType": "uint256",
							"name": "",
							"type": "uint256"
						}
					],
					"stateMutability": "view",
					"type": "function"
				},
				{
					"inputs": [
						{
							"internalType": "contract IERC20",
							"name": "token",
							"type": "address"
						}
					],
					"name": "getContractTokenBalance",
					"outputs": [
						{
							"internalType": "uint256",
							"name": "",
							"type": "uint256"
						}
					],
					"stateMutability": "view",
					"type": "function"
				},
				{
					"inputs": [
						{
							"internalType": "uint8",
							"name": "_vault",
							"type": "uint8"
						}
					],
					"name": "getUserLocks",
					"outputs": [
						{
							"components": [
								{
									"internalType": "address",
									"name": "token",
									"type": "address"
								},
								{
									"internalType": "uint256",
									"name": "amount",
									"type": "uint256"
								},
								{
									"internalType": "uint256",
									"name": "lockEndTime",
									"type": "uint256"
								},
								{
									"internalType": "string",
									"name": "title",
									"type": "string"
								},
								{
									"internalType": "bool",
									"name": "withdrawn",
									"type": "bool"
								},
								{
									"internalType": "bool",
									"name": "isNative",
									"type": "bool"
								}
							],
							"internalType": "struct Fvkry.Lock[]",
							"name": "",
							"type": "tuple[]"
						}
					],
					"stateMutability": "view",
					"type": "function"
				},
				{
					"inputs": [
						{
							"internalType": "uint8",
							"name": "_vault",
							"type": "uint8"
						},
						{
							"internalType": "uint256",
							"name": "_lockperiod",
							"type": "uint256"
						},
						{
							"internalType": "string",
							"name": "_title",
							"type": "string"
						}
					],
					"name": "lockETH",
					"outputs": [],
					"stateMutability": "payable",
					"type": "function"
				},
				{
					"inputs": [
						{
							"internalType": "contract IERC20",
							"name": "_token",
							"type": "address"
						},
						{
							"internalType": "uint256",
							"name": "_amount",
							"type": "uint256"
						},
						{
							"internalType": "uint8",
							"name": "_vault",
							"type": "uint8"
						},
						{
							"internalType": "uint256",
							"name": "_lockperiod",
							"type": "uint256"
						},
						{
							"internalType": "string",
							"name": "_title",
							"type": "string"
						}
					],
					"name": "lockToken",
					"outputs": [],
					"stateMutability": "nonpayable",
					"type": "function"
				},
				{
					"inputs": [],
					"name": "owner",
					"outputs": [
						{
							"internalType": "address",
							"name": "",
							"type": "address"
						}
					],
					"stateMutability": "view",
					"type": "function"
				},
				{
					"inputs": [],
					"name": "renounceOwnership",
					"outputs": [],
					"stateMutability": "nonpayable",
					"type": "function"
				},
				{
					"inputs": [
						{
							"internalType": "uint32",
							"name": "_assetId",
							"type": "uint32"
						},
						{
							"internalType": "uint8",
							"name": "_vault",
							"type": "uint8"
						},
						{
							"internalType": "uint256",
							"name": "_amount",
							"type": "uint256"
						},
						{
							"internalType": "bool",
							"name": "_goalReachedByValue",
							"type": "bool"
						}
					],
					"name": "transferAsset",
					"outputs": [],
					"stateMutability": "nonpayable",
					"type": "function"
				},
				{
					"inputs": [
						{
							"internalType": "address",
							"name": "newOwner",
							"type": "address"
						}
					],
					"name": "transferOwnership",
					"outputs": [],
					"stateMutability": "nonpayable",
					"type": "function"
				},
				{
					"inputs": [
						{
							"internalType": "address",
							"name": "",
							"type": "address"
						},
						{
							"internalType": "uint8",
							"name": "",
							"type": "uint8"
						},
						{
							"internalType": "uint256",
							"name": "",
							"type": "uint256"
						}
					],
					"name": "userLockedAssets",
					"outputs": [
						{
							"internalType": "address",
							"name": "token",
							"type": "address"
						},
						{
							"internalType": "uint256",
							"name": "amount",
							"type": "uint256"
						},
						{
							"internalType": "uint256",
							"name": "lockEndTime",
							"type": "uint256"
						},
						{
							"internalType": "string",
							"name": "title",
							"type": "string"
						},
						{
							"internalType": "bool",
							"name": "withdrawn",
							"type": "bool"
						},
						{
							"internalType": "bool",
							"name": "isNative",
							"type": "bool"
						}
					],
					"stateMutability": "view",
					"type": "function"
				},
				{
					"inputs": [
						{
							"internalType": "address",
							"name": "",
							"type": "address"
						},
						{
							"internalType": "uint8",
							"name": "",
							"type": "uint8"
						},
						{
							"internalType": "uint256",
							"name": "",
							"type": "uint256"
						}
					],
					"name": "userTransactions",
					"outputs": [
						{
							"internalType": "address",
							"name": "token",
							"type": "address"
						},
						{
							"internalType": "uint256",
							"name": "amount",
							"type": "uint256"
						},
						{
							"internalType": "string",
							"name": "title",
							"type": "string"
						},
						{
							"internalType": "bool",
							"name": "withdrawn",
							"type": "bool"
						},
						{
							"internalType": "uint256",
							"name": "timestamp",
							"type": "uint256"
						}
					],
					"stateMutability": "view",
					"type": "function"
				}
			],
			"devdoc": {
				"errors": {
					"OwnableInvalidOwner(address)": [
						{
							"details": "The owner is not a valid owner account. (eg. `address(0)`)"
						}
					],
					"OwnableUnauthorizedAccount(address)": [
						{
							"details": "The caller account is not authorized to perform an operation."
						}
					],
					"ReentrancyGuardReentrantCall()": [
						{
							"details": "Unauthorized reentrant call."
						}
					],
					"SafeERC20FailedOperation(address)": [
						{
							"details": "An operation with an ERC-20 token failed."
						}
					]
				},
				"kind": "dev",
				"methods": {
					"owner()": {
						"details": "Returns the address of the current owner."
					},
					"renounceOwnership()": {
						"details": "Leaves the contract without owner. It will not be possible to call `onlyOwner` functions. Can only be called by the current owner. NOTE: Renouncing ownership will leave the contract without an owner, thereby disabling any functionality that is only available to the owner."
					},
					"transferOwnership(address)": {
						"details": "Transfers ownership of the contract to a new account (`newOwner`). Can only be called by the current owner."
					}
				},
				"version": 1
			},
			"evm": {
				"assembly": "    /* \"contracts/Fvkry.sol\":305:8063  contract Fvkry is Ownable, ReentrancyGuard {... */\n  mstore(0x40, 0x80)\n    /* \"contracts/Fvkry.sol\":1384:1420  constructor() Ownable(msg.sender) {} */\n  callvalue\n  dup1\n  iszero\n  tag_1\n  jumpi\n  0x00\n  dup1\n  revert\ntag_1:\n  pop\n    /* \"contracts/Fvkry.sol\":1406:1416  msg.sender */\n  caller\n    /* \"@openzeppelin/contracts/access/Ownable.sol\":1297:1298  0 */\n  0x00\n    /* \"@openzeppelin/contracts/access/Ownable.sol\":1273:1299  initialOwner == address(0) */\n  0xffffffffffffffffffffffffffffffffffffffff\n  and\n    /* \"@openzeppelin/contracts/access/Ownable.sol\":1273:1285  initialOwner */\n  dup2\n    /* \"@openzeppelin/contracts/access/Ownable.sol\":1273:1299  initialOwner == address(0) */\n  0xffffffffffffffffffffffffffffffffffffffff\n  and\n  sub\n    /* \"@openzeppelin/contracts/access/Ownable.sol\":1269:1364  if (initialOwner == address(0)) {... */\n  tag_6\n  jumpi\n    /* \"@openzeppelin/contracts/access/Ownable.sol\":1350:1351  0 */\n  0x00\n    /* \"@openzeppelin/contracts/access/Ownable.sol\":1322:1353  OwnableInvalidOwner(address(0)) */\n  mload(0x40)\n  0x1e4fbdf700000000000000000000000000000000000000000000000000000000\n  dup2\n  mstore\n  0x04\n  add\n  tag_7\n  swap2\n  swap1\n  tag_8\n  jump\t// in\ntag_7:\n  mload(0x40)\n  dup1\n  swap2\n  sub\n  swap1\n  revert\n    /* \"@openzeppelin/contracts/access/Ownable.sol\":1269:1364  if (initialOwner == address(0)) {... */\ntag_6:\n    /* \"@openzeppelin/contracts/access/Ownable.sol\":1373:1405  _transferOwnership(initialOwner) */\n  tag_9\n    /* \"@openzeppelin/contracts/access/Ownable.sol\":1392:1404  initialOwner */\n  dup2\n    /* \"@openzeppelin/contracts/access/Ownable.sol\":1373:1391  _transferOwnership */\n  shl(0x20, tag_10)\n    /* \"@openzeppelin/contracts/access/Ownable.sol\":1373:1405  _transferOwnership(initialOwner) */\n  0x20\n  shr\n  jump\t// in\ntag_9:\n    /* \"@openzeppelin/contracts/access/Ownable.sol\":1225:1412  constructor(address initialOwner) {... */\n  pop\n    /* \"@openzeppelin/contracts/utils/ReentrancyGuard.sol\":1857:1858  1 */\n  0x01\n    /* \"@openzeppelin/contracts/utils/ReentrancyGuard.sol\":2061:2068  _status */\n  dup1\n    /* \"@openzeppelin/contracts/utils/ReentrancyGuard.sol\":2061:2082  _status = NOT_ENTERED */\n  dup2\n  swap1\n  sstore\n  pop\n    /* \"contracts/Fvkry.sol\":305:8063  contract Fvkry is Ownable, ReentrancyGuard {... */\n  jump(tag_13)\n    /* \"@openzeppelin/contracts/access/Ownable.sol\":2912:3099  function _transferOwnership(address newOwner) internal virtual {... */\ntag_10:\n    /* \"@openzeppelin/contracts/access/Ownable.sol\":2985:3001  address oldOwner */\n  0x00\n    /* \"@openzeppelin/contracts/access/Ownable.sol\":3004:3010  _owner */\n  dup1\n  0x00\n  swap1\n  sload\n  swap1\n  0x0100\n  exp\n  swap1\n  div\n  0xffffffffffffffffffffffffffffffffffffffff\n  and\n    /* \"@openzeppelin/contracts/access/Ownable.sol\":2985:3010  address oldOwner = _owner */\n  swap1\n  pop\n    /* \"@openzeppelin/contracts/access/Ownable.sol\":3029:3037  newOwner */\n  dup2\n    /* \"@openzeppelin/contracts/access/Ownable.sol\":3020:3026  _owner */\n  0x00\n  dup1\n    /* \"@openzeppelin/contracts/access/Ownable.sol\":3020:3037  _owner = newOwner */\n  0x0100\n  exp\n  dup2\n  sload\n  dup2\n  0xffffffffffffffffffffffffffffffffffffffff\n  mul\n  not\n  and\n  swap1\n  dup4\n  0xffffffffffffffffffffffffffffffffffffffff\n  and\n  mul\n  or\n  swap1\n  sstore\n  pop\n    /* \"@openzeppelin/contracts/access/Ownable.sol\":3083:3091  newOwner */\n  dup2\n    /* \"@openzeppelin/contracts/access/Ownable.sol\":3052:3092  OwnershipTransferred(oldOwner, newOwner) */\n  0xffffffffffffffffffffffffffffffffffffffff\n  and\n    /* \"@openzeppelin/contracts/access/Ownable.sol\":3073:3081  oldOwner */\n  dup2\n    /* \"@openzeppelin/contracts/access/Ownable.sol\":3052:3092  OwnershipTransferred(oldOwner, newOwner) */\n  0xffffffffffffffffffffffffffffffffffffffff\n  and\n  0x8be0079c531659141344cd1fd0a4f28419497f9722a3daafe3b4186f6b6457e0\n  mload(0x40)\n  mload(0x40)\n  dup1\n  swap2\n  sub\n  swap1\n  log3\n    /* \"@openzeppelin/contracts/access/Ownable.sol\":2975:3099  {... */\n  pop\n    /* \"@openzeppelin/contracts/access/Ownable.sol\":2912:3099  function _transferOwnership(address newOwner) internal virtual {... */\n  pop\n  jump\t// out\n    /* \"#utility.yul\":7:133   */\ntag_15:\n    /* \"#utility.yul\":44:51   */\n  0x00\n    /* \"#utility.yul\":84:126   */\n  0xffffffffffffffffffffffffffffffffffffffff\n    /* \"#utility.yul\":77:82   */\n  dup3\n    /* \"#utility.yul\":73:127   */\n  and\n    /* \"#utility.yul\":62:127   */\n  swap1\n  pop\n    /* \"#utility.yul\":7:133   */\n  swap2\n  swap1\n  pop\n  jump\t// out\n    /* \"#utility.yul\":139:235   */\ntag_16:\n    /* \"#utility.yul\":176:183   */\n  0x00\n    /* \"#utility.yul\":205:229   */\n  tag_21\n    /* \"#utility.yul\":223:228   */\n  dup3\n    /* \"#utility.yul\":205:229   */\n  tag_15\n  jump\t// in\ntag_21:\n    /* \"#utility.yul\":194:229   */\n  swap1\n  pop\n    /* \"#utility.yul\":139:235   */\n  swap2\n  swap1\n  pop\n  jump\t// out\n    /* \"#utility.yul\":241:359   */\ntag_17:\n    /* \"#utility.yul\":328:352   */\n  tag_23\n    /* \"#utility.yul\":346:351   */\n  dup2\n    /* \"#utility.yul\":328:352   */\n  tag_16\n  jump\t// in\ntag_23:\n    /* \"#utility.yul\":323:326   */\n  dup3\n    /* \"#utility.yul\":316:353   */\n  mstore\n    /* \"#utility.yul\":241:359   */\n  pop\n  pop\n  jump\t// out\n    /* \"#utility.yul\":365:587   */\ntag_8:\n    /* \"#utility.yul\":458:462   */\n  0x00\n    /* \"#utility.yul\":496:498   */\n  0x20\n    /* \"#utility.yul\":485:494   */\n  dup3\n    /* \"#utility.yul\":481:499   */\n  add\n    /* \"#utility.yul\":473:499   */\n  swap1\n  pop\n    /* \"#utility.yul\":509:580   */\n  tag_25\n    /* \"#utility.yul\":577:578   */\n  0x00\n    /* \"#utility.yul\":566:575   */\n  dup4\n    /* \"#utility.yul\":562:579   */\n  add\n    /* \"#utility.yul\":553:559   */\n  dup5\n    /* \"#utility.yul\":509:580   */\n  tag_17\n  jump\t// in\ntag_25:\n    /* \"#utility.yul\":365:587   */\n  swap3\n  swap2\n  pop\n  pop\n  jump\t// out\n    /* \"contracts/Fvkry.sol\":305:8063  contract Fvkry is Ownable, ReentrancyGuard {... */\ntag_13:\n  dataSize(sub_0)\n  dup1\n  dataOffset(sub_0)\n  0x00\n  codecopy\n  0x00\n  return\nstop\n\nsub_0: assembly {\n        /* \"contracts/Fvkry.sol\":305:8063  contract Fvkry is Ownable, ReentrancyGuard {... */\n      mstore(0x40, 0x80)\n      jumpi(tag_1, lt(calldatasize, 0x04))\n      shr(0xe0, calldataload(0x00))\n      dup1\n      0x8c89a0ad\n      gt\n      tag_16\n      jumpi\n      dup1\n      0x8e06b906\n      gt\n      tag_17\n      jumpi\n      dup1\n      0x8e06b906\n      eq\n      tag_12\n      jumpi\n      dup1\n      0xc5f441ea\n      eq\n      tag_13\n      jumpi\n      dup1\n      0xecaa9d05\n      eq\n      tag_14\n      jumpi\n      dup1\n      0xf2fde38b\n      eq\n      tag_15\n      jumpi\n      jump(tag_1)\n    tag_17:\n      dup1\n      0x8c89a0ad\n      eq\n      tag_9\n      jumpi\n      dup1\n      0x8da5cb5b\n      eq\n      tag_10\n      jumpi\n      dup1\n      0x8de8107b\n      eq\n      tag_11\n      jumpi\n      jump(tag_1)\n    tag_16:\n      dup1\n      0x2d8fefc2\n      gt\n      tag_18\n      jumpi\n      dup1\n      0x2d8fefc2\n      eq\n      tag_5\n      jumpi\n      dup1\n      0x3b958c38\n      eq\n      tag_6\n      jumpi\n      dup1\n      0x60864eed\n      eq\n      tag_7\n      jumpi\n      dup1\n      0x715018a6\n      eq\n      tag_8\n      jumpi\n      jump(tag_1)\n    tag_18:\n      dup1\n      0x0f1419b5\n      eq\n      tag_2\n      jumpi\n      dup1\n      0x13a2e884\n      eq\n      tag_3\n      jumpi\n      dup1\n      0x14205e28\n      eq\n      tag_4\n      jumpi\n    tag_1:\n      0x00\n      dup1\n      revert\n        /* \"contracts/Fvkry.sol\":2893:4095  function lockToken (IERC20 _token, uint256 _amount, uint8 _vault, uint256 _lockperiod, string memory _title) external nonReentrant {... */\n    tag_2:\n      callvalue\n      dup1\n      iszero\n      tag_19\n      jumpi\n      0x00\n      dup1\n      revert\n    tag_19:\n      pop\n      tag_20\n      0x04\n      dup1\n      calldatasize\n      sub\n      dup2\n      add\n      swap1\n      tag_21\n      swap2\n      swap1\n      tag_22\n      jump\t// in\n    tag_21:\n      tag_23\n      jump\t// in\n    tag_20:\n      stop\n        /* \"contracts/Fvkry.sol\":1444:2273  function lockETH(uint8 _vault, uint256 _lockperiod, string memory _title) external payable nonReentrant {... */\n    tag_3:\n      tag_24\n      0x04\n      dup1\n      calldatasize\n      sub\n      dup2\n      add\n      swap1\n      tag_25\n      swap2\n      swap1\n      tag_26\n      jump\t// in\n    tag_25:\n      tag_27\n      jump\t// in\n    tag_24:\n      stop\n        /* \"contracts/Fvkry.sol\":6994:7129  function getContractTokenBalance(IERC20 token) external view returns (uint256) {... */\n    tag_4:\n      callvalue\n      dup1\n      iszero\n      tag_28\n      jumpi\n      0x00\n      dup1\n      revert\n    tag_28:\n      pop\n      tag_29\n      0x04\n      dup1\n      calldatasize\n      sub\n      dup2\n      add\n      swap1\n      tag_30\n      swap2\n      swap1\n      tag_31\n      jump\t// in\n    tag_30:\n      tag_32\n      jump\t// in\n    tag_29:\n      mload(0x40)\n      tag_33\n      swap2\n      swap1\n      tag_34\n      jump\t// in\n    tag_33:\n      mload(0x40)\n      dup1\n      swap2\n      sub\n      swap1\n      return\n        /* \"contracts/Fvkry.sol\":4103:4884  function addToLockedTokens(IERC20 _token, uint32 _assetID, uint256 _amount, uint8 _vault) external  nonReentrant {... */\n    tag_5:\n      callvalue\n      dup1\n      iszero\n      tag_35\n      jumpi\n      0x00\n      dup1\n      revert\n    tag_35:\n      pop\n      tag_36\n      0x04\n      dup1\n      calldatasize\n      sub\n      dup2\n      add\n      swap1\n      tag_37\n      swap2\n      swap1\n      tag_38\n      jump\t// in\n    tag_37:\n      tag_39\n      jump\t// in\n    tag_36:\n      stop\n        /* \"contracts/Fvkry.sol\":7287:7421  function getUserLocks(uint8 _vault) public view returns (Lock[] memory) {... */\n    tag_6:\n      callvalue\n      dup1\n      iszero\n      tag_40\n      jumpi\n      0x00\n      dup1\n      revert\n    tag_40:\n      pop\n      tag_41\n      0x04\n      dup1\n      calldatasize\n      sub\n      dup2\n      add\n      swap1\n      tag_42\n      swap2\n      swap1\n      tag_43\n      jump\t// in\n    tag_42:\n      tag_44\n      jump\t// in\n    tag_41:\n      mload(0x40)\n      tag_45\n      swap2\n      swap1\n      tag_46\n      jump\t// in\n    tag_45:\n      mload(0x40)\n      dup1\n      swap2\n      sub\n      swap1\n      return\n        /* \"contracts/Fvkry.sol\":810:887  mapping (address => mapping (uint8 => TransacHist[])) public userTransactions */\n    tag_7:\n      callvalue\n      dup1\n      iszero\n      tag_47\n      jumpi\n      0x00\n      dup1\n      revert\n    tag_47:\n      pop\n      tag_48\n      0x04\n      dup1\n      calldatasize\n      sub\n      dup2\n      add\n      swap1\n      tag_49\n      swap2\n      swap1\n      tag_50\n      jump\t// in\n    tag_49:\n      tag_51\n      jump\t// in\n    tag_48:\n      mload(0x40)\n      tag_52\n      swap6\n      swap5\n      swap4\n      swap3\n      swap2\n      swap1\n      tag_53\n      jump\t// in\n    tag_52:\n      mload(0x40)\n      dup1\n      swap2\n      sub\n      swap1\n      return\n        /* \"@openzeppelin/contracts/access/Ownable.sol\":2293:2394  function renounceOwnership() public virtual onlyOwner {... */\n    tag_8:\n      callvalue\n      dup1\n      iszero\n      tag_54\n      jumpi\n      0x00\n      dup1\n      revert\n    tag_54:\n      pop\n      tag_55\n      tag_56\n      jump\t// in\n    tag_55:\n      stop\n        /* \"contracts/Fvkry.sol\":7137:7249  function getContractETHBalance() external view returns (uint256) {... */\n    tag_9:\n      callvalue\n      dup1\n      iszero\n      tag_57\n      jumpi\n      0x00\n      dup1\n      revert\n    tag_57:\n      pop\n      tag_58\n      tag_59\n      jump\t// in\n    tag_58:\n      mload(0x40)\n      tag_60\n      swap2\n      swap1\n      tag_34\n      jump\t// in\n    tag_60:\n      mload(0x40)\n      dup1\n      swap2\n      sub\n      swap1\n      return\n        /* \"@openzeppelin/contracts/access/Ownable.sol\":1638:1723  function owner() public view virtual returns (address) {... */\n    tag_10:\n      callvalue\n      dup1\n      iszero\n      tag_61\n      jumpi\n      0x00\n      dup1\n      revert\n    tag_61:\n      pop\n      tag_62\n      tag_63\n      jump\t// in\n    tag_62:\n      mload(0x40)\n      tag_64\n      swap2\n      swap1\n      tag_65\n      jump\t// in\n    tag_64:\n      mload(0x40)\n      dup1\n      swap2\n      sub\n      swap1\n      return\n        /* \"contracts/Fvkry.sol\":7468:8058  function extendLockPeriod(uint32 _assetID, uint8 _vault, uint256 _lockperiod) external  {... */\n    tag_11:\n      callvalue\n      dup1\n      iszero\n      tag_66\n      jumpi\n      0x00\n      dup1\n      revert\n    tag_66:\n      pop\n      tag_67\n      0x04\n      dup1\n      calldatasize\n      sub\n      dup2\n      add\n      swap1\n      tag_68\n      swap2\n      swap1\n      tag_69\n      jump\t// in\n    tag_68:\n      tag_70\n      jump\t// in\n    tag_67:\n      stop\n        /* \"contracts/Fvkry.sol\":733:803  mapping (address => mapping (uint8 => Lock[])) public userLockedAssets */\n    tag_12:\n      callvalue\n      dup1\n      iszero\n      tag_71\n      jumpi\n      0x00\n      dup1\n      revert\n    tag_71:\n      pop\n      tag_72\n      0x04\n      dup1\n      calldatasize\n      sub\n      dup2\n      add\n      swap1\n      tag_73\n      swap2\n      swap1\n      tag_50\n      jump\t// in\n    tag_73:\n      tag_74\n      jump\t// in\n    tag_72:\n      mload(0x40)\n      tag_75\n      swap7\n      swap6\n      swap5\n      swap4\n      swap3\n      swap2\n      swap1\n      tag_76\n      jump\t// in\n    tag_75:\n      mload(0x40)\n      dup1\n      swap2\n      sub\n      swap1\n      return\n        /* \"contracts/Fvkry.sol\":4915:6530  function transferAsset( uint32 _assetId,uint8 _vault, uint256 _amount, bool _goalReachedByValue) external  nonReentrant {... */\n    tag_13:\n      callvalue\n      dup1\n      iszero\n      tag_77\n      jumpi\n      0x00\n      dup1\n      revert\n    tag_77:\n      pop\n      tag_78\n      0x04\n      dup1\n      calldatasize\n      sub\n      dup2\n      add\n      swap1\n      tag_79\n      swap2\n      swap1\n      tag_80\n      jump\t// in\n    tag_79:\n      tag_81\n      jump\t// in\n    tag_78:\n      stop\n        /* \"contracts/Fvkry.sol\":2281:2860  function addToLockedETH(uint8 _vault, uint32 _assetID) external payable  nonReentrant {... */\n    tag_14:\n      tag_82\n      0x04\n      dup1\n      calldatasize\n      sub\n      dup2\n      add\n      swap1\n      tag_83\n      swap2\n      swap1\n      tag_84\n      jump\t// in\n    tag_83:\n      tag_85\n      jump\t// in\n    tag_82:\n      stop\n        /* \"@openzeppelin/contracts/access/Ownable.sol\":2543:2758  function transferOwnership(address newOwner) public virtual onlyOwner {... */\n    tag_15:\n      callvalue\n      dup1\n      iszero\n      tag_86\n      jumpi\n      0x00\n      dup1\n      revert\n    tag_86:\n      pop\n      tag_87\n      0x04\n      dup1\n      calldatasize\n      sub\n      dup2\n      add\n      swap1\n      tag_88\n      swap2\n      swap1\n      tag_89\n      jump\t// in\n    tag_88:\n      tag_90\n      jump\t// in\n    tag_87:\n      stop\n        /* \"contracts/Fvkry.sol\":2893:4095  function lockToken (IERC20 _token, uint256 _amount, uint8 _vault, uint256 _lockperiod, string memory _title) external nonReentrant {... */\n    tag_23:\n        /* \"@openzeppelin/contracts/utils/ReentrancyGuard.sol\":2500:2521  _nonReentrantBefore() */\n      tag_92\n        /* \"@openzeppelin/contracts/utils/ReentrancyGuard.sol\":2500:2519  _nonReentrantBefore */\n      tag_93\n        /* \"@openzeppelin/contracts/utils/ReentrancyGuard.sol\":2500:2521  _nonReentrantBefore() */\n      jump\t// in\n    tag_92:\n        /* \"contracts/Fvkry.sol\":3070:3071  0 */\n      0x00\n        /* \"contracts/Fvkry.sol\":3043:3072  address(_token) != address(0) */\n      0xffffffffffffffffffffffffffffffffffffffff\n      and\n        /* \"contracts/Fvkry.sol\":3051:3057  _token */\n      dup6\n        /* \"contracts/Fvkry.sol\":3043:3072  address(_token) != address(0) */\n      0xffffffffffffffffffffffffffffffffffffffff\n      and\n      sub\n        /* \"contracts/Fvkry.sol\":3035:3111  require(address(_token) != address(0), \"Must provide a valid token address\") */\n      tag_95\n      jumpi\n      mload(0x40)\n      0x08c379a000000000000000000000000000000000000000000000000000000000\n      dup2\n      mstore\n      0x04\n      add\n      tag_96\n      swap1\n      tag_97\n      jump\t// in\n    tag_96:\n      mload(0x40)\n      dup1\n      swap2\n      sub\n      swap1\n      revert\n    tag_95:\n        /* \"contracts/Fvkry.sol\":3140:3141  0 */\n      0x00\n        /* \"contracts/Fvkry.sol\":3130:3137  _amount */\n      dup5\n        /* \"contracts/Fvkry.sol\":3130:3141  _amount > 0 */\n      gt\n        /* \"contracts/Fvkry.sol\":3122:3184  require(_amount > 0, \"Token amount must be greater then zero\") */\n      tag_98\n      jumpi\n      mload(0x40)\n      0x08c379a000000000000000000000000000000000000000000000000000000000\n      dup2\n      mstore\n      0x04\n      add\n      tag_99\n      swap1\n      tag_100\n      jump\t// in\n    tag_99:\n      mload(0x40)\n      dup1\n      swap2\n      sub\n      swap1\n      revert\n    tag_98:\n        /* \"contracts/Fvkry.sol\":3217:3218  0 */\n      0x00\n        /* \"contracts/Fvkry.sol\":3203:3214  _lockperiod */\n      dup3\n        /* \"contracts/Fvkry.sol\":3203:3218  _lockperiod > 0 */\n      gt\n        /* \"contracts/Fvkry.sol\":3195:3264  require(_lockperiod > 0, \"The lock period must be greater then zero\") */\n      tag_101\n      jumpi\n      mload(0x40)\n      0x08c379a000000000000000000000000000000000000000000000000000000000\n      dup2\n      mstore\n      0x04\n      add\n      tag_102\n      swap1\n      tag_103\n      jump\t// in\n    tag_102:\n      mload(0x40)\n      dup1\n      swap2\n      sub\n      swap1\n      revert\n    tag_101:\n        /* \"contracts/Fvkry.sol\":3277:3298  uint256 _tokenBalance */\n      0x00\n        /* \"contracts/Fvkry.sol\":3301:3307  _token */\n      dup6\n        /* \"contracts/Fvkry.sol\":3301:3317  _token.balanceOf */\n      0xffffffffffffffffffffffffffffffffffffffff\n      and\n      0x70a08231\n        /* \"contracts/Fvkry.sol\":3318:3328  msg.sender */\n      caller\n        /* \"contracts/Fvkry.sol\":3301:3329  _token.balanceOf(msg.sender) */\n      mload(0x40)\n      dup3\n      0xffffffff\n      and\n      0xe0\n      shl\n      dup2\n      mstore\n      0x04\n      add\n      tag_104\n      swap2\n      swap1\n      tag_65\n      jump\t// in\n    tag_104:\n      0x20\n      mload(0x40)\n      dup1\n      dup4\n      sub\n      dup2\n      dup7\n      gas\n      staticcall\n      iszero\n      dup1\n      iszero\n      tag_106\n      jumpi\n      returndatasize\n      0x00\n      dup1\n      returndatacopy\n      revert(0x00, returndatasize)\n    tag_106:\n      pop\n      pop\n      pop\n      pop\n      mload(0x40)\n      returndatasize\n      not(0x1f)\n      0x1f\n      dup3\n      add\n      and\n      dup3\n      add\n      dup1\n      0x40\n      mstore\n      pop\n      dup2\n      add\n      swap1\n      tag_107\n      swap2\n      swap1\n      tag_108\n      jump\t// in\n    tag_107:\n        /* \"contracts/Fvkry.sol\":3277:3329  uint256 _tokenBalance = _token.balanceOf(msg.sender) */\n      swap1\n      pop\n        /* \"contracts/Fvkry.sol\":3360:3373  _tokenBalance */\n      dup1\n        /* \"contracts/Fvkry.sol\":3349:3356  _amount */\n      dup6\n        /* \"contracts/Fvkry.sol\":3349:3373  _amount <= _tokenBalance */\n      gt\n      iszero\n        /* \"contracts/Fvkry.sol\":3340:3403  require (_amount <= _tokenBalance, \"Not enough tokens to lock\") */\n      tag_109\n      jumpi\n      mload(0x40)\n      0x08c379a000000000000000000000000000000000000000000000000000000000\n      dup2\n      mstore\n      0x04\n      add\n      tag_110\n      swap1\n      tag_111\n      jump\t// in\n    tag_110:\n      mload(0x40)\n      dup1\n      swap2\n      sub\n      swap1\n      revert\n    tag_109:\n        /* \"contracts/Fvkry.sol\":3466:3525  _token.safeTransferFrom(msg.sender, address(this), _amount) */\n      tag_112\n        /* \"contracts/Fvkry.sol\":3490:3500  msg.sender */\n      caller\n        /* \"contracts/Fvkry.sol\":3510:3514  this */\n      address\n        /* \"contracts/Fvkry.sol\":3517:3524  _amount */\n      dup8\n        /* \"contracts/Fvkry.sol\":3466:3472  _token */\n      dup10\n        /* \"contracts/Fvkry.sol\":3466:3489  _token.safeTransferFrom */\n      0xffffffffffffffffffffffffffffffffffffffff\n      and\n      tag_113\n      swap1\n        /* \"contracts/Fvkry.sol\":3466:3525  _token.safeTransferFrom(msg.sender, address(this), _amount) */\n      swap4\n      swap3\n      swap2\n      swap1\n      0xffffffff\n      and\n      jump\t// in\n    tag_112:\n        /* \"contracts/Fvkry.sol\":3580:3596  userLockedAssets */\n      0x02\n        /* \"contracts/Fvkry.sol\":3580:3608  userLockedAssets[msg.sender] */\n      0x00\n        /* \"contracts/Fvkry.sol\":3597:3607  msg.sender */\n      caller\n        /* \"contracts/Fvkry.sol\":3580:3608  userLockedAssets[msg.sender] */\n      0xffffffffffffffffffffffffffffffffffffffff\n      and\n      0xffffffffffffffffffffffffffffffffffffffff\n      and\n      dup2\n      mstore\n      0x20\n      add\n      swap1\n      dup2\n      mstore\n      0x20\n      add\n      0x00\n      keccak256\n        /* \"contracts/Fvkry.sol\":3580:3616  userLockedAssets[msg.sender][_vault] */\n      0x00\n        /* \"contracts/Fvkry.sol\":3609:3615  _vault */\n      dup6\n        /* \"contracts/Fvkry.sol\":3580:3616  userLockedAssets[msg.sender][_vault] */\n      0xff\n      and\n      0xff\n      and\n      dup2\n      mstore\n      0x20\n      add\n      swap1\n      dup2\n      mstore\n      0x20\n      add\n      0x00\n      keccak256\n        /* \"contracts/Fvkry.sol\":3622:3862  Lock({... */\n      mload(0x40)\n      dup1\n      0xc0\n      add\n      0x40\n      mstore\n      dup1\n        /* \"contracts/Fvkry.sol\":3657:3663  _token */\n      dup9\n        /* \"contracts/Fvkry.sol\":3622:3862  Lock({... */\n      0xffffffffffffffffffffffffffffffffffffffff\n      and\n      dup2\n      mstore\n      0x20\n      add\n        /* \"contracts/Fvkry.sol\":3688:3695  _amount */\n      dup8\n        /* \"contracts/Fvkry.sol\":3622:3862  Lock({... */\n      dup2\n      mstore\n      0x20\n      add\n        /* \"contracts/Fvkry.sol\":3743:3754  _lockperiod */\n      dup6\n        /* \"contracts/Fvkry.sol\":3725:3740  block.timestamp */\n      timestamp\n        /* \"contracts/Fvkry.sol\":3725:3754  block.timestamp + _lockperiod */\n      tag_114\n      swap2\n      swap1\n      tag_115\n      jump\t// in\n    tag_114:\n        /* \"contracts/Fvkry.sol\":3622:3862  Lock({... */\n      dup2\n      mstore\n      0x20\n      add\n        /* \"contracts/Fvkry.sol\":3776:3782  _title */\n      dup5\n        /* \"contracts/Fvkry.sol\":3622:3862  Lock({... */\n      dup2\n      mstore\n      0x20\n      add\n        /* \"contracts/Fvkry.sol\":3812:3817  false */\n      0x00\n        /* \"contracts/Fvkry.sol\":3622:3862  Lock({... */\n      iszero\n      iszero\n      dup2\n      mstore\n      0x20\n      add\n        /* \"contracts/Fvkry.sol\":3845:3850  false */\n      0x00\n        /* \"contracts/Fvkry.sol\":3622:3862  Lock({... */\n      iszero\n      iszero\n      dup2\n      mstore\n      pop\n        /* \"contracts/Fvkry.sol\":3580:3863  userLockedAssets[msg.sender][_vault].push(Lock({... */\n      swap1\n      dup1\n      0x01\n      dup2\n      sload\n      add\n      dup1\n      dup3\n      sstore\n      dup1\n      swap2\n      pop\n      pop\n      0x01\n      swap1\n      sub\n      swap1\n      0x00\n      mstore\n      keccak256(0x00, 0x20)\n      swap1\n      0x05\n      mul\n      add\n      0x00\n      swap1\n      swap2\n      swap1\n      swap2\n      swap1\n      swap2\n      pop\n      0x00\n      dup3\n      add\n      mload\n      dup2\n      0x00\n      add\n      exp(0x0100, 0x00)\n      dup2\n      sload\n      dup2\n      0xffffffffffffffffffffffffffffffffffffffff\n      mul\n      not\n      and\n      swap1\n      dup4\n      0xffffffffffffffffffffffffffffffffffffffff\n      and\n      mul\n      or\n      swap1\n      sstore\n      pop\n      0x20\n      dup3\n      add\n      mload\n      dup2\n      0x01\n      add\n      sstore\n      0x40\n      dup3\n      add\n      mload\n      dup2\n      0x02\n      add\n      sstore\n      0x60\n      dup3\n      add\n      mload\n      dup2\n      0x03\n      add\n      swap1\n      dup2\n      tag_117\n      swap2\n      swap1\n      tag_118\n      jump\t// in\n    tag_117:\n      pop\n      0x80\n      dup3\n      add\n      mload\n      dup2\n      0x04\n      add\n      exp(0x0100, 0x00)\n      dup2\n      sload\n      dup2\n      0xff\n      mul\n      not\n      and\n      swap1\n      dup4\n      iszero\n      iszero\n      mul\n      or\n      swap1\n      sstore\n      pop\n      0xa0\n      dup3\n      add\n      mload\n      dup2\n      0x04\n      add\n      exp(0x0100, 0x01)\n      dup2\n      sload\n      dup2\n      0xff\n      mul\n      not\n      and\n      swap1\n      dup4\n      iszero\n      iszero\n      mul\n      or\n      swap1\n      sstore\n      pop\n      pop\n      pop\n        /* \"contracts/Fvkry.sol\":3906:3968  recordTransac(address(_token), _vault, _amount, _title, false) */\n      tag_119\n        /* \"contracts/Fvkry.sol\":3928:3934  _token */\n      dup7\n        /* \"contracts/Fvkry.sol\":3937:3943  _vault */\n      dup6\n        /* \"contracts/Fvkry.sol\":3945:3952  _amount */\n      dup8\n        /* \"contracts/Fvkry.sol\":3954:3960  _title */\n      dup6\n        /* \"contracts/Fvkry.sol\":3962:3967  false */\n      0x00\n        /* \"contracts/Fvkry.sol\":3906:3919  recordTransac */\n      tag_120\n        /* \"contracts/Fvkry.sol\":3906:3968  recordTransac(address(_token), _vault, _amount, _title, false) */\n      jump\t// in\n    tag_119:\n        /* \"contracts/Fvkry.sol\":4006:4012  _token */\n      dup6\n        /* \"contracts/Fvkry.sol\":3986:4087  AssetLocked(address(_token), _amount, _title, _vault, block.timestamp + _lockperiod, block.timestamp) */\n      0xffffffffffffffffffffffffffffffffffffffff\n      and\n      0xed26bd61b6bf2f43d7471454e53e77ffdc96beefa2f198977936f6d02d34563d\n        /* \"contracts/Fvkry.sol\":4015:4022  _amount */\n      dup7\n        /* \"contracts/Fvkry.sol\":4024:4030  _title */\n      dup5\n        /* \"contracts/Fvkry.sol\":4032:4038  _vault */\n      dup8\n        /* \"contracts/Fvkry.sol\":4058:4069  _lockperiod */\n      dup8\n        /* \"contracts/Fvkry.sol\":4040:4055  block.timestamp */\n      timestamp\n        /* \"contracts/Fvkry.sol\":4040:4069  block.timestamp + _lockperiod */\n      tag_121\n      swap2\n      swap1\n      tag_115\n      jump\t// in\n    tag_121:\n        /* \"contracts/Fvkry.sol\":4071:4086  block.timestamp */\n      timestamp\n        /* \"contracts/Fvkry.sol\":3986:4087  AssetLocked(address(_token), _amount, _title, _vault, block.timestamp + _lockperiod, block.timestamp) */\n      mload(0x40)\n      tag_122\n      swap6\n      swap5\n      swap4\n      swap3\n      swap2\n      swap1\n      tag_123\n      jump\t// in\n    tag_122:\n      mload(0x40)\n      dup1\n      swap2\n      sub\n      swap1\n      log2\n        /* \"contracts/Fvkry.sol\":3024:4095  {... */\n      pop\n        /* \"@openzeppelin/contracts/utils/ReentrancyGuard.sol\":2542:2562  _nonReentrantAfter() */\n      tag_124\n        /* \"@openzeppelin/contracts/utils/ReentrancyGuard.sol\":2542:2560  _nonReentrantAfter */\n      tag_125\n        /* \"@openzeppelin/contracts/utils/ReentrancyGuard.sol\":2542:2562  _nonReentrantAfter() */\n      jump\t// in\n    tag_124:\n        /* \"contracts/Fvkry.sol\":2893:4095  function lockToken (IERC20 _token, uint256 _amount, uint8 _vault, uint256 _lockperiod, string memory _title) external nonReentrant {... */\n      pop\n      pop\n      pop\n      pop\n      pop\n      jump\t// out\n        /* \"contracts/Fvkry.sol\":1444:2273  function lockETH(uint8 _vault, uint256 _lockperiod, string memory _title) external payable nonReentrant {... */\n    tag_27:\n        /* \"@openzeppelin/contracts/utils/ReentrancyGuard.sol\":2500:2521  _nonReentrantBefore() */\n      tag_127\n        /* \"@openzeppelin/contracts/utils/ReentrancyGuard.sol\":2500:2519  _nonReentrantBefore */\n      tag_93\n        /* \"@openzeppelin/contracts/utils/ReentrancyGuard.sol\":2500:2521  _nonReentrantBefore() */\n      jump\t// in\n    tag_127:\n        /* \"contracts/Fvkry.sol\":1579:1580  0 */\n      0x00\n        /* \"contracts/Fvkry.sol\":1567:1576  msg.value */\n      callvalue\n        /* \"contracts/Fvkry.sol\":1567:1580  msg.value > 0 */\n      gt\n        /* \"contracts/Fvkry.sol\":1559:1624  require(msg.value > 0, \"ETH to lock must a value greater than 0\") */\n      tag_129\n      jumpi\n      mload(0x40)\n      0x08c379a000000000000000000000000000000000000000000000000000000000\n      dup2\n      mstore\n      0x04\n      add\n      tag_130\n      swap1\n      tag_131\n      jump\t// in\n    tag_130:\n      mload(0x40)\n      dup1\n      swap2\n      sub\n      swap1\n      revert\n    tag_129:\n        /* \"contracts/Fvkry.sol\":1658:1659  0 */\n      0x00\n        /* \"contracts/Fvkry.sol\":1643:1654  _lockperiod */\n      dup3\n        /* \"contracts/Fvkry.sol\":1643:1659  _lockperiod >= 0 */\n      lt\n      iszero\n        /* \"contracts/Fvkry.sol\":1635:1704  require(_lockperiod >= 0, \"The lockperiod must be greater then zero\") */\n      tag_132\n      jumpi\n      mload(0x40)\n      0x08c379a000000000000000000000000000000000000000000000000000000000\n      dup2\n      mstore\n      0x04\n      add\n      tag_133\n      swap1\n      tag_134\n      jump\t// in\n    tag_133:\n      mload(0x40)\n      dup1\n      swap2\n      sub\n      swap1\n      revert\n    tag_132:\n        /* \"contracts/Fvkry.sol\":1755:1771  userLockedAssets */\n      0x02\n        /* \"contracts/Fvkry.sol\":1755:1783  userLockedAssets[msg.sender] */\n      0x00\n        /* \"contracts/Fvkry.sol\":1772:1782  msg.sender */\n      caller\n        /* \"contracts/Fvkry.sol\":1755:1783  userLockedAssets[msg.sender] */\n      0xffffffffffffffffffffffffffffffffffffffff\n      and\n      0xffffffffffffffffffffffffffffffffffffffff\n      and\n      dup2\n      mstore\n      0x20\n      add\n      swap1\n      dup2\n      mstore\n      0x20\n      add\n      0x00\n      keccak256\n        /* \"contracts/Fvkry.sol\":1755:1791  userLockedAssets[msg.sender][_vault] */\n      0x00\n        /* \"contracts/Fvkry.sol\":1784:1790  _vault */\n      dup5\n        /* \"contracts/Fvkry.sol\":1755:1791  userLockedAssets[msg.sender][_vault] */\n      0xff\n      and\n      0xff\n      and\n      dup2\n      mstore\n      0x20\n      add\n      swap1\n      dup2\n      mstore\n      0x20\n      add\n      0x00\n      keccak256\n        /* \"contracts/Fvkry.sol\":1797:2033  Lock({... */\n      mload(0x40)\n      dup1\n      0xc0\n      add\n      0x40\n      mstore\n      dup1\n        /* \"contracts/Fvkry.sol\":1832:1833  0 */\n      0x00\n        /* \"contracts/Fvkry.sol\":1797:2033  Lock({... */\n      0xffffffffffffffffffffffffffffffffffffffff\n      and\n      dup2\n      mstore\n      0x20\n      add\n        /* \"contracts/Fvkry.sol\":1858:1867  msg.value */\n      callvalue\n        /* \"contracts/Fvkry.sol\":1797:2033  Lock({... */\n      dup2\n      mstore\n      0x20\n      add\n        /* \"contracts/Fvkry.sol\":1915:1926  _lockperiod */\n      dup5\n        /* \"contracts/Fvkry.sol\":1897:1912  block.timestamp */\n      timestamp\n        /* \"contracts/Fvkry.sol\":1897:1926  block.timestamp + _lockperiod */\n      tag_135\n      swap2\n      swap1\n      tag_115\n      jump\t// in\n    tag_135:\n        /* \"contracts/Fvkry.sol\":1797:2033  Lock({... */\n      dup2\n      mstore\n      0x20\n      add\n        /* \"contracts/Fvkry.sol\":1948:1954  _title */\n      dup4\n        /* \"contracts/Fvkry.sol\":1797:2033  Lock({... */\n      dup2\n      mstore\n      0x20\n      add\n        /* \"contracts/Fvkry.sol\":1984:1989  false */\n      0x00\n        /* \"contracts/Fvkry.sol\":1797:2033  Lock({... */\n      iszero\n      iszero\n      dup2\n      mstore\n      0x20\n      add\n        /* \"contracts/Fvkry.sol\":2017:2021  true */\n      0x01\n        /* \"contracts/Fvkry.sol\":1797:2033  Lock({... */\n      iszero\n      iszero\n      dup2\n      mstore\n      pop\n        /* \"contracts/Fvkry.sol\":1755:2034  userLockedAssets[msg.sender][_vault].push(Lock({... */\n      swap1\n      dup1\n      0x01\n      dup2\n      sload\n      add\n      dup1\n      dup3\n      sstore\n      dup1\n      swap2\n      pop\n      pop\n      0x01\n      swap1\n      sub\n      swap1\n      0x00\n      mstore\n      keccak256(0x00, 0x20)\n      swap1\n      0x05\n      mul\n      add\n      0x00\n      swap1\n      swap2\n      swap1\n      swap2\n      swap1\n      swap2\n      pop\n      0x00\n      dup3\n      add\n      mload\n      dup2\n      0x00\n      add\n      exp(0x0100, 0x00)\n      dup2\n      sload\n      dup2\n      0xffffffffffffffffffffffffffffffffffffffff\n      mul\n      not\n      and\n      swap1\n      dup4\n      0xffffffffffffffffffffffffffffffffffffffff\n      and\n      mul\n      or\n      swap1\n      sstore\n      pop\n      0x20\n      dup3\n      add\n      mload\n      dup2\n      0x01\n      add\n      sstore\n      0x40\n      dup3\n      add\n      mload\n      dup2\n      0x02\n      add\n      sstore\n      0x60\n      dup3\n      add\n      mload\n      dup2\n      0x03\n      add\n      swap1\n      dup2\n      tag_137\n      swap2\n      swap1\n      tag_118\n      jump\t// in\n    tag_137:\n      pop\n      0x80\n      dup3\n      add\n      mload\n      dup2\n      0x04\n      add\n      exp(0x0100, 0x00)\n      dup2\n      sload\n      dup2\n      0xff\n      mul\n      not\n      and\n      swap1\n      dup4\n      iszero\n      iszero\n      mul\n      or\n      swap1\n      sstore\n      pop\n      0xa0\n      dup3\n      add\n      mload\n      dup2\n      0x04\n      add\n      exp(0x0100, 0x01)\n      dup2\n      sload\n      dup2\n      0xff\n      mul\n      not\n      and\n      swap1\n      dup4\n      iszero\n      iszero\n      mul\n      or\n      swap1\n      sstore\n      pop\n      pop\n      pop\n        /* \"contracts/Fvkry.sol\":2082:2141  recordTransac(address(0), _vault, msg.value, _title, false) */\n      tag_138\n        /* \"contracts/Fvkry.sol\":2104:2105  0 */\n      0x00\n        /* \"contracts/Fvkry.sol\":2108:2114  _vault */\n      dup5\n        /* \"contracts/Fvkry.sol\":2116:2125  msg.value */\n      callvalue\n        /* \"contracts/Fvkry.sol\":2127:2133  _title */\n      dup5\n        /* \"contracts/Fvkry.sol\":2135:2140  false */\n      0x00\n        /* \"contracts/Fvkry.sol\":2082:2095  recordTransac */\n      tag_120\n        /* \"contracts/Fvkry.sol\":2082:2141  recordTransac(address(0), _vault, msg.value, _title, false) */\n      jump\t// in\n    tag_138:\n        /* \"contracts/Fvkry.sol\":2187:2188  0 */\n      0x00\n        /* \"contracts/Fvkry.sol\":2167:2265  AssetLocked(address(0), msg.value, _title, _vault, block.timestamp + _lockperiod, block.timestamp) */\n      0xffffffffffffffffffffffffffffffffffffffff\n      and\n      0xed26bd61b6bf2f43d7471454e53e77ffdc96beefa2f198977936f6d02d34563d\n        /* \"contracts/Fvkry.sol\":2191:2200  msg.value */\n      callvalue\n        /* \"contracts/Fvkry.sol\":2202:2208  _title */\n      dup4\n        /* \"contracts/Fvkry.sol\":2210:2216  _vault */\n      dup7\n        /* \"contracts/Fvkry.sol\":2236:2247  _lockperiod */\n      dup7\n        /* \"contracts/Fvkry.sol\":2218:2233  block.timestamp */\n      timestamp\n        /* \"contracts/Fvkry.sol\":2218:2247  block.timestamp + _lockperiod */\n      tag_139\n      swap2\n      swap1\n      tag_115\n      jump\t// in\n    tag_139:\n        /* \"contracts/Fvkry.sol\":2249:2264  block.timestamp */\n      timestamp\n        /* \"contracts/Fvkry.sol\":2167:2265  AssetLocked(address(0), msg.value, _title, _vault, block.timestamp + _lockperiod, block.timestamp) */\n      mload(0x40)\n      tag_140\n      swap6\n      swap5\n      swap4\n      swap3\n      swap2\n      swap1\n      tag_123\n      jump\t// in\n    tag_140:\n      mload(0x40)\n      dup1\n      swap2\n      sub\n      swap1\n      log2\n        /* \"@openzeppelin/contracts/utils/ReentrancyGuard.sol\":2542:2562  _nonReentrantAfter() */\n      tag_141\n        /* \"@openzeppelin/contracts/utils/ReentrancyGuard.sol\":2542:2560  _nonReentrantAfter */\n      tag_125\n        /* \"@openzeppelin/contracts/utils/ReentrancyGuard.sol\":2542:2562  _nonReentrantAfter() */\n      jump\t// in\n    tag_141:\n        /* \"contracts/Fvkry.sol\":1444:2273  function lockETH(uint8 _vault, uint256 _lockperiod, string memory _title) external payable nonReentrant {... */\n      pop\n      pop\n      pop\n      jump\t// out\n        /* \"contracts/Fvkry.sol\":6994:7129  function getContractTokenBalance(IERC20 token) external view returns (uint256) {... */\n    tag_32:\n        /* \"contracts/Fvkry.sol\":7064:7071  uint256 */\n      0x00\n        /* \"contracts/Fvkry.sol\":7091:7096  token */\n      dup2\n        /* \"contracts/Fvkry.sol\":7091:7106  token.balanceOf */\n      0xffffffffffffffffffffffffffffffffffffffff\n      and\n      0x70a08231\n        /* \"contracts/Fvkry.sol\":7115:7119  this */\n      address\n        /* \"contracts/Fvkry.sol\":7091:7121  token.balanceOf(address(this)) */\n      mload(0x40)\n      dup3\n      0xffffffff\n      and\n      0xe0\n      shl\n      dup2\n      mstore\n      0x04\n      add\n      tag_143\n      swap2\n      swap1\n      tag_65\n      jump\t// in\n    tag_143:\n      0x20\n      mload(0x40)\n      dup1\n      dup4\n      sub\n      dup2\n      dup7\n      gas\n      staticcall\n      iszero\n      dup1\n      iszero\n      tag_145\n      jumpi\n      returndatasize\n      0x00\n      dup1\n      returndatacopy\n      revert(0x00, returndatasize)\n    tag_145:\n      pop\n      pop\n      pop\n      pop\n      mload(0x40)\n      returndatasize\n      not(0x1f)\n      0x1f\n      dup3\n      add\n      and\n      dup3\n      add\n      dup1\n      0x40\n      mstore\n      pop\n      dup2\n      add\n      swap1\n      tag_146\n      swap2\n      swap1\n      tag_108\n      jump\t// in\n    tag_146:\n        /* \"contracts/Fvkry.sol\":7084:7121  return token.balanceOf(address(this)) */\n      swap1\n      pop\n        /* \"contracts/Fvkry.sol\":6994:7129  function getContractTokenBalance(IERC20 token) external view returns (uint256) {... */\n      swap2\n      swap1\n      pop\n      jump\t// out\n        /* \"contracts/Fvkry.sol\":4103:4884  function addToLockedTokens(IERC20 _token, uint32 _assetID, uint256 _amount, uint8 _vault) external  nonReentrant {... */\n    tag_39:\n        /* \"@openzeppelin/contracts/utils/ReentrancyGuard.sol\":2500:2521  _nonReentrantBefore() */\n      tag_148\n        /* \"@openzeppelin/contracts/utils/ReentrancyGuard.sol\":2500:2519  _nonReentrantBefore */\n      tag_93\n        /* \"@openzeppelin/contracts/utils/ReentrancyGuard.sol\":2500:2521  _nonReentrantBefore() */\n      jump\t// in\n    tag_148:\n        /* \"contracts/Fvkry.sol\":4262:4263  0 */\n      0x00\n        /* \"contracts/Fvkry.sol\":4235:4264  address(_token) != address(0) */\n      0xffffffffffffffffffffffffffffffffffffffff\n      and\n        /* \"contracts/Fvkry.sol\":4243:4249  _token */\n      dup5\n        /* \"contracts/Fvkry.sol\":4235:4264  address(_token) != address(0) */\n      0xffffffffffffffffffffffffffffffffffffffff\n      and\n      sub\n        /* \"contracts/Fvkry.sol\":4227:4303  require(address(_token) != address(0), \"Must provide a valid token address\") */\n      tag_150\n      jumpi\n      mload(0x40)\n      0x08c379a000000000000000000000000000000000000000000000000000000000\n      dup2\n      mstore\n      0x04\n      add\n      tag_151\n      swap1\n      tag_97\n      jump\t// in\n    tag_151:\n      mload(0x40)\n      dup1\n      swap2\n      sub\n      swap1\n      revert\n    tag_150:\n        /* \"contracts/Fvkry.sol\":4332:4333  0 */\n      0x00\n        /* \"contracts/Fvkry.sol\":4322:4329  _amount */\n      dup3\n        /* \"contracts/Fvkry.sol\":4322:4333  _amount > 0 */\n      gt\n        /* \"contracts/Fvkry.sol\":4314:4376  require(_amount > 0, \"Token amount must be greater then zero\") */\n      tag_152\n      jumpi\n      mload(0x40)\n      0x08c379a000000000000000000000000000000000000000000000000000000000\n      dup2\n      mstore\n      0x04\n      add\n      tag_153\n      swap1\n      tag_100\n      jump\t// in\n    tag_153:\n      mload(0x40)\n      dup1\n      swap2\n      sub\n      swap1\n      revert\n    tag_152:\n        /* \"contracts/Fvkry.sol\":4389:4406  Lock storage lock */\n      0x00\n        /* \"contracts/Fvkry.sol\":4409:4425  userLockedAssets */\n      0x02\n        /* \"contracts/Fvkry.sol\":4409:4437  userLockedAssets[msg.sender] */\n      0x00\n        /* \"contracts/Fvkry.sol\":4426:4436  msg.sender */\n      caller\n        /* \"contracts/Fvkry.sol\":4409:4437  userLockedAssets[msg.sender] */\n      0xffffffffffffffffffffffffffffffffffffffff\n      and\n      0xffffffffffffffffffffffffffffffffffffffff\n      and\n      dup2\n      mstore\n      0x20\n      add\n      swap1\n      dup2\n      mstore\n      0x20\n      add\n      0x00\n      keccak256\n        /* \"contracts/Fvkry.sol\":4409:4445  userLockedAssets[msg.sender][_vault] */\n      0x00\n        /* \"contracts/Fvkry.sol\":4438:4444  _vault */\n      dup4\n        /* \"contracts/Fvkry.sol\":4409:4445  userLockedAssets[msg.sender][_vault] */\n      0xff\n      and\n      0xff\n      and\n      dup2\n      mstore\n      0x20\n      add\n      swap1\n      dup2\n      mstore\n      0x20\n      add\n      0x00\n      keccak256\n        /* \"contracts/Fvkry.sol\":4446:4454  _assetID */\n      dup5\n        /* \"contracts/Fvkry.sol\":4409:4455  userLockedAssets[msg.sender][_vault][_assetID] */\n      0xffffffff\n      and\n      dup2\n      sload\n      dup2\n      lt\n      tag_154\n      jumpi\n      tag_155\n      tag_156\n      jump\t// in\n    tag_155:\n    tag_154:\n      swap1\n      0x00\n      mstore\n      keccak256(0x00, 0x20)\n      swap1\n      0x05\n      mul\n      add\n        /* \"contracts/Fvkry.sol\":4389:4455  Lock storage lock = userLockedAssets[msg.sender][_vault][_assetID] */\n      swap1\n      pop\n        /* \"contracts/Fvkry.sol\":4492:4551  _token.safeTransferFrom(msg.sender, address(this), _amount) */\n      tag_158\n        /* \"contracts/Fvkry.sol\":4516:4526  msg.sender */\n      caller\n        /* \"contracts/Fvkry.sol\":4536:4540  this */\n      address\n        /* \"contracts/Fvkry.sol\":4543:4550  _amount */\n      dup6\n        /* \"contracts/Fvkry.sol\":4492:4498  _token */\n      dup9\n        /* \"contracts/Fvkry.sol\":4492:4515  _token.safeTransferFrom */\n      0xffffffffffffffffffffffffffffffffffffffff\n      and\n      tag_113\n      swap1\n        /* \"contracts/Fvkry.sol\":4492:4551  _token.safeTransferFrom(msg.sender, address(this), _amount) */\n      swap4\n      swap3\n      swap2\n      swap1\n      0xffffffff\n      and\n      jump\t// in\n    tag_158:\n        /* \"contracts/Fvkry.sol\":4661:4668  _amount */\n      dup3\n        /* \"contracts/Fvkry.sol\":4604:4620  userLockedAssets */\n      0x02\n        /* \"contracts/Fvkry.sol\":4604:4632  userLockedAssets[msg.sender] */\n      0x00\n        /* \"contracts/Fvkry.sol\":4621:4631  msg.sender */\n      caller\n        /* \"contracts/Fvkry.sol\":4604:4632  userLockedAssets[msg.sender] */\n      0xffffffffffffffffffffffffffffffffffffffff\n      and\n      0xffffffffffffffffffffffffffffffffffffffff\n      and\n      dup2\n      mstore\n      0x20\n      add\n      swap1\n      dup2\n      mstore\n      0x20\n      add\n      0x00\n      keccak256\n        /* \"contracts/Fvkry.sol\":4604:4640  userLockedAssets[msg.sender][_vault] */\n      0x00\n        /* \"contracts/Fvkry.sol\":4633:4639  _vault */\n      dup5\n        /* \"contracts/Fvkry.sol\":4604:4640  userLockedAssets[msg.sender][_vault] */\n      0xff\n      and\n      0xff\n      and\n      dup2\n      mstore\n      0x20\n      add\n      swap1\n      dup2\n      mstore\n      0x20\n      add\n      0x00\n      keccak256\n        /* \"contracts/Fvkry.sol\":4641:4649  _assetID */\n      dup6\n        /* \"contracts/Fvkry.sol\":4604:4650  userLockedAssets[msg.sender][_vault][_assetID] */\n      0xffffffff\n      and\n      dup2\n      sload\n      dup2\n      lt\n      tag_159\n      jumpi\n      tag_160\n      tag_156\n      jump\t// in\n    tag_160:\n    tag_159:\n      swap1\n      0x00\n      mstore\n      keccak256(0x00, 0x20)\n      swap1\n      0x05\n      mul\n      add\n        /* \"contracts/Fvkry.sol\":4604:4657  userLockedAssets[msg.sender][_vault][_assetID].amount */\n      0x01\n      add\n      0x00\n        /* \"contracts/Fvkry.sol\":4604:4668  userLockedAssets[msg.sender][_vault][_assetID].amount += _amount */\n      dup3\n      dup3\n      sload\n      tag_162\n      swap2\n      swap1\n      tag_115\n      jump\t// in\n    tag_162:\n      swap3\n      pop\n      pop\n      dup2\n      swap1\n      sstore\n      pop\n        /* \"contracts/Fvkry.sol\":4711:4777  recordTransac(address(_token), _vault, _amount, lock.title, false) */\n      tag_163\n        /* \"contracts/Fvkry.sol\":4733:4739  _token */\n      dup6\n        /* \"contracts/Fvkry.sol\":4742:4748  _vault */\n      dup4\n        /* \"contracts/Fvkry.sol\":4750:4757  _amount */\n      dup6\n        /* \"contracts/Fvkry.sol\":4759:4763  lock */\n      dup5\n        /* \"contracts/Fvkry.sol\":4759:4769  lock.title */\n      0x03\n      add\n        /* \"contracts/Fvkry.sol\":4711:4777  recordTransac(address(_token), _vault, _amount, lock.title, false) */\n      dup1\n      sload\n      tag_164\n      swap1\n      tag_165\n      jump\t// in\n    tag_164:\n      dup1\n      0x1f\n      add\n      0x20\n      dup1\n      swap2\n      div\n      mul\n      0x20\n      add\n      mload(0x40)\n      swap1\n      dup2\n      add\n      0x40\n      mstore\n      dup1\n      swap3\n      swap2\n      swap1\n      dup2\n      dup2\n      mstore\n      0x20\n      add\n      dup3\n      dup1\n      sload\n      tag_166\n      swap1\n      tag_165\n      jump\t// in\n    tag_166:\n      dup1\n      iszero\n      tag_167\n      jumpi\n      dup1\n      0x1f\n      lt\n      tag_168\n      jumpi\n      0x0100\n      dup1\n      dup4\n      sload\n      div\n      mul\n      dup4\n      mstore\n      swap2\n      0x20\n      add\n      swap2\n      jump(tag_167)\n    tag_168:\n      dup3\n      add\n      swap2\n      swap1\n      0x00\n      mstore\n      keccak256(0x00, 0x20)\n      swap1\n    tag_169:\n      dup2\n      sload\n      dup2\n      mstore\n      swap1\n      0x01\n      add\n      swap1\n      0x20\n      add\n      dup1\n      dup4\n      gt\n      tag_169\n      jumpi\n      dup3\n      swap1\n      sub\n      0x1f\n      and\n      dup3\n      add\n      swap2\n    tag_167:\n      pop\n      pop\n      pop\n      pop\n      pop\n        /* \"contracts/Fvkry.sol\":4771:4776  false */\n      0x00\n        /* \"contracts/Fvkry.sol\":4711:4724  recordTransac */\n      tag_120\n        /* \"contracts/Fvkry.sol\":4711:4777  recordTransac(address(_token), _vault, _amount, lock.title, false) */\n      jump\t// in\n    tag_163:\n        /* \"contracts/Fvkry.sol\":4822:4828  _token */\n      dup5\n        /* \"contracts/Fvkry.sol\":4803:4876  AssetAdded(address(_token), _amount, lock.title, _vault, block.timestamp) */\n      0xffffffffffffffffffffffffffffffffffffffff\n      and\n      0x0b99ce8321b94ffaa5c5021540ec0668dcba948d044760a5ef298fa0513b1ef4\n        /* \"contracts/Fvkry.sol\":4831:4838  _amount */\n      dup5\n        /* \"contracts/Fvkry.sol\":4840:4844  lock */\n      dup4\n        /* \"contracts/Fvkry.sol\":4840:4850  lock.title */\n      0x03\n      add\n        /* \"contracts/Fvkry.sol\":4852:4858  _vault */\n      dup6\n        /* \"contracts/Fvkry.sol\":4860:4875  block.timestamp */\n      timestamp\n        /* \"contracts/Fvkry.sol\":4803:4876  AssetAdded(address(_token), _amount, lock.title, _vault, block.timestamp) */\n      mload(0x40)\n      tag_170\n      swap5\n      swap4\n      swap3\n      swap2\n      swap1\n      tag_171\n      jump\t// in\n    tag_170:\n      mload(0x40)\n      dup1\n      swap2\n      sub\n      swap1\n      log2\n        /* \"contracts/Fvkry.sol\":4216:4884  {... */\n      pop\n        /* \"@openzeppelin/contracts/utils/ReentrancyGuard.sol\":2542:2562  _nonReentrantAfter() */\n      tag_172\n        /* \"@openzeppelin/contracts/utils/ReentrancyGuard.sol\":2542:2560  _nonReentrantAfter */\n      tag_125\n        /* \"@openzeppelin/contracts/utils/ReentrancyGuard.sol\":2542:2562  _nonReentrantAfter() */\n      jump\t// in\n    tag_172:\n        /* \"contracts/Fvkry.sol\":4103:4884  function addToLockedTokens(IERC20 _token, uint32 _assetID, uint256 _amount, uint8 _vault) external  nonReentrant {... */\n      pop\n      pop\n      pop\n      pop\n      jump\t// out\n        /* \"contracts/Fvkry.sol\":7287:7421  function getUserLocks(uint8 _vault) public view returns (Lock[] memory) {... */\n    tag_44:\n        /* \"contracts/Fvkry.sol\":7344:7357  Lock[] memory */\n      0x60\n        /* \"contracts/Fvkry.sol\":7377:7393  userLockedAssets */\n      0x02\n        /* \"contracts/Fvkry.sol\":7377:7405  userLockedAssets[msg.sender] */\n      0x00\n        /* \"contracts/Fvkry.sol\":7394:7404  msg.sender */\n      caller\n        /* \"contracts/Fvkry.sol\":7377:7405  userLockedAssets[msg.sender] */\n      0xffffffffffffffffffffffffffffffffffffffff\n      and\n      0xffffffffffffffffffffffffffffffffffffffff\n      and\n      dup2\n      mstore\n      0x20\n      add\n      swap1\n      dup2\n      mstore\n      0x20\n      add\n      0x00\n      keccak256\n        /* \"contracts/Fvkry.sol\":7377:7413  userLockedAssets[msg.sender][_vault] */\n      0x00\n        /* \"contracts/Fvkry.sol\":7406:7412  _vault */\n      dup4\n        /* \"contracts/Fvkry.sol\":7377:7413  userLockedAssets[msg.sender][_vault] */\n      0xff\n      and\n      0xff\n      and\n      dup2\n      mstore\n      0x20\n      add\n      swap1\n      dup2\n      mstore\n      0x20\n      add\n      0x00\n      keccak256\n        /* \"contracts/Fvkry.sol\":7370:7413  return userLockedAssets[msg.sender][_vault] */\n      dup1\n      sload\n      dup1\n      0x20\n      mul\n      0x20\n      add\n      mload(0x40)\n      swap1\n      dup2\n      add\n      0x40\n      mstore\n      dup1\n      swap3\n      swap2\n      swap1\n      dup2\n      dup2\n      mstore\n      0x20\n      add\n      0x00\n      swap1\n    tag_174:\n      dup3\n      dup3\n      lt\n      iszero\n      tag_175\n      jumpi\n      dup4\n      dup3\n      swap1\n      0x00\n      mstore\n      keccak256(0x00, 0x20)\n      swap1\n      0x05\n      mul\n      add\n      mload(0x40)\n      dup1\n      0xc0\n      add\n      0x40\n      mstore\n      swap1\n      dup2\n      0x00\n      dup3\n      add\n      0x00\n      swap1\n      sload\n      swap1\n      0x0100\n      exp\n      swap1\n      div\n      0xffffffffffffffffffffffffffffffffffffffff\n      and\n      0xffffffffffffffffffffffffffffffffffffffff\n      and\n      0xffffffffffffffffffffffffffffffffffffffff\n      and\n      dup2\n      mstore\n      0x20\n      add\n      0x01\n      dup3\n      add\n      sload\n      dup2\n      mstore\n      0x20\n      add\n      0x02\n      dup3\n      add\n      sload\n      dup2\n      mstore\n      0x20\n      add\n      0x03\n      dup3\n      add\n      dup1\n      sload\n      tag_177\n      swap1\n      tag_165\n      jump\t// in\n    tag_177:\n      dup1\n      0x1f\n      add\n      0x20\n      dup1\n      swap2\n      div\n      mul\n      0x20\n      add\n      mload(0x40)\n      swap1\n      dup2\n      add\n      0x40\n      mstore\n      dup1\n      swap3\n      swap2\n      swap1\n      dup2\n      dup2\n      mstore\n      0x20\n      add\n      dup3\n      dup1\n      sload\n      tag_178\n      swap1\n      tag_165\n      jump\t// in\n    tag_178:\n      dup1\n      iszero\n      tag_179\n      jumpi\n      dup1\n      0x1f\n      lt\n      tag_180\n      jumpi\n      0x0100\n      dup1\n      dup4\n      sload\n      div\n      mul\n      dup4\n      mstore\n      swap2\n      0x20\n      add\n      swap2\n      jump(tag_179)\n    tag_180:\n      dup3\n      add\n      swap2\n      swap1\n      0x00\n      mstore\n      keccak256(0x00, 0x20)\n      swap1\n    tag_181:\n      dup2\n      sload\n      dup2\n      mstore\n      swap1\n      0x01\n      add\n      swap1\n      0x20\n      add\n      dup1\n      dup4\n      gt\n      tag_181\n      jumpi\n      dup3\n      swap1\n      sub\n      0x1f\n      and\n      dup3\n      add\n      swap2\n    tag_179:\n      pop\n      pop\n      pop\n      pop\n      pop\n      dup2\n      mstore\n      0x20\n      add\n      0x04\n      dup3\n      add\n      0x00\n      swap1\n      sload\n      swap1\n      0x0100\n      exp\n      swap1\n      div\n      0xff\n      and\n      iszero\n      iszero\n      iszero\n      iszero\n      dup2\n      mstore\n      0x20\n      add\n      0x04\n      dup3\n      add\n      0x01\n      swap1\n      sload\n      swap1\n      0x0100\n      exp\n      swap1\n      div\n      0xff\n      and\n      iszero\n      iszero\n      iszero\n      iszero\n      dup2\n      mstore\n      pop\n      pop\n      dup2\n      mstore\n      0x20\n      add\n      swap1\n      0x01\n      add\n      swap1\n      jump(tag_174)\n    tag_175:\n      pop\n      pop\n      pop\n      pop\n      swap1\n      pop\n        /* \"contracts/Fvkry.sol\":7287:7421  function getUserLocks(uint8 _vault) public view returns (Lock[] memory) {... */\n      swap2\n      swap1\n      pop\n      jump\t// out\n        /* \"contracts/Fvkry.sol\":810:887  mapping (address => mapping (uint8 => TransacHist[])) public userTransactions */\n    tag_51:\n      mstore(0x20, 0x03)\n      dup3\n      0x00\n      mstore\n      mstore(0x20, keccak256(0x00, 0x40))\n      dup2\n      0x00\n      mstore\n      keccak256(0x00, 0x40)\n      dup2\n      dup2\n      sload\n      dup2\n      lt\n      tag_182\n      jumpi\n      0x00\n      dup1\n      revert\n    tag_182:\n      swap1\n      0x00\n      mstore\n      keccak256(0x00, 0x20)\n      swap1\n      0x05\n      mul\n      add\n      0x00\n      swap3\n      pop\n      swap3\n      pop\n      pop\n      pop\n      dup1\n      0x00\n      add\n      0x00\n      swap1\n      sload\n      swap1\n      0x0100\n      exp\n      swap1\n      div\n      0xffffffffffffffffffffffffffffffffffffffff\n      and\n      swap1\n      dup1\n      0x01\n      add\n      sload\n      swap1\n      dup1\n      0x02\n      add\n      dup1\n      sload\n      tag_184\n      swap1\n      tag_165\n      jump\t// in\n    tag_184:\n      dup1\n      0x1f\n      add\n      0x20\n      dup1\n      swap2\n      div\n      mul\n      0x20\n      add\n      mload(0x40)\n      swap1\n      dup2\n      add\n      0x40\n      mstore\n      dup1\n      swap3\n      swap2\n      swap1\n      dup2\n      dup2\n      mstore\n      0x20\n      add\n      dup3\n      dup1\n      sload\n      tag_185\n      swap1\n      tag_165\n      jump\t// in\n    tag_185:\n      dup1\n      iszero\n      tag_186\n      jumpi\n      dup1\n      0x1f\n      lt\n      tag_187\n      jumpi\n      0x0100\n      dup1\n      dup4\n      sload\n      div\n      mul\n      dup4\n      mstore\n      swap2\n      0x20\n      add\n      swap2\n      jump(tag_186)\n    tag_187:\n      dup3\n      add\n      swap2\n      swap1\n      0x00\n      mstore\n      keccak256(0x00, 0x20)\n      swap1\n    tag_188:\n      dup2\n      sload\n      dup2\n      mstore\n      swap1\n      0x01\n      add\n      swap1\n      0x20\n      add\n      dup1\n      dup4\n      gt\n      tag_188\n      jumpi\n      dup3\n      swap1\n      sub\n      0x1f\n      and\n      dup3\n      add\n      swap2\n    tag_186:\n      pop\n      pop\n      pop\n      pop\n      pop\n      swap1\n      dup1\n      0x03\n      add\n      0x00\n      swap1\n      sload\n      swap1\n      0x0100\n      exp\n      swap1\n      div\n      0xff\n      and\n      swap1\n      dup1\n      0x04\n      add\n      sload\n      swap1\n      pop\n      dup6\n      jump\t// out\n        /* \"@openzeppelin/contracts/access/Ownable.sol\":2293:2394  function renounceOwnership() public virtual onlyOwner {... */\n    tag_56:\n        /* \"@openzeppelin/contracts/access/Ownable.sol\":1531:1544  _checkOwner() */\n      tag_190\n        /* \"@openzeppelin/contracts/access/Ownable.sol\":1531:1542  _checkOwner */\n      tag_191\n        /* \"@openzeppelin/contracts/access/Ownable.sol\":1531:1544  _checkOwner() */\n      jump\t// in\n    tag_190:\n        /* \"@openzeppelin/contracts/access/Ownable.sol\":2357:2387  _transferOwnership(address(0)) */\n      tag_193\n        /* \"@openzeppelin/contracts/access/Ownable.sol\":2384:2385  0 */\n      0x00\n        /* \"@openzeppelin/contracts/access/Ownable.sol\":2357:2375  _transferOwnership */\n      tag_194\n        /* \"@openzeppelin/contracts/access/Ownable.sol\":2357:2387  _transferOwnership(address(0)) */\n      jump\t// in\n    tag_193:\n        /* \"@openzeppelin/contracts/access/Ownable.sol\":2293:2394  function renounceOwnership() public virtual onlyOwner {... */\n      jump\t// out\n        /* \"contracts/Fvkry.sol\":7137:7249  function getContractETHBalance() external view returns (uint256) {... */\n    tag_59:\n        /* \"contracts/Fvkry.sol\":7193:7200  uint256 */\n      0x00\n        /* \"contracts/Fvkry.sol\":7220:7241  address(this).balance */\n      selfbalance\n        /* \"contracts/Fvkry.sol\":7213:7241  return address(this).balance */\n      swap1\n      pop\n        /* \"contracts/Fvkry.sol\":7137:7249  function getContractETHBalance() external view returns (uint256) {... */\n      swap1\n      jump\t// out\n        /* \"@openzeppelin/contracts/access/Ownable.sol\":1638:1723  function owner() public view virtual returns (address) {... */\n    tag_63:\n        /* \"@openzeppelin/contracts/access/Ownable.sol\":1684:1691  address */\n      0x00\n        /* \"@openzeppelin/contracts/access/Ownable.sol\":1710:1716  _owner */\n      dup1\n      0x00\n      swap1\n      sload\n      swap1\n      0x0100\n      exp\n      swap1\n      div\n      0xffffffffffffffffffffffffffffffffffffffff\n      and\n        /* \"@openzeppelin/contracts/access/Ownable.sol\":1703:1716  return _owner */\n      swap1\n      pop\n        /* \"@openzeppelin/contracts/access/Ownable.sol\":1638:1723  function owner() public view virtual returns (address) {... */\n      swap1\n      jump\t// out\n        /* \"contracts/Fvkry.sol\":7468:8058  function extendLockPeriod(uint32 _assetID, uint8 _vault, uint256 _lockperiod) external  {... */\n    tag_70:\n        /* \"contracts/Fvkry.sol\":7567:7584  Lock storage lock */\n      0x00\n        /* \"contracts/Fvkry.sol\":7587:7603  userLockedAssets */\n      0x02\n        /* \"contracts/Fvkry.sol\":7587:7615  userLockedAssets[msg.sender] */\n      0x00\n        /* \"contracts/Fvkry.sol\":7604:7614  msg.sender */\n      caller\n        /* \"contracts/Fvkry.sol\":7587:7615  userLockedAssets[msg.sender] */\n      0xffffffffffffffffffffffffffffffffffffffff\n      and\n      0xffffffffffffffffffffffffffffffffffffffff\n      and\n      dup2\n      mstore\n      0x20\n      add\n      swap1\n      dup2\n      mstore\n      0x20\n      add\n      0x00\n      keccak256\n        /* \"contracts/Fvkry.sol\":7587:7623  userLockedAssets[msg.sender][_vault] */\n      0x00\n        /* \"contracts/Fvkry.sol\":7616:7622  _vault */\n      dup5\n        /* \"contracts/Fvkry.sol\":7587:7623  userLockedAssets[msg.sender][_vault] */\n      0xff\n      and\n      0xff\n      and\n      dup2\n      mstore\n      0x20\n      add\n      swap1\n      dup2\n      mstore\n      0x20\n      add\n      0x00\n      keccak256\n        /* \"contracts/Fvkry.sol\":7624:7632  _assetID */\n      dup5\n        /* \"contracts/Fvkry.sol\":7587:7633  userLockedAssets[msg.sender][_vault][_assetID] */\n      0xffffffff\n      and\n      dup2\n      sload\n      dup2\n      lt\n      tag_198\n      jumpi\n      tag_199\n      tag_156\n      jump\t// in\n    tag_199:\n    tag_198:\n      swap1\n      0x00\n      mstore\n      keccak256(0x00, 0x20)\n      swap1\n      0x05\n      mul\n      add\n        /* \"contracts/Fvkry.sol\":7567:7633  Lock storage lock = userLockedAssets[msg.sender][_vault][_assetID] */\n      swap1\n      pop\n        /* \"contracts/Fvkry.sol\":7665:7681  userLockedAssets */\n      0x02\n        /* \"contracts/Fvkry.sol\":7665:7693  userLockedAssets[msg.sender] */\n      0x00\n        /* \"contracts/Fvkry.sol\":7682:7692  msg.sender */\n      caller\n        /* \"contracts/Fvkry.sol\":7665:7693  userLockedAssets[msg.sender] */\n      0xffffffffffffffffffffffffffffffffffffffff\n      and\n      0xffffffffffffffffffffffffffffffffffffffff\n      and\n      dup2\n      mstore\n      0x20\n      add\n      swap1\n      dup2\n      mstore\n      0x20\n      add\n      0x00\n      keccak256\n        /* \"contracts/Fvkry.sol\":7665:7701  userLockedAssets[msg.sender][_vault] */\n      0x00\n        /* \"contracts/Fvkry.sol\":7694:7700  _vault */\n      dup5\n        /* \"contracts/Fvkry.sol\":7665:7701  userLockedAssets[msg.sender][_vault] */\n      0xff\n      and\n      0xff\n      and\n      dup2\n      mstore\n      0x20\n      add\n      swap1\n      dup2\n      mstore\n      0x20\n      add\n      0x00\n      keccak256\n        /* \"contracts/Fvkry.sol\":7665:7708  userLockedAssets[msg.sender][_vault].length */\n      dup1\n      sload\n      swap1\n      pop\n        /* \"contracts/Fvkry.sol\":7654:7662  _assetID */\n      dup5\n        /* \"contracts/Fvkry.sol\":7654:7708  _assetID < userLockedAssets[msg.sender][_vault].length */\n      0xffffffff\n      and\n      lt\n        /* \"contracts/Fvkry.sol\":7646:7747  require(_assetID < userLockedAssets[msg.sender][_vault].length, \"The specified asset ID is invalid.\") */\n      tag_201\n      jumpi\n      mload(0x40)\n      0x08c379a000000000000000000000000000000000000000000000000000000000\n      dup2\n      mstore\n      0x04\n      add\n      tag_202\n      swap1\n      tag_203\n      jump\t// in\n    tag_202:\n      mload(0x40)\n      dup1\n      swap2\n      sub\n      swap1\n      revert\n    tag_201:\n        /* \"contracts/Fvkry.sol\":7784:7788  lock */\n      dup1\n        /* \"contracts/Fvkry.sol\":7784:7800  lock.lockEndTime */\n      0x02\n      add\n      sload\n        /* \"contracts/Fvkry.sol\":7766:7781  block.timestamp */\n      timestamp\n        /* \"contracts/Fvkry.sol\":7766:7800  block.timestamp > lock.lockEndTime */\n      gt\n        /* \"contracts/Fvkry.sol\":7758:7841  require(block.timestamp > lock.lockEndTime, \"The lock period has not yet expired!\") */\n      tag_204\n      jumpi\n      mload(0x40)\n      0x08c379a000000000000000000000000000000000000000000000000000000000\n      dup2\n      mstore\n      0x04\n      add\n      tag_205\n      swap1\n      tag_206\n      jump\t// in\n    tag_205:\n      mload(0x40)\n      dup1\n      swap2\n      sub\n      swap1\n      revert\n    tag_204:\n        /* \"contracts/Fvkry.sol\":7941:7952  _lockperiod */\n      dup2\n        /* \"contracts/Fvkry.sol\":7923:7938  block.timestamp */\n      timestamp\n        /* \"contracts/Fvkry.sol\":7923:7952  block.timestamp + _lockperiod */\n      tag_207\n      swap2\n      swap1\n      tag_115\n      jump\t// in\n    tag_207:\n        /* \"contracts/Fvkry.sol\":7862:7878  userLockedAssets */\n      0x02\n        /* \"contracts/Fvkry.sol\":7862:7890  userLockedAssets[msg.sender] */\n      0x00\n        /* \"contracts/Fvkry.sol\":7879:7889  msg.sender */\n      caller\n        /* \"contracts/Fvkry.sol\":7862:7890  userLockedAssets[msg.sender] */\n      0xffffffffffffffffffffffffffffffffffffffff\n      and\n      0xffffffffffffffffffffffffffffffffffffffff\n      and\n      dup2\n      mstore\n      0x20\n      add\n      swap1\n      dup2\n      mstore\n      0x20\n      add\n      0x00\n      keccak256\n        /* \"contracts/Fvkry.sol\":7862:7898  userLockedAssets[msg.sender][_vault] */\n      0x00\n        /* \"contracts/Fvkry.sol\":7891:7897  _vault */\n      dup6\n        /* \"contracts/Fvkry.sol\":7862:7898  userLockedAssets[msg.sender][_vault] */\n      0xff\n      and\n      0xff\n      and\n      dup2\n      mstore\n      0x20\n      add\n      swap1\n      dup2\n      mstore\n      0x20\n      add\n      0x00\n      keccak256\n        /* \"contracts/Fvkry.sol\":7899:7907  _assetID */\n      dup6\n        /* \"contracts/Fvkry.sol\":7862:7908  userLockedAssets[msg.sender][_vault][_assetID] */\n      0xffffffff\n      and\n      dup2\n      sload\n      dup2\n      lt\n      tag_208\n      jumpi\n      tag_209\n      tag_156\n      jump\t// in\n    tag_209:\n    tag_208:\n      swap1\n      0x00\n      mstore\n      keccak256(0x00, 0x20)\n      swap1\n      0x05\n      mul\n      add\n        /* \"contracts/Fvkry.sol\":7862:7920  userLockedAssets[msg.sender][_vault][_assetID].lockEndTime */\n      0x02\n      add\n        /* \"contracts/Fvkry.sol\":7862:7952  userLockedAssets[msg.sender][_vault][_assetID].lockEndTime = block.timestamp + _lockperiod */\n      dup2\n      swap1\n      sstore\n      pop\n        /* \"contracts/Fvkry.sol\":7989:7993  lock */\n      dup1\n        /* \"contracts/Fvkry.sol\":7989:7999  lock.token */\n      0x00\n      add\n      0x00\n      swap1\n      sload\n      swap1\n      0x0100\n      exp\n      swap1\n      div\n      0xffffffffffffffffffffffffffffffffffffffff\n      and\n        /* \"contracts/Fvkry.sol\":7970:8050  LockPeriodExtended(lock.token, _vault, _lockperiod, lock.title, block.timestamp) */\n      0xffffffffffffffffffffffffffffffffffffffff\n      and\n      0x748cb9768ee3f2567793f42a22f5b0c83df9e14d32ec82c9cb839cb1b357be13\n        /* \"contracts/Fvkry.sol\":8001:8007  _vault */\n      dup5\n        /* \"contracts/Fvkry.sol\":8009:8020  _lockperiod */\n      dup5\n        /* \"contracts/Fvkry.sol\":8022:8026  lock */\n      dup5\n        /* \"contracts/Fvkry.sol\":8022:8032  lock.title */\n      0x03\n      add\n        /* \"contracts/Fvkry.sol\":8034:8049  block.timestamp */\n      timestamp\n        /* \"contracts/Fvkry.sol\":7970:8050  LockPeriodExtended(lock.token, _vault, _lockperiod, lock.title, block.timestamp) */\n      mload(0x40)\n      tag_211\n      swap5\n      swap4\n      swap3\n      swap2\n      swap1\n      tag_212\n      jump\t// in\n    tag_211:\n      mload(0x40)\n      dup1\n      swap2\n      sub\n      swap1\n      log2\n        /* \"contracts/Fvkry.sol\":7556:8058  {... */\n      pop\n        /* \"contracts/Fvkry.sol\":7468:8058  function extendLockPeriod(uint32 _assetID, uint8 _vault, uint256 _lockperiod) external  {... */\n      pop\n      pop\n      pop\n      jump\t// out\n        /* \"contracts/Fvkry.sol\":733:803  mapping (address => mapping (uint8 => Lock[])) public userLockedAssets */\n    tag_74:\n      mstore(0x20, 0x02)\n      dup3\n      0x00\n      mstore\n      mstore(0x20, keccak256(0x00, 0x40))\n      dup2\n      0x00\n      mstore\n      keccak256(0x00, 0x40)\n      dup2\n      dup2\n      sload\n      dup2\n      lt\n      tag_213\n      jumpi\n      0x00\n      dup1\n      revert\n    tag_213:\n      swap1\n      0x00\n      mstore\n      keccak256(0x00, 0x20)\n      swap1\n      0x05\n      mul\n      add\n      0x00\n      swap3\n      pop\n      swap3\n      pop\n      pop\n      pop\n      dup1\n      0x00\n      add\n      0x00\n      swap1\n      sload\n      swap1\n      0x0100\n      exp\n      swap1\n      div\n      0xffffffffffffffffffffffffffffffffffffffff\n      and\n      swap1\n      dup1\n      0x01\n      add\n      sload\n      swap1\n      dup1\n      0x02\n      add\n      sload\n      swap1\n      dup1\n      0x03\n      add\n      dup1\n      sload\n      tag_215\n      swap1\n      tag_165\n      jump\t// in\n    tag_215:\n      dup1\n      0x1f\n      add\n      0x20\n      dup1\n      swap2\n      div\n      mul\n      0x20\n      add\n      mload(0x40)\n      swap1\n      dup2\n      add\n      0x40\n      mstore\n      dup1\n      swap3\n      swap2\n      swap1\n      dup2\n      dup2\n      mstore\n      0x20\n      add\n      dup3\n      dup1\n      sload\n      tag_216\n      swap1\n      tag_165\n      jump\t// in\n    tag_216:\n      dup1\n      iszero\n      tag_217\n      jumpi\n      dup1\n      0x1f\n      lt\n      tag_218\n      jumpi\n      0x0100\n      dup1\n      dup4\n      sload\n      div\n      mul\n      dup4\n      mstore\n      swap2\n      0x20\n      add\n      swap2\n      jump(tag_217)\n    tag_218:\n      dup3\n      add\n      swap2\n      swap1\n      0x00\n      mstore\n      keccak256(0x00, 0x20)\n      swap1\n    tag_219:\n      dup2\n      sload\n      dup2\n      mstore\n      swap1\n      0x01\n      add\n      swap1\n      0x20\n      add\n      dup1\n      dup4\n      gt\n      tag_219\n      jumpi\n      dup3\n      swap1\n      sub\n      0x1f\n      and\n      dup3\n      add\n      swap2\n    tag_217:\n      pop\n      pop\n      pop\n      pop\n      pop\n      swap1\n      dup1\n      0x04\n      add\n      0x00\n      swap1\n      sload\n      swap1\n      0x0100\n      exp\n      swap1\n      div\n      0xff\n      and\n      swap1\n      dup1\n      0x04\n      add\n      0x01\n      swap1\n      sload\n      swap1\n      0x0100\n      exp\n      swap1\n      div\n      0xff\n      and\n      swap1\n      pop\n      dup7\n      jump\t// out\n        /* \"contracts/Fvkry.sol\":4915:6530  function transferAsset( uint32 _assetId,uint8 _vault, uint256 _amount, bool _goalReachedByValue) external  nonReentrant {... */\n    tag_81:\n        /* \"@openzeppelin/contracts/utils/ReentrancyGuard.sol\":2500:2521  _nonReentrantBefore() */\n      tag_221\n        /* \"@openzeppelin/contracts/utils/ReentrancyGuard.sol\":2500:2519  _nonReentrantBefore */\n      tag_93\n        /* \"@openzeppelin/contracts/utils/ReentrancyGuard.sol\":2500:2521  _nonReentrantBefore() */\n      jump\t// in\n    tag_221:\n        /* \"contracts/Fvkry.sol\":5065:5081  userLockedAssets */\n      0x02\n        /* \"contracts/Fvkry.sol\":5065:5093  userLockedAssets[msg.sender] */\n      0x00\n        /* \"contracts/Fvkry.sol\":5082:5092  msg.sender */\n      caller\n        /* \"contracts/Fvkry.sol\":5065:5093  userLockedAssets[msg.sender] */\n      0xffffffffffffffffffffffffffffffffffffffff\n      and\n      0xffffffffffffffffffffffffffffffffffffffff\n      and\n      dup2\n      mstore\n      0x20\n      add\n      swap1\n      dup2\n      mstore\n      0x20\n      add\n      0x00\n      keccak256\n        /* \"contracts/Fvkry.sol\":5065:5101  userLockedAssets[msg.sender][_vault] */\n      0x00\n        /* \"contracts/Fvkry.sol\":5094:5100  _vault */\n      dup5\n        /* \"contracts/Fvkry.sol\":5065:5101  userLockedAssets[msg.sender][_vault] */\n      0xff\n      and\n      0xff\n      and\n      dup2\n      mstore\n      0x20\n      add\n      swap1\n      dup2\n      mstore\n      0x20\n      add\n      0x00\n      keccak256\n        /* \"contracts/Fvkry.sol\":5065:5108  userLockedAssets[msg.sender][_vault].length */\n      dup1\n      sload\n      swap1\n      pop\n        /* \"contracts/Fvkry.sol\":5054:5062  _assetId */\n      dup5\n        /* \"contracts/Fvkry.sol\":5054:5108  _assetId < userLockedAssets[msg.sender][_vault].length */\n      0xffffffff\n      and\n      lt\n        /* \"contracts/Fvkry.sol\":5046:5147  require(_assetId < userLockedAssets[msg.sender][_vault].length, \"The specified asset ID is invalid.\") */\n      tag_223\n      jumpi\n      mload(0x40)\n      0x08c379a000000000000000000000000000000000000000000000000000000000\n      dup2\n      mstore\n      0x04\n      add\n      tag_224\n      swap1\n      tag_203\n      jump\t// in\n    tag_224:\n      mload(0x40)\n      dup1\n      swap2\n      sub\n      swap1\n      revert\n    tag_223:\n        /* \"contracts/Fvkry.sol\":5168:5185  Lock storage lock */\n      0x00\n        /* \"contracts/Fvkry.sol\":5188:5204  userLockedAssets */\n      0x02\n        /* \"contracts/Fvkry.sol\":5188:5216  userLockedAssets[msg.sender] */\n      0x00\n        /* \"contracts/Fvkry.sol\":5205:5215  msg.sender */\n      caller\n        /* \"contracts/Fvkry.sol\":5188:5216  userLockedAssets[msg.sender] */\n      0xffffffffffffffffffffffffffffffffffffffff\n      and\n      0xffffffffffffffffffffffffffffffffffffffff\n      and\n      dup2\n      mstore\n      0x20\n      add\n      swap1\n      dup2\n      mstore\n      0x20\n      add\n      0x00\n      keccak256\n        /* \"contracts/Fvkry.sol\":5188:5224  userLockedAssets[msg.sender][_vault] */\n      0x00\n        /* \"contracts/Fvkry.sol\":5217:5223  _vault */\n      dup6\n        /* \"contracts/Fvkry.sol\":5188:5224  userLockedAssets[msg.sender][_vault] */\n      0xff\n      and\n      0xff\n      and\n      dup2\n      mstore\n      0x20\n      add\n      swap1\n      dup2\n      mstore\n      0x20\n      add\n      0x00\n      keccak256\n        /* \"contracts/Fvkry.sol\":5225:5233  _assetId */\n      dup6\n        /* \"contracts/Fvkry.sol\":5188:5234  userLockedAssets[msg.sender][_vault][_assetId] */\n      0xffffffff\n      and\n      dup2\n      sload\n      dup2\n      lt\n      tag_225\n      jumpi\n      tag_226\n      tag_156\n      jump\t// in\n    tag_226:\n    tag_225:\n      swap1\n      0x00\n      mstore\n      keccak256(0x00, 0x20)\n      swap1\n      0x05\n      mul\n      add\n        /* \"contracts/Fvkry.sol\":5168:5234  Lock storage lock = userLockedAssets[msg.sender][_vault][_assetId] */\n      swap1\n      pop\n        /* \"contracts/Fvkry.sol\":5256:5260  lock */\n      dup1\n        /* \"contracts/Fvkry.sol\":5256:5270  lock.withdrawn */\n      0x04\n      add\n      0x00\n      swap1\n      sload\n      swap1\n      0x0100\n      exp\n      swap1\n      div\n      0xff\n      and\n        /* \"contracts/Fvkry.sol\":5255:5270  !lock.withdrawn */\n      iszero\n        /* \"contracts/Fvkry.sol\":5247:5309  require(!lock.withdrawn,\"Assets have already been withdrawn!\") */\n      tag_228\n      jumpi\n      mload(0x40)\n      0x08c379a000000000000000000000000000000000000000000000000000000000\n      dup2\n      mstore\n      0x04\n      add\n      tag_229\n      swap1\n      tag_230\n      jump\t// in\n    tag_229:\n      mload(0x40)\n      dup1\n      swap2\n      sub\n      swap1\n      revert\n    tag_228:\n        /* \"contracts/Fvkry.sol\":5339:5343  lock */\n      dup1\n        /* \"contracts/Fvkry.sol\":5339:5350  lock.amount */\n      0x01\n      add\n      sload\n        /* \"contracts/Fvkry.sol\":5328:5335  _amount */\n      dup4\n        /* \"contracts/Fvkry.sol\":5328:5350  _amount <= lock.amount */\n      gt\n      iszero\n        /* \"contracts/Fvkry.sol\":5320:5385  require(_amount <= lock.amount, \"Not enough assets to withdraw!\") */\n      tag_231\n      jumpi\n      mload(0x40)\n      0x08c379a000000000000000000000000000000000000000000000000000000000\n      dup2\n      mstore\n      0x04\n      add\n      tag_232\n      swap1\n      tag_233\n      jump\t// in\n    tag_232:\n      mload(0x40)\n      dup1\n      swap2\n      sub\n      swap1\n      revert\n    tag_231:\n        /* \"contracts/Fvkry.sol\":5422:5426  lock */\n      dup1\n        /* \"contracts/Fvkry.sol\":5422:5438  lock.lockEndTime */\n      0x02\n      add\n      sload\n        /* \"contracts/Fvkry.sol\":5404:5419  block.timestamp */\n      timestamp\n        /* \"contracts/Fvkry.sol\":5404:5438  block.timestamp > lock.lockEndTime */\n      gt\n        /* \"contracts/Fvkry.sol\":5404:5461  block.timestamp > lock.lockEndTime || _goalReachedByValue */\n      dup1\n      tag_234\n      jumpi\n      pop\n        /* \"contracts/Fvkry.sol\":5442:5461  _goalReachedByValue */\n      dup2\n        /* \"contracts/Fvkry.sol\":5404:5461  block.timestamp > lock.lockEndTime || _goalReachedByValue */\n    tag_234:\n        /* \"contracts/Fvkry.sol\":5396:5541  require(block.timestamp > lock.lockEndTime || _goalReachedByValue, \"The lock period has not yet expired and the value has not reached set goal!\") */\n      tag_235\n      jumpi\n      mload(0x40)\n      0x08c379a000000000000000000000000000000000000000000000000000000000\n      dup2\n      mstore\n      0x04\n      add\n      tag_236\n      swap1\n      tag_237\n      jump\t// in\n    tag_236:\n      mload(0x40)\n      dup1\n      swap2\n      sub\n      swap1\n      revert\n    tag_235:\n        /* \"contracts/Fvkry.sol\":5554:5576  uint256  updateBalance */\n      0x00\n        /* \"contracts/Fvkry.sol\":5593:5600  _amount */\n      dup4\n        /* \"contracts/Fvkry.sol\":5579:5583  lock */\n      dup3\n        /* \"contracts/Fvkry.sol\":5579:5590  lock.amount */\n      0x01\n      add\n      sload\n        /* \"contracts/Fvkry.sol\":5579:5600  lock.amount - _amount */\n      tag_238\n      swap2\n      swap1\n      tag_239\n      jump\t// in\n    tag_238:\n        /* \"contracts/Fvkry.sol\":5554:5600  uint256  updateBalance = lock.amount - _amount */\n      swap1\n      pop\n        /* \"contracts/Fvkry.sol\":5637:5638  0 */\n      0x00\n        /* \"contracts/Fvkry.sol\":5620:5633  updateBalance */\n      dup2\n        /* \"contracts/Fvkry.sol\":5620:5638  updateBalance >= 0 */\n      lt\n      iszero\n        /* \"contracts/Fvkry.sol\":5611:5672  require (updateBalance >= 0,\"Not enough assets to withdraw!\") */\n      tag_240\n      jumpi\n      mload(0x40)\n      0x08c379a000000000000000000000000000000000000000000000000000000000\n      dup2\n      mstore\n      0x04\n      add\n      tag_241\n      swap1\n      tag_233\n      jump\t// in\n    tag_241:\n      mload(0x40)\n      dup1\n      swap2\n      sub\n      swap1\n      revert\n    tag_240:\n        /* \"contracts/Fvkry.sol\":5734:5735  0 */\n      0x00\n        /* \"contracts/Fvkry.sol\":5717:5730  updateBalance */\n      dup2\n        /* \"contracts/Fvkry.sol\":5717:5735  updateBalance == 0 */\n      sub\n        /* \"contracts/Fvkry.sol\":5714:5827  if(updateBalance == 0) {... */\n      tag_242\n      jumpi\n        /* \"contracts/Fvkry.sol\":5811:5815  true */\n      0x01\n        /* \"contracts/Fvkry.sol\":5752:5768  userLockedAssets */\n      0x02\n        /* \"contracts/Fvkry.sol\":5752:5780  userLockedAssets[msg.sender] */\n      0x00\n        /* \"contracts/Fvkry.sol\":5769:5779  msg.sender */\n      caller\n        /* \"contracts/Fvkry.sol\":5752:5780  userLockedAssets[msg.sender] */\n      0xffffffffffffffffffffffffffffffffffffffff\n      and\n      0xffffffffffffffffffffffffffffffffffffffff\n      and\n      dup2\n      mstore\n      0x20\n      add\n      swap1\n      dup2\n      mstore\n      0x20\n      add\n      0x00\n      keccak256\n        /* \"contracts/Fvkry.sol\":5752:5788  userLockedAssets[msg.sender][_vault] */\n      0x00\n        /* \"contracts/Fvkry.sol\":5781:5787  _vault */\n      dup8\n        /* \"contracts/Fvkry.sol\":5752:5788  userLockedAssets[msg.sender][_vault] */\n      0xff\n      and\n      0xff\n      and\n      dup2\n      mstore\n      0x20\n      add\n      swap1\n      dup2\n      mstore\n      0x20\n      add\n      0x00\n      keccak256\n        /* \"contracts/Fvkry.sol\":5789:5797  _assetId */\n      dup8\n        /* \"contracts/Fvkry.sol\":5752:5798  userLockedAssets[msg.sender][_vault][_assetId] */\n      0xffffffff\n      and\n      dup2\n      sload\n      dup2\n      lt\n      tag_243\n      jumpi\n      tag_244\n      tag_156\n      jump\t// in\n    tag_244:\n    tag_243:\n      swap1\n      0x00\n      mstore\n      keccak256(0x00, 0x20)\n      swap1\n      0x05\n      mul\n      add\n        /* \"contracts/Fvkry.sol\":5752:5808  userLockedAssets[msg.sender][_vault][_assetId].withdrawn */\n      0x04\n      add\n      0x00\n        /* \"contracts/Fvkry.sol\":5752:5815  userLockedAssets[msg.sender][_vault][_assetId].withdrawn = true */\n      0x0100\n      exp\n      dup2\n      sload\n      dup2\n      0xff\n      mul\n      not\n      and\n      swap1\n      dup4\n      iszero\n      iszero\n      mul\n      or\n      swap1\n      sstore\n      pop\n        /* \"contracts/Fvkry.sol\":5714:5827  if(updateBalance == 0) {... */\n    tag_242:\n        /* \"contracts/Fvkry.sol\":5924:5937  updateBalance */\n      dup1\n        /* \"contracts/Fvkry.sol\":5868:5884  userLockedAssets */\n      0x02\n        /* \"contracts/Fvkry.sol\":5868:5896  userLockedAssets[msg.sender] */\n      0x00\n        /* \"contracts/Fvkry.sol\":5885:5895  msg.sender */\n      caller\n        /* \"contracts/Fvkry.sol\":5868:5896  userLockedAssets[msg.sender] */\n      0xffffffffffffffffffffffffffffffffffffffff\n      and\n      0xffffffffffffffffffffffffffffffffffffffff\n      and\n      dup2\n      mstore\n      0x20\n      add\n      swap1\n      dup2\n      mstore\n      0x20\n      add\n      0x00\n      keccak256\n        /* \"contracts/Fvkry.sol\":5868:5904  userLockedAssets[msg.sender][_vault] */\n      0x00\n        /* \"contracts/Fvkry.sol\":5897:5903  _vault */\n      dup8\n        /* \"contracts/Fvkry.sol\":5868:5904  userLockedAssets[msg.sender][_vault] */\n      0xff\n      and\n      0xff\n      and\n      dup2\n      mstore\n      0x20\n      add\n      swap1\n      dup2\n      mstore\n      0x20\n      add\n      0x00\n      keccak256\n        /* \"contracts/Fvkry.sol\":5905:5913  _assetId */\n      dup8\n        /* \"contracts/Fvkry.sol\":5868:5914  userLockedAssets[msg.sender][_vault][_assetId] */\n      0xffffffff\n      and\n      dup2\n      sload\n      dup2\n      lt\n      tag_246\n      jumpi\n      tag_247\n      tag_156\n      jump\t// in\n    tag_247:\n    tag_246:\n      swap1\n      0x00\n      mstore\n      keccak256(0x00, 0x20)\n      swap1\n      0x05\n      mul\n      add\n        /* \"contracts/Fvkry.sol\":5868:5921  userLockedAssets[msg.sender][_vault][_assetId].amount */\n      0x01\n      add\n        /* \"contracts/Fvkry.sol\":5868:5937  userLockedAssets[msg.sender][_vault][_assetId].amount = updateBalance */\n      dup2\n      swap1\n      sstore\n      pop\n        /* \"contracts/Fvkry.sol\":5957:5961  lock */\n      dup2\n        /* \"contracts/Fvkry.sol\":5957:5970  lock.isNative */\n      0x04\n      add\n      0x01\n      swap1\n      sload\n      swap1\n      0x0100\n      exp\n      swap1\n      div\n      0xff\n      and\n        /* \"contracts/Fvkry.sol\":5954:6422  if(lock.isNative) {... */\n      iszero\n      tag_249\n      jumpi\n        /* \"contracts/Fvkry.sol\":6017:6029  bool success */\n      0x00\n        /* \"contracts/Fvkry.sol\":6035:6045  msg.sender */\n      caller\n        /* \"contracts/Fvkry.sol\":6035:6050  msg.sender.call */\n      0xffffffffffffffffffffffffffffffffffffffff\n      and\n        /* \"contracts/Fvkry.sol\":6058:6065  _amount */\n      dup6\n        /* \"contracts/Fvkry.sol\":6035:6070  msg.sender.call{value: _amount}(\"\") */\n      mload(0x40)\n      tag_250\n      swap1\n      tag_251\n      jump\t// in\n    tag_250:\n      0x00\n      mload(0x40)\n      dup1\n      dup4\n      sub\n      dup2\n      dup6\n      dup8\n      gas\n      call\n      swap3\n      pop\n      pop\n      pop\n      returndatasize\n      dup1\n      0x00\n      dup2\n      eq\n      tag_254\n      jumpi\n      mload(0x40)\n      swap2\n      pop\n      and(add(returndatasize, 0x3f), not(0x1f))\n      dup3\n      add\n      0x40\n      mstore\n      returndatasize\n      dup3\n      mstore\n      returndatasize\n      0x00\n      0x20\n      dup5\n      add\n      returndatacopy\n      jump(tag_253)\n    tag_254:\n      0x60\n      swap2\n      pop\n    tag_253:\n      pop\n        /* \"contracts/Fvkry.sol\":6016:6070  (bool success, ) = msg.sender.call{value: _amount}(\"\") */\n      pop\n      swap1\n      pop\n        /* \"contracts/Fvkry.sol\":6093:6100  success */\n      dup1\n        /* \"contracts/Fvkry.sol\":6085:6124  require(success, \"ETH transfer failed\") */\n      tag_255\n      jumpi\n      mload(0x40)\n      0x08c379a000000000000000000000000000000000000000000000000000000000\n      dup2\n      mstore\n      0x04\n      add\n      tag_256\n      swap1\n      tag_257\n      jump\t// in\n    tag_256:\n      mload(0x40)\n      dup1\n      swap2\n      sub\n      swap1\n      revert\n    tag_255:\n        /* \"contracts/Fvkry.sol\":6141:6201  recordTransac(address(0), _vault, _amount, lock.title, true) */\n      tag_258\n        /* \"contracts/Fvkry.sol\":6163:6164  0 */\n      0x00\n        /* \"contracts/Fvkry.sol\":6167:6173  _vault */\n      dup8\n        /* \"contracts/Fvkry.sol\":6175:6182  _amount */\n      dup8\n        /* \"contracts/Fvkry.sol\":6184:6188  lock */\n      dup7\n        /* \"contracts/Fvkry.sol\":6184:6194  lock.title */\n      0x03\n      add\n        /* \"contracts/Fvkry.sol\":6141:6201  recordTransac(address(0), _vault, _amount, lock.title, true) */\n      dup1\n      sload\n      tag_259\n      swap1\n      tag_165\n      jump\t// in\n    tag_259:\n      dup1\n      0x1f\n      add\n      0x20\n      dup1\n      swap2\n      div\n      mul\n      0x20\n      add\n      mload(0x40)\n      swap1\n      dup2\n      add\n      0x40\n      mstore\n      dup1\n      swap3\n      swap2\n      swap1\n      dup2\n      dup2\n      mstore\n      0x20\n      add\n      dup3\n      dup1\n      sload\n      tag_260\n      swap1\n      tag_165\n      jump\t// in\n    tag_260:\n      dup1\n      iszero\n      tag_261\n      jumpi\n      dup1\n      0x1f\n      lt\n      tag_262\n      jumpi\n      0x0100\n      dup1\n      dup4\n      sload\n      div\n      mul\n      dup4\n      mstore\n      swap2\n      0x20\n      add\n      swap2\n      jump(tag_261)\n    tag_262:\n      dup3\n      add\n      swap2\n      swap1\n      0x00\n      mstore\n      keccak256(0x00, 0x20)\n      swap1\n    tag_263:\n      dup2\n      sload\n      dup2\n      mstore\n      swap1\n      0x01\n      add\n      swap1\n      0x20\n      add\n      dup1\n      dup4\n      gt\n      tag_263\n      jumpi\n      dup3\n      swap1\n      sub\n      0x1f\n      and\n      dup3\n      add\n      swap2\n    tag_261:\n      pop\n      pop\n      pop\n      pop\n      pop\n        /* \"contracts/Fvkry.sol\":6196:6200  true */\n      0x01\n        /* \"contracts/Fvkry.sol\":6141:6154  recordTransac */\n      tag_120\n        /* \"contracts/Fvkry.sol\":6141:6201  recordTransac(address(0), _vault, _amount, lock.title, true) */\n      jump\t// in\n    tag_258:\n        /* \"contracts/Fvkry.sol\":5972:6213  {... */\n      pop\n        /* \"contracts/Fvkry.sol\":5954:6422  if(lock.isNative) {... */\n      jump(tag_264)\n    tag_249:\n        /* \"contracts/Fvkry.sol\":6272:6324  IERC20(lock.token).safeTransfer(msg.sender, _amount) */\n      tag_265\n        /* \"contracts/Fvkry.sol\":6304:6314  msg.sender */\n      caller\n        /* \"contracts/Fvkry.sol\":6316:6323  _amount */\n      dup6\n        /* \"contracts/Fvkry.sol\":6279:6283  lock */\n      dup5\n        /* \"contracts/Fvkry.sol\":6279:6289  lock.token */\n      0x00\n      add\n      0x00\n      swap1\n      sload\n      swap1\n      0x0100\n      exp\n      swap1\n      div\n      0xffffffffffffffffffffffffffffffffffffffff\n      and\n        /* \"contracts/Fvkry.sol\":6272:6303  IERC20(lock.token).safeTransfer */\n      0xffffffffffffffffffffffffffffffffffffffff\n      and\n      tag_266\n      swap1\n        /* \"contracts/Fvkry.sol\":6272:6324  IERC20(lock.token).safeTransfer(msg.sender, _amount) */\n      swap3\n      swap2\n      swap1\n      0xffffffff\n      and\n      jump\t// in\n    tag_265:\n        /* \"contracts/Fvkry.sol\":6341:6410  recordTransac(address(lock.token), _vault, _amount, lock.title, true) */\n      tag_267\n        /* \"contracts/Fvkry.sol\":6363:6367  lock */\n      dup3\n        /* \"contracts/Fvkry.sol\":6363:6373  lock.token */\n      0x00\n      add\n      0x00\n      swap1\n      sload\n      swap1\n      0x0100\n      exp\n      swap1\n      div\n      0xffffffffffffffffffffffffffffffffffffffff\n      and\n        /* \"contracts/Fvkry.sol\":6376:6382  _vault */\n      dup7\n        /* \"contracts/Fvkry.sol\":6384:6391  _amount */\n      dup7\n        /* \"contracts/Fvkry.sol\":6393:6397  lock */\n      dup6\n        /* \"contracts/Fvkry.sol\":6393:6403  lock.title */\n      0x03\n      add\n        /* \"contracts/Fvkry.sol\":6341:6410  recordTransac(address(lock.token), _vault, _amount, lock.title, true) */\n      dup1\n      sload\n      tag_268\n      swap1\n      tag_165\n      jump\t// in\n    tag_268:\n      dup1\n      0x1f\n      add\n      0x20\n      dup1\n      swap2\n      div\n      mul\n      0x20\n      add\n      mload(0x40)\n      swap1\n      dup2\n      add\n      0x40\n      mstore\n      dup1\n      swap3\n      swap2\n      swap1\n      dup2\n      dup2\n      mstore\n      0x20\n      add\n      dup3\n      dup1\n      sload\n      tag_269\n      swap1\n      tag_165\n      jump\t// in\n    tag_269:\n      dup1\n      iszero\n      tag_270\n      jumpi\n      dup1\n      0x1f\n      lt\n      tag_271\n      jumpi\n      0x0100\n      dup1\n      dup4\n      sload\n      div\n      mul\n      dup4\n      mstore\n      swap2\n      0x20\n      add\n      swap2\n      jump(tag_270)\n    tag_271:\n      dup3\n      add\n      swap2\n      swap1\n      0x00\n      mstore\n      keccak256(0x00, 0x20)\n      swap1\n    tag_272:\n      dup2\n      sload\n      dup2\n      mstore\n      swap1\n      0x01\n      add\n      swap1\n      0x20\n      add\n      dup1\n      dup4\n      gt\n      tag_272\n      jumpi\n      dup3\n      swap1\n      sub\n      0x1f\n      and\n      dup3\n      add\n      swap2\n    tag_270:\n      pop\n      pop\n      pop\n      pop\n      pop\n        /* \"contracts/Fvkry.sol\":6405:6409  true */\n      0x01\n        /* \"contracts/Fvkry.sol\":6341:6354  recordTransac */\n      tag_120\n        /* \"contracts/Fvkry.sol\":6341:6410  recordTransac(address(lock.token), _vault, _amount, lock.title, true) */\n      jump\t// in\n    tag_267:\n        /* \"contracts/Fvkry.sol\":5954:6422  if(lock.isNative) {... */\n    tag_264:\n        /* \"contracts/Fvkry.sol\":6463:6467  lock */\n      dup2\n        /* \"contracts/Fvkry.sol\":6463:6473  lock.token */\n      0x00\n      add\n      0x00\n      swap1\n      sload\n      swap1\n      0x0100\n      exp\n      swap1\n      div\n      0xffffffffffffffffffffffffffffffffffffffff\n      and\n        /* \"contracts/Fvkry.sol\":6439:6522  AssetTransfered(address(lock.token), _amount , lock.title, _vault, block.timestamp) */\n      0xffffffffffffffffffffffffffffffffffffffff\n      and\n      0x16c4c024c274b52575ffc17396bbc4a59db7dd13aac28373e025a9f6269f9e03\n        /* \"contracts/Fvkry.sol\":6476:6483  _amount */\n      dup6\n        /* \"contracts/Fvkry.sol\":6486:6490  lock */\n      dup5\n        /* \"contracts/Fvkry.sol\":6486:6496  lock.title */\n      0x03\n      add\n        /* \"contracts/Fvkry.sol\":6498:6504  _vault */\n      dup9\n        /* \"contracts/Fvkry.sol\":6506:6521  block.timestamp */\n      timestamp\n        /* \"contracts/Fvkry.sol\":6439:6522  AssetTransfered(address(lock.token), _amount , lock.title, _vault, block.timestamp) */\n      mload(0x40)\n      tag_273\n      swap5\n      swap4\n      swap3\n      swap2\n      swap1\n      tag_171\n      jump\t// in\n    tag_273:\n      mload(0x40)\n      dup1\n      swap2\n      sub\n      swap1\n      log2\n        /* \"contracts/Fvkry.sol\":5035:6530  {... */\n      pop\n      pop\n        /* \"@openzeppelin/contracts/utils/ReentrancyGuard.sol\":2542:2562  _nonReentrantAfter() */\n      tag_274\n        /* \"@openzeppelin/contracts/utils/ReentrancyGuard.sol\":2542:2560  _nonReentrantAfter */\n      tag_125\n        /* \"@openzeppelin/contracts/utils/ReentrancyGuard.sol\":2542:2562  _nonReentrantAfter() */\n      jump\t// in\n    tag_274:\n        /* \"contracts/Fvkry.sol\":4915:6530  function transferAsset( uint32 _assetId,uint8 _vault, uint256 _amount, bool _goalReachedByValue) external  nonReentrant {... */\n      pop\n      pop\n      pop\n      pop\n      jump\t// out\n        /* \"contracts/Fvkry.sol\":2281:2860  function addToLockedETH(uint8 _vault, uint32 _assetID) external payable  nonReentrant {... */\n    tag_85:\n        /* \"@openzeppelin/contracts/utils/ReentrancyGuard.sol\":2500:2521  _nonReentrantBefore() */\n      tag_276\n        /* \"@openzeppelin/contracts/utils/ReentrancyGuard.sol\":2500:2519  _nonReentrantBefore */\n      tag_93\n        /* \"@openzeppelin/contracts/utils/ReentrancyGuard.sol\":2500:2521  _nonReentrantBefore() */\n      jump\t// in\n    tag_276:\n        /* \"contracts/Fvkry.sol\":2398:2399  0 */\n      0x00\n        /* \"contracts/Fvkry.sol\":2386:2395  msg.value */\n      callvalue\n        /* \"contracts/Fvkry.sol\":2386:2399  msg.value > 0 */\n      gt\n        /* \"contracts/Fvkry.sol\":2378:2455  require(msg.value > 0, \"ETH to add to lock must be an amount greater than 0\") */\n      tag_278\n      jumpi\n      mload(0x40)\n      0x08c379a000000000000000000000000000000000000000000000000000000000\n      dup2\n      mstore\n      0x04\n      add\n      tag_279\n      swap1\n      tag_280\n      jump\t// in\n    tag_279:\n      mload(0x40)\n      dup1\n      swap2\n      sub\n      swap1\n      revert\n    tag_278:\n        /* \"contracts/Fvkry.sol\":2468:2485  Lock storage lock */\n      0x00\n        /* \"contracts/Fvkry.sol\":2488:2504  userLockedAssets */\n      0x02\n        /* \"contracts/Fvkry.sol\":2488:2516  userLockedAssets[msg.sender] */\n      0x00\n        /* \"contracts/Fvkry.sol\":2505:2515  msg.sender */\n      caller\n        /* \"contracts/Fvkry.sol\":2488:2516  userLockedAssets[msg.sender] */\n      0xffffffffffffffffffffffffffffffffffffffff\n      and\n      0xffffffffffffffffffffffffffffffffffffffff\n      and\n      dup2\n      mstore\n      0x20\n      add\n      swap1\n      dup2\n      mstore\n      0x20\n      add\n      0x00\n      keccak256\n        /* \"contracts/Fvkry.sol\":2488:2524  userLockedAssets[msg.sender][_vault] */\n      0x00\n        /* \"contracts/Fvkry.sol\":2517:2523  _vault */\n      dup5\n        /* \"contracts/Fvkry.sol\":2488:2524  userLockedAssets[msg.sender][_vault] */\n      0xff\n      and\n      0xff\n      and\n      dup2\n      mstore\n      0x20\n      add\n      swap1\n      dup2\n      mstore\n      0x20\n      add\n      0x00\n      keccak256\n        /* \"contracts/Fvkry.sol\":2525:2533  _assetID */\n      dup3\n        /* \"contracts/Fvkry.sol\":2488:2534  userLockedAssets[msg.sender][_vault][_assetID] */\n      0xffffffff\n      and\n      dup2\n      sload\n      dup2\n      lt\n      tag_281\n      jumpi\n      tag_282\n      tag_156\n      jump\t// in\n    tag_282:\n    tag_281:\n      swap1\n      0x00\n      mstore\n      keccak256(0x00, 0x20)\n      swap1\n      0x05\n      mul\n      add\n        /* \"contracts/Fvkry.sol\":2468:2534  Lock storage lock = userLockedAssets[msg.sender][_vault][_assetID] */\n      swap1\n      pop\n        /* \"contracts/Fvkry.sol\":2649:2658  msg.value */\n      callvalue\n        /* \"contracts/Fvkry.sol\":2592:2608  userLockedAssets */\n      0x02\n        /* \"contracts/Fvkry.sol\":2592:2620  userLockedAssets[msg.sender] */\n      0x00\n        /* \"contracts/Fvkry.sol\":2609:2619  msg.sender */\n      caller\n        /* \"contracts/Fvkry.sol\":2592:2620  userLockedAssets[msg.sender] */\n      0xffffffffffffffffffffffffffffffffffffffff\n      and\n      0xffffffffffffffffffffffffffffffffffffffff\n      and\n      dup2\n      mstore\n      0x20\n      add\n      swap1\n      dup2\n      mstore\n      0x20\n      add\n      0x00\n      keccak256\n        /* \"contracts/Fvkry.sol\":2592:2628  userLockedAssets[msg.sender][_vault] */\n      0x00\n        /* \"contracts/Fvkry.sol\":2621:2627  _vault */\n      dup6\n        /* \"contracts/Fvkry.sol\":2592:2628  userLockedAssets[msg.sender][_vault] */\n      0xff\n      and\n      0xff\n      and\n      dup2\n      mstore\n      0x20\n      add\n      swap1\n      dup2\n      mstore\n      0x20\n      add\n      0x00\n      keccak256\n        /* \"contracts/Fvkry.sol\":2629:2637  _assetID */\n      dup4\n        /* \"contracts/Fvkry.sol\":2592:2638  userLockedAssets[msg.sender][_vault][_assetID] */\n      0xffffffff\n      and\n      dup2\n      sload\n      dup2\n      lt\n      tag_284\n      jumpi\n      tag_285\n      tag_156\n      jump\t// in\n    tag_285:\n    tag_284:\n      swap1\n      0x00\n      mstore\n      keccak256(0x00, 0x20)\n      swap1\n      0x05\n      mul\n      add\n        /* \"contracts/Fvkry.sol\":2592:2645  userLockedAssets[msg.sender][_vault][_assetID].amount */\n      0x01\n      add\n      0x00\n        /* \"contracts/Fvkry.sol\":2592:2658  userLockedAssets[msg.sender][_vault][_assetID].amount += msg.value */\n      dup3\n      dup3\n      sload\n      tag_287\n      swap2\n      swap1\n      tag_115\n      jump\t// in\n    tag_287:\n      swap3\n      pop\n      pop\n      dup2\n      swap1\n      sstore\n      pop\n        /* \"contracts/Fvkry.sol\":2701:2764  recordTransac(address(0), _vault, msg.value, lock.title, false) */\n      tag_288\n        /* \"contracts/Fvkry.sol\":2723:2724  0 */\n      0x00\n        /* \"contracts/Fvkry.sol\":2727:2733  _vault */\n      dup5\n        /* \"contracts/Fvkry.sol\":2735:2744  msg.value */\n      callvalue\n        /* \"contracts/Fvkry.sol\":2746:2750  lock */\n      dup5\n        /* \"contracts/Fvkry.sol\":2746:2756  lock.title */\n      0x03\n      add\n        /* \"contracts/Fvkry.sol\":2701:2764  recordTransac(address(0), _vault, msg.value, lock.title, false) */\n      dup1\n      sload\n      tag_289\n      swap1\n      tag_165\n      jump\t// in\n    tag_289:\n      dup1\n      0x1f\n      add\n      0x20\n      dup1\n      swap2\n      div\n      mul\n      0x20\n      add\n      mload(0x40)\n      swap1\n      dup2\n      add\n      0x40\n      mstore\n      dup1\n      swap3\n      swap2\n      swap1\n      dup2\n      dup2\n      mstore\n      0x20\n      add\n      dup3\n      dup1\n      sload\n      tag_290\n      swap1\n      tag_165\n      jump\t// in\n    tag_290:\n      dup1\n      iszero\n      tag_291\n      jumpi\n      dup1\n      0x1f\n      lt\n      tag_292\n      jumpi\n      0x0100\n      dup1\n      dup4\n      sload\n      div\n      mul\n      dup4\n      mstore\n      swap2\n      0x20\n      add\n      swap2\n      jump(tag_291)\n    tag_292:\n      dup3\n      add\n      swap2\n      swap1\n      0x00\n      mstore\n      keccak256(0x00, 0x20)\n      swap1\n    tag_293:\n      dup2\n      sload\n      dup2\n      mstore\n      swap1\n      0x01\n      add\n      swap1\n      0x20\n      add\n      dup1\n      dup4\n      gt\n      tag_293\n      jumpi\n      dup3\n      swap1\n      sub\n      0x1f\n      and\n      dup3\n      add\n      swap2\n    tag_291:\n      pop\n      pop\n      pop\n      pop\n      pop\n        /* \"contracts/Fvkry.sol\":2758:2763  false */\n      0x00\n        /* \"contracts/Fvkry.sol\":2701:2714  recordTransac */\n      tag_120\n        /* \"contracts/Fvkry.sol\":2701:2764  recordTransac(address(0), _vault, msg.value, lock.title, false) */\n      jump\t// in\n    tag_288:\n        /* \"contracts/Fvkry.sol\":2801:2802  0 */\n      0x00\n        /* \"contracts/Fvkry.sol\":2782:2852  AssetAdded(address(0), msg.value, lock.title, _vault, block.timestamp) */\n      0xffffffffffffffffffffffffffffffffffffffff\n      and\n      0x0b99ce8321b94ffaa5c5021540ec0668dcba948d044760a5ef298fa0513b1ef4\n        /* \"contracts/Fvkry.sol\":2805:2814  msg.value */\n      callvalue\n        /* \"contracts/Fvkry.sol\":2816:2820  lock */\n      dup4\n        /* \"contracts/Fvkry.sol\":2816:2826  lock.title */\n      0x03\n      add\n        /* \"contracts/Fvkry.sol\":2828:2834  _vault */\n      dup7\n        /* \"contracts/Fvkry.sol\":2836:2851  block.timestamp */\n      timestamp\n        /* \"contracts/Fvkry.sol\":2782:2852  AssetAdded(address(0), msg.value, lock.title, _vault, block.timestamp) */\n      mload(0x40)\n      tag_294\n      swap5\n      swap4\n      swap3\n      swap2\n      swap1\n      tag_171\n      jump\t// in\n    tag_294:\n      mload(0x40)\n      dup1\n      swap2\n      sub\n      swap1\n      log2\n        /* \"contracts/Fvkry.sol\":2367:2860  {... */\n      pop\n        /* \"@openzeppelin/contracts/utils/ReentrancyGuard.sol\":2542:2562  _nonReentrantAfter() */\n      tag_295\n        /* \"@openzeppelin/contracts/utils/ReentrancyGuard.sol\":2542:2560  _nonReentrantAfter */\n      tag_125\n        /* \"@openzeppelin/contracts/utils/ReentrancyGuard.sol\":2542:2562  _nonReentrantAfter() */\n      jump\t// in\n    tag_295:\n        /* \"contracts/Fvkry.sol\":2281:2860  function addToLockedETH(uint8 _vault, uint32 _assetID) external payable  nonReentrant {... */\n      pop\n      pop\n      jump\t// out\n        /* \"@openzeppelin/contracts/access/Ownable.sol\":2543:2758  function transferOwnership(address newOwner) public virtual onlyOwner {... */\n    tag_90:\n        /* \"@openzeppelin/contracts/access/Ownable.sol\":1531:1544  _checkOwner() */\n      tag_297\n        /* \"@openzeppelin/contracts/access/Ownable.sol\":1531:1542  _checkOwner */\n      tag_191\n        /* \"@openzeppelin/contracts/access/Ownable.sol\":1531:1544  _checkOwner() */\n      jump\t// in\n    tag_297:\n        /* \"@openzeppelin/contracts/access/Ownable.sol\":2647:2648  0 */\n      0x00\n        /* \"@openzeppelin/contracts/access/Ownable.sol\":2627:2649  newOwner == address(0) */\n      0xffffffffffffffffffffffffffffffffffffffff\n      and\n        /* \"@openzeppelin/contracts/access/Ownable.sol\":2627:2635  newOwner */\n      dup2\n        /* \"@openzeppelin/contracts/access/Ownable.sol\":2627:2649  newOwner == address(0) */\n      0xffffffffffffffffffffffffffffffffffffffff\n      and\n      sub\n        /* \"@openzeppelin/contracts/access/Ownable.sol\":2623:2714  if (newOwner == address(0)) {... */\n      tag_299\n      jumpi\n        /* \"@openzeppelin/contracts/access/Ownable.sol\":2700:2701  0 */\n      0x00\n        /* \"@openzeppelin/contracts/access/Ownable.sol\":2672:2703  OwnableInvalidOwner(address(0)) */\n      mload(0x40)\n      0x1e4fbdf700000000000000000000000000000000000000000000000000000000\n      dup2\n      mstore\n      0x04\n      add\n      tag_300\n      swap2\n      swap1\n      tag_65\n      jump\t// in\n    tag_300:\n      mload(0x40)\n      dup1\n      swap2\n      sub\n      swap1\n      revert\n        /* \"@openzeppelin/contracts/access/Ownable.sol\":2623:2714  if (newOwner == address(0)) {... */\n    tag_299:\n        /* \"@openzeppelin/contracts/access/Ownable.sol\":2723:2751  _transferOwnership(newOwner) */\n      tag_301\n        /* \"@openzeppelin/contracts/access/Ownable.sol\":2742:2750  newOwner */\n      dup2\n        /* \"@openzeppelin/contracts/access/Ownable.sol\":2723:2741  _transferOwnership */\n      tag_194\n        /* \"@openzeppelin/contracts/access/Ownable.sol\":2723:2751  _transferOwnership(newOwner) */\n      jump\t// in\n    tag_301:\n        /* \"@openzeppelin/contracts/access/Ownable.sol\":2543:2758  function transferOwnership(address newOwner) public virtual onlyOwner {... */\n      pop\n      jump\t// out\n        /* \"@openzeppelin/contracts/utils/ReentrancyGuard.sol\":2575:2882  function _nonReentrantBefore() private {... */\n    tag_93:\n        /* \"@openzeppelin/contracts/utils/ReentrancyGuard.sol\":1899:1900  2 */\n      0x02\n        /* \"@openzeppelin/contracts/utils/ReentrancyGuard.sol\":2702:2709  _status */\n      sload(0x01)\n        /* \"@openzeppelin/contracts/utils/ReentrancyGuard.sol\":2702:2720  _status == ENTERED */\n      sub\n        /* \"@openzeppelin/contracts/utils/ReentrancyGuard.sol\":2698:2784  if (_status == ENTERED) {... */\n      tag_303\n      jumpi\n        /* \"@openzeppelin/contracts/utils/ReentrancyGuard.sol\":2743:2773  ReentrancyGuardReentrantCall() */\n      mload(0x40)\n      0x3ee5aeb500000000000000000000000000000000000000000000000000000000\n      dup2\n      mstore\n      0x04\n      add\n      mload(0x40)\n      dup1\n      swap2\n      sub\n      swap1\n      revert\n        /* \"@openzeppelin/contracts/utils/ReentrancyGuard.sol\":2698:2784  if (_status == ENTERED) {... */\n    tag_303:\n        /* \"@openzeppelin/contracts/utils/ReentrancyGuard.sol\":1899:1900  2 */\n      0x02\n        /* \"@openzeppelin/contracts/utils/ReentrancyGuard.sol\":2858:2865  _status */\n      0x01\n        /* \"@openzeppelin/contracts/utils/ReentrancyGuard.sol\":2858:2875  _status = ENTERED */\n      dup2\n      swap1\n      sstore\n      pop\n        /* \"@openzeppelin/contracts/utils/ReentrancyGuard.sol\":2575:2882  function _nonReentrantBefore() private {... */\n      jump\t// out\n        /* \"@openzeppelin/contracts/token/ERC20/utils/SafeERC20.sol\":1618:1806  function safeTransferFrom(IERC20 token, address from, address to, uint256 value) internal {... */\n    tag_113:\n        /* \"@openzeppelin/contracts/token/ERC20/utils/SafeERC20.sol\":1718:1799  _callOptionalReturn(token, abi.encodeCall(token.transferFrom, (from, to, value))) */\n      tag_305\n        /* \"@openzeppelin/contracts/token/ERC20/utils/SafeERC20.sol\":1738:1743  token */\n      dup5\n        /* \"@openzeppelin/contracts/token/ERC20/utils/SafeERC20.sol\":1760:1765  token */\n      dup6\n        /* \"@openzeppelin/contracts/token/ERC20/utils/SafeERC20.sol\":1760:1778  token.transferFrom */\n      0xffffffffffffffffffffffffffffffffffffffff\n      and\n      0x23b872dd\n        /* \"@openzeppelin/contracts/token/ERC20/utils/SafeERC20.sol\":1781:1785  from */\n      dup7\n        /* \"@openzeppelin/contracts/token/ERC20/utils/SafeERC20.sol\":1787:1789  to */\n      dup7\n        /* \"@openzeppelin/contracts/token/ERC20/utils/SafeERC20.sol\":1791:1796  value */\n      dup7\n        /* \"@openzeppelin/contracts/token/ERC20/utils/SafeERC20.sol\":1745:1798  abi.encodeCall(token.transferFrom, (from, to, value)) */\n      add(0x24, mload(0x40))\n      tag_306\n      swap4\n      swap3\n      swap2\n      swap1\n      tag_307\n      jump\t// in\n    tag_306:\n      mload(0x40)\n      0x20\n      dup2\n      dup4\n      sub\n      sub\n      dup2\n      mstore\n      swap1\n      0x40\n      mstore\n      swap2\n      pop\n      0xe0\n      shl\n      0x20\n      dup3\n      add\n      dup1\n      mload\n      0xffffffffffffffffffffffffffffffffffffffffffffffffffffffff\n      dup4\n      dup2\n      dup4\n      and\n      or\n      dup4\n      mstore\n      pop\n      pop\n      pop\n      pop\n        /* \"@openzeppelin/contracts/token/ERC20/utils/SafeERC20.sol\":1718:1737  _callOptionalReturn */\n      tag_308\n        /* \"@openzeppelin/contracts/token/ERC20/utils/SafeERC20.sol\":1718:1799  _callOptionalReturn(token, abi.encodeCall(token.transferFrom, (from, to, value))) */\n      jump\t// in\n    tag_305:\n        /* \"@openzeppelin/contracts/token/ERC20/utils/SafeERC20.sol\":1618:1806  function safeTransferFrom(IERC20 token, address from, address to, uint256 value) internal {... */\n      pop\n      pop\n      pop\n      pop\n      jump\t// out\n        /* \"contracts/Fvkry.sol\":6564:6951  function recordTransac(address _token, uint8 _vault, uint256 _amount, string memory _title, bool _withdraw) internal {... */\n    tag_120:\n        /* \"contracts/Fvkry.sol\":6692:6708  userTransactions */\n      0x03\n        /* \"contracts/Fvkry.sol\":6692:6720  userTransactions[msg.sender] */\n      0x00\n        /* \"contracts/Fvkry.sol\":6709:6719  msg.sender */\n      caller\n        /* \"contracts/Fvkry.sol\":6692:6720  userTransactions[msg.sender] */\n      0xffffffffffffffffffffffffffffffffffffffff\n      and\n      0xffffffffffffffffffffffffffffffffffffffff\n      and\n      dup2\n      mstore\n      0x20\n      add\n      swap1\n      dup2\n      mstore\n      0x20\n      add\n      0x00\n      keccak256\n        /* \"contracts/Fvkry.sol\":6692:6728  userTransactions[msg.sender][_vault] */\n      0x00\n        /* \"contracts/Fvkry.sol\":6721:6727  _vault */\n      dup6\n        /* \"contracts/Fvkry.sol\":6692:6728  userTransactions[msg.sender][_vault] */\n      0xff\n      and\n      0xff\n      and\n      dup2\n      mstore\n      0x20\n      add\n      swap1\n      dup2\n      mstore\n      0x20\n      add\n      0x00\n      keccak256\n        /* \"contracts/Fvkry.sol\":6734:6942  TransacHist({ ... */\n      mload(0x40)\n      dup1\n      0xa0\n      add\n      0x40\n      mstore\n      dup1\n        /* \"contracts/Fvkry.sol\":6769:6775  _token */\n      dup8\n        /* \"contracts/Fvkry.sol\":6734:6942  TransacHist({ ... */\n      0xffffffffffffffffffffffffffffffffffffffff\n      and\n      dup2\n      mstore\n      0x20\n      add\n        /* \"contracts/Fvkry.sol\":6803:6810  _amount */\n      dup6\n        /* \"contracts/Fvkry.sol\":6734:6942  TransacHist({ ... */\n      dup2\n      mstore\n      0x20\n      add\n        /* \"contracts/Fvkry.sol\":6834:6840  _title */\n      dup5\n        /* \"contracts/Fvkry.sol\":6734:6942  TransacHist({ ... */\n      dup2\n      mstore\n      0x20\n      add\n        /* \"contracts/Fvkry.sol\":6870:6879  _withdraw */\n      dup4\n        /* \"contracts/Fvkry.sol\":6734:6942  TransacHist({ ... */\n      iszero\n      iszero\n      dup2\n      mstore\n      0x20\n      add\n        /* \"contracts/Fvkry.sol\":6908:6923  block.timestamp */\n      timestamp\n        /* \"contracts/Fvkry.sol\":6734:6942  TransacHist({ ... */\n      dup2\n      mstore\n      pop\n        /* \"contracts/Fvkry.sol\":6692:6943  userTransactions[msg.sender][_vault].push(TransacHist({ ... */\n      swap1\n      dup1\n      0x01\n      dup2\n      sload\n      add\n      dup1\n      dup3\n      sstore\n      dup1\n      swap2\n      pop\n      pop\n      0x01\n      swap1\n      sub\n      swap1\n      0x00\n      mstore\n      keccak256(0x00, 0x20)\n      swap1\n      0x05\n      mul\n      add\n      0x00\n      swap1\n      swap2\n      swap1\n      swap2\n      swap1\n      swap2\n      pop\n      0x00\n      dup3\n      add\n      mload\n      dup2\n      0x00\n      add\n      exp(0x0100, 0x00)\n      dup2\n      sload\n      dup2\n      0xffffffffffffffffffffffffffffffffffffffff\n      mul\n      not\n      and\n      swap1\n      dup4\n      0xffffffffffffffffffffffffffffffffffffffff\n      and\n      mul\n      or\n      swap1\n      sstore\n      pop\n      0x20\n      dup3\n      add\n      mload\n      dup2\n      0x01\n      add\n      sstore\n      0x40\n      dup3\n      add\n      mload\n      dup2\n      0x02\n      add\n      swap1\n      dup2\n      tag_311\n      swap2\n      swap1\n      tag_118\n      jump\t// in\n    tag_311:\n      pop\n      0x60\n      dup3\n      add\n      mload\n      dup2\n      0x03\n      add\n      exp(0x0100, 0x00)\n      dup2\n      sload\n      dup2\n      0xff\n      mul\n      not\n      and\n      swap1\n      dup4\n      iszero\n      iszero\n      mul\n      or\n      swap1\n      sstore\n      pop\n      0x80\n      dup3\n      add\n      mload\n      dup2\n      0x04\n      add\n      sstore\n      pop\n      pop\n        /* \"contracts/Fvkry.sol\":6564:6951  function recordTransac(address _token, uint8 _vault, uint256 _amount, string memory _title, bool _withdraw) internal {... */\n      pop\n      pop\n      pop\n      pop\n      pop\n      jump\t// out\n        /* \"@openzeppelin/contracts/utils/ReentrancyGuard.sol\":2888:3096  function _nonReentrantAfter() private {... */\n    tag_125:\n        /* \"@openzeppelin/contracts/utils/ReentrancyGuard.sol\":1857:1858  1 */\n      0x01\n        /* \"@openzeppelin/contracts/utils/ReentrancyGuard.sol\":3068:3075  _status */\n      dup1\n        /* \"@openzeppelin/contracts/utils/ReentrancyGuard.sol\":3068:3089  _status = NOT_ENTERED */\n      dup2\n      swap1\n      sstore\n      pop\n        /* \"@openzeppelin/contracts/utils/ReentrancyGuard.sol\":2888:3096  function _nonReentrantAfter() private {... */\n      jump\t// out\n        /* \"@openzeppelin/contracts/access/Ownable.sol\":1796:1958  function _checkOwner() internal view virtual {... */\n    tag_191:\n        /* \"@openzeppelin/contracts/access/Ownable.sol\":1866:1878  _msgSender() */\n      tag_314\n        /* \"@openzeppelin/contracts/access/Ownable.sol\":1866:1876  _msgSender */\n      tag_315\n        /* \"@openzeppelin/contracts/access/Ownable.sol\":1866:1878  _msgSender() */\n      jump\t// in\n    tag_314:\n        /* \"@openzeppelin/contracts/access/Ownable.sol\":1855:1878  owner() != _msgSender() */\n      0xffffffffffffffffffffffffffffffffffffffff\n      and\n        /* \"@openzeppelin/contracts/access/Ownable.sol\":1855:1862  owner() */\n      tag_316\n        /* \"@openzeppelin/contracts/access/Ownable.sol\":1855:1860  owner */\n      tag_63\n        /* \"@openzeppelin/contracts/access/Ownable.sol\":1855:1862  owner() */\n      jump\t// in\n    tag_316:\n        /* \"@openzeppelin/contracts/access/Ownable.sol\":1855:1878  owner() != _msgSender() */\n      0xffffffffffffffffffffffffffffffffffffffff\n      and\n      eq\n        /* \"@openzeppelin/contracts/access/Ownable.sol\":1851:1952  if (owner() != _msgSender()) {... */\n      tag_317\n      jumpi\n        /* \"@openzeppelin/contracts/access/Ownable.sol\":1928:1940  _msgSender() */\n      tag_318\n        /* \"@openzeppelin/contracts/access/Ownable.sol\":1928:1938  _msgSender */\n      tag_315\n        /* \"@openzeppelin/contracts/access/Ownable.sol\":1928:1940  _msgSender() */\n      jump\t// in\n    tag_318:\n        /* \"@openzeppelin/contracts/access/Ownable.sol\":1901:1941  OwnableUnauthorizedAccount(_msgSender()) */\n      mload(0x40)\n      0x118cdaa700000000000000000000000000000000000000000000000000000000\n      dup2\n      mstore\n      0x04\n      add\n      tag_319\n      swap2\n      swap1\n      tag_65\n      jump\t// in\n    tag_319:\n      mload(0x40)\n      dup1\n      swap2\n      sub\n      swap1\n      revert\n        /* \"@openzeppelin/contracts/access/Ownable.sol\":1851:1952  if (owner() != _msgSender()) {... */\n    tag_317:\n        /* \"@openzeppelin/contracts/access/Ownable.sol\":1796:1958  function _checkOwner() internal view virtual {... */\n      jump\t// out\n        /* \"@openzeppelin/contracts/access/Ownable.sol\":2912:3099  function _transferOwnership(address newOwner) internal virtual {... */\n    tag_194:\n        /* \"@openzeppelin/contracts/access/Ownable.sol\":2985:3001  address oldOwner */\n      0x00\n        /* \"@openzeppelin/contracts/access/Ownable.sol\":3004:3010  _owner */\n      dup1\n      0x00\n      swap1\n      sload\n      swap1\n      0x0100\n      exp\n      swap1\n      div\n      0xffffffffffffffffffffffffffffffffffffffff\n      and\n        /* \"@openzeppelin/contracts/access/Ownable.sol\":2985:3010  address oldOwner = _owner */\n      swap1\n      pop\n        /* \"@openzeppelin/contracts/access/Ownable.sol\":3029:3037  newOwner */\n      dup2\n        /* \"@openzeppelin/contracts/access/Ownable.sol\":3020:3026  _owner */\n      0x00\n      dup1\n        /* \"@openzeppelin/contracts/access/Ownable.sol\":3020:3037  _owner = newOwner */\n      0x0100\n      exp\n      dup2\n      sload\n      dup2\n      0xffffffffffffffffffffffffffffffffffffffff\n      mul\n      not\n      and\n      swap1\n      dup4\n      0xffffffffffffffffffffffffffffffffffffffff\n      and\n      mul\n      or\n      swap1\n      sstore\n      pop\n        /* \"@openzeppelin/contracts/access/Ownable.sol\":3083:3091  newOwner */\n      dup2\n        /* \"@openzeppelin/contracts/access/Ownable.sol\":3052:3092  OwnershipTransferred(oldOwner, newOwner) */\n      0xffffffffffffffffffffffffffffffffffffffff\n      and\n        /* \"@openzeppelin/contracts/access/Ownable.sol\":3073:3081  oldOwner */\n      dup2\n        /* \"@openzeppelin/contracts/access/Ownable.sol\":3052:3092  OwnershipTransferred(oldOwner, newOwner) */\n      0xffffffffffffffffffffffffffffffffffffffff\n      and\n      0x8be0079c531659141344cd1fd0a4f28419497f9722a3daafe3b4186f6b6457e0\n      mload(0x40)\n      mload(0x40)\n      dup1\n      swap2\n      sub\n      swap1\n      log3\n        /* \"@openzeppelin/contracts/access/Ownable.sol\":2975:3099  {... */\n      pop\n        /* \"@openzeppelin/contracts/access/Ownable.sol\":2912:3099  function _transferOwnership(address newOwner) internal virtual {... */\n      pop\n      jump\t// out\n        /* \"@openzeppelin/contracts/token/ERC20/utils/SafeERC20.sol\":1219:1379  function safeTransfer(IERC20 token, address to, uint256 value) internal {... */\n    tag_266:\n        /* \"@openzeppelin/contracts/token/ERC20/utils/SafeERC20.sol\":1301:1372  _callOptionalReturn(token, abi.encodeCall(token.transfer, (to, value))) */\n      tag_322\n        /* \"@openzeppelin/contracts/token/ERC20/utils/SafeERC20.sol\":1321:1326  token */\n      dup4\n        /* \"@openzeppelin/contracts/token/ERC20/utils/SafeERC20.sol\":1343:1348  token */\n      dup5\n        /* \"@openzeppelin/contracts/token/ERC20/utils/SafeERC20.sol\":1343:1357  token.transfer */\n      0xffffffffffffffffffffffffffffffffffffffff\n      and\n      0xa9059cbb\n        /* \"@openzeppelin/contracts/token/ERC20/utils/SafeERC20.sol\":1360:1362  to */\n      dup6\n        /* \"@openzeppelin/contracts/token/ERC20/utils/SafeERC20.sol\":1364:1369  value */\n      dup6\n        /* \"@openzeppelin/contracts/token/ERC20/utils/SafeERC20.sol\":1328:1371  abi.encodeCall(token.transfer, (to, value)) */\n      add(0x24, mload(0x40))\n      tag_323\n      swap3\n      swap2\n      swap1\n      tag_324\n      jump\t// in\n    tag_323:\n      mload(0x40)\n      0x20\n      dup2\n      dup4\n      sub\n      sub\n      dup2\n      mstore\n      swap1\n      0x40\n      mstore\n      swap2\n      pop\n      0xe0\n      shl\n      0x20\n      dup3\n      add\n      dup1\n      mload\n      0xffffffffffffffffffffffffffffffffffffffffffffffffffffffff\n      dup4\n      dup2\n      dup4\n      and\n      or\n      dup4\n      mstore\n      pop\n      pop\n      pop\n      pop\n        /* \"@openzeppelin/contracts/token/ERC20/utils/SafeERC20.sol\":1301:1320  _callOptionalReturn */\n      tag_308\n        /* \"@openzeppelin/contracts/token/ERC20/utils/SafeERC20.sol\":1301:1372  _callOptionalReturn(token, abi.encodeCall(token.transfer, (to, value))) */\n      jump\t// in\n    tag_322:\n        /* \"@openzeppelin/contracts/token/ERC20/utils/SafeERC20.sol\":1219:1379  function safeTransfer(IERC20 token, address to, uint256 value) internal {... */\n      pop\n      pop\n      pop\n      jump\t// out\n        /* \"@openzeppelin/contracts/token/ERC20/utils/SafeERC20.sol\":7686:8406  function _callOptionalReturn(IERC20 token, bytes memory data) private {... */\n    tag_308:\n        /* \"@openzeppelin/contracts/token/ERC20/utils/SafeERC20.sol\":7766:7784  uint256 returnSize */\n      0x00\n        /* \"@openzeppelin/contracts/token/ERC20/utils/SafeERC20.sol\":7794:7813  uint256 returnValue */\n      dup1\n        /* \"@openzeppelin/contracts/token/ERC20/utils/SafeERC20.sol\":7932:7936  0x20 */\n      0x20\n        /* \"@openzeppelin/contracts/token/ERC20/utils/SafeERC20.sol\":7929:7930  0 */\n      0x00\n        /* \"@openzeppelin/contracts/token/ERC20/utils/SafeERC20.sol\":7922:7926  data */\n      dup5\n        /* \"@openzeppelin/contracts/token/ERC20/utils/SafeERC20.sol\":7916:7927  mload(data) */\n      mload\n        /* \"@openzeppelin/contracts/token/ERC20/utils/SafeERC20.sol\":7909:7913  0x20 */\n      0x20\n        /* \"@openzeppelin/contracts/token/ERC20/utils/SafeERC20.sol\":7903:7907  data */\n      dup7\n        /* \"@openzeppelin/contracts/token/ERC20/utils/SafeERC20.sol\":7899:7914  add(data, 0x20) */\n      add\n        /* \"@openzeppelin/contracts/token/ERC20/utils/SafeERC20.sol\":7896:7897  0 */\n      0x00\n        /* \"@openzeppelin/contracts/token/ERC20/utils/SafeERC20.sol\":7889:7894  token */\n      dup9\n        /* \"@openzeppelin/contracts/token/ERC20/utils/SafeERC20.sol\":7882:7887  gas() */\n      gas\n        /* \"@openzeppelin/contracts/token/ERC20/utils/SafeERC20.sol\":7877:7937  call(gas(), token, 0, add(data, 0x20), mload(data), 0, 0x20) */\n      call\n        /* \"@openzeppelin/contracts/token/ERC20/utils/SafeERC20.sol\":7989:7996  success */\n      dup1\n        /* \"@openzeppelin/contracts/token/ERC20/utils/SafeERC20.sol\":7979:8155  if iszero(success) {... */\n      tag_326\n      jumpi\n        /* \"@openzeppelin/contracts/token/ERC20/utils/SafeERC20.sol\":8033:8037  0x40 */\n      0x40\n        /* \"@openzeppelin/contracts/token/ERC20/utils/SafeERC20.sol\":8027:8038  mload(0x40) */\n      mload\n        /* \"@openzeppelin/contracts/token/ERC20/utils/SafeERC20.sol\":8078:8094  returndatasize() */\n      returndatasize\n        /* \"@openzeppelin/contracts/token/ERC20/utils/SafeERC20.sol\":8075:8076  0 */\n      0x00\n        /* \"@openzeppelin/contracts/token/ERC20/utils/SafeERC20.sol\":8070:8073  ptr */\n      dup3\n        /* \"@openzeppelin/contracts/token/ERC20/utils/SafeERC20.sol\":8055:8095  returndatacopy(ptr, 0, returndatasize()) */\n      returndatacopy\n        /* \"@openzeppelin/contracts/token/ERC20/utils/SafeERC20.sol\":8124:8140  returndatasize() */\n      returndatasize\n        /* \"@openzeppelin/contracts/token/ERC20/utils/SafeERC20.sol\":8119:8122  ptr */\n      dup2\n        /* \"@openzeppelin/contracts/token/ERC20/utils/SafeERC20.sol\":8112:8141  revert(ptr, returndatasize()) */\n      revert\n        /* \"@openzeppelin/contracts/token/ERC20/utils/SafeERC20.sol\":7979:8155  if iszero(success) {... */\n    tag_326:\n        /* \"@openzeppelin/contracts/token/ERC20/utils/SafeERC20.sol\":8182:8198  returndatasize() */\n      returndatasize\n        /* \"@openzeppelin/contracts/token/ERC20/utils/SafeERC20.sol\":8168:8198  returnSize := returndatasize() */\n      swap3\n      pop\n        /* \"@openzeppelin/contracts/token/ERC20/utils/SafeERC20.sol\":8232:8233  0 */\n      0x00\n        /* \"@openzeppelin/contracts/token/ERC20/utils/SafeERC20.sol\":8226:8234  mload(0) */\n      mload\n        /* \"@openzeppelin/contracts/token/ERC20/utils/SafeERC20.sol\":8211:8234  returnValue := mload(0) */\n      swap2\n      pop\n        /* \"@openzeppelin/contracts/token/ERC20/utils/SafeERC20.sol\":7848:8244  {... */\n      pop\n        /* \"@openzeppelin/contracts/token/ERC20/utils/SafeERC20.sol\":8272:8273  0 */\n      0x00\n        /* \"@openzeppelin/contracts/token/ERC20/utils/SafeERC20.sol\":8258:8268  returnSize */\n      dup3\n        /* \"@openzeppelin/contracts/token/ERC20/utils/SafeERC20.sol\":8258:8273  returnSize == 0 */\n      eq\n        /* \"@openzeppelin/contracts/token/ERC20/utils/SafeERC20.sol\":8258:8326  returnSize == 0 ? address(token).code.length == 0 : returnValue != 1 */\n      tag_327\n      jumpi\n        /* \"@openzeppelin/contracts/token/ERC20/utils/SafeERC20.sol\":8325:8326  1 */\n      0x01\n        /* \"@openzeppelin/contracts/token/ERC20/utils/SafeERC20.sol\":8310:8321  returnValue */\n      dup2\n        /* \"@openzeppelin/contracts/token/ERC20/utils/SafeERC20.sol\":8310:8326  returnValue != 1 */\n      eq\n      iszero\n        /* \"@openzeppelin/contracts/token/ERC20/utils/SafeERC20.sol\":8258:8326  returnSize == 0 ? address(token).code.length == 0 : returnValue != 1 */\n      jump(tag_328)\n    tag_327:\n        /* \"@openzeppelin/contracts/token/ERC20/utils/SafeERC20.sol\":8306:8307  0 */\n      0x00\n        /* \"@openzeppelin/contracts/token/ERC20/utils/SafeERC20.sol\":8284:8289  token */\n      dup5\n        /* \"@openzeppelin/contracts/token/ERC20/utils/SafeERC20.sol\":8276:8302  address(token).code.length */\n      0xffffffffffffffffffffffffffffffffffffffff\n      and\n      extcodesize\n        /* \"@openzeppelin/contracts/token/ERC20/utils/SafeERC20.sol\":8276:8307  address(token).code.length == 0 */\n      eq\n        /* \"@openzeppelin/contracts/token/ERC20/utils/SafeERC20.sol\":8258:8326  returnSize == 0 ? address(token).code.length == 0 : returnValue != 1 */\n    tag_328:\n        /* \"@openzeppelin/contracts/token/ERC20/utils/SafeERC20.sol\":8254:8400  if (returnSize == 0 ? address(token).code.length == 0 : returnValue != 1) {... */\n      iszero\n      tag_329\n      jumpi\n        /* \"@openzeppelin/contracts/token/ERC20/utils/SafeERC20.sol\":8382:8387  token */\n      dup4\n        /* \"@openzeppelin/contracts/token/ERC20/utils/SafeERC20.sol\":8349:8389  SafeERC20FailedOperation(address(token)) */\n      mload(0x40)\n      0x5274afe700000000000000000000000000000000000000000000000000000000\n      dup2\n      mstore\n      0x04\n      add\n      tag_330\n      swap2\n      swap1\n      tag_65\n      jump\t// in\n    tag_330:\n      mload(0x40)\n      dup1\n      swap2\n      sub\n      swap1\n      revert\n        /* \"@openzeppelin/contracts/token/ERC20/utils/SafeERC20.sol\":8254:8400  if (returnSize == 0 ? address(token).code.length == 0 : returnValue != 1) {... */\n    tag_329:\n        /* \"@openzeppelin/contracts/token/ERC20/utils/SafeERC20.sol\":7756:8406  {... */\n      pop\n      pop\n        /* \"@openzeppelin/contracts/token/ERC20/utils/SafeERC20.sol\":7686:8406  function _callOptionalReturn(IERC20 token, bytes memory data) private {... */\n      pop\n      pop\n      jump\t// out\n        /* \"@openzeppelin/contracts/utils/Context.sol\":656:752  function _msgSender() internal view virtual returns (address) {... */\n    tag_315:\n        /* \"@openzeppelin/contracts/utils/Context.sol\":709:716  address */\n      0x00\n        /* \"@openzeppelin/contracts/utils/Context.sol\":735:745  msg.sender */\n      caller\n        /* \"@openzeppelin/contracts/utils/Context.sol\":728:745  return msg.sender */\n      swap1\n      pop\n        /* \"@openzeppelin/contracts/utils/Context.sol\":656:752  function _msgSender() internal view virtual returns (address) {... */\n      swap1\n      jump\t// out\n        /* \"#utility.yul\":7:82   */\n    tag_332:\n        /* \"#utility.yul\":40:46   */\n      0x00\n        /* \"#utility.yul\":73:75   */\n      0x40\n        /* \"#utility.yul\":67:76   */\n      mload\n        /* \"#utility.yul\":57:76   */\n      swap1\n      pop\n        /* \"#utility.yul\":7:82   */\n      swap1\n      jump\t// out\n        /* \"#utility.yul\":88:205   */\n    tag_333:\n        /* \"#utility.yul\":197:198   */\n      0x00\n        /* \"#utility.yul\":194:195   */\n      dup1\n        /* \"#utility.yul\":187:199   */\n      revert\n        /* \"#utility.yul\":211:328   */\n    tag_334:\n        /* \"#utility.yul\":320:321   */\n      0x00\n        /* \"#utility.yul\":317:318   */\n      dup1\n        /* \"#utility.yul\":310:322   */\n      revert\n        /* \"#utility.yul\":334:460   */\n    tag_335:\n        /* \"#utility.yul\":371:378   */\n      0x00\n        /* \"#utility.yul\":411:453   */\n      0xffffffffffffffffffffffffffffffffffffffff\n        /* \"#utility.yul\":404:409   */\n      dup3\n        /* \"#utility.yul\":400:454   */\n      and\n        /* \"#utility.yul\":389:454   */\n      swap1\n      pop\n        /* \"#utility.yul\":334:460   */\n      swap2\n      swap1\n      pop\n      jump\t// out\n        /* \"#utility.yul\":466:562   */\n    tag_336:\n        /* \"#utility.yul\":503:510   */\n      0x00\n        /* \"#utility.yul\":532:556   */\n      tag_438\n        /* \"#utility.yul\":550:555   */\n      dup3\n        /* \"#utility.yul\":532:556   */\n      tag_335\n      jump\t// in\n    tag_438:\n        /* \"#utility.yul\":521:556   */\n      swap1\n      pop\n        /* \"#utility.yul\":466:562   */\n      swap2\n      swap1\n      pop\n      jump\t// out\n        /* \"#utility.yul\":568:678   */\n    tag_337:\n        /* \"#utility.yul\":619:626   */\n      0x00\n        /* \"#utility.yul\":648:672   */\n      tag_440\n        /* \"#utility.yul\":666:671   */\n      dup3\n        /* \"#utility.yul\":648:672   */\n      tag_336\n      jump\t// in\n    tag_440:\n        /* \"#utility.yul\":637:672   */\n      swap1\n      pop\n        /* \"#utility.yul\":568:678   */\n      swap2\n      swap1\n      pop\n      jump\t// out\n        /* \"#utility.yul\":684:834   */\n    tag_338:\n        /* \"#utility.yul\":771:809   */\n      tag_442\n        /* \"#utility.yul\":803:808   */\n      dup2\n        /* \"#utility.yul\":771:809   */\n      tag_337\n      jump\t// in\n    tag_442:\n        /* \"#utility.yul\":764:769   */\n      dup2\n        /* \"#utility.yul\":761:810   */\n      eq\n        /* \"#utility.yul\":751:828   */\n      tag_443\n      jumpi\n        /* \"#utility.yul\":824:825   */\n      0x00\n        /* \"#utility.yul\":821:822   */\n      dup1\n        /* \"#utility.yul\":814:826   */\n      revert\n        /* \"#utility.yul\":751:828   */\n    tag_443:\n        /* \"#utility.yul\":684:834   */\n      pop\n      jump\t// out\n        /* \"#utility.yul\":840:1007   */\n    tag_339:\n        /* \"#utility.yul\":900:905   */\n      0x00\n        /* \"#utility.yul\":938:944   */\n      dup2\n        /* \"#utility.yul\":925:945   */\n      calldataload\n        /* \"#utility.yul\":916:945   */\n      swap1\n      pop\n        /* \"#utility.yul\":954:1001   */\n      tag_445\n        /* \"#utility.yul\":995:1000   */\n      dup2\n        /* \"#utility.yul\":954:1001   */\n      tag_338\n      jump\t// in\n    tag_445:\n        /* \"#utility.yul\":840:1007   */\n      swap3\n      swap2\n      pop\n      pop\n      jump\t// out\n        /* \"#utility.yul\":1013:1090   */\n    tag_340:\n        /* \"#utility.yul\":1050:1057   */\n      0x00\n        /* \"#utility.yul\":1079:1084   */\n      dup2\n        /* \"#utility.yul\":1068:1084   */\n      swap1\n      pop\n        /* \"#utility.yul\":1013:1090   */\n      swap2\n      swap1\n      pop\n      jump\t// out\n        /* \"#utility.yul\":1096:1218   */\n    tag_341:\n        /* \"#utility.yul\":1169:1193   */\n      tag_448\n        /* \"#utility.yul\":1187:1192   */\n      dup2\n        /* \"#utility.yul\":1169:1193   */\n      tag_340\n      jump\t// in\n    tag_448:\n        /* \"#utility.yul\":1162:1167   */\n      dup2\n        /* \"#utility.yul\":1159:1194   */\n      eq\n        /* \"#utility.yul\":1149:1212   */\n      tag_449\n      jumpi\n        /* \"#utility.yul\":1208:1209   */\n      0x00\n        /* \"#utility.yul\":1205:1206   */\n      dup1\n        /* \"#utility.yul\":1198:1210   */\n      revert\n        /* \"#utility.yul\":1149:1212   */\n    tag_449:\n        /* \"#utility.yul\":1096:1218   */\n      pop\n      jump\t// out\n        /* \"#utility.yul\":1224:1363   */\n    tag_342:\n        /* \"#utility.yul\":1270:1275   */\n      0x00\n        /* \"#utility.yul\":1308:1314   */\n      dup2\n        /* \"#utility.yul\":1295:1315   */\n      calldataload\n        /* \"#utility.yul\":1286:1315   */\n      swap1\n      pop\n        /* \"#utility.yul\":1324:1357   */\n      tag_451\n        /* \"#utility.yul\":1351:1356   */\n      dup2\n        /* \"#utility.yul\":1324:1357   */\n      tag_341\n      jump\t// in\n    tag_451:\n        /* \"#utility.yul\":1224:1363   */\n      swap3\n      swap2\n      pop\n      pop\n      jump\t// out\n        /* \"#utility.yul\":1369:1455   */\n    tag_343:\n        /* \"#utility.yul\":1404:1411   */\n      0x00\n        /* \"#utility.yul\":1444:1448   */\n      0xff\n        /* \"#utility.yul\":1437:1442   */\n      dup3\n        /* \"#utility.yul\":1433:1449   */\n      and\n        /* \"#utility.yul\":1422:1449   */\n      swap1\n      pop\n        /* \"#utility.yul\":1369:1455   */\n      swap2\n      swap1\n      pop\n      jump\t// out\n        /* \"#utility.yul\":1461:1579   */\n    tag_344:\n        /* \"#utility.yul\":1532:1554   */\n      tag_454\n        /* \"#utility.yul\":1548:1553   */\n      dup2\n        /* \"#utility.yul\":1532:1554   */\n      tag_343\n      jump\t// in\n    tag_454:\n        /* \"#utility.yul\":1525:1530   */\n      dup2\n        /* \"#utility.yul\":1522:1555   */\n      eq\n        /* \"#utility.yul\":1512:1573   */\n      tag_455\n      jumpi\n        /* \"#utility.yul\":1569:1570   */\n      0x00\n        /* \"#utility.yul\":1566:1567   */\n      dup1\n        /* \"#utility.yul\":1559:1571   */\n      revert\n        /* \"#utility.yul\":1512:1573   */\n    tag_455:\n        /* \"#utility.yul\":1461:1579   */\n      pop\n      jump\t// out\n        /* \"#utility.yul\":1585:1720   */\n    tag_345:\n        /* \"#utility.yul\":1629:1634   */\n      0x00\n        /* \"#utility.yul\":1667:1673   */\n      dup2\n        /* \"#utility.yul\":1654:1674   */\n      calldataload\n        /* \"#utility.yul\":1645:1674   */\n      swap1\n      pop\n        /* \"#utility.yul\":1683:1714   */\n      tag_457\n        /* \"#utility.yul\":1708:1713   */\n      dup2\n        /* \"#utility.yul\":1683:1714   */\n      tag_344\n      jump\t// in\n    tag_457:\n        /* \"#utility.yul\":1585:1720   */\n      swap3\n      swap2\n      pop\n      pop\n      jump\t// out\n        /* \"#utility.yul\":1726:1843   */\n    tag_346:\n        /* \"#utility.yul\":1835:1836   */\n      0x00\n        /* \"#utility.yul\":1832:1833   */\n      dup1\n        /* \"#utility.yul\":1825:1837   */\n      revert\n        /* \"#utility.yul\":1849:1966   */\n    tag_347:\n        /* \"#utility.yul\":1958:1959   */\n      0x00\n        /* \"#utility.yul\":1955:1956   */\n      dup1\n        /* \"#utility.yul\":1948:1960   */\n      revert\n        /* \"#utility.yul\":1972:2074   */\n    tag_348:\n        /* \"#utility.yul\":2013:2019   */\n      0x00\n        /* \"#utility.yul\":2064:2066   */\n      0x1f\n        /* \"#utility.yul\":2060:2067   */\n      not\n        /* \"#utility.yul\":2055:2057   */\n      0x1f\n        /* \"#utility.yul\":2048:2053   */\n      dup4\n        /* \"#utility.yul\":2044:2058   */\n      add\n        /* \"#utility.yul\":2040:2068   */\n      and\n        /* \"#utility.yul\":2030:2068   */\n      swap1\n      pop\n        /* \"#utility.yul\":1972:2074   */\n      swap2\n      swap1\n      pop\n      jump\t// out\n        /* \"#utility.yul\":2080:2260   */\n    tag_349:\n        /* \"#utility.yul\":2128:2205   */\n      0x4e487b7100000000000000000000000000000000000000000000000000000000\n        /* \"#utility.yul\":2125:2126   */\n      0x00\n        /* \"#utility.yul\":2118:2206   */\n      mstore\n        /* \"#utility.yul\":2225:2229   */\n      0x41\n        /* \"#utility.yul\":2222:2223   */\n      0x04\n        /* \"#utility.yul\":2215:2230   */\n      mstore\n        /* \"#utility.yul\":2249:2253   */\n      0x24\n        /* \"#utility.yul\":2246:2247   */\n      0x00\n        /* \"#utility.yul\":2239:2254   */\n      revert\n        /* \"#utility.yul\":2266:2547   */\n    tag_350:\n        /* \"#utility.yul\":2349:2376   */\n      tag_463\n        /* \"#utility.yul\":2371:2375   */\n      dup3\n        /* \"#utility.yul\":2349:2376   */\n      tag_348\n      jump\t// in\n    tag_463:\n        /* \"#utility.yul\":2341:2347   */\n      dup2\n        /* \"#utility.yul\":2337:2377   */\n      add\n        /* \"#utility.yul\":2479:2485   */\n      dup2\n        /* \"#utility.yul\":2467:2477   */\n      dup2\n        /* \"#utility.yul\":2464:2486   */\n      lt\n        /* \"#utility.yul\":2443:2461   */\n      0xffffffffffffffff\n        /* \"#utility.yul\":2431:2441   */\n      dup3\n        /* \"#utility.yul\":2428:2462   */\n      gt\n        /* \"#utility.yul\":2425:2487   */\n      or\n        /* \"#utility.yul\":2422:2510   */\n      iszero\n      tag_464\n      jumpi\n        /* \"#utility.yul\":2490:2508   */\n      tag_465\n      tag_349\n      jump\t// in\n    tag_465:\n        /* \"#utility.yul\":2422:2510   */\n    tag_464:\n        /* \"#utility.yul\":2530:2540   */\n      dup1\n        /* \"#utility.yul\":2526:2528   */\n      0x40\n        /* \"#utility.yul\":2519:2541   */\n      mstore\n        /* \"#utility.yul\":2309:2547   */\n      pop\n        /* \"#utility.yul\":2266:2547   */\n      pop\n      pop\n      jump\t// out\n        /* \"#utility.yul\":2553:2682   */\n    tag_351:\n        /* \"#utility.yul\":2587:2593   */\n      0x00\n        /* \"#utility.yul\":2614:2634   */\n      tag_467\n      tag_332\n      jump\t// in\n    tag_467:\n        /* \"#utility.yul\":2604:2634   */\n      swap1\n      pop\n        /* \"#utility.yul\":2643:2676   */\n      tag_468\n        /* \"#utility.yul\":2671:2675   */\n      dup3\n        /* \"#utility.yul\":2663:2669   */\n      dup3\n        /* \"#utility.yul\":2643:2676   */\n      tag_350\n      jump\t// in\n    tag_468:\n        /* \"#utility.yul\":2553:2682   */\n      swap2\n      swap1\n      pop\n      jump\t// out\n        /* \"#utility.yul\":2688:2996   */\n    tag_352:\n        /* \"#utility.yul\":2750:2754   */\n      0x00\n        /* \"#utility.yul\":2840:2858   */\n      0xffffffffffffffff\n        /* \"#utility.yul\":2832:2838   */\n      dup3\n        /* \"#utility.yul\":2829:2859   */\n      gt\n        /* \"#utility.yul\":2826:2882   */\n      iszero\n      tag_470\n      jumpi\n        /* \"#utility.yul\":2862:2880   */\n      tag_471\n      tag_349\n      jump\t// in\n    tag_471:\n        /* \"#utility.yul\":2826:2882   */\n    tag_470:\n        /* \"#utility.yul\":2900:2929   */\n      tag_472\n        /* \"#utility.yul\":2922:2928   */\n      dup3\n        /* \"#utility.yul\":2900:2929   */\n      tag_348\n      jump\t// in\n    tag_472:\n        /* \"#utility.yul\":2892:2929   */\n      swap1\n      pop\n        /* \"#utility.yul\":2984:2988   */\n      0x20\n        /* \"#utility.yul\":2978:2982   */\n      dup2\n        /* \"#utility.yul\":2974:2989   */\n      add\n        /* \"#utility.yul\":2966:2989   */\n      swap1\n      pop\n        /* \"#utility.yul\":2688:2996   */\n      swap2\n      swap1\n      pop\n      jump\t// out\n        /* \"#utility.yul\":3002:3150   */\n    tag_353:\n        /* \"#utility.yul\":3100:3106   */\n      dup3\n        /* \"#utility.yul\":3095:3098   */\n      dup2\n        /* \"#utility.yul\":3090:3093   */\n      dup4\n        /* \"#utility.yul\":3077:3107   */\n      calldatacopy\n        /* \"#utility.yul\":3141:3142   */\n      0x00\n        /* \"#utility.yul\":3132:3138   */\n      dup4\n        /* \"#utility.yul\":3127:3130   */\n      dup4\n        /* \"#utility.yul\":3123:3139   */\n      add\n        /* \"#utility.yul\":3116:3143   */\n      mstore\n        /* \"#utility.yul\":3002:3150   */\n      pop\n      pop\n      pop\n      jump\t// out\n        /* \"#utility.yul\":3156:3581   */\n    tag_354:\n        /* \"#utility.yul\":3234:3239   */\n      0x00\n        /* \"#utility.yul\":3259:3325   */\n      tag_475\n        /* \"#utility.yul\":3275:3324   */\n      tag_476\n        /* \"#utility.yul\":3317:3323   */\n      dup5\n        /* \"#utility.yul\":3275:3324   */\n      tag_352\n      jump\t// in\n    tag_476:\n        /* \"#utility.yul\":3259:3325   */\n      tag_351\n      jump\t// in\n    tag_475:\n        /* \"#utility.yul\":3250:3325   */\n      swap1\n      pop\n        /* \"#utility.yul\":3348:3354   */\n      dup3\n        /* \"#utility.yul\":3341:3346   */\n      dup2\n        /* \"#utility.yul\":3334:3355   */\n      mstore\n        /* \"#utility.yul\":3386:3390   */\n      0x20\n        /* \"#utility.yul\":3379:3384   */\n      dup2\n        /* \"#utility.yul\":3375:3391   */\n      add\n        /* \"#utility.yul\":3424:3427   */\n      dup5\n        /* \"#utility.yul\":3415:3421   */\n      dup5\n        /* \"#utility.yul\":3410:3413   */\n      dup5\n        /* \"#utility.yul\":3406:3422   */\n      add\n        /* \"#utility.yul\":3403:3428   */\n      gt\n        /* \"#utility.yul\":3400:3512   */\n      iszero\n      tag_477\n      jumpi\n        /* \"#utility.yul\":3431:3510   */\n      tag_478\n      tag_347\n      jump\t// in\n    tag_478:\n        /* \"#utility.yul\":3400:3512   */\n    tag_477:\n        /* \"#utility.yul\":3521:3575   */\n      tag_479\n        /* \"#utility.yul\":3568:3574   */\n      dup5\n        /* \"#utility.yul\":3563:3566   */\n      dup3\n        /* \"#utility.yul\":3558:3561   */\n      dup6\n        /* \"#utility.yul\":3521:3575   */\n      tag_353\n      jump\t// in\n    tag_479:\n        /* \"#utility.yul\":3240:3581   */\n      pop\n        /* \"#utility.yul\":3156:3581   */\n      swap4\n      swap3\n      pop\n      pop\n      pop\n      jump\t// out\n        /* \"#utility.yul\":3601:3941   */\n    tag_355:\n        /* \"#utility.yul\":3657:3662   */\n      0x00\n        /* \"#utility.yul\":3706:3709   */\n      dup3\n        /* \"#utility.yul\":3699:3703   */\n      0x1f\n        /* \"#utility.yul\":3691:3697   */\n      dup4\n        /* \"#utility.yul\":3687:3704   */\n      add\n        /* \"#utility.yul\":3683:3710   */\n      slt\n        /* \"#utility.yul\":3673:3795   */\n      tag_481\n      jumpi\n        /* \"#utility.yul\":3714:3793   */\n      tag_482\n      tag_346\n      jump\t// in\n    tag_482:\n        /* \"#utility.yul\":3673:3795   */\n    tag_481:\n        /* \"#utility.yul\":3831:3837   */\n      dup2\n        /* \"#utility.yul\":3818:3838   */\n      calldataload\n        /* \"#utility.yul\":3856:3935   */\n      tag_483\n        /* \"#utility.yul\":3931:3934   */\n      dup5\n        /* \"#utility.yul\":3923:3929   */\n      dup3\n        /* \"#utility.yul\":3916:3920   */\n      0x20\n        /* \"#utility.yul\":3908:3914   */\n      dup7\n        /* \"#utility.yul\":3904:3921   */\n      add\n        /* \"#utility.yul\":3856:3935   */\n      tag_354\n      jump\t// in\n    tag_483:\n        /* \"#utility.yul\":3847:3935   */\n      swap2\n      pop\n        /* \"#utility.yul\":3663:3941   */\n      pop\n        /* \"#utility.yul\":3601:3941   */\n      swap3\n      swap2\n      pop\n      pop\n      jump\t// out\n        /* \"#utility.yul\":3947:5062   */\n    tag_22:\n        /* \"#utility.yul\":4064:4070   */\n      0x00\n        /* \"#utility.yul\":4072:4078   */\n      dup1\n        /* \"#utility.yul\":4080:4086   */\n      0x00\n        /* \"#utility.yul\":4088:4094   */\n      dup1\n        /* \"#utility.yul\":4096:4102   */\n      0x00\n        /* \"#utility.yul\":4145:4148   */\n      0xa0\n        /* \"#utility.yul\":4133:4142   */\n      dup7\n        /* \"#utility.yul\":4124:4131   */\n      dup9\n        /* \"#utility.yul\":4120:4143   */\n      sub\n        /* \"#utility.yul\":4116:4149   */\n      slt\n        /* \"#utility.yul\":4113:4233   */\n      iszero\n      tag_485\n      jumpi\n        /* \"#utility.yul\":4152:4231   */\n      tag_486\n      tag_333\n      jump\t// in\n    tag_486:\n        /* \"#utility.yul\":4113:4233   */\n    tag_485:\n        /* \"#utility.yul\":4272:4273   */\n      0x00\n        /* \"#utility.yul\":4297:4364   */\n      tag_487\n        /* \"#utility.yul\":4356:4363   */\n      dup9\n        /* \"#utility.yul\":4347:4353   */\n      dup3\n        /* \"#utility.yul\":4336:4345   */\n      dup10\n        /* \"#utility.yul\":4332:4354   */\n      add\n        /* \"#utility.yul\":4297:4364   */\n      tag_339\n      jump\t// in\n    tag_487:\n        /* \"#utility.yul\":4287:4364   */\n      swap6\n      pop\n        /* \"#utility.yul\":4243:4374   */\n      pop\n        /* \"#utility.yul\":4413:4415   */\n      0x20\n        /* \"#utility.yul\":4439:4492   */\n      tag_488\n        /* \"#utility.yul\":4484:4491   */\n      dup9\n        /* \"#utility.yul\":4475:4481   */\n      dup3\n        /* \"#utility.yul\":4464:4473   */\n      dup10\n        /* \"#utility.yul\":4460:4482   */\n      add\n        /* \"#utility.yul\":4439:4492   */\n      tag_342\n      jump\t// in\n    tag_488:\n        /* \"#utility.yul\":4429:4492   */\n      swap5\n      pop\n        /* \"#utility.yul\":4384:4502   */\n      pop\n        /* \"#utility.yul\":4541:4543   */\n      0x40\n        /* \"#utility.yul\":4567:4618   */\n      tag_489\n        /* \"#utility.yul\":4610:4617   */\n      dup9\n        /* \"#utility.yul\":4601:4607   */\n      dup3\n        /* \"#utility.yul\":4590:4599   */\n      dup10\n        /* \"#utility.yul\":4586:4608   */\n      add\n        /* \"#utility.yul\":4567:4618   */\n      tag_345\n      jump\t// in\n    tag_489:\n        /* \"#utility.yul\":4557:4618   */\n      swap4\n      pop\n        /* \"#utility.yul\":4512:4628   */\n      pop\n        /* \"#utility.yul\":4667:4669   */\n      0x60\n        /* \"#utility.yul\":4693:4746   */\n      tag_490\n        /* \"#utility.yul\":4738:4745   */\n      dup9\n        /* \"#utility.yul\":4729:4735   */\n      dup3\n        /* \"#utility.yul\":4718:4727   */\n      dup10\n        /* \"#utility.yul\":4714:4736   */\n      add\n        /* \"#utility.yul\":4693:4746   */\n      tag_342\n      jump\t// in\n    tag_490:\n        /* \"#utility.yul\":4683:4746   */\n      swap3\n      pop\n        /* \"#utility.yul\":4638:4756   */\n      pop\n        /* \"#utility.yul\":4823:4826   */\n      0x80\n        /* \"#utility.yul\":4812:4821   */\n      dup7\n        /* \"#utility.yul\":4808:4827   */\n      add\n        /* \"#utility.yul\":4795:4828   */\n      calldataload\n        /* \"#utility.yul\":4855:4873   */\n      0xffffffffffffffff\n        /* \"#utility.yul\":4847:4853   */\n      dup2\n        /* \"#utility.yul\":4844:4874   */\n      gt\n        /* \"#utility.yul\":4841:4958   */\n      iszero\n      tag_491\n      jumpi\n        /* \"#utility.yul\":4877:4956   */\n      tag_492\n      tag_334\n      jump\t// in\n    tag_492:\n        /* \"#utility.yul\":4841:4958   */\n    tag_491:\n        /* \"#utility.yul\":4982:5045   */\n      tag_493\n        /* \"#utility.yul\":5037:5044   */\n      dup9\n        /* \"#utility.yul\":5028:5034   */\n      dup3\n        /* \"#utility.yul\":5017:5026   */\n      dup10\n        /* \"#utility.yul\":5013:5035   */\n      add\n        /* \"#utility.yul\":4982:5045   */\n      tag_355\n      jump\t// in\n    tag_493:\n        /* \"#utility.yul\":4972:5045   */\n      swap2\n      pop\n        /* \"#utility.yul\":4766:5055   */\n      pop\n        /* \"#utility.yul\":3947:5062   */\n      swap3\n      swap6\n      pop\n      swap3\n      swap6\n      swap1\n      swap4\n      pop\n      jump\t// out\n        /* \"#utility.yul\":5068:5863   */\n    tag_26:\n        /* \"#utility.yul\":5153:5159   */\n      0x00\n        /* \"#utility.yul\":5161:5167   */\n      dup1\n        /* \"#utility.yul\":5169:5175   */\n      0x00\n        /* \"#utility.yul\":5218:5220   */\n      0x60\n        /* \"#utility.yul\":5206:5215   */\n      dup5\n        /* \"#utility.yul\":5197:5204   */\n      dup7\n        /* \"#utility.yul\":5193:5216   */\n      sub\n        /* \"#utility.yul\":5189:5221   */\n      slt\n        /* \"#utility.yul\":5186:5305   */\n      iszero\n      tag_495\n      jumpi\n        /* \"#utility.yul\":5224:5303   */\n      tag_496\n      tag_333\n      jump\t// in\n    tag_496:\n        /* \"#utility.yul\":5186:5305   */\n    tag_495:\n        /* \"#utility.yul\":5344:5345   */\n      0x00\n        /* \"#utility.yul\":5369:5420   */\n      tag_497\n        /* \"#utility.yul\":5412:5419   */\n      dup7\n        /* \"#utility.yul\":5403:5409   */\n      dup3\n        /* \"#utility.yul\":5392:5401   */\n      dup8\n        /* \"#utility.yul\":5388:5410   */\n      add\n        /* \"#utility.yul\":5369:5420   */\n      tag_345\n      jump\t// in\n    tag_497:\n        /* \"#utility.yul\":5359:5420   */\n      swap4\n      pop\n        /* \"#utility.yul\":5315:5430   */\n      pop\n        /* \"#utility.yul\":5469:5471   */\n      0x20\n        /* \"#utility.yul\":5495:5548   */\n      tag_498\n        /* \"#utility.yul\":5540:5547   */\n      dup7\n        /* \"#utility.yul\":5531:5537   */\n      dup3\n        /* \"#utility.yul\":5520:5529   */\n      dup8\n        /* \"#utility.yul\":5516:5538   */\n      add\n        /* \"#utility.yul\":5495:5548   */\n      tag_342\n      jump\t// in\n    tag_498:\n        /* \"#utility.yul\":5485:5548   */\n      swap3\n      pop\n        /* \"#utility.yul\":5440:5558   */\n      pop\n        /* \"#utility.yul\":5625:5627   */\n      0x40\n        /* \"#utility.yul\":5614:5623   */\n      dup5\n        /* \"#utility.yul\":5610:5628   */\n      add\n        /* \"#utility.yul\":5597:5629   */\n      calldataload\n        /* \"#utility.yul\":5656:5674   */\n      0xffffffffffffffff\n        /* \"#utility.yul\":5648:5654   */\n      dup2\n        /* \"#utility.yul\":5645:5675   */\n      gt\n        /* \"#utility.yul\":5642:5759   */\n      iszero\n      tag_499\n      jumpi\n        /* \"#utility.yul\":5678:5757   */\n      tag_500\n      tag_334\n      jump\t// in\n    tag_500:\n        /* \"#utility.yul\":5642:5759   */\n    tag_499:\n        /* \"#utility.yul\":5783:5846   */\n      tag_501\n        /* \"#utility.yul\":5838:5845   */\n      dup7\n        /* \"#utility.yul\":5829:5835   */\n      dup3\n        /* \"#utility.yul\":5818:5827   */\n      dup8\n        /* \"#utility.yul\":5814:5836   */\n      add\n        /* \"#utility.yul\":5783:5846   */\n      tag_355\n      jump\t// in\n    tag_501:\n        /* \"#utility.yul\":5773:5846   */\n      swap2\n      pop\n        /* \"#utility.yul\":5568:5856   */\n      pop\n        /* \"#utility.yul\":5068:5863   */\n      swap3\n      pop\n      swap3\n      pop\n      swap3\n      jump\t// out\n        /* \"#utility.yul\":5869:6226   */\n    tag_31:\n        /* \"#utility.yul\":5942:5948   */\n      0x00\n        /* \"#utility.yul\":5991:5993   */\n      0x20\n        /* \"#utility.yul\":5979:5988   */\n      dup3\n        /* \"#utility.yul\":5970:5977   */\n      dup5\n        /* \"#utility.yul\":5966:5989   */\n      sub\n        /* \"#utility.yul\":5962:5994   */\n      slt\n        /* \"#utility.yul\":5959:6078   */\n      iszero\n      tag_503\n      jumpi\n        /* \"#utility.yul\":5997:6076   */\n      tag_504\n      tag_333\n      jump\t// in\n    tag_504:\n        /* \"#utility.yul\":5959:6078   */\n    tag_503:\n        /* \"#utility.yul\":6117:6118   */\n      0x00\n        /* \"#utility.yul\":6142:6209   */\n      tag_505\n        /* \"#utility.yul\":6201:6208   */\n      dup5\n        /* \"#utility.yul\":6192:6198   */\n      dup3\n        /* \"#utility.yul\":6181:6190   */\n      dup6\n        /* \"#utility.yul\":6177:6199   */\n      add\n        /* \"#utility.yul\":6142:6209   */\n      tag_339\n      jump\t// in\n    tag_505:\n        /* \"#utility.yul\":6132:6209   */\n      swap2\n      pop\n        /* \"#utility.yul\":6088:6219   */\n      pop\n        /* \"#utility.yul\":5869:6226   */\n      swap3\n      swap2\n      pop\n      pop\n      jump\t// out\n        /* \"#utility.yul\":6232:6350   */\n    tag_356:\n        /* \"#utility.yul\":6319:6343   */\n      tag_507\n        /* \"#utility.yul\":6337:6342   */\n      dup2\n        /* \"#utility.yul\":6319:6343   */\n      tag_340\n      jump\t// in\n    tag_507:\n        /* \"#utility.yul\":6314:6317   */\n      dup3\n        /* \"#utility.yul\":6307:6344   */\n      mstore\n        /* \"#utility.yul\":6232:6350   */\n      pop\n      pop\n      jump\t// out\n        /* \"#utility.yul\":6356:6578   */\n    tag_34:\n        /* \"#utility.yul\":6449:6453   */\n      0x00\n        /* \"#utility.yul\":6487:6489   */\n      0x20\n        /* \"#utility.yul\":6476:6485   */\n      dup3\n        /* \"#utility.yul\":6472:6490   */\n      add\n        /* \"#utility.yul\":6464:6490   */\n      swap1\n      pop\n        /* \"#utility.yul\":6500:6571   */\n      tag_509\n        /* \"#utility.yul\":6568:6569   */\n      0x00\n        /* \"#utility.yul\":6557:6566   */\n      dup4\n        /* \"#utility.yul\":6553:6570   */\n      add\n        /* \"#utility.yul\":6544:6550   */\n      dup5\n        /* \"#utility.yul\":6500:6571   */\n      tag_356\n      jump\t// in\n    tag_509:\n        /* \"#utility.yul\":6356:6578   */\n      swap3\n      swap2\n      pop\n      pop\n      jump\t// out\n        /* \"#utility.yul\":6584:6677   */\n    tag_357:\n        /* \"#utility.yul\":6620:6627   */\n      0x00\n        /* \"#utility.yul\":6660:6670   */\n      0xffffffff\n        /* \"#utility.yul\":6653:6658   */\n      dup3\n        /* \"#utility.yul\":6649:6671   */\n      and\n        /* \"#utility.yul\":6638:6671   */\n      swap1\n      pop\n        /* \"#utility.yul\":6584:6677   */\n      swap2\n      swap1\n      pop\n      jump\t// out\n        /* \"#utility.yul\":6683:6803   */\n    tag_358:\n        /* \"#utility.yul\":6755:6778   */\n      tag_512\n        /* \"#utility.yul\":6772:6777   */\n      dup2\n        /* \"#utility.yul\":6755:6778   */\n      tag_357\n      jump\t// in\n    tag_512:\n        /* \"#utility.yul\":6748:6753   */\n      dup2\n        /* \"#utility.yul\":6745:6779   */\n      eq\n        /* \"#utility.yul\":6735:6797   */\n      tag_513\n      jumpi\n        /* \"#utility.yul\":6793:6794   */\n      0x00\n        /* \"#utility.yul\":6790:6791   */\n      dup1\n        /* \"#utility.yul\":6783:6795   */\n      revert\n        /* \"#utility.yul\":6735:6797   */\n    tag_513:\n        /* \"#utility.yul\":6683:6803   */\n      pop\n      jump\t// out\n        /* \"#utility.yul\":6809:6946   */\n    tag_359:\n        /* \"#utility.yul\":6854:6859   */\n      0x00\n        /* \"#utility.yul\":6892:6898   */\n      dup2\n        /* \"#utility.yul\":6879:6899   */\n      calldataload\n        /* \"#utility.yul\":6870:6899   */\n      swap1\n      pop\n        /* \"#utility.yul\":6908:6940   */\n      tag_515\n        /* \"#utility.yul\":6934:6939   */\n      dup2\n        /* \"#utility.yul\":6908:6940   */\n      tag_358\n      jump\t// in\n    tag_515:\n        /* \"#utility.yul\":6809:6946   */\n      swap3\n      swap2\n      pop\n      pop\n      jump\t// out\n        /* \"#utility.yul\":6952:7739   */\n    tag_38:\n        /* \"#utility.yul\":7049:7055   */\n      0x00\n        /* \"#utility.yul\":7057:7063   */\n      dup1\n        /* \"#utility.yul\":7065:7071   */\n      0x00\n        /* \"#utility.yul\":7073:7079   */\n      dup1\n        /* \"#utility.yul\":7122:7125   */\n      0x80\n        /* \"#utility.yul\":7110:7119   */\n      dup6\n        /* \"#utility.yul\":7101:7108   */\n      dup8\n        /* \"#utility.yul\":7097:7120   */\n      sub\n        /* \"#utility.yul\":7093:7126   */\n      slt\n        /* \"#utility.yul\":7090:7210   */\n      iszero\n      tag_517\n      jumpi\n        /* \"#utility.yul\":7129:7208   */\n      tag_518\n      tag_333\n      jump\t// in\n    tag_518:\n        /* \"#utility.yul\":7090:7210   */\n    tag_517:\n        /* \"#utility.yul\":7249:7250   */\n      0x00\n        /* \"#utility.yul\":7274:7341   */\n      tag_519\n        /* \"#utility.yul\":7333:7340   */\n      dup8\n        /* \"#utility.yul\":7324:7330   */\n      dup3\n        /* \"#utility.yul\":7313:7322   */\n      dup9\n        /* \"#utility.yul\":7309:7331   */\n      add\n        /* \"#utility.yul\":7274:7341   */\n      tag_339\n      jump\t// in\n    tag_519:\n        /* \"#utility.yul\":7264:7341   */\n      swap5\n      pop\n        /* \"#utility.yul\":7220:7351   */\n      pop\n        /* \"#utility.yul\":7390:7392   */\n      0x20\n        /* \"#utility.yul\":7416:7468   */\n      tag_520\n        /* \"#utility.yul\":7460:7467   */\n      dup8\n        /* \"#utility.yul\":7451:7457   */\n      dup3\n        /* \"#utility.yul\":7440:7449   */\n      dup9\n        /* \"#utility.yul\":7436:7458   */\n      add\n        /* \"#utility.yul\":7416:7468   */\n      tag_359\n      jump\t// in\n    tag_520:\n        /* \"#utility.yul\":7406:7468   */\n      swap4\n      pop\n        /* \"#utility.yul\":7361:7478   */\n      pop\n        /* \"#utility.yul\":7517:7519   */\n      0x40\n        /* \"#utility.yul\":7543:7596   */\n      tag_521\n        /* \"#utility.yul\":7588:7595   */\n      dup8\n        /* \"#utility.yul\":7579:7585   */\n      dup3\n        /* \"#utility.yul\":7568:7577   */\n      dup9\n        /* \"#utility.yul\":7564:7586   */\n      add\n        /* \"#utility.yul\":7543:7596   */\n      tag_342\n      jump\t// in\n    tag_521:\n        /* \"#utility.yul\":7533:7596   */\n      swap3\n      pop\n        /* \"#utility.yul\":7488:7606   */\n      pop\n        /* \"#utility.yul\":7645:7647   */\n      0x60\n        /* \"#utility.yul\":7671:7722   */\n      tag_522\n        /* \"#utility.yul\":7714:7721   */\n      dup8\n        /* \"#utility.yul\":7705:7711   */\n      dup3\n        /* \"#utility.yul\":7694:7703   */\n      dup9\n        /* \"#utility.yul\":7690:7712   */\n      add\n        /* \"#utility.yul\":7671:7722   */\n      tag_345\n      jump\t// in\n    tag_522:\n        /* \"#utility.yul\":7661:7722   */\n      swap2\n      pop\n        /* \"#utility.yul\":7616:7732   */\n      pop\n        /* \"#utility.yul\":6952:7739   */\n      swap3\n      swap6\n      swap2\n      swap5\n      pop\n      swap3\n      pop\n      jump\t// out\n        /* \"#utility.yul\":7745:8070   */\n    tag_43:\n        /* \"#utility.yul\":7802:7808   */\n      0x00\n        /* \"#utility.yul\":7851:7853   */\n      0x20\n        /* \"#utility.yul\":7839:7848   */\n      dup3\n        /* \"#utility.yul\":7830:7837   */\n      dup5\n        /* \"#utility.yul\":7826:7849   */\n      sub\n        /* \"#utility.yul\":7822:7854   */\n      slt\n        /* \"#utility.yul\":7819:7938   */\n      iszero\n      tag_524\n      jumpi\n        /* \"#utility.yul\":7857:7936   */\n      tag_525\n      tag_333\n      jump\t// in\n    tag_525:\n        /* \"#utility.yul\":7819:7938   */\n    tag_524:\n        /* \"#utility.yul\":7977:7978   */\n      0x00\n        /* \"#utility.yul\":8002:8053   */\n      tag_526\n        /* \"#utility.yul\":8045:8052   */\n      dup5\n        /* \"#utility.yul\":8036:8042   */\n      dup3\n        /* \"#utility.yul\":8025:8034   */\n      dup6\n        /* \"#utility.yul\":8021:8043   */\n      add\n        /* \"#utility.yul\":8002:8053   */\n      tag_345\n      jump\t// in\n    tag_526:\n        /* \"#utility.yul\":7992:8053   */\n      swap2\n      pop\n        /* \"#utility.yul\":7948:8063   */\n      pop\n        /* \"#utility.yul\":7745:8070   */\n      swap3\n      swap2\n      pop\n      pop\n      jump\t// out\n        /* \"#utility.yul\":8076:8211   */\n    tag_360:\n        /* \"#utility.yul\":8164:8170   */\n      0x00\n        /* \"#utility.yul\":8198:8203   */\n      dup2\n        /* \"#utility.yul\":8192:8204   */\n      mload\n        /* \"#utility.yul\":8182:8204   */\n      swap1\n      pop\n        /* \"#utility.yul\":8076:8211   */\n      swap2\n      swap1\n      pop\n      jump\t// out\n        /* \"#utility.yul\":8217:8422   */\n    tag_361:\n        /* \"#utility.yul\":8337:8348   */\n      0x00\n        /* \"#utility.yul\":8371:8377   */\n      dup3\n        /* \"#utility.yul\":8366:8369   */\n      dup3\n        /* \"#utility.yul\":8359:8378   */\n      mstore\n        /* \"#utility.yul\":8411:8415   */\n      0x20\n        /* \"#utility.yul\":8406:8409   */\n      dup3\n        /* \"#utility.yul\":8402:8416   */\n      add\n        /* \"#utility.yul\":8387:8416   */\n      swap1\n      pop\n        /* \"#utility.yul\":8217:8422   */\n      swap3\n      swap2\n      pop\n      pop\n      jump\t// out\n        /* \"#utility.yul\":8428:8581   */\n    tag_362:\n        /* \"#utility.yul\":8516:8520   */\n      0x00\n        /* \"#utility.yul\":8539:8542   */\n      dup2\n        /* \"#utility.yul\":8531:8542   */\n      swap1\n      pop\n        /* \"#utility.yul\":8569:8573   */\n      0x20\n        /* \"#utility.yul\":8564:8567   */\n      dup3\n        /* \"#utility.yul\":8560:8574   */\n      add\n        /* \"#utility.yul\":8552:8574   */\n      swap1\n      pop\n        /* \"#utility.yul\":8428:8581   */\n      swap2\n      swap1\n      pop\n      jump\t// out\n        /* \"#utility.yul\":8587:8695   */\n    tag_363:\n        /* \"#utility.yul\":8664:8688   */\n      tag_531\n        /* \"#utility.yul\":8682:8687   */\n      dup2\n        /* \"#utility.yul\":8664:8688   */\n      tag_336\n      jump\t// in\n    tag_531:\n        /* \"#utility.yul\":8659:8662   */\n      dup3\n        /* \"#utility.yul\":8652:8689   */\n      mstore\n        /* \"#utility.yul\":8587:8695   */\n      pop\n      pop\n      jump\t// out\n        /* \"#utility.yul\":8701:8809   */\n    tag_364:\n        /* \"#utility.yul\":8778:8802   */\n      tag_533\n        /* \"#utility.yul\":8796:8801   */\n      dup2\n        /* \"#utility.yul\":8778:8802   */\n      tag_340\n      jump\t// in\n    tag_533:\n        /* \"#utility.yul\":8773:8776   */\n      dup3\n        /* \"#utility.yul\":8766:8803   */\n      mstore\n        /* \"#utility.yul\":8701:8809   */\n      pop\n      pop\n      jump\t// out\n        /* \"#utility.yul\":8815:8914   */\n    tag_365:\n        /* \"#utility.yul\":8867:8873   */\n      0x00\n        /* \"#utility.yul\":8901:8906   */\n      dup2\n        /* \"#utility.yul\":8895:8907   */\n      mload\n        /* \"#utility.yul\":8885:8907   */\n      swap1\n      pop\n        /* \"#utility.yul\":8815:8914   */\n      swap2\n      swap1\n      pop\n      jump\t// out\n        /* \"#utility.yul\":8920:9079   */\n    tag_366:\n        /* \"#utility.yul\":8994:9005   */\n      0x00\n        /* \"#utility.yul\":9028:9034   */\n      dup3\n        /* \"#utility.yul\":9023:9026   */\n      dup3\n        /* \"#utility.yul\":9016:9035   */\n      mstore\n        /* \"#utility.yul\":9068:9072   */\n      0x20\n        /* \"#utility.yul\":9063:9066   */\n      dup3\n        /* \"#utility.yul\":9059:9073   */\n      add\n        /* \"#utility.yul\":9044:9073   */\n      swap1\n      pop\n        /* \"#utility.yul\":8920:9079   */\n      swap3\n      swap2\n      pop\n      pop\n      jump\t// out\n        /* \"#utility.yul\":9085:9224   */\n    tag_367:\n        /* \"#utility.yul\":9174:9180   */\n      dup3\n        /* \"#utility.yul\":9169:9172   */\n      dup2\n        /* \"#utility.yul\":9164:9167   */\n      dup4\n        /* \"#utility.yul\":9158:9181   */\n      mcopy\n        /* \"#utility.yul\":9215:9216   */\n      0x00\n        /* \"#utility.yul\":9206:9212   */\n      dup4\n        /* \"#utility.yul\":9201:9204   */\n      dup4\n        /* \"#utility.yul\":9197:9213   */\n      add\n        /* \"#utility.yul\":9190:9217   */\n      mstore\n        /* \"#utility.yul\":9085:9224   */\n      pop\n      pop\n      pop\n      jump\t// out\n        /* \"#utility.yul\":9230:9587   */\n    tag_368:\n        /* \"#utility.yul\":9308:9311   */\n      0x00\n        /* \"#utility.yul\":9336:9375   */\n      tag_538\n        /* \"#utility.yul\":9369:9374   */\n      dup3\n        /* \"#utility.yul\":9336:9375   */\n      tag_365\n      jump\t// in\n    tag_538:\n        /* \"#utility.yul\":9391:9452   */\n      tag_539\n        /* \"#utility.yul\":9445:9451   */\n      dup2\n        /* \"#utility.yul\":9440:9443   */\n      dup6\n        /* \"#utility.yul\":9391:9452   */\n      tag_366\n      jump\t// in\n    tag_539:\n        /* \"#utility.yul\":9384:9452   */\n      swap4\n      pop\n        /* \"#utility.yul\":9461:9526   */\n      tag_540\n        /* \"#utility.yul\":9519:9525   */\n      dup2\n        /* \"#utility.yul\":9514:9517   */\n      dup6\n        /* \"#utility.yul\":9507:9511   */\n      0x20\n        /* \"#utility.yul\":9500:9505   */\n      dup7\n        /* \"#utility.yul\":9496:9512   */\n      add\n        /* \"#utility.yul\":9461:9526   */\n      tag_367\n      jump\t// in\n    tag_540:\n        /* \"#utility.yul\":9551:9580   */\n      tag_541\n        /* \"#utility.yul\":9573:9579   */\n      dup2\n        /* \"#utility.yul\":9551:9580   */\n      tag_348\n      jump\t// in\n    tag_541:\n        /* \"#utility.yul\":9546:9549   */\n      dup5\n        /* \"#utility.yul\":9542:9581   */\n      add\n        /* \"#utility.yul\":9535:9581   */\n      swap2\n      pop\n        /* \"#utility.yul\":9312:9587   */\n      pop\n        /* \"#utility.yul\":9230:9587   */\n      swap3\n      swap2\n      pop\n      pop\n      jump\t// out\n        /* \"#utility.yul\":9593:9683   */\n    tag_369:\n        /* \"#utility.yul\":9627:9634   */\n      0x00\n        /* \"#utility.yul\":9670:9675   */\n      dup2\n        /* \"#utility.yul\":9663:9676   */\n      iszero\n        /* \"#utility.yul\":9656:9677   */\n      iszero\n        /* \"#utility.yul\":9645:9677   */\n      swap1\n      pop\n        /* \"#utility.yul\":9593:9683   */\n      swap2\n      swap1\n      pop\n      jump\t// out\n        /* \"#utility.yul\":9689:9788   */\n    tag_370:\n        /* \"#utility.yul\":9760:9781   */\n      tag_544\n        /* \"#utility.yul\":9775:9780   */\n      dup2\n        /* \"#utility.yul\":9760:9781   */\n      tag_369\n      jump\t// in\n    tag_544:\n        /* \"#utility.yul\":9755:9758   */\n      dup3\n        /* \"#utility.yul\":9748:9782   */\n      mstore\n        /* \"#utility.yul\":9689:9788   */\n      pop\n      pop\n      jump\t// out\n        /* \"#utility.yul\":9840:11132   */\n    tag_371:\n        /* \"#utility.yul\":9941:9944   */\n      0x00\n        /* \"#utility.yul\":9977:9981   */\n      0xc0\n        /* \"#utility.yul\":9972:9975   */\n      dup4\n        /* \"#utility.yul\":9968:9982   */\n      add\n        /* \"#utility.yul\":10065:10069   */\n      0x00\n        /* \"#utility.yul\":10058:10063   */\n      dup4\n        /* \"#utility.yul\":10054:10070   */\n      add\n        /* \"#utility.yul\":10048:10071   */\n      mload\n        /* \"#utility.yul\":10084:10147   */\n      tag_546\n        /* \"#utility.yul\":10141:10145   */\n      0x00\n        /* \"#utility.yul\":10136:10139   */\n      dup7\n        /* \"#utility.yul\":10132:10146   */\n      add\n        /* \"#utility.yul\":10118:10130   */\n      dup3\n        /* \"#utility.yul\":10084:10147   */\n      tag_363\n      jump\t// in\n    tag_546:\n        /* \"#utility.yul\":9992:10157   */\n      pop\n        /* \"#utility.yul\":10241:10245   */\n      0x20\n        /* \"#utility.yul\":10234:10239   */\n      dup4\n        /* \"#utility.yul\":10230:10246   */\n      add\n        /* \"#utility.yul\":10224:10247   */\n      mload\n        /* \"#utility.yul\":10260:10323   */\n      tag_547\n        /* \"#utility.yul\":10317:10321   */\n      0x20\n        /* \"#utility.yul\":10312:10315   */\n      dup7\n        /* \"#utility.yul\":10308:10322   */\n      add\n        /* \"#utility.yul\":10294:10306   */\n      dup3\n        /* \"#utility.yul\":10260:10323   */\n      tag_364\n      jump\t// in\n    tag_547:\n        /* \"#utility.yul\":10167:10333   */\n      pop\n        /* \"#utility.yul\":10422:10426   */\n      0x40\n        /* \"#utility.yul\":10415:10420   */\n      dup4\n        /* \"#utility.yul\":10411:10427   */\n      add\n        /* \"#utility.yul\":10405:10428   */\n      mload\n        /* \"#utility.yul\":10441:10504   */\n      tag_548\n        /* \"#utility.yul\":10498:10502   */\n      0x40\n        /* \"#utility.yul\":10493:10496   */\n      dup7\n        /* \"#utility.yul\":10489:10503   */\n      add\n        /* \"#utility.yul\":10475:10487   */\n      dup3\n        /* \"#utility.yul\":10441:10504   */\n      tag_364\n      jump\t// in\n    tag_548:\n        /* \"#utility.yul\":10343:10514   */\n      pop\n        /* \"#utility.yul\":10597:10601   */\n      0x60\n        /* \"#utility.yul\":10590:10595   */\n      dup4\n        /* \"#utility.yul\":10586:10602   */\n      add\n        /* \"#utility.yul\":10580:10603   */\n      mload\n        /* \"#utility.yul\":10650:10653   */\n      dup5\n        /* \"#utility.yul\":10644:10648   */\n      dup3\n        /* \"#utility.yul\":10640:10654   */\n      sub\n        /* \"#utility.yul\":10633:10637   */\n      0x60\n        /* \"#utility.yul\":10628:10631   */\n      dup7\n        /* \"#utility.yul\":10624:10638   */\n      add\n        /* \"#utility.yul\":10617:10655   */\n      mstore\n        /* \"#utility.yul\":10676:10749   */\n      tag_549\n        /* \"#utility.yul\":10744:10748   */\n      dup3\n        /* \"#utility.yul\":10730:10742   */\n      dup3\n        /* \"#utility.yul\":10676:10749   */\n      tag_368\n      jump\t// in\n    tag_549:\n        /* \"#utility.yul\":10668:10749   */\n      swap2\n      pop\n        /* \"#utility.yul\":10524:10760   */\n      pop\n        /* \"#utility.yul\":10847:10851   */\n      0x80\n        /* \"#utility.yul\":10840:10845   */\n      dup4\n        /* \"#utility.yul\":10836:10852   */\n      add\n        /* \"#utility.yul\":10830:10853   */\n      mload\n        /* \"#utility.yul\":10866:10923   */\n      tag_550\n        /* \"#utility.yul\":10917:10921   */\n      0x80\n        /* \"#utility.yul\":10912:10915   */\n      dup7\n        /* \"#utility.yul\":10908:10922   */\n      add\n        /* \"#utility.yul\":10894:10906   */\n      dup3\n        /* \"#utility.yul\":10866:10923   */\n      tag_370\n      jump\t// in\n    tag_550:\n        /* \"#utility.yul\":10770:10933   */\n      pop\n        /* \"#utility.yul\":11019:11023   */\n      0xa0\n        /* \"#utility.yul\":11012:11017   */\n      dup4\n        /* \"#utility.yul\":11008:11024   */\n      add\n        /* \"#utility.yul\":11002:11025   */\n      mload\n        /* \"#utility.yul\":11038:11095   */\n      tag_551\n        /* \"#utility.yul\":11089:11093   */\n      0xa0\n        /* \"#utility.yul\":11084:11087   */\n      dup7\n        /* \"#utility.yul\":11080:11094   */\n      add\n        /* \"#utility.yul\":11066:11078   */\n      dup3\n        /* \"#utility.yul\":11038:11095   */\n      tag_370\n      jump\t// in\n    tag_551:\n        /* \"#utility.yul\":10943:11105   */\n      pop\n        /* \"#utility.yul\":11122:11126   */\n      dup1\n        /* \"#utility.yul\":11115:11126   */\n      swap2\n      pop\n        /* \"#utility.yul\":9946:11132   */\n      pop\n        /* \"#utility.yul\":9840:11132   */\n      swap3\n      swap2\n      pop\n      pop\n      jump\t// out\n        /* \"#utility.yul\":11138:11378   */\n    tag_372:\n        /* \"#utility.yul\":11249:11259   */\n      0x00\n        /* \"#utility.yul\":11284:11372   */\n      tag_553\n        /* \"#utility.yul\":11368:11371   */\n      dup4\n        /* \"#utility.yul\":11360:11366   */\n      dup4\n        /* \"#utility.yul\":11284:11372   */\n      tag_371\n      jump\t// in\n    tag_553:\n        /* \"#utility.yul\":11270:11372   */\n      swap1\n      pop\n        /* \"#utility.yul\":11138:11378   */\n      swap3\n      swap2\n      pop\n      pop\n      jump\t// out\n        /* \"#utility.yul\":11384:11518   */\n    tag_373:\n        /* \"#utility.yul\":11475:11479   */\n      0x00\n        /* \"#utility.yul\":11507:11511   */\n      0x20\n        /* \"#utility.yul\":11502:11505   */\n      dup3\n        /* \"#utility.yul\":11498:11512   */\n      add\n        /* \"#utility.yul\":11490:11512   */\n      swap1\n      pop\n        /* \"#utility.yul\":11384:11518   */\n      swap2\n      swap1\n      pop\n      jump\t// out\n        /* \"#utility.yul\":11574:12653   */\n    tag_374:\n        /* \"#utility.yul\":11735:11738   */\n      0x00\n        /* \"#utility.yul\":11764:11839   */\n      tag_556\n        /* \"#utility.yul\":11833:11838   */\n      dup3\n        /* \"#utility.yul\":11764:11839   */\n      tag_360\n      jump\t// in\n    tag_556:\n        /* \"#utility.yul\":11855:11962   */\n      tag_557\n        /* \"#utility.yul\":11955:11961   */\n      dup2\n        /* \"#utility.yul\":11950:11953   */\n      dup6\n        /* \"#utility.yul\":11855:11962   */\n      tag_361\n      jump\t// in\n    tag_557:\n        /* \"#utility.yul\":11848:11962   */\n      swap4\n      pop\n        /* \"#utility.yul\":11988:11991   */\n      dup4\n        /* \"#utility.yul\":12033:12037   */\n      0x20\n        /* \"#utility.yul\":12025:12031   */\n      dup3\n        /* \"#utility.yul\":12021:12038   */\n      mul\n        /* \"#utility.yul\":12016:12019   */\n      dup6\n        /* \"#utility.yul\":12012:12039   */\n      add\n        /* \"#utility.yul\":12063:12140   */\n      tag_558\n        /* \"#utility.yul\":12134:12139   */\n      dup6\n        /* \"#utility.yul\":12063:12140   */\n      tag_362\n      jump\t// in\n    tag_558:\n        /* \"#utility.yul\":12163:12170   */\n      dup1\n        /* \"#utility.yul\":12194:12195   */\n      0x00\n        /* \"#utility.yul\":12179:12608   */\n    tag_559:\n        /* \"#utility.yul\":12204:12210   */\n      dup6\n        /* \"#utility.yul\":12201:12202   */\n      dup2\n        /* \"#utility.yul\":12198:12211   */\n      lt\n        /* \"#utility.yul\":12179:12608   */\n      iszero\n      tag_561\n      jumpi\n        /* \"#utility.yul\":12275:12284   */\n      dup5\n        /* \"#utility.yul\":12269:12273   */\n      dup5\n        /* \"#utility.yul\":12265:12285   */\n      sub\n        /* \"#utility.yul\":12260:12263   */\n      dup10\n        /* \"#utility.yul\":12253:12286   */\n      mstore\n        /* \"#utility.yul\":12326:12332   */\n      dup2\n        /* \"#utility.yul\":12320:12333   */\n      mload\n        /* \"#utility.yul\":12354:12460   */\n      tag_562\n        /* \"#utility.yul\":12455:12459   */\n      dup6\n        /* \"#utility.yul\":12440:12453   */\n      dup3\n        /* \"#utility.yul\":12354:12460   */\n      tag_372\n      jump\t// in\n    tag_562:\n        /* \"#utility.yul\":12346:12460   */\n      swap5\n      pop\n        /* \"#utility.yul\":12483:12564   */\n      tag_563\n        /* \"#utility.yul\":12557:12563   */\n      dup4\n        /* \"#utility.yul\":12483:12564   */\n      tag_373\n      jump\t// in\n    tag_563:\n        /* \"#utility.yul\":12473:12564   */\n      swap3\n      pop\n        /* \"#utility.yul\":12593:12597   */\n      0x20\n        /* \"#utility.yul\":12588:12591   */\n      dup11\n        /* \"#utility.yul\":12584:12598   */\n      add\n        /* \"#utility.yul\":12577:12598   */\n      swap10\n      pop\n        /* \"#utility.yul\":12239:12608   */\n      pop\n        /* \"#utility.yul\":12226:12227   */\n      0x01\n        /* \"#utility.yul\":12223:12224   */\n      dup2\n        /* \"#utility.yul\":12219:12228   */\n      add\n        /* \"#utility.yul\":12214:12228   */\n      swap1\n      pop\n        /* \"#utility.yul\":12179:12608   */\n      jump(tag_559)\n    tag_561:\n        /* \"#utility.yul\":12183:12197   */\n      pop\n        /* \"#utility.yul\":12624:12628   */\n      dup3\n        /* \"#utility.yul\":12617:12628   */\n      swap8\n      pop\n        /* \"#utility.yul\":12644:12647   */\n      dup8\n        /* \"#utility.yul\":12637:12647   */\n      swap6\n      pop\n        /* \"#utility.yul\":11740:12653   */\n      pop\n      pop\n      pop\n      pop\n      pop\n        /* \"#utility.yul\":11574:12653   */\n      swap3\n      swap2\n      pop\n      pop\n      jump\t// out\n        /* \"#utility.yul\":12659:13116   */\n    tag_46:\n        /* \"#utility.yul\":12844:12848   */\n      0x00\n        /* \"#utility.yul\":12882:12884   */\n      0x20\n        /* \"#utility.yul\":12871:12880   */\n      dup3\n        /* \"#utility.yul\":12867:12885   */\n      add\n        /* \"#utility.yul\":12859:12885   */\n      swap1\n      pop\n        /* \"#utility.yul\":12931:12940   */\n      dup2\n        /* \"#utility.yul\":12925:12929   */\n      dup2\n        /* \"#utility.yul\":12921:12941   */\n      sub\n        /* \"#utility.yul\":12917:12918   */\n      0x00\n        /* \"#utility.yul\":12906:12915   */\n      dup4\n        /* \"#utility.yul\":12902:12919   */\n      add\n        /* \"#utility.yul\":12895:12942   */\n      mstore\n        /* \"#utility.yul\":12959:13109   */\n      tag_565\n        /* \"#utility.yul\":13104:13108   */\n      dup2\n        /* \"#utility.yul\":13095:13101   */\n      dup5\n        /* \"#utility.yul\":12959:13109   */\n      tag_374\n      jump\t// in\n    tag_565:\n        /* \"#utility.yul\":12951:13109   */\n      swap1\n      pop\n        /* \"#utility.yul\":12659:13116   */\n      swap3\n      swap2\n      pop\n      pop\n      jump\t// out\n        /* \"#utility.yul\":13122:13244   */\n    tag_375:\n        /* \"#utility.yul\":13195:13219   */\n      tag_567\n        /* \"#utility.yul\":13213:13218   */\n      dup2\n        /* \"#utility.yul\":13195:13219   */\n      tag_336\n      jump\t// in\n    tag_567:\n        /* \"#utility.yul\":13188:13193   */\n      dup2\n        /* \"#utility.yul\":13185:13220   */\n      eq\n        /* \"#utility.yul\":13175:13238   */\n      tag_568\n      jumpi\n        /* \"#utility.yul\":13234:13235   */\n      0x00\n        /* \"#utility.yul\":13231:13232   */\n      dup1\n        /* \"#utility.yul\":13224:13236   */\n      revert\n        /* \"#utility.yul\":13175:13238   */\n    tag_568:\n        /* \"#utility.yul\":13122:13244   */\n      pop\n      jump\t// out\n        /* \"#utility.yul\":13250:13389   */\n    tag_376:\n        /* \"#utility.yul\":13296:13301   */\n      0x00\n        /* \"#utility.yul\":13334:13340   */\n      dup2\n        /* \"#utility.yul\":13321:13341   */\n      calldataload\n        /* \"#utility.yul\":13312:13341   */\n      swap1\n      pop\n        /* \"#utility.yul\":13350:13383   */\n      tag_570\n        /* \"#utility.yul\":13377:13382   */\n      dup2\n        /* \"#utility.yul\":13350:13383   */\n      tag_375\n      jump\t// in\n    tag_570:\n        /* \"#utility.yul\":13250:13389   */\n      swap3\n      swap2\n      pop\n      pop\n      jump\t// out\n        /* \"#utility.yul\":13395:14010   */\n    tag_50:\n        /* \"#utility.yul\":13470:13476   */\n      0x00\n        /* \"#utility.yul\":13478:13484   */\n      dup1\n        /* \"#utility.yul\":13486:13492   */\n      0x00\n        /* \"#utility.yul\":13535:13537   */\n      0x60\n        /* \"#utility.yul\":13523:13532   */\n      dup5\n        /* \"#utility.yul\":13514:13521   */\n      dup7\n        /* \"#utility.yul\":13510:13533   */\n      sub\n        /* \"#utility.yul\":13506:13538   */\n      slt\n        /* \"#utility.yul\":13503:13622   */\n      iszero\n      tag_572\n      jumpi\n        /* \"#utility.yul\":13541:13620   */\n      tag_573\n      tag_333\n      jump\t// in\n    tag_573:\n        /* \"#utility.yul\":13503:13622   */\n    tag_572:\n        /* \"#utility.yul\":13661:13662   */\n      0x00\n        /* \"#utility.yul\":13686:13739   */\n      tag_574\n        /* \"#utility.yul\":13731:13738   */\n      dup7\n        /* \"#utility.yul\":13722:13728   */\n      dup3\n        /* \"#utility.yul\":13711:13720   */\n      dup8\n        /* \"#utility.yul\":13707:13729   */\n      add\n        /* \"#utility.yul\":13686:13739   */\n      tag_376\n      jump\t// in\n    tag_574:\n        /* \"#utility.yul\":13676:13739   */\n      swap4\n      pop\n        /* \"#utility.yul\":13632:13749   */\n      pop\n        /* \"#utility.yul\":13788:13790   */\n      0x20\n        /* \"#utility.yul\":13814:13865   */\n      tag_575\n        /* \"#utility.yul\":13857:13864   */\n      dup7\n        /* \"#utility.yul\":13848:13854   */\n      dup3\n        /* \"#utility.yul\":13837:13846   */\n      dup8\n        /* \"#utility.yul\":13833:13855   */\n      add\n        /* \"#utility.yul\":13814:13865   */\n      tag_345\n      jump\t// in\n    tag_575:\n        /* \"#utility.yul\":13804:13865   */\n      swap3\n      pop\n        /* \"#utility.yul\":13759:13875   */\n      pop\n        /* \"#utility.yul\":13914:13916   */\n      0x40\n        /* \"#utility.yul\":13940:13993   */\n      tag_576\n        /* \"#utility.yul\":13985:13992   */\n      dup7\n        /* \"#utility.yul\":13976:13982   */\n      dup3\n        /* \"#utility.yul\":13965:13974   */\n      dup8\n        /* \"#utility.yul\":13961:13983   */\n      add\n        /* \"#utility.yul\":13940:13993   */\n      tag_342\n      jump\t// in\n    tag_576:\n        /* \"#utility.yul\":13930:13993   */\n      swap2\n      pop\n        /* \"#utility.yul\":13885:14003   */\n      pop\n        /* \"#utility.yul\":13395:14010   */\n      swap3\n      pop\n      swap3\n      pop\n      swap3\n      jump\t// out\n        /* \"#utility.yul\":14016:14134   */\n    tag_377:\n        /* \"#utility.yul\":14103:14127   */\n      tag_578\n        /* \"#utility.yul\":14121:14126   */\n      dup2\n        /* \"#utility.yul\":14103:14127   */\n      tag_336\n      jump\t// in\n    tag_578:\n        /* \"#utility.yul\":14098:14101   */\n      dup3\n        /* \"#utility.yul\":14091:14128   */\n      mstore\n        /* \"#utility.yul\":14016:14134   */\n      pop\n      pop\n      jump\t// out\n        /* \"#utility.yul\":14140:14309   */\n    tag_378:\n        /* \"#utility.yul\":14224:14235   */\n      0x00\n        /* \"#utility.yul\":14258:14264   */\n      dup3\n        /* \"#utility.yul\":14253:14256   */\n      dup3\n        /* \"#utility.yul\":14246:14265   */\n      mstore\n        /* \"#utility.yul\":14298:14302   */\n      0x20\n        /* \"#utility.yul\":14293:14296   */\n      dup3\n        /* \"#utility.yul\":14289:14303   */\n      add\n        /* \"#utility.yul\":14274:14303   */\n      swap1\n      pop\n        /* \"#utility.yul\":14140:14309   */\n      swap3\n      swap2\n      pop\n      pop\n      jump\t// out\n        /* \"#utility.yul\":14315:14692   */\n    tag_379:\n        /* \"#utility.yul\":14403:14406   */\n      0x00\n        /* \"#utility.yul\":14431:14470   */\n      tag_581\n        /* \"#utility.yul\":14464:14469   */\n      dup3\n        /* \"#utility.yul\":14431:14470   */\n      tag_365\n      jump\t// in\n    tag_581:\n        /* \"#utility.yul\":14486:14557   */\n      tag_582\n        /* \"#utility.yul\":14550:14556   */\n      dup2\n        /* \"#utility.yul\":14545:14548   */\n      dup6\n        /* \"#utility.yul\":14486:14557   */\n      tag_378\n      jump\t// in\n    tag_582:\n        /* \"#utility.yul\":14479:14557   */\n      swap4\n      pop\n        /* \"#utility.yul\":14566:14631   */\n      tag_583\n        /* \"#utility.yul\":14624:14630   */\n      dup2\n        /* \"#utility.yul\":14619:14622   */\n      dup6\n        /* \"#utility.yul\":14612:14616   */\n      0x20\n        /* \"#utility.yul\":14605:14610   */\n      dup7\n        /* \"#utility.yul\":14601:14617   */\n      add\n        /* \"#utility.yul\":14566:14631   */\n      tag_367\n      jump\t// in\n    tag_583:\n        /* \"#utility.yul\":14656:14685   */\n      tag_584\n        /* \"#utility.yul\":14678:14684   */\n      dup2\n        /* \"#utility.yul\":14656:14685   */\n      tag_348\n      jump\t// in\n    tag_584:\n        /* \"#utility.yul\":14651:14654   */\n      dup5\n        /* \"#utility.yul\":14647:14686   */\n      add\n        /* \"#utility.yul\":14640:14686   */\n      swap2\n      pop\n        /* \"#utility.yul\":14407:14692   */\n      pop\n        /* \"#utility.yul\":14315:14692   */\n      swap3\n      swap2\n      pop\n      pop\n      jump\t// out\n        /* \"#utility.yul\":14698:14807   */\n    tag_380:\n        /* \"#utility.yul\":14779:14800   */\n      tag_586\n        /* \"#utility.yul\":14794:14799   */\n      dup2\n        /* \"#utility.yul\":14779:14800   */\n      tag_369\n      jump\t// in\n    tag_586:\n        /* \"#utility.yul\":14774:14777   */\n      dup3\n        /* \"#utility.yul\":14767:14801   */\n      mstore\n        /* \"#utility.yul\":14698:14807   */\n      pop\n      pop\n      jump\t// out\n        /* \"#utility.yul\":14813:15556   */\n    tag_53:\n        /* \"#utility.yul\":15032:15036   */\n      0x00\n        /* \"#utility.yul\":15070:15073   */\n      0xa0\n        /* \"#utility.yul\":15059:15068   */\n      dup3\n        /* \"#utility.yul\":15055:15074   */\n      add\n        /* \"#utility.yul\":15047:15074   */\n      swap1\n      pop\n        /* \"#utility.yul\":15084:15155   */\n      tag_588\n        /* \"#utility.yul\":15152:15153   */\n      0x00\n        /* \"#utility.yul\":15141:15150   */\n      dup4\n        /* \"#utility.yul\":15137:15154   */\n      add\n        /* \"#utility.yul\":15128:15134   */\n      dup9\n        /* \"#utility.yul\":15084:15155   */\n      tag_377\n      jump\t// in\n    tag_588:\n        /* \"#utility.yul\":15165:15237   */\n      tag_589\n        /* \"#utility.yul\":15233:15235   */\n      0x20\n        /* \"#utility.yul\":15222:15231   */\n      dup4\n        /* \"#utility.yul\":15218:15236   */\n      add\n        /* \"#utility.yul\":15209:15215   */\n      dup8\n        /* \"#utility.yul\":15165:15237   */\n      tag_356\n      jump\t// in\n    tag_589:\n        /* \"#utility.yul\":15284:15293   */\n      dup2\n        /* \"#utility.yul\":15278:15282   */\n      dup2\n        /* \"#utility.yul\":15274:15294   */\n      sub\n        /* \"#utility.yul\":15269:15271   */\n      0x40\n        /* \"#utility.yul\":15258:15267   */\n      dup4\n        /* \"#utility.yul\":15254:15272   */\n      add\n        /* \"#utility.yul\":15247:15295   */\n      mstore\n        /* \"#utility.yul\":15312:15390   */\n      tag_590\n        /* \"#utility.yul\":15385:15389   */\n      dup2\n        /* \"#utility.yul\":15376:15382   */\n      dup7\n        /* \"#utility.yul\":15312:15390   */\n      tag_379\n      jump\t// in\n    tag_590:\n        /* \"#utility.yul\":15304:15390   */\n      swap1\n      pop\n        /* \"#utility.yul\":15400:15466   */\n      tag_591\n        /* \"#utility.yul\":15462:15464   */\n      0x60\n        /* \"#utility.yul\":15451:15460   */\n      dup4\n        /* \"#utility.yul\":15447:15465   */\n      add\n        /* \"#utility.yul\":15438:15444   */\n      dup6\n        /* \"#utility.yul\":15400:15466   */\n      tag_380\n      jump\t// in\n    tag_591:\n        /* \"#utility.yul\":15476:15549   */\n      tag_592\n        /* \"#utility.yul\":15544:15547   */\n      0x80\n        /* \"#utility.yul\":15533:15542   */\n      dup4\n        /* \"#utility.yul\":15529:15548   */\n      add\n        /* \"#utility.yul\":15520:15526   */\n      dup5\n        /* \"#utility.yul\":15476:15549   */\n      tag_356\n      jump\t// in\n    tag_592:\n        /* \"#utility.yul\":14813:15556   */\n      swap7\n      swap6\n      pop\n      pop\n      pop\n      pop\n      pop\n      pop\n      jump\t// out\n        /* \"#utility.yul\":15562:15784   */\n    tag_65:\n        /* \"#utility.yul\":15655:15659   */\n      0x00\n        /* \"#utility.yul\":15693:15695   */\n      0x20\n        /* \"#utility.yul\":15682:15691   */\n      dup3\n        /* \"#utility.yul\":15678:15696   */\n      add\n        /* \"#utility.yul\":15670:15696   */\n      swap1\n      pop\n        /* \"#utility.yul\":15706:15777   */\n      tag_594\n        /* \"#utility.yul\":15774:15775   */\n      0x00\n        /* \"#utility.yul\":15763:15772   */\n      dup4\n        /* \"#utility.yul\":15759:15776   */\n      add\n        /* \"#utility.yul\":15750:15756   */\n      dup5\n        /* \"#utility.yul\":15706:15777   */\n      tag_377\n      jump\t// in\n    tag_594:\n        /* \"#utility.yul\":15562:15784   */\n      swap3\n      swap2\n      pop\n      pop\n      jump\t// out\n        /* \"#utility.yul\":15790:16403   */\n    tag_69:\n        /* \"#utility.yul\":15864:15870   */\n      0x00\n        /* \"#utility.yul\":15872:15878   */\n      dup1\n        /* \"#utility.yul\":15880:15886   */\n      0x00\n        /* \"#utility.yul\":15929:15931   */\n      0x60\n        /* \"#utility.yul\":15917:15926   */\n      dup5\n        /* \"#utility.yul\":15908:15915   */\n      dup7\n        /* \"#utility.yul\":15904:15927   */\n      sub\n        /* \"#utility.yul\":15900:15932   */\n      slt\n        /* \"#utility.yul\":15897:16016   */\n      iszero\n      tag_596\n      jumpi\n        /* \"#utility.yul\":15935:16014   */\n      tag_597\n      tag_333\n      jump\t// in\n    tag_597:\n        /* \"#utility.yul\":15897:16016   */\n    tag_596:\n        /* \"#utility.yul\":16055:16056   */\n      0x00\n        /* \"#utility.yul\":16080:16132   */\n      tag_598\n        /* \"#utility.yul\":16124:16131   */\n      dup7\n        /* \"#utility.yul\":16115:16121   */\n      dup3\n        /* \"#utility.yul\":16104:16113   */\n      dup8\n        /* \"#utility.yul\":16100:16122   */\n      add\n        /* \"#utility.yul\":16080:16132   */\n      tag_359\n      jump\t// in\n    tag_598:\n        /* \"#utility.yul\":16070:16132   */\n      swap4\n      pop\n        /* \"#utility.yul\":16026:16142   */\n      pop\n        /* \"#utility.yul\":16181:16183   */\n      0x20\n        /* \"#utility.yul\":16207:16258   */\n      tag_599\n        /* \"#utility.yul\":16250:16257   */\n      dup7\n        /* \"#utility.yul\":16241:16247   */\n      dup3\n        /* \"#utility.yul\":16230:16239   */\n      dup8\n        /* \"#utility.yul\":16226:16248   */\n      add\n        /* \"#utility.yul\":16207:16258   */\n      tag_345\n      jump\t// in\n    tag_599:\n        /* \"#utility.yul\":16197:16258   */\n      swap3\n      pop\n        /* \"#utility.yul\":16152:16268   */\n      pop\n        /* \"#utility.yul\":16307:16309   */\n      0x40\n        /* \"#utility.yul\":16333:16386   */\n      tag_600\n        /* \"#utility.yul\":16378:16385   */\n      dup7\n        /* \"#utility.yul\":16369:16375   */\n      dup3\n        /* \"#utility.yul\":16358:16367   */\n      dup8\n        /* \"#utility.yul\":16354:16376   */\n      add\n        /* \"#utility.yul\":16333:16386   */\n      tag_342\n      jump\t// in\n    tag_600:\n        /* \"#utility.yul\":16323:16386   */\n      swap2\n      pop\n        /* \"#utility.yul\":16278:16396   */\n      pop\n        /* \"#utility.yul\":15790:16403   */\n      swap3\n      pop\n      swap3\n      pop\n      swap3\n      jump\t// out\n        /* \"#utility.yul\":16409:17251   */\n    tag_76:\n        /* \"#utility.yul\":16650:16654   */\n      0x00\n        /* \"#utility.yul\":16688:16691   */\n      0xc0\n        /* \"#utility.yul\":16677:16686   */\n      dup3\n        /* \"#utility.yul\":16673:16692   */\n      add\n        /* \"#utility.yul\":16665:16692   */\n      swap1\n      pop\n        /* \"#utility.yul\":16702:16773   */\n      tag_602\n        /* \"#utility.yul\":16770:16771   */\n      0x00\n        /* \"#utility.yul\":16759:16768   */\n      dup4\n        /* \"#utility.yul\":16755:16772   */\n      add\n        /* \"#utility.yul\":16746:16752   */\n      dup10\n        /* \"#utility.yul\":16702:16773   */\n      tag_377\n      jump\t// in\n    tag_602:\n        /* \"#utility.yul\":16783:16855   */\n      tag_603\n        /* \"#utility.yul\":16851:16853   */\n      0x20\n        /* \"#utility.yul\":16840:16849   */\n      dup4\n        /* \"#utility.yul\":16836:16854   */\n      add\n        /* \"#utility.yul\":16827:16833   */\n      dup9\n        /* \"#utility.yul\":16783:16855   */\n      tag_356\n      jump\t// in\n    tag_603:\n        /* \"#utility.yul\":16865:16937   */\n      tag_604\n        /* \"#utility.yul\":16933:16935   */\n      0x40\n        /* \"#utility.yul\":16922:16931   */\n      dup4\n        /* \"#utility.yul\":16918:16936   */\n      add\n        /* \"#utility.yul\":16909:16915   */\n      dup8\n        /* \"#utility.yul\":16865:16937   */\n      tag_356\n      jump\t// in\n    tag_604:\n        /* \"#utility.yul\":16984:16993   */\n      dup2\n        /* \"#utility.yul\":16978:16982   */\n      dup2\n        /* \"#utility.yul\":16974:16994   */\n      sub\n        /* \"#utility.yul\":16969:16971   */\n      0x60\n        /* \"#utility.yul\":16958:16967   */\n      dup4\n        /* \"#utility.yul\":16954:16972   */\n      add\n        /* \"#utility.yul\":16947:16995   */\n      mstore\n        /* \"#utility.yul\":17012:17090   */\n      tag_605\n        /* \"#utility.yul\":17085:17089   */\n      dup2\n        /* \"#utility.yul\":17076:17082   */\n      dup7\n        /* \"#utility.yul\":17012:17090   */\n      tag_379\n      jump\t// in\n    tag_605:\n        /* \"#utility.yul\":17004:17090   */\n      swap1\n      pop\n        /* \"#utility.yul\":17100:17167   */\n      tag_606\n        /* \"#utility.yul\":17162:17165   */\n      0x80\n        /* \"#utility.yul\":17151:17160   */\n      dup4\n        /* \"#utility.yul\":17147:17166   */\n      add\n        /* \"#utility.yul\":17138:17144   */\n      dup6\n        /* \"#utility.yul\":17100:17167   */\n      tag_380\n      jump\t// in\n    tag_606:\n        /* \"#utility.yul\":17177:17244   */\n      tag_607\n        /* \"#utility.yul\":17239:17242   */\n      0xa0\n        /* \"#utility.yul\":17228:17237   */\n      dup4\n        /* \"#utility.yul\":17224:17243   */\n      add\n        /* \"#utility.yul\":17215:17221   */\n      dup5\n        /* \"#utility.yul\":17177:17244   */\n      tag_380\n      jump\t// in\n    tag_607:\n        /* \"#utility.yul\":16409:17251   */\n      swap8\n      swap7\n      pop\n      pop\n      pop\n      pop\n      pop\n      pop\n      pop\n      jump\t// out\n        /* \"#utility.yul\":17257:17373   */\n    tag_381:\n        /* \"#utility.yul\":17327:17348   */\n      tag_609\n        /* \"#utility.yul\":17342:17347   */\n      dup2\n        /* \"#utility.yul\":17327:17348   */\n      tag_369\n      jump\t// in\n    tag_609:\n        /* \"#utility.yul\":17320:17325   */\n      dup2\n        /* \"#utility.yul\":17317:17349   */\n      eq\n        /* \"#utility.yul\":17307:17367   */\n      tag_610\n      jumpi\n        /* \"#utility.yul\":17363:17364   */\n      0x00\n        /* \"#utility.yul\":17360:17361   */\n      dup1\n        /* \"#utility.yul\":17353:17365   */\n      revert\n        /* \"#utility.yul\":17307:17367   */\n    tag_610:\n        /* \"#utility.yul\":17257:17373   */\n      pop\n      jump\t// out\n        /* \"#utility.yul\":17379:17512   */\n    tag_382:\n        /* \"#utility.yul\":17422:17427   */\n      0x00\n        /* \"#utility.yul\":17460:17466   */\n      dup2\n        /* \"#utility.yul\":17447:17467   */\n      calldataload\n        /* \"#utility.yul\":17438:17467   */\n      swap1\n      pop\n        /* \"#utility.yul\":17476:17506   */\n      tag_612\n        /* \"#utility.yul\":17500:17505   */\n      dup2\n        /* \"#utility.yul\":17476:17506   */\n      tag_381\n      jump\t// in\n    tag_612:\n        /* \"#utility.yul\":17379:17512   */\n      swap3\n      swap2\n      pop\n      pop\n      jump\t// out\n        /* \"#utility.yul\":17518:18271   */\n    tag_80:\n        /* \"#utility.yul\":17598:17604   */\n      0x00\n        /* \"#utility.yul\":17606:17612   */\n      dup1\n        /* \"#utility.yul\":17614:17620   */\n      0x00\n        /* \"#utility.yul\":17622:17628   */\n      dup1\n        /* \"#utility.yul\":17671:17674   */\n      0x80\n        /* \"#utility.yul\":17659:17668   */\n      dup6\n        /* \"#utility.yul\":17650:17657   */\n      dup8\n        /* \"#utility.yul\":17646:17669   */\n      sub\n        /* \"#utility.yul\":17642:17675   */\n      slt\n        /* \"#utility.yul\":17639:17759   */\n      iszero\n      tag_614\n      jumpi\n        /* \"#utility.yul\":17678:17757   */\n      tag_615\n      tag_333\n      jump\t// in\n    tag_615:\n        /* \"#utility.yul\":17639:17759   */\n    tag_614:\n        /* \"#utility.yul\":17798:17799   */\n      0x00\n        /* \"#utility.yul\":17823:17875   */\n      tag_616\n        /* \"#utility.yul\":17867:17874   */\n      dup8\n        /* \"#utility.yul\":17858:17864   */\n      dup3\n        /* \"#utility.yul\":17847:17856   */\n      dup9\n        /* \"#utility.yul\":17843:17865   */\n      add\n        /* \"#utility.yul\":17823:17875   */\n      tag_359\n      jump\t// in\n    tag_616:\n        /* \"#utility.yul\":17813:17875   */\n      swap5\n      pop\n        /* \"#utility.yul\":17769:17885   */\n      pop\n        /* \"#utility.yul\":17924:17926   */\n      0x20\n        /* \"#utility.yul\":17950:18001   */\n      tag_617\n        /* \"#utility.yul\":17993:18000   */\n      dup8\n        /* \"#utility.yul\":17984:17990   */\n      dup3\n        /* \"#utility.yul\":17973:17982   */\n      dup9\n        /* \"#utility.yul\":17969:17991   */\n      add\n        /* \"#utility.yul\":17950:18001   */\n      tag_345\n      jump\t// in\n    tag_617:\n        /* \"#utility.yul\":17940:18001   */\n      swap4\n      pop\n        /* \"#utility.yul\":17895:18011   */\n      pop\n        /* \"#utility.yul\":18050:18052   */\n      0x40\n        /* \"#utility.yul\":18076:18129   */\n      tag_618\n        /* \"#utility.yul\":18121:18128   */\n      dup8\n        /* \"#utility.yul\":18112:18118   */\n      dup3\n        /* \"#utility.yul\":18101:18110   */\n      dup9\n        /* \"#utility.yul\":18097:18119   */\n      add\n        /* \"#utility.yul\":18076:18129   */\n      tag_342\n      jump\t// in\n    tag_618:\n        /* \"#utility.yul\":18066:18129   */\n      swap3\n      pop\n        /* \"#utility.yul\":18021:18139   */\n      pop\n        /* \"#utility.yul\":18178:18180   */\n      0x60\n        /* \"#utility.yul\":18204:18254   */\n      tag_619\n        /* \"#utility.yul\":18246:18253   */\n      dup8\n        /* \"#utility.yul\":18237:18243   */\n      dup3\n        /* \"#utility.yul\":18226:18235   */\n      dup9\n        /* \"#utility.yul\":18222:18244   */\n      add\n        /* \"#utility.yul\":18204:18254   */\n      tag_382\n      jump\t// in\n    tag_619:\n        /* \"#utility.yul\":18194:18254   */\n      swap2\n      pop\n        /* \"#utility.yul\":18149:18264   */\n      pop\n        /* \"#utility.yul\":17518:18271   */\n      swap3\n      swap6\n      swap2\n      swap5\n      pop\n      swap3\n      pop\n      jump\t// out\n        /* \"#utility.yul\":18277:18745   */\n    tag_84:\n        /* \"#utility.yul\":18342:18348   */\n      0x00\n        /* \"#utility.yul\":18350:18356   */\n      dup1\n        /* \"#utility.yul\":18399:18401   */\n      0x40\n        /* \"#utility.yul\":18387:18396   */\n      dup4\n        /* \"#utility.yul\":18378:18385   */\n      dup6\n        /* \"#utility.yul\":18374:18397   */\n      sub\n        /* \"#utility.yul\":18370:18402   */\n      slt\n        /* \"#utility.yul\":18367:18486   */\n      iszero\n      tag_621\n      jumpi\n        /* \"#utility.yul\":18405:18484   */\n      tag_622\n      tag_333\n      jump\t// in\n    tag_622:\n        /* \"#utility.yul\":18367:18486   */\n    tag_621:\n        /* \"#utility.yul\":18525:18526   */\n      0x00\n        /* \"#utility.yul\":18550:18601   */\n      tag_623\n        /* \"#utility.yul\":18593:18600   */\n      dup6\n        /* \"#utility.yul\":18584:18590   */\n      dup3\n        /* \"#utility.yul\":18573:18582   */\n      dup7\n        /* \"#utility.yul\":18569:18591   */\n      add\n        /* \"#utility.yul\":18550:18601   */\n      tag_345\n      jump\t// in\n    tag_623:\n        /* \"#utility.yul\":18540:18601   */\n      swap3\n      pop\n        /* \"#utility.yul\":18496:18611   */\n      pop\n        /* \"#utility.yul\":18650:18652   */\n      0x20\n        /* \"#utility.yul\":18676:18728   */\n      tag_624\n        /* \"#utility.yul\":18720:18727   */\n      dup6\n        /* \"#utility.yul\":18711:18717   */\n      dup3\n        /* \"#utility.yul\":18700:18709   */\n      dup7\n        /* \"#utility.yul\":18696:18718   */\n      add\n        /* \"#utility.yul\":18676:18728   */\n      tag_359\n      jump\t// in\n    tag_624:\n        /* \"#utility.yul\":18666:18728   */\n      swap2\n      pop\n        /* \"#utility.yul\":18621:18738   */\n      pop\n        /* \"#utility.yul\":18277:18745   */\n      swap3\n      pop\n      swap3\n      swap1\n      pop\n      jump\t// out\n        /* \"#utility.yul\":18751:19080   */\n    tag_89:\n        /* \"#utility.yul\":18810:18816   */\n      0x00\n        /* \"#utility.yul\":18859:18861   */\n      0x20\n        /* \"#utility.yul\":18847:18856   */\n      dup3\n        /* \"#utility.yul\":18838:18845   */\n      dup5\n        /* \"#utility.yul\":18834:18857   */\n      sub\n        /* \"#utility.yul\":18830:18862   */\n      slt\n        /* \"#utility.yul\":18827:18946   */\n      iszero\n      tag_626\n      jumpi\n        /* \"#utility.yul\":18865:18944   */\n      tag_627\n      tag_333\n      jump\t// in\n    tag_627:\n        /* \"#utility.yul\":18827:18946   */\n    tag_626:\n        /* \"#utility.yul\":18985:18986   */\n      0x00\n        /* \"#utility.yul\":19010:19063   */\n      tag_628\n        /* \"#utility.yul\":19055:19062   */\n      dup5\n        /* \"#utility.yul\":19046:19052   */\n      dup3\n        /* \"#utility.yul\":19035:19044   */\n      dup6\n        /* \"#utility.yul\":19031:19053   */\n      add\n        /* \"#utility.yul\":19010:19063   */\n      tag_376\n      jump\t// in\n    tag_628:\n        /* \"#utility.yul\":19000:19063   */\n      swap2\n      pop\n        /* \"#utility.yul\":18956:19073   */\n      pop\n        /* \"#utility.yul\":18751:19080   */\n      swap3\n      swap2\n      pop\n      pop\n      jump\t// out\n        /* \"#utility.yul\":19086:19307   */\n    tag_383:\n        /* \"#utility.yul\":19226:19260   */\n      0x4d7573742070726f7669646520612076616c696420746f6b656e206164647265\n        /* \"#utility.yul\":19222:19223   */\n      0x00\n        /* \"#utility.yul\":19214:19220   */\n      dup3\n        /* \"#utility.yul\":19210:19224   */\n      add\n        /* \"#utility.yul\":19203:19261   */\n      mstore\n        /* \"#utility.yul\":19295:19299   */\n      0x7373000000000000000000000000000000000000000000000000000000000000\n        /* \"#utility.yul\":19290:19292   */\n      0x20\n        /* \"#utility.yul\":19282:19288   */\n      dup3\n        /* \"#utility.yul\":19278:19293   */\n      add\n        /* \"#utility.yul\":19271:19300   */\n      mstore\n        /* \"#utility.yul\":19086:19307   */\n      pop\n      jump\t// out\n        /* \"#utility.yul\":19313:19679   */\n    tag_384:\n        /* \"#utility.yul\":19455:19458   */\n      0x00\n        /* \"#utility.yul\":19476:19543   */\n      tag_631\n        /* \"#utility.yul\":19540:19542   */\n      0x22\n        /* \"#utility.yul\":19535:19538   */\n      dup4\n        /* \"#utility.yul\":19476:19543   */\n      tag_378\n      jump\t// in\n    tag_631:\n        /* \"#utility.yul\":19469:19543   */\n      swap2\n      pop\n        /* \"#utility.yul\":19552:19645   */\n      tag_632\n        /* \"#utility.yul\":19641:19644   */\n      dup3\n        /* \"#utility.yul\":19552:19645   */\n      tag_383\n      jump\t// in\n    tag_632:\n        /* \"#utility.yul\":19670:19672   */\n      0x40\n        /* \"#utility.yul\":19665:19668   */\n      dup3\n        /* \"#utility.yul\":19661:19673   */\n      add\n        /* \"#utility.yul\":19654:19673   */\n      swap1\n      pop\n        /* \"#utility.yul\":19313:19679   */\n      swap2\n      swap1\n      pop\n      jump\t// out\n        /* \"#utility.yul\":19685:20104   */\n    tag_97:\n        /* \"#utility.yul\":19851:19855   */\n      0x00\n        /* \"#utility.yul\":19889:19891   */\n      0x20\n        /* \"#utility.yul\":19878:19887   */\n      dup3\n        /* \"#utility.yul\":19874:19892   */\n      add\n        /* \"#utility.yul\":19866:19892   */\n      swap1\n      pop\n        /* \"#utility.yul\":19938:19947   */\n      dup2\n        /* \"#utility.yul\":19932:19936   */\n      dup2\n        /* \"#utility.yul\":19928:19948   */\n      sub\n        /* \"#utility.yul\":19924:19925   */\n      0x00\n        /* \"#utility.yul\":19913:19922   */\n      dup4\n        /* \"#utility.yul\":19909:19926   */\n      add\n        /* \"#utility.yul\":19902:19949   */\n      mstore\n        /* \"#utility.yul\":19966:20097   */\n      tag_634\n        /* \"#utility.yul\":20092:20096   */\n      dup2\n        /* \"#utility.yul\":19966:20097   */\n      tag_384\n      jump\t// in\n    tag_634:\n        /* \"#utility.yul\":19958:20097   */\n      swap1\n      pop\n        /* \"#utility.yul\":19685:20104   */\n      swap2\n      swap1\n      pop\n      jump\t// out\n        /* \"#utility.yul\":20110:20335   */\n    tag_385:\n        /* \"#utility.yul\":20250:20284   */\n      0x546f6b656e20616d6f756e74206d757374206265206772656174657220746865\n        /* \"#utility.yul\":20246:20247   */\n      0x00\n        /* \"#utility.yul\":20238:20244   */\n      dup3\n        /* \"#utility.yul\":20234:20248   */\n      add\n        /* \"#utility.yul\":20227:20285   */\n      mstore\n        /* \"#utility.yul\":20319:20327   */\n      0x6e207a65726f0000000000000000000000000000000000000000000000000000\n        /* \"#utility.yul\":20314:20316   */\n      0x20\n        /* \"#utility.yul\":20306:20312   */\n      dup3\n        /* \"#utility.yul\":20302:20317   */\n      add\n        /* \"#utility.yul\":20295:20328   */\n      mstore\n        /* \"#utility.yul\":20110:20335   */\n      pop\n      jump\t// out\n        /* \"#utility.yul\":20341:20707   */\n    tag_386:\n        /* \"#utility.yul\":20483:20486   */\n      0x00\n        /* \"#utility.yul\":20504:20571   */\n      tag_637\n        /* \"#utility.yul\":20568:20570   */\n      0x26\n        /* \"#utility.yul\":20563:20566   */\n      dup4\n        /* \"#utility.yul\":20504:20571   */\n      tag_378\n      jump\t// in\n    tag_637:\n        /* \"#utility.yul\":20497:20571   */\n      swap2\n      pop\n        /* \"#utility.yul\":20580:20673   */\n      tag_638\n        /* \"#utility.yul\":20669:20672   */\n      dup3\n        /* \"#utility.yul\":20580:20673   */\n      tag_385\n      jump\t// in\n    tag_638:\n        /* \"#utility.yul\":20698:20700   */\n      0x40\n        /* \"#utility.yul\":20693:20696   */\n      dup3\n        /* \"#utility.yul\":20689:20701   */\n      add\n        /* \"#utility.yul\":20682:20701   */\n      swap1\n      pop\n        /* \"#utility.yul\":20341:20707   */\n      swap2\n      swap1\n      pop\n      jump\t// out\n        /* \"#utility.yul\":20713:21132   */\n    tag_100:\n        /* \"#utility.yul\":20879:20883   */\n      0x00\n        /* \"#utility.yul\":20917:20919   */\n      0x20\n        /* \"#utility.yul\":20906:20915   */\n      dup3\n        /* \"#utility.yul\":20902:20920   */\n      add\n        /* \"#utility.yul\":20894:20920   */\n      swap1\n      pop\n        /* \"#utility.yul\":20966:20975   */\n      dup2\n        /* \"#utility.yul\":20960:20964   */\n      dup2\n        /* \"#utility.yul\":20956:20976   */\n      sub\n        /* \"#utility.yul\":20952:20953   */\n      0x00\n        /* \"#utility.yul\":20941:20950   */\n      dup4\n        /* \"#utility.yul\":20937:20954   */\n      add\n        /* \"#utility.yul\":20930:20977   */\n      mstore\n        /* \"#utility.yul\":20994:21125   */\n      tag_640\n        /* \"#utility.yul\":21120:21124   */\n      dup2\n        /* \"#utility.yul\":20994:21125   */\n      tag_386\n      jump\t// in\n    tag_640:\n        /* \"#utility.yul\":20986:21125   */\n      swap1\n      pop\n        /* \"#utility.yul\":20713:21132   */\n      swap2\n      swap1\n      pop\n      jump\t// out\n        /* \"#utility.yul\":21138:21366   */\n    tag_387:\n        /* \"#utility.yul\":21278:21312   */\n      0x546865206c6f636b20706572696f64206d757374206265206772656174657220\n        /* \"#utility.yul\":21274:21275   */\n      0x00\n        /* \"#utility.yul\":21266:21272   */\n      dup3\n        /* \"#utility.yul\":21262:21276   */\n      add\n        /* \"#utility.yul\":21255:21313   */\n      mstore\n        /* \"#utility.yul\":21347:21358   */\n      0x7468656e207a65726f0000000000000000000000000000000000000000000000\n        /* \"#utility.yul\":21342:21344   */\n      0x20\n        /* \"#utility.yul\":21334:21340   */\n      dup3\n        /* \"#utility.yul\":21330:21345   */\n      add\n        /* \"#utility.yul\":21323:21359   */\n      mstore\n        /* \"#utility.yul\":21138:21366   */\n      pop\n      jump\t// out\n        /* \"#utility.yul\":21372:21738   */\n    tag_388:\n        /* \"#utility.yul\":21514:21517   */\n      0x00\n        /* \"#utility.yul\":21535:21602   */\n      tag_643\n        /* \"#utility.yul\":21599:21601   */\n      0x29\n        /* \"#utility.yul\":21594:21597   */\n      dup4\n        /* \"#utility.yul\":21535:21602   */\n      tag_378\n      jump\t// in\n    tag_643:\n        /* \"#utility.yul\":21528:21602   */\n      swap2\n      pop\n        /* \"#utility.yul\":21611:21704   */\n      tag_644\n        /* \"#utility.yul\":21700:21703   */\n      dup3\n        /* \"#utility.yul\":21611:21704   */\n      tag_387\n      jump\t// in\n    tag_644:\n        /* \"#utility.yul\":21729:21731   */\n      0x40\n        /* \"#utility.yul\":21724:21727   */\n      dup3\n        /* \"#utility.yul\":21720:21732   */\n      add\n        /* \"#utility.yul\":21713:21732   */\n      swap1\n      pop\n        /* \"#utility.yul\":21372:21738   */\n      swap2\n      swap1\n      pop\n      jump\t// out\n        /* \"#utility.yul\":21744:22163   */\n    tag_103:\n        /* \"#utility.yul\":21910:21914   */\n      0x00\n        /* \"#utility.yul\":21948:21950   */\n      0x20\n        /* \"#utility.yul\":21937:21946   */\n      dup3\n        /* \"#utility.yul\":21933:21951   */\n      add\n        /* \"#utility.yul\":21925:21951   */\n      swap1\n      pop\n        /* \"#utility.yul\":21997:22006   */\n      dup2\n        /* \"#utility.yul\":21991:21995   */\n      dup2\n        /* \"#utility.yul\":21987:22007   */\n      sub\n        /* \"#utility.yul\":21983:21984   */\n      0x00\n        /* \"#utility.yul\":21972:21981   */\n      dup4\n        /* \"#utility.yul\":21968:21985   */\n      add\n        /* \"#utility.yul\":21961:22008   */\n      mstore\n        /* \"#utility.yul\":22025:22156   */\n      tag_646\n        /* \"#utility.yul\":22151:22155   */\n      dup2\n        /* \"#utility.yul\":22025:22156   */\n      tag_388\n      jump\t// in\n    tag_646:\n        /* \"#utility.yul\":22017:22156   */\n      swap1\n      pop\n        /* \"#utility.yul\":21744:22163   */\n      swap2\n      swap1\n      pop\n      jump\t// out\n        /* \"#utility.yul\":22169:22312   */\n    tag_389:\n        /* \"#utility.yul\":22226:22231   */\n      0x00\n        /* \"#utility.yul\":22257:22263   */\n      dup2\n        /* \"#utility.yul\":22251:22264   */\n      mload\n        /* \"#utility.yul\":22242:22264   */\n      swap1\n      pop\n        /* \"#utility.yul\":22273:22306   */\n      tag_648\n        /* \"#utility.yul\":22300:22305   */\n      dup2\n        /* \"#utility.yul\":22273:22306   */\n      tag_341\n      jump\t// in\n    tag_648:\n        /* \"#utility.yul\":22169:22312   */\n      swap3\n      swap2\n      pop\n      pop\n      jump\t// out\n        /* \"#utility.yul\":22318:22669   */\n    tag_108:\n        /* \"#utility.yul\":22388:22394   */\n      0x00\n        /* \"#utility.yul\":22437:22439   */\n      0x20\n        /* \"#utility.yul\":22425:22434   */\n      dup3\n        /* \"#utility.yul\":22416:22423   */\n      dup5\n        /* \"#utility.yul\":22412:22435   */\n      sub\n        /* \"#utility.yul\":22408:22440   */\n      slt\n        /* \"#utility.yul\":22405:22524   */\n      iszero\n      tag_650\n      jumpi\n        /* \"#utility.yul\":22443:22522   */\n      tag_651\n      tag_333\n      jump\t// in\n    tag_651:\n        /* \"#utility.yul\":22405:22524   */\n    tag_650:\n        /* \"#utility.yul\":22563:22564   */\n      0x00\n        /* \"#utility.yul\":22588:22652   */\n      tag_652\n        /* \"#utility.yul\":22644:22651   */\n      dup5\n        /* \"#utility.yul\":22635:22641   */\n      dup3\n        /* \"#utility.yul\":22624:22633   */\n      dup6\n        /* \"#utility.yul\":22620:22642   */\n      add\n        /* \"#utility.yul\":22588:22652   */\n      tag_389\n      jump\t// in\n    tag_652:\n        /* \"#utility.yul\":22578:22652   */\n      swap2\n      pop\n        /* \"#utility.yul\":22534:22662   */\n      pop\n        /* \"#utility.yul\":22318:22669   */\n      swap3\n      swap2\n      pop\n      pop\n      jump\t// out\n        /* \"#utility.yul\":22675:22850   */\n    tag_390:\n        /* \"#utility.yul\":22815:22842   */\n      0x4e6f7420656e6f75676820746f6b656e7320746f206c6f636b00000000000000\n        /* \"#utility.yul\":22811:22812   */\n      0x00\n        /* \"#utility.yul\":22803:22809   */\n      dup3\n        /* \"#utility.yul\":22799:22813   */\n      add\n        /* \"#utility.yul\":22792:22843   */\n      mstore\n        /* \"#utility.yul\":22675:22850   */\n      pop\n      jump\t// out\n        /* \"#utility.yul\":22856:23222   */\n    tag_391:\n        /* \"#utility.yul\":22998:23001   */\n      0x00\n        /* \"#utility.yul\":23019:23086   */\n      tag_655\n        /* \"#utility.yul\":23083:23085   */\n      0x19\n        /* \"#utility.yul\":23078:23081   */\n      dup4\n        /* \"#utility.yul\":23019:23086   */\n      tag_378\n      jump\t// in\n    tag_655:\n        /* \"#utility.yul\":23012:23086   */\n      swap2\n      pop\n        /* \"#utility.yul\":23095:23188   */\n      tag_656\n        /* \"#utility.yul\":23184:23187   */\n      dup3\n        /* \"#utility.yul\":23095:23188   */\n      tag_390\n      jump\t// in\n    tag_656:\n        /* \"#utility.yul\":23213:23215   */\n      0x20\n        /* \"#utility.yul\":23208:23211   */\n      dup3\n        /* \"#utility.yul\":23204:23216   */\n      add\n        /* \"#utility.yul\":23197:23216   */\n      swap1\n      pop\n        /* \"#utility.yul\":22856:23222   */\n      swap2\n      swap1\n      pop\n      jump\t// out\n        /* \"#utility.yul\":23228:23647   */\n    tag_111:\n        /* \"#utility.yul\":23394:23398   */\n      0x00\n        /* \"#utility.yul\":23432:23434   */\n      0x20\n        /* \"#utility.yul\":23421:23430   */\n      dup3\n        /* \"#utility.yul\":23417:23435   */\n      add\n        /* \"#utility.yul\":23409:23435   */\n      swap1\n      pop\n        /* \"#utility.yul\":23481:23490   */\n      dup2\n        /* \"#utility.yul\":23475:23479   */\n      dup2\n        /* \"#utility.yul\":23471:23491   */\n      sub\n        /* \"#utility.yul\":23467:23468   */\n      0x00\n        /* \"#utility.yul\":23456:23465   */\n      dup4\n        /* \"#utility.yul\":23452:23469   */\n      add\n        /* \"#utility.yul\":23445:23492   */\n      mstore\n        /* \"#utility.yul\":23509:23640   */\n      tag_658\n        /* \"#utility.yul\":23635:23639   */\n      dup2\n        /* \"#utility.yul\":23509:23640   */\n      tag_391\n      jump\t// in\n    tag_658:\n        /* \"#utility.yul\":23501:23640   */\n      swap1\n      pop\n        /* \"#utility.yul\":23228:23647   */\n      swap2\n      swap1\n      pop\n      jump\t// out\n        /* \"#utility.yul\":23653:23833   */\n    tag_392:\n        /* \"#utility.yul\":23701:23778   */\n      0x4e487b7100000000000000000000000000000000000000000000000000000000\n        /* \"#utility.yul\":23698:23699   */\n      0x00\n        /* \"#utility.yul\":23691:23779   */\n      mstore\n        /* \"#utility.yul\":23798:23802   */\n      0x11\n        /* \"#utility.yul\":23795:23796   */\n      0x04\n        /* \"#utility.yul\":23788:23803   */\n      mstore\n        /* \"#utility.yul\":23822:23826   */\n      0x24\n        /* \"#utility.yul\":23819:23820   */\n      0x00\n        /* \"#utility.yul\":23812:23827   */\n      revert\n        /* \"#utility.yul\":23839:24030   */\n    tag_115:\n        /* \"#utility.yul\":23879:23882   */\n      0x00\n        /* \"#utility.yul\":23898:23918   */\n      tag_661\n        /* \"#utility.yul\":23916:23917   */\n      dup3\n        /* \"#utility.yul\":23898:23918   */\n      tag_340\n      jump\t// in\n    tag_661:\n        /* \"#utility.yul\":23893:23918   */\n      swap2\n      pop\n        /* \"#utility.yul\":23932:23952   */\n      tag_662\n        /* \"#utility.yul\":23950:23951   */\n      dup4\n        /* \"#utility.yul\":23932:23952   */\n      tag_340\n      jump\t// in\n    tag_662:\n        /* \"#utility.yul\":23927:23952   */\n      swap3\n      pop\n        /* \"#utility.yul\":23975:23976   */\n      dup3\n        /* \"#utility.yul\":23972:23973   */\n      dup3\n        /* \"#utility.yul\":23968:23977   */\n      add\n        /* \"#utility.yul\":23961:23977   */\n      swap1\n      pop\n        /* \"#utility.yul\":23996:23999   */\n      dup1\n        /* \"#utility.yul\":23993:23994   */\n      dup3\n        /* \"#utility.yul\":23990:24000   */\n      gt\n        /* \"#utility.yul\":23987:24023   */\n      iszero\n      tag_663\n      jumpi\n        /* \"#utility.yul\":24003:24021   */\n      tag_664\n      tag_392\n      jump\t// in\n    tag_664:\n        /* \"#utility.yul\":23987:24023   */\n    tag_663:\n        /* \"#utility.yul\":23839:24030   */\n      swap3\n      swap2\n      pop\n      pop\n      jump\t// out\n        /* \"#utility.yul\":24036:24216   */\n    tag_393:\n        /* \"#utility.yul\":24084:24161   */\n      0x4e487b7100000000000000000000000000000000000000000000000000000000\n        /* \"#utility.yul\":24081:24082   */\n      0x00\n        /* \"#utility.yul\":24074:24162   */\n      mstore\n        /* \"#utility.yul\":24181:24185   */\n      0x22\n        /* \"#utility.yul\":24178:24179   */\n      0x04\n        /* \"#utility.yul\":24171:24186   */\n      mstore\n        /* \"#utility.yul\":24205:24209   */\n      0x24\n        /* \"#utility.yul\":24202:24203   */\n      0x00\n        /* \"#utility.yul\":24195:24210   */\n      revert\n        /* \"#utility.yul\":24222:24542   */\n    tag_165:\n        /* \"#utility.yul\":24266:24272   */\n      0x00\n        /* \"#utility.yul\":24303:24304   */\n      0x02\n        /* \"#utility.yul\":24297:24301   */\n      dup3\n        /* \"#utility.yul\":24293:24305   */\n      div\n        /* \"#utility.yul\":24283:24305   */\n      swap1\n      pop\n        /* \"#utility.yul\":24350:24351   */\n      0x01\n        /* \"#utility.yul\":24344:24348   */\n      dup3\n        /* \"#utility.yul\":24340:24352   */\n      and\n        /* \"#utility.yul\":24371:24389   */\n      dup1\n        /* \"#utility.yul\":24361:24442   */\n      tag_667\n      jumpi\n        /* \"#utility.yul\":24427:24431   */\n      0x7f\n        /* \"#utility.yul\":24419:24425   */\n      dup3\n        /* \"#utility.yul\":24415:24432   */\n      and\n        /* \"#utility.yul\":24405:24432   */\n      swap2\n      pop\n        /* \"#utility.yul\":24361:24442   */\n    tag_667:\n        /* \"#utility.yul\":24489:24491   */\n      0x20\n        /* \"#utility.yul\":24481:24487   */\n      dup3\n        /* \"#utility.yul\":24478:24492   */\n      lt\n        /* \"#utility.yul\":24458:24476   */\n      dup2\n        /* \"#utility.yul\":24455:24493   */\n      sub\n        /* \"#utility.yul\":24452:24536   */\n      tag_668\n      jumpi\n        /* \"#utility.yul\":24508:24526   */\n      tag_669\n      tag_393\n      jump\t// in\n    tag_669:\n        /* \"#utility.yul\":24452:24536   */\n    tag_668:\n        /* \"#utility.yul\":24273:24542   */\n      pop\n        /* \"#utility.yul\":24222:24542   */\n      swap2\n      swap1\n      pop\n      jump\t// out\n        /* \"#utility.yul\":24548:24689   */\n    tag_394:\n        /* \"#utility.yul\":24597:24601   */\n      0x00\n        /* \"#utility.yul\":24620:24623   */\n      dup2\n        /* \"#utility.yul\":24612:24623   */\n      swap1\n      pop\n        /* \"#utility.yul\":24643:24646   */\n      dup2\n        /* \"#utility.yul\":24640:24641   */\n      0x00\n        /* \"#utility.yul\":24633:24647   */\n      mstore\n        /* \"#utility.yul\":24677:24681   */\n      0x20\n        /* \"#utility.yul\":24674:24675   */\n      0x00\n        /* \"#utility.yul\":24664:24682   */\n      keccak256\n        /* \"#utility.yul\":24656:24682   */\n      swap1\n      pop\n        /* \"#utility.yul\":24548:24689   */\n      swap2\n      swap1\n      pop\n      jump\t// out\n        /* \"#utility.yul\":24695:24788   */\n    tag_395:\n        /* \"#utility.yul\":24732:24738   */\n      0x00\n        /* \"#utility.yul\":24779:24781   */\n      0x20\n        /* \"#utility.yul\":24774:24776   */\n      0x1f\n        /* \"#utility.yul\":24767:24772   */\n      dup4\n        /* \"#utility.yul\":24763:24777   */\n      add\n        /* \"#utility.yul\":24759:24782   */\n      div\n        /* \"#utility.yul\":24749:24782   */\n      swap1\n      pop\n        /* \"#utility.yul\":24695:24788   */\n      swap2\n      swap1\n      pop\n      jump\t// out\n        /* \"#utility.yul\":24794:24901   */\n    tag_396:\n        /* \"#utility.yul\":24838:24846   */\n      0x00\n        /* \"#utility.yul\":24888:24893   */\n      dup3\n        /* \"#utility.yul\":24882:24886   */\n      dup3\n        /* \"#utility.yul\":24878:24894   */\n      shl\n        /* \"#utility.yul\":24857:24894   */\n      swap1\n      pop\n        /* \"#utility.yul\":24794:24901   */\n      swap3\n      swap2\n      pop\n      pop\n      jump\t// out\n        /* \"#utility.yul\":24907:25300   */\n    tag_397:\n        /* \"#utility.yul\":24976:24982   */\n      0x00\n        /* \"#utility.yul\":25026:25027   */\n      0x08\n        /* \"#utility.yul\":25014:25024   */\n      dup4\n        /* \"#utility.yul\":25010:25028   */\n      mul\n        /* \"#utility.yul\":25049:25146   */\n      tag_674\n        /* \"#utility.yul\":25079:25145   */\n      0xffffffffffffffffffffffffffffffffffffffffffffffffffffffffffffffff\n        /* \"#utility.yul\":25068:25077   */\n      dup3\n        /* \"#utility.yul\":25049:25146   */\n      tag_396\n      jump\t// in\n    tag_674:\n        /* \"#utility.yul\":25167:25206   */\n      tag_675\n        /* \"#utility.yul\":25197:25205   */\n      dup7\n        /* \"#utility.yul\":25186:25195   */\n      dup4\n        /* \"#utility.yul\":25167:25206   */\n      tag_396\n      jump\t// in\n    tag_675:\n        /* \"#utility.yul\":25155:25206   */\n      swap6\n      pop\n        /* \"#utility.yul\":25239:25243   */\n      dup1\n        /* \"#utility.yul\":25235:25244   */\n      not\n        /* \"#utility.yul\":25228:25233   */\n      dup5\n        /* \"#utility.yul\":25224:25245   */\n      and\n        /* \"#utility.yul\":25215:25245   */\n      swap4\n      pop\n        /* \"#utility.yul\":25288:25292   */\n      dup1\n        /* \"#utility.yul\":25278:25286   */\n      dup7\n        /* \"#utility.yul\":25274:25293   */\n      and\n        /* \"#utility.yul\":25267:25272   */\n      dup5\n        /* \"#utility.yul\":25264:25294   */\n      or\n        /* \"#utility.yul\":25254:25294   */\n      swap3\n      pop\n        /* \"#utility.yul\":24983:25300   */\n      pop\n      pop\n        /* \"#utility.yul\":24907:25300   */\n      swap4\n      swap3\n      pop\n      pop\n      pop\n      jump\t// out\n        /* \"#utility.yul\":25306:25366   */\n    tag_398:\n        /* \"#utility.yul\":25334:25337   */\n      0x00\n        /* \"#utility.yul\":25355:25360   */\n      dup2\n        /* \"#utility.yul\":25348:25360   */\n      swap1\n      pop\n        /* \"#utility.yul\":25306:25366   */\n      swap2\n      swap1\n      pop\n      jump\t// out\n        /* \"#utility.yul\":25372:25514   */\n    tag_399:\n        /* \"#utility.yul\":25422:25431   */\n      0x00\n        /* \"#utility.yul\":25455:25508   */\n      tag_678\n        /* \"#utility.yul\":25473:25507   */\n      tag_679\n        /* \"#utility.yul\":25482:25506   */\n      tag_680\n        /* \"#utility.yul\":25500:25505   */\n      dup5\n        /* \"#utility.yul\":25482:25506   */\n      tag_340\n      jump\t// in\n    tag_680:\n        /* \"#utility.yul\":25473:25507   */\n      tag_398\n      jump\t// in\n    tag_679:\n        /* \"#utility.yul\":25455:25508   */\n      tag_340\n      jump\t// in\n    tag_678:\n        /* \"#utility.yul\":25442:25508   */\n      swap1\n      pop\n        /* \"#utility.yul\":25372:25514   */\n      swap2\n      swap1\n      pop\n      jump\t// out\n        /* \"#utility.yul\":25520:25595   */\n    tag_400:\n        /* \"#utility.yul\":25563:25566   */\n      0x00\n        /* \"#utility.yul\":25584:25589   */\n      dup2\n        /* \"#utility.yul\":25577:25589   */\n      swap1\n      pop\n        /* \"#utility.yul\":25520:25595   */\n      swap2\n      swap1\n      pop\n      jump\t// out\n        /* \"#utility.yul\":25601:25870   */\n    tag_401:\n        /* \"#utility.yul\":25711:25750   */\n      tag_683\n        /* \"#utility.yul\":25742:25749   */\n      dup4\n        /* \"#utility.yul\":25711:25750   */\n      tag_399\n      jump\t// in\n    tag_683:\n        /* \"#utility.yul\":25772:25863   */\n      tag_684\n        /* \"#utility.yul\":25821:25862   */\n      tag_685\n        /* \"#utility.yul\":25845:25861   */\n      dup3\n        /* \"#utility.yul\":25821:25862   */\n      tag_400\n      jump\t// in\n    tag_685:\n        /* \"#utility.yul\":25813:25819   */\n      dup5\n        /* \"#utility.yul\":25806:25810   */\n      dup5\n        /* \"#utility.yul\":25800:25811   */\n      sload\n        /* \"#utility.yul\":25772:25863   */\n      tag_397\n      jump\t// in\n    tag_684:\n        /* \"#utility.yul\":25766:25770   */\n      dup3\n        /* \"#utility.yul\":25759:25864   */\n      sstore\n        /* \"#utility.yul\":25677:25870   */\n      pop\n        /* \"#utility.yul\":25601:25870   */\n      pop\n      pop\n      pop\n      jump\t// out\n        /* \"#utility.yul\":25876:25949   */\n    tag_402:\n        /* \"#utility.yul\":25921:25924   */\n      0x00\n        /* \"#utility.yul\":25876:25949   */\n      swap1\n      jump\t// out\n        /* \"#utility.yul\":25955:26144   */\n    tag_403:\n        /* \"#utility.yul\":26032:26064   */\n      tag_688\n      tag_402\n      jump\t// in\n    tag_688:\n        /* \"#utility.yul\":26073:26138   */\n      tag_689\n        /* \"#utility.yul\":26131:26137   */\n      dup2\n        /* \"#utility.yul\":26123:26129   */\n      dup5\n        /* \"#utility.yul\":26117:26121   */\n      dup5\n        /* \"#utility.yul\":26073:26138   */\n      tag_401\n      jump\t// in\n    tag_689:\n        /* \"#utility.yul\":26008:26144   */\n      pop\n        /* \"#utility.yul\":25955:26144   */\n      pop\n      pop\n      jump\t// out\n        /* \"#utility.yul\":26150:26336   */\n    tag_404:\n        /* \"#utility.yul\":26210:26330   */\n    tag_691:\n        /* \"#utility.yul\":26227:26230   */\n      dup2\n        /* \"#utility.yul\":26220:26225   */\n      dup2\n        /* \"#utility.yul\":26217:26231   */\n      lt\n        /* \"#utility.yul\":26210:26330   */\n      iszero\n      tag_693\n      jumpi\n        /* \"#utility.yul\":26281:26320   */\n      tag_694\n        /* \"#utility.yul\":26318:26319   */\n      0x00\n        /* \"#utility.yul\":26311:26316   */\n      dup3\n        /* \"#utility.yul\":26281:26320   */\n      tag_403\n      jump\t// in\n    tag_694:\n        /* \"#utility.yul\":26254:26255   */\n      0x01\n        /* \"#utility.yul\":26247:26252   */\n      dup2\n        /* \"#utility.yul\":26243:26256   */\n      add\n        /* \"#utility.yul\":26234:26256   */\n      swap1\n      pop\n        /* \"#utility.yul\":26210:26330   */\n      jump(tag_691)\n    tag_693:\n        /* \"#utility.yul\":26150:26336   */\n      pop\n      pop\n      jump\t// out\n        /* \"#utility.yul\":26342:26885   */\n    tag_405:\n        /* \"#utility.yul\":26443:26445   */\n      0x1f\n        /* \"#utility.yul\":26438:26441   */\n      dup3\n        /* \"#utility.yul\":26435:26446   */\n      gt\n        /* \"#utility.yul\":26432:26878   */\n      iszero\n      tag_696\n      jumpi\n        /* \"#utility.yul\":26477:26515   */\n      tag_697\n        /* \"#utility.yul\":26509:26514   */\n      dup2\n        /* \"#utility.yul\":26477:26515   */\n      tag_394\n      jump\t// in\n    tag_697:\n        /* \"#utility.yul\":26561:26590   */\n      tag_698\n        /* \"#utility.yul\":26579:26589   */\n      dup5\n        /* \"#utility.yul\":26561:26590   */\n      tag_395\n      jump\t// in\n    tag_698:\n        /* \"#utility.yul\":26551:26559   */\n      dup2\n        /* \"#utility.yul\":26547:26591   */\n      add\n        /* \"#utility.yul\":26744:26746   */\n      0x20\n        /* \"#utility.yul\":26732:26742   */\n      dup6\n        /* \"#utility.yul\":26729:26747   */\n      lt\n        /* \"#utility.yul\":26726:26775   */\n      iszero\n      tag_699\n      jumpi\n        /* \"#utility.yul\":26765:26773   */\n      dup2\n        /* \"#utility.yul\":26750:26773   */\n      swap1\n      pop\n        /* \"#utility.yul\":26726:26775   */\n    tag_699:\n        /* \"#utility.yul\":26788:26868   */\n      tag_700\n        /* \"#utility.yul\":26844:26866   */\n      tag_701\n        /* \"#utility.yul\":26862:26865   */\n      dup6\n        /* \"#utility.yul\":26844:26866   */\n      tag_395\n      jump\t// in\n    tag_701:\n        /* \"#utility.yul\":26834:26842   */\n      dup4\n        /* \"#utility.yul\":26830:26867   */\n      add\n        /* \"#utility.yul\":26817:26828   */\n      dup3\n        /* \"#utility.yul\":26788:26868   */\n      tag_404\n      jump\t// in\n    tag_700:\n        /* \"#utility.yul\":26447:26878   */\n      pop\n      pop\n        /* \"#utility.yul\":26432:26878   */\n    tag_696:\n        /* \"#utility.yul\":26342:26885   */\n      pop\n      pop\n      pop\n      jump\t// out\n        /* \"#utility.yul\":26891:27008   */\n    tag_406:\n        /* \"#utility.yul\":26945:26953   */\n      0x00\n        /* \"#utility.yul\":26995:27000   */\n      dup3\n        /* \"#utility.yul\":26989:26993   */\n      dup3\n        /* \"#utility.yul\":26985:27001   */\n      shr\n        /* \"#utility.yul\":26964:27001   */\n      swap1\n      pop\n        /* \"#utility.yul\":26891:27008   */\n      swap3\n      swap2\n      pop\n      pop\n      jump\t// out\n        /* \"#utility.yul\":27014:27183   */\n    tag_407:\n        /* \"#utility.yul\":27058:27064   */\n      0x00\n        /* \"#utility.yul\":27091:27142   */\n      tag_704\n        /* \"#utility.yul\":27139:27140   */\n      0x00\n        /* \"#utility.yul\":27135:27141   */\n      not\n        /* \"#utility.yul\":27127:27132   */\n      dup5\n        /* \"#utility.yul\":27124:27125   */\n      0x08\n        /* \"#utility.yul\":27120:27133   */\n      mul\n        /* \"#utility.yul\":27091:27142   */\n      tag_406\n      jump\t// in\n    tag_704:\n        /* \"#utility.yul\":27087:27143   */\n      not\n        /* \"#utility.yul\":27172:27176   */\n      dup1\n        /* \"#utility.yul\":27166:27170   */\n      dup4\n        /* \"#utility.yul\":27162:27177   */\n      and\n        /* \"#utility.yul\":27152:27177   */\n      swap2\n      pop\n        /* \"#utility.yul\":27065:27183   */\n      pop\n        /* \"#utility.yul\":27014:27183   */\n      swap3\n      swap2\n      pop\n      pop\n      jump\t// out\n        /* \"#utility.yul\":27188:27483   */\n    tag_408:\n        /* \"#utility.yul\":27264:27268   */\n      0x00\n        /* \"#utility.yul\":27410:27439   */\n      tag_706\n        /* \"#utility.yul\":27435:27438   */\n      dup4\n        /* \"#utility.yul\":27429:27433   */\n      dup4\n        /* \"#utility.yul\":27410:27439   */\n      tag_407\n      jump\t// in\n    tag_706:\n        /* \"#utility.yul\":27402:27439   */\n      swap2\n      pop\n        /* \"#utility.yul\":27472:27475   */\n      dup3\n        /* \"#utility.yul\":27469:27470   */\n      0x02\n        /* \"#utility.yul\":27465:27476   */\n      mul\n        /* \"#utility.yul\":27459:27463   */\n      dup3\n        /* \"#utility.yul\":27456:27477   */\n      or\n        /* \"#utility.yul\":27448:27477   */\n      swap1\n      pop\n        /* \"#utility.yul\":27188:27483   */\n      swap3\n      swap2\n      pop\n      pop\n      jump\t// out\n        /* \"#utility.yul\":27488:28883   */\n    tag_118:\n        /* \"#utility.yul\":27605:27642   */\n      tag_708\n        /* \"#utility.yul\":27638:27641   */\n      dup3\n        /* \"#utility.yul\":27605:27642   */\n      tag_365\n      jump\t// in\n    tag_708:\n        /* \"#utility.yul\":27707:27725   */\n      0xffffffffffffffff\n        /* \"#utility.yul\":27699:27705   */\n      dup2\n        /* \"#utility.yul\":27696:27726   */\n      gt\n        /* \"#utility.yul\":27693:27749   */\n      iszero\n      tag_709\n      jumpi\n        /* \"#utility.yul\":27729:27747   */\n      tag_710\n      tag_349\n      jump\t// in\n    tag_710:\n        /* \"#utility.yul\":27693:27749   */\n    tag_709:\n        /* \"#utility.yul\":27773:27811   */\n      tag_711\n        /* \"#utility.yul\":27805:27809   */\n      dup3\n        /* \"#utility.yul\":27799:27810   */\n      sload\n        /* \"#utility.yul\":27773:27811   */\n      tag_165\n      jump\t// in\n    tag_711:\n        /* \"#utility.yul\":27858:27925   */\n      tag_712\n        /* \"#utility.yul\":27918:27924   */\n      dup3\n        /* \"#utility.yul\":27910:27916   */\n      dup3\n        /* \"#utility.yul\":27904:27908   */\n      dup6\n        /* \"#utility.yul\":27858:27925   */\n      tag_405\n      jump\t// in\n    tag_712:\n        /* \"#utility.yul\":27952:27953   */\n      0x00\n        /* \"#utility.yul\":27976:27980   */\n      0x20\n        /* \"#utility.yul\":27963:27980   */\n      swap1\n      pop\n        /* \"#utility.yul\":28008:28010   */\n      0x1f\n        /* \"#utility.yul\":28000:28006   */\n      dup4\n        /* \"#utility.yul\":27997:28011   */\n      gt\n        /* \"#utility.yul\":28025:28026   */\n      0x01\n        /* \"#utility.yul\":28020:28638   */\n      dup2\n      eq\n      tag_714\n      jumpi\n        /* \"#utility.yul\":28682:28683   */\n      0x00\n        /* \"#utility.yul\":28699:28705   */\n      dup5\n        /* \"#utility.yul\":28696:28773   */\n      iszero\n      tag_715\n      jumpi\n        /* \"#utility.yul\":28748:28757   */\n      dup3\n        /* \"#utility.yul\":28743:28746   */\n      dup8\n        /* \"#utility.yul\":28739:28758   */\n      add\n        /* \"#utility.yul\":28733:28759   */\n      mload\n        /* \"#utility.yul\":28724:28759   */\n      swap1\n      pop\n        /* \"#utility.yul\":28696:28773   */\n    tag_715:\n        /* \"#utility.yul\":28799:28866   */\n      tag_716\n        /* \"#utility.yul\":28859:28865   */\n      dup6\n        /* \"#utility.yul\":28852:28857   */\n      dup3\n        /* \"#utility.yul\":28799:28866   */\n      tag_408\n      jump\t// in\n    tag_716:\n        /* \"#utility.yul\":28793:28797   */\n      dup7\n        /* \"#utility.yul\":28786:28867   */\n      sstore\n        /* \"#utility.yul\":28655:28877   */\n      pop\n        /* \"#utility.yul\":27990:28877   */\n      jump(tag_713)\n        /* \"#utility.yul\":28020:28638   */\n    tag_714:\n        /* \"#utility.yul\":28072:28076   */\n      0x1f\n        /* \"#utility.yul\":28068:28077   */\n      not\n        /* \"#utility.yul\":28060:28066   */\n      dup5\n        /* \"#utility.yul\":28056:28078   */\n      and\n        /* \"#utility.yul\":28106:28143   */\n      tag_717\n        /* \"#utility.yul\":28138:28142   */\n      dup7\n        /* \"#utility.yul\":28106:28143   */\n      tag_394\n      jump\t// in\n    tag_717:\n        /* \"#utility.yul\":28165:28166   */\n      0x00\n        /* \"#utility.yul\":28179:28387   */\n    tag_718:\n        /* \"#utility.yul\":28193:28200   */\n      dup3\n        /* \"#utility.yul\":28190:28191   */\n      dup2\n        /* \"#utility.yul\":28187:28201   */\n      lt\n        /* \"#utility.yul\":28179:28387   */\n      iszero\n      tag_720\n      jumpi\n        /* \"#utility.yul\":28272:28281   */\n      dup5\n        /* \"#utility.yul\":28267:28270   */\n      dup10\n        /* \"#utility.yul\":28263:28282   */\n      add\n        /* \"#utility.yul\":28257:28283   */\n      mload\n        /* \"#utility.yul\":28249:28255   */\n      dup3\n        /* \"#utility.yul\":28242:28284   */\n      sstore\n        /* \"#utility.yul\":28323:28324   */\n      0x01\n        /* \"#utility.yul\":28315:28321   */\n      dup3\n        /* \"#utility.yul\":28311:28325   */\n      add\n        /* \"#utility.yul\":28301:28325   */\n      swap2\n      pop\n        /* \"#utility.yul\":28370:28372   */\n      0x20\n        /* \"#utility.yul\":28359:28368   */\n      dup6\n        /* \"#utility.yul\":28355:28373   */\n      add\n        /* \"#utility.yul\":28342:28373   */\n      swap5\n      pop\n        /* \"#utility.yul\":28216:28220   */\n      0x20\n        /* \"#utility.yul\":28213:28214   */\n      dup2\n        /* \"#utility.yul\":28209:28221   */\n      add\n        /* \"#utility.yul\":28204:28221   */\n      swap1\n      pop\n        /* \"#utility.yul\":28179:28387   */\n      jump(tag_718)\n    tag_720:\n        /* \"#utility.yul\":28415:28421   */\n      dup7\n        /* \"#utility.yul\":28406:28413   */\n      dup4\n        /* \"#utility.yul\":28403:28422   */\n      lt\n        /* \"#utility.yul\":28400:28579   */\n      iszero\n      tag_721\n      jumpi\n        /* \"#utility.yul\":28473:28482   */\n      dup5\n        /* \"#utility.yul\":28468:28471   */\n      dup10\n        /* \"#utility.yul\":28464:28483   */\n      add\n        /* \"#utility.yul\":28458:28484   */\n      mload\n        /* \"#utility.yul\":28516:28564   */\n      tag_722\n        /* \"#utility.yul\":28558:28562   */\n      0x1f\n        /* \"#utility.yul\":28550:28556   */\n      dup10\n        /* \"#utility.yul\":28546:28563   */\n      and\n        /* \"#utility.yul\":28535:28544   */\n      dup3\n        /* \"#utility.yul\":28516:28564   */\n      tag_407\n      jump\t// in\n    tag_722:\n        /* \"#utility.yul\":28508:28514   */\n      dup4\n        /* \"#utility.yul\":28501:28565   */\n      sstore\n        /* \"#utility.yul\":28423:28579   */\n      pop\n        /* \"#utility.yul\":28400:28579   */\n    tag_721:\n        /* \"#utility.yul\":28625:28626   */\n      0x01\n        /* \"#utility.yul\":28621:28622   */\n      0x02\n        /* \"#utility.yul\":28613:28619   */\n      dup9\n        /* \"#utility.yul\":28609:28623   */\n      mul\n        /* \"#utility.yul\":28605:28627   */\n      add\n        /* \"#utility.yul\":28599:28603   */\n      dup9\n        /* \"#utility.yul\":28592:28628   */\n      sstore\n        /* \"#utility.yul\":28027:28638   */\n      pop\n      pop\n      pop\n        /* \"#utility.yul\":27990:28877   */\n    tag_713:\n      pop\n        /* \"#utility.yul\":27580:28883   */\n      pop\n      pop\n      pop\n        /* \"#utility.yul\":27488:28883   */\n      pop\n      pop\n      jump\t// out\n        /* \"#utility.yul\":28889:29001   */\n    tag_409:\n        /* \"#utility.yul\":28972:28994   */\n      tag_724\n        /* \"#utility.yul\":28988:28993   */\n      dup2\n        /* \"#utility.yul\":28972:28994   */\n      tag_343\n      jump\t// in\n    tag_724:\n        /* \"#utility.yul\":28967:28970   */\n      dup3\n        /* \"#utility.yul\":28960:28995   */\n      mstore\n        /* \"#utility.yul\":28889:29001   */\n      pop\n      pop\n      jump\t// out\n        /* \"#utility.yul\":29007:29754   */\n    tag_123:\n        /* \"#utility.yul\":29228:29232   */\n      0x00\n        /* \"#utility.yul\":29266:29269   */\n      0xa0\n        /* \"#utility.yul\":29255:29264   */\n      dup3\n        /* \"#utility.yul\":29251:29270   */\n      add\n        /* \"#utility.yul\":29243:29270   */\n      swap1\n      pop\n        /* \"#utility.yul\":29280:29351   */\n      tag_726\n        /* \"#utility.yul\":29348:29349   */\n      0x00\n        /* \"#utility.yul\":29337:29346   */\n      dup4\n        /* \"#utility.yul\":29333:29350   */\n      add\n        /* \"#utility.yul\":29324:29330   */\n      dup9\n        /* \"#utility.yul\":29280:29351   */\n      tag_356\n      jump\t// in\n    tag_726:\n        /* \"#utility.yul\":29398:29407   */\n      dup2\n        /* \"#utility.yul\":29392:29396   */\n      dup2\n        /* \"#utility.yul\":29388:29408   */\n      sub\n        /* \"#utility.yul\":29383:29385   */\n      0x20\n        /* \"#utility.yul\":29372:29381   */\n      dup4\n        /* \"#utility.yul\":29368:29386   */\n      add\n        /* \"#utility.yul\":29361:29409   */\n      mstore\n        /* \"#utility.yul\":29426:29504   */\n      tag_727\n        /* \"#utility.yul\":29499:29503   */\n      dup2\n        /* \"#utility.yul\":29490:29496   */\n      dup8\n        /* \"#utility.yul\":29426:29504   */\n      tag_379\n      jump\t// in\n    tag_727:\n        /* \"#utility.yul\":29418:29504   */\n      swap1\n      pop\n        /* \"#utility.yul\":29514:29582   */\n      tag_728\n        /* \"#utility.yul\":29578:29580   */\n      0x40\n        /* \"#utility.yul\":29567:29576   */\n      dup4\n        /* \"#utility.yul\":29563:29581   */\n      add\n        /* \"#utility.yul\":29554:29560   */\n      dup7\n        /* \"#utility.yul\":29514:29582   */\n      tag_409\n      jump\t// in\n    tag_728:\n        /* \"#utility.yul\":29592:29664   */\n      tag_729\n        /* \"#utility.yul\":29660:29662   */\n      0x60\n        /* \"#utility.yul\":29649:29658   */\n      dup4\n        /* \"#utility.yul\":29645:29663   */\n      add\n        /* \"#utility.yul\":29636:29642   */\n      dup6\n        /* \"#utility.yul\":29592:29664   */\n      tag_356\n      jump\t// in\n    tag_729:\n        /* \"#utility.yul\":29674:29747   */\n      tag_730\n        /* \"#utility.yul\":29742:29745   */\n      0x80\n        /* \"#utility.yul\":29731:29740   */\n      dup4\n        /* \"#utility.yul\":29727:29746   */\n      add\n        /* \"#utility.yul\":29718:29724   */\n      dup5\n        /* \"#utility.yul\":29674:29747   */\n      tag_356\n      jump\t// in\n    tag_730:\n        /* \"#utility.yul\":29007:29754   */\n      swap7\n      swap6\n      pop\n      pop\n      pop\n      pop\n      pop\n      pop\n      jump\t// out\n        /* \"#utility.yul\":29760:29986   */\n    tag_410:\n        /* \"#utility.yul\":29900:29934   */\n      0x45544820746f206c6f636b206d75737420612076616c75652067726561746572\n        /* \"#utility.yul\":29896:29897   */\n      0x00\n        /* \"#utility.yul\":29888:29894   */\n      dup3\n        /* \"#utility.yul\":29884:29898   */\n      add\n        /* \"#utility.yul\":29877:29935   */\n      mstore\n        /* \"#utility.yul\":29969:29978   */\n      0x207468616e203000000000000000000000000000000000000000000000000000\n        /* \"#utility.yul\":29964:29966   */\n      0x20\n        /* \"#utility.yul\":29956:29962   */\n      dup3\n        /* \"#utility.yul\":29952:29967   */\n      add\n        /* \"#utility.yul\":29945:29979   */\n      mstore\n        /* \"#utility.yul\":29760:29986   */\n      pop\n      jump\t// out\n        /* \"#utility.yul\":29992:30358   */\n    tag_411:\n        /* \"#utility.yul\":30134:30137   */\n      0x00\n        /* \"#utility.yul\":30155:30222   */\n      tag_733\n        /* \"#utility.yul\":30219:30221   */\n      0x27\n        /* \"#utility.yul\":30214:30217   */\n      dup4\n        /* \"#utility.yul\":30155:30222   */\n      tag_378\n      jump\t// in\n    tag_733:\n        /* \"#utility.yul\":30148:30222   */\n      swap2\n      pop\n        /* \"#utility.yul\":30231:30324   */\n      tag_734\n        /* \"#utility.yul\":30320:30323   */\n      dup3\n        /* \"#utility.yul\":30231:30324   */\n      tag_410\n      jump\t// in\n    tag_734:\n        /* \"#utility.yul\":30349:30351   */\n      0x40\n        /* \"#utility.yul\":30344:30347   */\n      dup3\n        /* \"#utility.yul\":30340:30352   */\n      add\n        /* \"#utility.yul\":30333:30352   */\n      swap1\n      pop\n        /* \"#utility.yul\":29992:30358   */\n      swap2\n      swap1\n      pop\n      jump\t// out\n        /* \"#utility.yul\":30364:30783   */\n    tag_131:\n        /* \"#utility.yul\":30530:30534   */\n      0x00\n        /* \"#utility.yul\":30568:30570   */\n      0x20\n        /* \"#utility.yul\":30557:30566   */\n      dup3\n        /* \"#utility.yul\":30553:30571   */\n      add\n        /* \"#utility.yul\":30545:30571   */\n      swap1\n      pop\n        /* \"#utility.yul\":30617:30626   */\n      dup2\n        /* \"#utility.yul\":30611:30615   */\n      dup2\n        /* \"#utility.yul\":30607:30627   */\n      sub\n        /* \"#utility.yul\":30603:30604   */\n      0x00\n        /* \"#utility.yul\":30592:30601   */\n      dup4\n        /* \"#utility.yul\":30588:30605   */\n      add\n        /* \"#utility.yul\":30581:30628   */\n      mstore\n        /* \"#utility.yul\":30645:30776   */\n      tag_736\n        /* \"#utility.yul\":30771:30775   */\n      dup2\n        /* \"#utility.yul\":30645:30776   */\n      tag_411\n      jump\t// in\n    tag_736:\n        /* \"#utility.yul\":30637:30776   */\n      swap1\n      pop\n        /* \"#utility.yul\":30364:30783   */\n      swap2\n      swap1\n      pop\n      jump\t// out\n        /* \"#utility.yul\":30789:31016   */\n    tag_412:\n        /* \"#utility.yul\":30929:30963   */\n      0x546865206c6f636b706572696f64206d75737420626520677265617465722074\n        /* \"#utility.yul\":30925:30926   */\n      0x00\n        /* \"#utility.yul\":30917:30923   */\n      dup3\n        /* \"#utility.yul\":30913:30927   */\n      add\n        /* \"#utility.yul\":30906:30964   */\n      mstore\n        /* \"#utility.yul\":30998:31008   */\n      0x68656e207a65726f000000000000000000000000000000000000000000000000\n        /* \"#utility.yul\":30993:30995   */\n      0x20\n        /* \"#utility.yul\":30985:30991   */\n      dup3\n        /* \"#utility.yul\":30981:30996   */\n      add\n        /* \"#utility.yul\":30974:31009   */\n      mstore\n        /* \"#utility.yul\":30789:31016   */\n      pop\n      jump\t// out\n        /* \"#utility.yul\":31022:31388   */\n    tag_413:\n        /* \"#utility.yul\":31164:31167   */\n      0x00\n        /* \"#utility.yul\":31185:31252   */\n      tag_739\n        /* \"#utility.yul\":31249:31251   */\n      0x28\n        /* \"#utility.yul\":31244:31247   */\n      dup4\n        /* \"#utility.yul\":31185:31252   */\n      tag_378\n      jump\t// in\n    tag_739:\n        /* \"#utility.yul\":31178:31252   */\n      swap2\n      pop\n        /* \"#utility.yul\":31261:31354   */\n      tag_740\n        /* \"#utility.yul\":31350:31353   */\n      dup3\n        /* \"#utility.yul\":31261:31354   */\n      tag_412\n      jump\t// in\n    tag_740:\n        /* \"#utility.yul\":31379:31381   */\n      0x40\n        /* \"#utility.yul\":31374:31377   */\n      dup3\n        /* \"#utility.yul\":31370:31382   */\n      add\n        /* \"#utility.yul\":31363:31382   */\n      swap1\n      pop\n        /* \"#utility.yul\":31022:31388   */\n      swap2\n      swap1\n      pop\n      jump\t// out\n        /* \"#utility.yul\":31394:31813   */\n    tag_134:\n        /* \"#utility.yul\":31560:31564   */\n      0x00\n        /* \"#utility.yul\":31598:31600   */\n      0x20\n        /* \"#utility.yul\":31587:31596   */\n      dup3\n        /* \"#utility.yul\":31583:31601   */\n      add\n        /* \"#utility.yul\":31575:31601   */\n      swap1\n      pop\n        /* \"#utility.yul\":31647:31656   */\n      dup2\n        /* \"#utility.yul\":31641:31645   */\n      dup2\n        /* \"#utility.yul\":31637:31657   */\n      sub\n        /* \"#utility.yul\":31633:31634   */\n      0x00\n        /* \"#utility.yul\":31622:31631   */\n      dup4\n        /* \"#utility.yul\":31618:31635   */\n      add\n        /* \"#utility.yul\":31611:31658   */\n      mstore\n        /* \"#utility.yul\":31675:31806   */\n      tag_742\n        /* \"#utility.yul\":31801:31805   */\n      dup2\n        /* \"#utility.yul\":31675:31806   */\n      tag_413\n      jump\t// in\n    tag_742:\n        /* \"#utility.yul\":31667:31806   */\n      swap1\n      pop\n        /* \"#utility.yul\":31394:31813   */\n      swap2\n      swap1\n      pop\n      jump\t// out\n        /* \"#utility.yul\":31819:31999   */\n    tag_156:\n        /* \"#utility.yul\":31867:31944   */\n      0x4e487b7100000000000000000000000000000000000000000000000000000000\n        /* \"#utility.yul\":31864:31865   */\n      0x00\n        /* \"#utility.yul\":31857:31945   */\n      mstore\n        /* \"#utility.yul\":31964:31968   */\n      0x32\n        /* \"#utility.yul\":31961:31962   */\n      0x04\n        /* \"#utility.yul\":31954:31969   */\n      mstore\n        /* \"#utility.yul\":31988:31992   */\n      0x24\n        /* \"#utility.yul\":31985:31986   */\n      0x00\n        /* \"#utility.yul\":31978:31993   */\n      revert\n        /* \"#utility.yul\":32029:32860   */\n    tag_414:\n        /* \"#utility.yul\":32114:32117   */\n      0x00\n        /* \"#utility.yul\":32151:32156   */\n      dup2\n        /* \"#utility.yul\":32145:32157   */\n      sload\n        /* \"#utility.yul\":32180:32216   */\n      tag_745\n        /* \"#utility.yul\":32206:32215   */\n      dup2\n        /* \"#utility.yul\":32180:32216   */\n      tag_165\n      jump\t// in\n    tag_745:\n        /* \"#utility.yul\":32232:32303   */\n      tag_746\n        /* \"#utility.yul\":32296:32302   */\n      dup2\n        /* \"#utility.yul\":32291:32294   */\n      dup7\n        /* \"#utility.yul\":32232:32303   */\n      tag_378\n      jump\t// in\n    tag_746:\n        /* \"#utility.yul\":32225:32303   */\n      swap5\n      pop\n        /* \"#utility.yul\":32334:32335   */\n      0x01\n        /* \"#utility.yul\":32323:32332   */\n      dup3\n        /* \"#utility.yul\":32319:32336   */\n      and\n        /* \"#utility.yul\":32350:32351   */\n      0x00\n        /* \"#utility.yul\":32345:32509   */\n      dup2\n      eq\n      tag_748\n      jumpi\n        /* \"#utility.yul\":32523:32524   */\n      0x01\n        /* \"#utility.yul\":32518:32854   */\n      dup2\n      eq\n      tag_749\n      jumpi\n        /* \"#utility.yul\":32312:32854   */\n      jump(tag_747)\n        /* \"#utility.yul\":32345:32509   */\n    tag_748:\n        /* \"#utility.yul\":32429:32433   */\n      0xff\n        /* \"#utility.yul\":32425:32434   */\n      not\n        /* \"#utility.yul\":32414:32423   */\n      dup4\n        /* \"#utility.yul\":32410:32435   */\n      and\n        /* \"#utility.yul\":32405:32408   */\n      dup7\n        /* \"#utility.yul\":32398:32436   */\n      mstore\n        /* \"#utility.yul\":32489:32495   */\n      dup2\n        /* \"#utility.yul\":32482:32496   */\n      iszero\n        /* \"#utility.yul\":32475:32497   */\n      iszero\n        /* \"#utility.yul\":32469:32473   */\n      0x20\n        /* \"#utility.yul\":32465:32498   */\n      mul\n        /* \"#utility.yul\":32460:32463   */\n      dup7\n        /* \"#utility.yul\":32456:32499   */\n      add\n        /* \"#utility.yul\":32449:32499   */\n      swap4\n      pop\n        /* \"#utility.yul\":32345:32509   */\n      jump(tag_747)\n        /* \"#utility.yul\":32518:32854   */\n    tag_749:\n        /* \"#utility.yul\":32585:32623   */\n      tag_750\n        /* \"#utility.yul\":32617:32622   */\n      dup6\n        /* \"#utility.yul\":32585:32623   */\n      tag_394\n      jump\t// in\n    tag_750:\n        /* \"#utility.yul\":32645:32646   */\n      0x00\n        /* \"#utility.yul\":32659:32813   */\n    tag_751:\n        /* \"#utility.yul\":32673:32679   */\n      dup4\n        /* \"#utility.yul\":32670:32671   */\n      dup2\n        /* \"#utility.yul\":32667:32680   */\n      lt\n        /* \"#utility.yul\":32659:32813   */\n      iszero\n      tag_753\n      jumpi\n        /* \"#utility.yul\":32747:32754   */\n      dup2\n        /* \"#utility.yul\":32741:32755   */\n      sload\n        /* \"#utility.yul\":32737:32738   */\n      dup2\n        /* \"#utility.yul\":32732:32735   */\n      dup10\n        /* \"#utility.yul\":32728:32739   */\n      add\n        /* \"#utility.yul\":32721:32756   */\n      mstore\n        /* \"#utility.yul\":32797:32798   */\n      0x01\n        /* \"#utility.yul\":32788:32795   */\n      dup3\n        /* \"#utility.yul\":32784:32799   */\n      add\n        /* \"#utility.yul\":32773:32799   */\n      swap2\n      pop\n        /* \"#utility.yul\":32695:32699   */\n      0x20\n        /* \"#utility.yul\":32692:32693   */\n      dup2\n        /* \"#utility.yul\":32688:32700   */\n      add\n        /* \"#utility.yul\":32683:32700   */\n      swap1\n      pop\n        /* \"#utility.yul\":32659:32813   */\n      jump(tag_751)\n    tag_753:\n        /* \"#utility.yul\":32842:32843   */\n      dup1\n        /* \"#utility.yul\":32837:32840   */\n      dup9\n        /* \"#utility.yul\":32833:32844   */\n      add\n        /* \"#utility.yul\":32826:32844   */\n      swap6\n      pop\n        /* \"#utility.yul\":32525:32854   */\n      pop\n      pop\n        /* \"#utility.yul\":32312:32854   */\n    tag_747:\n      pop\n        /* \"#utility.yul\":32118:32860   */\n      pop\n      pop\n        /* \"#utility.yul\":32029:32860   */\n      swap3\n      swap2\n      pop\n      pop\n      jump\t// out\n        /* \"#utility.yul\":32866:33496   */\n    tag_171:\n        /* \"#utility.yul\":33056:33060   */\n      0x00\n        /* \"#utility.yul\":33094:33097   */\n      0x80\n        /* \"#utility.yul\":33083:33092   */\n      dup3\n        /* \"#utility.yul\":33079:33098   */\n      add\n        /* \"#utility.yul\":33071:33098   */\n      swap1\n      pop\n        /* \"#utility.yul\":33108:33179   */\n      tag_755\n        /* \"#utility.yul\":33176:33177   */\n      0x00\n        /* \"#utility.yul\":33165:33174   */\n      dup4\n        /* \"#utility.yul\":33161:33178   */\n      add\n        /* \"#utility.yul\":33152:33158   */\n      dup8\n        /* \"#utility.yul\":33108:33179   */\n      tag_356\n      jump\t// in\n    tag_755:\n        /* \"#utility.yul\":33226:33235   */\n      dup2\n        /* \"#utility.yul\":33220:33224   */\n      dup2\n        /* \"#utility.yul\":33216:33236   */\n      sub\n        /* \"#utility.yul\":33211:33213   */\n      0x20\n        /* \"#utility.yul\":33200:33209   */\n      dup4\n        /* \"#utility.yul\":33196:33214   */\n      add\n        /* \"#utility.yul\":33189:33237   */\n      mstore\n        /* \"#utility.yul\":33254:33329   */\n      tag_756\n        /* \"#utility.yul\":33324:33328   */\n      dup2\n        /* \"#utility.yul\":33315:33321   */\n      dup7\n        /* \"#utility.yul\":33254:33329   */\n      tag_414\n      jump\t// in\n    tag_756:\n        /* \"#utility.yul\":33246:33329   */\n      swap1\n      pop\n        /* \"#utility.yul\":33339:33407   */\n      tag_757\n        /* \"#utility.yul\":33403:33405   */\n      0x40\n        /* \"#utility.yul\":33392:33401   */\n      dup4\n        /* \"#utility.yul\":33388:33406   */\n      add\n        /* \"#utility.yul\":33379:33385   */\n      dup6\n        /* \"#utility.yul\":33339:33407   */\n      tag_409\n      jump\t// in\n    tag_757:\n        /* \"#utility.yul\":33417:33489   */\n      tag_758\n        /* \"#utility.yul\":33485:33487   */\n      0x60\n        /* \"#utility.yul\":33474:33483   */\n      dup4\n        /* \"#utility.yul\":33470:33488   */\n      add\n        /* \"#utility.yul\":33461:33467   */\n      dup5\n        /* \"#utility.yul\":33417:33489   */\n      tag_356\n      jump\t// in\n    tag_758:\n        /* \"#utility.yul\":32866:33496   */\n      swap6\n      swap5\n      pop\n      pop\n      pop\n      pop\n      pop\n      jump\t// out\n        /* \"#utility.yul\":33502:33723   */\n    tag_415:\n        /* \"#utility.yul\":33642:33676   */\n      0x5468652073706563696669656420617373657420494420697320696e76616c69\n        /* \"#utility.yul\":33638:33639   */\n      0x00\n        /* \"#utility.yul\":33630:33636   */\n      dup3\n        /* \"#utility.yul\":33626:33640   */\n      add\n        /* \"#utility.yul\":33619:33677   */\n      mstore\n        /* \"#utility.yul\":33711:33715   */\n      0x642e000000000000000000000000000000000000000000000000000000000000\n        /* \"#utility.yul\":33706:33708   */\n      0x20\n        /* \"#utility.yul\":33698:33704   */\n      dup3\n        /* \"#utility.yul\":33694:33709   */\n      add\n        /* \"#utility.yul\":33687:33716   */\n      mstore\n        /* \"#utility.yul\":33502:33723   */\n      pop\n      jump\t// out\n        /* \"#utility.yul\":33729:34095   */\n    tag_416:\n        /* \"#utility.yul\":33871:33874   */\n      0x00\n        /* \"#utility.yul\":33892:33959   */\n      tag_761\n        /* \"#utility.yul\":33956:33958   */\n      0x22\n        /* \"#utility.yul\":33951:33954   */\n      dup4\n        /* \"#utility.yul\":33892:33959   */\n      tag_378\n      jump\t// in\n    tag_761:\n        /* \"#utility.yul\":33885:33959   */\n      swap2\n      pop\n        /* \"#utility.yul\":33968:34061   */\n      tag_762\n        /* \"#utility.yul\":34057:34060   */\n      dup3\n        /* \"#utility.yul\":33968:34061   */\n      tag_415\n      jump\t// in\n    tag_762:\n        /* \"#utility.yul\":34086:34088   */\n      0x40\n        /* \"#utility.yul\":34081:34084   */\n      dup3\n        /* \"#utility.yul\":34077:34089   */\n      add\n        /* \"#utility.yul\":34070:34089   */\n      swap1\n      pop\n        /* \"#utility.yul\":33729:34095   */\n      swap2\n      swap1\n      pop\n      jump\t// out\n        /* \"#utility.yul\":34101:34520   */\n    tag_203:\n        /* \"#utility.yul\":34267:34271   */\n      0x00\n        /* \"#utility.yul\":34305:34307   */\n      0x20\n        /* \"#utility.yul\":34294:34303   */\n      dup3\n        /* \"#utility.yul\":34290:34308   */\n      add\n        /* \"#utility.yul\":34282:34308   */\n      swap1\n      pop\n        /* \"#utility.yul\":34354:34363   */\n      dup2\n        /* \"#utility.yul\":34348:34352   */\n      dup2\n        /* \"#utility.yul\":34344:34364   */\n      sub\n        /* \"#utility.yul\":34340:34341   */\n      0x00\n        /* \"#utility.yul\":34329:34338   */\n      dup4\n        /* \"#utility.yul\":34325:34342   */\n      add\n        /* \"#utility.yul\":34318:34365   */\n      mstore\n        /* \"#utility.yul\":34382:34513   */\n      tag_764\n        /* \"#utility.yul\":34508:34512   */\n      dup2\n        /* \"#utility.yul\":34382:34513   */\n      tag_416\n      jump\t// in\n    tag_764:\n        /* \"#utility.yul\":34374:34513   */\n      swap1\n      pop\n        /* \"#utility.yul\":34101:34520   */\n      swap2\n      swap1\n      pop\n      jump\t// out\n        /* \"#utility.yul\":34526:34749   */\n    tag_417:\n        /* \"#utility.yul\":34666:34700   */\n      0x546865206c6f636b20706572696f6420686173206e6f74207965742065787069\n        /* \"#utility.yul\":34662:34663   */\n      0x00\n        /* \"#utility.yul\":34654:34660   */\n      dup3\n        /* \"#utility.yul\":34650:34664   */\n      add\n        /* \"#utility.yul\":34643:34701   */\n      mstore\n        /* \"#utility.yul\":34735:34741   */\n      0x7265642100000000000000000000000000000000000000000000000000000000\n        /* \"#utility.yul\":34730:34732   */\n      0x20\n        /* \"#utility.yul\":34722:34728   */\n      dup3\n        /* \"#utility.yul\":34718:34733   */\n      add\n        /* \"#utility.yul\":34711:34742   */\n      mstore\n        /* \"#utility.yul\":34526:34749   */\n      pop\n      jump\t// out\n        /* \"#utility.yul\":34755:35121   */\n    tag_418:\n        /* \"#utility.yul\":34897:34900   */\n      0x00\n        /* \"#utility.yul\":34918:34985   */\n      tag_767\n        /* \"#utility.yul\":34982:34984   */\n      0x24\n        /* \"#utility.yul\":34977:34980   */\n      dup4\n        /* \"#utility.yul\":34918:34985   */\n      tag_378\n      jump\t// in\n    tag_767:\n        /* \"#utility.yul\":34911:34985   */\n      swap2\n      pop\n        /* \"#utility.yul\":34994:35087   */\n      tag_768\n        /* \"#utility.yul\":35083:35086   */\n      dup3\n        /* \"#utility.yul\":34994:35087   */\n      tag_417\n      jump\t// in\n    tag_768:\n        /* \"#utility.yul\":35112:35114   */\n      0x40\n        /* \"#utility.yul\":35107:35110   */\n      dup3\n        /* \"#utility.yul\":35103:35115   */\n      add\n        /* \"#utility.yul\":35096:35115   */\n      swap1\n      pop\n        /* \"#utility.yul\":34755:35121   */\n      swap2\n      swap1\n      pop\n      jump\t// out\n        /* \"#utility.yul\":35127:35546   */\n    tag_206:\n        /* \"#utility.yul\":35293:35297   */\n      0x00\n        /* \"#utility.yul\":35331:35333   */\n      0x20\n        /* \"#utility.yul\":35320:35329   */\n      dup3\n        /* \"#utility.yul\":35316:35334   */\n      add\n        /* \"#utility.yul\":35308:35334   */\n      swap1\n      pop\n        /* \"#utility.yul\":35380:35389   */\n      dup2\n        /* \"#utility.yul\":35374:35378   */\n      dup2\n        /* \"#utility.yul\":35370:35390   */\n      sub\n        /* \"#utility.yul\":35366:35367   */\n      0x00\n        /* \"#utility.yul\":35355:35364   */\n      dup4\n        /* \"#utility.yul\":35351:35368   */\n      add\n        /* \"#utility.yul\":35344:35391   */\n      mstore\n        /* \"#utility.yul\":35408:35539   */\n      tag_770\n        /* \"#utility.yul\":35534:35538   */\n      dup2\n        /* \"#utility.yul\":35408:35539   */\n      tag_418\n      jump\t// in\n    tag_770:\n        /* \"#utility.yul\":35400:35539   */\n      swap1\n      pop\n        /* \"#utility.yul\":35127:35546   */\n      swap2\n      swap1\n      pop\n      jump\t// out\n        /* \"#utility.yul\":35552:36182   */\n    tag_212:\n        /* \"#utility.yul\":35742:35746   */\n      0x00\n        /* \"#utility.yul\":35780:35783   */\n      0x80\n        /* \"#utility.yul\":35769:35778   */\n      dup3\n        /* \"#utility.yul\":35765:35784   */\n      add\n        /* \"#utility.yul\":35757:35784   */\n      swap1\n      pop\n        /* \"#utility.yul\":35794:35861   */\n      tag_772\n        /* \"#utility.yul\":35858:35859   */\n      0x00\n        /* \"#utility.yul\":35847:35856   */\n      dup4\n        /* \"#utility.yul\":35843:35860   */\n      add\n        /* \"#utility.yul\":35834:35840   */\n      dup8\n        /* \"#utility.yul\":35794:35861   */\n      tag_409\n      jump\t// in\n    tag_772:\n        /* \"#utility.yul\":35871:35943   */\n      tag_773\n        /* \"#utility.yul\":35939:35941   */\n      0x20\n        /* \"#utility.yul\":35928:35937   */\n      dup4\n        /* \"#utility.yul\":35924:35942   */\n      add\n        /* \"#utility.yul\":35915:35921   */\n      dup7\n        /* \"#utility.yul\":35871:35943   */\n      tag_356\n      jump\t// in\n    tag_773:\n        /* \"#utility.yul\":35990:35999   */\n      dup2\n        /* \"#utility.yul\":35984:35988   */\n      dup2\n        /* \"#utility.yul\":35980:36000   */\n      sub\n        /* \"#utility.yul\":35975:35977   */\n      0x40\n        /* \"#utility.yul\":35964:35973   */\n      dup4\n        /* \"#utility.yul\":35960:35978   */\n      add\n        /* \"#utility.yul\":35953:36001   */\n      mstore\n        /* \"#utility.yul\":36018:36093   */\n      tag_774\n        /* \"#utility.yul\":36088:36092   */\n      dup2\n        /* \"#utility.yul\":36079:36085   */\n      dup6\n        /* \"#utility.yul\":36018:36093   */\n      tag_414\n      jump\t// in\n    tag_774:\n        /* \"#utility.yul\":36010:36093   */\n      swap1\n      pop\n        /* \"#utility.yul\":36103:36175   */\n      tag_775\n        /* \"#utility.yul\":36171:36173   */\n      0x60\n        /* \"#utility.yul\":36160:36169   */\n      dup4\n        /* \"#utility.yul\":36156:36174   */\n      add\n        /* \"#utility.yul\":36147:36153   */\n      dup5\n        /* \"#utility.yul\":36103:36175   */\n      tag_356\n      jump\t// in\n    tag_775:\n        /* \"#utility.yul\":35552:36182   */\n      swap6\n      swap5\n      pop\n      pop\n      pop\n      pop\n      pop\n      jump\t// out\n        /* \"#utility.yul\":36188:36410   */\n    tag_419:\n        /* \"#utility.yul\":36328:36362   */\n      0x417373657473206861766520616c7265616479206265656e2077697468647261\n        /* \"#utility.yul\":36324:36325   */\n      0x00\n        /* \"#utility.yul\":36316:36322   */\n      dup3\n        /* \"#utility.yul\":36312:36326   */\n      add\n        /* \"#utility.yul\":36305:36363   */\n      mstore\n        /* \"#utility.yul\":36397:36402   */\n      0x776e210000000000000000000000000000000000000000000000000000000000\n        /* \"#utility.yul\":36392:36394   */\n      0x20\n        /* \"#utility.yul\":36384:36390   */\n      dup3\n        /* \"#utility.yul\":36380:36395   */\n      add\n        /* \"#utility.yul\":36373:36403   */\n      mstore\n        /* \"#utility.yul\":36188:36410   */\n      pop\n      jump\t// out\n        /* \"#utility.yul\":36416:36782   */\n    tag_420:\n        /* \"#utility.yul\":36558:36561   */\n      0x00\n        /* \"#utility.yul\":36579:36646   */\n      tag_778\n        /* \"#utility.yul\":36643:36645   */\n      0x23\n        /* \"#utility.yul\":36638:36641   */\n      dup4\n        /* \"#utility.yul\":36579:36646   */\n      tag_378\n      jump\t// in\n    tag_778:\n        /* \"#utility.yul\":36572:36646   */\n      swap2\n      pop\n        /* \"#utility.yul\":36655:36748   */\n      tag_779\n        /* \"#utility.yul\":36744:36747   */\n      dup3\n        /* \"#utility.yul\":36655:36748   */\n      tag_419\n      jump\t// in\n    tag_779:\n        /* \"#utility.yul\":36773:36775   */\n      0x40\n        /* \"#utility.yul\":36768:36771   */\n      dup3\n        /* \"#utility.yul\":36764:36776   */\n      add\n        /* \"#utility.yul\":36757:36776   */\n      swap1\n      pop\n        /* \"#utility.yul\":36416:36782   */\n      swap2\n      swap1\n      pop\n      jump\t// out\n        /* \"#utility.yul\":36788:37207   */\n    tag_230:\n        /* \"#utility.yul\":36954:36958   */\n      0x00\n        /* \"#utility.yul\":36992:36994   */\n      0x20\n        /* \"#utility.yul\":36981:36990   */\n      dup3\n        /* \"#utility.yul\":36977:36995   */\n      add\n        /* \"#utility.yul\":36969:36995   */\n      swap1\n      pop\n        /* \"#utility.yul\":37041:37050   */\n      dup2\n        /* \"#utility.yul\":37035:37039   */\n      dup2\n        /* \"#utility.yul\":37031:37051   */\n      sub\n        /* \"#utility.yul\":37027:37028   */\n      0x00\n        /* \"#utility.yul\":37016:37025   */\n      dup4\n        /* \"#utility.yul\":37012:37029   */\n      add\n        /* \"#utility.yul\":37005:37052   */\n      mstore\n        /* \"#utility.yul\":37069:37200   */\n      tag_781\n        /* \"#utility.yul\":37195:37199   */\n      dup2\n        /* \"#utility.yul\":37069:37200   */\n      tag_420\n      jump\t// in\n    tag_781:\n        /* \"#utility.yul\":37061:37200   */\n      swap1\n      pop\n        /* \"#utility.yul\":36788:37207   */\n      swap2\n      swap1\n      pop\n      jump\t// out\n        /* \"#utility.yul\":37213:37393   */\n    tag_421:\n        /* \"#utility.yul\":37353:37385   */\n      0x4e6f7420656e6f7567682061737365747320746f207769746864726177210000\n        /* \"#utility.yul\":37349:37350   */\n      0x00\n        /* \"#utility.yul\":37341:37347   */\n      dup3\n        /* \"#utility.yul\":37337:37351   */\n      add\n        /* \"#utility.yul\":37330:37386   */\n      mstore\n        /* \"#utility.yul\":37213:37393   */\n      pop\n      jump\t// out\n        /* \"#utility.yul\":37399:37765   */\n    tag_422:\n        /* \"#utility.yul\":37541:37544   */\n      0x00\n        /* \"#utility.yul\":37562:37629   */\n      tag_784\n        /* \"#utility.yul\":37626:37628   */\n      0x1e\n        /* \"#utility.yul\":37621:37624   */\n      dup4\n        /* \"#utility.yul\":37562:37629   */\n      tag_378\n      jump\t// in\n    tag_784:\n        /* \"#utility.yul\":37555:37629   */\n      swap2\n      pop\n        /* \"#utility.yul\":37638:37731   */\n      tag_785\n        /* \"#utility.yul\":37727:37730   */\n      dup3\n        /* \"#utility.yul\":37638:37731   */\n      tag_421\n      jump\t// in\n    tag_785:\n        /* \"#utility.yul\":37756:37758   */\n      0x20\n        /* \"#utility.yul\":37751:37754   */\n      dup3\n        /* \"#utility.yul\":37747:37759   */\n      add\n        /* \"#utility.yul\":37740:37759   */\n      swap1\n      pop\n        /* \"#utility.yul\":37399:37765   */\n      swap2\n      swap1\n      pop\n      jump\t// out\n        /* \"#utility.yul\":37771:38190   */\n    tag_233:\n        /* \"#utility.yul\":37937:37941   */\n      0x00\n        /* \"#utility.yul\":37975:37977   */\n      0x20\n        /* \"#utility.yul\":37964:37973   */\n      dup3\n        /* \"#utility.yul\":37960:37978   */\n      add\n        /* \"#utility.yul\":37952:37978   */\n      swap1\n      pop\n        /* \"#utility.yul\":38024:38033   */\n      dup2\n        /* \"#utility.yul\":38018:38022   */\n      dup2\n        /* \"#utility.yul\":38014:38034   */\n      sub\n        /* \"#utility.yul\":38010:38011   */\n      0x00\n        /* \"#utility.yul\":37999:38008   */\n      dup4\n        /* \"#utility.yul\":37995:38012   */\n      add\n        /* \"#utility.yul\":37988:38035   */\n      mstore\n        /* \"#utility.yul\":38052:38183   */\n      tag_787\n        /* \"#utility.yul\":38178:38182   */\n      dup2\n        /* \"#utility.yul\":38052:38183   */\n      tag_422\n      jump\t// in\n    tag_787:\n        /* \"#utility.yul\":38044:38183   */\n      swap1\n      pop\n        /* \"#utility.yul\":37771:38190   */\n      swap2\n      swap1\n      pop\n      jump\t// out\n        /* \"#utility.yul\":38196:38495   */\n    tag_423:\n        /* \"#utility.yul\":38336:38370   */\n      0x546865206c6f636b20706572696f6420686173206e6f74207965742065787069\n        /* \"#utility.yul\":38332:38333   */\n      0x00\n        /* \"#utility.yul\":38324:38330   */\n      dup3\n        /* \"#utility.yul\":38320:38334   */\n      add\n        /* \"#utility.yul\":38313:38371   */\n      mstore\n        /* \"#utility.yul\":38405:38439   */\n      0x72656420616e64207468652076616c756520686173206e6f7420726561636865\n        /* \"#utility.yul\":38400:38402   */\n      0x20\n        /* \"#utility.yul\":38392:38398   */\n      dup3\n        /* \"#utility.yul\":38388:38403   */\n      add\n        /* \"#utility.yul\":38381:38440   */\n      mstore\n        /* \"#utility.yul\":38474:38487   */\n      0x642073657420676f616c21000000000000000000000000000000000000000000\n        /* \"#utility.yul\":38469:38471   */\n      0x40\n        /* \"#utility.yul\":38461:38467   */\n      dup3\n        /* \"#utility.yul\":38457:38472   */\n      add\n        /* \"#utility.yul\":38450:38488   */\n      mstore\n        /* \"#utility.yul\":38196:38495   */\n      pop\n      jump\t// out\n        /* \"#utility.yul\":38501:38867   */\n    tag_424:\n        /* \"#utility.yul\":38643:38646   */\n      0x00\n        /* \"#utility.yul\":38664:38731   */\n      tag_790\n        /* \"#utility.yul\":38728:38730   */\n      0x4b\n        /* \"#utility.yul\":38723:38726   */\n      dup4\n        /* \"#utility.yul\":38664:38731   */\n      tag_378\n      jump\t// in\n    tag_790:\n        /* \"#utility.yul\":38657:38731   */\n      swap2\n      pop\n        /* \"#utility.yul\":38740:38833   */\n      tag_791\n        /* \"#utility.yul\":38829:38832   */\n      dup3\n        /* \"#utility.yul\":38740:38833   */\n      tag_423\n      jump\t// in\n    tag_791:\n        /* \"#utility.yul\":38858:38860   */\n      0x60\n        /* \"#utility.yul\":38853:38856   */\n      dup3\n        /* \"#utility.yul\":38849:38861   */\n      add\n        /* \"#utility.yul\":38842:38861   */\n      swap1\n      pop\n        /* \"#utility.yul\":38501:38867   */\n      swap2\n      swap1\n      pop\n      jump\t// out\n        /* \"#utility.yul\":38873:39292   */\n    tag_237:\n        /* \"#utility.yul\":39039:39043   */\n      0x00\n        /* \"#utility.yul\":39077:39079   */\n      0x20\n        /* \"#utility.yul\":39066:39075   */\n      dup3\n        /* \"#utility.yul\":39062:39080   */\n      add\n        /* \"#utility.yul\":39054:39080   */\n      swap1\n      pop\n        /* \"#utility.yul\":39126:39135   */\n      dup2\n        /* \"#utility.yul\":39120:39124   */\n      dup2\n        /* \"#utility.yul\":39116:39136   */\n      sub\n        /* \"#utility.yul\":39112:39113   */\n      0x00\n        /* \"#utility.yul\":39101:39110   */\n      dup4\n        /* \"#utility.yul\":39097:39114   */\n      add\n        /* \"#utility.yul\":39090:39137   */\n      mstore\n        /* \"#utility.yul\":39154:39285   */\n      tag_793\n        /* \"#utility.yul\":39280:39284   */\n      dup2\n        /* \"#utility.yul\":39154:39285   */\n      tag_424\n      jump\t// in\n    tag_793:\n        /* \"#utility.yul\":39146:39285   */\n      swap1\n      pop\n        /* \"#utility.yul\":38873:39292   */\n      swap2\n      swap1\n      pop\n      jump\t// out\n        /* \"#utility.yul\":39298:39492   */\n    tag_239:\n        /* \"#utility.yul\":39338:39342   */\n      0x00\n        /* \"#utility.yul\":39358:39378   */\n      tag_795\n        /* \"#utility.yul\":39376:39377   */\n      dup3\n        /* \"#utility.yul\":39358:39378   */\n      tag_340\n      jump\t// in\n    tag_795:\n        /* \"#utility.yul\":39353:39378   */\n      swap2\n      pop\n        /* \"#utility.yul\":39392:39412   */\n      tag_796\n        /* \"#utility.yul\":39410:39411   */\n      dup4\n        /* \"#utility.yul\":39392:39412   */\n      tag_340\n      jump\t// in\n    tag_796:\n        /* \"#utility.yul\":39387:39412   */\n      swap3\n      pop\n        /* \"#utility.yul\":39436:39437   */\n      dup3\n        /* \"#utility.yul\":39433:39434   */\n      dup3\n        /* \"#utility.yul\":39429:39438   */\n      sub\n        /* \"#utility.yul\":39421:39438   */\n      swap1\n      pop\n        /* \"#utility.yul\":39460:39461   */\n      dup2\n        /* \"#utility.yul\":39454:39458   */\n      dup2\n        /* \"#utility.yul\":39451:39462   */\n      gt\n        /* \"#utility.yul\":39448:39485   */\n      iszero\n      tag_797\n      jumpi\n        /* \"#utility.yul\":39465:39483   */\n      tag_798\n      tag_392\n      jump\t// in\n    tag_798:\n        /* \"#utility.yul\":39448:39485   */\n    tag_797:\n        /* \"#utility.yul\":39298:39492   */\n      swap3\n      swap2\n      pop\n      pop\n      jump\t// out\n        /* \"#utility.yul\":39498:39645   */\n    tag_425:\n        /* \"#utility.yul\":39599:39610   */\n      0x00\n        /* \"#utility.yul\":39636:39639   */\n      dup2\n        /* \"#utility.yul\":39621:39639   */\n      swap1\n      pop\n        /* \"#utility.yul\":39498:39645   */\n      swap3\n      swap2\n      pop\n      pop\n      jump\t// out\n        /* \"#utility.yul\":39651:39765   */\n    tag_426:\n      pop\n      jump\t// out\n        /* \"#utility.yul\":39771:40169   */\n    tag_427:\n        /* \"#utility.yul\":39930:39933   */\n      0x00\n        /* \"#utility.yul\":39951:40034   */\n      tag_802\n        /* \"#utility.yul\":40032:40033   */\n      0x00\n        /* \"#utility.yul\":40027:40030   */\n      dup4\n        /* \"#utility.yul\":39951:40034   */\n      tag_425\n      jump\t// in\n    tag_802:\n        /* \"#utility.yul\":39944:40034   */\n      swap2\n      pop\n        /* \"#utility.yul\":40043:40136   */\n      tag_803\n        /* \"#utility.yul\":40132:40135   */\n      dup3\n        /* \"#utility.yul\":40043:40136   */\n      tag_426\n      jump\t// in\n    tag_803:\n        /* \"#utility.yul\":40161:40162   */\n      0x00\n        /* \"#utility.yul\":40156:40159   */\n      dup3\n        /* \"#utility.yul\":40152:40163   */\n      add\n        /* \"#utility.yul\":40145:40163   */\n      swap1\n      pop\n        /* \"#utility.yul\":39771:40169   */\n      swap2\n      swap1\n      pop\n      jump\t// out\n        /* \"#utility.yul\":40175:40554   */\n    tag_251:\n        /* \"#utility.yul\":40359:40362   */\n      0x00\n        /* \"#utility.yul\":40381:40528   */\n      tag_805\n        /* \"#utility.yul\":40524:40527   */\n      dup3\n        /* \"#utility.yul\":40381:40528   */\n      tag_427\n      jump\t// in\n    tag_805:\n        /* \"#utility.yul\":40374:40528   */\n      swap2\n      pop\n        /* \"#utility.yul\":40545:40548   */\n      dup2\n        /* \"#utility.yul\":40538:40548   */\n      swap1\n      pop\n        /* \"#utility.yul\":40175:40554   */\n      swap2\n      swap1\n      pop\n      jump\t// out\n        /* \"#utility.yul\":40560:40729   */\n    tag_428:\n        /* \"#utility.yul\":40700:40721   */\n      0x455448207472616e73666572206661696c656400000000000000000000000000\n        /* \"#utility.yul\":40696:40697   */\n      0x00\n        /* \"#utility.yul\":40688:40694   */\n      dup3\n        /* \"#utility.yul\":40684:40698   */\n      add\n        /* \"#utility.yul\":40677:40722   */\n      mstore\n        /* \"#utility.yul\":40560:40729   */\n      pop\n      jump\t// out\n        /* \"#utility.yul\":40735:41101   */\n    tag_429:\n        /* \"#utility.yul\":40877:40880   */\n      0x00\n        /* \"#utility.yul\":40898:40965   */\n      tag_808\n        /* \"#utility.yul\":40962:40964   */\n      0x13\n        /* \"#utility.yul\":40957:40960   */\n      dup4\n        /* \"#utility.yul\":40898:40965   */\n      tag_378\n      jump\t// in\n    tag_808:\n        /* \"#utility.yul\":40891:40965   */\n      swap2\n      pop\n        /* \"#utility.yul\":40974:41067   */\n      tag_809\n        /* \"#utility.yul\":41063:41066   */\n      dup3\n        /* \"#utility.yul\":40974:41067   */\n      tag_428\n      jump\t// in\n    tag_809:\n        /* \"#utility.yul\":41092:41094   */\n      0x20\n        /* \"#utility.yul\":41087:41090   */\n      dup3\n        /* \"#utility.yul\":41083:41095   */\n      add\n        /* \"#utility.yul\":41076:41095   */\n      swap1\n      pop\n        /* \"#utility.yul\":40735:41101   */\n      swap2\n      swap1\n      pop\n      jump\t// out\n        /* \"#utility.yul\":41107:41526   */\n    tag_257:\n        /* \"#utility.yul\":41273:41277   */\n      0x00\n        /* \"#utility.yul\":41311:41313   */\n      0x20\n        /* \"#utility.yul\":41300:41309   */\n      dup3\n        /* \"#utility.yul\":41296:41314   */\n      add\n        /* \"#utility.yul\":41288:41314   */\n      swap1\n      pop\n        /* \"#utility.yul\":41360:41369   */\n      dup2\n        /* \"#utility.yul\":41354:41358   */\n      dup2\n        /* \"#utility.yul\":41350:41370   */\n      sub\n        /* \"#utility.yul\":41346:41347   */\n      0x00\n        /* \"#utility.yul\":41335:41344   */\n      dup4\n        /* \"#utility.yul\":41331:41348   */\n      add\n        /* \"#utility.yul\":41324:41371   */\n      mstore\n        /* \"#utility.yul\":41388:41519   */\n      tag_811\n        /* \"#utility.yul\":41514:41518   */\n      dup2\n        /* \"#utility.yul\":41388:41519   */\n      tag_429\n      jump\t// in\n    tag_811:\n        /* \"#utility.yul\":41380:41519   */\n      swap1\n      pop\n        /* \"#utility.yul\":41107:41526   */\n      swap2\n      swap1\n      pop\n      jump\t// out\n        /* \"#utility.yul\":41532:41770   */\n    tag_430:\n        /* \"#utility.yul\":41672:41706   */\n      0x45544820746f2061646420746f206c6f636b206d75737420626520616e20616d\n        /* \"#utility.yul\":41668:41669   */\n      0x00\n        /* \"#utility.yul\":41660:41666   */\n      dup3\n        /* \"#utility.yul\":41656:41670   */\n      add\n        /* \"#utility.yul\":41649:41707   */\n      mstore\n        /* \"#utility.yul\":41741:41762   */\n      0x6f756e742067726561746572207468616e203000000000000000000000000000\n        /* \"#utility.yul\":41736:41738   */\n      0x20\n        /* \"#utility.yul\":41728:41734   */\n      dup3\n        /* \"#utility.yul\":41724:41739   */\n      add\n        /* \"#utility.yul\":41717:41763   */\n      mstore\n        /* \"#utility.yul\":41532:41770   */\n      pop\n      jump\t// out\n        /* \"#utility.yul\":41776:42142   */\n    tag_431:\n        /* \"#utility.yul\":41918:41921   */\n      0x00\n        /* \"#utility.yul\":41939:42006   */\n      tag_814\n        /* \"#utility.yul\":42003:42005   */\n      0x33\n        /* \"#utility.yul\":41998:42001   */\n      dup4\n        /* \"#utility.yul\":41939:42006   */\n      tag_378\n      jump\t// in\n    tag_814:\n        /* \"#utility.yul\":41932:42006   */\n      swap2\n      pop\n        /* \"#utility.yul\":42015:42108   */\n      tag_815\n        /* \"#utility.yul\":42104:42107   */\n      dup3\n        /* \"#utility.yul\":42015:42108   */\n      tag_430\n      jump\t// in\n    tag_815:\n        /* \"#utility.yul\":42133:42135   */\n      0x40\n        /* \"#utility.yul\":42128:42131   */\n      dup3\n        /* \"#utility.yul\":42124:42136   */\n      add\n        /* \"#utility.yul\":42117:42136   */\n      swap1\n      pop\n        /* \"#utility.yul\":41776:42142   */\n      swap2\n      swap1\n      pop\n      jump\t// out\n        /* \"#utility.yul\":42148:42567   */\n    tag_280:\n        /* \"#utility.yul\":42314:42318   */\n      0x00\n        /* \"#utility.yul\":42352:42354   */\n      0x20\n        /* \"#utility.yul\":42341:42350   */\n      dup3\n        /* \"#utility.yul\":42337:42355   */\n      add\n        /* \"#utility.yul\":42329:42355   */\n      swap1\n      pop\n        /* \"#utility.yul\":42401:42410   */\n      dup2\n        /* \"#utility.yul\":42395:42399   */\n      dup2\n        /* \"#utility.yul\":42391:42411   */\n      sub\n        /* \"#utility.yul\":42387:42388   */\n      0x00\n        /* \"#utility.yul\":42376:42385   */\n      dup4\n        /* \"#utility.yul\":42372:42389   */\n      add\n        /* \"#utility.yul\":42365:42412   */\n      mstore\n        /* \"#utility.yul\":42429:42560   */\n      tag_817\n        /* \"#utility.yul\":42555:42559   */\n      dup2\n        /* \"#utility.yul\":42429:42560   */\n      tag_431\n      jump\t// in\n    tag_817:\n        /* \"#utility.yul\":42421:42560   */\n      swap1\n      pop\n        /* \"#utility.yul\":42148:42567   */\n      swap2\n      swap1\n      pop\n      jump\t// out\n        /* \"#utility.yul\":42573:43015   */\n    tag_307:\n        /* \"#utility.yul\":42722:42726   */\n      0x00\n        /* \"#utility.yul\":42760:42762   */\n      0x60\n        /* \"#utility.yul\":42749:42758   */\n      dup3\n        /* \"#utility.yul\":42745:42763   */\n      add\n        /* \"#utility.yul\":42737:42763   */\n      swap1\n      pop\n        /* \"#utility.yul\":42773:42844   */\n      tag_819\n        /* \"#utility.yul\":42841:42842   */\n      0x00\n        /* \"#utility.yul\":42830:42839   */\n      dup4\n        /* \"#utility.yul\":42826:42843   */\n      add\n        /* \"#utility.yul\":42817:42823   */\n      dup7\n        /* \"#utility.yul\":42773:42844   */\n      tag_377\n      jump\t// in\n    tag_819:\n        /* \"#utility.yul\":42854:42926   */\n      tag_820\n        /* \"#utility.yul\":42922:42924   */\n      0x20\n        /* \"#utility.yul\":42911:42920   */\n      dup4\n        /* \"#utility.yul\":42907:42925   */\n      add\n        /* \"#utility.yul\":42898:42904   */\n      dup6\n        /* \"#utility.yul\":42854:42926   */\n      tag_377\n      jump\t// in\n    tag_820:\n        /* \"#utility.yul\":42936:43008   */\n      tag_821\n        /* \"#utility.yul\":43004:43006   */\n      0x40\n        /* \"#utility.yul\":42993:43002   */\n      dup4\n        /* \"#utility.yul\":42989:43007   */\n      add\n        /* \"#utility.yul\":42980:42986   */\n      dup5\n        /* \"#utility.yul\":42936:43008   */\n      tag_356\n      jump\t// in\n    tag_821:\n        /* \"#utility.yul\":42573:43015   */\n      swap5\n      swap4\n      pop\n      pop\n      pop\n      pop\n      jump\t// out\n        /* \"#utility.yul\":43021:43353   */\n    tag_324:\n        /* \"#utility.yul\":43142:43146   */\n      0x00\n        /* \"#utility.yul\":43180:43182   */\n      0x40\n        /* \"#utility.yul\":43169:43178   */\n      dup3\n        /* \"#utility.yul\":43165:43183   */\n      add\n        /* \"#utility.yul\":43157:43183   */\n      swap1\n      pop\n        /* \"#utility.yul\":43193:43264   */\n      tag_823\n        /* \"#utility.yul\":43261:43262   */\n      0x00\n        /* \"#utility.yul\":43250:43259   */\n      dup4\n        /* \"#utility.yul\":43246:43263   */\n      add\n        /* \"#utility.yul\":43237:43243   */\n      dup6\n        /* \"#utility.yul\":43193:43264   */\n      tag_377\n      jump\t// in\n    tag_823:\n        /* \"#utility.yul\":43274:43346   */\n      tag_824\n        /* \"#utility.yul\":43342:43344   */\n      0x20\n        /* \"#utility.yul\":43331:43340   */\n      dup4\n        /* \"#utility.yul\":43327:43345   */\n      add\n        /* \"#utility.yul\":43318:43324   */\n      dup5\n        /* \"#utility.yul\":43274:43346   */\n      tag_356\n      jump\t// in\n    tag_824:\n        /* \"#utility.yul\":43021:43353   */\n      swap4\n      swap3\n      pop\n      pop\n      pop\n      jump\t// out\n\n    auxdata: 0xa2646970667358221220062c60ebc737e56d68e8b40088eaa47aba3cbaa125e74dcc86c38ec57d59293064736f6c634300081a0033\n}\n",
				"bytecode": {
					"linkReferences": {},
					"object": "608060405234801561000f575f80fd5b50335f73ffffffffffffffffffffffffffffffffffffffff168173ffffffffffffffffffffffffffffffffffffffff1603610081575f6040517f1e4fbdf7000000000000000000000000000000000000000000000000000000008152600401610078919061019d565b60405180910390fd5b6100908161009d60201b60201c565b50600180819055506101b6565b5f805f9054906101000a900473ffffffffffffffffffffffffffffffffffffffff169050815f806101000a81548173ffffffffffffffffffffffffffffffffffffffff021916908373ffffffffffffffffffffffffffffffffffffffff1602179055508173ffffffffffffffffffffffffffffffffffffffff168173ffffffffffffffffffffffffffffffffffffffff167f8be0079c531659141344cd1fd0a4f28419497f9722a3daafe3b4186f6b6457e060405160405180910390a35050565b5f73ffffffffffffffffffffffffffffffffffffffff82169050919050565b5f6101878261015e565b9050919050565b6101978161017d565b82525050565b5f6020820190506101b05f83018461018e565b92915050565b613798806101c35f395ff3fe6080604052600436106100dc575f3560e01c80638c89a0ad1161007e5780638e06b906116100585780638e06b90614610296578063c5f441ea146102d7578063ecaa9d05146102ff578063f2fde38b1461031b576100dc565b80638c89a0ad1461021a5780638da5cb5b146102445780638de8107b1461026e576100dc565b80632d8fefc2116100ba5780632d8fefc2146101605780633b958c381461018857806360864eed146101c4578063715018a614610204576100dc565b80630f1419b5146100e057806313a2e8841461010857806314205e2814610124575b5f80fd5b3480156100eb575f80fd5b5061010660048036038101906101019190612386565b610343565b005b610122600480360381019061011d9190612419565b61071f565b005b34801561012f575f80fd5b5061014a60048036038101906101459190612485565b6109a1565b60405161015791906124bf565b60405180910390f35b34801561016b575f80fd5b5061018660048036038101906101819190612511565b610a21565b005b348015610193575f80fd5b506101ae60048036038101906101a99190612575565b610d0b565b6040516101bb9190612779565b60405180910390f35b3480156101cf575f80fd5b506101ea60048036038101906101e591906127c3565b610ee6565b6040516101fb959493929190612879565b60405180910390f35b34801561020f575f80fd5b50610218610fee565b005b348015610225575f80fd5b5061022e611001565b60405161023b91906124bf565b60405180910390f35b34801561024f575f80fd5b50610258611008565b60405161026591906128d1565b60405180910390f35b348015610279575f80fd5b50610294600480360381019061028f91906128ea565b61102f565b005b3480156102a1575f80fd5b506102bc60048036038101906102b791906127c3565b611293565b6040516102ce9695949392919061293a565b60405180910390f35b3480156102e2575f80fd5b506102fd60048036038101906102f891906129ca565b6113ae565b005b61031960048036038101906103149190612a2e565b611a0d565b005b348015610326575f80fd5b50610341600480360381019061033c9190612a6c565b611c5a565b005b61034b611cde565b5f73ffffffffffffffffffffffffffffffffffffffff168573ffffffffffffffffffffffffffffffffffffffff16036103b9576040517f08c379a00000000000000000000000000000000000000000000000000000000081526004016103b090612b07565b60405180910390fd5b5f84116103fb576040517f08c379a00000000000000000000000000000000000000000000000000000000081526004016103f290612b95565b60405180910390fd5b5f821161043d576040517f08c379a000000000000000000000000000000000000000000000000000000000815260040161043490612c23565b60405180910390fd5b5f8573ffffffffffffffffffffffffffffffffffffffff166370a08231336040518263ffffffff1660e01b815260040161047791906128d1565b602060405180830381865afa158015610492573d5f803e3d5ffd5b505050506040513d601f19601f820116820180604052508101906104b69190612c55565b9050808511156104fb576040517f08c379a00000000000000000000000000000000000000000000000000000000081526004016104f290612cca565b60405180910390fd5b6105283330878973ffffffffffffffffffffffffffffffffffffffff16611d24909392919063ffffffff16565b60025f3373ffffffffffffffffffffffffffffffffffffffff1673ffffffffffffffffffffffffffffffffffffffff1681526020019081526020015f205f8560ff1660ff1681526020019081526020015f206040518060c001604052808873ffffffffffffffffffffffffffffffffffffffff16815260200187815260200185426105b39190612d15565b81526020018481526020015f151581526020015f1515815250908060018154018082558091505060019003905f5260205f2090600502015f909190919091505f820151815f015f6101000a81548173ffffffffffffffffffffffffffffffffffffffff021916908373ffffffffffffffffffffffffffffffffffffffff1602179055506020820151816001015560408201518160020155606082015181600301908161065f9190612f42565b506080820151816004015f6101000a81548160ff02191690831515021790555060a08201518160040160016101000a81548160ff02191690831515021790555050506106ae868587855f611da6565b8573ffffffffffffffffffffffffffffffffffffffff167fed26bd61b6bf2f43d7471454e53e77ffdc96beefa2f198977936f6d02d34563d86848787426106f59190612d15565b42604051610707959493929190613020565b60405180910390a250610718611ef3565b5050505050565b610727611cde565b5f3411610769576040517f08c379a0000000000000000000000000000000000000000000000000000000008152600401610760906130e8565b60405180910390fd5b5f8210156107ac576040517f08c379a00000000000000000000000000000000000000000000000000000000081526004016107a390613176565b60405180910390fd5b60025f3373ffffffffffffffffffffffffffffffffffffffff1673ffffffffffffffffffffffffffffffffffffffff1681526020019081526020015f205f8460ff1660ff1681526020019081526020015f206040518060c001604052805f73ffffffffffffffffffffffffffffffffffffffff16815260200134815260200184426108379190612d15565b81526020018381526020015f1515815260200160011515815250908060018154018082558091505060019003905f5260205f2090600502015f909190919091505f820151815f015f6101000a81548173ffffffffffffffffffffffffffffffffffffffff021916908373ffffffffffffffffffffffffffffffffffffffff160217905550602082015181600101556040820151816002015560608201518160030190816108e49190612f42565b506080820151816004015f6101000a81548160ff02191690831515021790555060a08201518160040160016101000a81548160ff02191690831515021790555050506109335f8434845f611da6565b5f73ffffffffffffffffffffffffffffffffffffffff167fed26bd61b6bf2f43d7471454e53e77ffdc96beefa2f198977936f6d02d34563d348386864261097a9190612d15565b4260405161098c959493929190613020565b60405180910390a261099c611ef3565b505050565b5f8173ffffffffffffffffffffffffffffffffffffffff166370a08231306040518263ffffffff1660e01b81526004016109db91906128d1565b602060405180830381865afa1580156109f6573d5f803e3d5ffd5b505050506040513d601f19601f82011682018060405250810190610a1a9190612c55565b9050919050565b610a29611cde565b5f73ffffffffffffffffffffffffffffffffffffffff168473ffffffffffffffffffffffffffffffffffffffff1603610a97576040517f08c379a0000000000000000000000000000000000000000000000000000000008152600401610a8e90612b07565b60405180910390fd5b5f8211610ad9576040517f08c379a0000000000000000000000000000000000000000000000000000000008152600401610ad090612b95565b60405180910390fd5b5f60025f3373ffffffffffffffffffffffffffffffffffffffff1673ffffffffffffffffffffffffffffffffffffffff1681526020019081526020015f205f8360ff1660ff1681526020019081526020015f208463ffffffff1681548110610b4457610b43613194565b5b905f5260205f2090600502019050610b7f3330858873ffffffffffffffffffffffffffffffffffffffff16611d24909392919063ffffffff16565b8260025f3373ffffffffffffffffffffffffffffffffffffffff1673ffffffffffffffffffffffffffffffffffffffff1681526020019081526020015f205f8460ff1660ff1681526020019081526020015f208563ffffffff1681548110610bea57610be9613194565b5b905f5260205f2090600502016001015f828254610c079190612d15565b92505081905550610ca5858385846003018054610c2390612d75565b80601f0160208091040260200160405190810160405280929190818152602001828054610c4f90612d75565b8015610c9a5780601f10610c7157610100808354040283529160200191610c9a565b820191905f5260205f20905b815481529060010190602001808311610c7d57829003601f168201915b50505050505f611da6565b8473ffffffffffffffffffffffffffffffffffffffff167f0b99ce8321b94ffaa5c5021540ec0668dcba948d044760a5ef298fa0513b1ef484836003018542604051610cf49493929190613242565b60405180910390a250610d05611ef3565b50505050565b606060025f3373ffffffffffffffffffffffffffffffffffffffff1673ffffffffffffffffffffffffffffffffffffffff1681526020019081526020015f205f8360ff1660ff1681526020019081526020015f20805480602002602001604051908101604052809291908181526020015f905b82821015610edb578382905f5260205f2090600502016040518060c00160405290815f82015f9054906101000a900473ffffffffffffffffffffffffffffffffffffffff1673ffffffffffffffffffffffffffffffffffffffff1673ffffffffffffffffffffffffffffffffffffffff1681526020016001820154815260200160028201548152602001600382018054610e1790612d75565b80601f0160208091040260200160405190810160405280929190818152602001828054610e4390612d75565b8015610e8e5780601f10610e6557610100808354040283529160200191610e8e565b820191905f5260205f20905b815481529060010190602001808311610e7157829003601f168201915b50505050508152602001600482015f9054906101000a900460ff161515151581526020016004820160019054906101000a900460ff16151515158152505081526020019060010190610d7e565b505050509050919050565b6003602052825f5260405f20602052815f5260405f208181548110610f09575f80fd5b905f5260205f2090600502015f925092505050805f015f9054906101000a900473ffffffffffffffffffffffffffffffffffffffff1690806001015490806002018054610f5590612d75565b80601f0160208091040260200160405190810160405280929190818152602001828054610f8190612d75565b8015610fcc5780601f10610fa357610100808354040283529160200191610fcc565b820191905f5260205f20905b815481529060010190602001808311610faf57829003601f168201915b505050505090806003015f9054906101000a900460ff16908060040154905085565b610ff6611efc565b610fff5f611f83565b565b5f47905090565b5f805f9054906101000a900473ffffffffffffffffffffffffffffffffffffffff16905090565b5f60025f3373ffffffffffffffffffffffffffffffffffffffff1673ffffffffffffffffffffffffffffffffffffffff1681526020019081526020015f205f8460ff1660ff1681526020019081526020015f208463ffffffff168154811061109a57611099613194565b5b905f5260205f209060050201905060025f3373ffffffffffffffffffffffffffffffffffffffff1673ffffffffffffffffffffffffffffffffffffffff1681526020019081526020015f205f8460ff1660ff1681526020019081526020015f20805490508463ffffffff1610611145576040517f08c379a000000000000000000000000000000000000000000000000000000000815260040161113c906132fc565b60405180910390fd5b8060020154421161118b576040517f08c379a00000000000000000000000000000000000000000000000000000000081526004016111829061338a565b60405180910390fd5b81426111979190612d15565b60025f3373ffffffffffffffffffffffffffffffffffffffff1673ffffffffffffffffffffffffffffffffffffffff1681526020019081526020015f205f8560ff1660ff1681526020019081526020015f208563ffffffff168154811061120157611200613194565b5b905f5260205f20906005020160020181905550805f015f9054906101000a900473ffffffffffffffffffffffffffffffffffffffff1673ffffffffffffffffffffffffffffffffffffffff167f748cb9768ee3f2567793f42a22f5b0c83df9e14d32ec82c9cb839cb1b357be138484846003014260405161128594939291906133a8565b60405180910390a250505050565b6002602052825f5260405f20602052815f5260405f2081815481106112b6575f80fd5b905f5260205f2090600502015f925092505050805f015f9054906101000a900473ffffffffffffffffffffffffffffffffffffffff169080600101549080600201549080600301805461130890612d75565b80601f016020809104026020016040519081016040528092919081815260200182805461133490612d75565b801561137f5780601f106113565761010080835404028352916020019161137f565b820191905f5260205f20905b81548152906001019060200180831161136257829003601f168201915b505050505090806004015f9054906101000a900460ff16908060040160019054906101000a900460ff16905086565b6113b6611cde565b60025f3373ffffffffffffffffffffffffffffffffffffffff1673ffffffffffffffffffffffffffffffffffffffff1681526020019081526020015f205f8460ff1660ff1681526020019081526020015f20805490508463ffffffff1610611453576040517f08c379a000000000000000000000000000000000000000000000000000000000815260040161144a906132fc565b60405180910390fd5b5f60025f3373ffffffffffffffffffffffffffffffffffffffff1673ffffffffffffffffffffffffffffffffffffffff1681526020019081526020015f205f8560ff1660ff1681526020019081526020015f208563ffffffff16815481106114be576114bd613194565b5b905f5260205f2090600502019050806004015f9054906101000a900460ff161561151d576040517f08c379a000000000000000000000000000000000000000000000000000000000815260040161151490613462565b60405180910390fd5b8060010154831115611564576040517f08c379a000000000000000000000000000000000000000000000000000000000815260040161155b906134ca565b60405180910390fd5b80600201544211806115735750815b6115b2576040517f08c379a00000000000000000000000000000000000000000000000000000000081526004016115a99061357e565b60405180910390fd5b5f8382600101546115c3919061359c565b90505f811015611608576040517f08c379a00000000000000000000000000000000000000000000000000000000081526004016115ff906134ca565b60405180910390fd5b5f81036116a157600160025f3373ffffffffffffffffffffffffffffffffffffffff1673ffffffffffffffffffffffffffffffffffffffff1681526020019081526020015f205f8760ff1660ff1681526020019081526020015f208763ffffffff168154811061167b5761167a613194565b5b905f5260205f2090600502016004015f6101000a81548160ff0219169083151502179055505b8060025f3373ffffffffffffffffffffffffffffffffffffffff1673ffffffffffffffffffffffffffffffffffffffff1681526020019081526020015f205f8760ff1660ff1681526020019081526020015f208763ffffffff168154811061170c5761170b613194565b5b905f5260205f209060050201600101819055508160040160019054906101000a900460ff161561187c575f3373ffffffffffffffffffffffffffffffffffffffff168560405161175b906135fc565b5f6040518083038185875af1925050503d805f8114611795576040519150601f19603f3d011682016040523d82523d5f602084013e61179a565b606091505b50509050806117de576040517f08c379a00000000000000000000000000000000000000000000000000000000081526004016117d59061365a565b60405180910390fd5b6118765f87878660030180546117f390612d75565b80601f016020809104026020016040519081016040528092919081815260200182805461181f90612d75565b801561186a5780601f106118415761010080835404028352916020019161186a565b820191905f5260205f20905b81548152906001019060200180831161184d57829003601f168201915b50505050506001611da6565b50611984565b6118c93385845f015f9054906101000a900473ffffffffffffffffffffffffffffffffffffffff1673ffffffffffffffffffffffffffffffffffffffff166120449092919063ffffffff16565b611983825f015f9054906101000a900473ffffffffffffffffffffffffffffffffffffffff16868685600301805461190090612d75565b80601f016020809104026020016040519081016040528092919081815260200182805461192c90612d75565b80156119775780601f1061194e57610100808354040283529160200191611977565b820191905f5260205f20905b81548152906001019060200180831161195a57829003601f168201915b50505050506001611da6565b5b815f015f9054906101000a900473ffffffffffffffffffffffffffffffffffffffff1673ffffffffffffffffffffffffffffffffffffffff167f16c4c024c274b52575ffc17396bbc4a59db7dd13aac28373e025a9f6269f9e03858460030188426040516119f59493929190613242565b60405180910390a25050611a07611ef3565b50505050565b611a15611cde565b5f3411611a57576040517f08c379a0000000000000000000000000000000000000000000000000000000008152600401611a4e906136e8565b60405180910390fd5b5f60025f3373ffffffffffffffffffffffffffffffffffffffff1673ffffffffffffffffffffffffffffffffffffffff1681526020019081526020015f205f8460ff1660ff1681526020019081526020015f208263ffffffff1681548110611ac257611ac1613194565b5b905f5260205f20906005020190503460025f3373ffffffffffffffffffffffffffffffffffffffff1673ffffffffffffffffffffffffffffffffffffffff1681526020019081526020015f205f8560ff1660ff1681526020019081526020015f208363ffffffff1681548110611b3b57611b3a613194565b5b905f5260205f2090600502016001015f828254611b589190612d15565b92505081905550611bf65f8434846003018054611b7490612d75565b80601f0160208091040260200160405190810160405280929190818152602001828054611ba090612d75565b8015611beb5780601f10611bc257610100808354040283529160200191611beb565b820191905f5260205f20905b815481529060010190602001808311611bce57829003601f168201915b50505050505f611da6565b5f73ffffffffffffffffffffffffffffffffffffffff167f0b99ce8321b94ffaa5c5021540ec0668dcba948d044760a5ef298fa0513b1ef434836003018642604051611c459493929190613242565b60405180910390a250611c56611ef3565b5050565b611c62611efc565b5f73ffffffffffffffffffffffffffffffffffffffff168173ffffffffffffffffffffffffffffffffffffffff1603611cd2575f6040517f1e4fbdf7000000000000000000000000000000000000000000000000000000008152600401611cc991906128d1565b60405180910390fd5b611cdb81611f83565b50565b600260015403611d1a576040517f3ee5aeb500000000000000000000000000000000000000000000000000000000815260040160405180910390fd5b6002600181905550565b611da0848573ffffffffffffffffffffffffffffffffffffffff166323b872dd868686604051602401611d5993929190613706565b604051602081830303815290604052915060e01b6020820180517bffffffffffffffffffffffffffffffffffffffffffffffffffffffff83818316178352505050506120c3565b50505050565b60035f3373ffffffffffffffffffffffffffffffffffffffff1673ffffffffffffffffffffffffffffffffffffffff1681526020019081526020015f205f8560ff1660ff1681526020019081526020015f206040518060a001604052808773ffffffffffffffffffffffffffffffffffffffff168152602001858152602001848152602001831515815260200142815250908060018154018082558091505060019003905f5260205f2090600502015f909190919091505f820151815f015f6101000a81548173ffffffffffffffffffffffffffffffffffffffff021916908373ffffffffffffffffffffffffffffffffffffffff160217905550602082015181600101556040820151816002019081611ec09190612f42565b506060820151816003015f6101000a81548160ff0219169083151502179055506080820151816004015550505050505050565b60018081905550565b611f0461215e565b73ffffffffffffffffffffffffffffffffffffffff16611f22611008565b73ffffffffffffffffffffffffffffffffffffffff1614611f8157611f4561215e565b6040517f118cdaa7000000000000000000000000000000000000000000000000000000008152600401611f7891906128d1565b60405180910390fd5b565b5f805f9054906101000a900473ffffffffffffffffffffffffffffffffffffffff169050815f806101000a81548173ffffffffffffffffffffffffffffffffffffffff021916908373ffffffffffffffffffffffffffffffffffffffff1602179055508173ffffffffffffffffffffffffffffffffffffffff168173ffffffffffffffffffffffffffffffffffffffff167f8be0079c531659141344cd1fd0a4f28419497f9722a3daafe3b4186f6b6457e060405160405180910390a35050565b6120be838473ffffffffffffffffffffffffffffffffffffffff1663a9059cbb858560405160240161207792919061373b565b604051602081830303815290604052915060e01b6020820180517bffffffffffffffffffffffffffffffffffffffffffffffffffffffff83818316178352505050506120c3565b505050565b5f8060205f8451602086015f885af1806120e2576040513d5f823e3d81fd5b3d92505f519150505f82146120fb576001811415612116565b5f8473ffffffffffffffffffffffffffffffffffffffff163b145b1561215857836040517f5274afe700000000000000000000000000000000000000000000000000000000815260040161214f91906128d1565b60405180910390fd5b50505050565b5f33905090565b5f604051905090565b5f80fd5b5f80fd5b5f73ffffffffffffffffffffffffffffffffffffffff82169050919050565b5f61219f82612176565b9050919050565b5f6121b082612195565b9050919050565b6121c0816121a6565b81146121ca575f80fd5b50565b5f813590506121db816121b7565b92915050565b5f819050919050565b6121f3816121e1565b81146121fd575f80fd5b50565b5f8135905061220e816121ea565b92915050565b5f60ff82169050919050565b61222981612214565b8114612233575f80fd5b50565b5f8135905061224481612220565b92915050565b5f80fd5b5f80fd5b5f601f19601f8301169050919050565b7f4e487b71000000000000000000000000000000000000000000000000000000005f52604160045260245ffd5b61229882612252565b810181811067ffffffffffffffff821117156122b7576122b6612262565b5b80604052505050565b5f6122c9612165565b90506122d5828261228f565b919050565b5f67ffffffffffffffff8211156122f4576122f3612262565b5b6122fd82612252565b9050602081019050919050565b828183375f83830152505050565b5f61232a612325846122da565b6122c0565b9050828152602081018484840111156123465761234561224e565b5b61235184828561230a565b509392505050565b5f82601f83011261236d5761236c61224a565b5b813561237d848260208601612318565b91505092915050565b5f805f805f60a0868803121561239f5761239e61216e565b5b5f6123ac888289016121cd565b95505060206123bd88828901612200565b94505060406123ce88828901612236565b93505060606123df88828901612200565b925050608086013567ffffffffffffffff811115612400576123ff612172565b5b61240c88828901612359565b9150509295509295909350565b5f805f606084860312156124305761242f61216e565b5b5f61243d86828701612236565b935050602061244e86828701612200565b925050604084013567ffffffffffffffff81111561246f5761246e612172565b5b61247b86828701612359565b9150509250925092565b5f6020828403121561249a5761249961216e565b5b5f6124a7848285016121cd565b91505092915050565b6124b9816121e1565b82525050565b5f6020820190506124d25f8301846124b0565b92915050565b5f63ffffffff82169050919050565b6124f0816124d8565b81146124fa575f80fd5b50565b5f8135905061250b816124e7565b92915050565b5f805f80608085870312156125295761252861216e565b5b5f612536878288016121cd565b9450506020612547878288016124fd565b935050604061255887828801612200565b925050606061256987828801612236565b91505092959194509250565b5f6020828403121561258a5761258961216e565b5b5f61259784828501612236565b91505092915050565b5f81519050919050565b5f82825260208201905092915050565b5f819050602082019050919050565b6125d281612195565b82525050565b6125e1816121e1565b82525050565b5f81519050919050565b5f82825260208201905092915050565b8281835e5f83830152505050565b5f612619826125e7565b61262381856125f1565b9350612633818560208601612601565b61263c81612252565b840191505092915050565b5f8115159050919050565b61265b81612647565b82525050565b5f60c083015f8301516126765f8601826125c9565b50602083015161268960208601826125d8565b50604083015161269c60408601826125d8565b50606083015184820360608601526126b4828261260f565b91505060808301516126c96080860182612652565b5060a08301516126dc60a0860182612652565b508091505092915050565b5f6126f28383612661565b905092915050565b5f602082019050919050565b5f612710826125a0565b61271a81856125aa565b93508360208202850161272c856125ba565b805f5b85811015612767578484038952815161274885826126e7565b9450612753836126fa565b925060208a0199505060018101905061272f565b50829750879550505050505092915050565b5f6020820190508181035f8301526127918184612706565b905092915050565b6127a281612195565b81146127ac575f80fd5b50565b5f813590506127bd81612799565b92915050565b5f805f606084860312156127da576127d961216e565b5b5f6127e7868287016127af565b93505060206127f886828701612236565b925050604061280986828701612200565b9150509250925092565b61281c81612195565b82525050565b5f82825260208201905092915050565b5f61283c826125e7565b6128468185612822565b9350612856818560208601612601565b61285f81612252565b840191505092915050565b61287381612647565b82525050565b5f60a08201905061288c5f830188612813565b61289960208301876124b0565b81810360408301526128ab8186612832565b90506128ba606083018561286a565b6128c760808301846124b0565b9695505050505050565b5f6020820190506128e45f830184612813565b92915050565b5f805f606084860312156129015761290061216e565b5b5f61290e868287016124fd565b935050602061291f86828701612236565b925050604061293086828701612200565b9150509250925092565b5f60c08201905061294d5f830189612813565b61295a60208301886124b0565b61296760408301876124b0565b81810360608301526129798186612832565b9050612988608083018561286a565b61299560a083018461286a565b979650505050505050565b6129a981612647565b81146129b3575f80fd5b50565b5f813590506129c4816129a0565b92915050565b5f805f80608085870312156129e2576129e161216e565b5b5f6129ef878288016124fd565b9450506020612a0087828801612236565b9350506040612a1187828801612200565b9250506060612a22878288016129b6565b91505092959194509250565b5f8060408385031215612a4457612a4361216e565b5b5f612a5185828601612236565b9250506020612a62858286016124fd565b9150509250929050565b5f60208284031215612a8157612a8061216e565b5b5f612a8e848285016127af565b91505092915050565b7f4d7573742070726f7669646520612076616c696420746f6b656e2061646472655f8201527f7373000000000000000000000000000000000000000000000000000000000000602082015250565b5f612af1602283612822565b9150612afc82612a97565b604082019050919050565b5f6020820190508181035f830152612b1e81612ae5565b9050919050565b7f546f6b656e20616d6f756e74206d7573742062652067726561746572207468655f8201527f6e207a65726f0000000000000000000000000000000000000000000000000000602082015250565b5f612b7f602683612822565b9150612b8a82612b25565b604082019050919050565b5f6020820190508181035f830152612bac81612b73565b9050919050565b7f546865206c6f636b20706572696f64206d7573742062652067726561746572205f8201527f7468656e207a65726f0000000000000000000000000000000000000000000000602082015250565b5f612c0d602983612822565b9150612c1882612bb3565b604082019050919050565b5f6020820190508181035f830152612c3a81612c01565b9050919050565b5f81519050612c4f816121ea565b92915050565b5f60208284031215612c6a57612c6961216e565b5b5f612c7784828501612c41565b91505092915050565b7f4e6f7420656e6f75676820746f6b656e7320746f206c6f636b000000000000005f82015250565b5f612cb4601983612822565b9150612cbf82612c80565b602082019050919050565b5f6020820190508181035f830152612ce181612ca8565b9050919050565b7f4e487b71000000000000000000000000000000000000000000000000000000005f52601160045260245ffd5b5f612d1f826121e1565b9150612d2a836121e1565b9250828201905080821115612d4257612d41612ce8565b5b92915050565b7f4e487b71000000000000000000000000000000000000000000000000000000005f52602260045260245ffd5b5f6002820490506001821680612d8c57607f821691505b602082108103612d9f57612d9e612d48565b5b50919050565b5f819050815f5260205f209050919050565b5f6020601f8301049050919050565b5f82821b905092915050565b5f60088302612e017fffffffffffffffffffffffffffffffffffffffffffffffffffffffffffffffff82612dc6565b612e0b8683612dc6565b95508019841693508086168417925050509392505050565b5f819050919050565b5f612e46612e41612e3c846121e1565b612e23565b6121e1565b9050919050565b5f819050919050565b612e5f83612e2c565b612e73612e6b82612e4d565b848454612dd2565b825550505050565b5f90565b612e87612e7b565b612e92818484612e56565b505050565b5b81811015612eb557612eaa5f82612e7f565b600181019050612e98565b5050565b601f821115612efa57612ecb81612da5565b612ed484612db7565b81016020851015612ee3578190505b612ef7612eef85612db7565b830182612e97565b50505b505050565b5f82821c905092915050565b5f612f1a5f1984600802612eff565b1980831691505092915050565b5f612f328383612f0b565b9150826002028217905092915050565b612f4b826125e7565b67ffffffffffffffff811115612f6457612f63612262565b5b612f6e8254612d75565b612f79828285612eb9565b5f60209050601f831160018114612faa575f8415612f98578287015190505b612fa28582612f27565b865550613009565b601f198416612fb886612da5565b5f5b82811015612fdf57848901518255600182019150602085019450602081019050612fba565b86831015612ffc5784890151612ff8601f891682612f0b565b8355505b6001600288020188555050505b505050505050565b61301a81612214565b82525050565b5f60a0820190506130335f8301886124b0565b81810360208301526130458187612832565b90506130546040830186613011565b61306160608301856124b0565b61306e60808301846124b0565b9695505050505050565b7f45544820746f206c6f636b206d75737420612076616c756520677265617465725f8201527f207468616e203000000000000000000000000000000000000000000000000000602082015250565b5f6130d2602783612822565b91506130dd82613078565b604082019050919050565b5f6020820190508181035f8301526130ff816130c6565b9050919050565b7f546865206c6f636b706572696f64206d757374206265206772656174657220745f8201527f68656e207a65726f000000000000000000000000000000000000000000000000602082015250565b5f613160602883612822565b915061316b82613106565b604082019050919050565b5f6020820190508181035f83015261318d81613154565b9050919050565b7f4e487b71000000000000000000000000000000000000000000000000000000005f52603260045260245ffd5b5f81546131cd81612d75565b6131d78186612822565b9450600182165f81146131f1576001811461320757613239565b60ff198316865281151560200286019350613239565b61321085612da5565b5f5b8381101561323157815481890152600182019150602081019050613212565b808801955050505b50505092915050565b5f6080820190506132555f8301876124b0565b818103602083015261326781866131c1565b90506132766040830185613011565b61328360608301846124b0565b95945050505050565b7f5468652073706563696669656420617373657420494420697320696e76616c695f8201527f642e000000000000000000000000000000000000000000000000000000000000602082015250565b5f6132e6602283612822565b91506132f18261328c565b604082019050919050565b5f6020820190508181035f830152613313816132da565b9050919050565b7f546865206c6f636b20706572696f6420686173206e6f742079657420657870695f8201527f7265642100000000000000000000000000000000000000000000000000000000602082015250565b5f613374602483612822565b915061337f8261331a565b604082019050919050565b5f6020820190508181035f8301526133a181613368565b9050919050565b5f6080820190506133bb5f830187613011565b6133c860208301866124b0565b81810360408301526133da81856131c1565b90506133e960608301846124b0565b95945050505050565b7f417373657473206861766520616c7265616479206265656e20776974686472615f8201527f776e210000000000000000000000000000000000000000000000000000000000602082015250565b5f61344c602383612822565b9150613457826133f2565b604082019050919050565b5f6020820190508181035f83015261347981613440565b9050919050565b7f4e6f7420656e6f7567682061737365747320746f2077697468647261772100005f82015250565b5f6134b4601e83612822565b91506134bf82613480565b602082019050919050565b5f6020820190508181035f8301526134e1816134a8565b9050919050565b7f546865206c6f636b20706572696f6420686173206e6f742079657420657870695f8201527f72656420616e64207468652076616c756520686173206e6f742072656163686560208201527f642073657420676f616c21000000000000000000000000000000000000000000604082015250565b5f613568604b83612822565b9150613573826134e8565b606082019050919050565b5f6020820190508181035f8301526135958161355c565b9050919050565b5f6135a6826121e1565b91506135b1836121e1565b92508282039050818111156135c9576135c8612ce8565b5b92915050565b5f81905092915050565b50565b5f6135e75f836135cf565b91506135f2826135d9565b5f82019050919050565b5f613606826135dc565b9150819050919050565b7f455448207472616e73666572206661696c6564000000000000000000000000005f82015250565b5f613644601383612822565b915061364f82613610565b602082019050919050565b5f6020820190508181035f83015261367181613638565b9050919050565b7f45544820746f2061646420746f206c6f636b206d75737420626520616e20616d5f8201527f6f756e742067726561746572207468616e203000000000000000000000000000602082015250565b5f6136d2603383612822565b91506136dd82613678565b604082019050919050565b5f6020820190508181035f8301526136ff816136c6565b9050919050565b5f6060820190506137195f830186612813565b6137266020830185612813565b61373360408301846124b0565b949350505050565b5f60408201905061374e5f830185612813565b61375b60208301846124b0565b939250505056fea2646970667358221220062c60ebc737e56d68e8b40088eaa47aba3cbaa125e74dcc86c38ec57d59293064736f6c634300081a0033",
					"opcodes": "PUSH1 0x80 PUSH1 0x40 MSTORE CALLVALUE DUP1 ISZERO PUSH2 0xF JUMPI PUSH0 DUP1 REVERT JUMPDEST POP CALLER PUSH0 PUSH20 0xFFFFFFFFFFFFFFFFFFFFFFFFFFFFFFFFFFFFFFFF AND DUP2 PUSH20 0xFFFFFFFFFFFFFFFFFFFFFFFFFFFFFFFFFFFFFFFF AND SUB PUSH2 0x81 JUMPI PUSH0 PUSH1 0x40 MLOAD PUSH32 0x1E4FBDF700000000000000000000000000000000000000000000000000000000 DUP2 MSTORE PUSH1 0x4 ADD PUSH2 0x78 SWAP2 SWAP1 PUSH2 0x19D JUMP JUMPDEST PUSH1 0x40 MLOAD DUP1 SWAP2 SUB SWAP1 REVERT JUMPDEST PUSH2 0x90 DUP2 PUSH2 0x9D PUSH1 0x20 SHL PUSH1 0x20 SHR JUMP JUMPDEST POP PUSH1 0x1 DUP1 DUP2 SWAP1 SSTORE POP PUSH2 0x1B6 JUMP JUMPDEST PUSH0 DUP1 PUSH0 SWAP1 SLOAD SWAP1 PUSH2 0x100 EXP SWAP1 DIV PUSH20 0xFFFFFFFFFFFFFFFFFFFFFFFFFFFFFFFFFFFFFFFF AND SWAP1 POP DUP2 PUSH0 DUP1 PUSH2 0x100 EXP DUP2 SLOAD DUP2 PUSH20 0xFFFFFFFFFFFFFFFFFFFFFFFFFFFFFFFFFFFFFFFF MUL NOT AND SWAP1 DUP4 PUSH20 0xFFFFFFFFFFFFFFFFFFFFFFFFFFFFFFFFFFFFFFFF AND MUL OR SWAP1 SSTORE POP DUP2 PUSH20 0xFFFFFFFFFFFFFFFFFFFFFFFFFFFFFFFFFFFFFFFF AND DUP2 PUSH20 0xFFFFFFFFFFFFFFFFFFFFFFFFFFFFFFFFFFFFFFFF AND PUSH32 0x8BE0079C531659141344CD1FD0A4F28419497F9722A3DAAFE3B4186F6B6457E0 PUSH1 0x40 MLOAD PUSH1 0x40 MLOAD DUP1 SWAP2 SUB SWAP1 LOG3 POP POP JUMP JUMPDEST PUSH0 PUSH20 0xFFFFFFFFFFFFFFFFFFFFFFFFFFFFFFFFFFFFFFFF DUP3 AND SWAP1 POP SWAP2 SWAP1 POP JUMP JUMPDEST PUSH0 PUSH2 0x187 DUP3 PUSH2 0x15E JUMP JUMPDEST SWAP1 POP SWAP2 SWAP1 POP JUMP JUMPDEST PUSH2 0x197 DUP2 PUSH2 0x17D JUMP JUMPDEST DUP3 MSTORE POP POP JUMP JUMPDEST PUSH0 PUSH1 0x20 DUP3 ADD SWAP1 POP PUSH2 0x1B0 PUSH0 DUP4 ADD DUP5 PUSH2 0x18E JUMP JUMPDEST SWAP3 SWAP2 POP POP JUMP JUMPDEST PUSH2 0x3798 DUP1 PUSH2 0x1C3 PUSH0 CODECOPY PUSH0 RETURN INVALID PUSH1 0x80 PUSH1 0x40 MSTORE PUSH1 0x4 CALLDATASIZE LT PUSH2 0xDC JUMPI PUSH0 CALLDATALOAD PUSH1 0xE0 SHR DUP1 PUSH4 0x8C89A0AD GT PUSH2 0x7E JUMPI DUP1 PUSH4 0x8E06B906 GT PUSH2 0x58 JUMPI DUP1 PUSH4 0x8E06B906 EQ PUSH2 0x296 JUMPI DUP1 PUSH4 0xC5F441EA EQ PUSH2 0x2D7 JUMPI DUP1 PUSH4 0xECAA9D05 EQ PUSH2 0x2FF JUMPI DUP1 PUSH4 0xF2FDE38B EQ PUSH2 0x31B JUMPI PUSH2 0xDC JUMP JUMPDEST DUP1 PUSH4 0x8C89A0AD EQ PUSH2 0x21A JUMPI DUP1 PUSH4 0x8DA5CB5B EQ PUSH2 0x244 JUMPI DUP1 PUSH4 0x8DE8107B EQ PUSH2 0x26E JUMPI PUSH2 0xDC JUMP JUMPDEST DUP1 PUSH4 0x2D8FEFC2 GT PUSH2 0xBA JUMPI DUP1 PUSH4 0x2D8FEFC2 EQ PUSH2 0x160 JUMPI DUP1 PUSH4 0x3B958C38 EQ PUSH2 0x188 JUMPI DUP1 PUSH4 0x60864EED EQ PUSH2 0x1C4 JUMPI DUP1 PUSH4 0x715018A6 EQ PUSH2 0x204 JUMPI PUSH2 0xDC JUMP JUMPDEST DUP1 PUSH4 0xF1419B5 EQ PUSH2 0xE0 JUMPI DUP1 PUSH4 0x13A2E884 EQ PUSH2 0x108 JUMPI DUP1 PUSH4 0x14205E28 EQ PUSH2 0x124 JUMPI JUMPDEST PUSH0 DUP1 REVERT JUMPDEST CALLVALUE DUP1 ISZERO PUSH2 0xEB JUMPI PUSH0 DUP1 REVERT JUMPDEST POP PUSH2 0x106 PUSH1 0x4 DUP1 CALLDATASIZE SUB DUP2 ADD SWAP1 PUSH2 0x101 SWAP2 SWAP1 PUSH2 0x2386 JUMP JUMPDEST PUSH2 0x343 JUMP JUMPDEST STOP JUMPDEST PUSH2 0x122 PUSH1 0x4 DUP1 CALLDATASIZE SUB DUP2 ADD SWAP1 PUSH2 0x11D SWAP2 SWAP1 PUSH2 0x2419 JUMP JUMPDEST PUSH2 0x71F JUMP JUMPDEST STOP JUMPDEST CALLVALUE DUP1 ISZERO PUSH2 0x12F JUMPI PUSH0 DUP1 REVERT JUMPDEST POP PUSH2 0x14A PUSH1 0x4 DUP1 CALLDATASIZE SUB DUP2 ADD SWAP1 PUSH2 0x145 SWAP2 SWAP1 PUSH2 0x2485 JUMP JUMPDEST PUSH2 0x9A1 JUMP JUMPDEST PUSH1 0x40 MLOAD PUSH2 0x157 SWAP2 SWAP1 PUSH2 0x24BF JUMP JUMPDEST PUSH1 0x40 MLOAD DUP1 SWAP2 SUB SWAP1 RETURN JUMPDEST CALLVALUE DUP1 ISZERO PUSH2 0x16B JUMPI PUSH0 DUP1 REVERT JUMPDEST POP PUSH2 0x186 PUSH1 0x4 DUP1 CALLDATASIZE SUB DUP2 ADD SWAP1 PUSH2 0x181 SWAP2 SWAP1 PUSH2 0x2511 JUMP JUMPDEST PUSH2 0xA21 JUMP JUMPDEST STOP JUMPDEST CALLVALUE DUP1 ISZERO PUSH2 0x193 JUMPI PUSH0 DUP1 REVERT JUMPDEST POP PUSH2 0x1AE PUSH1 0x4 DUP1 CALLDATASIZE SUB DUP2 ADD SWAP1 PUSH2 0x1A9 SWAP2 SWAP1 PUSH2 0x2575 JUMP JUMPDEST PUSH2 0xD0B JUMP JUMPDEST PUSH1 0x40 MLOAD PUSH2 0x1BB SWAP2 SWAP1 PUSH2 0x2779 JUMP JUMPDEST PUSH1 0x40 MLOAD DUP1 SWAP2 SUB SWAP1 RETURN JUMPDEST CALLVALUE DUP1 ISZERO PUSH2 0x1CF JUMPI PUSH0 DUP1 REVERT JUMPDEST POP PUSH2 0x1EA PUSH1 0x4 DUP1 CALLDATASIZE SUB DUP2 ADD SWAP1 PUSH2 0x1E5 SWAP2 SWAP1 PUSH2 0x27C3 JUMP JUMPDEST PUSH2 0xEE6 JUMP JUMPDEST PUSH1 0x40 MLOAD PUSH2 0x1FB SWAP6 SWAP5 SWAP4 SWAP3 SWAP2 SWAP1 PUSH2 0x2879 JUMP JUMPDEST PUSH1 0x40 MLOAD DUP1 SWAP2 SUB SWAP1 RETURN JUMPDEST CALLVALUE DUP1 ISZERO PUSH2 0x20F JUMPI PUSH0 DUP1 REVERT JUMPDEST POP PUSH2 0x218 PUSH2 0xFEE JUMP JUMPDEST STOP JUMPDEST CALLVALUE DUP1 ISZERO PUSH2 0x225 JUMPI PUSH0 DUP1 REVERT JUMPDEST POP PUSH2 0x22E PUSH2 0x1001 JUMP JUMPDEST PUSH1 0x40 MLOAD PUSH2 0x23B SWAP2 SWAP1 PUSH2 0x24BF JUMP JUMPDEST PUSH1 0x40 MLOAD DUP1 SWAP2 SUB SWAP1 RETURN JUMPDEST CALLVALUE DUP1 ISZERO PUSH2 0x24F JUMPI PUSH0 DUP1 REVERT JUMPDEST POP PUSH2 0x258 PUSH2 0x1008 JUMP JUMPDEST PUSH1 0x40 MLOAD PUSH2 0x265 SWAP2 SWAP1 PUSH2 0x28D1 JUMP JUMPDEST PUSH1 0x40 MLOAD DUP1 SWAP2 SUB SWAP1 RETURN JUMPDEST CALLVALUE DUP1 ISZERO PUSH2 0x279 JUMPI PUSH0 DUP1 REVERT JUMPDEST POP PUSH2 0x294 PUSH1 0x4 DUP1 CALLDATASIZE SUB DUP2 ADD SWAP1 PUSH2 0x28F SWAP2 SWAP1 PUSH2 0x28EA JUMP JUMPDEST PUSH2 0x102F JUMP JUMPDEST STOP JUMPDEST CALLVALUE DUP1 ISZERO PUSH2 0x2A1 JUMPI PUSH0 DUP1 REVERT JUMPDEST POP PUSH2 0x2BC PUSH1 0x4 DUP1 CALLDATASIZE SUB DUP2 ADD SWAP1 PUSH2 0x2B7 SWAP2 SWAP1 PUSH2 0x27C3 JUMP JUMPDEST PUSH2 0x1293 JUMP JUMPDEST PUSH1 0x40 MLOAD PUSH2 0x2CE SWAP7 SWAP6 SWAP5 SWAP4 SWAP3 SWAP2 SWAP1 PUSH2 0x293A JUMP JUMPDEST PUSH1 0x40 MLOAD DUP1 SWAP2 SUB SWAP1 RETURN JUMPDEST CALLVALUE DUP1 ISZERO PUSH2 0x2E2 JUMPI PUSH0 DUP1 REVERT JUMPDEST POP PUSH2 0x2FD PUSH1 0x4 DUP1 CALLDATASIZE SUB DUP2 ADD SWAP1 PUSH2 0x2F8 SWAP2 SWAP1 PUSH2 0x29CA JUMP JUMPDEST PUSH2 0x13AE JUMP JUMPDEST STOP JUMPDEST PUSH2 0x319 PUSH1 0x4 DUP1 CALLDATASIZE SUB DUP2 ADD SWAP1 PUSH2 0x314 SWAP2 SWAP1 PUSH2 0x2A2E JUMP JUMPDEST PUSH2 0x1A0D JUMP JUMPDEST STOP JUMPDEST CALLVALUE DUP1 ISZERO PUSH2 0x326 JUMPI PUSH0 DUP1 REVERT JUMPDEST POP PUSH2 0x341 PUSH1 0x4 DUP1 CALLDATASIZE SUB DUP2 ADD SWAP1 PUSH2 0x33C SWAP2 SWAP1 PUSH2 0x2A6C JUMP JUMPDEST PUSH2 0x1C5A JUMP JUMPDEST STOP JUMPDEST PUSH2 0x34B PUSH2 0x1CDE JUMP JUMPDEST PUSH0 PUSH20 0xFFFFFFFFFFFFFFFFFFFFFFFFFFFFFFFFFFFFFFFF AND DUP6 PUSH20 0xFFFFFFFFFFFFFFFFFFFFFFFFFFFFFFFFFFFFFFFF AND SUB PUSH2 0x3B9 JUMPI PUSH1 0x40 MLOAD PUSH32 0x8C379A000000000000000000000000000000000000000000000000000000000 DUP2 MSTORE PUSH1 0x4 ADD PUSH2 0x3B0 SWAP1 PUSH2 0x2B07 JUMP JUMPDEST PUSH1 0x40 MLOAD DUP1 SWAP2 SUB SWAP1 REVERT JUMPDEST PUSH0 DUP5 GT PUSH2 0x3FB JUMPI PUSH1 0x40 MLOAD PUSH32 0x8C379A000000000000000000000000000000000000000000000000000000000 DUP2 MSTORE PUSH1 0x4 ADD PUSH2 0x3F2 SWAP1 PUSH2 0x2B95 JUMP JUMPDEST PUSH1 0x40 MLOAD DUP1 SWAP2 SUB SWAP1 REVERT JUMPDEST PUSH0 DUP3 GT PUSH2 0x43D JUMPI PUSH1 0x40 MLOAD PUSH32 0x8C379A000000000000000000000000000000000000000000000000000000000 DUP2 MSTORE PUSH1 0x4 ADD PUSH2 0x434 SWAP1 PUSH2 0x2C23 JUMP JUMPDEST PUSH1 0x40 MLOAD DUP1 SWAP2 SUB SWAP1 REVERT JUMPDEST PUSH0 DUP6 PUSH20 0xFFFFFFFFFFFFFFFFFFFFFFFFFFFFFFFFFFFFFFFF AND PUSH4 0x70A08231 CALLER PUSH1 0x40 MLOAD DUP3 PUSH4 0xFFFFFFFF AND PUSH1 0xE0 SHL DUP2 MSTORE PUSH1 0x4 ADD PUSH2 0x477 SWAP2 SWAP1 PUSH2 0x28D1 JUMP JUMPDEST PUSH1 0x20 PUSH1 0x40 MLOAD DUP1 DUP4 SUB DUP2 DUP7 GAS STATICCALL ISZERO DUP1 ISZERO PUSH2 0x492 JUMPI RETURNDATASIZE PUSH0 DUP1 RETURNDATACOPY RETURNDATASIZE PUSH0 REVERT JUMPDEST POP POP POP POP PUSH1 0x40 MLOAD RETURNDATASIZE PUSH1 0x1F NOT PUSH1 0x1F DUP3 ADD AND DUP3 ADD DUP1 PUSH1 0x40 MSTORE POP DUP2 ADD SWAP1 PUSH2 0x4B6 SWAP2 SWAP1 PUSH2 0x2C55 JUMP JUMPDEST SWAP1 POP DUP1 DUP6 GT ISZERO PUSH2 0x4FB JUMPI PUSH1 0x40 MLOAD PUSH32 0x8C379A000000000000000000000000000000000000000000000000000000000 DUP2 MSTORE PUSH1 0x4 ADD PUSH2 0x4F2 SWAP1 PUSH2 0x2CCA JUMP JUMPDEST PUSH1 0x40 MLOAD DUP1 SWAP2 SUB SWAP1 REVERT JUMPDEST PUSH2 0x528 CALLER ADDRESS DUP8 DUP10 PUSH20 0xFFFFFFFFFFFFFFFFFFFFFFFFFFFFFFFFFFFFFFFF AND PUSH2 0x1D24 SWAP1 SWAP4 SWAP3 SWAP2 SWAP1 PUSH4 0xFFFFFFFF AND JUMP JUMPDEST PUSH1 0x2 PUSH0 CALLER PUSH20 0xFFFFFFFFFFFFFFFFFFFFFFFFFFFFFFFFFFFFFFFF AND PUSH20 0xFFFFFFFFFFFFFFFFFFFFFFFFFFFFFFFFFFFFFFFF AND DUP2 MSTORE PUSH1 0x20 ADD SWAP1 DUP2 MSTORE PUSH1 0x20 ADD PUSH0 KECCAK256 PUSH0 DUP6 PUSH1 0xFF AND PUSH1 0xFF AND DUP2 MSTORE PUSH1 0x20 ADD SWAP1 DUP2 MSTORE PUSH1 0x20 ADD PUSH0 KECCAK256 PUSH1 0x40 MLOAD DUP1 PUSH1 0xC0 ADD PUSH1 0x40 MSTORE DUP1 DUP9 PUSH20 0xFFFFFFFFFFFFFFFFFFFFFFFFFFFFFFFFFFFFFFFF AND DUP2 MSTORE PUSH1 0x20 ADD DUP8 DUP2 MSTORE PUSH1 0x20 ADD DUP6 TIMESTAMP PUSH2 0x5B3 SWAP2 SWAP1 PUSH2 0x2D15 JUMP JUMPDEST DUP2 MSTORE PUSH1 0x20 ADD DUP5 DUP2 MSTORE PUSH1 0x20 ADD PUSH0 ISZERO ISZERO DUP2 MSTORE PUSH1 0x20 ADD PUSH0 ISZERO ISZERO DUP2 MSTORE POP SWAP1 DUP1 PUSH1 0x1 DUP2 SLOAD ADD DUP1 DUP3 SSTORE DUP1 SWAP2 POP POP PUSH1 0x1 SWAP1 SUB SWAP1 PUSH0 MSTORE PUSH1 0x20 PUSH0 KECCAK256 SWAP1 PUSH1 0x5 MUL ADD PUSH0 SWAP1 SWAP2 SWAP1 SWAP2 SWAP1 SWAP2 POP PUSH0 DUP3 ADD MLOAD DUP2 PUSH0 ADD PUSH0 PUSH2 0x100 EXP DUP2 SLOAD DUP2 PUSH20 0xFFFFFFFFFFFFFFFFFFFFFFFFFFFFFFFFFFFFFFFF MUL NOT AND SWAP1 DUP4 PUSH20 0xFFFFFFFFFFFFFFFFFFFFFFFFFFFFFFFFFFFFFFFF AND MUL OR SWAP1 SSTORE POP PUSH1 0x20 DUP3 ADD MLOAD DUP2 PUSH1 0x1 ADD SSTORE PUSH1 0x40 DUP3 ADD MLOAD DUP2 PUSH1 0x2 ADD SSTORE PUSH1 0x60 DUP3 ADD MLOAD DUP2 PUSH1 0x3 ADD SWAP1 DUP2 PUSH2 0x65F SWAP2 SWAP1 PUSH2 0x2F42 JUMP JUMPDEST POP PUSH1 0x80 DUP3 ADD MLOAD DUP2 PUSH1 0x4 ADD PUSH0 PUSH2 0x100 EXP DUP2 SLOAD DUP2 PUSH1 0xFF MUL NOT AND SWAP1 DUP4 ISZERO ISZERO MUL OR SWAP1 SSTORE POP PUSH1 0xA0 DUP3 ADD MLOAD DUP2 PUSH1 0x4 ADD PUSH1 0x1 PUSH2 0x100 EXP DUP2 SLOAD DUP2 PUSH1 0xFF MUL NOT AND SWAP1 DUP4 ISZERO ISZERO MUL OR SWAP1 SSTORE POP POP POP PUSH2 0x6AE DUP7 DUP6 DUP8 DUP6 PUSH0 PUSH2 0x1DA6 JUMP JUMPDEST DUP6 PUSH20 0xFFFFFFFFFFFFFFFFFFFFFFFFFFFFFFFFFFFFFFFF AND PUSH32 0xED26BD61B6BF2F43D7471454E53E77FFDC96BEEFA2F198977936F6D02D34563D DUP7 DUP5 DUP8 DUP8 TIMESTAMP PUSH2 0x6F5 SWAP2 SWAP1 PUSH2 0x2D15 JUMP JUMPDEST TIMESTAMP PUSH1 0x40 MLOAD PUSH2 0x707 SWAP6 SWAP5 SWAP4 SWAP3 SWAP2 SWAP1 PUSH2 0x3020 JUMP JUMPDEST PUSH1 0x40 MLOAD DUP1 SWAP2 SUB SWAP1 LOG2 POP PUSH2 0x718 PUSH2 0x1EF3 JUMP JUMPDEST POP POP POP POP POP JUMP JUMPDEST PUSH2 0x727 PUSH2 0x1CDE JUMP JUMPDEST PUSH0 CALLVALUE GT PUSH2 0x769 JUMPI PUSH1 0x40 MLOAD PUSH32 0x8C379A000000000000000000000000000000000000000000000000000000000 DUP2 MSTORE PUSH1 0x4 ADD PUSH2 0x760 SWAP1 PUSH2 0x30E8 JUMP JUMPDEST PUSH1 0x40 MLOAD DUP1 SWAP2 SUB SWAP1 REVERT JUMPDEST PUSH0 DUP3 LT ISZERO PUSH2 0x7AC JUMPI PUSH1 0x40 MLOAD PUSH32 0x8C379A000000000000000000000000000000000000000000000000000000000 DUP2 MSTORE PUSH1 0x4 ADD PUSH2 0x7A3 SWAP1 PUSH2 0x3176 JUMP JUMPDEST PUSH1 0x40 MLOAD DUP1 SWAP2 SUB SWAP1 REVERT JUMPDEST PUSH1 0x2 PUSH0 CALLER PUSH20 0xFFFFFFFFFFFFFFFFFFFFFFFFFFFFFFFFFFFFFFFF AND PUSH20 0xFFFFFFFFFFFFFFFFFFFFFFFFFFFFFFFFFFFFFFFF AND DUP2 MSTORE PUSH1 0x20 ADD SWAP1 DUP2 MSTORE PUSH1 0x20 ADD PUSH0 KECCAK256 PUSH0 DUP5 PUSH1 0xFF AND PUSH1 0xFF AND DUP2 MSTORE PUSH1 0x20 ADD SWAP1 DUP2 MSTORE PUSH1 0x20 ADD PUSH0 KECCAK256 PUSH1 0x40 MLOAD DUP1 PUSH1 0xC0 ADD PUSH1 0x40 MSTORE DUP1 PUSH0 PUSH20 0xFFFFFFFFFFFFFFFFFFFFFFFFFFFFFFFFFFFFFFFF AND DUP2 MSTORE PUSH1 0x20 ADD CALLVALUE DUP2 MSTORE PUSH1 0x20 ADD DUP5 TIMESTAMP PUSH2 0x837 SWAP2 SWAP1 PUSH2 0x2D15 JUMP JUMPDEST DUP2 MSTORE PUSH1 0x20 ADD DUP4 DUP2 MSTORE PUSH1 0x20 ADD PUSH0 ISZERO ISZERO DUP2 MSTORE PUSH1 0x20 ADD PUSH1 0x1 ISZERO ISZERO DUP2 MSTORE POP SWAP1 DUP1 PUSH1 0x1 DUP2 SLOAD ADD DUP1 DUP3 SSTORE DUP1 SWAP2 POP POP PUSH1 0x1 SWAP1 SUB SWAP1 PUSH0 MSTORE PUSH1 0x20 PUSH0 KECCAK256 SWAP1 PUSH1 0x5 MUL ADD PUSH0 SWAP1 SWAP2 SWAP1 SWAP2 SWAP1 SWAP2 POP PUSH0 DUP3 ADD MLOAD DUP2 PUSH0 ADD PUSH0 PUSH2 0x100 EXP DUP2 SLOAD DUP2 PUSH20 0xFFFFFFFFFFFFFFFFFFFFFFFFFFFFFFFFFFFFFFFF MUL NOT AND SWAP1 DUP4 PUSH20 0xFFFFFFFFFFFFFFFFFFFFFFFFFFFFFFFFFFFFFFFF AND MUL OR SWAP1 SSTORE POP PUSH1 0x20 DUP3 ADD MLOAD DUP2 PUSH1 0x1 ADD SSTORE PUSH1 0x40 DUP3 ADD MLOAD DUP2 PUSH1 0x2 ADD SSTORE PUSH1 0x60 DUP3 ADD MLOAD DUP2 PUSH1 0x3 ADD SWAP1 DUP2 PUSH2 0x8E4 SWAP2 SWAP1 PUSH2 0x2F42 JUMP JUMPDEST POP PUSH1 0x80 DUP3 ADD MLOAD DUP2 PUSH1 0x4 ADD PUSH0 PUSH2 0x100 EXP DUP2 SLOAD DUP2 PUSH1 0xFF MUL NOT AND SWAP1 DUP4 ISZERO ISZERO MUL OR SWAP1 SSTORE POP PUSH1 0xA0 DUP3 ADD MLOAD DUP2 PUSH1 0x4 ADD PUSH1 0x1 PUSH2 0x100 EXP DUP2 SLOAD DUP2 PUSH1 0xFF MUL NOT AND SWAP1 DUP4 ISZERO ISZERO MUL OR SWAP1 SSTORE POP POP POP PUSH2 0x933 PUSH0 DUP5 CALLVALUE DUP5 PUSH0 PUSH2 0x1DA6 JUMP JUMPDEST PUSH0 PUSH20 0xFFFFFFFFFFFFFFFFFFFFFFFFFFFFFFFFFFFFFFFF AND PUSH32 0xED26BD61B6BF2F43D7471454E53E77FFDC96BEEFA2F198977936F6D02D34563D CALLVALUE DUP4 DUP7 DUP7 TIMESTAMP PUSH2 0x97A SWAP2 SWAP1 PUSH2 0x2D15 JUMP JUMPDEST TIMESTAMP PUSH1 0x40 MLOAD PUSH2 0x98C SWAP6 SWAP5 SWAP4 SWAP3 SWAP2 SWAP1 PUSH2 0x3020 JUMP JUMPDEST PUSH1 0x40 MLOAD DUP1 SWAP2 SUB SWAP1 LOG2 PUSH2 0x99C PUSH2 0x1EF3 JUMP JUMPDEST POP POP POP JUMP JUMPDEST PUSH0 DUP2 PUSH20 0xFFFFFFFFFFFFFFFFFFFFFFFFFFFFFFFFFFFFFFFF AND PUSH4 0x70A08231 ADDRESS PUSH1 0x40 MLOAD DUP3 PUSH4 0xFFFFFFFF AND PUSH1 0xE0 SHL DUP2 MSTORE PUSH1 0x4 ADD PUSH2 0x9DB SWAP2 SWAP1 PUSH2 0x28D1 JUMP JUMPDEST PUSH1 0x20 PUSH1 0x40 MLOAD DUP1 DUP4 SUB DUP2 DUP7 GAS STATICCALL ISZERO DUP1 ISZERO PUSH2 0x9F6 JUMPI RETURNDATASIZE PUSH0 DUP1 RETURNDATACOPY RETURNDATASIZE PUSH0 REVERT JUMPDEST POP POP POP POP PUSH1 0x40 MLOAD RETURNDATASIZE PUSH1 0x1F NOT PUSH1 0x1F DUP3 ADD AND DUP3 ADD DUP1 PUSH1 0x40 MSTORE POP DUP2 ADD SWAP1 PUSH2 0xA1A SWAP2 SWAP1 PUSH2 0x2C55 JUMP JUMPDEST SWAP1 POP SWAP2 SWAP1 POP JUMP JUMPDEST PUSH2 0xA29 PUSH2 0x1CDE JUMP JUMPDEST PUSH0 PUSH20 0xFFFFFFFFFFFFFFFFFFFFFFFFFFFFFFFFFFFFFFFF AND DUP5 PUSH20 0xFFFFFFFFFFFFFFFFFFFFFFFFFFFFFFFFFFFFFFFF AND SUB PUSH2 0xA97 JUMPI PUSH1 0x40 MLOAD PUSH32 0x8C379A000000000000000000000000000000000000000000000000000000000 DUP2 MSTORE PUSH1 0x4 ADD PUSH2 0xA8E SWAP1 PUSH2 0x2B07 JUMP JUMPDEST PUSH1 0x40 MLOAD DUP1 SWAP2 SUB SWAP1 REVERT JUMPDEST PUSH0 DUP3 GT PUSH2 0xAD9 JUMPI PUSH1 0x40 MLOAD PUSH32 0x8C379A000000000000000000000000000000000000000000000000000000000 DUP2 MSTORE PUSH1 0x4 ADD PUSH2 0xAD0 SWAP1 PUSH2 0x2B95 JUMP JUMPDEST PUSH1 0x40 MLOAD DUP1 SWAP2 SUB SWAP1 REVERT JUMPDEST PUSH0 PUSH1 0x2 PUSH0 CALLER PUSH20 0xFFFFFFFFFFFFFFFFFFFFFFFFFFFFFFFFFFFFFFFF AND PUSH20 0xFFFFFFFFFFFFFFFFFFFFFFFFFFFFFFFFFFFFFFFF AND DUP2 MSTORE PUSH1 0x20 ADD SWAP1 DUP2 MSTORE PUSH1 0x20 ADD PUSH0 KECCAK256 PUSH0 DUP4 PUSH1 0xFF AND PUSH1 0xFF AND DUP2 MSTORE PUSH1 0x20 ADD SWAP1 DUP2 MSTORE PUSH1 0x20 ADD PUSH0 KECCAK256 DUP5 PUSH4 0xFFFFFFFF AND DUP2 SLOAD DUP2 LT PUSH2 0xB44 JUMPI PUSH2 0xB43 PUSH2 0x3194 JUMP JUMPDEST JUMPDEST SWAP1 PUSH0 MSTORE PUSH1 0x20 PUSH0 KECCAK256 SWAP1 PUSH1 0x5 MUL ADD SWAP1 POP PUSH2 0xB7F CALLER ADDRESS DUP6 DUP9 PUSH20 0xFFFFFFFFFFFFFFFFFFFFFFFFFFFFFFFFFFFFFFFF AND PUSH2 0x1D24 SWAP1 SWAP4 SWAP3 SWAP2 SWAP1 PUSH4 0xFFFFFFFF AND JUMP JUMPDEST DUP3 PUSH1 0x2 PUSH0 CALLER PUSH20 0xFFFFFFFFFFFFFFFFFFFFFFFFFFFFFFFFFFFFFFFF AND PUSH20 0xFFFFFFFFFFFFFFFFFFFFFFFFFFFFFFFFFFFFFFFF AND DUP2 MSTORE PUSH1 0x20 ADD SWAP1 DUP2 MSTORE PUSH1 0x20 ADD PUSH0 KECCAK256 PUSH0 DUP5 PUSH1 0xFF AND PUSH1 0xFF AND DUP2 MSTORE PUSH1 0x20 ADD SWAP1 DUP2 MSTORE PUSH1 0x20 ADD PUSH0 KECCAK256 DUP6 PUSH4 0xFFFFFFFF AND DUP2 SLOAD DUP2 LT PUSH2 0xBEA JUMPI PUSH2 0xBE9 PUSH2 0x3194 JUMP JUMPDEST JUMPDEST SWAP1 PUSH0 MSTORE PUSH1 0x20 PUSH0 KECCAK256 SWAP1 PUSH1 0x5 MUL ADD PUSH1 0x1 ADD PUSH0 DUP3 DUP3 SLOAD PUSH2 0xC07 SWAP2 SWAP1 PUSH2 0x2D15 JUMP JUMPDEST SWAP3 POP POP DUP2 SWAP1 SSTORE POP PUSH2 0xCA5 DUP6 DUP4 DUP6 DUP5 PUSH1 0x3 ADD DUP1 SLOAD PUSH2 0xC23 SWAP1 PUSH2 0x2D75 JUMP JUMPDEST DUP1 PUSH1 0x1F ADD PUSH1 0x20 DUP1 SWAP2 DIV MUL PUSH1 0x20 ADD PUSH1 0x40 MLOAD SWAP1 DUP2 ADD PUSH1 0x40 MSTORE DUP1 SWAP3 SWAP2 SWAP1 DUP2 DUP2 MSTORE PUSH1 0x20 ADD DUP3 DUP1 SLOAD PUSH2 0xC4F SWAP1 PUSH2 0x2D75 JUMP JUMPDEST DUP1 ISZERO PUSH2 0xC9A JUMPI DUP1 PUSH1 0x1F LT PUSH2 0xC71 JUMPI PUSH2 0x100 DUP1 DUP4 SLOAD DIV MUL DUP4 MSTORE SWAP2 PUSH1 0x20 ADD SWAP2 PUSH2 0xC9A JUMP JUMPDEST DUP3 ADD SWAP2 SWAP1 PUSH0 MSTORE PUSH1 0x20 PUSH0 KECCAK256 SWAP1 JUMPDEST DUP2 SLOAD DUP2 MSTORE SWAP1 PUSH1 0x1 ADD SWAP1 PUSH1 0x20 ADD DUP1 DUP4 GT PUSH2 0xC7D JUMPI DUP3 SWAP1 SUB PUSH1 0x1F AND DUP3 ADD SWAP2 JUMPDEST POP POP POP POP POP PUSH0 PUSH2 0x1DA6 JUMP JUMPDEST DUP5 PUSH20 0xFFFFFFFFFFFFFFFFFFFFFFFFFFFFFFFFFFFFFFFF AND PUSH32 0xB99CE8321B94FFAA5C5021540EC0668DCBA948D044760A5EF298FA0513B1EF4 DUP5 DUP4 PUSH1 0x3 ADD DUP6 TIMESTAMP PUSH1 0x40 MLOAD PUSH2 0xCF4 SWAP5 SWAP4 SWAP3 SWAP2 SWAP1 PUSH2 0x3242 JUMP JUMPDEST PUSH1 0x40 MLOAD DUP1 SWAP2 SUB SWAP1 LOG2 POP PUSH2 0xD05 PUSH2 0x1EF3 JUMP JUMPDEST POP POP POP POP JUMP JUMPDEST PUSH1 0x60 PUSH1 0x2 PUSH0 CALLER PUSH20 0xFFFFFFFFFFFFFFFFFFFFFFFFFFFFFFFFFFFFFFFF AND PUSH20 0xFFFFFFFFFFFFFFFFFFFFFFFFFFFFFFFFFFFFFFFF AND DUP2 MSTORE PUSH1 0x20 ADD SWAP1 DUP2 MSTORE PUSH1 0x20 ADD PUSH0 KECCAK256 PUSH0 DUP4 PUSH1 0xFF AND PUSH1 0xFF AND DUP2 MSTORE PUSH1 0x20 ADD SWAP1 DUP2 MSTORE PUSH1 0x20 ADD PUSH0 KECCAK256 DUP1 SLOAD DUP1 PUSH1 0x20 MUL PUSH1 0x20 ADD PUSH1 0x40 MLOAD SWAP1 DUP2 ADD PUSH1 0x40 MSTORE DUP1 SWAP3 SWAP2 SWAP1 DUP2 DUP2 MSTORE PUSH1 0x20 ADD PUSH0 SWAP1 JUMPDEST DUP3 DUP3 LT ISZERO PUSH2 0xEDB JUMPI DUP4 DUP3 SWAP1 PUSH0 MSTORE PUSH1 0x20 PUSH0 KECCAK256 SWAP1 PUSH1 0x5 MUL ADD PUSH1 0x40 MLOAD DUP1 PUSH1 0xC0 ADD PUSH1 0x40 MSTORE SWAP1 DUP2 PUSH0 DUP3 ADD PUSH0 SWAP1 SLOAD SWAP1 PUSH2 0x100 EXP SWAP1 DIV PUSH20 0xFFFFFFFFFFFFFFFFFFFFFFFFFFFFFFFFFFFFFFFF AND PUSH20 0xFFFFFFFFFFFFFFFFFFFFFFFFFFFFFFFFFFFFFFFF AND PUSH20 0xFFFFFFFFFFFFFFFFFFFFFFFFFFFFFFFFFFFFFFFF AND DUP2 MSTORE PUSH1 0x20 ADD PUSH1 0x1 DUP3 ADD SLOAD DUP2 MSTORE PUSH1 0x20 ADD PUSH1 0x2 DUP3 ADD SLOAD DUP2 MSTORE PUSH1 0x20 ADD PUSH1 0x3 DUP3 ADD DUP1 SLOAD PUSH2 0xE17 SWAP1 PUSH2 0x2D75 JUMP JUMPDEST DUP1 PUSH1 0x1F ADD PUSH1 0x20 DUP1 SWAP2 DIV MUL PUSH1 0x20 ADD PUSH1 0x40 MLOAD SWAP1 DUP2 ADD PUSH1 0x40 MSTORE DUP1 SWAP3 SWAP2 SWAP1 DUP2 DUP2 MSTORE PUSH1 0x20 ADD DUP3 DUP1 SLOAD PUSH2 0xE43 SWAP1 PUSH2 0x2D75 JUMP JUMPDEST DUP1 ISZERO PUSH2 0xE8E JUMPI DUP1 PUSH1 0x1F LT PUSH2 0xE65 JUMPI PUSH2 0x100 DUP1 DUP4 SLOAD DIV MUL DUP4 MSTORE SWAP2 PUSH1 0x20 ADD SWAP2 PUSH2 0xE8E JUMP JUMPDEST DUP3 ADD SWAP2 SWAP1 PUSH0 MSTORE PUSH1 0x20 PUSH0 KECCAK256 SWAP1 JUMPDEST DUP2 SLOAD DUP2 MSTORE SWAP1 PUSH1 0x1 ADD SWAP1 PUSH1 0x20 ADD DUP1 DUP4 GT PUSH2 0xE71 JUMPI DUP3 SWAP1 SUB PUSH1 0x1F AND DUP3 ADD SWAP2 JUMPDEST POP POP POP POP POP DUP2 MSTORE PUSH1 0x20 ADD PUSH1 0x4 DUP3 ADD PUSH0 SWAP1 SLOAD SWAP1 PUSH2 0x100 EXP SWAP1 DIV PUSH1 0xFF AND ISZERO ISZERO ISZERO ISZERO DUP2 MSTORE PUSH1 0x20 ADD PUSH1 0x4 DUP3 ADD PUSH1 0x1 SWAP1 SLOAD SWAP1 PUSH2 0x100 EXP SWAP1 DIV PUSH1 0xFF AND ISZERO ISZERO ISZERO ISZERO DUP2 MSTORE POP POP DUP2 MSTORE PUSH1 0x20 ADD SWAP1 PUSH1 0x1 ADD SWAP1 PUSH2 0xD7E JUMP JUMPDEST POP POP POP POP SWAP1 POP SWAP2 SWAP1 POP JUMP JUMPDEST PUSH1 0x3 PUSH1 0x20 MSTORE DUP3 PUSH0 MSTORE PUSH1 0x40 PUSH0 KECCAK256 PUSH1 0x20 MSTORE DUP2 PUSH0 MSTORE PUSH1 0x40 PUSH0 KECCAK256 DUP2 DUP2 SLOAD DUP2 LT PUSH2 0xF09 JUMPI PUSH0 DUP1 REVERT JUMPDEST SWAP1 PUSH0 MSTORE PUSH1 0x20 PUSH0 KECCAK256 SWAP1 PUSH1 0x5 MUL ADD PUSH0 SWAP3 POP SWAP3 POP POP POP DUP1 PUSH0 ADD PUSH0 SWAP1 SLOAD SWAP1 PUSH2 0x100 EXP SWAP1 DIV PUSH20 0xFFFFFFFFFFFFFFFFFFFFFFFFFFFFFFFFFFFFFFFF AND SWAP1 DUP1 PUSH1 0x1 ADD SLOAD SWAP1 DUP1 PUSH1 0x2 ADD DUP1 SLOAD PUSH2 0xF55 SWAP1 PUSH2 0x2D75 JUMP JUMPDEST DUP1 PUSH1 0x1F ADD PUSH1 0x20 DUP1 SWAP2 DIV MUL PUSH1 0x20 ADD PUSH1 0x40 MLOAD SWAP1 DUP2 ADD PUSH1 0x40 MSTORE DUP1 SWAP3 SWAP2 SWAP1 DUP2 DUP2 MSTORE PUSH1 0x20 ADD DUP3 DUP1 SLOAD PUSH2 0xF81 SWAP1 PUSH2 0x2D75 JUMP JUMPDEST DUP1 ISZERO PUSH2 0xFCC JUMPI DUP1 PUSH1 0x1F LT PUSH2 0xFA3 JUMPI PUSH2 0x100 DUP1 DUP4 SLOAD DIV MUL DUP4 MSTORE SWAP2 PUSH1 0x20 ADD SWAP2 PUSH2 0xFCC JUMP JUMPDEST DUP3 ADD SWAP2 SWAP1 PUSH0 MSTORE PUSH1 0x20 PUSH0 KECCAK256 SWAP1 JUMPDEST DUP2 SLOAD DUP2 MSTORE SWAP1 PUSH1 0x1 ADD SWAP1 PUSH1 0x20 ADD DUP1 DUP4 GT PUSH2 0xFAF JUMPI DUP3 SWAP1 SUB PUSH1 0x1F AND DUP3 ADD SWAP2 JUMPDEST POP POP POP POP POP SWAP1 DUP1 PUSH1 0x3 ADD PUSH0 SWAP1 SLOAD SWAP1 PUSH2 0x100 EXP SWAP1 DIV PUSH1 0xFF AND SWAP1 DUP1 PUSH1 0x4 ADD SLOAD SWAP1 POP DUP6 JUMP JUMPDEST PUSH2 0xFF6 PUSH2 0x1EFC JUMP JUMPDEST PUSH2 0xFFF PUSH0 PUSH2 0x1F83 JUMP JUMPDEST JUMP JUMPDEST PUSH0 SELFBALANCE SWAP1 POP SWAP1 JUMP JUMPDEST PUSH0 DUP1 PUSH0 SWAP1 SLOAD SWAP1 PUSH2 0x100 EXP SWAP1 DIV PUSH20 0xFFFFFFFFFFFFFFFFFFFFFFFFFFFFFFFFFFFFFFFF AND SWAP1 POP SWAP1 JUMP JUMPDEST PUSH0 PUSH1 0x2 PUSH0 CALLER PUSH20 0xFFFFFFFFFFFFFFFFFFFFFFFFFFFFFFFFFFFFFFFF AND PUSH20 0xFFFFFFFFFFFFFFFFFFFFFFFFFFFFFFFFFFFFFFFF AND DUP2 MSTORE PUSH1 0x20 ADD SWAP1 DUP2 MSTORE PUSH1 0x20 ADD PUSH0 KECCAK256 PUSH0 DUP5 PUSH1 0xFF AND PUSH1 0xFF AND DUP2 MSTORE PUSH1 0x20 ADD SWAP1 DUP2 MSTORE PUSH1 0x20 ADD PUSH0 KECCAK256 DUP5 PUSH4 0xFFFFFFFF AND DUP2 SLOAD DUP2 LT PUSH2 0x109A JUMPI PUSH2 0x1099 PUSH2 0x3194 JUMP JUMPDEST JUMPDEST SWAP1 PUSH0 MSTORE PUSH1 0x20 PUSH0 KECCAK256 SWAP1 PUSH1 0x5 MUL ADD SWAP1 POP PUSH1 0x2 PUSH0 CALLER PUSH20 0xFFFFFFFFFFFFFFFFFFFFFFFFFFFFFFFFFFFFFFFF AND PUSH20 0xFFFFFFFFFFFFFFFFFFFFFFFFFFFFFFFFFFFFFFFF AND DUP2 MSTORE PUSH1 0x20 ADD SWAP1 DUP2 MSTORE PUSH1 0x20 ADD PUSH0 KECCAK256 PUSH0 DUP5 PUSH1 0xFF AND PUSH1 0xFF AND DUP2 MSTORE PUSH1 0x20 ADD SWAP1 DUP2 MSTORE PUSH1 0x20 ADD PUSH0 KECCAK256 DUP1 SLOAD SWAP1 POP DUP5 PUSH4 0xFFFFFFFF AND LT PUSH2 0x1145 JUMPI PUSH1 0x40 MLOAD PUSH32 0x8C379A000000000000000000000000000000000000000000000000000000000 DUP2 MSTORE PUSH1 0x4 ADD PUSH2 0x113C SWAP1 PUSH2 0x32FC JUMP JUMPDEST PUSH1 0x40 MLOAD DUP1 SWAP2 SUB SWAP1 REVERT JUMPDEST DUP1 PUSH1 0x2 ADD SLOAD TIMESTAMP GT PUSH2 0x118B JUMPI PUSH1 0x40 MLOAD PUSH32 0x8C379A000000000000000000000000000000000000000000000000000000000 DUP2 MSTORE PUSH1 0x4 ADD PUSH2 0x1182 SWAP1 PUSH2 0x338A JUMP JUMPDEST PUSH1 0x40 MLOAD DUP1 SWAP2 SUB SWAP1 REVERT JUMPDEST DUP2 TIMESTAMP PUSH2 0x1197 SWAP2 SWAP1 PUSH2 0x2D15 JUMP JUMPDEST PUSH1 0x2 PUSH0 CALLER PUSH20 0xFFFFFFFFFFFFFFFFFFFFFFFFFFFFFFFFFFFFFFFF AND PUSH20 0xFFFFFFFFFFFFFFFFFFFFFFFFFFFFFFFFFFFFFFFF AND DUP2 MSTORE PUSH1 0x20 ADD SWAP1 DUP2 MSTORE PUSH1 0x20 ADD PUSH0 KECCAK256 PUSH0 DUP6 PUSH1 0xFF AND PUSH1 0xFF AND DUP2 MSTORE PUSH1 0x20 ADD SWAP1 DUP2 MSTORE PUSH1 0x20 ADD PUSH0 KECCAK256 DUP6 PUSH4 0xFFFFFFFF AND DUP2 SLOAD DUP2 LT PUSH2 0x1201 JUMPI PUSH2 0x1200 PUSH2 0x3194 JUMP JUMPDEST JUMPDEST SWAP1 PUSH0 MSTORE PUSH1 0x20 PUSH0 KECCAK256 SWAP1 PUSH1 0x5 MUL ADD PUSH1 0x2 ADD DUP2 SWAP1 SSTORE POP DUP1 PUSH0 ADD PUSH0 SWAP1 SLOAD SWAP1 PUSH2 0x100 EXP SWAP1 DIV PUSH20 0xFFFFFFFFFFFFFFFFFFFFFFFFFFFFFFFFFFFFFFFF AND PUSH20 0xFFFFFFFFFFFFFFFFFFFFFFFFFFFFFFFFFFFFFFFF AND PUSH32 0x748CB9768EE3F2567793F42A22F5B0C83DF9E14D32EC82C9CB839CB1B357BE13 DUP5 DUP5 DUP5 PUSH1 0x3 ADD TIMESTAMP PUSH1 0x40 MLOAD PUSH2 0x1285 SWAP5 SWAP4 SWAP3 SWAP2 SWAP1 PUSH2 0x33A8 JUMP JUMPDEST PUSH1 0x40 MLOAD DUP1 SWAP2 SUB SWAP1 LOG2 POP POP POP POP JUMP JUMPDEST PUSH1 0x2 PUSH1 0x20 MSTORE DUP3 PUSH0 MSTORE PUSH1 0x40 PUSH0 KECCAK256 PUSH1 0x20 MSTORE DUP2 PUSH0 MSTORE PUSH1 0x40 PUSH0 KECCAK256 DUP2 DUP2 SLOAD DUP2 LT PUSH2 0x12B6 JUMPI PUSH0 DUP1 REVERT JUMPDEST SWAP1 PUSH0 MSTORE PUSH1 0x20 PUSH0 KECCAK256 SWAP1 PUSH1 0x5 MUL ADD PUSH0 SWAP3 POP SWAP3 POP POP POP DUP1 PUSH0 ADD PUSH0 SWAP1 SLOAD SWAP1 PUSH2 0x100 EXP SWAP1 DIV PUSH20 0xFFFFFFFFFFFFFFFFFFFFFFFFFFFFFFFFFFFFFFFF AND SWAP1 DUP1 PUSH1 0x1 ADD SLOAD SWAP1 DUP1 PUSH1 0x2 ADD SLOAD SWAP1 DUP1 PUSH1 0x3 ADD DUP1 SLOAD PUSH2 0x1308 SWAP1 PUSH2 0x2D75 JUMP JUMPDEST DUP1 PUSH1 0x1F ADD PUSH1 0x20 DUP1 SWAP2 DIV MUL PUSH1 0x20 ADD PUSH1 0x40 MLOAD SWAP1 DUP2 ADD PUSH1 0x40 MSTORE DUP1 SWAP3 SWAP2 SWAP1 DUP2 DUP2 MSTORE PUSH1 0x20 ADD DUP3 DUP1 SLOAD PUSH2 0x1334 SWAP1 PUSH2 0x2D75 JUMP JUMPDEST DUP1 ISZERO PUSH2 0x137F JUMPI DUP1 PUSH1 0x1F LT PUSH2 0x1356 JUMPI PUSH2 0x100 DUP1 DUP4 SLOAD DIV MUL DUP4 MSTORE SWAP2 PUSH1 0x20 ADD SWAP2 PUSH2 0x137F JUMP JUMPDEST DUP3 ADD SWAP2 SWAP1 PUSH0 MSTORE PUSH1 0x20 PUSH0 KECCAK256 SWAP1 JUMPDEST DUP2 SLOAD DUP2 MSTORE SWAP1 PUSH1 0x1 ADD SWAP1 PUSH1 0x20 ADD DUP1 DUP4 GT PUSH2 0x1362 JUMPI DUP3 SWAP1 SUB PUSH1 0x1F AND DUP3 ADD SWAP2 JUMPDEST POP POP POP POP POP SWAP1 DUP1 PUSH1 0x4 ADD PUSH0 SWAP1 SLOAD SWAP1 PUSH2 0x100 EXP SWAP1 DIV PUSH1 0xFF AND SWAP1 DUP1 PUSH1 0x4 ADD PUSH1 0x1 SWAP1 SLOAD SWAP1 PUSH2 0x100 EXP SWAP1 DIV PUSH1 0xFF AND SWAP1 POP DUP7 JUMP JUMPDEST PUSH2 0x13B6 PUSH2 0x1CDE JUMP JUMPDEST PUSH1 0x2 PUSH0 CALLER PUSH20 0xFFFFFFFFFFFFFFFFFFFFFFFFFFFFFFFFFFFFFFFF AND PUSH20 0xFFFFFFFFFFFFFFFFFFFFFFFFFFFFFFFFFFFFFFFF AND DUP2 MSTORE PUSH1 0x20 ADD SWAP1 DUP2 MSTORE PUSH1 0x20 ADD PUSH0 KECCAK256 PUSH0 DUP5 PUSH1 0xFF AND PUSH1 0xFF AND DUP2 MSTORE PUSH1 0x20 ADD SWAP1 DUP2 MSTORE PUSH1 0x20 ADD PUSH0 KECCAK256 DUP1 SLOAD SWAP1 POP DUP5 PUSH4 0xFFFFFFFF AND LT PUSH2 0x1453 JUMPI PUSH1 0x40 MLOAD PUSH32 0x8C379A000000000000000000000000000000000000000000000000000000000 DUP2 MSTORE PUSH1 0x4 ADD PUSH2 0x144A SWAP1 PUSH2 0x32FC JUMP JUMPDEST PUSH1 0x40 MLOAD DUP1 SWAP2 SUB SWAP1 REVERT JUMPDEST PUSH0 PUSH1 0x2 PUSH0 CALLER PUSH20 0xFFFFFFFFFFFFFFFFFFFFFFFFFFFFFFFFFFFFFFFF AND PUSH20 0xFFFFFFFFFFFFFFFFFFFFFFFFFFFFFFFFFFFFFFFF AND DUP2 MSTORE PUSH1 0x20 ADD SWAP1 DUP2 MSTORE PUSH1 0x20 ADD PUSH0 KECCAK256 PUSH0 DUP6 PUSH1 0xFF AND PUSH1 0xFF AND DUP2 MSTORE PUSH1 0x20 ADD SWAP1 DUP2 MSTORE PUSH1 0x20 ADD PUSH0 KECCAK256 DUP6 PUSH4 0xFFFFFFFF AND DUP2 SLOAD DUP2 LT PUSH2 0x14BE JUMPI PUSH2 0x14BD PUSH2 0x3194 JUMP JUMPDEST JUMPDEST SWAP1 PUSH0 MSTORE PUSH1 0x20 PUSH0 KECCAK256 SWAP1 PUSH1 0x5 MUL ADD SWAP1 POP DUP1 PUSH1 0x4 ADD PUSH0 SWAP1 SLOAD SWAP1 PUSH2 0x100 EXP SWAP1 DIV PUSH1 0xFF AND ISZERO PUSH2 0x151D JUMPI PUSH1 0x40 MLOAD PUSH32 0x8C379A000000000000000000000000000000000000000000000000000000000 DUP2 MSTORE PUSH1 0x4 ADD PUSH2 0x1514 SWAP1 PUSH2 0x3462 JUMP JUMPDEST PUSH1 0x40 MLOAD DUP1 SWAP2 SUB SWAP1 REVERT JUMPDEST DUP1 PUSH1 0x1 ADD SLOAD DUP4 GT ISZERO PUSH2 0x1564 JUMPI PUSH1 0x40 MLOAD PUSH32 0x8C379A000000000000000000000000000000000000000000000000000000000 DUP2 MSTORE PUSH1 0x4 ADD PUSH2 0x155B SWAP1 PUSH2 0x34CA JUMP JUMPDEST PUSH1 0x40 MLOAD DUP1 SWAP2 SUB SWAP1 REVERT JUMPDEST DUP1 PUSH1 0x2 ADD SLOAD TIMESTAMP GT DUP1 PUSH2 0x1573 JUMPI POP DUP2 JUMPDEST PUSH2 0x15B2 JUMPI PUSH1 0x40 MLOAD PUSH32 0x8C379A000000000000000000000000000000000000000000000000000000000 DUP2 MSTORE PUSH1 0x4 ADD PUSH2 0x15A9 SWAP1 PUSH2 0x357E JUMP JUMPDEST PUSH1 0x40 MLOAD DUP1 SWAP2 SUB SWAP1 REVERT JUMPDEST PUSH0 DUP4 DUP3 PUSH1 0x1 ADD SLOAD PUSH2 0x15C3 SWAP2 SWAP1 PUSH2 0x359C JUMP JUMPDEST SWAP1 POP PUSH0 DUP2 LT ISZERO PUSH2 0x1608 JUMPI PUSH1 0x40 MLOAD PUSH32 0x8C379A000000000000000000000000000000000000000000000000000000000 DUP2 MSTORE PUSH1 0x4 ADD PUSH2 0x15FF SWAP1 PUSH2 0x34CA JUMP JUMPDEST PUSH1 0x40 MLOAD DUP1 SWAP2 SUB SWAP1 REVERT JUMPDEST PUSH0 DUP2 SUB PUSH2 0x16A1 JUMPI PUSH1 0x1 PUSH1 0x2 PUSH0 CALLER PUSH20 0xFFFFFFFFFFFFFFFFFFFFFFFFFFFFFFFFFFFFFFFF AND PUSH20 0xFFFFFFFFFFFFFFFFFFFFFFFFFFFFFFFFFFFFFFFF AND DUP2 MSTORE PUSH1 0x20 ADD SWAP1 DUP2 MSTORE PUSH1 0x20 ADD PUSH0 KECCAK256 PUSH0 DUP8 PUSH1 0xFF AND PUSH1 0xFF AND DUP2 MSTORE PUSH1 0x20 ADD SWAP1 DUP2 MSTORE PUSH1 0x20 ADD PUSH0 KECCAK256 DUP8 PUSH4 0xFFFFFFFF AND DUP2 SLOAD DUP2 LT PUSH2 0x167B JUMPI PUSH2 0x167A PUSH2 0x3194 JUMP JUMPDEST JUMPDEST SWAP1 PUSH0 MSTORE PUSH1 0x20 PUSH0 KECCAK256 SWAP1 PUSH1 0x5 MUL ADD PUSH1 0x4 ADD PUSH0 PUSH2 0x100 EXP DUP2 SLOAD DUP2 PUSH1 0xFF MUL NOT AND SWAP1 DUP4 ISZERO ISZERO MUL OR SWAP1 SSTORE POP JUMPDEST DUP1 PUSH1 0x2 PUSH0 CALLER PUSH20 0xFFFFFFFFFFFFFFFFFFFFFFFFFFFFFFFFFFFFFFFF AND PUSH20 0xFFFFFFFFFFFFFFFFFFFFFFFFFFFFFFFFFFFFFFFF AND DUP2 MSTORE PUSH1 0x20 ADD SWAP1 DUP2 MSTORE PUSH1 0x20 ADD PUSH0 KECCAK256 PUSH0 DUP8 PUSH1 0xFF AND PUSH1 0xFF AND DUP2 MSTORE PUSH1 0x20 ADD SWAP1 DUP2 MSTORE PUSH1 0x20 ADD PUSH0 KECCAK256 DUP8 PUSH4 0xFFFFFFFF AND DUP2 SLOAD DUP2 LT PUSH2 0x170C JUMPI PUSH2 0x170B PUSH2 0x3194 JUMP JUMPDEST JUMPDEST SWAP1 PUSH0 MSTORE PUSH1 0x20 PUSH0 KECCAK256 SWAP1 PUSH1 0x5 MUL ADD PUSH1 0x1 ADD DUP2 SWAP1 SSTORE POP DUP2 PUSH1 0x4 ADD PUSH1 0x1 SWAP1 SLOAD SWAP1 PUSH2 0x100 EXP SWAP1 DIV PUSH1 0xFF AND ISZERO PUSH2 0x187C JUMPI PUSH0 CALLER PUSH20 0xFFFFFFFFFFFFFFFFFFFFFFFFFFFFFFFFFFFFFFFF AND DUP6 PUSH1 0x40 MLOAD PUSH2 0x175B SWAP1 PUSH2 0x35FC JUMP JUMPDEST PUSH0 PUSH1 0x40 MLOAD DUP1 DUP4 SUB DUP2 DUP6 DUP8 GAS CALL SWAP3 POP POP POP RETURNDATASIZE DUP1 PUSH0 DUP2 EQ PUSH2 0x1795 JUMPI PUSH1 0x40 MLOAD SWAP2 POP PUSH1 0x1F NOT PUSH1 0x3F RETURNDATASIZE ADD AND DUP3 ADD PUSH1 0x40 MSTORE RETURNDATASIZE DUP3 MSTORE RETURNDATASIZE PUSH0 PUSH1 0x20 DUP5 ADD RETURNDATACOPY PUSH2 0x179A JUMP JUMPDEST PUSH1 0x60 SWAP2 POP JUMPDEST POP POP SWAP1 POP DUP1 PUSH2 0x17DE JUMPI PUSH1 0x40 MLOAD PUSH32 0x8C379A000000000000000000000000000000000000000000000000000000000 DUP2 MSTORE PUSH1 0x4 ADD PUSH2 0x17D5 SWAP1 PUSH2 0x365A JUMP JUMPDEST PUSH1 0x40 MLOAD DUP1 SWAP2 SUB SWAP1 REVERT JUMPDEST PUSH2 0x1876 PUSH0 DUP8 DUP8 DUP7 PUSH1 0x3 ADD DUP1 SLOAD PUSH2 0x17F3 SWAP1 PUSH2 0x2D75 JUMP JUMPDEST DUP1 PUSH1 0x1F ADD PUSH1 0x20 DUP1 SWAP2 DIV MUL PUSH1 0x20 ADD PUSH1 0x40 MLOAD SWAP1 DUP2 ADD PUSH1 0x40 MSTORE DUP1 SWAP3 SWAP2 SWAP1 DUP2 DUP2 MSTORE PUSH1 0x20 ADD DUP3 DUP1 SLOAD PUSH2 0x181F SWAP1 PUSH2 0x2D75 JUMP JUMPDEST DUP1 ISZERO PUSH2 0x186A JUMPI DUP1 PUSH1 0x1F LT PUSH2 0x1841 JUMPI PUSH2 0x100 DUP1 DUP4 SLOAD DIV MUL DUP4 MSTORE SWAP2 PUSH1 0x20 ADD SWAP2 PUSH2 0x186A JUMP JUMPDEST DUP3 ADD SWAP2 SWAP1 PUSH0 MSTORE PUSH1 0x20 PUSH0 KECCAK256 SWAP1 JUMPDEST DUP2 SLOAD DUP2 MSTORE SWAP1 PUSH1 0x1 ADD SWAP1 PUSH1 0x20 ADD DUP1 DUP4 GT PUSH2 0x184D JUMPI DUP3 SWAP1 SUB PUSH1 0x1F AND DUP3 ADD SWAP2 JUMPDEST POP POP POP POP POP PUSH1 0x1 PUSH2 0x1DA6 JUMP JUMPDEST POP PUSH2 0x1984 JUMP JUMPDEST PUSH2 0x18C9 CALLER DUP6 DUP5 PUSH0 ADD PUSH0 SWAP1 SLOAD SWAP1 PUSH2 0x100 EXP SWAP1 DIV PUSH20 0xFFFFFFFFFFFFFFFFFFFFFFFFFFFFFFFFFFFFFFFF AND PUSH20 0xFFFFFFFFFFFFFFFFFFFFFFFFFFFFFFFFFFFFFFFF AND PUSH2 0x2044 SWAP1 SWAP3 SWAP2 SWAP1 PUSH4 0xFFFFFFFF AND JUMP JUMPDEST PUSH2 0x1983 DUP3 PUSH0 ADD PUSH0 SWAP1 SLOAD SWAP1 PUSH2 0x100 EXP SWAP1 DIV PUSH20 0xFFFFFFFFFFFFFFFFFFFFFFFFFFFFFFFFFFFFFFFF AND DUP7 DUP7 DUP6 PUSH1 0x3 ADD DUP1 SLOAD PUSH2 0x1900 SWAP1 PUSH2 0x2D75 JUMP JUMPDEST DUP1 PUSH1 0x1F ADD PUSH1 0x20 DUP1 SWAP2 DIV MUL PUSH1 0x20 ADD PUSH1 0x40 MLOAD SWAP1 DUP2 ADD PUSH1 0x40 MSTORE DUP1 SWAP3 SWAP2 SWAP1 DUP2 DUP2 MSTORE PUSH1 0x20 ADD DUP3 DUP1 SLOAD PUSH2 0x192C SWAP1 PUSH2 0x2D75 JUMP JUMPDEST DUP1 ISZERO PUSH2 0x1977 JUMPI DUP1 PUSH1 0x1F LT PUSH2 0x194E JUMPI PUSH2 0x100 DUP1 DUP4 SLOAD DIV MUL DUP4 MSTORE SWAP2 PUSH1 0x20 ADD SWAP2 PUSH2 0x1977 JUMP JUMPDEST DUP3 ADD SWAP2 SWAP1 PUSH0 MSTORE PUSH1 0x20 PUSH0 KECCAK256 SWAP1 JUMPDEST DUP2 SLOAD DUP2 MSTORE SWAP1 PUSH1 0x1 ADD SWAP1 PUSH1 0x20 ADD DUP1 DUP4 GT PUSH2 0x195A JUMPI DUP3 SWAP1 SUB PUSH1 0x1F AND DUP3 ADD SWAP2 JUMPDEST POP POP POP POP POP PUSH1 0x1 PUSH2 0x1DA6 JUMP JUMPDEST JUMPDEST DUP2 PUSH0 ADD PUSH0 SWAP1 SLOAD SWAP1 PUSH2 0x100 EXP SWAP1 DIV PUSH20 0xFFFFFFFFFFFFFFFFFFFFFFFFFFFFFFFFFFFFFFFF AND PUSH20 0xFFFFFFFFFFFFFFFFFFFFFFFFFFFFFFFFFFFFFFFF AND PUSH32 0x16C4C024C274B52575FFC17396BBC4A59DB7DD13AAC28373E025A9F6269F9E03 DUP6 DUP5 PUSH1 0x3 ADD DUP9 TIMESTAMP PUSH1 0x40 MLOAD PUSH2 0x19F5 SWAP5 SWAP4 SWAP3 SWAP2 SWAP1 PUSH2 0x3242 JUMP JUMPDEST PUSH1 0x40 MLOAD DUP1 SWAP2 SUB SWAP1 LOG2 POP POP PUSH2 0x1A07 PUSH2 0x1EF3 JUMP JUMPDEST POP POP POP POP JUMP JUMPDEST PUSH2 0x1A15 PUSH2 0x1CDE JUMP JUMPDEST PUSH0 CALLVALUE GT PUSH2 0x1A57 JUMPI PUSH1 0x40 MLOAD PUSH32 0x8C379A000000000000000000000000000000000000000000000000000000000 DUP2 MSTORE PUSH1 0x4 ADD PUSH2 0x1A4E SWAP1 PUSH2 0x36E8 JUMP JUMPDEST PUSH1 0x40 MLOAD DUP1 SWAP2 SUB SWAP1 REVERT JUMPDEST PUSH0 PUSH1 0x2 PUSH0 CALLER PUSH20 0xFFFFFFFFFFFFFFFFFFFFFFFFFFFFFFFFFFFFFFFF AND PUSH20 0xFFFFFFFFFFFFFFFFFFFFFFFFFFFFFFFFFFFFFFFF AND DUP2 MSTORE PUSH1 0x20 ADD SWAP1 DUP2 MSTORE PUSH1 0x20 ADD PUSH0 KECCAK256 PUSH0 DUP5 PUSH1 0xFF AND PUSH1 0xFF AND DUP2 MSTORE PUSH1 0x20 ADD SWAP1 DUP2 MSTORE PUSH1 0x20 ADD PUSH0 KECCAK256 DUP3 PUSH4 0xFFFFFFFF AND DUP2 SLOAD DUP2 LT PUSH2 0x1AC2 JUMPI PUSH2 0x1AC1 PUSH2 0x3194 JUMP JUMPDEST JUMPDEST SWAP1 PUSH0 MSTORE PUSH1 0x20 PUSH0 KECCAK256 SWAP1 PUSH1 0x5 MUL ADD SWAP1 POP CALLVALUE PUSH1 0x2 PUSH0 CALLER PUSH20 0xFFFFFFFFFFFFFFFFFFFFFFFFFFFFFFFFFFFFFFFF AND PUSH20 0xFFFFFFFFFFFFFFFFFFFFFFFFFFFFFFFFFFFFFFFF AND DUP2 MSTORE PUSH1 0x20 ADD SWAP1 DUP2 MSTORE PUSH1 0x20 ADD PUSH0 KECCAK256 PUSH0 DUP6 PUSH1 0xFF AND PUSH1 0xFF AND DUP2 MSTORE PUSH1 0x20 ADD SWAP1 DUP2 MSTORE PUSH1 0x20 ADD PUSH0 KECCAK256 DUP4 PUSH4 0xFFFFFFFF AND DUP2 SLOAD DUP2 LT PUSH2 0x1B3B JUMPI PUSH2 0x1B3A PUSH2 0x3194 JUMP JUMPDEST JUMPDEST SWAP1 PUSH0 MSTORE PUSH1 0x20 PUSH0 KECCAK256 SWAP1 PUSH1 0x5 MUL ADD PUSH1 0x1 ADD PUSH0 DUP3 DUP3 SLOAD PUSH2 0x1B58 SWAP2 SWAP1 PUSH2 0x2D15 JUMP JUMPDEST SWAP3 POP POP DUP2 SWAP1 SSTORE POP PUSH2 0x1BF6 PUSH0 DUP5 CALLVALUE DUP5 PUSH1 0x3 ADD DUP1 SLOAD PUSH2 0x1B74 SWAP1 PUSH2 0x2D75 JUMP JUMPDEST DUP1 PUSH1 0x1F ADD PUSH1 0x20 DUP1 SWAP2 DIV MUL PUSH1 0x20 ADD PUSH1 0x40 MLOAD SWAP1 DUP2 ADD PUSH1 0x40 MSTORE DUP1 SWAP3 SWAP2 SWAP1 DUP2 DUP2 MSTORE PUSH1 0x20 ADD DUP3 DUP1 SLOAD PUSH2 0x1BA0 SWAP1 PUSH2 0x2D75 JUMP JUMPDEST DUP1 ISZERO PUSH2 0x1BEB JUMPI DUP1 PUSH1 0x1F LT PUSH2 0x1BC2 JUMPI PUSH2 0x100 DUP1 DUP4 SLOAD DIV MUL DUP4 MSTORE SWAP2 PUSH1 0x20 ADD SWAP2 PUSH2 0x1BEB JUMP JUMPDEST DUP3 ADD SWAP2 SWAP1 PUSH0 MSTORE PUSH1 0x20 PUSH0 KECCAK256 SWAP1 JUMPDEST DUP2 SLOAD DUP2 MSTORE SWAP1 PUSH1 0x1 ADD SWAP1 PUSH1 0x20 ADD DUP1 DUP4 GT PUSH2 0x1BCE JUMPI DUP3 SWAP1 SUB PUSH1 0x1F AND DUP3 ADD SWAP2 JUMPDEST POP POP POP POP POP PUSH0 PUSH2 0x1DA6 JUMP JUMPDEST PUSH0 PUSH20 0xFFFFFFFFFFFFFFFFFFFFFFFFFFFFFFFFFFFFFFFF AND PUSH32 0xB99CE8321B94FFAA5C5021540EC0668DCBA948D044760A5EF298FA0513B1EF4 CALLVALUE DUP4 PUSH1 0x3 ADD DUP7 TIMESTAMP PUSH1 0x40 MLOAD PUSH2 0x1C45 SWAP5 SWAP4 SWAP3 SWAP2 SWAP1 PUSH2 0x3242 JUMP JUMPDEST PUSH1 0x40 MLOAD DUP1 SWAP2 SUB SWAP1 LOG2 POP PUSH2 0x1C56 PUSH2 0x1EF3 JUMP JUMPDEST POP POP JUMP JUMPDEST PUSH2 0x1C62 PUSH2 0x1EFC JUMP JUMPDEST PUSH0 PUSH20 0xFFFFFFFFFFFFFFFFFFFFFFFFFFFFFFFFFFFFFFFF AND DUP2 PUSH20 0xFFFFFFFFFFFFFFFFFFFFFFFFFFFFFFFFFFFFFFFF AND SUB PUSH2 0x1CD2 JUMPI PUSH0 PUSH1 0x40 MLOAD PUSH32 0x1E4FBDF700000000000000000000000000000000000000000000000000000000 DUP2 MSTORE PUSH1 0x4 ADD PUSH2 0x1CC9 SWAP2 SWAP1 PUSH2 0x28D1 JUMP JUMPDEST PUSH1 0x40 MLOAD DUP1 SWAP2 SUB SWAP1 REVERT JUMPDEST PUSH2 0x1CDB DUP2 PUSH2 0x1F83 JUMP JUMPDEST POP JUMP JUMPDEST PUSH1 0x2 PUSH1 0x1 SLOAD SUB PUSH2 0x1D1A JUMPI PUSH1 0x40 MLOAD PUSH32 0x3EE5AEB500000000000000000000000000000000000000000000000000000000 DUP2 MSTORE PUSH1 0x4 ADD PUSH1 0x40 MLOAD DUP1 SWAP2 SUB SWAP1 REVERT JUMPDEST PUSH1 0x2 PUSH1 0x1 DUP2 SWAP1 SSTORE POP JUMP JUMPDEST PUSH2 0x1DA0 DUP5 DUP6 PUSH20 0xFFFFFFFFFFFFFFFFFFFFFFFFFFFFFFFFFFFFFFFF AND PUSH4 0x23B872DD DUP7 DUP7 DUP7 PUSH1 0x40 MLOAD PUSH1 0x24 ADD PUSH2 0x1D59 SWAP4 SWAP3 SWAP2 SWAP1 PUSH2 0x3706 JUMP JUMPDEST PUSH1 0x40 MLOAD PUSH1 0x20 DUP2 DUP4 SUB SUB DUP2 MSTORE SWAP1 PUSH1 0x40 MSTORE SWAP2 POP PUSH1 0xE0 SHL PUSH1 0x20 DUP3 ADD DUP1 MLOAD PUSH28 0xFFFFFFFFFFFFFFFFFFFFFFFFFFFFFFFFFFFFFFFFFFFFFFFFFFFFFFFF DUP4 DUP2 DUP4 AND OR DUP4 MSTORE POP POP POP POP PUSH2 0x20C3 JUMP JUMPDEST POP POP POP POP JUMP JUMPDEST PUSH1 0x3 PUSH0 CALLER PUSH20 0xFFFFFFFFFFFFFFFFFFFFFFFFFFFFFFFFFFFFFFFF AND PUSH20 0xFFFFFFFFFFFFFFFFFFFFFFFFFFFFFFFFFFFFFFFF AND DUP2 MSTORE PUSH1 0x20 ADD SWAP1 DUP2 MSTORE PUSH1 0x20 ADD PUSH0 KECCAK256 PUSH0 DUP6 PUSH1 0xFF AND PUSH1 0xFF AND DUP2 MSTORE PUSH1 0x20 ADD SWAP1 DUP2 MSTORE PUSH1 0x20 ADD PUSH0 KECCAK256 PUSH1 0x40 MLOAD DUP1 PUSH1 0xA0 ADD PUSH1 0x40 MSTORE DUP1 DUP8 PUSH20 0xFFFFFFFFFFFFFFFFFFFFFFFFFFFFFFFFFFFFFFFF AND DUP2 MSTORE PUSH1 0x20 ADD DUP6 DUP2 MSTORE PUSH1 0x20 ADD DUP5 DUP2 MSTORE PUSH1 0x20 ADD DUP4 ISZERO ISZERO DUP2 MSTORE PUSH1 0x20 ADD TIMESTAMP DUP2 MSTORE POP SWAP1 DUP1 PUSH1 0x1 DUP2 SLOAD ADD DUP1 DUP3 SSTORE DUP1 SWAP2 POP POP PUSH1 0x1 SWAP1 SUB SWAP1 PUSH0 MSTORE PUSH1 0x20 PUSH0 KECCAK256 SWAP1 PUSH1 0x5 MUL ADD PUSH0 SWAP1 SWAP2 SWAP1 SWAP2 SWAP1 SWAP2 POP PUSH0 DUP3 ADD MLOAD DUP2 PUSH0 ADD PUSH0 PUSH2 0x100 EXP DUP2 SLOAD DUP2 PUSH20 0xFFFFFFFFFFFFFFFFFFFFFFFFFFFFFFFFFFFFFFFF MUL NOT AND SWAP1 DUP4 PUSH20 0xFFFFFFFFFFFFFFFFFFFFFFFFFFFFFFFFFFFFFFFF AND MUL OR SWAP1 SSTORE POP PUSH1 0x20 DUP3 ADD MLOAD DUP2 PUSH1 0x1 ADD SSTORE PUSH1 0x40 DUP3 ADD MLOAD DUP2 PUSH1 0x2 ADD SWAP1 DUP2 PUSH2 0x1EC0 SWAP2 SWAP1 PUSH2 0x2F42 JUMP JUMPDEST POP PUSH1 0x60 DUP3 ADD MLOAD DUP2 PUSH1 0x3 ADD PUSH0 PUSH2 0x100 EXP DUP2 SLOAD DUP2 PUSH1 0xFF MUL NOT AND SWAP1 DUP4 ISZERO ISZERO MUL OR SWAP1 SSTORE POP PUSH1 0x80 DUP3 ADD MLOAD DUP2 PUSH1 0x4 ADD SSTORE POP POP POP POP POP POP POP JUMP JUMPDEST PUSH1 0x1 DUP1 DUP2 SWAP1 SSTORE POP JUMP JUMPDEST PUSH2 0x1F04 PUSH2 0x215E JUMP JUMPDEST PUSH20 0xFFFFFFFFFFFFFFFFFFFFFFFFFFFFFFFFFFFFFFFF AND PUSH2 0x1F22 PUSH2 0x1008 JUMP JUMPDEST PUSH20 0xFFFFFFFFFFFFFFFFFFFFFFFFFFFFFFFFFFFFFFFF AND EQ PUSH2 0x1F81 JUMPI PUSH2 0x1F45 PUSH2 0x215E JUMP JUMPDEST PUSH1 0x40 MLOAD PUSH32 0x118CDAA700000000000000000000000000000000000000000000000000000000 DUP2 MSTORE PUSH1 0x4 ADD PUSH2 0x1F78 SWAP2 SWAP1 PUSH2 0x28D1 JUMP JUMPDEST PUSH1 0x40 MLOAD DUP1 SWAP2 SUB SWAP1 REVERT JUMPDEST JUMP JUMPDEST PUSH0 DUP1 PUSH0 SWAP1 SLOAD SWAP1 PUSH2 0x100 EXP SWAP1 DIV PUSH20 0xFFFFFFFFFFFFFFFFFFFFFFFFFFFFFFFFFFFFFFFF AND SWAP1 POP DUP2 PUSH0 DUP1 PUSH2 0x100 EXP DUP2 SLOAD DUP2 PUSH20 0xFFFFFFFFFFFFFFFFFFFFFFFFFFFFFFFFFFFFFFFF MUL NOT AND SWAP1 DUP4 PUSH20 0xFFFFFFFFFFFFFFFFFFFFFFFFFFFFFFFFFFFFFFFF AND MUL OR SWAP1 SSTORE POP DUP2 PUSH20 0xFFFFFFFFFFFFFFFFFFFFFFFFFFFFFFFFFFFFFFFF AND DUP2 PUSH20 0xFFFFFFFFFFFFFFFFFFFFFFFFFFFFFFFFFFFFFFFF AND PUSH32 0x8BE0079C531659141344CD1FD0A4F28419497F9722A3DAAFE3B4186F6B6457E0 PUSH1 0x40 MLOAD PUSH1 0x40 MLOAD DUP1 SWAP2 SUB SWAP1 LOG3 POP POP JUMP JUMPDEST PUSH2 0x20BE DUP4 DUP5 PUSH20 0xFFFFFFFFFFFFFFFFFFFFFFFFFFFFFFFFFFFFFFFF AND PUSH4 0xA9059CBB DUP6 DUP6 PUSH1 0x40 MLOAD PUSH1 0x24 ADD PUSH2 0x2077 SWAP3 SWAP2 SWAP1 PUSH2 0x373B JUMP JUMPDEST PUSH1 0x40 MLOAD PUSH1 0x20 DUP2 DUP4 SUB SUB DUP2 MSTORE SWAP1 PUSH1 0x40 MSTORE SWAP2 POP PUSH1 0xE0 SHL PUSH1 0x20 DUP3 ADD DUP1 MLOAD PUSH28 0xFFFFFFFFFFFFFFFFFFFFFFFFFFFFFFFFFFFFFFFFFFFFFFFFFFFFFFFF DUP4 DUP2 DUP4 AND OR DUP4 MSTORE POP POP POP POP PUSH2 0x20C3 JUMP JUMPDEST POP POP POP JUMP JUMPDEST PUSH0 DUP1 PUSH1 0x20 PUSH0 DUP5 MLOAD PUSH1 0x20 DUP7 ADD PUSH0 DUP9 GAS CALL DUP1 PUSH2 0x20E2 JUMPI PUSH1 0x40 MLOAD RETURNDATASIZE PUSH0 DUP3 RETURNDATACOPY RETURNDATASIZE DUP2 REVERT JUMPDEST RETURNDATASIZE SWAP3 POP PUSH0 MLOAD SWAP2 POP POP PUSH0 DUP3 EQ PUSH2 0x20FB JUMPI PUSH1 0x1 DUP2 EQ ISZERO PUSH2 0x2116 JUMP JUMPDEST PUSH0 DUP5 PUSH20 0xFFFFFFFFFFFFFFFFFFFFFFFFFFFFFFFFFFFFFFFF AND EXTCODESIZE EQ JUMPDEST ISZERO PUSH2 0x2158 JUMPI DUP4 PUSH1 0x40 MLOAD PUSH32 0x5274AFE700000000000000000000000000000000000000000000000000000000 DUP2 MSTORE PUSH1 0x4 ADD PUSH2 0x214F SWAP2 SWAP1 PUSH2 0x28D1 JUMP JUMPDEST PUSH1 0x40 MLOAD DUP1 SWAP2 SUB SWAP1 REVERT JUMPDEST POP POP POP POP JUMP JUMPDEST PUSH0 CALLER SWAP1 POP SWAP1 JUMP JUMPDEST PUSH0 PUSH1 0x40 MLOAD SWAP1 POP SWAP1 JUMP JUMPDEST PUSH0 DUP1 REVERT JUMPDEST PUSH0 DUP1 REVERT JUMPDEST PUSH0 PUSH20 0xFFFFFFFFFFFFFFFFFFFFFFFFFFFFFFFFFFFFFFFF DUP3 AND SWAP1 POP SWAP2 SWAP1 POP JUMP JUMPDEST PUSH0 PUSH2 0x219F DUP3 PUSH2 0x2176 JUMP JUMPDEST SWAP1 POP SWAP2 SWAP1 POP JUMP JUMPDEST PUSH0 PUSH2 0x21B0 DUP3 PUSH2 0x2195 JUMP JUMPDEST SWAP1 POP SWAP2 SWAP1 POP JUMP JUMPDEST PUSH2 0x21C0 DUP2 PUSH2 0x21A6 JUMP JUMPDEST DUP2 EQ PUSH2 0x21CA JUMPI PUSH0 DUP1 REVERT JUMPDEST POP JUMP JUMPDEST PUSH0 DUP2 CALLDATALOAD SWAP1 POP PUSH2 0x21DB DUP2 PUSH2 0x21B7 JUMP JUMPDEST SWAP3 SWAP2 POP POP JUMP JUMPDEST PUSH0 DUP2 SWAP1 POP SWAP2 SWAP1 POP JUMP JUMPDEST PUSH2 0x21F3 DUP2 PUSH2 0x21E1 JUMP JUMPDEST DUP2 EQ PUSH2 0x21FD JUMPI PUSH0 DUP1 REVERT JUMPDEST POP JUMP JUMPDEST PUSH0 DUP2 CALLDATALOAD SWAP1 POP PUSH2 0x220E DUP2 PUSH2 0x21EA JUMP JUMPDEST SWAP3 SWAP2 POP POP JUMP JUMPDEST PUSH0 PUSH1 0xFF DUP3 AND SWAP1 POP SWAP2 SWAP1 POP JUMP JUMPDEST PUSH2 0x2229 DUP2 PUSH2 0x2214 JUMP JUMPDEST DUP2 EQ PUSH2 0x2233 JUMPI PUSH0 DUP1 REVERT JUMPDEST POP JUMP JUMPDEST PUSH0 DUP2 CALLDATALOAD SWAP1 POP PUSH2 0x2244 DUP2 PUSH2 0x2220 JUMP JUMPDEST SWAP3 SWAP2 POP POP JUMP JUMPDEST PUSH0 DUP1 REVERT JUMPDEST PUSH0 DUP1 REVERT JUMPDEST PUSH0 PUSH1 0x1F NOT PUSH1 0x1F DUP4 ADD AND SWAP1 POP SWAP2 SWAP1 POP JUMP JUMPDEST PUSH32 0x4E487B7100000000000000000000000000000000000000000000000000000000 PUSH0 MSTORE PUSH1 0x41 PUSH1 0x4 MSTORE PUSH1 0x24 PUSH0 REVERT JUMPDEST PUSH2 0x2298 DUP3 PUSH2 0x2252 JUMP JUMPDEST DUP2 ADD DUP2 DUP2 LT PUSH8 0xFFFFFFFFFFFFFFFF DUP3 GT OR ISZERO PUSH2 0x22B7 JUMPI PUSH2 0x22B6 PUSH2 0x2262 JUMP JUMPDEST JUMPDEST DUP1 PUSH1 0x40 MSTORE POP POP POP JUMP JUMPDEST PUSH0 PUSH2 0x22C9 PUSH2 0x2165 JUMP JUMPDEST SWAP1 POP PUSH2 0x22D5 DUP3 DUP3 PUSH2 0x228F JUMP JUMPDEST SWAP2 SWAP1 POP JUMP JUMPDEST PUSH0 PUSH8 0xFFFFFFFFFFFFFFFF DUP3 GT ISZERO PUSH2 0x22F4 JUMPI PUSH2 0x22F3 PUSH2 0x2262 JUMP JUMPDEST JUMPDEST PUSH2 0x22FD DUP3 PUSH2 0x2252 JUMP JUMPDEST SWAP1 POP PUSH1 0x20 DUP2 ADD SWAP1 POP SWAP2 SWAP1 POP JUMP JUMPDEST DUP3 DUP2 DUP4 CALLDATACOPY PUSH0 DUP4 DUP4 ADD MSTORE POP POP POP JUMP JUMPDEST PUSH0 PUSH2 0x232A PUSH2 0x2325 DUP5 PUSH2 0x22DA JUMP JUMPDEST PUSH2 0x22C0 JUMP JUMPDEST SWAP1 POP DUP3 DUP2 MSTORE PUSH1 0x20 DUP2 ADD DUP5 DUP5 DUP5 ADD GT ISZERO PUSH2 0x2346 JUMPI PUSH2 0x2345 PUSH2 0x224E JUMP JUMPDEST JUMPDEST PUSH2 0x2351 DUP5 DUP3 DUP6 PUSH2 0x230A JUMP JUMPDEST POP SWAP4 SWAP3 POP POP POP JUMP JUMPDEST PUSH0 DUP3 PUSH1 0x1F DUP4 ADD SLT PUSH2 0x236D JUMPI PUSH2 0x236C PUSH2 0x224A JUMP JUMPDEST JUMPDEST DUP2 CALLDATALOAD PUSH2 0x237D DUP5 DUP3 PUSH1 0x20 DUP7 ADD PUSH2 0x2318 JUMP JUMPDEST SWAP2 POP POP SWAP3 SWAP2 POP POP JUMP JUMPDEST PUSH0 DUP1 PUSH0 DUP1 PUSH0 PUSH1 0xA0 DUP7 DUP9 SUB SLT ISZERO PUSH2 0x239F JUMPI PUSH2 0x239E PUSH2 0x216E JUMP JUMPDEST JUMPDEST PUSH0 PUSH2 0x23AC DUP9 DUP3 DUP10 ADD PUSH2 0x21CD JUMP JUMPDEST SWAP6 POP POP PUSH1 0x20 PUSH2 0x23BD DUP9 DUP3 DUP10 ADD PUSH2 0x2200 JUMP JUMPDEST SWAP5 POP POP PUSH1 0x40 PUSH2 0x23CE DUP9 DUP3 DUP10 ADD PUSH2 0x2236 JUMP JUMPDEST SWAP4 POP POP PUSH1 0x60 PUSH2 0x23DF DUP9 DUP3 DUP10 ADD PUSH2 0x2200 JUMP JUMPDEST SWAP3 POP POP PUSH1 0x80 DUP7 ADD CALLDATALOAD PUSH8 0xFFFFFFFFFFFFFFFF DUP2 GT ISZERO PUSH2 0x2400 JUMPI PUSH2 0x23FF PUSH2 0x2172 JUMP JUMPDEST JUMPDEST PUSH2 0x240C DUP9 DUP3 DUP10 ADD PUSH2 0x2359 JUMP JUMPDEST SWAP2 POP POP SWAP3 SWAP6 POP SWAP3 SWAP6 SWAP1 SWAP4 POP JUMP JUMPDEST PUSH0 DUP1 PUSH0 PUSH1 0x60 DUP5 DUP7 SUB SLT ISZERO PUSH2 0x2430 JUMPI PUSH2 0x242F PUSH2 0x216E JUMP JUMPDEST JUMPDEST PUSH0 PUSH2 0x243D DUP7 DUP3 DUP8 ADD PUSH2 0x2236 JUMP JUMPDEST SWAP4 POP POP PUSH1 0x20 PUSH2 0x244E DUP7 DUP3 DUP8 ADD PUSH2 0x2200 JUMP JUMPDEST SWAP3 POP POP PUSH1 0x40 DUP5 ADD CALLDATALOAD PUSH8 0xFFFFFFFFFFFFFFFF DUP2 GT ISZERO PUSH2 0x246F JUMPI PUSH2 0x246E PUSH2 0x2172 JUMP JUMPDEST JUMPDEST PUSH2 0x247B DUP7 DUP3 DUP8 ADD PUSH2 0x2359 JUMP JUMPDEST SWAP2 POP POP SWAP3 POP SWAP3 POP SWAP3 JUMP JUMPDEST PUSH0 PUSH1 0x20 DUP3 DUP5 SUB SLT ISZERO PUSH2 0x249A JUMPI PUSH2 0x2499 PUSH2 0x216E JUMP JUMPDEST JUMPDEST PUSH0 PUSH2 0x24A7 DUP5 DUP3 DUP6 ADD PUSH2 0x21CD JUMP JUMPDEST SWAP2 POP POP SWAP3 SWAP2 POP POP JUMP JUMPDEST PUSH2 0x24B9 DUP2 PUSH2 0x21E1 JUMP JUMPDEST DUP3 MSTORE POP POP JUMP JUMPDEST PUSH0 PUSH1 0x20 DUP3 ADD SWAP1 POP PUSH2 0x24D2 PUSH0 DUP4 ADD DUP5 PUSH2 0x24B0 JUMP JUMPDEST SWAP3 SWAP2 POP POP JUMP JUMPDEST PUSH0 PUSH4 0xFFFFFFFF DUP3 AND SWAP1 POP SWAP2 SWAP1 POP JUMP JUMPDEST PUSH2 0x24F0 DUP2 PUSH2 0x24D8 JUMP JUMPDEST DUP2 EQ PUSH2 0x24FA JUMPI PUSH0 DUP1 REVERT JUMPDEST POP JUMP JUMPDEST PUSH0 DUP2 CALLDATALOAD SWAP1 POP PUSH2 0x250B DUP2 PUSH2 0x24E7 JUMP JUMPDEST SWAP3 SWAP2 POP POP JUMP JUMPDEST PUSH0 DUP1 PUSH0 DUP1 PUSH1 0x80 DUP6 DUP8 SUB SLT ISZERO PUSH2 0x2529 JUMPI PUSH2 0x2528 PUSH2 0x216E JUMP JUMPDEST JUMPDEST PUSH0 PUSH2 0x2536 DUP8 DUP3 DUP9 ADD PUSH2 0x21CD JUMP JUMPDEST SWAP5 POP POP PUSH1 0x20 PUSH2 0x2547 DUP8 DUP3 DUP9 ADD PUSH2 0x24FD JUMP JUMPDEST SWAP4 POP POP PUSH1 0x40 PUSH2 0x2558 DUP8 DUP3 DUP9 ADD PUSH2 0x2200 JUMP JUMPDEST SWAP3 POP POP PUSH1 0x60 PUSH2 0x2569 DUP8 DUP3 DUP9 ADD PUSH2 0x2236 JUMP JUMPDEST SWAP2 POP POP SWAP3 SWAP6 SWAP2 SWAP5 POP SWAP3 POP JUMP JUMPDEST PUSH0 PUSH1 0x20 DUP3 DUP5 SUB SLT ISZERO PUSH2 0x258A JUMPI PUSH2 0x2589 PUSH2 0x216E JUMP JUMPDEST JUMPDEST PUSH0 PUSH2 0x2597 DUP5 DUP3 DUP6 ADD PUSH2 0x2236 JUMP JUMPDEST SWAP2 POP POP SWAP3 SWAP2 POP POP JUMP JUMPDEST PUSH0 DUP2 MLOAD SWAP1 POP SWAP2 SWAP1 POP JUMP JUMPDEST PUSH0 DUP3 DUP3 MSTORE PUSH1 0x20 DUP3 ADD SWAP1 POP SWAP3 SWAP2 POP POP JUMP JUMPDEST PUSH0 DUP2 SWAP1 POP PUSH1 0x20 DUP3 ADD SWAP1 POP SWAP2 SWAP1 POP JUMP JUMPDEST PUSH2 0x25D2 DUP2 PUSH2 0x2195 JUMP JUMPDEST DUP3 MSTORE POP POP JUMP JUMPDEST PUSH2 0x25E1 DUP2 PUSH2 0x21E1 JUMP JUMPDEST DUP3 MSTORE POP POP JUMP JUMPDEST PUSH0 DUP2 MLOAD SWAP1 POP SWAP2 SWAP1 POP JUMP JUMPDEST PUSH0 DUP3 DUP3 MSTORE PUSH1 0x20 DUP3 ADD SWAP1 POP SWAP3 SWAP2 POP POP JUMP JUMPDEST DUP3 DUP2 DUP4 MCOPY PUSH0 DUP4 DUP4 ADD MSTORE POP POP POP JUMP JUMPDEST PUSH0 PUSH2 0x2619 DUP3 PUSH2 0x25E7 JUMP JUMPDEST PUSH2 0x2623 DUP2 DUP6 PUSH2 0x25F1 JUMP JUMPDEST SWAP4 POP PUSH2 0x2633 DUP2 DUP6 PUSH1 0x20 DUP7 ADD PUSH2 0x2601 JUMP JUMPDEST PUSH2 0x263C DUP2 PUSH2 0x2252 JUMP JUMPDEST DUP5 ADD SWAP2 POP POP SWAP3 SWAP2 POP POP JUMP JUMPDEST PUSH0 DUP2 ISZERO ISZERO SWAP1 POP SWAP2 SWAP1 POP JUMP JUMPDEST PUSH2 0x265B DUP2 PUSH2 0x2647 JUMP JUMPDEST DUP3 MSTORE POP POP JUMP JUMPDEST PUSH0 PUSH1 0xC0 DUP4 ADD PUSH0 DUP4 ADD MLOAD PUSH2 0x2676 PUSH0 DUP7 ADD DUP3 PUSH2 0x25C9 JUMP JUMPDEST POP PUSH1 0x20 DUP4 ADD MLOAD PUSH2 0x2689 PUSH1 0x20 DUP7 ADD DUP3 PUSH2 0x25D8 JUMP JUMPDEST POP PUSH1 0x40 DUP4 ADD MLOAD PUSH2 0x269C PUSH1 0x40 DUP7 ADD DUP3 PUSH2 0x25D8 JUMP JUMPDEST POP PUSH1 0x60 DUP4 ADD MLOAD DUP5 DUP3 SUB PUSH1 0x60 DUP7 ADD MSTORE PUSH2 0x26B4 DUP3 DUP3 PUSH2 0x260F JUMP JUMPDEST SWAP2 POP POP PUSH1 0x80 DUP4 ADD MLOAD PUSH2 0x26C9 PUSH1 0x80 DUP7 ADD DUP3 PUSH2 0x2652 JUMP JUMPDEST POP PUSH1 0xA0 DUP4 ADD MLOAD PUSH2 0x26DC PUSH1 0xA0 DUP7 ADD DUP3 PUSH2 0x2652 JUMP JUMPDEST POP DUP1 SWAP2 POP POP SWAP3 SWAP2 POP POP JUMP JUMPDEST PUSH0 PUSH2 0x26F2 DUP4 DUP4 PUSH2 0x2661 JUMP JUMPDEST SWAP1 POP SWAP3 SWAP2 POP POP JUMP JUMPDEST PUSH0 PUSH1 0x20 DUP3 ADD SWAP1 POP SWAP2 SWAP1 POP JUMP JUMPDEST PUSH0 PUSH2 0x2710 DUP3 PUSH2 0x25A0 JUMP JUMPDEST PUSH2 0x271A DUP2 DUP6 PUSH2 0x25AA JUMP JUMPDEST SWAP4 POP DUP4 PUSH1 0x20 DUP3 MUL DUP6 ADD PUSH2 0x272C DUP6 PUSH2 0x25BA JUMP JUMPDEST DUP1 PUSH0 JUMPDEST DUP6 DUP2 LT ISZERO PUSH2 0x2767 JUMPI DUP5 DUP5 SUB DUP10 MSTORE DUP2 MLOAD PUSH2 0x2748 DUP6 DUP3 PUSH2 0x26E7 JUMP JUMPDEST SWAP5 POP PUSH2 0x2753 DUP4 PUSH2 0x26FA JUMP JUMPDEST SWAP3 POP PUSH1 0x20 DUP11 ADD SWAP10 POP POP PUSH1 0x1 DUP2 ADD SWAP1 POP PUSH2 0x272F JUMP JUMPDEST POP DUP3 SWAP8 POP DUP8 SWAP6 POP POP POP POP POP POP SWAP3 SWAP2 POP POP JUMP JUMPDEST PUSH0 PUSH1 0x20 DUP3 ADD SWAP1 POP DUP2 DUP2 SUB PUSH0 DUP4 ADD MSTORE PUSH2 0x2791 DUP2 DUP5 PUSH2 0x2706 JUMP JUMPDEST SWAP1 POP SWAP3 SWAP2 POP POP JUMP JUMPDEST PUSH2 0x27A2 DUP2 PUSH2 0x2195 JUMP JUMPDEST DUP2 EQ PUSH2 0x27AC JUMPI PUSH0 DUP1 REVERT JUMPDEST POP JUMP JUMPDEST PUSH0 DUP2 CALLDATALOAD SWAP1 POP PUSH2 0x27BD DUP2 PUSH2 0x2799 JUMP JUMPDEST SWAP3 SWAP2 POP POP JUMP JUMPDEST PUSH0 DUP1 PUSH0 PUSH1 0x60 DUP5 DUP7 SUB SLT ISZERO PUSH2 0x27DA JUMPI PUSH2 0x27D9 PUSH2 0x216E JUMP JUMPDEST JUMPDEST PUSH0 PUSH2 0x27E7 DUP7 DUP3 DUP8 ADD PUSH2 0x27AF JUMP JUMPDEST SWAP4 POP POP PUSH1 0x20 PUSH2 0x27F8 DUP7 DUP3 DUP8 ADD PUSH2 0x2236 JUMP JUMPDEST SWAP3 POP POP PUSH1 0x40 PUSH2 0x2809 DUP7 DUP3 DUP8 ADD PUSH2 0x2200 JUMP JUMPDEST SWAP2 POP POP SWAP3 POP SWAP3 POP SWAP3 JUMP JUMPDEST PUSH2 0x281C DUP2 PUSH2 0x2195 JUMP JUMPDEST DUP3 MSTORE POP POP JUMP JUMPDEST PUSH0 DUP3 DUP3 MSTORE PUSH1 0x20 DUP3 ADD SWAP1 POP SWAP3 SWAP2 POP POP JUMP JUMPDEST PUSH0 PUSH2 0x283C DUP3 PUSH2 0x25E7 JUMP JUMPDEST PUSH2 0x2846 DUP2 DUP6 PUSH2 0x2822 JUMP JUMPDEST SWAP4 POP PUSH2 0x2856 DUP2 DUP6 PUSH1 0x20 DUP7 ADD PUSH2 0x2601 JUMP JUMPDEST PUSH2 0x285F DUP2 PUSH2 0x2252 JUMP JUMPDEST DUP5 ADD SWAP2 POP POP SWAP3 SWAP2 POP POP JUMP JUMPDEST PUSH2 0x2873 DUP2 PUSH2 0x2647 JUMP JUMPDEST DUP3 MSTORE POP POP JUMP JUMPDEST PUSH0 PUSH1 0xA0 DUP3 ADD SWAP1 POP PUSH2 0x288C PUSH0 DUP4 ADD DUP9 PUSH2 0x2813 JUMP JUMPDEST PUSH2 0x2899 PUSH1 0x20 DUP4 ADD DUP8 PUSH2 0x24B0 JUMP JUMPDEST DUP2 DUP2 SUB PUSH1 0x40 DUP4 ADD MSTORE PUSH2 0x28AB DUP2 DUP7 PUSH2 0x2832 JUMP JUMPDEST SWAP1 POP PUSH2 0x28BA PUSH1 0x60 DUP4 ADD DUP6 PUSH2 0x286A JUMP JUMPDEST PUSH2 0x28C7 PUSH1 0x80 DUP4 ADD DUP5 PUSH2 0x24B0 JUMP JUMPDEST SWAP7 SWAP6 POP POP POP POP POP POP JUMP JUMPDEST PUSH0 PUSH1 0x20 DUP3 ADD SWAP1 POP PUSH2 0x28E4 PUSH0 DUP4 ADD DUP5 PUSH2 0x2813 JUMP JUMPDEST SWAP3 SWAP2 POP POP JUMP JUMPDEST PUSH0 DUP1 PUSH0 PUSH1 0x60 DUP5 DUP7 SUB SLT ISZERO PUSH2 0x2901 JUMPI PUSH2 0x2900 PUSH2 0x216E JUMP JUMPDEST JUMPDEST PUSH0 PUSH2 0x290E DUP7 DUP3 DUP8 ADD PUSH2 0x24FD JUMP JUMPDEST SWAP4 POP POP PUSH1 0x20 PUSH2 0x291F DUP7 DUP3 DUP8 ADD PUSH2 0x2236 JUMP JUMPDEST SWAP3 POP POP PUSH1 0x40 PUSH2 0x2930 DUP7 DUP3 DUP8 ADD PUSH2 0x2200 JUMP JUMPDEST SWAP2 POP POP SWAP3 POP SWAP3 POP SWAP3 JUMP JUMPDEST PUSH0 PUSH1 0xC0 DUP3 ADD SWAP1 POP PUSH2 0x294D PUSH0 DUP4 ADD DUP10 PUSH2 0x2813 JUMP JUMPDEST PUSH2 0x295A PUSH1 0x20 DUP4 ADD DUP9 PUSH2 0x24B0 JUMP JUMPDEST PUSH2 0x2967 PUSH1 0x40 DUP4 ADD DUP8 PUSH2 0x24B0 JUMP JUMPDEST DUP2 DUP2 SUB PUSH1 0x60 DUP4 ADD MSTORE PUSH2 0x2979 DUP2 DUP7 PUSH2 0x2832 JUMP JUMPDEST SWAP1 POP PUSH2 0x2988 PUSH1 0x80 DUP4 ADD DUP6 PUSH2 0x286A JUMP JUMPDEST PUSH2 0x2995 PUSH1 0xA0 DUP4 ADD DUP5 PUSH2 0x286A JUMP JUMPDEST SWAP8 SWAP7 POP POP POP POP POP POP POP JUMP JUMPDEST PUSH2 0x29A9 DUP2 PUSH2 0x2647 JUMP JUMPDEST DUP2 EQ PUSH2 0x29B3 JUMPI PUSH0 DUP1 REVERT JUMPDEST POP JUMP JUMPDEST PUSH0 DUP2 CALLDATALOAD SWAP1 POP PUSH2 0x29C4 DUP2 PUSH2 0x29A0 JUMP JUMPDEST SWAP3 SWAP2 POP POP JUMP JUMPDEST PUSH0 DUP1 PUSH0 DUP1 PUSH1 0x80 DUP6 DUP8 SUB SLT ISZERO PUSH2 0x29E2 JUMPI PUSH2 0x29E1 PUSH2 0x216E JUMP JUMPDEST JUMPDEST PUSH0 PUSH2 0x29EF DUP8 DUP3 DUP9 ADD PUSH2 0x24FD JUMP JUMPDEST SWAP5 POP POP PUSH1 0x20 PUSH2 0x2A00 DUP8 DUP3 DUP9 ADD PUSH2 0x2236 JUMP JUMPDEST SWAP4 POP POP PUSH1 0x40 PUSH2 0x2A11 DUP8 DUP3 DUP9 ADD PUSH2 0x2200 JUMP JUMPDEST SWAP3 POP POP PUSH1 0x60 PUSH2 0x2A22 DUP8 DUP3 DUP9 ADD PUSH2 0x29B6 JUMP JUMPDEST SWAP2 POP POP SWAP3 SWAP6 SWAP2 SWAP5 POP SWAP3 POP JUMP JUMPDEST PUSH0 DUP1 PUSH1 0x40 DUP4 DUP6 SUB SLT ISZERO PUSH2 0x2A44 JUMPI PUSH2 0x2A43 PUSH2 0x216E JUMP JUMPDEST JUMPDEST PUSH0 PUSH2 0x2A51 DUP6 DUP3 DUP7 ADD PUSH2 0x2236 JUMP JUMPDEST SWAP3 POP POP PUSH1 0x20 PUSH2 0x2A62 DUP6 DUP3 DUP7 ADD PUSH2 0x24FD JUMP JUMPDEST SWAP2 POP POP SWAP3 POP SWAP3 SWAP1 POP JUMP JUMPDEST PUSH0 PUSH1 0x20 DUP3 DUP5 SUB SLT ISZERO PUSH2 0x2A81 JUMPI PUSH2 0x2A80 PUSH2 0x216E JUMP JUMPDEST JUMPDEST PUSH0 PUSH2 0x2A8E DUP5 DUP3 DUP6 ADD PUSH2 0x27AF JUMP JUMPDEST SWAP2 POP POP SWAP3 SWAP2 POP POP JUMP JUMPDEST PUSH32 0x4D7573742070726F7669646520612076616C696420746F6B656E206164647265 PUSH0 DUP3 ADD MSTORE PUSH32 0x7373000000000000000000000000000000000000000000000000000000000000 PUSH1 0x20 DUP3 ADD MSTORE POP JUMP JUMPDEST PUSH0 PUSH2 0x2AF1 PUSH1 0x22 DUP4 PUSH2 0x2822 JUMP JUMPDEST SWAP2 POP PUSH2 0x2AFC DUP3 PUSH2 0x2A97 JUMP JUMPDEST PUSH1 0x40 DUP3 ADD SWAP1 POP SWAP2 SWAP1 POP JUMP JUMPDEST PUSH0 PUSH1 0x20 DUP3 ADD SWAP1 POP DUP2 DUP2 SUB PUSH0 DUP4 ADD MSTORE PUSH2 0x2B1E DUP2 PUSH2 0x2AE5 JUMP JUMPDEST SWAP1 POP SWAP2 SWAP1 POP JUMP JUMPDEST PUSH32 0x546F6B656E20616D6F756E74206D757374206265206772656174657220746865 PUSH0 DUP3 ADD MSTORE PUSH32 0x6E207A65726F0000000000000000000000000000000000000000000000000000 PUSH1 0x20 DUP3 ADD MSTORE POP JUMP JUMPDEST PUSH0 PUSH2 0x2B7F PUSH1 0x26 DUP4 PUSH2 0x2822 JUMP JUMPDEST SWAP2 POP PUSH2 0x2B8A DUP3 PUSH2 0x2B25 JUMP JUMPDEST PUSH1 0x40 DUP3 ADD SWAP1 POP SWAP2 SWAP1 POP JUMP JUMPDEST PUSH0 PUSH1 0x20 DUP3 ADD SWAP1 POP DUP2 DUP2 SUB PUSH0 DUP4 ADD MSTORE PUSH2 0x2BAC DUP2 PUSH2 0x2B73 JUMP JUMPDEST SWAP1 POP SWAP2 SWAP1 POP JUMP JUMPDEST PUSH32 0x546865206C6F636B20706572696F64206D757374206265206772656174657220 PUSH0 DUP3 ADD MSTORE PUSH32 0x7468656E207A65726F0000000000000000000000000000000000000000000000 PUSH1 0x20 DUP3 ADD MSTORE POP JUMP JUMPDEST PUSH0 PUSH2 0x2C0D PUSH1 0x29 DUP4 PUSH2 0x2822 JUMP JUMPDEST SWAP2 POP PUSH2 0x2C18 DUP3 PUSH2 0x2BB3 JUMP JUMPDEST PUSH1 0x40 DUP3 ADD SWAP1 POP SWAP2 SWAP1 POP JUMP JUMPDEST PUSH0 PUSH1 0x20 DUP3 ADD SWAP1 POP DUP2 DUP2 SUB PUSH0 DUP4 ADD MSTORE PUSH2 0x2C3A DUP2 PUSH2 0x2C01 JUMP JUMPDEST SWAP1 POP SWAP2 SWAP1 POP JUMP JUMPDEST PUSH0 DUP2 MLOAD SWAP1 POP PUSH2 0x2C4F DUP2 PUSH2 0x21EA JUMP JUMPDEST SWAP3 SWAP2 POP POP JUMP JUMPDEST PUSH0 PUSH1 0x20 DUP3 DUP5 SUB SLT ISZERO PUSH2 0x2C6A JUMPI PUSH2 0x2C69 PUSH2 0x216E JUMP JUMPDEST JUMPDEST PUSH0 PUSH2 0x2C77 DUP5 DUP3 DUP6 ADD PUSH2 0x2C41 JUMP JUMPDEST SWAP2 POP POP SWAP3 SWAP2 POP POP JUMP JUMPDEST PUSH32 0x4E6F7420656E6F75676820746F6B656E7320746F206C6F636B00000000000000 PUSH0 DUP3 ADD MSTORE POP JUMP JUMPDEST PUSH0 PUSH2 0x2CB4 PUSH1 0x19 DUP4 PUSH2 0x2822 JUMP JUMPDEST SWAP2 POP PUSH2 0x2CBF DUP3 PUSH2 0x2C80 JUMP JUMPDEST PUSH1 0x20 DUP3 ADD SWAP1 POP SWAP2 SWAP1 POP JUMP JUMPDEST PUSH0 PUSH1 0x20 DUP3 ADD SWAP1 POP DUP2 DUP2 SUB PUSH0 DUP4 ADD MSTORE PUSH2 0x2CE1 DUP2 PUSH2 0x2CA8 JUMP JUMPDEST SWAP1 POP SWAP2 SWAP1 POP JUMP JUMPDEST PUSH32 0x4E487B7100000000000000000000000000000000000000000000000000000000 PUSH0 MSTORE PUSH1 0x11 PUSH1 0x4 MSTORE PUSH1 0x24 PUSH0 REVERT JUMPDEST PUSH0 PUSH2 0x2D1F DUP3 PUSH2 0x21E1 JUMP JUMPDEST SWAP2 POP PUSH2 0x2D2A DUP4 PUSH2 0x21E1 JUMP JUMPDEST SWAP3 POP DUP3 DUP3 ADD SWAP1 POP DUP1 DUP3 GT ISZERO PUSH2 0x2D42 JUMPI PUSH2 0x2D41 PUSH2 0x2CE8 JUMP JUMPDEST JUMPDEST SWAP3 SWAP2 POP POP JUMP JUMPDEST PUSH32 0x4E487B7100000000000000000000000000000000000000000000000000000000 PUSH0 MSTORE PUSH1 0x22 PUSH1 0x4 MSTORE PUSH1 0x24 PUSH0 REVERT JUMPDEST PUSH0 PUSH1 0x2 DUP3 DIV SWAP1 POP PUSH1 0x1 DUP3 AND DUP1 PUSH2 0x2D8C JUMPI PUSH1 0x7F DUP3 AND SWAP2 POP JUMPDEST PUSH1 0x20 DUP3 LT DUP2 SUB PUSH2 0x2D9F JUMPI PUSH2 0x2D9E PUSH2 0x2D48 JUMP JUMPDEST JUMPDEST POP SWAP2 SWAP1 POP JUMP JUMPDEST PUSH0 DUP2 SWAP1 POP DUP2 PUSH0 MSTORE PUSH1 0x20 PUSH0 KECCAK256 SWAP1 POP SWAP2 SWAP1 POP JUMP JUMPDEST PUSH0 PUSH1 0x20 PUSH1 0x1F DUP4 ADD DIV SWAP1 POP SWAP2 SWAP1 POP JUMP JUMPDEST PUSH0 DUP3 DUP3 SHL SWAP1 POP SWAP3 SWAP2 POP POP JUMP JUMPDEST PUSH0 PUSH1 0x8 DUP4 MUL PUSH2 0x2E01 PUSH32 0xFFFFFFFFFFFFFFFFFFFFFFFFFFFFFFFFFFFFFFFFFFFFFFFFFFFFFFFFFFFFFFFF DUP3 PUSH2 0x2DC6 JUMP JUMPDEST PUSH2 0x2E0B DUP7 DUP4 PUSH2 0x2DC6 JUMP JUMPDEST SWAP6 POP DUP1 NOT DUP5 AND SWAP4 POP DUP1 DUP7 AND DUP5 OR SWAP3 POP POP POP SWAP4 SWAP3 POP POP POP JUMP JUMPDEST PUSH0 DUP2 SWAP1 POP SWAP2 SWAP1 POP JUMP JUMPDEST PUSH0 PUSH2 0x2E46 PUSH2 0x2E41 PUSH2 0x2E3C DUP5 PUSH2 0x21E1 JUMP JUMPDEST PUSH2 0x2E23 JUMP JUMPDEST PUSH2 0x21E1 JUMP JUMPDEST SWAP1 POP SWAP2 SWAP1 POP JUMP JUMPDEST PUSH0 DUP2 SWAP1 POP SWAP2 SWAP1 POP JUMP JUMPDEST PUSH2 0x2E5F DUP4 PUSH2 0x2E2C JUMP JUMPDEST PUSH2 0x2E73 PUSH2 0x2E6B DUP3 PUSH2 0x2E4D JUMP JUMPDEST DUP5 DUP5 SLOAD PUSH2 0x2DD2 JUMP JUMPDEST DUP3 SSTORE POP POP POP POP JUMP JUMPDEST PUSH0 SWAP1 JUMP JUMPDEST PUSH2 0x2E87 PUSH2 0x2E7B JUMP JUMPDEST PUSH2 0x2E92 DUP2 DUP5 DUP5 PUSH2 0x2E56 JUMP JUMPDEST POP POP POP JUMP JUMPDEST JUMPDEST DUP2 DUP2 LT ISZERO PUSH2 0x2EB5 JUMPI PUSH2 0x2EAA PUSH0 DUP3 PUSH2 0x2E7F JUMP JUMPDEST PUSH1 0x1 DUP2 ADD SWAP1 POP PUSH2 0x2E98 JUMP JUMPDEST POP POP JUMP JUMPDEST PUSH1 0x1F DUP3 GT ISZERO PUSH2 0x2EFA JUMPI PUSH2 0x2ECB DUP2 PUSH2 0x2DA5 JUMP JUMPDEST PUSH2 0x2ED4 DUP5 PUSH2 0x2DB7 JUMP JUMPDEST DUP2 ADD PUSH1 0x20 DUP6 LT ISZERO PUSH2 0x2EE3 JUMPI DUP2 SWAP1 POP JUMPDEST PUSH2 0x2EF7 PUSH2 0x2EEF DUP6 PUSH2 0x2DB7 JUMP JUMPDEST DUP4 ADD DUP3 PUSH2 0x2E97 JUMP JUMPDEST POP POP JUMPDEST POP POP POP JUMP JUMPDEST PUSH0 DUP3 DUP3 SHR SWAP1 POP SWAP3 SWAP2 POP POP JUMP JUMPDEST PUSH0 PUSH2 0x2F1A PUSH0 NOT DUP5 PUSH1 0x8 MUL PUSH2 0x2EFF JUMP JUMPDEST NOT DUP1 DUP4 AND SWAP2 POP POP SWAP3 SWAP2 POP POP JUMP JUMPDEST PUSH0 PUSH2 0x2F32 DUP4 DUP4 PUSH2 0x2F0B JUMP JUMPDEST SWAP2 POP DUP3 PUSH1 0x2 MUL DUP3 OR SWAP1 POP SWAP3 SWAP2 POP POP JUMP JUMPDEST PUSH2 0x2F4B DUP3 PUSH2 0x25E7 JUMP JUMPDEST PUSH8 0xFFFFFFFFFFFFFFFF DUP2 GT ISZERO PUSH2 0x2F64 JUMPI PUSH2 0x2F63 PUSH2 0x2262 JUMP JUMPDEST JUMPDEST PUSH2 0x2F6E DUP3 SLOAD PUSH2 0x2D75 JUMP JUMPDEST PUSH2 0x2F79 DUP3 DUP3 DUP6 PUSH2 0x2EB9 JUMP JUMPDEST PUSH0 PUSH1 0x20 SWAP1 POP PUSH1 0x1F DUP4 GT PUSH1 0x1 DUP2 EQ PUSH2 0x2FAA JUMPI PUSH0 DUP5 ISZERO PUSH2 0x2F98 JUMPI DUP3 DUP8 ADD MLOAD SWAP1 POP JUMPDEST PUSH2 0x2FA2 DUP6 DUP3 PUSH2 0x2F27 JUMP JUMPDEST DUP7 SSTORE POP PUSH2 0x3009 JUMP JUMPDEST PUSH1 0x1F NOT DUP5 AND PUSH2 0x2FB8 DUP7 PUSH2 0x2DA5 JUMP JUMPDEST PUSH0 JUMPDEST DUP3 DUP2 LT ISZERO PUSH2 0x2FDF JUMPI DUP5 DUP10 ADD MLOAD DUP3 SSTORE PUSH1 0x1 DUP3 ADD SWAP2 POP PUSH1 0x20 DUP6 ADD SWAP5 POP PUSH1 0x20 DUP2 ADD SWAP1 POP PUSH2 0x2FBA JUMP JUMPDEST DUP7 DUP4 LT ISZERO PUSH2 0x2FFC JUMPI DUP5 DUP10 ADD MLOAD PUSH2 0x2FF8 PUSH1 0x1F DUP10 AND DUP3 PUSH2 0x2F0B JUMP JUMPDEST DUP4 SSTORE POP JUMPDEST PUSH1 0x1 PUSH1 0x2 DUP9 MUL ADD DUP9 SSTORE POP POP POP JUMPDEST POP POP POP POP POP POP JUMP JUMPDEST PUSH2 0x301A DUP2 PUSH2 0x2214 JUMP JUMPDEST DUP3 MSTORE POP POP JUMP JUMPDEST PUSH0 PUSH1 0xA0 DUP3 ADD SWAP1 POP PUSH2 0x3033 PUSH0 DUP4 ADD DUP9 PUSH2 0x24B0 JUMP JUMPDEST DUP2 DUP2 SUB PUSH1 0x20 DUP4 ADD MSTORE PUSH2 0x3045 DUP2 DUP8 PUSH2 0x2832 JUMP JUMPDEST SWAP1 POP PUSH2 0x3054 PUSH1 0x40 DUP4 ADD DUP7 PUSH2 0x3011 JUMP JUMPDEST PUSH2 0x3061 PUSH1 0x60 DUP4 ADD DUP6 PUSH2 0x24B0 JUMP JUMPDEST PUSH2 0x306E PUSH1 0x80 DUP4 ADD DUP5 PUSH2 0x24B0 JUMP JUMPDEST SWAP7 SWAP6 POP POP POP POP POP POP JUMP JUMPDEST PUSH32 0x45544820746F206C6F636B206D75737420612076616C75652067726561746572 PUSH0 DUP3 ADD MSTORE PUSH32 0x207468616E203000000000000000000000000000000000000000000000000000 PUSH1 0x20 DUP3 ADD MSTORE POP JUMP JUMPDEST PUSH0 PUSH2 0x30D2 PUSH1 0x27 DUP4 PUSH2 0x2822 JUMP JUMPDEST SWAP2 POP PUSH2 0x30DD DUP3 PUSH2 0x3078 JUMP JUMPDEST PUSH1 0x40 DUP3 ADD SWAP1 POP SWAP2 SWAP1 POP JUMP JUMPDEST PUSH0 PUSH1 0x20 DUP3 ADD SWAP1 POP DUP2 DUP2 SUB PUSH0 DUP4 ADD MSTORE PUSH2 0x30FF DUP2 PUSH2 0x30C6 JUMP JUMPDEST SWAP1 POP SWAP2 SWAP1 POP JUMP JUMPDEST PUSH32 0x546865206C6F636B706572696F64206D75737420626520677265617465722074 PUSH0 DUP3 ADD MSTORE PUSH32 0x68656E207A65726F000000000000000000000000000000000000000000000000 PUSH1 0x20 DUP3 ADD MSTORE POP JUMP JUMPDEST PUSH0 PUSH2 0x3160 PUSH1 0x28 DUP4 PUSH2 0x2822 JUMP JUMPDEST SWAP2 POP PUSH2 0x316B DUP3 PUSH2 0x3106 JUMP JUMPDEST PUSH1 0x40 DUP3 ADD SWAP1 POP SWAP2 SWAP1 POP JUMP JUMPDEST PUSH0 PUSH1 0x20 DUP3 ADD SWAP1 POP DUP2 DUP2 SUB PUSH0 DUP4 ADD MSTORE PUSH2 0x318D DUP2 PUSH2 0x3154 JUMP JUMPDEST SWAP1 POP SWAP2 SWAP1 POP JUMP JUMPDEST PUSH32 0x4E487B7100000000000000000000000000000000000000000000000000000000 PUSH0 MSTORE PUSH1 0x32 PUSH1 0x4 MSTORE PUSH1 0x24 PUSH0 REVERT JUMPDEST PUSH0 DUP2 SLOAD PUSH2 0x31CD DUP2 PUSH2 0x2D75 JUMP JUMPDEST PUSH2 0x31D7 DUP2 DUP7 PUSH2 0x2822 JUMP JUMPDEST SWAP5 POP PUSH1 0x1 DUP3 AND PUSH0 DUP2 EQ PUSH2 0x31F1 JUMPI PUSH1 0x1 DUP2 EQ PUSH2 0x3207 JUMPI PUSH2 0x3239 JUMP JUMPDEST PUSH1 0xFF NOT DUP4 AND DUP7 MSTORE DUP2 ISZERO ISZERO PUSH1 0x20 MUL DUP7 ADD SWAP4 POP PUSH2 0x3239 JUMP JUMPDEST PUSH2 0x3210 DUP6 PUSH2 0x2DA5 JUMP JUMPDEST PUSH0 JUMPDEST DUP4 DUP2 LT ISZERO PUSH2 0x3231 JUMPI DUP2 SLOAD DUP2 DUP10 ADD MSTORE PUSH1 0x1 DUP3 ADD SWAP2 POP PUSH1 0x20 DUP2 ADD SWAP1 POP PUSH2 0x3212 JUMP JUMPDEST DUP1 DUP9 ADD SWAP6 POP POP POP JUMPDEST POP POP POP SWAP3 SWAP2 POP POP JUMP JUMPDEST PUSH0 PUSH1 0x80 DUP3 ADD SWAP1 POP PUSH2 0x3255 PUSH0 DUP4 ADD DUP8 PUSH2 0x24B0 JUMP JUMPDEST DUP2 DUP2 SUB PUSH1 0x20 DUP4 ADD MSTORE PUSH2 0x3267 DUP2 DUP7 PUSH2 0x31C1 JUMP JUMPDEST SWAP1 POP PUSH2 0x3276 PUSH1 0x40 DUP4 ADD DUP6 PUSH2 0x3011 JUMP JUMPDEST PUSH2 0x3283 PUSH1 0x60 DUP4 ADD DUP5 PUSH2 0x24B0 JUMP JUMPDEST SWAP6 SWAP5 POP POP POP POP POP JUMP JUMPDEST PUSH32 0x5468652073706563696669656420617373657420494420697320696E76616C69 PUSH0 DUP3 ADD MSTORE PUSH32 0x642E000000000000000000000000000000000000000000000000000000000000 PUSH1 0x20 DUP3 ADD MSTORE POP JUMP JUMPDEST PUSH0 PUSH2 0x32E6 PUSH1 0x22 DUP4 PUSH2 0x2822 JUMP JUMPDEST SWAP2 POP PUSH2 0x32F1 DUP3 PUSH2 0x328C JUMP JUMPDEST PUSH1 0x40 DUP3 ADD SWAP1 POP SWAP2 SWAP1 POP JUMP JUMPDEST PUSH0 PUSH1 0x20 DUP3 ADD SWAP1 POP DUP2 DUP2 SUB PUSH0 DUP4 ADD MSTORE PUSH2 0x3313 DUP2 PUSH2 0x32DA JUMP JUMPDEST SWAP1 POP SWAP2 SWAP1 POP JUMP JUMPDEST PUSH32 0x546865206C6F636B20706572696F6420686173206E6F74207965742065787069 PUSH0 DUP3 ADD MSTORE PUSH32 0x7265642100000000000000000000000000000000000000000000000000000000 PUSH1 0x20 DUP3 ADD MSTORE POP JUMP JUMPDEST PUSH0 PUSH2 0x3374 PUSH1 0x24 DUP4 PUSH2 0x2822 JUMP JUMPDEST SWAP2 POP PUSH2 0x337F DUP3 PUSH2 0x331A JUMP JUMPDEST PUSH1 0x40 DUP3 ADD SWAP1 POP SWAP2 SWAP1 POP JUMP JUMPDEST PUSH0 PUSH1 0x20 DUP3 ADD SWAP1 POP DUP2 DUP2 SUB PUSH0 DUP4 ADD MSTORE PUSH2 0x33A1 DUP2 PUSH2 0x3368 JUMP JUMPDEST SWAP1 POP SWAP2 SWAP1 POP JUMP JUMPDEST PUSH0 PUSH1 0x80 DUP3 ADD SWAP1 POP PUSH2 0x33BB PUSH0 DUP4 ADD DUP8 PUSH2 0x3011 JUMP JUMPDEST PUSH2 0x33C8 PUSH1 0x20 DUP4 ADD DUP7 PUSH2 0x24B0 JUMP JUMPDEST DUP2 DUP2 SUB PUSH1 0x40 DUP4 ADD MSTORE PUSH2 0x33DA DUP2 DUP6 PUSH2 0x31C1 JUMP JUMPDEST SWAP1 POP PUSH2 0x33E9 PUSH1 0x60 DUP4 ADD DUP5 PUSH2 0x24B0 JUMP JUMPDEST SWAP6 SWAP5 POP POP POP POP POP JUMP JUMPDEST PUSH32 0x417373657473206861766520616C7265616479206265656E2077697468647261 PUSH0 DUP3 ADD MSTORE PUSH32 0x776E210000000000000000000000000000000000000000000000000000000000 PUSH1 0x20 DUP3 ADD MSTORE POP JUMP JUMPDEST PUSH0 PUSH2 0x344C PUSH1 0x23 DUP4 PUSH2 0x2822 JUMP JUMPDEST SWAP2 POP PUSH2 0x3457 DUP3 PUSH2 0x33F2 JUMP JUMPDEST PUSH1 0x40 DUP3 ADD SWAP1 POP SWAP2 SWAP1 POP JUMP JUMPDEST PUSH0 PUSH1 0x20 DUP3 ADD SWAP1 POP DUP2 DUP2 SUB PUSH0 DUP4 ADD MSTORE PUSH2 0x3479 DUP2 PUSH2 0x3440 JUMP JUMPDEST SWAP1 POP SWAP2 SWAP1 POP JUMP JUMPDEST PUSH32 0x4E6F7420656E6F7567682061737365747320746F207769746864726177210000 PUSH0 DUP3 ADD MSTORE POP JUMP JUMPDEST PUSH0 PUSH2 0x34B4 PUSH1 0x1E DUP4 PUSH2 0x2822 JUMP JUMPDEST SWAP2 POP PUSH2 0x34BF DUP3 PUSH2 0x3480 JUMP JUMPDEST PUSH1 0x20 DUP3 ADD SWAP1 POP SWAP2 SWAP1 POP JUMP JUMPDEST PUSH0 PUSH1 0x20 DUP3 ADD SWAP1 POP DUP2 DUP2 SUB PUSH0 DUP4 ADD MSTORE PUSH2 0x34E1 DUP2 PUSH2 0x34A8 JUMP JUMPDEST SWAP1 POP SWAP2 SWAP1 POP JUMP JUMPDEST PUSH32 0x546865206C6F636B20706572696F6420686173206E6F74207965742065787069 PUSH0 DUP3 ADD MSTORE PUSH32 0x72656420616E64207468652076616C756520686173206E6F7420726561636865 PUSH1 0x20 DUP3 ADD MSTORE PUSH32 0x642073657420676F616C21000000000000000000000000000000000000000000 PUSH1 0x40 DUP3 ADD MSTORE POP JUMP JUMPDEST PUSH0 PUSH2 0x3568 PUSH1 0x4B DUP4 PUSH2 0x2822 JUMP JUMPDEST SWAP2 POP PUSH2 0x3573 DUP3 PUSH2 0x34E8 JUMP JUMPDEST PUSH1 0x60 DUP3 ADD SWAP1 POP SWAP2 SWAP1 POP JUMP JUMPDEST PUSH0 PUSH1 0x20 DUP3 ADD SWAP1 POP DUP2 DUP2 SUB PUSH0 DUP4 ADD MSTORE PUSH2 0x3595 DUP2 PUSH2 0x355C JUMP JUMPDEST SWAP1 POP SWAP2 SWAP1 POP JUMP JUMPDEST PUSH0 PUSH2 0x35A6 DUP3 PUSH2 0x21E1 JUMP JUMPDEST SWAP2 POP PUSH2 0x35B1 DUP4 PUSH2 0x21E1 JUMP JUMPDEST SWAP3 POP DUP3 DUP3 SUB SWAP1 POP DUP2 DUP2 GT ISZERO PUSH2 0x35C9 JUMPI PUSH2 0x35C8 PUSH2 0x2CE8 JUMP JUMPDEST JUMPDEST SWAP3 SWAP2 POP POP JUMP JUMPDEST PUSH0 DUP2 SWAP1 POP SWAP3 SWAP2 POP POP JUMP JUMPDEST POP JUMP JUMPDEST PUSH0 PUSH2 0x35E7 PUSH0 DUP4 PUSH2 0x35CF JUMP JUMPDEST SWAP2 POP PUSH2 0x35F2 DUP3 PUSH2 0x35D9 JUMP JUMPDEST PUSH0 DUP3 ADD SWAP1 POP SWAP2 SWAP1 POP JUMP JUMPDEST PUSH0 PUSH2 0x3606 DUP3 PUSH2 0x35DC JUMP JUMPDEST SWAP2 POP DUP2 SWAP1 POP SWAP2 SWAP1 POP JUMP JUMPDEST PUSH32 0x455448207472616E73666572206661696C656400000000000000000000000000 PUSH0 DUP3 ADD MSTORE POP JUMP JUMPDEST PUSH0 PUSH2 0x3644 PUSH1 0x13 DUP4 PUSH2 0x2822 JUMP JUMPDEST SWAP2 POP PUSH2 0x364F DUP3 PUSH2 0x3610 JUMP JUMPDEST PUSH1 0x20 DUP3 ADD SWAP1 POP SWAP2 SWAP1 POP JUMP JUMPDEST PUSH0 PUSH1 0x20 DUP3 ADD SWAP1 POP DUP2 DUP2 SUB PUSH0 DUP4 ADD MSTORE PUSH2 0x3671 DUP2 PUSH2 0x3638 JUMP JUMPDEST SWAP1 POP SWAP2 SWAP1 POP JUMP JUMPDEST PUSH32 0x45544820746F2061646420746F206C6F636B206D75737420626520616E20616D PUSH0 DUP3 ADD MSTORE PUSH32 0x6F756E742067726561746572207468616E203000000000000000000000000000 PUSH1 0x20 DUP3 ADD MSTORE POP JUMP JUMPDEST PUSH0 PUSH2 0x36D2 PUSH1 0x33 DUP4 PUSH2 0x2822 JUMP JUMPDEST SWAP2 POP PUSH2 0x36DD DUP3 PUSH2 0x3678 JUMP JUMPDEST PUSH1 0x40 DUP3 ADD SWAP1 POP SWAP2 SWAP1 POP JUMP JUMPDEST PUSH0 PUSH1 0x20 DUP3 ADD SWAP1 POP DUP2 DUP2 SUB PUSH0 DUP4 ADD MSTORE PUSH2 0x36FF DUP2 PUSH2 0x36C6 JUMP JUMPDEST SWAP1 POP SWAP2 SWAP1 POP JUMP JUMPDEST PUSH0 PUSH1 0x60 DUP3 ADD SWAP1 POP PUSH2 0x3719 PUSH0 DUP4 ADD DUP7 PUSH2 0x2813 JUMP JUMPDEST PUSH2 0x3726 PUSH1 0x20 DUP4 ADD DUP6 PUSH2 0x2813 JUMP JUMPDEST PUSH2 0x3733 PUSH1 0x40 DUP4 ADD DUP5 PUSH2 0x24B0 JUMP JUMPDEST SWAP5 SWAP4 POP POP POP POP JUMP JUMPDEST PUSH0 PUSH1 0x40 DUP3 ADD SWAP1 POP PUSH2 0x374E PUSH0 DUP4 ADD DUP6 PUSH2 0x2813 JUMP JUMPDEST PUSH2 0x375B PUSH1 0x20 DUP4 ADD DUP5 PUSH2 0x24B0 JUMP JUMPDEST SWAP4 SWAP3 POP POP POP JUMP INVALID LOG2 PUSH5 0x6970667358 0x22 SLT KECCAK256 MOD 0x2C PUSH1 0xEB 0xC7 CALLDATACOPY 0xE5 PUSH14 0x68E8B40088EAA47ABA3CBAA125E7 0x4D 0xCC DUP7 0xC3 DUP15 0xC5 PUSH30 0x59293064736F6C634300081A003300000000000000000000000000000000 "
				},
				"gasEstimates": {
					"creation": {
						"codeDepositCost": "2846400",
						"executionCost": "infinite",
						"totalCost": "infinite"
					},
					"external": {
						"addToLockedETH(uint8,uint32)": "infinite",
						"addToLockedTokens(address,uint32,uint256,uint8)": "infinite",
						"extendLockPeriod(uint32,uint8,uint256)": "infinite",
						"getContractETHBalance()": "357",
						"getContractTokenBalance(address)": "infinite",
						"getUserLocks(uint8)": "infinite",
						"lockETH(uint8,uint256,string)": "infinite",
						"lockToken(address,uint256,uint8,uint256,string)": "infinite",
						"owner()": "2560",
						"renounceOwnership()": "infinite",
						"transferAsset(uint32,uint8,uint256,bool)": "infinite",
						"transferOwnership(address)": "infinite",
						"userLockedAssets(address,uint8,uint256)": "infinite",
						"userTransactions(address,uint8,uint256)": "infinite"
					},
					"internal": {
						"recordTransac(address,uint8,uint256,string memory,bool)": "infinite"
					}
				},
				"methodIdentifiers": {
					"addToLockedETH(uint8,uint32)": "ecaa9d05",
					"addToLockedTokens(address,uint32,uint256,uint8)": "2d8fefc2",
					"extendLockPeriod(uint32,uint8,uint256)": "8de8107b",
					"getContractETHBalance()": "8c89a0ad",
					"getContractTokenBalance(address)": "14205e28",
					"getUserLocks(uint8)": "3b958c38",
					"lockETH(uint8,uint256,string)": "13a2e884",
					"lockToken(address,uint256,uint8,uint256,string)": "0f1419b5",
					"owner()": "8da5cb5b",
					"renounceOwnership()": "715018a6",
					"transferAsset(uint32,uint8,uint256,bool)": "c5f441ea",
					"transferOwnership(address)": "f2fde38b",
					"userLockedAssets(address,uint8,uint256)": "8e06b906",
					"userTransactions(address,uint8,uint256)": "60864eed"
				}
			},
			"storageLayout": {
				"storage": [
					{
						"astId": 8,
						"contract": "contracts/Fvkry.sol:Fvkry",
						"label": "_owner",
						"offset": 0,
						"slot": "0",
						"type": "t_address"
					},
					{
						"astId": 765,
						"contract": "contracts/Fvkry.sol:Fvkry",
						"label": "_status",
						"offset": 0,
						"slot": "1",
						"type": "t_uint256"
					},
					{
						"astId": 881,
						"contract": "contracts/Fvkry.sol:Fvkry",
						"label": "userLockedAssets",
						"offset": 0,
						"slot": "2",
						"type": "t_mapping(t_address,t_mapping(t_uint8,t_array(t_struct(Lock)862_storage)dyn_storage))"
					},
					{
						"astId": 889,
						"contract": "contracts/Fvkry.sol:Fvkry",
						"label": "userTransactions",
						"offset": 0,
						"slot": "3",
						"type": "t_mapping(t_address,t_mapping(t_uint8,t_array(t_struct(TransacHist)873_storage)dyn_storage))"
					}
				],
				"types": {
					"t_address": {
						"encoding": "inplace",
						"label": "address",
						"numberOfBytes": "20"
					},
					"t_array(t_struct(Lock)862_storage)dyn_storage": {
						"base": "t_struct(Lock)862_storage",
						"encoding": "dynamic_array",
						"label": "struct Fvkry.Lock[]",
						"numberOfBytes": "32"
					},
					"t_array(t_struct(TransacHist)873_storage)dyn_storage": {
						"base": "t_struct(TransacHist)873_storage",
						"encoding": "dynamic_array",
						"label": "struct Fvkry.TransacHist[]",
						"numberOfBytes": "32"
					},
					"t_bool": {
						"encoding": "inplace",
						"label": "bool",
						"numberOfBytes": "1"
					},
					"t_mapping(t_address,t_mapping(t_uint8,t_array(t_struct(Lock)862_storage)dyn_storage))": {
						"encoding": "mapping",
						"key": "t_address",
						"label": "mapping(address => mapping(uint8 => struct Fvkry.Lock[]))",
						"numberOfBytes": "32",
						"value": "t_mapping(t_uint8,t_array(t_struct(Lock)862_storage)dyn_storage)"
					},
					"t_mapping(t_address,t_mapping(t_uint8,t_array(t_struct(TransacHist)873_storage)dyn_storage))": {
						"encoding": "mapping",
						"key": "t_address",
						"label": "mapping(address => mapping(uint8 => struct Fvkry.TransacHist[]))",
						"numberOfBytes": "32",
						"value": "t_mapping(t_uint8,t_array(t_struct(TransacHist)873_storage)dyn_storage)"
					},
					"t_mapping(t_uint8,t_array(t_struct(Lock)862_storage)dyn_storage)": {
						"encoding": "mapping",
						"key": "t_uint8",
						"label": "mapping(uint8 => struct Fvkry.Lock[])",
						"numberOfBytes": "32",
						"value": "t_array(t_struct(Lock)862_storage)dyn_storage"
					},
					"t_mapping(t_uint8,t_array(t_struct(TransacHist)873_storage)dyn_storage)": {
						"encoding": "mapping",
						"key": "t_uint8",
						"label": "mapping(uint8 => struct Fvkry.TransacHist[])",
						"numberOfBytes": "32",
						"value": "t_array(t_struct(TransacHist)873_storage)dyn_storage"
					},
					"t_string_storage": {
						"encoding": "bytes",
						"label": "string",
						"numberOfBytes": "32"
					},
					"t_struct(Lock)862_storage": {
						"encoding": "inplace",
						"label": "struct Fvkry.Lock",
						"members": [
							{
								"astId": 851,
								"contract": "contracts/Fvkry.sol:Fvkry",
								"label": "token",
								"offset": 0,
								"slot": "0",
								"type": "t_address"
							},
							{
								"astId": 853,
								"contract": "contracts/Fvkry.sol:Fvkry",
								"label": "amount",
								"offset": 0,
								"slot": "1",
								"type": "t_uint256"
							},
							{
								"astId": 855,
								"contract": "contracts/Fvkry.sol:Fvkry",
								"label": "lockEndTime",
								"offset": 0,
								"slot": "2",
								"type": "t_uint256"
							},
							{
								"astId": 857,
								"contract": "contracts/Fvkry.sol:Fvkry",
								"label": "title",
								"offset": 0,
								"slot": "3",
								"type": "t_string_storage"
							},
							{
								"astId": 859,
								"contract": "contracts/Fvkry.sol:Fvkry",
								"label": "withdrawn",
								"offset": 0,
								"slot": "4",
								"type": "t_bool"
							},
							{
								"astId": 861,
								"contract": "contracts/Fvkry.sol:Fvkry",
								"label": "isNative",
								"offset": 1,
								"slot": "4",
								"type": "t_bool"
							}
						],
						"numberOfBytes": "160"
					},
					"t_struct(TransacHist)873_storage": {
						"encoding": "inplace",
						"label": "struct Fvkry.TransacHist",
						"members": [
							{
								"astId": 864,
								"contract": "contracts/Fvkry.sol:Fvkry",
								"label": "token",
								"offset": 0,
								"slot": "0",
								"type": "t_address"
							},
							{
								"astId": 866,
								"contract": "contracts/Fvkry.sol:Fvkry",
								"label": "amount",
								"offset": 0,
								"slot": "1",
								"type": "t_uint256"
							},
							{
								"astId": 868,
								"contract": "contracts/Fvkry.sol:Fvkry",
								"label": "title",
								"offset": 0,
								"slot": "2",
								"type": "t_string_storage"
							},
							{
								"astId": 870,
								"contract": "contracts/Fvkry.sol:Fvkry",
								"label": "withdrawn",
								"offset": 0,
								"slot": "3",
								"type": "t_bool"
							},
							{
								"astId": 872,
								"contract": "contracts/Fvkry.sol:Fvkry",
								"label": "timestamp",
								"offset": 0,
								"slot": "4",
								"type": "t_uint256"
							}
						],
						"numberOfBytes": "160"
					},
					"t_uint256": {
						"encoding": "inplace",
						"label": "uint256",
						"numberOfBytes": "32"
					},
					"t_uint8": {
						"encoding": "inplace",
						"label": "uint8",
						"numberOfBytes": "1"
					}
				}
			},
			"userdoc": {
				"kind": "user",
				"methods": {},
				"version": 1
			}
		}
	}
}