{
	"contracts/Fvkry.sol": {
		"Fvkry": {
			"abi": [
				{
					"inputs": [],
					"stateMutability": "nonpayable",
					"type": "constructor"
				},
				{
					"inputs": [
						{
							"internalType": "address",
							"name": "owner",
							"type": "address"
						}
					],
					"name": "OwnableInvalidOwner",
					"type": "error"
				},
				{
					"inputs": [
						{
							"internalType": "address",
							"name": "account",
							"type": "address"
						}
					],
					"name": "OwnableUnauthorizedAccount",
					"type": "error"
				},
				{
					"inputs": [],
					"name": "ReentrancyGuardReentrantCall",
					"type": "error"
				},
				{
					"inputs": [
						{
							"internalType": "address",
							"name": "token",
							"type": "address"
						}
					],
					"name": "SafeERC20FailedOperation",
					"type": "error"
				},
				{
					"anonymous": false,
					"inputs": [
						{
							"indexed": true,
							"internalType": "address",
							"name": "token",
							"type": "address"
						},
						{
							"indexed": false,
							"internalType": "uint256",
							"name": "amount",
							"type": "uint256"
						},
						{
							"indexed": false,
							"internalType": "uint8",
							"name": "vault",
							"type": "uint8"
						},
						{
							"indexed": false,
							"internalType": "uint256",
							"name": "timestamp",
							"type": "uint256"
						}
					],
					"name": "AssetAdded",
					"type": "event"
				},
				{
					"anonymous": false,
					"inputs": [
						{
							"indexed": true,
							"internalType": "address",
							"name": "token",
							"type": "address"
						},
						{
							"indexed": false,
							"internalType": "uint256",
							"name": "amount",
							"type": "uint256"
						},
						{
							"indexed": false,
							"internalType": "uint8",
							"name": "vault",
							"type": "uint8"
						},
						{
							"indexed": false,
							"internalType": "uint256",
							"name": "lockEndTime",
							"type": "uint256"
						},
						{
							"indexed": false,
							"internalType": "uint256",
							"name": "timestamp",
							"type": "uint256"
						}
					],
					"name": "AssetLocked",
					"type": "event"
				},
				{
					"anonymous": false,
					"inputs": [
						{
							"indexed": true,
							"internalType": "address",
							"name": "token",
							"type": "address"
						},
						{
							"indexed": false,
							"internalType": "uint256",
							"name": "amount",
							"type": "uint256"
						},
						{
							"indexed": false,
							"internalType": "uint8",
							"name": "vault",
							"type": "uint8"
						},
						{
							"indexed": false,
							"internalType": "uint256",
							"name": "timestamp",
							"type": "uint256"
						}
					],
					"name": "AssetTransfered",
					"type": "event"
				},
				{
					"anonymous": false,
					"inputs": [
						{
							"indexed": true,
							"internalType": "address",
							"name": "previousOwner",
							"type": "address"
						},
						{
							"indexed": true,
							"internalType": "address",
							"name": "newOwner",
							"type": "address"
						}
					],
					"name": "OwnershipTransferred",
					"type": "event"
				},
				{
					"inputs": [
						{
							"internalType": "uint8",
							"name": "_vault",
							"type": "uint8"
						},
						{
							"internalType": "uint32",
							"name": "_assetID",
							"type": "uint32"
						}
					],
					"name": "addToLockedETH",
					"outputs": [],
					"stateMutability": "payable",
					"type": "function"
				},
				{
					"inputs": [
						{
							"internalType": "contract IERC20",
							"name": "_token",
							"type": "address"
						},
						{
							"internalType": "uint32",
							"name": "_assetID",
							"type": "uint32"
						},
						{
							"internalType": "uint256",
							"name": "_amount",
							"type": "uint256"
						},
						{
							"internalType": "uint8",
							"name": "_vault",
							"type": "uint8"
						}
					],
					"name": "addToLockedTokens",
					"outputs": [],
					"stateMutability": "nonpayable",
					"type": "function"
				},
				{
					"inputs": [],
					"name": "getContractETHBalance",
					"outputs": [
						{
							"internalType": "uint256",
							"name": "",
							"type": "uint256"
						}
					],
					"stateMutability": "view",
					"type": "function"
				},
				{
					"inputs": [
						{
							"internalType": "contract IERC20",
							"name": "token",
							"type": "address"
						}
					],
					"name": "getContractTokenBalance",
					"outputs": [
						{
							"internalType": "uint256",
							"name": "",
							"type": "uint256"
						}
					],
					"stateMutability": "view",
					"type": "function"
				},
				{
					"inputs": [
						{
							"internalType": "uint8",
							"name": "_vault",
							"type": "uint8"
						}
					],
					"name": "getUserLocks",
					"outputs": [
						{
							"components": [
								{
									"internalType": "address",
									"name": "token",
									"type": "address"
								},
								{
									"internalType": "uint256",
									"name": "amount",
									"type": "uint256"
								},
								{
									"internalType": "uint256",
									"name": "lockEndTime",
									"type": "uint256"
								},
								{
									"internalType": "uint8",
									"name": "vault",
									"type": "uint8"
								},
								{
									"internalType": "bool",
									"name": "withdrawn",
									"type": "bool"
								},
								{
									"internalType": "bool",
									"name": "isNative",
									"type": "bool"
								}
							],
							"internalType": "struct Fvkry.Lock[]",
							"name": "",
							"type": "tuple[]"
						}
					],
					"stateMutability": "view",
					"type": "function"
				},
				{
					"inputs": [
						{
							"internalType": "uint8",
							"name": "_vault",
							"type": "uint8"
						},
						{
							"internalType": "uint256",
							"name": "_lockperiod",
							"type": "uint256"
						}
					],
					"name": "lockETH",
					"outputs": [],
					"stateMutability": "payable",
					"type": "function"
				},
				{
					"inputs": [
						{
							"internalType": "contract IERC20",
							"name": "_token",
							"type": "address"
						},
						{
							"internalType": "uint256",
							"name": "_amount",
							"type": "uint256"
						},
						{
							"internalType": "uint8",
							"name": "_vault",
							"type": "uint8"
						},
						{
							"internalType": "uint256",
							"name": "_lockperiod",
							"type": "uint256"
						}
					],
					"name": "lockToken",
					"outputs": [],
					"stateMutability": "nonpayable",
					"type": "function"
				},
				{
					"inputs": [],
					"name": "owner",
					"outputs": [
						{
							"internalType": "address",
							"name": "",
							"type": "address"
						}
					],
					"stateMutability": "view",
					"type": "function"
				},
				{
					"inputs": [],
					"name": "renounceOwnership",
					"outputs": [],
					"stateMutability": "nonpayable",
					"type": "function"
				},
				{
					"inputs": [
						{
							"internalType": "uint32",
							"name": "_assetId",
							"type": "uint32"
						},
						{
							"internalType": "uint8",
							"name": "_vault",
							"type": "uint8"
						},
						{
							"internalType": "uint256",
							"name": "_amount",
							"type": "uint256"
						}
					],
					"name": "transferAsset",
					"outputs": [],
					"stateMutability": "nonpayable",
					"type": "function"
				},
				{
					"inputs": [
						{
							"internalType": "address",
							"name": "newOwner",
							"type": "address"
						}
					],
					"name": "transferOwnership",
					"outputs": [],
					"stateMutability": "nonpayable",
					"type": "function"
				},
				{
					"inputs": [
						{
							"internalType": "address",
							"name": "",
							"type": "address"
						},
						{
							"internalType": "uint8",
							"name": "",
							"type": "uint8"
						},
						{
							"internalType": "uint256",
							"name": "",
							"type": "uint256"
						}
					],
					"name": "userLockedAssets",
					"outputs": [
						{
							"internalType": "address",
							"name": "token",
							"type": "address"
						},
						{
							"internalType": "uint256",
							"name": "amount",
							"type": "uint256"
						},
						{
							"internalType": "uint256",
							"name": "lockEndTime",
							"type": "uint256"
						},
						{
							"internalType": "uint8",
							"name": "vault",
							"type": "uint8"
						},
						{
							"internalType": "bool",
							"name": "withdrawn",
							"type": "bool"
						},
						{
							"internalType": "bool",
							"name": "isNative",
							"type": "bool"
						}
					],
					"stateMutability": "view",
					"type": "function"
				}
			],
			"devdoc": {
				"errors": {
					"OwnableInvalidOwner(address)": [
						{
							"details": "The owner is not a valid owner account. (eg. `address(0)`)"
						}
					],
					"OwnableUnauthorizedAccount(address)": [
						{
							"details": "The caller account is not authorized to perform an operation."
						}
					],
					"ReentrancyGuardReentrantCall()": [
						{
							"details": "Unauthorized reentrant call."
						}
					],
					"SafeERC20FailedOperation(address)": [
						{
							"details": "An operation with an ERC-20 token failed."
						}
					]
				},
				"kind": "dev",
				"methods": {
					"owner()": {
						"details": "Returns the address of the current owner."
					},
					"renounceOwnership()": {
						"details": "Leaves the contract without owner. It will not be possible to call `onlyOwner` functions. Can only be called by the current owner. NOTE: Renouncing ownership will leave the contract without an owner, thereby disabling any functionality that is only available to the owner."
					},
					"transferOwnership(address)": {
						"details": "Transfers ownership of the contract to a new account (`newOwner`). Can only be called by the current owner."
					}
				},
				"version": 1
			},
			"evm": {
				"assembly": "    /* \"contracts/Fvkry.sol\":305:5595  contract Fvkry is Ownable, ReentrancyGuard {... */\n  mstore(0x40, 0x80)\n    /* \"contracts/Fvkry.sol\":977:1013  constructor() Ownable(msg.sender) {} */\n  callvalue\n  dup1\n  iszero\n  tag_1\n  jumpi\n  0x00\n  dup1\n  revert\ntag_1:\n  pop\n    /* \"contracts/Fvkry.sol\":999:1009  msg.sender */\n  caller\n    /* \"@openzeppelin/contracts/access/Ownable.sol\":1297:1298  0 */\n  0x00\n    /* \"@openzeppelin/contracts/access/Ownable.sol\":1273:1299  initialOwner == address(0) */\n  0xffffffffffffffffffffffffffffffffffffffff\n  and\n    /* \"@openzeppelin/contracts/access/Ownable.sol\":1273:1285  initialOwner */\n  dup2\n    /* \"@openzeppelin/contracts/access/Ownable.sol\":1273:1299  initialOwner == address(0) */\n  0xffffffffffffffffffffffffffffffffffffffff\n  and\n  sub\n    /* \"@openzeppelin/contracts/access/Ownable.sol\":1269:1364  if (initialOwner == address(0)) {... */\n  tag_6\n  jumpi\n    /* \"@openzeppelin/contracts/access/Ownable.sol\":1350:1351  0 */\n  0x00\n    /* \"@openzeppelin/contracts/access/Ownable.sol\":1322:1353  OwnableInvalidOwner(address(0)) */\n  mload(0x40)\n  0x1e4fbdf700000000000000000000000000000000000000000000000000000000\n  dup2\n  mstore\n  0x04\n  add\n  tag_7\n  swap2\n  swap1\n  tag_8\n  jump\t// in\ntag_7:\n  mload(0x40)\n  dup1\n  swap2\n  sub\n  swap1\n  revert\n    /* \"@openzeppelin/contracts/access/Ownable.sol\":1269:1364  if (initialOwner == address(0)) {... */\ntag_6:\n    /* \"@openzeppelin/contracts/access/Ownable.sol\":1373:1405  _transferOwnership(initialOwner) */\n  tag_9\n    /* \"@openzeppelin/contracts/access/Ownable.sol\":1392:1404  initialOwner */\n  dup2\n    /* \"@openzeppelin/contracts/access/Ownable.sol\":1373:1391  _transferOwnership */\n  shl(0x20, tag_10)\n    /* \"@openzeppelin/contracts/access/Ownable.sol\":1373:1405  _transferOwnership(initialOwner) */\n  0x20\n  shr\n  jump\t// in\ntag_9:\n    /* \"@openzeppelin/contracts/access/Ownable.sol\":1225:1412  constructor(address initialOwner) {... */\n  pop\n    /* \"@openzeppelin/contracts/utils/ReentrancyGuard.sol\":1857:1858  1 */\n  0x01\n    /* \"@openzeppelin/contracts/utils/ReentrancyGuard.sol\":2061:2068  _status */\n  dup1\n    /* \"@openzeppelin/contracts/utils/ReentrancyGuard.sol\":2061:2082  _status = NOT_ENTERED */\n  dup2\n  swap1\n  sstore\n  pop\n    /* \"contracts/Fvkry.sol\":305:5595  contract Fvkry is Ownable, ReentrancyGuard {... */\n  jump(tag_13)\n    /* \"@openzeppelin/contracts/access/Ownable.sol\":2912:3099  function _transferOwnership(address newOwner) internal virtual {... */\ntag_10:\n    /* \"@openzeppelin/contracts/access/Ownable.sol\":2985:3001  address oldOwner */\n  0x00\n    /* \"@openzeppelin/contracts/access/Ownable.sol\":3004:3010  _owner */\n  dup1\n  0x00\n  swap1\n  sload\n  swap1\n  0x0100\n  exp\n  swap1\n  div\n  0xffffffffffffffffffffffffffffffffffffffff\n  and\n    /* \"@openzeppelin/contracts/access/Ownable.sol\":2985:3010  address oldOwner = _owner */\n  swap1\n  pop\n    /* \"@openzeppelin/contracts/access/Ownable.sol\":3029:3037  newOwner */\n  dup2\n    /* \"@openzeppelin/contracts/access/Ownable.sol\":3020:3026  _owner */\n  0x00\n  dup1\n    /* \"@openzeppelin/contracts/access/Ownable.sol\":3020:3037  _owner = newOwner */\n  0x0100\n  exp\n  dup2\n  sload\n  dup2\n  0xffffffffffffffffffffffffffffffffffffffff\n  mul\n  not\n  and\n  swap1\n  dup4\n  0xffffffffffffffffffffffffffffffffffffffff\n  and\n  mul\n  or\n  swap1\n  sstore\n  pop\n    /* \"@openzeppelin/contracts/access/Ownable.sol\":3083:3091  newOwner */\n  dup2\n    /* \"@openzeppelin/contracts/access/Ownable.sol\":3052:3092  OwnershipTransferred(oldOwner, newOwner) */\n  0xffffffffffffffffffffffffffffffffffffffff\n  and\n    /* \"@openzeppelin/contracts/access/Ownable.sol\":3073:3081  oldOwner */\n  dup2\n    /* \"@openzeppelin/contracts/access/Ownable.sol\":3052:3092  OwnershipTransferred(oldOwner, newOwner) */\n  0xffffffffffffffffffffffffffffffffffffffff\n  and\n  0x8be0079c531659141344cd1fd0a4f28419497f9722a3daafe3b4186f6b6457e0\n  mload(0x40)\n  mload(0x40)\n  dup1\n  swap2\n  sub\n  swap1\n  log3\n    /* \"@openzeppelin/contracts/access/Ownable.sol\":2975:3099  {... */\n  pop\n    /* \"@openzeppelin/contracts/access/Ownable.sol\":2912:3099  function _transferOwnership(address newOwner) internal virtual {... */\n  pop\n  jump\t// out\n    /* \"#utility.yul\":7:133   */\ntag_15:\n    /* \"#utility.yul\":44:51   */\n  0x00\n    /* \"#utility.yul\":84:126   */\n  0xffffffffffffffffffffffffffffffffffffffff\n    /* \"#utility.yul\":77:82   */\n  dup3\n    /* \"#utility.yul\":73:127   */\n  and\n    /* \"#utility.yul\":62:127   */\n  swap1\n  pop\n    /* \"#utility.yul\":7:133   */\n  swap2\n  swap1\n  pop\n  jump\t// out\n    /* \"#utility.yul\":139:235   */\ntag_16:\n    /* \"#utility.yul\":176:183   */\n  0x00\n    /* \"#utility.yul\":205:229   */\n  tag_21\n    /* \"#utility.yul\":223:228   */\n  dup3\n    /* \"#utility.yul\":205:229   */\n  tag_15\n  jump\t// in\ntag_21:\n    /* \"#utility.yul\":194:229   */\n  swap1\n  pop\n    /* \"#utility.yul\":139:235   */\n  swap2\n  swap1\n  pop\n  jump\t// out\n    /* \"#utility.yul\":241:359   */\ntag_17:\n    /* \"#utility.yul\":328:352   */\n  tag_23\n    /* \"#utility.yul\":346:351   */\n  dup2\n    /* \"#utility.yul\":328:352   */\n  tag_16\n  jump\t// in\ntag_23:\n    /* \"#utility.yul\":323:326   */\n  dup3\n    /* \"#utility.yul\":316:353   */\n  mstore\n    /* \"#utility.yul\":241:359   */\n  pop\n  pop\n  jump\t// out\n    /* \"#utility.yul\":365:587   */\ntag_8:\n    /* \"#utility.yul\":458:462   */\n  0x00\n    /* \"#utility.yul\":496:498   */\n  0x20\n    /* \"#utility.yul\":485:494   */\n  dup3\n    /* \"#utility.yul\":481:499   */\n  add\n    /* \"#utility.yul\":473:499   */\n  swap1\n  pop\n    /* \"#utility.yul\":509:580   */\n  tag_25\n    /* \"#utility.yul\":577:578   */\n  0x00\n    /* \"#utility.yul\":566:575   */\n  dup4\n    /* \"#utility.yul\":562:579   */\n  add\n    /* \"#utility.yul\":553:559   */\n  dup5\n    /* \"#utility.yul\":509:580   */\n  tag_17\n  jump\t// in\ntag_25:\n    /* \"#utility.yul\":365:587   */\n  swap3\n  swap2\n  pop\n  pop\n  jump\t// out\n    /* \"contracts/Fvkry.sol\":305:5595  contract Fvkry is Ownable, ReentrancyGuard {... */\ntag_13:\n  dataSize(sub_0)\n  dup1\n  dataOffset(sub_0)\n  0x00\n  codecopy\n  0x00\n  return\nstop\n\nsub_0: assembly {\n        /* \"contracts/Fvkry.sol\":305:5595  contract Fvkry is Ownable, ReentrancyGuard {... */\n      mstore(0x40, 0x80)\n      jumpi(tag_1, lt(calldatasize, 0x04))\n      shr(0xe0, calldataload(0x00))\n      dup1\n      0x8c89a0ad\n      gt\n      tag_14\n      jumpi\n      dup1\n      0x8c89a0ad\n      eq\n      tag_8\n      jumpi\n      dup1\n      0x8da5cb5b\n      eq\n      tag_9\n      jumpi\n      dup1\n      0x8e06b906\n      eq\n      tag_10\n      jumpi\n      dup1\n      0x9e6c3ff2\n      eq\n      tag_11\n      jumpi\n      dup1\n      0xecaa9d05\n      eq\n      tag_12\n      jumpi\n      dup1\n      0xf2fde38b\n      eq\n      tag_13\n      jumpi\n      jump(tag_1)\n    tag_14:\n      dup1\n      0x14205e28\n      eq\n      tag_2\n      jumpi\n      dup1\n      0x2d8fefc2\n      eq\n      tag_3\n      jumpi\n      dup1\n      0x3b958c38\n      eq\n      tag_4\n      jumpi\n      dup1\n      0x4ae39e3e\n      eq\n      tag_5\n      jumpi\n      dup1\n      0x5c41ed7c\n      eq\n      tag_6\n      jumpi\n      dup1\n      0x715018a6\n      eq\n      tag_7\n      jumpi\n    tag_1:\n      0x00\n      dup1\n      revert\n        /* \"contracts/Fvkry.sol\":5163:5298  function getContractTokenBalance(IERC20 token) external view returns (uint256) {... */\n    tag_2:\n      callvalue\n      dup1\n      iszero\n      tag_15\n      jumpi\n      0x00\n      dup1\n      revert\n    tag_15:\n      pop\n      tag_16\n      0x04\n      dup1\n      calldatasize\n      sub\n      dup2\n      add\n      swap1\n      tag_17\n      swap2\n      swap1\n      tag_18\n      jump\t// in\n    tag_17:\n      tag_19\n      jump\t// in\n    tag_16:\n      mload(0x40)\n      tag_20\n      swap2\n      swap1\n      tag_21\n      jump\t// in\n    tag_20:\n      mload(0x40)\n      dup1\n      swap2\n      sub\n      swap1\n      return\n        /* \"contracts/Fvkry.sol\":3237:3818  function addToLockedTokens(IERC20 _token, uint32 _assetID, uint256 _amount, uint8 _vault) external  nonReentrant {... */\n    tag_3:\n      callvalue\n      dup1\n      iszero\n      tag_22\n      jumpi\n      0x00\n      dup1\n      revert\n    tag_22:\n      pop\n      tag_23\n      0x04\n      dup1\n      calldatasize\n      sub\n      dup2\n      add\n      swap1\n      tag_24\n      swap2\n      swap1\n      tag_25\n      jump\t// in\n    tag_24:\n      tag_26\n      jump\t// in\n    tag_23:\n      stop\n        /* \"contracts/Fvkry.sol\":5456:5590  function getUserLocks(uint8 _vault) public view returns (Lock[] memory) {... */\n    tag_4:\n      callvalue\n      dup1\n      iszero\n      tag_27\n      jumpi\n      0x00\n      dup1\n      revert\n    tag_27:\n      pop\n      tag_28\n      0x04\n      dup1\n      calldatasize\n      sub\n      dup2\n      add\n      swap1\n      tag_29\n      swap2\n      swap1\n      tag_30\n      jump\t// in\n    tag_29:\n      tag_31\n      jump\t// in\n    tag_28:\n      mload(0x40)\n      tag_32\n      swap2\n      swap1\n      tag_33\n      jump\t// in\n    tag_32:\n      mload(0x40)\n      dup1\n      swap2\n      sub\n      swap1\n      return\n        /* \"contracts/Fvkry.sol\":1037:1737  function lockETH(uint8 _vault, uint256 _lockperiod) external payable nonReentrant {... */\n    tag_5:\n      tag_34\n      0x04\n      dup1\n      calldatasize\n      sub\n      dup2\n      add\n      swap1\n      tag_35\n      swap2\n      swap1\n      tag_36\n      jump\t// in\n    tag_35:\n      tag_37\n      jump\t// in\n    tag_34:\n      stop\n        /* \"contracts/Fvkry.sol\":2160:3229  function lockToken (IERC20 _token, uint256 _amount, uint8 _vault, uint256 _lockperiod) external nonReentrant {... */\n    tag_6:\n      callvalue\n      dup1\n      iszero\n      tag_38\n      jumpi\n      0x00\n      dup1\n      revert\n    tag_38:\n      pop\n      tag_39\n      0x04\n      dup1\n      calldatasize\n      sub\n      dup2\n      add\n      swap1\n      tag_40\n      swap2\n      swap1\n      tag_41\n      jump\t// in\n    tag_40:\n      tag_42\n      jump\t// in\n    tag_39:\n      stop\n        /* \"@openzeppelin/contracts/access/Ownable.sol\":2293:2394  function renounceOwnership() public virtual onlyOwner {... */\n    tag_7:\n      callvalue\n      dup1\n      iszero\n      tag_43\n      jumpi\n      0x00\n      dup1\n      revert\n    tag_43:\n      pop\n      tag_44\n      tag_45\n      jump\t// in\n    tag_44:\n      stop\n        /* \"contracts/Fvkry.sol\":5306:5418  function getContractETHBalance() external view returns (uint256) {... */\n    tag_8:\n      callvalue\n      dup1\n      iszero\n      tag_46\n      jumpi\n      0x00\n      dup1\n      revert\n    tag_46:\n      pop\n      tag_47\n      tag_48\n      jump\t// in\n    tag_47:\n      mload(0x40)\n      tag_49\n      swap2\n      swap1\n      tag_21\n      jump\t// in\n    tag_49:\n      mload(0x40)\n      dup1\n      swap2\n      sub\n      swap1\n      return\n        /* \"@openzeppelin/contracts/access/Ownable.sol\":1638:1723  function owner() public view virtual returns (address) {... */\n    tag_9:\n      callvalue\n      dup1\n      iszero\n      tag_50\n      jumpi\n      0x00\n      dup1\n      revert\n    tag_50:\n      pop\n      tag_51\n      tag_52\n      jump\t// in\n    tag_51:\n      mload(0x40)\n      tag_53\n      swap2\n      swap1\n      tag_54\n      jump\t// in\n    tag_53:\n      mload(0x40)\n      dup1\n      swap2\n      sub\n      swap1\n      return\n        /* \"contracts/Fvkry.sol\":572:643  mapping  (address => mapping (uint8 => Lock[])) public userLockedAssets */\n    tag_10:\n      callvalue\n      dup1\n      iszero\n      tag_55\n      jumpi\n      0x00\n      dup1\n      revert\n    tag_55:\n      pop\n      tag_56\n      0x04\n      dup1\n      calldatasize\n      sub\n      dup2\n      add\n      swap1\n      tag_57\n      swap2\n      swap1\n      tag_58\n      jump\t// in\n    tag_57:\n      tag_59\n      jump\t// in\n    tag_56:\n      mload(0x40)\n      tag_60\n      swap7\n      swap6\n      swap5\n      swap4\n      swap3\n      swap2\n      swap1\n      tag_61\n      jump\t// in\n    tag_60:\n      mload(0x40)\n      dup1\n      swap2\n      sub\n      swap1\n      return\n        /* \"contracts/Fvkry.sol\":3849:5129  function transferAsset( uint32 _assetId,uint8 _vault, uint256 _amount) external  nonReentrant {... */\n    tag_11:\n      callvalue\n      dup1\n      iszero\n      tag_62\n      jumpi\n      0x00\n      dup1\n      revert\n    tag_62:\n      pop\n      tag_63\n      0x04\n      dup1\n      calldatasize\n      sub\n      dup2\n      add\n      swap1\n      tag_64\n      swap2\n      swap1\n      tag_65\n      jump\t// in\n    tag_64:\n      tag_66\n      jump\t// in\n    tag_63:\n      stop\n        /* \"contracts/Fvkry.sol\":1745:2127  function addToLockedETH(uint8 _vault, uint32 _assetID) external payable  nonReentrant {... */\n    tag_12:\n      tag_67\n      0x04\n      dup1\n      calldatasize\n      sub\n      dup2\n      add\n      swap1\n      tag_68\n      swap2\n      swap1\n      tag_69\n      jump\t// in\n    tag_68:\n      tag_70\n      jump\t// in\n    tag_67:\n      stop\n        /* \"@openzeppelin/contracts/access/Ownable.sol\":2543:2758  function transferOwnership(address newOwner) public virtual onlyOwner {... */\n    tag_13:\n      callvalue\n      dup1\n      iszero\n      tag_71\n      jumpi\n      0x00\n      dup1\n      revert\n    tag_71:\n      pop\n      tag_72\n      0x04\n      dup1\n      calldatasize\n      sub\n      dup2\n      add\n      swap1\n      tag_73\n      swap2\n      swap1\n      tag_74\n      jump\t// in\n    tag_73:\n      tag_75\n      jump\t// in\n    tag_72:\n      stop\n        /* \"contracts/Fvkry.sol\":5163:5298  function getContractTokenBalance(IERC20 token) external view returns (uint256) {... */\n    tag_19:\n        /* \"contracts/Fvkry.sol\":5233:5240  uint256 */\n      0x00\n        /* \"contracts/Fvkry.sol\":5260:5265  token */\n      dup2\n        /* \"contracts/Fvkry.sol\":5260:5275  token.balanceOf */\n      0xffffffffffffffffffffffffffffffffffffffff\n      and\n      0x70a08231\n        /* \"contracts/Fvkry.sol\":5284:5288  this */\n      address\n        /* \"contracts/Fvkry.sol\":5260:5290  token.balanceOf(address(this)) */\n      mload(0x40)\n      dup3\n      0xffffffff\n      and\n      0xe0\n      shl\n      dup2\n      mstore\n      0x04\n      add\n      tag_77\n      swap2\n      swap1\n      tag_54\n      jump\t// in\n    tag_77:\n      0x20\n      mload(0x40)\n      dup1\n      dup4\n      sub\n      dup2\n      dup7\n      gas\n      staticcall\n      iszero\n      dup1\n      iszero\n      tag_79\n      jumpi\n      returndatasize\n      0x00\n      dup1\n      returndatacopy\n      revert(0x00, returndatasize)\n    tag_79:\n      pop\n      pop\n      pop\n      pop\n      mload(0x40)\n      returndatasize\n      not(0x1f)\n      0x1f\n      dup3\n      add\n      and\n      dup3\n      add\n      dup1\n      0x40\n      mstore\n      pop\n      dup2\n      add\n      swap1\n      tag_80\n      swap2\n      swap1\n      tag_81\n      jump\t// in\n    tag_80:\n        /* \"contracts/Fvkry.sol\":5253:5290  return token.balanceOf(address(this)) */\n      swap1\n      pop\n        /* \"contracts/Fvkry.sol\":5163:5298  function getContractTokenBalance(IERC20 token) external view returns (uint256) {... */\n      swap2\n      swap1\n      pop\n      jump\t// out\n        /* \"contracts/Fvkry.sol\":3237:3818  function addToLockedTokens(IERC20 _token, uint32 _assetID, uint256 _amount, uint8 _vault) external  nonReentrant {... */\n    tag_26:\n        /* \"@openzeppelin/contracts/utils/ReentrancyGuard.sol\":2500:2521  _nonReentrantBefore() */\n      tag_83\n        /* \"@openzeppelin/contracts/utils/ReentrancyGuard.sol\":2500:2519  _nonReentrantBefore */\n      tag_84\n        /* \"@openzeppelin/contracts/utils/ReentrancyGuard.sol\":2500:2521  _nonReentrantBefore() */\n      jump\t// in\n    tag_83:\n        /* \"contracts/Fvkry.sol\":3396:3397  0 */\n      0x00\n        /* \"contracts/Fvkry.sol\":3369:3398  address(_token) != address(0) */\n      0xffffffffffffffffffffffffffffffffffffffff\n      and\n        /* \"contracts/Fvkry.sol\":3377:3383  _token */\n      dup5\n        /* \"contracts/Fvkry.sol\":3369:3398  address(_token) != address(0) */\n      0xffffffffffffffffffffffffffffffffffffffff\n      and\n      sub\n        /* \"contracts/Fvkry.sol\":3361:3437  require(address(_token) != address(0), \"Must provide a valid token address\") */\n      tag_86\n      jumpi\n      mload(0x40)\n      0x08c379a000000000000000000000000000000000000000000000000000000000\n      dup2\n      mstore\n      0x04\n      add\n      tag_87\n      swap1\n      tag_88\n      jump\t// in\n    tag_87:\n      mload(0x40)\n      dup1\n      swap2\n      sub\n      swap1\n      revert\n    tag_86:\n        /* \"contracts/Fvkry.sol\":3466:3467  0 */\n      0x00\n        /* \"contracts/Fvkry.sol\":3456:3463  _amount */\n      dup3\n        /* \"contracts/Fvkry.sol\":3456:3467  _amount > 0 */\n      gt\n        /* \"contracts/Fvkry.sol\":3448:3510  require(_amount > 0, \"Token amount must be greater then zero\") */\n      tag_89\n      jumpi\n      mload(0x40)\n      0x08c379a000000000000000000000000000000000000000000000000000000000\n      dup2\n      mstore\n      0x04\n      add\n      tag_90\n      swap1\n      tag_91\n      jump\t// in\n    tag_90:\n      mload(0x40)\n      dup1\n      swap2\n      sub\n      swap1\n      revert\n    tag_89:\n        /* \"contracts/Fvkry.sol\":3547:3606  _token.safeTransferFrom(msg.sender, address(this), _amount) */\n      tag_92\n        /* \"contracts/Fvkry.sol\":3571:3581  msg.sender */\n      caller\n        /* \"contracts/Fvkry.sol\":3591:3595  this */\n      address\n        /* \"contracts/Fvkry.sol\":3598:3605  _amount */\n      dup5\n        /* \"contracts/Fvkry.sol\":3547:3553  _token */\n      dup8\n        /* \"contracts/Fvkry.sol\":3547:3570  _token.safeTransferFrom */\n      0xffffffffffffffffffffffffffffffffffffffff\n      and\n      tag_93\n      swap1\n        /* \"contracts/Fvkry.sol\":3547:3606  _token.safeTransferFrom(msg.sender, address(this), _amount) */\n      swap4\n      swap3\n      swap2\n      swap1\n      0xffffffff\n      and\n      jump\t// in\n    tag_92:\n        /* \"contracts/Fvkry.sol\":3716:3723  _amount */\n      dup2\n        /* \"contracts/Fvkry.sol\":3659:3675  userLockedAssets */\n      0x02\n        /* \"contracts/Fvkry.sol\":3659:3687  userLockedAssets[msg.sender] */\n      0x00\n        /* \"contracts/Fvkry.sol\":3676:3686  msg.sender */\n      caller\n        /* \"contracts/Fvkry.sol\":3659:3687  userLockedAssets[msg.sender] */\n      0xffffffffffffffffffffffffffffffffffffffff\n      and\n      0xffffffffffffffffffffffffffffffffffffffff\n      and\n      dup2\n      mstore\n      0x20\n      add\n      swap1\n      dup2\n      mstore\n      0x20\n      add\n      0x00\n      keccak256\n        /* \"contracts/Fvkry.sol\":3659:3695  userLockedAssets[msg.sender][_vault] */\n      0x00\n        /* \"contracts/Fvkry.sol\":3688:3694  _vault */\n      dup4\n        /* \"contracts/Fvkry.sol\":3659:3695  userLockedAssets[msg.sender][_vault] */\n      0xff\n      and\n      0xff\n      and\n      dup2\n      mstore\n      0x20\n      add\n      swap1\n      dup2\n      mstore\n      0x20\n      add\n      0x00\n      keccak256\n        /* \"contracts/Fvkry.sol\":3696:3704  _assetID */\n      dup5\n        /* \"contracts/Fvkry.sol\":3659:3705  userLockedAssets[msg.sender][_vault][_assetID] */\n      0xffffffff\n      and\n      dup2\n      sload\n      dup2\n      lt\n      tag_94\n      jumpi\n      tag_95\n      tag_96\n      jump\t// in\n    tag_95:\n    tag_94:\n      swap1\n      0x00\n      mstore\n      keccak256(0x00, 0x20)\n      swap1\n      0x04\n      mul\n      add\n        /* \"contracts/Fvkry.sol\":3659:3712  userLockedAssets[msg.sender][_vault][_assetID].amount */\n      0x01\n      add\n      0x00\n        /* \"contracts/Fvkry.sol\":3659:3723  userLockedAssets[msg.sender][_vault][_assetID].amount += _amount */\n      dup3\n      dup3\n      sload\n      tag_98\n      swap2\n      swap1\n      tag_99\n      jump\t// in\n    tag_98:\n      swap3\n      pop\n      pop\n      dup2\n      swap1\n      sstore\n      pop\n        /* \"contracts/Fvkry.sol\":3768:3774  _token */\n      dup4\n        /* \"contracts/Fvkry.sol\":3749:3810  AssetAdded(address(_token), _amount, _vault, block.timestamp) */\n      0xffffffffffffffffffffffffffffffffffffffff\n      and\n      0xc66e6f7d74d0c9e1b876d9a16e6a5e1cc740b73075424f001b9cf91ad042c317\n        /* \"contracts/Fvkry.sol\":3777:3784  _amount */\n      dup4\n        /* \"contracts/Fvkry.sol\":3786:3792  _vault */\n      dup4\n        /* \"contracts/Fvkry.sol\":3794:3809  block.timestamp */\n      timestamp\n        /* \"contracts/Fvkry.sol\":3749:3810  AssetAdded(address(_token), _amount, _vault, block.timestamp) */\n      mload(0x40)\n      tag_100\n      swap4\n      swap3\n      swap2\n      swap1\n      tag_101\n      jump\t// in\n    tag_100:\n      mload(0x40)\n      dup1\n      swap2\n      sub\n      swap1\n      log2\n        /* \"@openzeppelin/contracts/utils/ReentrancyGuard.sol\":2542:2562  _nonReentrantAfter() */\n      tag_102\n        /* \"@openzeppelin/contracts/utils/ReentrancyGuard.sol\":2542:2560  _nonReentrantAfter */\n      tag_103\n        /* \"@openzeppelin/contracts/utils/ReentrancyGuard.sol\":2542:2562  _nonReentrantAfter() */\n      jump\t// in\n    tag_102:\n        /* \"contracts/Fvkry.sol\":3237:3818  function addToLockedTokens(IERC20 _token, uint32 _assetID, uint256 _amount, uint8 _vault) external  nonReentrant {... */\n      pop\n      pop\n      pop\n      pop\n      jump\t// out\n        /* \"contracts/Fvkry.sol\":5456:5590  function getUserLocks(uint8 _vault) public view returns (Lock[] memory) {... */\n    tag_31:\n        /* \"contracts/Fvkry.sol\":5513:5526  Lock[] memory */\n      0x60\n        /* \"contracts/Fvkry.sol\":5546:5562  userLockedAssets */\n      0x02\n        /* \"contracts/Fvkry.sol\":5546:5574  userLockedAssets[msg.sender] */\n      0x00\n        /* \"contracts/Fvkry.sol\":5563:5573  msg.sender */\n      caller\n        /* \"contracts/Fvkry.sol\":5546:5574  userLockedAssets[msg.sender] */\n      0xffffffffffffffffffffffffffffffffffffffff\n      and\n      0xffffffffffffffffffffffffffffffffffffffff\n      and\n      dup2\n      mstore\n      0x20\n      add\n      swap1\n      dup2\n      mstore\n      0x20\n      add\n      0x00\n      keccak256\n        /* \"contracts/Fvkry.sol\":5546:5582  userLockedAssets[msg.sender][_vault] */\n      0x00\n        /* \"contracts/Fvkry.sol\":5575:5581  _vault */\n      dup4\n        /* \"contracts/Fvkry.sol\":5546:5582  userLockedAssets[msg.sender][_vault] */\n      0xff\n      and\n      0xff\n      and\n      dup2\n      mstore\n      0x20\n      add\n      swap1\n      dup2\n      mstore\n      0x20\n      add\n      0x00\n      keccak256\n        /* \"contracts/Fvkry.sol\":5539:5582  return userLockedAssets[msg.sender][_vault] */\n      dup1\n      sload\n      dup1\n      0x20\n      mul\n      0x20\n      add\n      mload(0x40)\n      swap1\n      dup2\n      add\n      0x40\n      mstore\n      dup1\n      swap3\n      swap2\n      swap1\n      dup2\n      dup2\n      mstore\n      0x20\n      add\n      0x00\n      swap1\n    tag_105:\n      dup3\n      dup3\n      lt\n      iszero\n      tag_106\n      jumpi\n      dup4\n      dup3\n      swap1\n      0x00\n      mstore\n      keccak256(0x00, 0x20)\n      swap1\n      0x04\n      mul\n      add\n      mload(0x40)\n      dup1\n      0xc0\n      add\n      0x40\n      mstore\n      swap1\n      dup2\n      0x00\n      dup3\n      add\n      0x00\n      swap1\n      sload\n      swap1\n      0x0100\n      exp\n      swap1\n      div\n      0xffffffffffffffffffffffffffffffffffffffff\n      and\n      0xffffffffffffffffffffffffffffffffffffffff\n      and\n      0xffffffffffffffffffffffffffffffffffffffff\n      and\n      dup2\n      mstore\n      0x20\n      add\n      0x01\n      dup3\n      add\n      sload\n      dup2\n      mstore\n      0x20\n      add\n      0x02\n      dup3\n      add\n      sload\n      dup2\n      mstore\n      0x20\n      add\n      0x03\n      dup3\n      add\n      0x00\n      swap1\n      sload\n      swap1\n      0x0100\n      exp\n      swap1\n      div\n      0xff\n      and\n      0xff\n      and\n      0xff\n      and\n      dup2\n      mstore\n      0x20\n      add\n      0x03\n      dup3\n      add\n      0x01\n      swap1\n      sload\n      swap1\n      0x0100\n      exp\n      swap1\n      div\n      0xff\n      and\n      iszero\n      iszero\n      iszero\n      iszero\n      dup2\n      mstore\n      0x20\n      add\n      0x03\n      dup3\n      add\n      0x02\n      swap1\n      sload\n      swap1\n      0x0100\n      exp\n      swap1\n      div\n      0xff\n      and\n      iszero\n      iszero\n      iszero\n      iszero\n      dup2\n      mstore\n      pop\n      pop\n      dup2\n      mstore\n      0x20\n      add\n      swap1\n      0x01\n      add\n      swap1\n      jump(tag_105)\n    tag_106:\n      pop\n      pop\n      pop\n      pop\n      swap1\n      pop\n        /* \"contracts/Fvkry.sol\":5456:5590  function getUserLocks(uint8 _vault) public view returns (Lock[] memory) {... */\n      swap2\n      swap1\n      pop\n      jump\t// out\n        /* \"contracts/Fvkry.sol\":1037:1737  function lockETH(uint8 _vault, uint256 _lockperiod) external payable nonReentrant {... */\n    tag_37:\n        /* \"@openzeppelin/contracts/utils/ReentrancyGuard.sol\":2500:2521  _nonReentrantBefore() */\n      tag_109\n        /* \"@openzeppelin/contracts/utils/ReentrancyGuard.sol\":2500:2519  _nonReentrantBefore */\n      tag_84\n        /* \"@openzeppelin/contracts/utils/ReentrancyGuard.sol\":2500:2521  _nonReentrantBefore() */\n      jump\t// in\n    tag_109:\n        /* \"contracts/Fvkry.sol\":1150:1151  0 */\n      0x00\n        /* \"contracts/Fvkry.sol\":1138:1147  msg.value */\n      callvalue\n        /* \"contracts/Fvkry.sol\":1138:1151  msg.value > 0 */\n      gt\n        /* \"contracts/Fvkry.sol\":1130:1195  require(msg.value > 0, \"ETH to lock must a value greater than 0\") */\n      tag_111\n      jumpi\n      mload(0x40)\n      0x08c379a000000000000000000000000000000000000000000000000000000000\n      dup2\n      mstore\n      0x04\n      add\n      tag_112\n      swap1\n      tag_113\n      jump\t// in\n    tag_112:\n      mload(0x40)\n      dup1\n      swap2\n      sub\n      swap1\n      revert\n    tag_111:\n        /* \"contracts/Fvkry.sol\":1229:1230  0 */\n      0x00\n        /* \"contracts/Fvkry.sol\":1214:1225  _lockperiod */\n      dup2\n        /* \"contracts/Fvkry.sol\":1214:1230  _lockperiod >= 0 */\n      lt\n      iszero\n        /* \"contracts/Fvkry.sol\":1206:1275  require(_lockperiod >= 0, \"The lockperiod must be greater then zero\") */\n      tag_114\n      jumpi\n      mload(0x40)\n      0x08c379a000000000000000000000000000000000000000000000000000000000\n      dup2\n      mstore\n      0x04\n      add\n      tag_115\n      swap1\n      tag_116\n      jump\t// in\n    tag_115:\n      mload(0x40)\n      dup1\n      swap2\n      sub\n      swap1\n      revert\n    tag_114:\n        /* \"contracts/Fvkry.sol\":1326:1342  userLockedAssets */\n      0x02\n        /* \"contracts/Fvkry.sol\":1326:1354  userLockedAssets[msg.sender] */\n      0x00\n        /* \"contracts/Fvkry.sol\":1343:1353  msg.sender */\n      caller\n        /* \"contracts/Fvkry.sol\":1326:1354  userLockedAssets[msg.sender] */\n      0xffffffffffffffffffffffffffffffffffffffff\n      and\n      0xffffffffffffffffffffffffffffffffffffffff\n      and\n      dup2\n      mstore\n      0x20\n      add\n      swap1\n      dup2\n      mstore\n      0x20\n      add\n      0x00\n      keccak256\n        /* \"contracts/Fvkry.sol\":1326:1362  userLockedAssets[msg.sender][_vault] */\n      0x00\n        /* \"contracts/Fvkry.sol\":1355:1361  _vault */\n      dup4\n        /* \"contracts/Fvkry.sol\":1326:1362  userLockedAssets[msg.sender][_vault] */\n      0xff\n      and\n      0xff\n      and\n      dup2\n      mstore\n      0x20\n      add\n      swap1\n      dup2\n      mstore\n      0x20\n      add\n      0x00\n      keccak256\n        /* \"contracts/Fvkry.sol\":1368:1606  Lock({... */\n      mload(0x40)\n      dup1\n      0xc0\n      add\n      0x40\n      mstore\n      dup1\n        /* \"contracts/Fvkry.sol\":1403:1404  0 */\n      0x00\n        /* \"contracts/Fvkry.sol\":1368:1606  Lock({... */\n      0xffffffffffffffffffffffffffffffffffffffff\n      and\n      dup2\n      mstore\n      0x20\n      add\n        /* \"contracts/Fvkry.sol\":1429:1438  msg.value */\n      callvalue\n        /* \"contracts/Fvkry.sol\":1368:1606  Lock({... */\n      dup2\n      mstore\n      0x20\n      add\n        /* \"contracts/Fvkry.sol\":1486:1497  _lockperiod */\n      dup4\n        /* \"contracts/Fvkry.sol\":1468:1483  block.timestamp */\n      timestamp\n        /* \"contracts/Fvkry.sol\":1468:1497  block.timestamp + _lockperiod */\n      tag_117\n      swap2\n      swap1\n      tag_99\n      jump\t// in\n    tag_117:\n        /* \"contracts/Fvkry.sol\":1368:1606  Lock({... */\n      dup2\n      mstore\n      0x20\n      add\n        /* \"contracts/Fvkry.sol\":1519:1525  _vault */\n      dup5\n        /* \"contracts/Fvkry.sol\":1368:1606  Lock({... */\n      0xff\n      and\n      dup2\n      mstore\n      0x20\n      add\n        /* \"contracts/Fvkry.sol\":1555:1560  false */\n      0x00\n        /* \"contracts/Fvkry.sol\":1368:1606  Lock({... */\n      iszero\n      iszero\n      dup2\n      mstore\n      0x20\n      add\n        /* \"contracts/Fvkry.sol\":1588:1592  true */\n      0x01\n        /* \"contracts/Fvkry.sol\":1368:1606  Lock({... */\n      iszero\n      iszero\n      dup2\n      mstore\n      pop\n        /* \"contracts/Fvkry.sol\":1326:1607  userLockedAssets[msg.sender][_vault].push(Lock({... */\n      swap1\n      dup1\n      0x01\n      dup2\n      sload\n      add\n      dup1\n      dup3\n      sstore\n      dup1\n      swap2\n      pop\n      pop\n      0x01\n      swap1\n      sub\n      swap1\n      0x00\n      mstore\n      keccak256(0x00, 0x20)\n      swap1\n      0x04\n      mul\n      add\n      0x00\n      swap1\n      swap2\n      swap1\n      swap2\n      swap1\n      swap2\n      pop\n      0x00\n      dup3\n      add\n      mload\n      dup2\n      0x00\n      add\n      exp(0x0100, 0x00)\n      dup2\n      sload\n      dup2\n      0xffffffffffffffffffffffffffffffffffffffff\n      mul\n      not\n      and\n      swap1\n      dup4\n      0xffffffffffffffffffffffffffffffffffffffff\n      and\n      mul\n      or\n      swap1\n      sstore\n      pop\n      0x20\n      dup3\n      add\n      mload\n      dup2\n      0x01\n      add\n      sstore\n      0x40\n      dup3\n      add\n      mload\n      dup2\n      0x02\n      add\n      sstore\n      0x60\n      dup3\n      add\n      mload\n      dup2\n      0x03\n      add\n      exp(0x0100, 0x00)\n      dup2\n      sload\n      dup2\n      0xff\n      mul\n      not\n      and\n      swap1\n      dup4\n      0xff\n      and\n      mul\n      or\n      swap1\n      sstore\n      pop\n      0x80\n      dup3\n      add\n      mload\n      dup2\n      0x03\n      add\n      exp(0x0100, 0x01)\n      dup2\n      sload\n      dup2\n      0xff\n      mul\n      not\n      and\n      swap1\n      dup4\n      iszero\n      iszero\n      mul\n      or\n      swap1\n      sstore\n      pop\n      0xa0\n      dup3\n      add\n      mload\n      dup2\n      0x03\n      add\n      exp(0x0100, 0x02)\n      dup2\n      sload\n      dup2\n      0xff\n      mul\n      not\n      and\n      swap1\n      dup4\n      iszero\n      iszero\n      mul\n      or\n      swap1\n      sstore\n      pop\n      pop\n      pop\n        /* \"contracts/Fvkry.sol\":1659:1660  0 */\n      0x00\n        /* \"contracts/Fvkry.sol\":1639:1729  AssetLocked(address(0), msg.value, _vault, block.timestamp + _lockperiod, block.timestamp) */\n      0xffffffffffffffffffffffffffffffffffffffff\n      and\n      0xec1e996e081f0b176398a3a553ab4a87ae67bf6f0d2f7848ab1872a30c3b63e9\n        /* \"contracts/Fvkry.sol\":1663:1672  msg.value */\n      callvalue\n        /* \"contracts/Fvkry.sol\":1674:1680  _vault */\n      dup5\n        /* \"contracts/Fvkry.sol\":1700:1711  _lockperiod */\n      dup5\n        /* \"contracts/Fvkry.sol\":1682:1697  block.timestamp */\n      timestamp\n        /* \"contracts/Fvkry.sol\":1682:1711  block.timestamp + _lockperiod */\n      tag_119\n      swap2\n      swap1\n      tag_99\n      jump\t// in\n    tag_119:\n        /* \"contracts/Fvkry.sol\":1713:1728  block.timestamp */\n      timestamp\n        /* \"contracts/Fvkry.sol\":1639:1729  AssetLocked(address(0), msg.value, _vault, block.timestamp + _lockperiod, block.timestamp) */\n      mload(0x40)\n      tag_120\n      swap5\n      swap4\n      swap3\n      swap2\n      swap1\n      tag_121\n      jump\t// in\n    tag_120:\n      mload(0x40)\n      dup1\n      swap2\n      sub\n      swap1\n      log2\n        /* \"@openzeppelin/contracts/utils/ReentrancyGuard.sol\":2542:2562  _nonReentrantAfter() */\n      tag_122\n        /* \"@openzeppelin/contracts/utils/ReentrancyGuard.sol\":2542:2560  _nonReentrantAfter */\n      tag_103\n        /* \"@openzeppelin/contracts/utils/ReentrancyGuard.sol\":2542:2562  _nonReentrantAfter() */\n      jump\t// in\n    tag_122:\n        /* \"contracts/Fvkry.sol\":1037:1737  function lockETH(uint8 _vault, uint256 _lockperiod) external payable nonReentrant {... */\n      pop\n      pop\n      jump\t// out\n        /* \"contracts/Fvkry.sol\":2160:3229  function lockToken (IERC20 _token, uint256 _amount, uint8 _vault, uint256 _lockperiod) external nonReentrant {... */\n    tag_42:\n        /* \"@openzeppelin/contracts/utils/ReentrancyGuard.sol\":2500:2521  _nonReentrantBefore() */\n      tag_124\n        /* \"@openzeppelin/contracts/utils/ReentrancyGuard.sol\":2500:2519  _nonReentrantBefore */\n      tag_84\n        /* \"@openzeppelin/contracts/utils/ReentrancyGuard.sol\":2500:2521  _nonReentrantBefore() */\n      jump\t// in\n    tag_124:\n        /* \"contracts/Fvkry.sol\":2315:2316  0 */\n      0x00\n        /* \"contracts/Fvkry.sol\":2288:2317  address(_token) != address(0) */\n      0xffffffffffffffffffffffffffffffffffffffff\n      and\n        /* \"contracts/Fvkry.sol\":2296:2302  _token */\n      dup5\n        /* \"contracts/Fvkry.sol\":2288:2317  address(_token) != address(0) */\n      0xffffffffffffffffffffffffffffffffffffffff\n      and\n      sub\n        /* \"contracts/Fvkry.sol\":2280:2356  require(address(_token) != address(0), \"Must provide a valid token address\") */\n      tag_126\n      jumpi\n      mload(0x40)\n      0x08c379a000000000000000000000000000000000000000000000000000000000\n      dup2\n      mstore\n      0x04\n      add\n      tag_127\n      swap1\n      tag_88\n      jump\t// in\n    tag_127:\n      mload(0x40)\n      dup1\n      swap2\n      sub\n      swap1\n      revert\n    tag_126:\n        /* \"contracts/Fvkry.sol\":2385:2386  0 */\n      0x00\n        /* \"contracts/Fvkry.sol\":2375:2382  _amount */\n      dup4\n        /* \"contracts/Fvkry.sol\":2375:2386  _amount > 0 */\n      gt\n        /* \"contracts/Fvkry.sol\":2367:2429  require(_amount > 0, \"Token amount must be greater then zero\") */\n      tag_128\n      jumpi\n      mload(0x40)\n      0x08c379a000000000000000000000000000000000000000000000000000000000\n      dup2\n      mstore\n      0x04\n      add\n      tag_129\n      swap1\n      tag_91\n      jump\t// in\n    tag_129:\n      mload(0x40)\n      dup1\n      swap2\n      sub\n      swap1\n      revert\n    tag_128:\n        /* \"contracts/Fvkry.sol\":2462:2463  0 */\n      0x00\n        /* \"contracts/Fvkry.sol\":2448:2459  _lockperiod */\n      dup2\n        /* \"contracts/Fvkry.sol\":2448:2463  _lockperiod > 0 */\n      gt\n        /* \"contracts/Fvkry.sol\":2440:2509  require(_lockperiod > 0, \"The lock period must be greater then zero\") */\n      tag_130\n      jumpi\n      mload(0x40)\n      0x08c379a000000000000000000000000000000000000000000000000000000000\n      dup2\n      mstore\n      0x04\n      add\n      tag_131\n      swap1\n      tag_132\n      jump\t// in\n    tag_131:\n      mload(0x40)\n      dup1\n      swap2\n      sub\n      swap1\n      revert\n    tag_130:\n        /* \"contracts/Fvkry.sol\":2522:2543  uint256 _tokenBalance */\n      0x00\n        /* \"contracts/Fvkry.sol\":2546:2552  _token */\n      dup5\n        /* \"contracts/Fvkry.sol\":2546:2562  _token.balanceOf */\n      0xffffffffffffffffffffffffffffffffffffffff\n      and\n      0x70a08231\n        /* \"contracts/Fvkry.sol\":2563:2573  msg.sender */\n      caller\n        /* \"contracts/Fvkry.sol\":2546:2574  _token.balanceOf(msg.sender) */\n      mload(0x40)\n      dup3\n      0xffffffff\n      and\n      0xe0\n      shl\n      dup2\n      mstore\n      0x04\n      add\n      tag_133\n      swap2\n      swap1\n      tag_54\n      jump\t// in\n    tag_133:\n      0x20\n      mload(0x40)\n      dup1\n      dup4\n      sub\n      dup2\n      dup7\n      gas\n      staticcall\n      iszero\n      dup1\n      iszero\n      tag_135\n      jumpi\n      returndatasize\n      0x00\n      dup1\n      returndatacopy\n      revert(0x00, returndatasize)\n    tag_135:\n      pop\n      pop\n      pop\n      pop\n      mload(0x40)\n      returndatasize\n      not(0x1f)\n      0x1f\n      dup3\n      add\n      and\n      dup3\n      add\n      dup1\n      0x40\n      mstore\n      pop\n      dup2\n      add\n      swap1\n      tag_136\n      swap2\n      swap1\n      tag_81\n      jump\t// in\n    tag_136:\n        /* \"contracts/Fvkry.sol\":2522:2574  uint256 _tokenBalance = _token.balanceOf(msg.sender) */\n      swap1\n      pop\n        /* \"contracts/Fvkry.sol\":2605:2618  _tokenBalance */\n      dup1\n        /* \"contracts/Fvkry.sol\":2594:2601  _amount */\n      dup5\n        /* \"contracts/Fvkry.sol\":2594:2618  _amount <= _tokenBalance */\n      gt\n      iszero\n        /* \"contracts/Fvkry.sol\":2585:2648  require (_amount <= _tokenBalance, \"Not enough tokens to lock\") */\n      tag_137\n      jumpi\n      mload(0x40)\n      0x08c379a000000000000000000000000000000000000000000000000000000000\n      dup2\n      mstore\n      0x04\n      add\n      tag_138\n      swap1\n      tag_139\n      jump\t// in\n    tag_138:\n      mload(0x40)\n      dup1\n      swap2\n      sub\n      swap1\n      revert\n    tag_137:\n        /* \"contracts/Fvkry.sol\":2711:2770  _token.safeTransferFrom(msg.sender, address(this), _amount) */\n      tag_140\n        /* \"contracts/Fvkry.sol\":2735:2745  msg.sender */\n      caller\n        /* \"contracts/Fvkry.sol\":2755:2759  this */\n      address\n        /* \"contracts/Fvkry.sol\":2762:2769  _amount */\n      dup7\n        /* \"contracts/Fvkry.sol\":2711:2717  _token */\n      dup9\n        /* \"contracts/Fvkry.sol\":2711:2734  _token.safeTransferFrom */\n      0xffffffffffffffffffffffffffffffffffffffff\n      and\n      tag_93\n      swap1\n        /* \"contracts/Fvkry.sol\":2711:2770  _token.safeTransferFrom(msg.sender, address(this), _amount) */\n      swap4\n      swap3\n      swap2\n      swap1\n      0xffffffff\n      and\n      jump\t// in\n    tag_140:\n        /* \"contracts/Fvkry.sol\":2825:2841  userLockedAssets */\n      0x02\n        /* \"contracts/Fvkry.sol\":2825:2853  userLockedAssets[msg.sender] */\n      0x00\n        /* \"contracts/Fvkry.sol\":2842:2852  msg.sender */\n      caller\n        /* \"contracts/Fvkry.sol\":2825:2853  userLockedAssets[msg.sender] */\n      0xffffffffffffffffffffffffffffffffffffffff\n      and\n      0xffffffffffffffffffffffffffffffffffffffff\n      and\n      dup2\n      mstore\n      0x20\n      add\n      swap1\n      dup2\n      mstore\n      0x20\n      add\n      0x00\n      keccak256\n        /* \"contracts/Fvkry.sol\":2825:2861  userLockedAssets[msg.sender][_vault] */\n      0x00\n        /* \"contracts/Fvkry.sol\":2854:2860  _vault */\n      dup5\n        /* \"contracts/Fvkry.sol\":2825:2861  userLockedAssets[msg.sender][_vault] */\n      0xff\n      and\n      0xff\n      and\n      dup2\n      mstore\n      0x20\n      add\n      swap1\n      dup2\n      mstore\n      0x20\n      add\n      0x00\n      keccak256\n        /* \"contracts/Fvkry.sol\":2867:3109  Lock({... */\n      mload(0x40)\n      dup1\n      0xc0\n      add\n      0x40\n      mstore\n      dup1\n        /* \"contracts/Fvkry.sol\":2902:2908  _token */\n      dup8\n        /* \"contracts/Fvkry.sol\":2867:3109  Lock({... */\n      0xffffffffffffffffffffffffffffffffffffffff\n      and\n      dup2\n      mstore\n      0x20\n      add\n        /* \"contracts/Fvkry.sol\":2933:2940  _amount */\n      dup7\n        /* \"contracts/Fvkry.sol\":2867:3109  Lock({... */\n      dup2\n      mstore\n      0x20\n      add\n        /* \"contracts/Fvkry.sol\":2988:2999  _lockperiod */\n      dup5\n        /* \"contracts/Fvkry.sol\":2970:2985  block.timestamp */\n      timestamp\n        /* \"contracts/Fvkry.sol\":2970:2999  block.timestamp + _lockperiod */\n      tag_141\n      swap2\n      swap1\n      tag_99\n      jump\t// in\n    tag_141:\n        /* \"contracts/Fvkry.sol\":2867:3109  Lock({... */\n      dup2\n      mstore\n      0x20\n      add\n        /* \"contracts/Fvkry.sol\":3021:3027  _vault */\n      dup6\n        /* \"contracts/Fvkry.sol\":2867:3109  Lock({... */\n      0xff\n      and\n      dup2\n      mstore\n      0x20\n      add\n        /* \"contracts/Fvkry.sol\":3057:3062  false */\n      0x00\n        /* \"contracts/Fvkry.sol\":2867:3109  Lock({... */\n      iszero\n      iszero\n      dup2\n      mstore\n      0x20\n      add\n        /* \"contracts/Fvkry.sol\":3090:3095  false */\n      0x00\n        /* \"contracts/Fvkry.sol\":2867:3109  Lock({... */\n      iszero\n      iszero\n      dup2\n      mstore\n      pop\n        /* \"contracts/Fvkry.sol\":2825:3110  userLockedAssets[msg.sender][_vault].push(Lock({... */\n      swap1\n      dup1\n      0x01\n      dup2\n      sload\n      add\n      dup1\n      dup3\n      sstore\n      dup1\n      swap2\n      pop\n      pop\n      0x01\n      swap1\n      sub\n      swap1\n      0x00\n      mstore\n      keccak256(0x00, 0x20)\n      swap1\n      0x04\n      mul\n      add\n      0x00\n      swap1\n      swap2\n      swap1\n      swap2\n      swap1\n      swap2\n      pop\n      0x00\n      dup3\n      add\n      mload\n      dup2\n      0x00\n      add\n      exp(0x0100, 0x00)\n      dup2\n      sload\n      dup2\n      0xffffffffffffffffffffffffffffffffffffffff\n      mul\n      not\n      and\n      swap1\n      dup4\n      0xffffffffffffffffffffffffffffffffffffffff\n      and\n      mul\n      or\n      swap1\n      sstore\n      pop\n      0x20\n      dup3\n      add\n      mload\n      dup2\n      0x01\n      add\n      sstore\n      0x40\n      dup3\n      add\n      mload\n      dup2\n      0x02\n      add\n      sstore\n      0x60\n      dup3\n      add\n      mload\n      dup2\n      0x03\n      add\n      exp(0x0100, 0x00)\n      dup2\n      sload\n      dup2\n      0xff\n      mul\n      not\n      and\n      swap1\n      dup4\n      0xff\n      and\n      mul\n      or\n      swap1\n      sstore\n      pop\n      0x80\n      dup3\n      add\n      mload\n      dup2\n      0x03\n      add\n      exp(0x0100, 0x01)\n      dup2\n      sload\n      dup2\n      0xff\n      mul\n      not\n      and\n      swap1\n      dup4\n      iszero\n      iszero\n      mul\n      or\n      swap1\n      sstore\n      pop\n      0xa0\n      dup3\n      add\n      mload\n      dup2\n      0x03\n      add\n      exp(0x0100, 0x02)\n      dup2\n      sload\n      dup2\n      0xff\n      mul\n      not\n      and\n      swap1\n      dup4\n      iszero\n      iszero\n      mul\n      or\n      swap1\n      sstore\n      pop\n      pop\n      pop\n        /* \"contracts/Fvkry.sol\":3148:3154  _token */\n      dup5\n        /* \"contracts/Fvkry.sol\":3128:3221  AssetLocked(address(_token), _amount, _vault, block.timestamp + _lockperiod, block.timestamp) */\n      0xffffffffffffffffffffffffffffffffffffffff\n      and\n      0xec1e996e081f0b176398a3a553ab4a87ae67bf6f0d2f7848ab1872a30c3b63e9\n        /* \"contracts/Fvkry.sol\":3157:3164  _amount */\n      dup6\n        /* \"contracts/Fvkry.sol\":3166:3172  _vault */\n      dup6\n        /* \"contracts/Fvkry.sol\":3192:3203  _lockperiod */\n      dup6\n        /* \"contracts/Fvkry.sol\":3174:3189  block.timestamp */\n      timestamp\n        /* \"contracts/Fvkry.sol\":3174:3203  block.timestamp + _lockperiod */\n      tag_143\n      swap2\n      swap1\n      tag_99\n      jump\t// in\n    tag_143:\n        /* \"contracts/Fvkry.sol\":3205:3220  block.timestamp */\n      timestamp\n        /* \"contracts/Fvkry.sol\":3128:3221  AssetLocked(address(_token), _amount, _vault, block.timestamp + _lockperiod, block.timestamp) */\n      mload(0x40)\n      tag_144\n      swap5\n      swap4\n      swap3\n      swap2\n      swap1\n      tag_121\n      jump\t// in\n    tag_144:\n      mload(0x40)\n      dup1\n      swap2\n      sub\n      swap1\n      log2\n        /* \"contracts/Fvkry.sol\":2269:3229  {... */\n      pop\n        /* \"@openzeppelin/contracts/utils/ReentrancyGuard.sol\":2542:2562  _nonReentrantAfter() */\n      tag_145\n        /* \"@openzeppelin/contracts/utils/ReentrancyGuard.sol\":2542:2560  _nonReentrantAfter */\n      tag_103\n        /* \"@openzeppelin/contracts/utils/ReentrancyGuard.sol\":2542:2562  _nonReentrantAfter() */\n      jump\t// in\n    tag_145:\n        /* \"contracts/Fvkry.sol\":2160:3229  function lockToken (IERC20 _token, uint256 _amount, uint8 _vault, uint256 _lockperiod) external nonReentrant {... */\n      pop\n      pop\n      pop\n      pop\n      jump\t// out\n        /* \"@openzeppelin/contracts/access/Ownable.sol\":2293:2394  function renounceOwnership() public virtual onlyOwner {... */\n    tag_45:\n        /* \"@openzeppelin/contracts/access/Ownable.sol\":1531:1544  _checkOwner() */\n      tag_147\n        /* \"@openzeppelin/contracts/access/Ownable.sol\":1531:1542  _checkOwner */\n      tag_148\n        /* \"@openzeppelin/contracts/access/Ownable.sol\":1531:1544  _checkOwner() */\n      jump\t// in\n    tag_147:\n        /* \"@openzeppelin/contracts/access/Ownable.sol\":2357:2387  _transferOwnership(address(0)) */\n      tag_150\n        /* \"@openzeppelin/contracts/access/Ownable.sol\":2384:2385  0 */\n      0x00\n        /* \"@openzeppelin/contracts/access/Ownable.sol\":2357:2375  _transferOwnership */\n      tag_151\n        /* \"@openzeppelin/contracts/access/Ownable.sol\":2357:2387  _transferOwnership(address(0)) */\n      jump\t// in\n    tag_150:\n        /* \"@openzeppelin/contracts/access/Ownable.sol\":2293:2394  function renounceOwnership() public virtual onlyOwner {... */\n      jump\t// out\n        /* \"contracts/Fvkry.sol\":5306:5418  function getContractETHBalance() external view returns (uint256) {... */\n    tag_48:\n        /* \"contracts/Fvkry.sol\":5362:5369  uint256 */\n      0x00\n        /* \"contracts/Fvkry.sol\":5389:5410  address(this).balance */\n      selfbalance\n        /* \"contracts/Fvkry.sol\":5382:5410  return address(this).balance */\n      swap1\n      pop\n        /* \"contracts/Fvkry.sol\":5306:5418  function getContractETHBalance() external view returns (uint256) {... */\n      swap1\n      jump\t// out\n        /* \"@openzeppelin/contracts/access/Ownable.sol\":1638:1723  function owner() public view virtual returns (address) {... */\n    tag_52:\n        /* \"@openzeppelin/contracts/access/Ownable.sol\":1684:1691  address */\n      0x00\n        /* \"@openzeppelin/contracts/access/Ownable.sol\":1710:1716  _owner */\n      dup1\n      0x00\n      swap1\n      sload\n      swap1\n      0x0100\n      exp\n      swap1\n      div\n      0xffffffffffffffffffffffffffffffffffffffff\n      and\n        /* \"@openzeppelin/contracts/access/Ownable.sol\":1703:1716  return _owner */\n      swap1\n      pop\n        /* \"@openzeppelin/contracts/access/Ownable.sol\":1638:1723  function owner() public view virtual returns (address) {... */\n      swap1\n      jump\t// out\n        /* \"contracts/Fvkry.sol\":572:643  mapping  (address => mapping (uint8 => Lock[])) public userLockedAssets */\n    tag_59:\n      mstore(0x20, 0x02)\n      dup3\n      0x00\n      mstore\n      mstore(0x20, keccak256(0x00, 0x40))\n      dup2\n      0x00\n      mstore\n      keccak256(0x00, 0x40)\n      dup2\n      dup2\n      sload\n      dup2\n      lt\n      tag_154\n      jumpi\n      0x00\n      dup1\n      revert\n    tag_154:\n      swap1\n      0x00\n      mstore\n      keccak256(0x00, 0x20)\n      swap1\n      0x04\n      mul\n      add\n      0x00\n      swap3\n      pop\n      swap3\n      pop\n      pop\n      pop\n      dup1\n      0x00\n      add\n      0x00\n      swap1\n      sload\n      swap1\n      0x0100\n      exp\n      swap1\n      div\n      0xffffffffffffffffffffffffffffffffffffffff\n      and\n      swap1\n      dup1\n      0x01\n      add\n      sload\n      swap1\n      dup1\n      0x02\n      add\n      sload\n      swap1\n      dup1\n      0x03\n      add\n      0x00\n      swap1\n      sload\n      swap1\n      0x0100\n      exp\n      swap1\n      div\n      0xff\n      and\n      swap1\n      dup1\n      0x03\n      add\n      0x01\n      swap1\n      sload\n      swap1\n      0x0100\n      exp\n      swap1\n      div\n      0xff\n      and\n      swap1\n      dup1\n      0x03\n      add\n      0x02\n      swap1\n      sload\n      swap1\n      0x0100\n      exp\n      swap1\n      div\n      0xff\n      and\n      swap1\n      pop\n      dup7\n      jump\t// out\n        /* \"contracts/Fvkry.sol\":3849:5129  function transferAsset( uint32 _assetId,uint8 _vault, uint256 _amount) external  nonReentrant {... */\n    tag_66:\n        /* \"@openzeppelin/contracts/utils/ReentrancyGuard.sol\":2500:2521  _nonReentrantBefore() */\n      tag_157\n        /* \"@openzeppelin/contracts/utils/ReentrancyGuard.sol\":2500:2519  _nonReentrantBefore */\n      tag_84\n        /* \"@openzeppelin/contracts/utils/ReentrancyGuard.sol\":2500:2521  _nonReentrantBefore() */\n      jump\t// in\n    tag_157:\n        /* \"contracts/Fvkry.sol\":3973:3989  userLockedAssets */\n      0x02\n        /* \"contracts/Fvkry.sol\":3973:4001  userLockedAssets[msg.sender] */\n      0x00\n        /* \"contracts/Fvkry.sol\":3990:4000  msg.sender */\n      caller\n        /* \"contracts/Fvkry.sol\":3973:4001  userLockedAssets[msg.sender] */\n      0xffffffffffffffffffffffffffffffffffffffff\n      and\n      0xffffffffffffffffffffffffffffffffffffffff\n      and\n      dup2\n      mstore\n      0x20\n      add\n      swap1\n      dup2\n      mstore\n      0x20\n      add\n      0x00\n      keccak256\n        /* \"contracts/Fvkry.sol\":3973:4009  userLockedAssets[msg.sender][_vault] */\n      0x00\n        /* \"contracts/Fvkry.sol\":4002:4008  _vault */\n      dup4\n        /* \"contracts/Fvkry.sol\":3973:4009  userLockedAssets[msg.sender][_vault] */\n      0xff\n      and\n      0xff\n      and\n      dup2\n      mstore\n      0x20\n      add\n      swap1\n      dup2\n      mstore\n      0x20\n      add\n      0x00\n      keccak256\n        /* \"contracts/Fvkry.sol\":3973:4016  userLockedAssets[msg.sender][_vault].length */\n      dup1\n      sload\n      swap1\n      pop\n        /* \"contracts/Fvkry.sol\":3962:3970  _assetId */\n      dup4\n        /* \"contracts/Fvkry.sol\":3962:4016  _assetId < userLockedAssets[msg.sender][_vault].length */\n      0xffffffff\n      and\n      lt\n        /* \"contracts/Fvkry.sol\":3954:4055  require(_assetId < userLockedAssets[msg.sender][_vault].length, \"The specified asset ID is invalid.\") */\n      tag_159\n      jumpi\n      mload(0x40)\n      0x08c379a000000000000000000000000000000000000000000000000000000000\n      dup2\n      mstore\n      0x04\n      add\n      tag_160\n      swap1\n      tag_161\n      jump\t// in\n    tag_160:\n      mload(0x40)\n      dup1\n      swap2\n      sub\n      swap1\n      revert\n    tag_159:\n        /* \"contracts/Fvkry.sol\":4076:4093  Lock storage lock */\n      0x00\n        /* \"contracts/Fvkry.sol\":4096:4112  userLockedAssets */\n      0x02\n        /* \"contracts/Fvkry.sol\":4096:4124  userLockedAssets[msg.sender] */\n      0x00\n        /* \"contracts/Fvkry.sol\":4113:4123  msg.sender */\n      caller\n        /* \"contracts/Fvkry.sol\":4096:4124  userLockedAssets[msg.sender] */\n      0xffffffffffffffffffffffffffffffffffffffff\n      and\n      0xffffffffffffffffffffffffffffffffffffffff\n      and\n      dup2\n      mstore\n      0x20\n      add\n      swap1\n      dup2\n      mstore\n      0x20\n      add\n      0x00\n      keccak256\n        /* \"contracts/Fvkry.sol\":4096:4132  userLockedAssets[msg.sender][_vault] */\n      0x00\n        /* \"contracts/Fvkry.sol\":4125:4131  _vault */\n      dup5\n        /* \"contracts/Fvkry.sol\":4096:4132  userLockedAssets[msg.sender][_vault] */\n      0xff\n      and\n      0xff\n      and\n      dup2\n      mstore\n      0x20\n      add\n      swap1\n      dup2\n      mstore\n      0x20\n      add\n      0x00\n      keccak256\n        /* \"contracts/Fvkry.sol\":4133:4141  _assetId */\n      dup5\n        /* \"contracts/Fvkry.sol\":4096:4142  userLockedAssets[msg.sender][_vault][_assetId] */\n      0xffffffff\n      and\n      dup2\n      sload\n      dup2\n      lt\n      tag_162\n      jumpi\n      tag_163\n      tag_96\n      jump\t// in\n    tag_163:\n    tag_162:\n      swap1\n      0x00\n      mstore\n      keccak256(0x00, 0x20)\n      swap1\n      0x04\n      mul\n      add\n        /* \"contracts/Fvkry.sol\":4076:4142  Lock storage lock = userLockedAssets[msg.sender][_vault][_assetId] */\n      swap1\n      pop\n        /* \"contracts/Fvkry.sol\":4164:4168  lock */\n      dup1\n        /* \"contracts/Fvkry.sol\":4164:4178  lock.withdrawn */\n      0x03\n      add\n      0x01\n      swap1\n      sload\n      swap1\n      0x0100\n      exp\n      swap1\n      div\n      0xff\n      and\n        /* \"contracts/Fvkry.sol\":4163:4178  !lock.withdrawn */\n      iszero\n        /* \"contracts/Fvkry.sol\":4155:4217  require(!lock.withdrawn,\"Assets have already been withdrawn!\") */\n      tag_165\n      jumpi\n      mload(0x40)\n      0x08c379a000000000000000000000000000000000000000000000000000000000\n      dup2\n      mstore\n      0x04\n      add\n      tag_166\n      swap1\n      tag_167\n      jump\t// in\n    tag_166:\n      mload(0x40)\n      dup1\n      swap2\n      sub\n      swap1\n      revert\n    tag_165:\n        /* \"contracts/Fvkry.sol\":4254:4258  lock */\n      dup1\n        /* \"contracts/Fvkry.sol\":4254:4270  lock.lockEndTime */\n      0x02\n      add\n      sload\n        /* \"contracts/Fvkry.sol\":4236:4251  block.timestamp */\n      timestamp\n        /* \"contracts/Fvkry.sol\":4236:4270  block.timestamp > lock.lockEndTime */\n      gt\n        /* \"contracts/Fvkry.sol\":4228:4311  require(block.timestamp > lock.lockEndTime, \"The lock period has not yet expired!\") */\n      tag_168\n      jumpi\n      mload(0x40)\n      0x08c379a000000000000000000000000000000000000000000000000000000000\n      dup2\n      mstore\n      0x04\n      add\n      tag_169\n      swap1\n      tag_170\n      jump\t// in\n    tag_169:\n      mload(0x40)\n      dup1\n      swap2\n      sub\n      swap1\n      revert\n    tag_168:\n        /* \"contracts/Fvkry.sol\":4324:4346  uint256  updateBalance */\n      0x00\n        /* \"contracts/Fvkry.sol\":4363:4370  _amount */\n      dup3\n        /* \"contracts/Fvkry.sol\":4349:4353  lock */\n      dup3\n        /* \"contracts/Fvkry.sol\":4349:4360  lock.amount */\n      0x01\n      add\n      sload\n        /* \"contracts/Fvkry.sol\":4349:4370  lock.amount - _amount */\n      tag_171\n      swap2\n      swap1\n      tag_172\n      jump\t// in\n    tag_171:\n        /* \"contracts/Fvkry.sol\":4324:4370  uint256  updateBalance = lock.amount - _amount */\n      swap1\n      pop\n        /* \"contracts/Fvkry.sol\":4407:4408  0 */\n      0x00\n        /* \"contracts/Fvkry.sol\":4390:4403  updateBalance */\n      dup2\n        /* \"contracts/Fvkry.sol\":4390:4408  updateBalance >= 0 */\n      lt\n      iszero\n        /* \"contracts/Fvkry.sol\":4381:4442  require (updateBalance >= 0,\"Not enough assets to withdraw!\") */\n      tag_173\n      jumpi\n      mload(0x40)\n      0x08c379a000000000000000000000000000000000000000000000000000000000\n      dup2\n      mstore\n      0x04\n      add\n      tag_174\n      swap1\n      tag_175\n      jump\t// in\n    tag_174:\n      mload(0x40)\n      dup1\n      swap2\n      sub\n      swap1\n      revert\n    tag_173:\n        /* \"contracts/Fvkry.sol\":4504:4505  0 */\n      0x00\n        /* \"contracts/Fvkry.sol\":4487:4500  updateBalance */\n      dup2\n        /* \"contracts/Fvkry.sol\":4487:4505  updateBalance == 0 */\n      sub\n        /* \"contracts/Fvkry.sol\":4484:4597  if(updateBalance == 0) {... */\n      tag_176\n      jumpi\n        /* \"contracts/Fvkry.sol\":4581:4585  true */\n      0x01\n        /* \"contracts/Fvkry.sol\":4522:4538  userLockedAssets */\n      0x02\n        /* \"contracts/Fvkry.sol\":4522:4550  userLockedAssets[msg.sender] */\n      0x00\n        /* \"contracts/Fvkry.sol\":4539:4549  msg.sender */\n      caller\n        /* \"contracts/Fvkry.sol\":4522:4550  userLockedAssets[msg.sender] */\n      0xffffffffffffffffffffffffffffffffffffffff\n      and\n      0xffffffffffffffffffffffffffffffffffffffff\n      and\n      dup2\n      mstore\n      0x20\n      add\n      swap1\n      dup2\n      mstore\n      0x20\n      add\n      0x00\n      keccak256\n        /* \"contracts/Fvkry.sol\":4522:4558  userLockedAssets[msg.sender][_vault] */\n      0x00\n        /* \"contracts/Fvkry.sol\":4551:4557  _vault */\n      dup7\n        /* \"contracts/Fvkry.sol\":4522:4558  userLockedAssets[msg.sender][_vault] */\n      0xff\n      and\n      0xff\n      and\n      dup2\n      mstore\n      0x20\n      add\n      swap1\n      dup2\n      mstore\n      0x20\n      add\n      0x00\n      keccak256\n        /* \"contracts/Fvkry.sol\":4559:4567  _assetId */\n      dup7\n        /* \"contracts/Fvkry.sol\":4522:4568  userLockedAssets[msg.sender][_vault][_assetId] */\n      0xffffffff\n      and\n      dup2\n      sload\n      dup2\n      lt\n      tag_177\n      jumpi\n      tag_178\n      tag_96\n      jump\t// in\n    tag_178:\n    tag_177:\n      swap1\n      0x00\n      mstore\n      keccak256(0x00, 0x20)\n      swap1\n      0x04\n      mul\n      add\n        /* \"contracts/Fvkry.sol\":4522:4578  userLockedAssets[msg.sender][_vault][_assetId].withdrawn */\n      0x03\n      add\n      0x01\n        /* \"contracts/Fvkry.sol\":4522:4585  userLockedAssets[msg.sender][_vault][_assetId].withdrawn = true */\n      0x0100\n      exp\n      dup2\n      sload\n      dup2\n      0xff\n      mul\n      not\n      and\n      swap1\n      dup4\n      iszero\n      iszero\n      mul\n      or\n      swap1\n      sstore\n      pop\n        /* \"contracts/Fvkry.sol\":4484:4597  if(updateBalance == 0) {... */\n    tag_176:\n        /* \"contracts/Fvkry.sol\":4694:4707  updateBalance */\n      dup1\n        /* \"contracts/Fvkry.sol\":4638:4654  userLockedAssets */\n      0x02\n        /* \"contracts/Fvkry.sol\":4638:4666  userLockedAssets[msg.sender] */\n      0x00\n        /* \"contracts/Fvkry.sol\":4655:4665  msg.sender */\n      caller\n        /* \"contracts/Fvkry.sol\":4638:4666  userLockedAssets[msg.sender] */\n      0xffffffffffffffffffffffffffffffffffffffff\n      and\n      0xffffffffffffffffffffffffffffffffffffffff\n      and\n      dup2\n      mstore\n      0x20\n      add\n      swap1\n      dup2\n      mstore\n      0x20\n      add\n      0x00\n      keccak256\n        /* \"contracts/Fvkry.sol\":4638:4674  userLockedAssets[msg.sender][_vault] */\n      0x00\n        /* \"contracts/Fvkry.sol\":4667:4673  _vault */\n      dup7\n        /* \"contracts/Fvkry.sol\":4638:4674  userLockedAssets[msg.sender][_vault] */\n      0xff\n      and\n      0xff\n      and\n      dup2\n      mstore\n      0x20\n      add\n      swap1\n      dup2\n      mstore\n      0x20\n      add\n      0x00\n      keccak256\n        /* \"contracts/Fvkry.sol\":4675:4683  _assetId */\n      dup7\n        /* \"contracts/Fvkry.sol\":4638:4684  userLockedAssets[msg.sender][_vault][_assetId] */\n      0xffffffff\n      and\n      dup2\n      sload\n      dup2\n      lt\n      tag_180\n      jumpi\n      tag_181\n      tag_96\n      jump\t// in\n    tag_181:\n    tag_180:\n      swap1\n      0x00\n      mstore\n      keccak256(0x00, 0x20)\n      swap1\n      0x04\n      mul\n      add\n        /* \"contracts/Fvkry.sol\":4638:4691  userLockedAssets[msg.sender][_vault][_assetId].amount */\n      0x01\n      add\n        /* \"contracts/Fvkry.sol\":4638:4707  userLockedAssets[msg.sender][_vault][_assetId].amount = updateBalance */\n      dup2\n      swap1\n      sstore\n      pop\n        /* \"contracts/Fvkry.sol\":4727:4731  lock */\n      dup2\n        /* \"contracts/Fvkry.sol\":4727:4740  lock.isNative */\n      0x03\n      add\n      0x02\n      swap1\n      sload\n      swap1\n      0x0100\n      exp\n      swap1\n      div\n      0xff\n      and\n        /* \"contracts/Fvkry.sol\":4724:5029  if(lock.isNative) {... */\n      iszero\n      tag_183\n      jumpi\n        /* \"contracts/Fvkry.sol\":4787:4799  bool success */\n      0x00\n        /* \"contracts/Fvkry.sol\":4805:4815  msg.sender */\n      caller\n        /* \"contracts/Fvkry.sol\":4805:4820  msg.sender.call */\n      0xffffffffffffffffffffffffffffffffffffffff\n      and\n        /* \"contracts/Fvkry.sol\":4828:4835  _amount */\n      dup5\n        /* \"contracts/Fvkry.sol\":4805:4840  msg.sender.call{value: _amount}(\"\") */\n      mload(0x40)\n      tag_184\n      swap1\n      tag_185\n      jump\t// in\n    tag_184:\n      0x00\n      mload(0x40)\n      dup1\n      dup4\n      sub\n      dup2\n      dup6\n      dup8\n      gas\n      call\n      swap3\n      pop\n      pop\n      pop\n      returndatasize\n      dup1\n      0x00\n      dup2\n      eq\n      tag_188\n      jumpi\n      mload(0x40)\n      swap2\n      pop\n      and(add(returndatasize, 0x3f), not(0x1f))\n      dup3\n      add\n      0x40\n      mstore\n      returndatasize\n      dup3\n      mstore\n      returndatasize\n      0x00\n      0x20\n      dup5\n      add\n      returndatacopy\n      jump(tag_187)\n    tag_188:\n      0x60\n      swap2\n      pop\n    tag_187:\n      pop\n        /* \"contracts/Fvkry.sol\":4786:4840  (bool success, ) = msg.sender.call{value: _amount}(\"\") */\n      pop\n      swap1\n      pop\n        /* \"contracts/Fvkry.sol\":4863:4870  success */\n      dup1\n        /* \"contracts/Fvkry.sol\":4855:4894  require(success, \"ETH transfer failed\") */\n      tag_189\n      jumpi\n      mload(0x40)\n      0x08c379a000000000000000000000000000000000000000000000000000000000\n      dup2\n      mstore\n      0x04\n      add\n      tag_190\n      swap1\n      tag_191\n      jump\t// in\n    tag_190:\n      mload(0x40)\n      dup1\n      swap2\n      sub\n      swap1\n      revert\n    tag_189:\n        /* \"contracts/Fvkry.sol\":4742:4906  {... */\n      pop\n        /* \"contracts/Fvkry.sol\":4724:5029  if(lock.isNative) {... */\n      jump(tag_192)\n    tag_183:\n        /* \"contracts/Fvkry.sol\":4965:5017  IERC20(lock.token).safeTransfer(msg.sender, _amount) */\n      tag_193\n        /* \"contracts/Fvkry.sol\":4997:5007  msg.sender */\n      caller\n        /* \"contracts/Fvkry.sol\":5009:5016  _amount */\n      dup5\n        /* \"contracts/Fvkry.sol\":4972:4976  lock */\n      dup5\n        /* \"contracts/Fvkry.sol\":4972:4982  lock.token */\n      0x00\n      add\n      0x00\n      swap1\n      sload\n      swap1\n      0x0100\n      exp\n      swap1\n      div\n      0xffffffffffffffffffffffffffffffffffffffff\n      and\n        /* \"contracts/Fvkry.sol\":4965:4996  IERC20(lock.token).safeTransfer */\n      0xffffffffffffffffffffffffffffffffffffffff\n      and\n      tag_194\n      swap1\n        /* \"contracts/Fvkry.sol\":4965:5017  IERC20(lock.token).safeTransfer(msg.sender, _amount) */\n      swap3\n      swap2\n      swap1\n      0xffffffff\n      and\n      jump\t// in\n    tag_193:\n        /* \"contracts/Fvkry.sol\":4724:5029  if(lock.isNative) {... */\n    tag_192:\n        /* \"contracts/Fvkry.sol\":5070:5074  lock */\n      dup2\n        /* \"contracts/Fvkry.sol\":5070:5080  lock.token */\n      0x00\n      add\n      0x00\n      swap1\n      sload\n      swap1\n      0x0100\n      exp\n      swap1\n      div\n      0xffffffffffffffffffffffffffffffffffffffff\n      and\n        /* \"contracts/Fvkry.sol\":5046:5121  AssetTransfered(address(lock.token), _amount , lock.vault, block.timestamp) */\n      0xffffffffffffffffffffffffffffffffffffffff\n      and\n      0xf9c1eebf9a6880c5357a85a01ed17f20fed16844f1e75d070866c77eaa1a4fdb\n        /* \"contracts/Fvkry.sol\":5083:5090  _amount */\n      dup5\n        /* \"contracts/Fvkry.sol\":5093:5097  lock */\n      dup5\n        /* \"contracts/Fvkry.sol\":5093:5103  lock.vault */\n      0x03\n      add\n      0x00\n      swap1\n      sload\n      swap1\n      0x0100\n      exp\n      swap1\n      div\n      0xff\n      and\n        /* \"contracts/Fvkry.sol\":5105:5120  block.timestamp */\n      timestamp\n        /* \"contracts/Fvkry.sol\":5046:5121  AssetTransfered(address(lock.token), _amount , lock.vault, block.timestamp) */\n      mload(0x40)\n      tag_195\n      swap4\n      swap3\n      swap2\n      swap1\n      tag_101\n      jump\t// in\n    tag_195:\n      mload(0x40)\n      dup1\n      swap2\n      sub\n      swap1\n      log2\n        /* \"contracts/Fvkry.sol\":3943:5129  {... */\n      pop\n      pop\n        /* \"@openzeppelin/contracts/utils/ReentrancyGuard.sol\":2542:2562  _nonReentrantAfter() */\n      tag_196\n        /* \"@openzeppelin/contracts/utils/ReentrancyGuard.sol\":2542:2560  _nonReentrantAfter */\n      tag_103\n        /* \"@openzeppelin/contracts/utils/ReentrancyGuard.sol\":2542:2562  _nonReentrantAfter() */\n      jump\t// in\n    tag_196:\n        /* \"contracts/Fvkry.sol\":3849:5129  function transferAsset( uint32 _assetId,uint8 _vault, uint256 _amount) external  nonReentrant {... */\n      pop\n      pop\n      pop\n      jump\t// out\n        /* \"contracts/Fvkry.sol\":1745:2127  function addToLockedETH(uint8 _vault, uint32 _assetID) external payable  nonReentrant {... */\n    tag_70:\n        /* \"@openzeppelin/contracts/utils/ReentrancyGuard.sol\":2500:2521  _nonReentrantBefore() */\n      tag_198\n        /* \"@openzeppelin/contracts/utils/ReentrancyGuard.sol\":2500:2519  _nonReentrantBefore */\n      tag_84\n        /* \"@openzeppelin/contracts/utils/ReentrancyGuard.sol\":2500:2521  _nonReentrantBefore() */\n      jump\t// in\n    tag_198:\n        /* \"contracts/Fvkry.sol\":1862:1863  0 */\n      0x00\n        /* \"contracts/Fvkry.sol\":1850:1859  msg.value */\n      callvalue\n        /* \"contracts/Fvkry.sol\":1850:1863  msg.value > 0 */\n      gt\n        /* \"contracts/Fvkry.sol\":1842:1919  require(msg.value > 0, \"ETH to add to lock must be an amount greater than 0\") */\n      tag_200\n      jumpi\n      mload(0x40)\n      0x08c379a000000000000000000000000000000000000000000000000000000000\n      dup2\n      mstore\n      0x04\n      add\n      tag_201\n      swap1\n      tag_202\n      jump\t// in\n    tag_201:\n      mload(0x40)\n      dup1\n      swap2\n      sub\n      swap1\n      revert\n    tag_200:\n        /* \"contracts/Fvkry.sol\":2034:2043  msg.value */\n      callvalue\n        /* \"contracts/Fvkry.sol\":1977:1993  userLockedAssets */\n      0x02\n        /* \"contracts/Fvkry.sol\":1977:2005  userLockedAssets[msg.sender] */\n      0x00\n        /* \"contracts/Fvkry.sol\":1994:2004  msg.sender */\n      caller\n        /* \"contracts/Fvkry.sol\":1977:2005  userLockedAssets[msg.sender] */\n      0xffffffffffffffffffffffffffffffffffffffff\n      and\n      0xffffffffffffffffffffffffffffffffffffffff\n      and\n      dup2\n      mstore\n      0x20\n      add\n      swap1\n      dup2\n      mstore\n      0x20\n      add\n      0x00\n      keccak256\n        /* \"contracts/Fvkry.sol\":1977:2013  userLockedAssets[msg.sender][_vault] */\n      0x00\n        /* \"contracts/Fvkry.sol\":2006:2012  _vault */\n      dup5\n        /* \"contracts/Fvkry.sol\":1977:2013  userLockedAssets[msg.sender][_vault] */\n      0xff\n      and\n      0xff\n      and\n      dup2\n      mstore\n      0x20\n      add\n      swap1\n      dup2\n      mstore\n      0x20\n      add\n      0x00\n      keccak256\n        /* \"contracts/Fvkry.sol\":2014:2022  _assetID */\n      dup3\n        /* \"contracts/Fvkry.sol\":1977:2023  userLockedAssets[msg.sender][_vault][_assetID] */\n      0xffffffff\n      and\n      dup2\n      sload\n      dup2\n      lt\n      tag_203\n      jumpi\n      tag_204\n      tag_96\n      jump\t// in\n    tag_204:\n    tag_203:\n      swap1\n      0x00\n      mstore\n      keccak256(0x00, 0x20)\n      swap1\n      0x04\n      mul\n      add\n        /* \"contracts/Fvkry.sol\":1977:2030  userLockedAssets[msg.sender][_vault][_assetID].amount */\n      0x01\n      add\n      0x00\n        /* \"contracts/Fvkry.sol\":1977:2043  userLockedAssets[msg.sender][_vault][_assetID].amount += msg.value */\n      dup3\n      dup3\n      sload\n      tag_206\n      swap2\n      swap1\n      tag_99\n      jump\t// in\n    tag_206:\n      swap3\n      pop\n      pop\n      dup2\n      swap1\n      sstore\n      pop\n        /* \"contracts/Fvkry.sol\":2080:2081  0 */\n      0x00\n        /* \"contracts/Fvkry.sol\":2061:2119  AssetAdded(address(0), msg.value, _vault, block.timestamp) */\n      0xffffffffffffffffffffffffffffffffffffffff\n      and\n      0xc66e6f7d74d0c9e1b876d9a16e6a5e1cc740b73075424f001b9cf91ad042c317\n        /* \"contracts/Fvkry.sol\":2084:2093  msg.value */\n      callvalue\n        /* \"contracts/Fvkry.sol\":2095:2101  _vault */\n      dup5\n        /* \"contracts/Fvkry.sol\":2103:2118  block.timestamp */\n      timestamp\n        /* \"contracts/Fvkry.sol\":2061:2119  AssetAdded(address(0), msg.value, _vault, block.timestamp) */\n      mload(0x40)\n      tag_207\n      swap4\n      swap3\n      swap2\n      swap1\n      tag_101\n      jump\t// in\n    tag_207:\n      mload(0x40)\n      dup1\n      swap2\n      sub\n      swap1\n      log2\n        /* \"@openzeppelin/contracts/utils/ReentrancyGuard.sol\":2542:2562  _nonReentrantAfter() */\n      tag_208\n        /* \"@openzeppelin/contracts/utils/ReentrancyGuard.sol\":2542:2560  _nonReentrantAfter */\n      tag_103\n        /* \"@openzeppelin/contracts/utils/ReentrancyGuard.sol\":2542:2562  _nonReentrantAfter() */\n      jump\t// in\n    tag_208:\n        /* \"contracts/Fvkry.sol\":1745:2127  function addToLockedETH(uint8 _vault, uint32 _assetID) external payable  nonReentrant {... */\n      pop\n      pop\n      jump\t// out\n        /* \"@openzeppelin/contracts/access/Ownable.sol\":2543:2758  function transferOwnership(address newOwner) public virtual onlyOwner {... */\n    tag_75:\n        /* \"@openzeppelin/contracts/access/Ownable.sol\":1531:1544  _checkOwner() */\n      tag_210\n        /* \"@openzeppelin/contracts/access/Ownable.sol\":1531:1542  _checkOwner */\n      tag_148\n        /* \"@openzeppelin/contracts/access/Ownable.sol\":1531:1544  _checkOwner() */\n      jump\t// in\n    tag_210:\n        /* \"@openzeppelin/contracts/access/Ownable.sol\":2647:2648  0 */\n      0x00\n        /* \"@openzeppelin/contracts/access/Ownable.sol\":2627:2649  newOwner == address(0) */\n      0xffffffffffffffffffffffffffffffffffffffff\n      and\n        /* \"@openzeppelin/contracts/access/Ownable.sol\":2627:2635  newOwner */\n      dup2\n        /* \"@openzeppelin/contracts/access/Ownable.sol\":2627:2649  newOwner == address(0) */\n      0xffffffffffffffffffffffffffffffffffffffff\n      and\n      sub\n        /* \"@openzeppelin/contracts/access/Ownable.sol\":2623:2714  if (newOwner == address(0)) {... */\n      tag_212\n      jumpi\n        /* \"@openzeppelin/contracts/access/Ownable.sol\":2700:2701  0 */\n      0x00\n        /* \"@openzeppelin/contracts/access/Ownable.sol\":2672:2703  OwnableInvalidOwner(address(0)) */\n      mload(0x40)\n      0x1e4fbdf700000000000000000000000000000000000000000000000000000000\n      dup2\n      mstore\n      0x04\n      add\n      tag_213\n      swap2\n      swap1\n      tag_54\n      jump\t// in\n    tag_213:\n      mload(0x40)\n      dup1\n      swap2\n      sub\n      swap1\n      revert\n        /* \"@openzeppelin/contracts/access/Ownable.sol\":2623:2714  if (newOwner == address(0)) {... */\n    tag_212:\n        /* \"@openzeppelin/contracts/access/Ownable.sol\":2723:2751  _transferOwnership(newOwner) */\n      tag_214\n        /* \"@openzeppelin/contracts/access/Ownable.sol\":2742:2750  newOwner */\n      dup2\n        /* \"@openzeppelin/contracts/access/Ownable.sol\":2723:2741  _transferOwnership */\n      tag_151\n        /* \"@openzeppelin/contracts/access/Ownable.sol\":2723:2751  _transferOwnership(newOwner) */\n      jump\t// in\n    tag_214:\n        /* \"@openzeppelin/contracts/access/Ownable.sol\":2543:2758  function transferOwnership(address newOwner) public virtual onlyOwner {... */\n      pop\n      jump\t// out\n        /* \"@openzeppelin/contracts/utils/ReentrancyGuard.sol\":2575:2882  function _nonReentrantBefore() private {... */\n    tag_84:\n        /* \"@openzeppelin/contracts/utils/ReentrancyGuard.sol\":1899:1900  2 */\n      0x02\n        /* \"@openzeppelin/contracts/utils/ReentrancyGuard.sol\":2702:2709  _status */\n      sload(0x01)\n        /* \"@openzeppelin/contracts/utils/ReentrancyGuard.sol\":2702:2720  _status == ENTERED */\n      sub\n        /* \"@openzeppelin/contracts/utils/ReentrancyGuard.sol\":2698:2784  if (_status == ENTERED) {... */\n      tag_216\n      jumpi\n        /* \"@openzeppelin/contracts/utils/ReentrancyGuard.sol\":2743:2773  ReentrancyGuardReentrantCall() */\n      mload(0x40)\n      0x3ee5aeb500000000000000000000000000000000000000000000000000000000\n      dup2\n      mstore\n      0x04\n      add\n      mload(0x40)\n      dup1\n      swap2\n      sub\n      swap1\n      revert\n        /* \"@openzeppelin/contracts/utils/ReentrancyGuard.sol\":2698:2784  if (_status == ENTERED) {... */\n    tag_216:\n        /* \"@openzeppelin/contracts/utils/ReentrancyGuard.sol\":1899:1900  2 */\n      0x02\n        /* \"@openzeppelin/contracts/utils/ReentrancyGuard.sol\":2858:2865  _status */\n      0x01\n        /* \"@openzeppelin/contracts/utils/ReentrancyGuard.sol\":2858:2875  _status = ENTERED */\n      dup2\n      swap1\n      sstore\n      pop\n        /* \"@openzeppelin/contracts/utils/ReentrancyGuard.sol\":2575:2882  function _nonReentrantBefore() private {... */\n      jump\t// out\n        /* \"@openzeppelin/contracts/token/ERC20/utils/SafeERC20.sol\":1618:1806  function safeTransferFrom(IERC20 token, address from, address to, uint256 value) internal {... */\n    tag_93:\n        /* \"@openzeppelin/contracts/token/ERC20/utils/SafeERC20.sol\":1718:1799  _callOptionalReturn(token, abi.encodeCall(token.transferFrom, (from, to, value))) */\n      tag_218\n        /* \"@openzeppelin/contracts/token/ERC20/utils/SafeERC20.sol\":1738:1743  token */\n      dup5\n        /* \"@openzeppelin/contracts/token/ERC20/utils/SafeERC20.sol\":1760:1765  token */\n      dup6\n        /* \"@openzeppelin/contracts/token/ERC20/utils/SafeERC20.sol\":1760:1778  token.transferFrom */\n      0xffffffffffffffffffffffffffffffffffffffff\n      and\n      0x23b872dd\n        /* \"@openzeppelin/contracts/token/ERC20/utils/SafeERC20.sol\":1781:1785  from */\n      dup7\n        /* \"@openzeppelin/contracts/token/ERC20/utils/SafeERC20.sol\":1787:1789  to */\n      dup7\n        /* \"@openzeppelin/contracts/token/ERC20/utils/SafeERC20.sol\":1791:1796  value */\n      dup7\n        /* \"@openzeppelin/contracts/token/ERC20/utils/SafeERC20.sol\":1745:1798  abi.encodeCall(token.transferFrom, (from, to, value)) */\n      add(0x24, mload(0x40))\n      tag_219\n      swap4\n      swap3\n      swap2\n      swap1\n      tag_220\n      jump\t// in\n    tag_219:\n      mload(0x40)\n      0x20\n      dup2\n      dup4\n      sub\n      sub\n      dup2\n      mstore\n      swap1\n      0x40\n      mstore\n      swap2\n      pop\n      0xe0\n      shl\n      0x20\n      dup3\n      add\n      dup1\n      mload\n      0xffffffffffffffffffffffffffffffffffffffffffffffffffffffff\n      dup4\n      dup2\n      dup4\n      and\n      or\n      dup4\n      mstore\n      pop\n      pop\n      pop\n      pop\n        /* \"@openzeppelin/contracts/token/ERC20/utils/SafeERC20.sol\":1718:1737  _callOptionalReturn */\n      tag_221\n        /* \"@openzeppelin/contracts/token/ERC20/utils/SafeERC20.sol\":1718:1799  _callOptionalReturn(token, abi.encodeCall(token.transferFrom, (from, to, value))) */\n      jump\t// in\n    tag_218:\n        /* \"@openzeppelin/contracts/token/ERC20/utils/SafeERC20.sol\":1618:1806  function safeTransferFrom(IERC20 token, address from, address to, uint256 value) internal {... */\n      pop\n      pop\n      pop\n      pop\n      jump\t// out\n        /* \"@openzeppelin/contracts/utils/ReentrancyGuard.sol\":2888:3096  function _nonReentrantAfter() private {... */\n    tag_103:\n        /* \"@openzeppelin/contracts/utils/ReentrancyGuard.sol\":1857:1858  1 */\n      0x01\n        /* \"@openzeppelin/contracts/utils/ReentrancyGuard.sol\":3068:3075  _status */\n      dup1\n        /* \"@openzeppelin/contracts/utils/ReentrancyGuard.sol\":3068:3089  _status = NOT_ENTERED */\n      dup2\n      swap1\n      sstore\n      pop\n        /* \"@openzeppelin/contracts/utils/ReentrancyGuard.sol\":2888:3096  function _nonReentrantAfter() private {... */\n      jump\t// out\n        /* \"@openzeppelin/contracts/access/Ownable.sol\":1796:1958  function _checkOwner() internal view virtual {... */\n    tag_148:\n        /* \"@openzeppelin/contracts/access/Ownable.sol\":1866:1878  _msgSender() */\n      tag_224\n        /* \"@openzeppelin/contracts/access/Ownable.sol\":1866:1876  _msgSender */\n      tag_225\n        /* \"@openzeppelin/contracts/access/Ownable.sol\":1866:1878  _msgSender() */\n      jump\t// in\n    tag_224:\n        /* \"@openzeppelin/contracts/access/Ownable.sol\":1855:1878  owner() != _msgSender() */\n      0xffffffffffffffffffffffffffffffffffffffff\n      and\n        /* \"@openzeppelin/contracts/access/Ownable.sol\":1855:1862  owner() */\n      tag_226\n        /* \"@openzeppelin/contracts/access/Ownable.sol\":1855:1860  owner */\n      tag_52\n        /* \"@openzeppelin/contracts/access/Ownable.sol\":1855:1862  owner() */\n      jump\t// in\n    tag_226:\n        /* \"@openzeppelin/contracts/access/Ownable.sol\":1855:1878  owner() != _msgSender() */\n      0xffffffffffffffffffffffffffffffffffffffff\n      and\n      eq\n        /* \"@openzeppelin/contracts/access/Ownable.sol\":1851:1952  if (owner() != _msgSender()) {... */\n      tag_227\n      jumpi\n        /* \"@openzeppelin/contracts/access/Ownable.sol\":1928:1940  _msgSender() */\n      tag_228\n        /* \"@openzeppelin/contracts/access/Ownable.sol\":1928:1938  _msgSender */\n      tag_225\n        /* \"@openzeppelin/contracts/access/Ownable.sol\":1928:1940  _msgSender() */\n      jump\t// in\n    tag_228:\n        /* \"@openzeppelin/contracts/access/Ownable.sol\":1901:1941  OwnableUnauthorizedAccount(_msgSender()) */\n      mload(0x40)\n      0x118cdaa700000000000000000000000000000000000000000000000000000000\n      dup2\n      mstore\n      0x04\n      add\n      tag_229\n      swap2\n      swap1\n      tag_54\n      jump\t// in\n    tag_229:\n      mload(0x40)\n      dup1\n      swap2\n      sub\n      swap1\n      revert\n        /* \"@openzeppelin/contracts/access/Ownable.sol\":1851:1952  if (owner() != _msgSender()) {... */\n    tag_227:\n        /* \"@openzeppelin/contracts/access/Ownable.sol\":1796:1958  function _checkOwner() internal view virtual {... */\n      jump\t// out\n        /* \"@openzeppelin/contracts/access/Ownable.sol\":2912:3099  function _transferOwnership(address newOwner) internal virtual {... */\n    tag_151:\n        /* \"@openzeppelin/contracts/access/Ownable.sol\":2985:3001  address oldOwner */\n      0x00\n        /* \"@openzeppelin/contracts/access/Ownable.sol\":3004:3010  _owner */\n      dup1\n      0x00\n      swap1\n      sload\n      swap1\n      0x0100\n      exp\n      swap1\n      div\n      0xffffffffffffffffffffffffffffffffffffffff\n      and\n        /* \"@openzeppelin/contracts/access/Ownable.sol\":2985:3010  address oldOwner = _owner */\n      swap1\n      pop\n        /* \"@openzeppelin/contracts/access/Ownable.sol\":3029:3037  newOwner */\n      dup2\n        /* \"@openzeppelin/contracts/access/Ownable.sol\":3020:3026  _owner */\n      0x00\n      dup1\n        /* \"@openzeppelin/contracts/access/Ownable.sol\":3020:3037  _owner = newOwner */\n      0x0100\n      exp\n      dup2\n      sload\n      dup2\n      0xffffffffffffffffffffffffffffffffffffffff\n      mul\n      not\n      and\n      swap1\n      dup4\n      0xffffffffffffffffffffffffffffffffffffffff\n      and\n      mul\n      or\n      swap1\n      sstore\n      pop\n        /* \"@openzeppelin/contracts/access/Ownable.sol\":3083:3091  newOwner */\n      dup2\n        /* \"@openzeppelin/contracts/access/Ownable.sol\":3052:3092  OwnershipTransferred(oldOwner, newOwner) */\n      0xffffffffffffffffffffffffffffffffffffffff\n      and\n        /* \"@openzeppelin/contracts/access/Ownable.sol\":3073:3081  oldOwner */\n      dup2\n        /* \"@openzeppelin/contracts/access/Ownable.sol\":3052:3092  OwnershipTransferred(oldOwner, newOwner) */\n      0xffffffffffffffffffffffffffffffffffffffff\n      and\n      0x8be0079c531659141344cd1fd0a4f28419497f9722a3daafe3b4186f6b6457e0\n      mload(0x40)\n      mload(0x40)\n      dup1\n      swap2\n      sub\n      swap1\n      log3\n        /* \"@openzeppelin/contracts/access/Ownable.sol\":2975:3099  {... */\n      pop\n        /* \"@openzeppelin/contracts/access/Ownable.sol\":2912:3099  function _transferOwnership(address newOwner) internal virtual {... */\n      pop\n      jump\t// out\n        /* \"@openzeppelin/contracts/token/ERC20/utils/SafeERC20.sol\":1219:1379  function safeTransfer(IERC20 token, address to, uint256 value) internal {... */\n    tag_194:\n        /* \"@openzeppelin/contracts/token/ERC20/utils/SafeERC20.sol\":1301:1372  _callOptionalReturn(token, abi.encodeCall(token.transfer, (to, value))) */\n      tag_232\n        /* \"@openzeppelin/contracts/token/ERC20/utils/SafeERC20.sol\":1321:1326  token */\n      dup4\n        /* \"@openzeppelin/contracts/token/ERC20/utils/SafeERC20.sol\":1343:1348  token */\n      dup5\n        /* \"@openzeppelin/contracts/token/ERC20/utils/SafeERC20.sol\":1343:1357  token.transfer */\n      0xffffffffffffffffffffffffffffffffffffffff\n      and\n      0xa9059cbb\n        /* \"@openzeppelin/contracts/token/ERC20/utils/SafeERC20.sol\":1360:1362  to */\n      dup6\n        /* \"@openzeppelin/contracts/token/ERC20/utils/SafeERC20.sol\":1364:1369  value */\n      dup6\n        /* \"@openzeppelin/contracts/token/ERC20/utils/SafeERC20.sol\":1328:1371  abi.encodeCall(token.transfer, (to, value)) */\n      add(0x24, mload(0x40))\n      tag_233\n      swap3\n      swap2\n      swap1\n      tag_234\n      jump\t// in\n    tag_233:\n      mload(0x40)\n      0x20\n      dup2\n      dup4\n      sub\n      sub\n      dup2\n      mstore\n      swap1\n      0x40\n      mstore\n      swap2\n      pop\n      0xe0\n      shl\n      0x20\n      dup3\n      add\n      dup1\n      mload\n      0xffffffffffffffffffffffffffffffffffffffffffffffffffffffff\n      dup4\n      dup2\n      dup4\n      and\n      or\n      dup4\n      mstore\n      pop\n      pop\n      pop\n      pop\n        /* \"@openzeppelin/contracts/token/ERC20/utils/SafeERC20.sol\":1301:1320  _callOptionalReturn */\n      tag_221\n        /* \"@openzeppelin/contracts/token/ERC20/utils/SafeERC20.sol\":1301:1372  _callOptionalReturn(token, abi.encodeCall(token.transfer, (to, value))) */\n      jump\t// in\n    tag_232:\n        /* \"@openzeppelin/contracts/token/ERC20/utils/SafeERC20.sol\":1219:1379  function safeTransfer(IERC20 token, address to, uint256 value) internal {... */\n      pop\n      pop\n      pop\n      jump\t// out\n        /* \"@openzeppelin/contracts/token/ERC20/utils/SafeERC20.sol\":7686:8406  function _callOptionalReturn(IERC20 token, bytes memory data) private {... */\n    tag_221:\n        /* \"@openzeppelin/contracts/token/ERC20/utils/SafeERC20.sol\":7766:7784  uint256 returnSize */\n      0x00\n        /* \"@openzeppelin/contracts/token/ERC20/utils/SafeERC20.sol\":7794:7813  uint256 returnValue */\n      dup1\n        /* \"@openzeppelin/contracts/token/ERC20/utils/SafeERC20.sol\":7932:7936  0x20 */\n      0x20\n        /* \"@openzeppelin/contracts/token/ERC20/utils/SafeERC20.sol\":7929:7930  0 */\n      0x00\n        /* \"@openzeppelin/contracts/token/ERC20/utils/SafeERC20.sol\":7922:7926  data */\n      dup5\n        /* \"@openzeppelin/contracts/token/ERC20/utils/SafeERC20.sol\":7916:7927  mload(data) */\n      mload\n        /* \"@openzeppelin/contracts/token/ERC20/utils/SafeERC20.sol\":7909:7913  0x20 */\n      0x20\n        /* \"@openzeppelin/contracts/token/ERC20/utils/SafeERC20.sol\":7903:7907  data */\n      dup7\n        /* \"@openzeppelin/contracts/token/ERC20/utils/SafeERC20.sol\":7899:7914  add(data, 0x20) */\n      add\n        /* \"@openzeppelin/contracts/token/ERC20/utils/SafeERC20.sol\":7896:7897  0 */\n      0x00\n        /* \"@openzeppelin/contracts/token/ERC20/utils/SafeERC20.sol\":7889:7894  token */\n      dup9\n        /* \"@openzeppelin/contracts/token/ERC20/utils/SafeERC20.sol\":7882:7887  gas() */\n      gas\n        /* \"@openzeppelin/contracts/token/ERC20/utils/SafeERC20.sol\":7877:7937  call(gas(), token, 0, add(data, 0x20), mload(data), 0, 0x20) */\n      call\n        /* \"@openzeppelin/contracts/token/ERC20/utils/SafeERC20.sol\":7989:7996  success */\n      dup1\n        /* \"@openzeppelin/contracts/token/ERC20/utils/SafeERC20.sol\":7979:8155  if iszero(success) {... */\n      tag_236\n      jumpi\n        /* \"@openzeppelin/contracts/token/ERC20/utils/SafeERC20.sol\":8033:8037  0x40 */\n      0x40\n        /* \"@openzeppelin/contracts/token/ERC20/utils/SafeERC20.sol\":8027:8038  mload(0x40) */\n      mload\n        /* \"@openzeppelin/contracts/token/ERC20/utils/SafeERC20.sol\":8078:8094  returndatasize() */\n      returndatasize\n        /* \"@openzeppelin/contracts/token/ERC20/utils/SafeERC20.sol\":8075:8076  0 */\n      0x00\n        /* \"@openzeppelin/contracts/token/ERC20/utils/SafeERC20.sol\":8070:8073  ptr */\n      dup3\n        /* \"@openzeppelin/contracts/token/ERC20/utils/SafeERC20.sol\":8055:8095  returndatacopy(ptr, 0, returndatasize()) */\n      returndatacopy\n        /* \"@openzeppelin/contracts/token/ERC20/utils/SafeERC20.sol\":8124:8140  returndatasize() */\n      returndatasize\n        /* \"@openzeppelin/contracts/token/ERC20/utils/SafeERC20.sol\":8119:8122  ptr */\n      dup2\n        /* \"@openzeppelin/contracts/token/ERC20/utils/SafeERC20.sol\":8112:8141  revert(ptr, returndatasize()) */\n      revert\n        /* \"@openzeppelin/contracts/token/ERC20/utils/SafeERC20.sol\":7979:8155  if iszero(success) {... */\n    tag_236:\n        /* \"@openzeppelin/contracts/token/ERC20/utils/SafeERC20.sol\":8182:8198  returndatasize() */\n      returndatasize\n        /* \"@openzeppelin/contracts/token/ERC20/utils/SafeERC20.sol\":8168:8198  returnSize := returndatasize() */\n      swap3\n      pop\n        /* \"@openzeppelin/contracts/token/ERC20/utils/SafeERC20.sol\":8232:8233  0 */\n      0x00\n        /* \"@openzeppelin/contracts/token/ERC20/utils/SafeERC20.sol\":8226:8234  mload(0) */\n      mload\n        /* \"@openzeppelin/contracts/token/ERC20/utils/SafeERC20.sol\":8211:8234  returnValue := mload(0) */\n      swap2\n      pop\n        /* \"@openzeppelin/contracts/token/ERC20/utils/SafeERC20.sol\":7848:8244  {... */\n      pop\n        /* \"@openzeppelin/contracts/token/ERC20/utils/SafeERC20.sol\":8272:8273  0 */\n      0x00\n        /* \"@openzeppelin/contracts/token/ERC20/utils/SafeERC20.sol\":8258:8268  returnSize */\n      dup3\n        /* \"@openzeppelin/contracts/token/ERC20/utils/SafeERC20.sol\":8258:8273  returnSize == 0 */\n      eq\n        /* \"@openzeppelin/contracts/token/ERC20/utils/SafeERC20.sol\":8258:8326  returnSize == 0 ? address(token).code.length == 0 : returnValue != 1 */\n      tag_237\n      jumpi\n        /* \"@openzeppelin/contracts/token/ERC20/utils/SafeERC20.sol\":8325:8326  1 */\n      0x01\n        /* \"@openzeppelin/contracts/token/ERC20/utils/SafeERC20.sol\":8310:8321  returnValue */\n      dup2\n        /* \"@openzeppelin/contracts/token/ERC20/utils/SafeERC20.sol\":8310:8326  returnValue != 1 */\n      eq\n      iszero\n        /* \"@openzeppelin/contracts/token/ERC20/utils/SafeERC20.sol\":8258:8326  returnSize == 0 ? address(token).code.length == 0 : returnValue != 1 */\n      jump(tag_238)\n    tag_237:\n        /* \"@openzeppelin/contracts/token/ERC20/utils/SafeERC20.sol\":8306:8307  0 */\n      0x00\n        /* \"@openzeppelin/contracts/token/ERC20/utils/SafeERC20.sol\":8284:8289  token */\n      dup5\n        /* \"@openzeppelin/contracts/token/ERC20/utils/SafeERC20.sol\":8276:8302  address(token).code.length */\n      0xffffffffffffffffffffffffffffffffffffffff\n      and\n      extcodesize\n        /* \"@openzeppelin/contracts/token/ERC20/utils/SafeERC20.sol\":8276:8307  address(token).code.length == 0 */\n      eq\n        /* \"@openzeppelin/contracts/token/ERC20/utils/SafeERC20.sol\":8258:8326  returnSize == 0 ? address(token).code.length == 0 : returnValue != 1 */\n    tag_238:\n        /* \"@openzeppelin/contracts/token/ERC20/utils/SafeERC20.sol\":8254:8400  if (returnSize == 0 ? address(token).code.length == 0 : returnValue != 1) {... */\n      iszero\n      tag_239\n      jumpi\n        /* \"@openzeppelin/contracts/token/ERC20/utils/SafeERC20.sol\":8382:8387  token */\n      dup4\n        /* \"@openzeppelin/contracts/token/ERC20/utils/SafeERC20.sol\":8349:8389  SafeERC20FailedOperation(address(token)) */\n      mload(0x40)\n      0x5274afe700000000000000000000000000000000000000000000000000000000\n      dup2\n      mstore\n      0x04\n      add\n      tag_240\n      swap2\n      swap1\n      tag_54\n      jump\t// in\n    tag_240:\n      mload(0x40)\n      dup1\n      swap2\n      sub\n      swap1\n      revert\n        /* \"@openzeppelin/contracts/token/ERC20/utils/SafeERC20.sol\":8254:8400  if (returnSize == 0 ? address(token).code.length == 0 : returnValue != 1) {... */\n    tag_239:\n        /* \"@openzeppelin/contracts/token/ERC20/utils/SafeERC20.sol\":7756:8406  {... */\n      pop\n      pop\n        /* \"@openzeppelin/contracts/token/ERC20/utils/SafeERC20.sol\":7686:8406  function _callOptionalReturn(IERC20 token, bytes memory data) private {... */\n      pop\n      pop\n      jump\t// out\n        /* \"@openzeppelin/contracts/utils/Context.sol\":656:752  function _msgSender() internal view virtual returns (address) {... */\n    tag_225:\n        /* \"@openzeppelin/contracts/utils/Context.sol\":709:716  address */\n      0x00\n        /* \"@openzeppelin/contracts/utils/Context.sol\":735:745  msg.sender */\n      caller\n        /* \"@openzeppelin/contracts/utils/Context.sol\":728:745  return msg.sender */\n      swap1\n      pop\n        /* \"@openzeppelin/contracts/utils/Context.sol\":656:752  function _msgSender() internal view virtual returns (address) {... */\n      swap1\n      jump\t// out\n        /* \"#utility.yul\":88:205   */\n    tag_243:\n        /* \"#utility.yul\":197:198   */\n      0x00\n        /* \"#utility.yul\":194:195   */\n      dup1\n        /* \"#utility.yul\":187:199   */\n      revert\n        /* \"#utility.yul\":334:460   */\n    tag_245:\n        /* \"#utility.yul\":371:378   */\n      0x00\n        /* \"#utility.yul\":411:453   */\n      0xffffffffffffffffffffffffffffffffffffffff\n        /* \"#utility.yul\":404:409   */\n      dup3\n        /* \"#utility.yul\":400:454   */\n      and\n        /* \"#utility.yul\":389:454   */\n      swap1\n      pop\n        /* \"#utility.yul\":334:460   */\n      swap2\n      swap1\n      pop\n      jump\t// out\n        /* \"#utility.yul\":466:562   */\n    tag_246:\n        /* \"#utility.yul\":503:510   */\n      0x00\n        /* \"#utility.yul\":532:556   */\n      tag_313\n        /* \"#utility.yul\":550:555   */\n      dup3\n        /* \"#utility.yul\":532:556   */\n      tag_245\n      jump\t// in\n    tag_313:\n        /* \"#utility.yul\":521:556   */\n      swap1\n      pop\n        /* \"#utility.yul\":466:562   */\n      swap2\n      swap1\n      pop\n      jump\t// out\n        /* \"#utility.yul\":568:678   */\n    tag_247:\n        /* \"#utility.yul\":619:626   */\n      0x00\n        /* \"#utility.yul\":648:672   */\n      tag_315\n        /* \"#utility.yul\":666:671   */\n      dup3\n        /* \"#utility.yul\":648:672   */\n      tag_246\n      jump\t// in\n    tag_315:\n        /* \"#utility.yul\":637:672   */\n      swap1\n      pop\n        /* \"#utility.yul\":568:678   */\n      swap2\n      swap1\n      pop\n      jump\t// out\n        /* \"#utility.yul\":684:834   */\n    tag_248:\n        /* \"#utility.yul\":771:809   */\n      tag_317\n        /* \"#utility.yul\":803:808   */\n      dup2\n        /* \"#utility.yul\":771:809   */\n      tag_247\n      jump\t// in\n    tag_317:\n        /* \"#utility.yul\":764:769   */\n      dup2\n        /* \"#utility.yul\":761:810   */\n      eq\n        /* \"#utility.yul\":751:828   */\n      tag_318\n      jumpi\n        /* \"#utility.yul\":824:825   */\n      0x00\n        /* \"#utility.yul\":821:822   */\n      dup1\n        /* \"#utility.yul\":814:826   */\n      revert\n        /* \"#utility.yul\":751:828   */\n    tag_318:\n        /* \"#utility.yul\":684:834   */\n      pop\n      jump\t// out\n        /* \"#utility.yul\":840:1007   */\n    tag_249:\n        /* \"#utility.yul\":900:905   */\n      0x00\n        /* \"#utility.yul\":938:944   */\n      dup2\n        /* \"#utility.yul\":925:945   */\n      calldataload\n        /* \"#utility.yul\":916:945   */\n      swap1\n      pop\n        /* \"#utility.yul\":954:1001   */\n      tag_320\n        /* \"#utility.yul\":995:1000   */\n      dup2\n        /* \"#utility.yul\":954:1001   */\n      tag_248\n      jump\t// in\n    tag_320:\n        /* \"#utility.yul\":840:1007   */\n      swap3\n      swap2\n      pop\n      pop\n      jump\t// out\n        /* \"#utility.yul\":1013:1370   */\n    tag_18:\n        /* \"#utility.yul\":1086:1092   */\n      0x00\n        /* \"#utility.yul\":1135:1137   */\n      0x20\n        /* \"#utility.yul\":1123:1132   */\n      dup3\n        /* \"#utility.yul\":1114:1121   */\n      dup5\n        /* \"#utility.yul\":1110:1133   */\n      sub\n        /* \"#utility.yul\":1106:1138   */\n      slt\n        /* \"#utility.yul\":1103:1222   */\n      iszero\n      tag_322\n      jumpi\n        /* \"#utility.yul\":1141:1220   */\n      tag_323\n      tag_243\n      jump\t// in\n    tag_323:\n        /* \"#utility.yul\":1103:1222   */\n    tag_322:\n        /* \"#utility.yul\":1261:1262   */\n      0x00\n        /* \"#utility.yul\":1286:1353   */\n      tag_324\n        /* \"#utility.yul\":1345:1352   */\n      dup5\n        /* \"#utility.yul\":1336:1342   */\n      dup3\n        /* \"#utility.yul\":1325:1334   */\n      dup6\n        /* \"#utility.yul\":1321:1343   */\n      add\n        /* \"#utility.yul\":1286:1353   */\n      tag_249\n      jump\t// in\n    tag_324:\n        /* \"#utility.yul\":1276:1353   */\n      swap2\n      pop\n        /* \"#utility.yul\":1232:1363   */\n      pop\n        /* \"#utility.yul\":1013:1370   */\n      swap3\n      swap2\n      pop\n      pop\n      jump\t// out\n        /* \"#utility.yul\":1376:1453   */\n    tag_250:\n        /* \"#utility.yul\":1413:1420   */\n      0x00\n        /* \"#utility.yul\":1442:1447   */\n      dup2\n        /* \"#utility.yul\":1431:1447   */\n      swap1\n      pop\n        /* \"#utility.yul\":1376:1453   */\n      swap2\n      swap1\n      pop\n      jump\t// out\n        /* \"#utility.yul\":1459:1577   */\n    tag_251:\n        /* \"#utility.yul\":1546:1570   */\n      tag_327\n        /* \"#utility.yul\":1564:1569   */\n      dup2\n        /* \"#utility.yul\":1546:1570   */\n      tag_250\n      jump\t// in\n    tag_327:\n        /* \"#utility.yul\":1541:1544   */\n      dup3\n        /* \"#utility.yul\":1534:1571   */\n      mstore\n        /* \"#utility.yul\":1459:1577   */\n      pop\n      pop\n      jump\t// out\n        /* \"#utility.yul\":1583:1805   */\n    tag_21:\n        /* \"#utility.yul\":1676:1680   */\n      0x00\n        /* \"#utility.yul\":1714:1716   */\n      0x20\n        /* \"#utility.yul\":1703:1712   */\n      dup3\n        /* \"#utility.yul\":1699:1717   */\n      add\n        /* \"#utility.yul\":1691:1717   */\n      swap1\n      pop\n        /* \"#utility.yul\":1727:1798   */\n      tag_329\n        /* \"#utility.yul\":1795:1796   */\n      0x00\n        /* \"#utility.yul\":1784:1793   */\n      dup4\n        /* \"#utility.yul\":1780:1797   */\n      add\n        /* \"#utility.yul\":1771:1777   */\n      dup5\n        /* \"#utility.yul\":1727:1798   */\n      tag_251\n      jump\t// in\n    tag_329:\n        /* \"#utility.yul\":1583:1805   */\n      swap3\n      swap2\n      pop\n      pop\n      jump\t// out\n        /* \"#utility.yul\":1811:1904   */\n    tag_252:\n        /* \"#utility.yul\":1847:1854   */\n      0x00\n        /* \"#utility.yul\":1887:1897   */\n      0xffffffff\n        /* \"#utility.yul\":1880:1885   */\n      dup3\n        /* \"#utility.yul\":1876:1898   */\n      and\n        /* \"#utility.yul\":1865:1898   */\n      swap1\n      pop\n        /* \"#utility.yul\":1811:1904   */\n      swap2\n      swap1\n      pop\n      jump\t// out\n        /* \"#utility.yul\":1910:2030   */\n    tag_253:\n        /* \"#utility.yul\":1982:2005   */\n      tag_332\n        /* \"#utility.yul\":1999:2004   */\n      dup2\n        /* \"#utility.yul\":1982:2005   */\n      tag_252\n      jump\t// in\n    tag_332:\n        /* \"#utility.yul\":1975:1980   */\n      dup2\n        /* \"#utility.yul\":1972:2006   */\n      eq\n        /* \"#utility.yul\":1962:2024   */\n      tag_333\n      jumpi\n        /* \"#utility.yul\":2020:2021   */\n      0x00\n        /* \"#utility.yul\":2017:2018   */\n      dup1\n        /* \"#utility.yul\":2010:2022   */\n      revert\n        /* \"#utility.yul\":1962:2024   */\n    tag_333:\n        /* \"#utility.yul\":1910:2030   */\n      pop\n      jump\t// out\n        /* \"#utility.yul\":2036:2173   */\n    tag_254:\n        /* \"#utility.yul\":2081:2086   */\n      0x00\n        /* \"#utility.yul\":2119:2125   */\n      dup2\n        /* \"#utility.yul\":2106:2126   */\n      calldataload\n        /* \"#utility.yul\":2097:2126   */\n      swap1\n      pop\n        /* \"#utility.yul\":2135:2167   */\n      tag_335\n        /* \"#utility.yul\":2161:2166   */\n      dup2\n        /* \"#utility.yul\":2135:2167   */\n      tag_253\n      jump\t// in\n    tag_335:\n        /* \"#utility.yul\":2036:2173   */\n      swap3\n      swap2\n      pop\n      pop\n      jump\t// out\n        /* \"#utility.yul\":2179:2301   */\n    tag_255:\n        /* \"#utility.yul\":2252:2276   */\n      tag_337\n        /* \"#utility.yul\":2270:2275   */\n      dup2\n        /* \"#utility.yul\":2252:2276   */\n      tag_250\n      jump\t// in\n    tag_337:\n        /* \"#utility.yul\":2245:2250   */\n      dup2\n        /* \"#utility.yul\":2242:2277   */\n      eq\n        /* \"#utility.yul\":2232:2295   */\n      tag_338\n      jumpi\n        /* \"#utility.yul\":2291:2292   */\n      0x00\n        /* \"#utility.yul\":2288:2289   */\n      dup1\n        /* \"#utility.yul\":2281:2293   */\n      revert\n        /* \"#utility.yul\":2232:2295   */\n    tag_338:\n        /* \"#utility.yul\":2179:2301   */\n      pop\n      jump\t// out\n        /* \"#utility.yul\":2307:2446   */\n    tag_256:\n        /* \"#utility.yul\":2353:2358   */\n      0x00\n        /* \"#utility.yul\":2391:2397   */\n      dup2\n        /* \"#utility.yul\":2378:2398   */\n      calldataload\n        /* \"#utility.yul\":2369:2398   */\n      swap1\n      pop\n        /* \"#utility.yul\":2407:2440   */\n      tag_340\n        /* \"#utility.yul\":2434:2439   */\n      dup2\n        /* \"#utility.yul\":2407:2440   */\n      tag_255\n      jump\t// in\n    tag_340:\n        /* \"#utility.yul\":2307:2446   */\n      swap3\n      swap2\n      pop\n      pop\n      jump\t// out\n        /* \"#utility.yul\":2452:2538   */\n    tag_257:\n        /* \"#utility.yul\":2487:2494   */\n      0x00\n        /* \"#utility.yul\":2527:2531   */\n      0xff\n        /* \"#utility.yul\":2520:2525   */\n      dup3\n        /* \"#utility.yul\":2516:2532   */\n      and\n        /* \"#utility.yul\":2505:2532   */\n      swap1\n      pop\n        /* \"#utility.yul\":2452:2538   */\n      swap2\n      swap1\n      pop\n      jump\t// out\n        /* \"#utility.yul\":2544:2662   */\n    tag_258:\n        /* \"#utility.yul\":2615:2637   */\n      tag_343\n        /* \"#utility.yul\":2631:2636   */\n      dup2\n        /* \"#utility.yul\":2615:2637   */\n      tag_257\n      jump\t// in\n    tag_343:\n        /* \"#utility.yul\":2608:2613   */\n      dup2\n        /* \"#utility.yul\":2605:2638   */\n      eq\n        /* \"#utility.yul\":2595:2656   */\n      tag_344\n      jumpi\n        /* \"#utility.yul\":2652:2653   */\n      0x00\n        /* \"#utility.yul\":2649:2650   */\n      dup1\n        /* \"#utility.yul\":2642:2654   */\n      revert\n        /* \"#utility.yul\":2595:2656   */\n    tag_344:\n        /* \"#utility.yul\":2544:2662   */\n      pop\n      jump\t// out\n        /* \"#utility.yul\":2668:2803   */\n    tag_259:\n        /* \"#utility.yul\":2712:2717   */\n      0x00\n        /* \"#utility.yul\":2750:2756   */\n      dup2\n        /* \"#utility.yul\":2737:2757   */\n      calldataload\n        /* \"#utility.yul\":2728:2757   */\n      swap1\n      pop\n        /* \"#utility.yul\":2766:2797   */\n      tag_346\n        /* \"#utility.yul\":2791:2796   */\n      dup2\n        /* \"#utility.yul\":2766:2797   */\n      tag_258\n      jump\t// in\n    tag_346:\n        /* \"#utility.yul\":2668:2803   */\n      swap3\n      swap2\n      pop\n      pop\n      jump\t// out\n        /* \"#utility.yul\":2809:3596   */\n    tag_25:\n        /* \"#utility.yul\":2906:2912   */\n      0x00\n        /* \"#utility.yul\":2914:2920   */\n      dup1\n        /* \"#utility.yul\":2922:2928   */\n      0x00\n        /* \"#utility.yul\":2930:2936   */\n      dup1\n        /* \"#utility.yul\":2979:2982   */\n      0x80\n        /* \"#utility.yul\":2967:2976   */\n      dup6\n        /* \"#utility.yul\":2958:2965   */\n      dup8\n        /* \"#utility.yul\":2954:2977   */\n      sub\n        /* \"#utility.yul\":2950:2983   */\n      slt\n        /* \"#utility.yul\":2947:3067   */\n      iszero\n      tag_348\n      jumpi\n        /* \"#utility.yul\":2986:3065   */\n      tag_349\n      tag_243\n      jump\t// in\n    tag_349:\n        /* \"#utility.yul\":2947:3067   */\n    tag_348:\n        /* \"#utility.yul\":3106:3107   */\n      0x00\n        /* \"#utility.yul\":3131:3198   */\n      tag_350\n        /* \"#utility.yul\":3190:3197   */\n      dup8\n        /* \"#utility.yul\":3181:3187   */\n      dup3\n        /* \"#utility.yul\":3170:3179   */\n      dup9\n        /* \"#utility.yul\":3166:3188   */\n      add\n        /* \"#utility.yul\":3131:3198   */\n      tag_249\n      jump\t// in\n    tag_350:\n        /* \"#utility.yul\":3121:3198   */\n      swap5\n      pop\n        /* \"#utility.yul\":3077:3208   */\n      pop\n        /* \"#utility.yul\":3247:3249   */\n      0x20\n        /* \"#utility.yul\":3273:3325   */\n      tag_351\n        /* \"#utility.yul\":3317:3324   */\n      dup8\n        /* \"#utility.yul\":3308:3314   */\n      dup3\n        /* \"#utility.yul\":3297:3306   */\n      dup9\n        /* \"#utility.yul\":3293:3315   */\n      add\n        /* \"#utility.yul\":3273:3325   */\n      tag_254\n      jump\t// in\n    tag_351:\n        /* \"#utility.yul\":3263:3325   */\n      swap4\n      pop\n        /* \"#utility.yul\":3218:3335   */\n      pop\n        /* \"#utility.yul\":3374:3376   */\n      0x40\n        /* \"#utility.yul\":3400:3453   */\n      tag_352\n        /* \"#utility.yul\":3445:3452   */\n      dup8\n        /* \"#utility.yul\":3436:3442   */\n      dup3\n        /* \"#utility.yul\":3425:3434   */\n      dup9\n        /* \"#utility.yul\":3421:3443   */\n      add\n        /* \"#utility.yul\":3400:3453   */\n      tag_256\n      jump\t// in\n    tag_352:\n        /* \"#utility.yul\":3390:3453   */\n      swap3\n      pop\n        /* \"#utility.yul\":3345:3463   */\n      pop\n        /* \"#utility.yul\":3502:3504   */\n      0x60\n        /* \"#utility.yul\":3528:3579   */\n      tag_353\n        /* \"#utility.yul\":3571:3578   */\n      dup8\n        /* \"#utility.yul\":3562:3568   */\n      dup3\n        /* \"#utility.yul\":3551:3560   */\n      dup9\n        /* \"#utility.yul\":3547:3569   */\n      add\n        /* \"#utility.yul\":3528:3579   */\n      tag_259\n      jump\t// in\n    tag_353:\n        /* \"#utility.yul\":3518:3579   */\n      swap2\n      pop\n        /* \"#utility.yul\":3473:3589   */\n      pop\n        /* \"#utility.yul\":2809:3596   */\n      swap3\n      swap6\n      swap2\n      swap5\n      pop\n      swap3\n      pop\n      jump\t// out\n        /* \"#utility.yul\":3602:3927   */\n    tag_30:\n        /* \"#utility.yul\":3659:3665   */\n      0x00\n        /* \"#utility.yul\":3708:3710   */\n      0x20\n        /* \"#utility.yul\":3696:3705   */\n      dup3\n        /* \"#utility.yul\":3687:3694   */\n      dup5\n        /* \"#utility.yul\":3683:3706   */\n      sub\n        /* \"#utility.yul\":3679:3711   */\n      slt\n        /* \"#utility.yul\":3676:3795   */\n      iszero\n      tag_355\n      jumpi\n        /* \"#utility.yul\":3714:3793   */\n      tag_356\n      tag_243\n      jump\t// in\n    tag_356:\n        /* \"#utility.yul\":3676:3795   */\n    tag_355:\n        /* \"#utility.yul\":3834:3835   */\n      0x00\n        /* \"#utility.yul\":3859:3910   */\n      tag_357\n        /* \"#utility.yul\":3902:3909   */\n      dup5\n        /* \"#utility.yul\":3893:3899   */\n      dup3\n        /* \"#utility.yul\":3882:3891   */\n      dup6\n        /* \"#utility.yul\":3878:3900   */\n      add\n        /* \"#utility.yul\":3859:3910   */\n      tag_259\n      jump\t// in\n    tag_357:\n        /* \"#utility.yul\":3849:3910   */\n      swap2\n      pop\n        /* \"#utility.yul\":3805:3920   */\n      pop\n        /* \"#utility.yul\":3602:3927   */\n      swap3\n      swap2\n      pop\n      pop\n      jump\t// out\n        /* \"#utility.yul\":3933:4068   */\n    tag_260:\n        /* \"#utility.yul\":4021:4027   */\n      0x00\n        /* \"#utility.yul\":4055:4060   */\n      dup2\n        /* \"#utility.yul\":4049:4061   */\n      mload\n        /* \"#utility.yul\":4039:4061   */\n      swap1\n      pop\n        /* \"#utility.yul\":3933:4068   */\n      swap2\n      swap1\n      pop\n      jump\t// out\n        /* \"#utility.yul\":4074:4279   */\n    tag_261:\n        /* \"#utility.yul\":4194:4205   */\n      0x00\n        /* \"#utility.yul\":4228:4234   */\n      dup3\n        /* \"#utility.yul\":4223:4226   */\n      dup3\n        /* \"#utility.yul\":4216:4235   */\n      mstore\n        /* \"#utility.yul\":4268:4272   */\n      0x20\n        /* \"#utility.yul\":4263:4266   */\n      dup3\n        /* \"#utility.yul\":4259:4273   */\n      add\n        /* \"#utility.yul\":4244:4273   */\n      swap1\n      pop\n        /* \"#utility.yul\":4074:4279   */\n      swap3\n      swap2\n      pop\n      pop\n      jump\t// out\n        /* \"#utility.yul\":4285:4438   */\n    tag_262:\n        /* \"#utility.yul\":4373:4377   */\n      0x00\n        /* \"#utility.yul\":4396:4399   */\n      dup2\n        /* \"#utility.yul\":4388:4399   */\n      swap1\n      pop\n        /* \"#utility.yul\":4426:4430   */\n      0x20\n        /* \"#utility.yul\":4421:4424   */\n      dup3\n        /* \"#utility.yul\":4417:4431   */\n      add\n        /* \"#utility.yul\":4409:4431   */\n      swap1\n      pop\n        /* \"#utility.yul\":4285:4438   */\n      swap2\n      swap1\n      pop\n      jump\t// out\n        /* \"#utility.yul\":4444:4552   */\n    tag_263:\n        /* \"#utility.yul\":4521:4545   */\n      tag_362\n        /* \"#utility.yul\":4539:4544   */\n      dup2\n        /* \"#utility.yul\":4521:4545   */\n      tag_246\n      jump\t// in\n    tag_362:\n        /* \"#utility.yul\":4516:4519   */\n      dup3\n        /* \"#utility.yul\":4509:4546   */\n      mstore\n        /* \"#utility.yul\":4444:4552   */\n      pop\n      pop\n      jump\t// out\n        /* \"#utility.yul\":4558:4666   */\n    tag_264:\n        /* \"#utility.yul\":4635:4659   */\n      tag_364\n        /* \"#utility.yul\":4653:4658   */\n      dup2\n        /* \"#utility.yul\":4635:4659   */\n      tag_250\n      jump\t// in\n    tag_364:\n        /* \"#utility.yul\":4630:4633   */\n      dup3\n        /* \"#utility.yul\":4623:4660   */\n      mstore\n        /* \"#utility.yul\":4558:4666   */\n      pop\n      pop\n      jump\t// out\n        /* \"#utility.yul\":4672:4774   */\n    tag_265:\n        /* \"#utility.yul\":4745:4767   */\n      tag_366\n        /* \"#utility.yul\":4761:4766   */\n      dup2\n        /* \"#utility.yul\":4745:4767   */\n      tag_257\n      jump\t// in\n    tag_366:\n        /* \"#utility.yul\":4740:4743   */\n      dup3\n        /* \"#utility.yul\":4733:4768   */\n      mstore\n        /* \"#utility.yul\":4672:4774   */\n      pop\n      pop\n      jump\t// out\n        /* \"#utility.yul\":4780:4870   */\n    tag_266:\n        /* \"#utility.yul\":4814:4821   */\n      0x00\n        /* \"#utility.yul\":4857:4862   */\n      dup2\n        /* \"#utility.yul\":4850:4863   */\n      iszero\n        /* \"#utility.yul\":4843:4864   */\n      iszero\n        /* \"#utility.yul\":4832:4864   */\n      swap1\n      pop\n        /* \"#utility.yul\":4780:4870   */\n      swap2\n      swap1\n      pop\n      jump\t// out\n        /* \"#utility.yul\":4876:4975   */\n    tag_267:\n        /* \"#utility.yul\":4947:4968   */\n      tag_369\n        /* \"#utility.yul\":4962:4967   */\n      dup2\n        /* \"#utility.yul\":4947:4968   */\n      tag_266\n      jump\t// in\n    tag_369:\n        /* \"#utility.yul\":4942:4945   */\n      dup3\n        /* \"#utility.yul\":4935:4969   */\n      mstore\n        /* \"#utility.yul\":4876:4975   */\n      pop\n      pop\n      jump\t// out\n        /* \"#utility.yul\":5027:6216   */\n    tag_268:\n        /* \"#utility.yul\":5156:5160   */\n      0xc0\n        /* \"#utility.yul\":5151:5154   */\n      dup3\n        /* \"#utility.yul\":5147:5161   */\n      add\n        /* \"#utility.yul\":5244:5248   */\n      0x00\n        /* \"#utility.yul\":5237:5242   */\n      dup3\n        /* \"#utility.yul\":5233:5249   */\n      add\n        /* \"#utility.yul\":5227:5250   */\n      mload\n        /* \"#utility.yul\":5263:5326   */\n      tag_371\n        /* \"#utility.yul\":5320:5324   */\n      0x00\n        /* \"#utility.yul\":5315:5318   */\n      dup6\n        /* \"#utility.yul\":5311:5325   */\n      add\n        /* \"#utility.yul\":5297:5309   */\n      dup3\n        /* \"#utility.yul\":5263:5326   */\n      tag_263\n      jump\t// in\n    tag_371:\n        /* \"#utility.yul\":5171:5336   */\n      pop\n        /* \"#utility.yul\":5420:5424   */\n      0x20\n        /* \"#utility.yul\":5413:5418   */\n      dup3\n        /* \"#utility.yul\":5409:5425   */\n      add\n        /* \"#utility.yul\":5403:5426   */\n      mload\n        /* \"#utility.yul\":5439:5502   */\n      tag_372\n        /* \"#utility.yul\":5496:5500   */\n      0x20\n        /* \"#utility.yul\":5491:5494   */\n      dup6\n        /* \"#utility.yul\":5487:5501   */\n      add\n        /* \"#utility.yul\":5473:5485   */\n      dup3\n        /* \"#utility.yul\":5439:5502   */\n      tag_264\n      jump\t// in\n    tag_372:\n        /* \"#utility.yul\":5346:5512   */\n      pop\n        /* \"#utility.yul\":5601:5605   */\n      0x40\n        /* \"#utility.yul\":5594:5599   */\n      dup3\n        /* \"#utility.yul\":5590:5606   */\n      add\n        /* \"#utility.yul\":5584:5607   */\n      mload\n        /* \"#utility.yul\":5620:5683   */\n      tag_373\n        /* \"#utility.yul\":5677:5681   */\n      0x40\n        /* \"#utility.yul\":5672:5675   */\n      dup6\n        /* \"#utility.yul\":5668:5682   */\n      add\n        /* \"#utility.yul\":5654:5666   */\n      dup3\n        /* \"#utility.yul\":5620:5683   */\n      tag_264\n      jump\t// in\n    tag_373:\n        /* \"#utility.yul\":5522:5693   */\n      pop\n        /* \"#utility.yul\":5776:5780   */\n      0x60\n        /* \"#utility.yul\":5769:5774   */\n      dup3\n        /* \"#utility.yul\":5765:5781   */\n      add\n        /* \"#utility.yul\":5759:5782   */\n      mload\n        /* \"#utility.yul\":5795:5854   */\n      tag_374\n        /* \"#utility.yul\":5848:5852   */\n      0x60\n        /* \"#utility.yul\":5843:5846   */\n      dup6\n        /* \"#utility.yul\":5839:5853   */\n      add\n        /* \"#utility.yul\":5825:5837   */\n      dup3\n        /* \"#utility.yul\":5795:5854   */\n      tag_265\n      jump\t// in\n    tag_374:\n        /* \"#utility.yul\":5703:5864   */\n      pop\n        /* \"#utility.yul\":5951:5955   */\n      0x80\n        /* \"#utility.yul\":5944:5949   */\n      dup3\n        /* \"#utility.yul\":5940:5956   */\n      add\n        /* \"#utility.yul\":5934:5957   */\n      mload\n        /* \"#utility.yul\":5970:6027   */\n      tag_375\n        /* \"#utility.yul\":6021:6025   */\n      0x80\n        /* \"#utility.yul\":6016:6019   */\n      dup6\n        /* \"#utility.yul\":6012:6026   */\n      add\n        /* \"#utility.yul\":5998:6010   */\n      dup3\n        /* \"#utility.yul\":5970:6027   */\n      tag_267\n      jump\t// in\n    tag_375:\n        /* \"#utility.yul\":5874:6037   */\n      pop\n        /* \"#utility.yul\":6123:6127   */\n      0xa0\n        /* \"#utility.yul\":6116:6121   */\n      dup3\n        /* \"#utility.yul\":6112:6128   */\n      add\n        /* \"#utility.yul\":6106:6129   */\n      mload\n        /* \"#utility.yul\":6142:6199   */\n      tag_376\n        /* \"#utility.yul\":6193:6197   */\n      0xa0\n        /* \"#utility.yul\":6188:6191   */\n      dup6\n        /* \"#utility.yul\":6184:6198   */\n      add\n        /* \"#utility.yul\":6170:6182   */\n      dup3\n        /* \"#utility.yul\":6142:6199   */\n      tag_267\n      jump\t// in\n    tag_376:\n        /* \"#utility.yul\":6047:6209   */\n      pop\n        /* \"#utility.yul\":5125:6216   */\n      pop\n        /* \"#utility.yul\":5027:6216   */\n      pop\n      pop\n      jump\t// out\n        /* \"#utility.yul\":6222:6485   */\n    tag_269:\n        /* \"#utility.yul\":6333:6343   */\n      0x00\n        /* \"#utility.yul\":6354:6442   */\n      tag_378\n        /* \"#utility.yul\":6438:6441   */\n      dup4\n        /* \"#utility.yul\":6430:6436   */\n      dup4\n        /* \"#utility.yul\":6354:6442   */\n      tag_268\n      jump\t// in\n    tag_378:\n        /* \"#utility.yul\":6474:6478   */\n      0xc0\n        /* \"#utility.yul\":6469:6472   */\n      dup4\n        /* \"#utility.yul\":6465:6479   */\n      add\n        /* \"#utility.yul\":6451:6479   */\n      swap1\n      pop\n        /* \"#utility.yul\":6222:6485   */\n      swap3\n      swap2\n      pop\n      pop\n      jump\t// out\n        /* \"#utility.yul\":6491:6625   */\n    tag_270:\n        /* \"#utility.yul\":6582:6586   */\n      0x00\n        /* \"#utility.yul\":6614:6618   */\n      0x20\n        /* \"#utility.yul\":6609:6612   */\n      dup3\n        /* \"#utility.yul\":6605:6619   */\n      add\n        /* \"#utility.yul\":6597:6619   */\n      swap1\n      pop\n        /* \"#utility.yul\":6491:6625   */\n      swap2\n      swap1\n      pop\n      jump\t// out\n        /* \"#utility.yul\":6681:7581   */\n    tag_271:\n        /* \"#utility.yul\":6842:6845   */\n      0x00\n        /* \"#utility.yul\":6871:6946   */\n      tag_381\n        /* \"#utility.yul\":6940:6945   */\n      dup3\n        /* \"#utility.yul\":6871:6946   */\n      tag_260\n      jump\t// in\n    tag_381:\n        /* \"#utility.yul\":6962:7069   */\n      tag_382\n        /* \"#utility.yul\":7062:7068   */\n      dup2\n        /* \"#utility.yul\":7057:7060   */\n      dup6\n        /* \"#utility.yul\":6962:7069   */\n      tag_261\n      jump\t// in\n    tag_382:\n        /* \"#utility.yul\":6955:7069   */\n      swap4\n      pop\n        /* \"#utility.yul\":7093:7170   */\n      tag_383\n        /* \"#utility.yul\":7164:7169   */\n      dup4\n        /* \"#utility.yul\":7093:7170   */\n      tag_262\n      jump\t// in\n    tag_383:\n        /* \"#utility.yul\":7193:7200   */\n      dup1\n        /* \"#utility.yul\":7224:7225   */\n      0x00\n        /* \"#utility.yul\":7209:7556   */\n    tag_384:\n        /* \"#utility.yul\":7234:7240   */\n      dup4\n        /* \"#utility.yul\":7231:7232   */\n      dup2\n        /* \"#utility.yul\":7228:7241   */\n      lt\n        /* \"#utility.yul\":7209:7556   */\n      iszero\n      tag_386\n      jumpi\n        /* \"#utility.yul\":7310:7316   */\n      dup2\n        /* \"#utility.yul\":7304:7317   */\n      mload\n        /* \"#utility.yul\":7337:7442   */\n      tag_387\n        /* \"#utility.yul\":7438:7441   */\n      dup9\n        /* \"#utility.yul\":7423:7436   */\n      dup3\n        /* \"#utility.yul\":7337:7442   */\n      tag_269\n      jump\t// in\n    tag_387:\n        /* \"#utility.yul\":7330:7442   */\n      swap8\n      pop\n        /* \"#utility.yul\":7465:7546   */\n      tag_388\n        /* \"#utility.yul\":7539:7545   */\n      dup4\n        /* \"#utility.yul\":7465:7546   */\n      tag_270\n      jump\t// in\n    tag_388:\n        /* \"#utility.yul\":7455:7546   */\n      swap3\n      pop\n        /* \"#utility.yul\":7269:7556   */\n      pop\n        /* \"#utility.yul\":7256:7257   */\n      0x01\n        /* \"#utility.yul\":7253:7254   */\n      dup2\n        /* \"#utility.yul\":7249:7258   */\n      add\n        /* \"#utility.yul\":7244:7258   */\n      swap1\n      pop\n        /* \"#utility.yul\":7209:7556   */\n      jump(tag_384)\n    tag_386:\n        /* \"#utility.yul\":7213:7227   */\n      pop\n        /* \"#utility.yul\":7572:7575   */\n      dup6\n        /* \"#utility.yul\":7565:7575   */\n      swap4\n      pop\n        /* \"#utility.yul\":6847:7581   */\n      pop\n      pop\n      pop\n        /* \"#utility.yul\":6681:7581   */\n      swap3\n      swap2\n      pop\n      pop\n      jump\t// out\n        /* \"#utility.yul\":7587:8044   */\n    tag_33:\n        /* \"#utility.yul\":7772:7776   */\n      0x00\n        /* \"#utility.yul\":7810:7812   */\n      0x20\n        /* \"#utility.yul\":7799:7808   */\n      dup3\n        /* \"#utility.yul\":7795:7813   */\n      add\n        /* \"#utility.yul\":7787:7813   */\n      swap1\n      pop\n        /* \"#utility.yul\":7859:7868   */\n      dup2\n        /* \"#utility.yul\":7853:7857   */\n      dup2\n        /* \"#utility.yul\":7849:7869   */\n      sub\n        /* \"#utility.yul\":7845:7846   */\n      0x00\n        /* \"#utility.yul\":7834:7843   */\n      dup4\n        /* \"#utility.yul\":7830:7847   */\n      add\n        /* \"#utility.yul\":7823:7870   */\n      mstore\n        /* \"#utility.yul\":7887:8037   */\n      tag_390\n        /* \"#utility.yul\":8032:8036   */\n      dup2\n        /* \"#utility.yul\":8023:8029   */\n      dup5\n        /* \"#utility.yul\":7887:8037   */\n      tag_271\n      jump\t// in\n    tag_390:\n        /* \"#utility.yul\":7879:8037   */\n      swap1\n      pop\n        /* \"#utility.yul\":7587:8044   */\n      swap3\n      swap2\n      pop\n      pop\n      jump\t// out\n        /* \"#utility.yul\":8050:8520   */\n    tag_36:\n        /* \"#utility.yul\":8116:8122   */\n      0x00\n        /* \"#utility.yul\":8124:8130   */\n      dup1\n        /* \"#utility.yul\":8173:8175   */\n      0x40\n        /* \"#utility.yul\":8161:8170   */\n      dup4\n        /* \"#utility.yul\":8152:8159   */\n      dup6\n        /* \"#utility.yul\":8148:8171   */\n      sub\n        /* \"#utility.yul\":8144:8176   */\n      slt\n        /* \"#utility.yul\":8141:8260   */\n      iszero\n      tag_392\n      jumpi\n        /* \"#utility.yul\":8179:8258   */\n      tag_393\n      tag_243\n      jump\t// in\n    tag_393:\n        /* \"#utility.yul\":8141:8260   */\n    tag_392:\n        /* \"#utility.yul\":8299:8300   */\n      0x00\n        /* \"#utility.yul\":8324:8375   */\n      tag_394\n        /* \"#utility.yul\":8367:8374   */\n      dup6\n        /* \"#utility.yul\":8358:8364   */\n      dup3\n        /* \"#utility.yul\":8347:8356   */\n      dup7\n        /* \"#utility.yul\":8343:8365   */\n      add\n        /* \"#utility.yul\":8324:8375   */\n      tag_259\n      jump\t// in\n    tag_394:\n        /* \"#utility.yul\":8314:8375   */\n      swap3\n      pop\n        /* \"#utility.yul\":8270:8385   */\n      pop\n        /* \"#utility.yul\":8424:8426   */\n      0x20\n        /* \"#utility.yul\":8450:8503   */\n      tag_395\n        /* \"#utility.yul\":8495:8502   */\n      dup6\n        /* \"#utility.yul\":8486:8492   */\n      dup3\n        /* \"#utility.yul\":8475:8484   */\n      dup7\n        /* \"#utility.yul\":8471:8493   */\n      add\n        /* \"#utility.yul\":8450:8503   */\n      tag_256\n      jump\t// in\n    tag_395:\n        /* \"#utility.yul\":8440:8503   */\n      swap2\n      pop\n        /* \"#utility.yul\":8395:8513   */\n      pop\n        /* \"#utility.yul\":8050:8520   */\n      swap3\n      pop\n      swap3\n      swap1\n      pop\n      jump\t// out\n        /* \"#utility.yul\":8526:9315   */\n    tag_41:\n        /* \"#utility.yul\":8624:8630   */\n      0x00\n        /* \"#utility.yul\":8632:8638   */\n      dup1\n        /* \"#utility.yul\":8640:8646   */\n      0x00\n        /* \"#utility.yul\":8648:8654   */\n      dup1\n        /* \"#utility.yul\":8697:8700   */\n      0x80\n        /* \"#utility.yul\":8685:8694   */\n      dup6\n        /* \"#utility.yul\":8676:8683   */\n      dup8\n        /* \"#utility.yul\":8672:8695   */\n      sub\n        /* \"#utility.yul\":8668:8701   */\n      slt\n        /* \"#utility.yul\":8665:8785   */\n      iszero\n      tag_397\n      jumpi\n        /* \"#utility.yul\":8704:8783   */\n      tag_398\n      tag_243\n      jump\t// in\n    tag_398:\n        /* \"#utility.yul\":8665:8785   */\n    tag_397:\n        /* \"#utility.yul\":8824:8825   */\n      0x00\n        /* \"#utility.yul\":8849:8916   */\n      tag_399\n        /* \"#utility.yul\":8908:8915   */\n      dup8\n        /* \"#utility.yul\":8899:8905   */\n      dup3\n        /* \"#utility.yul\":8888:8897   */\n      dup9\n        /* \"#utility.yul\":8884:8906   */\n      add\n        /* \"#utility.yul\":8849:8916   */\n      tag_249\n      jump\t// in\n    tag_399:\n        /* \"#utility.yul\":8839:8916   */\n      swap5\n      pop\n        /* \"#utility.yul\":8795:8926   */\n      pop\n        /* \"#utility.yul\":8965:8967   */\n      0x20\n        /* \"#utility.yul\":8991:9044   */\n      tag_400\n        /* \"#utility.yul\":9036:9043   */\n      dup8\n        /* \"#utility.yul\":9027:9033   */\n      dup3\n        /* \"#utility.yul\":9016:9025   */\n      dup9\n        /* \"#utility.yul\":9012:9034   */\n      add\n        /* \"#utility.yul\":8991:9044   */\n      tag_256\n      jump\t// in\n    tag_400:\n        /* \"#utility.yul\":8981:9044   */\n      swap4\n      pop\n        /* \"#utility.yul\":8936:9054   */\n      pop\n        /* \"#utility.yul\":9093:9095   */\n      0x40\n        /* \"#utility.yul\":9119:9170   */\n      tag_401\n        /* \"#utility.yul\":9162:9169   */\n      dup8\n        /* \"#utility.yul\":9153:9159   */\n      dup3\n        /* \"#utility.yul\":9142:9151   */\n      dup9\n        /* \"#utility.yul\":9138:9160   */\n      add\n        /* \"#utility.yul\":9119:9170   */\n      tag_259\n      jump\t// in\n    tag_401:\n        /* \"#utility.yul\":9109:9170   */\n      swap3\n      pop\n        /* \"#utility.yul\":9064:9180   */\n      pop\n        /* \"#utility.yul\":9219:9221   */\n      0x60\n        /* \"#utility.yul\":9245:9298   */\n      tag_402\n        /* \"#utility.yul\":9290:9297   */\n      dup8\n        /* \"#utility.yul\":9281:9287   */\n      dup3\n        /* \"#utility.yul\":9270:9279   */\n      dup9\n        /* \"#utility.yul\":9266:9288   */\n      add\n        /* \"#utility.yul\":9245:9298   */\n      tag_256\n      jump\t// in\n    tag_402:\n        /* \"#utility.yul\":9235:9298   */\n      swap2\n      pop\n        /* \"#utility.yul\":9190:9308   */\n      pop\n        /* \"#utility.yul\":8526:9315   */\n      swap3\n      swap6\n      swap2\n      swap5\n      pop\n      swap3\n      pop\n      jump\t// out\n        /* \"#utility.yul\":9321:9439   */\n    tag_272:\n        /* \"#utility.yul\":9408:9432   */\n      tag_404\n        /* \"#utility.yul\":9426:9431   */\n      dup2\n        /* \"#utility.yul\":9408:9432   */\n      tag_246\n      jump\t// in\n    tag_404:\n        /* \"#utility.yul\":9403:9406   */\n      dup3\n        /* \"#utility.yul\":9396:9433   */\n      mstore\n        /* \"#utility.yul\":9321:9439   */\n      pop\n      pop\n      jump\t// out\n        /* \"#utility.yul\":9445:9667   */\n    tag_54:\n        /* \"#utility.yul\":9538:9542   */\n      0x00\n        /* \"#utility.yul\":9576:9578   */\n      0x20\n        /* \"#utility.yul\":9565:9574   */\n      dup3\n        /* \"#utility.yul\":9561:9579   */\n      add\n        /* \"#utility.yul\":9553:9579   */\n      swap1\n      pop\n        /* \"#utility.yul\":9589:9660   */\n      tag_406\n        /* \"#utility.yul\":9657:9658   */\n      0x00\n        /* \"#utility.yul\":9646:9655   */\n      dup4\n        /* \"#utility.yul\":9642:9659   */\n      add\n        /* \"#utility.yul\":9633:9639   */\n      dup5\n        /* \"#utility.yul\":9589:9660   */\n      tag_272\n      jump\t// in\n    tag_406:\n        /* \"#utility.yul\":9445:9667   */\n      swap3\n      swap2\n      pop\n      pop\n      jump\t// out\n        /* \"#utility.yul\":9673:9795   */\n    tag_273:\n        /* \"#utility.yul\":9746:9770   */\n      tag_408\n        /* \"#utility.yul\":9764:9769   */\n      dup2\n        /* \"#utility.yul\":9746:9770   */\n      tag_246\n      jump\t// in\n    tag_408:\n        /* \"#utility.yul\":9739:9744   */\n      dup2\n        /* \"#utility.yul\":9736:9771   */\n      eq\n        /* \"#utility.yul\":9726:9789   */\n      tag_409\n      jumpi\n        /* \"#utility.yul\":9785:9786   */\n      0x00\n        /* \"#utility.yul\":9782:9783   */\n      dup1\n        /* \"#utility.yul\":9775:9787   */\n      revert\n        /* \"#utility.yul\":9726:9789   */\n    tag_409:\n        /* \"#utility.yul\":9673:9795   */\n      pop\n      jump\t// out\n        /* \"#utility.yul\":9801:9940   */\n    tag_274:\n        /* \"#utility.yul\":9847:9852   */\n      0x00\n        /* \"#utility.yul\":9885:9891   */\n      dup2\n        /* \"#utility.yul\":9872:9892   */\n      calldataload\n        /* \"#utility.yul\":9863:9892   */\n      swap1\n      pop\n        /* \"#utility.yul\":9901:9934   */\n      tag_411\n        /* \"#utility.yul\":9928:9933   */\n      dup2\n        /* \"#utility.yul\":9901:9934   */\n      tag_273\n      jump\t// in\n    tag_411:\n        /* \"#utility.yul\":9801:9940   */\n      swap3\n      swap2\n      pop\n      pop\n      jump\t// out\n        /* \"#utility.yul\":9946:10561   */\n    tag_58:\n        /* \"#utility.yul\":10021:10027   */\n      0x00\n        /* \"#utility.yul\":10029:10035   */\n      dup1\n        /* \"#utility.yul\":10037:10043   */\n      0x00\n        /* \"#utility.yul\":10086:10088   */\n      0x60\n        /* \"#utility.yul\":10074:10083   */\n      dup5\n        /* \"#utility.yul\":10065:10072   */\n      dup7\n        /* \"#utility.yul\":10061:10084   */\n      sub\n        /* \"#utility.yul\":10057:10089   */\n      slt\n        /* \"#utility.yul\":10054:10173   */\n      iszero\n      tag_413\n      jumpi\n        /* \"#utility.yul\":10092:10171   */\n      tag_414\n      tag_243\n      jump\t// in\n    tag_414:\n        /* \"#utility.yul\":10054:10173   */\n    tag_413:\n        /* \"#utility.yul\":10212:10213   */\n      0x00\n        /* \"#utility.yul\":10237:10290   */\n      tag_415\n        /* \"#utility.yul\":10282:10289   */\n      dup7\n        /* \"#utility.yul\":10273:10279   */\n      dup3\n        /* \"#utility.yul\":10262:10271   */\n      dup8\n        /* \"#utility.yul\":10258:10280   */\n      add\n        /* \"#utility.yul\":10237:10290   */\n      tag_274\n      jump\t// in\n    tag_415:\n        /* \"#utility.yul\":10227:10290   */\n      swap4\n      pop\n        /* \"#utility.yul\":10183:10300   */\n      pop\n        /* \"#utility.yul\":10339:10341   */\n      0x20\n        /* \"#utility.yul\":10365:10416   */\n      tag_416\n        /* \"#utility.yul\":10408:10415   */\n      dup7\n        /* \"#utility.yul\":10399:10405   */\n      dup3\n        /* \"#utility.yul\":10388:10397   */\n      dup8\n        /* \"#utility.yul\":10384:10406   */\n      add\n        /* \"#utility.yul\":10365:10416   */\n      tag_259\n      jump\t// in\n    tag_416:\n        /* \"#utility.yul\":10355:10416   */\n      swap3\n      pop\n        /* \"#utility.yul\":10310:10426   */\n      pop\n        /* \"#utility.yul\":10465:10467   */\n      0x40\n        /* \"#utility.yul\":10491:10544   */\n      tag_417\n        /* \"#utility.yul\":10536:10543   */\n      dup7\n        /* \"#utility.yul\":10527:10533   */\n      dup3\n        /* \"#utility.yul\":10516:10525   */\n      dup8\n        /* \"#utility.yul\":10512:10534   */\n      add\n        /* \"#utility.yul\":10491:10544   */\n      tag_256\n      jump\t// in\n    tag_417:\n        /* \"#utility.yul\":10481:10544   */\n      swap2\n      pop\n        /* \"#utility.yul\":10436:10554   */\n      pop\n        /* \"#utility.yul\":9946:10561   */\n      swap3\n      pop\n      swap3\n      pop\n      swap3\n      jump\t// out\n        /* \"#utility.yul\":10567:10679   */\n    tag_275:\n        /* \"#utility.yul\":10650:10672   */\n      tag_419\n        /* \"#utility.yul\":10666:10671   */\n      dup2\n        /* \"#utility.yul\":10650:10672   */\n      tag_257\n      jump\t// in\n    tag_419:\n        /* \"#utility.yul\":10645:10648   */\n      dup3\n        /* \"#utility.yul\":10638:10673   */\n      mstore\n        /* \"#utility.yul\":10567:10679   */\n      pop\n      pop\n      jump\t// out\n        /* \"#utility.yul\":10685:10794   */\n    tag_276:\n        /* \"#utility.yul\":10766:10787   */\n      tag_421\n        /* \"#utility.yul\":10781:10786   */\n      dup2\n        /* \"#utility.yul\":10766:10787   */\n      tag_266\n      jump\t// in\n    tag_421:\n        /* \"#utility.yul\":10761:10764   */\n      dup3\n        /* \"#utility.yul\":10754:10788   */\n      mstore\n        /* \"#utility.yul\":10685:10794   */\n      pop\n      pop\n      jump\t// out\n        /* \"#utility.yul\":10800:11543   */\n    tag_61:\n        /* \"#utility.yul\":11017:11021   */\n      0x00\n        /* \"#utility.yul\":11055:11058   */\n      0xc0\n        /* \"#utility.yul\":11044:11053   */\n      dup3\n        /* \"#utility.yul\":11040:11059   */\n      add\n        /* \"#utility.yul\":11032:11059   */\n      swap1\n      pop\n        /* \"#utility.yul\":11069:11140   */\n      tag_423\n        /* \"#utility.yul\":11137:11138   */\n      0x00\n        /* \"#utility.yul\":11126:11135   */\n      dup4\n        /* \"#utility.yul\":11122:11139   */\n      add\n        /* \"#utility.yul\":11113:11119   */\n      dup10\n        /* \"#utility.yul\":11069:11140   */\n      tag_272\n      jump\t// in\n    tag_423:\n        /* \"#utility.yul\":11150:11222   */\n      tag_424\n        /* \"#utility.yul\":11218:11220   */\n      0x20\n        /* \"#utility.yul\":11207:11216   */\n      dup4\n        /* \"#utility.yul\":11203:11221   */\n      add\n        /* \"#utility.yul\":11194:11200   */\n      dup9\n        /* \"#utility.yul\":11150:11222   */\n      tag_251\n      jump\t// in\n    tag_424:\n        /* \"#utility.yul\":11232:11304   */\n      tag_425\n        /* \"#utility.yul\":11300:11302   */\n      0x40\n        /* \"#utility.yul\":11289:11298   */\n      dup4\n        /* \"#utility.yul\":11285:11303   */\n      add\n        /* \"#utility.yul\":11276:11282   */\n      dup8\n        /* \"#utility.yul\":11232:11304   */\n      tag_251\n      jump\t// in\n    tag_425:\n        /* \"#utility.yul\":11314:11382   */\n      tag_426\n        /* \"#utility.yul\":11378:11380   */\n      0x60\n        /* \"#utility.yul\":11367:11376   */\n      dup4\n        /* \"#utility.yul\":11363:11381   */\n      add\n        /* \"#utility.yul\":11354:11360   */\n      dup7\n        /* \"#utility.yul\":11314:11382   */\n      tag_275\n      jump\t// in\n    tag_426:\n        /* \"#utility.yul\":11392:11459   */\n      tag_427\n        /* \"#utility.yul\":11454:11457   */\n      0x80\n        /* \"#utility.yul\":11443:11452   */\n      dup4\n        /* \"#utility.yul\":11439:11458   */\n      add\n        /* \"#utility.yul\":11430:11436   */\n      dup6\n        /* \"#utility.yul\":11392:11459   */\n      tag_276\n      jump\t// in\n    tag_427:\n        /* \"#utility.yul\":11469:11536   */\n      tag_428\n        /* \"#utility.yul\":11531:11534   */\n      0xa0\n        /* \"#utility.yul\":11520:11529   */\n      dup4\n        /* \"#utility.yul\":11516:11535   */\n      add\n        /* \"#utility.yul\":11507:11513   */\n      dup5\n        /* \"#utility.yul\":11469:11536   */\n      tag_276\n      jump\t// in\n    tag_428:\n        /* \"#utility.yul\":10800:11543   */\n      swap8\n      swap7\n      pop\n      pop\n      pop\n      pop\n      pop\n      pop\n      pop\n      jump\t// out\n        /* \"#utility.yul\":11549:12162   */\n    tag_65:\n        /* \"#utility.yul\":11623:11629   */\n      0x00\n        /* \"#utility.yul\":11631:11637   */\n      dup1\n        /* \"#utility.yul\":11639:11645   */\n      0x00\n        /* \"#utility.yul\":11688:11690   */\n      0x60\n        /* \"#utility.yul\":11676:11685   */\n      dup5\n        /* \"#utility.yul\":11667:11674   */\n      dup7\n        /* \"#utility.yul\":11663:11686   */\n      sub\n        /* \"#utility.yul\":11659:11691   */\n      slt\n        /* \"#utility.yul\":11656:11775   */\n      iszero\n      tag_430\n      jumpi\n        /* \"#utility.yul\":11694:11773   */\n      tag_431\n      tag_243\n      jump\t// in\n    tag_431:\n        /* \"#utility.yul\":11656:11775   */\n    tag_430:\n        /* \"#utility.yul\":11814:11815   */\n      0x00\n        /* \"#utility.yul\":11839:11891   */\n      tag_432\n        /* \"#utility.yul\":11883:11890   */\n      dup7\n        /* \"#utility.yul\":11874:11880   */\n      dup3\n        /* \"#utility.yul\":11863:11872   */\n      dup8\n        /* \"#utility.yul\":11859:11881   */\n      add\n        /* \"#utility.yul\":11839:11891   */\n      tag_254\n      jump\t// in\n    tag_432:\n        /* \"#utility.yul\":11829:11891   */\n      swap4\n      pop\n        /* \"#utility.yul\":11785:11901   */\n      pop\n        /* \"#utility.yul\":11940:11942   */\n      0x20\n        /* \"#utility.yul\":11966:12017   */\n      tag_433\n        /* \"#utility.yul\":12009:12016   */\n      dup7\n        /* \"#utility.yul\":12000:12006   */\n      dup3\n        /* \"#utility.yul\":11989:11998   */\n      dup8\n        /* \"#utility.yul\":11985:12007   */\n      add\n        /* \"#utility.yul\":11966:12017   */\n      tag_259\n      jump\t// in\n    tag_433:\n        /* \"#utility.yul\":11956:12017   */\n      swap3\n      pop\n        /* \"#utility.yul\":11911:12027   */\n      pop\n        /* \"#utility.yul\":12066:12068   */\n      0x40\n        /* \"#utility.yul\":12092:12145   */\n      tag_434\n        /* \"#utility.yul\":12137:12144   */\n      dup7\n        /* \"#utility.yul\":12128:12134   */\n      dup3\n        /* \"#utility.yul\":12117:12126   */\n      dup8\n        /* \"#utility.yul\":12113:12135   */\n      add\n        /* \"#utility.yul\":12092:12145   */\n      tag_256\n      jump\t// in\n    tag_434:\n        /* \"#utility.yul\":12082:12145   */\n      swap2\n      pop\n        /* \"#utility.yul\":12037:12155   */\n      pop\n        /* \"#utility.yul\":11549:12162   */\n      swap3\n      pop\n      swap3\n      pop\n      swap3\n      jump\t// out\n        /* \"#utility.yul\":12168:12636   */\n    tag_69:\n        /* \"#utility.yul\":12233:12239   */\n      0x00\n        /* \"#utility.yul\":12241:12247   */\n      dup1\n        /* \"#utility.yul\":12290:12292   */\n      0x40\n        /* \"#utility.yul\":12278:12287   */\n      dup4\n        /* \"#utility.yul\":12269:12276   */\n      dup6\n        /* \"#utility.yul\":12265:12288   */\n      sub\n        /* \"#utility.yul\":12261:12293   */\n      slt\n        /* \"#utility.yul\":12258:12377   */\n      iszero\n      tag_436\n      jumpi\n        /* \"#utility.yul\":12296:12375   */\n      tag_437\n      tag_243\n      jump\t// in\n    tag_437:\n        /* \"#utility.yul\":12258:12377   */\n    tag_436:\n        /* \"#utility.yul\":12416:12417   */\n      0x00\n        /* \"#utility.yul\":12441:12492   */\n      tag_438\n        /* \"#utility.yul\":12484:12491   */\n      dup6\n        /* \"#utility.yul\":12475:12481   */\n      dup3\n        /* \"#utility.yul\":12464:12473   */\n      dup7\n        /* \"#utility.yul\":12460:12482   */\n      add\n        /* \"#utility.yul\":12441:12492   */\n      tag_259\n      jump\t// in\n    tag_438:\n        /* \"#utility.yul\":12431:12492   */\n      swap3\n      pop\n        /* \"#utility.yul\":12387:12502   */\n      pop\n        /* \"#utility.yul\":12541:12543   */\n      0x20\n        /* \"#utility.yul\":12567:12619   */\n      tag_439\n        /* \"#utility.yul\":12611:12618   */\n      dup6\n        /* \"#utility.yul\":12602:12608   */\n      dup3\n        /* \"#utility.yul\":12591:12600   */\n      dup7\n        /* \"#utility.yul\":12587:12609   */\n      add\n        /* \"#utility.yul\":12567:12619   */\n      tag_254\n      jump\t// in\n    tag_439:\n        /* \"#utility.yul\":12557:12619   */\n      swap2\n      pop\n        /* \"#utility.yul\":12512:12629   */\n      pop\n        /* \"#utility.yul\":12168:12636   */\n      swap3\n      pop\n      swap3\n      swap1\n      pop\n      jump\t// out\n        /* \"#utility.yul\":12642:12971   */\n    tag_74:\n        /* \"#utility.yul\":12701:12707   */\n      0x00\n        /* \"#utility.yul\":12750:12752   */\n      0x20\n        /* \"#utility.yul\":12738:12747   */\n      dup3\n        /* \"#utility.yul\":12729:12736   */\n      dup5\n        /* \"#utility.yul\":12725:12748   */\n      sub\n        /* \"#utility.yul\":12721:12753   */\n      slt\n        /* \"#utility.yul\":12718:12837   */\n      iszero\n      tag_441\n      jumpi\n        /* \"#utility.yul\":12756:12835   */\n      tag_442\n      tag_243\n      jump\t// in\n    tag_442:\n        /* \"#utility.yul\":12718:12837   */\n    tag_441:\n        /* \"#utility.yul\":12876:12877   */\n      0x00\n        /* \"#utility.yul\":12901:12954   */\n      tag_443\n        /* \"#utility.yul\":12946:12953   */\n      dup5\n        /* \"#utility.yul\":12937:12943   */\n      dup3\n        /* \"#utility.yul\":12926:12935   */\n      dup6\n        /* \"#utility.yul\":12922:12944   */\n      add\n        /* \"#utility.yul\":12901:12954   */\n      tag_274\n      jump\t// in\n    tag_443:\n        /* \"#utility.yul\":12891:12954   */\n      swap2\n      pop\n        /* \"#utility.yul\":12847:12964   */\n      pop\n        /* \"#utility.yul\":12642:12971   */\n      swap3\n      swap2\n      pop\n      pop\n      jump\t// out\n        /* \"#utility.yul\":12977:13120   */\n    tag_277:\n        /* \"#utility.yul\":13034:13039   */\n      0x00\n        /* \"#utility.yul\":13065:13071   */\n      dup2\n        /* \"#utility.yul\":13059:13072   */\n      mload\n        /* \"#utility.yul\":13050:13072   */\n      swap1\n      pop\n        /* \"#utility.yul\":13081:13114   */\n      tag_445\n        /* \"#utility.yul\":13108:13113   */\n      dup2\n        /* \"#utility.yul\":13081:13114   */\n      tag_255\n      jump\t// in\n    tag_445:\n        /* \"#utility.yul\":12977:13120   */\n      swap3\n      swap2\n      pop\n      pop\n      jump\t// out\n        /* \"#utility.yul\":13126:13477   */\n    tag_81:\n        /* \"#utility.yul\":13196:13202   */\n      0x00\n        /* \"#utility.yul\":13245:13247   */\n      0x20\n        /* \"#utility.yul\":13233:13242   */\n      dup3\n        /* \"#utility.yul\":13224:13231   */\n      dup5\n        /* \"#utility.yul\":13220:13243   */\n      sub\n        /* \"#utility.yul\":13216:13248   */\n      slt\n        /* \"#utility.yul\":13213:13332   */\n      iszero\n      tag_447\n      jumpi\n        /* \"#utility.yul\":13251:13330   */\n      tag_448\n      tag_243\n      jump\t// in\n    tag_448:\n        /* \"#utility.yul\":13213:13332   */\n    tag_447:\n        /* \"#utility.yul\":13371:13372   */\n      0x00\n        /* \"#utility.yul\":13396:13460   */\n      tag_449\n        /* \"#utility.yul\":13452:13459   */\n      dup5\n        /* \"#utility.yul\":13443:13449   */\n      dup3\n        /* \"#utility.yul\":13432:13441   */\n      dup6\n        /* \"#utility.yul\":13428:13450   */\n      add\n        /* \"#utility.yul\":13396:13460   */\n      tag_277\n      jump\t// in\n    tag_449:\n        /* \"#utility.yul\":13386:13460   */\n      swap2\n      pop\n        /* \"#utility.yul\":13342:13470   */\n      pop\n        /* \"#utility.yul\":13126:13477   */\n      swap3\n      swap2\n      pop\n      pop\n      jump\t// out\n        /* \"#utility.yul\":13483:13652   */\n    tag_278:\n        /* \"#utility.yul\":13567:13578   */\n      0x00\n        /* \"#utility.yul\":13601:13607   */\n      dup3\n        /* \"#utility.yul\":13596:13599   */\n      dup3\n        /* \"#utility.yul\":13589:13608   */\n      mstore\n        /* \"#utility.yul\":13641:13645   */\n      0x20\n        /* \"#utility.yul\":13636:13639   */\n      dup3\n        /* \"#utility.yul\":13632:13646   */\n      add\n        /* \"#utility.yul\":13617:13646   */\n      swap1\n      pop\n        /* \"#utility.yul\":13483:13652   */\n      swap3\n      swap2\n      pop\n      pop\n      jump\t// out\n        /* \"#utility.yul\":13658:13879   */\n    tag_279:\n        /* \"#utility.yul\":13798:13832   */\n      0x4d7573742070726f7669646520612076616c696420746f6b656e206164647265\n        /* \"#utility.yul\":13794:13795   */\n      0x00\n        /* \"#utility.yul\":13786:13792   */\n      dup3\n        /* \"#utility.yul\":13782:13796   */\n      add\n        /* \"#utility.yul\":13775:13833   */\n      mstore\n        /* \"#utility.yul\":13867:13871   */\n      0x7373000000000000000000000000000000000000000000000000000000000000\n        /* \"#utility.yul\":13862:13864   */\n      0x20\n        /* \"#utility.yul\":13854:13860   */\n      dup3\n        /* \"#utility.yul\":13850:13865   */\n      add\n        /* \"#utility.yul\":13843:13872   */\n      mstore\n        /* \"#utility.yul\":13658:13879   */\n      pop\n      jump\t// out\n        /* \"#utility.yul\":13885:14251   */\n    tag_280:\n        /* \"#utility.yul\":14027:14030   */\n      0x00\n        /* \"#utility.yul\":14048:14115   */\n      tag_453\n        /* \"#utility.yul\":14112:14114   */\n      0x22\n        /* \"#utility.yul\":14107:14110   */\n      dup4\n        /* \"#utility.yul\":14048:14115   */\n      tag_278\n      jump\t// in\n    tag_453:\n        /* \"#utility.yul\":14041:14115   */\n      swap2\n      pop\n        /* \"#utility.yul\":14124:14217   */\n      tag_454\n        /* \"#utility.yul\":14213:14216   */\n      dup3\n        /* \"#utility.yul\":14124:14217   */\n      tag_279\n      jump\t// in\n    tag_454:\n        /* \"#utility.yul\":14242:14244   */\n      0x40\n        /* \"#utility.yul\":14237:14240   */\n      dup3\n        /* \"#utility.yul\":14233:14245   */\n      add\n        /* \"#utility.yul\":14226:14245   */\n      swap1\n      pop\n        /* \"#utility.yul\":13885:14251   */\n      swap2\n      swap1\n      pop\n      jump\t// out\n        /* \"#utility.yul\":14257:14676   */\n    tag_88:\n        /* \"#utility.yul\":14423:14427   */\n      0x00\n        /* \"#utility.yul\":14461:14463   */\n      0x20\n        /* \"#utility.yul\":14450:14459   */\n      dup3\n        /* \"#utility.yul\":14446:14464   */\n      add\n        /* \"#utility.yul\":14438:14464   */\n      swap1\n      pop\n        /* \"#utility.yul\":14510:14519   */\n      dup2\n        /* \"#utility.yul\":14504:14508   */\n      dup2\n        /* \"#utility.yul\":14500:14520   */\n      sub\n        /* \"#utility.yul\":14496:14497   */\n      0x00\n        /* \"#utility.yul\":14485:14494   */\n      dup4\n        /* \"#utility.yul\":14481:14498   */\n      add\n        /* \"#utility.yul\":14474:14521   */\n      mstore\n        /* \"#utility.yul\":14538:14669   */\n      tag_456\n        /* \"#utility.yul\":14664:14668   */\n      dup2\n        /* \"#utility.yul\":14538:14669   */\n      tag_280\n      jump\t// in\n    tag_456:\n        /* \"#utility.yul\":14530:14669   */\n      swap1\n      pop\n        /* \"#utility.yul\":14257:14676   */\n      swap2\n      swap1\n      pop\n      jump\t// out\n        /* \"#utility.yul\":14682:14907   */\n    tag_281:\n        /* \"#utility.yul\":14822:14856   */\n      0x546f6b656e20616d6f756e74206d757374206265206772656174657220746865\n        /* \"#utility.yul\":14818:14819   */\n      0x00\n        /* \"#utility.yul\":14810:14816   */\n      dup3\n        /* \"#utility.yul\":14806:14820   */\n      add\n        /* \"#utility.yul\":14799:14857   */\n      mstore\n        /* \"#utility.yul\":14891:14899   */\n      0x6e207a65726f0000000000000000000000000000000000000000000000000000\n        /* \"#utility.yul\":14886:14888   */\n      0x20\n        /* \"#utility.yul\":14878:14884   */\n      dup3\n        /* \"#utility.yul\":14874:14889   */\n      add\n        /* \"#utility.yul\":14867:14900   */\n      mstore\n        /* \"#utility.yul\":14682:14907   */\n      pop\n      jump\t// out\n        /* \"#utility.yul\":14913:15279   */\n    tag_282:\n        /* \"#utility.yul\":15055:15058   */\n      0x00\n        /* \"#utility.yul\":15076:15143   */\n      tag_459\n        /* \"#utility.yul\":15140:15142   */\n      0x26\n        /* \"#utility.yul\":15135:15138   */\n      dup4\n        /* \"#utility.yul\":15076:15143   */\n      tag_278\n      jump\t// in\n    tag_459:\n        /* \"#utility.yul\":15069:15143   */\n      swap2\n      pop\n        /* \"#utility.yul\":15152:15245   */\n      tag_460\n        /* \"#utility.yul\":15241:15244   */\n      dup3\n        /* \"#utility.yul\":15152:15245   */\n      tag_281\n      jump\t// in\n    tag_460:\n        /* \"#utility.yul\":15270:15272   */\n      0x40\n        /* \"#utility.yul\":15265:15268   */\n      dup3\n        /* \"#utility.yul\":15261:15273   */\n      add\n        /* \"#utility.yul\":15254:15273   */\n      swap1\n      pop\n        /* \"#utility.yul\":14913:15279   */\n      swap2\n      swap1\n      pop\n      jump\t// out\n        /* \"#utility.yul\":15285:15704   */\n    tag_91:\n        /* \"#utility.yul\":15451:15455   */\n      0x00\n        /* \"#utility.yul\":15489:15491   */\n      0x20\n        /* \"#utility.yul\":15478:15487   */\n      dup3\n        /* \"#utility.yul\":15474:15492   */\n      add\n        /* \"#utility.yul\":15466:15492   */\n      swap1\n      pop\n        /* \"#utility.yul\":15538:15547   */\n      dup2\n        /* \"#utility.yul\":15532:15536   */\n      dup2\n        /* \"#utility.yul\":15528:15548   */\n      sub\n        /* \"#utility.yul\":15524:15525   */\n      0x00\n        /* \"#utility.yul\":15513:15522   */\n      dup4\n        /* \"#utility.yul\":15509:15526   */\n      add\n        /* \"#utility.yul\":15502:15549   */\n      mstore\n        /* \"#utility.yul\":15566:15697   */\n      tag_462\n        /* \"#utility.yul\":15692:15696   */\n      dup2\n        /* \"#utility.yul\":15566:15697   */\n      tag_282\n      jump\t// in\n    tag_462:\n        /* \"#utility.yul\":15558:15697   */\n      swap1\n      pop\n        /* \"#utility.yul\":15285:15704   */\n      swap2\n      swap1\n      pop\n      jump\t// out\n        /* \"#utility.yul\":15710:15890   */\n    tag_96:\n        /* \"#utility.yul\":15758:15835   */\n      0x4e487b7100000000000000000000000000000000000000000000000000000000\n        /* \"#utility.yul\":15755:15756   */\n      0x00\n        /* \"#utility.yul\":15748:15836   */\n      mstore\n        /* \"#utility.yul\":15855:15859   */\n      0x32\n        /* \"#utility.yul\":15852:15853   */\n      0x04\n        /* \"#utility.yul\":15845:15860   */\n      mstore\n        /* \"#utility.yul\":15879:15883   */\n      0x24\n        /* \"#utility.yul\":15876:15877   */\n      0x00\n        /* \"#utility.yul\":15869:15884   */\n      revert\n        /* \"#utility.yul\":15896:16076   */\n    tag_283:\n        /* \"#utility.yul\":15944:16021   */\n      0x4e487b7100000000000000000000000000000000000000000000000000000000\n        /* \"#utility.yul\":15941:15942   */\n      0x00\n        /* \"#utility.yul\":15934:16022   */\n      mstore\n        /* \"#utility.yul\":16041:16045   */\n      0x11\n        /* \"#utility.yul\":16038:16039   */\n      0x04\n        /* \"#utility.yul\":16031:16046   */\n      mstore\n        /* \"#utility.yul\":16065:16069   */\n      0x24\n        /* \"#utility.yul\":16062:16063   */\n      0x00\n        /* \"#utility.yul\":16055:16070   */\n      revert\n        /* \"#utility.yul\":16082:16273   */\n    tag_99:\n        /* \"#utility.yul\":16122:16125   */\n      0x00\n        /* \"#utility.yul\":16141:16161   */\n      tag_466\n        /* \"#utility.yul\":16159:16160   */\n      dup3\n        /* \"#utility.yul\":16141:16161   */\n      tag_250\n      jump\t// in\n    tag_466:\n        /* \"#utility.yul\":16136:16161   */\n      swap2\n      pop\n        /* \"#utility.yul\":16175:16195   */\n      tag_467\n        /* \"#utility.yul\":16193:16194   */\n      dup4\n        /* \"#utility.yul\":16175:16195   */\n      tag_250\n      jump\t// in\n    tag_467:\n        /* \"#utility.yul\":16170:16195   */\n      swap3\n      pop\n        /* \"#utility.yul\":16218:16219   */\n      dup3\n        /* \"#utility.yul\":16215:16216   */\n      dup3\n        /* \"#utility.yul\":16211:16220   */\n      add\n        /* \"#utility.yul\":16204:16220   */\n      swap1\n      pop\n        /* \"#utility.yul\":16239:16242   */\n      dup1\n        /* \"#utility.yul\":16236:16237   */\n      dup3\n        /* \"#utility.yul\":16233:16243   */\n      gt\n        /* \"#utility.yul\":16230:16266   */\n      iszero\n      tag_468\n      jumpi\n        /* \"#utility.yul\":16246:16264   */\n      tag_469\n      tag_283\n      jump\t// in\n    tag_469:\n        /* \"#utility.yul\":16230:16266   */\n    tag_468:\n        /* \"#utility.yul\":16082:16273   */\n      swap3\n      swap2\n      pop\n      pop\n      jump\t// out\n        /* \"#utility.yul\":16279:16713   */\n    tag_101:\n        /* \"#utility.yul\":16424:16428   */\n      0x00\n        /* \"#utility.yul\":16462:16464   */\n      0x60\n        /* \"#utility.yul\":16451:16460   */\n      dup3\n        /* \"#utility.yul\":16447:16465   */\n      add\n        /* \"#utility.yul\":16439:16465   */\n      swap1\n      pop\n        /* \"#utility.yul\":16475:16546   */\n      tag_471\n        /* \"#utility.yul\":16543:16544   */\n      0x00\n        /* \"#utility.yul\":16532:16541   */\n      dup4\n        /* \"#utility.yul\":16528:16545   */\n      add\n        /* \"#utility.yul\":16519:16525   */\n      dup7\n        /* \"#utility.yul\":16475:16546   */\n      tag_251\n      jump\t// in\n    tag_471:\n        /* \"#utility.yul\":16556:16624   */\n      tag_472\n        /* \"#utility.yul\":16620:16622   */\n      0x20\n        /* \"#utility.yul\":16609:16618   */\n      dup4\n        /* \"#utility.yul\":16605:16623   */\n      add\n        /* \"#utility.yul\":16596:16602   */\n      dup6\n        /* \"#utility.yul\":16556:16624   */\n      tag_275\n      jump\t// in\n    tag_472:\n        /* \"#utility.yul\":16634:16706   */\n      tag_473\n        /* \"#utility.yul\":16702:16704   */\n      0x40\n        /* \"#utility.yul\":16691:16700   */\n      dup4\n        /* \"#utility.yul\":16687:16705   */\n      add\n        /* \"#utility.yul\":16678:16684   */\n      dup5\n        /* \"#utility.yul\":16634:16706   */\n      tag_251\n      jump\t// in\n    tag_473:\n        /* \"#utility.yul\":16279:16713   */\n      swap5\n      swap4\n      pop\n      pop\n      pop\n      pop\n      jump\t// out\n        /* \"#utility.yul\":16719:16945   */\n    tag_284:\n        /* \"#utility.yul\":16859:16893   */\n      0x45544820746f206c6f636b206d75737420612076616c75652067726561746572\n        /* \"#utility.yul\":16855:16856   */\n      0x00\n        /* \"#utility.yul\":16847:16853   */\n      dup3\n        /* \"#utility.yul\":16843:16857   */\n      add\n        /* \"#utility.yul\":16836:16894   */\n      mstore\n        /* \"#utility.yul\":16928:16937   */\n      0x207468616e203000000000000000000000000000000000000000000000000000\n        /* \"#utility.yul\":16923:16925   */\n      0x20\n        /* \"#utility.yul\":16915:16921   */\n      dup3\n        /* \"#utility.yul\":16911:16926   */\n      add\n        /* \"#utility.yul\":16904:16938   */\n      mstore\n        /* \"#utility.yul\":16719:16945   */\n      pop\n      jump\t// out\n        /* \"#utility.yul\":16951:17317   */\n    tag_285:\n        /* \"#utility.yul\":17093:17096   */\n      0x00\n        /* \"#utility.yul\":17114:17181   */\n      tag_476\n        /* \"#utility.yul\":17178:17180   */\n      0x27\n        /* \"#utility.yul\":17173:17176   */\n      dup4\n        /* \"#utility.yul\":17114:17181   */\n      tag_278\n      jump\t// in\n    tag_476:\n        /* \"#utility.yul\":17107:17181   */\n      swap2\n      pop\n        /* \"#utility.yul\":17190:17283   */\n      tag_477\n        /* \"#utility.yul\":17279:17282   */\n      dup3\n        /* \"#utility.yul\":17190:17283   */\n      tag_284\n      jump\t// in\n    tag_477:\n        /* \"#utility.yul\":17308:17310   */\n      0x40\n        /* \"#utility.yul\":17303:17306   */\n      dup3\n        /* \"#utility.yul\":17299:17311   */\n      add\n        /* \"#utility.yul\":17292:17311   */\n      swap1\n      pop\n        /* \"#utility.yul\":16951:17317   */\n      swap2\n      swap1\n      pop\n      jump\t// out\n        /* \"#utility.yul\":17323:17742   */\n    tag_113:\n        /* \"#utility.yul\":17489:17493   */\n      0x00\n        /* \"#utility.yul\":17527:17529   */\n      0x20\n        /* \"#utility.yul\":17516:17525   */\n      dup3\n        /* \"#utility.yul\":17512:17530   */\n      add\n        /* \"#utility.yul\":17504:17530   */\n      swap1\n      pop\n        /* \"#utility.yul\":17576:17585   */\n      dup2\n        /* \"#utility.yul\":17570:17574   */\n      dup2\n        /* \"#utility.yul\":17566:17586   */\n      sub\n        /* \"#utility.yul\":17562:17563   */\n      0x00\n        /* \"#utility.yul\":17551:17560   */\n      dup4\n        /* \"#utility.yul\":17547:17564   */\n      add\n        /* \"#utility.yul\":17540:17587   */\n      mstore\n        /* \"#utility.yul\":17604:17735   */\n      tag_479\n        /* \"#utility.yul\":17730:17734   */\n      dup2\n        /* \"#utility.yul\":17604:17735   */\n      tag_285\n      jump\t// in\n    tag_479:\n        /* \"#utility.yul\":17596:17735   */\n      swap1\n      pop\n        /* \"#utility.yul\":17323:17742   */\n      swap2\n      swap1\n      pop\n      jump\t// out\n        /* \"#utility.yul\":17748:17975   */\n    tag_286:\n        /* \"#utility.yul\":17888:17922   */\n      0x546865206c6f636b706572696f64206d75737420626520677265617465722074\n        /* \"#utility.yul\":17884:17885   */\n      0x00\n        /* \"#utility.yul\":17876:17882   */\n      dup3\n        /* \"#utility.yul\":17872:17886   */\n      add\n        /* \"#utility.yul\":17865:17923   */\n      mstore\n        /* \"#utility.yul\":17957:17967   */\n      0x68656e207a65726f000000000000000000000000000000000000000000000000\n        /* \"#utility.yul\":17952:17954   */\n      0x20\n        /* \"#utility.yul\":17944:17950   */\n      dup3\n        /* \"#utility.yul\":17940:17955   */\n      add\n        /* \"#utility.yul\":17933:17968   */\n      mstore\n        /* \"#utility.yul\":17748:17975   */\n      pop\n      jump\t// out\n        /* \"#utility.yul\":17981:18347   */\n    tag_287:\n        /* \"#utility.yul\":18123:18126   */\n      0x00\n        /* \"#utility.yul\":18144:18211   */\n      tag_482\n        /* \"#utility.yul\":18208:18210   */\n      0x28\n        /* \"#utility.yul\":18203:18206   */\n      dup4\n        /* \"#utility.yul\":18144:18211   */\n      tag_278\n      jump\t// in\n    tag_482:\n        /* \"#utility.yul\":18137:18211   */\n      swap2\n      pop\n        /* \"#utility.yul\":18220:18313   */\n      tag_483\n        /* \"#utility.yul\":18309:18312   */\n      dup3\n        /* \"#utility.yul\":18220:18313   */\n      tag_286\n      jump\t// in\n    tag_483:\n        /* \"#utility.yul\":18338:18340   */\n      0x40\n        /* \"#utility.yul\":18333:18336   */\n      dup3\n        /* \"#utility.yul\":18329:18341   */\n      add\n        /* \"#utility.yul\":18322:18341   */\n      swap1\n      pop\n        /* \"#utility.yul\":17981:18347   */\n      swap2\n      swap1\n      pop\n      jump\t// out\n        /* \"#utility.yul\":18353:18772   */\n    tag_116:\n        /* \"#utility.yul\":18519:18523   */\n      0x00\n        /* \"#utility.yul\":18557:18559   */\n      0x20\n        /* \"#utility.yul\":18546:18555   */\n      dup3\n        /* \"#utility.yul\":18542:18560   */\n      add\n        /* \"#utility.yul\":18534:18560   */\n      swap1\n      pop\n        /* \"#utility.yul\":18606:18615   */\n      dup2\n        /* \"#utility.yul\":18600:18604   */\n      dup2\n        /* \"#utility.yul\":18596:18616   */\n      sub\n        /* \"#utility.yul\":18592:18593   */\n      0x00\n        /* \"#utility.yul\":18581:18590   */\n      dup4\n        /* \"#utility.yul\":18577:18594   */\n      add\n        /* \"#utility.yul\":18570:18617   */\n      mstore\n        /* \"#utility.yul\":18634:18765   */\n      tag_485\n        /* \"#utility.yul\":18760:18764   */\n      dup2\n        /* \"#utility.yul\":18634:18765   */\n      tag_287\n      jump\t// in\n    tag_485:\n        /* \"#utility.yul\":18626:18765   */\n      swap1\n      pop\n        /* \"#utility.yul\":18353:18772   */\n      swap2\n      swap1\n      pop\n      jump\t// out\n        /* \"#utility.yul\":18778:19323   */\n    tag_121:\n        /* \"#utility.yul\":18951:18955   */\n      0x00\n        /* \"#utility.yul\":18989:18992   */\n      0x80\n        /* \"#utility.yul\":18978:18987   */\n      dup3\n        /* \"#utility.yul\":18974:18993   */\n      add\n        /* \"#utility.yul\":18966:18993   */\n      swap1\n      pop\n        /* \"#utility.yul\":19003:19074   */\n      tag_487\n        /* \"#utility.yul\":19071:19072   */\n      0x00\n        /* \"#utility.yul\":19060:19069   */\n      dup4\n        /* \"#utility.yul\":19056:19073   */\n      add\n        /* \"#utility.yul\":19047:19053   */\n      dup8\n        /* \"#utility.yul\":19003:19074   */\n      tag_251\n      jump\t// in\n    tag_487:\n        /* \"#utility.yul\":19084:19152   */\n      tag_488\n        /* \"#utility.yul\":19148:19150   */\n      0x20\n        /* \"#utility.yul\":19137:19146   */\n      dup4\n        /* \"#utility.yul\":19133:19151   */\n      add\n        /* \"#utility.yul\":19124:19130   */\n      dup7\n        /* \"#utility.yul\":19084:19152   */\n      tag_275\n      jump\t// in\n    tag_488:\n        /* \"#utility.yul\":19162:19234   */\n      tag_489\n        /* \"#utility.yul\":19230:19232   */\n      0x40\n        /* \"#utility.yul\":19219:19228   */\n      dup4\n        /* \"#utility.yul\":19215:19233   */\n      add\n        /* \"#utility.yul\":19206:19212   */\n      dup6\n        /* \"#utility.yul\":19162:19234   */\n      tag_251\n      jump\t// in\n    tag_489:\n        /* \"#utility.yul\":19244:19316   */\n      tag_490\n        /* \"#utility.yul\":19312:19314   */\n      0x60\n        /* \"#utility.yul\":19301:19310   */\n      dup4\n        /* \"#utility.yul\":19297:19315   */\n      add\n        /* \"#utility.yul\":19288:19294   */\n      dup5\n        /* \"#utility.yul\":19244:19316   */\n      tag_251\n      jump\t// in\n    tag_490:\n        /* \"#utility.yul\":18778:19323   */\n      swap6\n      swap5\n      pop\n      pop\n      pop\n      pop\n      pop\n      jump\t// out\n        /* \"#utility.yul\":19329:19557   */\n    tag_288:\n        /* \"#utility.yul\":19469:19503   */\n      0x546865206c6f636b20706572696f64206d757374206265206772656174657220\n        /* \"#utility.yul\":19465:19466   */\n      0x00\n        /* \"#utility.yul\":19457:19463   */\n      dup3\n        /* \"#utility.yul\":19453:19467   */\n      add\n        /* \"#utility.yul\":19446:19504   */\n      mstore\n        /* \"#utility.yul\":19538:19549   */\n      0x7468656e207a65726f0000000000000000000000000000000000000000000000\n        /* \"#utility.yul\":19533:19535   */\n      0x20\n        /* \"#utility.yul\":19525:19531   */\n      dup3\n        /* \"#utility.yul\":19521:19536   */\n      add\n        /* \"#utility.yul\":19514:19550   */\n      mstore\n        /* \"#utility.yul\":19329:19557   */\n      pop\n      jump\t// out\n        /* \"#utility.yul\":19563:19929   */\n    tag_289:\n        /* \"#utility.yul\":19705:19708   */\n      0x00\n        /* \"#utility.yul\":19726:19793   */\n      tag_493\n        /* \"#utility.yul\":19790:19792   */\n      0x29\n        /* \"#utility.yul\":19785:19788   */\n      dup4\n        /* \"#utility.yul\":19726:19793   */\n      tag_278\n      jump\t// in\n    tag_493:\n        /* \"#utility.yul\":19719:19793   */\n      swap2\n      pop\n        /* \"#utility.yul\":19802:19895   */\n      tag_494\n        /* \"#utility.yul\":19891:19894   */\n      dup3\n        /* \"#utility.yul\":19802:19895   */\n      tag_288\n      jump\t// in\n    tag_494:\n        /* \"#utility.yul\":19920:19922   */\n      0x40\n        /* \"#utility.yul\":19915:19918   */\n      dup3\n        /* \"#utility.yul\":19911:19923   */\n      add\n        /* \"#utility.yul\":19904:19923   */\n      swap1\n      pop\n        /* \"#utility.yul\":19563:19929   */\n      swap2\n      swap1\n      pop\n      jump\t// out\n        /* \"#utility.yul\":19935:20354   */\n    tag_132:\n        /* \"#utility.yul\":20101:20105   */\n      0x00\n        /* \"#utility.yul\":20139:20141   */\n      0x20\n        /* \"#utility.yul\":20128:20137   */\n      dup3\n        /* \"#utility.yul\":20124:20142   */\n      add\n        /* \"#utility.yul\":20116:20142   */\n      swap1\n      pop\n        /* \"#utility.yul\":20188:20197   */\n      dup2\n        /* \"#utility.yul\":20182:20186   */\n      dup2\n        /* \"#utility.yul\":20178:20198   */\n      sub\n        /* \"#utility.yul\":20174:20175   */\n      0x00\n        /* \"#utility.yul\":20163:20172   */\n      dup4\n        /* \"#utility.yul\":20159:20176   */\n      add\n        /* \"#utility.yul\":20152:20199   */\n      mstore\n        /* \"#utility.yul\":20216:20347   */\n      tag_496\n        /* \"#utility.yul\":20342:20346   */\n      dup2\n        /* \"#utility.yul\":20216:20347   */\n      tag_289\n      jump\t// in\n    tag_496:\n        /* \"#utility.yul\":20208:20347   */\n      swap1\n      pop\n        /* \"#utility.yul\":19935:20354   */\n      swap2\n      swap1\n      pop\n      jump\t// out\n        /* \"#utility.yul\":20360:20535   */\n    tag_290:\n        /* \"#utility.yul\":20500:20527   */\n      0x4e6f7420656e6f75676820746f6b656e7320746f206c6f636b00000000000000\n        /* \"#utility.yul\":20496:20497   */\n      0x00\n        /* \"#utility.yul\":20488:20494   */\n      dup3\n        /* \"#utility.yul\":20484:20498   */\n      add\n        /* \"#utility.yul\":20477:20528   */\n      mstore\n        /* \"#utility.yul\":20360:20535   */\n      pop\n      jump\t// out\n        /* \"#utility.yul\":20541:20907   */\n    tag_291:\n        /* \"#utility.yul\":20683:20686   */\n      0x00\n        /* \"#utility.yul\":20704:20771   */\n      tag_499\n        /* \"#utility.yul\":20768:20770   */\n      0x19\n        /* \"#utility.yul\":20763:20766   */\n      dup4\n        /* \"#utility.yul\":20704:20771   */\n      tag_278\n      jump\t// in\n    tag_499:\n        /* \"#utility.yul\":20697:20771   */\n      swap2\n      pop\n        /* \"#utility.yul\":20780:20873   */\n      tag_500\n        /* \"#utility.yul\":20869:20872   */\n      dup3\n        /* \"#utility.yul\":20780:20873   */\n      tag_290\n      jump\t// in\n    tag_500:\n        /* \"#utility.yul\":20898:20900   */\n      0x20\n        /* \"#utility.yul\":20893:20896   */\n      dup3\n        /* \"#utility.yul\":20889:20901   */\n      add\n        /* \"#utility.yul\":20882:20901   */\n      swap1\n      pop\n        /* \"#utility.yul\":20541:20907   */\n      swap2\n      swap1\n      pop\n      jump\t// out\n        /* \"#utility.yul\":20913:21332   */\n    tag_139:\n        /* \"#utility.yul\":21079:21083   */\n      0x00\n        /* \"#utility.yul\":21117:21119   */\n      0x20\n        /* \"#utility.yul\":21106:21115   */\n      dup3\n        /* \"#utility.yul\":21102:21120   */\n      add\n        /* \"#utility.yul\":21094:21120   */\n      swap1\n      pop\n        /* \"#utility.yul\":21166:21175   */\n      dup2\n        /* \"#utility.yul\":21160:21164   */\n      dup2\n        /* \"#utility.yul\":21156:21176   */\n      sub\n        /* \"#utility.yul\":21152:21153   */\n      0x00\n        /* \"#utility.yul\":21141:21150   */\n      dup4\n        /* \"#utility.yul\":21137:21154   */\n      add\n        /* \"#utility.yul\":21130:21177   */\n      mstore\n        /* \"#utility.yul\":21194:21325   */\n      tag_502\n        /* \"#utility.yul\":21320:21324   */\n      dup2\n        /* \"#utility.yul\":21194:21325   */\n      tag_291\n      jump\t// in\n    tag_502:\n        /* \"#utility.yul\":21186:21325   */\n      swap1\n      pop\n        /* \"#utility.yul\":20913:21332   */\n      swap2\n      swap1\n      pop\n      jump\t// out\n        /* \"#utility.yul\":21338:21559   */\n    tag_292:\n        /* \"#utility.yul\":21478:21512   */\n      0x5468652073706563696669656420617373657420494420697320696e76616c69\n        /* \"#utility.yul\":21474:21475   */\n      0x00\n        /* \"#utility.yul\":21466:21472   */\n      dup3\n        /* \"#utility.yul\":21462:21476   */\n      add\n        /* \"#utility.yul\":21455:21513   */\n      mstore\n        /* \"#utility.yul\":21547:21551   */\n      0x642e000000000000000000000000000000000000000000000000000000000000\n        /* \"#utility.yul\":21542:21544   */\n      0x20\n        /* \"#utility.yul\":21534:21540   */\n      dup3\n        /* \"#utility.yul\":21530:21545   */\n      add\n        /* \"#utility.yul\":21523:21552   */\n      mstore\n        /* \"#utility.yul\":21338:21559   */\n      pop\n      jump\t// out\n        /* \"#utility.yul\":21565:21931   */\n    tag_293:\n        /* \"#utility.yul\":21707:21710   */\n      0x00\n        /* \"#utility.yul\":21728:21795   */\n      tag_505\n        /* \"#utility.yul\":21792:21794   */\n      0x22\n        /* \"#utility.yul\":21787:21790   */\n      dup4\n        /* \"#utility.yul\":21728:21795   */\n      tag_278\n      jump\t// in\n    tag_505:\n        /* \"#utility.yul\":21721:21795   */\n      swap2\n      pop\n        /* \"#utility.yul\":21804:21897   */\n      tag_506\n        /* \"#utility.yul\":21893:21896   */\n      dup3\n        /* \"#utility.yul\":21804:21897   */\n      tag_292\n      jump\t// in\n    tag_506:\n        /* \"#utility.yul\":21922:21924   */\n      0x40\n        /* \"#utility.yul\":21917:21920   */\n      dup3\n        /* \"#utility.yul\":21913:21925   */\n      add\n        /* \"#utility.yul\":21906:21925   */\n      swap1\n      pop\n        /* \"#utility.yul\":21565:21931   */\n      swap2\n      swap1\n      pop\n      jump\t// out\n        /* \"#utility.yul\":21937:22356   */\n    tag_161:\n        /* \"#utility.yul\":22103:22107   */\n      0x00\n        /* \"#utility.yul\":22141:22143   */\n      0x20\n        /* \"#utility.yul\":22130:22139   */\n      dup3\n        /* \"#utility.yul\":22126:22144   */\n      add\n        /* \"#utility.yul\":22118:22144   */\n      swap1\n      pop\n        /* \"#utility.yul\":22190:22199   */\n      dup2\n        /* \"#utility.yul\":22184:22188   */\n      dup2\n        /* \"#utility.yul\":22180:22200   */\n      sub\n        /* \"#utility.yul\":22176:22177   */\n      0x00\n        /* \"#utility.yul\":22165:22174   */\n      dup4\n        /* \"#utility.yul\":22161:22178   */\n      add\n        /* \"#utility.yul\":22154:22201   */\n      mstore\n        /* \"#utility.yul\":22218:22349   */\n      tag_508\n        /* \"#utility.yul\":22344:22348   */\n      dup2\n        /* \"#utility.yul\":22218:22349   */\n      tag_293\n      jump\t// in\n    tag_508:\n        /* \"#utility.yul\":22210:22349   */\n      swap1\n      pop\n        /* \"#utility.yul\":21937:22356   */\n      swap2\n      swap1\n      pop\n      jump\t// out\n        /* \"#utility.yul\":22362:22584   */\n    tag_294:\n        /* \"#utility.yul\":22502:22536   */\n      0x417373657473206861766520616c7265616479206265656e2077697468647261\n        /* \"#utility.yul\":22498:22499   */\n      0x00\n        /* \"#utility.yul\":22490:22496   */\n      dup3\n        /* \"#utility.yul\":22486:22500   */\n      add\n        /* \"#utility.yul\":22479:22537   */\n      mstore\n        /* \"#utility.yul\":22571:22576   */\n      0x776e210000000000000000000000000000000000000000000000000000000000\n        /* \"#utility.yul\":22566:22568   */\n      0x20\n        /* \"#utility.yul\":22558:22564   */\n      dup3\n        /* \"#utility.yul\":22554:22569   */\n      add\n        /* \"#utility.yul\":22547:22577   */\n      mstore\n        /* \"#utility.yul\":22362:22584   */\n      pop\n      jump\t// out\n        /* \"#utility.yul\":22590:22956   */\n    tag_295:\n        /* \"#utility.yul\":22732:22735   */\n      0x00\n        /* \"#utility.yul\":22753:22820   */\n      tag_511\n        /* \"#utility.yul\":22817:22819   */\n      0x23\n        /* \"#utility.yul\":22812:22815   */\n      dup4\n        /* \"#utility.yul\":22753:22820   */\n      tag_278\n      jump\t// in\n    tag_511:\n        /* \"#utility.yul\":22746:22820   */\n      swap2\n      pop\n        /* \"#utility.yul\":22829:22922   */\n      tag_512\n        /* \"#utility.yul\":22918:22921   */\n      dup3\n        /* \"#utility.yul\":22829:22922   */\n      tag_294\n      jump\t// in\n    tag_512:\n        /* \"#utility.yul\":22947:22949   */\n      0x40\n        /* \"#utility.yul\":22942:22945   */\n      dup3\n        /* \"#utility.yul\":22938:22950   */\n      add\n        /* \"#utility.yul\":22931:22950   */\n      swap1\n      pop\n        /* \"#utility.yul\":22590:22956   */\n      swap2\n      swap1\n      pop\n      jump\t// out\n        /* \"#utility.yul\":22962:23381   */\n    tag_167:\n        /* \"#utility.yul\":23128:23132   */\n      0x00\n        /* \"#utility.yul\":23166:23168   */\n      0x20\n        /* \"#utility.yul\":23155:23164   */\n      dup3\n        /* \"#utility.yul\":23151:23169   */\n      add\n        /* \"#utility.yul\":23143:23169   */\n      swap1\n      pop\n        /* \"#utility.yul\":23215:23224   */\n      dup2\n        /* \"#utility.yul\":23209:23213   */\n      dup2\n        /* \"#utility.yul\":23205:23225   */\n      sub\n        /* \"#utility.yul\":23201:23202   */\n      0x00\n        /* \"#utility.yul\":23190:23199   */\n      dup4\n        /* \"#utility.yul\":23186:23203   */\n      add\n        /* \"#utility.yul\":23179:23226   */\n      mstore\n        /* \"#utility.yul\":23243:23374   */\n      tag_514\n        /* \"#utility.yul\":23369:23373   */\n      dup2\n        /* \"#utility.yul\":23243:23374   */\n      tag_295\n      jump\t// in\n    tag_514:\n        /* \"#utility.yul\":23235:23374   */\n      swap1\n      pop\n        /* \"#utility.yul\":22962:23381   */\n      swap2\n      swap1\n      pop\n      jump\t// out\n        /* \"#utility.yul\":23387:23610   */\n    tag_296:\n        /* \"#utility.yul\":23527:23561   */\n      0x546865206c6f636b20706572696f6420686173206e6f74207965742065787069\n        /* \"#utility.yul\":23523:23524   */\n      0x00\n        /* \"#utility.yul\":23515:23521   */\n      dup3\n        /* \"#utility.yul\":23511:23525   */\n      add\n        /* \"#utility.yul\":23504:23562   */\n      mstore\n        /* \"#utility.yul\":23596:23602   */\n      0x7265642100000000000000000000000000000000000000000000000000000000\n        /* \"#utility.yul\":23591:23593   */\n      0x20\n        /* \"#utility.yul\":23583:23589   */\n      dup3\n        /* \"#utility.yul\":23579:23594   */\n      add\n        /* \"#utility.yul\":23572:23603   */\n      mstore\n        /* \"#utility.yul\":23387:23610   */\n      pop\n      jump\t// out\n        /* \"#utility.yul\":23616:23982   */\n    tag_297:\n        /* \"#utility.yul\":23758:23761   */\n      0x00\n        /* \"#utility.yul\":23779:23846   */\n      tag_517\n        /* \"#utility.yul\":23843:23845   */\n      0x24\n        /* \"#utility.yul\":23838:23841   */\n      dup4\n        /* \"#utility.yul\":23779:23846   */\n      tag_278\n      jump\t// in\n    tag_517:\n        /* \"#utility.yul\":23772:23846   */\n      swap2\n      pop\n        /* \"#utility.yul\":23855:23948   */\n      tag_518\n        /* \"#utility.yul\":23944:23947   */\n      dup3\n        /* \"#utility.yul\":23855:23948   */\n      tag_296\n      jump\t// in\n    tag_518:\n        /* \"#utility.yul\":23973:23975   */\n      0x40\n        /* \"#utility.yul\":23968:23971   */\n      dup3\n        /* \"#utility.yul\":23964:23976   */\n      add\n        /* \"#utility.yul\":23957:23976   */\n      swap1\n      pop\n        /* \"#utility.yul\":23616:23982   */\n      swap2\n      swap1\n      pop\n      jump\t// out\n        /* \"#utility.yul\":23988:24407   */\n    tag_170:\n        /* \"#utility.yul\":24154:24158   */\n      0x00\n        /* \"#utility.yul\":24192:24194   */\n      0x20\n        /* \"#utility.yul\":24181:24190   */\n      dup3\n        /* \"#utility.yul\":24177:24195   */\n      add\n        /* \"#utility.yul\":24169:24195   */\n      swap1\n      pop\n        /* \"#utility.yul\":24241:24250   */\n      dup2\n        /* \"#utility.yul\":24235:24239   */\n      dup2\n        /* \"#utility.yul\":24231:24251   */\n      sub\n        /* \"#utility.yul\":24227:24228   */\n      0x00\n        /* \"#utility.yul\":24216:24225   */\n      dup4\n        /* \"#utility.yul\":24212:24229   */\n      add\n        /* \"#utility.yul\":24205:24252   */\n      mstore\n        /* \"#utility.yul\":24269:24400   */\n      tag_520\n        /* \"#utility.yul\":24395:24399   */\n      dup2\n        /* \"#utility.yul\":24269:24400   */\n      tag_297\n      jump\t// in\n    tag_520:\n        /* \"#utility.yul\":24261:24400   */\n      swap1\n      pop\n        /* \"#utility.yul\":23988:24407   */\n      swap2\n      swap1\n      pop\n      jump\t// out\n        /* \"#utility.yul\":24413:24607   */\n    tag_172:\n        /* \"#utility.yul\":24453:24457   */\n      0x00\n        /* \"#utility.yul\":24473:24493   */\n      tag_522\n        /* \"#utility.yul\":24491:24492   */\n      dup3\n        /* \"#utility.yul\":24473:24493   */\n      tag_250\n      jump\t// in\n    tag_522:\n        /* \"#utility.yul\":24468:24493   */\n      swap2\n      pop\n        /* \"#utility.yul\":24507:24527   */\n      tag_523\n        /* \"#utility.yul\":24525:24526   */\n      dup4\n        /* \"#utility.yul\":24507:24527   */\n      tag_250\n      jump\t// in\n    tag_523:\n        /* \"#utility.yul\":24502:24527   */\n      swap3\n      pop\n        /* \"#utility.yul\":24551:24552   */\n      dup3\n        /* \"#utility.yul\":24548:24549   */\n      dup3\n        /* \"#utility.yul\":24544:24553   */\n      sub\n        /* \"#utility.yul\":24536:24553   */\n      swap1\n      pop\n        /* \"#utility.yul\":24575:24576   */\n      dup2\n        /* \"#utility.yul\":24569:24573   */\n      dup2\n        /* \"#utility.yul\":24566:24577   */\n      gt\n        /* \"#utility.yul\":24563:24600   */\n      iszero\n      tag_524\n      jumpi\n        /* \"#utility.yul\":24580:24598   */\n      tag_525\n      tag_283\n      jump\t// in\n    tag_525:\n        /* \"#utility.yul\":24563:24600   */\n    tag_524:\n        /* \"#utility.yul\":24413:24607   */\n      swap3\n      swap2\n      pop\n      pop\n      jump\t// out\n        /* \"#utility.yul\":24613:24793   */\n    tag_298:\n        /* \"#utility.yul\":24753:24785   */\n      0x4e6f7420656e6f7567682061737365747320746f207769746864726177210000\n        /* \"#utility.yul\":24749:24750   */\n      0x00\n        /* \"#utility.yul\":24741:24747   */\n      dup3\n        /* \"#utility.yul\":24737:24751   */\n      add\n        /* \"#utility.yul\":24730:24786   */\n      mstore\n        /* \"#utility.yul\":24613:24793   */\n      pop\n      jump\t// out\n        /* \"#utility.yul\":24799:25165   */\n    tag_299:\n        /* \"#utility.yul\":24941:24944   */\n      0x00\n        /* \"#utility.yul\":24962:25029   */\n      tag_528\n        /* \"#utility.yul\":25026:25028   */\n      0x1e\n        /* \"#utility.yul\":25021:25024   */\n      dup4\n        /* \"#utility.yul\":24962:25029   */\n      tag_278\n      jump\t// in\n    tag_528:\n        /* \"#utility.yul\":24955:25029   */\n      swap2\n      pop\n        /* \"#utility.yul\":25038:25131   */\n      tag_529\n        /* \"#utility.yul\":25127:25130   */\n      dup3\n        /* \"#utility.yul\":25038:25131   */\n      tag_298\n      jump\t// in\n    tag_529:\n        /* \"#utility.yul\":25156:25158   */\n      0x20\n        /* \"#utility.yul\":25151:25154   */\n      dup3\n        /* \"#utility.yul\":25147:25159   */\n      add\n        /* \"#utility.yul\":25140:25159   */\n      swap1\n      pop\n        /* \"#utility.yul\":24799:25165   */\n      swap2\n      swap1\n      pop\n      jump\t// out\n        /* \"#utility.yul\":25171:25590   */\n    tag_175:\n        /* \"#utility.yul\":25337:25341   */\n      0x00\n        /* \"#utility.yul\":25375:25377   */\n      0x20\n        /* \"#utility.yul\":25364:25373   */\n      dup3\n        /* \"#utility.yul\":25360:25378   */\n      add\n        /* \"#utility.yul\":25352:25378   */\n      swap1\n      pop\n        /* \"#utility.yul\":25424:25433   */\n      dup2\n        /* \"#utility.yul\":25418:25422   */\n      dup2\n        /* \"#utility.yul\":25414:25434   */\n      sub\n        /* \"#utility.yul\":25410:25411   */\n      0x00\n        /* \"#utility.yul\":25399:25408   */\n      dup4\n        /* \"#utility.yul\":25395:25412   */\n      add\n        /* \"#utility.yul\":25388:25435   */\n      mstore\n        /* \"#utility.yul\":25452:25583   */\n      tag_531\n        /* \"#utility.yul\":25578:25582   */\n      dup2\n        /* \"#utility.yul\":25452:25583   */\n      tag_299\n      jump\t// in\n    tag_531:\n        /* \"#utility.yul\":25444:25583   */\n      swap1\n      pop\n        /* \"#utility.yul\":25171:25590   */\n      swap2\n      swap1\n      pop\n      jump\t// out\n        /* \"#utility.yul\":25596:25743   */\n    tag_300:\n        /* \"#utility.yul\":25697:25708   */\n      0x00\n        /* \"#utility.yul\":25734:25737   */\n      dup2\n        /* \"#utility.yul\":25719:25737   */\n      swap1\n      pop\n        /* \"#utility.yul\":25596:25743   */\n      swap3\n      swap2\n      pop\n      pop\n      jump\t// out\n        /* \"#utility.yul\":25749:25863   */\n    tag_301:\n      pop\n      jump\t// out\n        /* \"#utility.yul\":25869:26267   */\n    tag_302:\n        /* \"#utility.yul\":26028:26031   */\n      0x00\n        /* \"#utility.yul\":26049:26132   */\n      tag_535\n        /* \"#utility.yul\":26130:26131   */\n      0x00\n        /* \"#utility.yul\":26125:26128   */\n      dup4\n        /* \"#utility.yul\":26049:26132   */\n      tag_300\n      jump\t// in\n    tag_535:\n        /* \"#utility.yul\":26042:26132   */\n      swap2\n      pop\n        /* \"#utility.yul\":26141:26234   */\n      tag_536\n        /* \"#utility.yul\":26230:26233   */\n      dup3\n        /* \"#utility.yul\":26141:26234   */\n      tag_301\n      jump\t// in\n    tag_536:\n        /* \"#utility.yul\":26259:26260   */\n      0x00\n        /* \"#utility.yul\":26254:26257   */\n      dup3\n        /* \"#utility.yul\":26250:26261   */\n      add\n        /* \"#utility.yul\":26243:26261   */\n      swap1\n      pop\n        /* \"#utility.yul\":25869:26267   */\n      swap2\n      swap1\n      pop\n      jump\t// out\n        /* \"#utility.yul\":26273:26652   */\n    tag_185:\n        /* \"#utility.yul\":26457:26460   */\n      0x00\n        /* \"#utility.yul\":26479:26626   */\n      tag_538\n        /* \"#utility.yul\":26622:26625   */\n      dup3\n        /* \"#utility.yul\":26479:26626   */\n      tag_302\n      jump\t// in\n    tag_538:\n        /* \"#utility.yul\":26472:26626   */\n      swap2\n      pop\n        /* \"#utility.yul\":26643:26646   */\n      dup2\n        /* \"#utility.yul\":26636:26646   */\n      swap1\n      pop\n        /* \"#utility.yul\":26273:26652   */\n      swap2\n      swap1\n      pop\n      jump\t// out\n        /* \"#utility.yul\":26658:26827   */\n    tag_303:\n        /* \"#utility.yul\":26798:26819   */\n      0x455448207472616e73666572206661696c656400000000000000000000000000\n        /* \"#utility.yul\":26794:26795   */\n      0x00\n        /* \"#utility.yul\":26786:26792   */\n      dup3\n        /* \"#utility.yul\":26782:26796   */\n      add\n        /* \"#utility.yul\":26775:26820   */\n      mstore\n        /* \"#utility.yul\":26658:26827   */\n      pop\n      jump\t// out\n        /* \"#utility.yul\":26833:27199   */\n    tag_304:\n        /* \"#utility.yul\":26975:26978   */\n      0x00\n        /* \"#utility.yul\":26996:27063   */\n      tag_541\n        /* \"#utility.yul\":27060:27062   */\n      0x13\n        /* \"#utility.yul\":27055:27058   */\n      dup4\n        /* \"#utility.yul\":26996:27063   */\n      tag_278\n      jump\t// in\n    tag_541:\n        /* \"#utility.yul\":26989:27063   */\n      swap2\n      pop\n        /* \"#utility.yul\":27072:27165   */\n      tag_542\n        /* \"#utility.yul\":27161:27164   */\n      dup3\n        /* \"#utility.yul\":27072:27165   */\n      tag_303\n      jump\t// in\n    tag_542:\n        /* \"#utility.yul\":27190:27192   */\n      0x20\n        /* \"#utility.yul\":27185:27188   */\n      dup3\n        /* \"#utility.yul\":27181:27193   */\n      add\n        /* \"#utility.yul\":27174:27193   */\n      swap1\n      pop\n        /* \"#utility.yul\":26833:27199   */\n      swap2\n      swap1\n      pop\n      jump\t// out\n        /* \"#utility.yul\":27205:27624   */\n    tag_191:\n        /* \"#utility.yul\":27371:27375   */\n      0x00\n        /* \"#utility.yul\":27409:27411   */\n      0x20\n        /* \"#utility.yul\":27398:27407   */\n      dup3\n        /* \"#utility.yul\":27394:27412   */\n      add\n        /* \"#utility.yul\":27386:27412   */\n      swap1\n      pop\n        /* \"#utility.yul\":27458:27467   */\n      dup2\n        /* \"#utility.yul\":27452:27456   */\n      dup2\n        /* \"#utility.yul\":27448:27468   */\n      sub\n        /* \"#utility.yul\":27444:27445   */\n      0x00\n        /* \"#utility.yul\":27433:27442   */\n      dup4\n        /* \"#utility.yul\":27429:27446   */\n      add\n        /* \"#utility.yul\":27422:27469   */\n      mstore\n        /* \"#utility.yul\":27486:27617   */\n      tag_544\n        /* \"#utility.yul\":27612:27616   */\n      dup2\n        /* \"#utility.yul\":27486:27617   */\n      tag_304\n      jump\t// in\n    tag_544:\n        /* \"#utility.yul\":27478:27617   */\n      swap1\n      pop\n        /* \"#utility.yul\":27205:27624   */\n      swap2\n      swap1\n      pop\n      jump\t// out\n        /* \"#utility.yul\":27630:27868   */\n    tag_305:\n        /* \"#utility.yul\":27770:27804   */\n      0x45544820746f2061646420746f206c6f636b206d75737420626520616e20616d\n        /* \"#utility.yul\":27766:27767   */\n      0x00\n        /* \"#utility.yul\":27758:27764   */\n      dup3\n        /* \"#utility.yul\":27754:27768   */\n      add\n        /* \"#utility.yul\":27747:27805   */\n      mstore\n        /* \"#utility.yul\":27839:27860   */\n      0x6f756e742067726561746572207468616e203000000000000000000000000000\n        /* \"#utility.yul\":27834:27836   */\n      0x20\n        /* \"#utility.yul\":27826:27832   */\n      dup3\n        /* \"#utility.yul\":27822:27837   */\n      add\n        /* \"#utility.yul\":27815:27861   */\n      mstore\n        /* \"#utility.yul\":27630:27868   */\n      pop\n      jump\t// out\n        /* \"#utility.yul\":27874:28240   */\n    tag_306:\n        /* \"#utility.yul\":28016:28019   */\n      0x00\n        /* \"#utility.yul\":28037:28104   */\n      tag_547\n        /* \"#utility.yul\":28101:28103   */\n      0x33\n        /* \"#utility.yul\":28096:28099   */\n      dup4\n        /* \"#utility.yul\":28037:28104   */\n      tag_278\n      jump\t// in\n    tag_547:\n        /* \"#utility.yul\":28030:28104   */\n      swap2\n      pop\n        /* \"#utility.yul\":28113:28206   */\n      tag_548\n        /* \"#utility.yul\":28202:28205   */\n      dup3\n        /* \"#utility.yul\":28113:28206   */\n      tag_305\n      jump\t// in\n    tag_548:\n        /* \"#utility.yul\":28231:28233   */\n      0x40\n        /* \"#utility.yul\":28226:28229   */\n      dup3\n        /* \"#utility.yul\":28222:28234   */\n      add\n        /* \"#utility.yul\":28215:28234   */\n      swap1\n      pop\n        /* \"#utility.yul\":27874:28240   */\n      swap2\n      swap1\n      pop\n      jump\t// out\n        /* \"#utility.yul\":28246:28665   */\n    tag_202:\n        /* \"#utility.yul\":28412:28416   */\n      0x00\n        /* \"#utility.yul\":28450:28452   */\n      0x20\n        /* \"#utility.yul\":28439:28448   */\n      dup3\n        /* \"#utility.yul\":28435:28453   */\n      add\n        /* \"#utility.yul\":28427:28453   */\n      swap1\n      pop\n        /* \"#utility.yul\":28499:28508   */\n      dup2\n        /* \"#utility.yul\":28493:28497   */\n      dup2\n        /* \"#utility.yul\":28489:28509   */\n      sub\n        /* \"#utility.yul\":28485:28486   */\n      0x00\n        /* \"#utility.yul\":28474:28483   */\n      dup4\n        /* \"#utility.yul\":28470:28487   */\n      add\n        /* \"#utility.yul\":28463:28510   */\n      mstore\n        /* \"#utility.yul\":28527:28658   */\n      tag_550\n        /* \"#utility.yul\":28653:28657   */\n      dup2\n        /* \"#utility.yul\":28527:28658   */\n      tag_306\n      jump\t// in\n    tag_550:\n        /* \"#utility.yul\":28519:28658   */\n      swap1\n      pop\n        /* \"#utility.yul\":28246:28665   */\n      swap2\n      swap1\n      pop\n      jump\t// out\n        /* \"#utility.yul\":28671:29113   */\n    tag_220:\n        /* \"#utility.yul\":28820:28824   */\n      0x00\n        /* \"#utility.yul\":28858:28860   */\n      0x60\n        /* \"#utility.yul\":28847:28856   */\n      dup3\n        /* \"#utility.yul\":28843:28861   */\n      add\n        /* \"#utility.yul\":28835:28861   */\n      swap1\n      pop\n        /* \"#utility.yul\":28871:28942   */\n      tag_552\n        /* \"#utility.yul\":28939:28940   */\n      0x00\n        /* \"#utility.yul\":28928:28937   */\n      dup4\n        /* \"#utility.yul\":28924:28941   */\n      add\n        /* \"#utility.yul\":28915:28921   */\n      dup7\n        /* \"#utility.yul\":28871:28942   */\n      tag_272\n      jump\t// in\n    tag_552:\n        /* \"#utility.yul\":28952:29024   */\n      tag_553\n        /* \"#utility.yul\":29020:29022   */\n      0x20\n        /* \"#utility.yul\":29009:29018   */\n      dup4\n        /* \"#utility.yul\":29005:29023   */\n      add\n        /* \"#utility.yul\":28996:29002   */\n      dup6\n        /* \"#utility.yul\":28952:29024   */\n      tag_272\n      jump\t// in\n    tag_553:\n        /* \"#utility.yul\":29034:29106   */\n      tag_554\n        /* \"#utility.yul\":29102:29104   */\n      0x40\n        /* \"#utility.yul\":29091:29100   */\n      dup4\n        /* \"#utility.yul\":29087:29105   */\n      add\n        /* \"#utility.yul\":29078:29084   */\n      dup5\n        /* \"#utility.yul\":29034:29106   */\n      tag_251\n      jump\t// in\n    tag_554:\n        /* \"#utility.yul\":28671:29113   */\n      swap5\n      swap4\n      pop\n      pop\n      pop\n      pop\n      jump\t// out\n        /* \"#utility.yul\":29119:29451   */\n    tag_234:\n        /* \"#utility.yul\":29240:29244   */\n      0x00\n        /* \"#utility.yul\":29278:29280   */\n      0x40\n        /* \"#utility.yul\":29267:29276   */\n      dup3\n        /* \"#utility.yul\":29263:29281   */\n      add\n        /* \"#utility.yul\":29255:29281   */\n      swap1\n      pop\n        /* \"#utility.yul\":29291:29362   */\n      tag_556\n        /* \"#utility.yul\":29359:29360   */\n      0x00\n        /* \"#utility.yul\":29348:29357   */\n      dup4\n        /* \"#utility.yul\":29344:29361   */\n      add\n        /* \"#utility.yul\":29335:29341   */\n      dup6\n        /* \"#utility.yul\":29291:29362   */\n      tag_272\n      jump\t// in\n    tag_556:\n        /* \"#utility.yul\":29372:29444   */\n      tag_557\n        /* \"#utility.yul\":29440:29442   */\n      0x20\n        /* \"#utility.yul\":29429:29438   */\n      dup4\n        /* \"#utility.yul\":29425:29443   */\n      add\n        /* \"#utility.yul\":29416:29422   */\n      dup5\n        /* \"#utility.yul\":29372:29444   */\n      tag_251\n      jump\t// in\n    tag_557:\n        /* \"#utility.yul\":29119:29451   */\n      swap4\n      swap3\n      pop\n      pop\n      pop\n      jump\t// out\n\n    auxdata: 0xa26469706673582212209baebbce764ea937ad4684949d0e02d633046a1a3b06b196bd4b17c4b926bb8964736f6c634300081a0033\n}\n",
				"bytecode": {
					"linkReferences": {},
					"object": "608060405234801561000f575f80fd5b50335f73ffffffffffffffffffffffffffffffffffffffff168173ffffffffffffffffffffffffffffffffffffffff1603610081575f6040517f1e4fbdf7000000000000000000000000000000000000000000000000000000008152600401610078919061019d565b60405180910390fd5b6100908161009d60201b60201c565b50600180819055506101b6565b5f805f9054906101000a900473ffffffffffffffffffffffffffffffffffffffff169050815f806101000a81548173ffffffffffffffffffffffffffffffffffffffff021916908373ffffffffffffffffffffffffffffffffffffffff1602179055508173ffffffffffffffffffffffffffffffffffffffff168173ffffffffffffffffffffffffffffffffffffffff167f8be0079c531659141344cd1fd0a4f28419497f9722a3daafe3b4186f6b6457e060405160405180910390a35050565b5f73ffffffffffffffffffffffffffffffffffffffff82169050919050565b5f6101878261015e565b9050919050565b6101978161017d565b82525050565b5f6020820190506101b05f83018461018e565b92915050565b6125e2806101c35f395ff3fe6080604052600436106100a6575f3560e01c80638c89a0ad116100635780638c89a0ad146101a45780638da5cb5b146101ce5780638e06b906146101f85780639e6c3ff214610239578063ecaa9d0514610261578063f2fde38b1461027d576100a6565b806314205e28146100aa5780632d8fefc2146100e65780633b958c381461010e5780634ae39e3e1461014a5780635c41ed7c14610166578063715018a61461018e575b5f80fd5b3480156100b5575f80fd5b506100d060048036038101906100cb91906117cc565b6102a5565b6040516100dd919061180f565b60405180910390f35b3480156100f1575f80fd5b5061010c600480360381019061010791906118c1565b610325565b005b348015610119575f80fd5b50610134600480360381019061012f9190611925565b6104f9565b6040516101419190611ab8565b60405180910390f35b610164600480360381019061015f9190611ad8565b610661565b005b348015610171575f80fd5b5061018c60048036038101906101879190611b16565b6108e1565b005b348015610199575f80fd5b506101a2610cbb565b005b3480156101af575f80fd5b506101b8610cce565b6040516101c5919061180f565b60405180910390f35b3480156101d9575f80fd5b506101e2610cd5565b6040516101ef9190611b89565b60405180910390f35b348015610203575f80fd5b5061021e60048036038101906102199190611bcc565b610cfc565b60405161023096959493929190611c3a565b60405180910390f35b348015610244575f80fd5b5061025f600480360381019061025a9190611c99565b610d9e565b005b61027b60048036038101906102769190611ce9565b611268565b005b348015610288575f80fd5b506102a3600480360381019061029e9190611d27565b61139f565b005b5f8173ffffffffffffffffffffffffffffffffffffffff166370a08231306040518263ffffffff1660e01b81526004016102df9190611b89565b602060405180830381865afa1580156102fa573d5f803e3d5ffd5b505050506040513d601f19601f8201168201806040525081019061031e9190611d66565b9050919050565b61032d611423565b5f73ffffffffffffffffffffffffffffffffffffffff168473ffffffffffffffffffffffffffffffffffffffff160361039b576040517f08c379a000000000000000000000000000000000000000000000000000000000815260040161039290611e11565b60405180910390fd5b5f82116103dd576040517f08c379a00000000000000000000000000000000000000000000000000000000081526004016103d490611e9f565b60405180910390fd5b61040a3330848773ffffffffffffffffffffffffffffffffffffffff16611469909392919063ffffffff16565b8160025f3373ffffffffffffffffffffffffffffffffffffffff1673ffffffffffffffffffffffffffffffffffffffff1681526020019081526020015f205f8360ff1660ff1681526020019081526020015f208463ffffffff168154811061047557610474611ebd565b5b905f5260205f2090600402016001015f8282546104929190611f17565b925050819055508373ffffffffffffffffffffffffffffffffffffffff167fc66e6f7d74d0c9e1b876d9a16e6a5e1cc740b73075424f001b9cf91ad042c3178383426040516104e393929190611f4a565b60405180910390a26104f36114eb565b50505050565b606060025f3373ffffffffffffffffffffffffffffffffffffffff1673ffffffffffffffffffffffffffffffffffffffff1681526020019081526020015f205f8360ff1660ff1681526020019081526020015f20805480602002602001604051908101604052809291908181526020015f905b82821015610656578382905f5260205f2090600402016040518060c00160405290815f82015f9054906101000a900473ffffffffffffffffffffffffffffffffffffffff1673ffffffffffffffffffffffffffffffffffffffff1673ffffffffffffffffffffffffffffffffffffffff1681526020016001820154815260200160028201548152602001600382015f9054906101000a900460ff1660ff1660ff1681526020016003820160019054906101000a900460ff161515151581526020016003820160029054906101000a900460ff1615151515815250508152602001906001019061056c565b505050509050919050565b610669611423565b5f34116106ab576040517f08c379a00000000000000000000000000000000000000000000000000000000081526004016106a290611fef565b60405180910390fd5b5f8110156106ee576040517f08c379a00000000000000000000000000000000000000000000000000000000081526004016106e59061207d565b60405180910390fd5b60025f3373ffffffffffffffffffffffffffffffffffffffff1673ffffffffffffffffffffffffffffffffffffffff1681526020019081526020015f205f8360ff1660ff1681526020019081526020015f206040518060c001604052805f73ffffffffffffffffffffffffffffffffffffffff16815260200134815260200183426107799190611f17565b81526020018460ff1681526020015f1515815260200160011515815250908060018154018082558091505060019003905f5260205f2090600402015f909190919091505f820151815f015f6101000a81548173ffffffffffffffffffffffffffffffffffffffff021916908373ffffffffffffffffffffffffffffffffffffffff16021790555060208201518160010155604082015181600201556060820151816003015f6101000a81548160ff021916908360ff16021790555060808201518160030160016101000a81548160ff02191690831515021790555060a08201518160030160026101000a81548160ff02191690831515021790555050505f73ffffffffffffffffffffffffffffffffffffffff167fec1e996e081f0b176398a3a553ab4a87ae67bf6f0d2f7848ab1872a30c3b63e9348484426108bc9190611f17565b426040516108cd949392919061209b565b60405180910390a26108dd6114eb565b5050565b6108e9611423565b5f73ffffffffffffffffffffffffffffffffffffffff168473ffffffffffffffffffffffffffffffffffffffff1603610957576040517f08c379a000000000000000000000000000000000000000000000000000000000815260040161094e90611e11565b60405180910390fd5b5f8311610999576040517f08c379a000000000000000000000000000000000000000000000000000000000815260040161099090611e9f565b60405180910390fd5b5f81116109db576040517f08c379a00000000000000000000000000000000000000000000000000000000081526004016109d29061214e565b60405180910390fd5b5f8473ffffffffffffffffffffffffffffffffffffffff166370a08231336040518263ffffffff1660e01b8152600401610a159190611b89565b602060405180830381865afa158015610a30573d5f803e3d5ffd5b505050506040513d601f19601f82011682018060405250810190610a549190611d66565b905080841115610a99576040517f08c379a0000000000000000000000000000000000000000000000000000000008152600401610a90906121b6565b60405180910390fd5b610ac63330868873ffffffffffffffffffffffffffffffffffffffff16611469909392919063ffffffff16565b60025f3373ffffffffffffffffffffffffffffffffffffffff1673ffffffffffffffffffffffffffffffffffffffff1681526020019081526020015f205f8460ff1660ff1681526020019081526020015f206040518060c001604052808773ffffffffffffffffffffffffffffffffffffffff1681526020018681526020018442610b519190611f17565b81526020018560ff1681526020015f151581526020015f1515815250908060018154018082558091505060019003905f5260205f2090600402015f909190919091505f820151815f015f6101000a81548173ffffffffffffffffffffffffffffffffffffffff021916908373ffffffffffffffffffffffffffffffffffffffff16021790555060208201518160010155604082015181600201556060820151816003015f6101000a81548160ff021916908360ff16021790555060808201518160030160016101000a81548160ff02191690831515021790555060a08201518160030160026101000a81548160ff02191690831515021790555050508473ffffffffffffffffffffffffffffffffffffffff167fec1e996e081f0b176398a3a553ab4a87ae67bf6f0d2f7848ab1872a30c3b63e985858542610c939190611f17565b42604051610ca4949392919061209b565b60405180910390a250610cb56114eb565b50505050565b610cc36114f4565b610ccc5f61157b565b565b5f47905090565b5f805f9054906101000a900473ffffffffffffffffffffffffffffffffffffffff16905090565b6002602052825f5260405f20602052815f5260405f208181548110610d1f575f80fd5b905f5260205f2090600402015f925092505050805f015f9054906101000a900473ffffffffffffffffffffffffffffffffffffffff1690806001015490806002015490806003015f9054906101000a900460ff16908060030160019054906101000a900460ff16908060030160029054906101000a900460ff16905086565b610da6611423565b60025f3373ffffffffffffffffffffffffffffffffffffffff1673ffffffffffffffffffffffffffffffffffffffff1681526020019081526020015f205f8360ff1660ff1681526020019081526020015f20805490508363ffffffff1610610e43576040517f08c379a0000000000000000000000000000000000000000000000000000000008152600401610e3a90612244565b60405180910390fd5b5f60025f3373ffffffffffffffffffffffffffffffffffffffff1673ffffffffffffffffffffffffffffffffffffffff1681526020019081526020015f205f8460ff1660ff1681526020019081526020015f208463ffffffff1681548110610eae57610ead611ebd565b5b905f5260205f20906004020190508060030160019054906101000a900460ff1615610f0e576040517f08c379a0000000000000000000000000000000000000000000000000000000008152600401610f05906122d2565b60405180910390fd5b80600201544211610f54576040517f08c379a0000000000000000000000000000000000000000000000000000000008152600401610f4b90612360565b60405180910390fd5b5f828260010154610f65919061237e565b90505f811015610faa576040517f08c379a0000000000000000000000000000000000000000000000000000000008152600401610fa1906123fb565b60405180910390fd5b5f810361104457600160025f3373ffffffffffffffffffffffffffffffffffffffff1673ffffffffffffffffffffffffffffffffffffffff1681526020019081526020015f205f8660ff1660ff1681526020019081526020015f208663ffffffff168154811061101d5761101c611ebd565b5b905f5260205f20906004020160030160016101000a81548160ff0219169083151502179055505b8060025f3373ffffffffffffffffffffffffffffffffffffffff1673ffffffffffffffffffffffffffffffffffffffff1681526020019081526020015f205f8660ff1660ff1681526020019081526020015f208663ffffffff16815481106110af576110ae611ebd565b5b905f5260205f209060040201600101819055508160030160029054906101000a900460ff1615611187575f3373ffffffffffffffffffffffffffffffffffffffff16846040516110fe90612446565b5f6040518083038185875af1925050503d805f8114611138576040519150601f19603f3d011682016040523d82523d5f602084013e61113d565b606091505b5050905080611181576040517f08c379a0000000000000000000000000000000000000000000000000000000008152600401611178906124a4565b60405180910390fd5b506111d5565b6111d43384845f015f9054906101000a900473ffffffffffffffffffffffffffffffffffffffff1673ffffffffffffffffffffffffffffffffffffffff1661163c9092919063ffffffff16565b5b815f015f9054906101000a900473ffffffffffffffffffffffffffffffffffffffff1673ffffffffffffffffffffffffffffffffffffffff167ff9c1eebf9a6880c5357a85a01ed17f20fed16844f1e75d070866c77eaa1a4fdb84846003015f9054906101000a900460ff164260405161125193929190611f4a565b60405180910390a250506112636114eb565b505050565b611270611423565b5f34116112b2576040517f08c379a00000000000000000000000000000000000000000000000000000000081526004016112a990612532565b60405180910390fd5b3460025f3373ffffffffffffffffffffffffffffffffffffffff1673ffffffffffffffffffffffffffffffffffffffff1681526020019081526020015f205f8460ff1660ff1681526020019081526020015f208263ffffffff168154811061131d5761131c611ebd565b5b905f5260205f2090600402016001015f82825461133a9190611f17565b925050819055505f73ffffffffffffffffffffffffffffffffffffffff167fc66e6f7d74d0c9e1b876d9a16e6a5e1cc740b73075424f001b9cf91ad042c31734844260405161138b93929190611f4a565b60405180910390a261139b6114eb565b5050565b6113a76114f4565b5f73ffffffffffffffffffffffffffffffffffffffff168173ffffffffffffffffffffffffffffffffffffffff1603611417575f6040517f1e4fbdf700000000000000000000000000000000000000000000000000000000815260040161140e9190611b89565b60405180910390fd5b6114208161157b565b50565b60026001540361145f576040517f3ee5aeb500000000000000000000000000000000000000000000000000000000815260040160405180910390fd5b6002600181905550565b6114e5848573ffffffffffffffffffffffffffffffffffffffff166323b872dd86868660405160240161149e93929190612550565b604051602081830303815290604052915060e01b6020820180517bffffffffffffffffffffffffffffffffffffffffffffffffffffffff83818316178352505050506116bb565b50505050565b60018081905550565b6114fc611756565b73ffffffffffffffffffffffffffffffffffffffff1661151a610cd5565b73ffffffffffffffffffffffffffffffffffffffff16146115795761153d611756565b6040517f118cdaa70000000000000000000000000000000000000000000000000000000081526004016115709190611b89565b60405180910390fd5b565b5f805f9054906101000a900473ffffffffffffffffffffffffffffffffffffffff169050815f806101000a81548173ffffffffffffffffffffffffffffffffffffffff021916908373ffffffffffffffffffffffffffffffffffffffff1602179055508173ffffffffffffffffffffffffffffffffffffffff168173ffffffffffffffffffffffffffffffffffffffff167f8be0079c531659141344cd1fd0a4f28419497f9722a3daafe3b4186f6b6457e060405160405180910390a35050565b6116b6838473ffffffffffffffffffffffffffffffffffffffff1663a9059cbb858560405160240161166f929190612585565b604051602081830303815290604052915060e01b6020820180517bffffffffffffffffffffffffffffffffffffffffffffffffffffffff83818316178352505050506116bb565b505050565b5f8060205f8451602086015f885af1806116da576040513d5f823e3d81fd5b3d92505f519150505f82146116f357600181141561170e565b5f8473ffffffffffffffffffffffffffffffffffffffff163b145b1561175057836040517f5274afe70000000000000000000000000000000000000000000000000000000081526004016117479190611b89565b60405180910390fd5b50505050565b5f33905090565b5f80fd5b5f73ffffffffffffffffffffffffffffffffffffffff82169050919050565b5f61178a82611761565b9050919050565b5f61179b82611780565b9050919050565b6117ab81611791565b81146117b5575f80fd5b50565b5f813590506117c6816117a2565b92915050565b5f602082840312156117e1576117e061175d565b5b5f6117ee848285016117b8565b91505092915050565b5f819050919050565b611809816117f7565b82525050565b5f6020820190506118225f830184611800565b92915050565b5f63ffffffff82169050919050565b61184081611828565b811461184a575f80fd5b50565b5f8135905061185b81611837565b92915050565b61186a816117f7565b8114611874575f80fd5b50565b5f8135905061188581611861565b92915050565b5f60ff82169050919050565b6118a08161188b565b81146118aa575f80fd5b50565b5f813590506118bb81611897565b92915050565b5f805f80608085870312156118d9576118d861175d565b5b5f6118e6878288016117b8565b94505060206118f78782880161184d565b935050604061190887828801611877565b9250506060611919878288016118ad565b91505092959194509250565b5f6020828403121561193a5761193961175d565b5b5f611947848285016118ad565b91505092915050565b5f81519050919050565b5f82825260208201905092915050565b5f819050602082019050919050565b61198281611780565b82525050565b611991816117f7565b82525050565b6119a08161188b565b82525050565b5f8115159050919050565b6119ba816119a6565b82525050565b60c082015f8201516119d45f850182611979565b5060208201516119e76020850182611988565b5060408201516119fa6040850182611988565b506060820151611a0d6060850182611997565b506080820151611a2060808501826119b1565b5060a0820151611a3360a08501826119b1565b50505050565b5f611a4483836119c0565b60c08301905092915050565b5f602082019050919050565b5f611a6682611950565b611a70818561195a565b9350611a7b8361196a565b805f5b83811015611aab578151611a928882611a39565b9750611a9d83611a50565b925050600181019050611a7e565b5085935050505092915050565b5f6020820190508181035f830152611ad08184611a5c565b905092915050565b5f8060408385031215611aee57611aed61175d565b5b5f611afb858286016118ad565b9250506020611b0c85828601611877565b9150509250929050565b5f805f8060808587031215611b2e57611b2d61175d565b5b5f611b3b878288016117b8565b9450506020611b4c87828801611877565b9350506040611b5d878288016118ad565b9250506060611b6e87828801611877565b91505092959194509250565b611b8381611780565b82525050565b5f602082019050611b9c5f830184611b7a565b92915050565b611bab81611780565b8114611bb5575f80fd5b50565b5f81359050611bc681611ba2565b92915050565b5f805f60608486031215611be357611be261175d565b5b5f611bf086828701611bb8565b9350506020611c01868287016118ad565b9250506040611c1286828701611877565b9150509250925092565b611c258161188b565b82525050565b611c34816119a6565b82525050565b5f60c082019050611c4d5f830189611b7a565b611c5a6020830188611800565b611c676040830187611800565b611c746060830186611c1c565b611c816080830185611c2b565b611c8e60a0830184611c2b565b979650505050505050565b5f805f60608486031215611cb057611caf61175d565b5b5f611cbd8682870161184d565b9350506020611cce868287016118ad565b9250506040611cdf86828701611877565b9150509250925092565b5f8060408385031215611cff57611cfe61175d565b5b5f611d0c858286016118ad565b9250506020611d1d8582860161184d565b9150509250929050565b5f60208284031215611d3c57611d3b61175d565b5b5f611d4984828501611bb8565b91505092915050565b5f81519050611d6081611861565b92915050565b5f60208284031215611d7b57611d7a61175d565b5b5f611d8884828501611d52565b91505092915050565b5f82825260208201905092915050565b7f4d7573742070726f7669646520612076616c696420746f6b656e2061646472655f8201527f7373000000000000000000000000000000000000000000000000000000000000602082015250565b5f611dfb602283611d91565b9150611e0682611da1565b604082019050919050565b5f6020820190508181035f830152611e2881611def565b9050919050565b7f546f6b656e20616d6f756e74206d7573742062652067726561746572207468655f8201527f6e207a65726f0000000000000000000000000000000000000000000000000000602082015250565b5f611e89602683611d91565b9150611e9482611e2f565b604082019050919050565b5f6020820190508181035f830152611eb681611e7d565b9050919050565b7f4e487b71000000000000000000000000000000000000000000000000000000005f52603260045260245ffd5b7f4e487b71000000000000000000000000000000000000000000000000000000005f52601160045260245ffd5b5f611f21826117f7565b9150611f2c836117f7565b9250828201905080821115611f4457611f43611eea565b5b92915050565b5f606082019050611f5d5f830186611800565b611f6a6020830185611c1c565b611f776040830184611800565b949350505050565b7f45544820746f206c6f636b206d75737420612076616c756520677265617465725f8201527f207468616e203000000000000000000000000000000000000000000000000000602082015250565b5f611fd9602783611d91565b9150611fe482611f7f565b604082019050919050565b5f6020820190508181035f83015261200681611fcd565b9050919050565b7f546865206c6f636b706572696f64206d757374206265206772656174657220745f8201527f68656e207a65726f000000000000000000000000000000000000000000000000602082015250565b5f612067602883611d91565b91506120728261200d565b604082019050919050565b5f6020820190508181035f8301526120948161205b565b9050919050565b5f6080820190506120ae5f830187611800565b6120bb6020830186611c1c565b6120c86040830185611800565b6120d56060830184611800565b95945050505050565b7f546865206c6f636b20706572696f64206d7573742062652067726561746572205f8201527f7468656e207a65726f0000000000000000000000000000000000000000000000602082015250565b5f612138602983611d91565b9150612143826120de565b604082019050919050565b5f6020820190508181035f8301526121658161212c565b9050919050565b7f4e6f7420656e6f75676820746f6b656e7320746f206c6f636b000000000000005f82015250565b5f6121a0601983611d91565b91506121ab8261216c565b602082019050919050565b5f6020820190508181035f8301526121cd81612194565b9050919050565b7f5468652073706563696669656420617373657420494420697320696e76616c695f8201527f642e000000000000000000000000000000000000000000000000000000000000602082015250565b5f61222e602283611d91565b9150612239826121d4565b604082019050919050565b5f6020820190508181035f83015261225b81612222565b9050919050565b7f417373657473206861766520616c7265616479206265656e20776974686472615f8201527f776e210000000000000000000000000000000000000000000000000000000000602082015250565b5f6122bc602383611d91565b91506122c782612262565b604082019050919050565b5f6020820190508181035f8301526122e9816122b0565b9050919050565b7f546865206c6f636b20706572696f6420686173206e6f742079657420657870695f8201527f7265642100000000000000000000000000000000000000000000000000000000602082015250565b5f61234a602483611d91565b9150612355826122f0565b604082019050919050565b5f6020820190508181035f8301526123778161233e565b9050919050565b5f612388826117f7565b9150612393836117f7565b92508282039050818111156123ab576123aa611eea565b5b92915050565b7f4e6f7420656e6f7567682061737365747320746f2077697468647261772100005f82015250565b5f6123e5601e83611d91565b91506123f0826123b1565b602082019050919050565b5f6020820190508181035f830152612412816123d9565b9050919050565b5f81905092915050565b50565b5f6124315f83612419565b915061243c82612423565b5f82019050919050565b5f61245082612426565b9150819050919050565b7f455448207472616e73666572206661696c6564000000000000000000000000005f82015250565b5f61248e601383611d91565b91506124998261245a565b602082019050919050565b5f6020820190508181035f8301526124bb81612482565b9050919050565b7f45544820746f2061646420746f206c6f636b206d75737420626520616e20616d5f8201527f6f756e742067726561746572207468616e203000000000000000000000000000602082015250565b5f61251c603383611d91565b9150612527826124c2565b604082019050919050565b5f6020820190508181035f83015261254981612510565b9050919050565b5f6060820190506125635f830186611b7a565b6125706020830185611b7a565b61257d6040830184611800565b949350505050565b5f6040820190506125985f830185611b7a565b6125a56020830184611800565b939250505056fea26469706673582212209baebbce764ea937ad4684949d0e02d633046a1a3b06b196bd4b17c4b926bb8964736f6c634300081a0033",
					"opcodes": "PUSH1 0x80 PUSH1 0x40 MSTORE CALLVALUE DUP1 ISZERO PUSH2 0xF JUMPI PUSH0 DUP1 REVERT JUMPDEST POP CALLER PUSH0 PUSH20 0xFFFFFFFFFFFFFFFFFFFFFFFFFFFFFFFFFFFFFFFF AND DUP2 PUSH20 0xFFFFFFFFFFFFFFFFFFFFFFFFFFFFFFFFFFFFFFFF AND SUB PUSH2 0x81 JUMPI PUSH0 PUSH1 0x40 MLOAD PUSH32 0x1E4FBDF700000000000000000000000000000000000000000000000000000000 DUP2 MSTORE PUSH1 0x4 ADD PUSH2 0x78 SWAP2 SWAP1 PUSH2 0x19D JUMP JUMPDEST PUSH1 0x40 MLOAD DUP1 SWAP2 SUB SWAP1 REVERT JUMPDEST PUSH2 0x90 DUP2 PUSH2 0x9D PUSH1 0x20 SHL PUSH1 0x20 SHR JUMP JUMPDEST POP PUSH1 0x1 DUP1 DUP2 SWAP1 SSTORE POP PUSH2 0x1B6 JUMP JUMPDEST PUSH0 DUP1 PUSH0 SWAP1 SLOAD SWAP1 PUSH2 0x100 EXP SWAP1 DIV PUSH20 0xFFFFFFFFFFFFFFFFFFFFFFFFFFFFFFFFFFFFFFFF AND SWAP1 POP DUP2 PUSH0 DUP1 PUSH2 0x100 EXP DUP2 SLOAD DUP2 PUSH20 0xFFFFFFFFFFFFFFFFFFFFFFFFFFFFFFFFFFFFFFFF MUL NOT AND SWAP1 DUP4 PUSH20 0xFFFFFFFFFFFFFFFFFFFFFFFFFFFFFFFFFFFFFFFF AND MUL OR SWAP1 SSTORE POP DUP2 PUSH20 0xFFFFFFFFFFFFFFFFFFFFFFFFFFFFFFFFFFFFFFFF AND DUP2 PUSH20 0xFFFFFFFFFFFFFFFFFFFFFFFFFFFFFFFFFFFFFFFF AND PUSH32 0x8BE0079C531659141344CD1FD0A4F28419497F9722A3DAAFE3B4186F6B6457E0 PUSH1 0x40 MLOAD PUSH1 0x40 MLOAD DUP1 SWAP2 SUB SWAP1 LOG3 POP POP JUMP JUMPDEST PUSH0 PUSH20 0xFFFFFFFFFFFFFFFFFFFFFFFFFFFFFFFFFFFFFFFF DUP3 AND SWAP1 POP SWAP2 SWAP1 POP JUMP JUMPDEST PUSH0 PUSH2 0x187 DUP3 PUSH2 0x15E JUMP JUMPDEST SWAP1 POP SWAP2 SWAP1 POP JUMP JUMPDEST PUSH2 0x197 DUP2 PUSH2 0x17D JUMP JUMPDEST DUP3 MSTORE POP POP JUMP JUMPDEST PUSH0 PUSH1 0x20 DUP3 ADD SWAP1 POP PUSH2 0x1B0 PUSH0 DUP4 ADD DUP5 PUSH2 0x18E JUMP JUMPDEST SWAP3 SWAP2 POP POP JUMP JUMPDEST PUSH2 0x25E2 DUP1 PUSH2 0x1C3 PUSH0 CODECOPY PUSH0 RETURN INVALID PUSH1 0x80 PUSH1 0x40 MSTORE PUSH1 0x4 CALLDATASIZE LT PUSH2 0xA6 JUMPI PUSH0 CALLDATALOAD PUSH1 0xE0 SHR DUP1 PUSH4 0x8C89A0AD GT PUSH2 0x63 JUMPI DUP1 PUSH4 0x8C89A0AD EQ PUSH2 0x1A4 JUMPI DUP1 PUSH4 0x8DA5CB5B EQ PUSH2 0x1CE JUMPI DUP1 PUSH4 0x8E06B906 EQ PUSH2 0x1F8 JUMPI DUP1 PUSH4 0x9E6C3FF2 EQ PUSH2 0x239 JUMPI DUP1 PUSH4 0xECAA9D05 EQ PUSH2 0x261 JUMPI DUP1 PUSH4 0xF2FDE38B EQ PUSH2 0x27D JUMPI PUSH2 0xA6 JUMP JUMPDEST DUP1 PUSH4 0x14205E28 EQ PUSH2 0xAA JUMPI DUP1 PUSH4 0x2D8FEFC2 EQ PUSH2 0xE6 JUMPI DUP1 PUSH4 0x3B958C38 EQ PUSH2 0x10E JUMPI DUP1 PUSH4 0x4AE39E3E EQ PUSH2 0x14A JUMPI DUP1 PUSH4 0x5C41ED7C EQ PUSH2 0x166 JUMPI DUP1 PUSH4 0x715018A6 EQ PUSH2 0x18E JUMPI JUMPDEST PUSH0 DUP1 REVERT JUMPDEST CALLVALUE DUP1 ISZERO PUSH2 0xB5 JUMPI PUSH0 DUP1 REVERT JUMPDEST POP PUSH2 0xD0 PUSH1 0x4 DUP1 CALLDATASIZE SUB DUP2 ADD SWAP1 PUSH2 0xCB SWAP2 SWAP1 PUSH2 0x17CC JUMP JUMPDEST PUSH2 0x2A5 JUMP JUMPDEST PUSH1 0x40 MLOAD PUSH2 0xDD SWAP2 SWAP1 PUSH2 0x180F JUMP JUMPDEST PUSH1 0x40 MLOAD DUP1 SWAP2 SUB SWAP1 RETURN JUMPDEST CALLVALUE DUP1 ISZERO PUSH2 0xF1 JUMPI PUSH0 DUP1 REVERT JUMPDEST POP PUSH2 0x10C PUSH1 0x4 DUP1 CALLDATASIZE SUB DUP2 ADD SWAP1 PUSH2 0x107 SWAP2 SWAP1 PUSH2 0x18C1 JUMP JUMPDEST PUSH2 0x325 JUMP JUMPDEST STOP JUMPDEST CALLVALUE DUP1 ISZERO PUSH2 0x119 JUMPI PUSH0 DUP1 REVERT JUMPDEST POP PUSH2 0x134 PUSH1 0x4 DUP1 CALLDATASIZE SUB DUP2 ADD SWAP1 PUSH2 0x12F SWAP2 SWAP1 PUSH2 0x1925 JUMP JUMPDEST PUSH2 0x4F9 JUMP JUMPDEST PUSH1 0x40 MLOAD PUSH2 0x141 SWAP2 SWAP1 PUSH2 0x1AB8 JUMP JUMPDEST PUSH1 0x40 MLOAD DUP1 SWAP2 SUB SWAP1 RETURN JUMPDEST PUSH2 0x164 PUSH1 0x4 DUP1 CALLDATASIZE SUB DUP2 ADD SWAP1 PUSH2 0x15F SWAP2 SWAP1 PUSH2 0x1AD8 JUMP JUMPDEST PUSH2 0x661 JUMP JUMPDEST STOP JUMPDEST CALLVALUE DUP1 ISZERO PUSH2 0x171 JUMPI PUSH0 DUP1 REVERT JUMPDEST POP PUSH2 0x18C PUSH1 0x4 DUP1 CALLDATASIZE SUB DUP2 ADD SWAP1 PUSH2 0x187 SWAP2 SWAP1 PUSH2 0x1B16 JUMP JUMPDEST PUSH2 0x8E1 JUMP JUMPDEST STOP JUMPDEST CALLVALUE DUP1 ISZERO PUSH2 0x199 JUMPI PUSH0 DUP1 REVERT JUMPDEST POP PUSH2 0x1A2 PUSH2 0xCBB JUMP JUMPDEST STOP JUMPDEST CALLVALUE DUP1 ISZERO PUSH2 0x1AF JUMPI PUSH0 DUP1 REVERT JUMPDEST POP PUSH2 0x1B8 PUSH2 0xCCE JUMP JUMPDEST PUSH1 0x40 MLOAD PUSH2 0x1C5 SWAP2 SWAP1 PUSH2 0x180F JUMP JUMPDEST PUSH1 0x40 MLOAD DUP1 SWAP2 SUB SWAP1 RETURN JUMPDEST CALLVALUE DUP1 ISZERO PUSH2 0x1D9 JUMPI PUSH0 DUP1 REVERT JUMPDEST POP PUSH2 0x1E2 PUSH2 0xCD5 JUMP JUMPDEST PUSH1 0x40 MLOAD PUSH2 0x1EF SWAP2 SWAP1 PUSH2 0x1B89 JUMP JUMPDEST PUSH1 0x40 MLOAD DUP1 SWAP2 SUB SWAP1 RETURN JUMPDEST CALLVALUE DUP1 ISZERO PUSH2 0x203 JUMPI PUSH0 DUP1 REVERT JUMPDEST POP PUSH2 0x21E PUSH1 0x4 DUP1 CALLDATASIZE SUB DUP2 ADD SWAP1 PUSH2 0x219 SWAP2 SWAP1 PUSH2 0x1BCC JUMP JUMPDEST PUSH2 0xCFC JUMP JUMPDEST PUSH1 0x40 MLOAD PUSH2 0x230 SWAP7 SWAP6 SWAP5 SWAP4 SWAP3 SWAP2 SWAP1 PUSH2 0x1C3A JUMP JUMPDEST PUSH1 0x40 MLOAD DUP1 SWAP2 SUB SWAP1 RETURN JUMPDEST CALLVALUE DUP1 ISZERO PUSH2 0x244 JUMPI PUSH0 DUP1 REVERT JUMPDEST POP PUSH2 0x25F PUSH1 0x4 DUP1 CALLDATASIZE SUB DUP2 ADD SWAP1 PUSH2 0x25A SWAP2 SWAP1 PUSH2 0x1C99 JUMP JUMPDEST PUSH2 0xD9E JUMP JUMPDEST STOP JUMPDEST PUSH2 0x27B PUSH1 0x4 DUP1 CALLDATASIZE SUB DUP2 ADD SWAP1 PUSH2 0x276 SWAP2 SWAP1 PUSH2 0x1CE9 JUMP JUMPDEST PUSH2 0x1268 JUMP JUMPDEST STOP JUMPDEST CALLVALUE DUP1 ISZERO PUSH2 0x288 JUMPI PUSH0 DUP1 REVERT JUMPDEST POP PUSH2 0x2A3 PUSH1 0x4 DUP1 CALLDATASIZE SUB DUP2 ADD SWAP1 PUSH2 0x29E SWAP2 SWAP1 PUSH2 0x1D27 JUMP JUMPDEST PUSH2 0x139F JUMP JUMPDEST STOP JUMPDEST PUSH0 DUP2 PUSH20 0xFFFFFFFFFFFFFFFFFFFFFFFFFFFFFFFFFFFFFFFF AND PUSH4 0x70A08231 ADDRESS PUSH1 0x40 MLOAD DUP3 PUSH4 0xFFFFFFFF AND PUSH1 0xE0 SHL DUP2 MSTORE PUSH1 0x4 ADD PUSH2 0x2DF SWAP2 SWAP1 PUSH2 0x1B89 JUMP JUMPDEST PUSH1 0x20 PUSH1 0x40 MLOAD DUP1 DUP4 SUB DUP2 DUP7 GAS STATICCALL ISZERO DUP1 ISZERO PUSH2 0x2FA JUMPI RETURNDATASIZE PUSH0 DUP1 RETURNDATACOPY RETURNDATASIZE PUSH0 REVERT JUMPDEST POP POP POP POP PUSH1 0x40 MLOAD RETURNDATASIZE PUSH1 0x1F NOT PUSH1 0x1F DUP3 ADD AND DUP3 ADD DUP1 PUSH1 0x40 MSTORE POP DUP2 ADD SWAP1 PUSH2 0x31E SWAP2 SWAP1 PUSH2 0x1D66 JUMP JUMPDEST SWAP1 POP SWAP2 SWAP1 POP JUMP JUMPDEST PUSH2 0x32D PUSH2 0x1423 JUMP JUMPDEST PUSH0 PUSH20 0xFFFFFFFFFFFFFFFFFFFFFFFFFFFFFFFFFFFFFFFF AND DUP5 PUSH20 0xFFFFFFFFFFFFFFFFFFFFFFFFFFFFFFFFFFFFFFFF AND SUB PUSH2 0x39B JUMPI PUSH1 0x40 MLOAD PUSH32 0x8C379A000000000000000000000000000000000000000000000000000000000 DUP2 MSTORE PUSH1 0x4 ADD PUSH2 0x392 SWAP1 PUSH2 0x1E11 JUMP JUMPDEST PUSH1 0x40 MLOAD DUP1 SWAP2 SUB SWAP1 REVERT JUMPDEST PUSH0 DUP3 GT PUSH2 0x3DD JUMPI PUSH1 0x40 MLOAD PUSH32 0x8C379A000000000000000000000000000000000000000000000000000000000 DUP2 MSTORE PUSH1 0x4 ADD PUSH2 0x3D4 SWAP1 PUSH2 0x1E9F JUMP JUMPDEST PUSH1 0x40 MLOAD DUP1 SWAP2 SUB SWAP1 REVERT JUMPDEST PUSH2 0x40A CALLER ADDRESS DUP5 DUP8 PUSH20 0xFFFFFFFFFFFFFFFFFFFFFFFFFFFFFFFFFFFFFFFF AND PUSH2 0x1469 SWAP1 SWAP4 SWAP3 SWAP2 SWAP1 PUSH4 0xFFFFFFFF AND JUMP JUMPDEST DUP2 PUSH1 0x2 PUSH0 CALLER PUSH20 0xFFFFFFFFFFFFFFFFFFFFFFFFFFFFFFFFFFFFFFFF AND PUSH20 0xFFFFFFFFFFFFFFFFFFFFFFFFFFFFFFFFFFFFFFFF AND DUP2 MSTORE PUSH1 0x20 ADD SWAP1 DUP2 MSTORE PUSH1 0x20 ADD PUSH0 KECCAK256 PUSH0 DUP4 PUSH1 0xFF AND PUSH1 0xFF AND DUP2 MSTORE PUSH1 0x20 ADD SWAP1 DUP2 MSTORE PUSH1 0x20 ADD PUSH0 KECCAK256 DUP5 PUSH4 0xFFFFFFFF AND DUP2 SLOAD DUP2 LT PUSH2 0x475 JUMPI PUSH2 0x474 PUSH2 0x1EBD JUMP JUMPDEST JUMPDEST SWAP1 PUSH0 MSTORE PUSH1 0x20 PUSH0 KECCAK256 SWAP1 PUSH1 0x4 MUL ADD PUSH1 0x1 ADD PUSH0 DUP3 DUP3 SLOAD PUSH2 0x492 SWAP2 SWAP1 PUSH2 0x1F17 JUMP JUMPDEST SWAP3 POP POP DUP2 SWAP1 SSTORE POP DUP4 PUSH20 0xFFFFFFFFFFFFFFFFFFFFFFFFFFFFFFFFFFFFFFFF AND PUSH32 0xC66E6F7D74D0C9E1B876D9A16E6A5E1CC740B73075424F001B9CF91AD042C317 DUP4 DUP4 TIMESTAMP PUSH1 0x40 MLOAD PUSH2 0x4E3 SWAP4 SWAP3 SWAP2 SWAP1 PUSH2 0x1F4A JUMP JUMPDEST PUSH1 0x40 MLOAD DUP1 SWAP2 SUB SWAP1 LOG2 PUSH2 0x4F3 PUSH2 0x14EB JUMP JUMPDEST POP POP POP POP JUMP JUMPDEST PUSH1 0x60 PUSH1 0x2 PUSH0 CALLER PUSH20 0xFFFFFFFFFFFFFFFFFFFFFFFFFFFFFFFFFFFFFFFF AND PUSH20 0xFFFFFFFFFFFFFFFFFFFFFFFFFFFFFFFFFFFFFFFF AND DUP2 MSTORE PUSH1 0x20 ADD SWAP1 DUP2 MSTORE PUSH1 0x20 ADD PUSH0 KECCAK256 PUSH0 DUP4 PUSH1 0xFF AND PUSH1 0xFF AND DUP2 MSTORE PUSH1 0x20 ADD SWAP1 DUP2 MSTORE PUSH1 0x20 ADD PUSH0 KECCAK256 DUP1 SLOAD DUP1 PUSH1 0x20 MUL PUSH1 0x20 ADD PUSH1 0x40 MLOAD SWAP1 DUP2 ADD PUSH1 0x40 MSTORE DUP1 SWAP3 SWAP2 SWAP1 DUP2 DUP2 MSTORE PUSH1 0x20 ADD PUSH0 SWAP1 JUMPDEST DUP3 DUP3 LT ISZERO PUSH2 0x656 JUMPI DUP4 DUP3 SWAP1 PUSH0 MSTORE PUSH1 0x20 PUSH0 KECCAK256 SWAP1 PUSH1 0x4 MUL ADD PUSH1 0x40 MLOAD DUP1 PUSH1 0xC0 ADD PUSH1 0x40 MSTORE SWAP1 DUP2 PUSH0 DUP3 ADD PUSH0 SWAP1 SLOAD SWAP1 PUSH2 0x100 EXP SWAP1 DIV PUSH20 0xFFFFFFFFFFFFFFFFFFFFFFFFFFFFFFFFFFFFFFFF AND PUSH20 0xFFFFFFFFFFFFFFFFFFFFFFFFFFFFFFFFFFFFFFFF AND PUSH20 0xFFFFFFFFFFFFFFFFFFFFFFFFFFFFFFFFFFFFFFFF AND DUP2 MSTORE PUSH1 0x20 ADD PUSH1 0x1 DUP3 ADD SLOAD DUP2 MSTORE PUSH1 0x20 ADD PUSH1 0x2 DUP3 ADD SLOAD DUP2 MSTORE PUSH1 0x20 ADD PUSH1 0x3 DUP3 ADD PUSH0 SWAP1 SLOAD SWAP1 PUSH2 0x100 EXP SWAP1 DIV PUSH1 0xFF AND PUSH1 0xFF AND PUSH1 0xFF AND DUP2 MSTORE PUSH1 0x20 ADD PUSH1 0x3 DUP3 ADD PUSH1 0x1 SWAP1 SLOAD SWAP1 PUSH2 0x100 EXP SWAP1 DIV PUSH1 0xFF AND ISZERO ISZERO ISZERO ISZERO DUP2 MSTORE PUSH1 0x20 ADD PUSH1 0x3 DUP3 ADD PUSH1 0x2 SWAP1 SLOAD SWAP1 PUSH2 0x100 EXP SWAP1 DIV PUSH1 0xFF AND ISZERO ISZERO ISZERO ISZERO DUP2 MSTORE POP POP DUP2 MSTORE PUSH1 0x20 ADD SWAP1 PUSH1 0x1 ADD SWAP1 PUSH2 0x56C JUMP JUMPDEST POP POP POP POP SWAP1 POP SWAP2 SWAP1 POP JUMP JUMPDEST PUSH2 0x669 PUSH2 0x1423 JUMP JUMPDEST PUSH0 CALLVALUE GT PUSH2 0x6AB JUMPI PUSH1 0x40 MLOAD PUSH32 0x8C379A000000000000000000000000000000000000000000000000000000000 DUP2 MSTORE PUSH1 0x4 ADD PUSH2 0x6A2 SWAP1 PUSH2 0x1FEF JUMP JUMPDEST PUSH1 0x40 MLOAD DUP1 SWAP2 SUB SWAP1 REVERT JUMPDEST PUSH0 DUP2 LT ISZERO PUSH2 0x6EE JUMPI PUSH1 0x40 MLOAD PUSH32 0x8C379A000000000000000000000000000000000000000000000000000000000 DUP2 MSTORE PUSH1 0x4 ADD PUSH2 0x6E5 SWAP1 PUSH2 0x207D JUMP JUMPDEST PUSH1 0x40 MLOAD DUP1 SWAP2 SUB SWAP1 REVERT JUMPDEST PUSH1 0x2 PUSH0 CALLER PUSH20 0xFFFFFFFFFFFFFFFFFFFFFFFFFFFFFFFFFFFFFFFF AND PUSH20 0xFFFFFFFFFFFFFFFFFFFFFFFFFFFFFFFFFFFFFFFF AND DUP2 MSTORE PUSH1 0x20 ADD SWAP1 DUP2 MSTORE PUSH1 0x20 ADD PUSH0 KECCAK256 PUSH0 DUP4 PUSH1 0xFF AND PUSH1 0xFF AND DUP2 MSTORE PUSH1 0x20 ADD SWAP1 DUP2 MSTORE PUSH1 0x20 ADD PUSH0 KECCAK256 PUSH1 0x40 MLOAD DUP1 PUSH1 0xC0 ADD PUSH1 0x40 MSTORE DUP1 PUSH0 PUSH20 0xFFFFFFFFFFFFFFFFFFFFFFFFFFFFFFFFFFFFFFFF AND DUP2 MSTORE PUSH1 0x20 ADD CALLVALUE DUP2 MSTORE PUSH1 0x20 ADD DUP4 TIMESTAMP PUSH2 0x779 SWAP2 SWAP1 PUSH2 0x1F17 JUMP JUMPDEST DUP2 MSTORE PUSH1 0x20 ADD DUP5 PUSH1 0xFF AND DUP2 MSTORE PUSH1 0x20 ADD PUSH0 ISZERO ISZERO DUP2 MSTORE PUSH1 0x20 ADD PUSH1 0x1 ISZERO ISZERO DUP2 MSTORE POP SWAP1 DUP1 PUSH1 0x1 DUP2 SLOAD ADD DUP1 DUP3 SSTORE DUP1 SWAP2 POP POP PUSH1 0x1 SWAP1 SUB SWAP1 PUSH0 MSTORE PUSH1 0x20 PUSH0 KECCAK256 SWAP1 PUSH1 0x4 MUL ADD PUSH0 SWAP1 SWAP2 SWAP1 SWAP2 SWAP1 SWAP2 POP PUSH0 DUP3 ADD MLOAD DUP2 PUSH0 ADD PUSH0 PUSH2 0x100 EXP DUP2 SLOAD DUP2 PUSH20 0xFFFFFFFFFFFFFFFFFFFFFFFFFFFFFFFFFFFFFFFF MUL NOT AND SWAP1 DUP4 PUSH20 0xFFFFFFFFFFFFFFFFFFFFFFFFFFFFFFFFFFFFFFFF AND MUL OR SWAP1 SSTORE POP PUSH1 0x20 DUP3 ADD MLOAD DUP2 PUSH1 0x1 ADD SSTORE PUSH1 0x40 DUP3 ADD MLOAD DUP2 PUSH1 0x2 ADD SSTORE PUSH1 0x60 DUP3 ADD MLOAD DUP2 PUSH1 0x3 ADD PUSH0 PUSH2 0x100 EXP DUP2 SLOAD DUP2 PUSH1 0xFF MUL NOT AND SWAP1 DUP4 PUSH1 0xFF AND MUL OR SWAP1 SSTORE POP PUSH1 0x80 DUP3 ADD MLOAD DUP2 PUSH1 0x3 ADD PUSH1 0x1 PUSH2 0x100 EXP DUP2 SLOAD DUP2 PUSH1 0xFF MUL NOT AND SWAP1 DUP4 ISZERO ISZERO MUL OR SWAP1 SSTORE POP PUSH1 0xA0 DUP3 ADD MLOAD DUP2 PUSH1 0x3 ADD PUSH1 0x2 PUSH2 0x100 EXP DUP2 SLOAD DUP2 PUSH1 0xFF MUL NOT AND SWAP1 DUP4 ISZERO ISZERO MUL OR SWAP1 SSTORE POP POP POP PUSH0 PUSH20 0xFFFFFFFFFFFFFFFFFFFFFFFFFFFFFFFFFFFFFFFF AND PUSH32 0xEC1E996E081F0B176398A3A553AB4A87AE67BF6F0D2F7848AB1872A30C3B63E9 CALLVALUE DUP5 DUP5 TIMESTAMP PUSH2 0x8BC SWAP2 SWAP1 PUSH2 0x1F17 JUMP JUMPDEST TIMESTAMP PUSH1 0x40 MLOAD PUSH2 0x8CD SWAP5 SWAP4 SWAP3 SWAP2 SWAP1 PUSH2 0x209B JUMP JUMPDEST PUSH1 0x40 MLOAD DUP1 SWAP2 SUB SWAP1 LOG2 PUSH2 0x8DD PUSH2 0x14EB JUMP JUMPDEST POP POP JUMP JUMPDEST PUSH2 0x8E9 PUSH2 0x1423 JUMP JUMPDEST PUSH0 PUSH20 0xFFFFFFFFFFFFFFFFFFFFFFFFFFFFFFFFFFFFFFFF AND DUP5 PUSH20 0xFFFFFFFFFFFFFFFFFFFFFFFFFFFFFFFFFFFFFFFF AND SUB PUSH2 0x957 JUMPI PUSH1 0x40 MLOAD PUSH32 0x8C379A000000000000000000000000000000000000000000000000000000000 DUP2 MSTORE PUSH1 0x4 ADD PUSH2 0x94E SWAP1 PUSH2 0x1E11 JUMP JUMPDEST PUSH1 0x40 MLOAD DUP1 SWAP2 SUB SWAP1 REVERT JUMPDEST PUSH0 DUP4 GT PUSH2 0x999 JUMPI PUSH1 0x40 MLOAD PUSH32 0x8C379A000000000000000000000000000000000000000000000000000000000 DUP2 MSTORE PUSH1 0x4 ADD PUSH2 0x990 SWAP1 PUSH2 0x1E9F JUMP JUMPDEST PUSH1 0x40 MLOAD DUP1 SWAP2 SUB SWAP1 REVERT JUMPDEST PUSH0 DUP2 GT PUSH2 0x9DB JUMPI PUSH1 0x40 MLOAD PUSH32 0x8C379A000000000000000000000000000000000000000000000000000000000 DUP2 MSTORE PUSH1 0x4 ADD PUSH2 0x9D2 SWAP1 PUSH2 0x214E JUMP JUMPDEST PUSH1 0x40 MLOAD DUP1 SWAP2 SUB SWAP1 REVERT JUMPDEST PUSH0 DUP5 PUSH20 0xFFFFFFFFFFFFFFFFFFFFFFFFFFFFFFFFFFFFFFFF AND PUSH4 0x70A08231 CALLER PUSH1 0x40 MLOAD DUP3 PUSH4 0xFFFFFFFF AND PUSH1 0xE0 SHL DUP2 MSTORE PUSH1 0x4 ADD PUSH2 0xA15 SWAP2 SWAP1 PUSH2 0x1B89 JUMP JUMPDEST PUSH1 0x20 PUSH1 0x40 MLOAD DUP1 DUP4 SUB DUP2 DUP7 GAS STATICCALL ISZERO DUP1 ISZERO PUSH2 0xA30 JUMPI RETURNDATASIZE PUSH0 DUP1 RETURNDATACOPY RETURNDATASIZE PUSH0 REVERT JUMPDEST POP POP POP POP PUSH1 0x40 MLOAD RETURNDATASIZE PUSH1 0x1F NOT PUSH1 0x1F DUP3 ADD AND DUP3 ADD DUP1 PUSH1 0x40 MSTORE POP DUP2 ADD SWAP1 PUSH2 0xA54 SWAP2 SWAP1 PUSH2 0x1D66 JUMP JUMPDEST SWAP1 POP DUP1 DUP5 GT ISZERO PUSH2 0xA99 JUMPI PUSH1 0x40 MLOAD PUSH32 0x8C379A000000000000000000000000000000000000000000000000000000000 DUP2 MSTORE PUSH1 0x4 ADD PUSH2 0xA90 SWAP1 PUSH2 0x21B6 JUMP JUMPDEST PUSH1 0x40 MLOAD DUP1 SWAP2 SUB SWAP1 REVERT JUMPDEST PUSH2 0xAC6 CALLER ADDRESS DUP7 DUP9 PUSH20 0xFFFFFFFFFFFFFFFFFFFFFFFFFFFFFFFFFFFFFFFF AND PUSH2 0x1469 SWAP1 SWAP4 SWAP3 SWAP2 SWAP1 PUSH4 0xFFFFFFFF AND JUMP JUMPDEST PUSH1 0x2 PUSH0 CALLER PUSH20 0xFFFFFFFFFFFFFFFFFFFFFFFFFFFFFFFFFFFFFFFF AND PUSH20 0xFFFFFFFFFFFFFFFFFFFFFFFFFFFFFFFFFFFFFFFF AND DUP2 MSTORE PUSH1 0x20 ADD SWAP1 DUP2 MSTORE PUSH1 0x20 ADD PUSH0 KECCAK256 PUSH0 DUP5 PUSH1 0xFF AND PUSH1 0xFF AND DUP2 MSTORE PUSH1 0x20 ADD SWAP1 DUP2 MSTORE PUSH1 0x20 ADD PUSH0 KECCAK256 PUSH1 0x40 MLOAD DUP1 PUSH1 0xC0 ADD PUSH1 0x40 MSTORE DUP1 DUP8 PUSH20 0xFFFFFFFFFFFFFFFFFFFFFFFFFFFFFFFFFFFFFFFF AND DUP2 MSTORE PUSH1 0x20 ADD DUP7 DUP2 MSTORE PUSH1 0x20 ADD DUP5 TIMESTAMP PUSH2 0xB51 SWAP2 SWAP1 PUSH2 0x1F17 JUMP JUMPDEST DUP2 MSTORE PUSH1 0x20 ADD DUP6 PUSH1 0xFF AND DUP2 MSTORE PUSH1 0x20 ADD PUSH0 ISZERO ISZERO DUP2 MSTORE PUSH1 0x20 ADD PUSH0 ISZERO ISZERO DUP2 MSTORE POP SWAP1 DUP1 PUSH1 0x1 DUP2 SLOAD ADD DUP1 DUP3 SSTORE DUP1 SWAP2 POP POP PUSH1 0x1 SWAP1 SUB SWAP1 PUSH0 MSTORE PUSH1 0x20 PUSH0 KECCAK256 SWAP1 PUSH1 0x4 MUL ADD PUSH0 SWAP1 SWAP2 SWAP1 SWAP2 SWAP1 SWAP2 POP PUSH0 DUP3 ADD MLOAD DUP2 PUSH0 ADD PUSH0 PUSH2 0x100 EXP DUP2 SLOAD DUP2 PUSH20 0xFFFFFFFFFFFFFFFFFFFFFFFFFFFFFFFFFFFFFFFF MUL NOT AND SWAP1 DUP4 PUSH20 0xFFFFFFFFFFFFFFFFFFFFFFFFFFFFFFFFFFFFFFFF AND MUL OR SWAP1 SSTORE POP PUSH1 0x20 DUP3 ADD MLOAD DUP2 PUSH1 0x1 ADD SSTORE PUSH1 0x40 DUP3 ADD MLOAD DUP2 PUSH1 0x2 ADD SSTORE PUSH1 0x60 DUP3 ADD MLOAD DUP2 PUSH1 0x3 ADD PUSH0 PUSH2 0x100 EXP DUP2 SLOAD DUP2 PUSH1 0xFF MUL NOT AND SWAP1 DUP4 PUSH1 0xFF AND MUL OR SWAP1 SSTORE POP PUSH1 0x80 DUP3 ADD MLOAD DUP2 PUSH1 0x3 ADD PUSH1 0x1 PUSH2 0x100 EXP DUP2 SLOAD DUP2 PUSH1 0xFF MUL NOT AND SWAP1 DUP4 ISZERO ISZERO MUL OR SWAP1 SSTORE POP PUSH1 0xA0 DUP3 ADD MLOAD DUP2 PUSH1 0x3 ADD PUSH1 0x2 PUSH2 0x100 EXP DUP2 SLOAD DUP2 PUSH1 0xFF MUL NOT AND SWAP1 DUP4 ISZERO ISZERO MUL OR SWAP1 SSTORE POP POP POP DUP5 PUSH20 0xFFFFFFFFFFFFFFFFFFFFFFFFFFFFFFFFFFFFFFFF AND PUSH32 0xEC1E996E081F0B176398A3A553AB4A87AE67BF6F0D2F7848AB1872A30C3B63E9 DUP6 DUP6 DUP6 TIMESTAMP PUSH2 0xC93 SWAP2 SWAP1 PUSH2 0x1F17 JUMP JUMPDEST TIMESTAMP PUSH1 0x40 MLOAD PUSH2 0xCA4 SWAP5 SWAP4 SWAP3 SWAP2 SWAP1 PUSH2 0x209B JUMP JUMPDEST PUSH1 0x40 MLOAD DUP1 SWAP2 SUB SWAP1 LOG2 POP PUSH2 0xCB5 PUSH2 0x14EB JUMP JUMPDEST POP POP POP POP JUMP JUMPDEST PUSH2 0xCC3 PUSH2 0x14F4 JUMP JUMPDEST PUSH2 0xCCC PUSH0 PUSH2 0x157B JUMP JUMPDEST JUMP JUMPDEST PUSH0 SELFBALANCE SWAP1 POP SWAP1 JUMP JUMPDEST PUSH0 DUP1 PUSH0 SWAP1 SLOAD SWAP1 PUSH2 0x100 EXP SWAP1 DIV PUSH20 0xFFFFFFFFFFFFFFFFFFFFFFFFFFFFFFFFFFFFFFFF AND SWAP1 POP SWAP1 JUMP JUMPDEST PUSH1 0x2 PUSH1 0x20 MSTORE DUP3 PUSH0 MSTORE PUSH1 0x40 PUSH0 KECCAK256 PUSH1 0x20 MSTORE DUP2 PUSH0 MSTORE PUSH1 0x40 PUSH0 KECCAK256 DUP2 DUP2 SLOAD DUP2 LT PUSH2 0xD1F JUMPI PUSH0 DUP1 REVERT JUMPDEST SWAP1 PUSH0 MSTORE PUSH1 0x20 PUSH0 KECCAK256 SWAP1 PUSH1 0x4 MUL ADD PUSH0 SWAP3 POP SWAP3 POP POP POP DUP1 PUSH0 ADD PUSH0 SWAP1 SLOAD SWAP1 PUSH2 0x100 EXP SWAP1 DIV PUSH20 0xFFFFFFFFFFFFFFFFFFFFFFFFFFFFFFFFFFFFFFFF AND SWAP1 DUP1 PUSH1 0x1 ADD SLOAD SWAP1 DUP1 PUSH1 0x2 ADD SLOAD SWAP1 DUP1 PUSH1 0x3 ADD PUSH0 SWAP1 SLOAD SWAP1 PUSH2 0x100 EXP SWAP1 DIV PUSH1 0xFF AND SWAP1 DUP1 PUSH1 0x3 ADD PUSH1 0x1 SWAP1 SLOAD SWAP1 PUSH2 0x100 EXP SWAP1 DIV PUSH1 0xFF AND SWAP1 DUP1 PUSH1 0x3 ADD PUSH1 0x2 SWAP1 SLOAD SWAP1 PUSH2 0x100 EXP SWAP1 DIV PUSH1 0xFF AND SWAP1 POP DUP7 JUMP JUMPDEST PUSH2 0xDA6 PUSH2 0x1423 JUMP JUMPDEST PUSH1 0x2 PUSH0 CALLER PUSH20 0xFFFFFFFFFFFFFFFFFFFFFFFFFFFFFFFFFFFFFFFF AND PUSH20 0xFFFFFFFFFFFFFFFFFFFFFFFFFFFFFFFFFFFFFFFF AND DUP2 MSTORE PUSH1 0x20 ADD SWAP1 DUP2 MSTORE PUSH1 0x20 ADD PUSH0 KECCAK256 PUSH0 DUP4 PUSH1 0xFF AND PUSH1 0xFF AND DUP2 MSTORE PUSH1 0x20 ADD SWAP1 DUP2 MSTORE PUSH1 0x20 ADD PUSH0 KECCAK256 DUP1 SLOAD SWAP1 POP DUP4 PUSH4 0xFFFFFFFF AND LT PUSH2 0xE43 JUMPI PUSH1 0x40 MLOAD PUSH32 0x8C379A000000000000000000000000000000000000000000000000000000000 DUP2 MSTORE PUSH1 0x4 ADD PUSH2 0xE3A SWAP1 PUSH2 0x2244 JUMP JUMPDEST PUSH1 0x40 MLOAD DUP1 SWAP2 SUB SWAP1 REVERT JUMPDEST PUSH0 PUSH1 0x2 PUSH0 CALLER PUSH20 0xFFFFFFFFFFFFFFFFFFFFFFFFFFFFFFFFFFFFFFFF AND PUSH20 0xFFFFFFFFFFFFFFFFFFFFFFFFFFFFFFFFFFFFFFFF AND DUP2 MSTORE PUSH1 0x20 ADD SWAP1 DUP2 MSTORE PUSH1 0x20 ADD PUSH0 KECCAK256 PUSH0 DUP5 PUSH1 0xFF AND PUSH1 0xFF AND DUP2 MSTORE PUSH1 0x20 ADD SWAP1 DUP2 MSTORE PUSH1 0x20 ADD PUSH0 KECCAK256 DUP5 PUSH4 0xFFFFFFFF AND DUP2 SLOAD DUP2 LT PUSH2 0xEAE JUMPI PUSH2 0xEAD PUSH2 0x1EBD JUMP JUMPDEST JUMPDEST SWAP1 PUSH0 MSTORE PUSH1 0x20 PUSH0 KECCAK256 SWAP1 PUSH1 0x4 MUL ADD SWAP1 POP DUP1 PUSH1 0x3 ADD PUSH1 0x1 SWAP1 SLOAD SWAP1 PUSH2 0x100 EXP SWAP1 DIV PUSH1 0xFF AND ISZERO PUSH2 0xF0E JUMPI PUSH1 0x40 MLOAD PUSH32 0x8C379A000000000000000000000000000000000000000000000000000000000 DUP2 MSTORE PUSH1 0x4 ADD PUSH2 0xF05 SWAP1 PUSH2 0x22D2 JUMP JUMPDEST PUSH1 0x40 MLOAD DUP1 SWAP2 SUB SWAP1 REVERT JUMPDEST DUP1 PUSH1 0x2 ADD SLOAD TIMESTAMP GT PUSH2 0xF54 JUMPI PUSH1 0x40 MLOAD PUSH32 0x8C379A000000000000000000000000000000000000000000000000000000000 DUP2 MSTORE PUSH1 0x4 ADD PUSH2 0xF4B SWAP1 PUSH2 0x2360 JUMP JUMPDEST PUSH1 0x40 MLOAD DUP1 SWAP2 SUB SWAP1 REVERT JUMPDEST PUSH0 DUP3 DUP3 PUSH1 0x1 ADD SLOAD PUSH2 0xF65 SWAP2 SWAP1 PUSH2 0x237E JUMP JUMPDEST SWAP1 POP PUSH0 DUP2 LT ISZERO PUSH2 0xFAA JUMPI PUSH1 0x40 MLOAD PUSH32 0x8C379A000000000000000000000000000000000000000000000000000000000 DUP2 MSTORE PUSH1 0x4 ADD PUSH2 0xFA1 SWAP1 PUSH2 0x23FB JUMP JUMPDEST PUSH1 0x40 MLOAD DUP1 SWAP2 SUB SWAP1 REVERT JUMPDEST PUSH0 DUP2 SUB PUSH2 0x1044 JUMPI PUSH1 0x1 PUSH1 0x2 PUSH0 CALLER PUSH20 0xFFFFFFFFFFFFFFFFFFFFFFFFFFFFFFFFFFFFFFFF AND PUSH20 0xFFFFFFFFFFFFFFFFFFFFFFFFFFFFFFFFFFFFFFFF AND DUP2 MSTORE PUSH1 0x20 ADD SWAP1 DUP2 MSTORE PUSH1 0x20 ADD PUSH0 KECCAK256 PUSH0 DUP7 PUSH1 0xFF AND PUSH1 0xFF AND DUP2 MSTORE PUSH1 0x20 ADD SWAP1 DUP2 MSTORE PUSH1 0x20 ADD PUSH0 KECCAK256 DUP7 PUSH4 0xFFFFFFFF AND DUP2 SLOAD DUP2 LT PUSH2 0x101D JUMPI PUSH2 0x101C PUSH2 0x1EBD JUMP JUMPDEST JUMPDEST SWAP1 PUSH0 MSTORE PUSH1 0x20 PUSH0 KECCAK256 SWAP1 PUSH1 0x4 MUL ADD PUSH1 0x3 ADD PUSH1 0x1 PUSH2 0x100 EXP DUP2 SLOAD DUP2 PUSH1 0xFF MUL NOT AND SWAP1 DUP4 ISZERO ISZERO MUL OR SWAP1 SSTORE POP JUMPDEST DUP1 PUSH1 0x2 PUSH0 CALLER PUSH20 0xFFFFFFFFFFFFFFFFFFFFFFFFFFFFFFFFFFFFFFFF AND PUSH20 0xFFFFFFFFFFFFFFFFFFFFFFFFFFFFFFFFFFFFFFFF AND DUP2 MSTORE PUSH1 0x20 ADD SWAP1 DUP2 MSTORE PUSH1 0x20 ADD PUSH0 KECCAK256 PUSH0 DUP7 PUSH1 0xFF AND PUSH1 0xFF AND DUP2 MSTORE PUSH1 0x20 ADD SWAP1 DUP2 MSTORE PUSH1 0x20 ADD PUSH0 KECCAK256 DUP7 PUSH4 0xFFFFFFFF AND DUP2 SLOAD DUP2 LT PUSH2 0x10AF JUMPI PUSH2 0x10AE PUSH2 0x1EBD JUMP JUMPDEST JUMPDEST SWAP1 PUSH0 MSTORE PUSH1 0x20 PUSH0 KECCAK256 SWAP1 PUSH1 0x4 MUL ADD PUSH1 0x1 ADD DUP2 SWAP1 SSTORE POP DUP2 PUSH1 0x3 ADD PUSH1 0x2 SWAP1 SLOAD SWAP1 PUSH2 0x100 EXP SWAP1 DIV PUSH1 0xFF AND ISZERO PUSH2 0x1187 JUMPI PUSH0 CALLER PUSH20 0xFFFFFFFFFFFFFFFFFFFFFFFFFFFFFFFFFFFFFFFF AND DUP5 PUSH1 0x40 MLOAD PUSH2 0x10FE SWAP1 PUSH2 0x2446 JUMP JUMPDEST PUSH0 PUSH1 0x40 MLOAD DUP1 DUP4 SUB DUP2 DUP6 DUP8 GAS CALL SWAP3 POP POP POP RETURNDATASIZE DUP1 PUSH0 DUP2 EQ PUSH2 0x1138 JUMPI PUSH1 0x40 MLOAD SWAP2 POP PUSH1 0x1F NOT PUSH1 0x3F RETURNDATASIZE ADD AND DUP3 ADD PUSH1 0x40 MSTORE RETURNDATASIZE DUP3 MSTORE RETURNDATASIZE PUSH0 PUSH1 0x20 DUP5 ADD RETURNDATACOPY PUSH2 0x113D JUMP JUMPDEST PUSH1 0x60 SWAP2 POP JUMPDEST POP POP SWAP1 POP DUP1 PUSH2 0x1181 JUMPI PUSH1 0x40 MLOAD PUSH32 0x8C379A000000000000000000000000000000000000000000000000000000000 DUP2 MSTORE PUSH1 0x4 ADD PUSH2 0x1178 SWAP1 PUSH2 0x24A4 JUMP JUMPDEST PUSH1 0x40 MLOAD DUP1 SWAP2 SUB SWAP1 REVERT JUMPDEST POP PUSH2 0x11D5 JUMP JUMPDEST PUSH2 0x11D4 CALLER DUP5 DUP5 PUSH0 ADD PUSH0 SWAP1 SLOAD SWAP1 PUSH2 0x100 EXP SWAP1 DIV PUSH20 0xFFFFFFFFFFFFFFFFFFFFFFFFFFFFFFFFFFFFFFFF AND PUSH20 0xFFFFFFFFFFFFFFFFFFFFFFFFFFFFFFFFFFFFFFFF AND PUSH2 0x163C SWAP1 SWAP3 SWAP2 SWAP1 PUSH4 0xFFFFFFFF AND JUMP JUMPDEST JUMPDEST DUP2 PUSH0 ADD PUSH0 SWAP1 SLOAD SWAP1 PUSH2 0x100 EXP SWAP1 DIV PUSH20 0xFFFFFFFFFFFFFFFFFFFFFFFFFFFFFFFFFFFFFFFF AND PUSH20 0xFFFFFFFFFFFFFFFFFFFFFFFFFFFFFFFFFFFFFFFF AND PUSH32 0xF9C1EEBF9A6880C5357A85A01ED17F20FED16844F1E75D070866C77EAA1A4FDB DUP5 DUP5 PUSH1 0x3 ADD PUSH0 SWAP1 SLOAD SWAP1 PUSH2 0x100 EXP SWAP1 DIV PUSH1 0xFF AND TIMESTAMP PUSH1 0x40 MLOAD PUSH2 0x1251 SWAP4 SWAP3 SWAP2 SWAP1 PUSH2 0x1F4A JUMP JUMPDEST PUSH1 0x40 MLOAD DUP1 SWAP2 SUB SWAP1 LOG2 POP POP PUSH2 0x1263 PUSH2 0x14EB JUMP JUMPDEST POP POP POP JUMP JUMPDEST PUSH2 0x1270 PUSH2 0x1423 JUMP JUMPDEST PUSH0 CALLVALUE GT PUSH2 0x12B2 JUMPI PUSH1 0x40 MLOAD PUSH32 0x8C379A000000000000000000000000000000000000000000000000000000000 DUP2 MSTORE PUSH1 0x4 ADD PUSH2 0x12A9 SWAP1 PUSH2 0x2532 JUMP JUMPDEST PUSH1 0x40 MLOAD DUP1 SWAP2 SUB SWAP1 REVERT JUMPDEST CALLVALUE PUSH1 0x2 PUSH0 CALLER PUSH20 0xFFFFFFFFFFFFFFFFFFFFFFFFFFFFFFFFFFFFFFFF AND PUSH20 0xFFFFFFFFFFFFFFFFFFFFFFFFFFFFFFFFFFFFFFFF AND DUP2 MSTORE PUSH1 0x20 ADD SWAP1 DUP2 MSTORE PUSH1 0x20 ADD PUSH0 KECCAK256 PUSH0 DUP5 PUSH1 0xFF AND PUSH1 0xFF AND DUP2 MSTORE PUSH1 0x20 ADD SWAP1 DUP2 MSTORE PUSH1 0x20 ADD PUSH0 KECCAK256 DUP3 PUSH4 0xFFFFFFFF AND DUP2 SLOAD DUP2 LT PUSH2 0x131D JUMPI PUSH2 0x131C PUSH2 0x1EBD JUMP JUMPDEST JUMPDEST SWAP1 PUSH0 MSTORE PUSH1 0x20 PUSH0 KECCAK256 SWAP1 PUSH1 0x4 MUL ADD PUSH1 0x1 ADD PUSH0 DUP3 DUP3 SLOAD PUSH2 0x133A SWAP2 SWAP1 PUSH2 0x1F17 JUMP JUMPDEST SWAP3 POP POP DUP2 SWAP1 SSTORE POP PUSH0 PUSH20 0xFFFFFFFFFFFFFFFFFFFFFFFFFFFFFFFFFFFFFFFF AND PUSH32 0xC66E6F7D74D0C9E1B876D9A16E6A5E1CC740B73075424F001B9CF91AD042C317 CALLVALUE DUP5 TIMESTAMP PUSH1 0x40 MLOAD PUSH2 0x138B SWAP4 SWAP3 SWAP2 SWAP1 PUSH2 0x1F4A JUMP JUMPDEST PUSH1 0x40 MLOAD DUP1 SWAP2 SUB SWAP1 LOG2 PUSH2 0x139B PUSH2 0x14EB JUMP JUMPDEST POP POP JUMP JUMPDEST PUSH2 0x13A7 PUSH2 0x14F4 JUMP JUMPDEST PUSH0 PUSH20 0xFFFFFFFFFFFFFFFFFFFFFFFFFFFFFFFFFFFFFFFF AND DUP2 PUSH20 0xFFFFFFFFFFFFFFFFFFFFFFFFFFFFFFFFFFFFFFFF AND SUB PUSH2 0x1417 JUMPI PUSH0 PUSH1 0x40 MLOAD PUSH32 0x1E4FBDF700000000000000000000000000000000000000000000000000000000 DUP2 MSTORE PUSH1 0x4 ADD PUSH2 0x140E SWAP2 SWAP1 PUSH2 0x1B89 JUMP JUMPDEST PUSH1 0x40 MLOAD DUP1 SWAP2 SUB SWAP1 REVERT JUMPDEST PUSH2 0x1420 DUP2 PUSH2 0x157B JUMP JUMPDEST POP JUMP JUMPDEST PUSH1 0x2 PUSH1 0x1 SLOAD SUB PUSH2 0x145F JUMPI PUSH1 0x40 MLOAD PUSH32 0x3EE5AEB500000000000000000000000000000000000000000000000000000000 DUP2 MSTORE PUSH1 0x4 ADD PUSH1 0x40 MLOAD DUP1 SWAP2 SUB SWAP1 REVERT JUMPDEST PUSH1 0x2 PUSH1 0x1 DUP2 SWAP1 SSTORE POP JUMP JUMPDEST PUSH2 0x14E5 DUP5 DUP6 PUSH20 0xFFFFFFFFFFFFFFFFFFFFFFFFFFFFFFFFFFFFFFFF AND PUSH4 0x23B872DD DUP7 DUP7 DUP7 PUSH1 0x40 MLOAD PUSH1 0x24 ADD PUSH2 0x149E SWAP4 SWAP3 SWAP2 SWAP1 PUSH2 0x2550 JUMP JUMPDEST PUSH1 0x40 MLOAD PUSH1 0x20 DUP2 DUP4 SUB SUB DUP2 MSTORE SWAP1 PUSH1 0x40 MSTORE SWAP2 POP PUSH1 0xE0 SHL PUSH1 0x20 DUP3 ADD DUP1 MLOAD PUSH28 0xFFFFFFFFFFFFFFFFFFFFFFFFFFFFFFFFFFFFFFFFFFFFFFFFFFFFFFFF DUP4 DUP2 DUP4 AND OR DUP4 MSTORE POP POP POP POP PUSH2 0x16BB JUMP JUMPDEST POP POP POP POP JUMP JUMPDEST PUSH1 0x1 DUP1 DUP2 SWAP1 SSTORE POP JUMP JUMPDEST PUSH2 0x14FC PUSH2 0x1756 JUMP JUMPDEST PUSH20 0xFFFFFFFFFFFFFFFFFFFFFFFFFFFFFFFFFFFFFFFF AND PUSH2 0x151A PUSH2 0xCD5 JUMP JUMPDEST PUSH20 0xFFFFFFFFFFFFFFFFFFFFFFFFFFFFFFFFFFFFFFFF AND EQ PUSH2 0x1579 JUMPI PUSH2 0x153D PUSH2 0x1756 JUMP JUMPDEST PUSH1 0x40 MLOAD PUSH32 0x118CDAA700000000000000000000000000000000000000000000000000000000 DUP2 MSTORE PUSH1 0x4 ADD PUSH2 0x1570 SWAP2 SWAP1 PUSH2 0x1B89 JUMP JUMPDEST PUSH1 0x40 MLOAD DUP1 SWAP2 SUB SWAP1 REVERT JUMPDEST JUMP JUMPDEST PUSH0 DUP1 PUSH0 SWAP1 SLOAD SWAP1 PUSH2 0x100 EXP SWAP1 DIV PUSH20 0xFFFFFFFFFFFFFFFFFFFFFFFFFFFFFFFFFFFFFFFF AND SWAP1 POP DUP2 PUSH0 DUP1 PUSH2 0x100 EXP DUP2 SLOAD DUP2 PUSH20 0xFFFFFFFFFFFFFFFFFFFFFFFFFFFFFFFFFFFFFFFF MUL NOT AND SWAP1 DUP4 PUSH20 0xFFFFFFFFFFFFFFFFFFFFFFFFFFFFFFFFFFFFFFFF AND MUL OR SWAP1 SSTORE POP DUP2 PUSH20 0xFFFFFFFFFFFFFFFFFFFFFFFFFFFFFFFFFFFFFFFF AND DUP2 PUSH20 0xFFFFFFFFFFFFFFFFFFFFFFFFFFFFFFFFFFFFFFFF AND PUSH32 0x8BE0079C531659141344CD1FD0A4F28419497F9722A3DAAFE3B4186F6B6457E0 PUSH1 0x40 MLOAD PUSH1 0x40 MLOAD DUP1 SWAP2 SUB SWAP1 LOG3 POP POP JUMP JUMPDEST PUSH2 0x16B6 DUP4 DUP5 PUSH20 0xFFFFFFFFFFFFFFFFFFFFFFFFFFFFFFFFFFFFFFFF AND PUSH4 0xA9059CBB DUP6 DUP6 PUSH1 0x40 MLOAD PUSH1 0x24 ADD PUSH2 0x166F SWAP3 SWAP2 SWAP1 PUSH2 0x2585 JUMP JUMPDEST PUSH1 0x40 MLOAD PUSH1 0x20 DUP2 DUP4 SUB SUB DUP2 MSTORE SWAP1 PUSH1 0x40 MSTORE SWAP2 POP PUSH1 0xE0 SHL PUSH1 0x20 DUP3 ADD DUP1 MLOAD PUSH28 0xFFFFFFFFFFFFFFFFFFFFFFFFFFFFFFFFFFFFFFFFFFFFFFFFFFFFFFFF DUP4 DUP2 DUP4 AND OR DUP4 MSTORE POP POP POP POP PUSH2 0x16BB JUMP JUMPDEST POP POP POP JUMP JUMPDEST PUSH0 DUP1 PUSH1 0x20 PUSH0 DUP5 MLOAD PUSH1 0x20 DUP7 ADD PUSH0 DUP9 GAS CALL DUP1 PUSH2 0x16DA JUMPI PUSH1 0x40 MLOAD RETURNDATASIZE PUSH0 DUP3 RETURNDATACOPY RETURNDATASIZE DUP2 REVERT JUMPDEST RETURNDATASIZE SWAP3 POP PUSH0 MLOAD SWAP2 POP POP PUSH0 DUP3 EQ PUSH2 0x16F3 JUMPI PUSH1 0x1 DUP2 EQ ISZERO PUSH2 0x170E JUMP JUMPDEST PUSH0 DUP5 PUSH20 0xFFFFFFFFFFFFFFFFFFFFFFFFFFFFFFFFFFFFFFFF AND EXTCODESIZE EQ JUMPDEST ISZERO PUSH2 0x1750 JUMPI DUP4 PUSH1 0x40 MLOAD PUSH32 0x5274AFE700000000000000000000000000000000000000000000000000000000 DUP2 MSTORE PUSH1 0x4 ADD PUSH2 0x1747 SWAP2 SWAP1 PUSH2 0x1B89 JUMP JUMPDEST PUSH1 0x40 MLOAD DUP1 SWAP2 SUB SWAP1 REVERT JUMPDEST POP POP POP POP JUMP JUMPDEST PUSH0 CALLER SWAP1 POP SWAP1 JUMP JUMPDEST PUSH0 DUP1 REVERT JUMPDEST PUSH0 PUSH20 0xFFFFFFFFFFFFFFFFFFFFFFFFFFFFFFFFFFFFFFFF DUP3 AND SWAP1 POP SWAP2 SWAP1 POP JUMP JUMPDEST PUSH0 PUSH2 0x178A DUP3 PUSH2 0x1761 JUMP JUMPDEST SWAP1 POP SWAP2 SWAP1 POP JUMP JUMPDEST PUSH0 PUSH2 0x179B DUP3 PUSH2 0x1780 JUMP JUMPDEST SWAP1 POP SWAP2 SWAP1 POP JUMP JUMPDEST PUSH2 0x17AB DUP2 PUSH2 0x1791 JUMP JUMPDEST DUP2 EQ PUSH2 0x17B5 JUMPI PUSH0 DUP1 REVERT JUMPDEST POP JUMP JUMPDEST PUSH0 DUP2 CALLDATALOAD SWAP1 POP PUSH2 0x17C6 DUP2 PUSH2 0x17A2 JUMP JUMPDEST SWAP3 SWAP2 POP POP JUMP JUMPDEST PUSH0 PUSH1 0x20 DUP3 DUP5 SUB SLT ISZERO PUSH2 0x17E1 JUMPI PUSH2 0x17E0 PUSH2 0x175D JUMP JUMPDEST JUMPDEST PUSH0 PUSH2 0x17EE DUP5 DUP3 DUP6 ADD PUSH2 0x17B8 JUMP JUMPDEST SWAP2 POP POP SWAP3 SWAP2 POP POP JUMP JUMPDEST PUSH0 DUP2 SWAP1 POP SWAP2 SWAP1 POP JUMP JUMPDEST PUSH2 0x1809 DUP2 PUSH2 0x17F7 JUMP JUMPDEST DUP3 MSTORE POP POP JUMP JUMPDEST PUSH0 PUSH1 0x20 DUP3 ADD SWAP1 POP PUSH2 0x1822 PUSH0 DUP4 ADD DUP5 PUSH2 0x1800 JUMP JUMPDEST SWAP3 SWAP2 POP POP JUMP JUMPDEST PUSH0 PUSH4 0xFFFFFFFF DUP3 AND SWAP1 POP SWAP2 SWAP1 POP JUMP JUMPDEST PUSH2 0x1840 DUP2 PUSH2 0x1828 JUMP JUMPDEST DUP2 EQ PUSH2 0x184A JUMPI PUSH0 DUP1 REVERT JUMPDEST POP JUMP JUMPDEST PUSH0 DUP2 CALLDATALOAD SWAP1 POP PUSH2 0x185B DUP2 PUSH2 0x1837 JUMP JUMPDEST SWAP3 SWAP2 POP POP JUMP JUMPDEST PUSH2 0x186A DUP2 PUSH2 0x17F7 JUMP JUMPDEST DUP2 EQ PUSH2 0x1874 JUMPI PUSH0 DUP1 REVERT JUMPDEST POP JUMP JUMPDEST PUSH0 DUP2 CALLDATALOAD SWAP1 POP PUSH2 0x1885 DUP2 PUSH2 0x1861 JUMP JUMPDEST SWAP3 SWAP2 POP POP JUMP JUMPDEST PUSH0 PUSH1 0xFF DUP3 AND SWAP1 POP SWAP2 SWAP1 POP JUMP JUMPDEST PUSH2 0x18A0 DUP2 PUSH2 0x188B JUMP JUMPDEST DUP2 EQ PUSH2 0x18AA JUMPI PUSH0 DUP1 REVERT JUMPDEST POP JUMP JUMPDEST PUSH0 DUP2 CALLDATALOAD SWAP1 POP PUSH2 0x18BB DUP2 PUSH2 0x1897 JUMP JUMPDEST SWAP3 SWAP2 POP POP JUMP JUMPDEST PUSH0 DUP1 PUSH0 DUP1 PUSH1 0x80 DUP6 DUP8 SUB SLT ISZERO PUSH2 0x18D9 JUMPI PUSH2 0x18D8 PUSH2 0x175D JUMP JUMPDEST JUMPDEST PUSH0 PUSH2 0x18E6 DUP8 DUP3 DUP9 ADD PUSH2 0x17B8 JUMP JUMPDEST SWAP5 POP POP PUSH1 0x20 PUSH2 0x18F7 DUP8 DUP3 DUP9 ADD PUSH2 0x184D JUMP JUMPDEST SWAP4 POP POP PUSH1 0x40 PUSH2 0x1908 DUP8 DUP3 DUP9 ADD PUSH2 0x1877 JUMP JUMPDEST SWAP3 POP POP PUSH1 0x60 PUSH2 0x1919 DUP8 DUP3 DUP9 ADD PUSH2 0x18AD JUMP JUMPDEST SWAP2 POP POP SWAP3 SWAP6 SWAP2 SWAP5 POP SWAP3 POP JUMP JUMPDEST PUSH0 PUSH1 0x20 DUP3 DUP5 SUB SLT ISZERO PUSH2 0x193A JUMPI PUSH2 0x1939 PUSH2 0x175D JUMP JUMPDEST JUMPDEST PUSH0 PUSH2 0x1947 DUP5 DUP3 DUP6 ADD PUSH2 0x18AD JUMP JUMPDEST SWAP2 POP POP SWAP3 SWAP2 POP POP JUMP JUMPDEST PUSH0 DUP2 MLOAD SWAP1 POP SWAP2 SWAP1 POP JUMP JUMPDEST PUSH0 DUP3 DUP3 MSTORE PUSH1 0x20 DUP3 ADD SWAP1 POP SWAP3 SWAP2 POP POP JUMP JUMPDEST PUSH0 DUP2 SWAP1 POP PUSH1 0x20 DUP3 ADD SWAP1 POP SWAP2 SWAP1 POP JUMP JUMPDEST PUSH2 0x1982 DUP2 PUSH2 0x1780 JUMP JUMPDEST DUP3 MSTORE POP POP JUMP JUMPDEST PUSH2 0x1991 DUP2 PUSH2 0x17F7 JUMP JUMPDEST DUP3 MSTORE POP POP JUMP JUMPDEST PUSH2 0x19A0 DUP2 PUSH2 0x188B JUMP JUMPDEST DUP3 MSTORE POP POP JUMP JUMPDEST PUSH0 DUP2 ISZERO ISZERO SWAP1 POP SWAP2 SWAP1 POP JUMP JUMPDEST PUSH2 0x19BA DUP2 PUSH2 0x19A6 JUMP JUMPDEST DUP3 MSTORE POP POP JUMP JUMPDEST PUSH1 0xC0 DUP3 ADD PUSH0 DUP3 ADD MLOAD PUSH2 0x19D4 PUSH0 DUP6 ADD DUP3 PUSH2 0x1979 JUMP JUMPDEST POP PUSH1 0x20 DUP3 ADD MLOAD PUSH2 0x19E7 PUSH1 0x20 DUP6 ADD DUP3 PUSH2 0x1988 JUMP JUMPDEST POP PUSH1 0x40 DUP3 ADD MLOAD PUSH2 0x19FA PUSH1 0x40 DUP6 ADD DUP3 PUSH2 0x1988 JUMP JUMPDEST POP PUSH1 0x60 DUP3 ADD MLOAD PUSH2 0x1A0D PUSH1 0x60 DUP6 ADD DUP3 PUSH2 0x1997 JUMP JUMPDEST POP PUSH1 0x80 DUP3 ADD MLOAD PUSH2 0x1A20 PUSH1 0x80 DUP6 ADD DUP3 PUSH2 0x19B1 JUMP JUMPDEST POP PUSH1 0xA0 DUP3 ADD MLOAD PUSH2 0x1A33 PUSH1 0xA0 DUP6 ADD DUP3 PUSH2 0x19B1 JUMP JUMPDEST POP POP POP POP JUMP JUMPDEST PUSH0 PUSH2 0x1A44 DUP4 DUP4 PUSH2 0x19C0 JUMP JUMPDEST PUSH1 0xC0 DUP4 ADD SWAP1 POP SWAP3 SWAP2 POP POP JUMP JUMPDEST PUSH0 PUSH1 0x20 DUP3 ADD SWAP1 POP SWAP2 SWAP1 POP JUMP JUMPDEST PUSH0 PUSH2 0x1A66 DUP3 PUSH2 0x1950 JUMP JUMPDEST PUSH2 0x1A70 DUP2 DUP6 PUSH2 0x195A JUMP JUMPDEST SWAP4 POP PUSH2 0x1A7B DUP4 PUSH2 0x196A JUMP JUMPDEST DUP1 PUSH0 JUMPDEST DUP4 DUP2 LT ISZERO PUSH2 0x1AAB JUMPI DUP2 MLOAD PUSH2 0x1A92 DUP9 DUP3 PUSH2 0x1A39 JUMP JUMPDEST SWAP8 POP PUSH2 0x1A9D DUP4 PUSH2 0x1A50 JUMP JUMPDEST SWAP3 POP POP PUSH1 0x1 DUP2 ADD SWAP1 POP PUSH2 0x1A7E JUMP JUMPDEST POP DUP6 SWAP4 POP POP POP POP SWAP3 SWAP2 POP POP JUMP JUMPDEST PUSH0 PUSH1 0x20 DUP3 ADD SWAP1 POP DUP2 DUP2 SUB PUSH0 DUP4 ADD MSTORE PUSH2 0x1AD0 DUP2 DUP5 PUSH2 0x1A5C JUMP JUMPDEST SWAP1 POP SWAP3 SWAP2 POP POP JUMP JUMPDEST PUSH0 DUP1 PUSH1 0x40 DUP4 DUP6 SUB SLT ISZERO PUSH2 0x1AEE JUMPI PUSH2 0x1AED PUSH2 0x175D JUMP JUMPDEST JUMPDEST PUSH0 PUSH2 0x1AFB DUP6 DUP3 DUP7 ADD PUSH2 0x18AD JUMP JUMPDEST SWAP3 POP POP PUSH1 0x20 PUSH2 0x1B0C DUP6 DUP3 DUP7 ADD PUSH2 0x1877 JUMP JUMPDEST SWAP2 POP POP SWAP3 POP SWAP3 SWAP1 POP JUMP JUMPDEST PUSH0 DUP1 PUSH0 DUP1 PUSH1 0x80 DUP6 DUP8 SUB SLT ISZERO PUSH2 0x1B2E JUMPI PUSH2 0x1B2D PUSH2 0x175D JUMP JUMPDEST JUMPDEST PUSH0 PUSH2 0x1B3B DUP8 DUP3 DUP9 ADD PUSH2 0x17B8 JUMP JUMPDEST SWAP5 POP POP PUSH1 0x20 PUSH2 0x1B4C DUP8 DUP3 DUP9 ADD PUSH2 0x1877 JUMP JUMPDEST SWAP4 POP POP PUSH1 0x40 PUSH2 0x1B5D DUP8 DUP3 DUP9 ADD PUSH2 0x18AD JUMP JUMPDEST SWAP3 POP POP PUSH1 0x60 PUSH2 0x1B6E DUP8 DUP3 DUP9 ADD PUSH2 0x1877 JUMP JUMPDEST SWAP2 POP POP SWAP3 SWAP6 SWAP2 SWAP5 POP SWAP3 POP JUMP JUMPDEST PUSH2 0x1B83 DUP2 PUSH2 0x1780 JUMP JUMPDEST DUP3 MSTORE POP POP JUMP JUMPDEST PUSH0 PUSH1 0x20 DUP3 ADD SWAP1 POP PUSH2 0x1B9C PUSH0 DUP4 ADD DUP5 PUSH2 0x1B7A JUMP JUMPDEST SWAP3 SWAP2 POP POP JUMP JUMPDEST PUSH2 0x1BAB DUP2 PUSH2 0x1780 JUMP JUMPDEST DUP2 EQ PUSH2 0x1BB5 JUMPI PUSH0 DUP1 REVERT JUMPDEST POP JUMP JUMPDEST PUSH0 DUP2 CALLDATALOAD SWAP1 POP PUSH2 0x1BC6 DUP2 PUSH2 0x1BA2 JUMP JUMPDEST SWAP3 SWAP2 POP POP JUMP JUMPDEST PUSH0 DUP1 PUSH0 PUSH1 0x60 DUP5 DUP7 SUB SLT ISZERO PUSH2 0x1BE3 JUMPI PUSH2 0x1BE2 PUSH2 0x175D JUMP JUMPDEST JUMPDEST PUSH0 PUSH2 0x1BF0 DUP7 DUP3 DUP8 ADD PUSH2 0x1BB8 JUMP JUMPDEST SWAP4 POP POP PUSH1 0x20 PUSH2 0x1C01 DUP7 DUP3 DUP8 ADD PUSH2 0x18AD JUMP JUMPDEST SWAP3 POP POP PUSH1 0x40 PUSH2 0x1C12 DUP7 DUP3 DUP8 ADD PUSH2 0x1877 JUMP JUMPDEST SWAP2 POP POP SWAP3 POP SWAP3 POP SWAP3 JUMP JUMPDEST PUSH2 0x1C25 DUP2 PUSH2 0x188B JUMP JUMPDEST DUP3 MSTORE POP POP JUMP JUMPDEST PUSH2 0x1C34 DUP2 PUSH2 0x19A6 JUMP JUMPDEST DUP3 MSTORE POP POP JUMP JUMPDEST PUSH0 PUSH1 0xC0 DUP3 ADD SWAP1 POP PUSH2 0x1C4D PUSH0 DUP4 ADD DUP10 PUSH2 0x1B7A JUMP JUMPDEST PUSH2 0x1C5A PUSH1 0x20 DUP4 ADD DUP9 PUSH2 0x1800 JUMP JUMPDEST PUSH2 0x1C67 PUSH1 0x40 DUP4 ADD DUP8 PUSH2 0x1800 JUMP JUMPDEST PUSH2 0x1C74 PUSH1 0x60 DUP4 ADD DUP7 PUSH2 0x1C1C JUMP JUMPDEST PUSH2 0x1C81 PUSH1 0x80 DUP4 ADD DUP6 PUSH2 0x1C2B JUMP JUMPDEST PUSH2 0x1C8E PUSH1 0xA0 DUP4 ADD DUP5 PUSH2 0x1C2B JUMP JUMPDEST SWAP8 SWAP7 POP POP POP POP POP POP POP JUMP JUMPDEST PUSH0 DUP1 PUSH0 PUSH1 0x60 DUP5 DUP7 SUB SLT ISZERO PUSH2 0x1CB0 JUMPI PUSH2 0x1CAF PUSH2 0x175D JUMP JUMPDEST JUMPDEST PUSH0 PUSH2 0x1CBD DUP7 DUP3 DUP8 ADD PUSH2 0x184D JUMP JUMPDEST SWAP4 POP POP PUSH1 0x20 PUSH2 0x1CCE DUP7 DUP3 DUP8 ADD PUSH2 0x18AD JUMP JUMPDEST SWAP3 POP POP PUSH1 0x40 PUSH2 0x1CDF DUP7 DUP3 DUP8 ADD PUSH2 0x1877 JUMP JUMPDEST SWAP2 POP POP SWAP3 POP SWAP3 POP SWAP3 JUMP JUMPDEST PUSH0 DUP1 PUSH1 0x40 DUP4 DUP6 SUB SLT ISZERO PUSH2 0x1CFF JUMPI PUSH2 0x1CFE PUSH2 0x175D JUMP JUMPDEST JUMPDEST PUSH0 PUSH2 0x1D0C DUP6 DUP3 DUP7 ADD PUSH2 0x18AD JUMP JUMPDEST SWAP3 POP POP PUSH1 0x20 PUSH2 0x1D1D DUP6 DUP3 DUP7 ADD PUSH2 0x184D JUMP JUMPDEST SWAP2 POP POP SWAP3 POP SWAP3 SWAP1 POP JUMP JUMPDEST PUSH0 PUSH1 0x20 DUP3 DUP5 SUB SLT ISZERO PUSH2 0x1D3C JUMPI PUSH2 0x1D3B PUSH2 0x175D JUMP JUMPDEST JUMPDEST PUSH0 PUSH2 0x1D49 DUP5 DUP3 DUP6 ADD PUSH2 0x1BB8 JUMP JUMPDEST SWAP2 POP POP SWAP3 SWAP2 POP POP JUMP JUMPDEST PUSH0 DUP2 MLOAD SWAP1 POP PUSH2 0x1D60 DUP2 PUSH2 0x1861 JUMP JUMPDEST SWAP3 SWAP2 POP POP JUMP JUMPDEST PUSH0 PUSH1 0x20 DUP3 DUP5 SUB SLT ISZERO PUSH2 0x1D7B JUMPI PUSH2 0x1D7A PUSH2 0x175D JUMP JUMPDEST JUMPDEST PUSH0 PUSH2 0x1D88 DUP5 DUP3 DUP6 ADD PUSH2 0x1D52 JUMP JUMPDEST SWAP2 POP POP SWAP3 SWAP2 POP POP JUMP JUMPDEST PUSH0 DUP3 DUP3 MSTORE PUSH1 0x20 DUP3 ADD SWAP1 POP SWAP3 SWAP2 POP POP JUMP JUMPDEST PUSH32 0x4D7573742070726F7669646520612076616C696420746F6B656E206164647265 PUSH0 DUP3 ADD MSTORE PUSH32 0x7373000000000000000000000000000000000000000000000000000000000000 PUSH1 0x20 DUP3 ADD MSTORE POP JUMP JUMPDEST PUSH0 PUSH2 0x1DFB PUSH1 0x22 DUP4 PUSH2 0x1D91 JUMP JUMPDEST SWAP2 POP PUSH2 0x1E06 DUP3 PUSH2 0x1DA1 JUMP JUMPDEST PUSH1 0x40 DUP3 ADD SWAP1 POP SWAP2 SWAP1 POP JUMP JUMPDEST PUSH0 PUSH1 0x20 DUP3 ADD SWAP1 POP DUP2 DUP2 SUB PUSH0 DUP4 ADD MSTORE PUSH2 0x1E28 DUP2 PUSH2 0x1DEF JUMP JUMPDEST SWAP1 POP SWAP2 SWAP1 POP JUMP JUMPDEST PUSH32 0x546F6B656E20616D6F756E74206D757374206265206772656174657220746865 PUSH0 DUP3 ADD MSTORE PUSH32 0x6E207A65726F0000000000000000000000000000000000000000000000000000 PUSH1 0x20 DUP3 ADD MSTORE POP JUMP JUMPDEST PUSH0 PUSH2 0x1E89 PUSH1 0x26 DUP4 PUSH2 0x1D91 JUMP JUMPDEST SWAP2 POP PUSH2 0x1E94 DUP3 PUSH2 0x1E2F JUMP JUMPDEST PUSH1 0x40 DUP3 ADD SWAP1 POP SWAP2 SWAP1 POP JUMP JUMPDEST PUSH0 PUSH1 0x20 DUP3 ADD SWAP1 POP DUP2 DUP2 SUB PUSH0 DUP4 ADD MSTORE PUSH2 0x1EB6 DUP2 PUSH2 0x1E7D JUMP JUMPDEST SWAP1 POP SWAP2 SWAP1 POP JUMP JUMPDEST PUSH32 0x4E487B7100000000000000000000000000000000000000000000000000000000 PUSH0 MSTORE PUSH1 0x32 PUSH1 0x4 MSTORE PUSH1 0x24 PUSH0 REVERT JUMPDEST PUSH32 0x4E487B7100000000000000000000000000000000000000000000000000000000 PUSH0 MSTORE PUSH1 0x11 PUSH1 0x4 MSTORE PUSH1 0x24 PUSH0 REVERT JUMPDEST PUSH0 PUSH2 0x1F21 DUP3 PUSH2 0x17F7 JUMP JUMPDEST SWAP2 POP PUSH2 0x1F2C DUP4 PUSH2 0x17F7 JUMP JUMPDEST SWAP3 POP DUP3 DUP3 ADD SWAP1 POP DUP1 DUP3 GT ISZERO PUSH2 0x1F44 JUMPI PUSH2 0x1F43 PUSH2 0x1EEA JUMP JUMPDEST JUMPDEST SWAP3 SWAP2 POP POP JUMP JUMPDEST PUSH0 PUSH1 0x60 DUP3 ADD SWAP1 POP PUSH2 0x1F5D PUSH0 DUP4 ADD DUP7 PUSH2 0x1800 JUMP JUMPDEST PUSH2 0x1F6A PUSH1 0x20 DUP4 ADD DUP6 PUSH2 0x1C1C JUMP JUMPDEST PUSH2 0x1F77 PUSH1 0x40 DUP4 ADD DUP5 PUSH2 0x1800 JUMP JUMPDEST SWAP5 SWAP4 POP POP POP POP JUMP JUMPDEST PUSH32 0x45544820746F206C6F636B206D75737420612076616C75652067726561746572 PUSH0 DUP3 ADD MSTORE PUSH32 0x207468616E203000000000000000000000000000000000000000000000000000 PUSH1 0x20 DUP3 ADD MSTORE POP JUMP JUMPDEST PUSH0 PUSH2 0x1FD9 PUSH1 0x27 DUP4 PUSH2 0x1D91 JUMP JUMPDEST SWAP2 POP PUSH2 0x1FE4 DUP3 PUSH2 0x1F7F JUMP JUMPDEST PUSH1 0x40 DUP3 ADD SWAP1 POP SWAP2 SWAP1 POP JUMP JUMPDEST PUSH0 PUSH1 0x20 DUP3 ADD SWAP1 POP DUP2 DUP2 SUB PUSH0 DUP4 ADD MSTORE PUSH2 0x2006 DUP2 PUSH2 0x1FCD JUMP JUMPDEST SWAP1 POP SWAP2 SWAP1 POP JUMP JUMPDEST PUSH32 0x546865206C6F636B706572696F64206D75737420626520677265617465722074 PUSH0 DUP3 ADD MSTORE PUSH32 0x68656E207A65726F000000000000000000000000000000000000000000000000 PUSH1 0x20 DUP3 ADD MSTORE POP JUMP JUMPDEST PUSH0 PUSH2 0x2067 PUSH1 0x28 DUP4 PUSH2 0x1D91 JUMP JUMPDEST SWAP2 POP PUSH2 0x2072 DUP3 PUSH2 0x200D JUMP JUMPDEST PUSH1 0x40 DUP3 ADD SWAP1 POP SWAP2 SWAP1 POP JUMP JUMPDEST PUSH0 PUSH1 0x20 DUP3 ADD SWAP1 POP DUP2 DUP2 SUB PUSH0 DUP4 ADD MSTORE PUSH2 0x2094 DUP2 PUSH2 0x205B JUMP JUMPDEST SWAP1 POP SWAP2 SWAP1 POP JUMP JUMPDEST PUSH0 PUSH1 0x80 DUP3 ADD SWAP1 POP PUSH2 0x20AE PUSH0 DUP4 ADD DUP8 PUSH2 0x1800 JUMP JUMPDEST PUSH2 0x20BB PUSH1 0x20 DUP4 ADD DUP7 PUSH2 0x1C1C JUMP JUMPDEST PUSH2 0x20C8 PUSH1 0x40 DUP4 ADD DUP6 PUSH2 0x1800 JUMP JUMPDEST PUSH2 0x20D5 PUSH1 0x60 DUP4 ADD DUP5 PUSH2 0x1800 JUMP JUMPDEST SWAP6 SWAP5 POP POP POP POP POP JUMP JUMPDEST PUSH32 0x546865206C6F636B20706572696F64206D757374206265206772656174657220 PUSH0 DUP3 ADD MSTORE PUSH32 0x7468656E207A65726F0000000000000000000000000000000000000000000000 PUSH1 0x20 DUP3 ADD MSTORE POP JUMP JUMPDEST PUSH0 PUSH2 0x2138 PUSH1 0x29 DUP4 PUSH2 0x1D91 JUMP JUMPDEST SWAP2 POP PUSH2 0x2143 DUP3 PUSH2 0x20DE JUMP JUMPDEST PUSH1 0x40 DUP3 ADD SWAP1 POP SWAP2 SWAP1 POP JUMP JUMPDEST PUSH0 PUSH1 0x20 DUP3 ADD SWAP1 POP DUP2 DUP2 SUB PUSH0 DUP4 ADD MSTORE PUSH2 0x2165 DUP2 PUSH2 0x212C JUMP JUMPDEST SWAP1 POP SWAP2 SWAP1 POP JUMP JUMPDEST PUSH32 0x4E6F7420656E6F75676820746F6B656E7320746F206C6F636B00000000000000 PUSH0 DUP3 ADD MSTORE POP JUMP JUMPDEST PUSH0 PUSH2 0x21A0 PUSH1 0x19 DUP4 PUSH2 0x1D91 JUMP JUMPDEST SWAP2 POP PUSH2 0x21AB DUP3 PUSH2 0x216C JUMP JUMPDEST PUSH1 0x20 DUP3 ADD SWAP1 POP SWAP2 SWAP1 POP JUMP JUMPDEST PUSH0 PUSH1 0x20 DUP3 ADD SWAP1 POP DUP2 DUP2 SUB PUSH0 DUP4 ADD MSTORE PUSH2 0x21CD DUP2 PUSH2 0x2194 JUMP JUMPDEST SWAP1 POP SWAP2 SWAP1 POP JUMP JUMPDEST PUSH32 0x5468652073706563696669656420617373657420494420697320696E76616C69 PUSH0 DUP3 ADD MSTORE PUSH32 0x642E000000000000000000000000000000000000000000000000000000000000 PUSH1 0x20 DUP3 ADD MSTORE POP JUMP JUMPDEST PUSH0 PUSH2 0x222E PUSH1 0x22 DUP4 PUSH2 0x1D91 JUMP JUMPDEST SWAP2 POP PUSH2 0x2239 DUP3 PUSH2 0x21D4 JUMP JUMPDEST PUSH1 0x40 DUP3 ADD SWAP1 POP SWAP2 SWAP1 POP JUMP JUMPDEST PUSH0 PUSH1 0x20 DUP3 ADD SWAP1 POP DUP2 DUP2 SUB PUSH0 DUP4 ADD MSTORE PUSH2 0x225B DUP2 PUSH2 0x2222 JUMP JUMPDEST SWAP1 POP SWAP2 SWAP1 POP JUMP JUMPDEST PUSH32 0x417373657473206861766520616C7265616479206265656E2077697468647261 PUSH0 DUP3 ADD MSTORE PUSH32 0x776E210000000000000000000000000000000000000000000000000000000000 PUSH1 0x20 DUP3 ADD MSTORE POP JUMP JUMPDEST PUSH0 PUSH2 0x22BC PUSH1 0x23 DUP4 PUSH2 0x1D91 JUMP JUMPDEST SWAP2 POP PUSH2 0x22C7 DUP3 PUSH2 0x2262 JUMP JUMPDEST PUSH1 0x40 DUP3 ADD SWAP1 POP SWAP2 SWAP1 POP JUMP JUMPDEST PUSH0 PUSH1 0x20 DUP3 ADD SWAP1 POP DUP2 DUP2 SUB PUSH0 DUP4 ADD MSTORE PUSH2 0x22E9 DUP2 PUSH2 0x22B0 JUMP JUMPDEST SWAP1 POP SWAP2 SWAP1 POP JUMP JUMPDEST PUSH32 0x546865206C6F636B20706572696F6420686173206E6F74207965742065787069 PUSH0 DUP3 ADD MSTORE PUSH32 0x7265642100000000000000000000000000000000000000000000000000000000 PUSH1 0x20 DUP3 ADD MSTORE POP JUMP JUMPDEST PUSH0 PUSH2 0x234A PUSH1 0x24 DUP4 PUSH2 0x1D91 JUMP JUMPDEST SWAP2 POP PUSH2 0x2355 DUP3 PUSH2 0x22F0 JUMP JUMPDEST PUSH1 0x40 DUP3 ADD SWAP1 POP SWAP2 SWAP1 POP JUMP JUMPDEST PUSH0 PUSH1 0x20 DUP3 ADD SWAP1 POP DUP2 DUP2 SUB PUSH0 DUP4 ADD MSTORE PUSH2 0x2377 DUP2 PUSH2 0x233E JUMP JUMPDEST SWAP1 POP SWAP2 SWAP1 POP JUMP JUMPDEST PUSH0 PUSH2 0x2388 DUP3 PUSH2 0x17F7 JUMP JUMPDEST SWAP2 POP PUSH2 0x2393 DUP4 PUSH2 0x17F7 JUMP JUMPDEST SWAP3 POP DUP3 DUP3 SUB SWAP1 POP DUP2 DUP2 GT ISZERO PUSH2 0x23AB JUMPI PUSH2 0x23AA PUSH2 0x1EEA JUMP JUMPDEST JUMPDEST SWAP3 SWAP2 POP POP JUMP JUMPDEST PUSH32 0x4E6F7420656E6F7567682061737365747320746F207769746864726177210000 PUSH0 DUP3 ADD MSTORE POP JUMP JUMPDEST PUSH0 PUSH2 0x23E5 PUSH1 0x1E DUP4 PUSH2 0x1D91 JUMP JUMPDEST SWAP2 POP PUSH2 0x23F0 DUP3 PUSH2 0x23B1 JUMP JUMPDEST PUSH1 0x20 DUP3 ADD SWAP1 POP SWAP2 SWAP1 POP JUMP JUMPDEST PUSH0 PUSH1 0x20 DUP3 ADD SWAP1 POP DUP2 DUP2 SUB PUSH0 DUP4 ADD MSTORE PUSH2 0x2412 DUP2 PUSH2 0x23D9 JUMP JUMPDEST SWAP1 POP SWAP2 SWAP1 POP JUMP JUMPDEST PUSH0 DUP2 SWAP1 POP SWAP3 SWAP2 POP POP JUMP JUMPDEST POP JUMP JUMPDEST PUSH0 PUSH2 0x2431 PUSH0 DUP4 PUSH2 0x2419 JUMP JUMPDEST SWAP2 POP PUSH2 0x243C DUP3 PUSH2 0x2423 JUMP JUMPDEST PUSH0 DUP3 ADD SWAP1 POP SWAP2 SWAP1 POP JUMP JUMPDEST PUSH0 PUSH2 0x2450 DUP3 PUSH2 0x2426 JUMP JUMPDEST SWAP2 POP DUP2 SWAP1 POP SWAP2 SWAP1 POP JUMP JUMPDEST PUSH32 0x455448207472616E73666572206661696C656400000000000000000000000000 PUSH0 DUP3 ADD MSTORE POP JUMP JUMPDEST PUSH0 PUSH2 0x248E PUSH1 0x13 DUP4 PUSH2 0x1D91 JUMP JUMPDEST SWAP2 POP PUSH2 0x2499 DUP3 PUSH2 0x245A JUMP JUMPDEST PUSH1 0x20 DUP3 ADD SWAP1 POP SWAP2 SWAP1 POP JUMP JUMPDEST PUSH0 PUSH1 0x20 DUP3 ADD SWAP1 POP DUP2 DUP2 SUB PUSH0 DUP4 ADD MSTORE PUSH2 0x24BB DUP2 PUSH2 0x2482 JUMP JUMPDEST SWAP1 POP SWAP2 SWAP1 POP JUMP JUMPDEST PUSH32 0x45544820746F2061646420746F206C6F636B206D75737420626520616E20616D PUSH0 DUP3 ADD MSTORE PUSH32 0x6F756E742067726561746572207468616E203000000000000000000000000000 PUSH1 0x20 DUP3 ADD MSTORE POP JUMP JUMPDEST PUSH0 PUSH2 0x251C PUSH1 0x33 DUP4 PUSH2 0x1D91 JUMP JUMPDEST SWAP2 POP PUSH2 0x2527 DUP3 PUSH2 0x24C2 JUMP JUMPDEST PUSH1 0x40 DUP3 ADD SWAP1 POP SWAP2 SWAP1 POP JUMP JUMPDEST PUSH0 PUSH1 0x20 DUP3 ADD SWAP1 POP DUP2 DUP2 SUB PUSH0 DUP4 ADD MSTORE PUSH2 0x2549 DUP2 PUSH2 0x2510 JUMP JUMPDEST SWAP1 POP SWAP2 SWAP1 POP JUMP JUMPDEST PUSH0 PUSH1 0x60 DUP3 ADD SWAP1 POP PUSH2 0x2563 PUSH0 DUP4 ADD DUP7 PUSH2 0x1B7A JUMP JUMPDEST PUSH2 0x2570 PUSH1 0x20 DUP4 ADD DUP6 PUSH2 0x1B7A JUMP JUMPDEST PUSH2 0x257D PUSH1 0x40 DUP4 ADD DUP5 PUSH2 0x1800 JUMP JUMPDEST SWAP5 SWAP4 POP POP POP POP JUMP JUMPDEST PUSH0 PUSH1 0x40 DUP3 ADD SWAP1 POP PUSH2 0x2598 PUSH0 DUP4 ADD DUP6 PUSH2 0x1B7A JUMP JUMPDEST PUSH2 0x25A5 PUSH1 0x20 DUP4 ADD DUP5 PUSH2 0x1800 JUMP JUMPDEST SWAP4 SWAP3 POP POP POP JUMP INVALID LOG2 PUSH5 0x6970667358 0x22 SLT KECCAK256 SWAP12 0xAE 0xBB 0xCE PUSH23 0x4EA937AD4684949D0E02D633046A1A3B06B196BD4B17C4 0xB9 0x26 0xBB DUP10 PUSH5 0x736F6C6343 STOP ADDMOD BYTE STOP CALLER "
				},
				"gasEstimates": {
					"creation": {
						"codeDepositCost": "1939600",
						"executionCost": "infinite",
						"totalCost": "infinite"
					},
					"external": {
						"addToLockedETH(uint8,uint32)": "infinite",
						"addToLockedTokens(address,uint32,uint256,uint8)": "infinite",
						"getContractETHBalance()": "334",
						"getContractTokenBalance(address)": "infinite",
						"getUserLocks(uint8)": "infinite",
						"lockETH(uint8,uint256)": "infinite",
						"lockToken(address,uint256,uint8,uint256)": "infinite",
						"owner()": "2537",
						"renounceOwnership()": "infinite",
						"transferAsset(uint32,uint8,uint256)": "infinite",
						"transferOwnership(address)": "infinite",
						"userLockedAssets(address,uint8,uint256)": "infinite"
					}
				},
				"methodIdentifiers": {
					"addToLockedETH(uint8,uint32)": "ecaa9d05",
					"addToLockedTokens(address,uint32,uint256,uint8)": "2d8fefc2",
					"getContractETHBalance()": "8c89a0ad",
					"getContractTokenBalance(address)": "14205e28",
					"getUserLocks(uint8)": "3b958c38",
					"lockETH(uint8,uint256)": "4ae39e3e",
					"lockToken(address,uint256,uint8,uint256)": "5c41ed7c",
					"owner()": "8da5cb5b",
					"renounceOwnership()": "715018a6",
					"transferAsset(uint32,uint8,uint256)": "9e6c3ff2",
					"transferOwnership(address)": "f2fde38b",
					"userLockedAssets(address,uint8,uint256)": "8e06b906"
				}
			},
			"storageLayout": {
				"storage": [
					{
						"astId": 8,
						"contract": "contracts/Fvkry.sol:Fvkry",
						"label": "_owner",
						"offset": 0,
						"slot": "0",
						"type": "t_address"
					},
					{
						"astId": 765,
						"contract": "contracts/Fvkry.sol:Fvkry",
						"label": "_status",
						"offset": 0,
						"slot": "1",
						"type": "t_uint256"
					},
					{
						"astId": 870,
						"contract": "contracts/Fvkry.sol:Fvkry",
						"label": "userLockedAssets",
						"offset": 0,
						"slot": "2",
						"type": "t_mapping(t_address,t_mapping(t_uint8,t_array(t_struct(Lock)862_storage)dyn_storage))"
					}
				],
				"types": {
					"t_address": {
						"encoding": "inplace",
						"label": "address",
						"numberOfBytes": "20"
					},
					"t_array(t_struct(Lock)862_storage)dyn_storage": {
						"base": "t_struct(Lock)862_storage",
						"encoding": "dynamic_array",
						"label": "struct Fvkry.Lock[]",
						"numberOfBytes": "32"
					},
					"t_bool": {
						"encoding": "inplace",
						"label": "bool",
						"numberOfBytes": "1"
					},
					"t_mapping(t_address,t_mapping(t_uint8,t_array(t_struct(Lock)862_storage)dyn_storage))": {
						"encoding": "mapping",
						"key": "t_address",
						"label": "mapping(address => mapping(uint8 => struct Fvkry.Lock[]))",
						"numberOfBytes": "32",
						"value": "t_mapping(t_uint8,t_array(t_struct(Lock)862_storage)dyn_storage)"
					},
					"t_mapping(t_uint8,t_array(t_struct(Lock)862_storage)dyn_storage)": {
						"encoding": "mapping",
						"key": "t_uint8",
						"label": "mapping(uint8 => struct Fvkry.Lock[])",
						"numberOfBytes": "32",
						"value": "t_array(t_struct(Lock)862_storage)dyn_storage"
					},
					"t_struct(Lock)862_storage": {
						"encoding": "inplace",
						"label": "struct Fvkry.Lock",
						"members": [
							{
								"astId": 851,
								"contract": "contracts/Fvkry.sol:Fvkry",
								"label": "token",
								"offset": 0,
								"slot": "0",
								"type": "t_address"
							},
							{
								"astId": 853,
								"contract": "contracts/Fvkry.sol:Fvkry",
								"label": "amount",
								"offset": 0,
								"slot": "1",
								"type": "t_uint256"
							},
							{
								"astId": 855,
								"contract": "contracts/Fvkry.sol:Fvkry",
								"label": "lockEndTime",
								"offset": 0,
								"slot": "2",
								"type": "t_uint256"
							},
							{
								"astId": 857,
								"contract": "contracts/Fvkry.sol:Fvkry",
								"label": "vault",
								"offset": 0,
								"slot": "3",
								"type": "t_uint8"
							},
							{
								"astId": 859,
								"contract": "contracts/Fvkry.sol:Fvkry",
								"label": "withdrawn",
								"offset": 1,
								"slot": "3",
								"type": "t_bool"
							},
							{
								"astId": 861,
								"contract": "contracts/Fvkry.sol:Fvkry",
								"label": "isNative",
								"offset": 2,
								"slot": "3",
								"type": "t_bool"
							}
						],
						"numberOfBytes": "128"
					},
					"t_uint256": {
						"encoding": "inplace",
						"label": "uint256",
						"numberOfBytes": "32"
					},
					"t_uint8": {
						"encoding": "inplace",
						"label": "uint8",
						"numberOfBytes": "1"
					}
				}
			},
			"userdoc": {
				"kind": "user",
				"methods": {},
				"version": 1
			}
		}
	}
}