{
	"contracts/Fvkry.sol": {
		"Fvkry": {
			"abi": [
				{
					"inputs": [],
					"stateMutability": "nonpayable",
					"type": "constructor"
				},
				{
					"inputs": [
						{
							"internalType": "address",
							"name": "owner",
							"type": "address"
						}
					],
					"name": "OwnableInvalidOwner",
					"type": "error"
				},
				{
					"inputs": [
						{
							"internalType": "address",
							"name": "account",
							"type": "address"
						}
					],
					"name": "OwnableUnauthorizedAccount",
					"type": "error"
				},
				{
					"inputs": [],
					"name": "ReentrancyGuardReentrantCall",
					"type": "error"
				},
				{
					"inputs": [
						{
							"internalType": "address",
							"name": "token",
							"type": "address"
						}
					],
					"name": "SafeERC20FailedOperation",
					"type": "error"
				},
				{
					"anonymous": false,
					"inputs": [
						{
							"indexed": true,
							"internalType": "address",
							"name": "token",
							"type": "address"
						},
						{
							"indexed": false,
							"internalType": "uint256",
							"name": "amount",
							"type": "uint256"
						},
						{
							"indexed": false,
							"internalType": "string",
							"name": "title",
							"type": "string"
						},
						{
							"indexed": false,
							"internalType": "uint8",
							"name": "vault",
							"type": "uint8"
						},
						{
							"indexed": false,
							"internalType": "uint256",
							"name": "timestamp",
							"type": "uint256"
						}
					],
					"name": "AssetAdded",
					"type": "event"
				},
				{
					"anonymous": false,
					"inputs": [
						{
							"indexed": true,
							"internalType": "address",
							"name": "token",
							"type": "address"
						},
						{
							"indexed": false,
							"internalType": "uint256",
							"name": "amount",
							"type": "uint256"
						},
						{
							"indexed": false,
							"internalType": "string",
							"name": "title",
							"type": "string"
						},
						{
							"indexed": false,
							"internalType": "uint8",
							"name": "vault",
							"type": "uint8"
						},
						{
							"indexed": false,
							"internalType": "uint256",
							"name": "lockEndTime",
							"type": "uint256"
						},
						{
							"indexed": false,
							"internalType": "uint256",
							"name": "timestamp",
							"type": "uint256"
						}
					],
					"name": "AssetLocked",
					"type": "event"
				},
				{
					"anonymous": false,
					"inputs": [
						{
							"indexed": true,
							"internalType": "address",
							"name": "token",
							"type": "address"
						},
						{
							"indexed": false,
							"internalType": "uint256",
							"name": "amount",
							"type": "uint256"
						},
						{
							"indexed": false,
							"internalType": "string",
							"name": "title",
							"type": "string"
						},
						{
							"indexed": false,
							"internalType": "uint8",
							"name": "vault",
							"type": "uint8"
						},
						{
							"indexed": false,
							"internalType": "uint256",
							"name": "timestamp",
							"type": "uint256"
						}
					],
					"name": "AssetTransfered",
					"type": "event"
				},
				{
					"anonymous": false,
					"inputs": [
						{
							"indexed": true,
							"internalType": "address",
							"name": "previousOwner",
							"type": "address"
						},
						{
							"indexed": true,
							"internalType": "address",
							"name": "newOwner",
							"type": "address"
						}
					],
					"name": "OwnershipTransferred",
					"type": "event"
				},
				{
					"inputs": [
						{
							"internalType": "uint8",
							"name": "_vault",
							"type": "uint8"
						},
						{
							"internalType": "uint32",
							"name": "_assetID",
							"type": "uint32"
						}
					],
					"name": "addToLockedETH",
					"outputs": [],
					"stateMutability": "payable",
					"type": "function"
				},
				{
					"inputs": [
						{
							"internalType": "contract IERC20",
							"name": "_token",
							"type": "address"
						},
						{
							"internalType": "uint32",
							"name": "_assetID",
							"type": "uint32"
						},
						{
							"internalType": "uint256",
							"name": "_amount",
							"type": "uint256"
						},
						{
							"internalType": "uint8",
							"name": "_vault",
							"type": "uint8"
						}
					],
					"name": "addToLockedTokens",
					"outputs": [],
					"stateMutability": "nonpayable",
					"type": "function"
				},
				{
					"inputs": [],
					"name": "getContractETHBalance",
					"outputs": [
						{
							"internalType": "uint256",
							"name": "",
							"type": "uint256"
						}
					],
					"stateMutability": "view",
					"type": "function"
				},
				{
					"inputs": [
						{
							"internalType": "contract IERC20",
							"name": "token",
							"type": "address"
						}
					],
					"name": "getContractTokenBalance",
					"outputs": [
						{
							"internalType": "uint256",
							"name": "",
							"type": "uint256"
						}
					],
					"stateMutability": "view",
					"type": "function"
				},
				{
					"inputs": [
						{
							"internalType": "uint8",
							"name": "_vault",
							"type": "uint8"
						}
					],
					"name": "getUserLocks",
					"outputs": [
						{
							"components": [
								{
									"internalType": "address",
									"name": "token",
									"type": "address"
								},
								{
									"internalType": "uint256",
									"name": "amount",
									"type": "uint256"
								},
								{
									"internalType": "uint256",
									"name": "lockEndTime",
									"type": "uint256"
								},
								{
									"internalType": "string",
									"name": "title",
									"type": "string"
								},
								{
									"internalType": "bool",
									"name": "withdrawn",
									"type": "bool"
								},
								{
									"internalType": "bool",
									"name": "isNative",
									"type": "bool"
								}
							],
							"internalType": "struct Fvkry.Lock[]",
							"name": "",
							"type": "tuple[]"
						}
					],
					"stateMutability": "view",
					"type": "function"
				},
				{
					"inputs": [
						{
							"internalType": "uint8",
							"name": "_vault",
							"type": "uint8"
						},
						{
							"internalType": "uint256",
							"name": "_lockperiod",
							"type": "uint256"
						},
						{
							"internalType": "string",
							"name": "_title",
							"type": "string"
						}
					],
					"name": "lockETH",
					"outputs": [],
					"stateMutability": "payable",
					"type": "function"
				},
				{
					"inputs": [
						{
							"internalType": "contract IERC20",
							"name": "_token",
							"type": "address"
						},
						{
							"internalType": "uint256",
							"name": "_amount",
							"type": "uint256"
						},
						{
							"internalType": "uint8",
							"name": "_vault",
							"type": "uint8"
						},
						{
							"internalType": "uint256",
							"name": "_lockperiod",
							"type": "uint256"
						},
						{
							"internalType": "string",
							"name": "_title",
							"type": "string"
						}
					],
					"name": "lockToken",
					"outputs": [],
					"stateMutability": "nonpayable",
					"type": "function"
				},
				{
					"inputs": [],
					"name": "owner",
					"outputs": [
						{
							"internalType": "address",
							"name": "",
							"type": "address"
						}
					],
					"stateMutability": "view",
					"type": "function"
				},
				{
					"inputs": [],
					"name": "renounceOwnership",
					"outputs": [],
					"stateMutability": "nonpayable",
					"type": "function"
				},
				{
					"inputs": [
						{
							"internalType": "uint32",
							"name": "_assetId",
							"type": "uint32"
						},
						{
							"internalType": "uint8",
							"name": "_vault",
							"type": "uint8"
						},
						{
							"internalType": "uint256",
							"name": "_amount",
							"type": "uint256"
						}
					],
					"name": "transferAsset",
					"outputs": [],
					"stateMutability": "nonpayable",
					"type": "function"
				},
				{
					"inputs": [
						{
							"internalType": "address",
							"name": "newOwner",
							"type": "address"
						}
					],
					"name": "transferOwnership",
					"outputs": [],
					"stateMutability": "nonpayable",
					"type": "function"
				},
				{
					"inputs": [
						{
							"internalType": "address",
							"name": "",
							"type": "address"
						},
						{
							"internalType": "uint8",
							"name": "",
							"type": "uint8"
						},
						{
							"internalType": "uint256",
							"name": "",
							"type": "uint256"
						}
					],
					"name": "userLockedAssets",
					"outputs": [
						{
							"internalType": "address",
							"name": "token",
							"type": "address"
						},
						{
							"internalType": "uint256",
							"name": "amount",
							"type": "uint256"
						},
						{
							"internalType": "uint256",
							"name": "lockEndTime",
							"type": "uint256"
						},
						{
							"internalType": "string",
							"name": "title",
							"type": "string"
						},
						{
							"internalType": "bool",
							"name": "withdrawn",
							"type": "bool"
						},
						{
							"internalType": "bool",
							"name": "isNative",
							"type": "bool"
						}
					],
					"stateMutability": "view",
					"type": "function"
				}
			],
			"devdoc": {
				"errors": {
					"OwnableInvalidOwner(address)": [
						{
							"details": "The owner is not a valid owner account. (eg. `address(0)`)"
						}
					],
					"OwnableUnauthorizedAccount(address)": [
						{
							"details": "The caller account is not authorized to perform an operation."
						}
					],
					"ReentrancyGuardReentrantCall()": [
						{
							"details": "Unauthorized reentrant call."
						}
					],
					"SafeERC20FailedOperation(address)": [
						{
							"details": "An operation with an ERC-20 token failed."
						}
					]
				},
				"kind": "dev",
				"methods": {
					"owner()": {
						"details": "Returns the address of the current owner."
					},
					"renounceOwnership()": {
						"details": "Leaves the contract without owner. It will not be possible to call `onlyOwner` functions. Can only be called by the current owner. NOTE: Renouncing ownership will leave the contract without an owner, thereby disabling any functionality that is only available to the owner."
					},
					"transferOwnership(address)": {
						"details": "Transfers ownership of the contract to a new account (`newOwner`). Can only be called by the current owner."
					}
				},
				"version": 1
			},
			"evm": {
				"assembly": "    /* \"contracts/Fvkry.sol\":305:5814  contract Fvkry is Ownable, ReentrancyGuard {... */\n  mstore(0x40, 0x80)\n    /* \"contracts/Fvkry.sol\":1020:1056  constructor() Ownable(msg.sender) {} */\n  callvalue\n  dup1\n  iszero\n  tag_1\n  jumpi\n  0x00\n  dup1\n  revert\ntag_1:\n  pop\n    /* \"contracts/Fvkry.sol\":1042:1052  msg.sender */\n  caller\n    /* \"@openzeppelin/contracts/access/Ownable.sol\":1297:1298  0 */\n  0x00\n    /* \"@openzeppelin/contracts/access/Ownable.sol\":1273:1299  initialOwner == address(0) */\n  0xffffffffffffffffffffffffffffffffffffffff\n  and\n    /* \"@openzeppelin/contracts/access/Ownable.sol\":1273:1285  initialOwner */\n  dup2\n    /* \"@openzeppelin/contracts/access/Ownable.sol\":1273:1299  initialOwner == address(0) */\n  0xffffffffffffffffffffffffffffffffffffffff\n  and\n  sub\n    /* \"@openzeppelin/contracts/access/Ownable.sol\":1269:1364  if (initialOwner == address(0)) {... */\n  tag_6\n  jumpi\n    /* \"@openzeppelin/contracts/access/Ownable.sol\":1350:1351  0 */\n  0x00\n    /* \"@openzeppelin/contracts/access/Ownable.sol\":1322:1353  OwnableInvalidOwner(address(0)) */\n  mload(0x40)\n  0x1e4fbdf700000000000000000000000000000000000000000000000000000000\n  dup2\n  mstore\n  0x04\n  add\n  tag_7\n  swap2\n  swap1\n  tag_8\n  jump\t// in\ntag_7:\n  mload(0x40)\n  dup1\n  swap2\n  sub\n  swap1\n  revert\n    /* \"@openzeppelin/contracts/access/Ownable.sol\":1269:1364  if (initialOwner == address(0)) {... */\ntag_6:\n    /* \"@openzeppelin/contracts/access/Ownable.sol\":1373:1405  _transferOwnership(initialOwner) */\n  tag_9\n    /* \"@openzeppelin/contracts/access/Ownable.sol\":1392:1404  initialOwner */\n  dup2\n    /* \"@openzeppelin/contracts/access/Ownable.sol\":1373:1391  _transferOwnership */\n  shl(0x20, tag_10)\n    /* \"@openzeppelin/contracts/access/Ownable.sol\":1373:1405  _transferOwnership(initialOwner) */\n  0x20\n  shr\n  jump\t// in\ntag_9:\n    /* \"@openzeppelin/contracts/access/Ownable.sol\":1225:1412  constructor(address initialOwner) {... */\n  pop\n    /* \"@openzeppelin/contracts/utils/ReentrancyGuard.sol\":1857:1858  1 */\n  0x01\n    /* \"@openzeppelin/contracts/utils/ReentrancyGuard.sol\":2061:2068  _status */\n  dup1\n    /* \"@openzeppelin/contracts/utils/ReentrancyGuard.sol\":2061:2082  _status = NOT_ENTERED */\n  dup2\n  swap1\n  sstore\n  pop\n    /* \"contracts/Fvkry.sol\":305:5814  contract Fvkry is Ownable, ReentrancyGuard {... */\n  jump(tag_13)\n    /* \"@openzeppelin/contracts/access/Ownable.sol\":2912:3099  function _transferOwnership(address newOwner) internal virtual {... */\ntag_10:\n    /* \"@openzeppelin/contracts/access/Ownable.sol\":2985:3001  address oldOwner */\n  0x00\n    /* \"@openzeppelin/contracts/access/Ownable.sol\":3004:3010  _owner */\n  dup1\n  0x00\n  swap1\n  sload\n  swap1\n  0x0100\n  exp\n  swap1\n  div\n  0xffffffffffffffffffffffffffffffffffffffff\n  and\n    /* \"@openzeppelin/contracts/access/Ownable.sol\":2985:3010  address oldOwner = _owner */\n  swap1\n  pop\n    /* \"@openzeppelin/contracts/access/Ownable.sol\":3029:3037  newOwner */\n  dup2\n    /* \"@openzeppelin/contracts/access/Ownable.sol\":3020:3026  _owner */\n  0x00\n  dup1\n    /* \"@openzeppelin/contracts/access/Ownable.sol\":3020:3037  _owner = newOwner */\n  0x0100\n  exp\n  dup2\n  sload\n  dup2\n  0xffffffffffffffffffffffffffffffffffffffff\n  mul\n  not\n  and\n  swap1\n  dup4\n  0xffffffffffffffffffffffffffffffffffffffff\n  and\n  mul\n  or\n  swap1\n  sstore\n  pop\n    /* \"@openzeppelin/contracts/access/Ownable.sol\":3083:3091  newOwner */\n  dup2\n    /* \"@openzeppelin/contracts/access/Ownable.sol\":3052:3092  OwnershipTransferred(oldOwner, newOwner) */\n  0xffffffffffffffffffffffffffffffffffffffff\n  and\n    /* \"@openzeppelin/contracts/access/Ownable.sol\":3073:3081  oldOwner */\n  dup2\n    /* \"@openzeppelin/contracts/access/Ownable.sol\":3052:3092  OwnershipTransferred(oldOwner, newOwner) */\n  0xffffffffffffffffffffffffffffffffffffffff\n  and\n  0x8be0079c531659141344cd1fd0a4f28419497f9722a3daafe3b4186f6b6457e0\n  mload(0x40)\n  mload(0x40)\n  dup1\n  swap2\n  sub\n  swap1\n  log3\n    /* \"@openzeppelin/contracts/access/Ownable.sol\":2975:3099  {... */\n  pop\n    /* \"@openzeppelin/contracts/access/Ownable.sol\":2912:3099  function _transferOwnership(address newOwner) internal virtual {... */\n  pop\n  jump\t// out\n    /* \"#utility.yul\":7:133   */\ntag_15:\n    /* \"#utility.yul\":44:51   */\n  0x00\n    /* \"#utility.yul\":84:126   */\n  0xffffffffffffffffffffffffffffffffffffffff\n    /* \"#utility.yul\":77:82   */\n  dup3\n    /* \"#utility.yul\":73:127   */\n  and\n    /* \"#utility.yul\":62:127   */\n  swap1\n  pop\n    /* \"#utility.yul\":7:133   */\n  swap2\n  swap1\n  pop\n  jump\t// out\n    /* \"#utility.yul\":139:235   */\ntag_16:\n    /* \"#utility.yul\":176:183   */\n  0x00\n    /* \"#utility.yul\":205:229   */\n  tag_21\n    /* \"#utility.yul\":223:228   */\n  dup3\n    /* \"#utility.yul\":205:229   */\n  tag_15\n  jump\t// in\ntag_21:\n    /* \"#utility.yul\":194:229   */\n  swap1\n  pop\n    /* \"#utility.yul\":139:235   */\n  swap2\n  swap1\n  pop\n  jump\t// out\n    /* \"#utility.yul\":241:359   */\ntag_17:\n    /* \"#utility.yul\":328:352   */\n  tag_23\n    /* \"#utility.yul\":346:351   */\n  dup2\n    /* \"#utility.yul\":328:352   */\n  tag_16\n  jump\t// in\ntag_23:\n    /* \"#utility.yul\":323:326   */\n  dup3\n    /* \"#utility.yul\":316:353   */\n  mstore\n    /* \"#utility.yul\":241:359   */\n  pop\n  pop\n  jump\t// out\n    /* \"#utility.yul\":365:587   */\ntag_8:\n    /* \"#utility.yul\":458:462   */\n  0x00\n    /* \"#utility.yul\":496:498   */\n  0x20\n    /* \"#utility.yul\":485:494   */\n  dup3\n    /* \"#utility.yul\":481:499   */\n  add\n    /* \"#utility.yul\":473:499   */\n  swap1\n  pop\n    /* \"#utility.yul\":509:580   */\n  tag_25\n    /* \"#utility.yul\":577:578   */\n  0x00\n    /* \"#utility.yul\":566:575   */\n  dup4\n    /* \"#utility.yul\":562:579   */\n  add\n    /* \"#utility.yul\":553:559   */\n  dup5\n    /* \"#utility.yul\":509:580   */\n  tag_17\n  jump\t// in\ntag_25:\n    /* \"#utility.yul\":365:587   */\n  swap3\n  swap2\n  pop\n  pop\n  jump\t// out\n    /* \"contracts/Fvkry.sol\":305:5814  contract Fvkry is Ownable, ReentrancyGuard {... */\ntag_13:\n  dataSize(sub_0)\n  dup1\n  dataOffset(sub_0)\n  0x00\n  codecopy\n  0x00\n  return\nstop\n\nsub_0: assembly {\n        /* \"contracts/Fvkry.sol\":305:5814  contract Fvkry is Ownable, ReentrancyGuard {... */\n      mstore(0x40, 0x80)\n      jumpi(tag_1, lt(calldatasize, 0x04))\n      shr(0xe0, calldataload(0x00))\n      dup1\n      0x8c89a0ad\n      gt\n      tag_14\n      jumpi\n      dup1\n      0x8c89a0ad\n      eq\n      tag_8\n      jumpi\n      dup1\n      0x8da5cb5b\n      eq\n      tag_9\n      jumpi\n      dup1\n      0x8e06b906\n      eq\n      tag_10\n      jumpi\n      dup1\n      0x9e6c3ff2\n      eq\n      tag_11\n      jumpi\n      dup1\n      0xecaa9d05\n      eq\n      tag_12\n      jumpi\n      dup1\n      0xf2fde38b\n      eq\n      tag_13\n      jumpi\n      jump(tag_1)\n    tag_14:\n      dup1\n      0x0f1419b5\n      eq\n      tag_2\n      jumpi\n      dup1\n      0x13a2e884\n      eq\n      tag_3\n      jumpi\n      dup1\n      0x14205e28\n      eq\n      tag_4\n      jumpi\n      dup1\n      0x2d8fefc2\n      eq\n      tag_5\n      jumpi\n      dup1\n      0x3b958c38\n      eq\n      tag_6\n      jumpi\n      dup1\n      0x715018a6\n      eq\n      tag_7\n      jumpi\n    tag_1:\n      0x00\n      dup1\n      revert\n        /* \"contracts/Fvkry.sol\":2287:3386  function lockToken (IERC20 _token, uint256 _amount, uint8 _vault, uint256 _lockperiod, string memory _title) external nonReentrant {... */\n    tag_2:\n      callvalue\n      dup1\n      iszero\n      tag_15\n      jumpi\n      0x00\n      dup1\n      revert\n    tag_15:\n      pop\n      tag_16\n      0x04\n      dup1\n      calldatasize\n      sub\n      dup2\n      add\n      swap1\n      tag_17\n      swap2\n      swap1\n      tag_18\n      jump\t// in\n    tag_17:\n      tag_19\n      jump\t// in\n    tag_16:\n      stop\n        /* \"contracts/Fvkry.sol\":1080:1810  function lockETH(uint8 _vault, uint256 _lockperiod, string memory _title) external payable nonReentrant {... */\n    tag_3:\n      tag_20\n      0x04\n      dup1\n      calldatasize\n      sub\n      dup2\n      add\n      swap1\n      tag_21\n      swap2\n      swap1\n      tag_22\n      jump\t// in\n    tag_21:\n      tag_23\n      jump\t// in\n    tag_20:\n      stop\n        /* \"contracts/Fvkry.sol\":5382:5517  function getContractTokenBalance(IERC20 token) external view returns (uint256) {... */\n    tag_4:\n      callvalue\n      dup1\n      iszero\n      tag_24\n      jumpi\n      0x00\n      dup1\n      revert\n    tag_24:\n      pop\n      tag_25\n      0x04\n      dup1\n      calldatasize\n      sub\n      dup2\n      add\n      swap1\n      tag_26\n      swap2\n      swap1\n      tag_27\n      jump\t// in\n    tag_26:\n      tag_28\n      jump\t// in\n    tag_25:\n      mload(0x40)\n      tag_29\n      swap2\n      swap1\n      tag_30\n      jump\t// in\n    tag_29:\n      mload(0x40)\n      dup1\n      swap2\n      sub\n      swap1\n      return\n        /* \"contracts/Fvkry.sol\":3394:4029  function addToLockedTokens(IERC20 _token, uint32 _assetID, uint256 _amount, uint8 _vault) external  nonReentrant {... */\n    tag_5:\n      callvalue\n      dup1\n      iszero\n      tag_31\n      jumpi\n      0x00\n      dup1\n      revert\n    tag_31:\n      pop\n      tag_32\n      0x04\n      dup1\n      calldatasize\n      sub\n      dup2\n      add\n      swap1\n      tag_33\n      swap2\n      swap1\n      tag_34\n      jump\t// in\n    tag_33:\n      tag_35\n      jump\t// in\n    tag_32:\n      stop\n        /* \"contracts/Fvkry.sol\":5675:5809  function getUserLocks(uint8 _vault) public view returns (Lock[] memory) {... */\n    tag_6:\n      callvalue\n      dup1\n      iszero\n      tag_36\n      jumpi\n      0x00\n      dup1\n      revert\n    tag_36:\n      pop\n      tag_37\n      0x04\n      dup1\n      calldatasize\n      sub\n      dup2\n      add\n      swap1\n      tag_38\n      swap2\n      swap1\n      tag_39\n      jump\t// in\n    tag_38:\n      tag_40\n      jump\t// in\n    tag_37:\n      mload(0x40)\n      tag_41\n      swap2\n      swap1\n      tag_42\n      jump\t// in\n    tag_41:\n      mload(0x40)\n      dup1\n      swap2\n      sub\n      swap1\n      return\n        /* \"@openzeppelin/contracts/access/Ownable.sol\":2293:2394  function renounceOwnership() public virtual onlyOwner {... */\n    tag_7:\n      callvalue\n      dup1\n      iszero\n      tag_43\n      jumpi\n      0x00\n      dup1\n      revert\n    tag_43:\n      pop\n      tag_44\n      tag_45\n      jump\t// in\n    tag_44:\n      stop\n        /* \"contracts/Fvkry.sol\":5525:5637  function getContractETHBalance() external view returns (uint256) {... */\n    tag_8:\n      callvalue\n      dup1\n      iszero\n      tag_46\n      jumpi\n      0x00\n      dup1\n      revert\n    tag_46:\n      pop\n      tag_47\n      tag_48\n      jump\t// in\n    tag_47:\n      mload(0x40)\n      tag_49\n      swap2\n      swap1\n      tag_30\n      jump\t// in\n    tag_49:\n      mload(0x40)\n      dup1\n      swap2\n      sub\n      swap1\n      return\n        /* \"@openzeppelin/contracts/access/Ownable.sol\":1638:1723  function owner() public view virtual returns (address) {... */\n    tag_9:\n      callvalue\n      dup1\n      iszero\n      tag_50\n      jumpi\n      0x00\n      dup1\n      revert\n    tag_50:\n      pop\n      tag_51\n      tag_52\n      jump\t// in\n    tag_51:\n      mload(0x40)\n      tag_53\n      swap2\n      swap1\n      tag_54\n      jump\t// in\n    tag_53:\n      mload(0x40)\n      dup1\n      swap2\n      sub\n      swap1\n      return\n        /* \"contracts/Fvkry.sol\":573:644  mapping  (address => mapping (uint8 => Lock[])) public userLockedAssets */\n    tag_10:\n      callvalue\n      dup1\n      iszero\n      tag_55\n      jumpi\n      0x00\n      dup1\n      revert\n    tag_55:\n      pop\n      tag_56\n      0x04\n      dup1\n      calldatasize\n      sub\n      dup2\n      add\n      swap1\n      tag_57\n      swap2\n      swap1\n      tag_58\n      jump\t// in\n    tag_57:\n      tag_59\n      jump\t// in\n    tag_56:\n      mload(0x40)\n      tag_60\n      swap7\n      swap6\n      swap5\n      swap4\n      swap3\n      swap2\n      swap1\n      tag_61\n      jump\t// in\n    tag_60:\n      mload(0x40)\n      dup1\n      swap2\n      sub\n      swap1\n      return\n        /* \"contracts/Fvkry.sol\":4060:5348  function transferAsset( uint32 _assetId,uint8 _vault, uint256 _amount) external  nonReentrant {... */\n    tag_11:\n      callvalue\n      dup1\n      iszero\n      tag_62\n      jumpi\n      0x00\n      dup1\n      revert\n    tag_62:\n      pop\n      tag_63\n      0x04\n      dup1\n      calldatasize\n      sub\n      dup2\n      add\n      swap1\n      tag_64\n      swap2\n      swap1\n      tag_65\n      jump\t// in\n    tag_64:\n      tag_66\n      jump\t// in\n    tag_63:\n      stop\n        /* \"contracts/Fvkry.sol\":1818:2254  function addToLockedETH(uint8 _vault, uint32 _assetID) external payable  nonReentrant {... */\n    tag_12:\n      tag_67\n      0x04\n      dup1\n      calldatasize\n      sub\n      dup2\n      add\n      swap1\n      tag_68\n      swap2\n      swap1\n      tag_69\n      jump\t// in\n    tag_68:\n      tag_70\n      jump\t// in\n    tag_67:\n      stop\n        /* \"@openzeppelin/contracts/access/Ownable.sol\":2543:2758  function transferOwnership(address newOwner) public virtual onlyOwner {... */\n    tag_13:\n      callvalue\n      dup1\n      iszero\n      tag_71\n      jumpi\n      0x00\n      dup1\n      revert\n    tag_71:\n      pop\n      tag_72\n      0x04\n      dup1\n      calldatasize\n      sub\n      dup2\n      add\n      swap1\n      tag_73\n      swap2\n      swap1\n      tag_74\n      jump\t// in\n    tag_73:\n      tag_75\n      jump\t// in\n    tag_72:\n      stop\n        /* \"contracts/Fvkry.sol\":2287:3386  function lockToken (IERC20 _token, uint256 _amount, uint8 _vault, uint256 _lockperiod, string memory _title) external nonReentrant {... */\n    tag_19:\n        /* \"@openzeppelin/contracts/utils/ReentrancyGuard.sol\":2500:2521  _nonReentrantBefore() */\n      tag_77\n        /* \"@openzeppelin/contracts/utils/ReentrancyGuard.sol\":2500:2519  _nonReentrantBefore */\n      tag_78\n        /* \"@openzeppelin/contracts/utils/ReentrancyGuard.sol\":2500:2521  _nonReentrantBefore() */\n      jump\t// in\n    tag_77:\n        /* \"contracts/Fvkry.sol\":2464:2465  0 */\n      0x00\n        /* \"contracts/Fvkry.sol\":2437:2466  address(_token) != address(0) */\n      0xffffffffffffffffffffffffffffffffffffffff\n      and\n        /* \"contracts/Fvkry.sol\":2445:2451  _token */\n      dup6\n        /* \"contracts/Fvkry.sol\":2437:2466  address(_token) != address(0) */\n      0xffffffffffffffffffffffffffffffffffffffff\n      and\n      sub\n        /* \"contracts/Fvkry.sol\":2429:2505  require(address(_token) != address(0), \"Must provide a valid token address\") */\n      tag_80\n      jumpi\n      mload(0x40)\n      0x08c379a000000000000000000000000000000000000000000000000000000000\n      dup2\n      mstore\n      0x04\n      add\n      tag_81\n      swap1\n      tag_82\n      jump\t// in\n    tag_81:\n      mload(0x40)\n      dup1\n      swap2\n      sub\n      swap1\n      revert\n    tag_80:\n        /* \"contracts/Fvkry.sol\":2534:2535  0 */\n      0x00\n        /* \"contracts/Fvkry.sol\":2524:2531  _amount */\n      dup5\n        /* \"contracts/Fvkry.sol\":2524:2535  _amount > 0 */\n      gt\n        /* \"contracts/Fvkry.sol\":2516:2578  require(_amount > 0, \"Token amount must be greater then zero\") */\n      tag_83\n      jumpi\n      mload(0x40)\n      0x08c379a000000000000000000000000000000000000000000000000000000000\n      dup2\n      mstore\n      0x04\n      add\n      tag_84\n      swap1\n      tag_85\n      jump\t// in\n    tag_84:\n      mload(0x40)\n      dup1\n      swap2\n      sub\n      swap1\n      revert\n    tag_83:\n        /* \"contracts/Fvkry.sol\":2611:2612  0 */\n      0x00\n        /* \"contracts/Fvkry.sol\":2597:2608  _lockperiod */\n      dup3\n        /* \"contracts/Fvkry.sol\":2597:2612  _lockperiod > 0 */\n      gt\n        /* \"contracts/Fvkry.sol\":2589:2658  require(_lockperiod > 0, \"The lock period must be greater then zero\") */\n      tag_86\n      jumpi\n      mload(0x40)\n      0x08c379a000000000000000000000000000000000000000000000000000000000\n      dup2\n      mstore\n      0x04\n      add\n      tag_87\n      swap1\n      tag_88\n      jump\t// in\n    tag_87:\n      mload(0x40)\n      dup1\n      swap2\n      sub\n      swap1\n      revert\n    tag_86:\n        /* \"contracts/Fvkry.sol\":2671:2692  uint256 _tokenBalance */\n      0x00\n        /* \"contracts/Fvkry.sol\":2695:2701  _token */\n      dup6\n        /* \"contracts/Fvkry.sol\":2695:2711  _token.balanceOf */\n      0xffffffffffffffffffffffffffffffffffffffff\n      and\n      0x70a08231\n        /* \"contracts/Fvkry.sol\":2712:2722  msg.sender */\n      caller\n        /* \"contracts/Fvkry.sol\":2695:2723  _token.balanceOf(msg.sender) */\n      mload(0x40)\n      dup3\n      0xffffffff\n      and\n      0xe0\n      shl\n      dup2\n      mstore\n      0x04\n      add\n      tag_89\n      swap2\n      swap1\n      tag_54\n      jump\t// in\n    tag_89:\n      0x20\n      mload(0x40)\n      dup1\n      dup4\n      sub\n      dup2\n      dup7\n      gas\n      staticcall\n      iszero\n      dup1\n      iszero\n      tag_91\n      jumpi\n      returndatasize\n      0x00\n      dup1\n      returndatacopy\n      revert(0x00, returndatasize)\n    tag_91:\n      pop\n      pop\n      pop\n      pop\n      mload(0x40)\n      returndatasize\n      not(0x1f)\n      0x1f\n      dup3\n      add\n      and\n      dup3\n      add\n      dup1\n      0x40\n      mstore\n      pop\n      dup2\n      add\n      swap1\n      tag_92\n      swap2\n      swap1\n      tag_93\n      jump\t// in\n    tag_92:\n        /* \"contracts/Fvkry.sol\":2671:2723  uint256 _tokenBalance = _token.balanceOf(msg.sender) */\n      swap1\n      pop\n        /* \"contracts/Fvkry.sol\":2754:2767  _tokenBalance */\n      dup1\n        /* \"contracts/Fvkry.sol\":2743:2750  _amount */\n      dup6\n        /* \"contracts/Fvkry.sol\":2743:2767  _amount <= _tokenBalance */\n      gt\n      iszero\n        /* \"contracts/Fvkry.sol\":2734:2797  require (_amount <= _tokenBalance, \"Not enough tokens to lock\") */\n      tag_94\n      jumpi\n      mload(0x40)\n      0x08c379a000000000000000000000000000000000000000000000000000000000\n      dup2\n      mstore\n      0x04\n      add\n      tag_95\n      swap1\n      tag_96\n      jump\t// in\n    tag_95:\n      mload(0x40)\n      dup1\n      swap2\n      sub\n      swap1\n      revert\n    tag_94:\n        /* \"contracts/Fvkry.sol\":2860:2919  _token.safeTransferFrom(msg.sender, address(this), _amount) */\n      tag_97\n        /* \"contracts/Fvkry.sol\":2884:2894  msg.sender */\n      caller\n        /* \"contracts/Fvkry.sol\":2904:2908  this */\n      address\n        /* \"contracts/Fvkry.sol\":2911:2918  _amount */\n      dup8\n        /* \"contracts/Fvkry.sol\":2860:2866  _token */\n      dup10\n        /* \"contracts/Fvkry.sol\":2860:2883  _token.safeTransferFrom */\n      0xffffffffffffffffffffffffffffffffffffffff\n      and\n      tag_98\n      swap1\n        /* \"contracts/Fvkry.sol\":2860:2919  _token.safeTransferFrom(msg.sender, address(this), _amount) */\n      swap4\n      swap3\n      swap2\n      swap1\n      0xffffffff\n      and\n      jump\t// in\n    tag_97:\n        /* \"contracts/Fvkry.sol\":2974:2990  userLockedAssets */\n      0x02\n        /* \"contracts/Fvkry.sol\":2974:3002  userLockedAssets[msg.sender] */\n      0x00\n        /* \"contracts/Fvkry.sol\":2991:3001  msg.sender */\n      caller\n        /* \"contracts/Fvkry.sol\":2974:3002  userLockedAssets[msg.sender] */\n      0xffffffffffffffffffffffffffffffffffffffff\n      and\n      0xffffffffffffffffffffffffffffffffffffffff\n      and\n      dup2\n      mstore\n      0x20\n      add\n      swap1\n      dup2\n      mstore\n      0x20\n      add\n      0x00\n      keccak256\n        /* \"contracts/Fvkry.sol\":2974:3010  userLockedAssets[msg.sender][_vault] */\n      0x00\n        /* \"contracts/Fvkry.sol\":3003:3009  _vault */\n      dup6\n        /* \"contracts/Fvkry.sol\":2974:3010  userLockedAssets[msg.sender][_vault] */\n      0xff\n      and\n      0xff\n      and\n      dup2\n      mstore\n      0x20\n      add\n      swap1\n      dup2\n      mstore\n      0x20\n      add\n      0x00\n      keccak256\n        /* \"contracts/Fvkry.sol\":3016:3258  Lock({... */\n      mload(0x40)\n      dup1\n      0xc0\n      add\n      0x40\n      mstore\n      dup1\n        /* \"contracts/Fvkry.sol\":3051:3057  _token */\n      dup9\n        /* \"contracts/Fvkry.sol\":3016:3258  Lock({... */\n      0xffffffffffffffffffffffffffffffffffffffff\n      and\n      dup2\n      mstore\n      0x20\n      add\n        /* \"contracts/Fvkry.sol\":3082:3089  _amount */\n      dup8\n        /* \"contracts/Fvkry.sol\":3016:3258  Lock({... */\n      dup2\n      mstore\n      0x20\n      add\n        /* \"contracts/Fvkry.sol\":3137:3148  _lockperiod */\n      dup6\n        /* \"contracts/Fvkry.sol\":3119:3134  block.timestamp */\n      timestamp\n        /* \"contracts/Fvkry.sol\":3119:3148  block.timestamp + _lockperiod */\n      tag_99\n      swap2\n      swap1\n      tag_100\n      jump\t// in\n    tag_99:\n        /* \"contracts/Fvkry.sol\":3016:3258  Lock({... */\n      dup2\n      mstore\n      0x20\n      add\n        /* \"contracts/Fvkry.sol\":3170:3176  _title */\n      dup5\n        /* \"contracts/Fvkry.sol\":3016:3258  Lock({... */\n      dup2\n      mstore\n      0x20\n      add\n        /* \"contracts/Fvkry.sol\":3206:3211  false */\n      0x00\n        /* \"contracts/Fvkry.sol\":3016:3258  Lock({... */\n      iszero\n      iszero\n      dup2\n      mstore\n      0x20\n      add\n        /* \"contracts/Fvkry.sol\":3239:3244  false */\n      0x00\n        /* \"contracts/Fvkry.sol\":3016:3258  Lock({... */\n      iszero\n      iszero\n      dup2\n      mstore\n      pop\n        /* \"contracts/Fvkry.sol\":2974:3259  userLockedAssets[msg.sender][_vault].push(Lock({... */\n      swap1\n      dup1\n      0x01\n      dup2\n      sload\n      add\n      dup1\n      dup3\n      sstore\n      dup1\n      swap2\n      pop\n      pop\n      0x01\n      swap1\n      sub\n      swap1\n      0x00\n      mstore\n      keccak256(0x00, 0x20)\n      swap1\n      0x05\n      mul\n      add\n      0x00\n      swap1\n      swap2\n      swap1\n      swap2\n      swap1\n      swap2\n      pop\n      0x00\n      dup3\n      add\n      mload\n      dup2\n      0x00\n      add\n      exp(0x0100, 0x00)\n      dup2\n      sload\n      dup2\n      0xffffffffffffffffffffffffffffffffffffffff\n      mul\n      not\n      and\n      swap1\n      dup4\n      0xffffffffffffffffffffffffffffffffffffffff\n      and\n      mul\n      or\n      swap1\n      sstore\n      pop\n      0x20\n      dup3\n      add\n      mload\n      dup2\n      0x01\n      add\n      sstore\n      0x40\n      dup3\n      add\n      mload\n      dup2\n      0x02\n      add\n      sstore\n      0x60\n      dup3\n      add\n      mload\n      dup2\n      0x03\n      add\n      swap1\n      dup2\n      tag_102\n      swap2\n      swap1\n      tag_103\n      jump\t// in\n    tag_102:\n      pop\n      0x80\n      dup3\n      add\n      mload\n      dup2\n      0x04\n      add\n      exp(0x0100, 0x00)\n      dup2\n      sload\n      dup2\n      0xff\n      mul\n      not\n      and\n      swap1\n      dup4\n      iszero\n      iszero\n      mul\n      or\n      swap1\n      sstore\n      pop\n      0xa0\n      dup3\n      add\n      mload\n      dup2\n      0x04\n      add\n      exp(0x0100, 0x01)\n      dup2\n      sload\n      dup2\n      0xff\n      mul\n      not\n      and\n      swap1\n      dup4\n      iszero\n      iszero\n      mul\n      or\n      swap1\n      sstore\n      pop\n      pop\n      pop\n        /* \"contracts/Fvkry.sol\":3297:3303  _token */\n      dup6\n        /* \"contracts/Fvkry.sol\":3277:3378  AssetLocked(address(_token), _amount, _title, _vault, block.timestamp + _lockperiod, block.timestamp) */\n      0xffffffffffffffffffffffffffffffffffffffff\n      and\n      0xed26bd61b6bf2f43d7471454e53e77ffdc96beefa2f198977936f6d02d34563d\n        /* \"contracts/Fvkry.sol\":3306:3313  _amount */\n      dup7\n        /* \"contracts/Fvkry.sol\":3315:3321  _title */\n      dup5\n        /* \"contracts/Fvkry.sol\":3323:3329  _vault */\n      dup8\n        /* \"contracts/Fvkry.sol\":3349:3360  _lockperiod */\n      dup8\n        /* \"contracts/Fvkry.sol\":3331:3346  block.timestamp */\n      timestamp\n        /* \"contracts/Fvkry.sol\":3331:3360  block.timestamp + _lockperiod */\n      tag_104\n      swap2\n      swap1\n      tag_100\n      jump\t// in\n    tag_104:\n        /* \"contracts/Fvkry.sol\":3362:3377  block.timestamp */\n      timestamp\n        /* \"contracts/Fvkry.sol\":3277:3378  AssetLocked(address(_token), _amount, _title, _vault, block.timestamp + _lockperiod, block.timestamp) */\n      mload(0x40)\n      tag_105\n      swap6\n      swap5\n      swap4\n      swap3\n      swap2\n      swap1\n      tag_106\n      jump\t// in\n    tag_105:\n      mload(0x40)\n      dup1\n      swap2\n      sub\n      swap1\n      log2\n        /* \"contracts/Fvkry.sol\":2418:3386  {... */\n      pop\n        /* \"@openzeppelin/contracts/utils/ReentrancyGuard.sol\":2542:2562  _nonReentrantAfter() */\n      tag_107\n        /* \"@openzeppelin/contracts/utils/ReentrancyGuard.sol\":2542:2560  _nonReentrantAfter */\n      tag_108\n        /* \"@openzeppelin/contracts/utils/ReentrancyGuard.sol\":2542:2562  _nonReentrantAfter() */\n      jump\t// in\n    tag_107:\n        /* \"contracts/Fvkry.sol\":2287:3386  function lockToken (IERC20 _token, uint256 _amount, uint8 _vault, uint256 _lockperiod, string memory _title) external nonReentrant {... */\n      pop\n      pop\n      pop\n      pop\n      pop\n      jump\t// out\n        /* \"contracts/Fvkry.sol\":1080:1810  function lockETH(uint8 _vault, uint256 _lockperiod, string memory _title) external payable nonReentrant {... */\n    tag_23:\n        /* \"@openzeppelin/contracts/utils/ReentrancyGuard.sol\":2500:2521  _nonReentrantBefore() */\n      tag_110\n        /* \"@openzeppelin/contracts/utils/ReentrancyGuard.sol\":2500:2519  _nonReentrantBefore */\n      tag_78\n        /* \"@openzeppelin/contracts/utils/ReentrancyGuard.sol\":2500:2521  _nonReentrantBefore() */\n      jump\t// in\n    tag_110:\n        /* \"contracts/Fvkry.sol\":1215:1216  0 */\n      0x00\n        /* \"contracts/Fvkry.sol\":1203:1212  msg.value */\n      callvalue\n        /* \"contracts/Fvkry.sol\":1203:1216  msg.value > 0 */\n      gt\n        /* \"contracts/Fvkry.sol\":1195:1260  require(msg.value > 0, \"ETH to lock must a value greater than 0\") */\n      tag_112\n      jumpi\n      mload(0x40)\n      0x08c379a000000000000000000000000000000000000000000000000000000000\n      dup2\n      mstore\n      0x04\n      add\n      tag_113\n      swap1\n      tag_114\n      jump\t// in\n    tag_113:\n      mload(0x40)\n      dup1\n      swap2\n      sub\n      swap1\n      revert\n    tag_112:\n        /* \"contracts/Fvkry.sol\":1294:1295  0 */\n      0x00\n        /* \"contracts/Fvkry.sol\":1279:1290  _lockperiod */\n      dup3\n        /* \"contracts/Fvkry.sol\":1279:1295  _lockperiod >= 0 */\n      lt\n      iszero\n        /* \"contracts/Fvkry.sol\":1271:1340  require(_lockperiod >= 0, \"The lockperiod must be greater then zero\") */\n      tag_115\n      jumpi\n      mload(0x40)\n      0x08c379a000000000000000000000000000000000000000000000000000000000\n      dup2\n      mstore\n      0x04\n      add\n      tag_116\n      swap1\n      tag_117\n      jump\t// in\n    tag_116:\n      mload(0x40)\n      dup1\n      swap2\n      sub\n      swap1\n      revert\n    tag_115:\n        /* \"contracts/Fvkry.sol\":1391:1407  userLockedAssets */\n      0x02\n        /* \"contracts/Fvkry.sol\":1391:1419  userLockedAssets[msg.sender] */\n      0x00\n        /* \"contracts/Fvkry.sol\":1408:1418  msg.sender */\n      caller\n        /* \"contracts/Fvkry.sol\":1391:1419  userLockedAssets[msg.sender] */\n      0xffffffffffffffffffffffffffffffffffffffff\n      and\n      0xffffffffffffffffffffffffffffffffffffffff\n      and\n      dup2\n      mstore\n      0x20\n      add\n      swap1\n      dup2\n      mstore\n      0x20\n      add\n      0x00\n      keccak256\n        /* \"contracts/Fvkry.sol\":1391:1427  userLockedAssets[msg.sender][_vault] */\n      0x00\n        /* \"contracts/Fvkry.sol\":1420:1426  _vault */\n      dup5\n        /* \"contracts/Fvkry.sol\":1391:1427  userLockedAssets[msg.sender][_vault] */\n      0xff\n      and\n      0xff\n      and\n      dup2\n      mstore\n      0x20\n      add\n      swap1\n      dup2\n      mstore\n      0x20\n      add\n      0x00\n      keccak256\n        /* \"contracts/Fvkry.sol\":1433:1671  Lock({... */\n      mload(0x40)\n      dup1\n      0xc0\n      add\n      0x40\n      mstore\n      dup1\n        /* \"contracts/Fvkry.sol\":1468:1469  0 */\n      0x00\n        /* \"contracts/Fvkry.sol\":1433:1671  Lock({... */\n      0xffffffffffffffffffffffffffffffffffffffff\n      and\n      dup2\n      mstore\n      0x20\n      add\n        /* \"contracts/Fvkry.sol\":1494:1503  msg.value */\n      callvalue\n        /* \"contracts/Fvkry.sol\":1433:1671  Lock({... */\n      dup2\n      mstore\n      0x20\n      add\n        /* \"contracts/Fvkry.sol\":1551:1562  _lockperiod */\n      dup5\n        /* \"contracts/Fvkry.sol\":1533:1548  block.timestamp */\n      timestamp\n        /* \"contracts/Fvkry.sol\":1533:1562  block.timestamp + _lockperiod */\n      tag_118\n      swap2\n      swap1\n      tag_100\n      jump\t// in\n    tag_118:\n        /* \"contracts/Fvkry.sol\":1433:1671  Lock({... */\n      dup2\n      mstore\n      0x20\n      add\n        /* \"contracts/Fvkry.sol\":1584:1590  _title */\n      dup4\n        /* \"contracts/Fvkry.sol\":1433:1671  Lock({... */\n      dup2\n      mstore\n      0x20\n      add\n        /* \"contracts/Fvkry.sol\":1620:1625  false */\n      0x00\n        /* \"contracts/Fvkry.sol\":1433:1671  Lock({... */\n      iszero\n      iszero\n      dup2\n      mstore\n      0x20\n      add\n        /* \"contracts/Fvkry.sol\":1653:1657  true */\n      0x01\n        /* \"contracts/Fvkry.sol\":1433:1671  Lock({... */\n      iszero\n      iszero\n      dup2\n      mstore\n      pop\n        /* \"contracts/Fvkry.sol\":1391:1672  userLockedAssets[msg.sender][_vault].push(Lock({... */\n      swap1\n      dup1\n      0x01\n      dup2\n      sload\n      add\n      dup1\n      dup3\n      sstore\n      dup1\n      swap2\n      pop\n      pop\n      0x01\n      swap1\n      sub\n      swap1\n      0x00\n      mstore\n      keccak256(0x00, 0x20)\n      swap1\n      0x05\n      mul\n      add\n      0x00\n      swap1\n      swap2\n      swap1\n      swap2\n      swap1\n      swap2\n      pop\n      0x00\n      dup3\n      add\n      mload\n      dup2\n      0x00\n      add\n      exp(0x0100, 0x00)\n      dup2\n      sload\n      dup2\n      0xffffffffffffffffffffffffffffffffffffffff\n      mul\n      not\n      and\n      swap1\n      dup4\n      0xffffffffffffffffffffffffffffffffffffffff\n      and\n      mul\n      or\n      swap1\n      sstore\n      pop\n      0x20\n      dup3\n      add\n      mload\n      dup2\n      0x01\n      add\n      sstore\n      0x40\n      dup3\n      add\n      mload\n      dup2\n      0x02\n      add\n      sstore\n      0x60\n      dup3\n      add\n      mload\n      dup2\n      0x03\n      add\n      swap1\n      dup2\n      tag_120\n      swap2\n      swap1\n      tag_103\n      jump\t// in\n    tag_120:\n      pop\n      0x80\n      dup3\n      add\n      mload\n      dup2\n      0x04\n      add\n      exp(0x0100, 0x00)\n      dup2\n      sload\n      dup2\n      0xff\n      mul\n      not\n      and\n      swap1\n      dup4\n      iszero\n      iszero\n      mul\n      or\n      swap1\n      sstore\n      pop\n      0xa0\n      dup3\n      add\n      mload\n      dup2\n      0x04\n      add\n      exp(0x0100, 0x01)\n      dup2\n      sload\n      dup2\n      0xff\n      mul\n      not\n      and\n      swap1\n      dup4\n      iszero\n      iszero\n      mul\n      or\n      swap1\n      sstore\n      pop\n      pop\n      pop\n        /* \"contracts/Fvkry.sol\":1724:1725  0 */\n      0x00\n        /* \"contracts/Fvkry.sol\":1704:1802  AssetLocked(address(0), msg.value, _title, _vault, block.timestamp + _lockperiod, block.timestamp) */\n      0xffffffffffffffffffffffffffffffffffffffff\n      and\n      0xed26bd61b6bf2f43d7471454e53e77ffdc96beefa2f198977936f6d02d34563d\n        /* \"contracts/Fvkry.sol\":1728:1737  msg.value */\n      callvalue\n        /* \"contracts/Fvkry.sol\":1739:1745  _title */\n      dup4\n        /* \"contracts/Fvkry.sol\":1747:1753  _vault */\n      dup7\n        /* \"contracts/Fvkry.sol\":1773:1784  _lockperiod */\n      dup7\n        /* \"contracts/Fvkry.sol\":1755:1770  block.timestamp */\n      timestamp\n        /* \"contracts/Fvkry.sol\":1755:1784  block.timestamp + _lockperiod */\n      tag_121\n      swap2\n      swap1\n      tag_100\n      jump\t// in\n    tag_121:\n        /* \"contracts/Fvkry.sol\":1786:1801  block.timestamp */\n      timestamp\n        /* \"contracts/Fvkry.sol\":1704:1802  AssetLocked(address(0), msg.value, _title, _vault, block.timestamp + _lockperiod, block.timestamp) */\n      mload(0x40)\n      tag_122\n      swap6\n      swap5\n      swap4\n      swap3\n      swap2\n      swap1\n      tag_106\n      jump\t// in\n    tag_122:\n      mload(0x40)\n      dup1\n      swap2\n      sub\n      swap1\n      log2\n        /* \"@openzeppelin/contracts/utils/ReentrancyGuard.sol\":2542:2562  _nonReentrantAfter() */\n      tag_123\n        /* \"@openzeppelin/contracts/utils/ReentrancyGuard.sol\":2542:2560  _nonReentrantAfter */\n      tag_108\n        /* \"@openzeppelin/contracts/utils/ReentrancyGuard.sol\":2542:2562  _nonReentrantAfter() */\n      jump\t// in\n    tag_123:\n        /* \"contracts/Fvkry.sol\":1080:1810  function lockETH(uint8 _vault, uint256 _lockperiod, string memory _title) external payable nonReentrant {... */\n      pop\n      pop\n      pop\n      jump\t// out\n        /* \"contracts/Fvkry.sol\":5382:5517  function getContractTokenBalance(IERC20 token) external view returns (uint256) {... */\n    tag_28:\n        /* \"contracts/Fvkry.sol\":5452:5459  uint256 */\n      0x00\n        /* \"contracts/Fvkry.sol\":5479:5484  token */\n      dup2\n        /* \"contracts/Fvkry.sol\":5479:5494  token.balanceOf */\n      0xffffffffffffffffffffffffffffffffffffffff\n      and\n      0x70a08231\n        /* \"contracts/Fvkry.sol\":5503:5507  this */\n      address\n        /* \"contracts/Fvkry.sol\":5479:5509  token.balanceOf(address(this)) */\n      mload(0x40)\n      dup3\n      0xffffffff\n      and\n      0xe0\n      shl\n      dup2\n      mstore\n      0x04\n      add\n      tag_125\n      swap2\n      swap1\n      tag_54\n      jump\t// in\n    tag_125:\n      0x20\n      mload(0x40)\n      dup1\n      dup4\n      sub\n      dup2\n      dup7\n      gas\n      staticcall\n      iszero\n      dup1\n      iszero\n      tag_127\n      jumpi\n      returndatasize\n      0x00\n      dup1\n      returndatacopy\n      revert(0x00, returndatasize)\n    tag_127:\n      pop\n      pop\n      pop\n      pop\n      mload(0x40)\n      returndatasize\n      not(0x1f)\n      0x1f\n      dup3\n      add\n      and\n      dup3\n      add\n      dup1\n      0x40\n      mstore\n      pop\n      dup2\n      add\n      swap1\n      tag_128\n      swap2\n      swap1\n      tag_93\n      jump\t// in\n    tag_128:\n        /* \"contracts/Fvkry.sol\":5472:5509  return token.balanceOf(address(this)) */\n      swap1\n      pop\n        /* \"contracts/Fvkry.sol\":5382:5517  function getContractTokenBalance(IERC20 token) external view returns (uint256) {... */\n      swap2\n      swap1\n      pop\n      jump\t// out\n        /* \"contracts/Fvkry.sol\":3394:4029  function addToLockedTokens(IERC20 _token, uint32 _assetID, uint256 _amount, uint8 _vault) external  nonReentrant {... */\n    tag_35:\n        /* \"@openzeppelin/contracts/utils/ReentrancyGuard.sol\":2500:2521  _nonReentrantBefore() */\n      tag_130\n        /* \"@openzeppelin/contracts/utils/ReentrancyGuard.sol\":2500:2519  _nonReentrantBefore */\n      tag_78\n        /* \"@openzeppelin/contracts/utils/ReentrancyGuard.sol\":2500:2521  _nonReentrantBefore() */\n      jump\t// in\n    tag_130:\n        /* \"contracts/Fvkry.sol\":3553:3554  0 */\n      0x00\n        /* \"contracts/Fvkry.sol\":3526:3555  address(_token) != address(0) */\n      0xffffffffffffffffffffffffffffffffffffffff\n      and\n        /* \"contracts/Fvkry.sol\":3534:3540  _token */\n      dup5\n        /* \"contracts/Fvkry.sol\":3526:3555  address(_token) != address(0) */\n      0xffffffffffffffffffffffffffffffffffffffff\n      and\n      sub\n        /* \"contracts/Fvkry.sol\":3518:3594  require(address(_token) != address(0), \"Must provide a valid token address\") */\n      tag_132\n      jumpi\n      mload(0x40)\n      0x08c379a000000000000000000000000000000000000000000000000000000000\n      dup2\n      mstore\n      0x04\n      add\n      tag_133\n      swap1\n      tag_82\n      jump\t// in\n    tag_133:\n      mload(0x40)\n      dup1\n      swap2\n      sub\n      swap1\n      revert\n    tag_132:\n        /* \"contracts/Fvkry.sol\":3623:3624  0 */\n      0x00\n        /* \"contracts/Fvkry.sol\":3613:3620  _amount */\n      dup3\n        /* \"contracts/Fvkry.sol\":3613:3624  _amount > 0 */\n      gt\n        /* \"contracts/Fvkry.sol\":3605:3667  require(_amount > 0, \"Token amount must be greater then zero\") */\n      tag_134\n      jumpi\n      mload(0x40)\n      0x08c379a000000000000000000000000000000000000000000000000000000000\n      dup2\n      mstore\n      0x04\n      add\n      tag_135\n      swap1\n      tag_85\n      jump\t// in\n    tag_135:\n      mload(0x40)\n      dup1\n      swap2\n      sub\n      swap1\n      revert\n    tag_134:\n        /* \"contracts/Fvkry.sol\":3704:3763  _token.safeTransferFrom(msg.sender, address(this), _amount) */\n      tag_136\n        /* \"contracts/Fvkry.sol\":3728:3738  msg.sender */\n      caller\n        /* \"contracts/Fvkry.sol\":3748:3752  this */\n      address\n        /* \"contracts/Fvkry.sol\":3755:3762  _amount */\n      dup5\n        /* \"contracts/Fvkry.sol\":3704:3710  _token */\n      dup8\n        /* \"contracts/Fvkry.sol\":3704:3727  _token.safeTransferFrom */\n      0xffffffffffffffffffffffffffffffffffffffff\n      and\n      tag_98\n      swap1\n        /* \"contracts/Fvkry.sol\":3704:3763  _token.safeTransferFrom(msg.sender, address(this), _amount) */\n      swap4\n      swap3\n      swap2\n      swap1\n      0xffffffff\n      and\n      jump\t// in\n    tag_136:\n        /* \"contracts/Fvkry.sol\":3873:3880  _amount */\n      dup2\n        /* \"contracts/Fvkry.sol\":3816:3832  userLockedAssets */\n      0x02\n        /* \"contracts/Fvkry.sol\":3816:3844  userLockedAssets[msg.sender] */\n      0x00\n        /* \"contracts/Fvkry.sol\":3833:3843  msg.sender */\n      caller\n        /* \"contracts/Fvkry.sol\":3816:3844  userLockedAssets[msg.sender] */\n      0xffffffffffffffffffffffffffffffffffffffff\n      and\n      0xffffffffffffffffffffffffffffffffffffffff\n      and\n      dup2\n      mstore\n      0x20\n      add\n      swap1\n      dup2\n      mstore\n      0x20\n      add\n      0x00\n      keccak256\n        /* \"contracts/Fvkry.sol\":3816:3852  userLockedAssets[msg.sender][_vault] */\n      0x00\n        /* \"contracts/Fvkry.sol\":3845:3851  _vault */\n      dup4\n        /* \"contracts/Fvkry.sol\":3816:3852  userLockedAssets[msg.sender][_vault] */\n      0xff\n      and\n      0xff\n      and\n      dup2\n      mstore\n      0x20\n      add\n      swap1\n      dup2\n      mstore\n      0x20\n      add\n      0x00\n      keccak256\n        /* \"contracts/Fvkry.sol\":3853:3861  _assetID */\n      dup5\n        /* \"contracts/Fvkry.sol\":3816:3862  userLockedAssets[msg.sender][_vault][_assetID] */\n      0xffffffff\n      and\n      dup2\n      sload\n      dup2\n      lt\n      tag_137\n      jumpi\n      tag_138\n      tag_139\n      jump\t// in\n    tag_138:\n    tag_137:\n      swap1\n      0x00\n      mstore\n      keccak256(0x00, 0x20)\n      swap1\n      0x05\n      mul\n      add\n        /* \"contracts/Fvkry.sol\":3816:3869  userLockedAssets[msg.sender][_vault][_assetID].amount */\n      0x01\n      add\n      0x00\n        /* \"contracts/Fvkry.sol\":3816:3880  userLockedAssets[msg.sender][_vault][_assetID].amount += _amount */\n      dup3\n      dup3\n      sload\n      tag_141\n      swap2\n      swap1\n      tag_100\n      jump\t// in\n    tag_141:\n      swap3\n      pop\n      pop\n      dup2\n      swap1\n      sstore\n      pop\n        /* \"contracts/Fvkry.sol\":3925:3931  _token */\n      dup4\n        /* \"contracts/Fvkry.sol\":3906:4021  AssetAdded(address(_token), _amount, userLockedAssets[msg.sender][_vault][_assetID].title, _vault, block.timestamp) */\n      0xffffffffffffffffffffffffffffffffffffffff\n      and\n      0x0b99ce8321b94ffaa5c5021540ec0668dcba948d044760a5ef298fa0513b1ef4\n        /* \"contracts/Fvkry.sol\":3934:3941  _amount */\n      dup4\n        /* \"contracts/Fvkry.sol\":3943:3959  userLockedAssets */\n      0x02\n        /* \"contracts/Fvkry.sol\":3943:3971  userLockedAssets[msg.sender] */\n      0x00\n        /* \"contracts/Fvkry.sol\":3960:3970  msg.sender */\n      caller\n        /* \"contracts/Fvkry.sol\":3943:3971  userLockedAssets[msg.sender] */\n      0xffffffffffffffffffffffffffffffffffffffff\n      and\n      0xffffffffffffffffffffffffffffffffffffffff\n      and\n      dup2\n      mstore\n      0x20\n      add\n      swap1\n      dup2\n      mstore\n      0x20\n      add\n      0x00\n      keccak256\n        /* \"contracts/Fvkry.sol\":3943:3979  userLockedAssets[msg.sender][_vault] */\n      0x00\n        /* \"contracts/Fvkry.sol\":3972:3978  _vault */\n      dup6\n        /* \"contracts/Fvkry.sol\":3943:3979  userLockedAssets[msg.sender][_vault] */\n      0xff\n      and\n      0xff\n      and\n      dup2\n      mstore\n      0x20\n      add\n      swap1\n      dup2\n      mstore\n      0x20\n      add\n      0x00\n      keccak256\n        /* \"contracts/Fvkry.sol\":3980:3988  _assetID */\n      dup7\n        /* \"contracts/Fvkry.sol\":3943:3989  userLockedAssets[msg.sender][_vault][_assetID] */\n      0xffffffff\n      and\n      dup2\n      sload\n      dup2\n      lt\n      tag_142\n      jumpi\n      tag_143\n      tag_139\n      jump\t// in\n    tag_143:\n    tag_142:\n      swap1\n      0x00\n      mstore\n      keccak256(0x00, 0x20)\n      swap1\n      0x05\n      mul\n      add\n        /* \"contracts/Fvkry.sol\":3943:3995  userLockedAssets[msg.sender][_vault][_assetID].title */\n      0x03\n      add\n        /* \"contracts/Fvkry.sol\":3997:4003  _vault */\n      dup5\n        /* \"contracts/Fvkry.sol\":4005:4020  block.timestamp */\n      timestamp\n        /* \"contracts/Fvkry.sol\":3906:4021  AssetAdded(address(_token), _amount, userLockedAssets[msg.sender][_vault][_assetID].title, _vault, block.timestamp) */\n      mload(0x40)\n      tag_145\n      swap5\n      swap4\n      swap3\n      swap2\n      swap1\n      tag_146\n      jump\t// in\n    tag_145:\n      mload(0x40)\n      dup1\n      swap2\n      sub\n      swap1\n      log2\n        /* \"@openzeppelin/contracts/utils/ReentrancyGuard.sol\":2542:2562  _nonReentrantAfter() */\n      tag_147\n        /* \"@openzeppelin/contracts/utils/ReentrancyGuard.sol\":2542:2560  _nonReentrantAfter */\n      tag_108\n        /* \"@openzeppelin/contracts/utils/ReentrancyGuard.sol\":2542:2562  _nonReentrantAfter() */\n      jump\t// in\n    tag_147:\n        /* \"contracts/Fvkry.sol\":3394:4029  function addToLockedTokens(IERC20 _token, uint32 _assetID, uint256 _amount, uint8 _vault) external  nonReentrant {... */\n      pop\n      pop\n      pop\n      pop\n      jump\t// out\n        /* \"contracts/Fvkry.sol\":5675:5809  function getUserLocks(uint8 _vault) public view returns (Lock[] memory) {... */\n    tag_40:\n        /* \"contracts/Fvkry.sol\":5732:5745  Lock[] memory */\n      0x60\n        /* \"contracts/Fvkry.sol\":5765:5781  userLockedAssets */\n      0x02\n        /* \"contracts/Fvkry.sol\":5765:5793  userLockedAssets[msg.sender] */\n      0x00\n        /* \"contracts/Fvkry.sol\":5782:5792  msg.sender */\n      caller\n        /* \"contracts/Fvkry.sol\":5765:5793  userLockedAssets[msg.sender] */\n      0xffffffffffffffffffffffffffffffffffffffff\n      and\n      0xffffffffffffffffffffffffffffffffffffffff\n      and\n      dup2\n      mstore\n      0x20\n      add\n      swap1\n      dup2\n      mstore\n      0x20\n      add\n      0x00\n      keccak256\n        /* \"contracts/Fvkry.sol\":5765:5801  userLockedAssets[msg.sender][_vault] */\n      0x00\n        /* \"contracts/Fvkry.sol\":5794:5800  _vault */\n      dup4\n        /* \"contracts/Fvkry.sol\":5765:5801  userLockedAssets[msg.sender][_vault] */\n      0xff\n      and\n      0xff\n      and\n      dup2\n      mstore\n      0x20\n      add\n      swap1\n      dup2\n      mstore\n      0x20\n      add\n      0x00\n      keccak256\n        /* \"contracts/Fvkry.sol\":5758:5801  return userLockedAssets[msg.sender][_vault] */\n      dup1\n      sload\n      dup1\n      0x20\n      mul\n      0x20\n      add\n      mload(0x40)\n      swap1\n      dup2\n      add\n      0x40\n      mstore\n      dup1\n      swap3\n      swap2\n      swap1\n      dup2\n      dup2\n      mstore\n      0x20\n      add\n      0x00\n      swap1\n    tag_149:\n      dup3\n      dup3\n      lt\n      iszero\n      tag_150\n      jumpi\n      dup4\n      dup3\n      swap1\n      0x00\n      mstore\n      keccak256(0x00, 0x20)\n      swap1\n      0x05\n      mul\n      add\n      mload(0x40)\n      dup1\n      0xc0\n      add\n      0x40\n      mstore\n      swap1\n      dup2\n      0x00\n      dup3\n      add\n      0x00\n      swap1\n      sload\n      swap1\n      0x0100\n      exp\n      swap1\n      div\n      0xffffffffffffffffffffffffffffffffffffffff\n      and\n      0xffffffffffffffffffffffffffffffffffffffff\n      and\n      0xffffffffffffffffffffffffffffffffffffffff\n      and\n      dup2\n      mstore\n      0x20\n      add\n      0x01\n      dup3\n      add\n      sload\n      dup2\n      mstore\n      0x20\n      add\n      0x02\n      dup3\n      add\n      sload\n      dup2\n      mstore\n      0x20\n      add\n      0x03\n      dup3\n      add\n      dup1\n      sload\n      tag_152\n      swap1\n      tag_153\n      jump\t// in\n    tag_152:\n      dup1\n      0x1f\n      add\n      0x20\n      dup1\n      swap2\n      div\n      mul\n      0x20\n      add\n      mload(0x40)\n      swap1\n      dup2\n      add\n      0x40\n      mstore\n      dup1\n      swap3\n      swap2\n      swap1\n      dup2\n      dup2\n      mstore\n      0x20\n      add\n      dup3\n      dup1\n      sload\n      tag_154\n      swap1\n      tag_153\n      jump\t// in\n    tag_154:\n      dup1\n      iszero\n      tag_155\n      jumpi\n      dup1\n      0x1f\n      lt\n      tag_156\n      jumpi\n      0x0100\n      dup1\n      dup4\n      sload\n      div\n      mul\n      dup4\n      mstore\n      swap2\n      0x20\n      add\n      swap2\n      jump(tag_155)\n    tag_156:\n      dup3\n      add\n      swap2\n      swap1\n      0x00\n      mstore\n      keccak256(0x00, 0x20)\n      swap1\n    tag_157:\n      dup2\n      sload\n      dup2\n      mstore\n      swap1\n      0x01\n      add\n      swap1\n      0x20\n      add\n      dup1\n      dup4\n      gt\n      tag_157\n      jumpi\n      dup3\n      swap1\n      sub\n      0x1f\n      and\n      dup3\n      add\n      swap2\n    tag_155:\n      pop\n      pop\n      pop\n      pop\n      pop\n      dup2\n      mstore\n      0x20\n      add\n      0x04\n      dup3\n      add\n      0x00\n      swap1\n      sload\n      swap1\n      0x0100\n      exp\n      swap1\n      div\n      0xff\n      and\n      iszero\n      iszero\n      iszero\n      iszero\n      dup2\n      mstore\n      0x20\n      add\n      0x04\n      dup3\n      add\n      0x01\n      swap1\n      sload\n      swap1\n      0x0100\n      exp\n      swap1\n      div\n      0xff\n      and\n      iszero\n      iszero\n      iszero\n      iszero\n      dup2\n      mstore\n      pop\n      pop\n      dup2\n      mstore\n      0x20\n      add\n      swap1\n      0x01\n      add\n      swap1\n      jump(tag_149)\n    tag_150:\n      pop\n      pop\n      pop\n      pop\n      swap1\n      pop\n        /* \"contracts/Fvkry.sol\":5675:5809  function getUserLocks(uint8 _vault) public view returns (Lock[] memory) {... */\n      swap2\n      swap1\n      pop\n      jump\t// out\n        /* \"@openzeppelin/contracts/access/Ownable.sol\":2293:2394  function renounceOwnership() public virtual onlyOwner {... */\n    tag_45:\n        /* \"@openzeppelin/contracts/access/Ownable.sol\":1531:1544  _checkOwner() */\n      tag_159\n        /* \"@openzeppelin/contracts/access/Ownable.sol\":1531:1542  _checkOwner */\n      tag_160\n        /* \"@openzeppelin/contracts/access/Ownable.sol\":1531:1544  _checkOwner() */\n      jump\t// in\n    tag_159:\n        /* \"@openzeppelin/contracts/access/Ownable.sol\":2357:2387  _transferOwnership(address(0)) */\n      tag_162\n        /* \"@openzeppelin/contracts/access/Ownable.sol\":2384:2385  0 */\n      0x00\n        /* \"@openzeppelin/contracts/access/Ownable.sol\":2357:2375  _transferOwnership */\n      tag_163\n        /* \"@openzeppelin/contracts/access/Ownable.sol\":2357:2387  _transferOwnership(address(0)) */\n      jump\t// in\n    tag_162:\n        /* \"@openzeppelin/contracts/access/Ownable.sol\":2293:2394  function renounceOwnership() public virtual onlyOwner {... */\n      jump\t// out\n        /* \"contracts/Fvkry.sol\":5525:5637  function getContractETHBalance() external view returns (uint256) {... */\n    tag_48:\n        /* \"contracts/Fvkry.sol\":5581:5588  uint256 */\n      0x00\n        /* \"contracts/Fvkry.sol\":5608:5629  address(this).balance */\n      selfbalance\n        /* \"contracts/Fvkry.sol\":5601:5629  return address(this).balance */\n      swap1\n      pop\n        /* \"contracts/Fvkry.sol\":5525:5637  function getContractETHBalance() external view returns (uint256) {... */\n      swap1\n      jump\t// out\n        /* \"@openzeppelin/contracts/access/Ownable.sol\":1638:1723  function owner() public view virtual returns (address) {... */\n    tag_52:\n        /* \"@openzeppelin/contracts/access/Ownable.sol\":1684:1691  address */\n      0x00\n        /* \"@openzeppelin/contracts/access/Ownable.sol\":1710:1716  _owner */\n      dup1\n      0x00\n      swap1\n      sload\n      swap1\n      0x0100\n      exp\n      swap1\n      div\n      0xffffffffffffffffffffffffffffffffffffffff\n      and\n        /* \"@openzeppelin/contracts/access/Ownable.sol\":1703:1716  return _owner */\n      swap1\n      pop\n        /* \"@openzeppelin/contracts/access/Ownable.sol\":1638:1723  function owner() public view virtual returns (address) {... */\n      swap1\n      jump\t// out\n        /* \"contracts/Fvkry.sol\":573:644  mapping  (address => mapping (uint8 => Lock[])) public userLockedAssets */\n    tag_59:\n      mstore(0x20, 0x02)\n      dup3\n      0x00\n      mstore\n      mstore(0x20, keccak256(0x00, 0x40))\n      dup2\n      0x00\n      mstore\n      keccak256(0x00, 0x40)\n      dup2\n      dup2\n      sload\n      dup2\n      lt\n      tag_166\n      jumpi\n      0x00\n      dup1\n      revert\n    tag_166:\n      swap1\n      0x00\n      mstore\n      keccak256(0x00, 0x20)\n      swap1\n      0x05\n      mul\n      add\n      0x00\n      swap3\n      pop\n      swap3\n      pop\n      pop\n      pop\n      dup1\n      0x00\n      add\n      0x00\n      swap1\n      sload\n      swap1\n      0x0100\n      exp\n      swap1\n      div\n      0xffffffffffffffffffffffffffffffffffffffff\n      and\n      swap1\n      dup1\n      0x01\n      add\n      sload\n      swap1\n      dup1\n      0x02\n      add\n      sload\n      swap1\n      dup1\n      0x03\n      add\n      dup1\n      sload\n      tag_168\n      swap1\n      tag_153\n      jump\t// in\n    tag_168:\n      dup1\n      0x1f\n      add\n      0x20\n      dup1\n      swap2\n      div\n      mul\n      0x20\n      add\n      mload(0x40)\n      swap1\n      dup2\n      add\n      0x40\n      mstore\n      dup1\n      swap3\n      swap2\n      swap1\n      dup2\n      dup2\n      mstore\n      0x20\n      add\n      dup3\n      dup1\n      sload\n      tag_169\n      swap1\n      tag_153\n      jump\t// in\n    tag_169:\n      dup1\n      iszero\n      tag_170\n      jumpi\n      dup1\n      0x1f\n      lt\n      tag_171\n      jumpi\n      0x0100\n      dup1\n      dup4\n      sload\n      div\n      mul\n      dup4\n      mstore\n      swap2\n      0x20\n      add\n      swap2\n      jump(tag_170)\n    tag_171:\n      dup3\n      add\n      swap2\n      swap1\n      0x00\n      mstore\n      keccak256(0x00, 0x20)\n      swap1\n    tag_172:\n      dup2\n      sload\n      dup2\n      mstore\n      swap1\n      0x01\n      add\n      swap1\n      0x20\n      add\n      dup1\n      dup4\n      gt\n      tag_172\n      jumpi\n      dup3\n      swap1\n      sub\n      0x1f\n      and\n      dup3\n      add\n      swap2\n    tag_170:\n      pop\n      pop\n      pop\n      pop\n      pop\n      swap1\n      dup1\n      0x04\n      add\n      0x00\n      swap1\n      sload\n      swap1\n      0x0100\n      exp\n      swap1\n      div\n      0xff\n      and\n      swap1\n      dup1\n      0x04\n      add\n      0x01\n      swap1\n      sload\n      swap1\n      0x0100\n      exp\n      swap1\n      div\n      0xff\n      and\n      swap1\n      pop\n      dup7\n      jump\t// out\n        /* \"contracts/Fvkry.sol\":4060:5348  function transferAsset( uint32 _assetId,uint8 _vault, uint256 _amount) external  nonReentrant {... */\n    tag_66:\n        /* \"@openzeppelin/contracts/utils/ReentrancyGuard.sol\":2500:2521  _nonReentrantBefore() */\n      tag_174\n        /* \"@openzeppelin/contracts/utils/ReentrancyGuard.sol\":2500:2519  _nonReentrantBefore */\n      tag_78\n        /* \"@openzeppelin/contracts/utils/ReentrancyGuard.sol\":2500:2521  _nonReentrantBefore() */\n      jump\t// in\n    tag_174:\n        /* \"contracts/Fvkry.sol\":4184:4200  userLockedAssets */\n      0x02\n        /* \"contracts/Fvkry.sol\":4184:4212  userLockedAssets[msg.sender] */\n      0x00\n        /* \"contracts/Fvkry.sol\":4201:4211  msg.sender */\n      caller\n        /* \"contracts/Fvkry.sol\":4184:4212  userLockedAssets[msg.sender] */\n      0xffffffffffffffffffffffffffffffffffffffff\n      and\n      0xffffffffffffffffffffffffffffffffffffffff\n      and\n      dup2\n      mstore\n      0x20\n      add\n      swap1\n      dup2\n      mstore\n      0x20\n      add\n      0x00\n      keccak256\n        /* \"contracts/Fvkry.sol\":4184:4220  userLockedAssets[msg.sender][_vault] */\n      0x00\n        /* \"contracts/Fvkry.sol\":4213:4219  _vault */\n      dup4\n        /* \"contracts/Fvkry.sol\":4184:4220  userLockedAssets[msg.sender][_vault] */\n      0xff\n      and\n      0xff\n      and\n      dup2\n      mstore\n      0x20\n      add\n      swap1\n      dup2\n      mstore\n      0x20\n      add\n      0x00\n      keccak256\n        /* \"contracts/Fvkry.sol\":4184:4227  userLockedAssets[msg.sender][_vault].length */\n      dup1\n      sload\n      swap1\n      pop\n        /* \"contracts/Fvkry.sol\":4173:4181  _assetId */\n      dup4\n        /* \"contracts/Fvkry.sol\":4173:4227  _assetId < userLockedAssets[msg.sender][_vault].length */\n      0xffffffff\n      and\n      lt\n        /* \"contracts/Fvkry.sol\":4165:4266  require(_assetId < userLockedAssets[msg.sender][_vault].length, \"The specified asset ID is invalid.\") */\n      tag_176\n      jumpi\n      mload(0x40)\n      0x08c379a000000000000000000000000000000000000000000000000000000000\n      dup2\n      mstore\n      0x04\n      add\n      tag_177\n      swap1\n      tag_178\n      jump\t// in\n    tag_177:\n      mload(0x40)\n      dup1\n      swap2\n      sub\n      swap1\n      revert\n    tag_176:\n        /* \"contracts/Fvkry.sol\":4287:4304  Lock storage lock */\n      0x00\n        /* \"contracts/Fvkry.sol\":4307:4323  userLockedAssets */\n      0x02\n        /* \"contracts/Fvkry.sol\":4307:4335  userLockedAssets[msg.sender] */\n      0x00\n        /* \"contracts/Fvkry.sol\":4324:4334  msg.sender */\n      caller\n        /* \"contracts/Fvkry.sol\":4307:4335  userLockedAssets[msg.sender] */\n      0xffffffffffffffffffffffffffffffffffffffff\n      and\n      0xffffffffffffffffffffffffffffffffffffffff\n      and\n      dup2\n      mstore\n      0x20\n      add\n      swap1\n      dup2\n      mstore\n      0x20\n      add\n      0x00\n      keccak256\n        /* \"contracts/Fvkry.sol\":4307:4343  userLockedAssets[msg.sender][_vault] */\n      0x00\n        /* \"contracts/Fvkry.sol\":4336:4342  _vault */\n      dup5\n        /* \"contracts/Fvkry.sol\":4307:4343  userLockedAssets[msg.sender][_vault] */\n      0xff\n      and\n      0xff\n      and\n      dup2\n      mstore\n      0x20\n      add\n      swap1\n      dup2\n      mstore\n      0x20\n      add\n      0x00\n      keccak256\n        /* \"contracts/Fvkry.sol\":4344:4352  _assetId */\n      dup5\n        /* \"contracts/Fvkry.sol\":4307:4353  userLockedAssets[msg.sender][_vault][_assetId] */\n      0xffffffff\n      and\n      dup2\n      sload\n      dup2\n      lt\n      tag_179\n      jumpi\n      tag_180\n      tag_139\n      jump\t// in\n    tag_180:\n    tag_179:\n      swap1\n      0x00\n      mstore\n      keccak256(0x00, 0x20)\n      swap1\n      0x05\n      mul\n      add\n        /* \"contracts/Fvkry.sol\":4287:4353  Lock storage lock = userLockedAssets[msg.sender][_vault][_assetId] */\n      swap1\n      pop\n        /* \"contracts/Fvkry.sol\":4375:4379  lock */\n      dup1\n        /* \"contracts/Fvkry.sol\":4375:4389  lock.withdrawn */\n      0x04\n      add\n      0x00\n      swap1\n      sload\n      swap1\n      0x0100\n      exp\n      swap1\n      div\n      0xff\n      and\n        /* \"contracts/Fvkry.sol\":4374:4389  !lock.withdrawn */\n      iszero\n        /* \"contracts/Fvkry.sol\":4366:4428  require(!lock.withdrawn,\"Assets have already been withdrawn!\") */\n      tag_182\n      jumpi\n      mload(0x40)\n      0x08c379a000000000000000000000000000000000000000000000000000000000\n      dup2\n      mstore\n      0x04\n      add\n      tag_183\n      swap1\n      tag_184\n      jump\t// in\n    tag_183:\n      mload(0x40)\n      dup1\n      swap2\n      sub\n      swap1\n      revert\n    tag_182:\n        /* \"contracts/Fvkry.sol\":4465:4469  lock */\n      dup1\n        /* \"contracts/Fvkry.sol\":4465:4481  lock.lockEndTime */\n      0x02\n      add\n      sload\n        /* \"contracts/Fvkry.sol\":4447:4462  block.timestamp */\n      timestamp\n        /* \"contracts/Fvkry.sol\":4447:4481  block.timestamp > lock.lockEndTime */\n      gt\n        /* \"contracts/Fvkry.sol\":4439:4522  require(block.timestamp > lock.lockEndTime, \"The lock period has not yet expired!\") */\n      tag_185\n      jumpi\n      mload(0x40)\n      0x08c379a000000000000000000000000000000000000000000000000000000000\n      dup2\n      mstore\n      0x04\n      add\n      tag_186\n      swap1\n      tag_187\n      jump\t// in\n    tag_186:\n      mload(0x40)\n      dup1\n      swap2\n      sub\n      swap1\n      revert\n    tag_185:\n        /* \"contracts/Fvkry.sol\":4535:4557  uint256  updateBalance */\n      0x00\n        /* \"contracts/Fvkry.sol\":4574:4581  _amount */\n      dup3\n        /* \"contracts/Fvkry.sol\":4560:4564  lock */\n      dup3\n        /* \"contracts/Fvkry.sol\":4560:4571  lock.amount */\n      0x01\n      add\n      sload\n        /* \"contracts/Fvkry.sol\":4560:4581  lock.amount - _amount */\n      tag_188\n      swap2\n      swap1\n      tag_189\n      jump\t// in\n    tag_188:\n        /* \"contracts/Fvkry.sol\":4535:4581  uint256  updateBalance = lock.amount - _amount */\n      swap1\n      pop\n        /* \"contracts/Fvkry.sol\":4618:4619  0 */\n      0x00\n        /* \"contracts/Fvkry.sol\":4601:4614  updateBalance */\n      dup2\n        /* \"contracts/Fvkry.sol\":4601:4619  updateBalance >= 0 */\n      lt\n      iszero\n        /* \"contracts/Fvkry.sol\":4592:4653  require (updateBalance >= 0,\"Not enough assets to withdraw!\") */\n      tag_190\n      jumpi\n      mload(0x40)\n      0x08c379a000000000000000000000000000000000000000000000000000000000\n      dup2\n      mstore\n      0x04\n      add\n      tag_191\n      swap1\n      tag_192\n      jump\t// in\n    tag_191:\n      mload(0x40)\n      dup1\n      swap2\n      sub\n      swap1\n      revert\n    tag_190:\n        /* \"contracts/Fvkry.sol\":4715:4716  0 */\n      0x00\n        /* \"contracts/Fvkry.sol\":4698:4711  updateBalance */\n      dup2\n        /* \"contracts/Fvkry.sol\":4698:4716  updateBalance == 0 */\n      sub\n        /* \"contracts/Fvkry.sol\":4695:4808  if(updateBalance == 0) {... */\n      tag_193\n      jumpi\n        /* \"contracts/Fvkry.sol\":4792:4796  true */\n      0x01\n        /* \"contracts/Fvkry.sol\":4733:4749  userLockedAssets */\n      0x02\n        /* \"contracts/Fvkry.sol\":4733:4761  userLockedAssets[msg.sender] */\n      0x00\n        /* \"contracts/Fvkry.sol\":4750:4760  msg.sender */\n      caller\n        /* \"contracts/Fvkry.sol\":4733:4761  userLockedAssets[msg.sender] */\n      0xffffffffffffffffffffffffffffffffffffffff\n      and\n      0xffffffffffffffffffffffffffffffffffffffff\n      and\n      dup2\n      mstore\n      0x20\n      add\n      swap1\n      dup2\n      mstore\n      0x20\n      add\n      0x00\n      keccak256\n        /* \"contracts/Fvkry.sol\":4733:4769  userLockedAssets[msg.sender][_vault] */\n      0x00\n        /* \"contracts/Fvkry.sol\":4762:4768  _vault */\n      dup7\n        /* \"contracts/Fvkry.sol\":4733:4769  userLockedAssets[msg.sender][_vault] */\n      0xff\n      and\n      0xff\n      and\n      dup2\n      mstore\n      0x20\n      add\n      swap1\n      dup2\n      mstore\n      0x20\n      add\n      0x00\n      keccak256\n        /* \"contracts/Fvkry.sol\":4770:4778  _assetId */\n      dup7\n        /* \"contracts/Fvkry.sol\":4733:4779  userLockedAssets[msg.sender][_vault][_assetId] */\n      0xffffffff\n      and\n      dup2\n      sload\n      dup2\n      lt\n      tag_194\n      jumpi\n      tag_195\n      tag_139\n      jump\t// in\n    tag_195:\n    tag_194:\n      swap1\n      0x00\n      mstore\n      keccak256(0x00, 0x20)\n      swap1\n      0x05\n      mul\n      add\n        /* \"contracts/Fvkry.sol\":4733:4789  userLockedAssets[msg.sender][_vault][_assetId].withdrawn */\n      0x04\n      add\n      0x00\n        /* \"contracts/Fvkry.sol\":4733:4796  userLockedAssets[msg.sender][_vault][_assetId].withdrawn = true */\n      0x0100\n      exp\n      dup2\n      sload\n      dup2\n      0xff\n      mul\n      not\n      and\n      swap1\n      dup4\n      iszero\n      iszero\n      mul\n      or\n      swap1\n      sstore\n      pop\n        /* \"contracts/Fvkry.sol\":4695:4808  if(updateBalance == 0) {... */\n    tag_193:\n        /* \"contracts/Fvkry.sol\":4905:4918  updateBalance */\n      dup1\n        /* \"contracts/Fvkry.sol\":4849:4865  userLockedAssets */\n      0x02\n        /* \"contracts/Fvkry.sol\":4849:4877  userLockedAssets[msg.sender] */\n      0x00\n        /* \"contracts/Fvkry.sol\":4866:4876  msg.sender */\n      caller\n        /* \"contracts/Fvkry.sol\":4849:4877  userLockedAssets[msg.sender] */\n      0xffffffffffffffffffffffffffffffffffffffff\n      and\n      0xffffffffffffffffffffffffffffffffffffffff\n      and\n      dup2\n      mstore\n      0x20\n      add\n      swap1\n      dup2\n      mstore\n      0x20\n      add\n      0x00\n      keccak256\n        /* \"contracts/Fvkry.sol\":4849:4885  userLockedAssets[msg.sender][_vault] */\n      0x00\n        /* \"contracts/Fvkry.sol\":4878:4884  _vault */\n      dup7\n        /* \"contracts/Fvkry.sol\":4849:4885  userLockedAssets[msg.sender][_vault] */\n      0xff\n      and\n      0xff\n      and\n      dup2\n      mstore\n      0x20\n      add\n      swap1\n      dup2\n      mstore\n      0x20\n      add\n      0x00\n      keccak256\n        /* \"contracts/Fvkry.sol\":4886:4894  _assetId */\n      dup7\n        /* \"contracts/Fvkry.sol\":4849:4895  userLockedAssets[msg.sender][_vault][_assetId] */\n      0xffffffff\n      and\n      dup2\n      sload\n      dup2\n      lt\n      tag_197\n      jumpi\n      tag_198\n      tag_139\n      jump\t// in\n    tag_198:\n    tag_197:\n      swap1\n      0x00\n      mstore\n      keccak256(0x00, 0x20)\n      swap1\n      0x05\n      mul\n      add\n        /* \"contracts/Fvkry.sol\":4849:4902  userLockedAssets[msg.sender][_vault][_assetId].amount */\n      0x01\n      add\n        /* \"contracts/Fvkry.sol\":4849:4918  userLockedAssets[msg.sender][_vault][_assetId].amount = updateBalance */\n      dup2\n      swap1\n      sstore\n      pop\n        /* \"contracts/Fvkry.sol\":4938:4942  lock */\n      dup2\n        /* \"contracts/Fvkry.sol\":4938:4951  lock.isNative */\n      0x04\n      add\n      0x01\n      swap1\n      sload\n      swap1\n      0x0100\n      exp\n      swap1\n      div\n      0xff\n      and\n        /* \"contracts/Fvkry.sol\":4935:5240  if(lock.isNative) {... */\n      iszero\n      tag_200\n      jumpi\n        /* \"contracts/Fvkry.sol\":4998:5010  bool success */\n      0x00\n        /* \"contracts/Fvkry.sol\":5016:5026  msg.sender */\n      caller\n        /* \"contracts/Fvkry.sol\":5016:5031  msg.sender.call */\n      0xffffffffffffffffffffffffffffffffffffffff\n      and\n        /* \"contracts/Fvkry.sol\":5039:5046  _amount */\n      dup5\n        /* \"contracts/Fvkry.sol\":5016:5051  msg.sender.call{value: _amount}(\"\") */\n      mload(0x40)\n      tag_201\n      swap1\n      tag_202\n      jump\t// in\n    tag_201:\n      0x00\n      mload(0x40)\n      dup1\n      dup4\n      sub\n      dup2\n      dup6\n      dup8\n      gas\n      call\n      swap3\n      pop\n      pop\n      pop\n      returndatasize\n      dup1\n      0x00\n      dup2\n      eq\n      tag_205\n      jumpi\n      mload(0x40)\n      swap2\n      pop\n      and(add(returndatasize, 0x3f), not(0x1f))\n      dup3\n      add\n      0x40\n      mstore\n      returndatasize\n      dup3\n      mstore\n      returndatasize\n      0x00\n      0x20\n      dup5\n      add\n      returndatacopy\n      jump(tag_204)\n    tag_205:\n      0x60\n      swap2\n      pop\n    tag_204:\n      pop\n        /* \"contracts/Fvkry.sol\":4997:5051  (bool success, ) = msg.sender.call{value: _amount}(\"\") */\n      pop\n      swap1\n      pop\n        /* \"contracts/Fvkry.sol\":5074:5081  success */\n      dup1\n        /* \"contracts/Fvkry.sol\":5066:5105  require(success, \"ETH transfer failed\") */\n      tag_206\n      jumpi\n      mload(0x40)\n      0x08c379a000000000000000000000000000000000000000000000000000000000\n      dup2\n      mstore\n      0x04\n      add\n      tag_207\n      swap1\n      tag_208\n      jump\t// in\n    tag_207:\n      mload(0x40)\n      dup1\n      swap2\n      sub\n      swap1\n      revert\n    tag_206:\n        /* \"contracts/Fvkry.sol\":4953:5117  {... */\n      pop\n        /* \"contracts/Fvkry.sol\":4935:5240  if(lock.isNative) {... */\n      jump(tag_209)\n    tag_200:\n        /* \"contracts/Fvkry.sol\":5176:5228  IERC20(lock.token).safeTransfer(msg.sender, _amount) */\n      tag_210\n        /* \"contracts/Fvkry.sol\":5208:5218  msg.sender */\n      caller\n        /* \"contracts/Fvkry.sol\":5220:5227  _amount */\n      dup5\n        /* \"contracts/Fvkry.sol\":5183:5187  lock */\n      dup5\n        /* \"contracts/Fvkry.sol\":5183:5193  lock.token */\n      0x00\n      add\n      0x00\n      swap1\n      sload\n      swap1\n      0x0100\n      exp\n      swap1\n      div\n      0xffffffffffffffffffffffffffffffffffffffff\n      and\n        /* \"contracts/Fvkry.sol\":5176:5207  IERC20(lock.token).safeTransfer */\n      0xffffffffffffffffffffffffffffffffffffffff\n      and\n      tag_211\n      swap1\n        /* \"contracts/Fvkry.sol\":5176:5228  IERC20(lock.token).safeTransfer(msg.sender, _amount) */\n      swap3\n      swap2\n      swap1\n      0xffffffff\n      and\n      jump\t// in\n    tag_210:\n        /* \"contracts/Fvkry.sol\":4935:5240  if(lock.isNative) {... */\n    tag_209:\n        /* \"contracts/Fvkry.sol\":5281:5285  lock */\n      dup2\n        /* \"contracts/Fvkry.sol\":5281:5291  lock.token */\n      0x00\n      add\n      0x00\n      swap1\n      sload\n      swap1\n      0x0100\n      exp\n      swap1\n      div\n      0xffffffffffffffffffffffffffffffffffffffff\n      and\n        /* \"contracts/Fvkry.sol\":5257:5340  AssetTransfered(address(lock.token), _amount , lock.title, _vault, block.timestamp) */\n      0xffffffffffffffffffffffffffffffffffffffff\n      and\n      0x16c4c024c274b52575ffc17396bbc4a59db7dd13aac28373e025a9f6269f9e03\n        /* \"contracts/Fvkry.sol\":5294:5301  _amount */\n      dup5\n        /* \"contracts/Fvkry.sol\":5304:5308  lock */\n      dup5\n        /* \"contracts/Fvkry.sol\":5304:5314  lock.title */\n      0x03\n      add\n        /* \"contracts/Fvkry.sol\":5316:5322  _vault */\n      dup8\n        /* \"contracts/Fvkry.sol\":5324:5339  block.timestamp */\n      timestamp\n        /* \"contracts/Fvkry.sol\":5257:5340  AssetTransfered(address(lock.token), _amount , lock.title, _vault, block.timestamp) */\n      mload(0x40)\n      tag_212\n      swap5\n      swap4\n      swap3\n      swap2\n      swap1\n      tag_146\n      jump\t// in\n    tag_212:\n      mload(0x40)\n      dup1\n      swap2\n      sub\n      swap1\n      log2\n        /* \"contracts/Fvkry.sol\":4154:5348  {... */\n      pop\n      pop\n        /* \"@openzeppelin/contracts/utils/ReentrancyGuard.sol\":2542:2562  _nonReentrantAfter() */\n      tag_213\n        /* \"@openzeppelin/contracts/utils/ReentrancyGuard.sol\":2542:2560  _nonReentrantAfter */\n      tag_108\n        /* \"@openzeppelin/contracts/utils/ReentrancyGuard.sol\":2542:2562  _nonReentrantAfter() */\n      jump\t// in\n    tag_213:\n        /* \"contracts/Fvkry.sol\":4060:5348  function transferAsset( uint32 _assetId,uint8 _vault, uint256 _amount) external  nonReentrant {... */\n      pop\n      pop\n      pop\n      jump\t// out\n        /* \"contracts/Fvkry.sol\":1818:2254  function addToLockedETH(uint8 _vault, uint32 _assetID) external payable  nonReentrant {... */\n    tag_70:\n        /* \"@openzeppelin/contracts/utils/ReentrancyGuard.sol\":2500:2521  _nonReentrantBefore() */\n      tag_215\n        /* \"@openzeppelin/contracts/utils/ReentrancyGuard.sol\":2500:2519  _nonReentrantBefore */\n      tag_78\n        /* \"@openzeppelin/contracts/utils/ReentrancyGuard.sol\":2500:2521  _nonReentrantBefore() */\n      jump\t// in\n    tag_215:\n        /* \"contracts/Fvkry.sol\":1935:1936  0 */\n      0x00\n        /* \"contracts/Fvkry.sol\":1923:1932  msg.value */\n      callvalue\n        /* \"contracts/Fvkry.sol\":1923:1936  msg.value > 0 */\n      gt\n        /* \"contracts/Fvkry.sol\":1915:1992  require(msg.value > 0, \"ETH to add to lock must be an amount greater than 0\") */\n      tag_217\n      jumpi\n      mload(0x40)\n      0x08c379a000000000000000000000000000000000000000000000000000000000\n      dup2\n      mstore\n      0x04\n      add\n      tag_218\n      swap1\n      tag_219\n      jump\t// in\n    tag_218:\n      mload(0x40)\n      dup1\n      swap2\n      sub\n      swap1\n      revert\n    tag_217:\n        /* \"contracts/Fvkry.sol\":2107:2116  msg.value */\n      callvalue\n        /* \"contracts/Fvkry.sol\":2050:2066  userLockedAssets */\n      0x02\n        /* \"contracts/Fvkry.sol\":2050:2078  userLockedAssets[msg.sender] */\n      0x00\n        /* \"contracts/Fvkry.sol\":2067:2077  msg.sender */\n      caller\n        /* \"contracts/Fvkry.sol\":2050:2078  userLockedAssets[msg.sender] */\n      0xffffffffffffffffffffffffffffffffffffffff\n      and\n      0xffffffffffffffffffffffffffffffffffffffff\n      and\n      dup2\n      mstore\n      0x20\n      add\n      swap1\n      dup2\n      mstore\n      0x20\n      add\n      0x00\n      keccak256\n        /* \"contracts/Fvkry.sol\":2050:2086  userLockedAssets[msg.sender][_vault] */\n      0x00\n        /* \"contracts/Fvkry.sol\":2079:2085  _vault */\n      dup5\n        /* \"contracts/Fvkry.sol\":2050:2086  userLockedAssets[msg.sender][_vault] */\n      0xff\n      and\n      0xff\n      and\n      dup2\n      mstore\n      0x20\n      add\n      swap1\n      dup2\n      mstore\n      0x20\n      add\n      0x00\n      keccak256\n        /* \"contracts/Fvkry.sol\":2087:2095  _assetID */\n      dup3\n        /* \"contracts/Fvkry.sol\":2050:2096  userLockedAssets[msg.sender][_vault][_assetID] */\n      0xffffffff\n      and\n      dup2\n      sload\n      dup2\n      lt\n      tag_220\n      jumpi\n      tag_221\n      tag_139\n      jump\t// in\n    tag_221:\n    tag_220:\n      swap1\n      0x00\n      mstore\n      keccak256(0x00, 0x20)\n      swap1\n      0x05\n      mul\n      add\n        /* \"contracts/Fvkry.sol\":2050:2103  userLockedAssets[msg.sender][_vault][_assetID].amount */\n      0x01\n      add\n      0x00\n        /* \"contracts/Fvkry.sol\":2050:2116  userLockedAssets[msg.sender][_vault][_assetID].amount += msg.value */\n      dup3\n      dup3\n      sload\n      tag_223\n      swap2\n      swap1\n      tag_100\n      jump\t// in\n    tag_223:\n      swap3\n      pop\n      pop\n      dup2\n      swap1\n      sstore\n      pop\n        /* \"contracts/Fvkry.sol\":2153:2154  0 */\n      0x00\n        /* \"contracts/Fvkry.sol\":2134:2246  AssetAdded(address(0), msg.value, userLockedAssets[msg.sender][_vault][_assetID].title, _vault, block.timestamp) */\n      0xffffffffffffffffffffffffffffffffffffffff\n      and\n      0x0b99ce8321b94ffaa5c5021540ec0668dcba948d044760a5ef298fa0513b1ef4\n        /* \"contracts/Fvkry.sol\":2157:2166  msg.value */\n      callvalue\n        /* \"contracts/Fvkry.sol\":2168:2184  userLockedAssets */\n      0x02\n        /* \"contracts/Fvkry.sol\":2168:2196  userLockedAssets[msg.sender] */\n      0x00\n        /* \"contracts/Fvkry.sol\":2185:2195  msg.sender */\n      caller\n        /* \"contracts/Fvkry.sol\":2168:2196  userLockedAssets[msg.sender] */\n      0xffffffffffffffffffffffffffffffffffffffff\n      and\n      0xffffffffffffffffffffffffffffffffffffffff\n      and\n      dup2\n      mstore\n      0x20\n      add\n      swap1\n      dup2\n      mstore\n      0x20\n      add\n      0x00\n      keccak256\n        /* \"contracts/Fvkry.sol\":2168:2204  userLockedAssets[msg.sender][_vault] */\n      0x00\n        /* \"contracts/Fvkry.sol\":2197:2203  _vault */\n      dup7\n        /* \"contracts/Fvkry.sol\":2168:2204  userLockedAssets[msg.sender][_vault] */\n      0xff\n      and\n      0xff\n      and\n      dup2\n      mstore\n      0x20\n      add\n      swap1\n      dup2\n      mstore\n      0x20\n      add\n      0x00\n      keccak256\n        /* \"contracts/Fvkry.sol\":2205:2213  _assetID */\n      dup5\n        /* \"contracts/Fvkry.sol\":2168:2214  userLockedAssets[msg.sender][_vault][_assetID] */\n      0xffffffff\n      and\n      dup2\n      sload\n      dup2\n      lt\n      tag_224\n      jumpi\n      tag_225\n      tag_139\n      jump\t// in\n    tag_225:\n    tag_224:\n      swap1\n      0x00\n      mstore\n      keccak256(0x00, 0x20)\n      swap1\n      0x05\n      mul\n      add\n        /* \"contracts/Fvkry.sol\":2168:2220  userLockedAssets[msg.sender][_vault][_assetID].title */\n      0x03\n      add\n        /* \"contracts/Fvkry.sol\":2222:2228  _vault */\n      dup6\n        /* \"contracts/Fvkry.sol\":2230:2245  block.timestamp */\n      timestamp\n        /* \"contracts/Fvkry.sol\":2134:2246  AssetAdded(address(0), msg.value, userLockedAssets[msg.sender][_vault][_assetID].title, _vault, block.timestamp) */\n      mload(0x40)\n      tag_227\n      swap5\n      swap4\n      swap3\n      swap2\n      swap1\n      tag_146\n      jump\t// in\n    tag_227:\n      mload(0x40)\n      dup1\n      swap2\n      sub\n      swap1\n      log2\n        /* \"@openzeppelin/contracts/utils/ReentrancyGuard.sol\":2542:2562  _nonReentrantAfter() */\n      tag_228\n        /* \"@openzeppelin/contracts/utils/ReentrancyGuard.sol\":2542:2560  _nonReentrantAfter */\n      tag_108\n        /* \"@openzeppelin/contracts/utils/ReentrancyGuard.sol\":2542:2562  _nonReentrantAfter() */\n      jump\t// in\n    tag_228:\n        /* \"contracts/Fvkry.sol\":1818:2254  function addToLockedETH(uint8 _vault, uint32 _assetID) external payable  nonReentrant {... */\n      pop\n      pop\n      jump\t// out\n        /* \"@openzeppelin/contracts/access/Ownable.sol\":2543:2758  function transferOwnership(address newOwner) public virtual onlyOwner {... */\n    tag_75:\n        /* \"@openzeppelin/contracts/access/Ownable.sol\":1531:1544  _checkOwner() */\n      tag_230\n        /* \"@openzeppelin/contracts/access/Ownable.sol\":1531:1542  _checkOwner */\n      tag_160\n        /* \"@openzeppelin/contracts/access/Ownable.sol\":1531:1544  _checkOwner() */\n      jump\t// in\n    tag_230:\n        /* \"@openzeppelin/contracts/access/Ownable.sol\":2647:2648  0 */\n      0x00\n        /* \"@openzeppelin/contracts/access/Ownable.sol\":2627:2649  newOwner == address(0) */\n      0xffffffffffffffffffffffffffffffffffffffff\n      and\n        /* \"@openzeppelin/contracts/access/Ownable.sol\":2627:2635  newOwner */\n      dup2\n        /* \"@openzeppelin/contracts/access/Ownable.sol\":2627:2649  newOwner == address(0) */\n      0xffffffffffffffffffffffffffffffffffffffff\n      and\n      sub\n        /* \"@openzeppelin/contracts/access/Ownable.sol\":2623:2714  if (newOwner == address(0)) {... */\n      tag_232\n      jumpi\n        /* \"@openzeppelin/contracts/access/Ownable.sol\":2700:2701  0 */\n      0x00\n        /* \"@openzeppelin/contracts/access/Ownable.sol\":2672:2703  OwnableInvalidOwner(address(0)) */\n      mload(0x40)\n      0x1e4fbdf700000000000000000000000000000000000000000000000000000000\n      dup2\n      mstore\n      0x04\n      add\n      tag_233\n      swap2\n      swap1\n      tag_54\n      jump\t// in\n    tag_233:\n      mload(0x40)\n      dup1\n      swap2\n      sub\n      swap1\n      revert\n        /* \"@openzeppelin/contracts/access/Ownable.sol\":2623:2714  if (newOwner == address(0)) {... */\n    tag_232:\n        /* \"@openzeppelin/contracts/access/Ownable.sol\":2723:2751  _transferOwnership(newOwner) */\n      tag_234\n        /* \"@openzeppelin/contracts/access/Ownable.sol\":2742:2750  newOwner */\n      dup2\n        /* \"@openzeppelin/contracts/access/Ownable.sol\":2723:2741  _transferOwnership */\n      tag_163\n        /* \"@openzeppelin/contracts/access/Ownable.sol\":2723:2751  _transferOwnership(newOwner) */\n      jump\t// in\n    tag_234:\n        /* \"@openzeppelin/contracts/access/Ownable.sol\":2543:2758  function transferOwnership(address newOwner) public virtual onlyOwner {... */\n      pop\n      jump\t// out\n        /* \"@openzeppelin/contracts/utils/ReentrancyGuard.sol\":2575:2882  function _nonReentrantBefore() private {... */\n    tag_78:\n        /* \"@openzeppelin/contracts/utils/ReentrancyGuard.sol\":1899:1900  2 */\n      0x02\n        /* \"@openzeppelin/contracts/utils/ReentrancyGuard.sol\":2702:2709  _status */\n      sload(0x01)\n        /* \"@openzeppelin/contracts/utils/ReentrancyGuard.sol\":2702:2720  _status == ENTERED */\n      sub\n        /* \"@openzeppelin/contracts/utils/ReentrancyGuard.sol\":2698:2784  if (_status == ENTERED) {... */\n      tag_236\n      jumpi\n        /* \"@openzeppelin/contracts/utils/ReentrancyGuard.sol\":2743:2773  ReentrancyGuardReentrantCall() */\n      mload(0x40)\n      0x3ee5aeb500000000000000000000000000000000000000000000000000000000\n      dup2\n      mstore\n      0x04\n      add\n      mload(0x40)\n      dup1\n      swap2\n      sub\n      swap1\n      revert\n        /* \"@openzeppelin/contracts/utils/ReentrancyGuard.sol\":2698:2784  if (_status == ENTERED) {... */\n    tag_236:\n        /* \"@openzeppelin/contracts/utils/ReentrancyGuard.sol\":1899:1900  2 */\n      0x02\n        /* \"@openzeppelin/contracts/utils/ReentrancyGuard.sol\":2858:2865  _status */\n      0x01\n        /* \"@openzeppelin/contracts/utils/ReentrancyGuard.sol\":2858:2875  _status = ENTERED */\n      dup2\n      swap1\n      sstore\n      pop\n        /* \"@openzeppelin/contracts/utils/ReentrancyGuard.sol\":2575:2882  function _nonReentrantBefore() private {... */\n      jump\t// out\n        /* \"@openzeppelin/contracts/token/ERC20/utils/SafeERC20.sol\":1618:1806  function safeTransferFrom(IERC20 token, address from, address to, uint256 value) internal {... */\n    tag_98:\n        /* \"@openzeppelin/contracts/token/ERC20/utils/SafeERC20.sol\":1718:1799  _callOptionalReturn(token, abi.encodeCall(token.transferFrom, (from, to, value))) */\n      tag_238\n        /* \"@openzeppelin/contracts/token/ERC20/utils/SafeERC20.sol\":1738:1743  token */\n      dup5\n        /* \"@openzeppelin/contracts/token/ERC20/utils/SafeERC20.sol\":1760:1765  token */\n      dup6\n        /* \"@openzeppelin/contracts/token/ERC20/utils/SafeERC20.sol\":1760:1778  token.transferFrom */\n      0xffffffffffffffffffffffffffffffffffffffff\n      and\n      0x23b872dd\n        /* \"@openzeppelin/contracts/token/ERC20/utils/SafeERC20.sol\":1781:1785  from */\n      dup7\n        /* \"@openzeppelin/contracts/token/ERC20/utils/SafeERC20.sol\":1787:1789  to */\n      dup7\n        /* \"@openzeppelin/contracts/token/ERC20/utils/SafeERC20.sol\":1791:1796  value */\n      dup7\n        /* \"@openzeppelin/contracts/token/ERC20/utils/SafeERC20.sol\":1745:1798  abi.encodeCall(token.transferFrom, (from, to, value)) */\n      add(0x24, mload(0x40))\n      tag_239\n      swap4\n      swap3\n      swap2\n      swap1\n      tag_240\n      jump\t// in\n    tag_239:\n      mload(0x40)\n      0x20\n      dup2\n      dup4\n      sub\n      sub\n      dup2\n      mstore\n      swap1\n      0x40\n      mstore\n      swap2\n      pop\n      0xe0\n      shl\n      0x20\n      dup3\n      add\n      dup1\n      mload\n      0xffffffffffffffffffffffffffffffffffffffffffffffffffffffff\n      dup4\n      dup2\n      dup4\n      and\n      or\n      dup4\n      mstore\n      pop\n      pop\n      pop\n      pop\n        /* \"@openzeppelin/contracts/token/ERC20/utils/SafeERC20.sol\":1718:1737  _callOptionalReturn */\n      tag_241\n        /* \"@openzeppelin/contracts/token/ERC20/utils/SafeERC20.sol\":1718:1799  _callOptionalReturn(token, abi.encodeCall(token.transferFrom, (from, to, value))) */\n      jump\t// in\n    tag_238:\n        /* \"@openzeppelin/contracts/token/ERC20/utils/SafeERC20.sol\":1618:1806  function safeTransferFrom(IERC20 token, address from, address to, uint256 value) internal {... */\n      pop\n      pop\n      pop\n      pop\n      jump\t// out\n        /* \"@openzeppelin/contracts/utils/ReentrancyGuard.sol\":2888:3096  function _nonReentrantAfter() private {... */\n    tag_108:\n        /* \"@openzeppelin/contracts/utils/ReentrancyGuard.sol\":1857:1858  1 */\n      0x01\n        /* \"@openzeppelin/contracts/utils/ReentrancyGuard.sol\":3068:3075  _status */\n      dup1\n        /* \"@openzeppelin/contracts/utils/ReentrancyGuard.sol\":3068:3089  _status = NOT_ENTERED */\n      dup2\n      swap1\n      sstore\n      pop\n        /* \"@openzeppelin/contracts/utils/ReentrancyGuard.sol\":2888:3096  function _nonReentrantAfter() private {... */\n      jump\t// out\n        /* \"@openzeppelin/contracts/access/Ownable.sol\":1796:1958  function _checkOwner() internal view virtual {... */\n    tag_160:\n        /* \"@openzeppelin/contracts/access/Ownable.sol\":1866:1878  _msgSender() */\n      tag_244\n        /* \"@openzeppelin/contracts/access/Ownable.sol\":1866:1876  _msgSender */\n      tag_245\n        /* \"@openzeppelin/contracts/access/Ownable.sol\":1866:1878  _msgSender() */\n      jump\t// in\n    tag_244:\n        /* \"@openzeppelin/contracts/access/Ownable.sol\":1855:1878  owner() != _msgSender() */\n      0xffffffffffffffffffffffffffffffffffffffff\n      and\n        /* \"@openzeppelin/contracts/access/Ownable.sol\":1855:1862  owner() */\n      tag_246\n        /* \"@openzeppelin/contracts/access/Ownable.sol\":1855:1860  owner */\n      tag_52\n        /* \"@openzeppelin/contracts/access/Ownable.sol\":1855:1862  owner() */\n      jump\t// in\n    tag_246:\n        /* \"@openzeppelin/contracts/access/Ownable.sol\":1855:1878  owner() != _msgSender() */\n      0xffffffffffffffffffffffffffffffffffffffff\n      and\n      eq\n        /* \"@openzeppelin/contracts/access/Ownable.sol\":1851:1952  if (owner() != _msgSender()) {... */\n      tag_247\n      jumpi\n        /* \"@openzeppelin/contracts/access/Ownable.sol\":1928:1940  _msgSender() */\n      tag_248\n        /* \"@openzeppelin/contracts/access/Ownable.sol\":1928:1938  _msgSender */\n      tag_245\n        /* \"@openzeppelin/contracts/access/Ownable.sol\":1928:1940  _msgSender() */\n      jump\t// in\n    tag_248:\n        /* \"@openzeppelin/contracts/access/Ownable.sol\":1901:1941  OwnableUnauthorizedAccount(_msgSender()) */\n      mload(0x40)\n      0x118cdaa700000000000000000000000000000000000000000000000000000000\n      dup2\n      mstore\n      0x04\n      add\n      tag_249\n      swap2\n      swap1\n      tag_54\n      jump\t// in\n    tag_249:\n      mload(0x40)\n      dup1\n      swap2\n      sub\n      swap1\n      revert\n        /* \"@openzeppelin/contracts/access/Ownable.sol\":1851:1952  if (owner() != _msgSender()) {... */\n    tag_247:\n        /* \"@openzeppelin/contracts/access/Ownable.sol\":1796:1958  function _checkOwner() internal view virtual {... */\n      jump\t// out\n        /* \"@openzeppelin/contracts/access/Ownable.sol\":2912:3099  function _transferOwnership(address newOwner) internal virtual {... */\n    tag_163:\n        /* \"@openzeppelin/contracts/access/Ownable.sol\":2985:3001  address oldOwner */\n      0x00\n        /* \"@openzeppelin/contracts/access/Ownable.sol\":3004:3010  _owner */\n      dup1\n      0x00\n      swap1\n      sload\n      swap1\n      0x0100\n      exp\n      swap1\n      div\n      0xffffffffffffffffffffffffffffffffffffffff\n      and\n        /* \"@openzeppelin/contracts/access/Ownable.sol\":2985:3010  address oldOwner = _owner */\n      swap1\n      pop\n        /* \"@openzeppelin/contracts/access/Ownable.sol\":3029:3037  newOwner */\n      dup2\n        /* \"@openzeppelin/contracts/access/Ownable.sol\":3020:3026  _owner */\n      0x00\n      dup1\n        /* \"@openzeppelin/contracts/access/Ownable.sol\":3020:3037  _owner = newOwner */\n      0x0100\n      exp\n      dup2\n      sload\n      dup2\n      0xffffffffffffffffffffffffffffffffffffffff\n      mul\n      not\n      and\n      swap1\n      dup4\n      0xffffffffffffffffffffffffffffffffffffffff\n      and\n      mul\n      or\n      swap1\n      sstore\n      pop\n        /* \"@openzeppelin/contracts/access/Ownable.sol\":3083:3091  newOwner */\n      dup2\n        /* \"@openzeppelin/contracts/access/Ownable.sol\":3052:3092  OwnershipTransferred(oldOwner, newOwner) */\n      0xffffffffffffffffffffffffffffffffffffffff\n      and\n        /* \"@openzeppelin/contracts/access/Ownable.sol\":3073:3081  oldOwner */\n      dup2\n        /* \"@openzeppelin/contracts/access/Ownable.sol\":3052:3092  OwnershipTransferred(oldOwner, newOwner) */\n      0xffffffffffffffffffffffffffffffffffffffff\n      and\n      0x8be0079c531659141344cd1fd0a4f28419497f9722a3daafe3b4186f6b6457e0\n      mload(0x40)\n      mload(0x40)\n      dup1\n      swap2\n      sub\n      swap1\n      log3\n        /* \"@openzeppelin/contracts/access/Ownable.sol\":2975:3099  {... */\n      pop\n        /* \"@openzeppelin/contracts/access/Ownable.sol\":2912:3099  function _transferOwnership(address newOwner) internal virtual {... */\n      pop\n      jump\t// out\n        /* \"@openzeppelin/contracts/token/ERC20/utils/SafeERC20.sol\":1219:1379  function safeTransfer(IERC20 token, address to, uint256 value) internal {... */\n    tag_211:\n        /* \"@openzeppelin/contracts/token/ERC20/utils/SafeERC20.sol\":1301:1372  _callOptionalReturn(token, abi.encodeCall(token.transfer, (to, value))) */\n      tag_252\n        /* \"@openzeppelin/contracts/token/ERC20/utils/SafeERC20.sol\":1321:1326  token */\n      dup4\n        /* \"@openzeppelin/contracts/token/ERC20/utils/SafeERC20.sol\":1343:1348  token */\n      dup5\n        /* \"@openzeppelin/contracts/token/ERC20/utils/SafeERC20.sol\":1343:1357  token.transfer */\n      0xffffffffffffffffffffffffffffffffffffffff\n      and\n      0xa9059cbb\n        /* \"@openzeppelin/contracts/token/ERC20/utils/SafeERC20.sol\":1360:1362  to */\n      dup6\n        /* \"@openzeppelin/contracts/token/ERC20/utils/SafeERC20.sol\":1364:1369  value */\n      dup6\n        /* \"@openzeppelin/contracts/token/ERC20/utils/SafeERC20.sol\":1328:1371  abi.encodeCall(token.transfer, (to, value)) */\n      add(0x24, mload(0x40))\n      tag_253\n      swap3\n      swap2\n      swap1\n      tag_254\n      jump\t// in\n    tag_253:\n      mload(0x40)\n      0x20\n      dup2\n      dup4\n      sub\n      sub\n      dup2\n      mstore\n      swap1\n      0x40\n      mstore\n      swap2\n      pop\n      0xe0\n      shl\n      0x20\n      dup3\n      add\n      dup1\n      mload\n      0xffffffffffffffffffffffffffffffffffffffffffffffffffffffff\n      dup4\n      dup2\n      dup4\n      and\n      or\n      dup4\n      mstore\n      pop\n      pop\n      pop\n      pop\n        /* \"@openzeppelin/contracts/token/ERC20/utils/SafeERC20.sol\":1301:1320  _callOptionalReturn */\n      tag_241\n        /* \"@openzeppelin/contracts/token/ERC20/utils/SafeERC20.sol\":1301:1372  _callOptionalReturn(token, abi.encodeCall(token.transfer, (to, value))) */\n      jump\t// in\n    tag_252:\n        /* \"@openzeppelin/contracts/token/ERC20/utils/SafeERC20.sol\":1219:1379  function safeTransfer(IERC20 token, address to, uint256 value) internal {... */\n      pop\n      pop\n      pop\n      jump\t// out\n        /* \"@openzeppelin/contracts/token/ERC20/utils/SafeERC20.sol\":7686:8406  function _callOptionalReturn(IERC20 token, bytes memory data) private {... */\n    tag_241:\n        /* \"@openzeppelin/contracts/token/ERC20/utils/SafeERC20.sol\":7766:7784  uint256 returnSize */\n      0x00\n        /* \"@openzeppelin/contracts/token/ERC20/utils/SafeERC20.sol\":7794:7813  uint256 returnValue */\n      dup1\n        /* \"@openzeppelin/contracts/token/ERC20/utils/SafeERC20.sol\":7932:7936  0x20 */\n      0x20\n        /* \"@openzeppelin/contracts/token/ERC20/utils/SafeERC20.sol\":7929:7930  0 */\n      0x00\n        /* \"@openzeppelin/contracts/token/ERC20/utils/SafeERC20.sol\":7922:7926  data */\n      dup5\n        /* \"@openzeppelin/contracts/token/ERC20/utils/SafeERC20.sol\":7916:7927  mload(data) */\n      mload\n        /* \"@openzeppelin/contracts/token/ERC20/utils/SafeERC20.sol\":7909:7913  0x20 */\n      0x20\n        /* \"@openzeppelin/contracts/token/ERC20/utils/SafeERC20.sol\":7903:7907  data */\n      dup7\n        /* \"@openzeppelin/contracts/token/ERC20/utils/SafeERC20.sol\":7899:7914  add(data, 0x20) */\n      add\n        /* \"@openzeppelin/contracts/token/ERC20/utils/SafeERC20.sol\":7896:7897  0 */\n      0x00\n        /* \"@openzeppelin/contracts/token/ERC20/utils/SafeERC20.sol\":7889:7894  token */\n      dup9\n        /* \"@openzeppelin/contracts/token/ERC20/utils/SafeERC20.sol\":7882:7887  gas() */\n      gas\n        /* \"@openzeppelin/contracts/token/ERC20/utils/SafeERC20.sol\":7877:7937  call(gas(), token, 0, add(data, 0x20), mload(data), 0, 0x20) */\n      call\n        /* \"@openzeppelin/contracts/token/ERC20/utils/SafeERC20.sol\":7989:7996  success */\n      dup1\n        /* \"@openzeppelin/contracts/token/ERC20/utils/SafeERC20.sol\":7979:8155  if iszero(success) {... */\n      tag_256\n      jumpi\n        /* \"@openzeppelin/contracts/token/ERC20/utils/SafeERC20.sol\":8033:8037  0x40 */\n      0x40\n        /* \"@openzeppelin/contracts/token/ERC20/utils/SafeERC20.sol\":8027:8038  mload(0x40) */\n      mload\n        /* \"@openzeppelin/contracts/token/ERC20/utils/SafeERC20.sol\":8078:8094  returndatasize() */\n      returndatasize\n        /* \"@openzeppelin/contracts/token/ERC20/utils/SafeERC20.sol\":8075:8076  0 */\n      0x00\n        /* \"@openzeppelin/contracts/token/ERC20/utils/SafeERC20.sol\":8070:8073  ptr */\n      dup3\n        /* \"@openzeppelin/contracts/token/ERC20/utils/SafeERC20.sol\":8055:8095  returndatacopy(ptr, 0, returndatasize()) */\n      returndatacopy\n        /* \"@openzeppelin/contracts/token/ERC20/utils/SafeERC20.sol\":8124:8140  returndatasize() */\n      returndatasize\n        /* \"@openzeppelin/contracts/token/ERC20/utils/SafeERC20.sol\":8119:8122  ptr */\n      dup2\n        /* \"@openzeppelin/contracts/token/ERC20/utils/SafeERC20.sol\":8112:8141  revert(ptr, returndatasize()) */\n      revert\n        /* \"@openzeppelin/contracts/token/ERC20/utils/SafeERC20.sol\":7979:8155  if iszero(success) {... */\n    tag_256:\n        /* \"@openzeppelin/contracts/token/ERC20/utils/SafeERC20.sol\":8182:8198  returndatasize() */\n      returndatasize\n        /* \"@openzeppelin/contracts/token/ERC20/utils/SafeERC20.sol\":8168:8198  returnSize := returndatasize() */\n      swap3\n      pop\n        /* \"@openzeppelin/contracts/token/ERC20/utils/SafeERC20.sol\":8232:8233  0 */\n      0x00\n        /* \"@openzeppelin/contracts/token/ERC20/utils/SafeERC20.sol\":8226:8234  mload(0) */\n      mload\n        /* \"@openzeppelin/contracts/token/ERC20/utils/SafeERC20.sol\":8211:8234  returnValue := mload(0) */\n      swap2\n      pop\n        /* \"@openzeppelin/contracts/token/ERC20/utils/SafeERC20.sol\":7848:8244  {... */\n      pop\n        /* \"@openzeppelin/contracts/token/ERC20/utils/SafeERC20.sol\":8272:8273  0 */\n      0x00\n        /* \"@openzeppelin/contracts/token/ERC20/utils/SafeERC20.sol\":8258:8268  returnSize */\n      dup3\n        /* \"@openzeppelin/contracts/token/ERC20/utils/SafeERC20.sol\":8258:8273  returnSize == 0 */\n      eq\n        /* \"@openzeppelin/contracts/token/ERC20/utils/SafeERC20.sol\":8258:8326  returnSize == 0 ? address(token).code.length == 0 : returnValue != 1 */\n      tag_257\n      jumpi\n        /* \"@openzeppelin/contracts/token/ERC20/utils/SafeERC20.sol\":8325:8326  1 */\n      0x01\n        /* \"@openzeppelin/contracts/token/ERC20/utils/SafeERC20.sol\":8310:8321  returnValue */\n      dup2\n        /* \"@openzeppelin/contracts/token/ERC20/utils/SafeERC20.sol\":8310:8326  returnValue != 1 */\n      eq\n      iszero\n        /* \"@openzeppelin/contracts/token/ERC20/utils/SafeERC20.sol\":8258:8326  returnSize == 0 ? address(token).code.length == 0 : returnValue != 1 */\n      jump(tag_258)\n    tag_257:\n        /* \"@openzeppelin/contracts/token/ERC20/utils/SafeERC20.sol\":8306:8307  0 */\n      0x00\n        /* \"@openzeppelin/contracts/token/ERC20/utils/SafeERC20.sol\":8284:8289  token */\n      dup5\n        /* \"@openzeppelin/contracts/token/ERC20/utils/SafeERC20.sol\":8276:8302  address(token).code.length */\n      0xffffffffffffffffffffffffffffffffffffffff\n      and\n      extcodesize\n        /* \"@openzeppelin/contracts/token/ERC20/utils/SafeERC20.sol\":8276:8307  address(token).code.length == 0 */\n      eq\n        /* \"@openzeppelin/contracts/token/ERC20/utils/SafeERC20.sol\":8258:8326  returnSize == 0 ? address(token).code.length == 0 : returnValue != 1 */\n    tag_258:\n        /* \"@openzeppelin/contracts/token/ERC20/utils/SafeERC20.sol\":8254:8400  if (returnSize == 0 ? address(token).code.length == 0 : returnValue != 1) {... */\n      iszero\n      tag_259\n      jumpi\n        /* \"@openzeppelin/contracts/token/ERC20/utils/SafeERC20.sol\":8382:8387  token */\n      dup4\n        /* \"@openzeppelin/contracts/token/ERC20/utils/SafeERC20.sol\":8349:8389  SafeERC20FailedOperation(address(token)) */\n      mload(0x40)\n      0x5274afe700000000000000000000000000000000000000000000000000000000\n      dup2\n      mstore\n      0x04\n      add\n      tag_260\n      swap2\n      swap1\n      tag_54\n      jump\t// in\n    tag_260:\n      mload(0x40)\n      dup1\n      swap2\n      sub\n      swap1\n      revert\n        /* \"@openzeppelin/contracts/token/ERC20/utils/SafeERC20.sol\":8254:8400  if (returnSize == 0 ? address(token).code.length == 0 : returnValue != 1) {... */\n    tag_259:\n        /* \"@openzeppelin/contracts/token/ERC20/utils/SafeERC20.sol\":7756:8406  {... */\n      pop\n      pop\n        /* \"@openzeppelin/contracts/token/ERC20/utils/SafeERC20.sol\":7686:8406  function _callOptionalReturn(IERC20 token, bytes memory data) private {... */\n      pop\n      pop\n      jump\t// out\n        /* \"@openzeppelin/contracts/utils/Context.sol\":656:752  function _msgSender() internal view virtual returns (address) {... */\n    tag_245:\n        /* \"@openzeppelin/contracts/utils/Context.sol\":709:716  address */\n      0x00\n        /* \"@openzeppelin/contracts/utils/Context.sol\":735:745  msg.sender */\n      caller\n        /* \"@openzeppelin/contracts/utils/Context.sol\":728:745  return msg.sender */\n      swap1\n      pop\n        /* \"@openzeppelin/contracts/utils/Context.sol\":656:752  function _msgSender() internal view virtual returns (address) {... */\n      swap1\n      jump\t// out\n        /* \"#utility.yul\":7:82   */\n    tag_262:\n        /* \"#utility.yul\":40:46   */\n      0x00\n        /* \"#utility.yul\":73:75   */\n      0x40\n        /* \"#utility.yul\":67:76   */\n      mload\n        /* \"#utility.yul\":57:76   */\n      swap1\n      pop\n        /* \"#utility.yul\":7:82   */\n      swap1\n      jump\t// out\n        /* \"#utility.yul\":88:205   */\n    tag_263:\n        /* \"#utility.yul\":197:198   */\n      0x00\n        /* \"#utility.yul\":194:195   */\n      dup1\n        /* \"#utility.yul\":187:199   */\n      revert\n        /* \"#utility.yul\":211:328   */\n    tag_264:\n        /* \"#utility.yul\":320:321   */\n      0x00\n        /* \"#utility.yul\":317:318   */\n      dup1\n        /* \"#utility.yul\":310:322   */\n      revert\n        /* \"#utility.yul\":334:460   */\n    tag_265:\n        /* \"#utility.yul\":371:378   */\n      0x00\n        /* \"#utility.yul\":411:453   */\n      0xffffffffffffffffffffffffffffffffffffffff\n        /* \"#utility.yul\":404:409   */\n      dup3\n        /* \"#utility.yul\":400:454   */\n      and\n        /* \"#utility.yul\":389:454   */\n      swap1\n      pop\n        /* \"#utility.yul\":334:460   */\n      swap2\n      swap1\n      pop\n      jump\t// out\n        /* \"#utility.yul\":466:562   */\n    tag_266:\n        /* \"#utility.yul\":503:510   */\n      0x00\n        /* \"#utility.yul\":532:556   */\n      tag_364\n        /* \"#utility.yul\":550:555   */\n      dup3\n        /* \"#utility.yul\":532:556   */\n      tag_265\n      jump\t// in\n    tag_364:\n        /* \"#utility.yul\":521:556   */\n      swap1\n      pop\n        /* \"#utility.yul\":466:562   */\n      swap2\n      swap1\n      pop\n      jump\t// out\n        /* \"#utility.yul\":568:678   */\n    tag_267:\n        /* \"#utility.yul\":619:626   */\n      0x00\n        /* \"#utility.yul\":648:672   */\n      tag_366\n        /* \"#utility.yul\":666:671   */\n      dup3\n        /* \"#utility.yul\":648:672   */\n      tag_266\n      jump\t// in\n    tag_366:\n        /* \"#utility.yul\":637:672   */\n      swap1\n      pop\n        /* \"#utility.yul\":568:678   */\n      swap2\n      swap1\n      pop\n      jump\t// out\n        /* \"#utility.yul\":684:834   */\n    tag_268:\n        /* \"#utility.yul\":771:809   */\n      tag_368\n        /* \"#utility.yul\":803:808   */\n      dup2\n        /* \"#utility.yul\":771:809   */\n      tag_267\n      jump\t// in\n    tag_368:\n        /* \"#utility.yul\":764:769   */\n      dup2\n        /* \"#utility.yul\":761:810   */\n      eq\n        /* \"#utility.yul\":751:828   */\n      tag_369\n      jumpi\n        /* \"#utility.yul\":824:825   */\n      0x00\n        /* \"#utility.yul\":821:822   */\n      dup1\n        /* \"#utility.yul\":814:826   */\n      revert\n        /* \"#utility.yul\":751:828   */\n    tag_369:\n        /* \"#utility.yul\":684:834   */\n      pop\n      jump\t// out\n        /* \"#utility.yul\":840:1007   */\n    tag_269:\n        /* \"#utility.yul\":900:905   */\n      0x00\n        /* \"#utility.yul\":938:944   */\n      dup2\n        /* \"#utility.yul\":925:945   */\n      calldataload\n        /* \"#utility.yul\":916:945   */\n      swap1\n      pop\n        /* \"#utility.yul\":954:1001   */\n      tag_371\n        /* \"#utility.yul\":995:1000   */\n      dup2\n        /* \"#utility.yul\":954:1001   */\n      tag_268\n      jump\t// in\n    tag_371:\n        /* \"#utility.yul\":840:1007   */\n      swap3\n      swap2\n      pop\n      pop\n      jump\t// out\n        /* \"#utility.yul\":1013:1090   */\n    tag_270:\n        /* \"#utility.yul\":1050:1057   */\n      0x00\n        /* \"#utility.yul\":1079:1084   */\n      dup2\n        /* \"#utility.yul\":1068:1084   */\n      swap1\n      pop\n        /* \"#utility.yul\":1013:1090   */\n      swap2\n      swap1\n      pop\n      jump\t// out\n        /* \"#utility.yul\":1096:1218   */\n    tag_271:\n        /* \"#utility.yul\":1169:1193   */\n      tag_374\n        /* \"#utility.yul\":1187:1192   */\n      dup2\n        /* \"#utility.yul\":1169:1193   */\n      tag_270\n      jump\t// in\n    tag_374:\n        /* \"#utility.yul\":1162:1167   */\n      dup2\n        /* \"#utility.yul\":1159:1194   */\n      eq\n        /* \"#utility.yul\":1149:1212   */\n      tag_375\n      jumpi\n        /* \"#utility.yul\":1208:1209   */\n      0x00\n        /* \"#utility.yul\":1205:1206   */\n      dup1\n        /* \"#utility.yul\":1198:1210   */\n      revert\n        /* \"#utility.yul\":1149:1212   */\n    tag_375:\n        /* \"#utility.yul\":1096:1218   */\n      pop\n      jump\t// out\n        /* \"#utility.yul\":1224:1363   */\n    tag_272:\n        /* \"#utility.yul\":1270:1275   */\n      0x00\n        /* \"#utility.yul\":1308:1314   */\n      dup2\n        /* \"#utility.yul\":1295:1315   */\n      calldataload\n        /* \"#utility.yul\":1286:1315   */\n      swap1\n      pop\n        /* \"#utility.yul\":1324:1357   */\n      tag_377\n        /* \"#utility.yul\":1351:1356   */\n      dup2\n        /* \"#utility.yul\":1324:1357   */\n      tag_271\n      jump\t// in\n    tag_377:\n        /* \"#utility.yul\":1224:1363   */\n      swap3\n      swap2\n      pop\n      pop\n      jump\t// out\n        /* \"#utility.yul\":1369:1455   */\n    tag_273:\n        /* \"#utility.yul\":1404:1411   */\n      0x00\n        /* \"#utility.yul\":1444:1448   */\n      0xff\n        /* \"#utility.yul\":1437:1442   */\n      dup3\n        /* \"#utility.yul\":1433:1449   */\n      and\n        /* \"#utility.yul\":1422:1449   */\n      swap1\n      pop\n        /* \"#utility.yul\":1369:1455   */\n      swap2\n      swap1\n      pop\n      jump\t// out\n        /* \"#utility.yul\":1461:1579   */\n    tag_274:\n        /* \"#utility.yul\":1532:1554   */\n      tag_380\n        /* \"#utility.yul\":1548:1553   */\n      dup2\n        /* \"#utility.yul\":1532:1554   */\n      tag_273\n      jump\t// in\n    tag_380:\n        /* \"#utility.yul\":1525:1530   */\n      dup2\n        /* \"#utility.yul\":1522:1555   */\n      eq\n        /* \"#utility.yul\":1512:1573   */\n      tag_381\n      jumpi\n        /* \"#utility.yul\":1569:1570   */\n      0x00\n        /* \"#utility.yul\":1566:1567   */\n      dup1\n        /* \"#utility.yul\":1559:1571   */\n      revert\n        /* \"#utility.yul\":1512:1573   */\n    tag_381:\n        /* \"#utility.yul\":1461:1579   */\n      pop\n      jump\t// out\n        /* \"#utility.yul\":1585:1720   */\n    tag_275:\n        /* \"#utility.yul\":1629:1634   */\n      0x00\n        /* \"#utility.yul\":1667:1673   */\n      dup2\n        /* \"#utility.yul\":1654:1674   */\n      calldataload\n        /* \"#utility.yul\":1645:1674   */\n      swap1\n      pop\n        /* \"#utility.yul\":1683:1714   */\n      tag_383\n        /* \"#utility.yul\":1708:1713   */\n      dup2\n        /* \"#utility.yul\":1683:1714   */\n      tag_274\n      jump\t// in\n    tag_383:\n        /* \"#utility.yul\":1585:1720   */\n      swap3\n      swap2\n      pop\n      pop\n      jump\t// out\n        /* \"#utility.yul\":1726:1843   */\n    tag_276:\n        /* \"#utility.yul\":1835:1836   */\n      0x00\n        /* \"#utility.yul\":1832:1833   */\n      dup1\n        /* \"#utility.yul\":1825:1837   */\n      revert\n        /* \"#utility.yul\":1849:1966   */\n    tag_277:\n        /* \"#utility.yul\":1958:1959   */\n      0x00\n        /* \"#utility.yul\":1955:1956   */\n      dup1\n        /* \"#utility.yul\":1948:1960   */\n      revert\n        /* \"#utility.yul\":1972:2074   */\n    tag_278:\n        /* \"#utility.yul\":2013:2019   */\n      0x00\n        /* \"#utility.yul\":2064:2066   */\n      0x1f\n        /* \"#utility.yul\":2060:2067   */\n      not\n        /* \"#utility.yul\":2055:2057   */\n      0x1f\n        /* \"#utility.yul\":2048:2053   */\n      dup4\n        /* \"#utility.yul\":2044:2058   */\n      add\n        /* \"#utility.yul\":2040:2068   */\n      and\n        /* \"#utility.yul\":2030:2068   */\n      swap1\n      pop\n        /* \"#utility.yul\":1972:2074   */\n      swap2\n      swap1\n      pop\n      jump\t// out\n        /* \"#utility.yul\":2080:2260   */\n    tag_279:\n        /* \"#utility.yul\":2128:2205   */\n      0x4e487b7100000000000000000000000000000000000000000000000000000000\n        /* \"#utility.yul\":2125:2126   */\n      0x00\n        /* \"#utility.yul\":2118:2206   */\n      mstore\n        /* \"#utility.yul\":2225:2229   */\n      0x41\n        /* \"#utility.yul\":2222:2223   */\n      0x04\n        /* \"#utility.yul\":2215:2230   */\n      mstore\n        /* \"#utility.yul\":2249:2253   */\n      0x24\n        /* \"#utility.yul\":2246:2247   */\n      0x00\n        /* \"#utility.yul\":2239:2254   */\n      revert\n        /* \"#utility.yul\":2266:2547   */\n    tag_280:\n        /* \"#utility.yul\":2349:2376   */\n      tag_389\n        /* \"#utility.yul\":2371:2375   */\n      dup3\n        /* \"#utility.yul\":2349:2376   */\n      tag_278\n      jump\t// in\n    tag_389:\n        /* \"#utility.yul\":2341:2347   */\n      dup2\n        /* \"#utility.yul\":2337:2377   */\n      add\n        /* \"#utility.yul\":2479:2485   */\n      dup2\n        /* \"#utility.yul\":2467:2477   */\n      dup2\n        /* \"#utility.yul\":2464:2486   */\n      lt\n        /* \"#utility.yul\":2443:2461   */\n      0xffffffffffffffff\n        /* \"#utility.yul\":2431:2441   */\n      dup3\n        /* \"#utility.yul\":2428:2462   */\n      gt\n        /* \"#utility.yul\":2425:2487   */\n      or\n        /* \"#utility.yul\":2422:2510   */\n      iszero\n      tag_390\n      jumpi\n        /* \"#utility.yul\":2490:2508   */\n      tag_391\n      tag_279\n      jump\t// in\n    tag_391:\n        /* \"#utility.yul\":2422:2510   */\n    tag_390:\n        /* \"#utility.yul\":2530:2540   */\n      dup1\n        /* \"#utility.yul\":2526:2528   */\n      0x40\n        /* \"#utility.yul\":2519:2541   */\n      mstore\n        /* \"#utility.yul\":2309:2547   */\n      pop\n        /* \"#utility.yul\":2266:2547   */\n      pop\n      pop\n      jump\t// out\n        /* \"#utility.yul\":2553:2682   */\n    tag_281:\n        /* \"#utility.yul\":2587:2593   */\n      0x00\n        /* \"#utility.yul\":2614:2634   */\n      tag_393\n      tag_262\n      jump\t// in\n    tag_393:\n        /* \"#utility.yul\":2604:2634   */\n      swap1\n      pop\n        /* \"#utility.yul\":2643:2676   */\n      tag_394\n        /* \"#utility.yul\":2671:2675   */\n      dup3\n        /* \"#utility.yul\":2663:2669   */\n      dup3\n        /* \"#utility.yul\":2643:2676   */\n      tag_280\n      jump\t// in\n    tag_394:\n        /* \"#utility.yul\":2553:2682   */\n      swap2\n      swap1\n      pop\n      jump\t// out\n        /* \"#utility.yul\":2688:2996   */\n    tag_282:\n        /* \"#utility.yul\":2750:2754   */\n      0x00\n        /* \"#utility.yul\":2840:2858   */\n      0xffffffffffffffff\n        /* \"#utility.yul\":2832:2838   */\n      dup3\n        /* \"#utility.yul\":2829:2859   */\n      gt\n        /* \"#utility.yul\":2826:2882   */\n      iszero\n      tag_396\n      jumpi\n        /* \"#utility.yul\":2862:2880   */\n      tag_397\n      tag_279\n      jump\t// in\n    tag_397:\n        /* \"#utility.yul\":2826:2882   */\n    tag_396:\n        /* \"#utility.yul\":2900:2929   */\n      tag_398\n        /* \"#utility.yul\":2922:2928   */\n      dup3\n        /* \"#utility.yul\":2900:2929   */\n      tag_278\n      jump\t// in\n    tag_398:\n        /* \"#utility.yul\":2892:2929   */\n      swap1\n      pop\n        /* \"#utility.yul\":2984:2988   */\n      0x20\n        /* \"#utility.yul\":2978:2982   */\n      dup2\n        /* \"#utility.yul\":2974:2989   */\n      add\n        /* \"#utility.yul\":2966:2989   */\n      swap1\n      pop\n        /* \"#utility.yul\":2688:2996   */\n      swap2\n      swap1\n      pop\n      jump\t// out\n        /* \"#utility.yul\":3002:3150   */\n    tag_283:\n        /* \"#utility.yul\":3100:3106   */\n      dup3\n        /* \"#utility.yul\":3095:3098   */\n      dup2\n        /* \"#utility.yul\":3090:3093   */\n      dup4\n        /* \"#utility.yul\":3077:3107   */\n      calldatacopy\n        /* \"#utility.yul\":3141:3142   */\n      0x00\n        /* \"#utility.yul\":3132:3138   */\n      dup4\n        /* \"#utility.yul\":3127:3130   */\n      dup4\n        /* \"#utility.yul\":3123:3139   */\n      add\n        /* \"#utility.yul\":3116:3143   */\n      mstore\n        /* \"#utility.yul\":3002:3150   */\n      pop\n      pop\n      pop\n      jump\t// out\n        /* \"#utility.yul\":3156:3581   */\n    tag_284:\n        /* \"#utility.yul\":3234:3239   */\n      0x00\n        /* \"#utility.yul\":3259:3325   */\n      tag_401\n        /* \"#utility.yul\":3275:3324   */\n      tag_402\n        /* \"#utility.yul\":3317:3323   */\n      dup5\n        /* \"#utility.yul\":3275:3324   */\n      tag_282\n      jump\t// in\n    tag_402:\n        /* \"#utility.yul\":3259:3325   */\n      tag_281\n      jump\t// in\n    tag_401:\n        /* \"#utility.yul\":3250:3325   */\n      swap1\n      pop\n        /* \"#utility.yul\":3348:3354   */\n      dup3\n        /* \"#utility.yul\":3341:3346   */\n      dup2\n        /* \"#utility.yul\":3334:3355   */\n      mstore\n        /* \"#utility.yul\":3386:3390   */\n      0x20\n        /* \"#utility.yul\":3379:3384   */\n      dup2\n        /* \"#utility.yul\":3375:3391   */\n      add\n        /* \"#utility.yul\":3424:3427   */\n      dup5\n        /* \"#utility.yul\":3415:3421   */\n      dup5\n        /* \"#utility.yul\":3410:3413   */\n      dup5\n        /* \"#utility.yul\":3406:3422   */\n      add\n        /* \"#utility.yul\":3403:3428   */\n      gt\n        /* \"#utility.yul\":3400:3512   */\n      iszero\n      tag_403\n      jumpi\n        /* \"#utility.yul\":3431:3510   */\n      tag_404\n      tag_277\n      jump\t// in\n    tag_404:\n        /* \"#utility.yul\":3400:3512   */\n    tag_403:\n        /* \"#utility.yul\":3521:3575   */\n      tag_405\n        /* \"#utility.yul\":3568:3574   */\n      dup5\n        /* \"#utility.yul\":3563:3566   */\n      dup3\n        /* \"#utility.yul\":3558:3561   */\n      dup6\n        /* \"#utility.yul\":3521:3575   */\n      tag_283\n      jump\t// in\n    tag_405:\n        /* \"#utility.yul\":3240:3581   */\n      pop\n        /* \"#utility.yul\":3156:3581   */\n      swap4\n      swap3\n      pop\n      pop\n      pop\n      jump\t// out\n        /* \"#utility.yul\":3601:3941   */\n    tag_285:\n        /* \"#utility.yul\":3657:3662   */\n      0x00\n        /* \"#utility.yul\":3706:3709   */\n      dup3\n        /* \"#utility.yul\":3699:3703   */\n      0x1f\n        /* \"#utility.yul\":3691:3697   */\n      dup4\n        /* \"#utility.yul\":3687:3704   */\n      add\n        /* \"#utility.yul\":3683:3710   */\n      slt\n        /* \"#utility.yul\":3673:3795   */\n      tag_407\n      jumpi\n        /* \"#utility.yul\":3714:3793   */\n      tag_408\n      tag_276\n      jump\t// in\n    tag_408:\n        /* \"#utility.yul\":3673:3795   */\n    tag_407:\n        /* \"#utility.yul\":3831:3837   */\n      dup2\n        /* \"#utility.yul\":3818:3838   */\n      calldataload\n        /* \"#utility.yul\":3856:3935   */\n      tag_409\n        /* \"#utility.yul\":3931:3934   */\n      dup5\n        /* \"#utility.yul\":3923:3929   */\n      dup3\n        /* \"#utility.yul\":3916:3920   */\n      0x20\n        /* \"#utility.yul\":3908:3914   */\n      dup7\n        /* \"#utility.yul\":3904:3921   */\n      add\n        /* \"#utility.yul\":3856:3935   */\n      tag_284\n      jump\t// in\n    tag_409:\n        /* \"#utility.yul\":3847:3935   */\n      swap2\n      pop\n        /* \"#utility.yul\":3663:3941   */\n      pop\n        /* \"#utility.yul\":3601:3941   */\n      swap3\n      swap2\n      pop\n      pop\n      jump\t// out\n        /* \"#utility.yul\":3947:5062   */\n    tag_18:\n        /* \"#utility.yul\":4064:4070   */\n      0x00\n        /* \"#utility.yul\":4072:4078   */\n      dup1\n        /* \"#utility.yul\":4080:4086   */\n      0x00\n        /* \"#utility.yul\":4088:4094   */\n      dup1\n        /* \"#utility.yul\":4096:4102   */\n      0x00\n        /* \"#utility.yul\":4145:4148   */\n      0xa0\n        /* \"#utility.yul\":4133:4142   */\n      dup7\n        /* \"#utility.yul\":4124:4131   */\n      dup9\n        /* \"#utility.yul\":4120:4143   */\n      sub\n        /* \"#utility.yul\":4116:4149   */\n      slt\n        /* \"#utility.yul\":4113:4233   */\n      iszero\n      tag_411\n      jumpi\n        /* \"#utility.yul\":4152:4231   */\n      tag_412\n      tag_263\n      jump\t// in\n    tag_412:\n        /* \"#utility.yul\":4113:4233   */\n    tag_411:\n        /* \"#utility.yul\":4272:4273   */\n      0x00\n        /* \"#utility.yul\":4297:4364   */\n      tag_413\n        /* \"#utility.yul\":4356:4363   */\n      dup9\n        /* \"#utility.yul\":4347:4353   */\n      dup3\n        /* \"#utility.yul\":4336:4345   */\n      dup10\n        /* \"#utility.yul\":4332:4354   */\n      add\n        /* \"#utility.yul\":4297:4364   */\n      tag_269\n      jump\t// in\n    tag_413:\n        /* \"#utility.yul\":4287:4364   */\n      swap6\n      pop\n        /* \"#utility.yul\":4243:4374   */\n      pop\n        /* \"#utility.yul\":4413:4415   */\n      0x20\n        /* \"#utility.yul\":4439:4492   */\n      tag_414\n        /* \"#utility.yul\":4484:4491   */\n      dup9\n        /* \"#utility.yul\":4475:4481   */\n      dup3\n        /* \"#utility.yul\":4464:4473   */\n      dup10\n        /* \"#utility.yul\":4460:4482   */\n      add\n        /* \"#utility.yul\":4439:4492   */\n      tag_272\n      jump\t// in\n    tag_414:\n        /* \"#utility.yul\":4429:4492   */\n      swap5\n      pop\n        /* \"#utility.yul\":4384:4502   */\n      pop\n        /* \"#utility.yul\":4541:4543   */\n      0x40\n        /* \"#utility.yul\":4567:4618   */\n      tag_415\n        /* \"#utility.yul\":4610:4617   */\n      dup9\n        /* \"#utility.yul\":4601:4607   */\n      dup3\n        /* \"#utility.yul\":4590:4599   */\n      dup10\n        /* \"#utility.yul\":4586:4608   */\n      add\n        /* \"#utility.yul\":4567:4618   */\n      tag_275\n      jump\t// in\n    tag_415:\n        /* \"#utility.yul\":4557:4618   */\n      swap4\n      pop\n        /* \"#utility.yul\":4512:4628   */\n      pop\n        /* \"#utility.yul\":4667:4669   */\n      0x60\n        /* \"#utility.yul\":4693:4746   */\n      tag_416\n        /* \"#utility.yul\":4738:4745   */\n      dup9\n        /* \"#utility.yul\":4729:4735   */\n      dup3\n        /* \"#utility.yul\":4718:4727   */\n      dup10\n        /* \"#utility.yul\":4714:4736   */\n      add\n        /* \"#utility.yul\":4693:4746   */\n      tag_272\n      jump\t// in\n    tag_416:\n        /* \"#utility.yul\":4683:4746   */\n      swap3\n      pop\n        /* \"#utility.yul\":4638:4756   */\n      pop\n        /* \"#utility.yul\":4823:4826   */\n      0x80\n        /* \"#utility.yul\":4812:4821   */\n      dup7\n        /* \"#utility.yul\":4808:4827   */\n      add\n        /* \"#utility.yul\":4795:4828   */\n      calldataload\n        /* \"#utility.yul\":4855:4873   */\n      0xffffffffffffffff\n        /* \"#utility.yul\":4847:4853   */\n      dup2\n        /* \"#utility.yul\":4844:4874   */\n      gt\n        /* \"#utility.yul\":4841:4958   */\n      iszero\n      tag_417\n      jumpi\n        /* \"#utility.yul\":4877:4956   */\n      tag_418\n      tag_264\n      jump\t// in\n    tag_418:\n        /* \"#utility.yul\":4841:4958   */\n    tag_417:\n        /* \"#utility.yul\":4982:5045   */\n      tag_419\n        /* \"#utility.yul\":5037:5044   */\n      dup9\n        /* \"#utility.yul\":5028:5034   */\n      dup3\n        /* \"#utility.yul\":5017:5026   */\n      dup10\n        /* \"#utility.yul\":5013:5035   */\n      add\n        /* \"#utility.yul\":4982:5045   */\n      tag_285\n      jump\t// in\n    tag_419:\n        /* \"#utility.yul\":4972:5045   */\n      swap2\n      pop\n        /* \"#utility.yul\":4766:5055   */\n      pop\n        /* \"#utility.yul\":3947:5062   */\n      swap3\n      swap6\n      pop\n      swap3\n      swap6\n      swap1\n      swap4\n      pop\n      jump\t// out\n        /* \"#utility.yul\":5068:5863   */\n    tag_22:\n        /* \"#utility.yul\":5153:5159   */\n      0x00\n        /* \"#utility.yul\":5161:5167   */\n      dup1\n        /* \"#utility.yul\":5169:5175   */\n      0x00\n        /* \"#utility.yul\":5218:5220   */\n      0x60\n        /* \"#utility.yul\":5206:5215   */\n      dup5\n        /* \"#utility.yul\":5197:5204   */\n      dup7\n        /* \"#utility.yul\":5193:5216   */\n      sub\n        /* \"#utility.yul\":5189:5221   */\n      slt\n        /* \"#utility.yul\":5186:5305   */\n      iszero\n      tag_421\n      jumpi\n        /* \"#utility.yul\":5224:5303   */\n      tag_422\n      tag_263\n      jump\t// in\n    tag_422:\n        /* \"#utility.yul\":5186:5305   */\n    tag_421:\n        /* \"#utility.yul\":5344:5345   */\n      0x00\n        /* \"#utility.yul\":5369:5420   */\n      tag_423\n        /* \"#utility.yul\":5412:5419   */\n      dup7\n        /* \"#utility.yul\":5403:5409   */\n      dup3\n        /* \"#utility.yul\":5392:5401   */\n      dup8\n        /* \"#utility.yul\":5388:5410   */\n      add\n        /* \"#utility.yul\":5369:5420   */\n      tag_275\n      jump\t// in\n    tag_423:\n        /* \"#utility.yul\":5359:5420   */\n      swap4\n      pop\n        /* \"#utility.yul\":5315:5430   */\n      pop\n        /* \"#utility.yul\":5469:5471   */\n      0x20\n        /* \"#utility.yul\":5495:5548   */\n      tag_424\n        /* \"#utility.yul\":5540:5547   */\n      dup7\n        /* \"#utility.yul\":5531:5537   */\n      dup3\n        /* \"#utility.yul\":5520:5529   */\n      dup8\n        /* \"#utility.yul\":5516:5538   */\n      add\n        /* \"#utility.yul\":5495:5548   */\n      tag_272\n      jump\t// in\n    tag_424:\n        /* \"#utility.yul\":5485:5548   */\n      swap3\n      pop\n        /* \"#utility.yul\":5440:5558   */\n      pop\n        /* \"#utility.yul\":5625:5627   */\n      0x40\n        /* \"#utility.yul\":5614:5623   */\n      dup5\n        /* \"#utility.yul\":5610:5628   */\n      add\n        /* \"#utility.yul\":5597:5629   */\n      calldataload\n        /* \"#utility.yul\":5656:5674   */\n      0xffffffffffffffff\n        /* \"#utility.yul\":5648:5654   */\n      dup2\n        /* \"#utility.yul\":5645:5675   */\n      gt\n        /* \"#utility.yul\":5642:5759   */\n      iszero\n      tag_425\n      jumpi\n        /* \"#utility.yul\":5678:5757   */\n      tag_426\n      tag_264\n      jump\t// in\n    tag_426:\n        /* \"#utility.yul\":5642:5759   */\n    tag_425:\n        /* \"#utility.yul\":5783:5846   */\n      tag_427\n        /* \"#utility.yul\":5838:5845   */\n      dup7\n        /* \"#utility.yul\":5829:5835   */\n      dup3\n        /* \"#utility.yul\":5818:5827   */\n      dup8\n        /* \"#utility.yul\":5814:5836   */\n      add\n        /* \"#utility.yul\":5783:5846   */\n      tag_285\n      jump\t// in\n    tag_427:\n        /* \"#utility.yul\":5773:5846   */\n      swap2\n      pop\n        /* \"#utility.yul\":5568:5856   */\n      pop\n        /* \"#utility.yul\":5068:5863   */\n      swap3\n      pop\n      swap3\n      pop\n      swap3\n      jump\t// out\n        /* \"#utility.yul\":5869:6226   */\n    tag_27:\n        /* \"#utility.yul\":5942:5948   */\n      0x00\n        /* \"#utility.yul\":5991:5993   */\n      0x20\n        /* \"#utility.yul\":5979:5988   */\n      dup3\n        /* \"#utility.yul\":5970:5977   */\n      dup5\n        /* \"#utility.yul\":5966:5989   */\n      sub\n        /* \"#utility.yul\":5962:5994   */\n      slt\n        /* \"#utility.yul\":5959:6078   */\n      iszero\n      tag_429\n      jumpi\n        /* \"#utility.yul\":5997:6076   */\n      tag_430\n      tag_263\n      jump\t// in\n    tag_430:\n        /* \"#utility.yul\":5959:6078   */\n    tag_429:\n        /* \"#utility.yul\":6117:6118   */\n      0x00\n        /* \"#utility.yul\":6142:6209   */\n      tag_431\n        /* \"#utility.yul\":6201:6208   */\n      dup5\n        /* \"#utility.yul\":6192:6198   */\n      dup3\n        /* \"#utility.yul\":6181:6190   */\n      dup6\n        /* \"#utility.yul\":6177:6199   */\n      add\n        /* \"#utility.yul\":6142:6209   */\n      tag_269\n      jump\t// in\n    tag_431:\n        /* \"#utility.yul\":6132:6209   */\n      swap2\n      pop\n        /* \"#utility.yul\":6088:6219   */\n      pop\n        /* \"#utility.yul\":5869:6226   */\n      swap3\n      swap2\n      pop\n      pop\n      jump\t// out\n        /* \"#utility.yul\":6232:6350   */\n    tag_286:\n        /* \"#utility.yul\":6319:6343   */\n      tag_433\n        /* \"#utility.yul\":6337:6342   */\n      dup2\n        /* \"#utility.yul\":6319:6343   */\n      tag_270\n      jump\t// in\n    tag_433:\n        /* \"#utility.yul\":6314:6317   */\n      dup3\n        /* \"#utility.yul\":6307:6344   */\n      mstore\n        /* \"#utility.yul\":6232:6350   */\n      pop\n      pop\n      jump\t// out\n        /* \"#utility.yul\":6356:6578   */\n    tag_30:\n        /* \"#utility.yul\":6449:6453   */\n      0x00\n        /* \"#utility.yul\":6487:6489   */\n      0x20\n        /* \"#utility.yul\":6476:6485   */\n      dup3\n        /* \"#utility.yul\":6472:6490   */\n      add\n        /* \"#utility.yul\":6464:6490   */\n      swap1\n      pop\n        /* \"#utility.yul\":6500:6571   */\n      tag_435\n        /* \"#utility.yul\":6568:6569   */\n      0x00\n        /* \"#utility.yul\":6557:6566   */\n      dup4\n        /* \"#utility.yul\":6553:6570   */\n      add\n        /* \"#utility.yul\":6544:6550   */\n      dup5\n        /* \"#utility.yul\":6500:6571   */\n      tag_286\n      jump\t// in\n    tag_435:\n        /* \"#utility.yul\":6356:6578   */\n      swap3\n      swap2\n      pop\n      pop\n      jump\t// out\n        /* \"#utility.yul\":6584:6677   */\n    tag_287:\n        /* \"#utility.yul\":6620:6627   */\n      0x00\n        /* \"#utility.yul\":6660:6670   */\n      0xffffffff\n        /* \"#utility.yul\":6653:6658   */\n      dup3\n        /* \"#utility.yul\":6649:6671   */\n      and\n        /* \"#utility.yul\":6638:6671   */\n      swap1\n      pop\n        /* \"#utility.yul\":6584:6677   */\n      swap2\n      swap1\n      pop\n      jump\t// out\n        /* \"#utility.yul\":6683:6803   */\n    tag_288:\n        /* \"#utility.yul\":6755:6778   */\n      tag_438\n        /* \"#utility.yul\":6772:6777   */\n      dup2\n        /* \"#utility.yul\":6755:6778   */\n      tag_287\n      jump\t// in\n    tag_438:\n        /* \"#utility.yul\":6748:6753   */\n      dup2\n        /* \"#utility.yul\":6745:6779   */\n      eq\n        /* \"#utility.yul\":6735:6797   */\n      tag_439\n      jumpi\n        /* \"#utility.yul\":6793:6794   */\n      0x00\n        /* \"#utility.yul\":6790:6791   */\n      dup1\n        /* \"#utility.yul\":6783:6795   */\n      revert\n        /* \"#utility.yul\":6735:6797   */\n    tag_439:\n        /* \"#utility.yul\":6683:6803   */\n      pop\n      jump\t// out\n        /* \"#utility.yul\":6809:6946   */\n    tag_289:\n        /* \"#utility.yul\":6854:6859   */\n      0x00\n        /* \"#utility.yul\":6892:6898   */\n      dup2\n        /* \"#utility.yul\":6879:6899   */\n      calldataload\n        /* \"#utility.yul\":6870:6899   */\n      swap1\n      pop\n        /* \"#utility.yul\":6908:6940   */\n      tag_441\n        /* \"#utility.yul\":6934:6939   */\n      dup2\n        /* \"#utility.yul\":6908:6940   */\n      tag_288\n      jump\t// in\n    tag_441:\n        /* \"#utility.yul\":6809:6946   */\n      swap3\n      swap2\n      pop\n      pop\n      jump\t// out\n        /* \"#utility.yul\":6952:7739   */\n    tag_34:\n        /* \"#utility.yul\":7049:7055   */\n      0x00\n        /* \"#utility.yul\":7057:7063   */\n      dup1\n        /* \"#utility.yul\":7065:7071   */\n      0x00\n        /* \"#utility.yul\":7073:7079   */\n      dup1\n        /* \"#utility.yul\":7122:7125   */\n      0x80\n        /* \"#utility.yul\":7110:7119   */\n      dup6\n        /* \"#utility.yul\":7101:7108   */\n      dup8\n        /* \"#utility.yul\":7097:7120   */\n      sub\n        /* \"#utility.yul\":7093:7126   */\n      slt\n        /* \"#utility.yul\":7090:7210   */\n      iszero\n      tag_443\n      jumpi\n        /* \"#utility.yul\":7129:7208   */\n      tag_444\n      tag_263\n      jump\t// in\n    tag_444:\n        /* \"#utility.yul\":7090:7210   */\n    tag_443:\n        /* \"#utility.yul\":7249:7250   */\n      0x00\n        /* \"#utility.yul\":7274:7341   */\n      tag_445\n        /* \"#utility.yul\":7333:7340   */\n      dup8\n        /* \"#utility.yul\":7324:7330   */\n      dup3\n        /* \"#utility.yul\":7313:7322   */\n      dup9\n        /* \"#utility.yul\":7309:7331   */\n      add\n        /* \"#utility.yul\":7274:7341   */\n      tag_269\n      jump\t// in\n    tag_445:\n        /* \"#utility.yul\":7264:7341   */\n      swap5\n      pop\n        /* \"#utility.yul\":7220:7351   */\n      pop\n        /* \"#utility.yul\":7390:7392   */\n      0x20\n        /* \"#utility.yul\":7416:7468   */\n      tag_446\n        /* \"#utility.yul\":7460:7467   */\n      dup8\n        /* \"#utility.yul\":7451:7457   */\n      dup3\n        /* \"#utility.yul\":7440:7449   */\n      dup9\n        /* \"#utility.yul\":7436:7458   */\n      add\n        /* \"#utility.yul\":7416:7468   */\n      tag_289\n      jump\t// in\n    tag_446:\n        /* \"#utility.yul\":7406:7468   */\n      swap4\n      pop\n        /* \"#utility.yul\":7361:7478   */\n      pop\n        /* \"#utility.yul\":7517:7519   */\n      0x40\n        /* \"#utility.yul\":7543:7596   */\n      tag_447\n        /* \"#utility.yul\":7588:7595   */\n      dup8\n        /* \"#utility.yul\":7579:7585   */\n      dup3\n        /* \"#utility.yul\":7568:7577   */\n      dup9\n        /* \"#utility.yul\":7564:7586   */\n      add\n        /* \"#utility.yul\":7543:7596   */\n      tag_272\n      jump\t// in\n    tag_447:\n        /* \"#utility.yul\":7533:7596   */\n      swap3\n      pop\n        /* \"#utility.yul\":7488:7606   */\n      pop\n        /* \"#utility.yul\":7645:7647   */\n      0x60\n        /* \"#utility.yul\":7671:7722   */\n      tag_448\n        /* \"#utility.yul\":7714:7721   */\n      dup8\n        /* \"#utility.yul\":7705:7711   */\n      dup3\n        /* \"#utility.yul\":7694:7703   */\n      dup9\n        /* \"#utility.yul\":7690:7712   */\n      add\n        /* \"#utility.yul\":7671:7722   */\n      tag_275\n      jump\t// in\n    tag_448:\n        /* \"#utility.yul\":7661:7722   */\n      swap2\n      pop\n        /* \"#utility.yul\":7616:7732   */\n      pop\n        /* \"#utility.yul\":6952:7739   */\n      swap3\n      swap6\n      swap2\n      swap5\n      pop\n      swap3\n      pop\n      jump\t// out\n        /* \"#utility.yul\":7745:8070   */\n    tag_39:\n        /* \"#utility.yul\":7802:7808   */\n      0x00\n        /* \"#utility.yul\":7851:7853   */\n      0x20\n        /* \"#utility.yul\":7839:7848   */\n      dup3\n        /* \"#utility.yul\":7830:7837   */\n      dup5\n        /* \"#utility.yul\":7826:7849   */\n      sub\n        /* \"#utility.yul\":7822:7854   */\n      slt\n        /* \"#utility.yul\":7819:7938   */\n      iszero\n      tag_450\n      jumpi\n        /* \"#utility.yul\":7857:7936   */\n      tag_451\n      tag_263\n      jump\t// in\n    tag_451:\n        /* \"#utility.yul\":7819:7938   */\n    tag_450:\n        /* \"#utility.yul\":7977:7978   */\n      0x00\n        /* \"#utility.yul\":8002:8053   */\n      tag_452\n        /* \"#utility.yul\":8045:8052   */\n      dup5\n        /* \"#utility.yul\":8036:8042   */\n      dup3\n        /* \"#utility.yul\":8025:8034   */\n      dup6\n        /* \"#utility.yul\":8021:8043   */\n      add\n        /* \"#utility.yul\":8002:8053   */\n      tag_275\n      jump\t// in\n    tag_452:\n        /* \"#utility.yul\":7992:8053   */\n      swap2\n      pop\n        /* \"#utility.yul\":7948:8063   */\n      pop\n        /* \"#utility.yul\":7745:8070   */\n      swap3\n      swap2\n      pop\n      pop\n      jump\t// out\n        /* \"#utility.yul\":8076:8211   */\n    tag_290:\n        /* \"#utility.yul\":8164:8170   */\n      0x00\n        /* \"#utility.yul\":8198:8203   */\n      dup2\n        /* \"#utility.yul\":8192:8204   */\n      mload\n        /* \"#utility.yul\":8182:8204   */\n      swap1\n      pop\n        /* \"#utility.yul\":8076:8211   */\n      swap2\n      swap1\n      pop\n      jump\t// out\n        /* \"#utility.yul\":8217:8422   */\n    tag_291:\n        /* \"#utility.yul\":8337:8348   */\n      0x00\n        /* \"#utility.yul\":8371:8377   */\n      dup3\n        /* \"#utility.yul\":8366:8369   */\n      dup3\n        /* \"#utility.yul\":8359:8378   */\n      mstore\n        /* \"#utility.yul\":8411:8415   */\n      0x20\n        /* \"#utility.yul\":8406:8409   */\n      dup3\n        /* \"#utility.yul\":8402:8416   */\n      add\n        /* \"#utility.yul\":8387:8416   */\n      swap1\n      pop\n        /* \"#utility.yul\":8217:8422   */\n      swap3\n      swap2\n      pop\n      pop\n      jump\t// out\n        /* \"#utility.yul\":8428:8581   */\n    tag_292:\n        /* \"#utility.yul\":8516:8520   */\n      0x00\n        /* \"#utility.yul\":8539:8542   */\n      dup2\n        /* \"#utility.yul\":8531:8542   */\n      swap1\n      pop\n        /* \"#utility.yul\":8569:8573   */\n      0x20\n        /* \"#utility.yul\":8564:8567   */\n      dup3\n        /* \"#utility.yul\":8560:8574   */\n      add\n        /* \"#utility.yul\":8552:8574   */\n      swap1\n      pop\n        /* \"#utility.yul\":8428:8581   */\n      swap2\n      swap1\n      pop\n      jump\t// out\n        /* \"#utility.yul\":8587:8695   */\n    tag_293:\n        /* \"#utility.yul\":8664:8688   */\n      tag_457\n        /* \"#utility.yul\":8682:8687   */\n      dup2\n        /* \"#utility.yul\":8664:8688   */\n      tag_266\n      jump\t// in\n    tag_457:\n        /* \"#utility.yul\":8659:8662   */\n      dup3\n        /* \"#utility.yul\":8652:8689   */\n      mstore\n        /* \"#utility.yul\":8587:8695   */\n      pop\n      pop\n      jump\t// out\n        /* \"#utility.yul\":8701:8809   */\n    tag_294:\n        /* \"#utility.yul\":8778:8802   */\n      tag_459\n        /* \"#utility.yul\":8796:8801   */\n      dup2\n        /* \"#utility.yul\":8778:8802   */\n      tag_270\n      jump\t// in\n    tag_459:\n        /* \"#utility.yul\":8773:8776   */\n      dup3\n        /* \"#utility.yul\":8766:8803   */\n      mstore\n        /* \"#utility.yul\":8701:8809   */\n      pop\n      pop\n      jump\t// out\n        /* \"#utility.yul\":8815:8914   */\n    tag_295:\n        /* \"#utility.yul\":8867:8873   */\n      0x00\n        /* \"#utility.yul\":8901:8906   */\n      dup2\n        /* \"#utility.yul\":8895:8907   */\n      mload\n        /* \"#utility.yul\":8885:8907   */\n      swap1\n      pop\n        /* \"#utility.yul\":8815:8914   */\n      swap2\n      swap1\n      pop\n      jump\t// out\n        /* \"#utility.yul\":8920:9079   */\n    tag_296:\n        /* \"#utility.yul\":8994:9005   */\n      0x00\n        /* \"#utility.yul\":9028:9034   */\n      dup3\n        /* \"#utility.yul\":9023:9026   */\n      dup3\n        /* \"#utility.yul\":9016:9035   */\n      mstore\n        /* \"#utility.yul\":9068:9072   */\n      0x20\n        /* \"#utility.yul\":9063:9066   */\n      dup3\n        /* \"#utility.yul\":9059:9073   */\n      add\n        /* \"#utility.yul\":9044:9073   */\n      swap1\n      pop\n        /* \"#utility.yul\":8920:9079   */\n      swap3\n      swap2\n      pop\n      pop\n      jump\t// out\n        /* \"#utility.yul\":9085:9224   */\n    tag_297:\n        /* \"#utility.yul\":9174:9180   */\n      dup3\n        /* \"#utility.yul\":9169:9172   */\n      dup2\n        /* \"#utility.yul\":9164:9167   */\n      dup4\n        /* \"#utility.yul\":9158:9181   */\n      mcopy\n        /* \"#utility.yul\":9215:9216   */\n      0x00\n        /* \"#utility.yul\":9206:9212   */\n      dup4\n        /* \"#utility.yul\":9201:9204   */\n      dup4\n        /* \"#utility.yul\":9197:9213   */\n      add\n        /* \"#utility.yul\":9190:9217   */\n      mstore\n        /* \"#utility.yul\":9085:9224   */\n      pop\n      pop\n      pop\n      jump\t// out\n        /* \"#utility.yul\":9230:9587   */\n    tag_298:\n        /* \"#utility.yul\":9308:9311   */\n      0x00\n        /* \"#utility.yul\":9336:9375   */\n      tag_464\n        /* \"#utility.yul\":9369:9374   */\n      dup3\n        /* \"#utility.yul\":9336:9375   */\n      tag_295\n      jump\t// in\n    tag_464:\n        /* \"#utility.yul\":9391:9452   */\n      tag_465\n        /* \"#utility.yul\":9445:9451   */\n      dup2\n        /* \"#utility.yul\":9440:9443   */\n      dup6\n        /* \"#utility.yul\":9391:9452   */\n      tag_296\n      jump\t// in\n    tag_465:\n        /* \"#utility.yul\":9384:9452   */\n      swap4\n      pop\n        /* \"#utility.yul\":9461:9526   */\n      tag_466\n        /* \"#utility.yul\":9519:9525   */\n      dup2\n        /* \"#utility.yul\":9514:9517   */\n      dup6\n        /* \"#utility.yul\":9507:9511   */\n      0x20\n        /* \"#utility.yul\":9500:9505   */\n      dup7\n        /* \"#utility.yul\":9496:9512   */\n      add\n        /* \"#utility.yul\":9461:9526   */\n      tag_297\n      jump\t// in\n    tag_466:\n        /* \"#utility.yul\":9551:9580   */\n      tag_467\n        /* \"#utility.yul\":9573:9579   */\n      dup2\n        /* \"#utility.yul\":9551:9580   */\n      tag_278\n      jump\t// in\n    tag_467:\n        /* \"#utility.yul\":9546:9549   */\n      dup5\n        /* \"#utility.yul\":9542:9581   */\n      add\n        /* \"#utility.yul\":9535:9581   */\n      swap2\n      pop\n        /* \"#utility.yul\":9312:9587   */\n      pop\n        /* \"#utility.yul\":9230:9587   */\n      swap3\n      swap2\n      pop\n      pop\n      jump\t// out\n        /* \"#utility.yul\":9593:9683   */\n    tag_299:\n        /* \"#utility.yul\":9627:9634   */\n      0x00\n        /* \"#utility.yul\":9670:9675   */\n      dup2\n        /* \"#utility.yul\":9663:9676   */\n      iszero\n        /* \"#utility.yul\":9656:9677   */\n      iszero\n        /* \"#utility.yul\":9645:9677   */\n      swap1\n      pop\n        /* \"#utility.yul\":9593:9683   */\n      swap2\n      swap1\n      pop\n      jump\t// out\n        /* \"#utility.yul\":9689:9788   */\n    tag_300:\n        /* \"#utility.yul\":9760:9781   */\n      tag_470\n        /* \"#utility.yul\":9775:9780   */\n      dup2\n        /* \"#utility.yul\":9760:9781   */\n      tag_299\n      jump\t// in\n    tag_470:\n        /* \"#utility.yul\":9755:9758   */\n      dup3\n        /* \"#utility.yul\":9748:9782   */\n      mstore\n        /* \"#utility.yul\":9689:9788   */\n      pop\n      pop\n      jump\t// out\n        /* \"#utility.yul\":9840:11132   */\n    tag_301:\n        /* \"#utility.yul\":9941:9944   */\n      0x00\n        /* \"#utility.yul\":9977:9981   */\n      0xc0\n        /* \"#utility.yul\":9972:9975   */\n      dup4\n        /* \"#utility.yul\":9968:9982   */\n      add\n        /* \"#utility.yul\":10065:10069   */\n      0x00\n        /* \"#utility.yul\":10058:10063   */\n      dup4\n        /* \"#utility.yul\":10054:10070   */\n      add\n        /* \"#utility.yul\":10048:10071   */\n      mload\n        /* \"#utility.yul\":10084:10147   */\n      tag_472\n        /* \"#utility.yul\":10141:10145   */\n      0x00\n        /* \"#utility.yul\":10136:10139   */\n      dup7\n        /* \"#utility.yul\":10132:10146   */\n      add\n        /* \"#utility.yul\":10118:10130   */\n      dup3\n        /* \"#utility.yul\":10084:10147   */\n      tag_293\n      jump\t// in\n    tag_472:\n        /* \"#utility.yul\":9992:10157   */\n      pop\n        /* \"#utility.yul\":10241:10245   */\n      0x20\n        /* \"#utility.yul\":10234:10239   */\n      dup4\n        /* \"#utility.yul\":10230:10246   */\n      add\n        /* \"#utility.yul\":10224:10247   */\n      mload\n        /* \"#utility.yul\":10260:10323   */\n      tag_473\n        /* \"#utility.yul\":10317:10321   */\n      0x20\n        /* \"#utility.yul\":10312:10315   */\n      dup7\n        /* \"#utility.yul\":10308:10322   */\n      add\n        /* \"#utility.yul\":10294:10306   */\n      dup3\n        /* \"#utility.yul\":10260:10323   */\n      tag_294\n      jump\t// in\n    tag_473:\n        /* \"#utility.yul\":10167:10333   */\n      pop\n        /* \"#utility.yul\":10422:10426   */\n      0x40\n        /* \"#utility.yul\":10415:10420   */\n      dup4\n        /* \"#utility.yul\":10411:10427   */\n      add\n        /* \"#utility.yul\":10405:10428   */\n      mload\n        /* \"#utility.yul\":10441:10504   */\n      tag_474\n        /* \"#utility.yul\":10498:10502   */\n      0x40\n        /* \"#utility.yul\":10493:10496   */\n      dup7\n        /* \"#utility.yul\":10489:10503   */\n      add\n        /* \"#utility.yul\":10475:10487   */\n      dup3\n        /* \"#utility.yul\":10441:10504   */\n      tag_294\n      jump\t// in\n    tag_474:\n        /* \"#utility.yul\":10343:10514   */\n      pop\n        /* \"#utility.yul\":10597:10601   */\n      0x60\n        /* \"#utility.yul\":10590:10595   */\n      dup4\n        /* \"#utility.yul\":10586:10602   */\n      add\n        /* \"#utility.yul\":10580:10603   */\n      mload\n        /* \"#utility.yul\":10650:10653   */\n      dup5\n        /* \"#utility.yul\":10644:10648   */\n      dup3\n        /* \"#utility.yul\":10640:10654   */\n      sub\n        /* \"#utility.yul\":10633:10637   */\n      0x60\n        /* \"#utility.yul\":10628:10631   */\n      dup7\n        /* \"#utility.yul\":10624:10638   */\n      add\n        /* \"#utility.yul\":10617:10655   */\n      mstore\n        /* \"#utility.yul\":10676:10749   */\n      tag_475\n        /* \"#utility.yul\":10744:10748   */\n      dup3\n        /* \"#utility.yul\":10730:10742   */\n      dup3\n        /* \"#utility.yul\":10676:10749   */\n      tag_298\n      jump\t// in\n    tag_475:\n        /* \"#utility.yul\":10668:10749   */\n      swap2\n      pop\n        /* \"#utility.yul\":10524:10760   */\n      pop\n        /* \"#utility.yul\":10847:10851   */\n      0x80\n        /* \"#utility.yul\":10840:10845   */\n      dup4\n        /* \"#utility.yul\":10836:10852   */\n      add\n        /* \"#utility.yul\":10830:10853   */\n      mload\n        /* \"#utility.yul\":10866:10923   */\n      tag_476\n        /* \"#utility.yul\":10917:10921   */\n      0x80\n        /* \"#utility.yul\":10912:10915   */\n      dup7\n        /* \"#utility.yul\":10908:10922   */\n      add\n        /* \"#utility.yul\":10894:10906   */\n      dup3\n        /* \"#utility.yul\":10866:10923   */\n      tag_300\n      jump\t// in\n    tag_476:\n        /* \"#utility.yul\":10770:10933   */\n      pop\n        /* \"#utility.yul\":11019:11023   */\n      0xa0\n        /* \"#utility.yul\":11012:11017   */\n      dup4\n        /* \"#utility.yul\":11008:11024   */\n      add\n        /* \"#utility.yul\":11002:11025   */\n      mload\n        /* \"#utility.yul\":11038:11095   */\n      tag_477\n        /* \"#utility.yul\":11089:11093   */\n      0xa0\n        /* \"#utility.yul\":11084:11087   */\n      dup7\n        /* \"#utility.yul\":11080:11094   */\n      add\n        /* \"#utility.yul\":11066:11078   */\n      dup3\n        /* \"#utility.yul\":11038:11095   */\n      tag_300\n      jump\t// in\n    tag_477:\n        /* \"#utility.yul\":10943:11105   */\n      pop\n        /* \"#utility.yul\":11122:11126   */\n      dup1\n        /* \"#utility.yul\":11115:11126   */\n      swap2\n      pop\n        /* \"#utility.yul\":9946:11132   */\n      pop\n        /* \"#utility.yul\":9840:11132   */\n      swap3\n      swap2\n      pop\n      pop\n      jump\t// out\n        /* \"#utility.yul\":11138:11378   */\n    tag_302:\n        /* \"#utility.yul\":11249:11259   */\n      0x00\n        /* \"#utility.yul\":11284:11372   */\n      tag_479\n        /* \"#utility.yul\":11368:11371   */\n      dup4\n        /* \"#utility.yul\":11360:11366   */\n      dup4\n        /* \"#utility.yul\":11284:11372   */\n      tag_301\n      jump\t// in\n    tag_479:\n        /* \"#utility.yul\":11270:11372   */\n      swap1\n      pop\n        /* \"#utility.yul\":11138:11378   */\n      swap3\n      swap2\n      pop\n      pop\n      jump\t// out\n        /* \"#utility.yul\":11384:11518   */\n    tag_303:\n        /* \"#utility.yul\":11475:11479   */\n      0x00\n        /* \"#utility.yul\":11507:11511   */\n      0x20\n        /* \"#utility.yul\":11502:11505   */\n      dup3\n        /* \"#utility.yul\":11498:11512   */\n      add\n        /* \"#utility.yul\":11490:11512   */\n      swap1\n      pop\n        /* \"#utility.yul\":11384:11518   */\n      swap2\n      swap1\n      pop\n      jump\t// out\n        /* \"#utility.yul\":11574:12653   */\n    tag_304:\n        /* \"#utility.yul\":11735:11738   */\n      0x00\n        /* \"#utility.yul\":11764:11839   */\n      tag_482\n        /* \"#utility.yul\":11833:11838   */\n      dup3\n        /* \"#utility.yul\":11764:11839   */\n      tag_290\n      jump\t// in\n    tag_482:\n        /* \"#utility.yul\":11855:11962   */\n      tag_483\n        /* \"#utility.yul\":11955:11961   */\n      dup2\n        /* \"#utility.yul\":11950:11953   */\n      dup6\n        /* \"#utility.yul\":11855:11962   */\n      tag_291\n      jump\t// in\n    tag_483:\n        /* \"#utility.yul\":11848:11962   */\n      swap4\n      pop\n        /* \"#utility.yul\":11988:11991   */\n      dup4\n        /* \"#utility.yul\":12033:12037   */\n      0x20\n        /* \"#utility.yul\":12025:12031   */\n      dup3\n        /* \"#utility.yul\":12021:12038   */\n      mul\n        /* \"#utility.yul\":12016:12019   */\n      dup6\n        /* \"#utility.yul\":12012:12039   */\n      add\n        /* \"#utility.yul\":12063:12140   */\n      tag_484\n        /* \"#utility.yul\":12134:12139   */\n      dup6\n        /* \"#utility.yul\":12063:12140   */\n      tag_292\n      jump\t// in\n    tag_484:\n        /* \"#utility.yul\":12163:12170   */\n      dup1\n        /* \"#utility.yul\":12194:12195   */\n      0x00\n        /* \"#utility.yul\":12179:12608   */\n    tag_485:\n        /* \"#utility.yul\":12204:12210   */\n      dup6\n        /* \"#utility.yul\":12201:12202   */\n      dup2\n        /* \"#utility.yul\":12198:12211   */\n      lt\n        /* \"#utility.yul\":12179:12608   */\n      iszero\n      tag_487\n      jumpi\n        /* \"#utility.yul\":12275:12284   */\n      dup5\n        /* \"#utility.yul\":12269:12273   */\n      dup5\n        /* \"#utility.yul\":12265:12285   */\n      sub\n        /* \"#utility.yul\":12260:12263   */\n      dup10\n        /* \"#utility.yul\":12253:12286   */\n      mstore\n        /* \"#utility.yul\":12326:12332   */\n      dup2\n        /* \"#utility.yul\":12320:12333   */\n      mload\n        /* \"#utility.yul\":12354:12460   */\n      tag_488\n        /* \"#utility.yul\":12455:12459   */\n      dup6\n        /* \"#utility.yul\":12440:12453   */\n      dup3\n        /* \"#utility.yul\":12354:12460   */\n      tag_302\n      jump\t// in\n    tag_488:\n        /* \"#utility.yul\":12346:12460   */\n      swap5\n      pop\n        /* \"#utility.yul\":12483:12564   */\n      tag_489\n        /* \"#utility.yul\":12557:12563   */\n      dup4\n        /* \"#utility.yul\":12483:12564   */\n      tag_303\n      jump\t// in\n    tag_489:\n        /* \"#utility.yul\":12473:12564   */\n      swap3\n      pop\n        /* \"#utility.yul\":12593:12597   */\n      0x20\n        /* \"#utility.yul\":12588:12591   */\n      dup11\n        /* \"#utility.yul\":12584:12598   */\n      add\n        /* \"#utility.yul\":12577:12598   */\n      swap10\n      pop\n        /* \"#utility.yul\":12239:12608   */\n      pop\n        /* \"#utility.yul\":12226:12227   */\n      0x01\n        /* \"#utility.yul\":12223:12224   */\n      dup2\n        /* \"#utility.yul\":12219:12228   */\n      add\n        /* \"#utility.yul\":12214:12228   */\n      swap1\n      pop\n        /* \"#utility.yul\":12179:12608   */\n      jump(tag_485)\n    tag_487:\n        /* \"#utility.yul\":12183:12197   */\n      pop\n        /* \"#utility.yul\":12624:12628   */\n      dup3\n        /* \"#utility.yul\":12617:12628   */\n      swap8\n      pop\n        /* \"#utility.yul\":12644:12647   */\n      dup8\n        /* \"#utility.yul\":12637:12647   */\n      swap6\n      pop\n        /* \"#utility.yul\":11740:12653   */\n      pop\n      pop\n      pop\n      pop\n      pop\n        /* \"#utility.yul\":11574:12653   */\n      swap3\n      swap2\n      pop\n      pop\n      jump\t// out\n        /* \"#utility.yul\":12659:13116   */\n    tag_42:\n        /* \"#utility.yul\":12844:12848   */\n      0x00\n        /* \"#utility.yul\":12882:12884   */\n      0x20\n        /* \"#utility.yul\":12871:12880   */\n      dup3\n        /* \"#utility.yul\":12867:12885   */\n      add\n        /* \"#utility.yul\":12859:12885   */\n      swap1\n      pop\n        /* \"#utility.yul\":12931:12940   */\n      dup2\n        /* \"#utility.yul\":12925:12929   */\n      dup2\n        /* \"#utility.yul\":12921:12941   */\n      sub\n        /* \"#utility.yul\":12917:12918   */\n      0x00\n        /* \"#utility.yul\":12906:12915   */\n      dup4\n        /* \"#utility.yul\":12902:12919   */\n      add\n        /* \"#utility.yul\":12895:12942   */\n      mstore\n        /* \"#utility.yul\":12959:13109   */\n      tag_491\n        /* \"#utility.yul\":13104:13108   */\n      dup2\n        /* \"#utility.yul\":13095:13101   */\n      dup5\n        /* \"#utility.yul\":12959:13109   */\n      tag_304\n      jump\t// in\n    tag_491:\n        /* \"#utility.yul\":12951:13109   */\n      swap1\n      pop\n        /* \"#utility.yul\":12659:13116   */\n      swap3\n      swap2\n      pop\n      pop\n      jump\t// out\n        /* \"#utility.yul\":13122:13240   */\n    tag_305:\n        /* \"#utility.yul\":13209:13233   */\n      tag_493\n        /* \"#utility.yul\":13227:13232   */\n      dup2\n        /* \"#utility.yul\":13209:13233   */\n      tag_266\n      jump\t// in\n    tag_493:\n        /* \"#utility.yul\":13204:13207   */\n      dup3\n        /* \"#utility.yul\":13197:13234   */\n      mstore\n        /* \"#utility.yul\":13122:13240   */\n      pop\n      pop\n      jump\t// out\n        /* \"#utility.yul\":13246:13468   */\n    tag_54:\n        /* \"#utility.yul\":13339:13343   */\n      0x00\n        /* \"#utility.yul\":13377:13379   */\n      0x20\n        /* \"#utility.yul\":13366:13375   */\n      dup3\n        /* \"#utility.yul\":13362:13380   */\n      add\n        /* \"#utility.yul\":13354:13380   */\n      swap1\n      pop\n        /* \"#utility.yul\":13390:13461   */\n      tag_495\n        /* \"#utility.yul\":13458:13459   */\n      0x00\n        /* \"#utility.yul\":13447:13456   */\n      dup4\n        /* \"#utility.yul\":13443:13460   */\n      add\n        /* \"#utility.yul\":13434:13440   */\n      dup5\n        /* \"#utility.yul\":13390:13461   */\n      tag_305\n      jump\t// in\n    tag_495:\n        /* \"#utility.yul\":13246:13468   */\n      swap3\n      swap2\n      pop\n      pop\n      jump\t// out\n        /* \"#utility.yul\":13474:13596   */\n    tag_306:\n        /* \"#utility.yul\":13547:13571   */\n      tag_497\n        /* \"#utility.yul\":13565:13570   */\n      dup2\n        /* \"#utility.yul\":13547:13571   */\n      tag_266\n      jump\t// in\n    tag_497:\n        /* \"#utility.yul\":13540:13545   */\n      dup2\n        /* \"#utility.yul\":13537:13572   */\n      eq\n        /* \"#utility.yul\":13527:13590   */\n      tag_498\n      jumpi\n        /* \"#utility.yul\":13586:13587   */\n      0x00\n        /* \"#utility.yul\":13583:13584   */\n      dup1\n        /* \"#utility.yul\":13576:13588   */\n      revert\n        /* \"#utility.yul\":13527:13590   */\n    tag_498:\n        /* \"#utility.yul\":13474:13596   */\n      pop\n      jump\t// out\n        /* \"#utility.yul\":13602:13741   */\n    tag_307:\n        /* \"#utility.yul\":13648:13653   */\n      0x00\n        /* \"#utility.yul\":13686:13692   */\n      dup2\n        /* \"#utility.yul\":13673:13693   */\n      calldataload\n        /* \"#utility.yul\":13664:13693   */\n      swap1\n      pop\n        /* \"#utility.yul\":13702:13735   */\n      tag_500\n        /* \"#utility.yul\":13729:13734   */\n      dup2\n        /* \"#utility.yul\":13702:13735   */\n      tag_306\n      jump\t// in\n    tag_500:\n        /* \"#utility.yul\":13602:13741   */\n      swap3\n      swap2\n      pop\n      pop\n      jump\t// out\n        /* \"#utility.yul\":13747:14362   */\n    tag_58:\n        /* \"#utility.yul\":13822:13828   */\n      0x00\n        /* \"#utility.yul\":13830:13836   */\n      dup1\n        /* \"#utility.yul\":13838:13844   */\n      0x00\n        /* \"#utility.yul\":13887:13889   */\n      0x60\n        /* \"#utility.yul\":13875:13884   */\n      dup5\n        /* \"#utility.yul\":13866:13873   */\n      dup7\n        /* \"#utility.yul\":13862:13885   */\n      sub\n        /* \"#utility.yul\":13858:13890   */\n      slt\n        /* \"#utility.yul\":13855:13974   */\n      iszero\n      tag_502\n      jumpi\n        /* \"#utility.yul\":13893:13972   */\n      tag_503\n      tag_263\n      jump\t// in\n    tag_503:\n        /* \"#utility.yul\":13855:13974   */\n    tag_502:\n        /* \"#utility.yul\":14013:14014   */\n      0x00\n        /* \"#utility.yul\":14038:14091   */\n      tag_504\n        /* \"#utility.yul\":14083:14090   */\n      dup7\n        /* \"#utility.yul\":14074:14080   */\n      dup3\n        /* \"#utility.yul\":14063:14072   */\n      dup8\n        /* \"#utility.yul\":14059:14081   */\n      add\n        /* \"#utility.yul\":14038:14091   */\n      tag_307\n      jump\t// in\n    tag_504:\n        /* \"#utility.yul\":14028:14091   */\n      swap4\n      pop\n        /* \"#utility.yul\":13984:14101   */\n      pop\n        /* \"#utility.yul\":14140:14142   */\n      0x20\n        /* \"#utility.yul\":14166:14217   */\n      tag_505\n        /* \"#utility.yul\":14209:14216   */\n      dup7\n        /* \"#utility.yul\":14200:14206   */\n      dup3\n        /* \"#utility.yul\":14189:14198   */\n      dup8\n        /* \"#utility.yul\":14185:14207   */\n      add\n        /* \"#utility.yul\":14166:14217   */\n      tag_275\n      jump\t// in\n    tag_505:\n        /* \"#utility.yul\":14156:14217   */\n      swap3\n      pop\n        /* \"#utility.yul\":14111:14227   */\n      pop\n        /* \"#utility.yul\":14266:14268   */\n      0x40\n        /* \"#utility.yul\":14292:14345   */\n      tag_506\n        /* \"#utility.yul\":14337:14344   */\n      dup7\n        /* \"#utility.yul\":14328:14334   */\n      dup3\n        /* \"#utility.yul\":14317:14326   */\n      dup8\n        /* \"#utility.yul\":14313:14335   */\n      add\n        /* \"#utility.yul\":14292:14345   */\n      tag_272\n      jump\t// in\n    tag_506:\n        /* \"#utility.yul\":14282:14345   */\n      swap2\n      pop\n        /* \"#utility.yul\":14237:14355   */\n      pop\n        /* \"#utility.yul\":13747:14362   */\n      swap3\n      pop\n      swap3\n      pop\n      swap3\n      jump\t// out\n        /* \"#utility.yul\":14368:14537   */\n    tag_308:\n        /* \"#utility.yul\":14452:14463   */\n      0x00\n        /* \"#utility.yul\":14486:14492   */\n      dup3\n        /* \"#utility.yul\":14481:14484   */\n      dup3\n        /* \"#utility.yul\":14474:14493   */\n      mstore\n        /* \"#utility.yul\":14526:14530   */\n      0x20\n        /* \"#utility.yul\":14521:14524   */\n      dup3\n        /* \"#utility.yul\":14517:14531   */\n      add\n        /* \"#utility.yul\":14502:14531   */\n      swap1\n      pop\n        /* \"#utility.yul\":14368:14537   */\n      swap3\n      swap2\n      pop\n      pop\n      jump\t// out\n        /* \"#utility.yul\":14543:14920   */\n    tag_309:\n        /* \"#utility.yul\":14631:14634   */\n      0x00\n        /* \"#utility.yul\":14659:14698   */\n      tag_509\n        /* \"#utility.yul\":14692:14697   */\n      dup3\n        /* \"#utility.yul\":14659:14698   */\n      tag_295\n      jump\t// in\n    tag_509:\n        /* \"#utility.yul\":14714:14785   */\n      tag_510\n        /* \"#utility.yul\":14778:14784   */\n      dup2\n        /* \"#utility.yul\":14773:14776   */\n      dup6\n        /* \"#utility.yul\":14714:14785   */\n      tag_308\n      jump\t// in\n    tag_510:\n        /* \"#utility.yul\":14707:14785   */\n      swap4\n      pop\n        /* \"#utility.yul\":14794:14859   */\n      tag_511\n        /* \"#utility.yul\":14852:14858   */\n      dup2\n        /* \"#utility.yul\":14847:14850   */\n      dup6\n        /* \"#utility.yul\":14840:14844   */\n      0x20\n        /* \"#utility.yul\":14833:14838   */\n      dup7\n        /* \"#utility.yul\":14829:14845   */\n      add\n        /* \"#utility.yul\":14794:14859   */\n      tag_297\n      jump\t// in\n    tag_511:\n        /* \"#utility.yul\":14884:14913   */\n      tag_512\n        /* \"#utility.yul\":14906:14912   */\n      dup2\n        /* \"#utility.yul\":14884:14913   */\n      tag_278\n      jump\t// in\n    tag_512:\n        /* \"#utility.yul\":14879:14882   */\n      dup5\n        /* \"#utility.yul\":14875:14914   */\n      add\n        /* \"#utility.yul\":14868:14914   */\n      swap2\n      pop\n        /* \"#utility.yul\":14635:14920   */\n      pop\n        /* \"#utility.yul\":14543:14920   */\n      swap3\n      swap2\n      pop\n      pop\n      jump\t// out\n        /* \"#utility.yul\":14926:15035   */\n    tag_310:\n        /* \"#utility.yul\":15007:15028   */\n      tag_514\n        /* \"#utility.yul\":15022:15027   */\n      dup2\n        /* \"#utility.yul\":15007:15028   */\n      tag_299\n      jump\t// in\n    tag_514:\n        /* \"#utility.yul\":15002:15005   */\n      dup3\n        /* \"#utility.yul\":14995:15029   */\n      mstore\n        /* \"#utility.yul\":14926:15035   */\n      pop\n      pop\n      jump\t// out\n        /* \"#utility.yul\":15041:15883   */\n    tag_61:\n        /* \"#utility.yul\":15282:15286   */\n      0x00\n        /* \"#utility.yul\":15320:15323   */\n      0xc0\n        /* \"#utility.yul\":15309:15318   */\n      dup3\n        /* \"#utility.yul\":15305:15324   */\n      add\n        /* \"#utility.yul\":15297:15324   */\n      swap1\n      pop\n        /* \"#utility.yul\":15334:15405   */\n      tag_516\n        /* \"#utility.yul\":15402:15403   */\n      0x00\n        /* \"#utility.yul\":15391:15400   */\n      dup4\n        /* \"#utility.yul\":15387:15404   */\n      add\n        /* \"#utility.yul\":15378:15384   */\n      dup10\n        /* \"#utility.yul\":15334:15405   */\n      tag_305\n      jump\t// in\n    tag_516:\n        /* \"#utility.yul\":15415:15487   */\n      tag_517\n        /* \"#utility.yul\":15483:15485   */\n      0x20\n        /* \"#utility.yul\":15472:15481   */\n      dup4\n        /* \"#utility.yul\":15468:15486   */\n      add\n        /* \"#utility.yul\":15459:15465   */\n      dup9\n        /* \"#utility.yul\":15415:15487   */\n      tag_286\n      jump\t// in\n    tag_517:\n        /* \"#utility.yul\":15497:15569   */\n      tag_518\n        /* \"#utility.yul\":15565:15567   */\n      0x40\n        /* \"#utility.yul\":15554:15563   */\n      dup4\n        /* \"#utility.yul\":15550:15568   */\n      add\n        /* \"#utility.yul\":15541:15547   */\n      dup8\n        /* \"#utility.yul\":15497:15569   */\n      tag_286\n      jump\t// in\n    tag_518:\n        /* \"#utility.yul\":15616:15625   */\n      dup2\n        /* \"#utility.yul\":15610:15614   */\n      dup2\n        /* \"#utility.yul\":15606:15626   */\n      sub\n        /* \"#utility.yul\":15601:15603   */\n      0x60\n        /* \"#utility.yul\":15590:15599   */\n      dup4\n        /* \"#utility.yul\":15586:15604   */\n      add\n        /* \"#utility.yul\":15579:15627   */\n      mstore\n        /* \"#utility.yul\":15644:15722   */\n      tag_519\n        /* \"#utility.yul\":15717:15721   */\n      dup2\n        /* \"#utility.yul\":15708:15714   */\n      dup7\n        /* \"#utility.yul\":15644:15722   */\n      tag_309\n      jump\t// in\n    tag_519:\n        /* \"#utility.yul\":15636:15722   */\n      swap1\n      pop\n        /* \"#utility.yul\":15732:15799   */\n      tag_520\n        /* \"#utility.yul\":15794:15797   */\n      0x80\n        /* \"#utility.yul\":15783:15792   */\n      dup4\n        /* \"#utility.yul\":15779:15798   */\n      add\n        /* \"#utility.yul\":15770:15776   */\n      dup6\n        /* \"#utility.yul\":15732:15799   */\n      tag_310\n      jump\t// in\n    tag_520:\n        /* \"#utility.yul\":15809:15876   */\n      tag_521\n        /* \"#utility.yul\":15871:15874   */\n      0xa0\n        /* \"#utility.yul\":15860:15869   */\n      dup4\n        /* \"#utility.yul\":15856:15875   */\n      add\n        /* \"#utility.yul\":15847:15853   */\n      dup5\n        /* \"#utility.yul\":15809:15876   */\n      tag_310\n      jump\t// in\n    tag_521:\n        /* \"#utility.yul\":15041:15883   */\n      swap8\n      swap7\n      pop\n      pop\n      pop\n      pop\n      pop\n      pop\n      pop\n      jump\t// out\n        /* \"#utility.yul\":15889:16502   */\n    tag_65:\n        /* \"#utility.yul\":15963:15969   */\n      0x00\n        /* \"#utility.yul\":15971:15977   */\n      dup1\n        /* \"#utility.yul\":15979:15985   */\n      0x00\n        /* \"#utility.yul\":16028:16030   */\n      0x60\n        /* \"#utility.yul\":16016:16025   */\n      dup5\n        /* \"#utility.yul\":16007:16014   */\n      dup7\n        /* \"#utility.yul\":16003:16026   */\n      sub\n        /* \"#utility.yul\":15999:16031   */\n      slt\n        /* \"#utility.yul\":15996:16115   */\n      iszero\n      tag_523\n      jumpi\n        /* \"#utility.yul\":16034:16113   */\n      tag_524\n      tag_263\n      jump\t// in\n    tag_524:\n        /* \"#utility.yul\":15996:16115   */\n    tag_523:\n        /* \"#utility.yul\":16154:16155   */\n      0x00\n        /* \"#utility.yul\":16179:16231   */\n      tag_525\n        /* \"#utility.yul\":16223:16230   */\n      dup7\n        /* \"#utility.yul\":16214:16220   */\n      dup3\n        /* \"#utility.yul\":16203:16212   */\n      dup8\n        /* \"#utility.yul\":16199:16221   */\n      add\n        /* \"#utility.yul\":16179:16231   */\n      tag_289\n      jump\t// in\n    tag_525:\n        /* \"#utility.yul\":16169:16231   */\n      swap4\n      pop\n        /* \"#utility.yul\":16125:16241   */\n      pop\n        /* \"#utility.yul\":16280:16282   */\n      0x20\n        /* \"#utility.yul\":16306:16357   */\n      tag_526\n        /* \"#utility.yul\":16349:16356   */\n      dup7\n        /* \"#utility.yul\":16340:16346   */\n      dup3\n        /* \"#utility.yul\":16329:16338   */\n      dup8\n        /* \"#utility.yul\":16325:16347   */\n      add\n        /* \"#utility.yul\":16306:16357   */\n      tag_275\n      jump\t// in\n    tag_526:\n        /* \"#utility.yul\":16296:16357   */\n      swap3\n      pop\n        /* \"#utility.yul\":16251:16367   */\n      pop\n        /* \"#utility.yul\":16406:16408   */\n      0x40\n        /* \"#utility.yul\":16432:16485   */\n      tag_527\n        /* \"#utility.yul\":16477:16484   */\n      dup7\n        /* \"#utility.yul\":16468:16474   */\n      dup3\n        /* \"#utility.yul\":16457:16466   */\n      dup8\n        /* \"#utility.yul\":16453:16475   */\n      add\n        /* \"#utility.yul\":16432:16485   */\n      tag_272\n      jump\t// in\n    tag_527:\n        /* \"#utility.yul\":16422:16485   */\n      swap2\n      pop\n        /* \"#utility.yul\":16377:16495   */\n      pop\n        /* \"#utility.yul\":15889:16502   */\n      swap3\n      pop\n      swap3\n      pop\n      swap3\n      jump\t// out\n        /* \"#utility.yul\":16508:16976   */\n    tag_69:\n        /* \"#utility.yul\":16573:16579   */\n      0x00\n        /* \"#utility.yul\":16581:16587   */\n      dup1\n        /* \"#utility.yul\":16630:16632   */\n      0x40\n        /* \"#utility.yul\":16618:16627   */\n      dup4\n        /* \"#utility.yul\":16609:16616   */\n      dup6\n        /* \"#utility.yul\":16605:16628   */\n      sub\n        /* \"#utility.yul\":16601:16633   */\n      slt\n        /* \"#utility.yul\":16598:16717   */\n      iszero\n      tag_529\n      jumpi\n        /* \"#utility.yul\":16636:16715   */\n      tag_530\n      tag_263\n      jump\t// in\n    tag_530:\n        /* \"#utility.yul\":16598:16717   */\n    tag_529:\n        /* \"#utility.yul\":16756:16757   */\n      0x00\n        /* \"#utility.yul\":16781:16832   */\n      tag_531\n        /* \"#utility.yul\":16824:16831   */\n      dup6\n        /* \"#utility.yul\":16815:16821   */\n      dup3\n        /* \"#utility.yul\":16804:16813   */\n      dup7\n        /* \"#utility.yul\":16800:16822   */\n      add\n        /* \"#utility.yul\":16781:16832   */\n      tag_275\n      jump\t// in\n    tag_531:\n        /* \"#utility.yul\":16771:16832   */\n      swap3\n      pop\n        /* \"#utility.yul\":16727:16842   */\n      pop\n        /* \"#utility.yul\":16881:16883   */\n      0x20\n        /* \"#utility.yul\":16907:16959   */\n      tag_532\n        /* \"#utility.yul\":16951:16958   */\n      dup6\n        /* \"#utility.yul\":16942:16948   */\n      dup3\n        /* \"#utility.yul\":16931:16940   */\n      dup7\n        /* \"#utility.yul\":16927:16949   */\n      add\n        /* \"#utility.yul\":16907:16959   */\n      tag_289\n      jump\t// in\n    tag_532:\n        /* \"#utility.yul\":16897:16959   */\n      swap2\n      pop\n        /* \"#utility.yul\":16852:16969   */\n      pop\n        /* \"#utility.yul\":16508:16976   */\n      swap3\n      pop\n      swap3\n      swap1\n      pop\n      jump\t// out\n        /* \"#utility.yul\":16982:17311   */\n    tag_74:\n        /* \"#utility.yul\":17041:17047   */\n      0x00\n        /* \"#utility.yul\":17090:17092   */\n      0x20\n        /* \"#utility.yul\":17078:17087   */\n      dup3\n        /* \"#utility.yul\":17069:17076   */\n      dup5\n        /* \"#utility.yul\":17065:17088   */\n      sub\n        /* \"#utility.yul\":17061:17093   */\n      slt\n        /* \"#utility.yul\":17058:17177   */\n      iszero\n      tag_534\n      jumpi\n        /* \"#utility.yul\":17096:17175   */\n      tag_535\n      tag_263\n      jump\t// in\n    tag_535:\n        /* \"#utility.yul\":17058:17177   */\n    tag_534:\n        /* \"#utility.yul\":17216:17217   */\n      0x00\n        /* \"#utility.yul\":17241:17294   */\n      tag_536\n        /* \"#utility.yul\":17286:17293   */\n      dup5\n        /* \"#utility.yul\":17277:17283   */\n      dup3\n        /* \"#utility.yul\":17266:17275   */\n      dup6\n        /* \"#utility.yul\":17262:17284   */\n      add\n        /* \"#utility.yul\":17241:17294   */\n      tag_307\n      jump\t// in\n    tag_536:\n        /* \"#utility.yul\":17231:17294   */\n      swap2\n      pop\n        /* \"#utility.yul\":17187:17304   */\n      pop\n        /* \"#utility.yul\":16982:17311   */\n      swap3\n      swap2\n      pop\n      pop\n      jump\t// out\n        /* \"#utility.yul\":17317:17538   */\n    tag_311:\n        /* \"#utility.yul\":17457:17491   */\n      0x4d7573742070726f7669646520612076616c696420746f6b656e206164647265\n        /* \"#utility.yul\":17453:17454   */\n      0x00\n        /* \"#utility.yul\":17445:17451   */\n      dup3\n        /* \"#utility.yul\":17441:17455   */\n      add\n        /* \"#utility.yul\":17434:17492   */\n      mstore\n        /* \"#utility.yul\":17526:17530   */\n      0x7373000000000000000000000000000000000000000000000000000000000000\n        /* \"#utility.yul\":17521:17523   */\n      0x20\n        /* \"#utility.yul\":17513:17519   */\n      dup3\n        /* \"#utility.yul\":17509:17524   */\n      add\n        /* \"#utility.yul\":17502:17531   */\n      mstore\n        /* \"#utility.yul\":17317:17538   */\n      pop\n      jump\t// out\n        /* \"#utility.yul\":17544:17910   */\n    tag_312:\n        /* \"#utility.yul\":17686:17689   */\n      0x00\n        /* \"#utility.yul\":17707:17774   */\n      tag_539\n        /* \"#utility.yul\":17771:17773   */\n      0x22\n        /* \"#utility.yul\":17766:17769   */\n      dup4\n        /* \"#utility.yul\":17707:17774   */\n      tag_308\n      jump\t// in\n    tag_539:\n        /* \"#utility.yul\":17700:17774   */\n      swap2\n      pop\n        /* \"#utility.yul\":17783:17876   */\n      tag_540\n        /* \"#utility.yul\":17872:17875   */\n      dup3\n        /* \"#utility.yul\":17783:17876   */\n      tag_311\n      jump\t// in\n    tag_540:\n        /* \"#utility.yul\":17901:17903   */\n      0x40\n        /* \"#utility.yul\":17896:17899   */\n      dup3\n        /* \"#utility.yul\":17892:17904   */\n      add\n        /* \"#utility.yul\":17885:17904   */\n      swap1\n      pop\n        /* \"#utility.yul\":17544:17910   */\n      swap2\n      swap1\n      pop\n      jump\t// out\n        /* \"#utility.yul\":17916:18335   */\n    tag_82:\n        /* \"#utility.yul\":18082:18086   */\n      0x00\n        /* \"#utility.yul\":18120:18122   */\n      0x20\n        /* \"#utility.yul\":18109:18118   */\n      dup3\n        /* \"#utility.yul\":18105:18123   */\n      add\n        /* \"#utility.yul\":18097:18123   */\n      swap1\n      pop\n        /* \"#utility.yul\":18169:18178   */\n      dup2\n        /* \"#utility.yul\":18163:18167   */\n      dup2\n        /* \"#utility.yul\":18159:18179   */\n      sub\n        /* \"#utility.yul\":18155:18156   */\n      0x00\n        /* \"#utility.yul\":18144:18153   */\n      dup4\n        /* \"#utility.yul\":18140:18157   */\n      add\n        /* \"#utility.yul\":18133:18180   */\n      mstore\n        /* \"#utility.yul\":18197:18328   */\n      tag_542\n        /* \"#utility.yul\":18323:18327   */\n      dup2\n        /* \"#utility.yul\":18197:18328   */\n      tag_312\n      jump\t// in\n    tag_542:\n        /* \"#utility.yul\":18189:18328   */\n      swap1\n      pop\n        /* \"#utility.yul\":17916:18335   */\n      swap2\n      swap1\n      pop\n      jump\t// out\n        /* \"#utility.yul\":18341:18566   */\n    tag_313:\n        /* \"#utility.yul\":18481:18515   */\n      0x546f6b656e20616d6f756e74206d757374206265206772656174657220746865\n        /* \"#utility.yul\":18477:18478   */\n      0x00\n        /* \"#utility.yul\":18469:18475   */\n      dup3\n        /* \"#utility.yul\":18465:18479   */\n      add\n        /* \"#utility.yul\":18458:18516   */\n      mstore\n        /* \"#utility.yul\":18550:18558   */\n      0x6e207a65726f0000000000000000000000000000000000000000000000000000\n        /* \"#utility.yul\":18545:18547   */\n      0x20\n        /* \"#utility.yul\":18537:18543   */\n      dup3\n        /* \"#utility.yul\":18533:18548   */\n      add\n        /* \"#utility.yul\":18526:18559   */\n      mstore\n        /* \"#utility.yul\":18341:18566   */\n      pop\n      jump\t// out\n        /* \"#utility.yul\":18572:18938   */\n    tag_314:\n        /* \"#utility.yul\":18714:18717   */\n      0x00\n        /* \"#utility.yul\":18735:18802   */\n      tag_545\n        /* \"#utility.yul\":18799:18801   */\n      0x26\n        /* \"#utility.yul\":18794:18797   */\n      dup4\n        /* \"#utility.yul\":18735:18802   */\n      tag_308\n      jump\t// in\n    tag_545:\n        /* \"#utility.yul\":18728:18802   */\n      swap2\n      pop\n        /* \"#utility.yul\":18811:18904   */\n      tag_546\n        /* \"#utility.yul\":18900:18903   */\n      dup3\n        /* \"#utility.yul\":18811:18904   */\n      tag_313\n      jump\t// in\n    tag_546:\n        /* \"#utility.yul\":18929:18931   */\n      0x40\n        /* \"#utility.yul\":18924:18927   */\n      dup3\n        /* \"#utility.yul\":18920:18932   */\n      add\n        /* \"#utility.yul\":18913:18932   */\n      swap1\n      pop\n        /* \"#utility.yul\":18572:18938   */\n      swap2\n      swap1\n      pop\n      jump\t// out\n        /* \"#utility.yul\":18944:19363   */\n    tag_85:\n        /* \"#utility.yul\":19110:19114   */\n      0x00\n        /* \"#utility.yul\":19148:19150   */\n      0x20\n        /* \"#utility.yul\":19137:19146   */\n      dup3\n        /* \"#utility.yul\":19133:19151   */\n      add\n        /* \"#utility.yul\":19125:19151   */\n      swap1\n      pop\n        /* \"#utility.yul\":19197:19206   */\n      dup2\n        /* \"#utility.yul\":19191:19195   */\n      dup2\n        /* \"#utility.yul\":19187:19207   */\n      sub\n        /* \"#utility.yul\":19183:19184   */\n      0x00\n        /* \"#utility.yul\":19172:19181   */\n      dup4\n        /* \"#utility.yul\":19168:19185   */\n      add\n        /* \"#utility.yul\":19161:19208   */\n      mstore\n        /* \"#utility.yul\":19225:19356   */\n      tag_548\n        /* \"#utility.yul\":19351:19355   */\n      dup2\n        /* \"#utility.yul\":19225:19356   */\n      tag_314\n      jump\t// in\n    tag_548:\n        /* \"#utility.yul\":19217:19356   */\n      swap1\n      pop\n        /* \"#utility.yul\":18944:19363   */\n      swap2\n      swap1\n      pop\n      jump\t// out\n        /* \"#utility.yul\":19369:19597   */\n    tag_315:\n        /* \"#utility.yul\":19509:19543   */\n      0x546865206c6f636b20706572696f64206d757374206265206772656174657220\n        /* \"#utility.yul\":19505:19506   */\n      0x00\n        /* \"#utility.yul\":19497:19503   */\n      dup3\n        /* \"#utility.yul\":19493:19507   */\n      add\n        /* \"#utility.yul\":19486:19544   */\n      mstore\n        /* \"#utility.yul\":19578:19589   */\n      0x7468656e207a65726f0000000000000000000000000000000000000000000000\n        /* \"#utility.yul\":19573:19575   */\n      0x20\n        /* \"#utility.yul\":19565:19571   */\n      dup3\n        /* \"#utility.yul\":19561:19576   */\n      add\n        /* \"#utility.yul\":19554:19590   */\n      mstore\n        /* \"#utility.yul\":19369:19597   */\n      pop\n      jump\t// out\n        /* \"#utility.yul\":19603:19969   */\n    tag_316:\n        /* \"#utility.yul\":19745:19748   */\n      0x00\n        /* \"#utility.yul\":19766:19833   */\n      tag_551\n        /* \"#utility.yul\":19830:19832   */\n      0x29\n        /* \"#utility.yul\":19825:19828   */\n      dup4\n        /* \"#utility.yul\":19766:19833   */\n      tag_308\n      jump\t// in\n    tag_551:\n        /* \"#utility.yul\":19759:19833   */\n      swap2\n      pop\n        /* \"#utility.yul\":19842:19935   */\n      tag_552\n        /* \"#utility.yul\":19931:19934   */\n      dup3\n        /* \"#utility.yul\":19842:19935   */\n      tag_315\n      jump\t// in\n    tag_552:\n        /* \"#utility.yul\":19960:19962   */\n      0x40\n        /* \"#utility.yul\":19955:19958   */\n      dup3\n        /* \"#utility.yul\":19951:19963   */\n      add\n        /* \"#utility.yul\":19944:19963   */\n      swap1\n      pop\n        /* \"#utility.yul\":19603:19969   */\n      swap2\n      swap1\n      pop\n      jump\t// out\n        /* \"#utility.yul\":19975:20394   */\n    tag_88:\n        /* \"#utility.yul\":20141:20145   */\n      0x00\n        /* \"#utility.yul\":20179:20181   */\n      0x20\n        /* \"#utility.yul\":20168:20177   */\n      dup3\n        /* \"#utility.yul\":20164:20182   */\n      add\n        /* \"#utility.yul\":20156:20182   */\n      swap1\n      pop\n        /* \"#utility.yul\":20228:20237   */\n      dup2\n        /* \"#utility.yul\":20222:20226   */\n      dup2\n        /* \"#utility.yul\":20218:20238   */\n      sub\n        /* \"#utility.yul\":20214:20215   */\n      0x00\n        /* \"#utility.yul\":20203:20212   */\n      dup4\n        /* \"#utility.yul\":20199:20216   */\n      add\n        /* \"#utility.yul\":20192:20239   */\n      mstore\n        /* \"#utility.yul\":20256:20387   */\n      tag_554\n        /* \"#utility.yul\":20382:20386   */\n      dup2\n        /* \"#utility.yul\":20256:20387   */\n      tag_316\n      jump\t// in\n    tag_554:\n        /* \"#utility.yul\":20248:20387   */\n      swap1\n      pop\n        /* \"#utility.yul\":19975:20394   */\n      swap2\n      swap1\n      pop\n      jump\t// out\n        /* \"#utility.yul\":20400:20543   */\n    tag_317:\n        /* \"#utility.yul\":20457:20462   */\n      0x00\n        /* \"#utility.yul\":20488:20494   */\n      dup2\n        /* \"#utility.yul\":20482:20495   */\n      mload\n        /* \"#utility.yul\":20473:20495   */\n      swap1\n      pop\n        /* \"#utility.yul\":20504:20537   */\n      tag_556\n        /* \"#utility.yul\":20531:20536   */\n      dup2\n        /* \"#utility.yul\":20504:20537   */\n      tag_271\n      jump\t// in\n    tag_556:\n        /* \"#utility.yul\":20400:20543   */\n      swap3\n      swap2\n      pop\n      pop\n      jump\t// out\n        /* \"#utility.yul\":20549:20900   */\n    tag_93:\n        /* \"#utility.yul\":20619:20625   */\n      0x00\n        /* \"#utility.yul\":20668:20670   */\n      0x20\n        /* \"#utility.yul\":20656:20665   */\n      dup3\n        /* \"#utility.yul\":20647:20654   */\n      dup5\n        /* \"#utility.yul\":20643:20666   */\n      sub\n        /* \"#utility.yul\":20639:20671   */\n      slt\n        /* \"#utility.yul\":20636:20755   */\n      iszero\n      tag_558\n      jumpi\n        /* \"#utility.yul\":20674:20753   */\n      tag_559\n      tag_263\n      jump\t// in\n    tag_559:\n        /* \"#utility.yul\":20636:20755   */\n    tag_558:\n        /* \"#utility.yul\":20794:20795   */\n      0x00\n        /* \"#utility.yul\":20819:20883   */\n      tag_560\n        /* \"#utility.yul\":20875:20882   */\n      dup5\n        /* \"#utility.yul\":20866:20872   */\n      dup3\n        /* \"#utility.yul\":20855:20864   */\n      dup6\n        /* \"#utility.yul\":20851:20873   */\n      add\n        /* \"#utility.yul\":20819:20883   */\n      tag_317\n      jump\t// in\n    tag_560:\n        /* \"#utility.yul\":20809:20883   */\n      swap2\n      pop\n        /* \"#utility.yul\":20765:20893   */\n      pop\n        /* \"#utility.yul\":20549:20900   */\n      swap3\n      swap2\n      pop\n      pop\n      jump\t// out\n        /* \"#utility.yul\":20906:21081   */\n    tag_318:\n        /* \"#utility.yul\":21046:21073   */\n      0x4e6f7420656e6f75676820746f6b656e7320746f206c6f636b00000000000000\n        /* \"#utility.yul\":21042:21043   */\n      0x00\n        /* \"#utility.yul\":21034:21040   */\n      dup3\n        /* \"#utility.yul\":21030:21044   */\n      add\n        /* \"#utility.yul\":21023:21074   */\n      mstore\n        /* \"#utility.yul\":20906:21081   */\n      pop\n      jump\t// out\n        /* \"#utility.yul\":21087:21453   */\n    tag_319:\n        /* \"#utility.yul\":21229:21232   */\n      0x00\n        /* \"#utility.yul\":21250:21317   */\n      tag_563\n        /* \"#utility.yul\":21314:21316   */\n      0x19\n        /* \"#utility.yul\":21309:21312   */\n      dup4\n        /* \"#utility.yul\":21250:21317   */\n      tag_308\n      jump\t// in\n    tag_563:\n        /* \"#utility.yul\":21243:21317   */\n      swap2\n      pop\n        /* \"#utility.yul\":21326:21419   */\n      tag_564\n        /* \"#utility.yul\":21415:21418   */\n      dup3\n        /* \"#utility.yul\":21326:21419   */\n      tag_318\n      jump\t// in\n    tag_564:\n        /* \"#utility.yul\":21444:21446   */\n      0x20\n        /* \"#utility.yul\":21439:21442   */\n      dup3\n        /* \"#utility.yul\":21435:21447   */\n      add\n        /* \"#utility.yul\":21428:21447   */\n      swap1\n      pop\n        /* \"#utility.yul\":21087:21453   */\n      swap2\n      swap1\n      pop\n      jump\t// out\n        /* \"#utility.yul\":21459:21878   */\n    tag_96:\n        /* \"#utility.yul\":21625:21629   */\n      0x00\n        /* \"#utility.yul\":21663:21665   */\n      0x20\n        /* \"#utility.yul\":21652:21661   */\n      dup3\n        /* \"#utility.yul\":21648:21666   */\n      add\n        /* \"#utility.yul\":21640:21666   */\n      swap1\n      pop\n        /* \"#utility.yul\":21712:21721   */\n      dup2\n        /* \"#utility.yul\":21706:21710   */\n      dup2\n        /* \"#utility.yul\":21702:21722   */\n      sub\n        /* \"#utility.yul\":21698:21699   */\n      0x00\n        /* \"#utility.yul\":21687:21696   */\n      dup4\n        /* \"#utility.yul\":21683:21700   */\n      add\n        /* \"#utility.yul\":21676:21723   */\n      mstore\n        /* \"#utility.yul\":21740:21871   */\n      tag_566\n        /* \"#utility.yul\":21866:21870   */\n      dup2\n        /* \"#utility.yul\":21740:21871   */\n      tag_319\n      jump\t// in\n    tag_566:\n        /* \"#utility.yul\":21732:21871   */\n      swap1\n      pop\n        /* \"#utility.yul\":21459:21878   */\n      swap2\n      swap1\n      pop\n      jump\t// out\n        /* \"#utility.yul\":21884:22064   */\n    tag_320:\n        /* \"#utility.yul\":21932:22009   */\n      0x4e487b7100000000000000000000000000000000000000000000000000000000\n        /* \"#utility.yul\":21929:21930   */\n      0x00\n        /* \"#utility.yul\":21922:22010   */\n      mstore\n        /* \"#utility.yul\":22029:22033   */\n      0x11\n        /* \"#utility.yul\":22026:22027   */\n      0x04\n        /* \"#utility.yul\":22019:22034   */\n      mstore\n        /* \"#utility.yul\":22053:22057   */\n      0x24\n        /* \"#utility.yul\":22050:22051   */\n      0x00\n        /* \"#utility.yul\":22043:22058   */\n      revert\n        /* \"#utility.yul\":22070:22261   */\n    tag_100:\n        /* \"#utility.yul\":22110:22113   */\n      0x00\n        /* \"#utility.yul\":22129:22149   */\n      tag_569\n        /* \"#utility.yul\":22147:22148   */\n      dup3\n        /* \"#utility.yul\":22129:22149   */\n      tag_270\n      jump\t// in\n    tag_569:\n        /* \"#utility.yul\":22124:22149   */\n      swap2\n      pop\n        /* \"#utility.yul\":22163:22183   */\n      tag_570\n        /* \"#utility.yul\":22181:22182   */\n      dup4\n        /* \"#utility.yul\":22163:22183   */\n      tag_270\n      jump\t// in\n    tag_570:\n        /* \"#utility.yul\":22158:22183   */\n      swap3\n      pop\n        /* \"#utility.yul\":22206:22207   */\n      dup3\n        /* \"#utility.yul\":22203:22204   */\n      dup3\n        /* \"#utility.yul\":22199:22208   */\n      add\n        /* \"#utility.yul\":22192:22208   */\n      swap1\n      pop\n        /* \"#utility.yul\":22227:22230   */\n      dup1\n        /* \"#utility.yul\":22224:22225   */\n      dup3\n        /* \"#utility.yul\":22221:22231   */\n      gt\n        /* \"#utility.yul\":22218:22254   */\n      iszero\n      tag_571\n      jumpi\n        /* \"#utility.yul\":22234:22252   */\n      tag_572\n      tag_320\n      jump\t// in\n    tag_572:\n        /* \"#utility.yul\":22218:22254   */\n    tag_571:\n        /* \"#utility.yul\":22070:22261   */\n      swap3\n      swap2\n      pop\n      pop\n      jump\t// out\n        /* \"#utility.yul\":22267:22447   */\n    tag_321:\n        /* \"#utility.yul\":22315:22392   */\n      0x4e487b7100000000000000000000000000000000000000000000000000000000\n        /* \"#utility.yul\":22312:22313   */\n      0x00\n        /* \"#utility.yul\":22305:22393   */\n      mstore\n        /* \"#utility.yul\":22412:22416   */\n      0x22\n        /* \"#utility.yul\":22409:22410   */\n      0x04\n        /* \"#utility.yul\":22402:22417   */\n      mstore\n        /* \"#utility.yul\":22436:22440   */\n      0x24\n        /* \"#utility.yul\":22433:22434   */\n      0x00\n        /* \"#utility.yul\":22426:22441   */\n      revert\n        /* \"#utility.yul\":22453:22773   */\n    tag_153:\n        /* \"#utility.yul\":22497:22503   */\n      0x00\n        /* \"#utility.yul\":22534:22535   */\n      0x02\n        /* \"#utility.yul\":22528:22532   */\n      dup3\n        /* \"#utility.yul\":22524:22536   */\n      div\n        /* \"#utility.yul\":22514:22536   */\n      swap1\n      pop\n        /* \"#utility.yul\":22581:22582   */\n      0x01\n        /* \"#utility.yul\":22575:22579   */\n      dup3\n        /* \"#utility.yul\":22571:22583   */\n      and\n        /* \"#utility.yul\":22602:22620   */\n      dup1\n        /* \"#utility.yul\":22592:22673   */\n      tag_575\n      jumpi\n        /* \"#utility.yul\":22658:22662   */\n      0x7f\n        /* \"#utility.yul\":22650:22656   */\n      dup3\n        /* \"#utility.yul\":22646:22663   */\n      and\n        /* \"#utility.yul\":22636:22663   */\n      swap2\n      pop\n        /* \"#utility.yul\":22592:22673   */\n    tag_575:\n        /* \"#utility.yul\":22720:22722   */\n      0x20\n        /* \"#utility.yul\":22712:22718   */\n      dup3\n        /* \"#utility.yul\":22709:22723   */\n      lt\n        /* \"#utility.yul\":22689:22707   */\n      dup2\n        /* \"#utility.yul\":22686:22724   */\n      sub\n        /* \"#utility.yul\":22683:22767   */\n      tag_576\n      jumpi\n        /* \"#utility.yul\":22739:22757   */\n      tag_577\n      tag_321\n      jump\t// in\n    tag_577:\n        /* \"#utility.yul\":22683:22767   */\n    tag_576:\n        /* \"#utility.yul\":22504:22773   */\n      pop\n        /* \"#utility.yul\":22453:22773   */\n      swap2\n      swap1\n      pop\n      jump\t// out\n        /* \"#utility.yul\":22779:22920   */\n    tag_322:\n        /* \"#utility.yul\":22828:22832   */\n      0x00\n        /* \"#utility.yul\":22851:22854   */\n      dup2\n        /* \"#utility.yul\":22843:22854   */\n      swap1\n      pop\n        /* \"#utility.yul\":22874:22877   */\n      dup2\n        /* \"#utility.yul\":22871:22872   */\n      0x00\n        /* \"#utility.yul\":22864:22878   */\n      mstore\n        /* \"#utility.yul\":22908:22912   */\n      0x20\n        /* \"#utility.yul\":22905:22906   */\n      0x00\n        /* \"#utility.yul\":22895:22913   */\n      keccak256\n        /* \"#utility.yul\":22887:22913   */\n      swap1\n      pop\n        /* \"#utility.yul\":22779:22920   */\n      swap2\n      swap1\n      pop\n      jump\t// out\n        /* \"#utility.yul\":22926:23019   */\n    tag_323:\n        /* \"#utility.yul\":22963:22969   */\n      0x00\n        /* \"#utility.yul\":23010:23012   */\n      0x20\n        /* \"#utility.yul\":23005:23007   */\n      0x1f\n        /* \"#utility.yul\":22998:23003   */\n      dup4\n        /* \"#utility.yul\":22994:23008   */\n      add\n        /* \"#utility.yul\":22990:23013   */\n      div\n        /* \"#utility.yul\":22980:23013   */\n      swap1\n      pop\n        /* \"#utility.yul\":22926:23019   */\n      swap2\n      swap1\n      pop\n      jump\t// out\n        /* \"#utility.yul\":23025:23132   */\n    tag_324:\n        /* \"#utility.yul\":23069:23077   */\n      0x00\n        /* \"#utility.yul\":23119:23124   */\n      dup3\n        /* \"#utility.yul\":23113:23117   */\n      dup3\n        /* \"#utility.yul\":23109:23125   */\n      shl\n        /* \"#utility.yul\":23088:23125   */\n      swap1\n      pop\n        /* \"#utility.yul\":23025:23132   */\n      swap3\n      swap2\n      pop\n      pop\n      jump\t// out\n        /* \"#utility.yul\":23138:23531   */\n    tag_325:\n        /* \"#utility.yul\":23207:23213   */\n      0x00\n        /* \"#utility.yul\":23257:23258   */\n      0x08\n        /* \"#utility.yul\":23245:23255   */\n      dup4\n        /* \"#utility.yul\":23241:23259   */\n      mul\n        /* \"#utility.yul\":23280:23377   */\n      tag_582\n        /* \"#utility.yul\":23310:23376   */\n      0xffffffffffffffffffffffffffffffffffffffffffffffffffffffffffffffff\n        /* \"#utility.yul\":23299:23308   */\n      dup3\n        /* \"#utility.yul\":23280:23377   */\n      tag_324\n      jump\t// in\n    tag_582:\n        /* \"#utility.yul\":23398:23437   */\n      tag_583\n        /* \"#utility.yul\":23428:23436   */\n      dup7\n        /* \"#utility.yul\":23417:23426   */\n      dup4\n        /* \"#utility.yul\":23398:23437   */\n      tag_324\n      jump\t// in\n    tag_583:\n        /* \"#utility.yul\":23386:23437   */\n      swap6\n      pop\n        /* \"#utility.yul\":23470:23474   */\n      dup1\n        /* \"#utility.yul\":23466:23475   */\n      not\n        /* \"#utility.yul\":23459:23464   */\n      dup5\n        /* \"#utility.yul\":23455:23476   */\n      and\n        /* \"#utility.yul\":23446:23476   */\n      swap4\n      pop\n        /* \"#utility.yul\":23519:23523   */\n      dup1\n        /* \"#utility.yul\":23509:23517   */\n      dup7\n        /* \"#utility.yul\":23505:23524   */\n      and\n        /* \"#utility.yul\":23498:23503   */\n      dup5\n        /* \"#utility.yul\":23495:23525   */\n      or\n        /* \"#utility.yul\":23485:23525   */\n      swap3\n      pop\n        /* \"#utility.yul\":23214:23531   */\n      pop\n      pop\n        /* \"#utility.yul\":23138:23531   */\n      swap4\n      swap3\n      pop\n      pop\n      pop\n      jump\t// out\n        /* \"#utility.yul\":23537:23597   */\n    tag_326:\n        /* \"#utility.yul\":23565:23568   */\n      0x00\n        /* \"#utility.yul\":23586:23591   */\n      dup2\n        /* \"#utility.yul\":23579:23591   */\n      swap1\n      pop\n        /* \"#utility.yul\":23537:23597   */\n      swap2\n      swap1\n      pop\n      jump\t// out\n        /* \"#utility.yul\":23603:23745   */\n    tag_327:\n        /* \"#utility.yul\":23653:23662   */\n      0x00\n        /* \"#utility.yul\":23686:23739   */\n      tag_586\n        /* \"#utility.yul\":23704:23738   */\n      tag_587\n        /* \"#utility.yul\":23713:23737   */\n      tag_588\n        /* \"#utility.yul\":23731:23736   */\n      dup5\n        /* \"#utility.yul\":23713:23737   */\n      tag_270\n      jump\t// in\n    tag_588:\n        /* \"#utility.yul\":23704:23738   */\n      tag_326\n      jump\t// in\n    tag_587:\n        /* \"#utility.yul\":23686:23739   */\n      tag_270\n      jump\t// in\n    tag_586:\n        /* \"#utility.yul\":23673:23739   */\n      swap1\n      pop\n        /* \"#utility.yul\":23603:23745   */\n      swap2\n      swap1\n      pop\n      jump\t// out\n        /* \"#utility.yul\":23751:23826   */\n    tag_328:\n        /* \"#utility.yul\":23794:23797   */\n      0x00\n        /* \"#utility.yul\":23815:23820   */\n      dup2\n        /* \"#utility.yul\":23808:23820   */\n      swap1\n      pop\n        /* \"#utility.yul\":23751:23826   */\n      swap2\n      swap1\n      pop\n      jump\t// out\n        /* \"#utility.yul\":23832:24101   */\n    tag_329:\n        /* \"#utility.yul\":23942:23981   */\n      tag_591\n        /* \"#utility.yul\":23973:23980   */\n      dup4\n        /* \"#utility.yul\":23942:23981   */\n      tag_327\n      jump\t// in\n    tag_591:\n        /* \"#utility.yul\":24003:24094   */\n      tag_592\n        /* \"#utility.yul\":24052:24093   */\n      tag_593\n        /* \"#utility.yul\":24076:24092   */\n      dup3\n        /* \"#utility.yul\":24052:24093   */\n      tag_328\n      jump\t// in\n    tag_593:\n        /* \"#utility.yul\":24044:24050   */\n      dup5\n        /* \"#utility.yul\":24037:24041   */\n      dup5\n        /* \"#utility.yul\":24031:24042   */\n      sload\n        /* \"#utility.yul\":24003:24094   */\n      tag_325\n      jump\t// in\n    tag_592:\n        /* \"#utility.yul\":23997:24001   */\n      dup3\n        /* \"#utility.yul\":23990:24095   */\n      sstore\n        /* \"#utility.yul\":23908:24101   */\n      pop\n        /* \"#utility.yul\":23832:24101   */\n      pop\n      pop\n      pop\n      jump\t// out\n        /* \"#utility.yul\":24107:24180   */\n    tag_330:\n        /* \"#utility.yul\":24152:24155   */\n      0x00\n        /* \"#utility.yul\":24107:24180   */\n      swap1\n      jump\t// out\n        /* \"#utility.yul\":24186:24375   */\n    tag_331:\n        /* \"#utility.yul\":24263:24295   */\n      tag_596\n      tag_330\n      jump\t// in\n    tag_596:\n        /* \"#utility.yul\":24304:24369   */\n      tag_597\n        /* \"#utility.yul\":24362:24368   */\n      dup2\n        /* \"#utility.yul\":24354:24360   */\n      dup5\n        /* \"#utility.yul\":24348:24352   */\n      dup5\n        /* \"#utility.yul\":24304:24369   */\n      tag_329\n      jump\t// in\n    tag_597:\n        /* \"#utility.yul\":24239:24375   */\n      pop\n        /* \"#utility.yul\":24186:24375   */\n      pop\n      pop\n      jump\t// out\n        /* \"#utility.yul\":24381:24567   */\n    tag_332:\n        /* \"#utility.yul\":24441:24561   */\n    tag_599:\n        /* \"#utility.yul\":24458:24461   */\n      dup2\n        /* \"#utility.yul\":24451:24456   */\n      dup2\n        /* \"#utility.yul\":24448:24462   */\n      lt\n        /* \"#utility.yul\":24441:24561   */\n      iszero\n      tag_601\n      jumpi\n        /* \"#utility.yul\":24512:24551   */\n      tag_602\n        /* \"#utility.yul\":24549:24550   */\n      0x00\n        /* \"#utility.yul\":24542:24547   */\n      dup3\n        /* \"#utility.yul\":24512:24551   */\n      tag_331\n      jump\t// in\n    tag_602:\n        /* \"#utility.yul\":24485:24486   */\n      0x01\n        /* \"#utility.yul\":24478:24483   */\n      dup2\n        /* \"#utility.yul\":24474:24487   */\n      add\n        /* \"#utility.yul\":24465:24487   */\n      swap1\n      pop\n        /* \"#utility.yul\":24441:24561   */\n      jump(tag_599)\n    tag_601:\n        /* \"#utility.yul\":24381:24567   */\n      pop\n      pop\n      jump\t// out\n        /* \"#utility.yul\":24573:25116   */\n    tag_333:\n        /* \"#utility.yul\":24674:24676   */\n      0x1f\n        /* \"#utility.yul\":24669:24672   */\n      dup3\n        /* \"#utility.yul\":24666:24677   */\n      gt\n        /* \"#utility.yul\":24663:25109   */\n      iszero\n      tag_604\n      jumpi\n        /* \"#utility.yul\":24708:24746   */\n      tag_605\n        /* \"#utility.yul\":24740:24745   */\n      dup2\n        /* \"#utility.yul\":24708:24746   */\n      tag_322\n      jump\t// in\n    tag_605:\n        /* \"#utility.yul\":24792:24821   */\n      tag_606\n        /* \"#utility.yul\":24810:24820   */\n      dup5\n        /* \"#utility.yul\":24792:24821   */\n      tag_323\n      jump\t// in\n    tag_606:\n        /* \"#utility.yul\":24782:24790   */\n      dup2\n        /* \"#utility.yul\":24778:24822   */\n      add\n        /* \"#utility.yul\":24975:24977   */\n      0x20\n        /* \"#utility.yul\":24963:24973   */\n      dup6\n        /* \"#utility.yul\":24960:24978   */\n      lt\n        /* \"#utility.yul\":24957:25006   */\n      iszero\n      tag_607\n      jumpi\n        /* \"#utility.yul\":24996:25004   */\n      dup2\n        /* \"#utility.yul\":24981:25004   */\n      swap1\n      pop\n        /* \"#utility.yul\":24957:25006   */\n    tag_607:\n        /* \"#utility.yul\":25019:25099   */\n      tag_608\n        /* \"#utility.yul\":25075:25097   */\n      tag_609\n        /* \"#utility.yul\":25093:25096   */\n      dup6\n        /* \"#utility.yul\":25075:25097   */\n      tag_323\n      jump\t// in\n    tag_609:\n        /* \"#utility.yul\":25065:25073   */\n      dup4\n        /* \"#utility.yul\":25061:25098   */\n      add\n        /* \"#utility.yul\":25048:25059   */\n      dup3\n        /* \"#utility.yul\":25019:25099   */\n      tag_332\n      jump\t// in\n    tag_608:\n        /* \"#utility.yul\":24678:25109   */\n      pop\n      pop\n        /* \"#utility.yul\":24663:25109   */\n    tag_604:\n        /* \"#utility.yul\":24573:25116   */\n      pop\n      pop\n      pop\n      jump\t// out\n        /* \"#utility.yul\":25122:25239   */\n    tag_334:\n        /* \"#utility.yul\":25176:25184   */\n      0x00\n        /* \"#utility.yul\":25226:25231   */\n      dup3\n        /* \"#utility.yul\":25220:25224   */\n      dup3\n        /* \"#utility.yul\":25216:25232   */\n      shr\n        /* \"#utility.yul\":25195:25232   */\n      swap1\n      pop\n        /* \"#utility.yul\":25122:25239   */\n      swap3\n      swap2\n      pop\n      pop\n      jump\t// out\n        /* \"#utility.yul\":25245:25414   */\n    tag_335:\n        /* \"#utility.yul\":25289:25295   */\n      0x00\n        /* \"#utility.yul\":25322:25373   */\n      tag_612\n        /* \"#utility.yul\":25370:25371   */\n      0x00\n        /* \"#utility.yul\":25366:25372   */\n      not\n        /* \"#utility.yul\":25358:25363   */\n      dup5\n        /* \"#utility.yul\":25355:25356   */\n      0x08\n        /* \"#utility.yul\":25351:25364   */\n      mul\n        /* \"#utility.yul\":25322:25373   */\n      tag_334\n      jump\t// in\n    tag_612:\n        /* \"#utility.yul\":25318:25374   */\n      not\n        /* \"#utility.yul\":25403:25407   */\n      dup1\n        /* \"#utility.yul\":25397:25401   */\n      dup4\n        /* \"#utility.yul\":25393:25408   */\n      and\n        /* \"#utility.yul\":25383:25408   */\n      swap2\n      pop\n        /* \"#utility.yul\":25296:25414   */\n      pop\n        /* \"#utility.yul\":25245:25414   */\n      swap3\n      swap2\n      pop\n      pop\n      jump\t// out\n        /* \"#utility.yul\":25419:25714   */\n    tag_336:\n        /* \"#utility.yul\":25495:25499   */\n      0x00\n        /* \"#utility.yul\":25641:25670   */\n      tag_614\n        /* \"#utility.yul\":25666:25669   */\n      dup4\n        /* \"#utility.yul\":25660:25664   */\n      dup4\n        /* \"#utility.yul\":25641:25670   */\n      tag_335\n      jump\t// in\n    tag_614:\n        /* \"#utility.yul\":25633:25670   */\n      swap2\n      pop\n        /* \"#utility.yul\":25703:25706   */\n      dup3\n        /* \"#utility.yul\":25700:25701   */\n      0x02\n        /* \"#utility.yul\":25696:25707   */\n      mul\n        /* \"#utility.yul\":25690:25694   */\n      dup3\n        /* \"#utility.yul\":25687:25708   */\n      or\n        /* \"#utility.yul\":25679:25708   */\n      swap1\n      pop\n        /* \"#utility.yul\":25419:25714   */\n      swap3\n      swap2\n      pop\n      pop\n      jump\t// out\n        /* \"#utility.yul\":25719:27114   */\n    tag_103:\n        /* \"#utility.yul\":25836:25873   */\n      tag_616\n        /* \"#utility.yul\":25869:25872   */\n      dup3\n        /* \"#utility.yul\":25836:25873   */\n      tag_295\n      jump\t// in\n    tag_616:\n        /* \"#utility.yul\":25938:25956   */\n      0xffffffffffffffff\n        /* \"#utility.yul\":25930:25936   */\n      dup2\n        /* \"#utility.yul\":25927:25957   */\n      gt\n        /* \"#utility.yul\":25924:25980   */\n      iszero\n      tag_617\n      jumpi\n        /* \"#utility.yul\":25960:25978   */\n      tag_618\n      tag_279\n      jump\t// in\n    tag_618:\n        /* \"#utility.yul\":25924:25980   */\n    tag_617:\n        /* \"#utility.yul\":26004:26042   */\n      tag_619\n        /* \"#utility.yul\":26036:26040   */\n      dup3\n        /* \"#utility.yul\":26030:26041   */\n      sload\n        /* \"#utility.yul\":26004:26042   */\n      tag_153\n      jump\t// in\n    tag_619:\n        /* \"#utility.yul\":26089:26156   */\n      tag_620\n        /* \"#utility.yul\":26149:26155   */\n      dup3\n        /* \"#utility.yul\":26141:26147   */\n      dup3\n        /* \"#utility.yul\":26135:26139   */\n      dup6\n        /* \"#utility.yul\":26089:26156   */\n      tag_333\n      jump\t// in\n    tag_620:\n        /* \"#utility.yul\":26183:26184   */\n      0x00\n        /* \"#utility.yul\":26207:26211   */\n      0x20\n        /* \"#utility.yul\":26194:26211   */\n      swap1\n      pop\n        /* \"#utility.yul\":26239:26241   */\n      0x1f\n        /* \"#utility.yul\":26231:26237   */\n      dup4\n        /* \"#utility.yul\":26228:26242   */\n      gt\n        /* \"#utility.yul\":26256:26257   */\n      0x01\n        /* \"#utility.yul\":26251:26869   */\n      dup2\n      eq\n      tag_622\n      jumpi\n        /* \"#utility.yul\":26913:26914   */\n      0x00\n        /* \"#utility.yul\":26930:26936   */\n      dup5\n        /* \"#utility.yul\":26927:27004   */\n      iszero\n      tag_623\n      jumpi\n        /* \"#utility.yul\":26979:26988   */\n      dup3\n        /* \"#utility.yul\":26974:26977   */\n      dup8\n        /* \"#utility.yul\":26970:26989   */\n      add\n        /* \"#utility.yul\":26964:26990   */\n      mload\n        /* \"#utility.yul\":26955:26990   */\n      swap1\n      pop\n        /* \"#utility.yul\":26927:27004   */\n    tag_623:\n        /* \"#utility.yul\":27030:27097   */\n      tag_624\n        /* \"#utility.yul\":27090:27096   */\n      dup6\n        /* \"#utility.yul\":27083:27088   */\n      dup3\n        /* \"#utility.yul\":27030:27097   */\n      tag_336\n      jump\t// in\n    tag_624:\n        /* \"#utility.yul\":27024:27028   */\n      dup7\n        /* \"#utility.yul\":27017:27098   */\n      sstore\n        /* \"#utility.yul\":26886:27108   */\n      pop\n        /* \"#utility.yul\":26221:27108   */\n      jump(tag_621)\n        /* \"#utility.yul\":26251:26869   */\n    tag_622:\n        /* \"#utility.yul\":26303:26307   */\n      0x1f\n        /* \"#utility.yul\":26299:26308   */\n      not\n        /* \"#utility.yul\":26291:26297   */\n      dup5\n        /* \"#utility.yul\":26287:26309   */\n      and\n        /* \"#utility.yul\":26337:26374   */\n      tag_625\n        /* \"#utility.yul\":26369:26373   */\n      dup7\n        /* \"#utility.yul\":26337:26374   */\n      tag_322\n      jump\t// in\n    tag_625:\n        /* \"#utility.yul\":26396:26397   */\n      0x00\n        /* \"#utility.yul\":26410:26618   */\n    tag_626:\n        /* \"#utility.yul\":26424:26431   */\n      dup3\n        /* \"#utility.yul\":26421:26422   */\n      dup2\n        /* \"#utility.yul\":26418:26432   */\n      lt\n        /* \"#utility.yul\":26410:26618   */\n      iszero\n      tag_628\n      jumpi\n        /* \"#utility.yul\":26503:26512   */\n      dup5\n        /* \"#utility.yul\":26498:26501   */\n      dup10\n        /* \"#utility.yul\":26494:26513   */\n      add\n        /* \"#utility.yul\":26488:26514   */\n      mload\n        /* \"#utility.yul\":26480:26486   */\n      dup3\n        /* \"#utility.yul\":26473:26515   */\n      sstore\n        /* \"#utility.yul\":26554:26555   */\n      0x01\n        /* \"#utility.yul\":26546:26552   */\n      dup3\n        /* \"#utility.yul\":26542:26556   */\n      add\n        /* \"#utility.yul\":26532:26556   */\n      swap2\n      pop\n        /* \"#utility.yul\":26601:26603   */\n      0x20\n        /* \"#utility.yul\":26590:26599   */\n      dup6\n        /* \"#utility.yul\":26586:26604   */\n      add\n        /* \"#utility.yul\":26573:26604   */\n      swap5\n      pop\n        /* \"#utility.yul\":26447:26451   */\n      0x20\n        /* \"#utility.yul\":26444:26445   */\n      dup2\n        /* \"#utility.yul\":26440:26452   */\n      add\n        /* \"#utility.yul\":26435:26452   */\n      swap1\n      pop\n        /* \"#utility.yul\":26410:26618   */\n      jump(tag_626)\n    tag_628:\n        /* \"#utility.yul\":26646:26652   */\n      dup7\n        /* \"#utility.yul\":26637:26644   */\n      dup4\n        /* \"#utility.yul\":26634:26653   */\n      lt\n        /* \"#utility.yul\":26631:26810   */\n      iszero\n      tag_629\n      jumpi\n        /* \"#utility.yul\":26704:26713   */\n      dup5\n        /* \"#utility.yul\":26699:26702   */\n      dup10\n        /* \"#utility.yul\":26695:26714   */\n      add\n        /* \"#utility.yul\":26689:26715   */\n      mload\n        /* \"#utility.yul\":26747:26795   */\n      tag_630\n        /* \"#utility.yul\":26789:26793   */\n      0x1f\n        /* \"#utility.yul\":26781:26787   */\n      dup10\n        /* \"#utility.yul\":26777:26794   */\n      and\n        /* \"#utility.yul\":26766:26775   */\n      dup3\n        /* \"#utility.yul\":26747:26795   */\n      tag_335\n      jump\t// in\n    tag_630:\n        /* \"#utility.yul\":26739:26745   */\n      dup4\n        /* \"#utility.yul\":26732:26796   */\n      sstore\n        /* \"#utility.yul\":26654:26810   */\n      pop\n        /* \"#utility.yul\":26631:26810   */\n    tag_629:\n        /* \"#utility.yul\":26856:26857   */\n      0x01\n        /* \"#utility.yul\":26852:26853   */\n      0x02\n        /* \"#utility.yul\":26844:26850   */\n      dup9\n        /* \"#utility.yul\":26840:26854   */\n      mul\n        /* \"#utility.yul\":26836:26858   */\n      add\n        /* \"#utility.yul\":26830:26834   */\n      dup9\n        /* \"#utility.yul\":26823:26859   */\n      sstore\n        /* \"#utility.yul\":26258:26869   */\n      pop\n      pop\n      pop\n        /* \"#utility.yul\":26221:27108   */\n    tag_621:\n      pop\n        /* \"#utility.yul\":25811:27114   */\n      pop\n      pop\n      pop\n        /* \"#utility.yul\":25719:27114   */\n      pop\n      pop\n      jump\t// out\n        /* \"#utility.yul\":27120:27232   */\n    tag_337:\n        /* \"#utility.yul\":27203:27225   */\n      tag_632\n        /* \"#utility.yul\":27219:27224   */\n      dup2\n        /* \"#utility.yul\":27203:27225   */\n      tag_273\n      jump\t// in\n    tag_632:\n        /* \"#utility.yul\":27198:27201   */\n      dup3\n        /* \"#utility.yul\":27191:27226   */\n      mstore\n        /* \"#utility.yul\":27120:27232   */\n      pop\n      pop\n      jump\t// out\n        /* \"#utility.yul\":27238:27985   */\n    tag_106:\n        /* \"#utility.yul\":27459:27463   */\n      0x00\n        /* \"#utility.yul\":27497:27500   */\n      0xa0\n        /* \"#utility.yul\":27486:27495   */\n      dup3\n        /* \"#utility.yul\":27482:27501   */\n      add\n        /* \"#utility.yul\":27474:27501   */\n      swap1\n      pop\n        /* \"#utility.yul\":27511:27582   */\n      tag_634\n        /* \"#utility.yul\":27579:27580   */\n      0x00\n        /* \"#utility.yul\":27568:27577   */\n      dup4\n        /* \"#utility.yul\":27564:27581   */\n      add\n        /* \"#utility.yul\":27555:27561   */\n      dup9\n        /* \"#utility.yul\":27511:27582   */\n      tag_286\n      jump\t// in\n    tag_634:\n        /* \"#utility.yul\":27629:27638   */\n      dup2\n        /* \"#utility.yul\":27623:27627   */\n      dup2\n        /* \"#utility.yul\":27619:27639   */\n      sub\n        /* \"#utility.yul\":27614:27616   */\n      0x20\n        /* \"#utility.yul\":27603:27612   */\n      dup4\n        /* \"#utility.yul\":27599:27617   */\n      add\n        /* \"#utility.yul\":27592:27640   */\n      mstore\n        /* \"#utility.yul\":27657:27735   */\n      tag_635\n        /* \"#utility.yul\":27730:27734   */\n      dup2\n        /* \"#utility.yul\":27721:27727   */\n      dup8\n        /* \"#utility.yul\":27657:27735   */\n      tag_309\n      jump\t// in\n    tag_635:\n        /* \"#utility.yul\":27649:27735   */\n      swap1\n      pop\n        /* \"#utility.yul\":27745:27813   */\n      tag_636\n        /* \"#utility.yul\":27809:27811   */\n      0x40\n        /* \"#utility.yul\":27798:27807   */\n      dup4\n        /* \"#utility.yul\":27794:27812   */\n      add\n        /* \"#utility.yul\":27785:27791   */\n      dup7\n        /* \"#utility.yul\":27745:27813   */\n      tag_337\n      jump\t// in\n    tag_636:\n        /* \"#utility.yul\":27823:27895   */\n      tag_637\n        /* \"#utility.yul\":27891:27893   */\n      0x60\n        /* \"#utility.yul\":27880:27889   */\n      dup4\n        /* \"#utility.yul\":27876:27894   */\n      add\n        /* \"#utility.yul\":27867:27873   */\n      dup6\n        /* \"#utility.yul\":27823:27895   */\n      tag_286\n      jump\t// in\n    tag_637:\n        /* \"#utility.yul\":27905:27978   */\n      tag_638\n        /* \"#utility.yul\":27973:27976   */\n      0x80\n        /* \"#utility.yul\":27962:27971   */\n      dup4\n        /* \"#utility.yul\":27958:27977   */\n      add\n        /* \"#utility.yul\":27949:27955   */\n      dup5\n        /* \"#utility.yul\":27905:27978   */\n      tag_286\n      jump\t// in\n    tag_638:\n        /* \"#utility.yul\":27238:27985   */\n      swap7\n      swap6\n      pop\n      pop\n      pop\n      pop\n      pop\n      pop\n      jump\t// out\n        /* \"#utility.yul\":27991:28217   */\n    tag_338:\n        /* \"#utility.yul\":28131:28165   */\n      0x45544820746f206c6f636b206d75737420612076616c75652067726561746572\n        /* \"#utility.yul\":28127:28128   */\n      0x00\n        /* \"#utility.yul\":28119:28125   */\n      dup3\n        /* \"#utility.yul\":28115:28129   */\n      add\n        /* \"#utility.yul\":28108:28166   */\n      mstore\n        /* \"#utility.yul\":28200:28209   */\n      0x207468616e203000000000000000000000000000000000000000000000000000\n        /* \"#utility.yul\":28195:28197   */\n      0x20\n        /* \"#utility.yul\":28187:28193   */\n      dup3\n        /* \"#utility.yul\":28183:28198   */\n      add\n        /* \"#utility.yul\":28176:28210   */\n      mstore\n        /* \"#utility.yul\":27991:28217   */\n      pop\n      jump\t// out\n        /* \"#utility.yul\":28223:28589   */\n    tag_339:\n        /* \"#utility.yul\":28365:28368   */\n      0x00\n        /* \"#utility.yul\":28386:28453   */\n      tag_641\n        /* \"#utility.yul\":28450:28452   */\n      0x27\n        /* \"#utility.yul\":28445:28448   */\n      dup4\n        /* \"#utility.yul\":28386:28453   */\n      tag_308\n      jump\t// in\n    tag_641:\n        /* \"#utility.yul\":28379:28453   */\n      swap2\n      pop\n        /* \"#utility.yul\":28462:28555   */\n      tag_642\n        /* \"#utility.yul\":28551:28554   */\n      dup3\n        /* \"#utility.yul\":28462:28555   */\n      tag_338\n      jump\t// in\n    tag_642:\n        /* \"#utility.yul\":28580:28582   */\n      0x40\n        /* \"#utility.yul\":28575:28578   */\n      dup3\n        /* \"#utility.yul\":28571:28583   */\n      add\n        /* \"#utility.yul\":28564:28583   */\n      swap1\n      pop\n        /* \"#utility.yul\":28223:28589   */\n      swap2\n      swap1\n      pop\n      jump\t// out\n        /* \"#utility.yul\":28595:29014   */\n    tag_114:\n        /* \"#utility.yul\":28761:28765   */\n      0x00\n        /* \"#utility.yul\":28799:28801   */\n      0x20\n        /* \"#utility.yul\":28788:28797   */\n      dup3\n        /* \"#utility.yul\":28784:28802   */\n      add\n        /* \"#utility.yul\":28776:28802   */\n      swap1\n      pop\n        /* \"#utility.yul\":28848:28857   */\n      dup2\n        /* \"#utility.yul\":28842:28846   */\n      dup2\n        /* \"#utility.yul\":28838:28858   */\n      sub\n        /* \"#utility.yul\":28834:28835   */\n      0x00\n        /* \"#utility.yul\":28823:28832   */\n      dup4\n        /* \"#utility.yul\":28819:28836   */\n      add\n        /* \"#utility.yul\":28812:28859   */\n      mstore\n        /* \"#utility.yul\":28876:29007   */\n      tag_644\n        /* \"#utility.yul\":29002:29006   */\n      dup2\n        /* \"#utility.yul\":28876:29007   */\n      tag_339\n      jump\t// in\n    tag_644:\n        /* \"#utility.yul\":28868:29007   */\n      swap1\n      pop\n        /* \"#utility.yul\":28595:29014   */\n      swap2\n      swap1\n      pop\n      jump\t// out\n        /* \"#utility.yul\":29020:29247   */\n    tag_340:\n        /* \"#utility.yul\":29160:29194   */\n      0x546865206c6f636b706572696f64206d75737420626520677265617465722074\n        /* \"#utility.yul\":29156:29157   */\n      0x00\n        /* \"#utility.yul\":29148:29154   */\n      dup3\n        /* \"#utility.yul\":29144:29158   */\n      add\n        /* \"#utility.yul\":29137:29195   */\n      mstore\n        /* \"#utility.yul\":29229:29239   */\n      0x68656e207a65726f000000000000000000000000000000000000000000000000\n        /* \"#utility.yul\":29224:29226   */\n      0x20\n        /* \"#utility.yul\":29216:29222   */\n      dup3\n        /* \"#utility.yul\":29212:29227   */\n      add\n        /* \"#utility.yul\":29205:29240   */\n      mstore\n        /* \"#utility.yul\":29020:29247   */\n      pop\n      jump\t// out\n        /* \"#utility.yul\":29253:29619   */\n    tag_341:\n        /* \"#utility.yul\":29395:29398   */\n      0x00\n        /* \"#utility.yul\":29416:29483   */\n      tag_647\n        /* \"#utility.yul\":29480:29482   */\n      0x28\n        /* \"#utility.yul\":29475:29478   */\n      dup4\n        /* \"#utility.yul\":29416:29483   */\n      tag_308\n      jump\t// in\n    tag_647:\n        /* \"#utility.yul\":29409:29483   */\n      swap2\n      pop\n        /* \"#utility.yul\":29492:29585   */\n      tag_648\n        /* \"#utility.yul\":29581:29584   */\n      dup3\n        /* \"#utility.yul\":29492:29585   */\n      tag_340\n      jump\t// in\n    tag_648:\n        /* \"#utility.yul\":29610:29612   */\n      0x40\n        /* \"#utility.yul\":29605:29608   */\n      dup3\n        /* \"#utility.yul\":29601:29613   */\n      add\n        /* \"#utility.yul\":29594:29613   */\n      swap1\n      pop\n        /* \"#utility.yul\":29253:29619   */\n      swap2\n      swap1\n      pop\n      jump\t// out\n        /* \"#utility.yul\":29625:30044   */\n    tag_117:\n        /* \"#utility.yul\":29791:29795   */\n      0x00\n        /* \"#utility.yul\":29829:29831   */\n      0x20\n        /* \"#utility.yul\":29818:29827   */\n      dup3\n        /* \"#utility.yul\":29814:29832   */\n      add\n        /* \"#utility.yul\":29806:29832   */\n      swap1\n      pop\n        /* \"#utility.yul\":29878:29887   */\n      dup2\n        /* \"#utility.yul\":29872:29876   */\n      dup2\n        /* \"#utility.yul\":29868:29888   */\n      sub\n        /* \"#utility.yul\":29864:29865   */\n      0x00\n        /* \"#utility.yul\":29853:29862   */\n      dup4\n        /* \"#utility.yul\":29849:29866   */\n      add\n        /* \"#utility.yul\":29842:29889   */\n      mstore\n        /* \"#utility.yul\":29906:30037   */\n      tag_650\n        /* \"#utility.yul\":30032:30036   */\n      dup2\n        /* \"#utility.yul\":29906:30037   */\n      tag_341\n      jump\t// in\n    tag_650:\n        /* \"#utility.yul\":29898:30037   */\n      swap1\n      pop\n        /* \"#utility.yul\":29625:30044   */\n      swap2\n      swap1\n      pop\n      jump\t// out\n        /* \"#utility.yul\":30050:30230   */\n    tag_139:\n        /* \"#utility.yul\":30098:30175   */\n      0x4e487b7100000000000000000000000000000000000000000000000000000000\n        /* \"#utility.yul\":30095:30096   */\n      0x00\n        /* \"#utility.yul\":30088:30176   */\n      mstore\n        /* \"#utility.yul\":30195:30199   */\n      0x32\n        /* \"#utility.yul\":30192:30193   */\n      0x04\n        /* \"#utility.yul\":30185:30200   */\n      mstore\n        /* \"#utility.yul\":30219:30223   */\n      0x24\n        /* \"#utility.yul\":30216:30217   */\n      0x00\n        /* \"#utility.yul\":30209:30224   */\n      revert\n        /* \"#utility.yul\":30260:31091   */\n    tag_342:\n        /* \"#utility.yul\":30345:30348   */\n      0x00\n        /* \"#utility.yul\":30382:30387   */\n      dup2\n        /* \"#utility.yul\":30376:30388   */\n      sload\n        /* \"#utility.yul\":30411:30447   */\n      tag_653\n        /* \"#utility.yul\":30437:30446   */\n      dup2\n        /* \"#utility.yul\":30411:30447   */\n      tag_153\n      jump\t// in\n    tag_653:\n        /* \"#utility.yul\":30463:30534   */\n      tag_654\n        /* \"#utility.yul\":30527:30533   */\n      dup2\n        /* \"#utility.yul\":30522:30525   */\n      dup7\n        /* \"#utility.yul\":30463:30534   */\n      tag_308\n      jump\t// in\n    tag_654:\n        /* \"#utility.yul\":30456:30534   */\n      swap5\n      pop\n        /* \"#utility.yul\":30565:30566   */\n      0x01\n        /* \"#utility.yul\":30554:30563   */\n      dup3\n        /* \"#utility.yul\":30550:30567   */\n      and\n        /* \"#utility.yul\":30581:30582   */\n      0x00\n        /* \"#utility.yul\":30576:30740   */\n      dup2\n      eq\n      tag_656\n      jumpi\n        /* \"#utility.yul\":30754:30755   */\n      0x01\n        /* \"#utility.yul\":30749:31085   */\n      dup2\n      eq\n      tag_657\n      jumpi\n        /* \"#utility.yul\":30543:31085   */\n      jump(tag_655)\n        /* \"#utility.yul\":30576:30740   */\n    tag_656:\n        /* \"#utility.yul\":30660:30664   */\n      0xff\n        /* \"#utility.yul\":30656:30665   */\n      not\n        /* \"#utility.yul\":30645:30654   */\n      dup4\n        /* \"#utility.yul\":30641:30666   */\n      and\n        /* \"#utility.yul\":30636:30639   */\n      dup7\n        /* \"#utility.yul\":30629:30667   */\n      mstore\n        /* \"#utility.yul\":30720:30726   */\n      dup2\n        /* \"#utility.yul\":30713:30727   */\n      iszero\n        /* \"#utility.yul\":30706:30728   */\n      iszero\n        /* \"#utility.yul\":30700:30704   */\n      0x20\n        /* \"#utility.yul\":30696:30729   */\n      mul\n        /* \"#utility.yul\":30691:30694   */\n      dup7\n        /* \"#utility.yul\":30687:30730   */\n      add\n        /* \"#utility.yul\":30680:30730   */\n      swap4\n      pop\n        /* \"#utility.yul\":30576:30740   */\n      jump(tag_655)\n        /* \"#utility.yul\":30749:31085   */\n    tag_657:\n        /* \"#utility.yul\":30816:30854   */\n      tag_658\n        /* \"#utility.yul\":30848:30853   */\n      dup6\n        /* \"#utility.yul\":30816:30854   */\n      tag_322\n      jump\t// in\n    tag_658:\n        /* \"#utility.yul\":30876:30877   */\n      0x00\n        /* \"#utility.yul\":30890:31044   */\n    tag_659:\n        /* \"#utility.yul\":30904:30910   */\n      dup4\n        /* \"#utility.yul\":30901:30902   */\n      dup2\n        /* \"#utility.yul\":30898:30911   */\n      lt\n        /* \"#utility.yul\":30890:31044   */\n      iszero\n      tag_661\n      jumpi\n        /* \"#utility.yul\":30978:30985   */\n      dup2\n        /* \"#utility.yul\":30972:30986   */\n      sload\n        /* \"#utility.yul\":30968:30969   */\n      dup2\n        /* \"#utility.yul\":30963:30966   */\n      dup10\n        /* \"#utility.yul\":30959:30970   */\n      add\n        /* \"#utility.yul\":30952:30987   */\n      mstore\n        /* \"#utility.yul\":31028:31029   */\n      0x01\n        /* \"#utility.yul\":31019:31026   */\n      dup3\n        /* \"#utility.yul\":31015:31030   */\n      add\n        /* \"#utility.yul\":31004:31030   */\n      swap2\n      pop\n        /* \"#utility.yul\":30926:30930   */\n      0x20\n        /* \"#utility.yul\":30923:30924   */\n      dup2\n        /* \"#utility.yul\":30919:30931   */\n      add\n        /* \"#utility.yul\":30914:30931   */\n      swap1\n      pop\n        /* \"#utility.yul\":30890:31044   */\n      jump(tag_659)\n    tag_661:\n        /* \"#utility.yul\":31073:31074   */\n      dup1\n        /* \"#utility.yul\":31068:31071   */\n      dup9\n        /* \"#utility.yul\":31064:31075   */\n      add\n        /* \"#utility.yul\":31057:31075   */\n      swap6\n      pop\n        /* \"#utility.yul\":30756:31085   */\n      pop\n      pop\n        /* \"#utility.yul\":30543:31085   */\n    tag_655:\n      pop\n        /* \"#utility.yul\":30349:31091   */\n      pop\n      pop\n        /* \"#utility.yul\":30260:31091   */\n      swap3\n      swap2\n      pop\n      pop\n      jump\t// out\n        /* \"#utility.yul\":31097:31727   */\n    tag_146:\n        /* \"#utility.yul\":31287:31291   */\n      0x00\n        /* \"#utility.yul\":31325:31328   */\n      0x80\n        /* \"#utility.yul\":31314:31323   */\n      dup3\n        /* \"#utility.yul\":31310:31329   */\n      add\n        /* \"#utility.yul\":31302:31329   */\n      swap1\n      pop\n        /* \"#utility.yul\":31339:31410   */\n      tag_663\n        /* \"#utility.yul\":31407:31408   */\n      0x00\n        /* \"#utility.yul\":31396:31405   */\n      dup4\n        /* \"#utility.yul\":31392:31409   */\n      add\n        /* \"#utility.yul\":31383:31389   */\n      dup8\n        /* \"#utility.yul\":31339:31410   */\n      tag_286\n      jump\t// in\n    tag_663:\n        /* \"#utility.yul\":31457:31466   */\n      dup2\n        /* \"#utility.yul\":31451:31455   */\n      dup2\n        /* \"#utility.yul\":31447:31467   */\n      sub\n        /* \"#utility.yul\":31442:31444   */\n      0x20\n        /* \"#utility.yul\":31431:31440   */\n      dup4\n        /* \"#utility.yul\":31427:31445   */\n      add\n        /* \"#utility.yul\":31420:31468   */\n      mstore\n        /* \"#utility.yul\":31485:31560   */\n      tag_664\n        /* \"#utility.yul\":31555:31559   */\n      dup2\n        /* \"#utility.yul\":31546:31552   */\n      dup7\n        /* \"#utility.yul\":31485:31560   */\n      tag_342\n      jump\t// in\n    tag_664:\n        /* \"#utility.yul\":31477:31560   */\n      swap1\n      pop\n        /* \"#utility.yul\":31570:31638   */\n      tag_665\n        /* \"#utility.yul\":31634:31636   */\n      0x40\n        /* \"#utility.yul\":31623:31632   */\n      dup4\n        /* \"#utility.yul\":31619:31637   */\n      add\n        /* \"#utility.yul\":31610:31616   */\n      dup6\n        /* \"#utility.yul\":31570:31638   */\n      tag_337\n      jump\t// in\n    tag_665:\n        /* \"#utility.yul\":31648:31720   */\n      tag_666\n        /* \"#utility.yul\":31716:31718   */\n      0x60\n        /* \"#utility.yul\":31705:31714   */\n      dup4\n        /* \"#utility.yul\":31701:31719   */\n      add\n        /* \"#utility.yul\":31692:31698   */\n      dup5\n        /* \"#utility.yul\":31648:31720   */\n      tag_286\n      jump\t// in\n    tag_666:\n        /* \"#utility.yul\":31097:31727   */\n      swap6\n      swap5\n      pop\n      pop\n      pop\n      pop\n      pop\n      jump\t// out\n        /* \"#utility.yul\":31733:31954   */\n    tag_343:\n        /* \"#utility.yul\":31873:31907   */\n      0x5468652073706563696669656420617373657420494420697320696e76616c69\n        /* \"#utility.yul\":31869:31870   */\n      0x00\n        /* \"#utility.yul\":31861:31867   */\n      dup3\n        /* \"#utility.yul\":31857:31871   */\n      add\n        /* \"#utility.yul\":31850:31908   */\n      mstore\n        /* \"#utility.yul\":31942:31946   */\n      0x642e000000000000000000000000000000000000000000000000000000000000\n        /* \"#utility.yul\":31937:31939   */\n      0x20\n        /* \"#utility.yul\":31929:31935   */\n      dup3\n        /* \"#utility.yul\":31925:31940   */\n      add\n        /* \"#utility.yul\":31918:31947   */\n      mstore\n        /* \"#utility.yul\":31733:31954   */\n      pop\n      jump\t// out\n        /* \"#utility.yul\":31960:32326   */\n    tag_344:\n        /* \"#utility.yul\":32102:32105   */\n      0x00\n        /* \"#utility.yul\":32123:32190   */\n      tag_669\n        /* \"#utility.yul\":32187:32189   */\n      0x22\n        /* \"#utility.yul\":32182:32185   */\n      dup4\n        /* \"#utility.yul\":32123:32190   */\n      tag_308\n      jump\t// in\n    tag_669:\n        /* \"#utility.yul\":32116:32190   */\n      swap2\n      pop\n        /* \"#utility.yul\":32199:32292   */\n      tag_670\n        /* \"#utility.yul\":32288:32291   */\n      dup3\n        /* \"#utility.yul\":32199:32292   */\n      tag_343\n      jump\t// in\n    tag_670:\n        /* \"#utility.yul\":32317:32319   */\n      0x40\n        /* \"#utility.yul\":32312:32315   */\n      dup3\n        /* \"#utility.yul\":32308:32320   */\n      add\n        /* \"#utility.yul\":32301:32320   */\n      swap1\n      pop\n        /* \"#utility.yul\":31960:32326   */\n      swap2\n      swap1\n      pop\n      jump\t// out\n        /* \"#utility.yul\":32332:32751   */\n    tag_178:\n        /* \"#utility.yul\":32498:32502   */\n      0x00\n        /* \"#utility.yul\":32536:32538   */\n      0x20\n        /* \"#utility.yul\":32525:32534   */\n      dup3\n        /* \"#utility.yul\":32521:32539   */\n      add\n        /* \"#utility.yul\":32513:32539   */\n      swap1\n      pop\n        /* \"#utility.yul\":32585:32594   */\n      dup2\n        /* \"#utility.yul\":32579:32583   */\n      dup2\n        /* \"#utility.yul\":32575:32595   */\n      sub\n        /* \"#utility.yul\":32571:32572   */\n      0x00\n        /* \"#utility.yul\":32560:32569   */\n      dup4\n        /* \"#utility.yul\":32556:32573   */\n      add\n        /* \"#utility.yul\":32549:32596   */\n      mstore\n        /* \"#utility.yul\":32613:32744   */\n      tag_672\n        /* \"#utility.yul\":32739:32743   */\n      dup2\n        /* \"#utility.yul\":32613:32744   */\n      tag_344\n      jump\t// in\n    tag_672:\n        /* \"#utility.yul\":32605:32744   */\n      swap1\n      pop\n        /* \"#utility.yul\":32332:32751   */\n      swap2\n      swap1\n      pop\n      jump\t// out\n        /* \"#utility.yul\":32757:32979   */\n    tag_345:\n        /* \"#utility.yul\":32897:32931   */\n      0x417373657473206861766520616c7265616479206265656e2077697468647261\n        /* \"#utility.yul\":32893:32894   */\n      0x00\n        /* \"#utility.yul\":32885:32891   */\n      dup3\n        /* \"#utility.yul\":32881:32895   */\n      add\n        /* \"#utility.yul\":32874:32932   */\n      mstore\n        /* \"#utility.yul\":32966:32971   */\n      0x776e210000000000000000000000000000000000000000000000000000000000\n        /* \"#utility.yul\":32961:32963   */\n      0x20\n        /* \"#utility.yul\":32953:32959   */\n      dup3\n        /* \"#utility.yul\":32949:32964   */\n      add\n        /* \"#utility.yul\":32942:32972   */\n      mstore\n        /* \"#utility.yul\":32757:32979   */\n      pop\n      jump\t// out\n        /* \"#utility.yul\":32985:33351   */\n    tag_346:\n        /* \"#utility.yul\":33127:33130   */\n      0x00\n        /* \"#utility.yul\":33148:33215   */\n      tag_675\n        /* \"#utility.yul\":33212:33214   */\n      0x23\n        /* \"#utility.yul\":33207:33210   */\n      dup4\n        /* \"#utility.yul\":33148:33215   */\n      tag_308\n      jump\t// in\n    tag_675:\n        /* \"#utility.yul\":33141:33215   */\n      swap2\n      pop\n        /* \"#utility.yul\":33224:33317   */\n      tag_676\n        /* \"#utility.yul\":33313:33316   */\n      dup3\n        /* \"#utility.yul\":33224:33317   */\n      tag_345\n      jump\t// in\n    tag_676:\n        /* \"#utility.yul\":33342:33344   */\n      0x40\n        /* \"#utility.yul\":33337:33340   */\n      dup3\n        /* \"#utility.yul\":33333:33345   */\n      add\n        /* \"#utility.yul\":33326:33345   */\n      swap1\n      pop\n        /* \"#utility.yul\":32985:33351   */\n      swap2\n      swap1\n      pop\n      jump\t// out\n        /* \"#utility.yul\":33357:33776   */\n    tag_184:\n        /* \"#utility.yul\":33523:33527   */\n      0x00\n        /* \"#utility.yul\":33561:33563   */\n      0x20\n        /* \"#utility.yul\":33550:33559   */\n      dup3\n        /* \"#utility.yul\":33546:33564   */\n      add\n        /* \"#utility.yul\":33538:33564   */\n      swap1\n      pop\n        /* \"#utility.yul\":33610:33619   */\n      dup2\n        /* \"#utility.yul\":33604:33608   */\n      dup2\n        /* \"#utility.yul\":33600:33620   */\n      sub\n        /* \"#utility.yul\":33596:33597   */\n      0x00\n        /* \"#utility.yul\":33585:33594   */\n      dup4\n        /* \"#utility.yul\":33581:33598   */\n      add\n        /* \"#utility.yul\":33574:33621   */\n      mstore\n        /* \"#utility.yul\":33638:33769   */\n      tag_678\n        /* \"#utility.yul\":33764:33768   */\n      dup2\n        /* \"#utility.yul\":33638:33769   */\n      tag_346\n      jump\t// in\n    tag_678:\n        /* \"#utility.yul\":33630:33769   */\n      swap1\n      pop\n        /* \"#utility.yul\":33357:33776   */\n      swap2\n      swap1\n      pop\n      jump\t// out\n        /* \"#utility.yul\":33782:34005   */\n    tag_347:\n        /* \"#utility.yul\":33922:33956   */\n      0x546865206c6f636b20706572696f6420686173206e6f74207965742065787069\n        /* \"#utility.yul\":33918:33919   */\n      0x00\n        /* \"#utility.yul\":33910:33916   */\n      dup3\n        /* \"#utility.yul\":33906:33920   */\n      add\n        /* \"#utility.yul\":33899:33957   */\n      mstore\n        /* \"#utility.yul\":33991:33997   */\n      0x7265642100000000000000000000000000000000000000000000000000000000\n        /* \"#utility.yul\":33986:33988   */\n      0x20\n        /* \"#utility.yul\":33978:33984   */\n      dup3\n        /* \"#utility.yul\":33974:33989   */\n      add\n        /* \"#utility.yul\":33967:33998   */\n      mstore\n        /* \"#utility.yul\":33782:34005   */\n      pop\n      jump\t// out\n        /* \"#utility.yul\":34011:34377   */\n    tag_348:\n        /* \"#utility.yul\":34153:34156   */\n      0x00\n        /* \"#utility.yul\":34174:34241   */\n      tag_681\n        /* \"#utility.yul\":34238:34240   */\n      0x24\n        /* \"#utility.yul\":34233:34236   */\n      dup4\n        /* \"#utility.yul\":34174:34241   */\n      tag_308\n      jump\t// in\n    tag_681:\n        /* \"#utility.yul\":34167:34241   */\n      swap2\n      pop\n        /* \"#utility.yul\":34250:34343   */\n      tag_682\n        /* \"#utility.yul\":34339:34342   */\n      dup3\n        /* \"#utility.yul\":34250:34343   */\n      tag_347\n      jump\t// in\n    tag_682:\n        /* \"#utility.yul\":34368:34370   */\n      0x40\n        /* \"#utility.yul\":34363:34366   */\n      dup3\n        /* \"#utility.yul\":34359:34371   */\n      add\n        /* \"#utility.yul\":34352:34371   */\n      swap1\n      pop\n        /* \"#utility.yul\":34011:34377   */\n      swap2\n      swap1\n      pop\n      jump\t// out\n        /* \"#utility.yul\":34383:34802   */\n    tag_187:\n        /* \"#utility.yul\":34549:34553   */\n      0x00\n        /* \"#utility.yul\":34587:34589   */\n      0x20\n        /* \"#utility.yul\":34576:34585   */\n      dup3\n        /* \"#utility.yul\":34572:34590   */\n      add\n        /* \"#utility.yul\":34564:34590   */\n      swap1\n      pop\n        /* \"#utility.yul\":34636:34645   */\n      dup2\n        /* \"#utility.yul\":34630:34634   */\n      dup2\n        /* \"#utility.yul\":34626:34646   */\n      sub\n        /* \"#utility.yul\":34622:34623   */\n      0x00\n        /* \"#utility.yul\":34611:34620   */\n      dup4\n        /* \"#utility.yul\":34607:34624   */\n      add\n        /* \"#utility.yul\":34600:34647   */\n      mstore\n        /* \"#utility.yul\":34664:34795   */\n      tag_684\n        /* \"#utility.yul\":34790:34794   */\n      dup2\n        /* \"#utility.yul\":34664:34795   */\n      tag_348\n      jump\t// in\n    tag_684:\n        /* \"#utility.yul\":34656:34795   */\n      swap1\n      pop\n        /* \"#utility.yul\":34383:34802   */\n      swap2\n      swap1\n      pop\n      jump\t// out\n        /* \"#utility.yul\":34808:35002   */\n    tag_189:\n        /* \"#utility.yul\":34848:34852   */\n      0x00\n        /* \"#utility.yul\":34868:34888   */\n      tag_686\n        /* \"#utility.yul\":34886:34887   */\n      dup3\n        /* \"#utility.yul\":34868:34888   */\n      tag_270\n      jump\t// in\n    tag_686:\n        /* \"#utility.yul\":34863:34888   */\n      swap2\n      pop\n        /* \"#utility.yul\":34902:34922   */\n      tag_687\n        /* \"#utility.yul\":34920:34921   */\n      dup4\n        /* \"#utility.yul\":34902:34922   */\n      tag_270\n      jump\t// in\n    tag_687:\n        /* \"#utility.yul\":34897:34922   */\n      swap3\n      pop\n        /* \"#utility.yul\":34946:34947   */\n      dup3\n        /* \"#utility.yul\":34943:34944   */\n      dup3\n        /* \"#utility.yul\":34939:34948   */\n      sub\n        /* \"#utility.yul\":34931:34948   */\n      swap1\n      pop\n        /* \"#utility.yul\":34970:34971   */\n      dup2\n        /* \"#utility.yul\":34964:34968   */\n      dup2\n        /* \"#utility.yul\":34961:34972   */\n      gt\n        /* \"#utility.yul\":34958:34995   */\n      iszero\n      tag_688\n      jumpi\n        /* \"#utility.yul\":34975:34993   */\n      tag_689\n      tag_320\n      jump\t// in\n    tag_689:\n        /* \"#utility.yul\":34958:34995   */\n    tag_688:\n        /* \"#utility.yul\":34808:35002   */\n      swap3\n      swap2\n      pop\n      pop\n      jump\t// out\n        /* \"#utility.yul\":35008:35188   */\n    tag_349:\n        /* \"#utility.yul\":35148:35180   */\n      0x4e6f7420656e6f7567682061737365747320746f207769746864726177210000\n        /* \"#utility.yul\":35144:35145   */\n      0x00\n        /* \"#utility.yul\":35136:35142   */\n      dup3\n        /* \"#utility.yul\":35132:35146   */\n      add\n        /* \"#utility.yul\":35125:35181   */\n      mstore\n        /* \"#utility.yul\":35008:35188   */\n      pop\n      jump\t// out\n        /* \"#utility.yul\":35194:35560   */\n    tag_350:\n        /* \"#utility.yul\":35336:35339   */\n      0x00\n        /* \"#utility.yul\":35357:35424   */\n      tag_692\n        /* \"#utility.yul\":35421:35423   */\n      0x1e\n        /* \"#utility.yul\":35416:35419   */\n      dup4\n        /* \"#utility.yul\":35357:35424   */\n      tag_308\n      jump\t// in\n    tag_692:\n        /* \"#utility.yul\":35350:35424   */\n      swap2\n      pop\n        /* \"#utility.yul\":35433:35526   */\n      tag_693\n        /* \"#utility.yul\":35522:35525   */\n      dup3\n        /* \"#utility.yul\":35433:35526   */\n      tag_349\n      jump\t// in\n    tag_693:\n        /* \"#utility.yul\":35551:35553   */\n      0x20\n        /* \"#utility.yul\":35546:35549   */\n      dup3\n        /* \"#utility.yul\":35542:35554   */\n      add\n        /* \"#utility.yul\":35535:35554   */\n      swap1\n      pop\n        /* \"#utility.yul\":35194:35560   */\n      swap2\n      swap1\n      pop\n      jump\t// out\n        /* \"#utility.yul\":35566:35985   */\n    tag_192:\n        /* \"#utility.yul\":35732:35736   */\n      0x00\n        /* \"#utility.yul\":35770:35772   */\n      0x20\n        /* \"#utility.yul\":35759:35768   */\n      dup3\n        /* \"#utility.yul\":35755:35773   */\n      add\n        /* \"#utility.yul\":35747:35773   */\n      swap1\n      pop\n        /* \"#utility.yul\":35819:35828   */\n      dup2\n        /* \"#utility.yul\":35813:35817   */\n      dup2\n        /* \"#utility.yul\":35809:35829   */\n      sub\n        /* \"#utility.yul\":35805:35806   */\n      0x00\n        /* \"#utility.yul\":35794:35803   */\n      dup4\n        /* \"#utility.yul\":35790:35807   */\n      add\n        /* \"#utility.yul\":35783:35830   */\n      mstore\n        /* \"#utility.yul\":35847:35978   */\n      tag_695\n        /* \"#utility.yul\":35973:35977   */\n      dup2\n        /* \"#utility.yul\":35847:35978   */\n      tag_350\n      jump\t// in\n    tag_695:\n        /* \"#utility.yul\":35839:35978   */\n      swap1\n      pop\n        /* \"#utility.yul\":35566:35985   */\n      swap2\n      swap1\n      pop\n      jump\t// out\n        /* \"#utility.yul\":35991:36138   */\n    tag_351:\n        /* \"#utility.yul\":36092:36103   */\n      0x00\n        /* \"#utility.yul\":36129:36132   */\n      dup2\n        /* \"#utility.yul\":36114:36132   */\n      swap1\n      pop\n        /* \"#utility.yul\":35991:36138   */\n      swap3\n      swap2\n      pop\n      pop\n      jump\t// out\n        /* \"#utility.yul\":36144:36258   */\n    tag_352:\n      pop\n      jump\t// out\n        /* \"#utility.yul\":36264:36662   */\n    tag_353:\n        /* \"#utility.yul\":36423:36426   */\n      0x00\n        /* \"#utility.yul\":36444:36527   */\n      tag_699\n        /* \"#utility.yul\":36525:36526   */\n      0x00\n        /* \"#utility.yul\":36520:36523   */\n      dup4\n        /* \"#utility.yul\":36444:36527   */\n      tag_351\n      jump\t// in\n    tag_699:\n        /* \"#utility.yul\":36437:36527   */\n      swap2\n      pop\n        /* \"#utility.yul\":36536:36629   */\n      tag_700\n        /* \"#utility.yul\":36625:36628   */\n      dup3\n        /* \"#utility.yul\":36536:36629   */\n      tag_352\n      jump\t// in\n    tag_700:\n        /* \"#utility.yul\":36654:36655   */\n      0x00\n        /* \"#utility.yul\":36649:36652   */\n      dup3\n        /* \"#utility.yul\":36645:36656   */\n      add\n        /* \"#utility.yul\":36638:36656   */\n      swap1\n      pop\n        /* \"#utility.yul\":36264:36662   */\n      swap2\n      swap1\n      pop\n      jump\t// out\n        /* \"#utility.yul\":36668:37047   */\n    tag_202:\n        /* \"#utility.yul\":36852:36855   */\n      0x00\n        /* \"#utility.yul\":36874:37021   */\n      tag_702\n        /* \"#utility.yul\":37017:37020   */\n      dup3\n        /* \"#utility.yul\":36874:37021   */\n      tag_353\n      jump\t// in\n    tag_702:\n        /* \"#utility.yul\":36867:37021   */\n      swap2\n      pop\n        /* \"#utility.yul\":37038:37041   */\n      dup2\n        /* \"#utility.yul\":37031:37041   */\n      swap1\n      pop\n        /* \"#utility.yul\":36668:37047   */\n      swap2\n      swap1\n      pop\n      jump\t// out\n        /* \"#utility.yul\":37053:37222   */\n    tag_354:\n        /* \"#utility.yul\":37193:37214   */\n      0x455448207472616e73666572206661696c656400000000000000000000000000\n        /* \"#utility.yul\":37189:37190   */\n      0x00\n        /* \"#utility.yul\":37181:37187   */\n      dup3\n        /* \"#utility.yul\":37177:37191   */\n      add\n        /* \"#utility.yul\":37170:37215   */\n      mstore\n        /* \"#utility.yul\":37053:37222   */\n      pop\n      jump\t// out\n        /* \"#utility.yul\":37228:37594   */\n    tag_355:\n        /* \"#utility.yul\":37370:37373   */\n      0x00\n        /* \"#utility.yul\":37391:37458   */\n      tag_705\n        /* \"#utility.yul\":37455:37457   */\n      0x13\n        /* \"#utility.yul\":37450:37453   */\n      dup4\n        /* \"#utility.yul\":37391:37458   */\n      tag_308\n      jump\t// in\n    tag_705:\n        /* \"#utility.yul\":37384:37458   */\n      swap2\n      pop\n        /* \"#utility.yul\":37467:37560   */\n      tag_706\n        /* \"#utility.yul\":37556:37559   */\n      dup3\n        /* \"#utility.yul\":37467:37560   */\n      tag_354\n      jump\t// in\n    tag_706:\n        /* \"#utility.yul\":37585:37587   */\n      0x20\n        /* \"#utility.yul\":37580:37583   */\n      dup3\n        /* \"#utility.yul\":37576:37588   */\n      add\n        /* \"#utility.yul\":37569:37588   */\n      swap1\n      pop\n        /* \"#utility.yul\":37228:37594   */\n      swap2\n      swap1\n      pop\n      jump\t// out\n        /* \"#utility.yul\":37600:38019   */\n    tag_208:\n        /* \"#utility.yul\":37766:37770   */\n      0x00\n        /* \"#utility.yul\":37804:37806   */\n      0x20\n        /* \"#utility.yul\":37793:37802   */\n      dup3\n        /* \"#utility.yul\":37789:37807   */\n      add\n        /* \"#utility.yul\":37781:37807   */\n      swap1\n      pop\n        /* \"#utility.yul\":37853:37862   */\n      dup2\n        /* \"#utility.yul\":37847:37851   */\n      dup2\n        /* \"#utility.yul\":37843:37863   */\n      sub\n        /* \"#utility.yul\":37839:37840   */\n      0x00\n        /* \"#utility.yul\":37828:37837   */\n      dup4\n        /* \"#utility.yul\":37824:37841   */\n      add\n        /* \"#utility.yul\":37817:37864   */\n      mstore\n        /* \"#utility.yul\":37881:38012   */\n      tag_708\n        /* \"#utility.yul\":38007:38011   */\n      dup2\n        /* \"#utility.yul\":37881:38012   */\n      tag_355\n      jump\t// in\n    tag_708:\n        /* \"#utility.yul\":37873:38012   */\n      swap1\n      pop\n        /* \"#utility.yul\":37600:38019   */\n      swap2\n      swap1\n      pop\n      jump\t// out\n        /* \"#utility.yul\":38025:38263   */\n    tag_356:\n        /* \"#utility.yul\":38165:38199   */\n      0x45544820746f2061646420746f206c6f636b206d75737420626520616e20616d\n        /* \"#utility.yul\":38161:38162   */\n      0x00\n        /* \"#utility.yul\":38153:38159   */\n      dup3\n        /* \"#utility.yul\":38149:38163   */\n      add\n        /* \"#utility.yul\":38142:38200   */\n      mstore\n        /* \"#utility.yul\":38234:38255   */\n      0x6f756e742067726561746572207468616e203000000000000000000000000000\n        /* \"#utility.yul\":38229:38231   */\n      0x20\n        /* \"#utility.yul\":38221:38227   */\n      dup3\n        /* \"#utility.yul\":38217:38232   */\n      add\n        /* \"#utility.yul\":38210:38256   */\n      mstore\n        /* \"#utility.yul\":38025:38263   */\n      pop\n      jump\t// out\n        /* \"#utility.yul\":38269:38635   */\n    tag_357:\n        /* \"#utility.yul\":38411:38414   */\n      0x00\n        /* \"#utility.yul\":38432:38499   */\n      tag_711\n        /* \"#utility.yul\":38496:38498   */\n      0x33\n        /* \"#utility.yul\":38491:38494   */\n      dup4\n        /* \"#utility.yul\":38432:38499   */\n      tag_308\n      jump\t// in\n    tag_711:\n        /* \"#utility.yul\":38425:38499   */\n      swap2\n      pop\n        /* \"#utility.yul\":38508:38601   */\n      tag_712\n        /* \"#utility.yul\":38597:38600   */\n      dup3\n        /* \"#utility.yul\":38508:38601   */\n      tag_356\n      jump\t// in\n    tag_712:\n        /* \"#utility.yul\":38626:38628   */\n      0x40\n        /* \"#utility.yul\":38621:38624   */\n      dup3\n        /* \"#utility.yul\":38617:38629   */\n      add\n        /* \"#utility.yul\":38610:38629   */\n      swap1\n      pop\n        /* \"#utility.yul\":38269:38635   */\n      swap2\n      swap1\n      pop\n      jump\t// out\n        /* \"#utility.yul\":38641:39060   */\n    tag_219:\n        /* \"#utility.yul\":38807:38811   */\n      0x00\n        /* \"#utility.yul\":38845:38847   */\n      0x20\n        /* \"#utility.yul\":38834:38843   */\n      dup3\n        /* \"#utility.yul\":38830:38848   */\n      add\n        /* \"#utility.yul\":38822:38848   */\n      swap1\n      pop\n        /* \"#utility.yul\":38894:38903   */\n      dup2\n        /* \"#utility.yul\":38888:38892   */\n      dup2\n        /* \"#utility.yul\":38884:38904   */\n      sub\n        /* \"#utility.yul\":38880:38881   */\n      0x00\n        /* \"#utility.yul\":38869:38878   */\n      dup4\n        /* \"#utility.yul\":38865:38882   */\n      add\n        /* \"#utility.yul\":38858:38905   */\n      mstore\n        /* \"#utility.yul\":38922:39053   */\n      tag_714\n        /* \"#utility.yul\":39048:39052   */\n      dup2\n        /* \"#utility.yul\":38922:39053   */\n      tag_357\n      jump\t// in\n    tag_714:\n        /* \"#utility.yul\":38914:39053   */\n      swap1\n      pop\n        /* \"#utility.yul\":38641:39060   */\n      swap2\n      swap1\n      pop\n      jump\t// out\n        /* \"#utility.yul\":39066:39508   */\n    tag_240:\n        /* \"#utility.yul\":39215:39219   */\n      0x00\n        /* \"#utility.yul\":39253:39255   */\n      0x60\n        /* \"#utility.yul\":39242:39251   */\n      dup3\n        /* \"#utility.yul\":39238:39256   */\n      add\n        /* \"#utility.yul\":39230:39256   */\n      swap1\n      pop\n        /* \"#utility.yul\":39266:39337   */\n      tag_716\n        /* \"#utility.yul\":39334:39335   */\n      0x00\n        /* \"#utility.yul\":39323:39332   */\n      dup4\n        /* \"#utility.yul\":39319:39336   */\n      add\n        /* \"#utility.yul\":39310:39316   */\n      dup7\n        /* \"#utility.yul\":39266:39337   */\n      tag_305\n      jump\t// in\n    tag_716:\n        /* \"#utility.yul\":39347:39419   */\n      tag_717\n        /* \"#utility.yul\":39415:39417   */\n      0x20\n        /* \"#utility.yul\":39404:39413   */\n      dup4\n        /* \"#utility.yul\":39400:39418   */\n      add\n        /* \"#utility.yul\":39391:39397   */\n      dup6\n        /* \"#utility.yul\":39347:39419   */\n      tag_305\n      jump\t// in\n    tag_717:\n        /* \"#utility.yul\":39429:39501   */\n      tag_718\n        /* \"#utility.yul\":39497:39499   */\n      0x40\n        /* \"#utility.yul\":39486:39495   */\n      dup4\n        /* \"#utility.yul\":39482:39500   */\n      add\n        /* \"#utility.yul\":39473:39479   */\n      dup5\n        /* \"#utility.yul\":39429:39501   */\n      tag_286\n      jump\t// in\n    tag_718:\n        /* \"#utility.yul\":39066:39508   */\n      swap5\n      swap4\n      pop\n      pop\n      pop\n      pop\n      jump\t// out\n        /* \"#utility.yul\":39514:39846   */\n    tag_254:\n        /* \"#utility.yul\":39635:39639   */\n      0x00\n        /* \"#utility.yul\":39673:39675   */\n      0x40\n        /* \"#utility.yul\":39662:39671   */\n      dup3\n        /* \"#utility.yul\":39658:39676   */\n      add\n        /* \"#utility.yul\":39650:39676   */\n      swap1\n      pop\n        /* \"#utility.yul\":39686:39757   */\n      tag_720\n        /* \"#utility.yul\":39754:39755   */\n      0x00\n        /* \"#utility.yul\":39743:39752   */\n      dup4\n        /* \"#utility.yul\":39739:39756   */\n      add\n        /* \"#utility.yul\":39730:39736   */\n      dup6\n        /* \"#utility.yul\":39686:39757   */\n      tag_305\n      jump\t// in\n    tag_720:\n        /* \"#utility.yul\":39767:39839   */\n      tag_721\n        /* \"#utility.yul\":39835:39837   */\n      0x20\n        /* \"#utility.yul\":39824:39833   */\n      dup4\n        /* \"#utility.yul\":39820:39838   */\n      add\n        /* \"#utility.yul\":39811:39817   */\n      dup5\n        /* \"#utility.yul\":39767:39839   */\n      tag_286\n      jump\t// in\n    tag_721:\n        /* \"#utility.yul\":39514:39846   */\n      swap4\n      swap3\n      pop\n      pop\n      pop\n      jump\t// out\n\n    auxdata: 0xa2646970667358221220c8832c6a44d210a15f335cfc3c21b99739b5a6ae2fd823576f90e6fd342a5dca64736f6c634300081a0033\n}\n",
				"bytecode": {
					"linkReferences": {},
					"object": "608060405234801561000f575f80fd5b50335f73ffffffffffffffffffffffffffffffffffffffff168173ffffffffffffffffffffffffffffffffffffffff1603610081575f6040517f1e4fbdf7000000000000000000000000000000000000000000000000000000008152600401610078919061019d565b60405180910390fd5b6100908161009d60201b60201c565b50600180819055506101b6565b5f805f9054906101000a900473ffffffffffffffffffffffffffffffffffffffff169050815f806101000a81548173ffffffffffffffffffffffffffffffffffffffff021916908373ffffffffffffffffffffffffffffffffffffffff1602179055508173ffffffffffffffffffffffffffffffffffffffff168173ffffffffffffffffffffffffffffffffffffffff167f8be0079c531659141344cd1fd0a4f28419497f9722a3daafe3b4186f6b6457e060405160405180910390a35050565b5f73ffffffffffffffffffffffffffffffffffffffff82169050919050565b5f6101878261015e565b9050919050565b6101978161017d565b82525050565b5f6020820190506101b05f83018461018e565b92915050565b612d69806101c35f395ff3fe6080604052600436106100a6575f3560e01c80638c89a0ad116100635780638c89a0ad146101a45780638da5cb5b146101ce5780638e06b906146101f85780639e6c3ff214610239578063ecaa9d0514610261578063f2fde38b1461027d576100a6565b80630f1419b5146100aa57806313a2e884146100d257806314205e28146100ee5780632d8fefc21461012a5780633b958c3814610152578063715018a61461018e575b5f80fd5b3480156100b5575f80fd5b506100d060048036038101906100cb9190611b3b565b6102a5565b005b6100ec60048036038101906100e79190611bce565b610674565b005b3480156100f9575f80fd5b50610114600480360381019061010f9190611c3a565b6108e9565b6040516101219190611c74565b60405180910390f35b348015610135575f80fd5b50610150600480360381019061014b9190611cc6565b610969565b005b34801561015d575f80fd5b5061017860048036038101906101739190611d2a565b610bb7565b6040516101859190611f2e565b60405180910390f35b348015610199575f80fd5b506101a2610d92565b005b3480156101af575f80fd5b506101b8610da5565b6040516101c59190611c74565b60405180910390f35b3480156101d9575f80fd5b506101e2610dac565b6040516101ef9190611f5d565b60405180910390f35b348015610203575f80fd5b5061021e60048036038101906102199190611fa0565b610dd3565b60405161023096959493929190612047565b60405180910390f35b348015610244575f80fd5b5061025f600480360381019061025a91906120ad565b610eee565b005b61027b600480360381019061027691906120fd565b6113ab565b005b348015610288575f80fd5b506102a3600480360381019061029e919061213b565b61155c565b005b6102ad6115e0565b5f73ffffffffffffffffffffffffffffffffffffffff168573ffffffffffffffffffffffffffffffffffffffff160361031b576040517f08c379a0000000000000000000000000000000000000000000000000000000008152600401610312906121d6565b60405180910390fd5b5f841161035d576040517f08c379a000000000000000000000000000000000000000000000000000000000815260040161035490612264565b60405180910390fd5b5f821161039f576040517f08c379a0000000000000000000000000000000000000000000000000000000008152600401610396906122f2565b60405180910390fd5b5f8573ffffffffffffffffffffffffffffffffffffffff166370a08231336040518263ffffffff1660e01b81526004016103d99190611f5d565b602060405180830381865afa1580156103f4573d5f803e3d5ffd5b505050506040513d601f19601f820116820180604052508101906104189190612324565b90508085111561045d576040517f08c379a000000000000000000000000000000000000000000000000000000000815260040161045490612399565b60405180910390fd5b61048a3330878973ffffffffffffffffffffffffffffffffffffffff16611626909392919063ffffffff16565b60025f3373ffffffffffffffffffffffffffffffffffffffff1673ffffffffffffffffffffffffffffffffffffffff1681526020019081526020015f205f8560ff1660ff1681526020019081526020015f206040518060c001604052808873ffffffffffffffffffffffffffffffffffffffff168152602001878152602001854261051591906123e4565b81526020018481526020015f151581526020015f1515815250908060018154018082558091505060019003905f5260205f2090600502015f909190919091505f820151815f015f6101000a81548173ffffffffffffffffffffffffffffffffffffffff021916908373ffffffffffffffffffffffffffffffffffffffff160217905550602082015181600101556040820151816002015560608201518160030190816105c19190612611565b506080820151816004015f6101000a81548160ff02191690831515021790555060a08201518160040160016101000a81548160ff02191690831515021790555050508573ffffffffffffffffffffffffffffffffffffffff167fed26bd61b6bf2f43d7471454e53e77ffdc96beefa2f198977936f6d02d34563d868487874261064a91906123e4565b4260405161065c9594939291906126ef565b60405180910390a25061066d6116a8565b5050505050565b61067c6115e0565b5f34116106be576040517f08c379a00000000000000000000000000000000000000000000000000000000081526004016106b5906127b7565b60405180910390fd5b5f821015610701576040517f08c379a00000000000000000000000000000000000000000000000000000000081526004016106f890612845565b60405180910390fd5b60025f3373ffffffffffffffffffffffffffffffffffffffff1673ffffffffffffffffffffffffffffffffffffffff1681526020019081526020015f205f8460ff1660ff1681526020019081526020015f206040518060c001604052805f73ffffffffffffffffffffffffffffffffffffffff168152602001348152602001844261078c91906123e4565b81526020018381526020015f1515815260200160011515815250908060018154018082558091505060019003905f5260205f2090600502015f909190919091505f820151815f015f6101000a81548173ffffffffffffffffffffffffffffffffffffffff021916908373ffffffffffffffffffffffffffffffffffffffff160217905550602082015181600101556040820151816002015560608201518160030190816108399190612611565b506080820151816004015f6101000a81548160ff02191690831515021790555060a08201518160040160016101000a81548160ff02191690831515021790555050505f73ffffffffffffffffffffffffffffffffffffffff167fed26bd61b6bf2f43d7471454e53e77ffdc96beefa2f198977936f6d02d34563d34838686426108c291906123e4565b426040516108d49594939291906126ef565b60405180910390a26108e46116a8565b505050565b5f8173ffffffffffffffffffffffffffffffffffffffff166370a08231306040518263ffffffff1660e01b81526004016109239190611f5d565b602060405180830381865afa15801561093e573d5f803e3d5ffd5b505050506040513d601f19601f820116820180604052508101906109629190612324565b9050919050565b6109716115e0565b5f73ffffffffffffffffffffffffffffffffffffffff168473ffffffffffffffffffffffffffffffffffffffff16036109df576040517f08c379a00000000000000000000000000000000000000000000000000000000081526004016109d6906121d6565b60405180910390fd5b5f8211610a21576040517f08c379a0000000000000000000000000000000000000000000000000000000008152600401610a1890612264565b60405180910390fd5b610a4e3330848773ffffffffffffffffffffffffffffffffffffffff16611626909392919063ffffffff16565b8160025f3373ffffffffffffffffffffffffffffffffffffffff1673ffffffffffffffffffffffffffffffffffffffff1681526020019081526020015f205f8360ff1660ff1681526020019081526020015f208463ffffffff1681548110610ab957610ab8612863565b5b905f5260205f2090600502016001015f828254610ad691906123e4565b925050819055508373ffffffffffffffffffffffffffffffffffffffff167f0b99ce8321b94ffaa5c5021540ec0668dcba948d044760a5ef298fa0513b1ef48360025f3373ffffffffffffffffffffffffffffffffffffffff1673ffffffffffffffffffffffffffffffffffffffff1681526020019081526020015f205f8560ff1660ff1681526020019081526020015f208663ffffffff1681548110610b8057610b7f612863565b5b905f5260205f2090600502016003018442604051610ba19493929190612911565b60405180910390a2610bb16116a8565b50505050565b606060025f3373ffffffffffffffffffffffffffffffffffffffff1673ffffffffffffffffffffffffffffffffffffffff1681526020019081526020015f205f8360ff1660ff1681526020019081526020015f20805480602002602001604051908101604052809291908181526020015f905b82821015610d87578382905f5260205f2090600502016040518060c00160405290815f82015f9054906101000a900473ffffffffffffffffffffffffffffffffffffffff1673ffffffffffffffffffffffffffffffffffffffff1673ffffffffffffffffffffffffffffffffffffffff1681526020016001820154815260200160028201548152602001600382018054610cc390612444565b80601f0160208091040260200160405190810160405280929190818152602001828054610cef90612444565b8015610d3a5780601f10610d1157610100808354040283529160200191610d3a565b820191905f5260205f20905b815481529060010190602001808311610d1d57829003601f168201915b50505050508152602001600482015f9054906101000a900460ff161515151581526020016004820160019054906101000a900460ff16151515158152505081526020019060010190610c2a565b505050509050919050565b610d9a6116b1565b610da35f611738565b565b5f47905090565b5f805f9054906101000a900473ffffffffffffffffffffffffffffffffffffffff16905090565b6002602052825f5260405f20602052815f5260405f208181548110610df6575f80fd5b905f5260205f2090600502015f925092505050805f015f9054906101000a900473ffffffffffffffffffffffffffffffffffffffff1690806001015490806002015490806003018054610e4890612444565b80601f0160208091040260200160405190810160405280929190818152602001828054610e7490612444565b8015610ebf5780601f10610e9657610100808354040283529160200191610ebf565b820191905f5260205f20905b815481529060010190602001808311610ea257829003601f168201915b505050505090806004015f9054906101000a900460ff16908060040160019054906101000a900460ff16905086565b610ef66115e0565b60025f3373ffffffffffffffffffffffffffffffffffffffff1673ffffffffffffffffffffffffffffffffffffffff1681526020019081526020015f205f8360ff1660ff1681526020019081526020015f20805490508363ffffffff1610610f93576040517f08c379a0000000000000000000000000000000000000000000000000000000008152600401610f8a906129cb565b60405180910390fd5b5f60025f3373ffffffffffffffffffffffffffffffffffffffff1673ffffffffffffffffffffffffffffffffffffffff1681526020019081526020015f205f8460ff1660ff1681526020019081526020015f208463ffffffff1681548110610ffe57610ffd612863565b5b905f5260205f2090600502019050806004015f9054906101000a900460ff161561105d576040517f08c379a000000000000000000000000000000000000000000000000000000000815260040161105490612a59565b60405180910390fd5b806002015442116110a3576040517f08c379a000000000000000000000000000000000000000000000000000000000815260040161109a90612ae7565b60405180910390fd5b5f8282600101546110b49190612b05565b90505f8110156110f9576040517f08c379a00000000000000000000000000000000000000000000000000000000081526004016110f090612b82565b60405180910390fd5b5f810361119257600160025f3373ffffffffffffffffffffffffffffffffffffffff1673ffffffffffffffffffffffffffffffffffffffff1681526020019081526020015f205f8660ff1660ff1681526020019081526020015f208663ffffffff168154811061116c5761116b612863565b5b905f5260205f2090600502016004015f6101000a81548160ff0219169083151502179055505b8060025f3373ffffffffffffffffffffffffffffffffffffffff1673ffffffffffffffffffffffffffffffffffffffff1681526020019081526020015f205f8660ff1660ff1681526020019081526020015f208663ffffffff16815481106111fd576111fc612863565b5b905f5260205f209060050201600101819055508160040160019054906101000a900460ff16156112d5575f3373ffffffffffffffffffffffffffffffffffffffff168460405161124c90612bcd565b5f6040518083038185875af1925050503d805f8114611286576040519150601f19603f3d011682016040523d82523d5f602084013e61128b565b606091505b50509050806112cf576040517f08c379a00000000000000000000000000000000000000000000000000000000081526004016112c690612c2b565b60405180910390fd5b50611323565b6113223384845f015f9054906101000a900473ffffffffffffffffffffffffffffffffffffffff1673ffffffffffffffffffffffffffffffffffffffff166117f99092919063ffffffff16565b5b815f015f9054906101000a900473ffffffffffffffffffffffffffffffffffffffff1673ffffffffffffffffffffffffffffffffffffffff167f16c4c024c274b52575ffc17396bbc4a59db7dd13aac28373e025a9f6269f9e03848460030187426040516113949493929190612911565b60405180910390a250506113a66116a8565b505050565b6113b36115e0565b5f34116113f5576040517f08c379a00000000000000000000000000000000000000000000000000000000081526004016113ec90612cb9565b60405180910390fd5b3460025f3373ffffffffffffffffffffffffffffffffffffffff1673ffffffffffffffffffffffffffffffffffffffff1681526020019081526020015f205f8460ff1660ff1681526020019081526020015f208263ffffffff16815481106114605761145f612863565b5b905f5260205f2090600502016001015f82825461147d91906123e4565b925050819055505f73ffffffffffffffffffffffffffffffffffffffff167f0b99ce8321b94ffaa5c5021540ec0668dcba948d044760a5ef298fa0513b1ef43460025f3373ffffffffffffffffffffffffffffffffffffffff1673ffffffffffffffffffffffffffffffffffffffff1681526020019081526020015f205f8660ff1660ff1681526020019081526020015f208463ffffffff168154811061152757611526612863565b5b905f5260205f20906005020160030185426040516115489493929190612911565b60405180910390a26115586116a8565b5050565b6115646116b1565b5f73ffffffffffffffffffffffffffffffffffffffff168173ffffffffffffffffffffffffffffffffffffffff16036115d4575f6040517f1e4fbdf70000000000000000000000000000000000000000000000000000000081526004016115cb9190611f5d565b60405180910390fd5b6115dd81611738565b50565b60026001540361161c576040517f3ee5aeb500000000000000000000000000000000000000000000000000000000815260040160405180910390fd5b6002600181905550565b6116a2848573ffffffffffffffffffffffffffffffffffffffff166323b872dd86868660405160240161165b93929190612cd7565b604051602081830303815290604052915060e01b6020820180517bffffffffffffffffffffffffffffffffffffffffffffffffffffffff8381831617835250505050611878565b50505050565b60018081905550565b6116b9611913565b73ffffffffffffffffffffffffffffffffffffffff166116d7610dac565b73ffffffffffffffffffffffffffffffffffffffff1614611736576116fa611913565b6040517f118cdaa700000000000000000000000000000000000000000000000000000000815260040161172d9190611f5d565b60405180910390fd5b565b5f805f9054906101000a900473ffffffffffffffffffffffffffffffffffffffff169050815f806101000a81548173ffffffffffffffffffffffffffffffffffffffff021916908373ffffffffffffffffffffffffffffffffffffffff1602179055508173ffffffffffffffffffffffffffffffffffffffff168173ffffffffffffffffffffffffffffffffffffffff167f8be0079c531659141344cd1fd0a4f28419497f9722a3daafe3b4186f6b6457e060405160405180910390a35050565b611873838473ffffffffffffffffffffffffffffffffffffffff1663a9059cbb858560405160240161182c929190612d0c565b604051602081830303815290604052915060e01b6020820180517bffffffffffffffffffffffffffffffffffffffffffffffffffffffff8381831617835250505050611878565b505050565b5f8060205f8451602086015f885af180611897576040513d5f823e3d81fd5b3d92505f519150505f82146118b05760018114156118cb565b5f8473ffffffffffffffffffffffffffffffffffffffff163b145b1561190d57836040517f5274afe70000000000000000000000000000000000000000000000000000000081526004016119049190611f5d565b60405180910390fd5b50505050565b5f33905090565b5f604051905090565b5f80fd5b5f80fd5b5f73ffffffffffffffffffffffffffffffffffffffff82169050919050565b5f6119548261192b565b9050919050565b5f6119658261194a565b9050919050565b6119758161195b565b811461197f575f80fd5b50565b5f813590506119908161196c565b92915050565b5f819050919050565b6119a881611996565b81146119b2575f80fd5b50565b5f813590506119c38161199f565b92915050565b5f60ff82169050919050565b6119de816119c9565b81146119e8575f80fd5b50565b5f813590506119f9816119d5565b92915050565b5f80fd5b5f80fd5b5f601f19601f8301169050919050565b7f4e487b71000000000000000000000000000000000000000000000000000000005f52604160045260245ffd5b611a4d82611a07565b810181811067ffffffffffffffff82111715611a6c57611a6b611a17565b5b80604052505050565b5f611a7e61191a565b9050611a8a8282611a44565b919050565b5f67ffffffffffffffff821115611aa957611aa8611a17565b5b611ab282611a07565b9050602081019050919050565b828183375f83830152505050565b5f611adf611ada84611a8f565b611a75565b905082815260208101848484011115611afb57611afa611a03565b5b611b06848285611abf565b509392505050565b5f82601f830112611b2257611b216119ff565b5b8135611b32848260208601611acd565b91505092915050565b5f805f805f60a08688031215611b5457611b53611923565b5b5f611b6188828901611982565b9550506020611b72888289016119b5565b9450506040611b83888289016119eb565b9350506060611b94888289016119b5565b925050608086013567ffffffffffffffff811115611bb557611bb4611927565b5b611bc188828901611b0e565b9150509295509295909350565b5f805f60608486031215611be557611be4611923565b5b5f611bf2868287016119eb565b9350506020611c03868287016119b5565b925050604084013567ffffffffffffffff811115611c2457611c23611927565b5b611c3086828701611b0e565b9150509250925092565b5f60208284031215611c4f57611c4e611923565b5b5f611c5c84828501611982565b91505092915050565b611c6e81611996565b82525050565b5f602082019050611c875f830184611c65565b92915050565b5f63ffffffff82169050919050565b611ca581611c8d565b8114611caf575f80fd5b50565b5f81359050611cc081611c9c565b92915050565b5f805f8060808587031215611cde57611cdd611923565b5b5f611ceb87828801611982565b9450506020611cfc87828801611cb2565b9350506040611d0d878288016119b5565b9250506060611d1e878288016119eb565b91505092959194509250565b5f60208284031215611d3f57611d3e611923565b5b5f611d4c848285016119eb565b91505092915050565b5f81519050919050565b5f82825260208201905092915050565b5f819050602082019050919050565b611d878161194a565b82525050565b611d9681611996565b82525050565b5f81519050919050565b5f82825260208201905092915050565b8281835e5f83830152505050565b5f611dce82611d9c565b611dd88185611da6565b9350611de8818560208601611db6565b611df181611a07565b840191505092915050565b5f8115159050919050565b611e1081611dfc565b82525050565b5f60c083015f830151611e2b5f860182611d7e565b506020830151611e3e6020860182611d8d565b506040830151611e516040860182611d8d565b5060608301518482036060860152611e698282611dc4565b9150506080830151611e7e6080860182611e07565b5060a0830151611e9160a0860182611e07565b508091505092915050565b5f611ea78383611e16565b905092915050565b5f602082019050919050565b5f611ec582611d55565b611ecf8185611d5f565b935083602082028501611ee185611d6f565b805f5b85811015611f1c5784840389528151611efd8582611e9c565b9450611f0883611eaf565b925060208a01995050600181019050611ee4565b50829750879550505050505092915050565b5f6020820190508181035f830152611f468184611ebb565b905092915050565b611f578161194a565b82525050565b5f602082019050611f705f830184611f4e565b92915050565b611f7f8161194a565b8114611f89575f80fd5b50565b5f81359050611f9a81611f76565b92915050565b5f805f60608486031215611fb757611fb6611923565b5b5f611fc486828701611f8c565b9350506020611fd5868287016119eb565b9250506040611fe6868287016119b5565b9150509250925092565b5f82825260208201905092915050565b5f61200a82611d9c565b6120148185611ff0565b9350612024818560208601611db6565b61202d81611a07565b840191505092915050565b61204181611dfc565b82525050565b5f60c08201905061205a5f830189611f4e565b6120676020830188611c65565b6120746040830187611c65565b81810360608301526120868186612000565b90506120956080830185612038565b6120a260a0830184612038565b979650505050505050565b5f805f606084860312156120c4576120c3611923565b5b5f6120d186828701611cb2565b93505060206120e2868287016119eb565b92505060406120f3868287016119b5565b9150509250925092565b5f806040838503121561211357612112611923565b5b5f612120858286016119eb565b925050602061213185828601611cb2565b9150509250929050565b5f602082840312156121505761214f611923565b5b5f61215d84828501611f8c565b91505092915050565b7f4d7573742070726f7669646520612076616c696420746f6b656e2061646472655f8201527f7373000000000000000000000000000000000000000000000000000000000000602082015250565b5f6121c0602283611ff0565b91506121cb82612166565b604082019050919050565b5f6020820190508181035f8301526121ed816121b4565b9050919050565b7f546f6b656e20616d6f756e74206d7573742062652067726561746572207468655f8201527f6e207a65726f0000000000000000000000000000000000000000000000000000602082015250565b5f61224e602683611ff0565b9150612259826121f4565b604082019050919050565b5f6020820190508181035f83015261227b81612242565b9050919050565b7f546865206c6f636b20706572696f64206d7573742062652067726561746572205f8201527f7468656e207a65726f0000000000000000000000000000000000000000000000602082015250565b5f6122dc602983611ff0565b91506122e782612282565b604082019050919050565b5f6020820190508181035f830152612309816122d0565b9050919050565b5f8151905061231e8161199f565b92915050565b5f6020828403121561233957612338611923565b5b5f61234684828501612310565b91505092915050565b7f4e6f7420656e6f75676820746f6b656e7320746f206c6f636b000000000000005f82015250565b5f612383601983611ff0565b915061238e8261234f565b602082019050919050565b5f6020820190508181035f8301526123b081612377565b9050919050565b7f4e487b71000000000000000000000000000000000000000000000000000000005f52601160045260245ffd5b5f6123ee82611996565b91506123f983611996565b9250828201905080821115612411576124106123b7565b5b92915050565b7f4e487b71000000000000000000000000000000000000000000000000000000005f52602260045260245ffd5b5f600282049050600182168061245b57607f821691505b60208210810361246e5761246d612417565b5b50919050565b5f819050815f5260205f209050919050565b5f6020601f8301049050919050565b5f82821b905092915050565b5f600883026124d07fffffffffffffffffffffffffffffffffffffffffffffffffffffffffffffffff82612495565b6124da8683612495565b95508019841693508086168417925050509392505050565b5f819050919050565b5f61251561251061250b84611996565b6124f2565b611996565b9050919050565b5f819050919050565b61252e836124fb565b61254261253a8261251c565b8484546124a1565b825550505050565b5f90565b61255661254a565b612561818484612525565b505050565b5b81811015612584576125795f8261254e565b600181019050612567565b5050565b601f8211156125c95761259a81612474565b6125a384612486565b810160208510156125b2578190505b6125c66125be85612486565b830182612566565b50505b505050565b5f82821c905092915050565b5f6125e95f19846008026125ce565b1980831691505092915050565b5f61260183836125da565b9150826002028217905092915050565b61261a82611d9c565b67ffffffffffffffff81111561263357612632611a17565b5b61263d8254612444565b612648828285612588565b5f60209050601f831160018114612679575f8415612667578287015190505b61267185826125f6565b8655506126d8565b601f19841661268786612474565b5f5b828110156126ae57848901518255600182019150602085019450602081019050612689565b868310156126cb57848901516126c7601f8916826125da565b8355505b6001600288020188555050505b505050505050565b6126e9816119c9565b82525050565b5f60a0820190506127025f830188611c65565b81810360208301526127148187612000565b905061272360408301866126e0565b6127306060830185611c65565b61273d6080830184611c65565b9695505050505050565b7f45544820746f206c6f636b206d75737420612076616c756520677265617465725f8201527f207468616e203000000000000000000000000000000000000000000000000000602082015250565b5f6127a1602783611ff0565b91506127ac82612747565b604082019050919050565b5f6020820190508181035f8301526127ce81612795565b9050919050565b7f546865206c6f636b706572696f64206d757374206265206772656174657220745f8201527f68656e207a65726f000000000000000000000000000000000000000000000000602082015250565b5f61282f602883611ff0565b915061283a826127d5565b604082019050919050565b5f6020820190508181035f83015261285c81612823565b9050919050565b7f4e487b71000000000000000000000000000000000000000000000000000000005f52603260045260245ffd5b5f815461289c81612444565b6128a68186611ff0565b9450600182165f81146128c057600181146128d657612908565b60ff198316865281151560200286019350612908565b6128df85612474565b5f5b83811015612900578154818901526001820191506020810190506128e1565b808801955050505b50505092915050565b5f6080820190506129245f830187611c65565b81810360208301526129368186612890565b905061294560408301856126e0565b6129526060830184611c65565b95945050505050565b7f5468652073706563696669656420617373657420494420697320696e76616c695f8201527f642e000000000000000000000000000000000000000000000000000000000000602082015250565b5f6129b5602283611ff0565b91506129c08261295b565b604082019050919050565b5f6020820190508181035f8301526129e2816129a9565b9050919050565b7f417373657473206861766520616c7265616479206265656e20776974686472615f8201527f776e210000000000000000000000000000000000000000000000000000000000602082015250565b5f612a43602383611ff0565b9150612a4e826129e9565b604082019050919050565b5f6020820190508181035f830152612a7081612a37565b9050919050565b7f546865206c6f636b20706572696f6420686173206e6f742079657420657870695f8201527f7265642100000000000000000000000000000000000000000000000000000000602082015250565b5f612ad1602483611ff0565b9150612adc82612a77565b604082019050919050565b5f6020820190508181035f830152612afe81612ac5565b9050919050565b5f612b0f82611996565b9150612b1a83611996565b9250828203905081811115612b3257612b316123b7565b5b92915050565b7f4e6f7420656e6f7567682061737365747320746f2077697468647261772100005f82015250565b5f612b6c601e83611ff0565b9150612b7782612b38565b602082019050919050565b5f6020820190508181035f830152612b9981612b60565b9050919050565b5f81905092915050565b50565b5f612bb85f83612ba0565b9150612bc382612baa565b5f82019050919050565b5f612bd782612bad565b9150819050919050565b7f455448207472616e73666572206661696c6564000000000000000000000000005f82015250565b5f612c15601383611ff0565b9150612c2082612be1565b602082019050919050565b5f6020820190508181035f830152612c4281612c09565b9050919050565b7f45544820746f2061646420746f206c6f636b206d75737420626520616e20616d5f8201527f6f756e742067726561746572207468616e203000000000000000000000000000602082015250565b5f612ca3603383611ff0565b9150612cae82612c49565b604082019050919050565b5f6020820190508181035f830152612cd081612c97565b9050919050565b5f606082019050612cea5f830186611f4e565b612cf76020830185611f4e565b612d046040830184611c65565b949350505050565b5f604082019050612d1f5f830185611f4e565b612d2c6020830184611c65565b939250505056fea2646970667358221220c8832c6a44d210a15f335cfc3c21b99739b5a6ae2fd823576f90e6fd342a5dca64736f6c634300081a0033",
					"opcodes": "PUSH1 0x80 PUSH1 0x40 MSTORE CALLVALUE DUP1 ISZERO PUSH2 0xF JUMPI PUSH0 DUP1 REVERT JUMPDEST POP CALLER PUSH0 PUSH20 0xFFFFFFFFFFFFFFFFFFFFFFFFFFFFFFFFFFFFFFFF AND DUP2 PUSH20 0xFFFFFFFFFFFFFFFFFFFFFFFFFFFFFFFFFFFFFFFF AND SUB PUSH2 0x81 JUMPI PUSH0 PUSH1 0x40 MLOAD PUSH32 0x1E4FBDF700000000000000000000000000000000000000000000000000000000 DUP2 MSTORE PUSH1 0x4 ADD PUSH2 0x78 SWAP2 SWAP1 PUSH2 0x19D JUMP JUMPDEST PUSH1 0x40 MLOAD DUP1 SWAP2 SUB SWAP1 REVERT JUMPDEST PUSH2 0x90 DUP2 PUSH2 0x9D PUSH1 0x20 SHL PUSH1 0x20 SHR JUMP JUMPDEST POP PUSH1 0x1 DUP1 DUP2 SWAP1 SSTORE POP PUSH2 0x1B6 JUMP JUMPDEST PUSH0 DUP1 PUSH0 SWAP1 SLOAD SWAP1 PUSH2 0x100 EXP SWAP1 DIV PUSH20 0xFFFFFFFFFFFFFFFFFFFFFFFFFFFFFFFFFFFFFFFF AND SWAP1 POP DUP2 PUSH0 DUP1 PUSH2 0x100 EXP DUP2 SLOAD DUP2 PUSH20 0xFFFFFFFFFFFFFFFFFFFFFFFFFFFFFFFFFFFFFFFF MUL NOT AND SWAP1 DUP4 PUSH20 0xFFFFFFFFFFFFFFFFFFFFFFFFFFFFFFFFFFFFFFFF AND MUL OR SWAP1 SSTORE POP DUP2 PUSH20 0xFFFFFFFFFFFFFFFFFFFFFFFFFFFFFFFFFFFFFFFF AND DUP2 PUSH20 0xFFFFFFFFFFFFFFFFFFFFFFFFFFFFFFFFFFFFFFFF AND PUSH32 0x8BE0079C531659141344CD1FD0A4F28419497F9722A3DAAFE3B4186F6B6457E0 PUSH1 0x40 MLOAD PUSH1 0x40 MLOAD DUP1 SWAP2 SUB SWAP1 LOG3 POP POP JUMP JUMPDEST PUSH0 PUSH20 0xFFFFFFFFFFFFFFFFFFFFFFFFFFFFFFFFFFFFFFFF DUP3 AND SWAP1 POP SWAP2 SWAP1 POP JUMP JUMPDEST PUSH0 PUSH2 0x187 DUP3 PUSH2 0x15E JUMP JUMPDEST SWAP1 POP SWAP2 SWAP1 POP JUMP JUMPDEST PUSH2 0x197 DUP2 PUSH2 0x17D JUMP JUMPDEST DUP3 MSTORE POP POP JUMP JUMPDEST PUSH0 PUSH1 0x20 DUP3 ADD SWAP1 POP PUSH2 0x1B0 PUSH0 DUP4 ADD DUP5 PUSH2 0x18E JUMP JUMPDEST SWAP3 SWAP2 POP POP JUMP JUMPDEST PUSH2 0x2D69 DUP1 PUSH2 0x1C3 PUSH0 CODECOPY PUSH0 RETURN INVALID PUSH1 0x80 PUSH1 0x40 MSTORE PUSH1 0x4 CALLDATASIZE LT PUSH2 0xA6 JUMPI PUSH0 CALLDATALOAD PUSH1 0xE0 SHR DUP1 PUSH4 0x8C89A0AD GT PUSH2 0x63 JUMPI DUP1 PUSH4 0x8C89A0AD EQ PUSH2 0x1A4 JUMPI DUP1 PUSH4 0x8DA5CB5B EQ PUSH2 0x1CE JUMPI DUP1 PUSH4 0x8E06B906 EQ PUSH2 0x1F8 JUMPI DUP1 PUSH4 0x9E6C3FF2 EQ PUSH2 0x239 JUMPI DUP1 PUSH4 0xECAA9D05 EQ PUSH2 0x261 JUMPI DUP1 PUSH4 0xF2FDE38B EQ PUSH2 0x27D JUMPI PUSH2 0xA6 JUMP JUMPDEST DUP1 PUSH4 0xF1419B5 EQ PUSH2 0xAA JUMPI DUP1 PUSH4 0x13A2E884 EQ PUSH2 0xD2 JUMPI DUP1 PUSH4 0x14205E28 EQ PUSH2 0xEE JUMPI DUP1 PUSH4 0x2D8FEFC2 EQ PUSH2 0x12A JUMPI DUP1 PUSH4 0x3B958C38 EQ PUSH2 0x152 JUMPI DUP1 PUSH4 0x715018A6 EQ PUSH2 0x18E JUMPI JUMPDEST PUSH0 DUP1 REVERT JUMPDEST CALLVALUE DUP1 ISZERO PUSH2 0xB5 JUMPI PUSH0 DUP1 REVERT JUMPDEST POP PUSH2 0xD0 PUSH1 0x4 DUP1 CALLDATASIZE SUB DUP2 ADD SWAP1 PUSH2 0xCB SWAP2 SWAP1 PUSH2 0x1B3B JUMP JUMPDEST PUSH2 0x2A5 JUMP JUMPDEST STOP JUMPDEST PUSH2 0xEC PUSH1 0x4 DUP1 CALLDATASIZE SUB DUP2 ADD SWAP1 PUSH2 0xE7 SWAP2 SWAP1 PUSH2 0x1BCE JUMP JUMPDEST PUSH2 0x674 JUMP JUMPDEST STOP JUMPDEST CALLVALUE DUP1 ISZERO PUSH2 0xF9 JUMPI PUSH0 DUP1 REVERT JUMPDEST POP PUSH2 0x114 PUSH1 0x4 DUP1 CALLDATASIZE SUB DUP2 ADD SWAP1 PUSH2 0x10F SWAP2 SWAP1 PUSH2 0x1C3A JUMP JUMPDEST PUSH2 0x8E9 JUMP JUMPDEST PUSH1 0x40 MLOAD PUSH2 0x121 SWAP2 SWAP1 PUSH2 0x1C74 JUMP JUMPDEST PUSH1 0x40 MLOAD DUP1 SWAP2 SUB SWAP1 RETURN JUMPDEST CALLVALUE DUP1 ISZERO PUSH2 0x135 JUMPI PUSH0 DUP1 REVERT JUMPDEST POP PUSH2 0x150 PUSH1 0x4 DUP1 CALLDATASIZE SUB DUP2 ADD SWAP1 PUSH2 0x14B SWAP2 SWAP1 PUSH2 0x1CC6 JUMP JUMPDEST PUSH2 0x969 JUMP JUMPDEST STOP JUMPDEST CALLVALUE DUP1 ISZERO PUSH2 0x15D JUMPI PUSH0 DUP1 REVERT JUMPDEST POP PUSH2 0x178 PUSH1 0x4 DUP1 CALLDATASIZE SUB DUP2 ADD SWAP1 PUSH2 0x173 SWAP2 SWAP1 PUSH2 0x1D2A JUMP JUMPDEST PUSH2 0xBB7 JUMP JUMPDEST PUSH1 0x40 MLOAD PUSH2 0x185 SWAP2 SWAP1 PUSH2 0x1F2E JUMP JUMPDEST PUSH1 0x40 MLOAD DUP1 SWAP2 SUB SWAP1 RETURN JUMPDEST CALLVALUE DUP1 ISZERO PUSH2 0x199 JUMPI PUSH0 DUP1 REVERT JUMPDEST POP PUSH2 0x1A2 PUSH2 0xD92 JUMP JUMPDEST STOP JUMPDEST CALLVALUE DUP1 ISZERO PUSH2 0x1AF JUMPI PUSH0 DUP1 REVERT JUMPDEST POP PUSH2 0x1B8 PUSH2 0xDA5 JUMP JUMPDEST PUSH1 0x40 MLOAD PUSH2 0x1C5 SWAP2 SWAP1 PUSH2 0x1C74 JUMP JUMPDEST PUSH1 0x40 MLOAD DUP1 SWAP2 SUB SWAP1 RETURN JUMPDEST CALLVALUE DUP1 ISZERO PUSH2 0x1D9 JUMPI PUSH0 DUP1 REVERT JUMPDEST POP PUSH2 0x1E2 PUSH2 0xDAC JUMP JUMPDEST PUSH1 0x40 MLOAD PUSH2 0x1EF SWAP2 SWAP1 PUSH2 0x1F5D JUMP JUMPDEST PUSH1 0x40 MLOAD DUP1 SWAP2 SUB SWAP1 RETURN JUMPDEST CALLVALUE DUP1 ISZERO PUSH2 0x203 JUMPI PUSH0 DUP1 REVERT JUMPDEST POP PUSH2 0x21E PUSH1 0x4 DUP1 CALLDATASIZE SUB DUP2 ADD SWAP1 PUSH2 0x219 SWAP2 SWAP1 PUSH2 0x1FA0 JUMP JUMPDEST PUSH2 0xDD3 JUMP JUMPDEST PUSH1 0x40 MLOAD PUSH2 0x230 SWAP7 SWAP6 SWAP5 SWAP4 SWAP3 SWAP2 SWAP1 PUSH2 0x2047 JUMP JUMPDEST PUSH1 0x40 MLOAD DUP1 SWAP2 SUB SWAP1 RETURN JUMPDEST CALLVALUE DUP1 ISZERO PUSH2 0x244 JUMPI PUSH0 DUP1 REVERT JUMPDEST POP PUSH2 0x25F PUSH1 0x4 DUP1 CALLDATASIZE SUB DUP2 ADD SWAP1 PUSH2 0x25A SWAP2 SWAP1 PUSH2 0x20AD JUMP JUMPDEST PUSH2 0xEEE JUMP JUMPDEST STOP JUMPDEST PUSH2 0x27B PUSH1 0x4 DUP1 CALLDATASIZE SUB DUP2 ADD SWAP1 PUSH2 0x276 SWAP2 SWAP1 PUSH2 0x20FD JUMP JUMPDEST PUSH2 0x13AB JUMP JUMPDEST STOP JUMPDEST CALLVALUE DUP1 ISZERO PUSH2 0x288 JUMPI PUSH0 DUP1 REVERT JUMPDEST POP PUSH2 0x2A3 PUSH1 0x4 DUP1 CALLDATASIZE SUB DUP2 ADD SWAP1 PUSH2 0x29E SWAP2 SWAP1 PUSH2 0x213B JUMP JUMPDEST PUSH2 0x155C JUMP JUMPDEST STOP JUMPDEST PUSH2 0x2AD PUSH2 0x15E0 JUMP JUMPDEST PUSH0 PUSH20 0xFFFFFFFFFFFFFFFFFFFFFFFFFFFFFFFFFFFFFFFF AND DUP6 PUSH20 0xFFFFFFFFFFFFFFFFFFFFFFFFFFFFFFFFFFFFFFFF AND SUB PUSH2 0x31B JUMPI PUSH1 0x40 MLOAD PUSH32 0x8C379A000000000000000000000000000000000000000000000000000000000 DUP2 MSTORE PUSH1 0x4 ADD PUSH2 0x312 SWAP1 PUSH2 0x21D6 JUMP JUMPDEST PUSH1 0x40 MLOAD DUP1 SWAP2 SUB SWAP1 REVERT JUMPDEST PUSH0 DUP5 GT PUSH2 0x35D JUMPI PUSH1 0x40 MLOAD PUSH32 0x8C379A000000000000000000000000000000000000000000000000000000000 DUP2 MSTORE PUSH1 0x4 ADD PUSH2 0x354 SWAP1 PUSH2 0x2264 JUMP JUMPDEST PUSH1 0x40 MLOAD DUP1 SWAP2 SUB SWAP1 REVERT JUMPDEST PUSH0 DUP3 GT PUSH2 0x39F JUMPI PUSH1 0x40 MLOAD PUSH32 0x8C379A000000000000000000000000000000000000000000000000000000000 DUP2 MSTORE PUSH1 0x4 ADD PUSH2 0x396 SWAP1 PUSH2 0x22F2 JUMP JUMPDEST PUSH1 0x40 MLOAD DUP1 SWAP2 SUB SWAP1 REVERT JUMPDEST PUSH0 DUP6 PUSH20 0xFFFFFFFFFFFFFFFFFFFFFFFFFFFFFFFFFFFFFFFF AND PUSH4 0x70A08231 CALLER PUSH1 0x40 MLOAD DUP3 PUSH4 0xFFFFFFFF AND PUSH1 0xE0 SHL DUP2 MSTORE PUSH1 0x4 ADD PUSH2 0x3D9 SWAP2 SWAP1 PUSH2 0x1F5D JUMP JUMPDEST PUSH1 0x20 PUSH1 0x40 MLOAD DUP1 DUP4 SUB DUP2 DUP7 GAS STATICCALL ISZERO DUP1 ISZERO PUSH2 0x3F4 JUMPI RETURNDATASIZE PUSH0 DUP1 RETURNDATACOPY RETURNDATASIZE PUSH0 REVERT JUMPDEST POP POP POP POP PUSH1 0x40 MLOAD RETURNDATASIZE PUSH1 0x1F NOT PUSH1 0x1F DUP3 ADD AND DUP3 ADD DUP1 PUSH1 0x40 MSTORE POP DUP2 ADD SWAP1 PUSH2 0x418 SWAP2 SWAP1 PUSH2 0x2324 JUMP JUMPDEST SWAP1 POP DUP1 DUP6 GT ISZERO PUSH2 0x45D JUMPI PUSH1 0x40 MLOAD PUSH32 0x8C379A000000000000000000000000000000000000000000000000000000000 DUP2 MSTORE PUSH1 0x4 ADD PUSH2 0x454 SWAP1 PUSH2 0x2399 JUMP JUMPDEST PUSH1 0x40 MLOAD DUP1 SWAP2 SUB SWAP1 REVERT JUMPDEST PUSH2 0x48A CALLER ADDRESS DUP8 DUP10 PUSH20 0xFFFFFFFFFFFFFFFFFFFFFFFFFFFFFFFFFFFFFFFF AND PUSH2 0x1626 SWAP1 SWAP4 SWAP3 SWAP2 SWAP1 PUSH4 0xFFFFFFFF AND JUMP JUMPDEST PUSH1 0x2 PUSH0 CALLER PUSH20 0xFFFFFFFFFFFFFFFFFFFFFFFFFFFFFFFFFFFFFFFF AND PUSH20 0xFFFFFFFFFFFFFFFFFFFFFFFFFFFFFFFFFFFFFFFF AND DUP2 MSTORE PUSH1 0x20 ADD SWAP1 DUP2 MSTORE PUSH1 0x20 ADD PUSH0 KECCAK256 PUSH0 DUP6 PUSH1 0xFF AND PUSH1 0xFF AND DUP2 MSTORE PUSH1 0x20 ADD SWAP1 DUP2 MSTORE PUSH1 0x20 ADD PUSH0 KECCAK256 PUSH1 0x40 MLOAD DUP1 PUSH1 0xC0 ADD PUSH1 0x40 MSTORE DUP1 DUP9 PUSH20 0xFFFFFFFFFFFFFFFFFFFFFFFFFFFFFFFFFFFFFFFF AND DUP2 MSTORE PUSH1 0x20 ADD DUP8 DUP2 MSTORE PUSH1 0x20 ADD DUP6 TIMESTAMP PUSH2 0x515 SWAP2 SWAP1 PUSH2 0x23E4 JUMP JUMPDEST DUP2 MSTORE PUSH1 0x20 ADD DUP5 DUP2 MSTORE PUSH1 0x20 ADD PUSH0 ISZERO ISZERO DUP2 MSTORE PUSH1 0x20 ADD PUSH0 ISZERO ISZERO DUP2 MSTORE POP SWAP1 DUP1 PUSH1 0x1 DUP2 SLOAD ADD DUP1 DUP3 SSTORE DUP1 SWAP2 POP POP PUSH1 0x1 SWAP1 SUB SWAP1 PUSH0 MSTORE PUSH1 0x20 PUSH0 KECCAK256 SWAP1 PUSH1 0x5 MUL ADD PUSH0 SWAP1 SWAP2 SWAP1 SWAP2 SWAP1 SWAP2 POP PUSH0 DUP3 ADD MLOAD DUP2 PUSH0 ADD PUSH0 PUSH2 0x100 EXP DUP2 SLOAD DUP2 PUSH20 0xFFFFFFFFFFFFFFFFFFFFFFFFFFFFFFFFFFFFFFFF MUL NOT AND SWAP1 DUP4 PUSH20 0xFFFFFFFFFFFFFFFFFFFFFFFFFFFFFFFFFFFFFFFF AND MUL OR SWAP1 SSTORE POP PUSH1 0x20 DUP3 ADD MLOAD DUP2 PUSH1 0x1 ADD SSTORE PUSH1 0x40 DUP3 ADD MLOAD DUP2 PUSH1 0x2 ADD SSTORE PUSH1 0x60 DUP3 ADD MLOAD DUP2 PUSH1 0x3 ADD SWAP1 DUP2 PUSH2 0x5C1 SWAP2 SWAP1 PUSH2 0x2611 JUMP JUMPDEST POP PUSH1 0x80 DUP3 ADD MLOAD DUP2 PUSH1 0x4 ADD PUSH0 PUSH2 0x100 EXP DUP2 SLOAD DUP2 PUSH1 0xFF MUL NOT AND SWAP1 DUP4 ISZERO ISZERO MUL OR SWAP1 SSTORE POP PUSH1 0xA0 DUP3 ADD MLOAD DUP2 PUSH1 0x4 ADD PUSH1 0x1 PUSH2 0x100 EXP DUP2 SLOAD DUP2 PUSH1 0xFF MUL NOT AND SWAP1 DUP4 ISZERO ISZERO MUL OR SWAP1 SSTORE POP POP POP DUP6 PUSH20 0xFFFFFFFFFFFFFFFFFFFFFFFFFFFFFFFFFFFFFFFF AND PUSH32 0xED26BD61B6BF2F43D7471454E53E77FFDC96BEEFA2F198977936F6D02D34563D DUP7 DUP5 DUP8 DUP8 TIMESTAMP PUSH2 0x64A SWAP2 SWAP1 PUSH2 0x23E4 JUMP JUMPDEST TIMESTAMP PUSH1 0x40 MLOAD PUSH2 0x65C SWAP6 SWAP5 SWAP4 SWAP3 SWAP2 SWAP1 PUSH2 0x26EF JUMP JUMPDEST PUSH1 0x40 MLOAD DUP1 SWAP2 SUB SWAP1 LOG2 POP PUSH2 0x66D PUSH2 0x16A8 JUMP JUMPDEST POP POP POP POP POP JUMP JUMPDEST PUSH2 0x67C PUSH2 0x15E0 JUMP JUMPDEST PUSH0 CALLVALUE GT PUSH2 0x6BE JUMPI PUSH1 0x40 MLOAD PUSH32 0x8C379A000000000000000000000000000000000000000000000000000000000 DUP2 MSTORE PUSH1 0x4 ADD PUSH2 0x6B5 SWAP1 PUSH2 0x27B7 JUMP JUMPDEST PUSH1 0x40 MLOAD DUP1 SWAP2 SUB SWAP1 REVERT JUMPDEST PUSH0 DUP3 LT ISZERO PUSH2 0x701 JUMPI PUSH1 0x40 MLOAD PUSH32 0x8C379A000000000000000000000000000000000000000000000000000000000 DUP2 MSTORE PUSH1 0x4 ADD PUSH2 0x6F8 SWAP1 PUSH2 0x2845 JUMP JUMPDEST PUSH1 0x40 MLOAD DUP1 SWAP2 SUB SWAP1 REVERT JUMPDEST PUSH1 0x2 PUSH0 CALLER PUSH20 0xFFFFFFFFFFFFFFFFFFFFFFFFFFFFFFFFFFFFFFFF AND PUSH20 0xFFFFFFFFFFFFFFFFFFFFFFFFFFFFFFFFFFFFFFFF AND DUP2 MSTORE PUSH1 0x20 ADD SWAP1 DUP2 MSTORE PUSH1 0x20 ADD PUSH0 KECCAK256 PUSH0 DUP5 PUSH1 0xFF AND PUSH1 0xFF AND DUP2 MSTORE PUSH1 0x20 ADD SWAP1 DUP2 MSTORE PUSH1 0x20 ADD PUSH0 KECCAK256 PUSH1 0x40 MLOAD DUP1 PUSH1 0xC0 ADD PUSH1 0x40 MSTORE DUP1 PUSH0 PUSH20 0xFFFFFFFFFFFFFFFFFFFFFFFFFFFFFFFFFFFFFFFF AND DUP2 MSTORE PUSH1 0x20 ADD CALLVALUE DUP2 MSTORE PUSH1 0x20 ADD DUP5 TIMESTAMP PUSH2 0x78C SWAP2 SWAP1 PUSH2 0x23E4 JUMP JUMPDEST DUP2 MSTORE PUSH1 0x20 ADD DUP4 DUP2 MSTORE PUSH1 0x20 ADD PUSH0 ISZERO ISZERO DUP2 MSTORE PUSH1 0x20 ADD PUSH1 0x1 ISZERO ISZERO DUP2 MSTORE POP SWAP1 DUP1 PUSH1 0x1 DUP2 SLOAD ADD DUP1 DUP3 SSTORE DUP1 SWAP2 POP POP PUSH1 0x1 SWAP1 SUB SWAP1 PUSH0 MSTORE PUSH1 0x20 PUSH0 KECCAK256 SWAP1 PUSH1 0x5 MUL ADD PUSH0 SWAP1 SWAP2 SWAP1 SWAP2 SWAP1 SWAP2 POP PUSH0 DUP3 ADD MLOAD DUP2 PUSH0 ADD PUSH0 PUSH2 0x100 EXP DUP2 SLOAD DUP2 PUSH20 0xFFFFFFFFFFFFFFFFFFFFFFFFFFFFFFFFFFFFFFFF MUL NOT AND SWAP1 DUP4 PUSH20 0xFFFFFFFFFFFFFFFFFFFFFFFFFFFFFFFFFFFFFFFF AND MUL OR SWAP1 SSTORE POP PUSH1 0x20 DUP3 ADD MLOAD DUP2 PUSH1 0x1 ADD SSTORE PUSH1 0x40 DUP3 ADD MLOAD DUP2 PUSH1 0x2 ADD SSTORE PUSH1 0x60 DUP3 ADD MLOAD DUP2 PUSH1 0x3 ADD SWAP1 DUP2 PUSH2 0x839 SWAP2 SWAP1 PUSH2 0x2611 JUMP JUMPDEST POP PUSH1 0x80 DUP3 ADD MLOAD DUP2 PUSH1 0x4 ADD PUSH0 PUSH2 0x100 EXP DUP2 SLOAD DUP2 PUSH1 0xFF MUL NOT AND SWAP1 DUP4 ISZERO ISZERO MUL OR SWAP1 SSTORE POP PUSH1 0xA0 DUP3 ADD MLOAD DUP2 PUSH1 0x4 ADD PUSH1 0x1 PUSH2 0x100 EXP DUP2 SLOAD DUP2 PUSH1 0xFF MUL NOT AND SWAP1 DUP4 ISZERO ISZERO MUL OR SWAP1 SSTORE POP POP POP PUSH0 PUSH20 0xFFFFFFFFFFFFFFFFFFFFFFFFFFFFFFFFFFFFFFFF AND PUSH32 0xED26BD61B6BF2F43D7471454E53E77FFDC96BEEFA2F198977936F6D02D34563D CALLVALUE DUP4 DUP7 DUP7 TIMESTAMP PUSH2 0x8C2 SWAP2 SWAP1 PUSH2 0x23E4 JUMP JUMPDEST TIMESTAMP PUSH1 0x40 MLOAD PUSH2 0x8D4 SWAP6 SWAP5 SWAP4 SWAP3 SWAP2 SWAP1 PUSH2 0x26EF JUMP JUMPDEST PUSH1 0x40 MLOAD DUP1 SWAP2 SUB SWAP1 LOG2 PUSH2 0x8E4 PUSH2 0x16A8 JUMP JUMPDEST POP POP POP JUMP JUMPDEST PUSH0 DUP2 PUSH20 0xFFFFFFFFFFFFFFFFFFFFFFFFFFFFFFFFFFFFFFFF AND PUSH4 0x70A08231 ADDRESS PUSH1 0x40 MLOAD DUP3 PUSH4 0xFFFFFFFF AND PUSH1 0xE0 SHL DUP2 MSTORE PUSH1 0x4 ADD PUSH2 0x923 SWAP2 SWAP1 PUSH2 0x1F5D JUMP JUMPDEST PUSH1 0x20 PUSH1 0x40 MLOAD DUP1 DUP4 SUB DUP2 DUP7 GAS STATICCALL ISZERO DUP1 ISZERO PUSH2 0x93E JUMPI RETURNDATASIZE PUSH0 DUP1 RETURNDATACOPY RETURNDATASIZE PUSH0 REVERT JUMPDEST POP POP POP POP PUSH1 0x40 MLOAD RETURNDATASIZE PUSH1 0x1F NOT PUSH1 0x1F DUP3 ADD AND DUP3 ADD DUP1 PUSH1 0x40 MSTORE POP DUP2 ADD SWAP1 PUSH2 0x962 SWAP2 SWAP1 PUSH2 0x2324 JUMP JUMPDEST SWAP1 POP SWAP2 SWAP1 POP JUMP JUMPDEST PUSH2 0x971 PUSH2 0x15E0 JUMP JUMPDEST PUSH0 PUSH20 0xFFFFFFFFFFFFFFFFFFFFFFFFFFFFFFFFFFFFFFFF AND DUP5 PUSH20 0xFFFFFFFFFFFFFFFFFFFFFFFFFFFFFFFFFFFFFFFF AND SUB PUSH2 0x9DF JUMPI PUSH1 0x40 MLOAD PUSH32 0x8C379A000000000000000000000000000000000000000000000000000000000 DUP2 MSTORE PUSH1 0x4 ADD PUSH2 0x9D6 SWAP1 PUSH2 0x21D6 JUMP JUMPDEST PUSH1 0x40 MLOAD DUP1 SWAP2 SUB SWAP1 REVERT JUMPDEST PUSH0 DUP3 GT PUSH2 0xA21 JUMPI PUSH1 0x40 MLOAD PUSH32 0x8C379A000000000000000000000000000000000000000000000000000000000 DUP2 MSTORE PUSH1 0x4 ADD PUSH2 0xA18 SWAP1 PUSH2 0x2264 JUMP JUMPDEST PUSH1 0x40 MLOAD DUP1 SWAP2 SUB SWAP1 REVERT JUMPDEST PUSH2 0xA4E CALLER ADDRESS DUP5 DUP8 PUSH20 0xFFFFFFFFFFFFFFFFFFFFFFFFFFFFFFFFFFFFFFFF AND PUSH2 0x1626 SWAP1 SWAP4 SWAP3 SWAP2 SWAP1 PUSH4 0xFFFFFFFF AND JUMP JUMPDEST DUP2 PUSH1 0x2 PUSH0 CALLER PUSH20 0xFFFFFFFFFFFFFFFFFFFFFFFFFFFFFFFFFFFFFFFF AND PUSH20 0xFFFFFFFFFFFFFFFFFFFFFFFFFFFFFFFFFFFFFFFF AND DUP2 MSTORE PUSH1 0x20 ADD SWAP1 DUP2 MSTORE PUSH1 0x20 ADD PUSH0 KECCAK256 PUSH0 DUP4 PUSH1 0xFF AND PUSH1 0xFF AND DUP2 MSTORE PUSH1 0x20 ADD SWAP1 DUP2 MSTORE PUSH1 0x20 ADD PUSH0 KECCAK256 DUP5 PUSH4 0xFFFFFFFF AND DUP2 SLOAD DUP2 LT PUSH2 0xAB9 JUMPI PUSH2 0xAB8 PUSH2 0x2863 JUMP JUMPDEST JUMPDEST SWAP1 PUSH0 MSTORE PUSH1 0x20 PUSH0 KECCAK256 SWAP1 PUSH1 0x5 MUL ADD PUSH1 0x1 ADD PUSH0 DUP3 DUP3 SLOAD PUSH2 0xAD6 SWAP2 SWAP1 PUSH2 0x23E4 JUMP JUMPDEST SWAP3 POP POP DUP2 SWAP1 SSTORE POP DUP4 PUSH20 0xFFFFFFFFFFFFFFFFFFFFFFFFFFFFFFFFFFFFFFFF AND PUSH32 0xB99CE8321B94FFAA5C5021540EC0668DCBA948D044760A5EF298FA0513B1EF4 DUP4 PUSH1 0x2 PUSH0 CALLER PUSH20 0xFFFFFFFFFFFFFFFFFFFFFFFFFFFFFFFFFFFFFFFF AND PUSH20 0xFFFFFFFFFFFFFFFFFFFFFFFFFFFFFFFFFFFFFFFF AND DUP2 MSTORE PUSH1 0x20 ADD SWAP1 DUP2 MSTORE PUSH1 0x20 ADD PUSH0 KECCAK256 PUSH0 DUP6 PUSH1 0xFF AND PUSH1 0xFF AND DUP2 MSTORE PUSH1 0x20 ADD SWAP1 DUP2 MSTORE PUSH1 0x20 ADD PUSH0 KECCAK256 DUP7 PUSH4 0xFFFFFFFF AND DUP2 SLOAD DUP2 LT PUSH2 0xB80 JUMPI PUSH2 0xB7F PUSH2 0x2863 JUMP JUMPDEST JUMPDEST SWAP1 PUSH0 MSTORE PUSH1 0x20 PUSH0 KECCAK256 SWAP1 PUSH1 0x5 MUL ADD PUSH1 0x3 ADD DUP5 TIMESTAMP PUSH1 0x40 MLOAD PUSH2 0xBA1 SWAP5 SWAP4 SWAP3 SWAP2 SWAP1 PUSH2 0x2911 JUMP JUMPDEST PUSH1 0x40 MLOAD DUP1 SWAP2 SUB SWAP1 LOG2 PUSH2 0xBB1 PUSH2 0x16A8 JUMP JUMPDEST POP POP POP POP JUMP JUMPDEST PUSH1 0x60 PUSH1 0x2 PUSH0 CALLER PUSH20 0xFFFFFFFFFFFFFFFFFFFFFFFFFFFFFFFFFFFFFFFF AND PUSH20 0xFFFFFFFFFFFFFFFFFFFFFFFFFFFFFFFFFFFFFFFF AND DUP2 MSTORE PUSH1 0x20 ADD SWAP1 DUP2 MSTORE PUSH1 0x20 ADD PUSH0 KECCAK256 PUSH0 DUP4 PUSH1 0xFF AND PUSH1 0xFF AND DUP2 MSTORE PUSH1 0x20 ADD SWAP1 DUP2 MSTORE PUSH1 0x20 ADD PUSH0 KECCAK256 DUP1 SLOAD DUP1 PUSH1 0x20 MUL PUSH1 0x20 ADD PUSH1 0x40 MLOAD SWAP1 DUP2 ADD PUSH1 0x40 MSTORE DUP1 SWAP3 SWAP2 SWAP1 DUP2 DUP2 MSTORE PUSH1 0x20 ADD PUSH0 SWAP1 JUMPDEST DUP3 DUP3 LT ISZERO PUSH2 0xD87 JUMPI DUP4 DUP3 SWAP1 PUSH0 MSTORE PUSH1 0x20 PUSH0 KECCAK256 SWAP1 PUSH1 0x5 MUL ADD PUSH1 0x40 MLOAD DUP1 PUSH1 0xC0 ADD PUSH1 0x40 MSTORE SWAP1 DUP2 PUSH0 DUP3 ADD PUSH0 SWAP1 SLOAD SWAP1 PUSH2 0x100 EXP SWAP1 DIV PUSH20 0xFFFFFFFFFFFFFFFFFFFFFFFFFFFFFFFFFFFFFFFF AND PUSH20 0xFFFFFFFFFFFFFFFFFFFFFFFFFFFFFFFFFFFFFFFF AND PUSH20 0xFFFFFFFFFFFFFFFFFFFFFFFFFFFFFFFFFFFFFFFF AND DUP2 MSTORE PUSH1 0x20 ADD PUSH1 0x1 DUP3 ADD SLOAD DUP2 MSTORE PUSH1 0x20 ADD PUSH1 0x2 DUP3 ADD SLOAD DUP2 MSTORE PUSH1 0x20 ADD PUSH1 0x3 DUP3 ADD DUP1 SLOAD PUSH2 0xCC3 SWAP1 PUSH2 0x2444 JUMP JUMPDEST DUP1 PUSH1 0x1F ADD PUSH1 0x20 DUP1 SWAP2 DIV MUL PUSH1 0x20 ADD PUSH1 0x40 MLOAD SWAP1 DUP2 ADD PUSH1 0x40 MSTORE DUP1 SWAP3 SWAP2 SWAP1 DUP2 DUP2 MSTORE PUSH1 0x20 ADD DUP3 DUP1 SLOAD PUSH2 0xCEF SWAP1 PUSH2 0x2444 JUMP JUMPDEST DUP1 ISZERO PUSH2 0xD3A JUMPI DUP1 PUSH1 0x1F LT PUSH2 0xD11 JUMPI PUSH2 0x100 DUP1 DUP4 SLOAD DIV MUL DUP4 MSTORE SWAP2 PUSH1 0x20 ADD SWAP2 PUSH2 0xD3A JUMP JUMPDEST DUP3 ADD SWAP2 SWAP1 PUSH0 MSTORE PUSH1 0x20 PUSH0 KECCAK256 SWAP1 JUMPDEST DUP2 SLOAD DUP2 MSTORE SWAP1 PUSH1 0x1 ADD SWAP1 PUSH1 0x20 ADD DUP1 DUP4 GT PUSH2 0xD1D JUMPI DUP3 SWAP1 SUB PUSH1 0x1F AND DUP3 ADD SWAP2 JUMPDEST POP POP POP POP POP DUP2 MSTORE PUSH1 0x20 ADD PUSH1 0x4 DUP3 ADD PUSH0 SWAP1 SLOAD SWAP1 PUSH2 0x100 EXP SWAP1 DIV PUSH1 0xFF AND ISZERO ISZERO ISZERO ISZERO DUP2 MSTORE PUSH1 0x20 ADD PUSH1 0x4 DUP3 ADD PUSH1 0x1 SWAP1 SLOAD SWAP1 PUSH2 0x100 EXP SWAP1 DIV PUSH1 0xFF AND ISZERO ISZERO ISZERO ISZERO DUP2 MSTORE POP POP DUP2 MSTORE PUSH1 0x20 ADD SWAP1 PUSH1 0x1 ADD SWAP1 PUSH2 0xC2A JUMP JUMPDEST POP POP POP POP SWAP1 POP SWAP2 SWAP1 POP JUMP JUMPDEST PUSH2 0xD9A PUSH2 0x16B1 JUMP JUMPDEST PUSH2 0xDA3 PUSH0 PUSH2 0x1738 JUMP JUMPDEST JUMP JUMPDEST PUSH0 SELFBALANCE SWAP1 POP SWAP1 JUMP JUMPDEST PUSH0 DUP1 PUSH0 SWAP1 SLOAD SWAP1 PUSH2 0x100 EXP SWAP1 DIV PUSH20 0xFFFFFFFFFFFFFFFFFFFFFFFFFFFFFFFFFFFFFFFF AND SWAP1 POP SWAP1 JUMP JUMPDEST PUSH1 0x2 PUSH1 0x20 MSTORE DUP3 PUSH0 MSTORE PUSH1 0x40 PUSH0 KECCAK256 PUSH1 0x20 MSTORE DUP2 PUSH0 MSTORE PUSH1 0x40 PUSH0 KECCAK256 DUP2 DUP2 SLOAD DUP2 LT PUSH2 0xDF6 JUMPI PUSH0 DUP1 REVERT JUMPDEST SWAP1 PUSH0 MSTORE PUSH1 0x20 PUSH0 KECCAK256 SWAP1 PUSH1 0x5 MUL ADD PUSH0 SWAP3 POP SWAP3 POP POP POP DUP1 PUSH0 ADD PUSH0 SWAP1 SLOAD SWAP1 PUSH2 0x100 EXP SWAP1 DIV PUSH20 0xFFFFFFFFFFFFFFFFFFFFFFFFFFFFFFFFFFFFFFFF AND SWAP1 DUP1 PUSH1 0x1 ADD SLOAD SWAP1 DUP1 PUSH1 0x2 ADD SLOAD SWAP1 DUP1 PUSH1 0x3 ADD DUP1 SLOAD PUSH2 0xE48 SWAP1 PUSH2 0x2444 JUMP JUMPDEST DUP1 PUSH1 0x1F ADD PUSH1 0x20 DUP1 SWAP2 DIV MUL PUSH1 0x20 ADD PUSH1 0x40 MLOAD SWAP1 DUP2 ADD PUSH1 0x40 MSTORE DUP1 SWAP3 SWAP2 SWAP1 DUP2 DUP2 MSTORE PUSH1 0x20 ADD DUP3 DUP1 SLOAD PUSH2 0xE74 SWAP1 PUSH2 0x2444 JUMP JUMPDEST DUP1 ISZERO PUSH2 0xEBF JUMPI DUP1 PUSH1 0x1F LT PUSH2 0xE96 JUMPI PUSH2 0x100 DUP1 DUP4 SLOAD DIV MUL DUP4 MSTORE SWAP2 PUSH1 0x20 ADD SWAP2 PUSH2 0xEBF JUMP JUMPDEST DUP3 ADD SWAP2 SWAP1 PUSH0 MSTORE PUSH1 0x20 PUSH0 KECCAK256 SWAP1 JUMPDEST DUP2 SLOAD DUP2 MSTORE SWAP1 PUSH1 0x1 ADD SWAP1 PUSH1 0x20 ADD DUP1 DUP4 GT PUSH2 0xEA2 JUMPI DUP3 SWAP1 SUB PUSH1 0x1F AND DUP3 ADD SWAP2 JUMPDEST POP POP POP POP POP SWAP1 DUP1 PUSH1 0x4 ADD PUSH0 SWAP1 SLOAD SWAP1 PUSH2 0x100 EXP SWAP1 DIV PUSH1 0xFF AND SWAP1 DUP1 PUSH1 0x4 ADD PUSH1 0x1 SWAP1 SLOAD SWAP1 PUSH2 0x100 EXP SWAP1 DIV PUSH1 0xFF AND SWAP1 POP DUP7 JUMP JUMPDEST PUSH2 0xEF6 PUSH2 0x15E0 JUMP JUMPDEST PUSH1 0x2 PUSH0 CALLER PUSH20 0xFFFFFFFFFFFFFFFFFFFFFFFFFFFFFFFFFFFFFFFF AND PUSH20 0xFFFFFFFFFFFFFFFFFFFFFFFFFFFFFFFFFFFFFFFF AND DUP2 MSTORE PUSH1 0x20 ADD SWAP1 DUP2 MSTORE PUSH1 0x20 ADD PUSH0 KECCAK256 PUSH0 DUP4 PUSH1 0xFF AND PUSH1 0xFF AND DUP2 MSTORE PUSH1 0x20 ADD SWAP1 DUP2 MSTORE PUSH1 0x20 ADD PUSH0 KECCAK256 DUP1 SLOAD SWAP1 POP DUP4 PUSH4 0xFFFFFFFF AND LT PUSH2 0xF93 JUMPI PUSH1 0x40 MLOAD PUSH32 0x8C379A000000000000000000000000000000000000000000000000000000000 DUP2 MSTORE PUSH1 0x4 ADD PUSH2 0xF8A SWAP1 PUSH2 0x29CB JUMP JUMPDEST PUSH1 0x40 MLOAD DUP1 SWAP2 SUB SWAP1 REVERT JUMPDEST PUSH0 PUSH1 0x2 PUSH0 CALLER PUSH20 0xFFFFFFFFFFFFFFFFFFFFFFFFFFFFFFFFFFFFFFFF AND PUSH20 0xFFFFFFFFFFFFFFFFFFFFFFFFFFFFFFFFFFFFFFFF AND DUP2 MSTORE PUSH1 0x20 ADD SWAP1 DUP2 MSTORE PUSH1 0x20 ADD PUSH0 KECCAK256 PUSH0 DUP5 PUSH1 0xFF AND PUSH1 0xFF AND DUP2 MSTORE PUSH1 0x20 ADD SWAP1 DUP2 MSTORE PUSH1 0x20 ADD PUSH0 KECCAK256 DUP5 PUSH4 0xFFFFFFFF AND DUP2 SLOAD DUP2 LT PUSH2 0xFFE JUMPI PUSH2 0xFFD PUSH2 0x2863 JUMP JUMPDEST JUMPDEST SWAP1 PUSH0 MSTORE PUSH1 0x20 PUSH0 KECCAK256 SWAP1 PUSH1 0x5 MUL ADD SWAP1 POP DUP1 PUSH1 0x4 ADD PUSH0 SWAP1 SLOAD SWAP1 PUSH2 0x100 EXP SWAP1 DIV PUSH1 0xFF AND ISZERO PUSH2 0x105D JUMPI PUSH1 0x40 MLOAD PUSH32 0x8C379A000000000000000000000000000000000000000000000000000000000 DUP2 MSTORE PUSH1 0x4 ADD PUSH2 0x1054 SWAP1 PUSH2 0x2A59 JUMP JUMPDEST PUSH1 0x40 MLOAD DUP1 SWAP2 SUB SWAP1 REVERT JUMPDEST DUP1 PUSH1 0x2 ADD SLOAD TIMESTAMP GT PUSH2 0x10A3 JUMPI PUSH1 0x40 MLOAD PUSH32 0x8C379A000000000000000000000000000000000000000000000000000000000 DUP2 MSTORE PUSH1 0x4 ADD PUSH2 0x109A SWAP1 PUSH2 0x2AE7 JUMP JUMPDEST PUSH1 0x40 MLOAD DUP1 SWAP2 SUB SWAP1 REVERT JUMPDEST PUSH0 DUP3 DUP3 PUSH1 0x1 ADD SLOAD PUSH2 0x10B4 SWAP2 SWAP1 PUSH2 0x2B05 JUMP JUMPDEST SWAP1 POP PUSH0 DUP2 LT ISZERO PUSH2 0x10F9 JUMPI PUSH1 0x40 MLOAD PUSH32 0x8C379A000000000000000000000000000000000000000000000000000000000 DUP2 MSTORE PUSH1 0x4 ADD PUSH2 0x10F0 SWAP1 PUSH2 0x2B82 JUMP JUMPDEST PUSH1 0x40 MLOAD DUP1 SWAP2 SUB SWAP1 REVERT JUMPDEST PUSH0 DUP2 SUB PUSH2 0x1192 JUMPI PUSH1 0x1 PUSH1 0x2 PUSH0 CALLER PUSH20 0xFFFFFFFFFFFFFFFFFFFFFFFFFFFFFFFFFFFFFFFF AND PUSH20 0xFFFFFFFFFFFFFFFFFFFFFFFFFFFFFFFFFFFFFFFF AND DUP2 MSTORE PUSH1 0x20 ADD SWAP1 DUP2 MSTORE PUSH1 0x20 ADD PUSH0 KECCAK256 PUSH0 DUP7 PUSH1 0xFF AND PUSH1 0xFF AND DUP2 MSTORE PUSH1 0x20 ADD SWAP1 DUP2 MSTORE PUSH1 0x20 ADD PUSH0 KECCAK256 DUP7 PUSH4 0xFFFFFFFF AND DUP2 SLOAD DUP2 LT PUSH2 0x116C JUMPI PUSH2 0x116B PUSH2 0x2863 JUMP JUMPDEST JUMPDEST SWAP1 PUSH0 MSTORE PUSH1 0x20 PUSH0 KECCAK256 SWAP1 PUSH1 0x5 MUL ADD PUSH1 0x4 ADD PUSH0 PUSH2 0x100 EXP DUP2 SLOAD DUP2 PUSH1 0xFF MUL NOT AND SWAP1 DUP4 ISZERO ISZERO MUL OR SWAP1 SSTORE POP JUMPDEST DUP1 PUSH1 0x2 PUSH0 CALLER PUSH20 0xFFFFFFFFFFFFFFFFFFFFFFFFFFFFFFFFFFFFFFFF AND PUSH20 0xFFFFFFFFFFFFFFFFFFFFFFFFFFFFFFFFFFFFFFFF AND DUP2 MSTORE PUSH1 0x20 ADD SWAP1 DUP2 MSTORE PUSH1 0x20 ADD PUSH0 KECCAK256 PUSH0 DUP7 PUSH1 0xFF AND PUSH1 0xFF AND DUP2 MSTORE PUSH1 0x20 ADD SWAP1 DUP2 MSTORE PUSH1 0x20 ADD PUSH0 KECCAK256 DUP7 PUSH4 0xFFFFFFFF AND DUP2 SLOAD DUP2 LT PUSH2 0x11FD JUMPI PUSH2 0x11FC PUSH2 0x2863 JUMP JUMPDEST JUMPDEST SWAP1 PUSH0 MSTORE PUSH1 0x20 PUSH0 KECCAK256 SWAP1 PUSH1 0x5 MUL ADD PUSH1 0x1 ADD DUP2 SWAP1 SSTORE POP DUP2 PUSH1 0x4 ADD PUSH1 0x1 SWAP1 SLOAD SWAP1 PUSH2 0x100 EXP SWAP1 DIV PUSH1 0xFF AND ISZERO PUSH2 0x12D5 JUMPI PUSH0 CALLER PUSH20 0xFFFFFFFFFFFFFFFFFFFFFFFFFFFFFFFFFFFFFFFF AND DUP5 PUSH1 0x40 MLOAD PUSH2 0x124C SWAP1 PUSH2 0x2BCD JUMP JUMPDEST PUSH0 PUSH1 0x40 MLOAD DUP1 DUP4 SUB DUP2 DUP6 DUP8 GAS CALL SWAP3 POP POP POP RETURNDATASIZE DUP1 PUSH0 DUP2 EQ PUSH2 0x1286 JUMPI PUSH1 0x40 MLOAD SWAP2 POP PUSH1 0x1F NOT PUSH1 0x3F RETURNDATASIZE ADD AND DUP3 ADD PUSH1 0x40 MSTORE RETURNDATASIZE DUP3 MSTORE RETURNDATASIZE PUSH0 PUSH1 0x20 DUP5 ADD RETURNDATACOPY PUSH2 0x128B JUMP JUMPDEST PUSH1 0x60 SWAP2 POP JUMPDEST POP POP SWAP1 POP DUP1 PUSH2 0x12CF JUMPI PUSH1 0x40 MLOAD PUSH32 0x8C379A000000000000000000000000000000000000000000000000000000000 DUP2 MSTORE PUSH1 0x4 ADD PUSH2 0x12C6 SWAP1 PUSH2 0x2C2B JUMP JUMPDEST PUSH1 0x40 MLOAD DUP1 SWAP2 SUB SWAP1 REVERT JUMPDEST POP PUSH2 0x1323 JUMP JUMPDEST PUSH2 0x1322 CALLER DUP5 DUP5 PUSH0 ADD PUSH0 SWAP1 SLOAD SWAP1 PUSH2 0x100 EXP SWAP1 DIV PUSH20 0xFFFFFFFFFFFFFFFFFFFFFFFFFFFFFFFFFFFFFFFF AND PUSH20 0xFFFFFFFFFFFFFFFFFFFFFFFFFFFFFFFFFFFFFFFF AND PUSH2 0x17F9 SWAP1 SWAP3 SWAP2 SWAP1 PUSH4 0xFFFFFFFF AND JUMP JUMPDEST JUMPDEST DUP2 PUSH0 ADD PUSH0 SWAP1 SLOAD SWAP1 PUSH2 0x100 EXP SWAP1 DIV PUSH20 0xFFFFFFFFFFFFFFFFFFFFFFFFFFFFFFFFFFFFFFFF AND PUSH20 0xFFFFFFFFFFFFFFFFFFFFFFFFFFFFFFFFFFFFFFFF AND PUSH32 0x16C4C024C274B52575FFC17396BBC4A59DB7DD13AAC28373E025A9F6269F9E03 DUP5 DUP5 PUSH1 0x3 ADD DUP8 TIMESTAMP PUSH1 0x40 MLOAD PUSH2 0x1394 SWAP5 SWAP4 SWAP3 SWAP2 SWAP1 PUSH2 0x2911 JUMP JUMPDEST PUSH1 0x40 MLOAD DUP1 SWAP2 SUB SWAP1 LOG2 POP POP PUSH2 0x13A6 PUSH2 0x16A8 JUMP JUMPDEST POP POP POP JUMP JUMPDEST PUSH2 0x13B3 PUSH2 0x15E0 JUMP JUMPDEST PUSH0 CALLVALUE GT PUSH2 0x13F5 JUMPI PUSH1 0x40 MLOAD PUSH32 0x8C379A000000000000000000000000000000000000000000000000000000000 DUP2 MSTORE PUSH1 0x4 ADD PUSH2 0x13EC SWAP1 PUSH2 0x2CB9 JUMP JUMPDEST PUSH1 0x40 MLOAD DUP1 SWAP2 SUB SWAP1 REVERT JUMPDEST CALLVALUE PUSH1 0x2 PUSH0 CALLER PUSH20 0xFFFFFFFFFFFFFFFFFFFFFFFFFFFFFFFFFFFFFFFF AND PUSH20 0xFFFFFFFFFFFFFFFFFFFFFFFFFFFFFFFFFFFFFFFF AND DUP2 MSTORE PUSH1 0x20 ADD SWAP1 DUP2 MSTORE PUSH1 0x20 ADD PUSH0 KECCAK256 PUSH0 DUP5 PUSH1 0xFF AND PUSH1 0xFF AND DUP2 MSTORE PUSH1 0x20 ADD SWAP1 DUP2 MSTORE PUSH1 0x20 ADD PUSH0 KECCAK256 DUP3 PUSH4 0xFFFFFFFF AND DUP2 SLOAD DUP2 LT PUSH2 0x1460 JUMPI PUSH2 0x145F PUSH2 0x2863 JUMP JUMPDEST JUMPDEST SWAP1 PUSH0 MSTORE PUSH1 0x20 PUSH0 KECCAK256 SWAP1 PUSH1 0x5 MUL ADD PUSH1 0x1 ADD PUSH0 DUP3 DUP3 SLOAD PUSH2 0x147D SWAP2 SWAP1 PUSH2 0x23E4 JUMP JUMPDEST SWAP3 POP POP DUP2 SWAP1 SSTORE POP PUSH0 PUSH20 0xFFFFFFFFFFFFFFFFFFFFFFFFFFFFFFFFFFFFFFFF AND PUSH32 0xB99CE8321B94FFAA5C5021540EC0668DCBA948D044760A5EF298FA0513B1EF4 CALLVALUE PUSH1 0x2 PUSH0 CALLER PUSH20 0xFFFFFFFFFFFFFFFFFFFFFFFFFFFFFFFFFFFFFFFF AND PUSH20 0xFFFFFFFFFFFFFFFFFFFFFFFFFFFFFFFFFFFFFFFF AND DUP2 MSTORE PUSH1 0x20 ADD SWAP1 DUP2 MSTORE PUSH1 0x20 ADD PUSH0 KECCAK256 PUSH0 DUP7 PUSH1 0xFF AND PUSH1 0xFF AND DUP2 MSTORE PUSH1 0x20 ADD SWAP1 DUP2 MSTORE PUSH1 0x20 ADD PUSH0 KECCAK256 DUP5 PUSH4 0xFFFFFFFF AND DUP2 SLOAD DUP2 LT PUSH2 0x1527 JUMPI PUSH2 0x1526 PUSH2 0x2863 JUMP JUMPDEST JUMPDEST SWAP1 PUSH0 MSTORE PUSH1 0x20 PUSH0 KECCAK256 SWAP1 PUSH1 0x5 MUL ADD PUSH1 0x3 ADD DUP6 TIMESTAMP PUSH1 0x40 MLOAD PUSH2 0x1548 SWAP5 SWAP4 SWAP3 SWAP2 SWAP1 PUSH2 0x2911 JUMP JUMPDEST PUSH1 0x40 MLOAD DUP1 SWAP2 SUB SWAP1 LOG2 PUSH2 0x1558 PUSH2 0x16A8 JUMP JUMPDEST POP POP JUMP JUMPDEST PUSH2 0x1564 PUSH2 0x16B1 JUMP JUMPDEST PUSH0 PUSH20 0xFFFFFFFFFFFFFFFFFFFFFFFFFFFFFFFFFFFFFFFF AND DUP2 PUSH20 0xFFFFFFFFFFFFFFFFFFFFFFFFFFFFFFFFFFFFFFFF AND SUB PUSH2 0x15D4 JUMPI PUSH0 PUSH1 0x40 MLOAD PUSH32 0x1E4FBDF700000000000000000000000000000000000000000000000000000000 DUP2 MSTORE PUSH1 0x4 ADD PUSH2 0x15CB SWAP2 SWAP1 PUSH2 0x1F5D JUMP JUMPDEST PUSH1 0x40 MLOAD DUP1 SWAP2 SUB SWAP1 REVERT JUMPDEST PUSH2 0x15DD DUP2 PUSH2 0x1738 JUMP JUMPDEST POP JUMP JUMPDEST PUSH1 0x2 PUSH1 0x1 SLOAD SUB PUSH2 0x161C JUMPI PUSH1 0x40 MLOAD PUSH32 0x3EE5AEB500000000000000000000000000000000000000000000000000000000 DUP2 MSTORE PUSH1 0x4 ADD PUSH1 0x40 MLOAD DUP1 SWAP2 SUB SWAP1 REVERT JUMPDEST PUSH1 0x2 PUSH1 0x1 DUP2 SWAP1 SSTORE POP JUMP JUMPDEST PUSH2 0x16A2 DUP5 DUP6 PUSH20 0xFFFFFFFFFFFFFFFFFFFFFFFFFFFFFFFFFFFFFFFF AND PUSH4 0x23B872DD DUP7 DUP7 DUP7 PUSH1 0x40 MLOAD PUSH1 0x24 ADD PUSH2 0x165B SWAP4 SWAP3 SWAP2 SWAP1 PUSH2 0x2CD7 JUMP JUMPDEST PUSH1 0x40 MLOAD PUSH1 0x20 DUP2 DUP4 SUB SUB DUP2 MSTORE SWAP1 PUSH1 0x40 MSTORE SWAP2 POP PUSH1 0xE0 SHL PUSH1 0x20 DUP3 ADD DUP1 MLOAD PUSH28 0xFFFFFFFFFFFFFFFFFFFFFFFFFFFFFFFFFFFFFFFFFFFFFFFFFFFFFFFF DUP4 DUP2 DUP4 AND OR DUP4 MSTORE POP POP POP POP PUSH2 0x1878 JUMP JUMPDEST POP POP POP POP JUMP JUMPDEST PUSH1 0x1 DUP1 DUP2 SWAP1 SSTORE POP JUMP JUMPDEST PUSH2 0x16B9 PUSH2 0x1913 JUMP JUMPDEST PUSH20 0xFFFFFFFFFFFFFFFFFFFFFFFFFFFFFFFFFFFFFFFF AND PUSH2 0x16D7 PUSH2 0xDAC JUMP JUMPDEST PUSH20 0xFFFFFFFFFFFFFFFFFFFFFFFFFFFFFFFFFFFFFFFF AND EQ PUSH2 0x1736 JUMPI PUSH2 0x16FA PUSH2 0x1913 JUMP JUMPDEST PUSH1 0x40 MLOAD PUSH32 0x118CDAA700000000000000000000000000000000000000000000000000000000 DUP2 MSTORE PUSH1 0x4 ADD PUSH2 0x172D SWAP2 SWAP1 PUSH2 0x1F5D JUMP JUMPDEST PUSH1 0x40 MLOAD DUP1 SWAP2 SUB SWAP1 REVERT JUMPDEST JUMP JUMPDEST PUSH0 DUP1 PUSH0 SWAP1 SLOAD SWAP1 PUSH2 0x100 EXP SWAP1 DIV PUSH20 0xFFFFFFFFFFFFFFFFFFFFFFFFFFFFFFFFFFFFFFFF AND SWAP1 POP DUP2 PUSH0 DUP1 PUSH2 0x100 EXP DUP2 SLOAD DUP2 PUSH20 0xFFFFFFFFFFFFFFFFFFFFFFFFFFFFFFFFFFFFFFFF MUL NOT AND SWAP1 DUP4 PUSH20 0xFFFFFFFFFFFFFFFFFFFFFFFFFFFFFFFFFFFFFFFF AND MUL OR SWAP1 SSTORE POP DUP2 PUSH20 0xFFFFFFFFFFFFFFFFFFFFFFFFFFFFFFFFFFFFFFFF AND DUP2 PUSH20 0xFFFFFFFFFFFFFFFFFFFFFFFFFFFFFFFFFFFFFFFF AND PUSH32 0x8BE0079C531659141344CD1FD0A4F28419497F9722A3DAAFE3B4186F6B6457E0 PUSH1 0x40 MLOAD PUSH1 0x40 MLOAD DUP1 SWAP2 SUB SWAP1 LOG3 POP POP JUMP JUMPDEST PUSH2 0x1873 DUP4 DUP5 PUSH20 0xFFFFFFFFFFFFFFFFFFFFFFFFFFFFFFFFFFFFFFFF AND PUSH4 0xA9059CBB DUP6 DUP6 PUSH1 0x40 MLOAD PUSH1 0x24 ADD PUSH2 0x182C SWAP3 SWAP2 SWAP1 PUSH2 0x2D0C JUMP JUMPDEST PUSH1 0x40 MLOAD PUSH1 0x20 DUP2 DUP4 SUB SUB DUP2 MSTORE SWAP1 PUSH1 0x40 MSTORE SWAP2 POP PUSH1 0xE0 SHL PUSH1 0x20 DUP3 ADD DUP1 MLOAD PUSH28 0xFFFFFFFFFFFFFFFFFFFFFFFFFFFFFFFFFFFFFFFFFFFFFFFFFFFFFFFF DUP4 DUP2 DUP4 AND OR DUP4 MSTORE POP POP POP POP PUSH2 0x1878 JUMP JUMPDEST POP POP POP JUMP JUMPDEST PUSH0 DUP1 PUSH1 0x20 PUSH0 DUP5 MLOAD PUSH1 0x20 DUP7 ADD PUSH0 DUP9 GAS CALL DUP1 PUSH2 0x1897 JUMPI PUSH1 0x40 MLOAD RETURNDATASIZE PUSH0 DUP3 RETURNDATACOPY RETURNDATASIZE DUP2 REVERT JUMPDEST RETURNDATASIZE SWAP3 POP PUSH0 MLOAD SWAP2 POP POP PUSH0 DUP3 EQ PUSH2 0x18B0 JUMPI PUSH1 0x1 DUP2 EQ ISZERO PUSH2 0x18CB JUMP JUMPDEST PUSH0 DUP5 PUSH20 0xFFFFFFFFFFFFFFFFFFFFFFFFFFFFFFFFFFFFFFFF AND EXTCODESIZE EQ JUMPDEST ISZERO PUSH2 0x190D JUMPI DUP4 PUSH1 0x40 MLOAD PUSH32 0x5274AFE700000000000000000000000000000000000000000000000000000000 DUP2 MSTORE PUSH1 0x4 ADD PUSH2 0x1904 SWAP2 SWAP1 PUSH2 0x1F5D JUMP JUMPDEST PUSH1 0x40 MLOAD DUP1 SWAP2 SUB SWAP1 REVERT JUMPDEST POP POP POP POP JUMP JUMPDEST PUSH0 CALLER SWAP1 POP SWAP1 JUMP JUMPDEST PUSH0 PUSH1 0x40 MLOAD SWAP1 POP SWAP1 JUMP JUMPDEST PUSH0 DUP1 REVERT JUMPDEST PUSH0 DUP1 REVERT JUMPDEST PUSH0 PUSH20 0xFFFFFFFFFFFFFFFFFFFFFFFFFFFFFFFFFFFFFFFF DUP3 AND SWAP1 POP SWAP2 SWAP1 POP JUMP JUMPDEST PUSH0 PUSH2 0x1954 DUP3 PUSH2 0x192B JUMP JUMPDEST SWAP1 POP SWAP2 SWAP1 POP JUMP JUMPDEST PUSH0 PUSH2 0x1965 DUP3 PUSH2 0x194A JUMP JUMPDEST SWAP1 POP SWAP2 SWAP1 POP JUMP JUMPDEST PUSH2 0x1975 DUP2 PUSH2 0x195B JUMP JUMPDEST DUP2 EQ PUSH2 0x197F JUMPI PUSH0 DUP1 REVERT JUMPDEST POP JUMP JUMPDEST PUSH0 DUP2 CALLDATALOAD SWAP1 POP PUSH2 0x1990 DUP2 PUSH2 0x196C JUMP JUMPDEST SWAP3 SWAP2 POP POP JUMP JUMPDEST PUSH0 DUP2 SWAP1 POP SWAP2 SWAP1 POP JUMP JUMPDEST PUSH2 0x19A8 DUP2 PUSH2 0x1996 JUMP JUMPDEST DUP2 EQ PUSH2 0x19B2 JUMPI PUSH0 DUP1 REVERT JUMPDEST POP JUMP JUMPDEST PUSH0 DUP2 CALLDATALOAD SWAP1 POP PUSH2 0x19C3 DUP2 PUSH2 0x199F JUMP JUMPDEST SWAP3 SWAP2 POP POP JUMP JUMPDEST PUSH0 PUSH1 0xFF DUP3 AND SWAP1 POP SWAP2 SWAP1 POP JUMP JUMPDEST PUSH2 0x19DE DUP2 PUSH2 0x19C9 JUMP JUMPDEST DUP2 EQ PUSH2 0x19E8 JUMPI PUSH0 DUP1 REVERT JUMPDEST POP JUMP JUMPDEST PUSH0 DUP2 CALLDATALOAD SWAP1 POP PUSH2 0x19F9 DUP2 PUSH2 0x19D5 JUMP JUMPDEST SWAP3 SWAP2 POP POP JUMP JUMPDEST PUSH0 DUP1 REVERT JUMPDEST PUSH0 DUP1 REVERT JUMPDEST PUSH0 PUSH1 0x1F NOT PUSH1 0x1F DUP4 ADD AND SWAP1 POP SWAP2 SWAP1 POP JUMP JUMPDEST PUSH32 0x4E487B7100000000000000000000000000000000000000000000000000000000 PUSH0 MSTORE PUSH1 0x41 PUSH1 0x4 MSTORE PUSH1 0x24 PUSH0 REVERT JUMPDEST PUSH2 0x1A4D DUP3 PUSH2 0x1A07 JUMP JUMPDEST DUP2 ADD DUP2 DUP2 LT PUSH8 0xFFFFFFFFFFFFFFFF DUP3 GT OR ISZERO PUSH2 0x1A6C JUMPI PUSH2 0x1A6B PUSH2 0x1A17 JUMP JUMPDEST JUMPDEST DUP1 PUSH1 0x40 MSTORE POP POP POP JUMP JUMPDEST PUSH0 PUSH2 0x1A7E PUSH2 0x191A JUMP JUMPDEST SWAP1 POP PUSH2 0x1A8A DUP3 DUP3 PUSH2 0x1A44 JUMP JUMPDEST SWAP2 SWAP1 POP JUMP JUMPDEST PUSH0 PUSH8 0xFFFFFFFFFFFFFFFF DUP3 GT ISZERO PUSH2 0x1AA9 JUMPI PUSH2 0x1AA8 PUSH2 0x1A17 JUMP JUMPDEST JUMPDEST PUSH2 0x1AB2 DUP3 PUSH2 0x1A07 JUMP JUMPDEST SWAP1 POP PUSH1 0x20 DUP2 ADD SWAP1 POP SWAP2 SWAP1 POP JUMP JUMPDEST DUP3 DUP2 DUP4 CALLDATACOPY PUSH0 DUP4 DUP4 ADD MSTORE POP POP POP JUMP JUMPDEST PUSH0 PUSH2 0x1ADF PUSH2 0x1ADA DUP5 PUSH2 0x1A8F JUMP JUMPDEST PUSH2 0x1A75 JUMP JUMPDEST SWAP1 POP DUP3 DUP2 MSTORE PUSH1 0x20 DUP2 ADD DUP5 DUP5 DUP5 ADD GT ISZERO PUSH2 0x1AFB JUMPI PUSH2 0x1AFA PUSH2 0x1A03 JUMP JUMPDEST JUMPDEST PUSH2 0x1B06 DUP5 DUP3 DUP6 PUSH2 0x1ABF JUMP JUMPDEST POP SWAP4 SWAP3 POP POP POP JUMP JUMPDEST PUSH0 DUP3 PUSH1 0x1F DUP4 ADD SLT PUSH2 0x1B22 JUMPI PUSH2 0x1B21 PUSH2 0x19FF JUMP JUMPDEST JUMPDEST DUP2 CALLDATALOAD PUSH2 0x1B32 DUP5 DUP3 PUSH1 0x20 DUP7 ADD PUSH2 0x1ACD JUMP JUMPDEST SWAP2 POP POP SWAP3 SWAP2 POP POP JUMP JUMPDEST PUSH0 DUP1 PUSH0 DUP1 PUSH0 PUSH1 0xA0 DUP7 DUP9 SUB SLT ISZERO PUSH2 0x1B54 JUMPI PUSH2 0x1B53 PUSH2 0x1923 JUMP JUMPDEST JUMPDEST PUSH0 PUSH2 0x1B61 DUP9 DUP3 DUP10 ADD PUSH2 0x1982 JUMP JUMPDEST SWAP6 POP POP PUSH1 0x20 PUSH2 0x1B72 DUP9 DUP3 DUP10 ADD PUSH2 0x19B5 JUMP JUMPDEST SWAP5 POP POP PUSH1 0x40 PUSH2 0x1B83 DUP9 DUP3 DUP10 ADD PUSH2 0x19EB JUMP JUMPDEST SWAP4 POP POP PUSH1 0x60 PUSH2 0x1B94 DUP9 DUP3 DUP10 ADD PUSH2 0x19B5 JUMP JUMPDEST SWAP3 POP POP PUSH1 0x80 DUP7 ADD CALLDATALOAD PUSH8 0xFFFFFFFFFFFFFFFF DUP2 GT ISZERO PUSH2 0x1BB5 JUMPI PUSH2 0x1BB4 PUSH2 0x1927 JUMP JUMPDEST JUMPDEST PUSH2 0x1BC1 DUP9 DUP3 DUP10 ADD PUSH2 0x1B0E JUMP JUMPDEST SWAP2 POP POP SWAP3 SWAP6 POP SWAP3 SWAP6 SWAP1 SWAP4 POP JUMP JUMPDEST PUSH0 DUP1 PUSH0 PUSH1 0x60 DUP5 DUP7 SUB SLT ISZERO PUSH2 0x1BE5 JUMPI PUSH2 0x1BE4 PUSH2 0x1923 JUMP JUMPDEST JUMPDEST PUSH0 PUSH2 0x1BF2 DUP7 DUP3 DUP8 ADD PUSH2 0x19EB JUMP JUMPDEST SWAP4 POP POP PUSH1 0x20 PUSH2 0x1C03 DUP7 DUP3 DUP8 ADD PUSH2 0x19B5 JUMP JUMPDEST SWAP3 POP POP PUSH1 0x40 DUP5 ADD CALLDATALOAD PUSH8 0xFFFFFFFFFFFFFFFF DUP2 GT ISZERO PUSH2 0x1C24 JUMPI PUSH2 0x1C23 PUSH2 0x1927 JUMP JUMPDEST JUMPDEST PUSH2 0x1C30 DUP7 DUP3 DUP8 ADD PUSH2 0x1B0E JUMP JUMPDEST SWAP2 POP POP SWAP3 POP SWAP3 POP SWAP3 JUMP JUMPDEST PUSH0 PUSH1 0x20 DUP3 DUP5 SUB SLT ISZERO PUSH2 0x1C4F JUMPI PUSH2 0x1C4E PUSH2 0x1923 JUMP JUMPDEST JUMPDEST PUSH0 PUSH2 0x1C5C DUP5 DUP3 DUP6 ADD PUSH2 0x1982 JUMP JUMPDEST SWAP2 POP POP SWAP3 SWAP2 POP POP JUMP JUMPDEST PUSH2 0x1C6E DUP2 PUSH2 0x1996 JUMP JUMPDEST DUP3 MSTORE POP POP JUMP JUMPDEST PUSH0 PUSH1 0x20 DUP3 ADD SWAP1 POP PUSH2 0x1C87 PUSH0 DUP4 ADD DUP5 PUSH2 0x1C65 JUMP JUMPDEST SWAP3 SWAP2 POP POP JUMP JUMPDEST PUSH0 PUSH4 0xFFFFFFFF DUP3 AND SWAP1 POP SWAP2 SWAP1 POP JUMP JUMPDEST PUSH2 0x1CA5 DUP2 PUSH2 0x1C8D JUMP JUMPDEST DUP2 EQ PUSH2 0x1CAF JUMPI PUSH0 DUP1 REVERT JUMPDEST POP JUMP JUMPDEST PUSH0 DUP2 CALLDATALOAD SWAP1 POP PUSH2 0x1CC0 DUP2 PUSH2 0x1C9C JUMP JUMPDEST SWAP3 SWAP2 POP POP JUMP JUMPDEST PUSH0 DUP1 PUSH0 DUP1 PUSH1 0x80 DUP6 DUP8 SUB SLT ISZERO PUSH2 0x1CDE JUMPI PUSH2 0x1CDD PUSH2 0x1923 JUMP JUMPDEST JUMPDEST PUSH0 PUSH2 0x1CEB DUP8 DUP3 DUP9 ADD PUSH2 0x1982 JUMP JUMPDEST SWAP5 POP POP PUSH1 0x20 PUSH2 0x1CFC DUP8 DUP3 DUP9 ADD PUSH2 0x1CB2 JUMP JUMPDEST SWAP4 POP POP PUSH1 0x40 PUSH2 0x1D0D DUP8 DUP3 DUP9 ADD PUSH2 0x19B5 JUMP JUMPDEST SWAP3 POP POP PUSH1 0x60 PUSH2 0x1D1E DUP8 DUP3 DUP9 ADD PUSH2 0x19EB JUMP JUMPDEST SWAP2 POP POP SWAP3 SWAP6 SWAP2 SWAP5 POP SWAP3 POP JUMP JUMPDEST PUSH0 PUSH1 0x20 DUP3 DUP5 SUB SLT ISZERO PUSH2 0x1D3F JUMPI PUSH2 0x1D3E PUSH2 0x1923 JUMP JUMPDEST JUMPDEST PUSH0 PUSH2 0x1D4C DUP5 DUP3 DUP6 ADD PUSH2 0x19EB JUMP JUMPDEST SWAP2 POP POP SWAP3 SWAP2 POP POP JUMP JUMPDEST PUSH0 DUP2 MLOAD SWAP1 POP SWAP2 SWAP1 POP JUMP JUMPDEST PUSH0 DUP3 DUP3 MSTORE PUSH1 0x20 DUP3 ADD SWAP1 POP SWAP3 SWAP2 POP POP JUMP JUMPDEST PUSH0 DUP2 SWAP1 POP PUSH1 0x20 DUP3 ADD SWAP1 POP SWAP2 SWAP1 POP JUMP JUMPDEST PUSH2 0x1D87 DUP2 PUSH2 0x194A JUMP JUMPDEST DUP3 MSTORE POP POP JUMP JUMPDEST PUSH2 0x1D96 DUP2 PUSH2 0x1996 JUMP JUMPDEST DUP3 MSTORE POP POP JUMP JUMPDEST PUSH0 DUP2 MLOAD SWAP1 POP SWAP2 SWAP1 POP JUMP JUMPDEST PUSH0 DUP3 DUP3 MSTORE PUSH1 0x20 DUP3 ADD SWAP1 POP SWAP3 SWAP2 POP POP JUMP JUMPDEST DUP3 DUP2 DUP4 MCOPY PUSH0 DUP4 DUP4 ADD MSTORE POP POP POP JUMP JUMPDEST PUSH0 PUSH2 0x1DCE DUP3 PUSH2 0x1D9C JUMP JUMPDEST PUSH2 0x1DD8 DUP2 DUP6 PUSH2 0x1DA6 JUMP JUMPDEST SWAP4 POP PUSH2 0x1DE8 DUP2 DUP6 PUSH1 0x20 DUP7 ADD PUSH2 0x1DB6 JUMP JUMPDEST PUSH2 0x1DF1 DUP2 PUSH2 0x1A07 JUMP JUMPDEST DUP5 ADD SWAP2 POP POP SWAP3 SWAP2 POP POP JUMP JUMPDEST PUSH0 DUP2 ISZERO ISZERO SWAP1 POP SWAP2 SWAP1 POP JUMP JUMPDEST PUSH2 0x1E10 DUP2 PUSH2 0x1DFC JUMP JUMPDEST DUP3 MSTORE POP POP JUMP JUMPDEST PUSH0 PUSH1 0xC0 DUP4 ADD PUSH0 DUP4 ADD MLOAD PUSH2 0x1E2B PUSH0 DUP7 ADD DUP3 PUSH2 0x1D7E JUMP JUMPDEST POP PUSH1 0x20 DUP4 ADD MLOAD PUSH2 0x1E3E PUSH1 0x20 DUP7 ADD DUP3 PUSH2 0x1D8D JUMP JUMPDEST POP PUSH1 0x40 DUP4 ADD MLOAD PUSH2 0x1E51 PUSH1 0x40 DUP7 ADD DUP3 PUSH2 0x1D8D JUMP JUMPDEST POP PUSH1 0x60 DUP4 ADD MLOAD DUP5 DUP3 SUB PUSH1 0x60 DUP7 ADD MSTORE PUSH2 0x1E69 DUP3 DUP3 PUSH2 0x1DC4 JUMP JUMPDEST SWAP2 POP POP PUSH1 0x80 DUP4 ADD MLOAD PUSH2 0x1E7E PUSH1 0x80 DUP7 ADD DUP3 PUSH2 0x1E07 JUMP JUMPDEST POP PUSH1 0xA0 DUP4 ADD MLOAD PUSH2 0x1E91 PUSH1 0xA0 DUP7 ADD DUP3 PUSH2 0x1E07 JUMP JUMPDEST POP DUP1 SWAP2 POP POP SWAP3 SWAP2 POP POP JUMP JUMPDEST PUSH0 PUSH2 0x1EA7 DUP4 DUP4 PUSH2 0x1E16 JUMP JUMPDEST SWAP1 POP SWAP3 SWAP2 POP POP JUMP JUMPDEST PUSH0 PUSH1 0x20 DUP3 ADD SWAP1 POP SWAP2 SWAP1 POP JUMP JUMPDEST PUSH0 PUSH2 0x1EC5 DUP3 PUSH2 0x1D55 JUMP JUMPDEST PUSH2 0x1ECF DUP2 DUP6 PUSH2 0x1D5F JUMP JUMPDEST SWAP4 POP DUP4 PUSH1 0x20 DUP3 MUL DUP6 ADD PUSH2 0x1EE1 DUP6 PUSH2 0x1D6F JUMP JUMPDEST DUP1 PUSH0 JUMPDEST DUP6 DUP2 LT ISZERO PUSH2 0x1F1C JUMPI DUP5 DUP5 SUB DUP10 MSTORE DUP2 MLOAD PUSH2 0x1EFD DUP6 DUP3 PUSH2 0x1E9C JUMP JUMPDEST SWAP5 POP PUSH2 0x1F08 DUP4 PUSH2 0x1EAF JUMP JUMPDEST SWAP3 POP PUSH1 0x20 DUP11 ADD SWAP10 POP POP PUSH1 0x1 DUP2 ADD SWAP1 POP PUSH2 0x1EE4 JUMP JUMPDEST POP DUP3 SWAP8 POP DUP8 SWAP6 POP POP POP POP POP POP SWAP3 SWAP2 POP POP JUMP JUMPDEST PUSH0 PUSH1 0x20 DUP3 ADD SWAP1 POP DUP2 DUP2 SUB PUSH0 DUP4 ADD MSTORE PUSH2 0x1F46 DUP2 DUP5 PUSH2 0x1EBB JUMP JUMPDEST SWAP1 POP SWAP3 SWAP2 POP POP JUMP JUMPDEST PUSH2 0x1F57 DUP2 PUSH2 0x194A JUMP JUMPDEST DUP3 MSTORE POP POP JUMP JUMPDEST PUSH0 PUSH1 0x20 DUP3 ADD SWAP1 POP PUSH2 0x1F70 PUSH0 DUP4 ADD DUP5 PUSH2 0x1F4E JUMP JUMPDEST SWAP3 SWAP2 POP POP JUMP JUMPDEST PUSH2 0x1F7F DUP2 PUSH2 0x194A JUMP JUMPDEST DUP2 EQ PUSH2 0x1F89 JUMPI PUSH0 DUP1 REVERT JUMPDEST POP JUMP JUMPDEST PUSH0 DUP2 CALLDATALOAD SWAP1 POP PUSH2 0x1F9A DUP2 PUSH2 0x1F76 JUMP JUMPDEST SWAP3 SWAP2 POP POP JUMP JUMPDEST PUSH0 DUP1 PUSH0 PUSH1 0x60 DUP5 DUP7 SUB SLT ISZERO PUSH2 0x1FB7 JUMPI PUSH2 0x1FB6 PUSH2 0x1923 JUMP JUMPDEST JUMPDEST PUSH0 PUSH2 0x1FC4 DUP7 DUP3 DUP8 ADD PUSH2 0x1F8C JUMP JUMPDEST SWAP4 POP POP PUSH1 0x20 PUSH2 0x1FD5 DUP7 DUP3 DUP8 ADD PUSH2 0x19EB JUMP JUMPDEST SWAP3 POP POP PUSH1 0x40 PUSH2 0x1FE6 DUP7 DUP3 DUP8 ADD PUSH2 0x19B5 JUMP JUMPDEST SWAP2 POP POP SWAP3 POP SWAP3 POP SWAP3 JUMP JUMPDEST PUSH0 DUP3 DUP3 MSTORE PUSH1 0x20 DUP3 ADD SWAP1 POP SWAP3 SWAP2 POP POP JUMP JUMPDEST PUSH0 PUSH2 0x200A DUP3 PUSH2 0x1D9C JUMP JUMPDEST PUSH2 0x2014 DUP2 DUP6 PUSH2 0x1FF0 JUMP JUMPDEST SWAP4 POP PUSH2 0x2024 DUP2 DUP6 PUSH1 0x20 DUP7 ADD PUSH2 0x1DB6 JUMP JUMPDEST PUSH2 0x202D DUP2 PUSH2 0x1A07 JUMP JUMPDEST DUP5 ADD SWAP2 POP POP SWAP3 SWAP2 POP POP JUMP JUMPDEST PUSH2 0x2041 DUP2 PUSH2 0x1DFC JUMP JUMPDEST DUP3 MSTORE POP POP JUMP JUMPDEST PUSH0 PUSH1 0xC0 DUP3 ADD SWAP1 POP PUSH2 0x205A PUSH0 DUP4 ADD DUP10 PUSH2 0x1F4E JUMP JUMPDEST PUSH2 0x2067 PUSH1 0x20 DUP4 ADD DUP9 PUSH2 0x1C65 JUMP JUMPDEST PUSH2 0x2074 PUSH1 0x40 DUP4 ADD DUP8 PUSH2 0x1C65 JUMP JUMPDEST DUP2 DUP2 SUB PUSH1 0x60 DUP4 ADD MSTORE PUSH2 0x2086 DUP2 DUP7 PUSH2 0x2000 JUMP JUMPDEST SWAP1 POP PUSH2 0x2095 PUSH1 0x80 DUP4 ADD DUP6 PUSH2 0x2038 JUMP JUMPDEST PUSH2 0x20A2 PUSH1 0xA0 DUP4 ADD DUP5 PUSH2 0x2038 JUMP JUMPDEST SWAP8 SWAP7 POP POP POP POP POP POP POP JUMP JUMPDEST PUSH0 DUP1 PUSH0 PUSH1 0x60 DUP5 DUP7 SUB SLT ISZERO PUSH2 0x20C4 JUMPI PUSH2 0x20C3 PUSH2 0x1923 JUMP JUMPDEST JUMPDEST PUSH0 PUSH2 0x20D1 DUP7 DUP3 DUP8 ADD PUSH2 0x1CB2 JUMP JUMPDEST SWAP4 POP POP PUSH1 0x20 PUSH2 0x20E2 DUP7 DUP3 DUP8 ADD PUSH2 0x19EB JUMP JUMPDEST SWAP3 POP POP PUSH1 0x40 PUSH2 0x20F3 DUP7 DUP3 DUP8 ADD PUSH2 0x19B5 JUMP JUMPDEST SWAP2 POP POP SWAP3 POP SWAP3 POP SWAP3 JUMP JUMPDEST PUSH0 DUP1 PUSH1 0x40 DUP4 DUP6 SUB SLT ISZERO PUSH2 0x2113 JUMPI PUSH2 0x2112 PUSH2 0x1923 JUMP JUMPDEST JUMPDEST PUSH0 PUSH2 0x2120 DUP6 DUP3 DUP7 ADD PUSH2 0x19EB JUMP JUMPDEST SWAP3 POP POP PUSH1 0x20 PUSH2 0x2131 DUP6 DUP3 DUP7 ADD PUSH2 0x1CB2 JUMP JUMPDEST SWAP2 POP POP SWAP3 POP SWAP3 SWAP1 POP JUMP JUMPDEST PUSH0 PUSH1 0x20 DUP3 DUP5 SUB SLT ISZERO PUSH2 0x2150 JUMPI PUSH2 0x214F PUSH2 0x1923 JUMP JUMPDEST JUMPDEST PUSH0 PUSH2 0x215D DUP5 DUP3 DUP6 ADD PUSH2 0x1F8C JUMP JUMPDEST SWAP2 POP POP SWAP3 SWAP2 POP POP JUMP JUMPDEST PUSH32 0x4D7573742070726F7669646520612076616C696420746F6B656E206164647265 PUSH0 DUP3 ADD MSTORE PUSH32 0x7373000000000000000000000000000000000000000000000000000000000000 PUSH1 0x20 DUP3 ADD MSTORE POP JUMP JUMPDEST PUSH0 PUSH2 0x21C0 PUSH1 0x22 DUP4 PUSH2 0x1FF0 JUMP JUMPDEST SWAP2 POP PUSH2 0x21CB DUP3 PUSH2 0x2166 JUMP JUMPDEST PUSH1 0x40 DUP3 ADD SWAP1 POP SWAP2 SWAP1 POP JUMP JUMPDEST PUSH0 PUSH1 0x20 DUP3 ADD SWAP1 POP DUP2 DUP2 SUB PUSH0 DUP4 ADD MSTORE PUSH2 0x21ED DUP2 PUSH2 0x21B4 JUMP JUMPDEST SWAP1 POP SWAP2 SWAP1 POP JUMP JUMPDEST PUSH32 0x546F6B656E20616D6F756E74206D757374206265206772656174657220746865 PUSH0 DUP3 ADD MSTORE PUSH32 0x6E207A65726F0000000000000000000000000000000000000000000000000000 PUSH1 0x20 DUP3 ADD MSTORE POP JUMP JUMPDEST PUSH0 PUSH2 0x224E PUSH1 0x26 DUP4 PUSH2 0x1FF0 JUMP JUMPDEST SWAP2 POP PUSH2 0x2259 DUP3 PUSH2 0x21F4 JUMP JUMPDEST PUSH1 0x40 DUP3 ADD SWAP1 POP SWAP2 SWAP1 POP JUMP JUMPDEST PUSH0 PUSH1 0x20 DUP3 ADD SWAP1 POP DUP2 DUP2 SUB PUSH0 DUP4 ADD MSTORE PUSH2 0x227B DUP2 PUSH2 0x2242 JUMP JUMPDEST SWAP1 POP SWAP2 SWAP1 POP JUMP JUMPDEST PUSH32 0x546865206C6F636B20706572696F64206D757374206265206772656174657220 PUSH0 DUP3 ADD MSTORE PUSH32 0x7468656E207A65726F0000000000000000000000000000000000000000000000 PUSH1 0x20 DUP3 ADD MSTORE POP JUMP JUMPDEST PUSH0 PUSH2 0x22DC PUSH1 0x29 DUP4 PUSH2 0x1FF0 JUMP JUMPDEST SWAP2 POP PUSH2 0x22E7 DUP3 PUSH2 0x2282 JUMP JUMPDEST PUSH1 0x40 DUP3 ADD SWAP1 POP SWAP2 SWAP1 POP JUMP JUMPDEST PUSH0 PUSH1 0x20 DUP3 ADD SWAP1 POP DUP2 DUP2 SUB PUSH0 DUP4 ADD MSTORE PUSH2 0x2309 DUP2 PUSH2 0x22D0 JUMP JUMPDEST SWAP1 POP SWAP2 SWAP1 POP JUMP JUMPDEST PUSH0 DUP2 MLOAD SWAP1 POP PUSH2 0x231E DUP2 PUSH2 0x199F JUMP JUMPDEST SWAP3 SWAP2 POP POP JUMP JUMPDEST PUSH0 PUSH1 0x20 DUP3 DUP5 SUB SLT ISZERO PUSH2 0x2339 JUMPI PUSH2 0x2338 PUSH2 0x1923 JUMP JUMPDEST JUMPDEST PUSH0 PUSH2 0x2346 DUP5 DUP3 DUP6 ADD PUSH2 0x2310 JUMP JUMPDEST SWAP2 POP POP SWAP3 SWAP2 POP POP JUMP JUMPDEST PUSH32 0x4E6F7420656E6F75676820746F6B656E7320746F206C6F636B00000000000000 PUSH0 DUP3 ADD MSTORE POP JUMP JUMPDEST PUSH0 PUSH2 0x2383 PUSH1 0x19 DUP4 PUSH2 0x1FF0 JUMP JUMPDEST SWAP2 POP PUSH2 0x238E DUP3 PUSH2 0x234F JUMP JUMPDEST PUSH1 0x20 DUP3 ADD SWAP1 POP SWAP2 SWAP1 POP JUMP JUMPDEST PUSH0 PUSH1 0x20 DUP3 ADD SWAP1 POP DUP2 DUP2 SUB PUSH0 DUP4 ADD MSTORE PUSH2 0x23B0 DUP2 PUSH2 0x2377 JUMP JUMPDEST SWAP1 POP SWAP2 SWAP1 POP JUMP JUMPDEST PUSH32 0x4E487B7100000000000000000000000000000000000000000000000000000000 PUSH0 MSTORE PUSH1 0x11 PUSH1 0x4 MSTORE PUSH1 0x24 PUSH0 REVERT JUMPDEST PUSH0 PUSH2 0x23EE DUP3 PUSH2 0x1996 JUMP JUMPDEST SWAP2 POP PUSH2 0x23F9 DUP4 PUSH2 0x1996 JUMP JUMPDEST SWAP3 POP DUP3 DUP3 ADD SWAP1 POP DUP1 DUP3 GT ISZERO PUSH2 0x2411 JUMPI PUSH2 0x2410 PUSH2 0x23B7 JUMP JUMPDEST JUMPDEST SWAP3 SWAP2 POP POP JUMP JUMPDEST PUSH32 0x4E487B7100000000000000000000000000000000000000000000000000000000 PUSH0 MSTORE PUSH1 0x22 PUSH1 0x4 MSTORE PUSH1 0x24 PUSH0 REVERT JUMPDEST PUSH0 PUSH1 0x2 DUP3 DIV SWAP1 POP PUSH1 0x1 DUP3 AND DUP1 PUSH2 0x245B JUMPI PUSH1 0x7F DUP3 AND SWAP2 POP JUMPDEST PUSH1 0x20 DUP3 LT DUP2 SUB PUSH2 0x246E JUMPI PUSH2 0x246D PUSH2 0x2417 JUMP JUMPDEST JUMPDEST POP SWAP2 SWAP1 POP JUMP JUMPDEST PUSH0 DUP2 SWAP1 POP DUP2 PUSH0 MSTORE PUSH1 0x20 PUSH0 KECCAK256 SWAP1 POP SWAP2 SWAP1 POP JUMP JUMPDEST PUSH0 PUSH1 0x20 PUSH1 0x1F DUP4 ADD DIV SWAP1 POP SWAP2 SWAP1 POP JUMP JUMPDEST PUSH0 DUP3 DUP3 SHL SWAP1 POP SWAP3 SWAP2 POP POP JUMP JUMPDEST PUSH0 PUSH1 0x8 DUP4 MUL PUSH2 0x24D0 PUSH32 0xFFFFFFFFFFFFFFFFFFFFFFFFFFFFFFFFFFFFFFFFFFFFFFFFFFFFFFFFFFFFFFFF DUP3 PUSH2 0x2495 JUMP JUMPDEST PUSH2 0x24DA DUP7 DUP4 PUSH2 0x2495 JUMP JUMPDEST SWAP6 POP DUP1 NOT DUP5 AND SWAP4 POP DUP1 DUP7 AND DUP5 OR SWAP3 POP POP POP SWAP4 SWAP3 POP POP POP JUMP JUMPDEST PUSH0 DUP2 SWAP1 POP SWAP2 SWAP1 POP JUMP JUMPDEST PUSH0 PUSH2 0x2515 PUSH2 0x2510 PUSH2 0x250B DUP5 PUSH2 0x1996 JUMP JUMPDEST PUSH2 0x24F2 JUMP JUMPDEST PUSH2 0x1996 JUMP JUMPDEST SWAP1 POP SWAP2 SWAP1 POP JUMP JUMPDEST PUSH0 DUP2 SWAP1 POP SWAP2 SWAP1 POP JUMP JUMPDEST PUSH2 0x252E DUP4 PUSH2 0x24FB JUMP JUMPDEST PUSH2 0x2542 PUSH2 0x253A DUP3 PUSH2 0x251C JUMP JUMPDEST DUP5 DUP5 SLOAD PUSH2 0x24A1 JUMP JUMPDEST DUP3 SSTORE POP POP POP POP JUMP JUMPDEST PUSH0 SWAP1 JUMP JUMPDEST PUSH2 0x2556 PUSH2 0x254A JUMP JUMPDEST PUSH2 0x2561 DUP2 DUP5 DUP5 PUSH2 0x2525 JUMP JUMPDEST POP POP POP JUMP JUMPDEST JUMPDEST DUP2 DUP2 LT ISZERO PUSH2 0x2584 JUMPI PUSH2 0x2579 PUSH0 DUP3 PUSH2 0x254E JUMP JUMPDEST PUSH1 0x1 DUP2 ADD SWAP1 POP PUSH2 0x2567 JUMP JUMPDEST POP POP JUMP JUMPDEST PUSH1 0x1F DUP3 GT ISZERO PUSH2 0x25C9 JUMPI PUSH2 0x259A DUP2 PUSH2 0x2474 JUMP JUMPDEST PUSH2 0x25A3 DUP5 PUSH2 0x2486 JUMP JUMPDEST DUP2 ADD PUSH1 0x20 DUP6 LT ISZERO PUSH2 0x25B2 JUMPI DUP2 SWAP1 POP JUMPDEST PUSH2 0x25C6 PUSH2 0x25BE DUP6 PUSH2 0x2486 JUMP JUMPDEST DUP4 ADD DUP3 PUSH2 0x2566 JUMP JUMPDEST POP POP JUMPDEST POP POP POP JUMP JUMPDEST PUSH0 DUP3 DUP3 SHR SWAP1 POP SWAP3 SWAP2 POP POP JUMP JUMPDEST PUSH0 PUSH2 0x25E9 PUSH0 NOT DUP5 PUSH1 0x8 MUL PUSH2 0x25CE JUMP JUMPDEST NOT DUP1 DUP4 AND SWAP2 POP POP SWAP3 SWAP2 POP POP JUMP JUMPDEST PUSH0 PUSH2 0x2601 DUP4 DUP4 PUSH2 0x25DA JUMP JUMPDEST SWAP2 POP DUP3 PUSH1 0x2 MUL DUP3 OR SWAP1 POP SWAP3 SWAP2 POP POP JUMP JUMPDEST PUSH2 0x261A DUP3 PUSH2 0x1D9C JUMP JUMPDEST PUSH8 0xFFFFFFFFFFFFFFFF DUP2 GT ISZERO PUSH2 0x2633 JUMPI PUSH2 0x2632 PUSH2 0x1A17 JUMP JUMPDEST JUMPDEST PUSH2 0x263D DUP3 SLOAD PUSH2 0x2444 JUMP JUMPDEST PUSH2 0x2648 DUP3 DUP3 DUP6 PUSH2 0x2588 JUMP JUMPDEST PUSH0 PUSH1 0x20 SWAP1 POP PUSH1 0x1F DUP4 GT PUSH1 0x1 DUP2 EQ PUSH2 0x2679 JUMPI PUSH0 DUP5 ISZERO PUSH2 0x2667 JUMPI DUP3 DUP8 ADD MLOAD SWAP1 POP JUMPDEST PUSH2 0x2671 DUP6 DUP3 PUSH2 0x25F6 JUMP JUMPDEST DUP7 SSTORE POP PUSH2 0x26D8 JUMP JUMPDEST PUSH1 0x1F NOT DUP5 AND PUSH2 0x2687 DUP7 PUSH2 0x2474 JUMP JUMPDEST PUSH0 JUMPDEST DUP3 DUP2 LT ISZERO PUSH2 0x26AE JUMPI DUP5 DUP10 ADD MLOAD DUP3 SSTORE PUSH1 0x1 DUP3 ADD SWAP2 POP PUSH1 0x20 DUP6 ADD SWAP5 POP PUSH1 0x20 DUP2 ADD SWAP1 POP PUSH2 0x2689 JUMP JUMPDEST DUP7 DUP4 LT ISZERO PUSH2 0x26CB JUMPI DUP5 DUP10 ADD MLOAD PUSH2 0x26C7 PUSH1 0x1F DUP10 AND DUP3 PUSH2 0x25DA JUMP JUMPDEST DUP4 SSTORE POP JUMPDEST PUSH1 0x1 PUSH1 0x2 DUP9 MUL ADD DUP9 SSTORE POP POP POP JUMPDEST POP POP POP POP POP POP JUMP JUMPDEST PUSH2 0x26E9 DUP2 PUSH2 0x19C9 JUMP JUMPDEST DUP3 MSTORE POP POP JUMP JUMPDEST PUSH0 PUSH1 0xA0 DUP3 ADD SWAP1 POP PUSH2 0x2702 PUSH0 DUP4 ADD DUP9 PUSH2 0x1C65 JUMP JUMPDEST DUP2 DUP2 SUB PUSH1 0x20 DUP4 ADD MSTORE PUSH2 0x2714 DUP2 DUP8 PUSH2 0x2000 JUMP JUMPDEST SWAP1 POP PUSH2 0x2723 PUSH1 0x40 DUP4 ADD DUP7 PUSH2 0x26E0 JUMP JUMPDEST PUSH2 0x2730 PUSH1 0x60 DUP4 ADD DUP6 PUSH2 0x1C65 JUMP JUMPDEST PUSH2 0x273D PUSH1 0x80 DUP4 ADD DUP5 PUSH2 0x1C65 JUMP JUMPDEST SWAP7 SWAP6 POP POP POP POP POP POP JUMP JUMPDEST PUSH32 0x45544820746F206C6F636B206D75737420612076616C75652067726561746572 PUSH0 DUP3 ADD MSTORE PUSH32 0x207468616E203000000000000000000000000000000000000000000000000000 PUSH1 0x20 DUP3 ADD MSTORE POP JUMP JUMPDEST PUSH0 PUSH2 0x27A1 PUSH1 0x27 DUP4 PUSH2 0x1FF0 JUMP JUMPDEST SWAP2 POP PUSH2 0x27AC DUP3 PUSH2 0x2747 JUMP JUMPDEST PUSH1 0x40 DUP3 ADD SWAP1 POP SWAP2 SWAP1 POP JUMP JUMPDEST PUSH0 PUSH1 0x20 DUP3 ADD SWAP1 POP DUP2 DUP2 SUB PUSH0 DUP4 ADD MSTORE PUSH2 0x27CE DUP2 PUSH2 0x2795 JUMP JUMPDEST SWAP1 POP SWAP2 SWAP1 POP JUMP JUMPDEST PUSH32 0x546865206C6F636B706572696F64206D75737420626520677265617465722074 PUSH0 DUP3 ADD MSTORE PUSH32 0x68656E207A65726F000000000000000000000000000000000000000000000000 PUSH1 0x20 DUP3 ADD MSTORE POP JUMP JUMPDEST PUSH0 PUSH2 0x282F PUSH1 0x28 DUP4 PUSH2 0x1FF0 JUMP JUMPDEST SWAP2 POP PUSH2 0x283A DUP3 PUSH2 0x27D5 JUMP JUMPDEST PUSH1 0x40 DUP3 ADD SWAP1 POP SWAP2 SWAP1 POP JUMP JUMPDEST PUSH0 PUSH1 0x20 DUP3 ADD SWAP1 POP DUP2 DUP2 SUB PUSH0 DUP4 ADD MSTORE PUSH2 0x285C DUP2 PUSH2 0x2823 JUMP JUMPDEST SWAP1 POP SWAP2 SWAP1 POP JUMP JUMPDEST PUSH32 0x4E487B7100000000000000000000000000000000000000000000000000000000 PUSH0 MSTORE PUSH1 0x32 PUSH1 0x4 MSTORE PUSH1 0x24 PUSH0 REVERT JUMPDEST PUSH0 DUP2 SLOAD PUSH2 0x289C DUP2 PUSH2 0x2444 JUMP JUMPDEST PUSH2 0x28A6 DUP2 DUP7 PUSH2 0x1FF0 JUMP JUMPDEST SWAP5 POP PUSH1 0x1 DUP3 AND PUSH0 DUP2 EQ PUSH2 0x28C0 JUMPI PUSH1 0x1 DUP2 EQ PUSH2 0x28D6 JUMPI PUSH2 0x2908 JUMP JUMPDEST PUSH1 0xFF NOT DUP4 AND DUP7 MSTORE DUP2 ISZERO ISZERO PUSH1 0x20 MUL DUP7 ADD SWAP4 POP PUSH2 0x2908 JUMP JUMPDEST PUSH2 0x28DF DUP6 PUSH2 0x2474 JUMP JUMPDEST PUSH0 JUMPDEST DUP4 DUP2 LT ISZERO PUSH2 0x2900 JUMPI DUP2 SLOAD DUP2 DUP10 ADD MSTORE PUSH1 0x1 DUP3 ADD SWAP2 POP PUSH1 0x20 DUP2 ADD SWAP1 POP PUSH2 0x28E1 JUMP JUMPDEST DUP1 DUP9 ADD SWAP6 POP POP POP JUMPDEST POP POP POP SWAP3 SWAP2 POP POP JUMP JUMPDEST PUSH0 PUSH1 0x80 DUP3 ADD SWAP1 POP PUSH2 0x2924 PUSH0 DUP4 ADD DUP8 PUSH2 0x1C65 JUMP JUMPDEST DUP2 DUP2 SUB PUSH1 0x20 DUP4 ADD MSTORE PUSH2 0x2936 DUP2 DUP7 PUSH2 0x2890 JUMP JUMPDEST SWAP1 POP PUSH2 0x2945 PUSH1 0x40 DUP4 ADD DUP6 PUSH2 0x26E0 JUMP JUMPDEST PUSH2 0x2952 PUSH1 0x60 DUP4 ADD DUP5 PUSH2 0x1C65 JUMP JUMPDEST SWAP6 SWAP5 POP POP POP POP POP JUMP JUMPDEST PUSH32 0x5468652073706563696669656420617373657420494420697320696E76616C69 PUSH0 DUP3 ADD MSTORE PUSH32 0x642E000000000000000000000000000000000000000000000000000000000000 PUSH1 0x20 DUP3 ADD MSTORE POP JUMP JUMPDEST PUSH0 PUSH2 0x29B5 PUSH1 0x22 DUP4 PUSH2 0x1FF0 JUMP JUMPDEST SWAP2 POP PUSH2 0x29C0 DUP3 PUSH2 0x295B JUMP JUMPDEST PUSH1 0x40 DUP3 ADD SWAP1 POP SWAP2 SWAP1 POP JUMP JUMPDEST PUSH0 PUSH1 0x20 DUP3 ADD SWAP1 POP DUP2 DUP2 SUB PUSH0 DUP4 ADD MSTORE PUSH2 0x29E2 DUP2 PUSH2 0x29A9 JUMP JUMPDEST SWAP1 POP SWAP2 SWAP1 POP JUMP JUMPDEST PUSH32 0x417373657473206861766520616C7265616479206265656E2077697468647261 PUSH0 DUP3 ADD MSTORE PUSH32 0x776E210000000000000000000000000000000000000000000000000000000000 PUSH1 0x20 DUP3 ADD MSTORE POP JUMP JUMPDEST PUSH0 PUSH2 0x2A43 PUSH1 0x23 DUP4 PUSH2 0x1FF0 JUMP JUMPDEST SWAP2 POP PUSH2 0x2A4E DUP3 PUSH2 0x29E9 JUMP JUMPDEST PUSH1 0x40 DUP3 ADD SWAP1 POP SWAP2 SWAP1 POP JUMP JUMPDEST PUSH0 PUSH1 0x20 DUP3 ADD SWAP1 POP DUP2 DUP2 SUB PUSH0 DUP4 ADD MSTORE PUSH2 0x2A70 DUP2 PUSH2 0x2A37 JUMP JUMPDEST SWAP1 POP SWAP2 SWAP1 POP JUMP JUMPDEST PUSH32 0x546865206C6F636B20706572696F6420686173206E6F74207965742065787069 PUSH0 DUP3 ADD MSTORE PUSH32 0x7265642100000000000000000000000000000000000000000000000000000000 PUSH1 0x20 DUP3 ADD MSTORE POP JUMP JUMPDEST PUSH0 PUSH2 0x2AD1 PUSH1 0x24 DUP4 PUSH2 0x1FF0 JUMP JUMPDEST SWAP2 POP PUSH2 0x2ADC DUP3 PUSH2 0x2A77 JUMP JUMPDEST PUSH1 0x40 DUP3 ADD SWAP1 POP SWAP2 SWAP1 POP JUMP JUMPDEST PUSH0 PUSH1 0x20 DUP3 ADD SWAP1 POP DUP2 DUP2 SUB PUSH0 DUP4 ADD MSTORE PUSH2 0x2AFE DUP2 PUSH2 0x2AC5 JUMP JUMPDEST SWAP1 POP SWAP2 SWAP1 POP JUMP JUMPDEST PUSH0 PUSH2 0x2B0F DUP3 PUSH2 0x1996 JUMP JUMPDEST SWAP2 POP PUSH2 0x2B1A DUP4 PUSH2 0x1996 JUMP JUMPDEST SWAP3 POP DUP3 DUP3 SUB SWAP1 POP DUP2 DUP2 GT ISZERO PUSH2 0x2B32 JUMPI PUSH2 0x2B31 PUSH2 0x23B7 JUMP JUMPDEST JUMPDEST SWAP3 SWAP2 POP POP JUMP JUMPDEST PUSH32 0x4E6F7420656E6F7567682061737365747320746F207769746864726177210000 PUSH0 DUP3 ADD MSTORE POP JUMP JUMPDEST PUSH0 PUSH2 0x2B6C PUSH1 0x1E DUP4 PUSH2 0x1FF0 JUMP JUMPDEST SWAP2 POP PUSH2 0x2B77 DUP3 PUSH2 0x2B38 JUMP JUMPDEST PUSH1 0x20 DUP3 ADD SWAP1 POP SWAP2 SWAP1 POP JUMP JUMPDEST PUSH0 PUSH1 0x20 DUP3 ADD SWAP1 POP DUP2 DUP2 SUB PUSH0 DUP4 ADD MSTORE PUSH2 0x2B99 DUP2 PUSH2 0x2B60 JUMP JUMPDEST SWAP1 POP SWAP2 SWAP1 POP JUMP JUMPDEST PUSH0 DUP2 SWAP1 POP SWAP3 SWAP2 POP POP JUMP JUMPDEST POP JUMP JUMPDEST PUSH0 PUSH2 0x2BB8 PUSH0 DUP4 PUSH2 0x2BA0 JUMP JUMPDEST SWAP2 POP PUSH2 0x2BC3 DUP3 PUSH2 0x2BAA JUMP JUMPDEST PUSH0 DUP3 ADD SWAP1 POP SWAP2 SWAP1 POP JUMP JUMPDEST PUSH0 PUSH2 0x2BD7 DUP3 PUSH2 0x2BAD JUMP JUMPDEST SWAP2 POP DUP2 SWAP1 POP SWAP2 SWAP1 POP JUMP JUMPDEST PUSH32 0x455448207472616E73666572206661696C656400000000000000000000000000 PUSH0 DUP3 ADD MSTORE POP JUMP JUMPDEST PUSH0 PUSH2 0x2C15 PUSH1 0x13 DUP4 PUSH2 0x1FF0 JUMP JUMPDEST SWAP2 POP PUSH2 0x2C20 DUP3 PUSH2 0x2BE1 JUMP JUMPDEST PUSH1 0x20 DUP3 ADD SWAP1 POP SWAP2 SWAP1 POP JUMP JUMPDEST PUSH0 PUSH1 0x20 DUP3 ADD SWAP1 POP DUP2 DUP2 SUB PUSH0 DUP4 ADD MSTORE PUSH2 0x2C42 DUP2 PUSH2 0x2C09 JUMP JUMPDEST SWAP1 POP SWAP2 SWAP1 POP JUMP JUMPDEST PUSH32 0x45544820746F2061646420746F206C6F636B206D75737420626520616E20616D PUSH0 DUP3 ADD MSTORE PUSH32 0x6F756E742067726561746572207468616E203000000000000000000000000000 PUSH1 0x20 DUP3 ADD MSTORE POP JUMP JUMPDEST PUSH0 PUSH2 0x2CA3 PUSH1 0x33 DUP4 PUSH2 0x1FF0 JUMP JUMPDEST SWAP2 POP PUSH2 0x2CAE DUP3 PUSH2 0x2C49 JUMP JUMPDEST PUSH1 0x40 DUP3 ADD SWAP1 POP SWAP2 SWAP1 POP JUMP JUMPDEST PUSH0 PUSH1 0x20 DUP3 ADD SWAP1 POP DUP2 DUP2 SUB PUSH0 DUP4 ADD MSTORE PUSH2 0x2CD0 DUP2 PUSH2 0x2C97 JUMP JUMPDEST SWAP1 POP SWAP2 SWAP1 POP JUMP JUMPDEST PUSH0 PUSH1 0x60 DUP3 ADD SWAP1 POP PUSH2 0x2CEA PUSH0 DUP4 ADD DUP7 PUSH2 0x1F4E JUMP JUMPDEST PUSH2 0x2CF7 PUSH1 0x20 DUP4 ADD DUP6 PUSH2 0x1F4E JUMP JUMPDEST PUSH2 0x2D04 PUSH1 0x40 DUP4 ADD DUP5 PUSH2 0x1C65 JUMP JUMPDEST SWAP5 SWAP4 POP POP POP POP JUMP JUMPDEST PUSH0 PUSH1 0x40 DUP3 ADD SWAP1 POP PUSH2 0x2D1F PUSH0 DUP4 ADD DUP6 PUSH2 0x1F4E JUMP JUMPDEST PUSH2 0x2D2C PUSH1 0x20 DUP4 ADD DUP5 PUSH2 0x1C65 JUMP JUMPDEST SWAP4 SWAP3 POP POP POP JUMP INVALID LOG2 PUSH5 0x6970667358 0x22 SLT KECCAK256 0xC8 DUP4 0x2C PUSH11 0x44D210A15F335CFC3C21B9 SWAP8 CODECOPY 0xB5 0xA6 0xAE 0x2F 0xD8 0x23 JUMPI PUSH16 0x90E6FD342A5DCA64736F6C634300081A STOP CALLER "
				},
				"gasEstimates": {
					"creation": {
						"codeDepositCost": "2325000",
						"executionCost": "infinite",
						"totalCost": "infinite"
					},
					"external": {
						"addToLockedETH(uint8,uint32)": "infinite",
						"addToLockedTokens(address,uint32,uint256,uint8)": "infinite",
						"getContractETHBalance()": "334",
						"getContractTokenBalance(address)": "infinite",
						"getUserLocks(uint8)": "infinite",
						"lockETH(uint8,uint256,string)": "infinite",
						"lockToken(address,uint256,uint8,uint256,string)": "infinite",
						"owner()": "2537",
						"renounceOwnership()": "infinite",
						"transferAsset(uint32,uint8,uint256)": "infinite",
						"transferOwnership(address)": "infinite",
						"userLockedAssets(address,uint8,uint256)": "infinite"
					}
				},
				"methodIdentifiers": {
					"addToLockedETH(uint8,uint32)": "ecaa9d05",
					"addToLockedTokens(address,uint32,uint256,uint8)": "2d8fefc2",
					"getContractETHBalance()": "8c89a0ad",
					"getContractTokenBalance(address)": "14205e28",
					"getUserLocks(uint8)": "3b958c38",
					"lockETH(uint8,uint256,string)": "13a2e884",
					"lockToken(address,uint256,uint8,uint256,string)": "0f1419b5",
					"owner()": "8da5cb5b",
					"renounceOwnership()": "715018a6",
					"transferAsset(uint32,uint8,uint256)": "9e6c3ff2",
					"transferOwnership(address)": "f2fde38b",
					"userLockedAssets(address,uint8,uint256)": "8e06b906"
				}
			},
			"storageLayout": {
				"storage": [
					{
						"astId": 8,
						"contract": "contracts/Fvkry.sol:Fvkry",
						"label": "_owner",
						"offset": 0,
						"slot": "0",
						"type": "t_address"
					},
					{
						"astId": 765,
						"contract": "contracts/Fvkry.sol:Fvkry",
						"label": "_status",
						"offset": 0,
						"slot": "1",
						"type": "t_uint256"
					},
					{
						"astId": 870,
						"contract": "contracts/Fvkry.sol:Fvkry",
						"label": "userLockedAssets",
						"offset": 0,
						"slot": "2",
						"type": "t_mapping(t_address,t_mapping(t_uint8,t_array(t_struct(Lock)862_storage)dyn_storage))"
					}
				],
				"types": {
					"t_address": {
						"encoding": "inplace",
						"label": "address",
						"numberOfBytes": "20"
					},
					"t_array(t_struct(Lock)862_storage)dyn_storage": {
						"base": "t_struct(Lock)862_storage",
						"encoding": "dynamic_array",
						"label": "struct Fvkry.Lock[]",
						"numberOfBytes": "32"
					},
					"t_bool": {
						"encoding": "inplace",
						"label": "bool",
						"numberOfBytes": "1"
					},
					"t_mapping(t_address,t_mapping(t_uint8,t_array(t_struct(Lock)862_storage)dyn_storage))": {
						"encoding": "mapping",
						"key": "t_address",
						"label": "mapping(address => mapping(uint8 => struct Fvkry.Lock[]))",
						"numberOfBytes": "32",
						"value": "t_mapping(t_uint8,t_array(t_struct(Lock)862_storage)dyn_storage)"
					},
					"t_mapping(t_uint8,t_array(t_struct(Lock)862_storage)dyn_storage)": {
						"encoding": "mapping",
						"key": "t_uint8",
						"label": "mapping(uint8 => struct Fvkry.Lock[])",
						"numberOfBytes": "32",
						"value": "t_array(t_struct(Lock)862_storage)dyn_storage"
					},
					"t_string_storage": {
						"encoding": "bytes",
						"label": "string",
						"numberOfBytes": "32"
					},
					"t_struct(Lock)862_storage": {
						"encoding": "inplace",
						"label": "struct Fvkry.Lock",
						"members": [
							{
								"astId": 851,
								"contract": "contracts/Fvkry.sol:Fvkry",
								"label": "token",
								"offset": 0,
								"slot": "0",
								"type": "t_address"
							},
							{
								"astId": 853,
								"contract": "contracts/Fvkry.sol:Fvkry",
								"label": "amount",
								"offset": 0,
								"slot": "1",
								"type": "t_uint256"
							},
							{
								"astId": 855,
								"contract": "contracts/Fvkry.sol:Fvkry",
								"label": "lockEndTime",
								"offset": 0,
								"slot": "2",
								"type": "t_uint256"
							},
							{
								"astId": 857,
								"contract": "contracts/Fvkry.sol:Fvkry",
								"label": "title",
								"offset": 0,
								"slot": "3",
								"type": "t_string_storage"
							},
							{
								"astId": 859,
								"contract": "contracts/Fvkry.sol:Fvkry",
								"label": "withdrawn",
								"offset": 0,
								"slot": "4",
								"type": "t_bool"
							},
							{
								"astId": 861,
								"contract": "contracts/Fvkry.sol:Fvkry",
								"label": "isNative",
								"offset": 1,
								"slot": "4",
								"type": "t_bool"
							}
						],
						"numberOfBytes": "160"
					},
					"t_uint256": {
						"encoding": "inplace",
						"label": "uint256",
						"numberOfBytes": "32"
					},
					"t_uint8": {
						"encoding": "inplace",
						"label": "uint8",
						"numberOfBytes": "1"
					}
				}
			},
			"userdoc": {
				"kind": "user",
				"methods": {},
				"version": 1
			}
		}
	}
}