{
	"contracts/Fvkry.sol": {
		"Fvkry": {
			"abi": [
				{
					"inputs": [],
					"stateMutability": "nonpayable",
					"type": "constructor"
				},
				{
					"inputs": [
						{
							"internalType": "address",
							"name": "owner",
							"type": "address"
						}
					],
					"name": "OwnableInvalidOwner",
					"type": "error"
				},
				{
					"inputs": [
						{
							"internalType": "address",
							"name": "account",
							"type": "address"
						}
					],
					"name": "OwnableUnauthorizedAccount",
					"type": "error"
				},
				{
					"inputs": [],
					"name": "ReentrancyGuardReentrantCall",
					"type": "error"
				},
				{
					"inputs": [
						{
							"internalType": "address",
							"name": "token",
							"type": "address"
						}
					],
					"name": "SafeERC20FailedOperation",
					"type": "error"
				},
				{
					"anonymous": false,
					"inputs": [
						{
							"indexed": true,
							"internalType": "address",
							"name": "token",
							"type": "address"
						},
						{
							"indexed": false,
							"internalType": "uint256",
							"name": "amount",
							"type": "uint256"
						},
						{
							"indexed": false,
							"internalType": "string",
							"name": "title",
							"type": "string"
						},
						{
							"indexed": false,
							"internalType": "uint8",
							"name": "vault",
							"type": "uint8"
						},
						{
							"indexed": false,
							"internalType": "uint256",
							"name": "timestamp",
							"type": "uint256"
						}
					],
					"name": "AssetAdded",
					"type": "event"
				},
				{
					"anonymous": false,
					"inputs": [
						{
							"indexed": true,
							"internalType": "address",
							"name": "token",
							"type": "address"
						},
						{
							"indexed": false,
							"internalType": "uint256",
							"name": "amount",
							"type": "uint256"
						},
						{
							"indexed": false,
							"internalType": "string",
							"name": "title",
							"type": "string"
						},
						{
							"indexed": false,
							"internalType": "uint8",
							"name": "vault",
							"type": "uint8"
						},
						{
							"indexed": false,
							"internalType": "uint256",
							"name": "lockEndTime",
							"type": "uint256"
						},
						{
							"indexed": false,
							"internalType": "uint256",
							"name": "timestamp",
							"type": "uint256"
						}
					],
					"name": "AssetLocked",
					"type": "event"
				},
				{
					"anonymous": false,
					"inputs": [
						{
							"indexed": true,
							"internalType": "address",
							"name": "token",
							"type": "address"
						},
						{
							"indexed": false,
							"internalType": "uint256",
							"name": "amount",
							"type": "uint256"
						},
						{
							"indexed": false,
							"internalType": "string",
							"name": "title",
							"type": "string"
						},
						{
							"indexed": false,
							"internalType": "uint8",
							"name": "vault",
							"type": "uint8"
						},
						{
							"indexed": false,
							"internalType": "uint256",
							"name": "timestamp",
							"type": "uint256"
						}
					],
					"name": "AssetTransfered",
					"type": "event"
				},
				{
					"anonymous": false,
					"inputs": [
						{
							"indexed": true,
							"internalType": "address",
							"name": "token",
							"type": "address"
						},
						{
							"indexed": false,
							"internalType": "uint8",
							"name": "vault",
							"type": "uint8"
						},
						{
							"indexed": false,
							"internalType": "uint256",
							"name": "lockperiod",
							"type": "uint256"
						},
						{
							"indexed": false,
							"internalType": "string",
							"name": "title",
							"type": "string"
						},
						{
							"indexed": false,
							"internalType": "uint256",
							"name": "timestamp",
							"type": "uint256"
						}
					],
					"name": "LockPeriodExtended",
					"type": "event"
				},
				{
					"anonymous": false,
					"inputs": [
						{
							"indexed": true,
							"internalType": "address",
							"name": "previousOwner",
							"type": "address"
						},
						{
							"indexed": true,
							"internalType": "address",
							"name": "newOwner",
							"type": "address"
						}
					],
					"name": "OwnershipTransferred",
					"type": "event"
				},
				{
					"inputs": [
						{
							"internalType": "uint8",
							"name": "_vault",
							"type": "uint8"
						},
						{
							"internalType": "uint32",
							"name": "_assetID",
							"type": "uint32"
						}
					],
					"name": "addToLockedETH",
					"outputs": [],
					"stateMutability": "payable",
					"type": "function"
				},
				{
					"inputs": [
						{
							"internalType": "contract IERC20",
							"name": "_token",
							"type": "address"
						},
						{
							"internalType": "uint32",
							"name": "_assetID",
							"type": "uint32"
						},
						{
							"internalType": "uint256",
							"name": "_amount",
							"type": "uint256"
						},
						{
							"internalType": "uint8",
							"name": "_vault",
							"type": "uint8"
						}
					],
					"name": "addToLockedTokens",
					"outputs": [],
					"stateMutability": "nonpayable",
					"type": "function"
				},
				{
					"inputs": [
						{
							"internalType": "uint32",
							"name": "_assetID",
							"type": "uint32"
						},
						{
							"internalType": "uint8",
							"name": "_vault",
							"type": "uint8"
						},
						{
							"internalType": "uint256",
							"name": "_lockperiod",
							"type": "uint256"
						}
					],
					"name": "extendLockPeriod",
					"outputs": [],
					"stateMutability": "nonpayable",
					"type": "function"
				},
				{
					"inputs": [],
					"name": "getContractETHBalance",
					"outputs": [
						{
							"internalType": "uint256",
							"name": "",
							"type": "uint256"
						}
					],
					"stateMutability": "view",
					"type": "function"
				},
				{
					"inputs": [
						{
							"internalType": "contract IERC20",
							"name": "token",
							"type": "address"
						}
					],
					"name": "getContractTokenBalance",
					"outputs": [
						{
							"internalType": "uint256",
							"name": "",
							"type": "uint256"
						}
					],
					"stateMutability": "view",
					"type": "function"
				},
				{
					"inputs": [
						{
							"internalType": "uint8",
							"name": "_vault",
							"type": "uint8"
						}
					],
					"name": "getUserLocks",
					"outputs": [
						{
							"components": [
								{
									"internalType": "address",
									"name": "token",
									"type": "address"
								},
								{
									"internalType": "uint256",
									"name": "amount",
									"type": "uint256"
								},
								{
									"internalType": "uint256",
									"name": "lockEndTime",
									"type": "uint256"
								},
								{
									"internalType": "string",
									"name": "title",
									"type": "string"
								},
								{
									"internalType": "bool",
									"name": "withdrawn",
									"type": "bool"
								},
								{
									"internalType": "bool",
									"name": "isNative",
									"type": "bool"
								},
								{
									"internalType": "bool",
									"name": "makeAvailable",
									"type": "bool"
								}
							],
							"internalType": "struct Fvkry.Lock[]",
							"name": "",
							"type": "tuple[]"
						}
					],
					"stateMutability": "view",
					"type": "function"
				},
				{
					"inputs": [
						{
							"internalType": "uint32",
							"name": "_assetID",
							"type": "uint32"
						},
						{
							"internalType": "uint8",
							"name": "_vault",
							"type": "uint8"
						},
						{
							"internalType": "bool",
							"name": "_available",
							"type": "bool"
						}
					],
					"name": "goalReached",
					"outputs": [],
					"stateMutability": "nonpayable",
					"type": "function"
				},
				{
					"inputs": [
						{
							"internalType": "uint8",
							"name": "_vault",
							"type": "uint8"
						},
						{
							"internalType": "uint256",
							"name": "_lockperiod",
							"type": "uint256"
						},
						{
							"internalType": "string",
							"name": "_title",
							"type": "string"
						}
					],
					"name": "lockETH",
					"outputs": [],
					"stateMutability": "payable",
					"type": "function"
				},
				{
					"inputs": [
						{
							"internalType": "contract IERC20",
							"name": "_token",
							"type": "address"
						},
						{
							"internalType": "uint256",
							"name": "_amount",
							"type": "uint256"
						},
						{
							"internalType": "uint8",
							"name": "_vault",
							"type": "uint8"
						},
						{
							"internalType": "uint256",
							"name": "_lockperiod",
							"type": "uint256"
						},
						{
							"internalType": "string",
							"name": "_title",
							"type": "string"
						}
					],
					"name": "lockToken",
					"outputs": [],
					"stateMutability": "nonpayable",
					"type": "function"
				},
				{
					"inputs": [],
					"name": "owner",
					"outputs": [
						{
							"internalType": "address",
							"name": "",
							"type": "address"
						}
					],
					"stateMutability": "view",
					"type": "function"
				},
				{
					"inputs": [],
					"name": "renounceOwnership",
					"outputs": [],
					"stateMutability": "nonpayable",
					"type": "function"
				},
				{
					"inputs": [
						{
							"internalType": "uint32",
							"name": "_assetId",
							"type": "uint32"
						},
						{
							"internalType": "uint8",
							"name": "_vault",
							"type": "uint8"
						},
						{
							"internalType": "uint256",
							"name": "_amount",
							"type": "uint256"
						}
					],
					"name": "transferAsset",
					"outputs": [],
					"stateMutability": "nonpayable",
					"type": "function"
				},
				{
					"inputs": [
						{
							"internalType": "address",
							"name": "newOwner",
							"type": "address"
						}
					],
					"name": "transferOwnership",
					"outputs": [],
					"stateMutability": "nonpayable",
					"type": "function"
				},
				{
					"inputs": [
						{
							"internalType": "address",
							"name": "",
							"type": "address"
						},
						{
							"internalType": "uint8",
							"name": "",
							"type": "uint8"
						},
						{
							"internalType": "uint256",
							"name": "",
							"type": "uint256"
						}
					],
					"name": "userLockedAssets",
					"outputs": [
						{
							"internalType": "address",
							"name": "token",
							"type": "address"
						},
						{
							"internalType": "uint256",
							"name": "amount",
							"type": "uint256"
						},
						{
							"internalType": "uint256",
							"name": "lockEndTime",
							"type": "uint256"
						},
						{
							"internalType": "string",
							"name": "title",
							"type": "string"
						},
						{
							"internalType": "bool",
							"name": "withdrawn",
							"type": "bool"
						},
						{
							"internalType": "bool",
							"name": "isNative",
							"type": "bool"
						},
						{
							"internalType": "bool",
							"name": "makeAvailable",
							"type": "bool"
						}
					],
					"stateMutability": "view",
					"type": "function"
				},
				{
					"inputs": [
						{
							"internalType": "address",
							"name": "",
							"type": "address"
						},
						{
							"internalType": "uint8",
							"name": "",
							"type": "uint8"
						},
						{
							"internalType": "uint256",
							"name": "",
							"type": "uint256"
						}
					],
					"name": "userTransactions",
					"outputs": [
						{
							"internalType": "address",
							"name": "token",
							"type": "address"
						},
						{
							"internalType": "uint256",
							"name": "amount",
							"type": "uint256"
						},
						{
							"internalType": "string",
							"name": "title",
							"type": "string"
						},
						{
							"internalType": "bool",
							"name": "withdrawn",
							"type": "bool"
						},
						{
							"internalType": "uint256",
							"name": "timestamp",
							"type": "uint256"
						}
					],
					"stateMutability": "view",
					"type": "function"
				}
			],
			"devdoc": {
				"errors": {
					"OwnableInvalidOwner(address)": [
						{
							"details": "The owner is not a valid owner account. (eg. `address(0)`)"
						}
					],
					"OwnableUnauthorizedAccount(address)": [
						{
							"details": "The caller account is not authorized to perform an operation."
						}
					],
					"ReentrancyGuardReentrantCall()": [
						{
							"details": "Unauthorized reentrant call."
						}
					],
					"SafeERC20FailedOperation(address)": [
						{
							"details": "An operation with an ERC-20 token failed."
						}
					]
				},
				"kind": "dev",
				"methods": {
					"owner()": {
						"details": "Returns the address of the current owner."
					},
					"renounceOwnership()": {
						"details": "Leaves the contract without owner. It will not be possible to call `onlyOwner` functions. Can only be called by the current owner. NOTE: Renouncing ownership will leave the contract without an owner, thereby disabling any functionality that is only available to the owner."
					},
					"transferOwnership(address)": {
						"details": "Transfers ownership of the contract to a new account (`newOwner`). Can only be called by the current owner."
					}
				},
				"version": 1
			},
			"evm": {
				"assembly": "    /* \"contracts/Fvkry.sol\":305:8285  contract Fvkry is Ownable, ReentrancyGuard {... */\n  mstore(0x40, 0x80)\n    /* \"contracts/Fvkry.sol\":1415:1451  constructor() Ownable(msg.sender) {} */\n  callvalue\n  dup1\n  iszero\n  tag_1\n  jumpi\n  0x00\n  dup1\n  revert\ntag_1:\n  pop\n    /* \"contracts/Fvkry.sol\":1437:1447  msg.sender */\n  caller\n    /* \"@openzeppelin/contracts/access/Ownable.sol\":1297:1298  0 */\n  0x00\n    /* \"@openzeppelin/contracts/access/Ownable.sol\":1273:1299  initialOwner == address(0) */\n  0xffffffffffffffffffffffffffffffffffffffff\n  and\n    /* \"@openzeppelin/contracts/access/Ownable.sol\":1273:1285  initialOwner */\n  dup2\n    /* \"@openzeppelin/contracts/access/Ownable.sol\":1273:1299  initialOwner == address(0) */\n  0xffffffffffffffffffffffffffffffffffffffff\n  and\n  sub\n    /* \"@openzeppelin/contracts/access/Ownable.sol\":1269:1364  if (initialOwner == address(0)) {... */\n  tag_6\n  jumpi\n    /* \"@openzeppelin/contracts/access/Ownable.sol\":1350:1351  0 */\n  0x00\n    /* \"@openzeppelin/contracts/access/Ownable.sol\":1322:1353  OwnableInvalidOwner(address(0)) */\n  mload(0x40)\n  0x1e4fbdf700000000000000000000000000000000000000000000000000000000\n  dup2\n  mstore\n  0x04\n  add\n  tag_7\n  swap2\n  swap1\n  tag_8\n  jump\t// in\ntag_7:\n  mload(0x40)\n  dup1\n  swap2\n  sub\n  swap1\n  revert\n    /* \"@openzeppelin/contracts/access/Ownable.sol\":1269:1364  if (initialOwner == address(0)) {... */\ntag_6:\n    /* \"@openzeppelin/contracts/access/Ownable.sol\":1373:1405  _transferOwnership(initialOwner) */\n  tag_9\n    /* \"@openzeppelin/contracts/access/Ownable.sol\":1392:1404  initialOwner */\n  dup2\n    /* \"@openzeppelin/contracts/access/Ownable.sol\":1373:1391  _transferOwnership */\n  shl(0x20, tag_10)\n    /* \"@openzeppelin/contracts/access/Ownable.sol\":1373:1405  _transferOwnership(initialOwner) */\n  0x20\n  shr\n  jump\t// in\ntag_9:\n    /* \"@openzeppelin/contracts/access/Ownable.sol\":1225:1412  constructor(address initialOwner) {... */\n  pop\n    /* \"@openzeppelin/contracts/utils/ReentrancyGuard.sol\":1857:1858  1 */\n  0x01\n    /* \"@openzeppelin/contracts/utils/ReentrancyGuard.sol\":2061:2068  _status */\n  dup1\n    /* \"@openzeppelin/contracts/utils/ReentrancyGuard.sol\":2061:2082  _status = NOT_ENTERED */\n  dup2\n  swap1\n  sstore\n  pop\n    /* \"contracts/Fvkry.sol\":305:8285  contract Fvkry is Ownable, ReentrancyGuard {... */\n  jump(tag_13)\n    /* \"@openzeppelin/contracts/access/Ownable.sol\":2912:3099  function _transferOwnership(address newOwner) internal virtual {... */\ntag_10:\n    /* \"@openzeppelin/contracts/access/Ownable.sol\":2985:3001  address oldOwner */\n  0x00\n    /* \"@openzeppelin/contracts/access/Ownable.sol\":3004:3010  _owner */\n  dup1\n  0x00\n  swap1\n  sload\n  swap1\n  0x0100\n  exp\n  swap1\n  div\n  0xffffffffffffffffffffffffffffffffffffffff\n  and\n    /* \"@openzeppelin/contracts/access/Ownable.sol\":2985:3010  address oldOwner = _owner */\n  swap1\n  pop\n    /* \"@openzeppelin/contracts/access/Ownable.sol\":3029:3037  newOwner */\n  dup2\n    /* \"@openzeppelin/contracts/access/Ownable.sol\":3020:3026  _owner */\n  0x00\n  dup1\n    /* \"@openzeppelin/contracts/access/Ownable.sol\":3020:3037  _owner = newOwner */\n  0x0100\n  exp\n  dup2\n  sload\n  dup2\n  0xffffffffffffffffffffffffffffffffffffffff\n  mul\n  not\n  and\n  swap1\n  dup4\n  0xffffffffffffffffffffffffffffffffffffffff\n  and\n  mul\n  or\n  swap1\n  sstore\n  pop\n    /* \"@openzeppelin/contracts/access/Ownable.sol\":3083:3091  newOwner */\n  dup2\n    /* \"@openzeppelin/contracts/access/Ownable.sol\":3052:3092  OwnershipTransferred(oldOwner, newOwner) */\n  0xffffffffffffffffffffffffffffffffffffffff\n  and\n    /* \"@openzeppelin/contracts/access/Ownable.sol\":3073:3081  oldOwner */\n  dup2\n    /* \"@openzeppelin/contracts/access/Ownable.sol\":3052:3092  OwnershipTransferred(oldOwner, newOwner) */\n  0xffffffffffffffffffffffffffffffffffffffff\n  and\n  0x8be0079c531659141344cd1fd0a4f28419497f9722a3daafe3b4186f6b6457e0\n  mload(0x40)\n  mload(0x40)\n  dup1\n  swap2\n  sub\n  swap1\n  log3\n    /* \"@openzeppelin/contracts/access/Ownable.sol\":2975:3099  {... */\n  pop\n    /* \"@openzeppelin/contracts/access/Ownable.sol\":2912:3099  function _transferOwnership(address newOwner) internal virtual {... */\n  pop\n  jump\t// out\n    /* \"#utility.yul\":7:133   */\ntag_15:\n    /* \"#utility.yul\":44:51   */\n  0x00\n    /* \"#utility.yul\":84:126   */\n  0xffffffffffffffffffffffffffffffffffffffff\n    /* \"#utility.yul\":77:82   */\n  dup3\n    /* \"#utility.yul\":73:127   */\n  and\n    /* \"#utility.yul\":62:127   */\n  swap1\n  pop\n    /* \"#utility.yul\":7:133   */\n  swap2\n  swap1\n  pop\n  jump\t// out\n    /* \"#utility.yul\":139:235   */\ntag_16:\n    /* \"#utility.yul\":176:183   */\n  0x00\n    /* \"#utility.yul\":205:229   */\n  tag_21\n    /* \"#utility.yul\":223:228   */\n  dup3\n    /* \"#utility.yul\":205:229   */\n  tag_15\n  jump\t// in\ntag_21:\n    /* \"#utility.yul\":194:229   */\n  swap1\n  pop\n    /* \"#utility.yul\":139:235   */\n  swap2\n  swap1\n  pop\n  jump\t// out\n    /* \"#utility.yul\":241:359   */\ntag_17:\n    /* \"#utility.yul\":328:352   */\n  tag_23\n    /* \"#utility.yul\":346:351   */\n  dup2\n    /* \"#utility.yul\":328:352   */\n  tag_16\n  jump\t// in\ntag_23:\n    /* \"#utility.yul\":323:326   */\n  dup3\n    /* \"#utility.yul\":316:353   */\n  mstore\n    /* \"#utility.yul\":241:359   */\n  pop\n  pop\n  jump\t// out\n    /* \"#utility.yul\":365:587   */\ntag_8:\n    /* \"#utility.yul\":458:462   */\n  0x00\n    /* \"#utility.yul\":496:498   */\n  0x20\n    /* \"#utility.yul\":485:494   */\n  dup3\n    /* \"#utility.yul\":481:499   */\n  add\n    /* \"#utility.yul\":473:499   */\n  swap1\n  pop\n    /* \"#utility.yul\":509:580   */\n  tag_25\n    /* \"#utility.yul\":577:578   */\n  0x00\n    /* \"#utility.yul\":566:575   */\n  dup4\n    /* \"#utility.yul\":562:579   */\n  add\n    /* \"#utility.yul\":553:559   */\n  dup5\n    /* \"#utility.yul\":509:580   */\n  tag_17\n  jump\t// in\ntag_25:\n    /* \"#utility.yul\":365:587   */\n  swap3\n  swap2\n  pop\n  pop\n  jump\t// out\n    /* \"contracts/Fvkry.sol\":305:8285  contract Fvkry is Ownable, ReentrancyGuard {... */\ntag_13:\n  dataSize(sub_0)\n  dup1\n  dataOffset(sub_0)\n  0x00\n  codecopy\n  0x00\n  return\nstop\n\nsub_0: assembly {\n        /* \"contracts/Fvkry.sol\":305:8285  contract Fvkry is Ownable, ReentrancyGuard {... */\n      mstore(0x40, 0x80)\n      jumpi(tag_1, lt(calldatasize, 0x04))\n      shr(0xe0, calldataload(0x00))\n      dup1\n      0x8c89a0ad\n      gt\n      tag_17\n      jumpi\n      dup1\n      0x9e6c3ff2\n      gt\n      tag_18\n      jumpi\n      dup1\n      0x9e6c3ff2\n      eq\n      tag_13\n      jumpi\n      dup1\n      0xecaa9d05\n      eq\n      tag_14\n      jumpi\n      dup1\n      0xf152edce\n      eq\n      tag_15\n      jumpi\n      dup1\n      0xf2fde38b\n      eq\n      tag_16\n      jumpi\n      jump(tag_1)\n    tag_18:\n      dup1\n      0x8c89a0ad\n      eq\n      tag_9\n      jumpi\n      dup1\n      0x8da5cb5b\n      eq\n      tag_10\n      jumpi\n      dup1\n      0x8de8107b\n      eq\n      tag_11\n      jumpi\n      dup1\n      0x8e06b906\n      eq\n      tag_12\n      jumpi\n      jump(tag_1)\n    tag_17:\n      dup1\n      0x2d8fefc2\n      gt\n      tag_19\n      jumpi\n      dup1\n      0x2d8fefc2\n      eq\n      tag_5\n      jumpi\n      dup1\n      0x3b958c38\n      eq\n      tag_6\n      jumpi\n      dup1\n      0x60864eed\n      eq\n      tag_7\n      jumpi\n      dup1\n      0x715018a6\n      eq\n      tag_8\n      jumpi\n      jump(tag_1)\n    tag_19:\n      dup1\n      0x0f1419b5\n      eq\n      tag_2\n      jumpi\n      dup1\n      0x13a2e884\n      eq\n      tag_3\n      jumpi\n      dup1\n      0x14205e28\n      eq\n      tag_4\n      jumpi\n    tag_1:\n      0x00\n      dup1\n      revert\n        /* \"contracts/Fvkry.sol\":2960:4197  function lockToken (IERC20 _token, uint256 _amount, uint8 _vault, uint256 _lockperiod, string memory _title) external nonReentrant {... */\n    tag_2:\n      callvalue\n      dup1\n      iszero\n      tag_20\n      jumpi\n      0x00\n      dup1\n      revert\n    tag_20:\n      pop\n      tag_21\n      0x04\n      dup1\n      calldatasize\n      sub\n      dup2\n      add\n      swap1\n      tag_22\n      swap2\n      swap1\n      tag_23\n      jump\t// in\n    tag_22:\n      tag_24\n      jump\t// in\n    tag_21:\n      stop\n        /* \"contracts/Fvkry.sol\":1475:2340  function lockETH(uint8 _vault, uint256 _lockperiod, string memory _title) external payable nonReentrant {... */\n    tag_3:\n      tag_25\n      0x04\n      dup1\n      calldatasize\n      sub\n      dup2\n      add\n      swap1\n      tag_26\n      swap2\n      swap1\n      tag_27\n      jump\t// in\n    tag_26:\n      tag_28\n      jump\t// in\n    tag_25:\n      stop\n        /* \"contracts/Fvkry.sol\":6993:7128  function getContractTokenBalance(IERC20 token) external view returns (uint256) {... */\n    tag_4:\n      callvalue\n      dup1\n      iszero\n      tag_29\n      jumpi\n      0x00\n      dup1\n      revert\n    tag_29:\n      pop\n      tag_30\n      0x04\n      dup1\n      calldatasize\n      sub\n      dup2\n      add\n      swap1\n      tag_31\n      swap2\n      swap1\n      tag_32\n      jump\t// in\n    tag_31:\n      tag_33\n      jump\t// in\n    tag_30:\n      mload(0x40)\n      tag_34\n      swap2\n      swap1\n      tag_35\n      jump\t// in\n    tag_34:\n      mload(0x40)\n      dup1\n      swap2\n      sub\n      swap1\n      return\n        /* \"contracts/Fvkry.sol\":4205:4986  function addToLockedTokens(IERC20 _token, uint32 _assetID, uint256 _amount, uint8 _vault) external  nonReentrant {... */\n    tag_5:\n      callvalue\n      dup1\n      iszero\n      tag_36\n      jumpi\n      0x00\n      dup1\n      revert\n    tag_36:\n      pop\n      tag_37\n      0x04\n      dup1\n      calldatasize\n      sub\n      dup2\n      add\n      swap1\n      tag_38\n      swap2\n      swap1\n      tag_39\n      jump\t// in\n    tag_38:\n      tag_40\n      jump\t// in\n    tag_37:\n      stop\n        /* \"contracts/Fvkry.sol\":7286:7420  function getUserLocks(uint8 _vault) public view returns (Lock[] memory) {... */\n    tag_6:\n      callvalue\n      dup1\n      iszero\n      tag_41\n      jumpi\n      0x00\n      dup1\n      revert\n    tag_41:\n      pop\n      tag_42\n      0x04\n      dup1\n      calldatasize\n      sub\n      dup2\n      add\n      swap1\n      tag_43\n      swap2\n      swap1\n      tag_44\n      jump\t// in\n    tag_43:\n      tag_45\n      jump\t// in\n    tag_42:\n      mload(0x40)\n      tag_46\n      swap2\n      swap1\n      tag_47\n      jump\t// in\n    tag_46:\n      mload(0x40)\n      dup1\n      swap2\n      sub\n      swap1\n      return\n        /* \"contracts/Fvkry.sol\":840:918  mapping  (address => mapping (uint8 => TransacHist[])) public userTransactions */\n    tag_7:\n      callvalue\n      dup1\n      iszero\n      tag_48\n      jumpi\n      0x00\n      dup1\n      revert\n    tag_48:\n      pop\n      tag_49\n      0x04\n      dup1\n      calldatasize\n      sub\n      dup2\n      add\n      swap1\n      tag_50\n      swap2\n      swap1\n      tag_51\n      jump\t// in\n    tag_50:\n      tag_52\n      jump\t// in\n    tag_49:\n      mload(0x40)\n      tag_53\n      swap6\n      swap5\n      swap4\n      swap3\n      swap2\n      swap1\n      tag_54\n      jump\t// in\n    tag_53:\n      mload(0x40)\n      dup1\n      swap2\n      sub\n      swap1\n      return\n        /* \"@openzeppelin/contracts/access/Ownable.sol\":2293:2394  function renounceOwnership() public virtual onlyOwner {... */\n    tag_8:\n      callvalue\n      dup1\n      iszero\n      tag_55\n      jumpi\n      0x00\n      dup1\n      revert\n    tag_55:\n      pop\n      tag_56\n      tag_57\n      jump\t// in\n    tag_56:\n      stop\n        /* \"contracts/Fvkry.sol\":7136:7248  function getContractETHBalance() external view returns (uint256) {... */\n    tag_9:\n      callvalue\n      dup1\n      iszero\n      tag_58\n      jumpi\n      0x00\n      dup1\n      revert\n    tag_58:\n      pop\n      tag_59\n      tag_60\n      jump\t// in\n    tag_59:\n      mload(0x40)\n      tag_61\n      swap2\n      swap1\n      tag_35\n      jump\t// in\n    tag_61:\n      mload(0x40)\n      dup1\n      swap2\n      sub\n      swap1\n      return\n        /* \"@openzeppelin/contracts/access/Ownable.sol\":1638:1723  function owner() public view virtual returns (address) {... */\n    tag_10:\n      callvalue\n      dup1\n      iszero\n      tag_62\n      jumpi\n      0x00\n      dup1\n      revert\n    tag_62:\n      pop\n      tag_63\n      tag_64\n      jump\t// in\n    tag_63:\n      mload(0x40)\n      tag_65\n      swap2\n      swap1\n      tag_66\n      jump\t// in\n    tag_65:\n      mload(0x40)\n      dup1\n      swap2\n      sub\n      swap1\n      return\n        /* \"contracts/Fvkry.sol\":7467:8057  function extendLockPeriod(uint32 _assetID, uint8 _vault, uint256 _lockperiod) external  {... */\n    tag_11:\n      callvalue\n      dup1\n      iszero\n      tag_67\n      jumpi\n      0x00\n      dup1\n      revert\n    tag_67:\n      pop\n      tag_68\n      0x04\n      dup1\n      calldatasize\n      sub\n      dup2\n      add\n      swap1\n      tag_69\n      swap2\n      swap1\n      tag_70\n      jump\t// in\n    tag_69:\n      tag_71\n      jump\t// in\n    tag_68:\n      stop\n        /* \"contracts/Fvkry.sol\":762:833  mapping  (address => mapping (uint8 => Lock[])) public userLockedAssets */\n    tag_12:\n      callvalue\n      dup1\n      iszero\n      tag_72\n      jumpi\n      0x00\n      dup1\n      revert\n    tag_72:\n      pop\n      tag_73\n      0x04\n      dup1\n      calldatasize\n      sub\n      dup2\n      add\n      swap1\n      tag_74\n      swap2\n      swap1\n      tag_51\n      jump\t// in\n    tag_74:\n      tag_75\n      jump\t// in\n    tag_73:\n      mload(0x40)\n      tag_76\n      swap8\n      swap7\n      swap6\n      swap5\n      swap4\n      swap3\n      swap2\n      swap1\n      tag_77\n      jump\t// in\n    tag_76:\n      mload(0x40)\n      dup1\n      swap2\n      sub\n      swap1\n      return\n        /* \"contracts/Fvkry.sol\":5017:6529  function transferAsset( uint32 _assetId,uint8 _vault, uint256 _amount) external  nonReentrant {... */\n    tag_13:\n      callvalue\n      dup1\n      iszero\n      tag_78\n      jumpi\n      0x00\n      dup1\n      revert\n    tag_78:\n      pop\n      tag_79\n      0x04\n      dup1\n      calldatasize\n      sub\n      dup2\n      add\n      swap1\n      tag_80\n      swap2\n      swap1\n      tag_70\n      jump\t// in\n    tag_80:\n      tag_81\n      jump\t// in\n    tag_79:\n      stop\n        /* \"contracts/Fvkry.sol\":2348:2927  function addToLockedETH(uint8 _vault, uint32 _assetID) external payable  nonReentrant {... */\n    tag_14:\n      tag_82\n      0x04\n      dup1\n      calldatasize\n      sub\n      dup2\n      add\n      swap1\n      tag_83\n      swap2\n      swap1\n      tag_84\n      jump\t// in\n    tag_83:\n      tag_85\n      jump\t// in\n    tag_82:\n      stop\n        /* \"contracts/Fvkry.sol\":8104:8282  function goalReached(uint32 _assetID, uint8 _vault, bool _available) external {        ... */\n    tag_15:\n      callvalue\n      dup1\n      iszero\n      tag_86\n      jumpi\n      0x00\n      dup1\n      revert\n    tag_86:\n      pop\n      tag_87\n      0x04\n      dup1\n      calldatasize\n      sub\n      dup2\n      add\n      swap1\n      tag_88\n      swap2\n      swap1\n      tag_89\n      jump\t// in\n    tag_88:\n      tag_90\n      jump\t// in\n    tag_87:\n      stop\n        /* \"@openzeppelin/contracts/access/Ownable.sol\":2543:2758  function transferOwnership(address newOwner) public virtual onlyOwner {... */\n    tag_16:\n      callvalue\n      dup1\n      iszero\n      tag_91\n      jumpi\n      0x00\n      dup1\n      revert\n    tag_91:\n      pop\n      tag_92\n      0x04\n      dup1\n      calldatasize\n      sub\n      dup2\n      add\n      swap1\n      tag_93\n      swap2\n      swap1\n      tag_94\n      jump\t// in\n    tag_93:\n      tag_95\n      jump\t// in\n    tag_92:\n      stop\n        /* \"contracts/Fvkry.sol\":2960:4197  function lockToken (IERC20 _token, uint256 _amount, uint8 _vault, uint256 _lockperiod, string memory _title) external nonReentrant {... */\n    tag_24:\n        /* \"@openzeppelin/contracts/utils/ReentrancyGuard.sol\":2500:2521  _nonReentrantBefore() */\n      tag_97\n        /* \"@openzeppelin/contracts/utils/ReentrancyGuard.sol\":2500:2519  _nonReentrantBefore */\n      tag_98\n        /* \"@openzeppelin/contracts/utils/ReentrancyGuard.sol\":2500:2521  _nonReentrantBefore() */\n      jump\t// in\n    tag_97:\n        /* \"contracts/Fvkry.sol\":3137:3138  0 */\n      0x00\n        /* \"contracts/Fvkry.sol\":3110:3139  address(_token) != address(0) */\n      0xffffffffffffffffffffffffffffffffffffffff\n      and\n        /* \"contracts/Fvkry.sol\":3118:3124  _token */\n      dup6\n        /* \"contracts/Fvkry.sol\":3110:3139  address(_token) != address(0) */\n      0xffffffffffffffffffffffffffffffffffffffff\n      and\n      sub\n        /* \"contracts/Fvkry.sol\":3102:3178  require(address(_token) != address(0), \"Must provide a valid token address\") */\n      tag_100\n      jumpi\n      mload(0x40)\n      0x08c379a000000000000000000000000000000000000000000000000000000000\n      dup2\n      mstore\n      0x04\n      add\n      tag_101\n      swap1\n      tag_102\n      jump\t// in\n    tag_101:\n      mload(0x40)\n      dup1\n      swap2\n      sub\n      swap1\n      revert\n    tag_100:\n        /* \"contracts/Fvkry.sol\":3207:3208  0 */\n      0x00\n        /* \"contracts/Fvkry.sol\":3197:3204  _amount */\n      dup5\n        /* \"contracts/Fvkry.sol\":3197:3208  _amount > 0 */\n      gt\n        /* \"contracts/Fvkry.sol\":3189:3251  require(_amount > 0, \"Token amount must be greater then zero\") */\n      tag_103\n      jumpi\n      mload(0x40)\n      0x08c379a000000000000000000000000000000000000000000000000000000000\n      dup2\n      mstore\n      0x04\n      add\n      tag_104\n      swap1\n      tag_105\n      jump\t// in\n    tag_104:\n      mload(0x40)\n      dup1\n      swap2\n      sub\n      swap1\n      revert\n    tag_103:\n        /* \"contracts/Fvkry.sol\":3284:3285  0 */\n      0x00\n        /* \"contracts/Fvkry.sol\":3270:3281  _lockperiod */\n      dup3\n        /* \"contracts/Fvkry.sol\":3270:3285  _lockperiod > 0 */\n      gt\n        /* \"contracts/Fvkry.sol\":3262:3331  require(_lockperiod > 0, \"The lock period must be greater then zero\") */\n      tag_106\n      jumpi\n      mload(0x40)\n      0x08c379a000000000000000000000000000000000000000000000000000000000\n      dup2\n      mstore\n      0x04\n      add\n      tag_107\n      swap1\n      tag_108\n      jump\t// in\n    tag_107:\n      mload(0x40)\n      dup1\n      swap2\n      sub\n      swap1\n      revert\n    tag_106:\n        /* \"contracts/Fvkry.sol\":3344:3365  uint256 _tokenBalance */\n      0x00\n        /* \"contracts/Fvkry.sol\":3368:3374  _token */\n      dup6\n        /* \"contracts/Fvkry.sol\":3368:3384  _token.balanceOf */\n      0xffffffffffffffffffffffffffffffffffffffff\n      and\n      0x70a08231\n        /* \"contracts/Fvkry.sol\":3385:3395  msg.sender */\n      caller\n        /* \"contracts/Fvkry.sol\":3368:3396  _token.balanceOf(msg.sender) */\n      mload(0x40)\n      dup3\n      0xffffffff\n      and\n      0xe0\n      shl\n      dup2\n      mstore\n      0x04\n      add\n      tag_109\n      swap2\n      swap1\n      tag_66\n      jump\t// in\n    tag_109:\n      0x20\n      mload(0x40)\n      dup1\n      dup4\n      sub\n      dup2\n      dup7\n      gas\n      staticcall\n      iszero\n      dup1\n      iszero\n      tag_111\n      jumpi\n      returndatasize\n      0x00\n      dup1\n      returndatacopy\n      revert(0x00, returndatasize)\n    tag_111:\n      pop\n      pop\n      pop\n      pop\n      mload(0x40)\n      returndatasize\n      not(0x1f)\n      0x1f\n      dup3\n      add\n      and\n      dup3\n      add\n      dup1\n      0x40\n      mstore\n      pop\n      dup2\n      add\n      swap1\n      tag_112\n      swap2\n      swap1\n      tag_113\n      jump\t// in\n    tag_112:\n        /* \"contracts/Fvkry.sol\":3344:3396  uint256 _tokenBalance = _token.balanceOf(msg.sender) */\n      swap1\n      pop\n        /* \"contracts/Fvkry.sol\":3427:3440  _tokenBalance */\n      dup1\n        /* \"contracts/Fvkry.sol\":3416:3423  _amount */\n      dup6\n        /* \"contracts/Fvkry.sol\":3416:3440  _amount <= _tokenBalance */\n      gt\n      iszero\n        /* \"contracts/Fvkry.sol\":3407:3470  require (_amount <= _tokenBalance, \"Not enough tokens to lock\") */\n      tag_114\n      jumpi\n      mload(0x40)\n      0x08c379a000000000000000000000000000000000000000000000000000000000\n      dup2\n      mstore\n      0x04\n      add\n      tag_115\n      swap1\n      tag_116\n      jump\t// in\n    tag_115:\n      mload(0x40)\n      dup1\n      swap2\n      sub\n      swap1\n      revert\n    tag_114:\n        /* \"contracts/Fvkry.sol\":3533:3592  _token.safeTransferFrom(msg.sender, address(this), _amount) */\n      tag_117\n        /* \"contracts/Fvkry.sol\":3557:3567  msg.sender */\n      caller\n        /* \"contracts/Fvkry.sol\":3577:3581  this */\n      address\n        /* \"contracts/Fvkry.sol\":3584:3591  _amount */\n      dup8\n        /* \"contracts/Fvkry.sol\":3533:3539  _token */\n      dup10\n        /* \"contracts/Fvkry.sol\":3533:3556  _token.safeTransferFrom */\n      0xffffffffffffffffffffffffffffffffffffffff\n      and\n      tag_118\n      swap1\n        /* \"contracts/Fvkry.sol\":3533:3592  _token.safeTransferFrom(msg.sender, address(this), _amount) */\n      swap4\n      swap3\n      swap2\n      swap1\n      0xffffffff\n      and\n      jump\t// in\n    tag_117:\n        /* \"contracts/Fvkry.sol\":3647:3663  userLockedAssets */\n      0x02\n        /* \"contracts/Fvkry.sol\":3647:3675  userLockedAssets[msg.sender] */\n      0x00\n        /* \"contracts/Fvkry.sol\":3664:3674  msg.sender */\n      caller\n        /* \"contracts/Fvkry.sol\":3647:3675  userLockedAssets[msg.sender] */\n      0xffffffffffffffffffffffffffffffffffffffff\n      and\n      0xffffffffffffffffffffffffffffffffffffffff\n      and\n      dup2\n      mstore\n      0x20\n      add\n      swap1\n      dup2\n      mstore\n      0x20\n      add\n      0x00\n      keccak256\n        /* \"contracts/Fvkry.sol\":3647:3683  userLockedAssets[msg.sender][_vault] */\n      0x00\n        /* \"contracts/Fvkry.sol\":3676:3682  _vault */\n      dup6\n        /* \"contracts/Fvkry.sol\":3647:3683  userLockedAssets[msg.sender][_vault] */\n      0xff\n      and\n      0xff\n      and\n      dup2\n      mstore\n      0x20\n      add\n      swap1\n      dup2\n      mstore\n      0x20\n      add\n      0x00\n      keccak256\n        /* \"contracts/Fvkry.sol\":3689:3964  Lock({... */\n      mload(0x40)\n      dup1\n      0xe0\n      add\n      0x40\n      mstore\n      dup1\n        /* \"contracts/Fvkry.sol\":3724:3730  _token */\n      dup9\n        /* \"contracts/Fvkry.sol\":3689:3964  Lock({... */\n      0xffffffffffffffffffffffffffffffffffffffff\n      and\n      dup2\n      mstore\n      0x20\n      add\n        /* \"contracts/Fvkry.sol\":3755:3762  _amount */\n      dup8\n        /* \"contracts/Fvkry.sol\":3689:3964  Lock({... */\n      dup2\n      mstore\n      0x20\n      add\n        /* \"contracts/Fvkry.sol\":3810:3821  _lockperiod */\n      dup6\n        /* \"contracts/Fvkry.sol\":3792:3807  block.timestamp */\n      timestamp\n        /* \"contracts/Fvkry.sol\":3792:3821  block.timestamp + _lockperiod */\n      tag_119\n      swap2\n      swap1\n      tag_120\n      jump\t// in\n    tag_119:\n        /* \"contracts/Fvkry.sol\":3689:3964  Lock({... */\n      dup2\n      mstore\n      0x20\n      add\n        /* \"contracts/Fvkry.sol\":3843:3849  _title */\n      dup5\n        /* \"contracts/Fvkry.sol\":3689:3964  Lock({... */\n      dup2\n      mstore\n      0x20\n      add\n        /* \"contracts/Fvkry.sol\":3879:3884  false */\n      0x00\n        /* \"contracts/Fvkry.sol\":3689:3964  Lock({... */\n      iszero\n      iszero\n      dup2\n      mstore\n      0x20\n      add\n        /* \"contracts/Fvkry.sol\":3912:3917  false */\n      0x00\n        /* \"contracts/Fvkry.sol\":3689:3964  Lock({... */\n      iszero\n      iszero\n      dup2\n      mstore\n      0x20\n      add\n        /* \"contracts/Fvkry.sol\":3947:3952  false */\n      0x00\n        /* \"contracts/Fvkry.sol\":3689:3964  Lock({... */\n      iszero\n      iszero\n      dup2\n      mstore\n      pop\n        /* \"contracts/Fvkry.sol\":3647:3965  userLockedAssets[msg.sender][_vault].push(Lock({... */\n      swap1\n      dup1\n      0x01\n      dup2\n      sload\n      add\n      dup1\n      dup3\n      sstore\n      dup1\n      swap2\n      pop\n      pop\n      0x01\n      swap1\n      sub\n      swap1\n      0x00\n      mstore\n      keccak256(0x00, 0x20)\n      swap1\n      0x05\n      mul\n      add\n      0x00\n      swap1\n      swap2\n      swap1\n      swap2\n      swap1\n      swap2\n      pop\n      0x00\n      dup3\n      add\n      mload\n      dup2\n      0x00\n      add\n      exp(0x0100, 0x00)\n      dup2\n      sload\n      dup2\n      0xffffffffffffffffffffffffffffffffffffffff\n      mul\n      not\n      and\n      swap1\n      dup4\n      0xffffffffffffffffffffffffffffffffffffffff\n      and\n      mul\n      or\n      swap1\n      sstore\n      pop\n      0x20\n      dup3\n      add\n      mload\n      dup2\n      0x01\n      add\n      sstore\n      0x40\n      dup3\n      add\n      mload\n      dup2\n      0x02\n      add\n      sstore\n      0x60\n      dup3\n      add\n      mload\n      dup2\n      0x03\n      add\n      swap1\n      dup2\n      tag_122\n      swap2\n      swap1\n      tag_123\n      jump\t// in\n    tag_122:\n      pop\n      0x80\n      dup3\n      add\n      mload\n      dup2\n      0x04\n      add\n      exp(0x0100, 0x00)\n      dup2\n      sload\n      dup2\n      0xff\n      mul\n      not\n      and\n      swap1\n      dup4\n      iszero\n      iszero\n      mul\n      or\n      swap1\n      sstore\n      pop\n      0xa0\n      dup3\n      add\n      mload\n      dup2\n      0x04\n      add\n      exp(0x0100, 0x01)\n      dup2\n      sload\n      dup2\n      0xff\n      mul\n      not\n      and\n      swap1\n      dup4\n      iszero\n      iszero\n      mul\n      or\n      swap1\n      sstore\n      pop\n      0xc0\n      dup3\n      add\n      mload\n      dup2\n      0x04\n      add\n      exp(0x0100, 0x02)\n      dup2\n      sload\n      dup2\n      0xff\n      mul\n      not\n      and\n      swap1\n      dup4\n      iszero\n      iszero\n      mul\n      or\n      swap1\n      sstore\n      pop\n      pop\n      pop\n        /* \"contracts/Fvkry.sol\":4008:4070  recordTransac(address(_token), _vault, _amount, _title, false) */\n      tag_124\n        /* \"contracts/Fvkry.sol\":4030:4036  _token */\n      dup7\n        /* \"contracts/Fvkry.sol\":4039:4045  _vault */\n      dup6\n        /* \"contracts/Fvkry.sol\":4047:4054  _amount */\n      dup8\n        /* \"contracts/Fvkry.sol\":4056:4062  _title */\n      dup6\n        /* \"contracts/Fvkry.sol\":4064:4069  false */\n      0x00\n        /* \"contracts/Fvkry.sol\":4008:4021  recordTransac */\n      tag_125\n        /* \"contracts/Fvkry.sol\":4008:4070  recordTransac(address(_token), _vault, _amount, _title, false) */\n      jump\t// in\n    tag_124:\n        /* \"contracts/Fvkry.sol\":4108:4114  _token */\n      dup6\n        /* \"contracts/Fvkry.sol\":4088:4189  AssetLocked(address(_token), _amount, _title, _vault, block.timestamp + _lockperiod, block.timestamp) */\n      0xffffffffffffffffffffffffffffffffffffffff\n      and\n      0xed26bd61b6bf2f43d7471454e53e77ffdc96beefa2f198977936f6d02d34563d\n        /* \"contracts/Fvkry.sol\":4117:4124  _amount */\n      dup7\n        /* \"contracts/Fvkry.sol\":4126:4132  _title */\n      dup5\n        /* \"contracts/Fvkry.sol\":4134:4140  _vault */\n      dup8\n        /* \"contracts/Fvkry.sol\":4160:4171  _lockperiod */\n      dup8\n        /* \"contracts/Fvkry.sol\":4142:4157  block.timestamp */\n      timestamp\n        /* \"contracts/Fvkry.sol\":4142:4171  block.timestamp + _lockperiod */\n      tag_126\n      swap2\n      swap1\n      tag_120\n      jump\t// in\n    tag_126:\n        /* \"contracts/Fvkry.sol\":4173:4188  block.timestamp */\n      timestamp\n        /* \"contracts/Fvkry.sol\":4088:4189  AssetLocked(address(_token), _amount, _title, _vault, block.timestamp + _lockperiod, block.timestamp) */\n      mload(0x40)\n      tag_127\n      swap6\n      swap5\n      swap4\n      swap3\n      swap2\n      swap1\n      tag_128\n      jump\t// in\n    tag_127:\n      mload(0x40)\n      dup1\n      swap2\n      sub\n      swap1\n      log2\n        /* \"contracts/Fvkry.sol\":3091:4197  {... */\n      pop\n        /* \"@openzeppelin/contracts/utils/ReentrancyGuard.sol\":2542:2562  _nonReentrantAfter() */\n      tag_129\n        /* \"@openzeppelin/contracts/utils/ReentrancyGuard.sol\":2542:2560  _nonReentrantAfter */\n      tag_130\n        /* \"@openzeppelin/contracts/utils/ReentrancyGuard.sol\":2542:2562  _nonReentrantAfter() */\n      jump\t// in\n    tag_129:\n        /* \"contracts/Fvkry.sol\":2960:4197  function lockToken (IERC20 _token, uint256 _amount, uint8 _vault, uint256 _lockperiod, string memory _title) external nonReentrant {... */\n      pop\n      pop\n      pop\n      pop\n      pop\n      jump\t// out\n        /* \"contracts/Fvkry.sol\":1475:2340  function lockETH(uint8 _vault, uint256 _lockperiod, string memory _title) external payable nonReentrant {... */\n    tag_28:\n        /* \"@openzeppelin/contracts/utils/ReentrancyGuard.sol\":2500:2521  _nonReentrantBefore() */\n      tag_132\n        /* \"@openzeppelin/contracts/utils/ReentrancyGuard.sol\":2500:2519  _nonReentrantBefore */\n      tag_98\n        /* \"@openzeppelin/contracts/utils/ReentrancyGuard.sol\":2500:2521  _nonReentrantBefore() */\n      jump\t// in\n    tag_132:\n        /* \"contracts/Fvkry.sol\":1610:1611  0 */\n      0x00\n        /* \"contracts/Fvkry.sol\":1598:1607  msg.value */\n      callvalue\n        /* \"contracts/Fvkry.sol\":1598:1611  msg.value > 0 */\n      gt\n        /* \"contracts/Fvkry.sol\":1590:1655  require(msg.value > 0, \"ETH to lock must a value greater than 0\") */\n      tag_134\n      jumpi\n      mload(0x40)\n      0x08c379a000000000000000000000000000000000000000000000000000000000\n      dup2\n      mstore\n      0x04\n      add\n      tag_135\n      swap1\n      tag_136\n      jump\t// in\n    tag_135:\n      mload(0x40)\n      dup1\n      swap2\n      sub\n      swap1\n      revert\n    tag_134:\n        /* \"contracts/Fvkry.sol\":1689:1690  0 */\n      0x00\n        /* \"contracts/Fvkry.sol\":1674:1685  _lockperiod */\n      dup3\n        /* \"contracts/Fvkry.sol\":1674:1690  _lockperiod >= 0 */\n      lt\n      iszero\n        /* \"contracts/Fvkry.sol\":1666:1735  require(_lockperiod >= 0, \"The lockperiod must be greater then zero\") */\n      tag_137\n      jumpi\n      mload(0x40)\n      0x08c379a000000000000000000000000000000000000000000000000000000000\n      dup2\n      mstore\n      0x04\n      add\n      tag_138\n      swap1\n      tag_139\n      jump\t// in\n    tag_138:\n      mload(0x40)\n      dup1\n      swap2\n      sub\n      swap1\n      revert\n    tag_137:\n        /* \"contracts/Fvkry.sol\":1786:1802  userLockedAssets */\n      0x02\n        /* \"contracts/Fvkry.sol\":1786:1814  userLockedAssets[msg.sender] */\n      0x00\n        /* \"contracts/Fvkry.sol\":1803:1813  msg.sender */\n      caller\n        /* \"contracts/Fvkry.sol\":1786:1814  userLockedAssets[msg.sender] */\n      0xffffffffffffffffffffffffffffffffffffffff\n      and\n      0xffffffffffffffffffffffffffffffffffffffff\n      and\n      dup2\n      mstore\n      0x20\n      add\n      swap1\n      dup2\n      mstore\n      0x20\n      add\n      0x00\n      keccak256\n        /* \"contracts/Fvkry.sol\":1786:1822  userLockedAssets[msg.sender][_vault] */\n      0x00\n        /* \"contracts/Fvkry.sol\":1815:1821  _vault */\n      dup5\n        /* \"contracts/Fvkry.sol\":1786:1822  userLockedAssets[msg.sender][_vault] */\n      0xff\n      and\n      0xff\n      and\n      dup2\n      mstore\n      0x20\n      add\n      swap1\n      dup2\n      mstore\n      0x20\n      add\n      0x00\n      keccak256\n        /* \"contracts/Fvkry.sol\":1828:2100  Lock({... */\n      mload(0x40)\n      dup1\n      0xe0\n      add\n      0x40\n      mstore\n      dup1\n        /* \"contracts/Fvkry.sol\":1863:1864  0 */\n      0x00\n        /* \"contracts/Fvkry.sol\":1828:2100  Lock({... */\n      0xffffffffffffffffffffffffffffffffffffffff\n      and\n      dup2\n      mstore\n      0x20\n      add\n        /* \"contracts/Fvkry.sol\":1889:1898  msg.value */\n      callvalue\n        /* \"contracts/Fvkry.sol\":1828:2100  Lock({... */\n      dup2\n      mstore\n      0x20\n      add\n        /* \"contracts/Fvkry.sol\":1946:1957  _lockperiod */\n      dup5\n        /* \"contracts/Fvkry.sol\":1928:1943  block.timestamp */\n      timestamp\n        /* \"contracts/Fvkry.sol\":1928:1957  block.timestamp + _lockperiod */\n      tag_140\n      swap2\n      swap1\n      tag_120\n      jump\t// in\n    tag_140:\n        /* \"contracts/Fvkry.sol\":1828:2100  Lock({... */\n      dup2\n      mstore\n      0x20\n      add\n        /* \"contracts/Fvkry.sol\":1979:1985  _title */\n      dup4\n        /* \"contracts/Fvkry.sol\":1828:2100  Lock({... */\n      dup2\n      mstore\n      0x20\n      add\n        /* \"contracts/Fvkry.sol\":2015:2020  false */\n      0x00\n        /* \"contracts/Fvkry.sol\":1828:2100  Lock({... */\n      iszero\n      iszero\n      dup2\n      mstore\n      0x20\n      add\n        /* \"contracts/Fvkry.sol\":2048:2052  true */\n      0x01\n        /* \"contracts/Fvkry.sol\":1828:2100  Lock({... */\n      iszero\n      iszero\n      dup2\n      mstore\n      0x20\n      add\n        /* \"contracts/Fvkry.sol\":2082:2087  false */\n      0x00\n        /* \"contracts/Fvkry.sol\":1828:2100  Lock({... */\n      iszero\n      iszero\n      dup2\n      mstore\n      pop\n        /* \"contracts/Fvkry.sol\":1786:2101  userLockedAssets[msg.sender][_vault].push(Lock({... */\n      swap1\n      dup1\n      0x01\n      dup2\n      sload\n      add\n      dup1\n      dup3\n      sstore\n      dup1\n      swap2\n      pop\n      pop\n      0x01\n      swap1\n      sub\n      swap1\n      0x00\n      mstore\n      keccak256(0x00, 0x20)\n      swap1\n      0x05\n      mul\n      add\n      0x00\n      swap1\n      swap2\n      swap1\n      swap2\n      swap1\n      swap2\n      pop\n      0x00\n      dup3\n      add\n      mload\n      dup2\n      0x00\n      add\n      exp(0x0100, 0x00)\n      dup2\n      sload\n      dup2\n      0xffffffffffffffffffffffffffffffffffffffff\n      mul\n      not\n      and\n      swap1\n      dup4\n      0xffffffffffffffffffffffffffffffffffffffff\n      and\n      mul\n      or\n      swap1\n      sstore\n      pop\n      0x20\n      dup3\n      add\n      mload\n      dup2\n      0x01\n      add\n      sstore\n      0x40\n      dup3\n      add\n      mload\n      dup2\n      0x02\n      add\n      sstore\n      0x60\n      dup3\n      add\n      mload\n      dup2\n      0x03\n      add\n      swap1\n      dup2\n      tag_142\n      swap2\n      swap1\n      tag_123\n      jump\t// in\n    tag_142:\n      pop\n      0x80\n      dup3\n      add\n      mload\n      dup2\n      0x04\n      add\n      exp(0x0100, 0x00)\n      dup2\n      sload\n      dup2\n      0xff\n      mul\n      not\n      and\n      swap1\n      dup4\n      iszero\n      iszero\n      mul\n      or\n      swap1\n      sstore\n      pop\n      0xa0\n      dup3\n      add\n      mload\n      dup2\n      0x04\n      add\n      exp(0x0100, 0x01)\n      dup2\n      sload\n      dup2\n      0xff\n      mul\n      not\n      and\n      swap1\n      dup4\n      iszero\n      iszero\n      mul\n      or\n      swap1\n      sstore\n      pop\n      0xc0\n      dup3\n      add\n      mload\n      dup2\n      0x04\n      add\n      exp(0x0100, 0x02)\n      dup2\n      sload\n      dup2\n      0xff\n      mul\n      not\n      and\n      swap1\n      dup4\n      iszero\n      iszero\n      mul\n      or\n      swap1\n      sstore\n      pop\n      pop\n      pop\n        /* \"contracts/Fvkry.sol\":2149:2208  recordTransac(address(0), _vault, msg.value, _title, false) */\n      tag_143\n        /* \"contracts/Fvkry.sol\":2171:2172  0 */\n      0x00\n        /* \"contracts/Fvkry.sol\":2175:2181  _vault */\n      dup5\n        /* \"contracts/Fvkry.sol\":2183:2192  msg.value */\n      callvalue\n        /* \"contracts/Fvkry.sol\":2194:2200  _title */\n      dup5\n        /* \"contracts/Fvkry.sol\":2202:2207  false */\n      0x00\n        /* \"contracts/Fvkry.sol\":2149:2162  recordTransac */\n      tag_125\n        /* \"contracts/Fvkry.sol\":2149:2208  recordTransac(address(0), _vault, msg.value, _title, false) */\n      jump\t// in\n    tag_143:\n        /* \"contracts/Fvkry.sol\":2254:2255  0 */\n      0x00\n        /* \"contracts/Fvkry.sol\":2234:2332  AssetLocked(address(0), msg.value, _title, _vault, block.timestamp + _lockperiod, block.timestamp) */\n      0xffffffffffffffffffffffffffffffffffffffff\n      and\n      0xed26bd61b6bf2f43d7471454e53e77ffdc96beefa2f198977936f6d02d34563d\n        /* \"contracts/Fvkry.sol\":2258:2267  msg.value */\n      callvalue\n        /* \"contracts/Fvkry.sol\":2269:2275  _title */\n      dup4\n        /* \"contracts/Fvkry.sol\":2277:2283  _vault */\n      dup7\n        /* \"contracts/Fvkry.sol\":2303:2314  _lockperiod */\n      dup7\n        /* \"contracts/Fvkry.sol\":2285:2300  block.timestamp */\n      timestamp\n        /* \"contracts/Fvkry.sol\":2285:2314  block.timestamp + _lockperiod */\n      tag_144\n      swap2\n      swap1\n      tag_120\n      jump\t// in\n    tag_144:\n        /* \"contracts/Fvkry.sol\":2316:2331  block.timestamp */\n      timestamp\n        /* \"contracts/Fvkry.sol\":2234:2332  AssetLocked(address(0), msg.value, _title, _vault, block.timestamp + _lockperiod, block.timestamp) */\n      mload(0x40)\n      tag_145\n      swap6\n      swap5\n      swap4\n      swap3\n      swap2\n      swap1\n      tag_128\n      jump\t// in\n    tag_145:\n      mload(0x40)\n      dup1\n      swap2\n      sub\n      swap1\n      log2\n        /* \"@openzeppelin/contracts/utils/ReentrancyGuard.sol\":2542:2562  _nonReentrantAfter() */\n      tag_146\n        /* \"@openzeppelin/contracts/utils/ReentrancyGuard.sol\":2542:2560  _nonReentrantAfter */\n      tag_130\n        /* \"@openzeppelin/contracts/utils/ReentrancyGuard.sol\":2542:2562  _nonReentrantAfter() */\n      jump\t// in\n    tag_146:\n        /* \"contracts/Fvkry.sol\":1475:2340  function lockETH(uint8 _vault, uint256 _lockperiod, string memory _title) external payable nonReentrant {... */\n      pop\n      pop\n      pop\n      jump\t// out\n        /* \"contracts/Fvkry.sol\":6993:7128  function getContractTokenBalance(IERC20 token) external view returns (uint256) {... */\n    tag_33:\n        /* \"contracts/Fvkry.sol\":7063:7070  uint256 */\n      0x00\n        /* \"contracts/Fvkry.sol\":7090:7095  token */\n      dup2\n        /* \"contracts/Fvkry.sol\":7090:7105  token.balanceOf */\n      0xffffffffffffffffffffffffffffffffffffffff\n      and\n      0x70a08231\n        /* \"contracts/Fvkry.sol\":7114:7118  this */\n      address\n        /* \"contracts/Fvkry.sol\":7090:7120  token.balanceOf(address(this)) */\n      mload(0x40)\n      dup3\n      0xffffffff\n      and\n      0xe0\n      shl\n      dup2\n      mstore\n      0x04\n      add\n      tag_148\n      swap2\n      swap1\n      tag_66\n      jump\t// in\n    tag_148:\n      0x20\n      mload(0x40)\n      dup1\n      dup4\n      sub\n      dup2\n      dup7\n      gas\n      staticcall\n      iszero\n      dup1\n      iszero\n      tag_150\n      jumpi\n      returndatasize\n      0x00\n      dup1\n      returndatacopy\n      revert(0x00, returndatasize)\n    tag_150:\n      pop\n      pop\n      pop\n      pop\n      mload(0x40)\n      returndatasize\n      not(0x1f)\n      0x1f\n      dup3\n      add\n      and\n      dup3\n      add\n      dup1\n      0x40\n      mstore\n      pop\n      dup2\n      add\n      swap1\n      tag_151\n      swap2\n      swap1\n      tag_113\n      jump\t// in\n    tag_151:\n        /* \"contracts/Fvkry.sol\":7083:7120  return token.balanceOf(address(this)) */\n      swap1\n      pop\n        /* \"contracts/Fvkry.sol\":6993:7128  function getContractTokenBalance(IERC20 token) external view returns (uint256) {... */\n      swap2\n      swap1\n      pop\n      jump\t// out\n        /* \"contracts/Fvkry.sol\":4205:4986  function addToLockedTokens(IERC20 _token, uint32 _assetID, uint256 _amount, uint8 _vault) external  nonReentrant {... */\n    tag_40:\n        /* \"@openzeppelin/contracts/utils/ReentrancyGuard.sol\":2500:2521  _nonReentrantBefore() */\n      tag_153\n        /* \"@openzeppelin/contracts/utils/ReentrancyGuard.sol\":2500:2519  _nonReentrantBefore */\n      tag_98\n        /* \"@openzeppelin/contracts/utils/ReentrancyGuard.sol\":2500:2521  _nonReentrantBefore() */\n      jump\t// in\n    tag_153:\n        /* \"contracts/Fvkry.sol\":4364:4365  0 */\n      0x00\n        /* \"contracts/Fvkry.sol\":4337:4366  address(_token) != address(0) */\n      0xffffffffffffffffffffffffffffffffffffffff\n      and\n        /* \"contracts/Fvkry.sol\":4345:4351  _token */\n      dup5\n        /* \"contracts/Fvkry.sol\":4337:4366  address(_token) != address(0) */\n      0xffffffffffffffffffffffffffffffffffffffff\n      and\n      sub\n        /* \"contracts/Fvkry.sol\":4329:4405  require(address(_token) != address(0), \"Must provide a valid token address\") */\n      tag_155\n      jumpi\n      mload(0x40)\n      0x08c379a000000000000000000000000000000000000000000000000000000000\n      dup2\n      mstore\n      0x04\n      add\n      tag_156\n      swap1\n      tag_102\n      jump\t// in\n    tag_156:\n      mload(0x40)\n      dup1\n      swap2\n      sub\n      swap1\n      revert\n    tag_155:\n        /* \"contracts/Fvkry.sol\":4434:4435  0 */\n      0x00\n        /* \"contracts/Fvkry.sol\":4424:4431  _amount */\n      dup3\n        /* \"contracts/Fvkry.sol\":4424:4435  _amount > 0 */\n      gt\n        /* \"contracts/Fvkry.sol\":4416:4478  require(_amount > 0, \"Token amount must be greater then zero\") */\n      tag_157\n      jumpi\n      mload(0x40)\n      0x08c379a000000000000000000000000000000000000000000000000000000000\n      dup2\n      mstore\n      0x04\n      add\n      tag_158\n      swap1\n      tag_105\n      jump\t// in\n    tag_158:\n      mload(0x40)\n      dup1\n      swap2\n      sub\n      swap1\n      revert\n    tag_157:\n        /* \"contracts/Fvkry.sol\":4491:4508  Lock storage lock */\n      0x00\n        /* \"contracts/Fvkry.sol\":4511:4527  userLockedAssets */\n      0x02\n        /* \"contracts/Fvkry.sol\":4511:4539  userLockedAssets[msg.sender] */\n      0x00\n        /* \"contracts/Fvkry.sol\":4528:4538  msg.sender */\n      caller\n        /* \"contracts/Fvkry.sol\":4511:4539  userLockedAssets[msg.sender] */\n      0xffffffffffffffffffffffffffffffffffffffff\n      and\n      0xffffffffffffffffffffffffffffffffffffffff\n      and\n      dup2\n      mstore\n      0x20\n      add\n      swap1\n      dup2\n      mstore\n      0x20\n      add\n      0x00\n      keccak256\n        /* \"contracts/Fvkry.sol\":4511:4547  userLockedAssets[msg.sender][_vault] */\n      0x00\n        /* \"contracts/Fvkry.sol\":4540:4546  _vault */\n      dup4\n        /* \"contracts/Fvkry.sol\":4511:4547  userLockedAssets[msg.sender][_vault] */\n      0xff\n      and\n      0xff\n      and\n      dup2\n      mstore\n      0x20\n      add\n      swap1\n      dup2\n      mstore\n      0x20\n      add\n      0x00\n      keccak256\n        /* \"contracts/Fvkry.sol\":4548:4556  _assetID */\n      dup5\n        /* \"contracts/Fvkry.sol\":4511:4557  userLockedAssets[msg.sender][_vault][_assetID] */\n      0xffffffff\n      and\n      dup2\n      sload\n      dup2\n      lt\n      tag_159\n      jumpi\n      tag_160\n      tag_161\n      jump\t// in\n    tag_160:\n    tag_159:\n      swap1\n      0x00\n      mstore\n      keccak256(0x00, 0x20)\n      swap1\n      0x05\n      mul\n      add\n        /* \"contracts/Fvkry.sol\":4491:4557  Lock storage lock = userLockedAssets[msg.sender][_vault][_assetID] */\n      swap1\n      pop\n        /* \"contracts/Fvkry.sol\":4594:4653  _token.safeTransferFrom(msg.sender, address(this), _amount) */\n      tag_163\n        /* \"contracts/Fvkry.sol\":4618:4628  msg.sender */\n      caller\n        /* \"contracts/Fvkry.sol\":4638:4642  this */\n      address\n        /* \"contracts/Fvkry.sol\":4645:4652  _amount */\n      dup6\n        /* \"contracts/Fvkry.sol\":4594:4600  _token */\n      dup9\n        /* \"contracts/Fvkry.sol\":4594:4617  _token.safeTransferFrom */\n      0xffffffffffffffffffffffffffffffffffffffff\n      and\n      tag_118\n      swap1\n        /* \"contracts/Fvkry.sol\":4594:4653  _token.safeTransferFrom(msg.sender, address(this), _amount) */\n      swap4\n      swap3\n      swap2\n      swap1\n      0xffffffff\n      and\n      jump\t// in\n    tag_163:\n        /* \"contracts/Fvkry.sol\":4763:4770  _amount */\n      dup3\n        /* \"contracts/Fvkry.sol\":4706:4722  userLockedAssets */\n      0x02\n        /* \"contracts/Fvkry.sol\":4706:4734  userLockedAssets[msg.sender] */\n      0x00\n        /* \"contracts/Fvkry.sol\":4723:4733  msg.sender */\n      caller\n        /* \"contracts/Fvkry.sol\":4706:4734  userLockedAssets[msg.sender] */\n      0xffffffffffffffffffffffffffffffffffffffff\n      and\n      0xffffffffffffffffffffffffffffffffffffffff\n      and\n      dup2\n      mstore\n      0x20\n      add\n      swap1\n      dup2\n      mstore\n      0x20\n      add\n      0x00\n      keccak256\n        /* \"contracts/Fvkry.sol\":4706:4742  userLockedAssets[msg.sender][_vault] */\n      0x00\n        /* \"contracts/Fvkry.sol\":4735:4741  _vault */\n      dup5\n        /* \"contracts/Fvkry.sol\":4706:4742  userLockedAssets[msg.sender][_vault] */\n      0xff\n      and\n      0xff\n      and\n      dup2\n      mstore\n      0x20\n      add\n      swap1\n      dup2\n      mstore\n      0x20\n      add\n      0x00\n      keccak256\n        /* \"contracts/Fvkry.sol\":4743:4751  _assetID */\n      dup6\n        /* \"contracts/Fvkry.sol\":4706:4752  userLockedAssets[msg.sender][_vault][_assetID] */\n      0xffffffff\n      and\n      dup2\n      sload\n      dup2\n      lt\n      tag_164\n      jumpi\n      tag_165\n      tag_161\n      jump\t// in\n    tag_165:\n    tag_164:\n      swap1\n      0x00\n      mstore\n      keccak256(0x00, 0x20)\n      swap1\n      0x05\n      mul\n      add\n        /* \"contracts/Fvkry.sol\":4706:4759  userLockedAssets[msg.sender][_vault][_assetID].amount */\n      0x01\n      add\n      0x00\n        /* \"contracts/Fvkry.sol\":4706:4770  userLockedAssets[msg.sender][_vault][_assetID].amount += _amount */\n      dup3\n      dup3\n      sload\n      tag_167\n      swap2\n      swap1\n      tag_120\n      jump\t// in\n    tag_167:\n      swap3\n      pop\n      pop\n      dup2\n      swap1\n      sstore\n      pop\n        /* \"contracts/Fvkry.sol\":4813:4879  recordTransac(address(_token), _vault, _amount, lock.title, false) */\n      tag_168\n        /* \"contracts/Fvkry.sol\":4835:4841  _token */\n      dup6\n        /* \"contracts/Fvkry.sol\":4844:4850  _vault */\n      dup4\n        /* \"contracts/Fvkry.sol\":4852:4859  _amount */\n      dup6\n        /* \"contracts/Fvkry.sol\":4861:4865  lock */\n      dup5\n        /* \"contracts/Fvkry.sol\":4861:4871  lock.title */\n      0x03\n      add\n        /* \"contracts/Fvkry.sol\":4813:4879  recordTransac(address(_token), _vault, _amount, lock.title, false) */\n      dup1\n      sload\n      tag_169\n      swap1\n      tag_170\n      jump\t// in\n    tag_169:\n      dup1\n      0x1f\n      add\n      0x20\n      dup1\n      swap2\n      div\n      mul\n      0x20\n      add\n      mload(0x40)\n      swap1\n      dup2\n      add\n      0x40\n      mstore\n      dup1\n      swap3\n      swap2\n      swap1\n      dup2\n      dup2\n      mstore\n      0x20\n      add\n      dup3\n      dup1\n      sload\n      tag_171\n      swap1\n      tag_170\n      jump\t// in\n    tag_171:\n      dup1\n      iszero\n      tag_172\n      jumpi\n      dup1\n      0x1f\n      lt\n      tag_173\n      jumpi\n      0x0100\n      dup1\n      dup4\n      sload\n      div\n      mul\n      dup4\n      mstore\n      swap2\n      0x20\n      add\n      swap2\n      jump(tag_172)\n    tag_173:\n      dup3\n      add\n      swap2\n      swap1\n      0x00\n      mstore\n      keccak256(0x00, 0x20)\n      swap1\n    tag_174:\n      dup2\n      sload\n      dup2\n      mstore\n      swap1\n      0x01\n      add\n      swap1\n      0x20\n      add\n      dup1\n      dup4\n      gt\n      tag_174\n      jumpi\n      dup3\n      swap1\n      sub\n      0x1f\n      and\n      dup3\n      add\n      swap2\n    tag_172:\n      pop\n      pop\n      pop\n      pop\n      pop\n        /* \"contracts/Fvkry.sol\":4873:4878  false */\n      0x00\n        /* \"contracts/Fvkry.sol\":4813:4826  recordTransac */\n      tag_125\n        /* \"contracts/Fvkry.sol\":4813:4879  recordTransac(address(_token), _vault, _amount, lock.title, false) */\n      jump\t// in\n    tag_168:\n        /* \"contracts/Fvkry.sol\":4924:4930  _token */\n      dup5\n        /* \"contracts/Fvkry.sol\":4905:4978  AssetAdded(address(_token), _amount, lock.title, _vault, block.timestamp) */\n      0xffffffffffffffffffffffffffffffffffffffff\n      and\n      0x0b99ce8321b94ffaa5c5021540ec0668dcba948d044760a5ef298fa0513b1ef4\n        /* \"contracts/Fvkry.sol\":4933:4940  _amount */\n      dup5\n        /* \"contracts/Fvkry.sol\":4942:4946  lock */\n      dup4\n        /* \"contracts/Fvkry.sol\":4942:4952  lock.title */\n      0x03\n      add\n        /* \"contracts/Fvkry.sol\":4954:4960  _vault */\n      dup6\n        /* \"contracts/Fvkry.sol\":4962:4977  block.timestamp */\n      timestamp\n        /* \"contracts/Fvkry.sol\":4905:4978  AssetAdded(address(_token), _amount, lock.title, _vault, block.timestamp) */\n      mload(0x40)\n      tag_175\n      swap5\n      swap4\n      swap3\n      swap2\n      swap1\n      tag_176\n      jump\t// in\n    tag_175:\n      mload(0x40)\n      dup1\n      swap2\n      sub\n      swap1\n      log2\n        /* \"contracts/Fvkry.sol\":4318:4986  {... */\n      pop\n        /* \"@openzeppelin/contracts/utils/ReentrancyGuard.sol\":2542:2562  _nonReentrantAfter() */\n      tag_177\n        /* \"@openzeppelin/contracts/utils/ReentrancyGuard.sol\":2542:2560  _nonReentrantAfter */\n      tag_130\n        /* \"@openzeppelin/contracts/utils/ReentrancyGuard.sol\":2542:2562  _nonReentrantAfter() */\n      jump\t// in\n    tag_177:\n        /* \"contracts/Fvkry.sol\":4205:4986  function addToLockedTokens(IERC20 _token, uint32 _assetID, uint256 _amount, uint8 _vault) external  nonReentrant {... */\n      pop\n      pop\n      pop\n      pop\n      jump\t// out\n        /* \"contracts/Fvkry.sol\":7286:7420  function getUserLocks(uint8 _vault) public view returns (Lock[] memory) {... */\n    tag_45:\n        /* \"contracts/Fvkry.sol\":7343:7356  Lock[] memory */\n      0x60\n        /* \"contracts/Fvkry.sol\":7376:7392  userLockedAssets */\n      0x02\n        /* \"contracts/Fvkry.sol\":7376:7404  userLockedAssets[msg.sender] */\n      0x00\n        /* \"contracts/Fvkry.sol\":7393:7403  msg.sender */\n      caller\n        /* \"contracts/Fvkry.sol\":7376:7404  userLockedAssets[msg.sender] */\n      0xffffffffffffffffffffffffffffffffffffffff\n      and\n      0xffffffffffffffffffffffffffffffffffffffff\n      and\n      dup2\n      mstore\n      0x20\n      add\n      swap1\n      dup2\n      mstore\n      0x20\n      add\n      0x00\n      keccak256\n        /* \"contracts/Fvkry.sol\":7376:7412  userLockedAssets[msg.sender][_vault] */\n      0x00\n        /* \"contracts/Fvkry.sol\":7405:7411  _vault */\n      dup4\n        /* \"contracts/Fvkry.sol\":7376:7412  userLockedAssets[msg.sender][_vault] */\n      0xff\n      and\n      0xff\n      and\n      dup2\n      mstore\n      0x20\n      add\n      swap1\n      dup2\n      mstore\n      0x20\n      add\n      0x00\n      keccak256\n        /* \"contracts/Fvkry.sol\":7369:7412  return userLockedAssets[msg.sender][_vault] */\n      dup1\n      sload\n      dup1\n      0x20\n      mul\n      0x20\n      add\n      mload(0x40)\n      swap1\n      dup2\n      add\n      0x40\n      mstore\n      dup1\n      swap3\n      swap2\n      swap1\n      dup2\n      dup2\n      mstore\n      0x20\n      add\n      0x00\n      swap1\n    tag_179:\n      dup3\n      dup3\n      lt\n      iszero\n      tag_180\n      jumpi\n      dup4\n      dup3\n      swap1\n      0x00\n      mstore\n      keccak256(0x00, 0x20)\n      swap1\n      0x05\n      mul\n      add\n      mload(0x40)\n      dup1\n      0xe0\n      add\n      0x40\n      mstore\n      swap1\n      dup2\n      0x00\n      dup3\n      add\n      0x00\n      swap1\n      sload\n      swap1\n      0x0100\n      exp\n      swap1\n      div\n      0xffffffffffffffffffffffffffffffffffffffff\n      and\n      0xffffffffffffffffffffffffffffffffffffffff\n      and\n      0xffffffffffffffffffffffffffffffffffffffff\n      and\n      dup2\n      mstore\n      0x20\n      add\n      0x01\n      dup3\n      add\n      sload\n      dup2\n      mstore\n      0x20\n      add\n      0x02\n      dup3\n      add\n      sload\n      dup2\n      mstore\n      0x20\n      add\n      0x03\n      dup3\n      add\n      dup1\n      sload\n      tag_182\n      swap1\n      tag_170\n      jump\t// in\n    tag_182:\n      dup1\n      0x1f\n      add\n      0x20\n      dup1\n      swap2\n      div\n      mul\n      0x20\n      add\n      mload(0x40)\n      swap1\n      dup2\n      add\n      0x40\n      mstore\n      dup1\n      swap3\n      swap2\n      swap1\n      dup2\n      dup2\n      mstore\n      0x20\n      add\n      dup3\n      dup1\n      sload\n      tag_183\n      swap1\n      tag_170\n      jump\t// in\n    tag_183:\n      dup1\n      iszero\n      tag_184\n      jumpi\n      dup1\n      0x1f\n      lt\n      tag_185\n      jumpi\n      0x0100\n      dup1\n      dup4\n      sload\n      div\n      mul\n      dup4\n      mstore\n      swap2\n      0x20\n      add\n      swap2\n      jump(tag_184)\n    tag_185:\n      dup3\n      add\n      swap2\n      swap1\n      0x00\n      mstore\n      keccak256(0x00, 0x20)\n      swap1\n    tag_186:\n      dup2\n      sload\n      dup2\n      mstore\n      swap1\n      0x01\n      add\n      swap1\n      0x20\n      add\n      dup1\n      dup4\n      gt\n      tag_186\n      jumpi\n      dup3\n      swap1\n      sub\n      0x1f\n      and\n      dup3\n      add\n      swap2\n    tag_184:\n      pop\n      pop\n      pop\n      pop\n      pop\n      dup2\n      mstore\n      0x20\n      add\n      0x04\n      dup3\n      add\n      0x00\n      swap1\n      sload\n      swap1\n      0x0100\n      exp\n      swap1\n      div\n      0xff\n      and\n      iszero\n      iszero\n      iszero\n      iszero\n      dup2\n      mstore\n      0x20\n      add\n      0x04\n      dup3\n      add\n      0x01\n      swap1\n      sload\n      swap1\n      0x0100\n      exp\n      swap1\n      div\n      0xff\n      and\n      iszero\n      iszero\n      iszero\n      iszero\n      dup2\n      mstore\n      0x20\n      add\n      0x04\n      dup3\n      add\n      0x02\n      swap1\n      sload\n      swap1\n      0x0100\n      exp\n      swap1\n      div\n      0xff\n      and\n      iszero\n      iszero\n      iszero\n      iszero\n      dup2\n      mstore\n      pop\n      pop\n      dup2\n      mstore\n      0x20\n      add\n      swap1\n      0x01\n      add\n      swap1\n      jump(tag_179)\n    tag_180:\n      pop\n      pop\n      pop\n      pop\n      swap1\n      pop\n        /* \"contracts/Fvkry.sol\":7286:7420  function getUserLocks(uint8 _vault) public view returns (Lock[] memory) {... */\n      swap2\n      swap1\n      pop\n      jump\t// out\n        /* \"contracts/Fvkry.sol\":840:918  mapping  (address => mapping (uint8 => TransacHist[])) public userTransactions */\n    tag_52:\n      mstore(0x20, 0x03)\n      dup3\n      0x00\n      mstore\n      mstore(0x20, keccak256(0x00, 0x40))\n      dup2\n      0x00\n      mstore\n      keccak256(0x00, 0x40)\n      dup2\n      dup2\n      sload\n      dup2\n      lt\n      tag_187\n      jumpi\n      0x00\n      dup1\n      revert\n    tag_187:\n      swap1\n      0x00\n      mstore\n      keccak256(0x00, 0x20)\n      swap1\n      0x05\n      mul\n      add\n      0x00\n      swap3\n      pop\n      swap3\n      pop\n      pop\n      pop\n      dup1\n      0x00\n      add\n      0x00\n      swap1\n      sload\n      swap1\n      0x0100\n      exp\n      swap1\n      div\n      0xffffffffffffffffffffffffffffffffffffffff\n      and\n      swap1\n      dup1\n      0x01\n      add\n      sload\n      swap1\n      dup1\n      0x02\n      add\n      dup1\n      sload\n      tag_189\n      swap1\n      tag_170\n      jump\t// in\n    tag_189:\n      dup1\n      0x1f\n      add\n      0x20\n      dup1\n      swap2\n      div\n      mul\n      0x20\n      add\n      mload(0x40)\n      swap1\n      dup2\n      add\n      0x40\n      mstore\n      dup1\n      swap3\n      swap2\n      swap1\n      dup2\n      dup2\n      mstore\n      0x20\n      add\n      dup3\n      dup1\n      sload\n      tag_190\n      swap1\n      tag_170\n      jump\t// in\n    tag_190:\n      dup1\n      iszero\n      tag_191\n      jumpi\n      dup1\n      0x1f\n      lt\n      tag_192\n      jumpi\n      0x0100\n      dup1\n      dup4\n      sload\n      div\n      mul\n      dup4\n      mstore\n      swap2\n      0x20\n      add\n      swap2\n      jump(tag_191)\n    tag_192:\n      dup3\n      add\n      swap2\n      swap1\n      0x00\n      mstore\n      keccak256(0x00, 0x20)\n      swap1\n    tag_193:\n      dup2\n      sload\n      dup2\n      mstore\n      swap1\n      0x01\n      add\n      swap1\n      0x20\n      add\n      dup1\n      dup4\n      gt\n      tag_193\n      jumpi\n      dup3\n      swap1\n      sub\n      0x1f\n      and\n      dup3\n      add\n      swap2\n    tag_191:\n      pop\n      pop\n      pop\n      pop\n      pop\n      swap1\n      dup1\n      0x03\n      add\n      0x00\n      swap1\n      sload\n      swap1\n      0x0100\n      exp\n      swap1\n      div\n      0xff\n      and\n      swap1\n      dup1\n      0x04\n      add\n      sload\n      swap1\n      pop\n      dup6\n      jump\t// out\n        /* \"@openzeppelin/contracts/access/Ownable.sol\":2293:2394  function renounceOwnership() public virtual onlyOwner {... */\n    tag_57:\n        /* \"@openzeppelin/contracts/access/Ownable.sol\":1531:1544  _checkOwner() */\n      tag_195\n        /* \"@openzeppelin/contracts/access/Ownable.sol\":1531:1542  _checkOwner */\n      tag_196\n        /* \"@openzeppelin/contracts/access/Ownable.sol\":1531:1544  _checkOwner() */\n      jump\t// in\n    tag_195:\n        /* \"@openzeppelin/contracts/access/Ownable.sol\":2357:2387  _transferOwnership(address(0)) */\n      tag_198\n        /* \"@openzeppelin/contracts/access/Ownable.sol\":2384:2385  0 */\n      0x00\n        /* \"@openzeppelin/contracts/access/Ownable.sol\":2357:2375  _transferOwnership */\n      tag_199\n        /* \"@openzeppelin/contracts/access/Ownable.sol\":2357:2387  _transferOwnership(address(0)) */\n      jump\t// in\n    tag_198:\n        /* \"@openzeppelin/contracts/access/Ownable.sol\":2293:2394  function renounceOwnership() public virtual onlyOwner {... */\n      jump\t// out\n        /* \"contracts/Fvkry.sol\":7136:7248  function getContractETHBalance() external view returns (uint256) {... */\n    tag_60:\n        /* \"contracts/Fvkry.sol\":7192:7199  uint256 */\n      0x00\n        /* \"contracts/Fvkry.sol\":7219:7240  address(this).balance */\n      selfbalance\n        /* \"contracts/Fvkry.sol\":7212:7240  return address(this).balance */\n      swap1\n      pop\n        /* \"contracts/Fvkry.sol\":7136:7248  function getContractETHBalance() external view returns (uint256) {... */\n      swap1\n      jump\t// out\n        /* \"@openzeppelin/contracts/access/Ownable.sol\":1638:1723  function owner() public view virtual returns (address) {... */\n    tag_64:\n        /* \"@openzeppelin/contracts/access/Ownable.sol\":1684:1691  address */\n      0x00\n        /* \"@openzeppelin/contracts/access/Ownable.sol\":1710:1716  _owner */\n      dup1\n      0x00\n      swap1\n      sload\n      swap1\n      0x0100\n      exp\n      swap1\n      div\n      0xffffffffffffffffffffffffffffffffffffffff\n      and\n        /* \"@openzeppelin/contracts/access/Ownable.sol\":1703:1716  return _owner */\n      swap1\n      pop\n        /* \"@openzeppelin/contracts/access/Ownable.sol\":1638:1723  function owner() public view virtual returns (address) {... */\n      swap1\n      jump\t// out\n        /* \"contracts/Fvkry.sol\":7467:8057  function extendLockPeriod(uint32 _assetID, uint8 _vault, uint256 _lockperiod) external  {... */\n    tag_71:\n        /* \"contracts/Fvkry.sol\":7566:7583  Lock storage lock */\n      0x00\n        /* \"contracts/Fvkry.sol\":7586:7602  userLockedAssets */\n      0x02\n        /* \"contracts/Fvkry.sol\":7586:7614  userLockedAssets[msg.sender] */\n      0x00\n        /* \"contracts/Fvkry.sol\":7603:7613  msg.sender */\n      caller\n        /* \"contracts/Fvkry.sol\":7586:7614  userLockedAssets[msg.sender] */\n      0xffffffffffffffffffffffffffffffffffffffff\n      and\n      0xffffffffffffffffffffffffffffffffffffffff\n      and\n      dup2\n      mstore\n      0x20\n      add\n      swap1\n      dup2\n      mstore\n      0x20\n      add\n      0x00\n      keccak256\n        /* \"contracts/Fvkry.sol\":7586:7622  userLockedAssets[msg.sender][_vault] */\n      0x00\n        /* \"contracts/Fvkry.sol\":7615:7621  _vault */\n      dup5\n        /* \"contracts/Fvkry.sol\":7586:7622  userLockedAssets[msg.sender][_vault] */\n      0xff\n      and\n      0xff\n      and\n      dup2\n      mstore\n      0x20\n      add\n      swap1\n      dup2\n      mstore\n      0x20\n      add\n      0x00\n      keccak256\n        /* \"contracts/Fvkry.sol\":7623:7631  _assetID */\n      dup5\n        /* \"contracts/Fvkry.sol\":7586:7632  userLockedAssets[msg.sender][_vault][_assetID] */\n      0xffffffff\n      and\n      dup2\n      sload\n      dup2\n      lt\n      tag_203\n      jumpi\n      tag_204\n      tag_161\n      jump\t// in\n    tag_204:\n    tag_203:\n      swap1\n      0x00\n      mstore\n      keccak256(0x00, 0x20)\n      swap1\n      0x05\n      mul\n      add\n        /* \"contracts/Fvkry.sol\":7566:7632  Lock storage lock = userLockedAssets[msg.sender][_vault][_assetID] */\n      swap1\n      pop\n        /* \"contracts/Fvkry.sol\":7664:7680  userLockedAssets */\n      0x02\n        /* \"contracts/Fvkry.sol\":7664:7692  userLockedAssets[msg.sender] */\n      0x00\n        /* \"contracts/Fvkry.sol\":7681:7691  msg.sender */\n      caller\n        /* \"contracts/Fvkry.sol\":7664:7692  userLockedAssets[msg.sender] */\n      0xffffffffffffffffffffffffffffffffffffffff\n      and\n      0xffffffffffffffffffffffffffffffffffffffff\n      and\n      dup2\n      mstore\n      0x20\n      add\n      swap1\n      dup2\n      mstore\n      0x20\n      add\n      0x00\n      keccak256\n        /* \"contracts/Fvkry.sol\":7664:7700  userLockedAssets[msg.sender][_vault] */\n      0x00\n        /* \"contracts/Fvkry.sol\":7693:7699  _vault */\n      dup5\n        /* \"contracts/Fvkry.sol\":7664:7700  userLockedAssets[msg.sender][_vault] */\n      0xff\n      and\n      0xff\n      and\n      dup2\n      mstore\n      0x20\n      add\n      swap1\n      dup2\n      mstore\n      0x20\n      add\n      0x00\n      keccak256\n        /* \"contracts/Fvkry.sol\":7664:7707  userLockedAssets[msg.sender][_vault].length */\n      dup1\n      sload\n      swap1\n      pop\n        /* \"contracts/Fvkry.sol\":7653:7661  _assetID */\n      dup5\n        /* \"contracts/Fvkry.sol\":7653:7707  _assetID < userLockedAssets[msg.sender][_vault].length */\n      0xffffffff\n      and\n      lt\n        /* \"contracts/Fvkry.sol\":7645:7746  require(_assetID < userLockedAssets[msg.sender][_vault].length, \"The specified asset ID is invalid.\") */\n      tag_206\n      jumpi\n      mload(0x40)\n      0x08c379a000000000000000000000000000000000000000000000000000000000\n      dup2\n      mstore\n      0x04\n      add\n      tag_207\n      swap1\n      tag_208\n      jump\t// in\n    tag_207:\n      mload(0x40)\n      dup1\n      swap2\n      sub\n      swap1\n      revert\n    tag_206:\n        /* \"contracts/Fvkry.sol\":7783:7787  lock */\n      dup1\n        /* \"contracts/Fvkry.sol\":7783:7799  lock.lockEndTime */\n      0x02\n      add\n      sload\n        /* \"contracts/Fvkry.sol\":7765:7780  block.timestamp */\n      timestamp\n        /* \"contracts/Fvkry.sol\":7765:7799  block.timestamp > lock.lockEndTime */\n      gt\n        /* \"contracts/Fvkry.sol\":7757:7840  require(block.timestamp > lock.lockEndTime, \"The lock period has not yet expired!\") */\n      tag_209\n      jumpi\n      mload(0x40)\n      0x08c379a000000000000000000000000000000000000000000000000000000000\n      dup2\n      mstore\n      0x04\n      add\n      tag_210\n      swap1\n      tag_211\n      jump\t// in\n    tag_210:\n      mload(0x40)\n      dup1\n      swap2\n      sub\n      swap1\n      revert\n    tag_209:\n        /* \"contracts/Fvkry.sol\":7940:7951  _lockperiod */\n      dup2\n        /* \"contracts/Fvkry.sol\":7922:7937  block.timestamp */\n      timestamp\n        /* \"contracts/Fvkry.sol\":7922:7951  block.timestamp + _lockperiod */\n      tag_212\n      swap2\n      swap1\n      tag_120\n      jump\t// in\n    tag_212:\n        /* \"contracts/Fvkry.sol\":7861:7877  userLockedAssets */\n      0x02\n        /* \"contracts/Fvkry.sol\":7861:7889  userLockedAssets[msg.sender] */\n      0x00\n        /* \"contracts/Fvkry.sol\":7878:7888  msg.sender */\n      caller\n        /* \"contracts/Fvkry.sol\":7861:7889  userLockedAssets[msg.sender] */\n      0xffffffffffffffffffffffffffffffffffffffff\n      and\n      0xffffffffffffffffffffffffffffffffffffffff\n      and\n      dup2\n      mstore\n      0x20\n      add\n      swap1\n      dup2\n      mstore\n      0x20\n      add\n      0x00\n      keccak256\n        /* \"contracts/Fvkry.sol\":7861:7897  userLockedAssets[msg.sender][_vault] */\n      0x00\n        /* \"contracts/Fvkry.sol\":7890:7896  _vault */\n      dup6\n        /* \"contracts/Fvkry.sol\":7861:7897  userLockedAssets[msg.sender][_vault] */\n      0xff\n      and\n      0xff\n      and\n      dup2\n      mstore\n      0x20\n      add\n      swap1\n      dup2\n      mstore\n      0x20\n      add\n      0x00\n      keccak256\n        /* \"contracts/Fvkry.sol\":7898:7906  _assetID */\n      dup6\n        /* \"contracts/Fvkry.sol\":7861:7907  userLockedAssets[msg.sender][_vault][_assetID] */\n      0xffffffff\n      and\n      dup2\n      sload\n      dup2\n      lt\n      tag_213\n      jumpi\n      tag_214\n      tag_161\n      jump\t// in\n    tag_214:\n    tag_213:\n      swap1\n      0x00\n      mstore\n      keccak256(0x00, 0x20)\n      swap1\n      0x05\n      mul\n      add\n        /* \"contracts/Fvkry.sol\":7861:7919  userLockedAssets[msg.sender][_vault][_assetID].lockEndTime */\n      0x02\n      add\n        /* \"contracts/Fvkry.sol\":7861:7951  userLockedAssets[msg.sender][_vault][_assetID].lockEndTime = block.timestamp + _lockperiod */\n      dup2\n      swap1\n      sstore\n      pop\n        /* \"contracts/Fvkry.sol\":7988:7992  lock */\n      dup1\n        /* \"contracts/Fvkry.sol\":7988:7998  lock.token */\n      0x00\n      add\n      0x00\n      swap1\n      sload\n      swap1\n      0x0100\n      exp\n      swap1\n      div\n      0xffffffffffffffffffffffffffffffffffffffff\n      and\n        /* \"contracts/Fvkry.sol\":7969:8049  LockPeriodExtended(lock.token, _vault, _lockperiod, lock.title, block.timestamp) */\n      0xffffffffffffffffffffffffffffffffffffffff\n      and\n      0x748cb9768ee3f2567793f42a22f5b0c83df9e14d32ec82c9cb839cb1b357be13\n        /* \"contracts/Fvkry.sol\":8000:8006  _vault */\n      dup5\n        /* \"contracts/Fvkry.sol\":8008:8019  _lockperiod */\n      dup5\n        /* \"contracts/Fvkry.sol\":8021:8025  lock */\n      dup5\n        /* \"contracts/Fvkry.sol\":8021:8031  lock.title */\n      0x03\n      add\n        /* \"contracts/Fvkry.sol\":8033:8048  block.timestamp */\n      timestamp\n        /* \"contracts/Fvkry.sol\":7969:8049  LockPeriodExtended(lock.token, _vault, _lockperiod, lock.title, block.timestamp) */\n      mload(0x40)\n      tag_216\n      swap5\n      swap4\n      swap3\n      swap2\n      swap1\n      tag_217\n      jump\t// in\n    tag_216:\n      mload(0x40)\n      dup1\n      swap2\n      sub\n      swap1\n      log2\n        /* \"contracts/Fvkry.sol\":7555:8057  {... */\n      pop\n        /* \"contracts/Fvkry.sol\":7467:8057  function extendLockPeriod(uint32 _assetID, uint8 _vault, uint256 _lockperiod) external  {... */\n      pop\n      pop\n      pop\n      jump\t// out\n        /* \"contracts/Fvkry.sol\":762:833  mapping  (address => mapping (uint8 => Lock[])) public userLockedAssets */\n    tag_75:\n      mstore(0x20, 0x02)\n      dup3\n      0x00\n      mstore\n      mstore(0x20, keccak256(0x00, 0x40))\n      dup2\n      0x00\n      mstore\n      keccak256(0x00, 0x40)\n      dup2\n      dup2\n      sload\n      dup2\n      lt\n      tag_218\n      jumpi\n      0x00\n      dup1\n      revert\n    tag_218:\n      swap1\n      0x00\n      mstore\n      keccak256(0x00, 0x20)\n      swap1\n      0x05\n      mul\n      add\n      0x00\n      swap3\n      pop\n      swap3\n      pop\n      pop\n      pop\n      dup1\n      0x00\n      add\n      0x00\n      swap1\n      sload\n      swap1\n      0x0100\n      exp\n      swap1\n      div\n      0xffffffffffffffffffffffffffffffffffffffff\n      and\n      swap1\n      dup1\n      0x01\n      add\n      sload\n      swap1\n      dup1\n      0x02\n      add\n      sload\n      swap1\n      dup1\n      0x03\n      add\n      dup1\n      sload\n      tag_220\n      swap1\n      tag_170\n      jump\t// in\n    tag_220:\n      dup1\n      0x1f\n      add\n      0x20\n      dup1\n      swap2\n      div\n      mul\n      0x20\n      add\n      mload(0x40)\n      swap1\n      dup2\n      add\n      0x40\n      mstore\n      dup1\n      swap3\n      swap2\n      swap1\n      dup2\n      dup2\n      mstore\n      0x20\n      add\n      dup3\n      dup1\n      sload\n      tag_221\n      swap1\n      tag_170\n      jump\t// in\n    tag_221:\n      dup1\n      iszero\n      tag_222\n      jumpi\n      dup1\n      0x1f\n      lt\n      tag_223\n      jumpi\n      0x0100\n      dup1\n      dup4\n      sload\n      div\n      mul\n      dup4\n      mstore\n      swap2\n      0x20\n      add\n      swap2\n      jump(tag_222)\n    tag_223:\n      dup3\n      add\n      swap2\n      swap1\n      0x00\n      mstore\n      keccak256(0x00, 0x20)\n      swap1\n    tag_224:\n      dup2\n      sload\n      dup2\n      mstore\n      swap1\n      0x01\n      add\n      swap1\n      0x20\n      add\n      dup1\n      dup4\n      gt\n      tag_224\n      jumpi\n      dup3\n      swap1\n      sub\n      0x1f\n      and\n      dup3\n      add\n      swap2\n    tag_222:\n      pop\n      pop\n      pop\n      pop\n      pop\n      swap1\n      dup1\n      0x04\n      add\n      0x00\n      swap1\n      sload\n      swap1\n      0x0100\n      exp\n      swap1\n      div\n      0xff\n      and\n      swap1\n      dup1\n      0x04\n      add\n      0x01\n      swap1\n      sload\n      swap1\n      0x0100\n      exp\n      swap1\n      div\n      0xff\n      and\n      swap1\n      dup1\n      0x04\n      add\n      0x02\n      swap1\n      sload\n      swap1\n      0x0100\n      exp\n      swap1\n      div\n      0xff\n      and\n      swap1\n      pop\n      dup8\n      jump\t// out\n        /* \"contracts/Fvkry.sol\":5017:6529  function transferAsset( uint32 _assetId,uint8 _vault, uint256 _amount) external  nonReentrant {... */\n    tag_81:\n        /* \"@openzeppelin/contracts/utils/ReentrancyGuard.sol\":2500:2521  _nonReentrantBefore() */\n      tag_226\n        /* \"@openzeppelin/contracts/utils/ReentrancyGuard.sol\":2500:2519  _nonReentrantBefore */\n      tag_98\n        /* \"@openzeppelin/contracts/utils/ReentrancyGuard.sol\":2500:2521  _nonReentrantBefore() */\n      jump\t// in\n    tag_226:\n        /* \"contracts/Fvkry.sol\":5141:5157  userLockedAssets */\n      0x02\n        /* \"contracts/Fvkry.sol\":5141:5169  userLockedAssets[msg.sender] */\n      0x00\n        /* \"contracts/Fvkry.sol\":5158:5168  msg.sender */\n      caller\n        /* \"contracts/Fvkry.sol\":5141:5169  userLockedAssets[msg.sender] */\n      0xffffffffffffffffffffffffffffffffffffffff\n      and\n      0xffffffffffffffffffffffffffffffffffffffff\n      and\n      dup2\n      mstore\n      0x20\n      add\n      swap1\n      dup2\n      mstore\n      0x20\n      add\n      0x00\n      keccak256\n        /* \"contracts/Fvkry.sol\":5141:5177  userLockedAssets[msg.sender][_vault] */\n      0x00\n        /* \"contracts/Fvkry.sol\":5170:5176  _vault */\n      dup4\n        /* \"contracts/Fvkry.sol\":5141:5177  userLockedAssets[msg.sender][_vault] */\n      0xff\n      and\n      0xff\n      and\n      dup2\n      mstore\n      0x20\n      add\n      swap1\n      dup2\n      mstore\n      0x20\n      add\n      0x00\n      keccak256\n        /* \"contracts/Fvkry.sol\":5141:5184  userLockedAssets[msg.sender][_vault].length */\n      dup1\n      sload\n      swap1\n      pop\n        /* \"contracts/Fvkry.sol\":5130:5138  _assetId */\n      dup4\n        /* \"contracts/Fvkry.sol\":5130:5184  _assetId < userLockedAssets[msg.sender][_vault].length */\n      0xffffffff\n      and\n      lt\n        /* \"contracts/Fvkry.sol\":5122:5223  require(_assetId < userLockedAssets[msg.sender][_vault].length, \"The specified asset ID is invalid.\") */\n      tag_228\n      jumpi\n      mload(0x40)\n      0x08c379a000000000000000000000000000000000000000000000000000000000\n      dup2\n      mstore\n      0x04\n      add\n      tag_229\n      swap1\n      tag_208\n      jump\t// in\n    tag_229:\n      mload(0x40)\n      dup1\n      swap2\n      sub\n      swap1\n      revert\n    tag_228:\n        /* \"contracts/Fvkry.sol\":5244:5261  Lock storage lock */\n      0x00\n        /* \"contracts/Fvkry.sol\":5264:5280  userLockedAssets */\n      0x02\n        /* \"contracts/Fvkry.sol\":5264:5292  userLockedAssets[msg.sender] */\n      0x00\n        /* \"contracts/Fvkry.sol\":5281:5291  msg.sender */\n      caller\n        /* \"contracts/Fvkry.sol\":5264:5292  userLockedAssets[msg.sender] */\n      0xffffffffffffffffffffffffffffffffffffffff\n      and\n      0xffffffffffffffffffffffffffffffffffffffff\n      and\n      dup2\n      mstore\n      0x20\n      add\n      swap1\n      dup2\n      mstore\n      0x20\n      add\n      0x00\n      keccak256\n        /* \"contracts/Fvkry.sol\":5264:5300  userLockedAssets[msg.sender][_vault] */\n      0x00\n        /* \"contracts/Fvkry.sol\":5293:5299  _vault */\n      dup5\n        /* \"contracts/Fvkry.sol\":5264:5300  userLockedAssets[msg.sender][_vault] */\n      0xff\n      and\n      0xff\n      and\n      dup2\n      mstore\n      0x20\n      add\n      swap1\n      dup2\n      mstore\n      0x20\n      add\n      0x00\n      keccak256\n        /* \"contracts/Fvkry.sol\":5301:5309  _assetId */\n      dup5\n        /* \"contracts/Fvkry.sol\":5264:5310  userLockedAssets[msg.sender][_vault][_assetId] */\n      0xffffffff\n      and\n      dup2\n      sload\n      dup2\n      lt\n      tag_230\n      jumpi\n      tag_231\n      tag_161\n      jump\t// in\n    tag_231:\n    tag_230:\n      swap1\n      0x00\n      mstore\n      keccak256(0x00, 0x20)\n      swap1\n      0x05\n      mul\n      add\n        /* \"contracts/Fvkry.sol\":5244:5310  Lock storage lock = userLockedAssets[msg.sender][_vault][_assetId] */\n      swap1\n      pop\n        /* \"contracts/Fvkry.sol\":5332:5336  lock */\n      dup1\n        /* \"contracts/Fvkry.sol\":5332:5346  lock.withdrawn */\n      0x04\n      add\n      0x00\n      swap1\n      sload\n      swap1\n      0x0100\n      exp\n      swap1\n      div\n      0xff\n      and\n        /* \"contracts/Fvkry.sol\":5331:5346  !lock.withdrawn */\n      iszero\n        /* \"contracts/Fvkry.sol\":5323:5385  require(!lock.withdrawn,\"Assets have already been withdrawn!\") */\n      tag_233\n      jumpi\n      mload(0x40)\n      0x08c379a000000000000000000000000000000000000000000000000000000000\n      dup2\n      mstore\n      0x04\n      add\n      tag_234\n      swap1\n      tag_235\n      jump\t// in\n    tag_234:\n      mload(0x40)\n      dup1\n      swap2\n      sub\n      swap1\n      revert\n    tag_233:\n        /* \"contracts/Fvkry.sol\":5422:5426  lock */\n      dup1\n        /* \"contracts/Fvkry.sol\":5422:5438  lock.lockEndTime */\n      0x02\n      add\n      sload\n        /* \"contracts/Fvkry.sol\":5404:5419  block.timestamp */\n      timestamp\n        /* \"contracts/Fvkry.sol\":5404:5438  block.timestamp > lock.lockEndTime */\n      gt\n        /* \"contracts/Fvkry.sol\":5404:5460  block.timestamp > lock.lockEndTime || lock.makeAvailable */\n      dup1\n      tag_236\n      jumpi\n      pop\n        /* \"contracts/Fvkry.sol\":5442:5446  lock */\n      dup1\n        /* \"contracts/Fvkry.sol\":5442:5460  lock.makeAvailable */\n      0x04\n      add\n      0x02\n      swap1\n      sload\n      swap1\n      0x0100\n      exp\n      swap1\n      div\n      0xff\n      and\n        /* \"contracts/Fvkry.sol\":5404:5460  block.timestamp > lock.lockEndTime || lock.makeAvailable */\n    tag_236:\n        /* \"contracts/Fvkry.sol\":5396:5540  require(block.timestamp > lock.lockEndTime || lock.makeAvailable, \"The lock period has not yet expired and the value has not reached set goal!\") */\n      tag_237\n      jumpi\n      mload(0x40)\n      0x08c379a000000000000000000000000000000000000000000000000000000000\n      dup2\n      mstore\n      0x04\n      add\n      tag_238\n      swap1\n      tag_239\n      jump\t// in\n    tag_238:\n      mload(0x40)\n      dup1\n      swap2\n      sub\n      swap1\n      revert\n    tag_237:\n        /* \"contracts/Fvkry.sol\":5553:5575  uint256  updateBalance */\n      0x00\n        /* \"contracts/Fvkry.sol\":5592:5599  _amount */\n      dup3\n        /* \"contracts/Fvkry.sol\":5578:5582  lock */\n      dup3\n        /* \"contracts/Fvkry.sol\":5578:5589  lock.amount */\n      0x01\n      add\n      sload\n        /* \"contracts/Fvkry.sol\":5578:5599  lock.amount - _amount */\n      tag_240\n      swap2\n      swap1\n      tag_241\n      jump\t// in\n    tag_240:\n        /* \"contracts/Fvkry.sol\":5553:5599  uint256  updateBalance = lock.amount - _amount */\n      swap1\n      pop\n        /* \"contracts/Fvkry.sol\":5636:5637  0 */\n      0x00\n        /* \"contracts/Fvkry.sol\":5619:5632  updateBalance */\n      dup2\n        /* \"contracts/Fvkry.sol\":5619:5637  updateBalance >= 0 */\n      lt\n      iszero\n        /* \"contracts/Fvkry.sol\":5610:5671  require (updateBalance >= 0,\"Not enough assets to withdraw!\") */\n      tag_242\n      jumpi\n      mload(0x40)\n      0x08c379a000000000000000000000000000000000000000000000000000000000\n      dup2\n      mstore\n      0x04\n      add\n      tag_243\n      swap1\n      tag_244\n      jump\t// in\n    tag_243:\n      mload(0x40)\n      dup1\n      swap2\n      sub\n      swap1\n      revert\n    tag_242:\n        /* \"contracts/Fvkry.sol\":5733:5734  0 */\n      0x00\n        /* \"contracts/Fvkry.sol\":5716:5729  updateBalance */\n      dup2\n        /* \"contracts/Fvkry.sol\":5716:5734  updateBalance == 0 */\n      sub\n        /* \"contracts/Fvkry.sol\":5713:5826  if(updateBalance == 0) {... */\n      tag_245\n      jumpi\n        /* \"contracts/Fvkry.sol\":5810:5814  true */\n      0x01\n        /* \"contracts/Fvkry.sol\":5751:5767  userLockedAssets */\n      0x02\n        /* \"contracts/Fvkry.sol\":5751:5779  userLockedAssets[msg.sender] */\n      0x00\n        /* \"contracts/Fvkry.sol\":5768:5778  msg.sender */\n      caller\n        /* \"contracts/Fvkry.sol\":5751:5779  userLockedAssets[msg.sender] */\n      0xffffffffffffffffffffffffffffffffffffffff\n      and\n      0xffffffffffffffffffffffffffffffffffffffff\n      and\n      dup2\n      mstore\n      0x20\n      add\n      swap1\n      dup2\n      mstore\n      0x20\n      add\n      0x00\n      keccak256\n        /* \"contracts/Fvkry.sol\":5751:5787  userLockedAssets[msg.sender][_vault] */\n      0x00\n        /* \"contracts/Fvkry.sol\":5780:5786  _vault */\n      dup7\n        /* \"contracts/Fvkry.sol\":5751:5787  userLockedAssets[msg.sender][_vault] */\n      0xff\n      and\n      0xff\n      and\n      dup2\n      mstore\n      0x20\n      add\n      swap1\n      dup2\n      mstore\n      0x20\n      add\n      0x00\n      keccak256\n        /* \"contracts/Fvkry.sol\":5788:5796  _assetId */\n      dup7\n        /* \"contracts/Fvkry.sol\":5751:5797  userLockedAssets[msg.sender][_vault][_assetId] */\n      0xffffffff\n      and\n      dup2\n      sload\n      dup2\n      lt\n      tag_246\n      jumpi\n      tag_247\n      tag_161\n      jump\t// in\n    tag_247:\n    tag_246:\n      swap1\n      0x00\n      mstore\n      keccak256(0x00, 0x20)\n      swap1\n      0x05\n      mul\n      add\n        /* \"contracts/Fvkry.sol\":5751:5807  userLockedAssets[msg.sender][_vault][_assetId].withdrawn */\n      0x04\n      add\n      0x00\n        /* \"contracts/Fvkry.sol\":5751:5814  userLockedAssets[msg.sender][_vault][_assetId].withdrawn = true */\n      0x0100\n      exp\n      dup2\n      sload\n      dup2\n      0xff\n      mul\n      not\n      and\n      swap1\n      dup4\n      iszero\n      iszero\n      mul\n      or\n      swap1\n      sstore\n      pop\n        /* \"contracts/Fvkry.sol\":5713:5826  if(updateBalance == 0) {... */\n    tag_245:\n        /* \"contracts/Fvkry.sol\":5923:5936  updateBalance */\n      dup1\n        /* \"contracts/Fvkry.sol\":5867:5883  userLockedAssets */\n      0x02\n        /* \"contracts/Fvkry.sol\":5867:5895  userLockedAssets[msg.sender] */\n      0x00\n        /* \"contracts/Fvkry.sol\":5884:5894  msg.sender */\n      caller\n        /* \"contracts/Fvkry.sol\":5867:5895  userLockedAssets[msg.sender] */\n      0xffffffffffffffffffffffffffffffffffffffff\n      and\n      0xffffffffffffffffffffffffffffffffffffffff\n      and\n      dup2\n      mstore\n      0x20\n      add\n      swap1\n      dup2\n      mstore\n      0x20\n      add\n      0x00\n      keccak256\n        /* \"contracts/Fvkry.sol\":5867:5903  userLockedAssets[msg.sender][_vault] */\n      0x00\n        /* \"contracts/Fvkry.sol\":5896:5902  _vault */\n      dup7\n        /* \"contracts/Fvkry.sol\":5867:5903  userLockedAssets[msg.sender][_vault] */\n      0xff\n      and\n      0xff\n      and\n      dup2\n      mstore\n      0x20\n      add\n      swap1\n      dup2\n      mstore\n      0x20\n      add\n      0x00\n      keccak256\n        /* \"contracts/Fvkry.sol\":5904:5912  _assetId */\n      dup7\n        /* \"contracts/Fvkry.sol\":5867:5913  userLockedAssets[msg.sender][_vault][_assetId] */\n      0xffffffff\n      and\n      dup2\n      sload\n      dup2\n      lt\n      tag_249\n      jumpi\n      tag_250\n      tag_161\n      jump\t// in\n    tag_250:\n    tag_249:\n      swap1\n      0x00\n      mstore\n      keccak256(0x00, 0x20)\n      swap1\n      0x05\n      mul\n      add\n        /* \"contracts/Fvkry.sol\":5867:5920  userLockedAssets[msg.sender][_vault][_assetId].amount */\n      0x01\n      add\n        /* \"contracts/Fvkry.sol\":5867:5936  userLockedAssets[msg.sender][_vault][_assetId].amount = updateBalance */\n      dup2\n      swap1\n      sstore\n      pop\n        /* \"contracts/Fvkry.sol\":5956:5960  lock */\n      dup2\n        /* \"contracts/Fvkry.sol\":5956:5969  lock.isNative */\n      0x04\n      add\n      0x01\n      swap1\n      sload\n      swap1\n      0x0100\n      exp\n      swap1\n      div\n      0xff\n      and\n        /* \"contracts/Fvkry.sol\":5953:6421  if(lock.isNative) {... */\n      iszero\n      tag_252\n      jumpi\n        /* \"contracts/Fvkry.sol\":6016:6028  bool success */\n      0x00\n        /* \"contracts/Fvkry.sol\":6034:6044  msg.sender */\n      caller\n        /* \"contracts/Fvkry.sol\":6034:6049  msg.sender.call */\n      0xffffffffffffffffffffffffffffffffffffffff\n      and\n        /* \"contracts/Fvkry.sol\":6057:6064  _amount */\n      dup5\n        /* \"contracts/Fvkry.sol\":6034:6069  msg.sender.call{value: _amount}(\"\") */\n      mload(0x40)\n      tag_253\n      swap1\n      tag_254\n      jump\t// in\n    tag_253:\n      0x00\n      mload(0x40)\n      dup1\n      dup4\n      sub\n      dup2\n      dup6\n      dup8\n      gas\n      call\n      swap3\n      pop\n      pop\n      pop\n      returndatasize\n      dup1\n      0x00\n      dup2\n      eq\n      tag_257\n      jumpi\n      mload(0x40)\n      swap2\n      pop\n      and(add(returndatasize, 0x3f), not(0x1f))\n      dup3\n      add\n      0x40\n      mstore\n      returndatasize\n      dup3\n      mstore\n      returndatasize\n      0x00\n      0x20\n      dup5\n      add\n      returndatacopy\n      jump(tag_256)\n    tag_257:\n      0x60\n      swap2\n      pop\n    tag_256:\n      pop\n        /* \"contracts/Fvkry.sol\":6015:6069  (bool success, ) = msg.sender.call{value: _amount}(\"\") */\n      pop\n      swap1\n      pop\n        /* \"contracts/Fvkry.sol\":6092:6099  success */\n      dup1\n        /* \"contracts/Fvkry.sol\":6084:6123  require(success, \"ETH transfer failed\") */\n      tag_258\n      jumpi\n      mload(0x40)\n      0x08c379a000000000000000000000000000000000000000000000000000000000\n      dup2\n      mstore\n      0x04\n      add\n      tag_259\n      swap1\n      tag_260\n      jump\t// in\n    tag_259:\n      mload(0x40)\n      dup1\n      swap2\n      sub\n      swap1\n      revert\n    tag_258:\n        /* \"contracts/Fvkry.sol\":6140:6200  recordTransac(address(0), _vault, _amount, lock.title, true) */\n      tag_261\n        /* \"contracts/Fvkry.sol\":6162:6163  0 */\n      0x00\n        /* \"contracts/Fvkry.sol\":6166:6172  _vault */\n      dup7\n        /* \"contracts/Fvkry.sol\":6174:6181  _amount */\n      dup7\n        /* \"contracts/Fvkry.sol\":6183:6187  lock */\n      dup7\n        /* \"contracts/Fvkry.sol\":6183:6193  lock.title */\n      0x03\n      add\n        /* \"contracts/Fvkry.sol\":6140:6200  recordTransac(address(0), _vault, _amount, lock.title, true) */\n      dup1\n      sload\n      tag_262\n      swap1\n      tag_170\n      jump\t// in\n    tag_262:\n      dup1\n      0x1f\n      add\n      0x20\n      dup1\n      swap2\n      div\n      mul\n      0x20\n      add\n      mload(0x40)\n      swap1\n      dup2\n      add\n      0x40\n      mstore\n      dup1\n      swap3\n      swap2\n      swap1\n      dup2\n      dup2\n      mstore\n      0x20\n      add\n      dup3\n      dup1\n      sload\n      tag_263\n      swap1\n      tag_170\n      jump\t// in\n    tag_263:\n      dup1\n      iszero\n      tag_264\n      jumpi\n      dup1\n      0x1f\n      lt\n      tag_265\n      jumpi\n      0x0100\n      dup1\n      dup4\n      sload\n      div\n      mul\n      dup4\n      mstore\n      swap2\n      0x20\n      add\n      swap2\n      jump(tag_264)\n    tag_265:\n      dup3\n      add\n      swap2\n      swap1\n      0x00\n      mstore\n      keccak256(0x00, 0x20)\n      swap1\n    tag_266:\n      dup2\n      sload\n      dup2\n      mstore\n      swap1\n      0x01\n      add\n      swap1\n      0x20\n      add\n      dup1\n      dup4\n      gt\n      tag_266\n      jumpi\n      dup3\n      swap1\n      sub\n      0x1f\n      and\n      dup3\n      add\n      swap2\n    tag_264:\n      pop\n      pop\n      pop\n      pop\n      pop\n        /* \"contracts/Fvkry.sol\":6195:6199  true */\n      0x01\n        /* \"contracts/Fvkry.sol\":6140:6153  recordTransac */\n      tag_125\n        /* \"contracts/Fvkry.sol\":6140:6200  recordTransac(address(0), _vault, _amount, lock.title, true) */\n      jump\t// in\n    tag_261:\n        /* \"contracts/Fvkry.sol\":5971:6212  {... */\n      pop\n        /* \"contracts/Fvkry.sol\":5953:6421  if(lock.isNative) {... */\n      jump(tag_267)\n    tag_252:\n        /* \"contracts/Fvkry.sol\":6271:6323  IERC20(lock.token).safeTransfer(msg.sender, _amount) */\n      tag_268\n        /* \"contracts/Fvkry.sol\":6303:6313  msg.sender */\n      caller\n        /* \"contracts/Fvkry.sol\":6315:6322  _amount */\n      dup5\n        /* \"contracts/Fvkry.sol\":6278:6282  lock */\n      dup5\n        /* \"contracts/Fvkry.sol\":6278:6288  lock.token */\n      0x00\n      add\n      0x00\n      swap1\n      sload\n      swap1\n      0x0100\n      exp\n      swap1\n      div\n      0xffffffffffffffffffffffffffffffffffffffff\n      and\n        /* \"contracts/Fvkry.sol\":6271:6302  IERC20(lock.token).safeTransfer */\n      0xffffffffffffffffffffffffffffffffffffffff\n      and\n      tag_269\n      swap1\n        /* \"contracts/Fvkry.sol\":6271:6323  IERC20(lock.token).safeTransfer(msg.sender, _amount) */\n      swap3\n      swap2\n      swap1\n      0xffffffff\n      and\n      jump\t// in\n    tag_268:\n        /* \"contracts/Fvkry.sol\":6340:6409  recordTransac(address(lock.token), _vault, _amount, lock.title, true) */\n      tag_270\n        /* \"contracts/Fvkry.sol\":6362:6366  lock */\n      dup3\n        /* \"contracts/Fvkry.sol\":6362:6372  lock.token */\n      0x00\n      add\n      0x00\n      swap1\n      sload\n      swap1\n      0x0100\n      exp\n      swap1\n      div\n      0xffffffffffffffffffffffffffffffffffffffff\n      and\n        /* \"contracts/Fvkry.sol\":6375:6381  _vault */\n      dup6\n        /* \"contracts/Fvkry.sol\":6383:6390  _amount */\n      dup6\n        /* \"contracts/Fvkry.sol\":6392:6396  lock */\n      dup6\n        /* \"contracts/Fvkry.sol\":6392:6402  lock.title */\n      0x03\n      add\n        /* \"contracts/Fvkry.sol\":6340:6409  recordTransac(address(lock.token), _vault, _amount, lock.title, true) */\n      dup1\n      sload\n      tag_271\n      swap1\n      tag_170\n      jump\t// in\n    tag_271:\n      dup1\n      0x1f\n      add\n      0x20\n      dup1\n      swap2\n      div\n      mul\n      0x20\n      add\n      mload(0x40)\n      swap1\n      dup2\n      add\n      0x40\n      mstore\n      dup1\n      swap3\n      swap2\n      swap1\n      dup2\n      dup2\n      mstore\n      0x20\n      add\n      dup3\n      dup1\n      sload\n      tag_272\n      swap1\n      tag_170\n      jump\t// in\n    tag_272:\n      dup1\n      iszero\n      tag_273\n      jumpi\n      dup1\n      0x1f\n      lt\n      tag_274\n      jumpi\n      0x0100\n      dup1\n      dup4\n      sload\n      div\n      mul\n      dup4\n      mstore\n      swap2\n      0x20\n      add\n      swap2\n      jump(tag_273)\n    tag_274:\n      dup3\n      add\n      swap2\n      swap1\n      0x00\n      mstore\n      keccak256(0x00, 0x20)\n      swap1\n    tag_275:\n      dup2\n      sload\n      dup2\n      mstore\n      swap1\n      0x01\n      add\n      swap1\n      0x20\n      add\n      dup1\n      dup4\n      gt\n      tag_275\n      jumpi\n      dup3\n      swap1\n      sub\n      0x1f\n      and\n      dup3\n      add\n      swap2\n    tag_273:\n      pop\n      pop\n      pop\n      pop\n      pop\n        /* \"contracts/Fvkry.sol\":6404:6408  true */\n      0x01\n        /* \"contracts/Fvkry.sol\":6340:6353  recordTransac */\n      tag_125\n        /* \"contracts/Fvkry.sol\":6340:6409  recordTransac(address(lock.token), _vault, _amount, lock.title, true) */\n      jump\t// in\n    tag_270:\n        /* \"contracts/Fvkry.sol\":5953:6421  if(lock.isNative) {... */\n    tag_267:\n        /* \"contracts/Fvkry.sol\":6462:6466  lock */\n      dup2\n        /* \"contracts/Fvkry.sol\":6462:6472  lock.token */\n      0x00\n      add\n      0x00\n      swap1\n      sload\n      swap1\n      0x0100\n      exp\n      swap1\n      div\n      0xffffffffffffffffffffffffffffffffffffffff\n      and\n        /* \"contracts/Fvkry.sol\":6438:6521  AssetTransfered(address(lock.token), _amount , lock.title, _vault, block.timestamp) */\n      0xffffffffffffffffffffffffffffffffffffffff\n      and\n      0x16c4c024c274b52575ffc17396bbc4a59db7dd13aac28373e025a9f6269f9e03\n        /* \"contracts/Fvkry.sol\":6475:6482  _amount */\n      dup5\n        /* \"contracts/Fvkry.sol\":6485:6489  lock */\n      dup5\n        /* \"contracts/Fvkry.sol\":6485:6495  lock.title */\n      0x03\n      add\n        /* \"contracts/Fvkry.sol\":6497:6503  _vault */\n      dup8\n        /* \"contracts/Fvkry.sol\":6505:6520  block.timestamp */\n      timestamp\n        /* \"contracts/Fvkry.sol\":6438:6521  AssetTransfered(address(lock.token), _amount , lock.title, _vault, block.timestamp) */\n      mload(0x40)\n      tag_276\n      swap5\n      swap4\n      swap3\n      swap2\n      swap1\n      tag_176\n      jump\t// in\n    tag_276:\n      mload(0x40)\n      dup1\n      swap2\n      sub\n      swap1\n      log2\n        /* \"contracts/Fvkry.sol\":5111:6529  {... */\n      pop\n      pop\n        /* \"@openzeppelin/contracts/utils/ReentrancyGuard.sol\":2542:2562  _nonReentrantAfter() */\n      tag_277\n        /* \"@openzeppelin/contracts/utils/ReentrancyGuard.sol\":2542:2560  _nonReentrantAfter */\n      tag_130\n        /* \"@openzeppelin/contracts/utils/ReentrancyGuard.sol\":2542:2562  _nonReentrantAfter() */\n      jump\t// in\n    tag_277:\n        /* \"contracts/Fvkry.sol\":5017:6529  function transferAsset( uint32 _assetId,uint8 _vault, uint256 _amount) external  nonReentrant {... */\n      pop\n      pop\n      pop\n      jump\t// out\n        /* \"contracts/Fvkry.sol\":2348:2927  function addToLockedETH(uint8 _vault, uint32 _assetID) external payable  nonReentrant {... */\n    tag_85:\n        /* \"@openzeppelin/contracts/utils/ReentrancyGuard.sol\":2500:2521  _nonReentrantBefore() */\n      tag_279\n        /* \"@openzeppelin/contracts/utils/ReentrancyGuard.sol\":2500:2519  _nonReentrantBefore */\n      tag_98\n        /* \"@openzeppelin/contracts/utils/ReentrancyGuard.sol\":2500:2521  _nonReentrantBefore() */\n      jump\t// in\n    tag_279:\n        /* \"contracts/Fvkry.sol\":2465:2466  0 */\n      0x00\n        /* \"contracts/Fvkry.sol\":2453:2462  msg.value */\n      callvalue\n        /* \"contracts/Fvkry.sol\":2453:2466  msg.value > 0 */\n      gt\n        /* \"contracts/Fvkry.sol\":2445:2522  require(msg.value > 0, \"ETH to add to lock must be an amount greater than 0\") */\n      tag_281\n      jumpi\n      mload(0x40)\n      0x08c379a000000000000000000000000000000000000000000000000000000000\n      dup2\n      mstore\n      0x04\n      add\n      tag_282\n      swap1\n      tag_283\n      jump\t// in\n    tag_282:\n      mload(0x40)\n      dup1\n      swap2\n      sub\n      swap1\n      revert\n    tag_281:\n        /* \"contracts/Fvkry.sol\":2535:2552  Lock storage lock */\n      0x00\n        /* \"contracts/Fvkry.sol\":2555:2571  userLockedAssets */\n      0x02\n        /* \"contracts/Fvkry.sol\":2555:2583  userLockedAssets[msg.sender] */\n      0x00\n        /* \"contracts/Fvkry.sol\":2572:2582  msg.sender */\n      caller\n        /* \"contracts/Fvkry.sol\":2555:2583  userLockedAssets[msg.sender] */\n      0xffffffffffffffffffffffffffffffffffffffff\n      and\n      0xffffffffffffffffffffffffffffffffffffffff\n      and\n      dup2\n      mstore\n      0x20\n      add\n      swap1\n      dup2\n      mstore\n      0x20\n      add\n      0x00\n      keccak256\n        /* \"contracts/Fvkry.sol\":2555:2591  userLockedAssets[msg.sender][_vault] */\n      0x00\n        /* \"contracts/Fvkry.sol\":2584:2590  _vault */\n      dup5\n        /* \"contracts/Fvkry.sol\":2555:2591  userLockedAssets[msg.sender][_vault] */\n      0xff\n      and\n      0xff\n      and\n      dup2\n      mstore\n      0x20\n      add\n      swap1\n      dup2\n      mstore\n      0x20\n      add\n      0x00\n      keccak256\n        /* \"contracts/Fvkry.sol\":2592:2600  _assetID */\n      dup3\n        /* \"contracts/Fvkry.sol\":2555:2601  userLockedAssets[msg.sender][_vault][_assetID] */\n      0xffffffff\n      and\n      dup2\n      sload\n      dup2\n      lt\n      tag_284\n      jumpi\n      tag_285\n      tag_161\n      jump\t// in\n    tag_285:\n    tag_284:\n      swap1\n      0x00\n      mstore\n      keccak256(0x00, 0x20)\n      swap1\n      0x05\n      mul\n      add\n        /* \"contracts/Fvkry.sol\":2535:2601  Lock storage lock = userLockedAssets[msg.sender][_vault][_assetID] */\n      swap1\n      pop\n        /* \"contracts/Fvkry.sol\":2716:2725  msg.value */\n      callvalue\n        /* \"contracts/Fvkry.sol\":2659:2675  userLockedAssets */\n      0x02\n        /* \"contracts/Fvkry.sol\":2659:2687  userLockedAssets[msg.sender] */\n      0x00\n        /* \"contracts/Fvkry.sol\":2676:2686  msg.sender */\n      caller\n        /* \"contracts/Fvkry.sol\":2659:2687  userLockedAssets[msg.sender] */\n      0xffffffffffffffffffffffffffffffffffffffff\n      and\n      0xffffffffffffffffffffffffffffffffffffffff\n      and\n      dup2\n      mstore\n      0x20\n      add\n      swap1\n      dup2\n      mstore\n      0x20\n      add\n      0x00\n      keccak256\n        /* \"contracts/Fvkry.sol\":2659:2695  userLockedAssets[msg.sender][_vault] */\n      0x00\n        /* \"contracts/Fvkry.sol\":2688:2694  _vault */\n      dup6\n        /* \"contracts/Fvkry.sol\":2659:2695  userLockedAssets[msg.sender][_vault] */\n      0xff\n      and\n      0xff\n      and\n      dup2\n      mstore\n      0x20\n      add\n      swap1\n      dup2\n      mstore\n      0x20\n      add\n      0x00\n      keccak256\n        /* \"contracts/Fvkry.sol\":2696:2704  _assetID */\n      dup4\n        /* \"contracts/Fvkry.sol\":2659:2705  userLockedAssets[msg.sender][_vault][_assetID] */\n      0xffffffff\n      and\n      dup2\n      sload\n      dup2\n      lt\n      tag_287\n      jumpi\n      tag_288\n      tag_161\n      jump\t// in\n    tag_288:\n    tag_287:\n      swap1\n      0x00\n      mstore\n      keccak256(0x00, 0x20)\n      swap1\n      0x05\n      mul\n      add\n        /* \"contracts/Fvkry.sol\":2659:2712  userLockedAssets[msg.sender][_vault][_assetID].amount */\n      0x01\n      add\n      0x00\n        /* \"contracts/Fvkry.sol\":2659:2725  userLockedAssets[msg.sender][_vault][_assetID].amount += msg.value */\n      dup3\n      dup3\n      sload\n      tag_290\n      swap2\n      swap1\n      tag_120\n      jump\t// in\n    tag_290:\n      swap3\n      pop\n      pop\n      dup2\n      swap1\n      sstore\n      pop\n        /* \"contracts/Fvkry.sol\":2768:2831  recordTransac(address(0), _vault, msg.value, lock.title, false) */\n      tag_291\n        /* \"contracts/Fvkry.sol\":2790:2791  0 */\n      0x00\n        /* \"contracts/Fvkry.sol\":2794:2800  _vault */\n      dup5\n        /* \"contracts/Fvkry.sol\":2802:2811  msg.value */\n      callvalue\n        /* \"contracts/Fvkry.sol\":2813:2817  lock */\n      dup5\n        /* \"contracts/Fvkry.sol\":2813:2823  lock.title */\n      0x03\n      add\n        /* \"contracts/Fvkry.sol\":2768:2831  recordTransac(address(0), _vault, msg.value, lock.title, false) */\n      dup1\n      sload\n      tag_292\n      swap1\n      tag_170\n      jump\t// in\n    tag_292:\n      dup1\n      0x1f\n      add\n      0x20\n      dup1\n      swap2\n      div\n      mul\n      0x20\n      add\n      mload(0x40)\n      swap1\n      dup2\n      add\n      0x40\n      mstore\n      dup1\n      swap3\n      swap2\n      swap1\n      dup2\n      dup2\n      mstore\n      0x20\n      add\n      dup3\n      dup1\n      sload\n      tag_293\n      swap1\n      tag_170\n      jump\t// in\n    tag_293:\n      dup1\n      iszero\n      tag_294\n      jumpi\n      dup1\n      0x1f\n      lt\n      tag_295\n      jumpi\n      0x0100\n      dup1\n      dup4\n      sload\n      div\n      mul\n      dup4\n      mstore\n      swap2\n      0x20\n      add\n      swap2\n      jump(tag_294)\n    tag_295:\n      dup3\n      add\n      swap2\n      swap1\n      0x00\n      mstore\n      keccak256(0x00, 0x20)\n      swap1\n    tag_296:\n      dup2\n      sload\n      dup2\n      mstore\n      swap1\n      0x01\n      add\n      swap1\n      0x20\n      add\n      dup1\n      dup4\n      gt\n      tag_296\n      jumpi\n      dup3\n      swap1\n      sub\n      0x1f\n      and\n      dup3\n      add\n      swap2\n    tag_294:\n      pop\n      pop\n      pop\n      pop\n      pop\n        /* \"contracts/Fvkry.sol\":2825:2830  false */\n      0x00\n        /* \"contracts/Fvkry.sol\":2768:2781  recordTransac */\n      tag_125\n        /* \"contracts/Fvkry.sol\":2768:2831  recordTransac(address(0), _vault, msg.value, lock.title, false) */\n      jump\t// in\n    tag_291:\n        /* \"contracts/Fvkry.sol\":2868:2869  0 */\n      0x00\n        /* \"contracts/Fvkry.sol\":2849:2919  AssetAdded(address(0), msg.value, lock.title, _vault, block.timestamp) */\n      0xffffffffffffffffffffffffffffffffffffffff\n      and\n      0x0b99ce8321b94ffaa5c5021540ec0668dcba948d044760a5ef298fa0513b1ef4\n        /* \"contracts/Fvkry.sol\":2872:2881  msg.value */\n      callvalue\n        /* \"contracts/Fvkry.sol\":2883:2887  lock */\n      dup4\n        /* \"contracts/Fvkry.sol\":2883:2893  lock.title */\n      0x03\n      add\n        /* \"contracts/Fvkry.sol\":2895:2901  _vault */\n      dup7\n        /* \"contracts/Fvkry.sol\":2903:2918  block.timestamp */\n      timestamp\n        /* \"contracts/Fvkry.sol\":2849:2919  AssetAdded(address(0), msg.value, lock.title, _vault, block.timestamp) */\n      mload(0x40)\n      tag_297\n      swap5\n      swap4\n      swap3\n      swap2\n      swap1\n      tag_176\n      jump\t// in\n    tag_297:\n      mload(0x40)\n      dup1\n      swap2\n      sub\n      swap1\n      log2\n        /* \"contracts/Fvkry.sol\":2434:2927  {... */\n      pop\n        /* \"@openzeppelin/contracts/utils/ReentrancyGuard.sol\":2542:2562  _nonReentrantAfter() */\n      tag_298\n        /* \"@openzeppelin/contracts/utils/ReentrancyGuard.sol\":2542:2560  _nonReentrantAfter */\n      tag_130\n        /* \"@openzeppelin/contracts/utils/ReentrancyGuard.sol\":2542:2562  _nonReentrantAfter() */\n      jump\t// in\n    tag_298:\n        /* \"contracts/Fvkry.sol\":2348:2927  function addToLockedETH(uint8 _vault, uint32 _assetID) external payable  nonReentrant {... */\n      pop\n      pop\n      jump\t// out\n        /* \"contracts/Fvkry.sol\":8104:8282  function goalReached(uint32 _assetID, uint8 _vault, bool _available) external {        ... */\n    tag_90:\n        /* \"contracts/Fvkry.sol\":8264:8274  _available */\n      dup1\n        /* \"contracts/Fvkry.sol\":8201:8217  userLockedAssets */\n      0x02\n        /* \"contracts/Fvkry.sol\":8201:8229  userLockedAssets[msg.sender] */\n      0x00\n        /* \"contracts/Fvkry.sol\":8218:8228  msg.sender */\n      caller\n        /* \"contracts/Fvkry.sol\":8201:8229  userLockedAssets[msg.sender] */\n      0xffffffffffffffffffffffffffffffffffffffff\n      and\n      0xffffffffffffffffffffffffffffffffffffffff\n      and\n      dup2\n      mstore\n      0x20\n      add\n      swap1\n      dup2\n      mstore\n      0x20\n      add\n      0x00\n      keccak256\n        /* \"contracts/Fvkry.sol\":8201:8237  userLockedAssets[msg.sender][_vault] */\n      0x00\n        /* \"contracts/Fvkry.sol\":8230:8236  _vault */\n      dup5\n        /* \"contracts/Fvkry.sol\":8201:8237  userLockedAssets[msg.sender][_vault] */\n      0xff\n      and\n      0xff\n      and\n      dup2\n      mstore\n      0x20\n      add\n      swap1\n      dup2\n      mstore\n      0x20\n      add\n      0x00\n      keccak256\n        /* \"contracts/Fvkry.sol\":8238:8246  _assetID */\n      dup5\n        /* \"contracts/Fvkry.sol\":8201:8247  userLockedAssets[msg.sender][_vault][_assetID] */\n      0xffffffff\n      and\n      dup2\n      sload\n      dup2\n      lt\n      tag_300\n      jumpi\n      tag_301\n      tag_161\n      jump\t// in\n    tag_301:\n    tag_300:\n      swap1\n      0x00\n      mstore\n      keccak256(0x00, 0x20)\n      swap1\n      0x05\n      mul\n      add\n        /* \"contracts/Fvkry.sol\":8201:8261  userLockedAssets[msg.sender][_vault][_assetID].makeAvailable */\n      0x04\n      add\n      0x02\n        /* \"contracts/Fvkry.sol\":8201:8274  userLockedAssets[msg.sender][_vault][_assetID].makeAvailable = _available */\n      0x0100\n      exp\n      dup2\n      sload\n      dup2\n      0xff\n      mul\n      not\n      and\n      swap1\n      dup4\n      iszero\n      iszero\n      mul\n      or\n      swap1\n      sstore\n      pop\n        /* \"contracts/Fvkry.sol\":8104:8282  function goalReached(uint32 _assetID, uint8 _vault, bool _available) external {        ... */\n      pop\n      pop\n      pop\n      jump\t// out\n        /* \"@openzeppelin/contracts/access/Ownable.sol\":2543:2758  function transferOwnership(address newOwner) public virtual onlyOwner {... */\n    tag_95:\n        /* \"@openzeppelin/contracts/access/Ownable.sol\":1531:1544  _checkOwner() */\n      tag_304\n        /* \"@openzeppelin/contracts/access/Ownable.sol\":1531:1542  _checkOwner */\n      tag_196\n        /* \"@openzeppelin/contracts/access/Ownable.sol\":1531:1544  _checkOwner() */\n      jump\t// in\n    tag_304:\n        /* \"@openzeppelin/contracts/access/Ownable.sol\":2647:2648  0 */\n      0x00\n        /* \"@openzeppelin/contracts/access/Ownable.sol\":2627:2649  newOwner == address(0) */\n      0xffffffffffffffffffffffffffffffffffffffff\n      and\n        /* \"@openzeppelin/contracts/access/Ownable.sol\":2627:2635  newOwner */\n      dup2\n        /* \"@openzeppelin/contracts/access/Ownable.sol\":2627:2649  newOwner == address(0) */\n      0xffffffffffffffffffffffffffffffffffffffff\n      and\n      sub\n        /* \"@openzeppelin/contracts/access/Ownable.sol\":2623:2714  if (newOwner == address(0)) {... */\n      tag_306\n      jumpi\n        /* \"@openzeppelin/contracts/access/Ownable.sol\":2700:2701  0 */\n      0x00\n        /* \"@openzeppelin/contracts/access/Ownable.sol\":2672:2703  OwnableInvalidOwner(address(0)) */\n      mload(0x40)\n      0x1e4fbdf700000000000000000000000000000000000000000000000000000000\n      dup2\n      mstore\n      0x04\n      add\n      tag_307\n      swap2\n      swap1\n      tag_66\n      jump\t// in\n    tag_307:\n      mload(0x40)\n      dup1\n      swap2\n      sub\n      swap1\n      revert\n        /* \"@openzeppelin/contracts/access/Ownable.sol\":2623:2714  if (newOwner == address(0)) {... */\n    tag_306:\n        /* \"@openzeppelin/contracts/access/Ownable.sol\":2723:2751  _transferOwnership(newOwner) */\n      tag_308\n        /* \"@openzeppelin/contracts/access/Ownable.sol\":2742:2750  newOwner */\n      dup2\n        /* \"@openzeppelin/contracts/access/Ownable.sol\":2723:2741  _transferOwnership */\n      tag_199\n        /* \"@openzeppelin/contracts/access/Ownable.sol\":2723:2751  _transferOwnership(newOwner) */\n      jump\t// in\n    tag_308:\n        /* \"@openzeppelin/contracts/access/Ownable.sol\":2543:2758  function transferOwnership(address newOwner) public virtual onlyOwner {... */\n      pop\n      jump\t// out\n        /* \"@openzeppelin/contracts/utils/ReentrancyGuard.sol\":2575:2882  function _nonReentrantBefore() private {... */\n    tag_98:\n        /* \"@openzeppelin/contracts/utils/ReentrancyGuard.sol\":1899:1900  2 */\n      0x02\n        /* \"@openzeppelin/contracts/utils/ReentrancyGuard.sol\":2702:2709  _status */\n      sload(0x01)\n        /* \"@openzeppelin/contracts/utils/ReentrancyGuard.sol\":2702:2720  _status == ENTERED */\n      sub\n        /* \"@openzeppelin/contracts/utils/ReentrancyGuard.sol\":2698:2784  if (_status == ENTERED) {... */\n      tag_310\n      jumpi\n        /* \"@openzeppelin/contracts/utils/ReentrancyGuard.sol\":2743:2773  ReentrancyGuardReentrantCall() */\n      mload(0x40)\n      0x3ee5aeb500000000000000000000000000000000000000000000000000000000\n      dup2\n      mstore\n      0x04\n      add\n      mload(0x40)\n      dup1\n      swap2\n      sub\n      swap1\n      revert\n        /* \"@openzeppelin/contracts/utils/ReentrancyGuard.sol\":2698:2784  if (_status == ENTERED) {... */\n    tag_310:\n        /* \"@openzeppelin/contracts/utils/ReentrancyGuard.sol\":1899:1900  2 */\n      0x02\n        /* \"@openzeppelin/contracts/utils/ReentrancyGuard.sol\":2858:2865  _status */\n      0x01\n        /* \"@openzeppelin/contracts/utils/ReentrancyGuard.sol\":2858:2875  _status = ENTERED */\n      dup2\n      swap1\n      sstore\n      pop\n        /* \"@openzeppelin/contracts/utils/ReentrancyGuard.sol\":2575:2882  function _nonReentrantBefore() private {... */\n      jump\t// out\n        /* \"@openzeppelin/contracts/token/ERC20/utils/SafeERC20.sol\":1618:1806  function safeTransferFrom(IERC20 token, address from, address to, uint256 value) internal {... */\n    tag_118:\n        /* \"@openzeppelin/contracts/token/ERC20/utils/SafeERC20.sol\":1718:1799  _callOptionalReturn(token, abi.encodeCall(token.transferFrom, (from, to, value))) */\n      tag_312\n        /* \"@openzeppelin/contracts/token/ERC20/utils/SafeERC20.sol\":1738:1743  token */\n      dup5\n        /* \"@openzeppelin/contracts/token/ERC20/utils/SafeERC20.sol\":1760:1765  token */\n      dup6\n        /* \"@openzeppelin/contracts/token/ERC20/utils/SafeERC20.sol\":1760:1778  token.transferFrom */\n      0xffffffffffffffffffffffffffffffffffffffff\n      and\n      0x23b872dd\n        /* \"@openzeppelin/contracts/token/ERC20/utils/SafeERC20.sol\":1781:1785  from */\n      dup7\n        /* \"@openzeppelin/contracts/token/ERC20/utils/SafeERC20.sol\":1787:1789  to */\n      dup7\n        /* \"@openzeppelin/contracts/token/ERC20/utils/SafeERC20.sol\":1791:1796  value */\n      dup7\n        /* \"@openzeppelin/contracts/token/ERC20/utils/SafeERC20.sol\":1745:1798  abi.encodeCall(token.transferFrom, (from, to, value)) */\n      add(0x24, mload(0x40))\n      tag_313\n      swap4\n      swap3\n      swap2\n      swap1\n      tag_314\n      jump\t// in\n    tag_313:\n      mload(0x40)\n      0x20\n      dup2\n      dup4\n      sub\n      sub\n      dup2\n      mstore\n      swap1\n      0x40\n      mstore\n      swap2\n      pop\n      0xe0\n      shl\n      0x20\n      dup3\n      add\n      dup1\n      mload\n      0xffffffffffffffffffffffffffffffffffffffffffffffffffffffff\n      dup4\n      dup2\n      dup4\n      and\n      or\n      dup4\n      mstore\n      pop\n      pop\n      pop\n      pop\n        /* \"@openzeppelin/contracts/token/ERC20/utils/SafeERC20.sol\":1718:1737  _callOptionalReturn */\n      tag_315\n        /* \"@openzeppelin/contracts/token/ERC20/utils/SafeERC20.sol\":1718:1799  _callOptionalReturn(token, abi.encodeCall(token.transferFrom, (from, to, value))) */\n      jump\t// in\n    tag_312:\n        /* \"@openzeppelin/contracts/token/ERC20/utils/SafeERC20.sol\":1618:1806  function safeTransferFrom(IERC20 token, address from, address to, uint256 value) internal {... */\n      pop\n      pop\n      pop\n      pop\n      jump\t// out\n        /* \"contracts/Fvkry.sol\":6563:6950  function recordTransac(address _token, uint8 _vault, uint256 _amount, string memory _title, bool _withdraw) internal {... */\n    tag_125:\n        /* \"contracts/Fvkry.sol\":6691:6707  userTransactions */\n      0x03\n        /* \"contracts/Fvkry.sol\":6691:6719  userTransactions[msg.sender] */\n      0x00\n        /* \"contracts/Fvkry.sol\":6708:6718  msg.sender */\n      caller\n        /* \"contracts/Fvkry.sol\":6691:6719  userTransactions[msg.sender] */\n      0xffffffffffffffffffffffffffffffffffffffff\n      and\n      0xffffffffffffffffffffffffffffffffffffffff\n      and\n      dup2\n      mstore\n      0x20\n      add\n      swap1\n      dup2\n      mstore\n      0x20\n      add\n      0x00\n      keccak256\n        /* \"contracts/Fvkry.sol\":6691:6727  userTransactions[msg.sender][_vault] */\n      0x00\n        /* \"contracts/Fvkry.sol\":6720:6726  _vault */\n      dup6\n        /* \"contracts/Fvkry.sol\":6691:6727  userTransactions[msg.sender][_vault] */\n      0xff\n      and\n      0xff\n      and\n      dup2\n      mstore\n      0x20\n      add\n      swap1\n      dup2\n      mstore\n      0x20\n      add\n      0x00\n      keccak256\n        /* \"contracts/Fvkry.sol\":6733:6941  TransacHist({ ... */\n      mload(0x40)\n      dup1\n      0xa0\n      add\n      0x40\n      mstore\n      dup1\n        /* \"contracts/Fvkry.sol\":6768:6774  _token */\n      dup8\n        /* \"contracts/Fvkry.sol\":6733:6941  TransacHist({ ... */\n      0xffffffffffffffffffffffffffffffffffffffff\n      and\n      dup2\n      mstore\n      0x20\n      add\n        /* \"contracts/Fvkry.sol\":6802:6809  _amount */\n      dup6\n        /* \"contracts/Fvkry.sol\":6733:6941  TransacHist({ ... */\n      dup2\n      mstore\n      0x20\n      add\n        /* \"contracts/Fvkry.sol\":6833:6839  _title */\n      dup5\n        /* \"contracts/Fvkry.sol\":6733:6941  TransacHist({ ... */\n      dup2\n      mstore\n      0x20\n      add\n        /* \"contracts/Fvkry.sol\":6869:6878  _withdraw */\n      dup4\n        /* \"contracts/Fvkry.sol\":6733:6941  TransacHist({ ... */\n      iszero\n      iszero\n      dup2\n      mstore\n      0x20\n      add\n        /* \"contracts/Fvkry.sol\":6907:6922  block.timestamp */\n      timestamp\n        /* \"contracts/Fvkry.sol\":6733:6941  TransacHist({ ... */\n      dup2\n      mstore\n      pop\n        /* \"contracts/Fvkry.sol\":6691:6942  userTransactions[msg.sender][_vault].push(TransacHist({ ... */\n      swap1\n      dup1\n      0x01\n      dup2\n      sload\n      add\n      dup1\n      dup3\n      sstore\n      dup1\n      swap2\n      pop\n      pop\n      0x01\n      swap1\n      sub\n      swap1\n      0x00\n      mstore\n      keccak256(0x00, 0x20)\n      swap1\n      0x05\n      mul\n      add\n      0x00\n      swap1\n      swap2\n      swap1\n      swap2\n      swap1\n      swap2\n      pop\n      0x00\n      dup3\n      add\n      mload\n      dup2\n      0x00\n      add\n      exp(0x0100, 0x00)\n      dup2\n      sload\n      dup2\n      0xffffffffffffffffffffffffffffffffffffffff\n      mul\n      not\n      and\n      swap1\n      dup4\n      0xffffffffffffffffffffffffffffffffffffffff\n      and\n      mul\n      or\n      swap1\n      sstore\n      pop\n      0x20\n      dup3\n      add\n      mload\n      dup2\n      0x01\n      add\n      sstore\n      0x40\n      dup3\n      add\n      mload\n      dup2\n      0x02\n      add\n      swap1\n      dup2\n      tag_318\n      swap2\n      swap1\n      tag_123\n      jump\t// in\n    tag_318:\n      pop\n      0x60\n      dup3\n      add\n      mload\n      dup2\n      0x03\n      add\n      exp(0x0100, 0x00)\n      dup2\n      sload\n      dup2\n      0xff\n      mul\n      not\n      and\n      swap1\n      dup4\n      iszero\n      iszero\n      mul\n      or\n      swap1\n      sstore\n      pop\n      0x80\n      dup3\n      add\n      mload\n      dup2\n      0x04\n      add\n      sstore\n      pop\n      pop\n        /* \"contracts/Fvkry.sol\":6563:6950  function recordTransac(address _token, uint8 _vault, uint256 _amount, string memory _title, bool _withdraw) internal {... */\n      pop\n      pop\n      pop\n      pop\n      pop\n      jump\t// out\n        /* \"@openzeppelin/contracts/utils/ReentrancyGuard.sol\":2888:3096  function _nonReentrantAfter() private {... */\n    tag_130:\n        /* \"@openzeppelin/contracts/utils/ReentrancyGuard.sol\":1857:1858  1 */\n      0x01\n        /* \"@openzeppelin/contracts/utils/ReentrancyGuard.sol\":3068:3075  _status */\n      dup1\n        /* \"@openzeppelin/contracts/utils/ReentrancyGuard.sol\":3068:3089  _status = NOT_ENTERED */\n      dup2\n      swap1\n      sstore\n      pop\n        /* \"@openzeppelin/contracts/utils/ReentrancyGuard.sol\":2888:3096  function _nonReentrantAfter() private {... */\n      jump\t// out\n        /* \"@openzeppelin/contracts/access/Ownable.sol\":1796:1958  function _checkOwner() internal view virtual {... */\n    tag_196:\n        /* \"@openzeppelin/contracts/access/Ownable.sol\":1866:1878  _msgSender() */\n      tag_321\n        /* \"@openzeppelin/contracts/access/Ownable.sol\":1866:1876  _msgSender */\n      tag_322\n        /* \"@openzeppelin/contracts/access/Ownable.sol\":1866:1878  _msgSender() */\n      jump\t// in\n    tag_321:\n        /* \"@openzeppelin/contracts/access/Ownable.sol\":1855:1878  owner() != _msgSender() */\n      0xffffffffffffffffffffffffffffffffffffffff\n      and\n        /* \"@openzeppelin/contracts/access/Ownable.sol\":1855:1862  owner() */\n      tag_323\n        /* \"@openzeppelin/contracts/access/Ownable.sol\":1855:1860  owner */\n      tag_64\n        /* \"@openzeppelin/contracts/access/Ownable.sol\":1855:1862  owner() */\n      jump\t// in\n    tag_323:\n        /* \"@openzeppelin/contracts/access/Ownable.sol\":1855:1878  owner() != _msgSender() */\n      0xffffffffffffffffffffffffffffffffffffffff\n      and\n      eq\n        /* \"@openzeppelin/contracts/access/Ownable.sol\":1851:1952  if (owner() != _msgSender()) {... */\n      tag_324\n      jumpi\n        /* \"@openzeppelin/contracts/access/Ownable.sol\":1928:1940  _msgSender() */\n      tag_325\n        /* \"@openzeppelin/contracts/access/Ownable.sol\":1928:1938  _msgSender */\n      tag_322\n        /* \"@openzeppelin/contracts/access/Ownable.sol\":1928:1940  _msgSender() */\n      jump\t// in\n    tag_325:\n        /* \"@openzeppelin/contracts/access/Ownable.sol\":1901:1941  OwnableUnauthorizedAccount(_msgSender()) */\n      mload(0x40)\n      0x118cdaa700000000000000000000000000000000000000000000000000000000\n      dup2\n      mstore\n      0x04\n      add\n      tag_326\n      swap2\n      swap1\n      tag_66\n      jump\t// in\n    tag_326:\n      mload(0x40)\n      dup1\n      swap2\n      sub\n      swap1\n      revert\n        /* \"@openzeppelin/contracts/access/Ownable.sol\":1851:1952  if (owner() != _msgSender()) {... */\n    tag_324:\n        /* \"@openzeppelin/contracts/access/Ownable.sol\":1796:1958  function _checkOwner() internal view virtual {... */\n      jump\t// out\n        /* \"@openzeppelin/contracts/access/Ownable.sol\":2912:3099  function _transferOwnership(address newOwner) internal virtual {... */\n    tag_199:\n        /* \"@openzeppelin/contracts/access/Ownable.sol\":2985:3001  address oldOwner */\n      0x00\n        /* \"@openzeppelin/contracts/access/Ownable.sol\":3004:3010  _owner */\n      dup1\n      0x00\n      swap1\n      sload\n      swap1\n      0x0100\n      exp\n      swap1\n      div\n      0xffffffffffffffffffffffffffffffffffffffff\n      and\n        /* \"@openzeppelin/contracts/access/Ownable.sol\":2985:3010  address oldOwner = _owner */\n      swap1\n      pop\n        /* \"@openzeppelin/contracts/access/Ownable.sol\":3029:3037  newOwner */\n      dup2\n        /* \"@openzeppelin/contracts/access/Ownable.sol\":3020:3026  _owner */\n      0x00\n      dup1\n        /* \"@openzeppelin/contracts/access/Ownable.sol\":3020:3037  _owner = newOwner */\n      0x0100\n      exp\n      dup2\n      sload\n      dup2\n      0xffffffffffffffffffffffffffffffffffffffff\n      mul\n      not\n      and\n      swap1\n      dup4\n      0xffffffffffffffffffffffffffffffffffffffff\n      and\n      mul\n      or\n      swap1\n      sstore\n      pop\n        /* \"@openzeppelin/contracts/access/Ownable.sol\":3083:3091  newOwner */\n      dup2\n        /* \"@openzeppelin/contracts/access/Ownable.sol\":3052:3092  OwnershipTransferred(oldOwner, newOwner) */\n      0xffffffffffffffffffffffffffffffffffffffff\n      and\n        /* \"@openzeppelin/contracts/access/Ownable.sol\":3073:3081  oldOwner */\n      dup2\n        /* \"@openzeppelin/contracts/access/Ownable.sol\":3052:3092  OwnershipTransferred(oldOwner, newOwner) */\n      0xffffffffffffffffffffffffffffffffffffffff\n      and\n      0x8be0079c531659141344cd1fd0a4f28419497f9722a3daafe3b4186f6b6457e0\n      mload(0x40)\n      mload(0x40)\n      dup1\n      swap2\n      sub\n      swap1\n      log3\n        /* \"@openzeppelin/contracts/access/Ownable.sol\":2975:3099  {... */\n      pop\n        /* \"@openzeppelin/contracts/access/Ownable.sol\":2912:3099  function _transferOwnership(address newOwner) internal virtual {... */\n      pop\n      jump\t// out\n        /* \"@openzeppelin/contracts/token/ERC20/utils/SafeERC20.sol\":1219:1379  function safeTransfer(IERC20 token, address to, uint256 value) internal {... */\n    tag_269:\n        /* \"@openzeppelin/contracts/token/ERC20/utils/SafeERC20.sol\":1301:1372  _callOptionalReturn(token, abi.encodeCall(token.transfer, (to, value))) */\n      tag_329\n        /* \"@openzeppelin/contracts/token/ERC20/utils/SafeERC20.sol\":1321:1326  token */\n      dup4\n        /* \"@openzeppelin/contracts/token/ERC20/utils/SafeERC20.sol\":1343:1348  token */\n      dup5\n        /* \"@openzeppelin/contracts/token/ERC20/utils/SafeERC20.sol\":1343:1357  token.transfer */\n      0xffffffffffffffffffffffffffffffffffffffff\n      and\n      0xa9059cbb\n        /* \"@openzeppelin/contracts/token/ERC20/utils/SafeERC20.sol\":1360:1362  to */\n      dup6\n        /* \"@openzeppelin/contracts/token/ERC20/utils/SafeERC20.sol\":1364:1369  value */\n      dup6\n        /* \"@openzeppelin/contracts/token/ERC20/utils/SafeERC20.sol\":1328:1371  abi.encodeCall(token.transfer, (to, value)) */\n      add(0x24, mload(0x40))\n      tag_330\n      swap3\n      swap2\n      swap1\n      tag_331\n      jump\t// in\n    tag_330:\n      mload(0x40)\n      0x20\n      dup2\n      dup4\n      sub\n      sub\n      dup2\n      mstore\n      swap1\n      0x40\n      mstore\n      swap2\n      pop\n      0xe0\n      shl\n      0x20\n      dup3\n      add\n      dup1\n      mload\n      0xffffffffffffffffffffffffffffffffffffffffffffffffffffffff\n      dup4\n      dup2\n      dup4\n      and\n      or\n      dup4\n      mstore\n      pop\n      pop\n      pop\n      pop\n        /* \"@openzeppelin/contracts/token/ERC20/utils/SafeERC20.sol\":1301:1320  _callOptionalReturn */\n      tag_315\n        /* \"@openzeppelin/contracts/token/ERC20/utils/SafeERC20.sol\":1301:1372  _callOptionalReturn(token, abi.encodeCall(token.transfer, (to, value))) */\n      jump\t// in\n    tag_329:\n        /* \"@openzeppelin/contracts/token/ERC20/utils/SafeERC20.sol\":1219:1379  function safeTransfer(IERC20 token, address to, uint256 value) internal {... */\n      pop\n      pop\n      pop\n      jump\t// out\n        /* \"@openzeppelin/contracts/token/ERC20/utils/SafeERC20.sol\":7686:8406  function _callOptionalReturn(IERC20 token, bytes memory data) private {... */\n    tag_315:\n        /* \"@openzeppelin/contracts/token/ERC20/utils/SafeERC20.sol\":7766:7784  uint256 returnSize */\n      0x00\n        /* \"@openzeppelin/contracts/token/ERC20/utils/SafeERC20.sol\":7794:7813  uint256 returnValue */\n      dup1\n        /* \"@openzeppelin/contracts/token/ERC20/utils/SafeERC20.sol\":7932:7936  0x20 */\n      0x20\n        /* \"@openzeppelin/contracts/token/ERC20/utils/SafeERC20.sol\":7929:7930  0 */\n      0x00\n        /* \"@openzeppelin/contracts/token/ERC20/utils/SafeERC20.sol\":7922:7926  data */\n      dup5\n        /* \"@openzeppelin/contracts/token/ERC20/utils/SafeERC20.sol\":7916:7927  mload(data) */\n      mload\n        /* \"@openzeppelin/contracts/token/ERC20/utils/SafeERC20.sol\":7909:7913  0x20 */\n      0x20\n        /* \"@openzeppelin/contracts/token/ERC20/utils/SafeERC20.sol\":7903:7907  data */\n      dup7\n        /* \"@openzeppelin/contracts/token/ERC20/utils/SafeERC20.sol\":7899:7914  add(data, 0x20) */\n      add\n        /* \"@openzeppelin/contracts/token/ERC20/utils/SafeERC20.sol\":7896:7897  0 */\n      0x00\n        /* \"@openzeppelin/contracts/token/ERC20/utils/SafeERC20.sol\":7889:7894  token */\n      dup9\n        /* \"@openzeppelin/contracts/token/ERC20/utils/SafeERC20.sol\":7882:7887  gas() */\n      gas\n        /* \"@openzeppelin/contracts/token/ERC20/utils/SafeERC20.sol\":7877:7937  call(gas(), token, 0, add(data, 0x20), mload(data), 0, 0x20) */\n      call\n        /* \"@openzeppelin/contracts/token/ERC20/utils/SafeERC20.sol\":7989:7996  success */\n      dup1\n        /* \"@openzeppelin/contracts/token/ERC20/utils/SafeERC20.sol\":7979:8155  if iszero(success) {... */\n      tag_333\n      jumpi\n        /* \"@openzeppelin/contracts/token/ERC20/utils/SafeERC20.sol\":8033:8037  0x40 */\n      0x40\n        /* \"@openzeppelin/contracts/token/ERC20/utils/SafeERC20.sol\":8027:8038  mload(0x40) */\n      mload\n        /* \"@openzeppelin/contracts/token/ERC20/utils/SafeERC20.sol\":8078:8094  returndatasize() */\n      returndatasize\n        /* \"@openzeppelin/contracts/token/ERC20/utils/SafeERC20.sol\":8075:8076  0 */\n      0x00\n        /* \"@openzeppelin/contracts/token/ERC20/utils/SafeERC20.sol\":8070:8073  ptr */\n      dup3\n        /* \"@openzeppelin/contracts/token/ERC20/utils/SafeERC20.sol\":8055:8095  returndatacopy(ptr, 0, returndatasize()) */\n      returndatacopy\n        /* \"@openzeppelin/contracts/token/ERC20/utils/SafeERC20.sol\":8124:8140  returndatasize() */\n      returndatasize\n        /* \"@openzeppelin/contracts/token/ERC20/utils/SafeERC20.sol\":8119:8122  ptr */\n      dup2\n        /* \"@openzeppelin/contracts/token/ERC20/utils/SafeERC20.sol\":8112:8141  revert(ptr, returndatasize()) */\n      revert\n        /* \"@openzeppelin/contracts/token/ERC20/utils/SafeERC20.sol\":7979:8155  if iszero(success) {... */\n    tag_333:\n        /* \"@openzeppelin/contracts/token/ERC20/utils/SafeERC20.sol\":8182:8198  returndatasize() */\n      returndatasize\n        /* \"@openzeppelin/contracts/token/ERC20/utils/SafeERC20.sol\":8168:8198  returnSize := returndatasize() */\n      swap3\n      pop\n        /* \"@openzeppelin/contracts/token/ERC20/utils/SafeERC20.sol\":8232:8233  0 */\n      0x00\n        /* \"@openzeppelin/contracts/token/ERC20/utils/SafeERC20.sol\":8226:8234  mload(0) */\n      mload\n        /* \"@openzeppelin/contracts/token/ERC20/utils/SafeERC20.sol\":8211:8234  returnValue := mload(0) */\n      swap2\n      pop\n        /* \"@openzeppelin/contracts/token/ERC20/utils/SafeERC20.sol\":7848:8244  {... */\n      pop\n        /* \"@openzeppelin/contracts/token/ERC20/utils/SafeERC20.sol\":8272:8273  0 */\n      0x00\n        /* \"@openzeppelin/contracts/token/ERC20/utils/SafeERC20.sol\":8258:8268  returnSize */\n      dup3\n        /* \"@openzeppelin/contracts/token/ERC20/utils/SafeERC20.sol\":8258:8273  returnSize == 0 */\n      eq\n        /* \"@openzeppelin/contracts/token/ERC20/utils/SafeERC20.sol\":8258:8326  returnSize == 0 ? address(token).code.length == 0 : returnValue != 1 */\n      tag_334\n      jumpi\n        /* \"@openzeppelin/contracts/token/ERC20/utils/SafeERC20.sol\":8325:8326  1 */\n      0x01\n        /* \"@openzeppelin/contracts/token/ERC20/utils/SafeERC20.sol\":8310:8321  returnValue */\n      dup2\n        /* \"@openzeppelin/contracts/token/ERC20/utils/SafeERC20.sol\":8310:8326  returnValue != 1 */\n      eq\n      iszero\n        /* \"@openzeppelin/contracts/token/ERC20/utils/SafeERC20.sol\":8258:8326  returnSize == 0 ? address(token).code.length == 0 : returnValue != 1 */\n      jump(tag_335)\n    tag_334:\n        /* \"@openzeppelin/contracts/token/ERC20/utils/SafeERC20.sol\":8306:8307  0 */\n      0x00\n        /* \"@openzeppelin/contracts/token/ERC20/utils/SafeERC20.sol\":8284:8289  token */\n      dup5\n        /* \"@openzeppelin/contracts/token/ERC20/utils/SafeERC20.sol\":8276:8302  address(token).code.length */\n      0xffffffffffffffffffffffffffffffffffffffff\n      and\n      extcodesize\n        /* \"@openzeppelin/contracts/token/ERC20/utils/SafeERC20.sol\":8276:8307  address(token).code.length == 0 */\n      eq\n        /* \"@openzeppelin/contracts/token/ERC20/utils/SafeERC20.sol\":8258:8326  returnSize == 0 ? address(token).code.length == 0 : returnValue != 1 */\n    tag_335:\n        /* \"@openzeppelin/contracts/token/ERC20/utils/SafeERC20.sol\":8254:8400  if (returnSize == 0 ? address(token).code.length == 0 : returnValue != 1) {... */\n      iszero\n      tag_336\n      jumpi\n        /* \"@openzeppelin/contracts/token/ERC20/utils/SafeERC20.sol\":8382:8387  token */\n      dup4\n        /* \"@openzeppelin/contracts/token/ERC20/utils/SafeERC20.sol\":8349:8389  SafeERC20FailedOperation(address(token)) */\n      mload(0x40)\n      0x5274afe700000000000000000000000000000000000000000000000000000000\n      dup2\n      mstore\n      0x04\n      add\n      tag_337\n      swap2\n      swap1\n      tag_66\n      jump\t// in\n    tag_337:\n      mload(0x40)\n      dup1\n      swap2\n      sub\n      swap1\n      revert\n        /* \"@openzeppelin/contracts/token/ERC20/utils/SafeERC20.sol\":8254:8400  if (returnSize == 0 ? address(token).code.length == 0 : returnValue != 1) {... */\n    tag_336:\n        /* \"@openzeppelin/contracts/token/ERC20/utils/SafeERC20.sol\":7756:8406  {... */\n      pop\n      pop\n        /* \"@openzeppelin/contracts/token/ERC20/utils/SafeERC20.sol\":7686:8406  function _callOptionalReturn(IERC20 token, bytes memory data) private {... */\n      pop\n      pop\n      jump\t// out\n        /* \"@openzeppelin/contracts/utils/Context.sol\":656:752  function _msgSender() internal view virtual returns (address) {... */\n    tag_322:\n        /* \"@openzeppelin/contracts/utils/Context.sol\":709:716  address */\n      0x00\n        /* \"@openzeppelin/contracts/utils/Context.sol\":735:745  msg.sender */\n      caller\n        /* \"@openzeppelin/contracts/utils/Context.sol\":728:745  return msg.sender */\n      swap1\n      pop\n        /* \"@openzeppelin/contracts/utils/Context.sol\":656:752  function _msgSender() internal view virtual returns (address) {... */\n      swap1\n      jump\t// out\n        /* \"#utility.yul\":7:82   */\n    tag_339:\n        /* \"#utility.yul\":40:46   */\n      0x00\n        /* \"#utility.yul\":73:75   */\n      0x40\n        /* \"#utility.yul\":67:76   */\n      mload\n        /* \"#utility.yul\":57:76   */\n      swap1\n      pop\n        /* \"#utility.yul\":7:82   */\n      swap1\n      jump\t// out\n        /* \"#utility.yul\":88:205   */\n    tag_340:\n        /* \"#utility.yul\":197:198   */\n      0x00\n        /* \"#utility.yul\":194:195   */\n      dup1\n        /* \"#utility.yul\":187:199   */\n      revert\n        /* \"#utility.yul\":211:328   */\n    tag_341:\n        /* \"#utility.yul\":320:321   */\n      0x00\n        /* \"#utility.yul\":317:318   */\n      dup1\n        /* \"#utility.yul\":310:322   */\n      revert\n        /* \"#utility.yul\":334:460   */\n    tag_342:\n        /* \"#utility.yul\":371:378   */\n      0x00\n        /* \"#utility.yul\":411:453   */\n      0xffffffffffffffffffffffffffffffffffffffff\n        /* \"#utility.yul\":404:409   */\n      dup3\n        /* \"#utility.yul\":400:454   */\n      and\n        /* \"#utility.yul\":389:454   */\n      swap1\n      pop\n        /* \"#utility.yul\":334:460   */\n      swap2\n      swap1\n      pop\n      jump\t// out\n        /* \"#utility.yul\":466:562   */\n    tag_343:\n        /* \"#utility.yul\":503:510   */\n      0x00\n        /* \"#utility.yul\":532:556   */\n      tag_445\n        /* \"#utility.yul\":550:555   */\n      dup3\n        /* \"#utility.yul\":532:556   */\n      tag_342\n      jump\t// in\n    tag_445:\n        /* \"#utility.yul\":521:556   */\n      swap1\n      pop\n        /* \"#utility.yul\":466:562   */\n      swap2\n      swap1\n      pop\n      jump\t// out\n        /* \"#utility.yul\":568:678   */\n    tag_344:\n        /* \"#utility.yul\":619:626   */\n      0x00\n        /* \"#utility.yul\":648:672   */\n      tag_447\n        /* \"#utility.yul\":666:671   */\n      dup3\n        /* \"#utility.yul\":648:672   */\n      tag_343\n      jump\t// in\n    tag_447:\n        /* \"#utility.yul\":637:672   */\n      swap1\n      pop\n        /* \"#utility.yul\":568:678   */\n      swap2\n      swap1\n      pop\n      jump\t// out\n        /* \"#utility.yul\":684:834   */\n    tag_345:\n        /* \"#utility.yul\":771:809   */\n      tag_449\n        /* \"#utility.yul\":803:808   */\n      dup2\n        /* \"#utility.yul\":771:809   */\n      tag_344\n      jump\t// in\n    tag_449:\n        /* \"#utility.yul\":764:769   */\n      dup2\n        /* \"#utility.yul\":761:810   */\n      eq\n        /* \"#utility.yul\":751:828   */\n      tag_450\n      jumpi\n        /* \"#utility.yul\":824:825   */\n      0x00\n        /* \"#utility.yul\":821:822   */\n      dup1\n        /* \"#utility.yul\":814:826   */\n      revert\n        /* \"#utility.yul\":751:828   */\n    tag_450:\n        /* \"#utility.yul\":684:834   */\n      pop\n      jump\t// out\n        /* \"#utility.yul\":840:1007   */\n    tag_346:\n        /* \"#utility.yul\":900:905   */\n      0x00\n        /* \"#utility.yul\":938:944   */\n      dup2\n        /* \"#utility.yul\":925:945   */\n      calldataload\n        /* \"#utility.yul\":916:945   */\n      swap1\n      pop\n        /* \"#utility.yul\":954:1001   */\n      tag_452\n        /* \"#utility.yul\":995:1000   */\n      dup2\n        /* \"#utility.yul\":954:1001   */\n      tag_345\n      jump\t// in\n    tag_452:\n        /* \"#utility.yul\":840:1007   */\n      swap3\n      swap2\n      pop\n      pop\n      jump\t// out\n        /* \"#utility.yul\":1013:1090   */\n    tag_347:\n        /* \"#utility.yul\":1050:1057   */\n      0x00\n        /* \"#utility.yul\":1079:1084   */\n      dup2\n        /* \"#utility.yul\":1068:1084   */\n      swap1\n      pop\n        /* \"#utility.yul\":1013:1090   */\n      swap2\n      swap1\n      pop\n      jump\t// out\n        /* \"#utility.yul\":1096:1218   */\n    tag_348:\n        /* \"#utility.yul\":1169:1193   */\n      tag_455\n        /* \"#utility.yul\":1187:1192   */\n      dup2\n        /* \"#utility.yul\":1169:1193   */\n      tag_347\n      jump\t// in\n    tag_455:\n        /* \"#utility.yul\":1162:1167   */\n      dup2\n        /* \"#utility.yul\":1159:1194   */\n      eq\n        /* \"#utility.yul\":1149:1212   */\n      tag_456\n      jumpi\n        /* \"#utility.yul\":1208:1209   */\n      0x00\n        /* \"#utility.yul\":1205:1206   */\n      dup1\n        /* \"#utility.yul\":1198:1210   */\n      revert\n        /* \"#utility.yul\":1149:1212   */\n    tag_456:\n        /* \"#utility.yul\":1096:1218   */\n      pop\n      jump\t// out\n        /* \"#utility.yul\":1224:1363   */\n    tag_349:\n        /* \"#utility.yul\":1270:1275   */\n      0x00\n        /* \"#utility.yul\":1308:1314   */\n      dup2\n        /* \"#utility.yul\":1295:1315   */\n      calldataload\n        /* \"#utility.yul\":1286:1315   */\n      swap1\n      pop\n        /* \"#utility.yul\":1324:1357   */\n      tag_458\n        /* \"#utility.yul\":1351:1356   */\n      dup2\n        /* \"#utility.yul\":1324:1357   */\n      tag_348\n      jump\t// in\n    tag_458:\n        /* \"#utility.yul\":1224:1363   */\n      swap3\n      swap2\n      pop\n      pop\n      jump\t// out\n        /* \"#utility.yul\":1369:1455   */\n    tag_350:\n        /* \"#utility.yul\":1404:1411   */\n      0x00\n        /* \"#utility.yul\":1444:1448   */\n      0xff\n        /* \"#utility.yul\":1437:1442   */\n      dup3\n        /* \"#utility.yul\":1433:1449   */\n      and\n        /* \"#utility.yul\":1422:1449   */\n      swap1\n      pop\n        /* \"#utility.yul\":1369:1455   */\n      swap2\n      swap1\n      pop\n      jump\t// out\n        /* \"#utility.yul\":1461:1579   */\n    tag_351:\n        /* \"#utility.yul\":1532:1554   */\n      tag_461\n        /* \"#utility.yul\":1548:1553   */\n      dup2\n        /* \"#utility.yul\":1532:1554   */\n      tag_350\n      jump\t// in\n    tag_461:\n        /* \"#utility.yul\":1525:1530   */\n      dup2\n        /* \"#utility.yul\":1522:1555   */\n      eq\n        /* \"#utility.yul\":1512:1573   */\n      tag_462\n      jumpi\n        /* \"#utility.yul\":1569:1570   */\n      0x00\n        /* \"#utility.yul\":1566:1567   */\n      dup1\n        /* \"#utility.yul\":1559:1571   */\n      revert\n        /* \"#utility.yul\":1512:1573   */\n    tag_462:\n        /* \"#utility.yul\":1461:1579   */\n      pop\n      jump\t// out\n        /* \"#utility.yul\":1585:1720   */\n    tag_352:\n        /* \"#utility.yul\":1629:1634   */\n      0x00\n        /* \"#utility.yul\":1667:1673   */\n      dup2\n        /* \"#utility.yul\":1654:1674   */\n      calldataload\n        /* \"#utility.yul\":1645:1674   */\n      swap1\n      pop\n        /* \"#utility.yul\":1683:1714   */\n      tag_464\n        /* \"#utility.yul\":1708:1713   */\n      dup2\n        /* \"#utility.yul\":1683:1714   */\n      tag_351\n      jump\t// in\n    tag_464:\n        /* \"#utility.yul\":1585:1720   */\n      swap3\n      swap2\n      pop\n      pop\n      jump\t// out\n        /* \"#utility.yul\":1726:1843   */\n    tag_353:\n        /* \"#utility.yul\":1835:1836   */\n      0x00\n        /* \"#utility.yul\":1832:1833   */\n      dup1\n        /* \"#utility.yul\":1825:1837   */\n      revert\n        /* \"#utility.yul\":1849:1966   */\n    tag_354:\n        /* \"#utility.yul\":1958:1959   */\n      0x00\n        /* \"#utility.yul\":1955:1956   */\n      dup1\n        /* \"#utility.yul\":1948:1960   */\n      revert\n        /* \"#utility.yul\":1972:2074   */\n    tag_355:\n        /* \"#utility.yul\":2013:2019   */\n      0x00\n        /* \"#utility.yul\":2064:2066   */\n      0x1f\n        /* \"#utility.yul\":2060:2067   */\n      not\n        /* \"#utility.yul\":2055:2057   */\n      0x1f\n        /* \"#utility.yul\":2048:2053   */\n      dup4\n        /* \"#utility.yul\":2044:2058   */\n      add\n        /* \"#utility.yul\":2040:2068   */\n      and\n        /* \"#utility.yul\":2030:2068   */\n      swap1\n      pop\n        /* \"#utility.yul\":1972:2074   */\n      swap2\n      swap1\n      pop\n      jump\t// out\n        /* \"#utility.yul\":2080:2260   */\n    tag_356:\n        /* \"#utility.yul\":2128:2205   */\n      0x4e487b7100000000000000000000000000000000000000000000000000000000\n        /* \"#utility.yul\":2125:2126   */\n      0x00\n        /* \"#utility.yul\":2118:2206   */\n      mstore\n        /* \"#utility.yul\":2225:2229   */\n      0x41\n        /* \"#utility.yul\":2222:2223   */\n      0x04\n        /* \"#utility.yul\":2215:2230   */\n      mstore\n        /* \"#utility.yul\":2249:2253   */\n      0x24\n        /* \"#utility.yul\":2246:2247   */\n      0x00\n        /* \"#utility.yul\":2239:2254   */\n      revert\n        /* \"#utility.yul\":2266:2547   */\n    tag_357:\n        /* \"#utility.yul\":2349:2376   */\n      tag_470\n        /* \"#utility.yul\":2371:2375   */\n      dup3\n        /* \"#utility.yul\":2349:2376   */\n      tag_355\n      jump\t// in\n    tag_470:\n        /* \"#utility.yul\":2341:2347   */\n      dup2\n        /* \"#utility.yul\":2337:2377   */\n      add\n        /* \"#utility.yul\":2479:2485   */\n      dup2\n        /* \"#utility.yul\":2467:2477   */\n      dup2\n        /* \"#utility.yul\":2464:2486   */\n      lt\n        /* \"#utility.yul\":2443:2461   */\n      0xffffffffffffffff\n        /* \"#utility.yul\":2431:2441   */\n      dup3\n        /* \"#utility.yul\":2428:2462   */\n      gt\n        /* \"#utility.yul\":2425:2487   */\n      or\n        /* \"#utility.yul\":2422:2510   */\n      iszero\n      tag_471\n      jumpi\n        /* \"#utility.yul\":2490:2508   */\n      tag_472\n      tag_356\n      jump\t// in\n    tag_472:\n        /* \"#utility.yul\":2422:2510   */\n    tag_471:\n        /* \"#utility.yul\":2530:2540   */\n      dup1\n        /* \"#utility.yul\":2526:2528   */\n      0x40\n        /* \"#utility.yul\":2519:2541   */\n      mstore\n        /* \"#utility.yul\":2309:2547   */\n      pop\n        /* \"#utility.yul\":2266:2547   */\n      pop\n      pop\n      jump\t// out\n        /* \"#utility.yul\":2553:2682   */\n    tag_358:\n        /* \"#utility.yul\":2587:2593   */\n      0x00\n        /* \"#utility.yul\":2614:2634   */\n      tag_474\n      tag_339\n      jump\t// in\n    tag_474:\n        /* \"#utility.yul\":2604:2634   */\n      swap1\n      pop\n        /* \"#utility.yul\":2643:2676   */\n      tag_475\n        /* \"#utility.yul\":2671:2675   */\n      dup3\n        /* \"#utility.yul\":2663:2669   */\n      dup3\n        /* \"#utility.yul\":2643:2676   */\n      tag_357\n      jump\t// in\n    tag_475:\n        /* \"#utility.yul\":2553:2682   */\n      swap2\n      swap1\n      pop\n      jump\t// out\n        /* \"#utility.yul\":2688:2996   */\n    tag_359:\n        /* \"#utility.yul\":2750:2754   */\n      0x00\n        /* \"#utility.yul\":2840:2858   */\n      0xffffffffffffffff\n        /* \"#utility.yul\":2832:2838   */\n      dup3\n        /* \"#utility.yul\":2829:2859   */\n      gt\n        /* \"#utility.yul\":2826:2882   */\n      iszero\n      tag_477\n      jumpi\n        /* \"#utility.yul\":2862:2880   */\n      tag_478\n      tag_356\n      jump\t// in\n    tag_478:\n        /* \"#utility.yul\":2826:2882   */\n    tag_477:\n        /* \"#utility.yul\":2900:2929   */\n      tag_479\n        /* \"#utility.yul\":2922:2928   */\n      dup3\n        /* \"#utility.yul\":2900:2929   */\n      tag_355\n      jump\t// in\n    tag_479:\n        /* \"#utility.yul\":2892:2929   */\n      swap1\n      pop\n        /* \"#utility.yul\":2984:2988   */\n      0x20\n        /* \"#utility.yul\":2978:2982   */\n      dup2\n        /* \"#utility.yul\":2974:2989   */\n      add\n        /* \"#utility.yul\":2966:2989   */\n      swap1\n      pop\n        /* \"#utility.yul\":2688:2996   */\n      swap2\n      swap1\n      pop\n      jump\t// out\n        /* \"#utility.yul\":3002:3150   */\n    tag_360:\n        /* \"#utility.yul\":3100:3106   */\n      dup3\n        /* \"#utility.yul\":3095:3098   */\n      dup2\n        /* \"#utility.yul\":3090:3093   */\n      dup4\n        /* \"#utility.yul\":3077:3107   */\n      calldatacopy\n        /* \"#utility.yul\":3141:3142   */\n      0x00\n        /* \"#utility.yul\":3132:3138   */\n      dup4\n        /* \"#utility.yul\":3127:3130   */\n      dup4\n        /* \"#utility.yul\":3123:3139   */\n      add\n        /* \"#utility.yul\":3116:3143   */\n      mstore\n        /* \"#utility.yul\":3002:3150   */\n      pop\n      pop\n      pop\n      jump\t// out\n        /* \"#utility.yul\":3156:3581   */\n    tag_361:\n        /* \"#utility.yul\":3234:3239   */\n      0x00\n        /* \"#utility.yul\":3259:3325   */\n      tag_482\n        /* \"#utility.yul\":3275:3324   */\n      tag_483\n        /* \"#utility.yul\":3317:3323   */\n      dup5\n        /* \"#utility.yul\":3275:3324   */\n      tag_359\n      jump\t// in\n    tag_483:\n        /* \"#utility.yul\":3259:3325   */\n      tag_358\n      jump\t// in\n    tag_482:\n        /* \"#utility.yul\":3250:3325   */\n      swap1\n      pop\n        /* \"#utility.yul\":3348:3354   */\n      dup3\n        /* \"#utility.yul\":3341:3346   */\n      dup2\n        /* \"#utility.yul\":3334:3355   */\n      mstore\n        /* \"#utility.yul\":3386:3390   */\n      0x20\n        /* \"#utility.yul\":3379:3384   */\n      dup2\n        /* \"#utility.yul\":3375:3391   */\n      add\n        /* \"#utility.yul\":3424:3427   */\n      dup5\n        /* \"#utility.yul\":3415:3421   */\n      dup5\n        /* \"#utility.yul\":3410:3413   */\n      dup5\n        /* \"#utility.yul\":3406:3422   */\n      add\n        /* \"#utility.yul\":3403:3428   */\n      gt\n        /* \"#utility.yul\":3400:3512   */\n      iszero\n      tag_484\n      jumpi\n        /* \"#utility.yul\":3431:3510   */\n      tag_485\n      tag_354\n      jump\t// in\n    tag_485:\n        /* \"#utility.yul\":3400:3512   */\n    tag_484:\n        /* \"#utility.yul\":3521:3575   */\n      tag_486\n        /* \"#utility.yul\":3568:3574   */\n      dup5\n        /* \"#utility.yul\":3563:3566   */\n      dup3\n        /* \"#utility.yul\":3558:3561   */\n      dup6\n        /* \"#utility.yul\":3521:3575   */\n      tag_360\n      jump\t// in\n    tag_486:\n        /* \"#utility.yul\":3240:3581   */\n      pop\n        /* \"#utility.yul\":3156:3581   */\n      swap4\n      swap3\n      pop\n      pop\n      pop\n      jump\t// out\n        /* \"#utility.yul\":3601:3941   */\n    tag_362:\n        /* \"#utility.yul\":3657:3662   */\n      0x00\n        /* \"#utility.yul\":3706:3709   */\n      dup3\n        /* \"#utility.yul\":3699:3703   */\n      0x1f\n        /* \"#utility.yul\":3691:3697   */\n      dup4\n        /* \"#utility.yul\":3687:3704   */\n      add\n        /* \"#utility.yul\":3683:3710   */\n      slt\n        /* \"#utility.yul\":3673:3795   */\n      tag_488\n      jumpi\n        /* \"#utility.yul\":3714:3793   */\n      tag_489\n      tag_353\n      jump\t// in\n    tag_489:\n        /* \"#utility.yul\":3673:3795   */\n    tag_488:\n        /* \"#utility.yul\":3831:3837   */\n      dup2\n        /* \"#utility.yul\":3818:3838   */\n      calldataload\n        /* \"#utility.yul\":3856:3935   */\n      tag_490\n        /* \"#utility.yul\":3931:3934   */\n      dup5\n        /* \"#utility.yul\":3923:3929   */\n      dup3\n        /* \"#utility.yul\":3916:3920   */\n      0x20\n        /* \"#utility.yul\":3908:3914   */\n      dup7\n        /* \"#utility.yul\":3904:3921   */\n      add\n        /* \"#utility.yul\":3856:3935   */\n      tag_361\n      jump\t// in\n    tag_490:\n        /* \"#utility.yul\":3847:3935   */\n      swap2\n      pop\n        /* \"#utility.yul\":3663:3941   */\n      pop\n        /* \"#utility.yul\":3601:3941   */\n      swap3\n      swap2\n      pop\n      pop\n      jump\t// out\n        /* \"#utility.yul\":3947:5062   */\n    tag_23:\n        /* \"#utility.yul\":4064:4070   */\n      0x00\n        /* \"#utility.yul\":4072:4078   */\n      dup1\n        /* \"#utility.yul\":4080:4086   */\n      0x00\n        /* \"#utility.yul\":4088:4094   */\n      dup1\n        /* \"#utility.yul\":4096:4102   */\n      0x00\n        /* \"#utility.yul\":4145:4148   */\n      0xa0\n        /* \"#utility.yul\":4133:4142   */\n      dup7\n        /* \"#utility.yul\":4124:4131   */\n      dup9\n        /* \"#utility.yul\":4120:4143   */\n      sub\n        /* \"#utility.yul\":4116:4149   */\n      slt\n        /* \"#utility.yul\":4113:4233   */\n      iszero\n      tag_492\n      jumpi\n        /* \"#utility.yul\":4152:4231   */\n      tag_493\n      tag_340\n      jump\t// in\n    tag_493:\n        /* \"#utility.yul\":4113:4233   */\n    tag_492:\n        /* \"#utility.yul\":4272:4273   */\n      0x00\n        /* \"#utility.yul\":4297:4364   */\n      tag_494\n        /* \"#utility.yul\":4356:4363   */\n      dup9\n        /* \"#utility.yul\":4347:4353   */\n      dup3\n        /* \"#utility.yul\":4336:4345   */\n      dup10\n        /* \"#utility.yul\":4332:4354   */\n      add\n        /* \"#utility.yul\":4297:4364   */\n      tag_346\n      jump\t// in\n    tag_494:\n        /* \"#utility.yul\":4287:4364   */\n      swap6\n      pop\n        /* \"#utility.yul\":4243:4374   */\n      pop\n        /* \"#utility.yul\":4413:4415   */\n      0x20\n        /* \"#utility.yul\":4439:4492   */\n      tag_495\n        /* \"#utility.yul\":4484:4491   */\n      dup9\n        /* \"#utility.yul\":4475:4481   */\n      dup3\n        /* \"#utility.yul\":4464:4473   */\n      dup10\n        /* \"#utility.yul\":4460:4482   */\n      add\n        /* \"#utility.yul\":4439:4492   */\n      tag_349\n      jump\t// in\n    tag_495:\n        /* \"#utility.yul\":4429:4492   */\n      swap5\n      pop\n        /* \"#utility.yul\":4384:4502   */\n      pop\n        /* \"#utility.yul\":4541:4543   */\n      0x40\n        /* \"#utility.yul\":4567:4618   */\n      tag_496\n        /* \"#utility.yul\":4610:4617   */\n      dup9\n        /* \"#utility.yul\":4601:4607   */\n      dup3\n        /* \"#utility.yul\":4590:4599   */\n      dup10\n        /* \"#utility.yul\":4586:4608   */\n      add\n        /* \"#utility.yul\":4567:4618   */\n      tag_352\n      jump\t// in\n    tag_496:\n        /* \"#utility.yul\":4557:4618   */\n      swap4\n      pop\n        /* \"#utility.yul\":4512:4628   */\n      pop\n        /* \"#utility.yul\":4667:4669   */\n      0x60\n        /* \"#utility.yul\":4693:4746   */\n      tag_497\n        /* \"#utility.yul\":4738:4745   */\n      dup9\n        /* \"#utility.yul\":4729:4735   */\n      dup3\n        /* \"#utility.yul\":4718:4727   */\n      dup10\n        /* \"#utility.yul\":4714:4736   */\n      add\n        /* \"#utility.yul\":4693:4746   */\n      tag_349\n      jump\t// in\n    tag_497:\n        /* \"#utility.yul\":4683:4746   */\n      swap3\n      pop\n        /* \"#utility.yul\":4638:4756   */\n      pop\n        /* \"#utility.yul\":4823:4826   */\n      0x80\n        /* \"#utility.yul\":4812:4821   */\n      dup7\n        /* \"#utility.yul\":4808:4827   */\n      add\n        /* \"#utility.yul\":4795:4828   */\n      calldataload\n        /* \"#utility.yul\":4855:4873   */\n      0xffffffffffffffff\n        /* \"#utility.yul\":4847:4853   */\n      dup2\n        /* \"#utility.yul\":4844:4874   */\n      gt\n        /* \"#utility.yul\":4841:4958   */\n      iszero\n      tag_498\n      jumpi\n        /* \"#utility.yul\":4877:4956   */\n      tag_499\n      tag_341\n      jump\t// in\n    tag_499:\n        /* \"#utility.yul\":4841:4958   */\n    tag_498:\n        /* \"#utility.yul\":4982:5045   */\n      tag_500\n        /* \"#utility.yul\":5037:5044   */\n      dup9\n        /* \"#utility.yul\":5028:5034   */\n      dup3\n        /* \"#utility.yul\":5017:5026   */\n      dup10\n        /* \"#utility.yul\":5013:5035   */\n      add\n        /* \"#utility.yul\":4982:5045   */\n      tag_362\n      jump\t// in\n    tag_500:\n        /* \"#utility.yul\":4972:5045   */\n      swap2\n      pop\n        /* \"#utility.yul\":4766:5055   */\n      pop\n        /* \"#utility.yul\":3947:5062   */\n      swap3\n      swap6\n      pop\n      swap3\n      swap6\n      swap1\n      swap4\n      pop\n      jump\t// out\n        /* \"#utility.yul\":5068:5863   */\n    tag_27:\n        /* \"#utility.yul\":5153:5159   */\n      0x00\n        /* \"#utility.yul\":5161:5167   */\n      dup1\n        /* \"#utility.yul\":5169:5175   */\n      0x00\n        /* \"#utility.yul\":5218:5220   */\n      0x60\n        /* \"#utility.yul\":5206:5215   */\n      dup5\n        /* \"#utility.yul\":5197:5204   */\n      dup7\n        /* \"#utility.yul\":5193:5216   */\n      sub\n        /* \"#utility.yul\":5189:5221   */\n      slt\n        /* \"#utility.yul\":5186:5305   */\n      iszero\n      tag_502\n      jumpi\n        /* \"#utility.yul\":5224:5303   */\n      tag_503\n      tag_340\n      jump\t// in\n    tag_503:\n        /* \"#utility.yul\":5186:5305   */\n    tag_502:\n        /* \"#utility.yul\":5344:5345   */\n      0x00\n        /* \"#utility.yul\":5369:5420   */\n      tag_504\n        /* \"#utility.yul\":5412:5419   */\n      dup7\n        /* \"#utility.yul\":5403:5409   */\n      dup3\n        /* \"#utility.yul\":5392:5401   */\n      dup8\n        /* \"#utility.yul\":5388:5410   */\n      add\n        /* \"#utility.yul\":5369:5420   */\n      tag_352\n      jump\t// in\n    tag_504:\n        /* \"#utility.yul\":5359:5420   */\n      swap4\n      pop\n        /* \"#utility.yul\":5315:5430   */\n      pop\n        /* \"#utility.yul\":5469:5471   */\n      0x20\n        /* \"#utility.yul\":5495:5548   */\n      tag_505\n        /* \"#utility.yul\":5540:5547   */\n      dup7\n        /* \"#utility.yul\":5531:5537   */\n      dup3\n        /* \"#utility.yul\":5520:5529   */\n      dup8\n        /* \"#utility.yul\":5516:5538   */\n      add\n        /* \"#utility.yul\":5495:5548   */\n      tag_349\n      jump\t// in\n    tag_505:\n        /* \"#utility.yul\":5485:5548   */\n      swap3\n      pop\n        /* \"#utility.yul\":5440:5558   */\n      pop\n        /* \"#utility.yul\":5625:5627   */\n      0x40\n        /* \"#utility.yul\":5614:5623   */\n      dup5\n        /* \"#utility.yul\":5610:5628   */\n      add\n        /* \"#utility.yul\":5597:5629   */\n      calldataload\n        /* \"#utility.yul\":5656:5674   */\n      0xffffffffffffffff\n        /* \"#utility.yul\":5648:5654   */\n      dup2\n        /* \"#utility.yul\":5645:5675   */\n      gt\n        /* \"#utility.yul\":5642:5759   */\n      iszero\n      tag_506\n      jumpi\n        /* \"#utility.yul\":5678:5757   */\n      tag_507\n      tag_341\n      jump\t// in\n    tag_507:\n        /* \"#utility.yul\":5642:5759   */\n    tag_506:\n        /* \"#utility.yul\":5783:5846   */\n      tag_508\n        /* \"#utility.yul\":5838:5845   */\n      dup7\n        /* \"#utility.yul\":5829:5835   */\n      dup3\n        /* \"#utility.yul\":5818:5827   */\n      dup8\n        /* \"#utility.yul\":5814:5836   */\n      add\n        /* \"#utility.yul\":5783:5846   */\n      tag_362\n      jump\t// in\n    tag_508:\n        /* \"#utility.yul\":5773:5846   */\n      swap2\n      pop\n        /* \"#utility.yul\":5568:5856   */\n      pop\n        /* \"#utility.yul\":5068:5863   */\n      swap3\n      pop\n      swap3\n      pop\n      swap3\n      jump\t// out\n        /* \"#utility.yul\":5869:6226   */\n    tag_32:\n        /* \"#utility.yul\":5942:5948   */\n      0x00\n        /* \"#utility.yul\":5991:5993   */\n      0x20\n        /* \"#utility.yul\":5979:5988   */\n      dup3\n        /* \"#utility.yul\":5970:5977   */\n      dup5\n        /* \"#utility.yul\":5966:5989   */\n      sub\n        /* \"#utility.yul\":5962:5994   */\n      slt\n        /* \"#utility.yul\":5959:6078   */\n      iszero\n      tag_510\n      jumpi\n        /* \"#utility.yul\":5997:6076   */\n      tag_511\n      tag_340\n      jump\t// in\n    tag_511:\n        /* \"#utility.yul\":5959:6078   */\n    tag_510:\n        /* \"#utility.yul\":6117:6118   */\n      0x00\n        /* \"#utility.yul\":6142:6209   */\n      tag_512\n        /* \"#utility.yul\":6201:6208   */\n      dup5\n        /* \"#utility.yul\":6192:6198   */\n      dup3\n        /* \"#utility.yul\":6181:6190   */\n      dup6\n        /* \"#utility.yul\":6177:6199   */\n      add\n        /* \"#utility.yul\":6142:6209   */\n      tag_346\n      jump\t// in\n    tag_512:\n        /* \"#utility.yul\":6132:6209   */\n      swap2\n      pop\n        /* \"#utility.yul\":6088:6219   */\n      pop\n        /* \"#utility.yul\":5869:6226   */\n      swap3\n      swap2\n      pop\n      pop\n      jump\t// out\n        /* \"#utility.yul\":6232:6350   */\n    tag_363:\n        /* \"#utility.yul\":6319:6343   */\n      tag_514\n        /* \"#utility.yul\":6337:6342   */\n      dup2\n        /* \"#utility.yul\":6319:6343   */\n      tag_347\n      jump\t// in\n    tag_514:\n        /* \"#utility.yul\":6314:6317   */\n      dup3\n        /* \"#utility.yul\":6307:6344   */\n      mstore\n        /* \"#utility.yul\":6232:6350   */\n      pop\n      pop\n      jump\t// out\n        /* \"#utility.yul\":6356:6578   */\n    tag_35:\n        /* \"#utility.yul\":6449:6453   */\n      0x00\n        /* \"#utility.yul\":6487:6489   */\n      0x20\n        /* \"#utility.yul\":6476:6485   */\n      dup3\n        /* \"#utility.yul\":6472:6490   */\n      add\n        /* \"#utility.yul\":6464:6490   */\n      swap1\n      pop\n        /* \"#utility.yul\":6500:6571   */\n      tag_516\n        /* \"#utility.yul\":6568:6569   */\n      0x00\n        /* \"#utility.yul\":6557:6566   */\n      dup4\n        /* \"#utility.yul\":6553:6570   */\n      add\n        /* \"#utility.yul\":6544:6550   */\n      dup5\n        /* \"#utility.yul\":6500:6571   */\n      tag_363\n      jump\t// in\n    tag_516:\n        /* \"#utility.yul\":6356:6578   */\n      swap3\n      swap2\n      pop\n      pop\n      jump\t// out\n        /* \"#utility.yul\":6584:6677   */\n    tag_364:\n        /* \"#utility.yul\":6620:6627   */\n      0x00\n        /* \"#utility.yul\":6660:6670   */\n      0xffffffff\n        /* \"#utility.yul\":6653:6658   */\n      dup3\n        /* \"#utility.yul\":6649:6671   */\n      and\n        /* \"#utility.yul\":6638:6671   */\n      swap1\n      pop\n        /* \"#utility.yul\":6584:6677   */\n      swap2\n      swap1\n      pop\n      jump\t// out\n        /* \"#utility.yul\":6683:6803   */\n    tag_365:\n        /* \"#utility.yul\":6755:6778   */\n      tag_519\n        /* \"#utility.yul\":6772:6777   */\n      dup2\n        /* \"#utility.yul\":6755:6778   */\n      tag_364\n      jump\t// in\n    tag_519:\n        /* \"#utility.yul\":6748:6753   */\n      dup2\n        /* \"#utility.yul\":6745:6779   */\n      eq\n        /* \"#utility.yul\":6735:6797   */\n      tag_520\n      jumpi\n        /* \"#utility.yul\":6793:6794   */\n      0x00\n        /* \"#utility.yul\":6790:6791   */\n      dup1\n        /* \"#utility.yul\":6783:6795   */\n      revert\n        /* \"#utility.yul\":6735:6797   */\n    tag_520:\n        /* \"#utility.yul\":6683:6803   */\n      pop\n      jump\t// out\n        /* \"#utility.yul\":6809:6946   */\n    tag_366:\n        /* \"#utility.yul\":6854:6859   */\n      0x00\n        /* \"#utility.yul\":6892:6898   */\n      dup2\n        /* \"#utility.yul\":6879:6899   */\n      calldataload\n        /* \"#utility.yul\":6870:6899   */\n      swap1\n      pop\n        /* \"#utility.yul\":6908:6940   */\n      tag_522\n        /* \"#utility.yul\":6934:6939   */\n      dup2\n        /* \"#utility.yul\":6908:6940   */\n      tag_365\n      jump\t// in\n    tag_522:\n        /* \"#utility.yul\":6809:6946   */\n      swap3\n      swap2\n      pop\n      pop\n      jump\t// out\n        /* \"#utility.yul\":6952:7739   */\n    tag_39:\n        /* \"#utility.yul\":7049:7055   */\n      0x00\n        /* \"#utility.yul\":7057:7063   */\n      dup1\n        /* \"#utility.yul\":7065:7071   */\n      0x00\n        /* \"#utility.yul\":7073:7079   */\n      dup1\n        /* \"#utility.yul\":7122:7125   */\n      0x80\n        /* \"#utility.yul\":7110:7119   */\n      dup6\n        /* \"#utility.yul\":7101:7108   */\n      dup8\n        /* \"#utility.yul\":7097:7120   */\n      sub\n        /* \"#utility.yul\":7093:7126   */\n      slt\n        /* \"#utility.yul\":7090:7210   */\n      iszero\n      tag_524\n      jumpi\n        /* \"#utility.yul\":7129:7208   */\n      tag_525\n      tag_340\n      jump\t// in\n    tag_525:\n        /* \"#utility.yul\":7090:7210   */\n    tag_524:\n        /* \"#utility.yul\":7249:7250   */\n      0x00\n        /* \"#utility.yul\":7274:7341   */\n      tag_526\n        /* \"#utility.yul\":7333:7340   */\n      dup8\n        /* \"#utility.yul\":7324:7330   */\n      dup3\n        /* \"#utility.yul\":7313:7322   */\n      dup9\n        /* \"#utility.yul\":7309:7331   */\n      add\n        /* \"#utility.yul\":7274:7341   */\n      tag_346\n      jump\t// in\n    tag_526:\n        /* \"#utility.yul\":7264:7341   */\n      swap5\n      pop\n        /* \"#utility.yul\":7220:7351   */\n      pop\n        /* \"#utility.yul\":7390:7392   */\n      0x20\n        /* \"#utility.yul\":7416:7468   */\n      tag_527\n        /* \"#utility.yul\":7460:7467   */\n      dup8\n        /* \"#utility.yul\":7451:7457   */\n      dup3\n        /* \"#utility.yul\":7440:7449   */\n      dup9\n        /* \"#utility.yul\":7436:7458   */\n      add\n        /* \"#utility.yul\":7416:7468   */\n      tag_366\n      jump\t// in\n    tag_527:\n        /* \"#utility.yul\":7406:7468   */\n      swap4\n      pop\n        /* \"#utility.yul\":7361:7478   */\n      pop\n        /* \"#utility.yul\":7517:7519   */\n      0x40\n        /* \"#utility.yul\":7543:7596   */\n      tag_528\n        /* \"#utility.yul\":7588:7595   */\n      dup8\n        /* \"#utility.yul\":7579:7585   */\n      dup3\n        /* \"#utility.yul\":7568:7577   */\n      dup9\n        /* \"#utility.yul\":7564:7586   */\n      add\n        /* \"#utility.yul\":7543:7596   */\n      tag_349\n      jump\t// in\n    tag_528:\n        /* \"#utility.yul\":7533:7596   */\n      swap3\n      pop\n        /* \"#utility.yul\":7488:7606   */\n      pop\n        /* \"#utility.yul\":7645:7647   */\n      0x60\n        /* \"#utility.yul\":7671:7722   */\n      tag_529\n        /* \"#utility.yul\":7714:7721   */\n      dup8\n        /* \"#utility.yul\":7705:7711   */\n      dup3\n        /* \"#utility.yul\":7694:7703   */\n      dup9\n        /* \"#utility.yul\":7690:7712   */\n      add\n        /* \"#utility.yul\":7671:7722   */\n      tag_352\n      jump\t// in\n    tag_529:\n        /* \"#utility.yul\":7661:7722   */\n      swap2\n      pop\n        /* \"#utility.yul\":7616:7732   */\n      pop\n        /* \"#utility.yul\":6952:7739   */\n      swap3\n      swap6\n      swap2\n      swap5\n      pop\n      swap3\n      pop\n      jump\t// out\n        /* \"#utility.yul\":7745:8070   */\n    tag_44:\n        /* \"#utility.yul\":7802:7808   */\n      0x00\n        /* \"#utility.yul\":7851:7853   */\n      0x20\n        /* \"#utility.yul\":7839:7848   */\n      dup3\n        /* \"#utility.yul\":7830:7837   */\n      dup5\n        /* \"#utility.yul\":7826:7849   */\n      sub\n        /* \"#utility.yul\":7822:7854   */\n      slt\n        /* \"#utility.yul\":7819:7938   */\n      iszero\n      tag_531\n      jumpi\n        /* \"#utility.yul\":7857:7936   */\n      tag_532\n      tag_340\n      jump\t// in\n    tag_532:\n        /* \"#utility.yul\":7819:7938   */\n    tag_531:\n        /* \"#utility.yul\":7977:7978   */\n      0x00\n        /* \"#utility.yul\":8002:8053   */\n      tag_533\n        /* \"#utility.yul\":8045:8052   */\n      dup5\n        /* \"#utility.yul\":8036:8042   */\n      dup3\n        /* \"#utility.yul\":8025:8034   */\n      dup6\n        /* \"#utility.yul\":8021:8043   */\n      add\n        /* \"#utility.yul\":8002:8053   */\n      tag_352\n      jump\t// in\n    tag_533:\n        /* \"#utility.yul\":7992:8053   */\n      swap2\n      pop\n        /* \"#utility.yul\":7948:8063   */\n      pop\n        /* \"#utility.yul\":7745:8070   */\n      swap3\n      swap2\n      pop\n      pop\n      jump\t// out\n        /* \"#utility.yul\":8076:8211   */\n    tag_367:\n        /* \"#utility.yul\":8164:8170   */\n      0x00\n        /* \"#utility.yul\":8198:8203   */\n      dup2\n        /* \"#utility.yul\":8192:8204   */\n      mload\n        /* \"#utility.yul\":8182:8204   */\n      swap1\n      pop\n        /* \"#utility.yul\":8076:8211   */\n      swap2\n      swap1\n      pop\n      jump\t// out\n        /* \"#utility.yul\":8217:8422   */\n    tag_368:\n        /* \"#utility.yul\":8337:8348   */\n      0x00\n        /* \"#utility.yul\":8371:8377   */\n      dup3\n        /* \"#utility.yul\":8366:8369   */\n      dup3\n        /* \"#utility.yul\":8359:8378   */\n      mstore\n        /* \"#utility.yul\":8411:8415   */\n      0x20\n        /* \"#utility.yul\":8406:8409   */\n      dup3\n        /* \"#utility.yul\":8402:8416   */\n      add\n        /* \"#utility.yul\":8387:8416   */\n      swap1\n      pop\n        /* \"#utility.yul\":8217:8422   */\n      swap3\n      swap2\n      pop\n      pop\n      jump\t// out\n        /* \"#utility.yul\":8428:8581   */\n    tag_369:\n        /* \"#utility.yul\":8516:8520   */\n      0x00\n        /* \"#utility.yul\":8539:8542   */\n      dup2\n        /* \"#utility.yul\":8531:8542   */\n      swap1\n      pop\n        /* \"#utility.yul\":8569:8573   */\n      0x20\n        /* \"#utility.yul\":8564:8567   */\n      dup3\n        /* \"#utility.yul\":8560:8574   */\n      add\n        /* \"#utility.yul\":8552:8574   */\n      swap1\n      pop\n        /* \"#utility.yul\":8428:8581   */\n      swap2\n      swap1\n      pop\n      jump\t// out\n        /* \"#utility.yul\":8587:8695   */\n    tag_370:\n        /* \"#utility.yul\":8664:8688   */\n      tag_538\n        /* \"#utility.yul\":8682:8687   */\n      dup2\n        /* \"#utility.yul\":8664:8688   */\n      tag_343\n      jump\t// in\n    tag_538:\n        /* \"#utility.yul\":8659:8662   */\n      dup3\n        /* \"#utility.yul\":8652:8689   */\n      mstore\n        /* \"#utility.yul\":8587:8695   */\n      pop\n      pop\n      jump\t// out\n        /* \"#utility.yul\":8701:8809   */\n    tag_371:\n        /* \"#utility.yul\":8778:8802   */\n      tag_540\n        /* \"#utility.yul\":8796:8801   */\n      dup2\n        /* \"#utility.yul\":8778:8802   */\n      tag_347\n      jump\t// in\n    tag_540:\n        /* \"#utility.yul\":8773:8776   */\n      dup3\n        /* \"#utility.yul\":8766:8803   */\n      mstore\n        /* \"#utility.yul\":8701:8809   */\n      pop\n      pop\n      jump\t// out\n        /* \"#utility.yul\":8815:8914   */\n    tag_372:\n        /* \"#utility.yul\":8867:8873   */\n      0x00\n        /* \"#utility.yul\":8901:8906   */\n      dup2\n        /* \"#utility.yul\":8895:8907   */\n      mload\n        /* \"#utility.yul\":8885:8907   */\n      swap1\n      pop\n        /* \"#utility.yul\":8815:8914   */\n      swap2\n      swap1\n      pop\n      jump\t// out\n        /* \"#utility.yul\":8920:9079   */\n    tag_373:\n        /* \"#utility.yul\":8994:9005   */\n      0x00\n        /* \"#utility.yul\":9028:9034   */\n      dup3\n        /* \"#utility.yul\":9023:9026   */\n      dup3\n        /* \"#utility.yul\":9016:9035   */\n      mstore\n        /* \"#utility.yul\":9068:9072   */\n      0x20\n        /* \"#utility.yul\":9063:9066   */\n      dup3\n        /* \"#utility.yul\":9059:9073   */\n      add\n        /* \"#utility.yul\":9044:9073   */\n      swap1\n      pop\n        /* \"#utility.yul\":8920:9079   */\n      swap3\n      swap2\n      pop\n      pop\n      jump\t// out\n        /* \"#utility.yul\":9085:9224   */\n    tag_374:\n        /* \"#utility.yul\":9174:9180   */\n      dup3\n        /* \"#utility.yul\":9169:9172   */\n      dup2\n        /* \"#utility.yul\":9164:9167   */\n      dup4\n        /* \"#utility.yul\":9158:9181   */\n      mcopy\n        /* \"#utility.yul\":9215:9216   */\n      0x00\n        /* \"#utility.yul\":9206:9212   */\n      dup4\n        /* \"#utility.yul\":9201:9204   */\n      dup4\n        /* \"#utility.yul\":9197:9213   */\n      add\n        /* \"#utility.yul\":9190:9217   */\n      mstore\n        /* \"#utility.yul\":9085:9224   */\n      pop\n      pop\n      pop\n      jump\t// out\n        /* \"#utility.yul\":9230:9587   */\n    tag_375:\n        /* \"#utility.yul\":9308:9311   */\n      0x00\n        /* \"#utility.yul\":9336:9375   */\n      tag_545\n        /* \"#utility.yul\":9369:9374   */\n      dup3\n        /* \"#utility.yul\":9336:9375   */\n      tag_372\n      jump\t// in\n    tag_545:\n        /* \"#utility.yul\":9391:9452   */\n      tag_546\n        /* \"#utility.yul\":9445:9451   */\n      dup2\n        /* \"#utility.yul\":9440:9443   */\n      dup6\n        /* \"#utility.yul\":9391:9452   */\n      tag_373\n      jump\t// in\n    tag_546:\n        /* \"#utility.yul\":9384:9452   */\n      swap4\n      pop\n        /* \"#utility.yul\":9461:9526   */\n      tag_547\n        /* \"#utility.yul\":9519:9525   */\n      dup2\n        /* \"#utility.yul\":9514:9517   */\n      dup6\n        /* \"#utility.yul\":9507:9511   */\n      0x20\n        /* \"#utility.yul\":9500:9505   */\n      dup7\n        /* \"#utility.yul\":9496:9512   */\n      add\n        /* \"#utility.yul\":9461:9526   */\n      tag_374\n      jump\t// in\n    tag_547:\n        /* \"#utility.yul\":9551:9580   */\n      tag_548\n        /* \"#utility.yul\":9573:9579   */\n      dup2\n        /* \"#utility.yul\":9551:9580   */\n      tag_355\n      jump\t// in\n    tag_548:\n        /* \"#utility.yul\":9546:9549   */\n      dup5\n        /* \"#utility.yul\":9542:9581   */\n      add\n        /* \"#utility.yul\":9535:9581   */\n      swap2\n      pop\n        /* \"#utility.yul\":9312:9587   */\n      pop\n        /* \"#utility.yul\":9230:9587   */\n      swap3\n      swap2\n      pop\n      pop\n      jump\t// out\n        /* \"#utility.yul\":9593:9683   */\n    tag_376:\n        /* \"#utility.yul\":9627:9634   */\n      0x00\n        /* \"#utility.yul\":9670:9675   */\n      dup2\n        /* \"#utility.yul\":9663:9676   */\n      iszero\n        /* \"#utility.yul\":9656:9677   */\n      iszero\n        /* \"#utility.yul\":9645:9677   */\n      swap1\n      pop\n        /* \"#utility.yul\":9593:9683   */\n      swap2\n      swap1\n      pop\n      jump\t// out\n        /* \"#utility.yul\":9689:9788   */\n    tag_377:\n        /* \"#utility.yul\":9760:9781   */\n      tag_551\n        /* \"#utility.yul\":9775:9780   */\n      dup2\n        /* \"#utility.yul\":9760:9781   */\n      tag_376\n      jump\t// in\n    tag_551:\n        /* \"#utility.yul\":9755:9758   */\n      dup3\n        /* \"#utility.yul\":9748:9782   */\n      mstore\n        /* \"#utility.yul\":9689:9788   */\n      pop\n      pop\n      jump\t// out\n        /* \"#utility.yul\":9840:11309   */\n    tag_378:\n        /* \"#utility.yul\":9941:9944   */\n      0x00\n        /* \"#utility.yul\":9977:9981   */\n      0xe0\n        /* \"#utility.yul\":9972:9975   */\n      dup4\n        /* \"#utility.yul\":9968:9982   */\n      add\n        /* \"#utility.yul\":10065:10069   */\n      0x00\n        /* \"#utility.yul\":10058:10063   */\n      dup4\n        /* \"#utility.yul\":10054:10070   */\n      add\n        /* \"#utility.yul\":10048:10071   */\n      mload\n        /* \"#utility.yul\":10084:10147   */\n      tag_553\n        /* \"#utility.yul\":10141:10145   */\n      0x00\n        /* \"#utility.yul\":10136:10139   */\n      dup7\n        /* \"#utility.yul\":10132:10146   */\n      add\n        /* \"#utility.yul\":10118:10130   */\n      dup3\n        /* \"#utility.yul\":10084:10147   */\n      tag_370\n      jump\t// in\n    tag_553:\n        /* \"#utility.yul\":9992:10157   */\n      pop\n        /* \"#utility.yul\":10241:10245   */\n      0x20\n        /* \"#utility.yul\":10234:10239   */\n      dup4\n        /* \"#utility.yul\":10230:10246   */\n      add\n        /* \"#utility.yul\":10224:10247   */\n      mload\n        /* \"#utility.yul\":10260:10323   */\n      tag_554\n        /* \"#utility.yul\":10317:10321   */\n      0x20\n        /* \"#utility.yul\":10312:10315   */\n      dup7\n        /* \"#utility.yul\":10308:10322   */\n      add\n        /* \"#utility.yul\":10294:10306   */\n      dup3\n        /* \"#utility.yul\":10260:10323   */\n      tag_371\n      jump\t// in\n    tag_554:\n        /* \"#utility.yul\":10167:10333   */\n      pop\n        /* \"#utility.yul\":10422:10426   */\n      0x40\n        /* \"#utility.yul\":10415:10420   */\n      dup4\n        /* \"#utility.yul\":10411:10427   */\n      add\n        /* \"#utility.yul\":10405:10428   */\n      mload\n        /* \"#utility.yul\":10441:10504   */\n      tag_555\n        /* \"#utility.yul\":10498:10502   */\n      0x40\n        /* \"#utility.yul\":10493:10496   */\n      dup7\n        /* \"#utility.yul\":10489:10503   */\n      add\n        /* \"#utility.yul\":10475:10487   */\n      dup3\n        /* \"#utility.yul\":10441:10504   */\n      tag_371\n      jump\t// in\n    tag_555:\n        /* \"#utility.yul\":10343:10514   */\n      pop\n        /* \"#utility.yul\":10597:10601   */\n      0x60\n        /* \"#utility.yul\":10590:10595   */\n      dup4\n        /* \"#utility.yul\":10586:10602   */\n      add\n        /* \"#utility.yul\":10580:10603   */\n      mload\n        /* \"#utility.yul\":10650:10653   */\n      dup5\n        /* \"#utility.yul\":10644:10648   */\n      dup3\n        /* \"#utility.yul\":10640:10654   */\n      sub\n        /* \"#utility.yul\":10633:10637   */\n      0x60\n        /* \"#utility.yul\":10628:10631   */\n      dup7\n        /* \"#utility.yul\":10624:10638   */\n      add\n        /* \"#utility.yul\":10617:10655   */\n      mstore\n        /* \"#utility.yul\":10676:10749   */\n      tag_556\n        /* \"#utility.yul\":10744:10748   */\n      dup3\n        /* \"#utility.yul\":10730:10742   */\n      dup3\n        /* \"#utility.yul\":10676:10749   */\n      tag_375\n      jump\t// in\n    tag_556:\n        /* \"#utility.yul\":10668:10749   */\n      swap2\n      pop\n        /* \"#utility.yul\":10524:10760   */\n      pop\n        /* \"#utility.yul\":10847:10851   */\n      0x80\n        /* \"#utility.yul\":10840:10845   */\n      dup4\n        /* \"#utility.yul\":10836:10852   */\n      add\n        /* \"#utility.yul\":10830:10853   */\n      mload\n        /* \"#utility.yul\":10866:10923   */\n      tag_557\n        /* \"#utility.yul\":10917:10921   */\n      0x80\n        /* \"#utility.yul\":10912:10915   */\n      dup7\n        /* \"#utility.yul\":10908:10922   */\n      add\n        /* \"#utility.yul\":10894:10906   */\n      dup3\n        /* \"#utility.yul\":10866:10923   */\n      tag_377\n      jump\t// in\n    tag_557:\n        /* \"#utility.yul\":10770:10933   */\n      pop\n        /* \"#utility.yul\":11019:11023   */\n      0xa0\n        /* \"#utility.yul\":11012:11017   */\n      dup4\n        /* \"#utility.yul\":11008:11024   */\n      add\n        /* \"#utility.yul\":11002:11025   */\n      mload\n        /* \"#utility.yul\":11038:11095   */\n      tag_558\n        /* \"#utility.yul\":11089:11093   */\n      0xa0\n        /* \"#utility.yul\":11084:11087   */\n      dup7\n        /* \"#utility.yul\":11080:11094   */\n      add\n        /* \"#utility.yul\":11066:11078   */\n      dup3\n        /* \"#utility.yul\":11038:11095   */\n      tag_377\n      jump\t// in\n    tag_558:\n        /* \"#utility.yul\":10943:11105   */\n      pop\n        /* \"#utility.yul\":11196:11200   */\n      0xc0\n        /* \"#utility.yul\":11189:11194   */\n      dup4\n        /* \"#utility.yul\":11185:11201   */\n      add\n        /* \"#utility.yul\":11179:11202   */\n      mload\n        /* \"#utility.yul\":11215:11272   */\n      tag_559\n        /* \"#utility.yul\":11266:11270   */\n      0xc0\n        /* \"#utility.yul\":11261:11264   */\n      dup7\n        /* \"#utility.yul\":11257:11271   */\n      add\n        /* \"#utility.yul\":11243:11255   */\n      dup3\n        /* \"#utility.yul\":11215:11272   */\n      tag_377\n      jump\t// in\n    tag_559:\n        /* \"#utility.yul\":11115:11282   */\n      pop\n        /* \"#utility.yul\":11299:11303   */\n      dup1\n        /* \"#utility.yul\":11292:11303   */\n      swap2\n      pop\n        /* \"#utility.yul\":9946:11309   */\n      pop\n        /* \"#utility.yul\":9840:11309   */\n      swap3\n      swap2\n      pop\n      pop\n      jump\t// out\n        /* \"#utility.yul\":11315:11555   */\n    tag_379:\n        /* \"#utility.yul\":11426:11436   */\n      0x00\n        /* \"#utility.yul\":11461:11549   */\n      tag_561\n        /* \"#utility.yul\":11545:11548   */\n      dup4\n        /* \"#utility.yul\":11537:11543   */\n      dup4\n        /* \"#utility.yul\":11461:11549   */\n      tag_378\n      jump\t// in\n    tag_561:\n        /* \"#utility.yul\":11447:11549   */\n      swap1\n      pop\n        /* \"#utility.yul\":11315:11555   */\n      swap3\n      swap2\n      pop\n      pop\n      jump\t// out\n        /* \"#utility.yul\":11561:11695   */\n    tag_380:\n        /* \"#utility.yul\":11652:11656   */\n      0x00\n        /* \"#utility.yul\":11684:11688   */\n      0x20\n        /* \"#utility.yul\":11679:11682   */\n      dup3\n        /* \"#utility.yul\":11675:11689   */\n      add\n        /* \"#utility.yul\":11667:11689   */\n      swap1\n      pop\n        /* \"#utility.yul\":11561:11695   */\n      swap2\n      swap1\n      pop\n      jump\t// out\n        /* \"#utility.yul\":11751:12830   */\n    tag_381:\n        /* \"#utility.yul\":11912:11915   */\n      0x00\n        /* \"#utility.yul\":11941:12016   */\n      tag_564\n        /* \"#utility.yul\":12010:12015   */\n      dup3\n        /* \"#utility.yul\":11941:12016   */\n      tag_367\n      jump\t// in\n    tag_564:\n        /* \"#utility.yul\":12032:12139   */\n      tag_565\n        /* \"#utility.yul\":12132:12138   */\n      dup2\n        /* \"#utility.yul\":12127:12130   */\n      dup6\n        /* \"#utility.yul\":12032:12139   */\n      tag_368\n      jump\t// in\n    tag_565:\n        /* \"#utility.yul\":12025:12139   */\n      swap4\n      pop\n        /* \"#utility.yul\":12165:12168   */\n      dup4\n        /* \"#utility.yul\":12210:12214   */\n      0x20\n        /* \"#utility.yul\":12202:12208   */\n      dup3\n        /* \"#utility.yul\":12198:12215   */\n      mul\n        /* \"#utility.yul\":12193:12196   */\n      dup6\n        /* \"#utility.yul\":12189:12216   */\n      add\n        /* \"#utility.yul\":12240:12317   */\n      tag_566\n        /* \"#utility.yul\":12311:12316   */\n      dup6\n        /* \"#utility.yul\":12240:12317   */\n      tag_369\n      jump\t// in\n    tag_566:\n        /* \"#utility.yul\":12340:12347   */\n      dup1\n        /* \"#utility.yul\":12371:12372   */\n      0x00\n        /* \"#utility.yul\":12356:12785   */\n    tag_567:\n        /* \"#utility.yul\":12381:12387   */\n      dup6\n        /* \"#utility.yul\":12378:12379   */\n      dup2\n        /* \"#utility.yul\":12375:12388   */\n      lt\n        /* \"#utility.yul\":12356:12785   */\n      iszero\n      tag_569\n      jumpi\n        /* \"#utility.yul\":12452:12461   */\n      dup5\n        /* \"#utility.yul\":12446:12450   */\n      dup5\n        /* \"#utility.yul\":12442:12462   */\n      sub\n        /* \"#utility.yul\":12437:12440   */\n      dup10\n        /* \"#utility.yul\":12430:12463   */\n      mstore\n        /* \"#utility.yul\":12503:12509   */\n      dup2\n        /* \"#utility.yul\":12497:12510   */\n      mload\n        /* \"#utility.yul\":12531:12637   */\n      tag_570\n        /* \"#utility.yul\":12632:12636   */\n      dup6\n        /* \"#utility.yul\":12617:12630   */\n      dup3\n        /* \"#utility.yul\":12531:12637   */\n      tag_379\n      jump\t// in\n    tag_570:\n        /* \"#utility.yul\":12523:12637   */\n      swap5\n      pop\n        /* \"#utility.yul\":12660:12741   */\n      tag_571\n        /* \"#utility.yul\":12734:12740   */\n      dup4\n        /* \"#utility.yul\":12660:12741   */\n      tag_380\n      jump\t// in\n    tag_571:\n        /* \"#utility.yul\":12650:12741   */\n      swap3\n      pop\n        /* \"#utility.yul\":12770:12774   */\n      0x20\n        /* \"#utility.yul\":12765:12768   */\n      dup11\n        /* \"#utility.yul\":12761:12775   */\n      add\n        /* \"#utility.yul\":12754:12775   */\n      swap10\n      pop\n        /* \"#utility.yul\":12416:12785   */\n      pop\n        /* \"#utility.yul\":12403:12404   */\n      0x01\n        /* \"#utility.yul\":12400:12401   */\n      dup2\n        /* \"#utility.yul\":12396:12405   */\n      add\n        /* \"#utility.yul\":12391:12405   */\n      swap1\n      pop\n        /* \"#utility.yul\":12356:12785   */\n      jump(tag_567)\n    tag_569:\n        /* \"#utility.yul\":12360:12374   */\n      pop\n        /* \"#utility.yul\":12801:12805   */\n      dup3\n        /* \"#utility.yul\":12794:12805   */\n      swap8\n      pop\n        /* \"#utility.yul\":12821:12824   */\n      dup8\n        /* \"#utility.yul\":12814:12824   */\n      swap6\n      pop\n        /* \"#utility.yul\":11917:12830   */\n      pop\n      pop\n      pop\n      pop\n      pop\n        /* \"#utility.yul\":11751:12830   */\n      swap3\n      swap2\n      pop\n      pop\n      jump\t// out\n        /* \"#utility.yul\":12836:13293   */\n    tag_47:\n        /* \"#utility.yul\":13021:13025   */\n      0x00\n        /* \"#utility.yul\":13059:13061   */\n      0x20\n        /* \"#utility.yul\":13048:13057   */\n      dup3\n        /* \"#utility.yul\":13044:13062   */\n      add\n        /* \"#utility.yul\":13036:13062   */\n      swap1\n      pop\n        /* \"#utility.yul\":13108:13117   */\n      dup2\n        /* \"#utility.yul\":13102:13106   */\n      dup2\n        /* \"#utility.yul\":13098:13118   */\n      sub\n        /* \"#utility.yul\":13094:13095   */\n      0x00\n        /* \"#utility.yul\":13083:13092   */\n      dup4\n        /* \"#utility.yul\":13079:13096   */\n      add\n        /* \"#utility.yul\":13072:13119   */\n      mstore\n        /* \"#utility.yul\":13136:13286   */\n      tag_573\n        /* \"#utility.yul\":13281:13285   */\n      dup2\n        /* \"#utility.yul\":13272:13278   */\n      dup5\n        /* \"#utility.yul\":13136:13286   */\n      tag_381\n      jump\t// in\n    tag_573:\n        /* \"#utility.yul\":13128:13286   */\n      swap1\n      pop\n        /* \"#utility.yul\":12836:13293   */\n      swap3\n      swap2\n      pop\n      pop\n      jump\t// out\n        /* \"#utility.yul\":13299:13421   */\n    tag_382:\n        /* \"#utility.yul\":13372:13396   */\n      tag_575\n        /* \"#utility.yul\":13390:13395   */\n      dup2\n        /* \"#utility.yul\":13372:13396   */\n      tag_343\n      jump\t// in\n    tag_575:\n        /* \"#utility.yul\":13365:13370   */\n      dup2\n        /* \"#utility.yul\":13362:13397   */\n      eq\n        /* \"#utility.yul\":13352:13415   */\n      tag_576\n      jumpi\n        /* \"#utility.yul\":13411:13412   */\n      0x00\n        /* \"#utility.yul\":13408:13409   */\n      dup1\n        /* \"#utility.yul\":13401:13413   */\n      revert\n        /* \"#utility.yul\":13352:13415   */\n    tag_576:\n        /* \"#utility.yul\":13299:13421   */\n      pop\n      jump\t// out\n        /* \"#utility.yul\":13427:13566   */\n    tag_383:\n        /* \"#utility.yul\":13473:13478   */\n      0x00\n        /* \"#utility.yul\":13511:13517   */\n      dup2\n        /* \"#utility.yul\":13498:13518   */\n      calldataload\n        /* \"#utility.yul\":13489:13518   */\n      swap1\n      pop\n        /* \"#utility.yul\":13527:13560   */\n      tag_578\n        /* \"#utility.yul\":13554:13559   */\n      dup2\n        /* \"#utility.yul\":13527:13560   */\n      tag_382\n      jump\t// in\n    tag_578:\n        /* \"#utility.yul\":13427:13566   */\n      swap3\n      swap2\n      pop\n      pop\n      jump\t// out\n        /* \"#utility.yul\":13572:14187   */\n    tag_51:\n        /* \"#utility.yul\":13647:13653   */\n      0x00\n        /* \"#utility.yul\":13655:13661   */\n      dup1\n        /* \"#utility.yul\":13663:13669   */\n      0x00\n        /* \"#utility.yul\":13712:13714   */\n      0x60\n        /* \"#utility.yul\":13700:13709   */\n      dup5\n        /* \"#utility.yul\":13691:13698   */\n      dup7\n        /* \"#utility.yul\":13687:13710   */\n      sub\n        /* \"#utility.yul\":13683:13715   */\n      slt\n        /* \"#utility.yul\":13680:13799   */\n      iszero\n      tag_580\n      jumpi\n        /* \"#utility.yul\":13718:13797   */\n      tag_581\n      tag_340\n      jump\t// in\n    tag_581:\n        /* \"#utility.yul\":13680:13799   */\n    tag_580:\n        /* \"#utility.yul\":13838:13839   */\n      0x00\n        /* \"#utility.yul\":13863:13916   */\n      tag_582\n        /* \"#utility.yul\":13908:13915   */\n      dup7\n        /* \"#utility.yul\":13899:13905   */\n      dup3\n        /* \"#utility.yul\":13888:13897   */\n      dup8\n        /* \"#utility.yul\":13884:13906   */\n      add\n        /* \"#utility.yul\":13863:13916   */\n      tag_383\n      jump\t// in\n    tag_582:\n        /* \"#utility.yul\":13853:13916   */\n      swap4\n      pop\n        /* \"#utility.yul\":13809:13926   */\n      pop\n        /* \"#utility.yul\":13965:13967   */\n      0x20\n        /* \"#utility.yul\":13991:14042   */\n      tag_583\n        /* \"#utility.yul\":14034:14041   */\n      dup7\n        /* \"#utility.yul\":14025:14031   */\n      dup3\n        /* \"#utility.yul\":14014:14023   */\n      dup8\n        /* \"#utility.yul\":14010:14032   */\n      add\n        /* \"#utility.yul\":13991:14042   */\n      tag_352\n      jump\t// in\n    tag_583:\n        /* \"#utility.yul\":13981:14042   */\n      swap3\n      pop\n        /* \"#utility.yul\":13936:14052   */\n      pop\n        /* \"#utility.yul\":14091:14093   */\n      0x40\n        /* \"#utility.yul\":14117:14170   */\n      tag_584\n        /* \"#utility.yul\":14162:14169   */\n      dup7\n        /* \"#utility.yul\":14153:14159   */\n      dup3\n        /* \"#utility.yul\":14142:14151   */\n      dup8\n        /* \"#utility.yul\":14138:14160   */\n      add\n        /* \"#utility.yul\":14117:14170   */\n      tag_349\n      jump\t// in\n    tag_584:\n        /* \"#utility.yul\":14107:14170   */\n      swap2\n      pop\n        /* \"#utility.yul\":14062:14180   */\n      pop\n        /* \"#utility.yul\":13572:14187   */\n      swap3\n      pop\n      swap3\n      pop\n      swap3\n      jump\t// out\n        /* \"#utility.yul\":14193:14311   */\n    tag_384:\n        /* \"#utility.yul\":14280:14304   */\n      tag_586\n        /* \"#utility.yul\":14298:14303   */\n      dup2\n        /* \"#utility.yul\":14280:14304   */\n      tag_343\n      jump\t// in\n    tag_586:\n        /* \"#utility.yul\":14275:14278   */\n      dup3\n        /* \"#utility.yul\":14268:14305   */\n      mstore\n        /* \"#utility.yul\":14193:14311   */\n      pop\n      pop\n      jump\t// out\n        /* \"#utility.yul\":14317:14486   */\n    tag_385:\n        /* \"#utility.yul\":14401:14412   */\n      0x00\n        /* \"#utility.yul\":14435:14441   */\n      dup3\n        /* \"#utility.yul\":14430:14433   */\n      dup3\n        /* \"#utility.yul\":14423:14442   */\n      mstore\n        /* \"#utility.yul\":14475:14479   */\n      0x20\n        /* \"#utility.yul\":14470:14473   */\n      dup3\n        /* \"#utility.yul\":14466:14480   */\n      add\n        /* \"#utility.yul\":14451:14480   */\n      swap1\n      pop\n        /* \"#utility.yul\":14317:14486   */\n      swap3\n      swap2\n      pop\n      pop\n      jump\t// out\n        /* \"#utility.yul\":14492:14869   */\n    tag_386:\n        /* \"#utility.yul\":14580:14583   */\n      0x00\n        /* \"#utility.yul\":14608:14647   */\n      tag_589\n        /* \"#utility.yul\":14641:14646   */\n      dup3\n        /* \"#utility.yul\":14608:14647   */\n      tag_372\n      jump\t// in\n    tag_589:\n        /* \"#utility.yul\":14663:14734   */\n      tag_590\n        /* \"#utility.yul\":14727:14733   */\n      dup2\n        /* \"#utility.yul\":14722:14725   */\n      dup6\n        /* \"#utility.yul\":14663:14734   */\n      tag_385\n      jump\t// in\n    tag_590:\n        /* \"#utility.yul\":14656:14734   */\n      swap4\n      pop\n        /* \"#utility.yul\":14743:14808   */\n      tag_591\n        /* \"#utility.yul\":14801:14807   */\n      dup2\n        /* \"#utility.yul\":14796:14799   */\n      dup6\n        /* \"#utility.yul\":14789:14793   */\n      0x20\n        /* \"#utility.yul\":14782:14787   */\n      dup7\n        /* \"#utility.yul\":14778:14794   */\n      add\n        /* \"#utility.yul\":14743:14808   */\n      tag_374\n      jump\t// in\n    tag_591:\n        /* \"#utility.yul\":14833:14862   */\n      tag_592\n        /* \"#utility.yul\":14855:14861   */\n      dup2\n        /* \"#utility.yul\":14833:14862   */\n      tag_355\n      jump\t// in\n    tag_592:\n        /* \"#utility.yul\":14828:14831   */\n      dup5\n        /* \"#utility.yul\":14824:14863   */\n      add\n        /* \"#utility.yul\":14817:14863   */\n      swap2\n      pop\n        /* \"#utility.yul\":14584:14869   */\n      pop\n        /* \"#utility.yul\":14492:14869   */\n      swap3\n      swap2\n      pop\n      pop\n      jump\t// out\n        /* \"#utility.yul\":14875:14984   */\n    tag_387:\n        /* \"#utility.yul\":14956:14977   */\n      tag_594\n        /* \"#utility.yul\":14971:14976   */\n      dup2\n        /* \"#utility.yul\":14956:14977   */\n      tag_376\n      jump\t// in\n    tag_594:\n        /* \"#utility.yul\":14951:14954   */\n      dup3\n        /* \"#utility.yul\":14944:14978   */\n      mstore\n        /* \"#utility.yul\":14875:14984   */\n      pop\n      pop\n      jump\t// out\n        /* \"#utility.yul\":14990:15733   */\n    tag_54:\n        /* \"#utility.yul\":15209:15213   */\n      0x00\n        /* \"#utility.yul\":15247:15250   */\n      0xa0\n        /* \"#utility.yul\":15236:15245   */\n      dup3\n        /* \"#utility.yul\":15232:15251   */\n      add\n        /* \"#utility.yul\":15224:15251   */\n      swap1\n      pop\n        /* \"#utility.yul\":15261:15332   */\n      tag_596\n        /* \"#utility.yul\":15329:15330   */\n      0x00\n        /* \"#utility.yul\":15318:15327   */\n      dup4\n        /* \"#utility.yul\":15314:15331   */\n      add\n        /* \"#utility.yul\":15305:15311   */\n      dup9\n        /* \"#utility.yul\":15261:15332   */\n      tag_384\n      jump\t// in\n    tag_596:\n        /* \"#utility.yul\":15342:15414   */\n      tag_597\n        /* \"#utility.yul\":15410:15412   */\n      0x20\n        /* \"#utility.yul\":15399:15408   */\n      dup4\n        /* \"#utility.yul\":15395:15413   */\n      add\n        /* \"#utility.yul\":15386:15392   */\n      dup8\n        /* \"#utility.yul\":15342:15414   */\n      tag_363\n      jump\t// in\n    tag_597:\n        /* \"#utility.yul\":15461:15470   */\n      dup2\n        /* \"#utility.yul\":15455:15459   */\n      dup2\n        /* \"#utility.yul\":15451:15471   */\n      sub\n        /* \"#utility.yul\":15446:15448   */\n      0x40\n        /* \"#utility.yul\":15435:15444   */\n      dup4\n        /* \"#utility.yul\":15431:15449   */\n      add\n        /* \"#utility.yul\":15424:15472   */\n      mstore\n        /* \"#utility.yul\":15489:15567   */\n      tag_598\n        /* \"#utility.yul\":15562:15566   */\n      dup2\n        /* \"#utility.yul\":15553:15559   */\n      dup7\n        /* \"#utility.yul\":15489:15567   */\n      tag_386\n      jump\t// in\n    tag_598:\n        /* \"#utility.yul\":15481:15567   */\n      swap1\n      pop\n        /* \"#utility.yul\":15577:15643   */\n      tag_599\n        /* \"#utility.yul\":15639:15641   */\n      0x60\n        /* \"#utility.yul\":15628:15637   */\n      dup4\n        /* \"#utility.yul\":15624:15642   */\n      add\n        /* \"#utility.yul\":15615:15621   */\n      dup6\n        /* \"#utility.yul\":15577:15643   */\n      tag_387\n      jump\t// in\n    tag_599:\n        /* \"#utility.yul\":15653:15726   */\n      tag_600\n        /* \"#utility.yul\":15721:15724   */\n      0x80\n        /* \"#utility.yul\":15710:15719   */\n      dup4\n        /* \"#utility.yul\":15706:15725   */\n      add\n        /* \"#utility.yul\":15697:15703   */\n      dup5\n        /* \"#utility.yul\":15653:15726   */\n      tag_363\n      jump\t// in\n    tag_600:\n        /* \"#utility.yul\":14990:15733   */\n      swap7\n      swap6\n      pop\n      pop\n      pop\n      pop\n      pop\n      pop\n      jump\t// out\n        /* \"#utility.yul\":15739:15961   */\n    tag_66:\n        /* \"#utility.yul\":15832:15836   */\n      0x00\n        /* \"#utility.yul\":15870:15872   */\n      0x20\n        /* \"#utility.yul\":15859:15868   */\n      dup3\n        /* \"#utility.yul\":15855:15873   */\n      add\n        /* \"#utility.yul\":15847:15873   */\n      swap1\n      pop\n        /* \"#utility.yul\":15883:15954   */\n      tag_602\n        /* \"#utility.yul\":15951:15952   */\n      0x00\n        /* \"#utility.yul\":15940:15949   */\n      dup4\n        /* \"#utility.yul\":15936:15953   */\n      add\n        /* \"#utility.yul\":15927:15933   */\n      dup5\n        /* \"#utility.yul\":15883:15954   */\n      tag_384\n      jump\t// in\n    tag_602:\n        /* \"#utility.yul\":15739:15961   */\n      swap3\n      swap2\n      pop\n      pop\n      jump\t// out\n        /* \"#utility.yul\":15967:16580   */\n    tag_70:\n        /* \"#utility.yul\":16041:16047   */\n      0x00\n        /* \"#utility.yul\":16049:16055   */\n      dup1\n        /* \"#utility.yul\":16057:16063   */\n      0x00\n        /* \"#utility.yul\":16106:16108   */\n      0x60\n        /* \"#utility.yul\":16094:16103   */\n      dup5\n        /* \"#utility.yul\":16085:16092   */\n      dup7\n        /* \"#utility.yul\":16081:16104   */\n      sub\n        /* \"#utility.yul\":16077:16109   */\n      slt\n        /* \"#utility.yul\":16074:16193   */\n      iszero\n      tag_604\n      jumpi\n        /* \"#utility.yul\":16112:16191   */\n      tag_605\n      tag_340\n      jump\t// in\n    tag_605:\n        /* \"#utility.yul\":16074:16193   */\n    tag_604:\n        /* \"#utility.yul\":16232:16233   */\n      0x00\n        /* \"#utility.yul\":16257:16309   */\n      tag_606\n        /* \"#utility.yul\":16301:16308   */\n      dup7\n        /* \"#utility.yul\":16292:16298   */\n      dup3\n        /* \"#utility.yul\":16281:16290   */\n      dup8\n        /* \"#utility.yul\":16277:16299   */\n      add\n        /* \"#utility.yul\":16257:16309   */\n      tag_366\n      jump\t// in\n    tag_606:\n        /* \"#utility.yul\":16247:16309   */\n      swap4\n      pop\n        /* \"#utility.yul\":16203:16319   */\n      pop\n        /* \"#utility.yul\":16358:16360   */\n      0x20\n        /* \"#utility.yul\":16384:16435   */\n      tag_607\n        /* \"#utility.yul\":16427:16434   */\n      dup7\n        /* \"#utility.yul\":16418:16424   */\n      dup3\n        /* \"#utility.yul\":16407:16416   */\n      dup8\n        /* \"#utility.yul\":16403:16425   */\n      add\n        /* \"#utility.yul\":16384:16435   */\n      tag_352\n      jump\t// in\n    tag_607:\n        /* \"#utility.yul\":16374:16435   */\n      swap3\n      pop\n        /* \"#utility.yul\":16329:16445   */\n      pop\n        /* \"#utility.yul\":16484:16486   */\n      0x40\n        /* \"#utility.yul\":16510:16563   */\n      tag_608\n        /* \"#utility.yul\":16555:16562   */\n      dup7\n        /* \"#utility.yul\":16546:16552   */\n      dup3\n        /* \"#utility.yul\":16535:16544   */\n      dup8\n        /* \"#utility.yul\":16531:16553   */\n      add\n        /* \"#utility.yul\":16510:16563   */\n      tag_349\n      jump\t// in\n    tag_608:\n        /* \"#utility.yul\":16500:16563   */\n      swap2\n      pop\n        /* \"#utility.yul\":16455:16573   */\n      pop\n        /* \"#utility.yul\":15967:16580   */\n      swap3\n      pop\n      swap3\n      pop\n      swap3\n      jump\t// out\n        /* \"#utility.yul\":16586:17527   */\n    tag_77:\n        /* \"#utility.yul\":16849:16853   */\n      0x00\n        /* \"#utility.yul\":16887:16890   */\n      0xe0\n        /* \"#utility.yul\":16876:16885   */\n      dup3\n        /* \"#utility.yul\":16872:16891   */\n      add\n        /* \"#utility.yul\":16864:16891   */\n      swap1\n      pop\n        /* \"#utility.yul\":16901:16972   */\n      tag_610\n        /* \"#utility.yul\":16969:16970   */\n      0x00\n        /* \"#utility.yul\":16958:16967   */\n      dup4\n        /* \"#utility.yul\":16954:16971   */\n      add\n        /* \"#utility.yul\":16945:16951   */\n      dup11\n        /* \"#utility.yul\":16901:16972   */\n      tag_384\n      jump\t// in\n    tag_610:\n        /* \"#utility.yul\":16982:17054   */\n      tag_611\n        /* \"#utility.yul\":17050:17052   */\n      0x20\n        /* \"#utility.yul\":17039:17048   */\n      dup4\n        /* \"#utility.yul\":17035:17053   */\n      add\n        /* \"#utility.yul\":17026:17032   */\n      dup10\n        /* \"#utility.yul\":16982:17054   */\n      tag_363\n      jump\t// in\n    tag_611:\n        /* \"#utility.yul\":17064:17136   */\n      tag_612\n        /* \"#utility.yul\":17132:17134   */\n      0x40\n        /* \"#utility.yul\":17121:17130   */\n      dup4\n        /* \"#utility.yul\":17117:17135   */\n      add\n        /* \"#utility.yul\":17108:17114   */\n      dup9\n        /* \"#utility.yul\":17064:17136   */\n      tag_363\n      jump\t// in\n    tag_612:\n        /* \"#utility.yul\":17183:17192   */\n      dup2\n        /* \"#utility.yul\":17177:17181   */\n      dup2\n        /* \"#utility.yul\":17173:17193   */\n      sub\n        /* \"#utility.yul\":17168:17170   */\n      0x60\n        /* \"#utility.yul\":17157:17166   */\n      dup4\n        /* \"#utility.yul\":17153:17171   */\n      add\n        /* \"#utility.yul\":17146:17194   */\n      mstore\n        /* \"#utility.yul\":17211:17289   */\n      tag_613\n        /* \"#utility.yul\":17284:17288   */\n      dup2\n        /* \"#utility.yul\":17275:17281   */\n      dup8\n        /* \"#utility.yul\":17211:17289   */\n      tag_386\n      jump\t// in\n    tag_613:\n        /* \"#utility.yul\":17203:17289   */\n      swap1\n      pop\n        /* \"#utility.yul\":17299:17366   */\n      tag_614\n        /* \"#utility.yul\":17361:17364   */\n      0x80\n        /* \"#utility.yul\":17350:17359   */\n      dup4\n        /* \"#utility.yul\":17346:17365   */\n      add\n        /* \"#utility.yul\":17337:17343   */\n      dup7\n        /* \"#utility.yul\":17299:17366   */\n      tag_387\n      jump\t// in\n    tag_614:\n        /* \"#utility.yul\":17376:17443   */\n      tag_615\n        /* \"#utility.yul\":17438:17441   */\n      0xa0\n        /* \"#utility.yul\":17427:17436   */\n      dup4\n        /* \"#utility.yul\":17423:17442   */\n      add\n        /* \"#utility.yul\":17414:17420   */\n      dup6\n        /* \"#utility.yul\":17376:17443   */\n      tag_387\n      jump\t// in\n    tag_615:\n        /* \"#utility.yul\":17453:17520   */\n      tag_616\n        /* \"#utility.yul\":17515:17518   */\n      0xc0\n        /* \"#utility.yul\":17504:17513   */\n      dup4\n        /* \"#utility.yul\":17500:17519   */\n      add\n        /* \"#utility.yul\":17491:17497   */\n      dup5\n        /* \"#utility.yul\":17453:17520   */\n      tag_387\n      jump\t// in\n    tag_616:\n        /* \"#utility.yul\":16586:17527   */\n      swap9\n      swap8\n      pop\n      pop\n      pop\n      pop\n      pop\n      pop\n      pop\n      pop\n      jump\t// out\n        /* \"#utility.yul\":17533:18001   */\n    tag_84:\n        /* \"#utility.yul\":17598:17604   */\n      0x00\n        /* \"#utility.yul\":17606:17612   */\n      dup1\n        /* \"#utility.yul\":17655:17657   */\n      0x40\n        /* \"#utility.yul\":17643:17652   */\n      dup4\n        /* \"#utility.yul\":17634:17641   */\n      dup6\n        /* \"#utility.yul\":17630:17653   */\n      sub\n        /* \"#utility.yul\":17626:17658   */\n      slt\n        /* \"#utility.yul\":17623:17742   */\n      iszero\n      tag_618\n      jumpi\n        /* \"#utility.yul\":17661:17740   */\n      tag_619\n      tag_340\n      jump\t// in\n    tag_619:\n        /* \"#utility.yul\":17623:17742   */\n    tag_618:\n        /* \"#utility.yul\":17781:17782   */\n      0x00\n        /* \"#utility.yul\":17806:17857   */\n      tag_620\n        /* \"#utility.yul\":17849:17856   */\n      dup6\n        /* \"#utility.yul\":17840:17846   */\n      dup3\n        /* \"#utility.yul\":17829:17838   */\n      dup7\n        /* \"#utility.yul\":17825:17847   */\n      add\n        /* \"#utility.yul\":17806:17857   */\n      tag_352\n      jump\t// in\n    tag_620:\n        /* \"#utility.yul\":17796:17857   */\n      swap3\n      pop\n        /* \"#utility.yul\":17752:17867   */\n      pop\n        /* \"#utility.yul\":17906:17908   */\n      0x20\n        /* \"#utility.yul\":17932:17984   */\n      tag_621\n        /* \"#utility.yul\":17976:17983   */\n      dup6\n        /* \"#utility.yul\":17967:17973   */\n      dup3\n        /* \"#utility.yul\":17956:17965   */\n      dup7\n        /* \"#utility.yul\":17952:17974   */\n      add\n        /* \"#utility.yul\":17932:17984   */\n      tag_366\n      jump\t// in\n    tag_621:\n        /* \"#utility.yul\":17922:17984   */\n      swap2\n      pop\n        /* \"#utility.yul\":17877:17994   */\n      pop\n        /* \"#utility.yul\":17533:18001   */\n      swap3\n      pop\n      swap3\n      swap1\n      pop\n      jump\t// out\n        /* \"#utility.yul\":18007:18123   */\n    tag_388:\n        /* \"#utility.yul\":18077:18098   */\n      tag_623\n        /* \"#utility.yul\":18092:18097   */\n      dup2\n        /* \"#utility.yul\":18077:18098   */\n      tag_376\n      jump\t// in\n    tag_623:\n        /* \"#utility.yul\":18070:18075   */\n      dup2\n        /* \"#utility.yul\":18067:18099   */\n      eq\n        /* \"#utility.yul\":18057:18117   */\n      tag_624\n      jumpi\n        /* \"#utility.yul\":18113:18114   */\n      0x00\n        /* \"#utility.yul\":18110:18111   */\n      dup1\n        /* \"#utility.yul\":18103:18115   */\n      revert\n        /* \"#utility.yul\":18057:18117   */\n    tag_624:\n        /* \"#utility.yul\":18007:18123   */\n      pop\n      jump\t// out\n        /* \"#utility.yul\":18129:18262   */\n    tag_389:\n        /* \"#utility.yul\":18172:18177   */\n      0x00\n        /* \"#utility.yul\":18210:18216   */\n      dup2\n        /* \"#utility.yul\":18197:18217   */\n      calldataload\n        /* \"#utility.yul\":18188:18217   */\n      swap1\n      pop\n        /* \"#utility.yul\":18226:18256   */\n      tag_626\n        /* \"#utility.yul\":18250:18255   */\n      dup2\n        /* \"#utility.yul\":18226:18256   */\n      tag_388\n      jump\t// in\n    tag_626:\n        /* \"#utility.yul\":18129:18262   */\n      swap3\n      swap2\n      pop\n      pop\n      jump\t// out\n        /* \"#utility.yul\":18268:18875   */\n    tag_89:\n        /* \"#utility.yul\":18339:18345   */\n      0x00\n        /* \"#utility.yul\":18347:18353   */\n      dup1\n        /* \"#utility.yul\":18355:18361   */\n      0x00\n        /* \"#utility.yul\":18404:18406   */\n      0x60\n        /* \"#utility.yul\":18392:18401   */\n      dup5\n        /* \"#utility.yul\":18383:18390   */\n      dup7\n        /* \"#utility.yul\":18379:18402   */\n      sub\n        /* \"#utility.yul\":18375:18407   */\n      slt\n        /* \"#utility.yul\":18372:18491   */\n      iszero\n      tag_628\n      jumpi\n        /* \"#utility.yul\":18410:18489   */\n      tag_629\n      tag_340\n      jump\t// in\n    tag_629:\n        /* \"#utility.yul\":18372:18491   */\n    tag_628:\n        /* \"#utility.yul\":18530:18531   */\n      0x00\n        /* \"#utility.yul\":18555:18607   */\n      tag_630\n        /* \"#utility.yul\":18599:18606   */\n      dup7\n        /* \"#utility.yul\":18590:18596   */\n      dup3\n        /* \"#utility.yul\":18579:18588   */\n      dup8\n        /* \"#utility.yul\":18575:18597   */\n      add\n        /* \"#utility.yul\":18555:18607   */\n      tag_366\n      jump\t// in\n    tag_630:\n        /* \"#utility.yul\":18545:18607   */\n      swap4\n      pop\n        /* \"#utility.yul\":18501:18617   */\n      pop\n        /* \"#utility.yul\":18656:18658   */\n      0x20\n        /* \"#utility.yul\":18682:18733   */\n      tag_631\n        /* \"#utility.yul\":18725:18732   */\n      dup7\n        /* \"#utility.yul\":18716:18722   */\n      dup3\n        /* \"#utility.yul\":18705:18714   */\n      dup8\n        /* \"#utility.yul\":18701:18723   */\n      add\n        /* \"#utility.yul\":18682:18733   */\n      tag_352\n      jump\t// in\n    tag_631:\n        /* \"#utility.yul\":18672:18733   */\n      swap3\n      pop\n        /* \"#utility.yul\":18627:18743   */\n      pop\n        /* \"#utility.yul\":18782:18784   */\n      0x40\n        /* \"#utility.yul\":18808:18858   */\n      tag_632\n        /* \"#utility.yul\":18850:18857   */\n      dup7\n        /* \"#utility.yul\":18841:18847   */\n      dup3\n        /* \"#utility.yul\":18830:18839   */\n      dup8\n        /* \"#utility.yul\":18826:18848   */\n      add\n        /* \"#utility.yul\":18808:18858   */\n      tag_389\n      jump\t// in\n    tag_632:\n        /* \"#utility.yul\":18798:18858   */\n      swap2\n      pop\n        /* \"#utility.yul\":18753:18868   */\n      pop\n        /* \"#utility.yul\":18268:18875   */\n      swap3\n      pop\n      swap3\n      pop\n      swap3\n      jump\t// out\n        /* \"#utility.yul\":18881:19210   */\n    tag_94:\n        /* \"#utility.yul\":18940:18946   */\n      0x00\n        /* \"#utility.yul\":18989:18991   */\n      0x20\n        /* \"#utility.yul\":18977:18986   */\n      dup3\n        /* \"#utility.yul\":18968:18975   */\n      dup5\n        /* \"#utility.yul\":18964:18987   */\n      sub\n        /* \"#utility.yul\":18960:18992   */\n      slt\n        /* \"#utility.yul\":18957:19076   */\n      iszero\n      tag_634\n      jumpi\n        /* \"#utility.yul\":18995:19074   */\n      tag_635\n      tag_340\n      jump\t// in\n    tag_635:\n        /* \"#utility.yul\":18957:19076   */\n    tag_634:\n        /* \"#utility.yul\":19115:19116   */\n      0x00\n        /* \"#utility.yul\":19140:19193   */\n      tag_636\n        /* \"#utility.yul\":19185:19192   */\n      dup5\n        /* \"#utility.yul\":19176:19182   */\n      dup3\n        /* \"#utility.yul\":19165:19174   */\n      dup6\n        /* \"#utility.yul\":19161:19183   */\n      add\n        /* \"#utility.yul\":19140:19193   */\n      tag_383\n      jump\t// in\n    tag_636:\n        /* \"#utility.yul\":19130:19193   */\n      swap2\n      pop\n        /* \"#utility.yul\":19086:19203   */\n      pop\n        /* \"#utility.yul\":18881:19210   */\n      swap3\n      swap2\n      pop\n      pop\n      jump\t// out\n        /* \"#utility.yul\":19216:19437   */\n    tag_390:\n        /* \"#utility.yul\":19356:19390   */\n      0x4d7573742070726f7669646520612076616c696420746f6b656e206164647265\n        /* \"#utility.yul\":19352:19353   */\n      0x00\n        /* \"#utility.yul\":19344:19350   */\n      dup3\n        /* \"#utility.yul\":19340:19354   */\n      add\n        /* \"#utility.yul\":19333:19391   */\n      mstore\n        /* \"#utility.yul\":19425:19429   */\n      0x7373000000000000000000000000000000000000000000000000000000000000\n        /* \"#utility.yul\":19420:19422   */\n      0x20\n        /* \"#utility.yul\":19412:19418   */\n      dup3\n        /* \"#utility.yul\":19408:19423   */\n      add\n        /* \"#utility.yul\":19401:19430   */\n      mstore\n        /* \"#utility.yul\":19216:19437   */\n      pop\n      jump\t// out\n        /* \"#utility.yul\":19443:19809   */\n    tag_391:\n        /* \"#utility.yul\":19585:19588   */\n      0x00\n        /* \"#utility.yul\":19606:19673   */\n      tag_639\n        /* \"#utility.yul\":19670:19672   */\n      0x22\n        /* \"#utility.yul\":19665:19668   */\n      dup4\n        /* \"#utility.yul\":19606:19673   */\n      tag_385\n      jump\t// in\n    tag_639:\n        /* \"#utility.yul\":19599:19673   */\n      swap2\n      pop\n        /* \"#utility.yul\":19682:19775   */\n      tag_640\n        /* \"#utility.yul\":19771:19774   */\n      dup3\n        /* \"#utility.yul\":19682:19775   */\n      tag_390\n      jump\t// in\n    tag_640:\n        /* \"#utility.yul\":19800:19802   */\n      0x40\n        /* \"#utility.yul\":19795:19798   */\n      dup3\n        /* \"#utility.yul\":19791:19803   */\n      add\n        /* \"#utility.yul\":19784:19803   */\n      swap1\n      pop\n        /* \"#utility.yul\":19443:19809   */\n      swap2\n      swap1\n      pop\n      jump\t// out\n        /* \"#utility.yul\":19815:20234   */\n    tag_102:\n        /* \"#utility.yul\":19981:19985   */\n      0x00\n        /* \"#utility.yul\":20019:20021   */\n      0x20\n        /* \"#utility.yul\":20008:20017   */\n      dup3\n        /* \"#utility.yul\":20004:20022   */\n      add\n        /* \"#utility.yul\":19996:20022   */\n      swap1\n      pop\n        /* \"#utility.yul\":20068:20077   */\n      dup2\n        /* \"#utility.yul\":20062:20066   */\n      dup2\n        /* \"#utility.yul\":20058:20078   */\n      sub\n        /* \"#utility.yul\":20054:20055   */\n      0x00\n        /* \"#utility.yul\":20043:20052   */\n      dup4\n        /* \"#utility.yul\":20039:20056   */\n      add\n        /* \"#utility.yul\":20032:20079   */\n      mstore\n        /* \"#utility.yul\":20096:20227   */\n      tag_642\n        /* \"#utility.yul\":20222:20226   */\n      dup2\n        /* \"#utility.yul\":20096:20227   */\n      tag_391\n      jump\t// in\n    tag_642:\n        /* \"#utility.yul\":20088:20227   */\n      swap1\n      pop\n        /* \"#utility.yul\":19815:20234   */\n      swap2\n      swap1\n      pop\n      jump\t// out\n        /* \"#utility.yul\":20240:20465   */\n    tag_392:\n        /* \"#utility.yul\":20380:20414   */\n      0x546f6b656e20616d6f756e74206d757374206265206772656174657220746865\n        /* \"#utility.yul\":20376:20377   */\n      0x00\n        /* \"#utility.yul\":20368:20374   */\n      dup3\n        /* \"#utility.yul\":20364:20378   */\n      add\n        /* \"#utility.yul\":20357:20415   */\n      mstore\n        /* \"#utility.yul\":20449:20457   */\n      0x6e207a65726f0000000000000000000000000000000000000000000000000000\n        /* \"#utility.yul\":20444:20446   */\n      0x20\n        /* \"#utility.yul\":20436:20442   */\n      dup3\n        /* \"#utility.yul\":20432:20447   */\n      add\n        /* \"#utility.yul\":20425:20458   */\n      mstore\n        /* \"#utility.yul\":20240:20465   */\n      pop\n      jump\t// out\n        /* \"#utility.yul\":20471:20837   */\n    tag_393:\n        /* \"#utility.yul\":20613:20616   */\n      0x00\n        /* \"#utility.yul\":20634:20701   */\n      tag_645\n        /* \"#utility.yul\":20698:20700   */\n      0x26\n        /* \"#utility.yul\":20693:20696   */\n      dup4\n        /* \"#utility.yul\":20634:20701   */\n      tag_385\n      jump\t// in\n    tag_645:\n        /* \"#utility.yul\":20627:20701   */\n      swap2\n      pop\n        /* \"#utility.yul\":20710:20803   */\n      tag_646\n        /* \"#utility.yul\":20799:20802   */\n      dup3\n        /* \"#utility.yul\":20710:20803   */\n      tag_392\n      jump\t// in\n    tag_646:\n        /* \"#utility.yul\":20828:20830   */\n      0x40\n        /* \"#utility.yul\":20823:20826   */\n      dup3\n        /* \"#utility.yul\":20819:20831   */\n      add\n        /* \"#utility.yul\":20812:20831   */\n      swap1\n      pop\n        /* \"#utility.yul\":20471:20837   */\n      swap2\n      swap1\n      pop\n      jump\t// out\n        /* \"#utility.yul\":20843:21262   */\n    tag_105:\n        /* \"#utility.yul\":21009:21013   */\n      0x00\n        /* \"#utility.yul\":21047:21049   */\n      0x20\n        /* \"#utility.yul\":21036:21045   */\n      dup3\n        /* \"#utility.yul\":21032:21050   */\n      add\n        /* \"#utility.yul\":21024:21050   */\n      swap1\n      pop\n        /* \"#utility.yul\":21096:21105   */\n      dup2\n        /* \"#utility.yul\":21090:21094   */\n      dup2\n        /* \"#utility.yul\":21086:21106   */\n      sub\n        /* \"#utility.yul\":21082:21083   */\n      0x00\n        /* \"#utility.yul\":21071:21080   */\n      dup4\n        /* \"#utility.yul\":21067:21084   */\n      add\n        /* \"#utility.yul\":21060:21107   */\n      mstore\n        /* \"#utility.yul\":21124:21255   */\n      tag_648\n        /* \"#utility.yul\":21250:21254   */\n      dup2\n        /* \"#utility.yul\":21124:21255   */\n      tag_393\n      jump\t// in\n    tag_648:\n        /* \"#utility.yul\":21116:21255   */\n      swap1\n      pop\n        /* \"#utility.yul\":20843:21262   */\n      swap2\n      swap1\n      pop\n      jump\t// out\n        /* \"#utility.yul\":21268:21496   */\n    tag_394:\n        /* \"#utility.yul\":21408:21442   */\n      0x546865206c6f636b20706572696f64206d757374206265206772656174657220\n        /* \"#utility.yul\":21404:21405   */\n      0x00\n        /* \"#utility.yul\":21396:21402   */\n      dup3\n        /* \"#utility.yul\":21392:21406   */\n      add\n        /* \"#utility.yul\":21385:21443   */\n      mstore\n        /* \"#utility.yul\":21477:21488   */\n      0x7468656e207a65726f0000000000000000000000000000000000000000000000\n        /* \"#utility.yul\":21472:21474   */\n      0x20\n        /* \"#utility.yul\":21464:21470   */\n      dup3\n        /* \"#utility.yul\":21460:21475   */\n      add\n        /* \"#utility.yul\":21453:21489   */\n      mstore\n        /* \"#utility.yul\":21268:21496   */\n      pop\n      jump\t// out\n        /* \"#utility.yul\":21502:21868   */\n    tag_395:\n        /* \"#utility.yul\":21644:21647   */\n      0x00\n        /* \"#utility.yul\":21665:21732   */\n      tag_651\n        /* \"#utility.yul\":21729:21731   */\n      0x29\n        /* \"#utility.yul\":21724:21727   */\n      dup4\n        /* \"#utility.yul\":21665:21732   */\n      tag_385\n      jump\t// in\n    tag_651:\n        /* \"#utility.yul\":21658:21732   */\n      swap2\n      pop\n        /* \"#utility.yul\":21741:21834   */\n      tag_652\n        /* \"#utility.yul\":21830:21833   */\n      dup3\n        /* \"#utility.yul\":21741:21834   */\n      tag_394\n      jump\t// in\n    tag_652:\n        /* \"#utility.yul\":21859:21861   */\n      0x40\n        /* \"#utility.yul\":21854:21857   */\n      dup3\n        /* \"#utility.yul\":21850:21862   */\n      add\n        /* \"#utility.yul\":21843:21862   */\n      swap1\n      pop\n        /* \"#utility.yul\":21502:21868   */\n      swap2\n      swap1\n      pop\n      jump\t// out\n        /* \"#utility.yul\":21874:22293   */\n    tag_108:\n        /* \"#utility.yul\":22040:22044   */\n      0x00\n        /* \"#utility.yul\":22078:22080   */\n      0x20\n        /* \"#utility.yul\":22067:22076   */\n      dup3\n        /* \"#utility.yul\":22063:22081   */\n      add\n        /* \"#utility.yul\":22055:22081   */\n      swap1\n      pop\n        /* \"#utility.yul\":22127:22136   */\n      dup2\n        /* \"#utility.yul\":22121:22125   */\n      dup2\n        /* \"#utility.yul\":22117:22137   */\n      sub\n        /* \"#utility.yul\":22113:22114   */\n      0x00\n        /* \"#utility.yul\":22102:22111   */\n      dup4\n        /* \"#utility.yul\":22098:22115   */\n      add\n        /* \"#utility.yul\":22091:22138   */\n      mstore\n        /* \"#utility.yul\":22155:22286   */\n      tag_654\n        /* \"#utility.yul\":22281:22285   */\n      dup2\n        /* \"#utility.yul\":22155:22286   */\n      tag_395\n      jump\t// in\n    tag_654:\n        /* \"#utility.yul\":22147:22286   */\n      swap1\n      pop\n        /* \"#utility.yul\":21874:22293   */\n      swap2\n      swap1\n      pop\n      jump\t// out\n        /* \"#utility.yul\":22299:22442   */\n    tag_396:\n        /* \"#utility.yul\":22356:22361   */\n      0x00\n        /* \"#utility.yul\":22387:22393   */\n      dup2\n        /* \"#utility.yul\":22381:22394   */\n      mload\n        /* \"#utility.yul\":22372:22394   */\n      swap1\n      pop\n        /* \"#utility.yul\":22403:22436   */\n      tag_656\n        /* \"#utility.yul\":22430:22435   */\n      dup2\n        /* \"#utility.yul\":22403:22436   */\n      tag_348\n      jump\t// in\n    tag_656:\n        /* \"#utility.yul\":22299:22442   */\n      swap3\n      swap2\n      pop\n      pop\n      jump\t// out\n        /* \"#utility.yul\":22448:22799   */\n    tag_113:\n        /* \"#utility.yul\":22518:22524   */\n      0x00\n        /* \"#utility.yul\":22567:22569   */\n      0x20\n        /* \"#utility.yul\":22555:22564   */\n      dup3\n        /* \"#utility.yul\":22546:22553   */\n      dup5\n        /* \"#utility.yul\":22542:22565   */\n      sub\n        /* \"#utility.yul\":22538:22570   */\n      slt\n        /* \"#utility.yul\":22535:22654   */\n      iszero\n      tag_658\n      jumpi\n        /* \"#utility.yul\":22573:22652   */\n      tag_659\n      tag_340\n      jump\t// in\n    tag_659:\n        /* \"#utility.yul\":22535:22654   */\n    tag_658:\n        /* \"#utility.yul\":22693:22694   */\n      0x00\n        /* \"#utility.yul\":22718:22782   */\n      tag_660\n        /* \"#utility.yul\":22774:22781   */\n      dup5\n        /* \"#utility.yul\":22765:22771   */\n      dup3\n        /* \"#utility.yul\":22754:22763   */\n      dup6\n        /* \"#utility.yul\":22750:22772   */\n      add\n        /* \"#utility.yul\":22718:22782   */\n      tag_396\n      jump\t// in\n    tag_660:\n        /* \"#utility.yul\":22708:22782   */\n      swap2\n      pop\n        /* \"#utility.yul\":22664:22792   */\n      pop\n        /* \"#utility.yul\":22448:22799   */\n      swap3\n      swap2\n      pop\n      pop\n      jump\t// out\n        /* \"#utility.yul\":22805:22980   */\n    tag_397:\n        /* \"#utility.yul\":22945:22972   */\n      0x4e6f7420656e6f75676820746f6b656e7320746f206c6f636b00000000000000\n        /* \"#utility.yul\":22941:22942   */\n      0x00\n        /* \"#utility.yul\":22933:22939   */\n      dup3\n        /* \"#utility.yul\":22929:22943   */\n      add\n        /* \"#utility.yul\":22922:22973   */\n      mstore\n        /* \"#utility.yul\":22805:22980   */\n      pop\n      jump\t// out\n        /* \"#utility.yul\":22986:23352   */\n    tag_398:\n        /* \"#utility.yul\":23128:23131   */\n      0x00\n        /* \"#utility.yul\":23149:23216   */\n      tag_663\n        /* \"#utility.yul\":23213:23215   */\n      0x19\n        /* \"#utility.yul\":23208:23211   */\n      dup4\n        /* \"#utility.yul\":23149:23216   */\n      tag_385\n      jump\t// in\n    tag_663:\n        /* \"#utility.yul\":23142:23216   */\n      swap2\n      pop\n        /* \"#utility.yul\":23225:23318   */\n      tag_664\n        /* \"#utility.yul\":23314:23317   */\n      dup3\n        /* \"#utility.yul\":23225:23318   */\n      tag_397\n      jump\t// in\n    tag_664:\n        /* \"#utility.yul\":23343:23345   */\n      0x20\n        /* \"#utility.yul\":23338:23341   */\n      dup3\n        /* \"#utility.yul\":23334:23346   */\n      add\n        /* \"#utility.yul\":23327:23346   */\n      swap1\n      pop\n        /* \"#utility.yul\":22986:23352   */\n      swap2\n      swap1\n      pop\n      jump\t// out\n        /* \"#utility.yul\":23358:23777   */\n    tag_116:\n        /* \"#utility.yul\":23524:23528   */\n      0x00\n        /* \"#utility.yul\":23562:23564   */\n      0x20\n        /* \"#utility.yul\":23551:23560   */\n      dup3\n        /* \"#utility.yul\":23547:23565   */\n      add\n        /* \"#utility.yul\":23539:23565   */\n      swap1\n      pop\n        /* \"#utility.yul\":23611:23620   */\n      dup2\n        /* \"#utility.yul\":23605:23609   */\n      dup2\n        /* \"#utility.yul\":23601:23621   */\n      sub\n        /* \"#utility.yul\":23597:23598   */\n      0x00\n        /* \"#utility.yul\":23586:23595   */\n      dup4\n        /* \"#utility.yul\":23582:23599   */\n      add\n        /* \"#utility.yul\":23575:23622   */\n      mstore\n        /* \"#utility.yul\":23639:23770   */\n      tag_666\n        /* \"#utility.yul\":23765:23769   */\n      dup2\n        /* \"#utility.yul\":23639:23770   */\n      tag_398\n      jump\t// in\n    tag_666:\n        /* \"#utility.yul\":23631:23770   */\n      swap1\n      pop\n        /* \"#utility.yul\":23358:23777   */\n      swap2\n      swap1\n      pop\n      jump\t// out\n        /* \"#utility.yul\":23783:23963   */\n    tag_399:\n        /* \"#utility.yul\":23831:23908   */\n      0x4e487b7100000000000000000000000000000000000000000000000000000000\n        /* \"#utility.yul\":23828:23829   */\n      0x00\n        /* \"#utility.yul\":23821:23909   */\n      mstore\n        /* \"#utility.yul\":23928:23932   */\n      0x11\n        /* \"#utility.yul\":23925:23926   */\n      0x04\n        /* \"#utility.yul\":23918:23933   */\n      mstore\n        /* \"#utility.yul\":23952:23956   */\n      0x24\n        /* \"#utility.yul\":23949:23950   */\n      0x00\n        /* \"#utility.yul\":23942:23957   */\n      revert\n        /* \"#utility.yul\":23969:24160   */\n    tag_120:\n        /* \"#utility.yul\":24009:24012   */\n      0x00\n        /* \"#utility.yul\":24028:24048   */\n      tag_669\n        /* \"#utility.yul\":24046:24047   */\n      dup3\n        /* \"#utility.yul\":24028:24048   */\n      tag_347\n      jump\t// in\n    tag_669:\n        /* \"#utility.yul\":24023:24048   */\n      swap2\n      pop\n        /* \"#utility.yul\":24062:24082   */\n      tag_670\n        /* \"#utility.yul\":24080:24081   */\n      dup4\n        /* \"#utility.yul\":24062:24082   */\n      tag_347\n      jump\t// in\n    tag_670:\n        /* \"#utility.yul\":24057:24082   */\n      swap3\n      pop\n        /* \"#utility.yul\":24105:24106   */\n      dup3\n        /* \"#utility.yul\":24102:24103   */\n      dup3\n        /* \"#utility.yul\":24098:24107   */\n      add\n        /* \"#utility.yul\":24091:24107   */\n      swap1\n      pop\n        /* \"#utility.yul\":24126:24129   */\n      dup1\n        /* \"#utility.yul\":24123:24124   */\n      dup3\n        /* \"#utility.yul\":24120:24130   */\n      gt\n        /* \"#utility.yul\":24117:24153   */\n      iszero\n      tag_671\n      jumpi\n        /* \"#utility.yul\":24133:24151   */\n      tag_672\n      tag_399\n      jump\t// in\n    tag_672:\n        /* \"#utility.yul\":24117:24153   */\n    tag_671:\n        /* \"#utility.yul\":23969:24160   */\n      swap3\n      swap2\n      pop\n      pop\n      jump\t// out\n        /* \"#utility.yul\":24166:24346   */\n    tag_400:\n        /* \"#utility.yul\":24214:24291   */\n      0x4e487b7100000000000000000000000000000000000000000000000000000000\n        /* \"#utility.yul\":24211:24212   */\n      0x00\n        /* \"#utility.yul\":24204:24292   */\n      mstore\n        /* \"#utility.yul\":24311:24315   */\n      0x22\n        /* \"#utility.yul\":24308:24309   */\n      0x04\n        /* \"#utility.yul\":24301:24316   */\n      mstore\n        /* \"#utility.yul\":24335:24339   */\n      0x24\n        /* \"#utility.yul\":24332:24333   */\n      0x00\n        /* \"#utility.yul\":24325:24340   */\n      revert\n        /* \"#utility.yul\":24352:24672   */\n    tag_170:\n        /* \"#utility.yul\":24396:24402   */\n      0x00\n        /* \"#utility.yul\":24433:24434   */\n      0x02\n        /* \"#utility.yul\":24427:24431   */\n      dup3\n        /* \"#utility.yul\":24423:24435   */\n      div\n        /* \"#utility.yul\":24413:24435   */\n      swap1\n      pop\n        /* \"#utility.yul\":24480:24481   */\n      0x01\n        /* \"#utility.yul\":24474:24478   */\n      dup3\n        /* \"#utility.yul\":24470:24482   */\n      and\n        /* \"#utility.yul\":24501:24519   */\n      dup1\n        /* \"#utility.yul\":24491:24572   */\n      tag_675\n      jumpi\n        /* \"#utility.yul\":24557:24561   */\n      0x7f\n        /* \"#utility.yul\":24549:24555   */\n      dup3\n        /* \"#utility.yul\":24545:24562   */\n      and\n        /* \"#utility.yul\":24535:24562   */\n      swap2\n      pop\n        /* \"#utility.yul\":24491:24572   */\n    tag_675:\n        /* \"#utility.yul\":24619:24621   */\n      0x20\n        /* \"#utility.yul\":24611:24617   */\n      dup3\n        /* \"#utility.yul\":24608:24622   */\n      lt\n        /* \"#utility.yul\":24588:24606   */\n      dup2\n        /* \"#utility.yul\":24585:24623   */\n      sub\n        /* \"#utility.yul\":24582:24666   */\n      tag_676\n      jumpi\n        /* \"#utility.yul\":24638:24656   */\n      tag_677\n      tag_400\n      jump\t// in\n    tag_677:\n        /* \"#utility.yul\":24582:24666   */\n    tag_676:\n        /* \"#utility.yul\":24403:24672   */\n      pop\n        /* \"#utility.yul\":24352:24672   */\n      swap2\n      swap1\n      pop\n      jump\t// out\n        /* \"#utility.yul\":24678:24819   */\n    tag_401:\n        /* \"#utility.yul\":24727:24731   */\n      0x00\n        /* \"#utility.yul\":24750:24753   */\n      dup2\n        /* \"#utility.yul\":24742:24753   */\n      swap1\n      pop\n        /* \"#utility.yul\":24773:24776   */\n      dup2\n        /* \"#utility.yul\":24770:24771   */\n      0x00\n        /* \"#utility.yul\":24763:24777   */\n      mstore\n        /* \"#utility.yul\":24807:24811   */\n      0x20\n        /* \"#utility.yul\":24804:24805   */\n      0x00\n        /* \"#utility.yul\":24794:24812   */\n      keccak256\n        /* \"#utility.yul\":24786:24812   */\n      swap1\n      pop\n        /* \"#utility.yul\":24678:24819   */\n      swap2\n      swap1\n      pop\n      jump\t// out\n        /* \"#utility.yul\":24825:24918   */\n    tag_402:\n        /* \"#utility.yul\":24862:24868   */\n      0x00\n        /* \"#utility.yul\":24909:24911   */\n      0x20\n        /* \"#utility.yul\":24904:24906   */\n      0x1f\n        /* \"#utility.yul\":24897:24902   */\n      dup4\n        /* \"#utility.yul\":24893:24907   */\n      add\n        /* \"#utility.yul\":24889:24912   */\n      div\n        /* \"#utility.yul\":24879:24912   */\n      swap1\n      pop\n        /* \"#utility.yul\":24825:24918   */\n      swap2\n      swap1\n      pop\n      jump\t// out\n        /* \"#utility.yul\":24924:25031   */\n    tag_403:\n        /* \"#utility.yul\":24968:24976   */\n      0x00\n        /* \"#utility.yul\":25018:25023   */\n      dup3\n        /* \"#utility.yul\":25012:25016   */\n      dup3\n        /* \"#utility.yul\":25008:25024   */\n      shl\n        /* \"#utility.yul\":24987:25024   */\n      swap1\n      pop\n        /* \"#utility.yul\":24924:25031   */\n      swap3\n      swap2\n      pop\n      pop\n      jump\t// out\n        /* \"#utility.yul\":25037:25430   */\n    tag_404:\n        /* \"#utility.yul\":25106:25112   */\n      0x00\n        /* \"#utility.yul\":25156:25157   */\n      0x08\n        /* \"#utility.yul\":25144:25154   */\n      dup4\n        /* \"#utility.yul\":25140:25158   */\n      mul\n        /* \"#utility.yul\":25179:25276   */\n      tag_682\n        /* \"#utility.yul\":25209:25275   */\n      0xffffffffffffffffffffffffffffffffffffffffffffffffffffffffffffffff\n        /* \"#utility.yul\":25198:25207   */\n      dup3\n        /* \"#utility.yul\":25179:25276   */\n      tag_403\n      jump\t// in\n    tag_682:\n        /* \"#utility.yul\":25297:25336   */\n      tag_683\n        /* \"#utility.yul\":25327:25335   */\n      dup7\n        /* \"#utility.yul\":25316:25325   */\n      dup4\n        /* \"#utility.yul\":25297:25336   */\n      tag_403\n      jump\t// in\n    tag_683:\n        /* \"#utility.yul\":25285:25336   */\n      swap6\n      pop\n        /* \"#utility.yul\":25369:25373   */\n      dup1\n        /* \"#utility.yul\":25365:25374   */\n      not\n        /* \"#utility.yul\":25358:25363   */\n      dup5\n        /* \"#utility.yul\":25354:25375   */\n      and\n        /* \"#utility.yul\":25345:25375   */\n      swap4\n      pop\n        /* \"#utility.yul\":25418:25422   */\n      dup1\n        /* \"#utility.yul\":25408:25416   */\n      dup7\n        /* \"#utility.yul\":25404:25423   */\n      and\n        /* \"#utility.yul\":25397:25402   */\n      dup5\n        /* \"#utility.yul\":25394:25424   */\n      or\n        /* \"#utility.yul\":25384:25424   */\n      swap3\n      pop\n        /* \"#utility.yul\":25113:25430   */\n      pop\n      pop\n        /* \"#utility.yul\":25037:25430   */\n      swap4\n      swap3\n      pop\n      pop\n      pop\n      jump\t// out\n        /* \"#utility.yul\":25436:25496   */\n    tag_405:\n        /* \"#utility.yul\":25464:25467   */\n      0x00\n        /* \"#utility.yul\":25485:25490   */\n      dup2\n        /* \"#utility.yul\":25478:25490   */\n      swap1\n      pop\n        /* \"#utility.yul\":25436:25496   */\n      swap2\n      swap1\n      pop\n      jump\t// out\n        /* \"#utility.yul\":25502:25644   */\n    tag_406:\n        /* \"#utility.yul\":25552:25561   */\n      0x00\n        /* \"#utility.yul\":25585:25638   */\n      tag_686\n        /* \"#utility.yul\":25603:25637   */\n      tag_687\n        /* \"#utility.yul\":25612:25636   */\n      tag_688\n        /* \"#utility.yul\":25630:25635   */\n      dup5\n        /* \"#utility.yul\":25612:25636   */\n      tag_347\n      jump\t// in\n    tag_688:\n        /* \"#utility.yul\":25603:25637   */\n      tag_405\n      jump\t// in\n    tag_687:\n        /* \"#utility.yul\":25585:25638   */\n      tag_347\n      jump\t// in\n    tag_686:\n        /* \"#utility.yul\":25572:25638   */\n      swap1\n      pop\n        /* \"#utility.yul\":25502:25644   */\n      swap2\n      swap1\n      pop\n      jump\t// out\n        /* \"#utility.yul\":25650:25725   */\n    tag_407:\n        /* \"#utility.yul\":25693:25696   */\n      0x00\n        /* \"#utility.yul\":25714:25719   */\n      dup2\n        /* \"#utility.yul\":25707:25719   */\n      swap1\n      pop\n        /* \"#utility.yul\":25650:25725   */\n      swap2\n      swap1\n      pop\n      jump\t// out\n        /* \"#utility.yul\":25731:26000   */\n    tag_408:\n        /* \"#utility.yul\":25841:25880   */\n      tag_691\n        /* \"#utility.yul\":25872:25879   */\n      dup4\n        /* \"#utility.yul\":25841:25880   */\n      tag_406\n      jump\t// in\n    tag_691:\n        /* \"#utility.yul\":25902:25993   */\n      tag_692\n        /* \"#utility.yul\":25951:25992   */\n      tag_693\n        /* \"#utility.yul\":25975:25991   */\n      dup3\n        /* \"#utility.yul\":25951:25992   */\n      tag_407\n      jump\t// in\n    tag_693:\n        /* \"#utility.yul\":25943:25949   */\n      dup5\n        /* \"#utility.yul\":25936:25940   */\n      dup5\n        /* \"#utility.yul\":25930:25941   */\n      sload\n        /* \"#utility.yul\":25902:25993   */\n      tag_404\n      jump\t// in\n    tag_692:\n        /* \"#utility.yul\":25896:25900   */\n      dup3\n        /* \"#utility.yul\":25889:25994   */\n      sstore\n        /* \"#utility.yul\":25807:26000   */\n      pop\n        /* \"#utility.yul\":25731:26000   */\n      pop\n      pop\n      pop\n      jump\t// out\n        /* \"#utility.yul\":26006:26079   */\n    tag_409:\n        /* \"#utility.yul\":26051:26054   */\n      0x00\n        /* \"#utility.yul\":26006:26079   */\n      swap1\n      jump\t// out\n        /* \"#utility.yul\":26085:26274   */\n    tag_410:\n        /* \"#utility.yul\":26162:26194   */\n      tag_696\n      tag_409\n      jump\t// in\n    tag_696:\n        /* \"#utility.yul\":26203:26268   */\n      tag_697\n        /* \"#utility.yul\":26261:26267   */\n      dup2\n        /* \"#utility.yul\":26253:26259   */\n      dup5\n        /* \"#utility.yul\":26247:26251   */\n      dup5\n        /* \"#utility.yul\":26203:26268   */\n      tag_408\n      jump\t// in\n    tag_697:\n        /* \"#utility.yul\":26138:26274   */\n      pop\n        /* \"#utility.yul\":26085:26274   */\n      pop\n      pop\n      jump\t// out\n        /* \"#utility.yul\":26280:26466   */\n    tag_411:\n        /* \"#utility.yul\":26340:26460   */\n    tag_699:\n        /* \"#utility.yul\":26357:26360   */\n      dup2\n        /* \"#utility.yul\":26350:26355   */\n      dup2\n        /* \"#utility.yul\":26347:26361   */\n      lt\n        /* \"#utility.yul\":26340:26460   */\n      iszero\n      tag_701\n      jumpi\n        /* \"#utility.yul\":26411:26450   */\n      tag_702\n        /* \"#utility.yul\":26448:26449   */\n      0x00\n        /* \"#utility.yul\":26441:26446   */\n      dup3\n        /* \"#utility.yul\":26411:26450   */\n      tag_410\n      jump\t// in\n    tag_702:\n        /* \"#utility.yul\":26384:26385   */\n      0x01\n        /* \"#utility.yul\":26377:26382   */\n      dup2\n        /* \"#utility.yul\":26373:26386   */\n      add\n        /* \"#utility.yul\":26364:26386   */\n      swap1\n      pop\n        /* \"#utility.yul\":26340:26460   */\n      jump(tag_699)\n    tag_701:\n        /* \"#utility.yul\":26280:26466   */\n      pop\n      pop\n      jump\t// out\n        /* \"#utility.yul\":26472:27015   */\n    tag_412:\n        /* \"#utility.yul\":26573:26575   */\n      0x1f\n        /* \"#utility.yul\":26568:26571   */\n      dup3\n        /* \"#utility.yul\":26565:26576   */\n      gt\n        /* \"#utility.yul\":26562:27008   */\n      iszero\n      tag_704\n      jumpi\n        /* \"#utility.yul\":26607:26645   */\n      tag_705\n        /* \"#utility.yul\":26639:26644   */\n      dup2\n        /* \"#utility.yul\":26607:26645   */\n      tag_401\n      jump\t// in\n    tag_705:\n        /* \"#utility.yul\":26691:26720   */\n      tag_706\n        /* \"#utility.yul\":26709:26719   */\n      dup5\n        /* \"#utility.yul\":26691:26720   */\n      tag_402\n      jump\t// in\n    tag_706:\n        /* \"#utility.yul\":26681:26689   */\n      dup2\n        /* \"#utility.yul\":26677:26721   */\n      add\n        /* \"#utility.yul\":26874:26876   */\n      0x20\n        /* \"#utility.yul\":26862:26872   */\n      dup6\n        /* \"#utility.yul\":26859:26877   */\n      lt\n        /* \"#utility.yul\":26856:26905   */\n      iszero\n      tag_707\n      jumpi\n        /* \"#utility.yul\":26895:26903   */\n      dup2\n        /* \"#utility.yul\":26880:26903   */\n      swap1\n      pop\n        /* \"#utility.yul\":26856:26905   */\n    tag_707:\n        /* \"#utility.yul\":26918:26998   */\n      tag_708\n        /* \"#utility.yul\":26974:26996   */\n      tag_709\n        /* \"#utility.yul\":26992:26995   */\n      dup6\n        /* \"#utility.yul\":26974:26996   */\n      tag_402\n      jump\t// in\n    tag_709:\n        /* \"#utility.yul\":26964:26972   */\n      dup4\n        /* \"#utility.yul\":26960:26997   */\n      add\n        /* \"#utility.yul\":26947:26958   */\n      dup3\n        /* \"#utility.yul\":26918:26998   */\n      tag_411\n      jump\t// in\n    tag_708:\n        /* \"#utility.yul\":26577:27008   */\n      pop\n      pop\n        /* \"#utility.yul\":26562:27008   */\n    tag_704:\n        /* \"#utility.yul\":26472:27015   */\n      pop\n      pop\n      pop\n      jump\t// out\n        /* \"#utility.yul\":27021:27138   */\n    tag_413:\n        /* \"#utility.yul\":27075:27083   */\n      0x00\n        /* \"#utility.yul\":27125:27130   */\n      dup3\n        /* \"#utility.yul\":27119:27123   */\n      dup3\n        /* \"#utility.yul\":27115:27131   */\n      shr\n        /* \"#utility.yul\":27094:27131   */\n      swap1\n      pop\n        /* \"#utility.yul\":27021:27138   */\n      swap3\n      swap2\n      pop\n      pop\n      jump\t// out\n        /* \"#utility.yul\":27144:27313   */\n    tag_414:\n        /* \"#utility.yul\":27188:27194   */\n      0x00\n        /* \"#utility.yul\":27221:27272   */\n      tag_712\n        /* \"#utility.yul\":27269:27270   */\n      0x00\n        /* \"#utility.yul\":27265:27271   */\n      not\n        /* \"#utility.yul\":27257:27262   */\n      dup5\n        /* \"#utility.yul\":27254:27255   */\n      0x08\n        /* \"#utility.yul\":27250:27263   */\n      mul\n        /* \"#utility.yul\":27221:27272   */\n      tag_413\n      jump\t// in\n    tag_712:\n        /* \"#utility.yul\":27217:27273   */\n      not\n        /* \"#utility.yul\":27302:27306   */\n      dup1\n        /* \"#utility.yul\":27296:27300   */\n      dup4\n        /* \"#utility.yul\":27292:27307   */\n      and\n        /* \"#utility.yul\":27282:27307   */\n      swap2\n      pop\n        /* \"#utility.yul\":27195:27313   */\n      pop\n        /* \"#utility.yul\":27144:27313   */\n      swap3\n      swap2\n      pop\n      pop\n      jump\t// out\n        /* \"#utility.yul\":27318:27613   */\n    tag_415:\n        /* \"#utility.yul\":27394:27398   */\n      0x00\n        /* \"#utility.yul\":27540:27569   */\n      tag_714\n        /* \"#utility.yul\":27565:27568   */\n      dup4\n        /* \"#utility.yul\":27559:27563   */\n      dup4\n        /* \"#utility.yul\":27540:27569   */\n      tag_414\n      jump\t// in\n    tag_714:\n        /* \"#utility.yul\":27532:27569   */\n      swap2\n      pop\n        /* \"#utility.yul\":27602:27605   */\n      dup3\n        /* \"#utility.yul\":27599:27600   */\n      0x02\n        /* \"#utility.yul\":27595:27606   */\n      mul\n        /* \"#utility.yul\":27589:27593   */\n      dup3\n        /* \"#utility.yul\":27586:27607   */\n      or\n        /* \"#utility.yul\":27578:27607   */\n      swap1\n      pop\n        /* \"#utility.yul\":27318:27613   */\n      swap3\n      swap2\n      pop\n      pop\n      jump\t// out\n        /* \"#utility.yul\":27618:29013   */\n    tag_123:\n        /* \"#utility.yul\":27735:27772   */\n      tag_716\n        /* \"#utility.yul\":27768:27771   */\n      dup3\n        /* \"#utility.yul\":27735:27772   */\n      tag_372\n      jump\t// in\n    tag_716:\n        /* \"#utility.yul\":27837:27855   */\n      0xffffffffffffffff\n        /* \"#utility.yul\":27829:27835   */\n      dup2\n        /* \"#utility.yul\":27826:27856   */\n      gt\n        /* \"#utility.yul\":27823:27879   */\n      iszero\n      tag_717\n      jumpi\n        /* \"#utility.yul\":27859:27877   */\n      tag_718\n      tag_356\n      jump\t// in\n    tag_718:\n        /* \"#utility.yul\":27823:27879   */\n    tag_717:\n        /* \"#utility.yul\":27903:27941   */\n      tag_719\n        /* \"#utility.yul\":27935:27939   */\n      dup3\n        /* \"#utility.yul\":27929:27940   */\n      sload\n        /* \"#utility.yul\":27903:27941   */\n      tag_170\n      jump\t// in\n    tag_719:\n        /* \"#utility.yul\":27988:28055   */\n      tag_720\n        /* \"#utility.yul\":28048:28054   */\n      dup3\n        /* \"#utility.yul\":28040:28046   */\n      dup3\n        /* \"#utility.yul\":28034:28038   */\n      dup6\n        /* \"#utility.yul\":27988:28055   */\n      tag_412\n      jump\t// in\n    tag_720:\n        /* \"#utility.yul\":28082:28083   */\n      0x00\n        /* \"#utility.yul\":28106:28110   */\n      0x20\n        /* \"#utility.yul\":28093:28110   */\n      swap1\n      pop\n        /* \"#utility.yul\":28138:28140   */\n      0x1f\n        /* \"#utility.yul\":28130:28136   */\n      dup4\n        /* \"#utility.yul\":28127:28141   */\n      gt\n        /* \"#utility.yul\":28155:28156   */\n      0x01\n        /* \"#utility.yul\":28150:28768   */\n      dup2\n      eq\n      tag_722\n      jumpi\n        /* \"#utility.yul\":28812:28813   */\n      0x00\n        /* \"#utility.yul\":28829:28835   */\n      dup5\n        /* \"#utility.yul\":28826:28903   */\n      iszero\n      tag_723\n      jumpi\n        /* \"#utility.yul\":28878:28887   */\n      dup3\n        /* \"#utility.yul\":28873:28876   */\n      dup8\n        /* \"#utility.yul\":28869:28888   */\n      add\n        /* \"#utility.yul\":28863:28889   */\n      mload\n        /* \"#utility.yul\":28854:28889   */\n      swap1\n      pop\n        /* \"#utility.yul\":28826:28903   */\n    tag_723:\n        /* \"#utility.yul\":28929:28996   */\n      tag_724\n        /* \"#utility.yul\":28989:28995   */\n      dup6\n        /* \"#utility.yul\":28982:28987   */\n      dup3\n        /* \"#utility.yul\":28929:28996   */\n      tag_415\n      jump\t// in\n    tag_724:\n        /* \"#utility.yul\":28923:28927   */\n      dup7\n        /* \"#utility.yul\":28916:28997   */\n      sstore\n        /* \"#utility.yul\":28785:29007   */\n      pop\n        /* \"#utility.yul\":28120:29007   */\n      jump(tag_721)\n        /* \"#utility.yul\":28150:28768   */\n    tag_722:\n        /* \"#utility.yul\":28202:28206   */\n      0x1f\n        /* \"#utility.yul\":28198:28207   */\n      not\n        /* \"#utility.yul\":28190:28196   */\n      dup5\n        /* \"#utility.yul\":28186:28208   */\n      and\n        /* \"#utility.yul\":28236:28273   */\n      tag_725\n        /* \"#utility.yul\":28268:28272   */\n      dup7\n        /* \"#utility.yul\":28236:28273   */\n      tag_401\n      jump\t// in\n    tag_725:\n        /* \"#utility.yul\":28295:28296   */\n      0x00\n        /* \"#utility.yul\":28309:28517   */\n    tag_726:\n        /* \"#utility.yul\":28323:28330   */\n      dup3\n        /* \"#utility.yul\":28320:28321   */\n      dup2\n        /* \"#utility.yul\":28317:28331   */\n      lt\n        /* \"#utility.yul\":28309:28517   */\n      iszero\n      tag_728\n      jumpi\n        /* \"#utility.yul\":28402:28411   */\n      dup5\n        /* \"#utility.yul\":28397:28400   */\n      dup10\n        /* \"#utility.yul\":28393:28412   */\n      add\n        /* \"#utility.yul\":28387:28413   */\n      mload\n        /* \"#utility.yul\":28379:28385   */\n      dup3\n        /* \"#utility.yul\":28372:28414   */\n      sstore\n        /* \"#utility.yul\":28453:28454   */\n      0x01\n        /* \"#utility.yul\":28445:28451   */\n      dup3\n        /* \"#utility.yul\":28441:28455   */\n      add\n        /* \"#utility.yul\":28431:28455   */\n      swap2\n      pop\n        /* \"#utility.yul\":28500:28502   */\n      0x20\n        /* \"#utility.yul\":28489:28498   */\n      dup6\n        /* \"#utility.yul\":28485:28503   */\n      add\n        /* \"#utility.yul\":28472:28503   */\n      swap5\n      pop\n        /* \"#utility.yul\":28346:28350   */\n      0x20\n        /* \"#utility.yul\":28343:28344   */\n      dup2\n        /* \"#utility.yul\":28339:28351   */\n      add\n        /* \"#utility.yul\":28334:28351   */\n      swap1\n      pop\n        /* \"#utility.yul\":28309:28517   */\n      jump(tag_726)\n    tag_728:\n        /* \"#utility.yul\":28545:28551   */\n      dup7\n        /* \"#utility.yul\":28536:28543   */\n      dup4\n        /* \"#utility.yul\":28533:28552   */\n      lt\n        /* \"#utility.yul\":28530:28709   */\n      iszero\n      tag_729\n      jumpi\n        /* \"#utility.yul\":28603:28612   */\n      dup5\n        /* \"#utility.yul\":28598:28601   */\n      dup10\n        /* \"#utility.yul\":28594:28613   */\n      add\n        /* \"#utility.yul\":28588:28614   */\n      mload\n        /* \"#utility.yul\":28646:28694   */\n      tag_730\n        /* \"#utility.yul\":28688:28692   */\n      0x1f\n        /* \"#utility.yul\":28680:28686   */\n      dup10\n        /* \"#utility.yul\":28676:28693   */\n      and\n        /* \"#utility.yul\":28665:28674   */\n      dup3\n        /* \"#utility.yul\":28646:28694   */\n      tag_414\n      jump\t// in\n    tag_730:\n        /* \"#utility.yul\":28638:28644   */\n      dup4\n        /* \"#utility.yul\":28631:28695   */\n      sstore\n        /* \"#utility.yul\":28553:28709   */\n      pop\n        /* \"#utility.yul\":28530:28709   */\n    tag_729:\n        /* \"#utility.yul\":28755:28756   */\n      0x01\n        /* \"#utility.yul\":28751:28752   */\n      0x02\n        /* \"#utility.yul\":28743:28749   */\n      dup9\n        /* \"#utility.yul\":28739:28753   */\n      mul\n        /* \"#utility.yul\":28735:28757   */\n      add\n        /* \"#utility.yul\":28729:28733   */\n      dup9\n        /* \"#utility.yul\":28722:28758   */\n      sstore\n        /* \"#utility.yul\":28157:28768   */\n      pop\n      pop\n      pop\n        /* \"#utility.yul\":28120:29007   */\n    tag_721:\n      pop\n        /* \"#utility.yul\":27710:29013   */\n      pop\n      pop\n      pop\n        /* \"#utility.yul\":27618:29013   */\n      pop\n      pop\n      jump\t// out\n        /* \"#utility.yul\":29019:29131   */\n    tag_416:\n        /* \"#utility.yul\":29102:29124   */\n      tag_732\n        /* \"#utility.yul\":29118:29123   */\n      dup2\n        /* \"#utility.yul\":29102:29124   */\n      tag_350\n      jump\t// in\n    tag_732:\n        /* \"#utility.yul\":29097:29100   */\n      dup3\n        /* \"#utility.yul\":29090:29125   */\n      mstore\n        /* \"#utility.yul\":29019:29131   */\n      pop\n      pop\n      jump\t// out\n        /* \"#utility.yul\":29137:29884   */\n    tag_128:\n        /* \"#utility.yul\":29358:29362   */\n      0x00\n        /* \"#utility.yul\":29396:29399   */\n      0xa0\n        /* \"#utility.yul\":29385:29394   */\n      dup3\n        /* \"#utility.yul\":29381:29400   */\n      add\n        /* \"#utility.yul\":29373:29400   */\n      swap1\n      pop\n        /* \"#utility.yul\":29410:29481   */\n      tag_734\n        /* \"#utility.yul\":29478:29479   */\n      0x00\n        /* \"#utility.yul\":29467:29476   */\n      dup4\n        /* \"#utility.yul\":29463:29480   */\n      add\n        /* \"#utility.yul\":29454:29460   */\n      dup9\n        /* \"#utility.yul\":29410:29481   */\n      tag_363\n      jump\t// in\n    tag_734:\n        /* \"#utility.yul\":29528:29537   */\n      dup2\n        /* \"#utility.yul\":29522:29526   */\n      dup2\n        /* \"#utility.yul\":29518:29538   */\n      sub\n        /* \"#utility.yul\":29513:29515   */\n      0x20\n        /* \"#utility.yul\":29502:29511   */\n      dup4\n        /* \"#utility.yul\":29498:29516   */\n      add\n        /* \"#utility.yul\":29491:29539   */\n      mstore\n        /* \"#utility.yul\":29556:29634   */\n      tag_735\n        /* \"#utility.yul\":29629:29633   */\n      dup2\n        /* \"#utility.yul\":29620:29626   */\n      dup8\n        /* \"#utility.yul\":29556:29634   */\n      tag_386\n      jump\t// in\n    tag_735:\n        /* \"#utility.yul\":29548:29634   */\n      swap1\n      pop\n        /* \"#utility.yul\":29644:29712   */\n      tag_736\n        /* \"#utility.yul\":29708:29710   */\n      0x40\n        /* \"#utility.yul\":29697:29706   */\n      dup4\n        /* \"#utility.yul\":29693:29711   */\n      add\n        /* \"#utility.yul\":29684:29690   */\n      dup7\n        /* \"#utility.yul\":29644:29712   */\n      tag_416\n      jump\t// in\n    tag_736:\n        /* \"#utility.yul\":29722:29794   */\n      tag_737\n        /* \"#utility.yul\":29790:29792   */\n      0x60\n        /* \"#utility.yul\":29779:29788   */\n      dup4\n        /* \"#utility.yul\":29775:29793   */\n      add\n        /* \"#utility.yul\":29766:29772   */\n      dup6\n        /* \"#utility.yul\":29722:29794   */\n      tag_363\n      jump\t// in\n    tag_737:\n        /* \"#utility.yul\":29804:29877   */\n      tag_738\n        /* \"#utility.yul\":29872:29875   */\n      0x80\n        /* \"#utility.yul\":29861:29870   */\n      dup4\n        /* \"#utility.yul\":29857:29876   */\n      add\n        /* \"#utility.yul\":29848:29854   */\n      dup5\n        /* \"#utility.yul\":29804:29877   */\n      tag_363\n      jump\t// in\n    tag_738:\n        /* \"#utility.yul\":29137:29884   */\n      swap7\n      swap6\n      pop\n      pop\n      pop\n      pop\n      pop\n      pop\n      jump\t// out\n        /* \"#utility.yul\":29890:30116   */\n    tag_417:\n        /* \"#utility.yul\":30030:30064   */\n      0x45544820746f206c6f636b206d75737420612076616c75652067726561746572\n        /* \"#utility.yul\":30026:30027   */\n      0x00\n        /* \"#utility.yul\":30018:30024   */\n      dup3\n        /* \"#utility.yul\":30014:30028   */\n      add\n        /* \"#utility.yul\":30007:30065   */\n      mstore\n        /* \"#utility.yul\":30099:30108   */\n      0x207468616e203000000000000000000000000000000000000000000000000000\n        /* \"#utility.yul\":30094:30096   */\n      0x20\n        /* \"#utility.yul\":30086:30092   */\n      dup3\n        /* \"#utility.yul\":30082:30097   */\n      add\n        /* \"#utility.yul\":30075:30109   */\n      mstore\n        /* \"#utility.yul\":29890:30116   */\n      pop\n      jump\t// out\n        /* \"#utility.yul\":30122:30488   */\n    tag_418:\n        /* \"#utility.yul\":30264:30267   */\n      0x00\n        /* \"#utility.yul\":30285:30352   */\n      tag_741\n        /* \"#utility.yul\":30349:30351   */\n      0x27\n        /* \"#utility.yul\":30344:30347   */\n      dup4\n        /* \"#utility.yul\":30285:30352   */\n      tag_385\n      jump\t// in\n    tag_741:\n        /* \"#utility.yul\":30278:30352   */\n      swap2\n      pop\n        /* \"#utility.yul\":30361:30454   */\n      tag_742\n        /* \"#utility.yul\":30450:30453   */\n      dup3\n        /* \"#utility.yul\":30361:30454   */\n      tag_417\n      jump\t// in\n    tag_742:\n        /* \"#utility.yul\":30479:30481   */\n      0x40\n        /* \"#utility.yul\":30474:30477   */\n      dup3\n        /* \"#utility.yul\":30470:30482   */\n      add\n        /* \"#utility.yul\":30463:30482   */\n      swap1\n      pop\n        /* \"#utility.yul\":30122:30488   */\n      swap2\n      swap1\n      pop\n      jump\t// out\n        /* \"#utility.yul\":30494:30913   */\n    tag_136:\n        /* \"#utility.yul\":30660:30664   */\n      0x00\n        /* \"#utility.yul\":30698:30700   */\n      0x20\n        /* \"#utility.yul\":30687:30696   */\n      dup3\n        /* \"#utility.yul\":30683:30701   */\n      add\n        /* \"#utility.yul\":30675:30701   */\n      swap1\n      pop\n        /* \"#utility.yul\":30747:30756   */\n      dup2\n        /* \"#utility.yul\":30741:30745   */\n      dup2\n        /* \"#utility.yul\":30737:30757   */\n      sub\n        /* \"#utility.yul\":30733:30734   */\n      0x00\n        /* \"#utility.yul\":30722:30731   */\n      dup4\n        /* \"#utility.yul\":30718:30735   */\n      add\n        /* \"#utility.yul\":30711:30758   */\n      mstore\n        /* \"#utility.yul\":30775:30906   */\n      tag_744\n        /* \"#utility.yul\":30901:30905   */\n      dup2\n        /* \"#utility.yul\":30775:30906   */\n      tag_418\n      jump\t// in\n    tag_744:\n        /* \"#utility.yul\":30767:30906   */\n      swap1\n      pop\n        /* \"#utility.yul\":30494:30913   */\n      swap2\n      swap1\n      pop\n      jump\t// out\n        /* \"#utility.yul\":30919:31146   */\n    tag_419:\n        /* \"#utility.yul\":31059:31093   */\n      0x546865206c6f636b706572696f64206d75737420626520677265617465722074\n        /* \"#utility.yul\":31055:31056   */\n      0x00\n        /* \"#utility.yul\":31047:31053   */\n      dup3\n        /* \"#utility.yul\":31043:31057   */\n      add\n        /* \"#utility.yul\":31036:31094   */\n      mstore\n        /* \"#utility.yul\":31128:31138   */\n      0x68656e207a65726f000000000000000000000000000000000000000000000000\n        /* \"#utility.yul\":31123:31125   */\n      0x20\n        /* \"#utility.yul\":31115:31121   */\n      dup3\n        /* \"#utility.yul\":31111:31126   */\n      add\n        /* \"#utility.yul\":31104:31139   */\n      mstore\n        /* \"#utility.yul\":30919:31146   */\n      pop\n      jump\t// out\n        /* \"#utility.yul\":31152:31518   */\n    tag_420:\n        /* \"#utility.yul\":31294:31297   */\n      0x00\n        /* \"#utility.yul\":31315:31382   */\n      tag_747\n        /* \"#utility.yul\":31379:31381   */\n      0x28\n        /* \"#utility.yul\":31374:31377   */\n      dup4\n        /* \"#utility.yul\":31315:31382   */\n      tag_385\n      jump\t// in\n    tag_747:\n        /* \"#utility.yul\":31308:31382   */\n      swap2\n      pop\n        /* \"#utility.yul\":31391:31484   */\n      tag_748\n        /* \"#utility.yul\":31480:31483   */\n      dup3\n        /* \"#utility.yul\":31391:31484   */\n      tag_419\n      jump\t// in\n    tag_748:\n        /* \"#utility.yul\":31509:31511   */\n      0x40\n        /* \"#utility.yul\":31504:31507   */\n      dup3\n        /* \"#utility.yul\":31500:31512   */\n      add\n        /* \"#utility.yul\":31493:31512   */\n      swap1\n      pop\n        /* \"#utility.yul\":31152:31518   */\n      swap2\n      swap1\n      pop\n      jump\t// out\n        /* \"#utility.yul\":31524:31943   */\n    tag_139:\n        /* \"#utility.yul\":31690:31694   */\n      0x00\n        /* \"#utility.yul\":31728:31730   */\n      0x20\n        /* \"#utility.yul\":31717:31726   */\n      dup3\n        /* \"#utility.yul\":31713:31731   */\n      add\n        /* \"#utility.yul\":31705:31731   */\n      swap1\n      pop\n        /* \"#utility.yul\":31777:31786   */\n      dup2\n        /* \"#utility.yul\":31771:31775   */\n      dup2\n        /* \"#utility.yul\":31767:31787   */\n      sub\n        /* \"#utility.yul\":31763:31764   */\n      0x00\n        /* \"#utility.yul\":31752:31761   */\n      dup4\n        /* \"#utility.yul\":31748:31765   */\n      add\n        /* \"#utility.yul\":31741:31788   */\n      mstore\n        /* \"#utility.yul\":31805:31936   */\n      tag_750\n        /* \"#utility.yul\":31931:31935   */\n      dup2\n        /* \"#utility.yul\":31805:31936   */\n      tag_420\n      jump\t// in\n    tag_750:\n        /* \"#utility.yul\":31797:31936   */\n      swap1\n      pop\n        /* \"#utility.yul\":31524:31943   */\n      swap2\n      swap1\n      pop\n      jump\t// out\n        /* \"#utility.yul\":31949:32129   */\n    tag_161:\n        /* \"#utility.yul\":31997:32074   */\n      0x4e487b7100000000000000000000000000000000000000000000000000000000\n        /* \"#utility.yul\":31994:31995   */\n      0x00\n        /* \"#utility.yul\":31987:32075   */\n      mstore\n        /* \"#utility.yul\":32094:32098   */\n      0x32\n        /* \"#utility.yul\":32091:32092   */\n      0x04\n        /* \"#utility.yul\":32084:32099   */\n      mstore\n        /* \"#utility.yul\":32118:32122   */\n      0x24\n        /* \"#utility.yul\":32115:32116   */\n      0x00\n        /* \"#utility.yul\":32108:32123   */\n      revert\n        /* \"#utility.yul\":32159:32990   */\n    tag_421:\n        /* \"#utility.yul\":32244:32247   */\n      0x00\n        /* \"#utility.yul\":32281:32286   */\n      dup2\n        /* \"#utility.yul\":32275:32287   */\n      sload\n        /* \"#utility.yul\":32310:32346   */\n      tag_753\n        /* \"#utility.yul\":32336:32345   */\n      dup2\n        /* \"#utility.yul\":32310:32346   */\n      tag_170\n      jump\t// in\n    tag_753:\n        /* \"#utility.yul\":32362:32433   */\n      tag_754\n        /* \"#utility.yul\":32426:32432   */\n      dup2\n        /* \"#utility.yul\":32421:32424   */\n      dup7\n        /* \"#utility.yul\":32362:32433   */\n      tag_385\n      jump\t// in\n    tag_754:\n        /* \"#utility.yul\":32355:32433   */\n      swap5\n      pop\n        /* \"#utility.yul\":32464:32465   */\n      0x01\n        /* \"#utility.yul\":32453:32462   */\n      dup3\n        /* \"#utility.yul\":32449:32466   */\n      and\n        /* \"#utility.yul\":32480:32481   */\n      0x00\n        /* \"#utility.yul\":32475:32639   */\n      dup2\n      eq\n      tag_756\n      jumpi\n        /* \"#utility.yul\":32653:32654   */\n      0x01\n        /* \"#utility.yul\":32648:32984   */\n      dup2\n      eq\n      tag_757\n      jumpi\n        /* \"#utility.yul\":32442:32984   */\n      jump(tag_755)\n        /* \"#utility.yul\":32475:32639   */\n    tag_756:\n        /* \"#utility.yul\":32559:32563   */\n      0xff\n        /* \"#utility.yul\":32555:32564   */\n      not\n        /* \"#utility.yul\":32544:32553   */\n      dup4\n        /* \"#utility.yul\":32540:32565   */\n      and\n        /* \"#utility.yul\":32535:32538   */\n      dup7\n        /* \"#utility.yul\":32528:32566   */\n      mstore\n        /* \"#utility.yul\":32619:32625   */\n      dup2\n        /* \"#utility.yul\":32612:32626   */\n      iszero\n        /* \"#utility.yul\":32605:32627   */\n      iszero\n        /* \"#utility.yul\":32599:32603   */\n      0x20\n        /* \"#utility.yul\":32595:32628   */\n      mul\n        /* \"#utility.yul\":32590:32593   */\n      dup7\n        /* \"#utility.yul\":32586:32629   */\n      add\n        /* \"#utility.yul\":32579:32629   */\n      swap4\n      pop\n        /* \"#utility.yul\":32475:32639   */\n      jump(tag_755)\n        /* \"#utility.yul\":32648:32984   */\n    tag_757:\n        /* \"#utility.yul\":32715:32753   */\n      tag_758\n        /* \"#utility.yul\":32747:32752   */\n      dup6\n        /* \"#utility.yul\":32715:32753   */\n      tag_401\n      jump\t// in\n    tag_758:\n        /* \"#utility.yul\":32775:32776   */\n      0x00\n        /* \"#utility.yul\":32789:32943   */\n    tag_759:\n        /* \"#utility.yul\":32803:32809   */\n      dup4\n        /* \"#utility.yul\":32800:32801   */\n      dup2\n        /* \"#utility.yul\":32797:32810   */\n      lt\n        /* \"#utility.yul\":32789:32943   */\n      iszero\n      tag_761\n      jumpi\n        /* \"#utility.yul\":32877:32884   */\n      dup2\n        /* \"#utility.yul\":32871:32885   */\n      sload\n        /* \"#utility.yul\":32867:32868   */\n      dup2\n        /* \"#utility.yul\":32862:32865   */\n      dup10\n        /* \"#utility.yul\":32858:32869   */\n      add\n        /* \"#utility.yul\":32851:32886   */\n      mstore\n        /* \"#utility.yul\":32927:32928   */\n      0x01\n        /* \"#utility.yul\":32918:32925   */\n      dup3\n        /* \"#utility.yul\":32914:32929   */\n      add\n        /* \"#utility.yul\":32903:32929   */\n      swap2\n      pop\n        /* \"#utility.yul\":32825:32829   */\n      0x20\n        /* \"#utility.yul\":32822:32823   */\n      dup2\n        /* \"#utility.yul\":32818:32830   */\n      add\n        /* \"#utility.yul\":32813:32830   */\n      swap1\n      pop\n        /* \"#utility.yul\":32789:32943   */\n      jump(tag_759)\n    tag_761:\n        /* \"#utility.yul\":32972:32973   */\n      dup1\n        /* \"#utility.yul\":32967:32970   */\n      dup9\n        /* \"#utility.yul\":32963:32974   */\n      add\n        /* \"#utility.yul\":32956:32974   */\n      swap6\n      pop\n        /* \"#utility.yul\":32655:32984   */\n      pop\n      pop\n        /* \"#utility.yul\":32442:32984   */\n    tag_755:\n      pop\n        /* \"#utility.yul\":32248:32990   */\n      pop\n      pop\n        /* \"#utility.yul\":32159:32990   */\n      swap3\n      swap2\n      pop\n      pop\n      jump\t// out\n        /* \"#utility.yul\":32996:33626   */\n    tag_176:\n        /* \"#utility.yul\":33186:33190   */\n      0x00\n        /* \"#utility.yul\":33224:33227   */\n      0x80\n        /* \"#utility.yul\":33213:33222   */\n      dup3\n        /* \"#utility.yul\":33209:33228   */\n      add\n        /* \"#utility.yul\":33201:33228   */\n      swap1\n      pop\n        /* \"#utility.yul\":33238:33309   */\n      tag_763\n        /* \"#utility.yul\":33306:33307   */\n      0x00\n        /* \"#utility.yul\":33295:33304   */\n      dup4\n        /* \"#utility.yul\":33291:33308   */\n      add\n        /* \"#utility.yul\":33282:33288   */\n      dup8\n        /* \"#utility.yul\":33238:33309   */\n      tag_363\n      jump\t// in\n    tag_763:\n        /* \"#utility.yul\":33356:33365   */\n      dup2\n        /* \"#utility.yul\":33350:33354   */\n      dup2\n        /* \"#utility.yul\":33346:33366   */\n      sub\n        /* \"#utility.yul\":33341:33343   */\n      0x20\n        /* \"#utility.yul\":33330:33339   */\n      dup4\n        /* \"#utility.yul\":33326:33344   */\n      add\n        /* \"#utility.yul\":33319:33367   */\n      mstore\n        /* \"#utility.yul\":33384:33459   */\n      tag_764\n        /* \"#utility.yul\":33454:33458   */\n      dup2\n        /* \"#utility.yul\":33445:33451   */\n      dup7\n        /* \"#utility.yul\":33384:33459   */\n      tag_421\n      jump\t// in\n    tag_764:\n        /* \"#utility.yul\":33376:33459   */\n      swap1\n      pop\n        /* \"#utility.yul\":33469:33537   */\n      tag_765\n        /* \"#utility.yul\":33533:33535   */\n      0x40\n        /* \"#utility.yul\":33522:33531   */\n      dup4\n        /* \"#utility.yul\":33518:33536   */\n      add\n        /* \"#utility.yul\":33509:33515   */\n      dup6\n        /* \"#utility.yul\":33469:33537   */\n      tag_416\n      jump\t// in\n    tag_765:\n        /* \"#utility.yul\":33547:33619   */\n      tag_766\n        /* \"#utility.yul\":33615:33617   */\n      0x60\n        /* \"#utility.yul\":33604:33613   */\n      dup4\n        /* \"#utility.yul\":33600:33618   */\n      add\n        /* \"#utility.yul\":33591:33597   */\n      dup5\n        /* \"#utility.yul\":33547:33619   */\n      tag_363\n      jump\t// in\n    tag_766:\n        /* \"#utility.yul\":32996:33626   */\n      swap6\n      swap5\n      pop\n      pop\n      pop\n      pop\n      pop\n      jump\t// out\n        /* \"#utility.yul\":33632:33853   */\n    tag_422:\n        /* \"#utility.yul\":33772:33806   */\n      0x5468652073706563696669656420617373657420494420697320696e76616c69\n        /* \"#utility.yul\":33768:33769   */\n      0x00\n        /* \"#utility.yul\":33760:33766   */\n      dup3\n        /* \"#utility.yul\":33756:33770   */\n      add\n        /* \"#utility.yul\":33749:33807   */\n      mstore\n        /* \"#utility.yul\":33841:33845   */\n      0x642e000000000000000000000000000000000000000000000000000000000000\n        /* \"#utility.yul\":33836:33838   */\n      0x20\n        /* \"#utility.yul\":33828:33834   */\n      dup3\n        /* \"#utility.yul\":33824:33839   */\n      add\n        /* \"#utility.yul\":33817:33846   */\n      mstore\n        /* \"#utility.yul\":33632:33853   */\n      pop\n      jump\t// out\n        /* \"#utility.yul\":33859:34225   */\n    tag_423:\n        /* \"#utility.yul\":34001:34004   */\n      0x00\n        /* \"#utility.yul\":34022:34089   */\n      tag_769\n        /* \"#utility.yul\":34086:34088   */\n      0x22\n        /* \"#utility.yul\":34081:34084   */\n      dup4\n        /* \"#utility.yul\":34022:34089   */\n      tag_385\n      jump\t// in\n    tag_769:\n        /* \"#utility.yul\":34015:34089   */\n      swap2\n      pop\n        /* \"#utility.yul\":34098:34191   */\n      tag_770\n        /* \"#utility.yul\":34187:34190   */\n      dup3\n        /* \"#utility.yul\":34098:34191   */\n      tag_422\n      jump\t// in\n    tag_770:\n        /* \"#utility.yul\":34216:34218   */\n      0x40\n        /* \"#utility.yul\":34211:34214   */\n      dup3\n        /* \"#utility.yul\":34207:34219   */\n      add\n        /* \"#utility.yul\":34200:34219   */\n      swap1\n      pop\n        /* \"#utility.yul\":33859:34225   */\n      swap2\n      swap1\n      pop\n      jump\t// out\n        /* \"#utility.yul\":34231:34650   */\n    tag_208:\n        /* \"#utility.yul\":34397:34401   */\n      0x00\n        /* \"#utility.yul\":34435:34437   */\n      0x20\n        /* \"#utility.yul\":34424:34433   */\n      dup3\n        /* \"#utility.yul\":34420:34438   */\n      add\n        /* \"#utility.yul\":34412:34438   */\n      swap1\n      pop\n        /* \"#utility.yul\":34484:34493   */\n      dup2\n        /* \"#utility.yul\":34478:34482   */\n      dup2\n        /* \"#utility.yul\":34474:34494   */\n      sub\n        /* \"#utility.yul\":34470:34471   */\n      0x00\n        /* \"#utility.yul\":34459:34468   */\n      dup4\n        /* \"#utility.yul\":34455:34472   */\n      add\n        /* \"#utility.yul\":34448:34495   */\n      mstore\n        /* \"#utility.yul\":34512:34643   */\n      tag_772\n        /* \"#utility.yul\":34638:34642   */\n      dup2\n        /* \"#utility.yul\":34512:34643   */\n      tag_423\n      jump\t// in\n    tag_772:\n        /* \"#utility.yul\":34504:34643   */\n      swap1\n      pop\n        /* \"#utility.yul\":34231:34650   */\n      swap2\n      swap1\n      pop\n      jump\t// out\n        /* \"#utility.yul\":34656:34879   */\n    tag_424:\n        /* \"#utility.yul\":34796:34830   */\n      0x546865206c6f636b20706572696f6420686173206e6f74207965742065787069\n        /* \"#utility.yul\":34792:34793   */\n      0x00\n        /* \"#utility.yul\":34784:34790   */\n      dup3\n        /* \"#utility.yul\":34780:34794   */\n      add\n        /* \"#utility.yul\":34773:34831   */\n      mstore\n        /* \"#utility.yul\":34865:34871   */\n      0x7265642100000000000000000000000000000000000000000000000000000000\n        /* \"#utility.yul\":34860:34862   */\n      0x20\n        /* \"#utility.yul\":34852:34858   */\n      dup3\n        /* \"#utility.yul\":34848:34863   */\n      add\n        /* \"#utility.yul\":34841:34872   */\n      mstore\n        /* \"#utility.yul\":34656:34879   */\n      pop\n      jump\t// out\n        /* \"#utility.yul\":34885:35251   */\n    tag_425:\n        /* \"#utility.yul\":35027:35030   */\n      0x00\n        /* \"#utility.yul\":35048:35115   */\n      tag_775\n        /* \"#utility.yul\":35112:35114   */\n      0x24\n        /* \"#utility.yul\":35107:35110   */\n      dup4\n        /* \"#utility.yul\":35048:35115   */\n      tag_385\n      jump\t// in\n    tag_775:\n        /* \"#utility.yul\":35041:35115   */\n      swap2\n      pop\n        /* \"#utility.yul\":35124:35217   */\n      tag_776\n        /* \"#utility.yul\":35213:35216   */\n      dup3\n        /* \"#utility.yul\":35124:35217   */\n      tag_424\n      jump\t// in\n    tag_776:\n        /* \"#utility.yul\":35242:35244   */\n      0x40\n        /* \"#utility.yul\":35237:35240   */\n      dup3\n        /* \"#utility.yul\":35233:35245   */\n      add\n        /* \"#utility.yul\":35226:35245   */\n      swap1\n      pop\n        /* \"#utility.yul\":34885:35251   */\n      swap2\n      swap1\n      pop\n      jump\t// out\n        /* \"#utility.yul\":35257:35676   */\n    tag_211:\n        /* \"#utility.yul\":35423:35427   */\n      0x00\n        /* \"#utility.yul\":35461:35463   */\n      0x20\n        /* \"#utility.yul\":35450:35459   */\n      dup3\n        /* \"#utility.yul\":35446:35464   */\n      add\n        /* \"#utility.yul\":35438:35464   */\n      swap1\n      pop\n        /* \"#utility.yul\":35510:35519   */\n      dup2\n        /* \"#utility.yul\":35504:35508   */\n      dup2\n        /* \"#utility.yul\":35500:35520   */\n      sub\n        /* \"#utility.yul\":35496:35497   */\n      0x00\n        /* \"#utility.yul\":35485:35494   */\n      dup4\n        /* \"#utility.yul\":35481:35498   */\n      add\n        /* \"#utility.yul\":35474:35521   */\n      mstore\n        /* \"#utility.yul\":35538:35669   */\n      tag_778\n        /* \"#utility.yul\":35664:35668   */\n      dup2\n        /* \"#utility.yul\":35538:35669   */\n      tag_425\n      jump\t// in\n    tag_778:\n        /* \"#utility.yul\":35530:35669   */\n      swap1\n      pop\n        /* \"#utility.yul\":35257:35676   */\n      swap2\n      swap1\n      pop\n      jump\t// out\n        /* \"#utility.yul\":35682:36312   */\n    tag_217:\n        /* \"#utility.yul\":35872:35876   */\n      0x00\n        /* \"#utility.yul\":35910:35913   */\n      0x80\n        /* \"#utility.yul\":35899:35908   */\n      dup3\n        /* \"#utility.yul\":35895:35914   */\n      add\n        /* \"#utility.yul\":35887:35914   */\n      swap1\n      pop\n        /* \"#utility.yul\":35924:35991   */\n      tag_780\n        /* \"#utility.yul\":35988:35989   */\n      0x00\n        /* \"#utility.yul\":35977:35986   */\n      dup4\n        /* \"#utility.yul\":35973:35990   */\n      add\n        /* \"#utility.yul\":35964:35970   */\n      dup8\n        /* \"#utility.yul\":35924:35991   */\n      tag_416\n      jump\t// in\n    tag_780:\n        /* \"#utility.yul\":36001:36073   */\n      tag_781\n        /* \"#utility.yul\":36069:36071   */\n      0x20\n        /* \"#utility.yul\":36058:36067   */\n      dup4\n        /* \"#utility.yul\":36054:36072   */\n      add\n        /* \"#utility.yul\":36045:36051   */\n      dup7\n        /* \"#utility.yul\":36001:36073   */\n      tag_363\n      jump\t// in\n    tag_781:\n        /* \"#utility.yul\":36120:36129   */\n      dup2\n        /* \"#utility.yul\":36114:36118   */\n      dup2\n        /* \"#utility.yul\":36110:36130   */\n      sub\n        /* \"#utility.yul\":36105:36107   */\n      0x40\n        /* \"#utility.yul\":36094:36103   */\n      dup4\n        /* \"#utility.yul\":36090:36108   */\n      add\n        /* \"#utility.yul\":36083:36131   */\n      mstore\n        /* \"#utility.yul\":36148:36223   */\n      tag_782\n        /* \"#utility.yul\":36218:36222   */\n      dup2\n        /* \"#utility.yul\":36209:36215   */\n      dup6\n        /* \"#utility.yul\":36148:36223   */\n      tag_421\n      jump\t// in\n    tag_782:\n        /* \"#utility.yul\":36140:36223   */\n      swap1\n      pop\n        /* \"#utility.yul\":36233:36305   */\n      tag_783\n        /* \"#utility.yul\":36301:36303   */\n      0x60\n        /* \"#utility.yul\":36290:36299   */\n      dup4\n        /* \"#utility.yul\":36286:36304   */\n      add\n        /* \"#utility.yul\":36277:36283   */\n      dup5\n        /* \"#utility.yul\":36233:36305   */\n      tag_363\n      jump\t// in\n    tag_783:\n        /* \"#utility.yul\":35682:36312   */\n      swap6\n      swap5\n      pop\n      pop\n      pop\n      pop\n      pop\n      jump\t// out\n        /* \"#utility.yul\":36318:36540   */\n    tag_426:\n        /* \"#utility.yul\":36458:36492   */\n      0x417373657473206861766520616c7265616479206265656e2077697468647261\n        /* \"#utility.yul\":36454:36455   */\n      0x00\n        /* \"#utility.yul\":36446:36452   */\n      dup3\n        /* \"#utility.yul\":36442:36456   */\n      add\n        /* \"#utility.yul\":36435:36493   */\n      mstore\n        /* \"#utility.yul\":36527:36532   */\n      0x776e210000000000000000000000000000000000000000000000000000000000\n        /* \"#utility.yul\":36522:36524   */\n      0x20\n        /* \"#utility.yul\":36514:36520   */\n      dup3\n        /* \"#utility.yul\":36510:36525   */\n      add\n        /* \"#utility.yul\":36503:36533   */\n      mstore\n        /* \"#utility.yul\":36318:36540   */\n      pop\n      jump\t// out\n        /* \"#utility.yul\":36546:36912   */\n    tag_427:\n        /* \"#utility.yul\":36688:36691   */\n      0x00\n        /* \"#utility.yul\":36709:36776   */\n      tag_786\n        /* \"#utility.yul\":36773:36775   */\n      0x23\n        /* \"#utility.yul\":36768:36771   */\n      dup4\n        /* \"#utility.yul\":36709:36776   */\n      tag_385\n      jump\t// in\n    tag_786:\n        /* \"#utility.yul\":36702:36776   */\n      swap2\n      pop\n        /* \"#utility.yul\":36785:36878   */\n      tag_787\n        /* \"#utility.yul\":36874:36877   */\n      dup3\n        /* \"#utility.yul\":36785:36878   */\n      tag_426\n      jump\t// in\n    tag_787:\n        /* \"#utility.yul\":36903:36905   */\n      0x40\n        /* \"#utility.yul\":36898:36901   */\n      dup3\n        /* \"#utility.yul\":36894:36906   */\n      add\n        /* \"#utility.yul\":36887:36906   */\n      swap1\n      pop\n        /* \"#utility.yul\":36546:36912   */\n      swap2\n      swap1\n      pop\n      jump\t// out\n        /* \"#utility.yul\":36918:37337   */\n    tag_235:\n        /* \"#utility.yul\":37084:37088   */\n      0x00\n        /* \"#utility.yul\":37122:37124   */\n      0x20\n        /* \"#utility.yul\":37111:37120   */\n      dup3\n        /* \"#utility.yul\":37107:37125   */\n      add\n        /* \"#utility.yul\":37099:37125   */\n      swap1\n      pop\n        /* \"#utility.yul\":37171:37180   */\n      dup2\n        /* \"#utility.yul\":37165:37169   */\n      dup2\n        /* \"#utility.yul\":37161:37181   */\n      sub\n        /* \"#utility.yul\":37157:37158   */\n      0x00\n        /* \"#utility.yul\":37146:37155   */\n      dup4\n        /* \"#utility.yul\":37142:37159   */\n      add\n        /* \"#utility.yul\":37135:37182   */\n      mstore\n        /* \"#utility.yul\":37199:37330   */\n      tag_789\n        /* \"#utility.yul\":37325:37329   */\n      dup2\n        /* \"#utility.yul\":37199:37330   */\n      tag_427\n      jump\t// in\n    tag_789:\n        /* \"#utility.yul\":37191:37330   */\n      swap1\n      pop\n        /* \"#utility.yul\":36918:37337   */\n      swap2\n      swap1\n      pop\n      jump\t// out\n        /* \"#utility.yul\":37343:37642   */\n    tag_428:\n        /* \"#utility.yul\":37483:37517   */\n      0x546865206c6f636b20706572696f6420686173206e6f74207965742065787069\n        /* \"#utility.yul\":37479:37480   */\n      0x00\n        /* \"#utility.yul\":37471:37477   */\n      dup3\n        /* \"#utility.yul\":37467:37481   */\n      add\n        /* \"#utility.yul\":37460:37518   */\n      mstore\n        /* \"#utility.yul\":37552:37586   */\n      0x72656420616e64207468652076616c756520686173206e6f7420726561636865\n        /* \"#utility.yul\":37547:37549   */\n      0x20\n        /* \"#utility.yul\":37539:37545   */\n      dup3\n        /* \"#utility.yul\":37535:37550   */\n      add\n        /* \"#utility.yul\":37528:37587   */\n      mstore\n        /* \"#utility.yul\":37621:37634   */\n      0x642073657420676f616c21000000000000000000000000000000000000000000\n        /* \"#utility.yul\":37616:37618   */\n      0x40\n        /* \"#utility.yul\":37608:37614   */\n      dup3\n        /* \"#utility.yul\":37604:37619   */\n      add\n        /* \"#utility.yul\":37597:37635   */\n      mstore\n        /* \"#utility.yul\":37343:37642   */\n      pop\n      jump\t// out\n        /* \"#utility.yul\":37648:38014   */\n    tag_429:\n        /* \"#utility.yul\":37790:37793   */\n      0x00\n        /* \"#utility.yul\":37811:37878   */\n      tag_792\n        /* \"#utility.yul\":37875:37877   */\n      0x4b\n        /* \"#utility.yul\":37870:37873   */\n      dup4\n        /* \"#utility.yul\":37811:37878   */\n      tag_385\n      jump\t// in\n    tag_792:\n        /* \"#utility.yul\":37804:37878   */\n      swap2\n      pop\n        /* \"#utility.yul\":37887:37980   */\n      tag_793\n        /* \"#utility.yul\":37976:37979   */\n      dup3\n        /* \"#utility.yul\":37887:37980   */\n      tag_428\n      jump\t// in\n    tag_793:\n        /* \"#utility.yul\":38005:38007   */\n      0x60\n        /* \"#utility.yul\":38000:38003   */\n      dup3\n        /* \"#utility.yul\":37996:38008   */\n      add\n        /* \"#utility.yul\":37989:38008   */\n      swap1\n      pop\n        /* \"#utility.yul\":37648:38014   */\n      swap2\n      swap1\n      pop\n      jump\t// out\n        /* \"#utility.yul\":38020:38439   */\n    tag_239:\n        /* \"#utility.yul\":38186:38190   */\n      0x00\n        /* \"#utility.yul\":38224:38226   */\n      0x20\n        /* \"#utility.yul\":38213:38222   */\n      dup3\n        /* \"#utility.yul\":38209:38227   */\n      add\n        /* \"#utility.yul\":38201:38227   */\n      swap1\n      pop\n        /* \"#utility.yul\":38273:38282   */\n      dup2\n        /* \"#utility.yul\":38267:38271   */\n      dup2\n        /* \"#utility.yul\":38263:38283   */\n      sub\n        /* \"#utility.yul\":38259:38260   */\n      0x00\n        /* \"#utility.yul\":38248:38257   */\n      dup4\n        /* \"#utility.yul\":38244:38261   */\n      add\n        /* \"#utility.yul\":38237:38284   */\n      mstore\n        /* \"#utility.yul\":38301:38432   */\n      tag_795\n        /* \"#utility.yul\":38427:38431   */\n      dup2\n        /* \"#utility.yul\":38301:38432   */\n      tag_429\n      jump\t// in\n    tag_795:\n        /* \"#utility.yul\":38293:38432   */\n      swap1\n      pop\n        /* \"#utility.yul\":38020:38439   */\n      swap2\n      swap1\n      pop\n      jump\t// out\n        /* \"#utility.yul\":38445:38639   */\n    tag_241:\n        /* \"#utility.yul\":38485:38489   */\n      0x00\n        /* \"#utility.yul\":38505:38525   */\n      tag_797\n        /* \"#utility.yul\":38523:38524   */\n      dup3\n        /* \"#utility.yul\":38505:38525   */\n      tag_347\n      jump\t// in\n    tag_797:\n        /* \"#utility.yul\":38500:38525   */\n      swap2\n      pop\n        /* \"#utility.yul\":38539:38559   */\n      tag_798\n        /* \"#utility.yul\":38557:38558   */\n      dup4\n        /* \"#utility.yul\":38539:38559   */\n      tag_347\n      jump\t// in\n    tag_798:\n        /* \"#utility.yul\":38534:38559   */\n      swap3\n      pop\n        /* \"#utility.yul\":38583:38584   */\n      dup3\n        /* \"#utility.yul\":38580:38581   */\n      dup3\n        /* \"#utility.yul\":38576:38585   */\n      sub\n        /* \"#utility.yul\":38568:38585   */\n      swap1\n      pop\n        /* \"#utility.yul\":38607:38608   */\n      dup2\n        /* \"#utility.yul\":38601:38605   */\n      dup2\n        /* \"#utility.yul\":38598:38609   */\n      gt\n        /* \"#utility.yul\":38595:38632   */\n      iszero\n      tag_799\n      jumpi\n        /* \"#utility.yul\":38612:38630   */\n      tag_800\n      tag_399\n      jump\t// in\n    tag_800:\n        /* \"#utility.yul\":38595:38632   */\n    tag_799:\n        /* \"#utility.yul\":38445:38639   */\n      swap3\n      swap2\n      pop\n      pop\n      jump\t// out\n        /* \"#utility.yul\":38645:38825   */\n    tag_430:\n        /* \"#utility.yul\":38785:38817   */\n      0x4e6f7420656e6f7567682061737365747320746f207769746864726177210000\n        /* \"#utility.yul\":38781:38782   */\n      0x00\n        /* \"#utility.yul\":38773:38779   */\n      dup3\n        /* \"#utility.yul\":38769:38783   */\n      add\n        /* \"#utility.yul\":38762:38818   */\n      mstore\n        /* \"#utility.yul\":38645:38825   */\n      pop\n      jump\t// out\n        /* \"#utility.yul\":38831:39197   */\n    tag_431:\n        /* \"#utility.yul\":38973:38976   */\n      0x00\n        /* \"#utility.yul\":38994:39061   */\n      tag_803\n        /* \"#utility.yul\":39058:39060   */\n      0x1e\n        /* \"#utility.yul\":39053:39056   */\n      dup4\n        /* \"#utility.yul\":38994:39061   */\n      tag_385\n      jump\t// in\n    tag_803:\n        /* \"#utility.yul\":38987:39061   */\n      swap2\n      pop\n        /* \"#utility.yul\":39070:39163   */\n      tag_804\n        /* \"#utility.yul\":39159:39162   */\n      dup3\n        /* \"#utility.yul\":39070:39163   */\n      tag_430\n      jump\t// in\n    tag_804:\n        /* \"#utility.yul\":39188:39190   */\n      0x20\n        /* \"#utility.yul\":39183:39186   */\n      dup3\n        /* \"#utility.yul\":39179:39191   */\n      add\n        /* \"#utility.yul\":39172:39191   */\n      swap1\n      pop\n        /* \"#utility.yul\":38831:39197   */\n      swap2\n      swap1\n      pop\n      jump\t// out\n        /* \"#utility.yul\":39203:39622   */\n    tag_244:\n        /* \"#utility.yul\":39369:39373   */\n      0x00\n        /* \"#utility.yul\":39407:39409   */\n      0x20\n        /* \"#utility.yul\":39396:39405   */\n      dup3\n        /* \"#utility.yul\":39392:39410   */\n      add\n        /* \"#utility.yul\":39384:39410   */\n      swap1\n      pop\n        /* \"#utility.yul\":39456:39465   */\n      dup2\n        /* \"#utility.yul\":39450:39454   */\n      dup2\n        /* \"#utility.yul\":39446:39466   */\n      sub\n        /* \"#utility.yul\":39442:39443   */\n      0x00\n        /* \"#utility.yul\":39431:39440   */\n      dup4\n        /* \"#utility.yul\":39427:39444   */\n      add\n        /* \"#utility.yul\":39420:39467   */\n      mstore\n        /* \"#utility.yul\":39484:39615   */\n      tag_806\n        /* \"#utility.yul\":39610:39614   */\n      dup2\n        /* \"#utility.yul\":39484:39615   */\n      tag_431\n      jump\t// in\n    tag_806:\n        /* \"#utility.yul\":39476:39615   */\n      swap1\n      pop\n        /* \"#utility.yul\":39203:39622   */\n      swap2\n      swap1\n      pop\n      jump\t// out\n        /* \"#utility.yul\":39628:39775   */\n    tag_432:\n        /* \"#utility.yul\":39729:39740   */\n      0x00\n        /* \"#utility.yul\":39766:39769   */\n      dup2\n        /* \"#utility.yul\":39751:39769   */\n      swap1\n      pop\n        /* \"#utility.yul\":39628:39775   */\n      swap3\n      swap2\n      pop\n      pop\n      jump\t// out\n        /* \"#utility.yul\":39781:39895   */\n    tag_433:\n      pop\n      jump\t// out\n        /* \"#utility.yul\":39901:40299   */\n    tag_434:\n        /* \"#utility.yul\":40060:40063   */\n      0x00\n        /* \"#utility.yul\":40081:40164   */\n      tag_810\n        /* \"#utility.yul\":40162:40163   */\n      0x00\n        /* \"#utility.yul\":40157:40160   */\n      dup4\n        /* \"#utility.yul\":40081:40164   */\n      tag_432\n      jump\t// in\n    tag_810:\n        /* \"#utility.yul\":40074:40164   */\n      swap2\n      pop\n        /* \"#utility.yul\":40173:40266   */\n      tag_811\n        /* \"#utility.yul\":40262:40265   */\n      dup3\n        /* \"#utility.yul\":40173:40266   */\n      tag_433\n      jump\t// in\n    tag_811:\n        /* \"#utility.yul\":40291:40292   */\n      0x00\n        /* \"#utility.yul\":40286:40289   */\n      dup3\n        /* \"#utility.yul\":40282:40293   */\n      add\n        /* \"#utility.yul\":40275:40293   */\n      swap1\n      pop\n        /* \"#utility.yul\":39901:40299   */\n      swap2\n      swap1\n      pop\n      jump\t// out\n        /* \"#utility.yul\":40305:40684   */\n    tag_254:\n        /* \"#utility.yul\":40489:40492   */\n      0x00\n        /* \"#utility.yul\":40511:40658   */\n      tag_813\n        /* \"#utility.yul\":40654:40657   */\n      dup3\n        /* \"#utility.yul\":40511:40658   */\n      tag_434\n      jump\t// in\n    tag_813:\n        /* \"#utility.yul\":40504:40658   */\n      swap2\n      pop\n        /* \"#utility.yul\":40675:40678   */\n      dup2\n        /* \"#utility.yul\":40668:40678   */\n      swap1\n      pop\n        /* \"#utility.yul\":40305:40684   */\n      swap2\n      swap1\n      pop\n      jump\t// out\n        /* \"#utility.yul\":40690:40859   */\n    tag_435:\n        /* \"#utility.yul\":40830:40851   */\n      0x455448207472616e73666572206661696c656400000000000000000000000000\n        /* \"#utility.yul\":40826:40827   */\n      0x00\n        /* \"#utility.yul\":40818:40824   */\n      dup3\n        /* \"#utility.yul\":40814:40828   */\n      add\n        /* \"#utility.yul\":40807:40852   */\n      mstore\n        /* \"#utility.yul\":40690:40859   */\n      pop\n      jump\t// out\n        /* \"#utility.yul\":40865:41231   */\n    tag_436:\n        /* \"#utility.yul\":41007:41010   */\n      0x00\n        /* \"#utility.yul\":41028:41095   */\n      tag_816\n        /* \"#utility.yul\":41092:41094   */\n      0x13\n        /* \"#utility.yul\":41087:41090   */\n      dup4\n        /* \"#utility.yul\":41028:41095   */\n      tag_385\n      jump\t// in\n    tag_816:\n        /* \"#utility.yul\":41021:41095   */\n      swap2\n      pop\n        /* \"#utility.yul\":41104:41197   */\n      tag_817\n        /* \"#utility.yul\":41193:41196   */\n      dup3\n        /* \"#utility.yul\":41104:41197   */\n      tag_435\n      jump\t// in\n    tag_817:\n        /* \"#utility.yul\":41222:41224   */\n      0x20\n        /* \"#utility.yul\":41217:41220   */\n      dup3\n        /* \"#utility.yul\":41213:41225   */\n      add\n        /* \"#utility.yul\":41206:41225   */\n      swap1\n      pop\n        /* \"#utility.yul\":40865:41231   */\n      swap2\n      swap1\n      pop\n      jump\t// out\n        /* \"#utility.yul\":41237:41656   */\n    tag_260:\n        /* \"#utility.yul\":41403:41407   */\n      0x00\n        /* \"#utility.yul\":41441:41443   */\n      0x20\n        /* \"#utility.yul\":41430:41439   */\n      dup3\n        /* \"#utility.yul\":41426:41444   */\n      add\n        /* \"#utility.yul\":41418:41444   */\n      swap1\n      pop\n        /* \"#utility.yul\":41490:41499   */\n      dup2\n        /* \"#utility.yul\":41484:41488   */\n      dup2\n        /* \"#utility.yul\":41480:41500   */\n      sub\n        /* \"#utility.yul\":41476:41477   */\n      0x00\n        /* \"#utility.yul\":41465:41474   */\n      dup4\n        /* \"#utility.yul\":41461:41478   */\n      add\n        /* \"#utility.yul\":41454:41501   */\n      mstore\n        /* \"#utility.yul\":41518:41649   */\n      tag_819\n        /* \"#utility.yul\":41644:41648   */\n      dup2\n        /* \"#utility.yul\":41518:41649   */\n      tag_436\n      jump\t// in\n    tag_819:\n        /* \"#utility.yul\":41510:41649   */\n      swap1\n      pop\n        /* \"#utility.yul\":41237:41656   */\n      swap2\n      swap1\n      pop\n      jump\t// out\n        /* \"#utility.yul\":41662:41900   */\n    tag_437:\n        /* \"#utility.yul\":41802:41836   */\n      0x45544820746f2061646420746f206c6f636b206d75737420626520616e20616d\n        /* \"#utility.yul\":41798:41799   */\n      0x00\n        /* \"#utility.yul\":41790:41796   */\n      dup3\n        /* \"#utility.yul\":41786:41800   */\n      add\n        /* \"#utility.yul\":41779:41837   */\n      mstore\n        /* \"#utility.yul\":41871:41892   */\n      0x6f756e742067726561746572207468616e203000000000000000000000000000\n        /* \"#utility.yul\":41866:41868   */\n      0x20\n        /* \"#utility.yul\":41858:41864   */\n      dup3\n        /* \"#utility.yul\":41854:41869   */\n      add\n        /* \"#utility.yul\":41847:41893   */\n      mstore\n        /* \"#utility.yul\":41662:41900   */\n      pop\n      jump\t// out\n        /* \"#utility.yul\":41906:42272   */\n    tag_438:\n        /* \"#utility.yul\":42048:42051   */\n      0x00\n        /* \"#utility.yul\":42069:42136   */\n      tag_822\n        /* \"#utility.yul\":42133:42135   */\n      0x33\n        /* \"#utility.yul\":42128:42131   */\n      dup4\n        /* \"#utility.yul\":42069:42136   */\n      tag_385\n      jump\t// in\n    tag_822:\n        /* \"#utility.yul\":42062:42136   */\n      swap2\n      pop\n        /* \"#utility.yul\":42145:42238   */\n      tag_823\n        /* \"#utility.yul\":42234:42237   */\n      dup3\n        /* \"#utility.yul\":42145:42238   */\n      tag_437\n      jump\t// in\n    tag_823:\n        /* \"#utility.yul\":42263:42265   */\n      0x40\n        /* \"#utility.yul\":42258:42261   */\n      dup3\n        /* \"#utility.yul\":42254:42266   */\n      add\n        /* \"#utility.yul\":42247:42266   */\n      swap1\n      pop\n        /* \"#utility.yul\":41906:42272   */\n      swap2\n      swap1\n      pop\n      jump\t// out\n        /* \"#utility.yul\":42278:42697   */\n    tag_283:\n        /* \"#utility.yul\":42444:42448   */\n      0x00\n        /* \"#utility.yul\":42482:42484   */\n      0x20\n        /* \"#utility.yul\":42471:42480   */\n      dup3\n        /* \"#utility.yul\":42467:42485   */\n      add\n        /* \"#utility.yul\":42459:42485   */\n      swap1\n      pop\n        /* \"#utility.yul\":42531:42540   */\n      dup2\n        /* \"#utility.yul\":42525:42529   */\n      dup2\n        /* \"#utility.yul\":42521:42541   */\n      sub\n        /* \"#utility.yul\":42517:42518   */\n      0x00\n        /* \"#utility.yul\":42506:42515   */\n      dup4\n        /* \"#utility.yul\":42502:42519   */\n      add\n        /* \"#utility.yul\":42495:42542   */\n      mstore\n        /* \"#utility.yul\":42559:42690   */\n      tag_825\n        /* \"#utility.yul\":42685:42689   */\n      dup2\n        /* \"#utility.yul\":42559:42690   */\n      tag_438\n      jump\t// in\n    tag_825:\n        /* \"#utility.yul\":42551:42690   */\n      swap1\n      pop\n        /* \"#utility.yul\":42278:42697   */\n      swap2\n      swap1\n      pop\n      jump\t// out\n        /* \"#utility.yul\":42703:43145   */\n    tag_314:\n        /* \"#utility.yul\":42852:42856   */\n      0x00\n        /* \"#utility.yul\":42890:42892   */\n      0x60\n        /* \"#utility.yul\":42879:42888   */\n      dup3\n        /* \"#utility.yul\":42875:42893   */\n      add\n        /* \"#utility.yul\":42867:42893   */\n      swap1\n      pop\n        /* \"#utility.yul\":42903:42974   */\n      tag_827\n        /* \"#utility.yul\":42971:42972   */\n      0x00\n        /* \"#utility.yul\":42960:42969   */\n      dup4\n        /* \"#utility.yul\":42956:42973   */\n      add\n        /* \"#utility.yul\":42947:42953   */\n      dup7\n        /* \"#utility.yul\":42903:42974   */\n      tag_384\n      jump\t// in\n    tag_827:\n        /* \"#utility.yul\":42984:43056   */\n      tag_828\n        /* \"#utility.yul\":43052:43054   */\n      0x20\n        /* \"#utility.yul\":43041:43050   */\n      dup4\n        /* \"#utility.yul\":43037:43055   */\n      add\n        /* \"#utility.yul\":43028:43034   */\n      dup6\n        /* \"#utility.yul\":42984:43056   */\n      tag_384\n      jump\t// in\n    tag_828:\n        /* \"#utility.yul\":43066:43138   */\n      tag_829\n        /* \"#utility.yul\":43134:43136   */\n      0x40\n        /* \"#utility.yul\":43123:43132   */\n      dup4\n        /* \"#utility.yul\":43119:43137   */\n      add\n        /* \"#utility.yul\":43110:43116   */\n      dup5\n        /* \"#utility.yul\":43066:43138   */\n      tag_363\n      jump\t// in\n    tag_829:\n        /* \"#utility.yul\":42703:43145   */\n      swap5\n      swap4\n      pop\n      pop\n      pop\n      pop\n      jump\t// out\n        /* \"#utility.yul\":43151:43483   */\n    tag_331:\n        /* \"#utility.yul\":43272:43276   */\n      0x00\n        /* \"#utility.yul\":43310:43312   */\n      0x40\n        /* \"#utility.yul\":43299:43308   */\n      dup3\n        /* \"#utility.yul\":43295:43313   */\n      add\n        /* \"#utility.yul\":43287:43313   */\n      swap1\n      pop\n        /* \"#utility.yul\":43323:43394   */\n      tag_831\n        /* \"#utility.yul\":43391:43392   */\n      0x00\n        /* \"#utility.yul\":43380:43389   */\n      dup4\n        /* \"#utility.yul\":43376:43393   */\n      add\n        /* \"#utility.yul\":43367:43373   */\n      dup6\n        /* \"#utility.yul\":43323:43394   */\n      tag_384\n      jump\t// in\n    tag_831:\n        /* \"#utility.yul\":43404:43476   */\n      tag_832\n        /* \"#utility.yul\":43472:43474   */\n      0x20\n        /* \"#utility.yul\":43461:43470   */\n      dup4\n        /* \"#utility.yul\":43457:43475   */\n      add\n        /* \"#utility.yul\":43448:43454   */\n      dup5\n        /* \"#utility.yul\":43404:43476   */\n      tag_363\n      jump\t// in\n    tag_832:\n        /* \"#utility.yul\":43151:43483   */\n      swap4\n      swap3\n      pop\n      pop\n      pop\n      jump\t// out\n\n    auxdata: 0xa264697066735822122099033034a4d5bac1b1547ea91f3253667d0bbde997a681071f460d79172b55cf64736f6c634300081a0033\n}\n",
				"bytecode": {
					"linkReferences": {},
					"object": "608060405234801561000f575f80fd5b50335f73ffffffffffffffffffffffffffffffffffffffff168173ffffffffffffffffffffffffffffffffffffffff1603610081575f6040517f1e4fbdf7000000000000000000000000000000000000000000000000000000008152600401610078919061019d565b60405180910390fd5b6100908161009d60201b60201c565b50600180819055506101b6565b5f805f9054906101000a900473ffffffffffffffffffffffffffffffffffffffff169050815f806101000a81548173ffffffffffffffffffffffffffffffffffffffff021916908373ffffffffffffffffffffffffffffffffffffffff1602179055508173ffffffffffffffffffffffffffffffffffffffff168173ffffffffffffffffffffffffffffffffffffffff167f8be0079c531659141344cd1fd0a4f28419497f9722a3daafe3b4186f6b6457e060405160405180910390a35050565b5f73ffffffffffffffffffffffffffffffffffffffff82169050919050565b5f6101878261015e565b9050919050565b6101978161017d565b82525050565b5f6020820190506101b05f83018461018e565b92915050565b6138b6806101c35f395ff3fe6080604052600436106100e7575f3560e01c80638c89a0ad116100895780639e6c3ff2116100585780639e6c3ff2146102e3578063ecaa9d051461030b578063f152edce14610327578063f2fde38b1461034f576100e7565b80638c89a0ad146102255780638da5cb5b1461024f5780638de8107b146102795780638e06b906146102a1576100e7565b80632d8fefc2116100c55780632d8fefc21461016b5780633b958c381461019357806360864eed146101cf578063715018a61461020f576100e7565b80630f1419b5146100eb57806313a2e8841461011357806314205e281461012f575b5f80fd5b3480156100f6575f80fd5b50610111600480360381019061010c9190612497565b610377565b005b61012d6004803603810190610128919061252a565b61077b565b005b34801561013a575f80fd5b5061015560048036038101906101509190612596565b610a25565b60405161016291906125d0565b60405180910390f35b348015610176575f80fd5b50610191600480360381019061018c9190612622565b610aa5565b005b34801561019e575f80fd5b506101b960048036038101906101b49190612686565b610d8f565b6040516101c6919061289d565b60405180910390f35b3480156101da575f80fd5b506101f560048036038101906101f091906128e7565b610f85565b60405161020695949392919061299d565b60405180910390f35b34801561021a575f80fd5b5061022361108d565b005b348015610230575f80fd5b506102396110a0565b60405161024691906125d0565b60405180910390f35b34801561025a575f80fd5b506102636110a7565b60405161027091906129f5565b60405180910390f35b348015610284575f80fd5b5061029f600480360381019061029a9190612a0e565b6110ce565b005b3480156102ac575f80fd5b506102c760048036038101906102c291906128e7565b611332565b6040516102da9796959493929190612a5e565b60405180910390f35b3480156102ee575f80fd5b5061030960048036038101906103049190612a0e565b611460565b005b61032560048036038101906103209190612ad2565b611a88565b005b348015610332575f80fd5b5061034d60048036038101906103489190612b3a565b611cd5565b005b34801561035a575f80fd5b5061037560048036038101906103709190612b8a565b611d6b565b005b61037f611def565b5f73ffffffffffffffffffffffffffffffffffffffff168573ffffffffffffffffffffffffffffffffffffffff16036103ed576040517f08c379a00000000000000000000000000000000000000000000000000000000081526004016103e490612c25565b60405180910390fd5b5f841161042f576040517f08c379a000000000000000000000000000000000000000000000000000000000815260040161042690612cb3565b60405180910390fd5b5f8211610471576040517f08c379a000000000000000000000000000000000000000000000000000000000815260040161046890612d41565b60405180910390fd5b5f8573ffffffffffffffffffffffffffffffffffffffff166370a08231336040518263ffffffff1660e01b81526004016104ab91906129f5565b602060405180830381865afa1580156104c6573d5f803e3d5ffd5b505050506040513d601f19601f820116820180604052508101906104ea9190612d73565b90508085111561052f576040517f08c379a000000000000000000000000000000000000000000000000000000000815260040161052690612de8565b60405180910390fd5b61055c3330878973ffffffffffffffffffffffffffffffffffffffff16611e35909392919063ffffffff16565b60025f3373ffffffffffffffffffffffffffffffffffffffff1673ffffffffffffffffffffffffffffffffffffffff1681526020019081526020015f205f8560ff1660ff1681526020019081526020015f206040518060e001604052808873ffffffffffffffffffffffffffffffffffffffff16815260200187815260200185426105e79190612e33565b81526020018481526020015f151581526020015f151581526020015f1515815250908060018154018082558091505060019003905f5260205f2090600502015f909190919091505f820151815f015f6101000a81548173ffffffffffffffffffffffffffffffffffffffff021916908373ffffffffffffffffffffffffffffffffffffffff1602179055506020820151816001015560408201518160020155606082015181600301908161069b9190613060565b506080820151816004015f6101000a81548160ff02191690831515021790555060a08201518160040160016101000a81548160ff02191690831515021790555060c08201518160040160026101000a81548160ff021916908315150217905550505061070a868587855f611eb7565b8573ffffffffffffffffffffffffffffffffffffffff167fed26bd61b6bf2f43d7471454e53e77ffdc96beefa2f198977936f6d02d34563d86848787426107519190612e33565b4260405161076395949392919061313e565b60405180910390a250610774612004565b5050505050565b610783611def565b5f34116107c5576040517f08c379a00000000000000000000000000000000000000000000000000000000081526004016107bc90613206565b60405180910390fd5b5f821015610808576040517f08c379a00000000000000000000000000000000000000000000000000000000081526004016107ff90613294565b60405180910390fd5b60025f3373ffffffffffffffffffffffffffffffffffffffff1673ffffffffffffffffffffffffffffffffffffffff1681526020019081526020015f205f8460ff1660ff1681526020019081526020015f206040518060e001604052805f73ffffffffffffffffffffffffffffffffffffffff16815260200134815260200184426108939190612e33565b81526020018381526020015f151581526020016001151581526020015f1515815250908060018154018082558091505060019003905f5260205f2090600502015f909190919091505f820151815f015f6101000a81548173ffffffffffffffffffffffffffffffffffffffff021916908373ffffffffffffffffffffffffffffffffffffffff160217905550602082015181600101556040820151816002015560608201518160030190816109489190613060565b506080820151816004015f6101000a81548160ff02191690831515021790555060a08201518160040160016101000a81548160ff02191690831515021790555060c08201518160040160026101000a81548160ff02191690831515021790555050506109b75f8434845f611eb7565b5f73ffffffffffffffffffffffffffffffffffffffff167fed26bd61b6bf2f43d7471454e53e77ffdc96beefa2f198977936f6d02d34563d34838686426109fe9190612e33565b42604051610a1095949392919061313e565b60405180910390a2610a20612004565b505050565b5f8173ffffffffffffffffffffffffffffffffffffffff166370a08231306040518263ffffffff1660e01b8152600401610a5f91906129f5565b602060405180830381865afa158015610a7a573d5f803e3d5ffd5b505050506040513d601f19601f82011682018060405250810190610a9e9190612d73565b9050919050565b610aad611def565b5f73ffffffffffffffffffffffffffffffffffffffff168473ffffffffffffffffffffffffffffffffffffffff1603610b1b576040517f08c379a0000000000000000000000000000000000000000000000000000000008152600401610b1290612c25565b60405180910390fd5b5f8211610b5d576040517f08c379a0000000000000000000000000000000000000000000000000000000008152600401610b5490612cb3565b60405180910390fd5b5f60025f3373ffffffffffffffffffffffffffffffffffffffff1673ffffffffffffffffffffffffffffffffffffffff1681526020019081526020015f205f8360ff1660ff1681526020019081526020015f208463ffffffff1681548110610bc857610bc76132b2565b5b905f5260205f2090600502019050610c033330858873ffffffffffffffffffffffffffffffffffffffff16611e35909392919063ffffffff16565b8260025f3373ffffffffffffffffffffffffffffffffffffffff1673ffffffffffffffffffffffffffffffffffffffff1681526020019081526020015f205f8460ff1660ff1681526020019081526020015f208563ffffffff1681548110610c6e57610c6d6132b2565b5b905f5260205f2090600502016001015f828254610c8b9190612e33565b92505081905550610d29858385846003018054610ca790612e93565b80601f0160208091040260200160405190810160405280929190818152602001828054610cd390612e93565b8015610d1e5780601f10610cf557610100808354040283529160200191610d1e565b820191905f5260205f20905b815481529060010190602001808311610d0157829003601f168201915b50505050505f611eb7565b8473ffffffffffffffffffffffffffffffffffffffff167f0b99ce8321b94ffaa5c5021540ec0668dcba948d044760a5ef298fa0513b1ef484836003018542604051610d789493929190613360565b60405180910390a250610d89612004565b50505050565b606060025f3373ffffffffffffffffffffffffffffffffffffffff1673ffffffffffffffffffffffffffffffffffffffff1681526020019081526020015f205f8360ff1660ff1681526020019081526020015f20805480602002602001604051908101604052809291908181526020015f905b82821015610f7a578382905f5260205f2090600502016040518060e00160405290815f82015f9054906101000a900473ffffffffffffffffffffffffffffffffffffffff1673ffffffffffffffffffffffffffffffffffffffff1673ffffffffffffffffffffffffffffffffffffffff1681526020016001820154815260200160028201548152602001600382018054610e9b90612e93565b80601f0160208091040260200160405190810160405280929190818152602001828054610ec790612e93565b8015610f125780601f10610ee957610100808354040283529160200191610f12565b820191905f5260205f20905b815481529060010190602001808311610ef557829003601f168201915b50505050508152602001600482015f9054906101000a900460ff161515151581526020016004820160019054906101000a900460ff161515151581526020016004820160029054906101000a900460ff16151515158152505081526020019060010190610e02565b505050509050919050565b6003602052825f5260405f20602052815f5260405f208181548110610fa8575f80fd5b905f5260205f2090600502015f925092505050805f015f9054906101000a900473ffffffffffffffffffffffffffffffffffffffff1690806001015490806002018054610ff490612e93565b80601f016020809104026020016040519081016040528092919081815260200182805461102090612e93565b801561106b5780601f106110425761010080835404028352916020019161106b565b820191905f5260205f20905b81548152906001019060200180831161104e57829003601f168201915b505050505090806003015f9054906101000a900460ff16908060040154905085565b61109561200d565b61109e5f612094565b565b5f47905090565b5f805f9054906101000a900473ffffffffffffffffffffffffffffffffffffffff16905090565b5f60025f3373ffffffffffffffffffffffffffffffffffffffff1673ffffffffffffffffffffffffffffffffffffffff1681526020019081526020015f205f8460ff1660ff1681526020019081526020015f208463ffffffff1681548110611139576111386132b2565b5b905f5260205f209060050201905060025f3373ffffffffffffffffffffffffffffffffffffffff1673ffffffffffffffffffffffffffffffffffffffff1681526020019081526020015f205f8460ff1660ff1681526020019081526020015f20805490508463ffffffff16106111e4576040517f08c379a00000000000000000000000000000000000000000000000000000000081526004016111db9061341a565b60405180910390fd5b8060020154421161122a576040517f08c379a0000000000000000000000000000000000000000000000000000000008152600401611221906134a8565b60405180910390fd5b81426112369190612e33565b60025f3373ffffffffffffffffffffffffffffffffffffffff1673ffffffffffffffffffffffffffffffffffffffff1681526020019081526020015f205f8560ff1660ff1681526020019081526020015f208563ffffffff16815481106112a05761129f6132b2565b5b905f5260205f20906005020160020181905550805f015f9054906101000a900473ffffffffffffffffffffffffffffffffffffffff1673ffffffffffffffffffffffffffffffffffffffff167f748cb9768ee3f2567793f42a22f5b0c83df9e14d32ec82c9cb839cb1b357be138484846003014260405161132494939291906134c6565b60405180910390a250505050565b6002602052825f5260405f20602052815f5260405f208181548110611355575f80fd5b905f5260205f2090600502015f925092505050805f015f9054906101000a900473ffffffffffffffffffffffffffffffffffffffff16908060010154908060020154908060030180546113a790612e93565b80601f01602080910402602001604051908101604052809291908181526020018280546113d390612e93565b801561141e5780601f106113f55761010080835404028352916020019161141e565b820191905f5260205f20905b81548152906001019060200180831161140157829003601f168201915b505050505090806004015f9054906101000a900460ff16908060040160019054906101000a900460ff16908060040160029054906101000a900460ff16905087565b611468611def565b60025f3373ffffffffffffffffffffffffffffffffffffffff1673ffffffffffffffffffffffffffffffffffffffff1681526020019081526020015f205f8360ff1660ff1681526020019081526020015f20805490508363ffffffff1610611505576040517f08c379a00000000000000000000000000000000000000000000000000000000081526004016114fc9061341a565b60405180910390fd5b5f60025f3373ffffffffffffffffffffffffffffffffffffffff1673ffffffffffffffffffffffffffffffffffffffff1681526020019081526020015f205f8460ff1660ff1681526020019081526020015f208463ffffffff16815481106115705761156f6132b2565b5b905f5260205f2090600502019050806004015f9054906101000a900460ff16156115cf576040517f08c379a00000000000000000000000000000000000000000000000000000000081526004016115c690613580565b60405180910390fd5b80600201544211806115ef57508060040160029054906101000a900460ff165b61162e576040517f08c379a000000000000000000000000000000000000000000000000000000000815260040161162590613634565b60405180910390fd5b5f82826001015461163f9190613652565b90505f811015611684576040517f08c379a000000000000000000000000000000000000000000000000000000000815260040161167b906136cf565b60405180910390fd5b5f810361171d57600160025f3373ffffffffffffffffffffffffffffffffffffffff1673ffffffffffffffffffffffffffffffffffffffff1681526020019081526020015f205f8660ff1660ff1681526020019081526020015f208663ffffffff16815481106116f7576116f66132b2565b5b905f5260205f2090600502016004015f6101000a81548160ff0219169083151502179055505b8060025f3373ffffffffffffffffffffffffffffffffffffffff1673ffffffffffffffffffffffffffffffffffffffff1681526020019081526020015f205f8660ff1660ff1681526020019081526020015f208663ffffffff1681548110611788576117876132b2565b5b905f5260205f209060050201600101819055508160040160019054906101000a900460ff16156118f8575f3373ffffffffffffffffffffffffffffffffffffffff16846040516117d79061371a565b5f6040518083038185875af1925050503d805f8114611811576040519150601f19603f3d011682016040523d82523d5f602084013e611816565b606091505b505090508061185a576040517f08c379a000000000000000000000000000000000000000000000000000000000815260040161185190613778565b60405180910390fd5b6118f25f868686600301805461186f90612e93565b80601f016020809104026020016040519081016040528092919081815260200182805461189b90612e93565b80156118e65780601f106118bd576101008083540402835291602001916118e6565b820191905f5260205f20905b8154815290600101906020018083116118c957829003601f168201915b50505050506001611eb7565b50611a00565b6119453384845f015f9054906101000a900473ffffffffffffffffffffffffffffffffffffffff1673ffffffffffffffffffffffffffffffffffffffff166121559092919063ffffffff16565b6119ff825f015f9054906101000a900473ffffffffffffffffffffffffffffffffffffffff16858585600301805461197c90612e93565b80601f01602080910402602001604051908101604052809291908181526020018280546119a890612e93565b80156119f35780601f106119ca576101008083540402835291602001916119f3565b820191905f5260205f20905b8154815290600101906020018083116119d657829003601f168201915b50505050506001611eb7565b5b815f015f9054906101000a900473ffffffffffffffffffffffffffffffffffffffff1673ffffffffffffffffffffffffffffffffffffffff167f16c4c024c274b52575ffc17396bbc4a59db7dd13aac28373e025a9f6269f9e0384846003018742604051611a719493929190613360565b60405180910390a25050611a83612004565b505050565b611a90611def565b5f3411611ad2576040517f08c379a0000000000000000000000000000000000000000000000000000000008152600401611ac990613806565b60405180910390fd5b5f60025f3373ffffffffffffffffffffffffffffffffffffffff1673ffffffffffffffffffffffffffffffffffffffff1681526020019081526020015f205f8460ff1660ff1681526020019081526020015f208263ffffffff1681548110611b3d57611b3c6132b2565b5b905f5260205f20906005020190503460025f3373ffffffffffffffffffffffffffffffffffffffff1673ffffffffffffffffffffffffffffffffffffffff1681526020019081526020015f205f8560ff1660ff1681526020019081526020015f208363ffffffff1681548110611bb657611bb56132b2565b5b905f5260205f2090600502016001015f828254611bd39190612e33565b92505081905550611c715f8434846003018054611bef90612e93565b80601f0160208091040260200160405190810160405280929190818152602001828054611c1b90612e93565b8015611c665780601f10611c3d57610100808354040283529160200191611c66565b820191905f5260205f20905b815481529060010190602001808311611c4957829003601f168201915b50505050505f611eb7565b5f73ffffffffffffffffffffffffffffffffffffffff167f0b99ce8321b94ffaa5c5021540ec0668dcba948d044760a5ef298fa0513b1ef434836003018642604051611cc09493929190613360565b60405180910390a250611cd1612004565b5050565b8060025f3373ffffffffffffffffffffffffffffffffffffffff1673ffffffffffffffffffffffffffffffffffffffff1681526020019081526020015f205f8460ff1660ff1681526020019081526020015f208463ffffffff1681548110611d4057611d3f6132b2565b5b905f5260205f20906005020160040160026101000a81548160ff021916908315150217905550505050565b611d7361200d565b5f73ffffffffffffffffffffffffffffffffffffffff168173ffffffffffffffffffffffffffffffffffffffff1603611de3575f6040517f1e4fbdf7000000000000000000000000000000000000000000000000000000008152600401611dda91906129f5565b60405180910390fd5b611dec81612094565b50565b600260015403611e2b576040517f3ee5aeb500000000000000000000000000000000000000000000000000000000815260040160405180910390fd5b6002600181905550565b611eb1848573ffffffffffffffffffffffffffffffffffffffff166323b872dd868686604051602401611e6a93929190613824565b604051602081830303815290604052915060e01b6020820180517bffffffffffffffffffffffffffffffffffffffffffffffffffffffff83818316178352505050506121d4565b50505050565b60035f3373ffffffffffffffffffffffffffffffffffffffff1673ffffffffffffffffffffffffffffffffffffffff1681526020019081526020015f205f8560ff1660ff1681526020019081526020015f206040518060a001604052808773ffffffffffffffffffffffffffffffffffffffff168152602001858152602001848152602001831515815260200142815250908060018154018082558091505060019003905f5260205f2090600502015f909190919091505f820151815f015f6101000a81548173ffffffffffffffffffffffffffffffffffffffff021916908373ffffffffffffffffffffffffffffffffffffffff160217905550602082015181600101556040820151816002019081611fd19190613060565b506060820151816003015f6101000a81548160ff0219169083151502179055506080820151816004015550505050505050565b60018081905550565b61201561226f565b73ffffffffffffffffffffffffffffffffffffffff166120336110a7565b73ffffffffffffffffffffffffffffffffffffffff16146120925761205661226f565b6040517f118cdaa700000000000000000000000000000000000000000000000000000000815260040161208991906129f5565b60405180910390fd5b565b5f805f9054906101000a900473ffffffffffffffffffffffffffffffffffffffff169050815f806101000a81548173ffffffffffffffffffffffffffffffffffffffff021916908373ffffffffffffffffffffffffffffffffffffffff1602179055508173ffffffffffffffffffffffffffffffffffffffff168173ffffffffffffffffffffffffffffffffffffffff167f8be0079c531659141344cd1fd0a4f28419497f9722a3daafe3b4186f6b6457e060405160405180910390a35050565b6121cf838473ffffffffffffffffffffffffffffffffffffffff1663a9059cbb8585604051602401612188929190613859565b604051602081830303815290604052915060e01b6020820180517bffffffffffffffffffffffffffffffffffffffffffffffffffffffff83818316178352505050506121d4565b505050565b5f8060205f8451602086015f885af1806121f3576040513d5f823e3d81fd5b3d92505f519150505f821461220c576001811415612227565b5f8473ffffffffffffffffffffffffffffffffffffffff163b145b1561226957836040517f5274afe700000000000000000000000000000000000000000000000000000000815260040161226091906129f5565b60405180910390fd5b50505050565b5f33905090565b5f604051905090565b5f80fd5b5f80fd5b5f73ffffffffffffffffffffffffffffffffffffffff82169050919050565b5f6122b082612287565b9050919050565b5f6122c1826122a6565b9050919050565b6122d1816122b7565b81146122db575f80fd5b50565b5f813590506122ec816122c8565b92915050565b5f819050919050565b612304816122f2565b811461230e575f80fd5b50565b5f8135905061231f816122fb565b92915050565b5f60ff82169050919050565b61233a81612325565b8114612344575f80fd5b50565b5f8135905061235581612331565b92915050565b5f80fd5b5f80fd5b5f601f19601f8301169050919050565b7f4e487b71000000000000000000000000000000000000000000000000000000005f52604160045260245ffd5b6123a982612363565b810181811067ffffffffffffffff821117156123c8576123c7612373565b5b80604052505050565b5f6123da612276565b90506123e682826123a0565b919050565b5f67ffffffffffffffff82111561240557612404612373565b5b61240e82612363565b9050602081019050919050565b828183375f83830152505050565b5f61243b612436846123eb565b6123d1565b9050828152602081018484840111156124575761245661235f565b5b61246284828561241b565b509392505050565b5f82601f83011261247e5761247d61235b565b5b813561248e848260208601612429565b91505092915050565b5f805f805f60a086880312156124b0576124af61227f565b5b5f6124bd888289016122de565b95505060206124ce88828901612311565b94505060406124df88828901612347565b93505060606124f088828901612311565b925050608086013567ffffffffffffffff81111561251157612510612283565b5b61251d8882890161246a565b9150509295509295909350565b5f805f606084860312156125415761254061227f565b5b5f61254e86828701612347565b935050602061255f86828701612311565b925050604084013567ffffffffffffffff8111156125805761257f612283565b5b61258c8682870161246a565b9150509250925092565b5f602082840312156125ab576125aa61227f565b5b5f6125b8848285016122de565b91505092915050565b6125ca816122f2565b82525050565b5f6020820190506125e35f8301846125c1565b92915050565b5f63ffffffff82169050919050565b612601816125e9565b811461260b575f80fd5b50565b5f8135905061261c816125f8565b92915050565b5f805f806080858703121561263a5761263961227f565b5b5f612647878288016122de565b94505060206126588782880161260e565b935050604061266987828801612311565b925050606061267a87828801612347565b91505092959194509250565b5f6020828403121561269b5761269a61227f565b5b5f6126a884828501612347565b91505092915050565b5f81519050919050565b5f82825260208201905092915050565b5f819050602082019050919050565b6126e3816122a6565b82525050565b6126f2816122f2565b82525050565b5f81519050919050565b5f82825260208201905092915050565b8281835e5f83830152505050565b5f61272a826126f8565b6127348185612702565b9350612744818560208601612712565b61274d81612363565b840191505092915050565b5f8115159050919050565b61276c81612758565b82525050565b5f60e083015f8301516127875f8601826126da565b50602083015161279a60208601826126e9565b5060408301516127ad60408601826126e9565b50606083015184820360608601526127c58282612720565b91505060808301516127da6080860182612763565b5060a08301516127ed60a0860182612763565b5060c083015161280060c0860182612763565b508091505092915050565b5f6128168383612772565b905092915050565b5f602082019050919050565b5f612834826126b1565b61283e81856126bb565b935083602082028501612850856126cb565b805f5b8581101561288b578484038952815161286c858261280b565b94506128778361281e565b925060208a01995050600181019050612853565b50829750879550505050505092915050565b5f6020820190508181035f8301526128b5818461282a565b905092915050565b6128c6816122a6565b81146128d0575f80fd5b50565b5f813590506128e1816128bd565b92915050565b5f805f606084860312156128fe576128fd61227f565b5b5f61290b868287016128d3565b935050602061291c86828701612347565b925050604061292d86828701612311565b9150509250925092565b612940816122a6565b82525050565b5f82825260208201905092915050565b5f612960826126f8565b61296a8185612946565b935061297a818560208601612712565b61298381612363565b840191505092915050565b61299781612758565b82525050565b5f60a0820190506129b05f830188612937565b6129bd60208301876125c1565b81810360408301526129cf8186612956565b90506129de606083018561298e565b6129eb60808301846125c1565b9695505050505050565b5f602082019050612a085f830184612937565b92915050565b5f805f60608486031215612a2557612a2461227f565b5b5f612a328682870161260e565b9350506020612a4386828701612347565b9250506040612a5486828701612311565b9150509250925092565b5f60e082019050612a715f83018a612937565b612a7e60208301896125c1565b612a8b60408301886125c1565b8181036060830152612a9d8187612956565b9050612aac608083018661298e565b612ab960a083018561298e565b612ac660c083018461298e565b98975050505050505050565b5f8060408385031215612ae857612ae761227f565b5b5f612af585828601612347565b9250506020612b068582860161260e565b9150509250929050565b612b1981612758565b8114612b23575f80fd5b50565b5f81359050612b3481612b10565b92915050565b5f805f60608486031215612b5157612b5061227f565b5b5f612b5e8682870161260e565b9350506020612b6f86828701612347565b9250506040612b8086828701612b26565b9150509250925092565b5f60208284031215612b9f57612b9e61227f565b5b5f612bac848285016128d3565b91505092915050565b7f4d7573742070726f7669646520612076616c696420746f6b656e2061646472655f8201527f7373000000000000000000000000000000000000000000000000000000000000602082015250565b5f612c0f602283612946565b9150612c1a82612bb5565b604082019050919050565b5f6020820190508181035f830152612c3c81612c03565b9050919050565b7f546f6b656e20616d6f756e74206d7573742062652067726561746572207468655f8201527f6e207a65726f0000000000000000000000000000000000000000000000000000602082015250565b5f612c9d602683612946565b9150612ca882612c43565b604082019050919050565b5f6020820190508181035f830152612cca81612c91565b9050919050565b7f546865206c6f636b20706572696f64206d7573742062652067726561746572205f8201527f7468656e207a65726f0000000000000000000000000000000000000000000000602082015250565b5f612d2b602983612946565b9150612d3682612cd1565b604082019050919050565b5f6020820190508181035f830152612d5881612d1f565b9050919050565b5f81519050612d6d816122fb565b92915050565b5f60208284031215612d8857612d8761227f565b5b5f612d9584828501612d5f565b91505092915050565b7f4e6f7420656e6f75676820746f6b656e7320746f206c6f636b000000000000005f82015250565b5f612dd2601983612946565b9150612ddd82612d9e565b602082019050919050565b5f6020820190508181035f830152612dff81612dc6565b9050919050565b7f4e487b71000000000000000000000000000000000000000000000000000000005f52601160045260245ffd5b5f612e3d826122f2565b9150612e48836122f2565b9250828201905080821115612e6057612e5f612e06565b5b92915050565b7f4e487b71000000000000000000000000000000000000000000000000000000005f52602260045260245ffd5b5f6002820490506001821680612eaa57607f821691505b602082108103612ebd57612ebc612e66565b5b50919050565b5f819050815f5260205f209050919050565b5f6020601f8301049050919050565b5f82821b905092915050565b5f60088302612f1f7fffffffffffffffffffffffffffffffffffffffffffffffffffffffffffffffff82612ee4565b612f298683612ee4565b95508019841693508086168417925050509392505050565b5f819050919050565b5f612f64612f5f612f5a846122f2565b612f41565b6122f2565b9050919050565b5f819050919050565b612f7d83612f4a565b612f91612f8982612f6b565b848454612ef0565b825550505050565b5f90565b612fa5612f99565b612fb0818484612f74565b505050565b5b81811015612fd357612fc85f82612f9d565b600181019050612fb6565b5050565b601f82111561301857612fe981612ec3565b612ff284612ed5565b81016020851015613001578190505b61301561300d85612ed5565b830182612fb5565b50505b505050565b5f82821c905092915050565b5f6130385f198460080261301d565b1980831691505092915050565b5f6130508383613029565b9150826002028217905092915050565b613069826126f8565b67ffffffffffffffff81111561308257613081612373565b5b61308c8254612e93565b613097828285612fd7565b5f60209050601f8311600181146130c8575f84156130b6578287015190505b6130c08582613045565b865550613127565b601f1984166130d686612ec3565b5f5b828110156130fd578489015182556001820191506020850194506020810190506130d8565b8683101561311a5784890151613116601f891682613029565b8355505b6001600288020188555050505b505050505050565b61313881612325565b82525050565b5f60a0820190506131515f8301886125c1565b81810360208301526131638187612956565b9050613172604083018661312f565b61317f60608301856125c1565b61318c60808301846125c1565b9695505050505050565b7f45544820746f206c6f636b206d75737420612076616c756520677265617465725f8201527f207468616e203000000000000000000000000000000000000000000000000000602082015250565b5f6131f0602783612946565b91506131fb82613196565b604082019050919050565b5f6020820190508181035f83015261321d816131e4565b9050919050565b7f546865206c6f636b706572696f64206d757374206265206772656174657220745f8201527f68656e207a65726f000000000000000000000000000000000000000000000000602082015250565b5f61327e602883612946565b915061328982613224565b604082019050919050565b5f6020820190508181035f8301526132ab81613272565b9050919050565b7f4e487b71000000000000000000000000000000000000000000000000000000005f52603260045260245ffd5b5f81546132eb81612e93565b6132f58186612946565b9450600182165f811461330f576001811461332557613357565b60ff198316865281151560200286019350613357565b61332e85612ec3565b5f5b8381101561334f57815481890152600182019150602081019050613330565b808801955050505b50505092915050565b5f6080820190506133735f8301876125c1565b818103602083015261338581866132df565b9050613394604083018561312f565b6133a160608301846125c1565b95945050505050565b7f5468652073706563696669656420617373657420494420697320696e76616c695f8201527f642e000000000000000000000000000000000000000000000000000000000000602082015250565b5f613404602283612946565b915061340f826133aa565b604082019050919050565b5f6020820190508181035f830152613431816133f8565b9050919050565b7f546865206c6f636b20706572696f6420686173206e6f742079657420657870695f8201527f7265642100000000000000000000000000000000000000000000000000000000602082015250565b5f613492602483612946565b915061349d82613438565b604082019050919050565b5f6020820190508181035f8301526134bf81613486565b9050919050565b5f6080820190506134d95f83018761312f565b6134e660208301866125c1565b81810360408301526134f881856132df565b905061350760608301846125c1565b95945050505050565b7f417373657473206861766520616c7265616479206265656e20776974686472615f8201527f776e210000000000000000000000000000000000000000000000000000000000602082015250565b5f61356a602383612946565b915061357582613510565b604082019050919050565b5f6020820190508181035f8301526135978161355e565b9050919050565b7f546865206c6f636b20706572696f6420686173206e6f742079657420657870695f8201527f72656420616e64207468652076616c756520686173206e6f742072656163686560208201527f642073657420676f616c21000000000000000000000000000000000000000000604082015250565b5f61361e604b83612946565b91506136298261359e565b606082019050919050565b5f6020820190508181035f83015261364b81613612565b9050919050565b5f61365c826122f2565b9150613667836122f2565b925082820390508181111561367f5761367e612e06565b5b92915050565b7f4e6f7420656e6f7567682061737365747320746f2077697468647261772100005f82015250565b5f6136b9601e83612946565b91506136c482613685565b602082019050919050565b5f6020820190508181035f8301526136e6816136ad565b9050919050565b5f81905092915050565b50565b5f6137055f836136ed565b9150613710826136f7565b5f82019050919050565b5f613724826136fa565b9150819050919050565b7f455448207472616e73666572206661696c6564000000000000000000000000005f82015250565b5f613762601383612946565b915061376d8261372e565b602082019050919050565b5f6020820190508181035f83015261378f81613756565b9050919050565b7f45544820746f2061646420746f206c6f636b206d75737420626520616e20616d5f8201527f6f756e742067726561746572207468616e203000000000000000000000000000602082015250565b5f6137f0603383612946565b91506137fb82613796565b604082019050919050565b5f6020820190508181035f83015261381d816137e4565b9050919050565b5f6060820190506138375f830186612937565b6138446020830185612937565b61385160408301846125c1565b949350505050565b5f60408201905061386c5f830185612937565b61387960208301846125c1565b939250505056fea264697066735822122099033034a4d5bac1b1547ea91f3253667d0bbde997a681071f460d79172b55cf64736f6c634300081a0033",
					"opcodes": "PUSH1 0x80 PUSH1 0x40 MSTORE CALLVALUE DUP1 ISZERO PUSH2 0xF JUMPI PUSH0 DUP1 REVERT JUMPDEST POP CALLER PUSH0 PUSH20 0xFFFFFFFFFFFFFFFFFFFFFFFFFFFFFFFFFFFFFFFF AND DUP2 PUSH20 0xFFFFFFFFFFFFFFFFFFFFFFFFFFFFFFFFFFFFFFFF AND SUB PUSH2 0x81 JUMPI PUSH0 PUSH1 0x40 MLOAD PUSH32 0x1E4FBDF700000000000000000000000000000000000000000000000000000000 DUP2 MSTORE PUSH1 0x4 ADD PUSH2 0x78 SWAP2 SWAP1 PUSH2 0x19D JUMP JUMPDEST PUSH1 0x40 MLOAD DUP1 SWAP2 SUB SWAP1 REVERT JUMPDEST PUSH2 0x90 DUP2 PUSH2 0x9D PUSH1 0x20 SHL PUSH1 0x20 SHR JUMP JUMPDEST POP PUSH1 0x1 DUP1 DUP2 SWAP1 SSTORE POP PUSH2 0x1B6 JUMP JUMPDEST PUSH0 DUP1 PUSH0 SWAP1 SLOAD SWAP1 PUSH2 0x100 EXP SWAP1 DIV PUSH20 0xFFFFFFFFFFFFFFFFFFFFFFFFFFFFFFFFFFFFFFFF AND SWAP1 POP DUP2 PUSH0 DUP1 PUSH2 0x100 EXP DUP2 SLOAD DUP2 PUSH20 0xFFFFFFFFFFFFFFFFFFFFFFFFFFFFFFFFFFFFFFFF MUL NOT AND SWAP1 DUP4 PUSH20 0xFFFFFFFFFFFFFFFFFFFFFFFFFFFFFFFFFFFFFFFF AND MUL OR SWAP1 SSTORE POP DUP2 PUSH20 0xFFFFFFFFFFFFFFFFFFFFFFFFFFFFFFFFFFFFFFFF AND DUP2 PUSH20 0xFFFFFFFFFFFFFFFFFFFFFFFFFFFFFFFFFFFFFFFF AND PUSH32 0x8BE0079C531659141344CD1FD0A4F28419497F9722A3DAAFE3B4186F6B6457E0 PUSH1 0x40 MLOAD PUSH1 0x40 MLOAD DUP1 SWAP2 SUB SWAP1 LOG3 POP POP JUMP JUMPDEST PUSH0 PUSH20 0xFFFFFFFFFFFFFFFFFFFFFFFFFFFFFFFFFFFFFFFF DUP3 AND SWAP1 POP SWAP2 SWAP1 POP JUMP JUMPDEST PUSH0 PUSH2 0x187 DUP3 PUSH2 0x15E JUMP JUMPDEST SWAP1 POP SWAP2 SWAP1 POP JUMP JUMPDEST PUSH2 0x197 DUP2 PUSH2 0x17D JUMP JUMPDEST DUP3 MSTORE POP POP JUMP JUMPDEST PUSH0 PUSH1 0x20 DUP3 ADD SWAP1 POP PUSH2 0x1B0 PUSH0 DUP4 ADD DUP5 PUSH2 0x18E JUMP JUMPDEST SWAP3 SWAP2 POP POP JUMP JUMPDEST PUSH2 0x38B6 DUP1 PUSH2 0x1C3 PUSH0 CODECOPY PUSH0 RETURN INVALID PUSH1 0x80 PUSH1 0x40 MSTORE PUSH1 0x4 CALLDATASIZE LT PUSH2 0xE7 JUMPI PUSH0 CALLDATALOAD PUSH1 0xE0 SHR DUP1 PUSH4 0x8C89A0AD GT PUSH2 0x89 JUMPI DUP1 PUSH4 0x9E6C3FF2 GT PUSH2 0x58 JUMPI DUP1 PUSH4 0x9E6C3FF2 EQ PUSH2 0x2E3 JUMPI DUP1 PUSH4 0xECAA9D05 EQ PUSH2 0x30B JUMPI DUP1 PUSH4 0xF152EDCE EQ PUSH2 0x327 JUMPI DUP1 PUSH4 0xF2FDE38B EQ PUSH2 0x34F JUMPI PUSH2 0xE7 JUMP JUMPDEST DUP1 PUSH4 0x8C89A0AD EQ PUSH2 0x225 JUMPI DUP1 PUSH4 0x8DA5CB5B EQ PUSH2 0x24F JUMPI DUP1 PUSH4 0x8DE8107B EQ PUSH2 0x279 JUMPI DUP1 PUSH4 0x8E06B906 EQ PUSH2 0x2A1 JUMPI PUSH2 0xE7 JUMP JUMPDEST DUP1 PUSH4 0x2D8FEFC2 GT PUSH2 0xC5 JUMPI DUP1 PUSH4 0x2D8FEFC2 EQ PUSH2 0x16B JUMPI DUP1 PUSH4 0x3B958C38 EQ PUSH2 0x193 JUMPI DUP1 PUSH4 0x60864EED EQ PUSH2 0x1CF JUMPI DUP1 PUSH4 0x715018A6 EQ PUSH2 0x20F JUMPI PUSH2 0xE7 JUMP JUMPDEST DUP1 PUSH4 0xF1419B5 EQ PUSH2 0xEB JUMPI DUP1 PUSH4 0x13A2E884 EQ PUSH2 0x113 JUMPI DUP1 PUSH4 0x14205E28 EQ PUSH2 0x12F JUMPI JUMPDEST PUSH0 DUP1 REVERT JUMPDEST CALLVALUE DUP1 ISZERO PUSH2 0xF6 JUMPI PUSH0 DUP1 REVERT JUMPDEST POP PUSH2 0x111 PUSH1 0x4 DUP1 CALLDATASIZE SUB DUP2 ADD SWAP1 PUSH2 0x10C SWAP2 SWAP1 PUSH2 0x2497 JUMP JUMPDEST PUSH2 0x377 JUMP JUMPDEST STOP JUMPDEST PUSH2 0x12D PUSH1 0x4 DUP1 CALLDATASIZE SUB DUP2 ADD SWAP1 PUSH2 0x128 SWAP2 SWAP1 PUSH2 0x252A JUMP JUMPDEST PUSH2 0x77B JUMP JUMPDEST STOP JUMPDEST CALLVALUE DUP1 ISZERO PUSH2 0x13A JUMPI PUSH0 DUP1 REVERT JUMPDEST POP PUSH2 0x155 PUSH1 0x4 DUP1 CALLDATASIZE SUB DUP2 ADD SWAP1 PUSH2 0x150 SWAP2 SWAP1 PUSH2 0x2596 JUMP JUMPDEST PUSH2 0xA25 JUMP JUMPDEST PUSH1 0x40 MLOAD PUSH2 0x162 SWAP2 SWAP1 PUSH2 0x25D0 JUMP JUMPDEST PUSH1 0x40 MLOAD DUP1 SWAP2 SUB SWAP1 RETURN JUMPDEST CALLVALUE DUP1 ISZERO PUSH2 0x176 JUMPI PUSH0 DUP1 REVERT JUMPDEST POP PUSH2 0x191 PUSH1 0x4 DUP1 CALLDATASIZE SUB DUP2 ADD SWAP1 PUSH2 0x18C SWAP2 SWAP1 PUSH2 0x2622 JUMP JUMPDEST PUSH2 0xAA5 JUMP JUMPDEST STOP JUMPDEST CALLVALUE DUP1 ISZERO PUSH2 0x19E JUMPI PUSH0 DUP1 REVERT JUMPDEST POP PUSH2 0x1B9 PUSH1 0x4 DUP1 CALLDATASIZE SUB DUP2 ADD SWAP1 PUSH2 0x1B4 SWAP2 SWAP1 PUSH2 0x2686 JUMP JUMPDEST PUSH2 0xD8F JUMP JUMPDEST PUSH1 0x40 MLOAD PUSH2 0x1C6 SWAP2 SWAP1 PUSH2 0x289D JUMP JUMPDEST PUSH1 0x40 MLOAD DUP1 SWAP2 SUB SWAP1 RETURN JUMPDEST CALLVALUE DUP1 ISZERO PUSH2 0x1DA JUMPI PUSH0 DUP1 REVERT JUMPDEST POP PUSH2 0x1F5 PUSH1 0x4 DUP1 CALLDATASIZE SUB DUP2 ADD SWAP1 PUSH2 0x1F0 SWAP2 SWAP1 PUSH2 0x28E7 JUMP JUMPDEST PUSH2 0xF85 JUMP JUMPDEST PUSH1 0x40 MLOAD PUSH2 0x206 SWAP6 SWAP5 SWAP4 SWAP3 SWAP2 SWAP1 PUSH2 0x299D JUMP JUMPDEST PUSH1 0x40 MLOAD DUP1 SWAP2 SUB SWAP1 RETURN JUMPDEST CALLVALUE DUP1 ISZERO PUSH2 0x21A JUMPI PUSH0 DUP1 REVERT JUMPDEST POP PUSH2 0x223 PUSH2 0x108D JUMP JUMPDEST STOP JUMPDEST CALLVALUE DUP1 ISZERO PUSH2 0x230 JUMPI PUSH0 DUP1 REVERT JUMPDEST POP PUSH2 0x239 PUSH2 0x10A0 JUMP JUMPDEST PUSH1 0x40 MLOAD PUSH2 0x246 SWAP2 SWAP1 PUSH2 0x25D0 JUMP JUMPDEST PUSH1 0x40 MLOAD DUP1 SWAP2 SUB SWAP1 RETURN JUMPDEST CALLVALUE DUP1 ISZERO PUSH2 0x25A JUMPI PUSH0 DUP1 REVERT JUMPDEST POP PUSH2 0x263 PUSH2 0x10A7 JUMP JUMPDEST PUSH1 0x40 MLOAD PUSH2 0x270 SWAP2 SWAP1 PUSH2 0x29F5 JUMP JUMPDEST PUSH1 0x40 MLOAD DUP1 SWAP2 SUB SWAP1 RETURN JUMPDEST CALLVALUE DUP1 ISZERO PUSH2 0x284 JUMPI PUSH0 DUP1 REVERT JUMPDEST POP PUSH2 0x29F PUSH1 0x4 DUP1 CALLDATASIZE SUB DUP2 ADD SWAP1 PUSH2 0x29A SWAP2 SWAP1 PUSH2 0x2A0E JUMP JUMPDEST PUSH2 0x10CE JUMP JUMPDEST STOP JUMPDEST CALLVALUE DUP1 ISZERO PUSH2 0x2AC JUMPI PUSH0 DUP1 REVERT JUMPDEST POP PUSH2 0x2C7 PUSH1 0x4 DUP1 CALLDATASIZE SUB DUP2 ADD SWAP1 PUSH2 0x2C2 SWAP2 SWAP1 PUSH2 0x28E7 JUMP JUMPDEST PUSH2 0x1332 JUMP JUMPDEST PUSH1 0x40 MLOAD PUSH2 0x2DA SWAP8 SWAP7 SWAP6 SWAP5 SWAP4 SWAP3 SWAP2 SWAP1 PUSH2 0x2A5E JUMP JUMPDEST PUSH1 0x40 MLOAD DUP1 SWAP2 SUB SWAP1 RETURN JUMPDEST CALLVALUE DUP1 ISZERO PUSH2 0x2EE JUMPI PUSH0 DUP1 REVERT JUMPDEST POP PUSH2 0x309 PUSH1 0x4 DUP1 CALLDATASIZE SUB DUP2 ADD SWAP1 PUSH2 0x304 SWAP2 SWAP1 PUSH2 0x2A0E JUMP JUMPDEST PUSH2 0x1460 JUMP JUMPDEST STOP JUMPDEST PUSH2 0x325 PUSH1 0x4 DUP1 CALLDATASIZE SUB DUP2 ADD SWAP1 PUSH2 0x320 SWAP2 SWAP1 PUSH2 0x2AD2 JUMP JUMPDEST PUSH2 0x1A88 JUMP JUMPDEST STOP JUMPDEST CALLVALUE DUP1 ISZERO PUSH2 0x332 JUMPI PUSH0 DUP1 REVERT JUMPDEST POP PUSH2 0x34D PUSH1 0x4 DUP1 CALLDATASIZE SUB DUP2 ADD SWAP1 PUSH2 0x348 SWAP2 SWAP1 PUSH2 0x2B3A JUMP JUMPDEST PUSH2 0x1CD5 JUMP JUMPDEST STOP JUMPDEST CALLVALUE DUP1 ISZERO PUSH2 0x35A JUMPI PUSH0 DUP1 REVERT JUMPDEST POP PUSH2 0x375 PUSH1 0x4 DUP1 CALLDATASIZE SUB DUP2 ADD SWAP1 PUSH2 0x370 SWAP2 SWAP1 PUSH2 0x2B8A JUMP JUMPDEST PUSH2 0x1D6B JUMP JUMPDEST STOP JUMPDEST PUSH2 0x37F PUSH2 0x1DEF JUMP JUMPDEST PUSH0 PUSH20 0xFFFFFFFFFFFFFFFFFFFFFFFFFFFFFFFFFFFFFFFF AND DUP6 PUSH20 0xFFFFFFFFFFFFFFFFFFFFFFFFFFFFFFFFFFFFFFFF AND SUB PUSH2 0x3ED JUMPI PUSH1 0x40 MLOAD PUSH32 0x8C379A000000000000000000000000000000000000000000000000000000000 DUP2 MSTORE PUSH1 0x4 ADD PUSH2 0x3E4 SWAP1 PUSH2 0x2C25 JUMP JUMPDEST PUSH1 0x40 MLOAD DUP1 SWAP2 SUB SWAP1 REVERT JUMPDEST PUSH0 DUP5 GT PUSH2 0x42F JUMPI PUSH1 0x40 MLOAD PUSH32 0x8C379A000000000000000000000000000000000000000000000000000000000 DUP2 MSTORE PUSH1 0x4 ADD PUSH2 0x426 SWAP1 PUSH2 0x2CB3 JUMP JUMPDEST PUSH1 0x40 MLOAD DUP1 SWAP2 SUB SWAP1 REVERT JUMPDEST PUSH0 DUP3 GT PUSH2 0x471 JUMPI PUSH1 0x40 MLOAD PUSH32 0x8C379A000000000000000000000000000000000000000000000000000000000 DUP2 MSTORE PUSH1 0x4 ADD PUSH2 0x468 SWAP1 PUSH2 0x2D41 JUMP JUMPDEST PUSH1 0x40 MLOAD DUP1 SWAP2 SUB SWAP1 REVERT JUMPDEST PUSH0 DUP6 PUSH20 0xFFFFFFFFFFFFFFFFFFFFFFFFFFFFFFFFFFFFFFFF AND PUSH4 0x70A08231 CALLER PUSH1 0x40 MLOAD DUP3 PUSH4 0xFFFFFFFF AND PUSH1 0xE0 SHL DUP2 MSTORE PUSH1 0x4 ADD PUSH2 0x4AB SWAP2 SWAP1 PUSH2 0x29F5 JUMP JUMPDEST PUSH1 0x20 PUSH1 0x40 MLOAD DUP1 DUP4 SUB DUP2 DUP7 GAS STATICCALL ISZERO DUP1 ISZERO PUSH2 0x4C6 JUMPI RETURNDATASIZE PUSH0 DUP1 RETURNDATACOPY RETURNDATASIZE PUSH0 REVERT JUMPDEST POP POP POP POP PUSH1 0x40 MLOAD RETURNDATASIZE PUSH1 0x1F NOT PUSH1 0x1F DUP3 ADD AND DUP3 ADD DUP1 PUSH1 0x40 MSTORE POP DUP2 ADD SWAP1 PUSH2 0x4EA SWAP2 SWAP1 PUSH2 0x2D73 JUMP JUMPDEST SWAP1 POP DUP1 DUP6 GT ISZERO PUSH2 0x52F JUMPI PUSH1 0x40 MLOAD PUSH32 0x8C379A000000000000000000000000000000000000000000000000000000000 DUP2 MSTORE PUSH1 0x4 ADD PUSH2 0x526 SWAP1 PUSH2 0x2DE8 JUMP JUMPDEST PUSH1 0x40 MLOAD DUP1 SWAP2 SUB SWAP1 REVERT JUMPDEST PUSH2 0x55C CALLER ADDRESS DUP8 DUP10 PUSH20 0xFFFFFFFFFFFFFFFFFFFFFFFFFFFFFFFFFFFFFFFF AND PUSH2 0x1E35 SWAP1 SWAP4 SWAP3 SWAP2 SWAP1 PUSH4 0xFFFFFFFF AND JUMP JUMPDEST PUSH1 0x2 PUSH0 CALLER PUSH20 0xFFFFFFFFFFFFFFFFFFFFFFFFFFFFFFFFFFFFFFFF AND PUSH20 0xFFFFFFFFFFFFFFFFFFFFFFFFFFFFFFFFFFFFFFFF AND DUP2 MSTORE PUSH1 0x20 ADD SWAP1 DUP2 MSTORE PUSH1 0x20 ADD PUSH0 KECCAK256 PUSH0 DUP6 PUSH1 0xFF AND PUSH1 0xFF AND DUP2 MSTORE PUSH1 0x20 ADD SWAP1 DUP2 MSTORE PUSH1 0x20 ADD PUSH0 KECCAK256 PUSH1 0x40 MLOAD DUP1 PUSH1 0xE0 ADD PUSH1 0x40 MSTORE DUP1 DUP9 PUSH20 0xFFFFFFFFFFFFFFFFFFFFFFFFFFFFFFFFFFFFFFFF AND DUP2 MSTORE PUSH1 0x20 ADD DUP8 DUP2 MSTORE PUSH1 0x20 ADD DUP6 TIMESTAMP PUSH2 0x5E7 SWAP2 SWAP1 PUSH2 0x2E33 JUMP JUMPDEST DUP2 MSTORE PUSH1 0x20 ADD DUP5 DUP2 MSTORE PUSH1 0x20 ADD PUSH0 ISZERO ISZERO DUP2 MSTORE PUSH1 0x20 ADD PUSH0 ISZERO ISZERO DUP2 MSTORE PUSH1 0x20 ADD PUSH0 ISZERO ISZERO DUP2 MSTORE POP SWAP1 DUP1 PUSH1 0x1 DUP2 SLOAD ADD DUP1 DUP3 SSTORE DUP1 SWAP2 POP POP PUSH1 0x1 SWAP1 SUB SWAP1 PUSH0 MSTORE PUSH1 0x20 PUSH0 KECCAK256 SWAP1 PUSH1 0x5 MUL ADD PUSH0 SWAP1 SWAP2 SWAP1 SWAP2 SWAP1 SWAP2 POP PUSH0 DUP3 ADD MLOAD DUP2 PUSH0 ADD PUSH0 PUSH2 0x100 EXP DUP2 SLOAD DUP2 PUSH20 0xFFFFFFFFFFFFFFFFFFFFFFFFFFFFFFFFFFFFFFFF MUL NOT AND SWAP1 DUP4 PUSH20 0xFFFFFFFFFFFFFFFFFFFFFFFFFFFFFFFFFFFFFFFF AND MUL OR SWAP1 SSTORE POP PUSH1 0x20 DUP3 ADD MLOAD DUP2 PUSH1 0x1 ADD SSTORE PUSH1 0x40 DUP3 ADD MLOAD DUP2 PUSH1 0x2 ADD SSTORE PUSH1 0x60 DUP3 ADD MLOAD DUP2 PUSH1 0x3 ADD SWAP1 DUP2 PUSH2 0x69B SWAP2 SWAP1 PUSH2 0x3060 JUMP JUMPDEST POP PUSH1 0x80 DUP3 ADD MLOAD DUP2 PUSH1 0x4 ADD PUSH0 PUSH2 0x100 EXP DUP2 SLOAD DUP2 PUSH1 0xFF MUL NOT AND SWAP1 DUP4 ISZERO ISZERO MUL OR SWAP1 SSTORE POP PUSH1 0xA0 DUP3 ADD MLOAD DUP2 PUSH1 0x4 ADD PUSH1 0x1 PUSH2 0x100 EXP DUP2 SLOAD DUP2 PUSH1 0xFF MUL NOT AND SWAP1 DUP4 ISZERO ISZERO MUL OR SWAP1 SSTORE POP PUSH1 0xC0 DUP3 ADD MLOAD DUP2 PUSH1 0x4 ADD PUSH1 0x2 PUSH2 0x100 EXP DUP2 SLOAD DUP2 PUSH1 0xFF MUL NOT AND SWAP1 DUP4 ISZERO ISZERO MUL OR SWAP1 SSTORE POP POP POP PUSH2 0x70A DUP7 DUP6 DUP8 DUP6 PUSH0 PUSH2 0x1EB7 JUMP JUMPDEST DUP6 PUSH20 0xFFFFFFFFFFFFFFFFFFFFFFFFFFFFFFFFFFFFFFFF AND PUSH32 0xED26BD61B6BF2F43D7471454E53E77FFDC96BEEFA2F198977936F6D02D34563D DUP7 DUP5 DUP8 DUP8 TIMESTAMP PUSH2 0x751 SWAP2 SWAP1 PUSH2 0x2E33 JUMP JUMPDEST TIMESTAMP PUSH1 0x40 MLOAD PUSH2 0x763 SWAP6 SWAP5 SWAP4 SWAP3 SWAP2 SWAP1 PUSH2 0x313E JUMP JUMPDEST PUSH1 0x40 MLOAD DUP1 SWAP2 SUB SWAP1 LOG2 POP PUSH2 0x774 PUSH2 0x2004 JUMP JUMPDEST POP POP POP POP POP JUMP JUMPDEST PUSH2 0x783 PUSH2 0x1DEF JUMP JUMPDEST PUSH0 CALLVALUE GT PUSH2 0x7C5 JUMPI PUSH1 0x40 MLOAD PUSH32 0x8C379A000000000000000000000000000000000000000000000000000000000 DUP2 MSTORE PUSH1 0x4 ADD PUSH2 0x7BC SWAP1 PUSH2 0x3206 JUMP JUMPDEST PUSH1 0x40 MLOAD DUP1 SWAP2 SUB SWAP1 REVERT JUMPDEST PUSH0 DUP3 LT ISZERO PUSH2 0x808 JUMPI PUSH1 0x40 MLOAD PUSH32 0x8C379A000000000000000000000000000000000000000000000000000000000 DUP2 MSTORE PUSH1 0x4 ADD PUSH2 0x7FF SWAP1 PUSH2 0x3294 JUMP JUMPDEST PUSH1 0x40 MLOAD DUP1 SWAP2 SUB SWAP1 REVERT JUMPDEST PUSH1 0x2 PUSH0 CALLER PUSH20 0xFFFFFFFFFFFFFFFFFFFFFFFFFFFFFFFFFFFFFFFF AND PUSH20 0xFFFFFFFFFFFFFFFFFFFFFFFFFFFFFFFFFFFFFFFF AND DUP2 MSTORE PUSH1 0x20 ADD SWAP1 DUP2 MSTORE PUSH1 0x20 ADD PUSH0 KECCAK256 PUSH0 DUP5 PUSH1 0xFF AND PUSH1 0xFF AND DUP2 MSTORE PUSH1 0x20 ADD SWAP1 DUP2 MSTORE PUSH1 0x20 ADD PUSH0 KECCAK256 PUSH1 0x40 MLOAD DUP1 PUSH1 0xE0 ADD PUSH1 0x40 MSTORE DUP1 PUSH0 PUSH20 0xFFFFFFFFFFFFFFFFFFFFFFFFFFFFFFFFFFFFFFFF AND DUP2 MSTORE PUSH1 0x20 ADD CALLVALUE DUP2 MSTORE PUSH1 0x20 ADD DUP5 TIMESTAMP PUSH2 0x893 SWAP2 SWAP1 PUSH2 0x2E33 JUMP JUMPDEST DUP2 MSTORE PUSH1 0x20 ADD DUP4 DUP2 MSTORE PUSH1 0x20 ADD PUSH0 ISZERO ISZERO DUP2 MSTORE PUSH1 0x20 ADD PUSH1 0x1 ISZERO ISZERO DUP2 MSTORE PUSH1 0x20 ADD PUSH0 ISZERO ISZERO DUP2 MSTORE POP SWAP1 DUP1 PUSH1 0x1 DUP2 SLOAD ADD DUP1 DUP3 SSTORE DUP1 SWAP2 POP POP PUSH1 0x1 SWAP1 SUB SWAP1 PUSH0 MSTORE PUSH1 0x20 PUSH0 KECCAK256 SWAP1 PUSH1 0x5 MUL ADD PUSH0 SWAP1 SWAP2 SWAP1 SWAP2 SWAP1 SWAP2 POP PUSH0 DUP3 ADD MLOAD DUP2 PUSH0 ADD PUSH0 PUSH2 0x100 EXP DUP2 SLOAD DUP2 PUSH20 0xFFFFFFFFFFFFFFFFFFFFFFFFFFFFFFFFFFFFFFFF MUL NOT AND SWAP1 DUP4 PUSH20 0xFFFFFFFFFFFFFFFFFFFFFFFFFFFFFFFFFFFFFFFF AND MUL OR SWAP1 SSTORE POP PUSH1 0x20 DUP3 ADD MLOAD DUP2 PUSH1 0x1 ADD SSTORE PUSH1 0x40 DUP3 ADD MLOAD DUP2 PUSH1 0x2 ADD SSTORE PUSH1 0x60 DUP3 ADD MLOAD DUP2 PUSH1 0x3 ADD SWAP1 DUP2 PUSH2 0x948 SWAP2 SWAP1 PUSH2 0x3060 JUMP JUMPDEST POP PUSH1 0x80 DUP3 ADD MLOAD DUP2 PUSH1 0x4 ADD PUSH0 PUSH2 0x100 EXP DUP2 SLOAD DUP2 PUSH1 0xFF MUL NOT AND SWAP1 DUP4 ISZERO ISZERO MUL OR SWAP1 SSTORE POP PUSH1 0xA0 DUP3 ADD MLOAD DUP2 PUSH1 0x4 ADD PUSH1 0x1 PUSH2 0x100 EXP DUP2 SLOAD DUP2 PUSH1 0xFF MUL NOT AND SWAP1 DUP4 ISZERO ISZERO MUL OR SWAP1 SSTORE POP PUSH1 0xC0 DUP3 ADD MLOAD DUP2 PUSH1 0x4 ADD PUSH1 0x2 PUSH2 0x100 EXP DUP2 SLOAD DUP2 PUSH1 0xFF MUL NOT AND SWAP1 DUP4 ISZERO ISZERO MUL OR SWAP1 SSTORE POP POP POP PUSH2 0x9B7 PUSH0 DUP5 CALLVALUE DUP5 PUSH0 PUSH2 0x1EB7 JUMP JUMPDEST PUSH0 PUSH20 0xFFFFFFFFFFFFFFFFFFFFFFFFFFFFFFFFFFFFFFFF AND PUSH32 0xED26BD61B6BF2F43D7471454E53E77FFDC96BEEFA2F198977936F6D02D34563D CALLVALUE DUP4 DUP7 DUP7 TIMESTAMP PUSH2 0x9FE SWAP2 SWAP1 PUSH2 0x2E33 JUMP JUMPDEST TIMESTAMP PUSH1 0x40 MLOAD PUSH2 0xA10 SWAP6 SWAP5 SWAP4 SWAP3 SWAP2 SWAP1 PUSH2 0x313E JUMP JUMPDEST PUSH1 0x40 MLOAD DUP1 SWAP2 SUB SWAP1 LOG2 PUSH2 0xA20 PUSH2 0x2004 JUMP JUMPDEST POP POP POP JUMP JUMPDEST PUSH0 DUP2 PUSH20 0xFFFFFFFFFFFFFFFFFFFFFFFFFFFFFFFFFFFFFFFF AND PUSH4 0x70A08231 ADDRESS PUSH1 0x40 MLOAD DUP3 PUSH4 0xFFFFFFFF AND PUSH1 0xE0 SHL DUP2 MSTORE PUSH1 0x4 ADD PUSH2 0xA5F SWAP2 SWAP1 PUSH2 0x29F5 JUMP JUMPDEST PUSH1 0x20 PUSH1 0x40 MLOAD DUP1 DUP4 SUB DUP2 DUP7 GAS STATICCALL ISZERO DUP1 ISZERO PUSH2 0xA7A JUMPI RETURNDATASIZE PUSH0 DUP1 RETURNDATACOPY RETURNDATASIZE PUSH0 REVERT JUMPDEST POP POP POP POP PUSH1 0x40 MLOAD RETURNDATASIZE PUSH1 0x1F NOT PUSH1 0x1F DUP3 ADD AND DUP3 ADD DUP1 PUSH1 0x40 MSTORE POP DUP2 ADD SWAP1 PUSH2 0xA9E SWAP2 SWAP1 PUSH2 0x2D73 JUMP JUMPDEST SWAP1 POP SWAP2 SWAP1 POP JUMP JUMPDEST PUSH2 0xAAD PUSH2 0x1DEF JUMP JUMPDEST PUSH0 PUSH20 0xFFFFFFFFFFFFFFFFFFFFFFFFFFFFFFFFFFFFFFFF AND DUP5 PUSH20 0xFFFFFFFFFFFFFFFFFFFFFFFFFFFFFFFFFFFFFFFF AND SUB PUSH2 0xB1B JUMPI PUSH1 0x40 MLOAD PUSH32 0x8C379A000000000000000000000000000000000000000000000000000000000 DUP2 MSTORE PUSH1 0x4 ADD PUSH2 0xB12 SWAP1 PUSH2 0x2C25 JUMP JUMPDEST PUSH1 0x40 MLOAD DUP1 SWAP2 SUB SWAP1 REVERT JUMPDEST PUSH0 DUP3 GT PUSH2 0xB5D JUMPI PUSH1 0x40 MLOAD PUSH32 0x8C379A000000000000000000000000000000000000000000000000000000000 DUP2 MSTORE PUSH1 0x4 ADD PUSH2 0xB54 SWAP1 PUSH2 0x2CB3 JUMP JUMPDEST PUSH1 0x40 MLOAD DUP1 SWAP2 SUB SWAP1 REVERT JUMPDEST PUSH0 PUSH1 0x2 PUSH0 CALLER PUSH20 0xFFFFFFFFFFFFFFFFFFFFFFFFFFFFFFFFFFFFFFFF AND PUSH20 0xFFFFFFFFFFFFFFFFFFFFFFFFFFFFFFFFFFFFFFFF AND DUP2 MSTORE PUSH1 0x20 ADD SWAP1 DUP2 MSTORE PUSH1 0x20 ADD PUSH0 KECCAK256 PUSH0 DUP4 PUSH1 0xFF AND PUSH1 0xFF AND DUP2 MSTORE PUSH1 0x20 ADD SWAP1 DUP2 MSTORE PUSH1 0x20 ADD PUSH0 KECCAK256 DUP5 PUSH4 0xFFFFFFFF AND DUP2 SLOAD DUP2 LT PUSH2 0xBC8 JUMPI PUSH2 0xBC7 PUSH2 0x32B2 JUMP JUMPDEST JUMPDEST SWAP1 PUSH0 MSTORE PUSH1 0x20 PUSH0 KECCAK256 SWAP1 PUSH1 0x5 MUL ADD SWAP1 POP PUSH2 0xC03 CALLER ADDRESS DUP6 DUP9 PUSH20 0xFFFFFFFFFFFFFFFFFFFFFFFFFFFFFFFFFFFFFFFF AND PUSH2 0x1E35 SWAP1 SWAP4 SWAP3 SWAP2 SWAP1 PUSH4 0xFFFFFFFF AND JUMP JUMPDEST DUP3 PUSH1 0x2 PUSH0 CALLER PUSH20 0xFFFFFFFFFFFFFFFFFFFFFFFFFFFFFFFFFFFFFFFF AND PUSH20 0xFFFFFFFFFFFFFFFFFFFFFFFFFFFFFFFFFFFFFFFF AND DUP2 MSTORE PUSH1 0x20 ADD SWAP1 DUP2 MSTORE PUSH1 0x20 ADD PUSH0 KECCAK256 PUSH0 DUP5 PUSH1 0xFF AND PUSH1 0xFF AND DUP2 MSTORE PUSH1 0x20 ADD SWAP1 DUP2 MSTORE PUSH1 0x20 ADD PUSH0 KECCAK256 DUP6 PUSH4 0xFFFFFFFF AND DUP2 SLOAD DUP2 LT PUSH2 0xC6E JUMPI PUSH2 0xC6D PUSH2 0x32B2 JUMP JUMPDEST JUMPDEST SWAP1 PUSH0 MSTORE PUSH1 0x20 PUSH0 KECCAK256 SWAP1 PUSH1 0x5 MUL ADD PUSH1 0x1 ADD PUSH0 DUP3 DUP3 SLOAD PUSH2 0xC8B SWAP2 SWAP1 PUSH2 0x2E33 JUMP JUMPDEST SWAP3 POP POP DUP2 SWAP1 SSTORE POP PUSH2 0xD29 DUP6 DUP4 DUP6 DUP5 PUSH1 0x3 ADD DUP1 SLOAD PUSH2 0xCA7 SWAP1 PUSH2 0x2E93 JUMP JUMPDEST DUP1 PUSH1 0x1F ADD PUSH1 0x20 DUP1 SWAP2 DIV MUL PUSH1 0x20 ADD PUSH1 0x40 MLOAD SWAP1 DUP2 ADD PUSH1 0x40 MSTORE DUP1 SWAP3 SWAP2 SWAP1 DUP2 DUP2 MSTORE PUSH1 0x20 ADD DUP3 DUP1 SLOAD PUSH2 0xCD3 SWAP1 PUSH2 0x2E93 JUMP JUMPDEST DUP1 ISZERO PUSH2 0xD1E JUMPI DUP1 PUSH1 0x1F LT PUSH2 0xCF5 JUMPI PUSH2 0x100 DUP1 DUP4 SLOAD DIV MUL DUP4 MSTORE SWAP2 PUSH1 0x20 ADD SWAP2 PUSH2 0xD1E JUMP JUMPDEST DUP3 ADD SWAP2 SWAP1 PUSH0 MSTORE PUSH1 0x20 PUSH0 KECCAK256 SWAP1 JUMPDEST DUP2 SLOAD DUP2 MSTORE SWAP1 PUSH1 0x1 ADD SWAP1 PUSH1 0x20 ADD DUP1 DUP4 GT PUSH2 0xD01 JUMPI DUP3 SWAP1 SUB PUSH1 0x1F AND DUP3 ADD SWAP2 JUMPDEST POP POP POP POP POP PUSH0 PUSH2 0x1EB7 JUMP JUMPDEST DUP5 PUSH20 0xFFFFFFFFFFFFFFFFFFFFFFFFFFFFFFFFFFFFFFFF AND PUSH32 0xB99CE8321B94FFAA5C5021540EC0668DCBA948D044760A5EF298FA0513B1EF4 DUP5 DUP4 PUSH1 0x3 ADD DUP6 TIMESTAMP PUSH1 0x40 MLOAD PUSH2 0xD78 SWAP5 SWAP4 SWAP3 SWAP2 SWAP1 PUSH2 0x3360 JUMP JUMPDEST PUSH1 0x40 MLOAD DUP1 SWAP2 SUB SWAP1 LOG2 POP PUSH2 0xD89 PUSH2 0x2004 JUMP JUMPDEST POP POP POP POP JUMP JUMPDEST PUSH1 0x60 PUSH1 0x2 PUSH0 CALLER PUSH20 0xFFFFFFFFFFFFFFFFFFFFFFFFFFFFFFFFFFFFFFFF AND PUSH20 0xFFFFFFFFFFFFFFFFFFFFFFFFFFFFFFFFFFFFFFFF AND DUP2 MSTORE PUSH1 0x20 ADD SWAP1 DUP2 MSTORE PUSH1 0x20 ADD PUSH0 KECCAK256 PUSH0 DUP4 PUSH1 0xFF AND PUSH1 0xFF AND DUP2 MSTORE PUSH1 0x20 ADD SWAP1 DUP2 MSTORE PUSH1 0x20 ADD PUSH0 KECCAK256 DUP1 SLOAD DUP1 PUSH1 0x20 MUL PUSH1 0x20 ADD PUSH1 0x40 MLOAD SWAP1 DUP2 ADD PUSH1 0x40 MSTORE DUP1 SWAP3 SWAP2 SWAP1 DUP2 DUP2 MSTORE PUSH1 0x20 ADD PUSH0 SWAP1 JUMPDEST DUP3 DUP3 LT ISZERO PUSH2 0xF7A JUMPI DUP4 DUP3 SWAP1 PUSH0 MSTORE PUSH1 0x20 PUSH0 KECCAK256 SWAP1 PUSH1 0x5 MUL ADD PUSH1 0x40 MLOAD DUP1 PUSH1 0xE0 ADD PUSH1 0x40 MSTORE SWAP1 DUP2 PUSH0 DUP3 ADD PUSH0 SWAP1 SLOAD SWAP1 PUSH2 0x100 EXP SWAP1 DIV PUSH20 0xFFFFFFFFFFFFFFFFFFFFFFFFFFFFFFFFFFFFFFFF AND PUSH20 0xFFFFFFFFFFFFFFFFFFFFFFFFFFFFFFFFFFFFFFFF AND PUSH20 0xFFFFFFFFFFFFFFFFFFFFFFFFFFFFFFFFFFFFFFFF AND DUP2 MSTORE PUSH1 0x20 ADD PUSH1 0x1 DUP3 ADD SLOAD DUP2 MSTORE PUSH1 0x20 ADD PUSH1 0x2 DUP3 ADD SLOAD DUP2 MSTORE PUSH1 0x20 ADD PUSH1 0x3 DUP3 ADD DUP1 SLOAD PUSH2 0xE9B SWAP1 PUSH2 0x2E93 JUMP JUMPDEST DUP1 PUSH1 0x1F ADD PUSH1 0x20 DUP1 SWAP2 DIV MUL PUSH1 0x20 ADD PUSH1 0x40 MLOAD SWAP1 DUP2 ADD PUSH1 0x40 MSTORE DUP1 SWAP3 SWAP2 SWAP1 DUP2 DUP2 MSTORE PUSH1 0x20 ADD DUP3 DUP1 SLOAD PUSH2 0xEC7 SWAP1 PUSH2 0x2E93 JUMP JUMPDEST DUP1 ISZERO PUSH2 0xF12 JUMPI DUP1 PUSH1 0x1F LT PUSH2 0xEE9 JUMPI PUSH2 0x100 DUP1 DUP4 SLOAD DIV MUL DUP4 MSTORE SWAP2 PUSH1 0x20 ADD SWAP2 PUSH2 0xF12 JUMP JUMPDEST DUP3 ADD SWAP2 SWAP1 PUSH0 MSTORE PUSH1 0x20 PUSH0 KECCAK256 SWAP1 JUMPDEST DUP2 SLOAD DUP2 MSTORE SWAP1 PUSH1 0x1 ADD SWAP1 PUSH1 0x20 ADD DUP1 DUP4 GT PUSH2 0xEF5 JUMPI DUP3 SWAP1 SUB PUSH1 0x1F AND DUP3 ADD SWAP2 JUMPDEST POP POP POP POP POP DUP2 MSTORE PUSH1 0x20 ADD PUSH1 0x4 DUP3 ADD PUSH0 SWAP1 SLOAD SWAP1 PUSH2 0x100 EXP SWAP1 DIV PUSH1 0xFF AND ISZERO ISZERO ISZERO ISZERO DUP2 MSTORE PUSH1 0x20 ADD PUSH1 0x4 DUP3 ADD PUSH1 0x1 SWAP1 SLOAD SWAP1 PUSH2 0x100 EXP SWAP1 DIV PUSH1 0xFF AND ISZERO ISZERO ISZERO ISZERO DUP2 MSTORE PUSH1 0x20 ADD PUSH1 0x4 DUP3 ADD PUSH1 0x2 SWAP1 SLOAD SWAP1 PUSH2 0x100 EXP SWAP1 DIV PUSH1 0xFF AND ISZERO ISZERO ISZERO ISZERO DUP2 MSTORE POP POP DUP2 MSTORE PUSH1 0x20 ADD SWAP1 PUSH1 0x1 ADD SWAP1 PUSH2 0xE02 JUMP JUMPDEST POP POP POP POP SWAP1 POP SWAP2 SWAP1 POP JUMP JUMPDEST PUSH1 0x3 PUSH1 0x20 MSTORE DUP3 PUSH0 MSTORE PUSH1 0x40 PUSH0 KECCAK256 PUSH1 0x20 MSTORE DUP2 PUSH0 MSTORE PUSH1 0x40 PUSH0 KECCAK256 DUP2 DUP2 SLOAD DUP2 LT PUSH2 0xFA8 JUMPI PUSH0 DUP1 REVERT JUMPDEST SWAP1 PUSH0 MSTORE PUSH1 0x20 PUSH0 KECCAK256 SWAP1 PUSH1 0x5 MUL ADD PUSH0 SWAP3 POP SWAP3 POP POP POP DUP1 PUSH0 ADD PUSH0 SWAP1 SLOAD SWAP1 PUSH2 0x100 EXP SWAP1 DIV PUSH20 0xFFFFFFFFFFFFFFFFFFFFFFFFFFFFFFFFFFFFFFFF AND SWAP1 DUP1 PUSH1 0x1 ADD SLOAD SWAP1 DUP1 PUSH1 0x2 ADD DUP1 SLOAD PUSH2 0xFF4 SWAP1 PUSH2 0x2E93 JUMP JUMPDEST DUP1 PUSH1 0x1F ADD PUSH1 0x20 DUP1 SWAP2 DIV MUL PUSH1 0x20 ADD PUSH1 0x40 MLOAD SWAP1 DUP2 ADD PUSH1 0x40 MSTORE DUP1 SWAP3 SWAP2 SWAP1 DUP2 DUP2 MSTORE PUSH1 0x20 ADD DUP3 DUP1 SLOAD PUSH2 0x1020 SWAP1 PUSH2 0x2E93 JUMP JUMPDEST DUP1 ISZERO PUSH2 0x106B JUMPI DUP1 PUSH1 0x1F LT PUSH2 0x1042 JUMPI PUSH2 0x100 DUP1 DUP4 SLOAD DIV MUL DUP4 MSTORE SWAP2 PUSH1 0x20 ADD SWAP2 PUSH2 0x106B JUMP JUMPDEST DUP3 ADD SWAP2 SWAP1 PUSH0 MSTORE PUSH1 0x20 PUSH0 KECCAK256 SWAP1 JUMPDEST DUP2 SLOAD DUP2 MSTORE SWAP1 PUSH1 0x1 ADD SWAP1 PUSH1 0x20 ADD DUP1 DUP4 GT PUSH2 0x104E JUMPI DUP3 SWAP1 SUB PUSH1 0x1F AND DUP3 ADD SWAP2 JUMPDEST POP POP POP POP POP SWAP1 DUP1 PUSH1 0x3 ADD PUSH0 SWAP1 SLOAD SWAP1 PUSH2 0x100 EXP SWAP1 DIV PUSH1 0xFF AND SWAP1 DUP1 PUSH1 0x4 ADD SLOAD SWAP1 POP DUP6 JUMP JUMPDEST PUSH2 0x1095 PUSH2 0x200D JUMP JUMPDEST PUSH2 0x109E PUSH0 PUSH2 0x2094 JUMP JUMPDEST JUMP JUMPDEST PUSH0 SELFBALANCE SWAP1 POP SWAP1 JUMP JUMPDEST PUSH0 DUP1 PUSH0 SWAP1 SLOAD SWAP1 PUSH2 0x100 EXP SWAP1 DIV PUSH20 0xFFFFFFFFFFFFFFFFFFFFFFFFFFFFFFFFFFFFFFFF AND SWAP1 POP SWAP1 JUMP JUMPDEST PUSH0 PUSH1 0x2 PUSH0 CALLER PUSH20 0xFFFFFFFFFFFFFFFFFFFFFFFFFFFFFFFFFFFFFFFF AND PUSH20 0xFFFFFFFFFFFFFFFFFFFFFFFFFFFFFFFFFFFFFFFF AND DUP2 MSTORE PUSH1 0x20 ADD SWAP1 DUP2 MSTORE PUSH1 0x20 ADD PUSH0 KECCAK256 PUSH0 DUP5 PUSH1 0xFF AND PUSH1 0xFF AND DUP2 MSTORE PUSH1 0x20 ADD SWAP1 DUP2 MSTORE PUSH1 0x20 ADD PUSH0 KECCAK256 DUP5 PUSH4 0xFFFFFFFF AND DUP2 SLOAD DUP2 LT PUSH2 0x1139 JUMPI PUSH2 0x1138 PUSH2 0x32B2 JUMP JUMPDEST JUMPDEST SWAP1 PUSH0 MSTORE PUSH1 0x20 PUSH0 KECCAK256 SWAP1 PUSH1 0x5 MUL ADD SWAP1 POP PUSH1 0x2 PUSH0 CALLER PUSH20 0xFFFFFFFFFFFFFFFFFFFFFFFFFFFFFFFFFFFFFFFF AND PUSH20 0xFFFFFFFFFFFFFFFFFFFFFFFFFFFFFFFFFFFFFFFF AND DUP2 MSTORE PUSH1 0x20 ADD SWAP1 DUP2 MSTORE PUSH1 0x20 ADD PUSH0 KECCAK256 PUSH0 DUP5 PUSH1 0xFF AND PUSH1 0xFF AND DUP2 MSTORE PUSH1 0x20 ADD SWAP1 DUP2 MSTORE PUSH1 0x20 ADD PUSH0 KECCAK256 DUP1 SLOAD SWAP1 POP DUP5 PUSH4 0xFFFFFFFF AND LT PUSH2 0x11E4 JUMPI PUSH1 0x40 MLOAD PUSH32 0x8C379A000000000000000000000000000000000000000000000000000000000 DUP2 MSTORE PUSH1 0x4 ADD PUSH2 0x11DB SWAP1 PUSH2 0x341A JUMP JUMPDEST PUSH1 0x40 MLOAD DUP1 SWAP2 SUB SWAP1 REVERT JUMPDEST DUP1 PUSH1 0x2 ADD SLOAD TIMESTAMP GT PUSH2 0x122A JUMPI PUSH1 0x40 MLOAD PUSH32 0x8C379A000000000000000000000000000000000000000000000000000000000 DUP2 MSTORE PUSH1 0x4 ADD PUSH2 0x1221 SWAP1 PUSH2 0x34A8 JUMP JUMPDEST PUSH1 0x40 MLOAD DUP1 SWAP2 SUB SWAP1 REVERT JUMPDEST DUP2 TIMESTAMP PUSH2 0x1236 SWAP2 SWAP1 PUSH2 0x2E33 JUMP JUMPDEST PUSH1 0x2 PUSH0 CALLER PUSH20 0xFFFFFFFFFFFFFFFFFFFFFFFFFFFFFFFFFFFFFFFF AND PUSH20 0xFFFFFFFFFFFFFFFFFFFFFFFFFFFFFFFFFFFFFFFF AND DUP2 MSTORE PUSH1 0x20 ADD SWAP1 DUP2 MSTORE PUSH1 0x20 ADD PUSH0 KECCAK256 PUSH0 DUP6 PUSH1 0xFF AND PUSH1 0xFF AND DUP2 MSTORE PUSH1 0x20 ADD SWAP1 DUP2 MSTORE PUSH1 0x20 ADD PUSH0 KECCAK256 DUP6 PUSH4 0xFFFFFFFF AND DUP2 SLOAD DUP2 LT PUSH2 0x12A0 JUMPI PUSH2 0x129F PUSH2 0x32B2 JUMP JUMPDEST JUMPDEST SWAP1 PUSH0 MSTORE PUSH1 0x20 PUSH0 KECCAK256 SWAP1 PUSH1 0x5 MUL ADD PUSH1 0x2 ADD DUP2 SWAP1 SSTORE POP DUP1 PUSH0 ADD PUSH0 SWAP1 SLOAD SWAP1 PUSH2 0x100 EXP SWAP1 DIV PUSH20 0xFFFFFFFFFFFFFFFFFFFFFFFFFFFFFFFFFFFFFFFF AND PUSH20 0xFFFFFFFFFFFFFFFFFFFFFFFFFFFFFFFFFFFFFFFF AND PUSH32 0x748CB9768EE3F2567793F42A22F5B0C83DF9E14D32EC82C9CB839CB1B357BE13 DUP5 DUP5 DUP5 PUSH1 0x3 ADD TIMESTAMP PUSH1 0x40 MLOAD PUSH2 0x1324 SWAP5 SWAP4 SWAP3 SWAP2 SWAP1 PUSH2 0x34C6 JUMP JUMPDEST PUSH1 0x40 MLOAD DUP1 SWAP2 SUB SWAP1 LOG2 POP POP POP POP JUMP JUMPDEST PUSH1 0x2 PUSH1 0x20 MSTORE DUP3 PUSH0 MSTORE PUSH1 0x40 PUSH0 KECCAK256 PUSH1 0x20 MSTORE DUP2 PUSH0 MSTORE PUSH1 0x40 PUSH0 KECCAK256 DUP2 DUP2 SLOAD DUP2 LT PUSH2 0x1355 JUMPI PUSH0 DUP1 REVERT JUMPDEST SWAP1 PUSH0 MSTORE PUSH1 0x20 PUSH0 KECCAK256 SWAP1 PUSH1 0x5 MUL ADD PUSH0 SWAP3 POP SWAP3 POP POP POP DUP1 PUSH0 ADD PUSH0 SWAP1 SLOAD SWAP1 PUSH2 0x100 EXP SWAP1 DIV PUSH20 0xFFFFFFFFFFFFFFFFFFFFFFFFFFFFFFFFFFFFFFFF AND SWAP1 DUP1 PUSH1 0x1 ADD SLOAD SWAP1 DUP1 PUSH1 0x2 ADD SLOAD SWAP1 DUP1 PUSH1 0x3 ADD DUP1 SLOAD PUSH2 0x13A7 SWAP1 PUSH2 0x2E93 JUMP JUMPDEST DUP1 PUSH1 0x1F ADD PUSH1 0x20 DUP1 SWAP2 DIV MUL PUSH1 0x20 ADD PUSH1 0x40 MLOAD SWAP1 DUP2 ADD PUSH1 0x40 MSTORE DUP1 SWAP3 SWAP2 SWAP1 DUP2 DUP2 MSTORE PUSH1 0x20 ADD DUP3 DUP1 SLOAD PUSH2 0x13D3 SWAP1 PUSH2 0x2E93 JUMP JUMPDEST DUP1 ISZERO PUSH2 0x141E JUMPI DUP1 PUSH1 0x1F LT PUSH2 0x13F5 JUMPI PUSH2 0x100 DUP1 DUP4 SLOAD DIV MUL DUP4 MSTORE SWAP2 PUSH1 0x20 ADD SWAP2 PUSH2 0x141E JUMP JUMPDEST DUP3 ADD SWAP2 SWAP1 PUSH0 MSTORE PUSH1 0x20 PUSH0 KECCAK256 SWAP1 JUMPDEST DUP2 SLOAD DUP2 MSTORE SWAP1 PUSH1 0x1 ADD SWAP1 PUSH1 0x20 ADD DUP1 DUP4 GT PUSH2 0x1401 JUMPI DUP3 SWAP1 SUB PUSH1 0x1F AND DUP3 ADD SWAP2 JUMPDEST POP POP POP POP POP SWAP1 DUP1 PUSH1 0x4 ADD PUSH0 SWAP1 SLOAD SWAP1 PUSH2 0x100 EXP SWAP1 DIV PUSH1 0xFF AND SWAP1 DUP1 PUSH1 0x4 ADD PUSH1 0x1 SWAP1 SLOAD SWAP1 PUSH2 0x100 EXP SWAP1 DIV PUSH1 0xFF AND SWAP1 DUP1 PUSH1 0x4 ADD PUSH1 0x2 SWAP1 SLOAD SWAP1 PUSH2 0x100 EXP SWAP1 DIV PUSH1 0xFF AND SWAP1 POP DUP8 JUMP JUMPDEST PUSH2 0x1468 PUSH2 0x1DEF JUMP JUMPDEST PUSH1 0x2 PUSH0 CALLER PUSH20 0xFFFFFFFFFFFFFFFFFFFFFFFFFFFFFFFFFFFFFFFF AND PUSH20 0xFFFFFFFFFFFFFFFFFFFFFFFFFFFFFFFFFFFFFFFF AND DUP2 MSTORE PUSH1 0x20 ADD SWAP1 DUP2 MSTORE PUSH1 0x20 ADD PUSH0 KECCAK256 PUSH0 DUP4 PUSH1 0xFF AND PUSH1 0xFF AND DUP2 MSTORE PUSH1 0x20 ADD SWAP1 DUP2 MSTORE PUSH1 0x20 ADD PUSH0 KECCAK256 DUP1 SLOAD SWAP1 POP DUP4 PUSH4 0xFFFFFFFF AND LT PUSH2 0x1505 JUMPI PUSH1 0x40 MLOAD PUSH32 0x8C379A000000000000000000000000000000000000000000000000000000000 DUP2 MSTORE PUSH1 0x4 ADD PUSH2 0x14FC SWAP1 PUSH2 0x341A JUMP JUMPDEST PUSH1 0x40 MLOAD DUP1 SWAP2 SUB SWAP1 REVERT JUMPDEST PUSH0 PUSH1 0x2 PUSH0 CALLER PUSH20 0xFFFFFFFFFFFFFFFFFFFFFFFFFFFFFFFFFFFFFFFF AND PUSH20 0xFFFFFFFFFFFFFFFFFFFFFFFFFFFFFFFFFFFFFFFF AND DUP2 MSTORE PUSH1 0x20 ADD SWAP1 DUP2 MSTORE PUSH1 0x20 ADD PUSH0 KECCAK256 PUSH0 DUP5 PUSH1 0xFF AND PUSH1 0xFF AND DUP2 MSTORE PUSH1 0x20 ADD SWAP1 DUP2 MSTORE PUSH1 0x20 ADD PUSH0 KECCAK256 DUP5 PUSH4 0xFFFFFFFF AND DUP2 SLOAD DUP2 LT PUSH2 0x1570 JUMPI PUSH2 0x156F PUSH2 0x32B2 JUMP JUMPDEST JUMPDEST SWAP1 PUSH0 MSTORE PUSH1 0x20 PUSH0 KECCAK256 SWAP1 PUSH1 0x5 MUL ADD SWAP1 POP DUP1 PUSH1 0x4 ADD PUSH0 SWAP1 SLOAD SWAP1 PUSH2 0x100 EXP SWAP1 DIV PUSH1 0xFF AND ISZERO PUSH2 0x15CF JUMPI PUSH1 0x40 MLOAD PUSH32 0x8C379A000000000000000000000000000000000000000000000000000000000 DUP2 MSTORE PUSH1 0x4 ADD PUSH2 0x15C6 SWAP1 PUSH2 0x3580 JUMP JUMPDEST PUSH1 0x40 MLOAD DUP1 SWAP2 SUB SWAP1 REVERT JUMPDEST DUP1 PUSH1 0x2 ADD SLOAD TIMESTAMP GT DUP1 PUSH2 0x15EF JUMPI POP DUP1 PUSH1 0x4 ADD PUSH1 0x2 SWAP1 SLOAD SWAP1 PUSH2 0x100 EXP SWAP1 DIV PUSH1 0xFF AND JUMPDEST PUSH2 0x162E JUMPI PUSH1 0x40 MLOAD PUSH32 0x8C379A000000000000000000000000000000000000000000000000000000000 DUP2 MSTORE PUSH1 0x4 ADD PUSH2 0x1625 SWAP1 PUSH2 0x3634 JUMP JUMPDEST PUSH1 0x40 MLOAD DUP1 SWAP2 SUB SWAP1 REVERT JUMPDEST PUSH0 DUP3 DUP3 PUSH1 0x1 ADD SLOAD PUSH2 0x163F SWAP2 SWAP1 PUSH2 0x3652 JUMP JUMPDEST SWAP1 POP PUSH0 DUP2 LT ISZERO PUSH2 0x1684 JUMPI PUSH1 0x40 MLOAD PUSH32 0x8C379A000000000000000000000000000000000000000000000000000000000 DUP2 MSTORE PUSH1 0x4 ADD PUSH2 0x167B SWAP1 PUSH2 0x36CF JUMP JUMPDEST PUSH1 0x40 MLOAD DUP1 SWAP2 SUB SWAP1 REVERT JUMPDEST PUSH0 DUP2 SUB PUSH2 0x171D JUMPI PUSH1 0x1 PUSH1 0x2 PUSH0 CALLER PUSH20 0xFFFFFFFFFFFFFFFFFFFFFFFFFFFFFFFFFFFFFFFF AND PUSH20 0xFFFFFFFFFFFFFFFFFFFFFFFFFFFFFFFFFFFFFFFF AND DUP2 MSTORE PUSH1 0x20 ADD SWAP1 DUP2 MSTORE PUSH1 0x20 ADD PUSH0 KECCAK256 PUSH0 DUP7 PUSH1 0xFF AND PUSH1 0xFF AND DUP2 MSTORE PUSH1 0x20 ADD SWAP1 DUP2 MSTORE PUSH1 0x20 ADD PUSH0 KECCAK256 DUP7 PUSH4 0xFFFFFFFF AND DUP2 SLOAD DUP2 LT PUSH2 0x16F7 JUMPI PUSH2 0x16F6 PUSH2 0x32B2 JUMP JUMPDEST JUMPDEST SWAP1 PUSH0 MSTORE PUSH1 0x20 PUSH0 KECCAK256 SWAP1 PUSH1 0x5 MUL ADD PUSH1 0x4 ADD PUSH0 PUSH2 0x100 EXP DUP2 SLOAD DUP2 PUSH1 0xFF MUL NOT AND SWAP1 DUP4 ISZERO ISZERO MUL OR SWAP1 SSTORE POP JUMPDEST DUP1 PUSH1 0x2 PUSH0 CALLER PUSH20 0xFFFFFFFFFFFFFFFFFFFFFFFFFFFFFFFFFFFFFFFF AND PUSH20 0xFFFFFFFFFFFFFFFFFFFFFFFFFFFFFFFFFFFFFFFF AND DUP2 MSTORE PUSH1 0x20 ADD SWAP1 DUP2 MSTORE PUSH1 0x20 ADD PUSH0 KECCAK256 PUSH0 DUP7 PUSH1 0xFF AND PUSH1 0xFF AND DUP2 MSTORE PUSH1 0x20 ADD SWAP1 DUP2 MSTORE PUSH1 0x20 ADD PUSH0 KECCAK256 DUP7 PUSH4 0xFFFFFFFF AND DUP2 SLOAD DUP2 LT PUSH2 0x1788 JUMPI PUSH2 0x1787 PUSH2 0x32B2 JUMP JUMPDEST JUMPDEST SWAP1 PUSH0 MSTORE PUSH1 0x20 PUSH0 KECCAK256 SWAP1 PUSH1 0x5 MUL ADD PUSH1 0x1 ADD DUP2 SWAP1 SSTORE POP DUP2 PUSH1 0x4 ADD PUSH1 0x1 SWAP1 SLOAD SWAP1 PUSH2 0x100 EXP SWAP1 DIV PUSH1 0xFF AND ISZERO PUSH2 0x18F8 JUMPI PUSH0 CALLER PUSH20 0xFFFFFFFFFFFFFFFFFFFFFFFFFFFFFFFFFFFFFFFF AND DUP5 PUSH1 0x40 MLOAD PUSH2 0x17D7 SWAP1 PUSH2 0x371A JUMP JUMPDEST PUSH0 PUSH1 0x40 MLOAD DUP1 DUP4 SUB DUP2 DUP6 DUP8 GAS CALL SWAP3 POP POP POP RETURNDATASIZE DUP1 PUSH0 DUP2 EQ PUSH2 0x1811 JUMPI PUSH1 0x40 MLOAD SWAP2 POP PUSH1 0x1F NOT PUSH1 0x3F RETURNDATASIZE ADD AND DUP3 ADD PUSH1 0x40 MSTORE RETURNDATASIZE DUP3 MSTORE RETURNDATASIZE PUSH0 PUSH1 0x20 DUP5 ADD RETURNDATACOPY PUSH2 0x1816 JUMP JUMPDEST PUSH1 0x60 SWAP2 POP JUMPDEST POP POP SWAP1 POP DUP1 PUSH2 0x185A JUMPI PUSH1 0x40 MLOAD PUSH32 0x8C379A000000000000000000000000000000000000000000000000000000000 DUP2 MSTORE PUSH1 0x4 ADD PUSH2 0x1851 SWAP1 PUSH2 0x3778 JUMP JUMPDEST PUSH1 0x40 MLOAD DUP1 SWAP2 SUB SWAP1 REVERT JUMPDEST PUSH2 0x18F2 PUSH0 DUP7 DUP7 DUP7 PUSH1 0x3 ADD DUP1 SLOAD PUSH2 0x186F SWAP1 PUSH2 0x2E93 JUMP JUMPDEST DUP1 PUSH1 0x1F ADD PUSH1 0x20 DUP1 SWAP2 DIV MUL PUSH1 0x20 ADD PUSH1 0x40 MLOAD SWAP1 DUP2 ADD PUSH1 0x40 MSTORE DUP1 SWAP3 SWAP2 SWAP1 DUP2 DUP2 MSTORE PUSH1 0x20 ADD DUP3 DUP1 SLOAD PUSH2 0x189B SWAP1 PUSH2 0x2E93 JUMP JUMPDEST DUP1 ISZERO PUSH2 0x18E6 JUMPI DUP1 PUSH1 0x1F LT PUSH2 0x18BD JUMPI PUSH2 0x100 DUP1 DUP4 SLOAD DIV MUL DUP4 MSTORE SWAP2 PUSH1 0x20 ADD SWAP2 PUSH2 0x18E6 JUMP JUMPDEST DUP3 ADD SWAP2 SWAP1 PUSH0 MSTORE PUSH1 0x20 PUSH0 KECCAK256 SWAP1 JUMPDEST DUP2 SLOAD DUP2 MSTORE SWAP1 PUSH1 0x1 ADD SWAP1 PUSH1 0x20 ADD DUP1 DUP4 GT PUSH2 0x18C9 JUMPI DUP3 SWAP1 SUB PUSH1 0x1F AND DUP3 ADD SWAP2 JUMPDEST POP POP POP POP POP PUSH1 0x1 PUSH2 0x1EB7 JUMP JUMPDEST POP PUSH2 0x1A00 JUMP JUMPDEST PUSH2 0x1945 CALLER DUP5 DUP5 PUSH0 ADD PUSH0 SWAP1 SLOAD SWAP1 PUSH2 0x100 EXP SWAP1 DIV PUSH20 0xFFFFFFFFFFFFFFFFFFFFFFFFFFFFFFFFFFFFFFFF AND PUSH20 0xFFFFFFFFFFFFFFFFFFFFFFFFFFFFFFFFFFFFFFFF AND PUSH2 0x2155 SWAP1 SWAP3 SWAP2 SWAP1 PUSH4 0xFFFFFFFF AND JUMP JUMPDEST PUSH2 0x19FF DUP3 PUSH0 ADD PUSH0 SWAP1 SLOAD SWAP1 PUSH2 0x100 EXP SWAP1 DIV PUSH20 0xFFFFFFFFFFFFFFFFFFFFFFFFFFFFFFFFFFFFFFFF AND DUP6 DUP6 DUP6 PUSH1 0x3 ADD DUP1 SLOAD PUSH2 0x197C SWAP1 PUSH2 0x2E93 JUMP JUMPDEST DUP1 PUSH1 0x1F ADD PUSH1 0x20 DUP1 SWAP2 DIV MUL PUSH1 0x20 ADD PUSH1 0x40 MLOAD SWAP1 DUP2 ADD PUSH1 0x40 MSTORE DUP1 SWAP3 SWAP2 SWAP1 DUP2 DUP2 MSTORE PUSH1 0x20 ADD DUP3 DUP1 SLOAD PUSH2 0x19A8 SWAP1 PUSH2 0x2E93 JUMP JUMPDEST DUP1 ISZERO PUSH2 0x19F3 JUMPI DUP1 PUSH1 0x1F LT PUSH2 0x19CA JUMPI PUSH2 0x100 DUP1 DUP4 SLOAD DIV MUL DUP4 MSTORE SWAP2 PUSH1 0x20 ADD SWAP2 PUSH2 0x19F3 JUMP JUMPDEST DUP3 ADD SWAP2 SWAP1 PUSH0 MSTORE PUSH1 0x20 PUSH0 KECCAK256 SWAP1 JUMPDEST DUP2 SLOAD DUP2 MSTORE SWAP1 PUSH1 0x1 ADD SWAP1 PUSH1 0x20 ADD DUP1 DUP4 GT PUSH2 0x19D6 JUMPI DUP3 SWAP1 SUB PUSH1 0x1F AND DUP3 ADD SWAP2 JUMPDEST POP POP POP POP POP PUSH1 0x1 PUSH2 0x1EB7 JUMP JUMPDEST JUMPDEST DUP2 PUSH0 ADD PUSH0 SWAP1 SLOAD SWAP1 PUSH2 0x100 EXP SWAP1 DIV PUSH20 0xFFFFFFFFFFFFFFFFFFFFFFFFFFFFFFFFFFFFFFFF AND PUSH20 0xFFFFFFFFFFFFFFFFFFFFFFFFFFFFFFFFFFFFFFFF AND PUSH32 0x16C4C024C274B52575FFC17396BBC4A59DB7DD13AAC28373E025A9F6269F9E03 DUP5 DUP5 PUSH1 0x3 ADD DUP8 TIMESTAMP PUSH1 0x40 MLOAD PUSH2 0x1A71 SWAP5 SWAP4 SWAP3 SWAP2 SWAP1 PUSH2 0x3360 JUMP JUMPDEST PUSH1 0x40 MLOAD DUP1 SWAP2 SUB SWAP1 LOG2 POP POP PUSH2 0x1A83 PUSH2 0x2004 JUMP JUMPDEST POP POP POP JUMP JUMPDEST PUSH2 0x1A90 PUSH2 0x1DEF JUMP JUMPDEST PUSH0 CALLVALUE GT PUSH2 0x1AD2 JUMPI PUSH1 0x40 MLOAD PUSH32 0x8C379A000000000000000000000000000000000000000000000000000000000 DUP2 MSTORE PUSH1 0x4 ADD PUSH2 0x1AC9 SWAP1 PUSH2 0x3806 JUMP JUMPDEST PUSH1 0x40 MLOAD DUP1 SWAP2 SUB SWAP1 REVERT JUMPDEST PUSH0 PUSH1 0x2 PUSH0 CALLER PUSH20 0xFFFFFFFFFFFFFFFFFFFFFFFFFFFFFFFFFFFFFFFF AND PUSH20 0xFFFFFFFFFFFFFFFFFFFFFFFFFFFFFFFFFFFFFFFF AND DUP2 MSTORE PUSH1 0x20 ADD SWAP1 DUP2 MSTORE PUSH1 0x20 ADD PUSH0 KECCAK256 PUSH0 DUP5 PUSH1 0xFF AND PUSH1 0xFF AND DUP2 MSTORE PUSH1 0x20 ADD SWAP1 DUP2 MSTORE PUSH1 0x20 ADD PUSH0 KECCAK256 DUP3 PUSH4 0xFFFFFFFF AND DUP2 SLOAD DUP2 LT PUSH2 0x1B3D JUMPI PUSH2 0x1B3C PUSH2 0x32B2 JUMP JUMPDEST JUMPDEST SWAP1 PUSH0 MSTORE PUSH1 0x20 PUSH0 KECCAK256 SWAP1 PUSH1 0x5 MUL ADD SWAP1 POP CALLVALUE PUSH1 0x2 PUSH0 CALLER PUSH20 0xFFFFFFFFFFFFFFFFFFFFFFFFFFFFFFFFFFFFFFFF AND PUSH20 0xFFFFFFFFFFFFFFFFFFFFFFFFFFFFFFFFFFFFFFFF AND DUP2 MSTORE PUSH1 0x20 ADD SWAP1 DUP2 MSTORE PUSH1 0x20 ADD PUSH0 KECCAK256 PUSH0 DUP6 PUSH1 0xFF AND PUSH1 0xFF AND DUP2 MSTORE PUSH1 0x20 ADD SWAP1 DUP2 MSTORE PUSH1 0x20 ADD PUSH0 KECCAK256 DUP4 PUSH4 0xFFFFFFFF AND DUP2 SLOAD DUP2 LT PUSH2 0x1BB6 JUMPI PUSH2 0x1BB5 PUSH2 0x32B2 JUMP JUMPDEST JUMPDEST SWAP1 PUSH0 MSTORE PUSH1 0x20 PUSH0 KECCAK256 SWAP1 PUSH1 0x5 MUL ADD PUSH1 0x1 ADD PUSH0 DUP3 DUP3 SLOAD PUSH2 0x1BD3 SWAP2 SWAP1 PUSH2 0x2E33 JUMP JUMPDEST SWAP3 POP POP DUP2 SWAP1 SSTORE POP PUSH2 0x1C71 PUSH0 DUP5 CALLVALUE DUP5 PUSH1 0x3 ADD DUP1 SLOAD PUSH2 0x1BEF SWAP1 PUSH2 0x2E93 JUMP JUMPDEST DUP1 PUSH1 0x1F ADD PUSH1 0x20 DUP1 SWAP2 DIV MUL PUSH1 0x20 ADD PUSH1 0x40 MLOAD SWAP1 DUP2 ADD PUSH1 0x40 MSTORE DUP1 SWAP3 SWAP2 SWAP1 DUP2 DUP2 MSTORE PUSH1 0x20 ADD DUP3 DUP1 SLOAD PUSH2 0x1C1B SWAP1 PUSH2 0x2E93 JUMP JUMPDEST DUP1 ISZERO PUSH2 0x1C66 JUMPI DUP1 PUSH1 0x1F LT PUSH2 0x1C3D JUMPI PUSH2 0x100 DUP1 DUP4 SLOAD DIV MUL DUP4 MSTORE SWAP2 PUSH1 0x20 ADD SWAP2 PUSH2 0x1C66 JUMP JUMPDEST DUP3 ADD SWAP2 SWAP1 PUSH0 MSTORE PUSH1 0x20 PUSH0 KECCAK256 SWAP1 JUMPDEST DUP2 SLOAD DUP2 MSTORE SWAP1 PUSH1 0x1 ADD SWAP1 PUSH1 0x20 ADD DUP1 DUP4 GT PUSH2 0x1C49 JUMPI DUP3 SWAP1 SUB PUSH1 0x1F AND DUP3 ADD SWAP2 JUMPDEST POP POP POP POP POP PUSH0 PUSH2 0x1EB7 JUMP JUMPDEST PUSH0 PUSH20 0xFFFFFFFFFFFFFFFFFFFFFFFFFFFFFFFFFFFFFFFF AND PUSH32 0xB99CE8321B94FFAA5C5021540EC0668DCBA948D044760A5EF298FA0513B1EF4 CALLVALUE DUP4 PUSH1 0x3 ADD DUP7 TIMESTAMP PUSH1 0x40 MLOAD PUSH2 0x1CC0 SWAP5 SWAP4 SWAP3 SWAP2 SWAP1 PUSH2 0x3360 JUMP JUMPDEST PUSH1 0x40 MLOAD DUP1 SWAP2 SUB SWAP1 LOG2 POP PUSH2 0x1CD1 PUSH2 0x2004 JUMP JUMPDEST POP POP JUMP JUMPDEST DUP1 PUSH1 0x2 PUSH0 CALLER PUSH20 0xFFFFFFFFFFFFFFFFFFFFFFFFFFFFFFFFFFFFFFFF AND PUSH20 0xFFFFFFFFFFFFFFFFFFFFFFFFFFFFFFFFFFFFFFFF AND DUP2 MSTORE PUSH1 0x20 ADD SWAP1 DUP2 MSTORE PUSH1 0x20 ADD PUSH0 KECCAK256 PUSH0 DUP5 PUSH1 0xFF AND PUSH1 0xFF AND DUP2 MSTORE PUSH1 0x20 ADD SWAP1 DUP2 MSTORE PUSH1 0x20 ADD PUSH0 KECCAK256 DUP5 PUSH4 0xFFFFFFFF AND DUP2 SLOAD DUP2 LT PUSH2 0x1D40 JUMPI PUSH2 0x1D3F PUSH2 0x32B2 JUMP JUMPDEST JUMPDEST SWAP1 PUSH0 MSTORE PUSH1 0x20 PUSH0 KECCAK256 SWAP1 PUSH1 0x5 MUL ADD PUSH1 0x4 ADD PUSH1 0x2 PUSH2 0x100 EXP DUP2 SLOAD DUP2 PUSH1 0xFF MUL NOT AND SWAP1 DUP4 ISZERO ISZERO MUL OR SWAP1 SSTORE POP POP POP POP JUMP JUMPDEST PUSH2 0x1D73 PUSH2 0x200D JUMP JUMPDEST PUSH0 PUSH20 0xFFFFFFFFFFFFFFFFFFFFFFFFFFFFFFFFFFFFFFFF AND DUP2 PUSH20 0xFFFFFFFFFFFFFFFFFFFFFFFFFFFFFFFFFFFFFFFF AND SUB PUSH2 0x1DE3 JUMPI PUSH0 PUSH1 0x40 MLOAD PUSH32 0x1E4FBDF700000000000000000000000000000000000000000000000000000000 DUP2 MSTORE PUSH1 0x4 ADD PUSH2 0x1DDA SWAP2 SWAP1 PUSH2 0x29F5 JUMP JUMPDEST PUSH1 0x40 MLOAD DUP1 SWAP2 SUB SWAP1 REVERT JUMPDEST PUSH2 0x1DEC DUP2 PUSH2 0x2094 JUMP JUMPDEST POP JUMP JUMPDEST PUSH1 0x2 PUSH1 0x1 SLOAD SUB PUSH2 0x1E2B JUMPI PUSH1 0x40 MLOAD PUSH32 0x3EE5AEB500000000000000000000000000000000000000000000000000000000 DUP2 MSTORE PUSH1 0x4 ADD PUSH1 0x40 MLOAD DUP1 SWAP2 SUB SWAP1 REVERT JUMPDEST PUSH1 0x2 PUSH1 0x1 DUP2 SWAP1 SSTORE POP JUMP JUMPDEST PUSH2 0x1EB1 DUP5 DUP6 PUSH20 0xFFFFFFFFFFFFFFFFFFFFFFFFFFFFFFFFFFFFFFFF AND PUSH4 0x23B872DD DUP7 DUP7 DUP7 PUSH1 0x40 MLOAD PUSH1 0x24 ADD PUSH2 0x1E6A SWAP4 SWAP3 SWAP2 SWAP1 PUSH2 0x3824 JUMP JUMPDEST PUSH1 0x40 MLOAD PUSH1 0x20 DUP2 DUP4 SUB SUB DUP2 MSTORE SWAP1 PUSH1 0x40 MSTORE SWAP2 POP PUSH1 0xE0 SHL PUSH1 0x20 DUP3 ADD DUP1 MLOAD PUSH28 0xFFFFFFFFFFFFFFFFFFFFFFFFFFFFFFFFFFFFFFFFFFFFFFFFFFFFFFFF DUP4 DUP2 DUP4 AND OR DUP4 MSTORE POP POP POP POP PUSH2 0x21D4 JUMP JUMPDEST POP POP POP POP JUMP JUMPDEST PUSH1 0x3 PUSH0 CALLER PUSH20 0xFFFFFFFFFFFFFFFFFFFFFFFFFFFFFFFFFFFFFFFF AND PUSH20 0xFFFFFFFFFFFFFFFFFFFFFFFFFFFFFFFFFFFFFFFF AND DUP2 MSTORE PUSH1 0x20 ADD SWAP1 DUP2 MSTORE PUSH1 0x20 ADD PUSH0 KECCAK256 PUSH0 DUP6 PUSH1 0xFF AND PUSH1 0xFF AND DUP2 MSTORE PUSH1 0x20 ADD SWAP1 DUP2 MSTORE PUSH1 0x20 ADD PUSH0 KECCAK256 PUSH1 0x40 MLOAD DUP1 PUSH1 0xA0 ADD PUSH1 0x40 MSTORE DUP1 DUP8 PUSH20 0xFFFFFFFFFFFFFFFFFFFFFFFFFFFFFFFFFFFFFFFF AND DUP2 MSTORE PUSH1 0x20 ADD DUP6 DUP2 MSTORE PUSH1 0x20 ADD DUP5 DUP2 MSTORE PUSH1 0x20 ADD DUP4 ISZERO ISZERO DUP2 MSTORE PUSH1 0x20 ADD TIMESTAMP DUP2 MSTORE POP SWAP1 DUP1 PUSH1 0x1 DUP2 SLOAD ADD DUP1 DUP3 SSTORE DUP1 SWAP2 POP POP PUSH1 0x1 SWAP1 SUB SWAP1 PUSH0 MSTORE PUSH1 0x20 PUSH0 KECCAK256 SWAP1 PUSH1 0x5 MUL ADD PUSH0 SWAP1 SWAP2 SWAP1 SWAP2 SWAP1 SWAP2 POP PUSH0 DUP3 ADD MLOAD DUP2 PUSH0 ADD PUSH0 PUSH2 0x100 EXP DUP2 SLOAD DUP2 PUSH20 0xFFFFFFFFFFFFFFFFFFFFFFFFFFFFFFFFFFFFFFFF MUL NOT AND SWAP1 DUP4 PUSH20 0xFFFFFFFFFFFFFFFFFFFFFFFFFFFFFFFFFFFFFFFF AND MUL OR SWAP1 SSTORE POP PUSH1 0x20 DUP3 ADD MLOAD DUP2 PUSH1 0x1 ADD SSTORE PUSH1 0x40 DUP3 ADD MLOAD DUP2 PUSH1 0x2 ADD SWAP1 DUP2 PUSH2 0x1FD1 SWAP2 SWAP1 PUSH2 0x3060 JUMP JUMPDEST POP PUSH1 0x60 DUP3 ADD MLOAD DUP2 PUSH1 0x3 ADD PUSH0 PUSH2 0x100 EXP DUP2 SLOAD DUP2 PUSH1 0xFF MUL NOT AND SWAP1 DUP4 ISZERO ISZERO MUL OR SWAP1 SSTORE POP PUSH1 0x80 DUP3 ADD MLOAD DUP2 PUSH1 0x4 ADD SSTORE POP POP POP POP POP POP POP JUMP JUMPDEST PUSH1 0x1 DUP1 DUP2 SWAP1 SSTORE POP JUMP JUMPDEST PUSH2 0x2015 PUSH2 0x226F JUMP JUMPDEST PUSH20 0xFFFFFFFFFFFFFFFFFFFFFFFFFFFFFFFFFFFFFFFF AND PUSH2 0x2033 PUSH2 0x10A7 JUMP JUMPDEST PUSH20 0xFFFFFFFFFFFFFFFFFFFFFFFFFFFFFFFFFFFFFFFF AND EQ PUSH2 0x2092 JUMPI PUSH2 0x2056 PUSH2 0x226F JUMP JUMPDEST PUSH1 0x40 MLOAD PUSH32 0x118CDAA700000000000000000000000000000000000000000000000000000000 DUP2 MSTORE PUSH1 0x4 ADD PUSH2 0x2089 SWAP2 SWAP1 PUSH2 0x29F5 JUMP JUMPDEST PUSH1 0x40 MLOAD DUP1 SWAP2 SUB SWAP1 REVERT JUMPDEST JUMP JUMPDEST PUSH0 DUP1 PUSH0 SWAP1 SLOAD SWAP1 PUSH2 0x100 EXP SWAP1 DIV PUSH20 0xFFFFFFFFFFFFFFFFFFFFFFFFFFFFFFFFFFFFFFFF AND SWAP1 POP DUP2 PUSH0 DUP1 PUSH2 0x100 EXP DUP2 SLOAD DUP2 PUSH20 0xFFFFFFFFFFFFFFFFFFFFFFFFFFFFFFFFFFFFFFFF MUL NOT AND SWAP1 DUP4 PUSH20 0xFFFFFFFFFFFFFFFFFFFFFFFFFFFFFFFFFFFFFFFF AND MUL OR SWAP1 SSTORE POP DUP2 PUSH20 0xFFFFFFFFFFFFFFFFFFFFFFFFFFFFFFFFFFFFFFFF AND DUP2 PUSH20 0xFFFFFFFFFFFFFFFFFFFFFFFFFFFFFFFFFFFFFFFF AND PUSH32 0x8BE0079C531659141344CD1FD0A4F28419497F9722A3DAAFE3B4186F6B6457E0 PUSH1 0x40 MLOAD PUSH1 0x40 MLOAD DUP1 SWAP2 SUB SWAP1 LOG3 POP POP JUMP JUMPDEST PUSH2 0x21CF DUP4 DUP5 PUSH20 0xFFFFFFFFFFFFFFFFFFFFFFFFFFFFFFFFFFFFFFFF AND PUSH4 0xA9059CBB DUP6 DUP6 PUSH1 0x40 MLOAD PUSH1 0x24 ADD PUSH2 0x2188 SWAP3 SWAP2 SWAP1 PUSH2 0x3859 JUMP JUMPDEST PUSH1 0x40 MLOAD PUSH1 0x20 DUP2 DUP4 SUB SUB DUP2 MSTORE SWAP1 PUSH1 0x40 MSTORE SWAP2 POP PUSH1 0xE0 SHL PUSH1 0x20 DUP3 ADD DUP1 MLOAD PUSH28 0xFFFFFFFFFFFFFFFFFFFFFFFFFFFFFFFFFFFFFFFFFFFFFFFFFFFFFFFF DUP4 DUP2 DUP4 AND OR DUP4 MSTORE POP POP POP POP PUSH2 0x21D4 JUMP JUMPDEST POP POP POP JUMP JUMPDEST PUSH0 DUP1 PUSH1 0x20 PUSH0 DUP5 MLOAD PUSH1 0x20 DUP7 ADD PUSH0 DUP9 GAS CALL DUP1 PUSH2 0x21F3 JUMPI PUSH1 0x40 MLOAD RETURNDATASIZE PUSH0 DUP3 RETURNDATACOPY RETURNDATASIZE DUP2 REVERT JUMPDEST RETURNDATASIZE SWAP3 POP PUSH0 MLOAD SWAP2 POP POP PUSH0 DUP3 EQ PUSH2 0x220C JUMPI PUSH1 0x1 DUP2 EQ ISZERO PUSH2 0x2227 JUMP JUMPDEST PUSH0 DUP5 PUSH20 0xFFFFFFFFFFFFFFFFFFFFFFFFFFFFFFFFFFFFFFFF AND EXTCODESIZE EQ JUMPDEST ISZERO PUSH2 0x2269 JUMPI DUP4 PUSH1 0x40 MLOAD PUSH32 0x5274AFE700000000000000000000000000000000000000000000000000000000 DUP2 MSTORE PUSH1 0x4 ADD PUSH2 0x2260 SWAP2 SWAP1 PUSH2 0x29F5 JUMP JUMPDEST PUSH1 0x40 MLOAD DUP1 SWAP2 SUB SWAP1 REVERT JUMPDEST POP POP POP POP JUMP JUMPDEST PUSH0 CALLER SWAP1 POP SWAP1 JUMP JUMPDEST PUSH0 PUSH1 0x40 MLOAD SWAP1 POP SWAP1 JUMP JUMPDEST PUSH0 DUP1 REVERT JUMPDEST PUSH0 DUP1 REVERT JUMPDEST PUSH0 PUSH20 0xFFFFFFFFFFFFFFFFFFFFFFFFFFFFFFFFFFFFFFFF DUP3 AND SWAP1 POP SWAP2 SWAP1 POP JUMP JUMPDEST PUSH0 PUSH2 0x22B0 DUP3 PUSH2 0x2287 JUMP JUMPDEST SWAP1 POP SWAP2 SWAP1 POP JUMP JUMPDEST PUSH0 PUSH2 0x22C1 DUP3 PUSH2 0x22A6 JUMP JUMPDEST SWAP1 POP SWAP2 SWAP1 POP JUMP JUMPDEST PUSH2 0x22D1 DUP2 PUSH2 0x22B7 JUMP JUMPDEST DUP2 EQ PUSH2 0x22DB JUMPI PUSH0 DUP1 REVERT JUMPDEST POP JUMP JUMPDEST PUSH0 DUP2 CALLDATALOAD SWAP1 POP PUSH2 0x22EC DUP2 PUSH2 0x22C8 JUMP JUMPDEST SWAP3 SWAP2 POP POP JUMP JUMPDEST PUSH0 DUP2 SWAP1 POP SWAP2 SWAP1 POP JUMP JUMPDEST PUSH2 0x2304 DUP2 PUSH2 0x22F2 JUMP JUMPDEST DUP2 EQ PUSH2 0x230E JUMPI PUSH0 DUP1 REVERT JUMPDEST POP JUMP JUMPDEST PUSH0 DUP2 CALLDATALOAD SWAP1 POP PUSH2 0x231F DUP2 PUSH2 0x22FB JUMP JUMPDEST SWAP3 SWAP2 POP POP JUMP JUMPDEST PUSH0 PUSH1 0xFF DUP3 AND SWAP1 POP SWAP2 SWAP1 POP JUMP JUMPDEST PUSH2 0x233A DUP2 PUSH2 0x2325 JUMP JUMPDEST DUP2 EQ PUSH2 0x2344 JUMPI PUSH0 DUP1 REVERT JUMPDEST POP JUMP JUMPDEST PUSH0 DUP2 CALLDATALOAD SWAP1 POP PUSH2 0x2355 DUP2 PUSH2 0x2331 JUMP JUMPDEST SWAP3 SWAP2 POP POP JUMP JUMPDEST PUSH0 DUP1 REVERT JUMPDEST PUSH0 DUP1 REVERT JUMPDEST PUSH0 PUSH1 0x1F NOT PUSH1 0x1F DUP4 ADD AND SWAP1 POP SWAP2 SWAP1 POP JUMP JUMPDEST PUSH32 0x4E487B7100000000000000000000000000000000000000000000000000000000 PUSH0 MSTORE PUSH1 0x41 PUSH1 0x4 MSTORE PUSH1 0x24 PUSH0 REVERT JUMPDEST PUSH2 0x23A9 DUP3 PUSH2 0x2363 JUMP JUMPDEST DUP2 ADD DUP2 DUP2 LT PUSH8 0xFFFFFFFFFFFFFFFF DUP3 GT OR ISZERO PUSH2 0x23C8 JUMPI PUSH2 0x23C7 PUSH2 0x2373 JUMP JUMPDEST JUMPDEST DUP1 PUSH1 0x40 MSTORE POP POP POP JUMP JUMPDEST PUSH0 PUSH2 0x23DA PUSH2 0x2276 JUMP JUMPDEST SWAP1 POP PUSH2 0x23E6 DUP3 DUP3 PUSH2 0x23A0 JUMP JUMPDEST SWAP2 SWAP1 POP JUMP JUMPDEST PUSH0 PUSH8 0xFFFFFFFFFFFFFFFF DUP3 GT ISZERO PUSH2 0x2405 JUMPI PUSH2 0x2404 PUSH2 0x2373 JUMP JUMPDEST JUMPDEST PUSH2 0x240E DUP3 PUSH2 0x2363 JUMP JUMPDEST SWAP1 POP PUSH1 0x20 DUP2 ADD SWAP1 POP SWAP2 SWAP1 POP JUMP JUMPDEST DUP3 DUP2 DUP4 CALLDATACOPY PUSH0 DUP4 DUP4 ADD MSTORE POP POP POP JUMP JUMPDEST PUSH0 PUSH2 0x243B PUSH2 0x2436 DUP5 PUSH2 0x23EB JUMP JUMPDEST PUSH2 0x23D1 JUMP JUMPDEST SWAP1 POP DUP3 DUP2 MSTORE PUSH1 0x20 DUP2 ADD DUP5 DUP5 DUP5 ADD GT ISZERO PUSH2 0x2457 JUMPI PUSH2 0x2456 PUSH2 0x235F JUMP JUMPDEST JUMPDEST PUSH2 0x2462 DUP5 DUP3 DUP6 PUSH2 0x241B JUMP JUMPDEST POP SWAP4 SWAP3 POP POP POP JUMP JUMPDEST PUSH0 DUP3 PUSH1 0x1F DUP4 ADD SLT PUSH2 0x247E JUMPI PUSH2 0x247D PUSH2 0x235B JUMP JUMPDEST JUMPDEST DUP2 CALLDATALOAD PUSH2 0x248E DUP5 DUP3 PUSH1 0x20 DUP7 ADD PUSH2 0x2429 JUMP JUMPDEST SWAP2 POP POP SWAP3 SWAP2 POP POP JUMP JUMPDEST PUSH0 DUP1 PUSH0 DUP1 PUSH0 PUSH1 0xA0 DUP7 DUP9 SUB SLT ISZERO PUSH2 0x24B0 JUMPI PUSH2 0x24AF PUSH2 0x227F JUMP JUMPDEST JUMPDEST PUSH0 PUSH2 0x24BD DUP9 DUP3 DUP10 ADD PUSH2 0x22DE JUMP JUMPDEST SWAP6 POP POP PUSH1 0x20 PUSH2 0x24CE DUP9 DUP3 DUP10 ADD PUSH2 0x2311 JUMP JUMPDEST SWAP5 POP POP PUSH1 0x40 PUSH2 0x24DF DUP9 DUP3 DUP10 ADD PUSH2 0x2347 JUMP JUMPDEST SWAP4 POP POP PUSH1 0x60 PUSH2 0x24F0 DUP9 DUP3 DUP10 ADD PUSH2 0x2311 JUMP JUMPDEST SWAP3 POP POP PUSH1 0x80 DUP7 ADD CALLDATALOAD PUSH8 0xFFFFFFFFFFFFFFFF DUP2 GT ISZERO PUSH2 0x2511 JUMPI PUSH2 0x2510 PUSH2 0x2283 JUMP JUMPDEST JUMPDEST PUSH2 0x251D DUP9 DUP3 DUP10 ADD PUSH2 0x246A JUMP JUMPDEST SWAP2 POP POP SWAP3 SWAP6 POP SWAP3 SWAP6 SWAP1 SWAP4 POP JUMP JUMPDEST PUSH0 DUP1 PUSH0 PUSH1 0x60 DUP5 DUP7 SUB SLT ISZERO PUSH2 0x2541 JUMPI PUSH2 0x2540 PUSH2 0x227F JUMP JUMPDEST JUMPDEST PUSH0 PUSH2 0x254E DUP7 DUP3 DUP8 ADD PUSH2 0x2347 JUMP JUMPDEST SWAP4 POP POP PUSH1 0x20 PUSH2 0x255F DUP7 DUP3 DUP8 ADD PUSH2 0x2311 JUMP JUMPDEST SWAP3 POP POP PUSH1 0x40 DUP5 ADD CALLDATALOAD PUSH8 0xFFFFFFFFFFFFFFFF DUP2 GT ISZERO PUSH2 0x2580 JUMPI PUSH2 0x257F PUSH2 0x2283 JUMP JUMPDEST JUMPDEST PUSH2 0x258C DUP7 DUP3 DUP8 ADD PUSH2 0x246A JUMP JUMPDEST SWAP2 POP POP SWAP3 POP SWAP3 POP SWAP3 JUMP JUMPDEST PUSH0 PUSH1 0x20 DUP3 DUP5 SUB SLT ISZERO PUSH2 0x25AB JUMPI PUSH2 0x25AA PUSH2 0x227F JUMP JUMPDEST JUMPDEST PUSH0 PUSH2 0x25B8 DUP5 DUP3 DUP6 ADD PUSH2 0x22DE JUMP JUMPDEST SWAP2 POP POP SWAP3 SWAP2 POP POP JUMP JUMPDEST PUSH2 0x25CA DUP2 PUSH2 0x22F2 JUMP JUMPDEST DUP3 MSTORE POP POP JUMP JUMPDEST PUSH0 PUSH1 0x20 DUP3 ADD SWAP1 POP PUSH2 0x25E3 PUSH0 DUP4 ADD DUP5 PUSH2 0x25C1 JUMP JUMPDEST SWAP3 SWAP2 POP POP JUMP JUMPDEST PUSH0 PUSH4 0xFFFFFFFF DUP3 AND SWAP1 POP SWAP2 SWAP1 POP JUMP JUMPDEST PUSH2 0x2601 DUP2 PUSH2 0x25E9 JUMP JUMPDEST DUP2 EQ PUSH2 0x260B JUMPI PUSH0 DUP1 REVERT JUMPDEST POP JUMP JUMPDEST PUSH0 DUP2 CALLDATALOAD SWAP1 POP PUSH2 0x261C DUP2 PUSH2 0x25F8 JUMP JUMPDEST SWAP3 SWAP2 POP POP JUMP JUMPDEST PUSH0 DUP1 PUSH0 DUP1 PUSH1 0x80 DUP6 DUP8 SUB SLT ISZERO PUSH2 0x263A JUMPI PUSH2 0x2639 PUSH2 0x227F JUMP JUMPDEST JUMPDEST PUSH0 PUSH2 0x2647 DUP8 DUP3 DUP9 ADD PUSH2 0x22DE JUMP JUMPDEST SWAP5 POP POP PUSH1 0x20 PUSH2 0x2658 DUP8 DUP3 DUP9 ADD PUSH2 0x260E JUMP JUMPDEST SWAP4 POP POP PUSH1 0x40 PUSH2 0x2669 DUP8 DUP3 DUP9 ADD PUSH2 0x2311 JUMP JUMPDEST SWAP3 POP POP PUSH1 0x60 PUSH2 0x267A DUP8 DUP3 DUP9 ADD PUSH2 0x2347 JUMP JUMPDEST SWAP2 POP POP SWAP3 SWAP6 SWAP2 SWAP5 POP SWAP3 POP JUMP JUMPDEST PUSH0 PUSH1 0x20 DUP3 DUP5 SUB SLT ISZERO PUSH2 0x269B JUMPI PUSH2 0x269A PUSH2 0x227F JUMP JUMPDEST JUMPDEST PUSH0 PUSH2 0x26A8 DUP5 DUP3 DUP6 ADD PUSH2 0x2347 JUMP JUMPDEST SWAP2 POP POP SWAP3 SWAP2 POP POP JUMP JUMPDEST PUSH0 DUP2 MLOAD SWAP1 POP SWAP2 SWAP1 POP JUMP JUMPDEST PUSH0 DUP3 DUP3 MSTORE PUSH1 0x20 DUP3 ADD SWAP1 POP SWAP3 SWAP2 POP POP JUMP JUMPDEST PUSH0 DUP2 SWAP1 POP PUSH1 0x20 DUP3 ADD SWAP1 POP SWAP2 SWAP1 POP JUMP JUMPDEST PUSH2 0x26E3 DUP2 PUSH2 0x22A6 JUMP JUMPDEST DUP3 MSTORE POP POP JUMP JUMPDEST PUSH2 0x26F2 DUP2 PUSH2 0x22F2 JUMP JUMPDEST DUP3 MSTORE POP POP JUMP JUMPDEST PUSH0 DUP2 MLOAD SWAP1 POP SWAP2 SWAP1 POP JUMP JUMPDEST PUSH0 DUP3 DUP3 MSTORE PUSH1 0x20 DUP3 ADD SWAP1 POP SWAP3 SWAP2 POP POP JUMP JUMPDEST DUP3 DUP2 DUP4 MCOPY PUSH0 DUP4 DUP4 ADD MSTORE POP POP POP JUMP JUMPDEST PUSH0 PUSH2 0x272A DUP3 PUSH2 0x26F8 JUMP JUMPDEST PUSH2 0x2734 DUP2 DUP6 PUSH2 0x2702 JUMP JUMPDEST SWAP4 POP PUSH2 0x2744 DUP2 DUP6 PUSH1 0x20 DUP7 ADD PUSH2 0x2712 JUMP JUMPDEST PUSH2 0x274D DUP2 PUSH2 0x2363 JUMP JUMPDEST DUP5 ADD SWAP2 POP POP SWAP3 SWAP2 POP POP JUMP JUMPDEST PUSH0 DUP2 ISZERO ISZERO SWAP1 POP SWAP2 SWAP1 POP JUMP JUMPDEST PUSH2 0x276C DUP2 PUSH2 0x2758 JUMP JUMPDEST DUP3 MSTORE POP POP JUMP JUMPDEST PUSH0 PUSH1 0xE0 DUP4 ADD PUSH0 DUP4 ADD MLOAD PUSH2 0x2787 PUSH0 DUP7 ADD DUP3 PUSH2 0x26DA JUMP JUMPDEST POP PUSH1 0x20 DUP4 ADD MLOAD PUSH2 0x279A PUSH1 0x20 DUP7 ADD DUP3 PUSH2 0x26E9 JUMP JUMPDEST POP PUSH1 0x40 DUP4 ADD MLOAD PUSH2 0x27AD PUSH1 0x40 DUP7 ADD DUP3 PUSH2 0x26E9 JUMP JUMPDEST POP PUSH1 0x60 DUP4 ADD MLOAD DUP5 DUP3 SUB PUSH1 0x60 DUP7 ADD MSTORE PUSH2 0x27C5 DUP3 DUP3 PUSH2 0x2720 JUMP JUMPDEST SWAP2 POP POP PUSH1 0x80 DUP4 ADD MLOAD PUSH2 0x27DA PUSH1 0x80 DUP7 ADD DUP3 PUSH2 0x2763 JUMP JUMPDEST POP PUSH1 0xA0 DUP4 ADD MLOAD PUSH2 0x27ED PUSH1 0xA0 DUP7 ADD DUP3 PUSH2 0x2763 JUMP JUMPDEST POP PUSH1 0xC0 DUP4 ADD MLOAD PUSH2 0x2800 PUSH1 0xC0 DUP7 ADD DUP3 PUSH2 0x2763 JUMP JUMPDEST POP DUP1 SWAP2 POP POP SWAP3 SWAP2 POP POP JUMP JUMPDEST PUSH0 PUSH2 0x2816 DUP4 DUP4 PUSH2 0x2772 JUMP JUMPDEST SWAP1 POP SWAP3 SWAP2 POP POP JUMP JUMPDEST PUSH0 PUSH1 0x20 DUP3 ADD SWAP1 POP SWAP2 SWAP1 POP JUMP JUMPDEST PUSH0 PUSH2 0x2834 DUP3 PUSH2 0x26B1 JUMP JUMPDEST PUSH2 0x283E DUP2 DUP6 PUSH2 0x26BB JUMP JUMPDEST SWAP4 POP DUP4 PUSH1 0x20 DUP3 MUL DUP6 ADD PUSH2 0x2850 DUP6 PUSH2 0x26CB JUMP JUMPDEST DUP1 PUSH0 JUMPDEST DUP6 DUP2 LT ISZERO PUSH2 0x288B JUMPI DUP5 DUP5 SUB DUP10 MSTORE DUP2 MLOAD PUSH2 0x286C DUP6 DUP3 PUSH2 0x280B JUMP JUMPDEST SWAP5 POP PUSH2 0x2877 DUP4 PUSH2 0x281E JUMP JUMPDEST SWAP3 POP PUSH1 0x20 DUP11 ADD SWAP10 POP POP PUSH1 0x1 DUP2 ADD SWAP1 POP PUSH2 0x2853 JUMP JUMPDEST POP DUP3 SWAP8 POP DUP8 SWAP6 POP POP POP POP POP POP SWAP3 SWAP2 POP POP JUMP JUMPDEST PUSH0 PUSH1 0x20 DUP3 ADD SWAP1 POP DUP2 DUP2 SUB PUSH0 DUP4 ADD MSTORE PUSH2 0x28B5 DUP2 DUP5 PUSH2 0x282A JUMP JUMPDEST SWAP1 POP SWAP3 SWAP2 POP POP JUMP JUMPDEST PUSH2 0x28C6 DUP2 PUSH2 0x22A6 JUMP JUMPDEST DUP2 EQ PUSH2 0x28D0 JUMPI PUSH0 DUP1 REVERT JUMPDEST POP JUMP JUMPDEST PUSH0 DUP2 CALLDATALOAD SWAP1 POP PUSH2 0x28E1 DUP2 PUSH2 0x28BD JUMP JUMPDEST SWAP3 SWAP2 POP POP JUMP JUMPDEST PUSH0 DUP1 PUSH0 PUSH1 0x60 DUP5 DUP7 SUB SLT ISZERO PUSH2 0x28FE JUMPI PUSH2 0x28FD PUSH2 0x227F JUMP JUMPDEST JUMPDEST PUSH0 PUSH2 0x290B DUP7 DUP3 DUP8 ADD PUSH2 0x28D3 JUMP JUMPDEST SWAP4 POP POP PUSH1 0x20 PUSH2 0x291C DUP7 DUP3 DUP8 ADD PUSH2 0x2347 JUMP JUMPDEST SWAP3 POP POP PUSH1 0x40 PUSH2 0x292D DUP7 DUP3 DUP8 ADD PUSH2 0x2311 JUMP JUMPDEST SWAP2 POP POP SWAP3 POP SWAP3 POP SWAP3 JUMP JUMPDEST PUSH2 0x2940 DUP2 PUSH2 0x22A6 JUMP JUMPDEST DUP3 MSTORE POP POP JUMP JUMPDEST PUSH0 DUP3 DUP3 MSTORE PUSH1 0x20 DUP3 ADD SWAP1 POP SWAP3 SWAP2 POP POP JUMP JUMPDEST PUSH0 PUSH2 0x2960 DUP3 PUSH2 0x26F8 JUMP JUMPDEST PUSH2 0x296A DUP2 DUP6 PUSH2 0x2946 JUMP JUMPDEST SWAP4 POP PUSH2 0x297A DUP2 DUP6 PUSH1 0x20 DUP7 ADD PUSH2 0x2712 JUMP JUMPDEST PUSH2 0x2983 DUP2 PUSH2 0x2363 JUMP JUMPDEST DUP5 ADD SWAP2 POP POP SWAP3 SWAP2 POP POP JUMP JUMPDEST PUSH2 0x2997 DUP2 PUSH2 0x2758 JUMP JUMPDEST DUP3 MSTORE POP POP JUMP JUMPDEST PUSH0 PUSH1 0xA0 DUP3 ADD SWAP1 POP PUSH2 0x29B0 PUSH0 DUP4 ADD DUP9 PUSH2 0x2937 JUMP JUMPDEST PUSH2 0x29BD PUSH1 0x20 DUP4 ADD DUP8 PUSH2 0x25C1 JUMP JUMPDEST DUP2 DUP2 SUB PUSH1 0x40 DUP4 ADD MSTORE PUSH2 0x29CF DUP2 DUP7 PUSH2 0x2956 JUMP JUMPDEST SWAP1 POP PUSH2 0x29DE PUSH1 0x60 DUP4 ADD DUP6 PUSH2 0x298E JUMP JUMPDEST PUSH2 0x29EB PUSH1 0x80 DUP4 ADD DUP5 PUSH2 0x25C1 JUMP JUMPDEST SWAP7 SWAP6 POP POP POP POP POP POP JUMP JUMPDEST PUSH0 PUSH1 0x20 DUP3 ADD SWAP1 POP PUSH2 0x2A08 PUSH0 DUP4 ADD DUP5 PUSH2 0x2937 JUMP JUMPDEST SWAP3 SWAP2 POP POP JUMP JUMPDEST PUSH0 DUP1 PUSH0 PUSH1 0x60 DUP5 DUP7 SUB SLT ISZERO PUSH2 0x2A25 JUMPI PUSH2 0x2A24 PUSH2 0x227F JUMP JUMPDEST JUMPDEST PUSH0 PUSH2 0x2A32 DUP7 DUP3 DUP8 ADD PUSH2 0x260E JUMP JUMPDEST SWAP4 POP POP PUSH1 0x20 PUSH2 0x2A43 DUP7 DUP3 DUP8 ADD PUSH2 0x2347 JUMP JUMPDEST SWAP3 POP POP PUSH1 0x40 PUSH2 0x2A54 DUP7 DUP3 DUP8 ADD PUSH2 0x2311 JUMP JUMPDEST SWAP2 POP POP SWAP3 POP SWAP3 POP SWAP3 JUMP JUMPDEST PUSH0 PUSH1 0xE0 DUP3 ADD SWAP1 POP PUSH2 0x2A71 PUSH0 DUP4 ADD DUP11 PUSH2 0x2937 JUMP JUMPDEST PUSH2 0x2A7E PUSH1 0x20 DUP4 ADD DUP10 PUSH2 0x25C1 JUMP JUMPDEST PUSH2 0x2A8B PUSH1 0x40 DUP4 ADD DUP9 PUSH2 0x25C1 JUMP JUMPDEST DUP2 DUP2 SUB PUSH1 0x60 DUP4 ADD MSTORE PUSH2 0x2A9D DUP2 DUP8 PUSH2 0x2956 JUMP JUMPDEST SWAP1 POP PUSH2 0x2AAC PUSH1 0x80 DUP4 ADD DUP7 PUSH2 0x298E JUMP JUMPDEST PUSH2 0x2AB9 PUSH1 0xA0 DUP4 ADD DUP6 PUSH2 0x298E JUMP JUMPDEST PUSH2 0x2AC6 PUSH1 0xC0 DUP4 ADD DUP5 PUSH2 0x298E JUMP JUMPDEST SWAP9 SWAP8 POP POP POP POP POP POP POP POP JUMP JUMPDEST PUSH0 DUP1 PUSH1 0x40 DUP4 DUP6 SUB SLT ISZERO PUSH2 0x2AE8 JUMPI PUSH2 0x2AE7 PUSH2 0x227F JUMP JUMPDEST JUMPDEST PUSH0 PUSH2 0x2AF5 DUP6 DUP3 DUP7 ADD PUSH2 0x2347 JUMP JUMPDEST SWAP3 POP POP PUSH1 0x20 PUSH2 0x2B06 DUP6 DUP3 DUP7 ADD PUSH2 0x260E JUMP JUMPDEST SWAP2 POP POP SWAP3 POP SWAP3 SWAP1 POP JUMP JUMPDEST PUSH2 0x2B19 DUP2 PUSH2 0x2758 JUMP JUMPDEST DUP2 EQ PUSH2 0x2B23 JUMPI PUSH0 DUP1 REVERT JUMPDEST POP JUMP JUMPDEST PUSH0 DUP2 CALLDATALOAD SWAP1 POP PUSH2 0x2B34 DUP2 PUSH2 0x2B10 JUMP JUMPDEST SWAP3 SWAP2 POP POP JUMP JUMPDEST PUSH0 DUP1 PUSH0 PUSH1 0x60 DUP5 DUP7 SUB SLT ISZERO PUSH2 0x2B51 JUMPI PUSH2 0x2B50 PUSH2 0x227F JUMP JUMPDEST JUMPDEST PUSH0 PUSH2 0x2B5E DUP7 DUP3 DUP8 ADD PUSH2 0x260E JUMP JUMPDEST SWAP4 POP POP PUSH1 0x20 PUSH2 0x2B6F DUP7 DUP3 DUP8 ADD PUSH2 0x2347 JUMP JUMPDEST SWAP3 POP POP PUSH1 0x40 PUSH2 0x2B80 DUP7 DUP3 DUP8 ADD PUSH2 0x2B26 JUMP JUMPDEST SWAP2 POP POP SWAP3 POP SWAP3 POP SWAP3 JUMP JUMPDEST PUSH0 PUSH1 0x20 DUP3 DUP5 SUB SLT ISZERO PUSH2 0x2B9F JUMPI PUSH2 0x2B9E PUSH2 0x227F JUMP JUMPDEST JUMPDEST PUSH0 PUSH2 0x2BAC DUP5 DUP3 DUP6 ADD PUSH2 0x28D3 JUMP JUMPDEST SWAP2 POP POP SWAP3 SWAP2 POP POP JUMP JUMPDEST PUSH32 0x4D7573742070726F7669646520612076616C696420746F6B656E206164647265 PUSH0 DUP3 ADD MSTORE PUSH32 0x7373000000000000000000000000000000000000000000000000000000000000 PUSH1 0x20 DUP3 ADD MSTORE POP JUMP JUMPDEST PUSH0 PUSH2 0x2C0F PUSH1 0x22 DUP4 PUSH2 0x2946 JUMP JUMPDEST SWAP2 POP PUSH2 0x2C1A DUP3 PUSH2 0x2BB5 JUMP JUMPDEST PUSH1 0x40 DUP3 ADD SWAP1 POP SWAP2 SWAP1 POP JUMP JUMPDEST PUSH0 PUSH1 0x20 DUP3 ADD SWAP1 POP DUP2 DUP2 SUB PUSH0 DUP4 ADD MSTORE PUSH2 0x2C3C DUP2 PUSH2 0x2C03 JUMP JUMPDEST SWAP1 POP SWAP2 SWAP1 POP JUMP JUMPDEST PUSH32 0x546F6B656E20616D6F756E74206D757374206265206772656174657220746865 PUSH0 DUP3 ADD MSTORE PUSH32 0x6E207A65726F0000000000000000000000000000000000000000000000000000 PUSH1 0x20 DUP3 ADD MSTORE POP JUMP JUMPDEST PUSH0 PUSH2 0x2C9D PUSH1 0x26 DUP4 PUSH2 0x2946 JUMP JUMPDEST SWAP2 POP PUSH2 0x2CA8 DUP3 PUSH2 0x2C43 JUMP JUMPDEST PUSH1 0x40 DUP3 ADD SWAP1 POP SWAP2 SWAP1 POP JUMP JUMPDEST PUSH0 PUSH1 0x20 DUP3 ADD SWAP1 POP DUP2 DUP2 SUB PUSH0 DUP4 ADD MSTORE PUSH2 0x2CCA DUP2 PUSH2 0x2C91 JUMP JUMPDEST SWAP1 POP SWAP2 SWAP1 POP JUMP JUMPDEST PUSH32 0x546865206C6F636B20706572696F64206D757374206265206772656174657220 PUSH0 DUP3 ADD MSTORE PUSH32 0x7468656E207A65726F0000000000000000000000000000000000000000000000 PUSH1 0x20 DUP3 ADD MSTORE POP JUMP JUMPDEST PUSH0 PUSH2 0x2D2B PUSH1 0x29 DUP4 PUSH2 0x2946 JUMP JUMPDEST SWAP2 POP PUSH2 0x2D36 DUP3 PUSH2 0x2CD1 JUMP JUMPDEST PUSH1 0x40 DUP3 ADD SWAP1 POP SWAP2 SWAP1 POP JUMP JUMPDEST PUSH0 PUSH1 0x20 DUP3 ADD SWAP1 POP DUP2 DUP2 SUB PUSH0 DUP4 ADD MSTORE PUSH2 0x2D58 DUP2 PUSH2 0x2D1F JUMP JUMPDEST SWAP1 POP SWAP2 SWAP1 POP JUMP JUMPDEST PUSH0 DUP2 MLOAD SWAP1 POP PUSH2 0x2D6D DUP2 PUSH2 0x22FB JUMP JUMPDEST SWAP3 SWAP2 POP POP JUMP JUMPDEST PUSH0 PUSH1 0x20 DUP3 DUP5 SUB SLT ISZERO PUSH2 0x2D88 JUMPI PUSH2 0x2D87 PUSH2 0x227F JUMP JUMPDEST JUMPDEST PUSH0 PUSH2 0x2D95 DUP5 DUP3 DUP6 ADD PUSH2 0x2D5F JUMP JUMPDEST SWAP2 POP POP SWAP3 SWAP2 POP POP JUMP JUMPDEST PUSH32 0x4E6F7420656E6F75676820746F6B656E7320746F206C6F636B00000000000000 PUSH0 DUP3 ADD MSTORE POP JUMP JUMPDEST PUSH0 PUSH2 0x2DD2 PUSH1 0x19 DUP4 PUSH2 0x2946 JUMP JUMPDEST SWAP2 POP PUSH2 0x2DDD DUP3 PUSH2 0x2D9E JUMP JUMPDEST PUSH1 0x20 DUP3 ADD SWAP1 POP SWAP2 SWAP1 POP JUMP JUMPDEST PUSH0 PUSH1 0x20 DUP3 ADD SWAP1 POP DUP2 DUP2 SUB PUSH0 DUP4 ADD MSTORE PUSH2 0x2DFF DUP2 PUSH2 0x2DC6 JUMP JUMPDEST SWAP1 POP SWAP2 SWAP1 POP JUMP JUMPDEST PUSH32 0x4E487B7100000000000000000000000000000000000000000000000000000000 PUSH0 MSTORE PUSH1 0x11 PUSH1 0x4 MSTORE PUSH1 0x24 PUSH0 REVERT JUMPDEST PUSH0 PUSH2 0x2E3D DUP3 PUSH2 0x22F2 JUMP JUMPDEST SWAP2 POP PUSH2 0x2E48 DUP4 PUSH2 0x22F2 JUMP JUMPDEST SWAP3 POP DUP3 DUP3 ADD SWAP1 POP DUP1 DUP3 GT ISZERO PUSH2 0x2E60 JUMPI PUSH2 0x2E5F PUSH2 0x2E06 JUMP JUMPDEST JUMPDEST SWAP3 SWAP2 POP POP JUMP JUMPDEST PUSH32 0x4E487B7100000000000000000000000000000000000000000000000000000000 PUSH0 MSTORE PUSH1 0x22 PUSH1 0x4 MSTORE PUSH1 0x24 PUSH0 REVERT JUMPDEST PUSH0 PUSH1 0x2 DUP3 DIV SWAP1 POP PUSH1 0x1 DUP3 AND DUP1 PUSH2 0x2EAA JUMPI PUSH1 0x7F DUP3 AND SWAP2 POP JUMPDEST PUSH1 0x20 DUP3 LT DUP2 SUB PUSH2 0x2EBD JUMPI PUSH2 0x2EBC PUSH2 0x2E66 JUMP JUMPDEST JUMPDEST POP SWAP2 SWAP1 POP JUMP JUMPDEST PUSH0 DUP2 SWAP1 POP DUP2 PUSH0 MSTORE PUSH1 0x20 PUSH0 KECCAK256 SWAP1 POP SWAP2 SWAP1 POP JUMP JUMPDEST PUSH0 PUSH1 0x20 PUSH1 0x1F DUP4 ADD DIV SWAP1 POP SWAP2 SWAP1 POP JUMP JUMPDEST PUSH0 DUP3 DUP3 SHL SWAP1 POP SWAP3 SWAP2 POP POP JUMP JUMPDEST PUSH0 PUSH1 0x8 DUP4 MUL PUSH2 0x2F1F PUSH32 0xFFFFFFFFFFFFFFFFFFFFFFFFFFFFFFFFFFFFFFFFFFFFFFFFFFFFFFFFFFFFFFFF DUP3 PUSH2 0x2EE4 JUMP JUMPDEST PUSH2 0x2F29 DUP7 DUP4 PUSH2 0x2EE4 JUMP JUMPDEST SWAP6 POP DUP1 NOT DUP5 AND SWAP4 POP DUP1 DUP7 AND DUP5 OR SWAP3 POP POP POP SWAP4 SWAP3 POP POP POP JUMP JUMPDEST PUSH0 DUP2 SWAP1 POP SWAP2 SWAP1 POP JUMP JUMPDEST PUSH0 PUSH2 0x2F64 PUSH2 0x2F5F PUSH2 0x2F5A DUP5 PUSH2 0x22F2 JUMP JUMPDEST PUSH2 0x2F41 JUMP JUMPDEST PUSH2 0x22F2 JUMP JUMPDEST SWAP1 POP SWAP2 SWAP1 POP JUMP JUMPDEST PUSH0 DUP2 SWAP1 POP SWAP2 SWAP1 POP JUMP JUMPDEST PUSH2 0x2F7D DUP4 PUSH2 0x2F4A JUMP JUMPDEST PUSH2 0x2F91 PUSH2 0x2F89 DUP3 PUSH2 0x2F6B JUMP JUMPDEST DUP5 DUP5 SLOAD PUSH2 0x2EF0 JUMP JUMPDEST DUP3 SSTORE POP POP POP POP JUMP JUMPDEST PUSH0 SWAP1 JUMP JUMPDEST PUSH2 0x2FA5 PUSH2 0x2F99 JUMP JUMPDEST PUSH2 0x2FB0 DUP2 DUP5 DUP5 PUSH2 0x2F74 JUMP JUMPDEST POP POP POP JUMP JUMPDEST JUMPDEST DUP2 DUP2 LT ISZERO PUSH2 0x2FD3 JUMPI PUSH2 0x2FC8 PUSH0 DUP3 PUSH2 0x2F9D JUMP JUMPDEST PUSH1 0x1 DUP2 ADD SWAP1 POP PUSH2 0x2FB6 JUMP JUMPDEST POP POP JUMP JUMPDEST PUSH1 0x1F DUP3 GT ISZERO PUSH2 0x3018 JUMPI PUSH2 0x2FE9 DUP2 PUSH2 0x2EC3 JUMP JUMPDEST PUSH2 0x2FF2 DUP5 PUSH2 0x2ED5 JUMP JUMPDEST DUP2 ADD PUSH1 0x20 DUP6 LT ISZERO PUSH2 0x3001 JUMPI DUP2 SWAP1 POP JUMPDEST PUSH2 0x3015 PUSH2 0x300D DUP6 PUSH2 0x2ED5 JUMP JUMPDEST DUP4 ADD DUP3 PUSH2 0x2FB5 JUMP JUMPDEST POP POP JUMPDEST POP POP POP JUMP JUMPDEST PUSH0 DUP3 DUP3 SHR SWAP1 POP SWAP3 SWAP2 POP POP JUMP JUMPDEST PUSH0 PUSH2 0x3038 PUSH0 NOT DUP5 PUSH1 0x8 MUL PUSH2 0x301D JUMP JUMPDEST NOT DUP1 DUP4 AND SWAP2 POP POP SWAP3 SWAP2 POP POP JUMP JUMPDEST PUSH0 PUSH2 0x3050 DUP4 DUP4 PUSH2 0x3029 JUMP JUMPDEST SWAP2 POP DUP3 PUSH1 0x2 MUL DUP3 OR SWAP1 POP SWAP3 SWAP2 POP POP JUMP JUMPDEST PUSH2 0x3069 DUP3 PUSH2 0x26F8 JUMP JUMPDEST PUSH8 0xFFFFFFFFFFFFFFFF DUP2 GT ISZERO PUSH2 0x3082 JUMPI PUSH2 0x3081 PUSH2 0x2373 JUMP JUMPDEST JUMPDEST PUSH2 0x308C DUP3 SLOAD PUSH2 0x2E93 JUMP JUMPDEST PUSH2 0x3097 DUP3 DUP3 DUP6 PUSH2 0x2FD7 JUMP JUMPDEST PUSH0 PUSH1 0x20 SWAP1 POP PUSH1 0x1F DUP4 GT PUSH1 0x1 DUP2 EQ PUSH2 0x30C8 JUMPI PUSH0 DUP5 ISZERO PUSH2 0x30B6 JUMPI DUP3 DUP8 ADD MLOAD SWAP1 POP JUMPDEST PUSH2 0x30C0 DUP6 DUP3 PUSH2 0x3045 JUMP JUMPDEST DUP7 SSTORE POP PUSH2 0x3127 JUMP JUMPDEST PUSH1 0x1F NOT DUP5 AND PUSH2 0x30D6 DUP7 PUSH2 0x2EC3 JUMP JUMPDEST PUSH0 JUMPDEST DUP3 DUP2 LT ISZERO PUSH2 0x30FD JUMPI DUP5 DUP10 ADD MLOAD DUP3 SSTORE PUSH1 0x1 DUP3 ADD SWAP2 POP PUSH1 0x20 DUP6 ADD SWAP5 POP PUSH1 0x20 DUP2 ADD SWAP1 POP PUSH2 0x30D8 JUMP JUMPDEST DUP7 DUP4 LT ISZERO PUSH2 0x311A JUMPI DUP5 DUP10 ADD MLOAD PUSH2 0x3116 PUSH1 0x1F DUP10 AND DUP3 PUSH2 0x3029 JUMP JUMPDEST DUP4 SSTORE POP JUMPDEST PUSH1 0x1 PUSH1 0x2 DUP9 MUL ADD DUP9 SSTORE POP POP POP JUMPDEST POP POP POP POP POP POP JUMP JUMPDEST PUSH2 0x3138 DUP2 PUSH2 0x2325 JUMP JUMPDEST DUP3 MSTORE POP POP JUMP JUMPDEST PUSH0 PUSH1 0xA0 DUP3 ADD SWAP1 POP PUSH2 0x3151 PUSH0 DUP4 ADD DUP9 PUSH2 0x25C1 JUMP JUMPDEST DUP2 DUP2 SUB PUSH1 0x20 DUP4 ADD MSTORE PUSH2 0x3163 DUP2 DUP8 PUSH2 0x2956 JUMP JUMPDEST SWAP1 POP PUSH2 0x3172 PUSH1 0x40 DUP4 ADD DUP7 PUSH2 0x312F JUMP JUMPDEST PUSH2 0x317F PUSH1 0x60 DUP4 ADD DUP6 PUSH2 0x25C1 JUMP JUMPDEST PUSH2 0x318C PUSH1 0x80 DUP4 ADD DUP5 PUSH2 0x25C1 JUMP JUMPDEST SWAP7 SWAP6 POP POP POP POP POP POP JUMP JUMPDEST PUSH32 0x45544820746F206C6F636B206D75737420612076616C75652067726561746572 PUSH0 DUP3 ADD MSTORE PUSH32 0x207468616E203000000000000000000000000000000000000000000000000000 PUSH1 0x20 DUP3 ADD MSTORE POP JUMP JUMPDEST PUSH0 PUSH2 0x31F0 PUSH1 0x27 DUP4 PUSH2 0x2946 JUMP JUMPDEST SWAP2 POP PUSH2 0x31FB DUP3 PUSH2 0x3196 JUMP JUMPDEST PUSH1 0x40 DUP3 ADD SWAP1 POP SWAP2 SWAP1 POP JUMP JUMPDEST PUSH0 PUSH1 0x20 DUP3 ADD SWAP1 POP DUP2 DUP2 SUB PUSH0 DUP4 ADD MSTORE PUSH2 0x321D DUP2 PUSH2 0x31E4 JUMP JUMPDEST SWAP1 POP SWAP2 SWAP1 POP JUMP JUMPDEST PUSH32 0x546865206C6F636B706572696F64206D75737420626520677265617465722074 PUSH0 DUP3 ADD MSTORE PUSH32 0x68656E207A65726F000000000000000000000000000000000000000000000000 PUSH1 0x20 DUP3 ADD MSTORE POP JUMP JUMPDEST PUSH0 PUSH2 0x327E PUSH1 0x28 DUP4 PUSH2 0x2946 JUMP JUMPDEST SWAP2 POP PUSH2 0x3289 DUP3 PUSH2 0x3224 JUMP JUMPDEST PUSH1 0x40 DUP3 ADD SWAP1 POP SWAP2 SWAP1 POP JUMP JUMPDEST PUSH0 PUSH1 0x20 DUP3 ADD SWAP1 POP DUP2 DUP2 SUB PUSH0 DUP4 ADD MSTORE PUSH2 0x32AB DUP2 PUSH2 0x3272 JUMP JUMPDEST SWAP1 POP SWAP2 SWAP1 POP JUMP JUMPDEST PUSH32 0x4E487B7100000000000000000000000000000000000000000000000000000000 PUSH0 MSTORE PUSH1 0x32 PUSH1 0x4 MSTORE PUSH1 0x24 PUSH0 REVERT JUMPDEST PUSH0 DUP2 SLOAD PUSH2 0x32EB DUP2 PUSH2 0x2E93 JUMP JUMPDEST PUSH2 0x32F5 DUP2 DUP7 PUSH2 0x2946 JUMP JUMPDEST SWAP5 POP PUSH1 0x1 DUP3 AND PUSH0 DUP2 EQ PUSH2 0x330F JUMPI PUSH1 0x1 DUP2 EQ PUSH2 0x3325 JUMPI PUSH2 0x3357 JUMP JUMPDEST PUSH1 0xFF NOT DUP4 AND DUP7 MSTORE DUP2 ISZERO ISZERO PUSH1 0x20 MUL DUP7 ADD SWAP4 POP PUSH2 0x3357 JUMP JUMPDEST PUSH2 0x332E DUP6 PUSH2 0x2EC3 JUMP JUMPDEST PUSH0 JUMPDEST DUP4 DUP2 LT ISZERO PUSH2 0x334F JUMPI DUP2 SLOAD DUP2 DUP10 ADD MSTORE PUSH1 0x1 DUP3 ADD SWAP2 POP PUSH1 0x20 DUP2 ADD SWAP1 POP PUSH2 0x3330 JUMP JUMPDEST DUP1 DUP9 ADD SWAP6 POP POP POP JUMPDEST POP POP POP SWAP3 SWAP2 POP POP JUMP JUMPDEST PUSH0 PUSH1 0x80 DUP3 ADD SWAP1 POP PUSH2 0x3373 PUSH0 DUP4 ADD DUP8 PUSH2 0x25C1 JUMP JUMPDEST DUP2 DUP2 SUB PUSH1 0x20 DUP4 ADD MSTORE PUSH2 0x3385 DUP2 DUP7 PUSH2 0x32DF JUMP JUMPDEST SWAP1 POP PUSH2 0x3394 PUSH1 0x40 DUP4 ADD DUP6 PUSH2 0x312F JUMP JUMPDEST PUSH2 0x33A1 PUSH1 0x60 DUP4 ADD DUP5 PUSH2 0x25C1 JUMP JUMPDEST SWAP6 SWAP5 POP POP POP POP POP JUMP JUMPDEST PUSH32 0x5468652073706563696669656420617373657420494420697320696E76616C69 PUSH0 DUP3 ADD MSTORE PUSH32 0x642E000000000000000000000000000000000000000000000000000000000000 PUSH1 0x20 DUP3 ADD MSTORE POP JUMP JUMPDEST PUSH0 PUSH2 0x3404 PUSH1 0x22 DUP4 PUSH2 0x2946 JUMP JUMPDEST SWAP2 POP PUSH2 0x340F DUP3 PUSH2 0x33AA JUMP JUMPDEST PUSH1 0x40 DUP3 ADD SWAP1 POP SWAP2 SWAP1 POP JUMP JUMPDEST PUSH0 PUSH1 0x20 DUP3 ADD SWAP1 POP DUP2 DUP2 SUB PUSH0 DUP4 ADD MSTORE PUSH2 0x3431 DUP2 PUSH2 0x33F8 JUMP JUMPDEST SWAP1 POP SWAP2 SWAP1 POP JUMP JUMPDEST PUSH32 0x546865206C6F636B20706572696F6420686173206E6F74207965742065787069 PUSH0 DUP3 ADD MSTORE PUSH32 0x7265642100000000000000000000000000000000000000000000000000000000 PUSH1 0x20 DUP3 ADD MSTORE POP JUMP JUMPDEST PUSH0 PUSH2 0x3492 PUSH1 0x24 DUP4 PUSH2 0x2946 JUMP JUMPDEST SWAP2 POP PUSH2 0x349D DUP3 PUSH2 0x3438 JUMP JUMPDEST PUSH1 0x40 DUP3 ADD SWAP1 POP SWAP2 SWAP1 POP JUMP JUMPDEST PUSH0 PUSH1 0x20 DUP3 ADD SWAP1 POP DUP2 DUP2 SUB PUSH0 DUP4 ADD MSTORE PUSH2 0x34BF DUP2 PUSH2 0x3486 JUMP JUMPDEST SWAP1 POP SWAP2 SWAP1 POP JUMP JUMPDEST PUSH0 PUSH1 0x80 DUP3 ADD SWAP1 POP PUSH2 0x34D9 PUSH0 DUP4 ADD DUP8 PUSH2 0x312F JUMP JUMPDEST PUSH2 0x34E6 PUSH1 0x20 DUP4 ADD DUP7 PUSH2 0x25C1 JUMP JUMPDEST DUP2 DUP2 SUB PUSH1 0x40 DUP4 ADD MSTORE PUSH2 0x34F8 DUP2 DUP6 PUSH2 0x32DF JUMP JUMPDEST SWAP1 POP PUSH2 0x3507 PUSH1 0x60 DUP4 ADD DUP5 PUSH2 0x25C1 JUMP JUMPDEST SWAP6 SWAP5 POP POP POP POP POP JUMP JUMPDEST PUSH32 0x417373657473206861766520616C7265616479206265656E2077697468647261 PUSH0 DUP3 ADD MSTORE PUSH32 0x776E210000000000000000000000000000000000000000000000000000000000 PUSH1 0x20 DUP3 ADD MSTORE POP JUMP JUMPDEST PUSH0 PUSH2 0x356A PUSH1 0x23 DUP4 PUSH2 0x2946 JUMP JUMPDEST SWAP2 POP PUSH2 0x3575 DUP3 PUSH2 0x3510 JUMP JUMPDEST PUSH1 0x40 DUP3 ADD SWAP1 POP SWAP2 SWAP1 POP JUMP JUMPDEST PUSH0 PUSH1 0x20 DUP3 ADD SWAP1 POP DUP2 DUP2 SUB PUSH0 DUP4 ADD MSTORE PUSH2 0x3597 DUP2 PUSH2 0x355E JUMP JUMPDEST SWAP1 POP SWAP2 SWAP1 POP JUMP JUMPDEST PUSH32 0x546865206C6F636B20706572696F6420686173206E6F74207965742065787069 PUSH0 DUP3 ADD MSTORE PUSH32 0x72656420616E64207468652076616C756520686173206E6F7420726561636865 PUSH1 0x20 DUP3 ADD MSTORE PUSH32 0x642073657420676F616C21000000000000000000000000000000000000000000 PUSH1 0x40 DUP3 ADD MSTORE POP JUMP JUMPDEST PUSH0 PUSH2 0x361E PUSH1 0x4B DUP4 PUSH2 0x2946 JUMP JUMPDEST SWAP2 POP PUSH2 0x3629 DUP3 PUSH2 0x359E JUMP JUMPDEST PUSH1 0x60 DUP3 ADD SWAP1 POP SWAP2 SWAP1 POP JUMP JUMPDEST PUSH0 PUSH1 0x20 DUP3 ADD SWAP1 POP DUP2 DUP2 SUB PUSH0 DUP4 ADD MSTORE PUSH2 0x364B DUP2 PUSH2 0x3612 JUMP JUMPDEST SWAP1 POP SWAP2 SWAP1 POP JUMP JUMPDEST PUSH0 PUSH2 0x365C DUP3 PUSH2 0x22F2 JUMP JUMPDEST SWAP2 POP PUSH2 0x3667 DUP4 PUSH2 0x22F2 JUMP JUMPDEST SWAP3 POP DUP3 DUP3 SUB SWAP1 POP DUP2 DUP2 GT ISZERO PUSH2 0x367F JUMPI PUSH2 0x367E PUSH2 0x2E06 JUMP JUMPDEST JUMPDEST SWAP3 SWAP2 POP POP JUMP JUMPDEST PUSH32 0x4E6F7420656E6F7567682061737365747320746F207769746864726177210000 PUSH0 DUP3 ADD MSTORE POP JUMP JUMPDEST PUSH0 PUSH2 0x36B9 PUSH1 0x1E DUP4 PUSH2 0x2946 JUMP JUMPDEST SWAP2 POP PUSH2 0x36C4 DUP3 PUSH2 0x3685 JUMP JUMPDEST PUSH1 0x20 DUP3 ADD SWAP1 POP SWAP2 SWAP1 POP JUMP JUMPDEST PUSH0 PUSH1 0x20 DUP3 ADD SWAP1 POP DUP2 DUP2 SUB PUSH0 DUP4 ADD MSTORE PUSH2 0x36E6 DUP2 PUSH2 0x36AD JUMP JUMPDEST SWAP1 POP SWAP2 SWAP1 POP JUMP JUMPDEST PUSH0 DUP2 SWAP1 POP SWAP3 SWAP2 POP POP JUMP JUMPDEST POP JUMP JUMPDEST PUSH0 PUSH2 0x3705 PUSH0 DUP4 PUSH2 0x36ED JUMP JUMPDEST SWAP2 POP PUSH2 0x3710 DUP3 PUSH2 0x36F7 JUMP JUMPDEST PUSH0 DUP3 ADD SWAP1 POP SWAP2 SWAP1 POP JUMP JUMPDEST PUSH0 PUSH2 0x3724 DUP3 PUSH2 0x36FA JUMP JUMPDEST SWAP2 POP DUP2 SWAP1 POP SWAP2 SWAP1 POP JUMP JUMPDEST PUSH32 0x455448207472616E73666572206661696C656400000000000000000000000000 PUSH0 DUP3 ADD MSTORE POP JUMP JUMPDEST PUSH0 PUSH2 0x3762 PUSH1 0x13 DUP4 PUSH2 0x2946 JUMP JUMPDEST SWAP2 POP PUSH2 0x376D DUP3 PUSH2 0x372E JUMP JUMPDEST PUSH1 0x20 DUP3 ADD SWAP1 POP SWAP2 SWAP1 POP JUMP JUMPDEST PUSH0 PUSH1 0x20 DUP3 ADD SWAP1 POP DUP2 DUP2 SUB PUSH0 DUP4 ADD MSTORE PUSH2 0x378F DUP2 PUSH2 0x3756 JUMP JUMPDEST SWAP1 POP SWAP2 SWAP1 POP JUMP JUMPDEST PUSH32 0x45544820746F2061646420746F206C6F636B206D75737420626520616E20616D PUSH0 DUP3 ADD MSTORE PUSH32 0x6F756E742067726561746572207468616E203000000000000000000000000000 PUSH1 0x20 DUP3 ADD MSTORE POP JUMP JUMPDEST PUSH0 PUSH2 0x37F0 PUSH1 0x33 DUP4 PUSH2 0x2946 JUMP JUMPDEST SWAP2 POP PUSH2 0x37FB DUP3 PUSH2 0x3796 JUMP JUMPDEST PUSH1 0x40 DUP3 ADD SWAP1 POP SWAP2 SWAP1 POP JUMP JUMPDEST PUSH0 PUSH1 0x20 DUP3 ADD SWAP1 POP DUP2 DUP2 SUB PUSH0 DUP4 ADD MSTORE PUSH2 0x381D DUP2 PUSH2 0x37E4 JUMP JUMPDEST SWAP1 POP SWAP2 SWAP1 POP JUMP JUMPDEST PUSH0 PUSH1 0x60 DUP3 ADD SWAP1 POP PUSH2 0x3837 PUSH0 DUP4 ADD DUP7 PUSH2 0x2937 JUMP JUMPDEST PUSH2 0x3844 PUSH1 0x20 DUP4 ADD DUP6 PUSH2 0x2937 JUMP JUMPDEST PUSH2 0x3851 PUSH1 0x40 DUP4 ADD DUP5 PUSH2 0x25C1 JUMP JUMPDEST SWAP5 SWAP4 POP POP POP POP JUMP JUMPDEST PUSH0 PUSH1 0x40 DUP3 ADD SWAP1 POP PUSH2 0x386C PUSH0 DUP4 ADD DUP6 PUSH2 0x2937 JUMP JUMPDEST PUSH2 0x3879 PUSH1 0x20 DUP4 ADD DUP5 PUSH2 0x25C1 JUMP JUMPDEST SWAP4 SWAP3 POP POP POP JUMP INVALID LOG2 PUSH5 0x6970667358 0x22 SLT KECCAK256 SWAP10 SUB ADDRESS CALLVALUE LOG4 0xD5 0xBA 0xC1 0xB1 SLOAD PUSH31 0xA91F3253667D0BBDE997A681071F460D79172B55CF64736F6C634300081A00 CALLER "
				},
				"gasEstimates": {
					"creation": {
						"codeDepositCost": "2903600",
						"executionCost": "infinite",
						"totalCost": "infinite"
					},
					"external": {
						"addToLockedETH(uint8,uint32)": "infinite",
						"addToLockedTokens(address,uint32,uint256,uint8)": "infinite",
						"extendLockPeriod(uint32,uint8,uint256)": "infinite",
						"getContractETHBalance()": "357",
						"getContractTokenBalance(address)": "infinite",
						"getUserLocks(uint8)": "infinite",
						"goalReached(uint32,uint8,bool)": "27516",
						"lockETH(uint8,uint256,string)": "infinite",
						"lockToken(address,uint256,uint8,uint256,string)": "infinite",
						"owner()": "2560",
						"renounceOwnership()": "infinite",
						"transferAsset(uint32,uint8,uint256)": "infinite",
						"transferOwnership(address)": "infinite",
						"userLockedAssets(address,uint8,uint256)": "infinite",
						"userTransactions(address,uint8,uint256)": "infinite"
					},
					"internal": {
						"recordTransac(address,uint8,uint256,string memory,bool)": "infinite"
					}
				},
				"methodIdentifiers": {
					"addToLockedETH(uint8,uint32)": "ecaa9d05",
					"addToLockedTokens(address,uint32,uint256,uint8)": "2d8fefc2",
					"extendLockPeriod(uint32,uint8,uint256)": "8de8107b",
					"getContractETHBalance()": "8c89a0ad",
					"getContractTokenBalance(address)": "14205e28",
					"getUserLocks(uint8)": "3b958c38",
					"goalReached(uint32,uint8,bool)": "f152edce",
					"lockETH(uint8,uint256,string)": "13a2e884",
					"lockToken(address,uint256,uint8,uint256,string)": "0f1419b5",
					"owner()": "8da5cb5b",
					"renounceOwnership()": "715018a6",
					"transferAsset(uint32,uint8,uint256)": "9e6c3ff2",
					"transferOwnership(address)": "f2fde38b",
					"userLockedAssets(address,uint8,uint256)": "8e06b906",
					"userTransactions(address,uint8,uint256)": "60864eed"
				}
			},
			"storageLayout": {
				"storage": [
					{
						"astId": 8,
						"contract": "contracts/Fvkry.sol:Fvkry",
						"label": "_owner",
						"offset": 0,
						"slot": "0",
						"type": "t_address"
					},
					{
						"astId": 765,
						"contract": "contracts/Fvkry.sol:Fvkry",
						"label": "_status",
						"offset": 0,
						"slot": "1",
						"type": "t_uint256"
					},
					{
						"astId": 883,
						"contract": "contracts/Fvkry.sol:Fvkry",
						"label": "userLockedAssets",
						"offset": 0,
						"slot": "2",
						"type": "t_mapping(t_address,t_mapping(t_uint8,t_array(t_struct(Lock)864_storage)dyn_storage))"
					},
					{
						"astId": 891,
						"contract": "contracts/Fvkry.sol:Fvkry",
						"label": "userTransactions",
						"offset": 0,
						"slot": "3",
						"type": "t_mapping(t_address,t_mapping(t_uint8,t_array(t_struct(TransacHist)875_storage)dyn_storage))"
					}
				],
				"types": {
					"t_address": {
						"encoding": "inplace",
						"label": "address",
						"numberOfBytes": "20"
					},
					"t_array(t_struct(Lock)864_storage)dyn_storage": {
						"base": "t_struct(Lock)864_storage",
						"encoding": "dynamic_array",
						"label": "struct Fvkry.Lock[]",
						"numberOfBytes": "32"
					},
					"t_array(t_struct(TransacHist)875_storage)dyn_storage": {
						"base": "t_struct(TransacHist)875_storage",
						"encoding": "dynamic_array",
						"label": "struct Fvkry.TransacHist[]",
						"numberOfBytes": "32"
					},
					"t_bool": {
						"encoding": "inplace",
						"label": "bool",
						"numberOfBytes": "1"
					},
					"t_mapping(t_address,t_mapping(t_uint8,t_array(t_struct(Lock)864_storage)dyn_storage))": {
						"encoding": "mapping",
						"key": "t_address",
						"label": "mapping(address => mapping(uint8 => struct Fvkry.Lock[]))",
						"numberOfBytes": "32",
						"value": "t_mapping(t_uint8,t_array(t_struct(Lock)864_storage)dyn_storage)"
					},
					"t_mapping(t_address,t_mapping(t_uint8,t_array(t_struct(TransacHist)875_storage)dyn_storage))": {
						"encoding": "mapping",
						"key": "t_address",
						"label": "mapping(address => mapping(uint8 => struct Fvkry.TransacHist[]))",
						"numberOfBytes": "32",
						"value": "t_mapping(t_uint8,t_array(t_struct(TransacHist)875_storage)dyn_storage)"
					},
					"t_mapping(t_uint8,t_array(t_struct(Lock)864_storage)dyn_storage)": {
						"encoding": "mapping",
						"key": "t_uint8",
						"label": "mapping(uint8 => struct Fvkry.Lock[])",
						"numberOfBytes": "32",
						"value": "t_array(t_struct(Lock)864_storage)dyn_storage"
					},
					"t_mapping(t_uint8,t_array(t_struct(TransacHist)875_storage)dyn_storage)": {
						"encoding": "mapping",
						"key": "t_uint8",
						"label": "mapping(uint8 => struct Fvkry.TransacHist[])",
						"numberOfBytes": "32",
						"value": "t_array(t_struct(TransacHist)875_storage)dyn_storage"
					},
					"t_string_storage": {
						"encoding": "bytes",
						"label": "string",
						"numberOfBytes": "32"
					},
					"t_struct(Lock)864_storage": {
						"encoding": "inplace",
						"label": "struct Fvkry.Lock",
						"members": [
							{
								"astId": 851,
								"contract": "contracts/Fvkry.sol:Fvkry",
								"label": "token",
								"offset": 0,
								"slot": "0",
								"type": "t_address"
							},
							{
								"astId": 853,
								"contract": "contracts/Fvkry.sol:Fvkry",
								"label": "amount",
								"offset": 0,
								"slot": "1",
								"type": "t_uint256"
							},
							{
								"astId": 855,
								"contract": "contracts/Fvkry.sol:Fvkry",
								"label": "lockEndTime",
								"offset": 0,
								"slot": "2",
								"type": "t_uint256"
							},
							{
								"astId": 857,
								"contract": "contracts/Fvkry.sol:Fvkry",
								"label": "title",
								"offset": 0,
								"slot": "3",
								"type": "t_string_storage"
							},
							{
								"astId": 859,
								"contract": "contracts/Fvkry.sol:Fvkry",
								"label": "withdrawn",
								"offset": 0,
								"slot": "4",
								"type": "t_bool"
							},
							{
								"astId": 861,
								"contract": "contracts/Fvkry.sol:Fvkry",
								"label": "isNative",
								"offset": 1,
								"slot": "4",
								"type": "t_bool"
							},
							{
								"astId": 863,
								"contract": "contracts/Fvkry.sol:Fvkry",
								"label": "makeAvailable",
								"offset": 2,
								"slot": "4",
								"type": "t_bool"
							}
						],
						"numberOfBytes": "160"
					},
					"t_struct(TransacHist)875_storage": {
						"encoding": "inplace",
						"label": "struct Fvkry.TransacHist",
						"members": [
							{
								"astId": 866,
								"contract": "contracts/Fvkry.sol:Fvkry",
								"label": "token",
								"offset": 0,
								"slot": "0",
								"type": "t_address"
							},
							{
								"astId": 868,
								"contract": "contracts/Fvkry.sol:Fvkry",
								"label": "amount",
								"offset": 0,
								"slot": "1",
								"type": "t_uint256"
							},
							{
								"astId": 870,
								"contract": "contracts/Fvkry.sol:Fvkry",
								"label": "title",
								"offset": 0,
								"slot": "2",
								"type": "t_string_storage"
							},
							{
								"astId": 872,
								"contract": "contracts/Fvkry.sol:Fvkry",
								"label": "withdrawn",
								"offset": 0,
								"slot": "3",
								"type": "t_bool"
							},
							{
								"astId": 874,
								"contract": "contracts/Fvkry.sol:Fvkry",
								"label": "timestamp",
								"offset": 0,
								"slot": "4",
								"type": "t_uint256"
							}
						],
						"numberOfBytes": "160"
					},
					"t_uint256": {
						"encoding": "inplace",
						"label": "uint256",
						"numberOfBytes": "32"
					},
					"t_uint8": {
						"encoding": "inplace",
						"label": "uint8",
						"numberOfBytes": "1"
					}
				}
			},
			"userdoc": {
				"kind": "user",
				"methods": {},
				"version": 1
			}
		}
	}
}