{
	"data": {
		"bytecode": {
			"linkReferences": {},
			"object": "60e06040526305a4ec00608090815250600560ff1660a09060ff16815250606460ff1660c09060ff16815250348015610036575f80fd5b50335f73ffffffffffffffffffffffffffffffffffffffff168173ffffffffffffffffffffffffffffffffffffffff16036100a8575f6040517f1e4fbdf700000000000000000000000000000000000000000000000000000000815260040161009f91906101dd565b60405180910390fd5b6100b7816100dd60201b60201c565b50600180819055505f60025f6101000a81548160ff0219169083151502179055506101f6565b5f805f9054906101000a900473ffffffffffffffffffffffffffffffffffffffff169050815f806101000a81548173ffffffffffffffffffffffffffffffffffffffff021916908373ffffffffffffffffffffffffffffffffffffffff1602179055508173ffffffffffffffffffffffffffffffffffffffff168173ffffffffffffffffffffffffffffffffffffffff167f8be0079c531659141344cd1fd0a4f28419497f9722a3daafe3b4186f6b6457e060405160405180910390a35050565b5f73ffffffffffffffffffffffffffffffffffffffff82169050919050565b5f6101c78261019e565b9050919050565b6101d7816101bd565b82525050565b5f6020820190506101f05f8301846101ce565b92915050565b60805160a05160c05161517761023c5f395f8181610737015281816125c1015261289c01525f612b5701525f8181610683015281816127e8015261397001526151775ff3fe608060405260043610610180575f3560e01c80637fe0509f116100d0578063b6eaea1711610089578063df68075a11610063578063df68075a14610529578063ecaa9d0514610551578063f2fde38b1461056d578063f6d121c91461059557610180565b8063b6eaea17146104c1578063bac15203146104eb578063bf9b9ded1461050157610180565b80637fe0509f146103be57806387f15742146103e65780638c89a0ad146104105780638da5cb5b1461043a5780638e06b906146104645780639d41beef146104a557610180565b806343cadc601161013d57806365994f8d1161011757806365994f8d146103305780636a0afa4514610358578063715018a6146103805780637dd9035b1461039657610180565b806343cadc601461029e5780635c975abb146102c657806360864eed146102f057610180565b806307f0a301146101845780630f1419b5146101c057806314205e28146101e85780632d8fefc2146102245780633b958c381461024c578063439766ce14610288575b5f80fd5b34801561018f575f80fd5b506101aa60048036038101906101a59190613eff565b6105bf565b6040516101b79190613f44565b60405180910390f35b3480156101cb575f80fd5b506101e660048036038101906101e1919061413d565b6105dc565b005b3480156101f3575f80fd5b5061020e600480360381019061020991906141d0565b610bcf565b60405161021b919061420a565b60405180910390f35b34801561022f575f80fd5b5061024a6004803603810190610245919061425c565b610c4f565b005b348015610257575f80fd5b50610272600480360381019061026d91906142c0565b6111fb565b60405161027f91906144c8565b60405180910390f35b348015610293575f80fd5b5061029c61143c565b005b3480156102a9575f80fd5b506102c460048036038101906102bf91906144e8565b6114dd565b005b3480156102d1575f80fd5b506102da611a16565b6040516102e79190613f44565b60405180910390f35b3480156102fb575f80fd5b5061031660048036038101906103119190614526565b611a28565b6040516103279594939291906145dc565b60405180910390f35b34801561033b575f80fd5b50610356600480360381019061035191906141d0565b611b40565b005b348015610363575f80fd5b5061037e60048036038101906103799190614634565b611c6d565b005b34801561038b575f80fd5b50610394612327565b005b3480156103a1575f80fd5b506103bc60048036038101906103b791906146ab565b61233a565b005b3480156103c9575f80fd5b506103e460048036038101906103df91906141d0565b612490565b005b3480156103f1575f80fd5b506103fa6125bf565b6040516104079190614726565b60405180910390f35b34801561041b575f80fd5b506104246125e3565b604051610431919061420a565b60405180910390f35b348015610445575f80fd5b5061044e6125ea565b60405161045b919061473f565b60405180910390f35b34801561046f575f80fd5b5061048a60048036038101906104859190614526565b612611565b60405161049c96959493929190614758565b60405180910390f35b6104bf60048036038101906104ba91906147be565b61273b565b005b3480156104cc575f80fd5b506104d5612b55565b6040516104e29190614726565b60405180910390f35b3480156104f6575f80fd5b506104ff612b79565b005b34801561050c575f80fd5b5061052760048036038101906105229190614854565b612c18565b005b348015610534575f80fd5b5061054f600480360381019061054a91906148b8565b6132a2565b005b61056b60048036038101906105669190614908565b61352a565b005b348015610578575f80fd5b50610593600480360381019061058e9190613eff565b6138ea565b005b3480156105a0575f80fd5b506105a961396e565b6040516105b6919061420a565b60405180910390f35b6005602052805f5260405f205f915054906101000a900460ff1681565b6105e4613992565b60025f9054906101000a900460ff161561062a576040517f94da9ae700000000000000000000000000000000000000000000000000000000815260040160405180910390fd5b825f8160ff16111580610640575060048160ff16115b15610677576040517f41e7bb4f00000000000000000000000000000000000000000000000000000000815260040160405180910390fd5b825f8114806106a557507f000000000000000000000000000000000000000000000000000000000000000081115b156106dc576040517f2a82a34f00000000000000000000000000000000000000000000000000000000815260040160405180910390fd5b5f60035f3373ffffffffffffffffffffffffffffffffffffffff1673ffffffffffffffffffffffffffffffffffffffff1681526020019081526020015f205f8760ff1660ff1681526020019081526020015f208054905090507f000000000000000000000000000000000000000000000000000000000000000060ff168110610791576040517fa0c5191f00000000000000000000000000000000000000000000000000000000815260040160405180910390fd5b5f73ffffffffffffffffffffffffffffffffffffffff168873ffffffffffffffffffffffffffffffffffffffff160361080157876040517f733068030000000000000000000000000000000000000000000000000000000081526004016107f8919061473f565b60405180910390fd5b60055f8973ffffffffffffffffffffffffffffffffffffffff1673ffffffffffffffffffffffffffffffffffffffff1681526020019081526020015f205f9054906101000a900460ff161561088d57876040517fdae56709000000000000000000000000000000000000000000000000000000008152600401610884919061473f565b60405180910390fd5b5f87116108c6576040517fe4910d5800000000000000000000000000000000000000000000000000000000815260040160405180910390fd5b5f8873ffffffffffffffffffffffffffffffffffffffff166370a08231336040518263ffffffff1660e01b8152600401610900919061473f565b602060405180830381865afa15801561091b573d5f803e3d5ffd5b505050506040513d601f19601f8201168201806040525081019061093f919061495a565b90508088111561098657886040517fe3aea5e600000000000000000000000000000000000000000000000000000000815260040161097d919061473f565b60405180910390fd5b6109b333308a8c73ffffffffffffffffffffffffffffffffffffffff166139d8909392919063ffffffff16565b60035f3373ffffffffffffffffffffffffffffffffffffffff1673ffffffffffffffffffffffffffffffffffffffff1681526020019081526020015f205f8860ff1660ff1681526020019081526020015f206040518060c001604052808b73ffffffffffffffffffffffffffffffffffffffff1681526020018a81526020018842610a3e91906149b2565b63ffffffff1681526020018781526020015f151581526020015f1515815250908060018154018082558091505060019003905f5260205f2090600502015f909190919091505f820151815f015f6101000a81548173ffffffffffffffffffffffffffffffffffffffff021916908373ffffffffffffffffffffffffffffffffffffffff160217905550602082015181600101556040820151816002015f6101000a81548163ffffffff021916908363ffffffff1602179055506060820151816003019081610b0c9190614bdf565b506080820151816004015f6101000a81548160ff02191690831515021790555060a08201518160040160016101000a81548160ff0219169083151502179055505050610b5b89888a885f613a5a565b8873ffffffffffffffffffffffffffffffffffffffff167f93c7f7d807630c520b9271e8fb715abfcca1d19daad1fc4a8b291b82ea518b6789878a8a42610ba291906149b2565b42604051610bb4959493929190614cae565b60405180910390a250505050610bc8613bca565b5050505050565b5f8173ffffffffffffffffffffffffffffffffffffffff166370a08231306040518263ffffffff1660e01b8152600401610c09919061473f565b602060405180830381865afa158015610c24573d5f803e3d5ffd5b505050506040513d601f19601f82011682018060405250810190610c48919061495a565b9050919050565b610c57613992565b60025f9054906101000a900460ff1615610c9d576040517f94da9ae700000000000000000000000000000000000000000000000000000000815260040160405180910390fd5b805f8160ff16111580610cb3575060048160ff16115b15610cea576040517f41e7bb4f00000000000000000000000000000000000000000000000000000000815260040160405180910390fd5b5f73ffffffffffffffffffffffffffffffffffffffff168573ffffffffffffffffffffffffffffffffffffffff1603610d5a57846040517f73306803000000000000000000000000000000000000000000000000000000008152600401610d51919061473f565b60405180910390fd5b60055f8673ffffffffffffffffffffffffffffffffffffffff1673ffffffffffffffffffffffffffffffffffffffff1681526020019081526020015f205f9054906101000a900460ff1615610de657846040517fdae56709000000000000000000000000000000000000000000000000000000008152600401610ddd919061473f565b60405180910390fd5b5f8311610e1f576040517fe4910d5800000000000000000000000000000000000000000000000000000000815260040160405180910390fd5b60035f3373ffffffffffffffffffffffffffffffffffffffff1673ffffffffffffffffffffffffffffffffffffffff1681526020019081526020015f205f8360ff1660ff1681526020019081526020015f20805490508463ffffffff161115610eb4576040517f43b88a3000000000000000000000000000000000000000000000000000000000815260040160405180910390fd5b5f60035f3373ffffffffffffffffffffffffffffffffffffffff1673ffffffffffffffffffffffffffffffffffffffff1681526020019081526020015f205f8460ff1660ff1681526020019081526020015f208563ffffffff1681548110610f1f57610f1e614d06565b5b905f5260205f209060050201905042816002015f9054906101000a900463ffffffff1663ffffffff161015610f80576040517fa3f3d8b900000000000000000000000000000000000000000000000000000000815260040160405180910390fd5b5f8673ffffffffffffffffffffffffffffffffffffffff166370a08231336040518263ffffffff1660e01b8152600401610fba919061473f565b602060405180830381865afa158015610fd5573d5f803e3d5ffd5b505050506040513d601f19601f82011682018060405250810190610ff9919061495a565b90508085111561104057866040517fe3aea5e6000000000000000000000000000000000000000000000000000000008152600401611037919061473f565b60405180910390fd5b61106d3330878a73ffffffffffffffffffffffffffffffffffffffff166139d8909392919063ffffffff16565b8460035f3373ffffffffffffffffffffffffffffffffffffffff1673ffffffffffffffffffffffffffffffffffffffff1681526020019081526020015f205f8660ff1660ff1681526020019081526020015f208763ffffffff16815481106110d8576110d7614d06565b5b905f5260205f2090600502016001015f8282546110f591906149b2565b9250508190555061119387858785600301805461111190614a12565b80601f016020809104026020016040519081016040528092919081815260200182805461113d90614a12565b80156111885780601f1061115f57610100808354040283529160200191611188565b820191905f5260205f20905b81548152906001019060200180831161116b57829003601f168201915b50505050505f613a5a565b8673ffffffffffffffffffffffffffffffffffffffff167fa62fa334755456efc7eabec03287391abe4998e298b5d3b4a3eabc34fd5f800b868460030187426040516111e29493929190614db4565b60405180910390a25050506111f5613bca565b50505050565b60605f8260ff161080611211575060048260ff16115b15611248576040517f41e7bb4f00000000000000000000000000000000000000000000000000000000815260040160405180910390fd5b60035f3373ffffffffffffffffffffffffffffffffffffffff1673ffffffffffffffffffffffffffffffffffffffff1681526020019081526020015f205f8360ff1660ff1681526020019081526020015f20805480602002602001604051908101604052809291908181526020015f905b82821015611431578382905f5260205f2090600502016040518060c00160405290815f82015f9054906101000a900473ffffffffffffffffffffffffffffffffffffffff1673ffffffffffffffffffffffffffffffffffffffff1673ffffffffffffffffffffffffffffffffffffffff16815260200160018201548152602001600282015f9054906101000a900463ffffffff1663ffffffff1663ffffffff16815260200160038201805461136d90614a12565b80601f016020809104026020016040519081016040528092919081815260200182805461139990614a12565b80156113e45780601f106113bb576101008083540402835291602001916113e4565b820191905f5260205f20905b8154815290600101906020018083116113c757829003601f168201915b50505050508152602001600482015f9054906101000a900460ff161515151581526020016004820160019054906101000a900460ff161515151581525050815260200190600101906112b9565b505050509050919050565b611444613bd3565b60025f9054906101000a900460ff161561148a576040517f94da9ae700000000000000000000000000000000000000000000000000000000815260040160405180910390fd5b600160025f6101000a81548160ff0219169083151502179055507ff4efd1d09d98fca0af22a3204fc0c7b3e00560c4b3d54fa36eb1626ff50acca0426040516114d39190614dfe565b60405180910390a1565b60035f3373ffffffffffffffffffffffffffffffffffffffff1673ffffffffffffffffffffffffffffffffffffffff1681526020019081526020015f205f8360ff1660ff1681526020019081526020015f20805490508160ff16111561156f576040517f43b88a3000000000000000000000000000000000000000000000000000000000815260040160405180910390fd5b5f60035f3373ffffffffffffffffffffffffffffffffffffffff1673ffffffffffffffffffffffffffffffffffffffff1681526020019081526020015f205f8460ff1660ff1681526020019081526020015f208260ff16815481106115d7576115d6614d06565b5b905f5260205f209060050201905042816002015f9054906101000a900463ffffffff1663ffffffff161115611638576040517ff594da3400000000000000000000000000000000000000000000000000000000815260040160405180910390fd5b806004015f9054906101000a900460ff1661167f576040517fc581f41500000000000000000000000000000000000000000000000000000000815260040160405180910390fd5b5f600160035f3373ffffffffffffffffffffffffffffffffffffffff1673ffffffffffffffffffffffffffffffffffffffff1681526020019081526020015f205f8660ff1660ff1681526020019081526020015f20805490506116e29190614e17565b9050808360ff16146118e45760035f3373ffffffffffffffffffffffffffffffffffffffff1673ffffffffffffffffffffffffffffffffffffffff1681526020019081526020015f205f8560ff1660ff1681526020019081526020015f20818154811061175257611751614d06565b5b905f5260205f20906005020160035f3373ffffffffffffffffffffffffffffffffffffffff1673ffffffffffffffffffffffffffffffffffffffff1681526020019081526020015f205f8660ff1660ff1681526020019081526020015f208460ff16815481106117c5576117c4614d06565b5b905f5260205f2090600502015f82015f9054906101000a900473ffffffffffffffffffffffffffffffffffffffff16815f015f6101000a81548173ffffffffffffffffffffffffffffffffffffffff021916908373ffffffffffffffffffffffffffffffffffffffff16021790555060018201548160010155600282015f9054906101000a900463ffffffff16816002015f6101000a81548163ffffffff021916908363ffffffff160217905550600382018160030190816118879190614e5f565b50600482015f9054906101000a900460ff16816004015f6101000a81548160ff0219169083151502179055506004820160019054906101000a900460ff168160040160016101000a81548160ff0219169083151502179055509050505b60035f3373ffffffffffffffffffffffffffffffffffffffff1673ffffffffffffffffffffffffffffffffffffffff1681526020019081526020015f205f8560ff1660ff1681526020019081526020015f2080548061194657611945614f44565b5b600190038181905f5260205f2090600502015f8082015f6101000a81549073ffffffffffffffffffffffffffffffffffffffff0219169055600182015f9055600282015f6101000a81549063ffffffff0219169055600382015f6119aa9190613e3c565b600482015f6101000a81549060ff02191690556004820160016101000a81549060ff0219169055505090557fa293d38bc1768ea4009a7109526de29a238ee975c7ee4328c2c77fe71350d798848442604051611a0893929190614f71565b60405180910390a150505050565b60025f9054906101000a900460ff1681565b6004602052825f5260405f20602052815f5260405f208181548110611a4b575f80fd5b905f5260205f2090600402015f925092505050805f015f9054906101000a900473ffffffffffffffffffffffffffffffffffffffff1690806001015490806002018054611a9790614a12565b80601f0160208091040260200160405190810160405280929190818152602001828054611ac390614a12565b8015611b0e5780601f10611ae557610100808354040283529160200191611b0e565b820191905f5260205f20905b815481529060010190602001808311611af157829003601f168201915b505050505090806003015f9054906101000a900460ff16908060030160019054906101000a900463ffffffff16905085565b611b48613bd3565b60055f8273ffffffffffffffffffffffffffffffffffffffff1673ffffffffffffffffffffffffffffffffffffffff1681526020019081526020015f205f9054906101000a900460ff16611bd357806040517f46fdb4ef000000000000000000000000000000000000000000000000000000008152600401611bca919061473f565b60405180910390fd5b5f60055f8373ffffffffffffffffffffffffffffffffffffffff1673ffffffffffffffffffffffffffffffffffffffff1681526020019081526020015f205f6101000a81548160ff0219169083151502179055508073ffffffffffffffffffffffffffffffffffffffff167fe0db3499b7fdc3da4cddff5f45d694549c19835e7f719fb5606d3ad1a5de401160405160405180910390a250565b611c75613992565b60035f3373ffffffffffffffffffffffffffffffffffffffff1673ffffffffffffffffffffffffffffffffffffffff1681526020019081526020015f205f8560ff1660ff1681526020019081526020015f20805490508360ff16118015611d33575060035f3373ffffffffffffffffffffffffffffffffffffffff1673ffffffffffffffffffffffffffffffffffffffff1681526020019081526020015f205f8360ff1660ff1681526020019081526020015f20805490508160ff16115b15611d6a576040517f43b88a3000000000000000000000000000000000000000000000000000000000815260040160405180910390fd5b5f60035f3373ffffffffffffffffffffffffffffffffffffffff1673ffffffffffffffffffffffffffffffffffffffff1681526020019081526020015f205f8660ff1660ff1681526020019081526020015f208460ff1681548110611dd257611dd1614d06565b5b905f5260205f20906005020190505f60035f3373ffffffffffffffffffffffffffffffffffffffff1673ffffffffffffffffffffffffffffffffffffffff1681526020019081526020015f205f8560ff1660ff1681526020019081526020015f208360ff1681548110611e4857611e47614d06565b5b905f5260205f2090600502019050805f015f9054906101000a900473ffffffffffffffffffffffffffffffffffffffff1673ffffffffffffffffffffffffffffffffffffffff16825f015f9054906101000a900473ffffffffffffffffffffffffffffffffffffffff1673ffffffffffffffffffffffffffffffffffffffff1614611f5057815f015f9054906101000a900473ffffffffffffffffffffffffffffffffffffffff16815f015f9054906101000a900473ffffffffffffffffffffffffffffffffffffffff166040517feb04a6f5000000000000000000000000000000000000000000000000000000008152600401611f47929190614fa6565b60405180910390fd5b816002015f9054906101000a900463ffffffff1663ffffffff1642108015611f905750806002015f9054906101000a900463ffffffff1663ffffffff1642115b15611fc7576040517fada123b000000000000000000000000000000000000000000000000000000000815260040160405180910390fd5b816004015f9054906101000a900460ff161561200f576040517fc581f41500000000000000000000000000000000000000000000000000000000815260040160405180910390fd5b816001015487111561207a57815f015f9054906101000a900473ffffffffffffffffffffffffffffffffffffffff166040517f59b1a35c000000000000000000000000000000000000000000000000000000008152600401612071919061473f565b60405180910390fd5b8660035f3373ffffffffffffffffffffffffffffffffffffffff1673ffffffffffffffffffffffffffffffffffffffff1681526020019081526020015f205f8860ff1660ff1681526020019081526020015f208660ff16815481106120e2576120e1614d06565b5b905f5260205f2090600502016001015f8282546120ff9190614e17565b925050819055505f60035f3373ffffffffffffffffffffffffffffffffffffffff1673ffffffffffffffffffffffffffffffffffffffff1681526020019081526020015f205f8860ff1660ff1681526020019081526020015f208660ff168154811061216e5761216d614d06565b5b905f5260205f209060050201600101540361221257600160035f3373ffffffffffffffffffffffffffffffffffffffff1673ffffffffffffffffffffffffffffffffffffffff1681526020019081526020015f205f8860ff1660ff1681526020019081526020015f208660ff16815481106121ec576121eb614d06565b5b905f5260205f2090600502016004015f6101000a81548160ff0219169083151502179055505b8660035f3373ffffffffffffffffffffffffffffffffffffffff1673ffffffffffffffffffffffffffffffffffffffff1681526020019081526020015f205f8660ff1660ff1681526020019081526020015f208460ff168154811061227a57612279614d06565b5b905f5260205f2090600502016001015f82825461229791906149b2565b92505081905550815f015f9054906101000a900473ffffffffffffffffffffffffffffffffffffffff1673ffffffffffffffffffffffffffffffffffffffff167fb9235ade2fd0814639c24ccb5ee7c5f6d4903f518105a0ba5252eb88d7188de1888888888860405161230e959493929190614fcd565b60405180910390a25050612320613bca565b5050505050565b61232f613bd3565b6123385f613c5a565b565b60035f3373ffffffffffffffffffffffffffffffffffffffff1673ffffffffffffffffffffffffffffffffffffffff1681526020019081526020015f205f8460ff1660ff1681526020019081526020015f20805490508260ff1611156123cc576040517f43b88a3000000000000000000000000000000000000000000000000000000000815260040160405180910390fd5b8060035f3373ffffffffffffffffffffffffffffffffffffffff1673ffffffffffffffffffffffffffffffffffffffff1681526020019081526020015f205f8560ff1660ff1681526020019081526020015f208360ff168154811061243457612433614d06565b5b905f5260205f209060050201600301908161244f9190614bdf565b507f06cdc87d0689291dcf5c7b2aeaa12a69025d9b944892a73fd409de0d3b7990ca8183856040516124839392919061501e565b60405180910390a1505050565b612498613bd3565b60055f8273ffffffffffffffffffffffffffffffffffffffff1673ffffffffffffffffffffffffffffffffffffffff1681526020019081526020015f205f9054906101000a900460ff161561252457806040517fdae5670900000000000000000000000000000000000000000000000000000000815260040161251b919061473f565b60405180910390fd5b600160055f8373ffffffffffffffffffffffffffffffffffffffff1673ffffffffffffffffffffffffffffffffffffffff1681526020019081526020015f205f6101000a81548160ff0219169083151502179055508073ffffffffffffffffffffffffffffffffffffffff167f7fd26be6fc92aff63f1f4409b2b2ddeb272a888031d7f55ec830485ec619418660405160405180910390a250565b7f000000000000000000000000000000000000000000000000000000000000000081565b5f47905090565b5f805f9054906101000a900473ffffffffffffffffffffffffffffffffffffffff16905090565b6003602052825f5260405f20602052815f5260405f208181548110612634575f80fd5b905f5260205f2090600502015f925092505050805f015f9054906101000a900473ffffffffffffffffffffffffffffffffffffffff1690806001015490806002015f9054906101000a900463ffffffff169080600301805461269590614a12565b80601f01602080910402602001604051908101604052809291908181526020018280546126c190614a12565b801561270c5780601f106126e35761010080835404028352916020019161270c565b820191905f5260205f20905b8154815290600101906020018083116126ef57829003601f168201915b505050505090806004015f9054906101000a900460ff16908060040160019054906101000a900460ff16905086565b612743613992565b60025f9054906101000a900460ff1615612789576040517f94da9ae700000000000000000000000000000000000000000000000000000000815260040160405180910390fd5b825f8160ff1611158061279f575060048160ff16115b156127d6576040517f41e7bb4f00000000000000000000000000000000000000000000000000000000815260040160405180910390fd5b8263ffffffff165f81148061280a57507f000000000000000000000000000000000000000000000000000000000000000081115b15612841576040517f2a82a34f00000000000000000000000000000000000000000000000000000000815260040160405180910390fd5b5f60035f3373ffffffffffffffffffffffffffffffffffffffff1673ffffffffffffffffffffffffffffffffffffffff1681526020019081526020015f205f8760ff1660ff1681526020019081526020015f208054905090507f000000000000000000000000000000000000000000000000000000000000000060ff1681106128f6576040517fa0c5191f00000000000000000000000000000000000000000000000000000000815260040160405180910390fd5b5f341161292f576040517fe4910d5800000000000000000000000000000000000000000000000000000000815260040160405180910390fd5b60035f3373ffffffffffffffffffffffffffffffffffffffff1673ffffffffffffffffffffffffffffffffffffffff1681526020019081526020015f205f8760ff1660ff1681526020019081526020015f206040518060c001604052805f73ffffffffffffffffffffffffffffffffffffffff1681526020013481526020018763ffffffff16426129c091906149b2565b63ffffffff1681526020018681526020015f1515815260200160011515815250908060018154018082558091505060019003905f5260205f2090600502015f909190919091505f820151815f015f6101000a81548173ffffffffffffffffffffffffffffffffffffffff021916908373ffffffffffffffffffffffffffffffffffffffff160217905550602082015181600101556040820151816002015f6101000a81548163ffffffff021916908363ffffffff1602179055506060820151816003019081612a8f9190614bdf565b506080820151816004015f6101000a81548160ff02191690831515021790555060a08201518160040160016101000a81548160ff0219169083151502179055505050612ade5f8734875f613a5a565b5f73ffffffffffffffffffffffffffffffffffffffff167f93c7f7d807630c520b9271e8fb715abfcca1d19daad1fc4a8b291b82ea518b673486898963ffffffff1642612b2b91906149b2565b42604051612b3d959493929190614cae565b60405180910390a2505050612b50613bca565b505050565b7f000000000000000000000000000000000000000000000000000000000000000081565b612b81613bd3565b60025f9054906101000a900460ff16612bc6576040517f9bc4a17b00000000000000000000000000000000000000000000000000000000815260040160405180910390fd5b5f60025f6101000a81548160ff0219169083151502179055507fb855b6c6d68cae899d407a87abb7afd6e973bd1d944ba3d6ce3e8fa37a8fdbd242604051612c0e9190614dfe565b60405180910390a1565b612c20613992565b825f8160ff16111580612c36575060048160ff16115b15612c6d576040517f41e7bb4f00000000000000000000000000000000000000000000000000000000815260040160405180910390fd5b60035f3373ffffffffffffffffffffffffffffffffffffffff1673ffffffffffffffffffffffffffffffffffffffff1681526020019081526020015f205f8560ff1660ff1681526020019081526020015f20805490508563ffffffff161115612d02576040517f43b88a3000000000000000000000000000000000000000000000000000000000815260040160405180910390fd5b5f60035f3373ffffffffffffffffffffffffffffffffffffffff1673ffffffffffffffffffffffffffffffffffffffff1681526020019081526020015f205f8660ff1660ff1681526020019081526020015f208663ffffffff1681548110612d6d57612d6c614d06565b5b905f5260205f2090600502019050806004015f9054906101000a900460ff1615612dc3576040517fc581f41500000000000000000000000000000000000000000000000000000000815260040160405180910390fd5b8060010154841115612e2e57805f015f9054906101000a900473ffffffffffffffffffffffffffffffffffffffff166040517f59b1a35c000000000000000000000000000000000000000000000000000000008152600401612e25919061473f565b60405180910390fd5b806002015f9054906101000a900463ffffffff1663ffffffff1642108015612e5b57506001151583151514155b15612e92576040517fe73670bf00000000000000000000000000000000000000000000000000000000815260040160405180910390fd5b5f848260010154612ea39190614e17565b90505f8103612f3e57600160035f3373ffffffffffffffffffffffffffffffffffffffff1673ffffffffffffffffffffffffffffffffffffffff1681526020019081526020015f205f8860ff1660ff1681526020019081526020015f208863ffffffff1681548110612f1857612f17614d06565b5b905f5260205f2090600502016004015f6101000a81548160ff0219169083151502179055505b8060035f3373ffffffffffffffffffffffffffffffffffffffff1673ffffffffffffffffffffffffffffffffffffffff1681526020019081526020015f205f8860ff1660ff1681526020019081526020015f208863ffffffff1681548110612fa957612fa8614d06565b5b905f5260205f209060050201600101819055508160040160019054906101000a900460ff1615613110575f3373ffffffffffffffffffffffffffffffffffffffff1686604051612ff890615087565b5f6040518083038185875af1925050503d805f8114613032576040519150601f19603f3d011682016040523d82523d5f602084013e613037565b606091505b5050905080613072576040517fb12d13eb00000000000000000000000000000000000000000000000000000000815260040160405180910390fd5b61310a5f888886600301805461308790614a12565b80601f01602080910402602001604051908101604052809291908181526020018280546130b390614a12565b80156130fe5780601f106130d5576101008083540402835291602001916130fe565b820191905f5260205f20905b8154815290600101906020018083116130e157829003601f168201915b50505050506001613a5a565b50613218565b61315d3386845f015f9054906101000a900473ffffffffffffffffffffffffffffffffffffffff1673ffffffffffffffffffffffffffffffffffffffff16613d1b9092919063ffffffff16565b613217825f015f9054906101000a900473ffffffffffffffffffffffffffffffffffffffff16878785600301805461319490614a12565b80601f01602080910402602001604051908101604052809291908181526020018280546131c090614a12565b801561320b5780601f106131e25761010080835404028352916020019161320b565b820191905f5260205f20905b8154815290600101906020018083116131ee57829003601f168201915b50505050506001613a5a565b5b815f015f9054906101000a900473ffffffffffffffffffffffffffffffffffffffff1673ffffffffffffffffffffffffffffffffffffffff167f4c1f1355da7e4da113e98d9a5c01aa2a743e2372a87ed9cda08a8645e197e735868460030189426040516132899493929190614db4565b60405180910390a250505061329c613bca565b50505050565b5f60035f3373ffffffffffffffffffffffffffffffffffffffff1673ffffffffffffffffffffffffffffffffffffffff1681526020019081526020015f205f8460ff1660ff1681526020019081526020015f208463ffffffff168154811061330d5761330c614d06565b5b905f5260205f209060050201905060035f3373ffffffffffffffffffffffffffffffffffffffff1673ffffffffffffffffffffffffffffffffffffffff1681526020019081526020015f205f8460ff1660ff1681526020019081526020015f20805490508463ffffffff1611156133b0576040517f43b88a3000000000000000000000000000000000000000000000000000000000815260040160405180910390fd5b42816002015f9054906101000a900463ffffffff1663ffffffff161115613403576040517ff594da3400000000000000000000000000000000000000000000000000000000815260040160405180910390fd5b8163ffffffff164261341591906149b2565b60035f3373ffffffffffffffffffffffffffffffffffffffff1673ffffffffffffffffffffffffffffffffffffffff1681526020019081526020015f205f8560ff1660ff1681526020019081526020015f208563ffffffff168154811061347f5761347e614d06565b5b905f5260205f2090600502016002015f6101000a81548163ffffffff021916908363ffffffff160217905550805f015f9054906101000a900473ffffffffffffffffffffffffffffffffffffffff1673ffffffffffffffffffffffffffffffffffffffff167f9d36c4692e4c75a4a1a6305244c51189aeeaaf3faba32b86bf4e2ac38bf689f38484846003014260405161351c949392919061509b565b60405180910390a250505050565b613532613992565b60025f9054906101000a900460ff1615613578576040517f94da9ae700000000000000000000000000000000000000000000000000000000815260040160405180910390fd5b815f8160ff1611158061358e575060048160ff16115b156135c5576040517f41e7bb4f00000000000000000000000000000000000000000000000000000000815260040160405180910390fd5b5f34116135fe576040517fe4910d5800000000000000000000000000000000000000000000000000000000815260040160405180910390fd5b60035f3373ffffffffffffffffffffffffffffffffffffffff1673ffffffffffffffffffffffffffffffffffffffff1681526020019081526020015f205f8460ff1660ff1681526020019081526020015f20805490508263ffffffff161115613693576040517f43b88a3000000000000000000000000000000000000000000000000000000000815260040160405180910390fd5b5f60035f3373ffffffffffffffffffffffffffffffffffffffff1673ffffffffffffffffffffffffffffffffffffffff1681526020019081526020015f205f8560ff1660ff1681526020019081526020015f208363ffffffff16815481106136fe576136fd614d06565b5b905f5260205f209060050201905042816002015f9054906101000a900463ffffffff1663ffffffff16101561375f576040517fa3f3d8b900000000000000000000000000000000000000000000000000000000815260040160405180910390fd5b3460035f3373ffffffffffffffffffffffffffffffffffffffff1673ffffffffffffffffffffffffffffffffffffffff1681526020019081526020015f205f8660ff1660ff1681526020019081526020015f208463ffffffff16815481106137ca576137c9614d06565b5b905f5260205f2090600502016001015f8282546137e791906149b2565b925050819055506138855f853484600301805461380390614a12565b80601f016020809104026020016040519081016040528092919081815260200182805461382f90614a12565b801561387a5780601f106138515761010080835404028352916020019161387a565b820191905f5260205f20905b81548152906001019060200180831161385d57829003601f168201915b50505050505f613a5a565b5f73ffffffffffffffffffffffffffffffffffffffff167fa62fa334755456efc7eabec03287391abe4998e298b5d3b4a3eabc34fd5f800b348360030187426040516138d49493929190614db4565b60405180910390a250506138e6613bca565b5050565b6138f2613bd3565b5f73ffffffffffffffffffffffffffffffffffffffff168173ffffffffffffffffffffffffffffffffffffffff1603613962575f6040517f1e4fbdf7000000000000000000000000000000000000000000000000000000008152600401613959919061473f565b60405180910390fd5b61396b81613c5a565b50565b7f000000000000000000000000000000000000000000000000000000000000000081565b6002600154036139ce576040517f3ee5aeb500000000000000000000000000000000000000000000000000000000815260040160405180910390fd5b6002600181905550565b613a54848573ffffffffffffffffffffffffffffffffffffffff166323b872dd868686604051602401613a0d939291906150e5565b604051602081830303815290604052915060e01b6020820180517bffffffffffffffffffffffffffffffffffffffffffffffffffffffff8381831617835250505050613d9a565b50505050565b60045f3373ffffffffffffffffffffffffffffffffffffffff1673ffffffffffffffffffffffffffffffffffffffff1681526020019081526020015f205f8560ff1660ff1681526020019081526020015f206040518060a001604052808773ffffffffffffffffffffffffffffffffffffffff16815260200185815260200184815260200183151581526020014263ffffffff16815250908060018154018082558091505060019003905f5260205f2090600402015f909190919091505f820151815f015f6101000a81548173ffffffffffffffffffffffffffffffffffffffff021916908373ffffffffffffffffffffffffffffffffffffffff160217905550602082015181600101556040820151816002019081613b7a9190614bdf565b506060820151816003015f6101000a81548160ff02191690831515021790555060808201518160030160016101000a81548163ffffffff021916908363ffffffff16021790555050505050505050565b60018081905550565b613bdb613e35565b73ffffffffffffffffffffffffffffffffffffffff16613bf96125ea565b73ffffffffffffffffffffffffffffffffffffffff1614613c5857613c1c613e35565b6040517f118cdaa7000000000000000000000000000000000000000000000000000000008152600401613c4f919061473f565b60405180910390fd5b565b5f805f9054906101000a900473ffffffffffffffffffffffffffffffffffffffff169050815f806101000a81548173ffffffffffffffffffffffffffffffffffffffff021916908373ffffffffffffffffffffffffffffffffffffffff1602179055508173ffffffffffffffffffffffffffffffffffffffff168173ffffffffffffffffffffffffffffffffffffffff167f8be0079c531659141344cd1fd0a4f28419497f9722a3daafe3b4186f6b6457e060405160405180910390a35050565b613d95838473ffffffffffffffffffffffffffffffffffffffff1663a9059cbb8585604051602401613d4e92919061511a565b604051602081830303815290604052915060e01b6020820180517bffffffffffffffffffffffffffffffffffffffffffffffffffffffff8381831617835250505050613d9a565b505050565b5f8060205f8451602086015f885af180613db9576040513d5f823e3d81fd5b3d92505f519150505f8214613dd2576001811415613ded565b5f8473ffffffffffffffffffffffffffffffffffffffff163b145b15613e2f57836040517f5274afe7000000000000000000000000000000000000000000000000000000008152600401613e26919061473f565b60405180910390fd5b50505050565b5f33905090565b508054613e4890614a12565b5f825580601f10613e595750613e76565b601f0160209004905f5260205f2090810190613e759190613e79565b5b50565b5b80821115613e90575f815f905550600101613e7a565b5090565b5f604051905090565b5f80fd5b5f80fd5b5f73ffffffffffffffffffffffffffffffffffffffff82169050919050565b5f613ece82613ea5565b9050919050565b613ede81613ec4565b8114613ee8575f80fd5b50565b5f81359050613ef981613ed5565b92915050565b5f60208284031215613f1457613f13613e9d565b5b5f613f2184828501613eeb565b91505092915050565b5f8115159050919050565b613f3e81613f2a565b82525050565b5f602082019050613f575f830184613f35565b92915050565b5f613f6782613ec4565b9050919050565b613f7781613f5d565b8114613f81575f80fd5b50565b5f81359050613f9281613f6e565b92915050565b5f819050919050565b613faa81613f98565b8114613fb4575f80fd5b50565b5f81359050613fc581613fa1565b92915050565b5f60ff82169050919050565b613fe081613fcb565b8114613fea575f80fd5b50565b5f81359050613ffb81613fd7565b92915050565b5f80fd5b5f80fd5b5f601f19601f8301169050919050565b7f4e487b71000000000000000000000000000000000000000000000000000000005f52604160045260245ffd5b61404f82614009565b810181811067ffffffffffffffff8211171561406e5761406d614019565b5b80604052505050565b5f614080613e94565b905061408c8282614046565b919050565b5f67ffffffffffffffff8211156140ab576140aa614019565b5b6140b482614009565b9050602081019050919050565b828183375f83830152505050565b5f6140e16140dc84614091565b614077565b9050828152602081018484840111156140fd576140fc614005565b5b6141088482856140c1565b509392505050565b5f82601f83011261412457614123614001565b5b81356141348482602086016140cf565b91505092915050565b5f805f805f60a0868803121561415657614155613e9d565b5b5f61416388828901613f84565b955050602061417488828901613fb7565b945050604061418588828901613fed565b935050606061419688828901613fb7565b925050608086013567ffffffffffffffff8111156141b7576141b6613ea1565b5b6141c388828901614110565b9150509295509295909350565b5f602082840312156141e5576141e4613e9d565b5b5f6141f284828501613f84565b91505092915050565b61420481613f98565b82525050565b5f60208201905061421d5f8301846141fb565b92915050565b5f63ffffffff82169050919050565b61423b81614223565b8114614245575f80fd5b50565b5f8135905061425681614232565b92915050565b5f805f806080858703121561427457614273613e9d565b5b5f61428187828801613f84565b945050602061429287828801614248565b93505060406142a387828801613fb7565b92505060606142b487828801613fed565b91505092959194509250565b5f602082840312156142d5576142d4613e9d565b5b5f6142e284828501613fed565b91505092915050565b5f81519050919050565b5f82825260208201905092915050565b5f819050602082019050919050565b61431d81613ec4565b82525050565b61432c81613f98565b82525050565b61433b81614223565b82525050565b5f81519050919050565b5f82825260208201905092915050565b8281835e5f83830152505050565b5f61437382614341565b61437d818561434b565b935061438d81856020860161435b565b61439681614009565b840191505092915050565b6143aa81613f2a565b82525050565b5f60c083015f8301516143c55f860182614314565b5060208301516143d86020860182614323565b5060408301516143eb6040860182614332565b50606083015184820360608601526144038282614369565b915050608083015161441860808601826143a1565b5060a083015161442b60a08601826143a1565b508091505092915050565b5f61444183836143b0565b905092915050565b5f602082019050919050565b5f61445f826142eb565b61446981856142f5565b93508360208202850161447b85614305565b805f5b858110156144b657848403895281516144978582614436565b94506144a283614449565b925060208a0199505060018101905061447e565b50829750879550505050505092915050565b5f6020820190508181035f8301526144e08184614455565b905092915050565b5f80604083850312156144fe576144fd613e9d565b5b5f61450b85828601613fed565b925050602061451c85828601613fed565b9150509250929050565b5f805f6060848603121561453d5761453c613e9d565b5b5f61454a86828701613eeb565b935050602061455b86828701613fed565b925050604061456c86828701613fb7565b9150509250925092565b61457f81613ec4565b82525050565b5f82825260208201905092915050565b5f61459f82614341565b6145a98185614585565b93506145b981856020860161435b565b6145c281614009565b840191505092915050565b6145d681614223565b82525050565b5f60a0820190506145ef5f830188614576565b6145fc60208301876141fb565b818103604083015261460e8186614595565b905061461d6060830185613f35565b61462a60808301846145cd565b9695505050505050565b5f805f805f60a0868803121561464d5761464c613e9d565b5b5f61465a88828901613fb7565b955050602061466b88828901613fed565b945050604061467c88828901613fed565b935050606061468d88828901613fed565b925050608061469e88828901613fed565b9150509295509295909350565b5f805f606084860312156146c2576146c1613e9d565b5b5f6146cf86828701613fed565b93505060206146e086828701613fed565b925050604084013567ffffffffffffffff81111561470157614700613ea1565b5b61470d86828701614110565b9150509250925092565b61472081613fcb565b82525050565b5f6020820190506147395f830184614717565b92915050565b5f6020820190506147525f830184614576565b92915050565b5f60c08201905061476b5f830189614576565b61477860208301886141fb565b61478560408301876145cd565b81810360608301526147978186614595565b90506147a66080830185613f35565b6147b360a0830184613f35565b979650505050505050565b5f805f606084860312156147d5576147d4613e9d565b5b5f6147e286828701613fed565b93505060206147f386828701614248565b925050604084013567ffffffffffffffff81111561481457614813613ea1565b5b61482086828701614110565b9150509250925092565b61483381613f2a565b811461483d575f80fd5b50565b5f8135905061484e8161482a565b92915050565b5f805f806080858703121561486c5761486b613e9d565b5b5f61487987828801614248565b945050602061488a87828801613fed565b935050604061489b87828801613fb7565b92505060606148ac87828801614840565b91505092959194509250565b5f805f606084860312156148cf576148ce613e9d565b5b5f6148dc86828701614248565b93505060206148ed86828701613fed565b92505060406148fe86828701614248565b9150509250925092565b5f806040838503121561491e5761491d613e9d565b5b5f61492b85828601613fed565b925050602061493c85828601614248565b9150509250929050565b5f8151905061495481613fa1565b92915050565b5f6020828403121561496f5761496e613e9d565b5b5f61497c84828501614946565b91505092915050565b7f4e487b71000000000000000000000000000000000000000000000000000000005f52601160045260245ffd5b5f6149bc82613f98565b91506149c783613f98565b92508282019050808211156149df576149de614985565b5b92915050565b7f4e487b71000000000000000000000000000000000000000000000000000000005f52602260045260245ffd5b5f6002820490506001821680614a2957607f821691505b602082108103614a3c57614a3b6149e5565b5b50919050565b5f819050815f5260205f209050919050565b5f6020601f8301049050919050565b5f82821b905092915050565b5f60088302614a9e7fffffffffffffffffffffffffffffffffffffffffffffffffffffffffffffffff82614a63565b614aa88683614a63565b95508019841693508086168417925050509392505050565b5f819050919050565b5f614ae3614ade614ad984613f98565b614ac0565b613f98565b9050919050565b5f819050919050565b614afc83614ac9565b614b10614b0882614aea565b848454614a6f565b825550505050565b5f90565b614b24614b18565b614b2f818484614af3565b505050565b5b81811015614b5257614b475f82614b1c565b600181019050614b35565b5050565b601f821115614b9757614b6881614a42565b614b7184614a54565b81016020851015614b80578190505b614b94614b8c85614a54565b830182614b34565b50505b505050565b5f82821c905092915050565b5f614bb75f1984600802614b9c565b1980831691505092915050565b5f614bcf8383614ba8565b9150826002028217905092915050565b614be882614341565b67ffffffffffffffff811115614c0157614c00614019565b5b614c0b8254614a12565b614c16828285614b56565b5f60209050601f831160018114614c47575f8415614c35578287015190505b614c3f8582614bc4565b865550614ca6565b601f198416614c5586614a42565b5f5b82811015614c7c57848901518255600182019150602085019450602081019050614c57565b86831015614c995784890151614c95601f891682614ba8565b8355505b6001600288020188555050505b505050505050565b5f60a082019050614cc15f8301886141fb565b8181036020830152614cd38187614595565b9050614ce26040830186614717565b614cef60608301856145cd565b614cfc60808301846145cd565b9695505050505050565b7f4e487b71000000000000000000000000000000000000000000000000000000005f52603260045260245ffd5b5f8154614d3f81614a12565b614d498186614585565b9450600182165f8114614d635760018114614d7957614dab565b60ff198316865281151560200286019350614dab565b614d8285614a42565b5f5b83811015614da357815481890152600182019150602081019050614d84565b808801955050505b50505092915050565b5f608082019050614dc75f8301876141fb565b8181036020830152614dd98186614d33565b9050614de86040830185614717565b614df560608301846145cd565b95945050505050565b5f602082019050614e115f8301846145cd565b92915050565b5f614e2182613f98565b9150614e2c83613f98565b9250828203905081811115614e4457614e43614985565b5b92915050565b5f81549050614e5881614a12565b9050919050565b818103614e6d575050614f42565b614e7682614e4a565b67ffffffffffffffff811115614e8f57614e8e614019565b5b614e998254614a12565b614ea4828285614b56565b5f601f831160018114614ed1575f8415614ebf578287015490505b614ec98582614bc4565b865550614f3b565b601f198416614edf87614a42565b9650614eea86614a42565b5f5b82811015614f1157848901548255600182019150600185019450602081019050614eec565b86831015614f2e5784890154614f2a601f891682614ba8565b8355505b6001600288020188555050505b5050505050505b565b7f4e487b71000000000000000000000000000000000000000000000000000000005f52603160045260245ffd5b5f606082019050614f845f830186614717565b614f916020830185614717565b614f9e60408301846145cd565b949350505050565b5f604082019050614fb95f830185614576565b614fc66020830184614576565b9392505050565b5f60a082019050614fe05f8301886141fb565b614fed6020830187614717565b614ffa6040830186614717565b6150076060830185614717565b6150146080830184614717565b9695505050505050565b5f6060820190508181035f8301526150368186614595565b90506150456020830185614717565b6150526040830184614717565b949350505050565b5f81905092915050565b50565b5f6150725f8361505a565b915061507d82615064565b5f82019050919050565b5f61509182615067565b9150819050919050565b5f6080820190506150ae5f830187614717565b6150bb60208301866145cd565b81810360408301526150cd8185614d33565b90506150dc60608301846145cd565b95945050505050565b5f6060820190506150f85f830186614576565b6151056020830185614576565b61511260408301846141fb565b949350505050565b5f60408201905061512d5f830185614576565b61513a60208301846141fb565b939250505056fea2646970667358221220ceb959b5a04d1dd0e07d5e455eb386fdef302672eb09a578189bbfa0dbe18f9e64736f6c634300081a0033",
			"opcodes": "PUSH1 0xE0 PUSH1 0x40 MSTORE PUSH4 0x5A4EC00 PUSH1 0x80 SWAP1 DUP2 MSTORE POP PUSH1 0x5 PUSH1 0xFF AND PUSH1 0xA0 SWAP1 PUSH1 0xFF AND DUP2 MSTORE POP PUSH1 0x64 PUSH1 0xFF AND PUSH1 0xC0 SWAP1 PUSH1 0xFF AND DUP2 MSTORE POP CALLVALUE DUP1 ISZERO PUSH2 0x36 JUMPI PUSH0 DUP1 REVERT JUMPDEST POP CALLER PUSH0 PUSH20 0xFFFFFFFFFFFFFFFFFFFFFFFFFFFFFFFFFFFFFFFF AND DUP2 PUSH20 0xFFFFFFFFFFFFFFFFFFFFFFFFFFFFFFFFFFFFFFFF AND SUB PUSH2 0xA8 JUMPI PUSH0 PUSH1 0x40 MLOAD PUSH32 0x1E4FBDF700000000000000000000000000000000000000000000000000000000 DUP2 MSTORE PUSH1 0x4 ADD PUSH2 0x9F SWAP2 SWAP1 PUSH2 0x1DD JUMP JUMPDEST PUSH1 0x40 MLOAD DUP1 SWAP2 SUB SWAP1 REVERT JUMPDEST PUSH2 0xB7 DUP2 PUSH2 0xDD PUSH1 0x20 SHL PUSH1 0x20 SHR JUMP JUMPDEST POP PUSH1 0x1 DUP1 DUP2 SWAP1 SSTORE POP PUSH0 PUSH1 0x2 PUSH0 PUSH2 0x100 EXP DUP2 SLOAD DUP2 PUSH1 0xFF MUL NOT AND SWAP1 DUP4 ISZERO ISZERO MUL OR SWAP1 SSTORE POP PUSH2 0x1F6 JUMP JUMPDEST PUSH0 DUP1 PUSH0 SWAP1 SLOAD SWAP1 PUSH2 0x100 EXP SWAP1 DIV PUSH20 0xFFFFFFFFFFFFFFFFFFFFFFFFFFFFFFFFFFFFFFFF AND SWAP1 POP DUP2 PUSH0 DUP1 PUSH2 0x100 EXP DUP2 SLOAD DUP2 PUSH20 0xFFFFFFFFFFFFFFFFFFFFFFFFFFFFFFFFFFFFFFFF MUL NOT AND SWAP1 DUP4 PUSH20 0xFFFFFFFFFFFFFFFFFFFFFFFFFFFFFFFFFFFFFFFF AND MUL OR SWAP1 SSTORE POP DUP2 PUSH20 0xFFFFFFFFFFFFFFFFFFFFFFFFFFFFFFFFFFFFFFFF AND DUP2 PUSH20 0xFFFFFFFFFFFFFFFFFFFFFFFFFFFFFFFFFFFFFFFF AND PUSH32 0x8BE0079C531659141344CD1FD0A4F28419497F9722A3DAAFE3B4186F6B6457E0 PUSH1 0x40 MLOAD PUSH1 0x40 MLOAD DUP1 SWAP2 SUB SWAP1 LOG3 POP POP JUMP JUMPDEST PUSH0 PUSH20 0xFFFFFFFFFFFFFFFFFFFFFFFFFFFFFFFFFFFFFFFF DUP3 AND SWAP1 POP SWAP2 SWAP1 POP JUMP JUMPDEST PUSH0 PUSH2 0x1C7 DUP3 PUSH2 0x19E JUMP JUMPDEST SWAP1 POP SWAP2 SWAP1 POP JUMP JUMPDEST PUSH2 0x1D7 DUP2 PUSH2 0x1BD JUMP JUMPDEST DUP3 MSTORE POP POP JUMP JUMPDEST PUSH0 PUSH1 0x20 DUP3 ADD SWAP1 POP PUSH2 0x1F0 PUSH0 DUP4 ADD DUP5 PUSH2 0x1CE JUMP JUMPDEST SWAP3 SWAP2 POP POP JUMP JUMPDEST PUSH1 0x80 MLOAD PUSH1 0xA0 MLOAD PUSH1 0xC0 MLOAD PUSH2 0x5177 PUSH2 0x23C PUSH0 CODECOPY PUSH0 DUP2 DUP2 PUSH2 0x737 ADD MSTORE DUP2 DUP2 PUSH2 0x25C1 ADD MSTORE PUSH2 0x289C ADD MSTORE PUSH0 PUSH2 0x2B57 ADD MSTORE PUSH0 DUP2 DUP2 PUSH2 0x683 ADD MSTORE DUP2 DUP2 PUSH2 0x27E8 ADD MSTORE PUSH2 0x3970 ADD MSTORE PUSH2 0x5177 PUSH0 RETURN INVALID PUSH1 0x80 PUSH1 0x40 MSTORE PUSH1 0x4 CALLDATASIZE LT PUSH2 0x180 JUMPI PUSH0 CALLDATALOAD PUSH1 0xE0 SHR DUP1 PUSH4 0x7FE0509F GT PUSH2 0xD0 JUMPI DUP1 PUSH4 0xB6EAEA17 GT PUSH2 0x89 JUMPI DUP1 PUSH4 0xDF68075A GT PUSH2 0x63 JUMPI DUP1 PUSH4 0xDF68075A EQ PUSH2 0x529 JUMPI DUP1 PUSH4 0xECAA9D05 EQ PUSH2 0x551 JUMPI DUP1 PUSH4 0xF2FDE38B EQ PUSH2 0x56D JUMPI DUP1 PUSH4 0xF6D121C9 EQ PUSH2 0x595 JUMPI PUSH2 0x180 JUMP JUMPDEST DUP1 PUSH4 0xB6EAEA17 EQ PUSH2 0x4C1 JUMPI DUP1 PUSH4 0xBAC15203 EQ PUSH2 0x4EB JUMPI DUP1 PUSH4 0xBF9B9DED EQ PUSH2 0x501 JUMPI PUSH2 0x180 JUMP JUMPDEST DUP1 PUSH4 0x7FE0509F EQ PUSH2 0x3BE JUMPI DUP1 PUSH4 0x87F15742 EQ PUSH2 0x3E6 JUMPI DUP1 PUSH4 0x8C89A0AD EQ PUSH2 0x410 JUMPI DUP1 PUSH4 0x8DA5CB5B EQ PUSH2 0x43A JUMPI DUP1 PUSH4 0x8E06B906 EQ PUSH2 0x464 JUMPI DUP1 PUSH4 0x9D41BEEF EQ PUSH2 0x4A5 JUMPI PUSH2 0x180 JUMP JUMPDEST DUP1 PUSH4 0x43CADC60 GT PUSH2 0x13D JUMPI DUP1 PUSH4 0x65994F8D GT PUSH2 0x117 JUMPI DUP1 PUSH4 0x65994F8D EQ PUSH2 0x330 JUMPI DUP1 PUSH4 0x6A0AFA45 EQ PUSH2 0x358 JUMPI DUP1 PUSH4 0x715018A6 EQ PUSH2 0x380 JUMPI DUP1 PUSH4 0x7DD9035B EQ PUSH2 0x396 JUMPI PUSH2 0x180 JUMP JUMPDEST DUP1 PUSH4 0x43CADC60 EQ PUSH2 0x29E JUMPI DUP1 PUSH4 0x5C975ABB EQ PUSH2 0x2C6 JUMPI DUP1 PUSH4 0x60864EED EQ PUSH2 0x2F0 JUMPI PUSH2 0x180 JUMP JUMPDEST DUP1 PUSH4 0x7F0A301 EQ PUSH2 0x184 JUMPI DUP1 PUSH4 0xF1419B5 EQ PUSH2 0x1C0 JUMPI DUP1 PUSH4 0x14205E28 EQ PUSH2 0x1E8 JUMPI DUP1 PUSH4 0x2D8FEFC2 EQ PUSH2 0x224 JUMPI DUP1 PUSH4 0x3B958C38 EQ PUSH2 0x24C JUMPI DUP1 PUSH4 0x439766CE EQ PUSH2 0x288 JUMPI JUMPDEST PUSH0 DUP1 REVERT JUMPDEST CALLVALUE DUP1 ISZERO PUSH2 0x18F JUMPI PUSH0 DUP1 REVERT JUMPDEST POP PUSH2 0x1AA PUSH1 0x4 DUP1 CALLDATASIZE SUB DUP2 ADD SWAP1 PUSH2 0x1A5 SWAP2 SWAP1 PUSH2 0x3EFF JUMP JUMPDEST PUSH2 0x5BF JUMP JUMPDEST PUSH1 0x40 MLOAD PUSH2 0x1B7 SWAP2 SWAP1 PUSH2 0x3F44 JUMP JUMPDEST PUSH1 0x40 MLOAD DUP1 SWAP2 SUB SWAP1 RETURN JUMPDEST CALLVALUE DUP1 ISZERO PUSH2 0x1CB JUMPI PUSH0 DUP1 REVERT JUMPDEST POP PUSH2 0x1E6 PUSH1 0x4 DUP1 CALLDATASIZE SUB DUP2 ADD SWAP1 PUSH2 0x1E1 SWAP2 SWAP1 PUSH2 0x413D JUMP JUMPDEST PUSH2 0x5DC JUMP JUMPDEST STOP JUMPDEST CALLVALUE DUP1 ISZERO PUSH2 0x1F3 JUMPI PUSH0 DUP1 REVERT JUMPDEST POP PUSH2 0x20E PUSH1 0x4 DUP1 CALLDATASIZE SUB DUP2 ADD SWAP1 PUSH2 0x209 SWAP2 SWAP1 PUSH2 0x41D0 JUMP JUMPDEST PUSH2 0xBCF JUMP JUMPDEST PUSH1 0x40 MLOAD PUSH2 0x21B SWAP2 SWAP1 PUSH2 0x420A JUMP JUMPDEST PUSH1 0x40 MLOAD DUP1 SWAP2 SUB SWAP1 RETURN JUMPDEST CALLVALUE DUP1 ISZERO PUSH2 0x22F JUMPI PUSH0 DUP1 REVERT JUMPDEST POP PUSH2 0x24A PUSH1 0x4 DUP1 CALLDATASIZE SUB DUP2 ADD SWAP1 PUSH2 0x245 SWAP2 SWAP1 PUSH2 0x425C JUMP JUMPDEST PUSH2 0xC4F JUMP JUMPDEST STOP JUMPDEST CALLVALUE DUP1 ISZERO PUSH2 0x257 JUMPI PUSH0 DUP1 REVERT JUMPDEST POP PUSH2 0x272 PUSH1 0x4 DUP1 CALLDATASIZE SUB DUP2 ADD SWAP1 PUSH2 0x26D SWAP2 SWAP1 PUSH2 0x42C0 JUMP JUMPDEST PUSH2 0x11FB JUMP JUMPDEST PUSH1 0x40 MLOAD PUSH2 0x27F SWAP2 SWAP1 PUSH2 0x44C8 JUMP JUMPDEST PUSH1 0x40 MLOAD DUP1 SWAP2 SUB SWAP1 RETURN JUMPDEST CALLVALUE DUP1 ISZERO PUSH2 0x293 JUMPI PUSH0 DUP1 REVERT JUMPDEST POP PUSH2 0x29C PUSH2 0x143C JUMP JUMPDEST STOP JUMPDEST CALLVALUE DUP1 ISZERO PUSH2 0x2A9 JUMPI PUSH0 DUP1 REVERT JUMPDEST POP PUSH2 0x2C4 PUSH1 0x4 DUP1 CALLDATASIZE SUB DUP2 ADD SWAP1 PUSH2 0x2BF SWAP2 SWAP1 PUSH2 0x44E8 JUMP JUMPDEST PUSH2 0x14DD JUMP JUMPDEST STOP JUMPDEST CALLVALUE DUP1 ISZERO PUSH2 0x2D1 JUMPI PUSH0 DUP1 REVERT JUMPDEST POP PUSH2 0x2DA PUSH2 0x1A16 JUMP JUMPDEST PUSH1 0x40 MLOAD PUSH2 0x2E7 SWAP2 SWAP1 PUSH2 0x3F44 JUMP JUMPDEST PUSH1 0x40 MLOAD DUP1 SWAP2 SUB SWAP1 RETURN JUMPDEST CALLVALUE DUP1 ISZERO PUSH2 0x2FB JUMPI PUSH0 DUP1 REVERT JUMPDEST POP PUSH2 0x316 PUSH1 0x4 DUP1 CALLDATASIZE SUB DUP2 ADD SWAP1 PUSH2 0x311 SWAP2 SWAP1 PUSH2 0x4526 JUMP JUMPDEST PUSH2 0x1A28 JUMP JUMPDEST PUSH1 0x40 MLOAD PUSH2 0x327 SWAP6 SWAP5 SWAP4 SWAP3 SWAP2 SWAP1 PUSH2 0x45DC JUMP JUMPDEST PUSH1 0x40 MLOAD DUP1 SWAP2 SUB SWAP1 RETURN JUMPDEST CALLVALUE DUP1 ISZERO PUSH2 0x33B JUMPI PUSH0 DUP1 REVERT JUMPDEST POP PUSH2 0x356 PUSH1 0x4 DUP1 CALLDATASIZE SUB DUP2 ADD SWAP1 PUSH2 0x351 SWAP2 SWAP1 PUSH2 0x41D0 JUMP JUMPDEST PUSH2 0x1B40 JUMP JUMPDEST STOP JUMPDEST CALLVALUE DUP1 ISZERO PUSH2 0x363 JUMPI PUSH0 DUP1 REVERT JUMPDEST POP PUSH2 0x37E PUSH1 0x4 DUP1 CALLDATASIZE SUB DUP2 ADD SWAP1 PUSH2 0x379 SWAP2 SWAP1 PUSH2 0x4634 JUMP JUMPDEST PUSH2 0x1C6D JUMP JUMPDEST STOP JUMPDEST CALLVALUE DUP1 ISZERO PUSH2 0x38B JUMPI PUSH0 DUP1 REVERT JUMPDEST POP PUSH2 0x394 PUSH2 0x2327 JUMP JUMPDEST STOP JUMPDEST CALLVALUE DUP1 ISZERO PUSH2 0x3A1 JUMPI PUSH0 DUP1 REVERT JUMPDEST POP PUSH2 0x3BC PUSH1 0x4 DUP1 CALLDATASIZE SUB DUP2 ADD SWAP1 PUSH2 0x3B7 SWAP2 SWAP1 PUSH2 0x46AB JUMP JUMPDEST PUSH2 0x233A JUMP JUMPDEST STOP JUMPDEST CALLVALUE DUP1 ISZERO PUSH2 0x3C9 JUMPI PUSH0 DUP1 REVERT JUMPDEST POP PUSH2 0x3E4 PUSH1 0x4 DUP1 CALLDATASIZE SUB DUP2 ADD SWAP1 PUSH2 0x3DF SWAP2 SWAP1 PUSH2 0x41D0 JUMP JUMPDEST PUSH2 0x2490 JUMP JUMPDEST STOP JUMPDEST CALLVALUE DUP1 ISZERO PUSH2 0x3F1 JUMPI PUSH0 DUP1 REVERT JUMPDEST POP PUSH2 0x3FA PUSH2 0x25BF JUMP JUMPDEST PUSH1 0x40 MLOAD PUSH2 0x407 SWAP2 SWAP1 PUSH2 0x4726 JUMP JUMPDEST PUSH1 0x40 MLOAD DUP1 SWAP2 SUB SWAP1 RETURN JUMPDEST CALLVALUE DUP1 ISZERO PUSH2 0x41B JUMPI PUSH0 DUP1 REVERT JUMPDEST POP PUSH2 0x424 PUSH2 0x25E3 JUMP JUMPDEST PUSH1 0x40 MLOAD PUSH2 0x431 SWAP2 SWAP1 PUSH2 0x420A JUMP JUMPDEST PUSH1 0x40 MLOAD DUP1 SWAP2 SUB SWAP1 RETURN JUMPDEST CALLVALUE DUP1 ISZERO PUSH2 0x445 JUMPI PUSH0 DUP1 REVERT JUMPDEST POP PUSH2 0x44E PUSH2 0x25EA JUMP JUMPDEST PUSH1 0x40 MLOAD PUSH2 0x45B SWAP2 SWAP1 PUSH2 0x473F JUMP JUMPDEST PUSH1 0x40 MLOAD DUP1 SWAP2 SUB SWAP1 RETURN JUMPDEST CALLVALUE DUP1 ISZERO PUSH2 0x46F JUMPI PUSH0 DUP1 REVERT JUMPDEST POP PUSH2 0x48A PUSH1 0x4 DUP1 CALLDATASIZE SUB DUP2 ADD SWAP1 PUSH2 0x485 SWAP2 SWAP1 PUSH2 0x4526 JUMP JUMPDEST PUSH2 0x2611 JUMP JUMPDEST PUSH1 0x40 MLOAD PUSH2 0x49C SWAP7 SWAP6 SWAP5 SWAP4 SWAP3 SWAP2 SWAP1 PUSH2 0x4758 JUMP JUMPDEST PUSH1 0x40 MLOAD DUP1 SWAP2 SUB SWAP1 RETURN JUMPDEST PUSH2 0x4BF PUSH1 0x4 DUP1 CALLDATASIZE SUB DUP2 ADD SWAP1 PUSH2 0x4BA SWAP2 SWAP1 PUSH2 0x47BE JUMP JUMPDEST PUSH2 0x273B JUMP JUMPDEST STOP JUMPDEST CALLVALUE DUP1 ISZERO PUSH2 0x4CC JUMPI PUSH0 DUP1 REVERT JUMPDEST POP PUSH2 0x4D5 PUSH2 0x2B55 JUMP JUMPDEST PUSH1 0x40 MLOAD PUSH2 0x4E2 SWAP2 SWAP1 PUSH2 0x4726 JUMP JUMPDEST PUSH1 0x40 MLOAD DUP1 SWAP2 SUB SWAP1 RETURN JUMPDEST CALLVALUE DUP1 ISZERO PUSH2 0x4F6 JUMPI PUSH0 DUP1 REVERT JUMPDEST POP PUSH2 0x4FF PUSH2 0x2B79 JUMP JUMPDEST STOP JUMPDEST CALLVALUE DUP1 ISZERO PUSH2 0x50C JUMPI PUSH0 DUP1 REVERT JUMPDEST POP PUSH2 0x527 PUSH1 0x4 DUP1 CALLDATASIZE SUB DUP2 ADD SWAP1 PUSH2 0x522 SWAP2 SWAP1 PUSH2 0x4854 JUMP JUMPDEST PUSH2 0x2C18 JUMP JUMPDEST STOP JUMPDEST CALLVALUE DUP1 ISZERO PUSH2 0x534 JUMPI PUSH0 DUP1 REVERT JUMPDEST POP PUSH2 0x54F PUSH1 0x4 DUP1 CALLDATASIZE SUB DUP2 ADD SWAP1 PUSH2 0x54A SWAP2 SWAP1 PUSH2 0x48B8 JUMP JUMPDEST PUSH2 0x32A2 JUMP JUMPDEST STOP JUMPDEST PUSH2 0x56B PUSH1 0x4 DUP1 CALLDATASIZE SUB DUP2 ADD SWAP1 PUSH2 0x566 SWAP2 SWAP1 PUSH2 0x4908 JUMP JUMPDEST PUSH2 0x352A JUMP JUMPDEST STOP JUMPDEST CALLVALUE DUP1 ISZERO PUSH2 0x578 JUMPI PUSH0 DUP1 REVERT JUMPDEST POP PUSH2 0x593 PUSH1 0x4 DUP1 CALLDATASIZE SUB DUP2 ADD SWAP1 PUSH2 0x58E SWAP2 SWAP1 PUSH2 0x3EFF JUMP JUMPDEST PUSH2 0x38EA JUMP JUMPDEST STOP JUMPDEST CALLVALUE DUP1 ISZERO PUSH2 0x5A0 JUMPI PUSH0 DUP1 REVERT JUMPDEST POP PUSH2 0x5A9 PUSH2 0x396E JUMP JUMPDEST PUSH1 0x40 MLOAD PUSH2 0x5B6 SWAP2 SWAP1 PUSH2 0x420A JUMP JUMPDEST PUSH1 0x40 MLOAD DUP1 SWAP2 SUB SWAP1 RETURN JUMPDEST PUSH1 0x5 PUSH1 0x20 MSTORE DUP1 PUSH0 MSTORE PUSH1 0x40 PUSH0 KECCAK256 PUSH0 SWAP2 POP SLOAD SWAP1 PUSH2 0x100 EXP SWAP1 DIV PUSH1 0xFF AND DUP2 JUMP JUMPDEST PUSH2 0x5E4 PUSH2 0x3992 JUMP JUMPDEST PUSH1 0x2 PUSH0 SWAP1 SLOAD SWAP1 PUSH2 0x100 EXP SWAP1 DIV PUSH1 0xFF AND ISZERO PUSH2 0x62A JUMPI PUSH1 0x40 MLOAD PUSH32 0x94DA9AE700000000000000000000000000000000000000000000000000000000 DUP2 MSTORE PUSH1 0x4 ADD PUSH1 0x40 MLOAD DUP1 SWAP2 SUB SWAP1 REVERT JUMPDEST DUP3 PUSH0 DUP2 PUSH1 0xFF AND GT ISZERO DUP1 PUSH2 0x640 JUMPI POP PUSH1 0x4 DUP2 PUSH1 0xFF AND GT JUMPDEST ISZERO PUSH2 0x677 JUMPI PUSH1 0x40 MLOAD PUSH32 0x41E7BB4F00000000000000000000000000000000000000000000000000000000 DUP2 MSTORE PUSH1 0x4 ADD PUSH1 0x40 MLOAD DUP1 SWAP2 SUB SWAP1 REVERT JUMPDEST DUP3 PUSH0 DUP2 EQ DUP1 PUSH2 0x6A5 JUMPI POP PUSH32 0x0 DUP2 GT JUMPDEST ISZERO PUSH2 0x6DC JUMPI PUSH1 0x40 MLOAD PUSH32 0x2A82A34F00000000000000000000000000000000000000000000000000000000 DUP2 MSTORE PUSH1 0x4 ADD PUSH1 0x40 MLOAD DUP1 SWAP2 SUB SWAP1 REVERT JUMPDEST PUSH0 PUSH1 0x3 PUSH0 CALLER PUSH20 0xFFFFFFFFFFFFFFFFFFFFFFFFFFFFFFFFFFFFFFFF AND PUSH20 0xFFFFFFFFFFFFFFFFFFFFFFFFFFFFFFFFFFFFFFFF AND DUP2 MSTORE PUSH1 0x20 ADD SWAP1 DUP2 MSTORE PUSH1 0x20 ADD PUSH0 KECCAK256 PUSH0 DUP8 PUSH1 0xFF AND PUSH1 0xFF AND DUP2 MSTORE PUSH1 0x20 ADD SWAP1 DUP2 MSTORE PUSH1 0x20 ADD PUSH0 KECCAK256 DUP1 SLOAD SWAP1 POP SWAP1 POP PUSH32 0x0 PUSH1 0xFF AND DUP2 LT PUSH2 0x791 JUMPI PUSH1 0x40 MLOAD PUSH32 0xA0C5191F00000000000000000000000000000000000000000000000000000000 DUP2 MSTORE PUSH1 0x4 ADD PUSH1 0x40 MLOAD DUP1 SWAP2 SUB SWAP1 REVERT JUMPDEST PUSH0 PUSH20 0xFFFFFFFFFFFFFFFFFFFFFFFFFFFFFFFFFFFFFFFF AND DUP9 PUSH20 0xFFFFFFFFFFFFFFFFFFFFFFFFFFFFFFFFFFFFFFFF AND SUB PUSH2 0x801 JUMPI DUP8 PUSH1 0x40 MLOAD PUSH32 0x7330680300000000000000000000000000000000000000000000000000000000 DUP2 MSTORE PUSH1 0x4 ADD PUSH2 0x7F8 SWAP2 SWAP1 PUSH2 0x473F JUMP JUMPDEST PUSH1 0x40 MLOAD DUP1 SWAP2 SUB SWAP1 REVERT JUMPDEST PUSH1 0x5 PUSH0 DUP10 PUSH20 0xFFFFFFFFFFFFFFFFFFFFFFFFFFFFFFFFFFFFFFFF AND PUSH20 0xFFFFFFFFFFFFFFFFFFFFFFFFFFFFFFFFFFFFFFFF AND DUP2 MSTORE PUSH1 0x20 ADD SWAP1 DUP2 MSTORE PUSH1 0x20 ADD PUSH0 KECCAK256 PUSH0 SWAP1 SLOAD SWAP1 PUSH2 0x100 EXP SWAP1 DIV PUSH1 0xFF AND ISZERO PUSH2 0x88D JUMPI DUP8 PUSH1 0x40 MLOAD PUSH32 0xDAE5670900000000000000000000000000000000000000000000000000000000 DUP2 MSTORE PUSH1 0x4 ADD PUSH2 0x884 SWAP2 SWAP1 PUSH2 0x473F JUMP JUMPDEST PUSH1 0x40 MLOAD DUP1 SWAP2 SUB SWAP1 REVERT JUMPDEST PUSH0 DUP8 GT PUSH2 0x8C6 JUMPI PUSH1 0x40 MLOAD PUSH32 0xE4910D5800000000000000000000000000000000000000000000000000000000 DUP2 MSTORE PUSH1 0x4 ADD PUSH1 0x40 MLOAD DUP1 SWAP2 SUB SWAP1 REVERT JUMPDEST PUSH0 DUP9 PUSH20 0xFFFFFFFFFFFFFFFFFFFFFFFFFFFFFFFFFFFFFFFF AND PUSH4 0x70A08231 CALLER PUSH1 0x40 MLOAD DUP3 PUSH4 0xFFFFFFFF AND PUSH1 0xE0 SHL DUP2 MSTORE PUSH1 0x4 ADD PUSH2 0x900 SWAP2 SWAP1 PUSH2 0x473F JUMP JUMPDEST PUSH1 0x20 PUSH1 0x40 MLOAD DUP1 DUP4 SUB DUP2 DUP7 GAS STATICCALL ISZERO DUP1 ISZERO PUSH2 0x91B JUMPI RETURNDATASIZE PUSH0 DUP1 RETURNDATACOPY RETURNDATASIZE PUSH0 REVERT JUMPDEST POP POP POP POP PUSH1 0x40 MLOAD RETURNDATASIZE PUSH1 0x1F NOT PUSH1 0x1F DUP3 ADD AND DUP3 ADD DUP1 PUSH1 0x40 MSTORE POP DUP2 ADD SWAP1 PUSH2 0x93F SWAP2 SWAP1 PUSH2 0x495A JUMP JUMPDEST SWAP1 POP DUP1 DUP9 GT ISZERO PUSH2 0x986 JUMPI DUP9 PUSH1 0x40 MLOAD PUSH32 0xE3AEA5E600000000000000000000000000000000000000000000000000000000 DUP2 MSTORE PUSH1 0x4 ADD PUSH2 0x97D SWAP2 SWAP1 PUSH2 0x473F JUMP JUMPDEST PUSH1 0x40 MLOAD DUP1 SWAP2 SUB SWAP1 REVERT JUMPDEST PUSH2 0x9B3 CALLER ADDRESS DUP11 DUP13 PUSH20 0xFFFFFFFFFFFFFFFFFFFFFFFFFFFFFFFFFFFFFFFF AND PUSH2 0x39D8 SWAP1 SWAP4 SWAP3 SWAP2 SWAP1 PUSH4 0xFFFFFFFF AND JUMP JUMPDEST PUSH1 0x3 PUSH0 CALLER PUSH20 0xFFFFFFFFFFFFFFFFFFFFFFFFFFFFFFFFFFFFFFFF AND PUSH20 0xFFFFFFFFFFFFFFFFFFFFFFFFFFFFFFFFFFFFFFFF AND DUP2 MSTORE PUSH1 0x20 ADD SWAP1 DUP2 MSTORE PUSH1 0x20 ADD PUSH0 KECCAK256 PUSH0 DUP9 PUSH1 0xFF AND PUSH1 0xFF AND DUP2 MSTORE PUSH1 0x20 ADD SWAP1 DUP2 MSTORE PUSH1 0x20 ADD PUSH0 KECCAK256 PUSH1 0x40 MLOAD DUP1 PUSH1 0xC0 ADD PUSH1 0x40 MSTORE DUP1 DUP12 PUSH20 0xFFFFFFFFFFFFFFFFFFFFFFFFFFFFFFFFFFFFFFFF AND DUP2 MSTORE PUSH1 0x20 ADD DUP11 DUP2 MSTORE PUSH1 0x20 ADD DUP9 TIMESTAMP PUSH2 0xA3E SWAP2 SWAP1 PUSH2 0x49B2 JUMP JUMPDEST PUSH4 0xFFFFFFFF AND DUP2 MSTORE PUSH1 0x20 ADD DUP8 DUP2 MSTORE PUSH1 0x20 ADD PUSH0 ISZERO ISZERO DUP2 MSTORE PUSH1 0x20 ADD PUSH0 ISZERO ISZERO DUP2 MSTORE POP SWAP1 DUP1 PUSH1 0x1 DUP2 SLOAD ADD DUP1 DUP3 SSTORE DUP1 SWAP2 POP POP PUSH1 0x1 SWAP1 SUB SWAP1 PUSH0 MSTORE PUSH1 0x20 PUSH0 KECCAK256 SWAP1 PUSH1 0x5 MUL ADD PUSH0 SWAP1 SWAP2 SWAP1 SWAP2 SWAP1 SWAP2 POP PUSH0 DUP3 ADD MLOAD DUP2 PUSH0 ADD PUSH0 PUSH2 0x100 EXP DUP2 SLOAD DUP2 PUSH20 0xFFFFFFFFFFFFFFFFFFFFFFFFFFFFFFFFFFFFFFFF MUL NOT AND SWAP1 DUP4 PUSH20 0xFFFFFFFFFFFFFFFFFFFFFFFFFFFFFFFFFFFFFFFF AND MUL OR SWAP1 SSTORE POP PUSH1 0x20 DUP3 ADD MLOAD DUP2 PUSH1 0x1 ADD SSTORE PUSH1 0x40 DUP3 ADD MLOAD DUP2 PUSH1 0x2 ADD PUSH0 PUSH2 0x100 EXP DUP2 SLOAD DUP2 PUSH4 0xFFFFFFFF MUL NOT AND SWAP1 DUP4 PUSH4 0xFFFFFFFF AND MUL OR SWAP1 SSTORE POP PUSH1 0x60 DUP3 ADD MLOAD DUP2 PUSH1 0x3 ADD SWAP1 DUP2 PUSH2 0xB0C SWAP2 SWAP1 PUSH2 0x4BDF JUMP JUMPDEST POP PUSH1 0x80 DUP3 ADD MLOAD DUP2 PUSH1 0x4 ADD PUSH0 PUSH2 0x100 EXP DUP2 SLOAD DUP2 PUSH1 0xFF MUL NOT AND SWAP1 DUP4 ISZERO ISZERO MUL OR SWAP1 SSTORE POP PUSH1 0xA0 DUP3 ADD MLOAD DUP2 PUSH1 0x4 ADD PUSH1 0x1 PUSH2 0x100 EXP DUP2 SLOAD DUP2 PUSH1 0xFF MUL NOT AND SWAP1 DUP4 ISZERO ISZERO MUL OR SWAP1 SSTORE POP POP POP PUSH2 0xB5B DUP10 DUP9 DUP11 DUP9 PUSH0 PUSH2 0x3A5A JUMP JUMPDEST DUP9 PUSH20 0xFFFFFFFFFFFFFFFFFFFFFFFFFFFFFFFFFFFFFFFF AND PUSH32 0x93C7F7D807630C520B9271E8FB715ABFCCA1D19DAAD1FC4A8B291B82EA518B67 DUP10 DUP8 DUP11 DUP11 TIMESTAMP PUSH2 0xBA2 SWAP2 SWAP1 PUSH2 0x49B2 JUMP JUMPDEST TIMESTAMP PUSH1 0x40 MLOAD PUSH2 0xBB4 SWAP6 SWAP5 SWAP4 SWAP3 SWAP2 SWAP1 PUSH2 0x4CAE JUMP JUMPDEST PUSH1 0x40 MLOAD DUP1 SWAP2 SUB SWAP1 LOG2 POP POP POP POP PUSH2 0xBC8 PUSH2 0x3BCA JUMP JUMPDEST POP POP POP POP POP JUMP JUMPDEST PUSH0 DUP2 PUSH20 0xFFFFFFFFFFFFFFFFFFFFFFFFFFFFFFFFFFFFFFFF AND PUSH4 0x70A08231 ADDRESS PUSH1 0x40 MLOAD DUP3 PUSH4 0xFFFFFFFF AND PUSH1 0xE0 SHL DUP2 MSTORE PUSH1 0x4 ADD PUSH2 0xC09 SWAP2 SWAP1 PUSH2 0x473F JUMP JUMPDEST PUSH1 0x20 PUSH1 0x40 MLOAD DUP1 DUP4 SUB DUP2 DUP7 GAS STATICCALL ISZERO DUP1 ISZERO PUSH2 0xC24 JUMPI RETURNDATASIZE PUSH0 DUP1 RETURNDATACOPY RETURNDATASIZE PUSH0 REVERT JUMPDEST POP POP POP POP PUSH1 0x40 MLOAD RETURNDATASIZE PUSH1 0x1F NOT PUSH1 0x1F DUP3 ADD AND DUP3 ADD DUP1 PUSH1 0x40 MSTORE POP DUP2 ADD SWAP1 PUSH2 0xC48 SWAP2 SWAP1 PUSH2 0x495A JUMP JUMPDEST SWAP1 POP SWAP2 SWAP1 POP JUMP JUMPDEST PUSH2 0xC57 PUSH2 0x3992 JUMP JUMPDEST PUSH1 0x2 PUSH0 SWAP1 SLOAD SWAP1 PUSH2 0x100 EXP SWAP1 DIV PUSH1 0xFF AND ISZERO PUSH2 0xC9D JUMPI PUSH1 0x40 MLOAD PUSH32 0x94DA9AE700000000000000000000000000000000000000000000000000000000 DUP2 MSTORE PUSH1 0x4 ADD PUSH1 0x40 MLOAD DUP1 SWAP2 SUB SWAP1 REVERT JUMPDEST DUP1 PUSH0 DUP2 PUSH1 0xFF AND GT ISZERO DUP1 PUSH2 0xCB3 JUMPI POP PUSH1 0x4 DUP2 PUSH1 0xFF AND GT JUMPDEST ISZERO PUSH2 0xCEA JUMPI PUSH1 0x40 MLOAD PUSH32 0x41E7BB4F00000000000000000000000000000000000000000000000000000000 DUP2 MSTORE PUSH1 0x4 ADD PUSH1 0x40 MLOAD DUP1 SWAP2 SUB SWAP1 REVERT JUMPDEST PUSH0 PUSH20 0xFFFFFFFFFFFFFFFFFFFFFFFFFFFFFFFFFFFFFFFF AND DUP6 PUSH20 0xFFFFFFFFFFFFFFFFFFFFFFFFFFFFFFFFFFFFFFFF AND SUB PUSH2 0xD5A JUMPI DUP5 PUSH1 0x40 MLOAD PUSH32 0x7330680300000000000000000000000000000000000000000000000000000000 DUP2 MSTORE PUSH1 0x4 ADD PUSH2 0xD51 SWAP2 SWAP1 PUSH2 0x473F JUMP JUMPDEST PUSH1 0x40 MLOAD DUP1 SWAP2 SUB SWAP1 REVERT JUMPDEST PUSH1 0x5 PUSH0 DUP7 PUSH20 0xFFFFFFFFFFFFFFFFFFFFFFFFFFFFFFFFFFFFFFFF AND PUSH20 0xFFFFFFFFFFFFFFFFFFFFFFFFFFFFFFFFFFFFFFFF AND DUP2 MSTORE PUSH1 0x20 ADD SWAP1 DUP2 MSTORE PUSH1 0x20 ADD PUSH0 KECCAK256 PUSH0 SWAP1 SLOAD SWAP1 PUSH2 0x100 EXP SWAP1 DIV PUSH1 0xFF AND ISZERO PUSH2 0xDE6 JUMPI DUP5 PUSH1 0x40 MLOAD PUSH32 0xDAE5670900000000000000000000000000000000000000000000000000000000 DUP2 MSTORE PUSH1 0x4 ADD PUSH2 0xDDD SWAP2 SWAP1 PUSH2 0x473F JUMP JUMPDEST PUSH1 0x40 MLOAD DUP1 SWAP2 SUB SWAP1 REVERT JUMPDEST PUSH0 DUP4 GT PUSH2 0xE1F JUMPI PUSH1 0x40 MLOAD PUSH32 0xE4910D5800000000000000000000000000000000000000000000000000000000 DUP2 MSTORE PUSH1 0x4 ADD PUSH1 0x40 MLOAD DUP1 SWAP2 SUB SWAP1 REVERT JUMPDEST PUSH1 0x3 PUSH0 CALLER PUSH20 0xFFFFFFFFFFFFFFFFFFFFFFFFFFFFFFFFFFFFFFFF AND PUSH20 0xFFFFFFFFFFFFFFFFFFFFFFFFFFFFFFFFFFFFFFFF AND DUP2 MSTORE PUSH1 0x20 ADD SWAP1 DUP2 MSTORE PUSH1 0x20 ADD PUSH0 KECCAK256 PUSH0 DUP4 PUSH1 0xFF AND PUSH1 0xFF AND DUP2 MSTORE PUSH1 0x20 ADD SWAP1 DUP2 MSTORE PUSH1 0x20 ADD PUSH0 KECCAK256 DUP1 SLOAD SWAP1 POP DUP5 PUSH4 0xFFFFFFFF AND GT ISZERO PUSH2 0xEB4 JUMPI PUSH1 0x40 MLOAD PUSH32 0x43B88A3000000000000000000000000000000000000000000000000000000000 DUP2 MSTORE PUSH1 0x4 ADD PUSH1 0x40 MLOAD DUP1 SWAP2 SUB SWAP1 REVERT JUMPDEST PUSH0 PUSH1 0x3 PUSH0 CALLER PUSH20 0xFFFFFFFFFFFFFFFFFFFFFFFFFFFFFFFFFFFFFFFF AND PUSH20 0xFFFFFFFFFFFFFFFFFFFFFFFFFFFFFFFFFFFFFFFF AND DUP2 MSTORE PUSH1 0x20 ADD SWAP1 DUP2 MSTORE PUSH1 0x20 ADD PUSH0 KECCAK256 PUSH0 DUP5 PUSH1 0xFF AND PUSH1 0xFF AND DUP2 MSTORE PUSH1 0x20 ADD SWAP1 DUP2 MSTORE PUSH1 0x20 ADD PUSH0 KECCAK256 DUP6 PUSH4 0xFFFFFFFF AND DUP2 SLOAD DUP2 LT PUSH2 0xF1F JUMPI PUSH2 0xF1E PUSH2 0x4D06 JUMP JUMPDEST JUMPDEST SWAP1 PUSH0 MSTORE PUSH1 0x20 PUSH0 KECCAK256 SWAP1 PUSH1 0x5 MUL ADD SWAP1 POP TIMESTAMP DUP2 PUSH1 0x2 ADD PUSH0 SWAP1 SLOAD SWAP1 PUSH2 0x100 EXP SWAP1 DIV PUSH4 0xFFFFFFFF AND PUSH4 0xFFFFFFFF AND LT ISZERO PUSH2 0xF80 JUMPI PUSH1 0x40 MLOAD PUSH32 0xA3F3D8B900000000000000000000000000000000000000000000000000000000 DUP2 MSTORE PUSH1 0x4 ADD PUSH1 0x40 MLOAD DUP1 SWAP2 SUB SWAP1 REVERT JUMPDEST PUSH0 DUP7 PUSH20 0xFFFFFFFFFFFFFFFFFFFFFFFFFFFFFFFFFFFFFFFF AND PUSH4 0x70A08231 CALLER PUSH1 0x40 MLOAD DUP3 PUSH4 0xFFFFFFFF AND PUSH1 0xE0 SHL DUP2 MSTORE PUSH1 0x4 ADD PUSH2 0xFBA SWAP2 SWAP1 PUSH2 0x473F JUMP JUMPDEST PUSH1 0x20 PUSH1 0x40 MLOAD DUP1 DUP4 SUB DUP2 DUP7 GAS STATICCALL ISZERO DUP1 ISZERO PUSH2 0xFD5 JUMPI RETURNDATASIZE PUSH0 DUP1 RETURNDATACOPY RETURNDATASIZE PUSH0 REVERT JUMPDEST POP POP POP POP PUSH1 0x40 MLOAD RETURNDATASIZE PUSH1 0x1F NOT PUSH1 0x1F DUP3 ADD AND DUP3 ADD DUP1 PUSH1 0x40 MSTORE POP DUP2 ADD SWAP1 PUSH2 0xFF9 SWAP2 SWAP1 PUSH2 0x495A JUMP JUMPDEST SWAP1 POP DUP1 DUP6 GT ISZERO PUSH2 0x1040 JUMPI DUP7 PUSH1 0x40 MLOAD PUSH32 0xE3AEA5E600000000000000000000000000000000000000000000000000000000 DUP2 MSTORE PUSH1 0x4 ADD PUSH2 0x1037 SWAP2 SWAP1 PUSH2 0x473F JUMP JUMPDEST PUSH1 0x40 MLOAD DUP1 SWAP2 SUB SWAP1 REVERT JUMPDEST PUSH2 0x106D CALLER ADDRESS DUP8 DUP11 PUSH20 0xFFFFFFFFFFFFFFFFFFFFFFFFFFFFFFFFFFFFFFFF AND PUSH2 0x39D8 SWAP1 SWAP4 SWAP3 SWAP2 SWAP1 PUSH4 0xFFFFFFFF AND JUMP JUMPDEST DUP5 PUSH1 0x3 PUSH0 CALLER PUSH20 0xFFFFFFFFFFFFFFFFFFFFFFFFFFFFFFFFFFFFFFFF AND PUSH20 0xFFFFFFFFFFFFFFFFFFFFFFFFFFFFFFFFFFFFFFFF AND DUP2 MSTORE PUSH1 0x20 ADD SWAP1 DUP2 MSTORE PUSH1 0x20 ADD PUSH0 KECCAK256 PUSH0 DUP7 PUSH1 0xFF AND PUSH1 0xFF AND DUP2 MSTORE PUSH1 0x20 ADD SWAP1 DUP2 MSTORE PUSH1 0x20 ADD PUSH0 KECCAK256 DUP8 PUSH4 0xFFFFFFFF AND DUP2 SLOAD DUP2 LT PUSH2 0x10D8 JUMPI PUSH2 0x10D7 PUSH2 0x4D06 JUMP JUMPDEST JUMPDEST SWAP1 PUSH0 MSTORE PUSH1 0x20 PUSH0 KECCAK256 SWAP1 PUSH1 0x5 MUL ADD PUSH1 0x1 ADD PUSH0 DUP3 DUP3 SLOAD PUSH2 0x10F5 SWAP2 SWAP1 PUSH2 0x49B2 JUMP JUMPDEST SWAP3 POP POP DUP2 SWAP1 SSTORE POP PUSH2 0x1193 DUP8 DUP6 DUP8 DUP6 PUSH1 0x3 ADD DUP1 SLOAD PUSH2 0x1111 SWAP1 PUSH2 0x4A12 JUMP JUMPDEST DUP1 PUSH1 0x1F ADD PUSH1 0x20 DUP1 SWAP2 DIV MUL PUSH1 0x20 ADD PUSH1 0x40 MLOAD SWAP1 DUP2 ADD PUSH1 0x40 MSTORE DUP1 SWAP3 SWAP2 SWAP1 DUP2 DUP2 MSTORE PUSH1 0x20 ADD DUP3 DUP1 SLOAD PUSH2 0x113D SWAP1 PUSH2 0x4A12 JUMP JUMPDEST DUP1 ISZERO PUSH2 0x1188 JUMPI DUP1 PUSH1 0x1F LT PUSH2 0x115F JUMPI PUSH2 0x100 DUP1 DUP4 SLOAD DIV MUL DUP4 MSTORE SWAP2 PUSH1 0x20 ADD SWAP2 PUSH2 0x1188 JUMP JUMPDEST DUP3 ADD SWAP2 SWAP1 PUSH0 MSTORE PUSH1 0x20 PUSH0 KECCAK256 SWAP1 JUMPDEST DUP2 SLOAD DUP2 MSTORE SWAP1 PUSH1 0x1 ADD SWAP1 PUSH1 0x20 ADD DUP1 DUP4 GT PUSH2 0x116B JUMPI DUP3 SWAP1 SUB PUSH1 0x1F AND DUP3 ADD SWAP2 JUMPDEST POP POP POP POP POP PUSH0 PUSH2 0x3A5A JUMP JUMPDEST DUP7 PUSH20 0xFFFFFFFFFFFFFFFFFFFFFFFFFFFFFFFFFFFFFFFF AND PUSH32 0xA62FA334755456EFC7EABEC03287391ABE4998E298B5D3B4A3EABC34FD5F800B DUP7 DUP5 PUSH1 0x3 ADD DUP8 TIMESTAMP PUSH1 0x40 MLOAD PUSH2 0x11E2 SWAP5 SWAP4 SWAP3 SWAP2 SWAP1 PUSH2 0x4DB4 JUMP JUMPDEST PUSH1 0x40 MLOAD DUP1 SWAP2 SUB SWAP1 LOG2 POP POP POP PUSH2 0x11F5 PUSH2 0x3BCA JUMP JUMPDEST POP POP POP POP JUMP JUMPDEST PUSH1 0x60 PUSH0 DUP3 PUSH1 0xFF AND LT DUP1 PUSH2 0x1211 JUMPI POP PUSH1 0x4 DUP3 PUSH1 0xFF AND GT JUMPDEST ISZERO PUSH2 0x1248 JUMPI PUSH1 0x40 MLOAD PUSH32 0x41E7BB4F00000000000000000000000000000000000000000000000000000000 DUP2 MSTORE PUSH1 0x4 ADD PUSH1 0x40 MLOAD DUP1 SWAP2 SUB SWAP1 REVERT JUMPDEST PUSH1 0x3 PUSH0 CALLER PUSH20 0xFFFFFFFFFFFFFFFFFFFFFFFFFFFFFFFFFFFFFFFF AND PUSH20 0xFFFFFFFFFFFFFFFFFFFFFFFFFFFFFFFFFFFFFFFF AND DUP2 MSTORE PUSH1 0x20 ADD SWAP1 DUP2 MSTORE PUSH1 0x20 ADD PUSH0 KECCAK256 PUSH0 DUP4 PUSH1 0xFF AND PUSH1 0xFF AND DUP2 MSTORE PUSH1 0x20 ADD SWAP1 DUP2 MSTORE PUSH1 0x20 ADD PUSH0 KECCAK256 DUP1 SLOAD DUP1 PUSH1 0x20 MUL PUSH1 0x20 ADD PUSH1 0x40 MLOAD SWAP1 DUP2 ADD PUSH1 0x40 MSTORE DUP1 SWAP3 SWAP2 SWAP1 DUP2 DUP2 MSTORE PUSH1 0x20 ADD PUSH0 SWAP1 JUMPDEST DUP3 DUP3 LT ISZERO PUSH2 0x1431 JUMPI DUP4 DUP3 SWAP1 PUSH0 MSTORE PUSH1 0x20 PUSH0 KECCAK256 SWAP1 PUSH1 0x5 MUL ADD PUSH1 0x40 MLOAD DUP1 PUSH1 0xC0 ADD PUSH1 0x40 MSTORE SWAP1 DUP2 PUSH0 DUP3 ADD PUSH0 SWAP1 SLOAD SWAP1 PUSH2 0x100 EXP SWAP1 DIV PUSH20 0xFFFFFFFFFFFFFFFFFFFFFFFFFFFFFFFFFFFFFFFF AND PUSH20 0xFFFFFFFFFFFFFFFFFFFFFFFFFFFFFFFFFFFFFFFF AND PUSH20 0xFFFFFFFFFFFFFFFFFFFFFFFFFFFFFFFFFFFFFFFF AND DUP2 MSTORE PUSH1 0x20 ADD PUSH1 0x1 DUP3 ADD SLOAD DUP2 MSTORE PUSH1 0x20 ADD PUSH1 0x2 DUP3 ADD PUSH0 SWAP1 SLOAD SWAP1 PUSH2 0x100 EXP SWAP1 DIV PUSH4 0xFFFFFFFF AND PUSH4 0xFFFFFFFF AND PUSH4 0xFFFFFFFF AND DUP2 MSTORE PUSH1 0x20 ADD PUSH1 0x3 DUP3 ADD DUP1 SLOAD PUSH2 0x136D SWAP1 PUSH2 0x4A12 JUMP JUMPDEST DUP1 PUSH1 0x1F ADD PUSH1 0x20 DUP1 SWAP2 DIV MUL PUSH1 0x20 ADD PUSH1 0x40 MLOAD SWAP1 DUP2 ADD PUSH1 0x40 MSTORE DUP1 SWAP3 SWAP2 SWAP1 DUP2 DUP2 MSTORE PUSH1 0x20 ADD DUP3 DUP1 SLOAD PUSH2 0x1399 SWAP1 PUSH2 0x4A12 JUMP JUMPDEST DUP1 ISZERO PUSH2 0x13E4 JUMPI DUP1 PUSH1 0x1F LT PUSH2 0x13BB JUMPI PUSH2 0x100 DUP1 DUP4 SLOAD DIV MUL DUP4 MSTORE SWAP2 PUSH1 0x20 ADD SWAP2 PUSH2 0x13E4 JUMP JUMPDEST DUP3 ADD SWAP2 SWAP1 PUSH0 MSTORE PUSH1 0x20 PUSH0 KECCAK256 SWAP1 JUMPDEST DUP2 SLOAD DUP2 MSTORE SWAP1 PUSH1 0x1 ADD SWAP1 PUSH1 0x20 ADD DUP1 DUP4 GT PUSH2 0x13C7 JUMPI DUP3 SWAP1 SUB PUSH1 0x1F AND DUP3 ADD SWAP2 JUMPDEST POP POP POP POP POP DUP2 MSTORE PUSH1 0x20 ADD PUSH1 0x4 DUP3 ADD PUSH0 SWAP1 SLOAD SWAP1 PUSH2 0x100 EXP SWAP1 DIV PUSH1 0xFF AND ISZERO ISZERO ISZERO ISZERO DUP2 MSTORE PUSH1 0x20 ADD PUSH1 0x4 DUP3 ADD PUSH1 0x1 SWAP1 SLOAD SWAP1 PUSH2 0x100 EXP SWAP1 DIV PUSH1 0xFF AND ISZERO ISZERO ISZERO ISZERO DUP2 MSTORE POP POP DUP2 MSTORE PUSH1 0x20 ADD SWAP1 PUSH1 0x1 ADD SWAP1 PUSH2 0x12B9 JUMP JUMPDEST POP POP POP POP SWAP1 POP SWAP2 SWAP1 POP JUMP JUMPDEST PUSH2 0x1444 PUSH2 0x3BD3 JUMP JUMPDEST PUSH1 0x2 PUSH0 SWAP1 SLOAD SWAP1 PUSH2 0x100 EXP SWAP1 DIV PUSH1 0xFF AND ISZERO PUSH2 0x148A JUMPI PUSH1 0x40 MLOAD PUSH32 0x94DA9AE700000000000000000000000000000000000000000000000000000000 DUP2 MSTORE PUSH1 0x4 ADD PUSH1 0x40 MLOAD DUP1 SWAP2 SUB SWAP1 REVERT JUMPDEST PUSH1 0x1 PUSH1 0x2 PUSH0 PUSH2 0x100 EXP DUP2 SLOAD DUP2 PUSH1 0xFF MUL NOT AND SWAP1 DUP4 ISZERO ISZERO MUL OR SWAP1 SSTORE POP PUSH32 0xF4EFD1D09D98FCA0AF22A3204FC0C7B3E00560C4B3D54FA36EB1626FF50ACCA0 TIMESTAMP PUSH1 0x40 MLOAD PUSH2 0x14D3 SWAP2 SWAP1 PUSH2 0x4DFE JUMP JUMPDEST PUSH1 0x40 MLOAD DUP1 SWAP2 SUB SWAP1 LOG1 JUMP JUMPDEST PUSH1 0x3 PUSH0 CALLER PUSH20 0xFFFFFFFFFFFFFFFFFFFFFFFFFFFFFFFFFFFFFFFF AND PUSH20 0xFFFFFFFFFFFFFFFFFFFFFFFFFFFFFFFFFFFFFFFF AND DUP2 MSTORE PUSH1 0x20 ADD SWAP1 DUP2 MSTORE PUSH1 0x20 ADD PUSH0 KECCAK256 PUSH0 DUP4 PUSH1 0xFF AND PUSH1 0xFF AND DUP2 MSTORE PUSH1 0x20 ADD SWAP1 DUP2 MSTORE PUSH1 0x20 ADD PUSH0 KECCAK256 DUP1 SLOAD SWAP1 POP DUP2 PUSH1 0xFF AND GT ISZERO PUSH2 0x156F JUMPI PUSH1 0x40 MLOAD PUSH32 0x43B88A3000000000000000000000000000000000000000000000000000000000 DUP2 MSTORE PUSH1 0x4 ADD PUSH1 0x40 MLOAD DUP1 SWAP2 SUB SWAP1 REVERT JUMPDEST PUSH0 PUSH1 0x3 PUSH0 CALLER PUSH20 0xFFFFFFFFFFFFFFFFFFFFFFFFFFFFFFFFFFFFFFFF AND PUSH20 0xFFFFFFFFFFFFFFFFFFFFFFFFFFFFFFFFFFFFFFFF AND DUP2 MSTORE PUSH1 0x20 ADD SWAP1 DUP2 MSTORE PUSH1 0x20 ADD PUSH0 KECCAK256 PUSH0 DUP5 PUSH1 0xFF AND PUSH1 0xFF AND DUP2 MSTORE PUSH1 0x20 ADD SWAP1 DUP2 MSTORE PUSH1 0x20 ADD PUSH0 KECCAK256 DUP3 PUSH1 0xFF AND DUP2 SLOAD DUP2 LT PUSH2 0x15D7 JUMPI PUSH2 0x15D6 PUSH2 0x4D06 JUMP JUMPDEST JUMPDEST SWAP1 PUSH0 MSTORE PUSH1 0x20 PUSH0 KECCAK256 SWAP1 PUSH1 0x5 MUL ADD SWAP1 POP TIMESTAMP DUP2 PUSH1 0x2 ADD PUSH0 SWAP1 SLOAD SWAP1 PUSH2 0x100 EXP SWAP1 DIV PUSH4 0xFFFFFFFF AND PUSH4 0xFFFFFFFF AND GT ISZERO PUSH2 0x1638 JUMPI PUSH1 0x40 MLOAD PUSH32 0xF594DA3400000000000000000000000000000000000000000000000000000000 DUP2 MSTORE PUSH1 0x4 ADD PUSH1 0x40 MLOAD DUP1 SWAP2 SUB SWAP1 REVERT JUMPDEST DUP1 PUSH1 0x4 ADD PUSH0 SWAP1 SLOAD SWAP1 PUSH2 0x100 EXP SWAP1 DIV PUSH1 0xFF AND PUSH2 0x167F JUMPI PUSH1 0x40 MLOAD PUSH32 0xC581F41500000000000000000000000000000000000000000000000000000000 DUP2 MSTORE PUSH1 0x4 ADD PUSH1 0x40 MLOAD DUP1 SWAP2 SUB SWAP1 REVERT JUMPDEST PUSH0 PUSH1 0x1 PUSH1 0x3 PUSH0 CALLER PUSH20 0xFFFFFFFFFFFFFFFFFFFFFFFFFFFFFFFFFFFFFFFF AND PUSH20 0xFFFFFFFFFFFFFFFFFFFFFFFFFFFFFFFFFFFFFFFF AND DUP2 MSTORE PUSH1 0x20 ADD SWAP1 DUP2 MSTORE PUSH1 0x20 ADD PUSH0 KECCAK256 PUSH0 DUP7 PUSH1 0xFF AND PUSH1 0xFF AND DUP2 MSTORE PUSH1 0x20 ADD SWAP1 DUP2 MSTORE PUSH1 0x20 ADD PUSH0 KECCAK256 DUP1 SLOAD SWAP1 POP PUSH2 0x16E2 SWAP2 SWAP1 PUSH2 0x4E17 JUMP JUMPDEST SWAP1 POP DUP1 DUP4 PUSH1 0xFF AND EQ PUSH2 0x18E4 JUMPI PUSH1 0x3 PUSH0 CALLER PUSH20 0xFFFFFFFFFFFFFFFFFFFFFFFFFFFFFFFFFFFFFFFF AND PUSH20 0xFFFFFFFFFFFFFFFFFFFFFFFFFFFFFFFFFFFFFFFF AND DUP2 MSTORE PUSH1 0x20 ADD SWAP1 DUP2 MSTORE PUSH1 0x20 ADD PUSH0 KECCAK256 PUSH0 DUP6 PUSH1 0xFF AND PUSH1 0xFF AND DUP2 MSTORE PUSH1 0x20 ADD SWAP1 DUP2 MSTORE PUSH1 0x20 ADD PUSH0 KECCAK256 DUP2 DUP2 SLOAD DUP2 LT PUSH2 0x1752 JUMPI PUSH2 0x1751 PUSH2 0x4D06 JUMP JUMPDEST JUMPDEST SWAP1 PUSH0 MSTORE PUSH1 0x20 PUSH0 KECCAK256 SWAP1 PUSH1 0x5 MUL ADD PUSH1 0x3 PUSH0 CALLER PUSH20 0xFFFFFFFFFFFFFFFFFFFFFFFFFFFFFFFFFFFFFFFF AND PUSH20 0xFFFFFFFFFFFFFFFFFFFFFFFFFFFFFFFFFFFFFFFF AND DUP2 MSTORE PUSH1 0x20 ADD SWAP1 DUP2 MSTORE PUSH1 0x20 ADD PUSH0 KECCAK256 PUSH0 DUP7 PUSH1 0xFF AND PUSH1 0xFF AND DUP2 MSTORE PUSH1 0x20 ADD SWAP1 DUP2 MSTORE PUSH1 0x20 ADD PUSH0 KECCAK256 DUP5 PUSH1 0xFF AND DUP2 SLOAD DUP2 LT PUSH2 0x17C5 JUMPI PUSH2 0x17C4 PUSH2 0x4D06 JUMP JUMPDEST JUMPDEST SWAP1 PUSH0 MSTORE PUSH1 0x20 PUSH0 KECCAK256 SWAP1 PUSH1 0x5 MUL ADD PUSH0 DUP3 ADD PUSH0 SWAP1 SLOAD SWAP1 PUSH2 0x100 EXP SWAP1 DIV PUSH20 0xFFFFFFFFFFFFFFFFFFFFFFFFFFFFFFFFFFFFFFFF AND DUP2 PUSH0 ADD PUSH0 PUSH2 0x100 EXP DUP2 SLOAD DUP2 PUSH20 0xFFFFFFFFFFFFFFFFFFFFFFFFFFFFFFFFFFFFFFFF MUL NOT AND SWAP1 DUP4 PUSH20 0xFFFFFFFFFFFFFFFFFFFFFFFFFFFFFFFFFFFFFFFF AND MUL OR SWAP1 SSTORE POP PUSH1 0x1 DUP3 ADD SLOAD DUP2 PUSH1 0x1 ADD SSTORE PUSH1 0x2 DUP3 ADD PUSH0 SWAP1 SLOAD SWAP1 PUSH2 0x100 EXP SWAP1 DIV PUSH4 0xFFFFFFFF AND DUP2 PUSH1 0x2 ADD PUSH0 PUSH2 0x100 EXP DUP2 SLOAD DUP2 PUSH4 0xFFFFFFFF MUL NOT AND SWAP1 DUP4 PUSH4 0xFFFFFFFF AND MUL OR SWAP1 SSTORE POP PUSH1 0x3 DUP3 ADD DUP2 PUSH1 0x3 ADD SWAP1 DUP2 PUSH2 0x1887 SWAP2 SWAP1 PUSH2 0x4E5F JUMP JUMPDEST POP PUSH1 0x4 DUP3 ADD PUSH0 SWAP1 SLOAD SWAP1 PUSH2 0x100 EXP SWAP1 DIV PUSH1 0xFF AND DUP2 PUSH1 0x4 ADD PUSH0 PUSH2 0x100 EXP DUP2 SLOAD DUP2 PUSH1 0xFF MUL NOT AND SWAP1 DUP4 ISZERO ISZERO MUL OR SWAP1 SSTORE POP PUSH1 0x4 DUP3 ADD PUSH1 0x1 SWAP1 SLOAD SWAP1 PUSH2 0x100 EXP SWAP1 DIV PUSH1 0xFF AND DUP2 PUSH1 0x4 ADD PUSH1 0x1 PUSH2 0x100 EXP DUP2 SLOAD DUP2 PUSH1 0xFF MUL NOT AND SWAP1 DUP4 ISZERO ISZERO MUL OR SWAP1 SSTORE POP SWAP1 POP POP JUMPDEST PUSH1 0x3 PUSH0 CALLER PUSH20 0xFFFFFFFFFFFFFFFFFFFFFFFFFFFFFFFFFFFFFFFF AND PUSH20 0xFFFFFFFFFFFFFFFFFFFFFFFFFFFFFFFFFFFFFFFF AND DUP2 MSTORE PUSH1 0x20 ADD SWAP1 DUP2 MSTORE PUSH1 0x20 ADD PUSH0 KECCAK256 PUSH0 DUP6 PUSH1 0xFF AND PUSH1 0xFF AND DUP2 MSTORE PUSH1 0x20 ADD SWAP1 DUP2 MSTORE PUSH1 0x20 ADD PUSH0 KECCAK256 DUP1 SLOAD DUP1 PUSH2 0x1946 JUMPI PUSH2 0x1945 PUSH2 0x4F44 JUMP JUMPDEST JUMPDEST PUSH1 0x1 SWAP1 SUB DUP2 DUP2 SWAP1 PUSH0 MSTORE PUSH1 0x20 PUSH0 KECCAK256 SWAP1 PUSH1 0x5 MUL ADD PUSH0 DUP1 DUP3 ADD PUSH0 PUSH2 0x100 EXP DUP2 SLOAD SWAP1 PUSH20 0xFFFFFFFFFFFFFFFFFFFFFFFFFFFFFFFFFFFFFFFF MUL NOT AND SWAP1 SSTORE PUSH1 0x1 DUP3 ADD PUSH0 SWAP1 SSTORE PUSH1 0x2 DUP3 ADD PUSH0 PUSH2 0x100 EXP DUP2 SLOAD SWAP1 PUSH4 0xFFFFFFFF MUL NOT AND SWAP1 SSTORE PUSH1 0x3 DUP3 ADD PUSH0 PUSH2 0x19AA SWAP2 SWAP1 PUSH2 0x3E3C JUMP JUMPDEST PUSH1 0x4 DUP3 ADD PUSH0 PUSH2 0x100 EXP DUP2 SLOAD SWAP1 PUSH1 0xFF MUL NOT AND SWAP1 SSTORE PUSH1 0x4 DUP3 ADD PUSH1 0x1 PUSH2 0x100 EXP DUP2 SLOAD SWAP1 PUSH1 0xFF MUL NOT AND SWAP1 SSTORE POP POP SWAP1 SSTORE PUSH32 0xA293D38BC1768EA4009A7109526DE29A238EE975C7EE4328C2C77FE71350D798 DUP5 DUP5 TIMESTAMP PUSH1 0x40 MLOAD PUSH2 0x1A08 SWAP4 SWAP3 SWAP2 SWAP1 PUSH2 0x4F71 JUMP JUMPDEST PUSH1 0x40 MLOAD DUP1 SWAP2 SUB SWAP1 LOG1 POP POP POP POP JUMP JUMPDEST PUSH1 0x2 PUSH0 SWAP1 SLOAD SWAP1 PUSH2 0x100 EXP SWAP1 DIV PUSH1 0xFF AND DUP2 JUMP JUMPDEST PUSH1 0x4 PUSH1 0x20 MSTORE DUP3 PUSH0 MSTORE PUSH1 0x40 PUSH0 KECCAK256 PUSH1 0x20 MSTORE DUP2 PUSH0 MSTORE PUSH1 0x40 PUSH0 KECCAK256 DUP2 DUP2 SLOAD DUP2 LT PUSH2 0x1A4B JUMPI PUSH0 DUP1 REVERT JUMPDEST SWAP1 PUSH0 MSTORE PUSH1 0x20 PUSH0 KECCAK256 SWAP1 PUSH1 0x4 MUL ADD PUSH0 SWAP3 POP SWAP3 POP POP POP DUP1 PUSH0 ADD PUSH0 SWAP1 SLOAD SWAP1 PUSH2 0x100 EXP SWAP1 DIV PUSH20 0xFFFFFFFFFFFFFFFFFFFFFFFFFFFFFFFFFFFFFFFF AND SWAP1 DUP1 PUSH1 0x1 ADD SLOAD SWAP1 DUP1 PUSH1 0x2 ADD DUP1 SLOAD PUSH2 0x1A97 SWAP1 PUSH2 0x4A12 JUMP JUMPDEST DUP1 PUSH1 0x1F ADD PUSH1 0x20 DUP1 SWAP2 DIV MUL PUSH1 0x20 ADD PUSH1 0x40 MLOAD SWAP1 DUP2 ADD PUSH1 0x40 MSTORE DUP1 SWAP3 SWAP2 SWAP1 DUP2 DUP2 MSTORE PUSH1 0x20 ADD DUP3 DUP1 SLOAD PUSH2 0x1AC3 SWAP1 PUSH2 0x4A12 JUMP JUMPDEST DUP1 ISZERO PUSH2 0x1B0E JUMPI DUP1 PUSH1 0x1F LT PUSH2 0x1AE5 JUMPI PUSH2 0x100 DUP1 DUP4 SLOAD DIV MUL DUP4 MSTORE SWAP2 PUSH1 0x20 ADD SWAP2 PUSH2 0x1B0E JUMP JUMPDEST DUP3 ADD SWAP2 SWAP1 PUSH0 MSTORE PUSH1 0x20 PUSH0 KECCAK256 SWAP1 JUMPDEST DUP2 SLOAD DUP2 MSTORE SWAP1 PUSH1 0x1 ADD SWAP1 PUSH1 0x20 ADD DUP1 DUP4 GT PUSH2 0x1AF1 JUMPI DUP3 SWAP1 SUB PUSH1 0x1F AND DUP3 ADD SWAP2 JUMPDEST POP POP POP POP POP SWAP1 DUP1 PUSH1 0x3 ADD PUSH0 SWAP1 SLOAD SWAP1 PUSH2 0x100 EXP SWAP1 DIV PUSH1 0xFF AND SWAP1 DUP1 PUSH1 0x3 ADD PUSH1 0x1 SWAP1 SLOAD SWAP1 PUSH2 0x100 EXP SWAP1 DIV PUSH4 0xFFFFFFFF AND SWAP1 POP DUP6 JUMP JUMPDEST PUSH2 0x1B48 PUSH2 0x3BD3 JUMP JUMPDEST PUSH1 0x5 PUSH0 DUP3 PUSH20 0xFFFFFFFFFFFFFFFFFFFFFFFFFFFFFFFFFFFFFFFF AND PUSH20 0xFFFFFFFFFFFFFFFFFFFFFFFFFFFFFFFFFFFFFFFF AND DUP2 MSTORE PUSH1 0x20 ADD SWAP1 DUP2 MSTORE PUSH1 0x20 ADD PUSH0 KECCAK256 PUSH0 SWAP1 SLOAD SWAP1 PUSH2 0x100 EXP SWAP1 DIV PUSH1 0xFF AND PUSH2 0x1BD3 JUMPI DUP1 PUSH1 0x40 MLOAD PUSH32 0x46FDB4EF00000000000000000000000000000000000000000000000000000000 DUP2 MSTORE PUSH1 0x4 ADD PUSH2 0x1BCA SWAP2 SWAP1 PUSH2 0x473F JUMP JUMPDEST PUSH1 0x40 MLOAD DUP1 SWAP2 SUB SWAP1 REVERT JUMPDEST PUSH0 PUSH1 0x5 PUSH0 DUP4 PUSH20 0xFFFFFFFFFFFFFFFFFFFFFFFFFFFFFFFFFFFFFFFF AND PUSH20 0xFFFFFFFFFFFFFFFFFFFFFFFFFFFFFFFFFFFFFFFF AND DUP2 MSTORE PUSH1 0x20 ADD SWAP1 DUP2 MSTORE PUSH1 0x20 ADD PUSH0 KECCAK256 PUSH0 PUSH2 0x100 EXP DUP2 SLOAD DUP2 PUSH1 0xFF MUL NOT AND SWAP1 DUP4 ISZERO ISZERO MUL OR SWAP1 SSTORE POP DUP1 PUSH20 0xFFFFFFFFFFFFFFFFFFFFFFFFFFFFFFFFFFFFFFFF AND PUSH32 0xE0DB3499B7FDC3DA4CDDFF5F45D694549C19835E7F719FB5606D3AD1A5DE4011 PUSH1 0x40 MLOAD PUSH1 0x40 MLOAD DUP1 SWAP2 SUB SWAP1 LOG2 POP JUMP JUMPDEST PUSH2 0x1C75 PUSH2 0x3992 JUMP JUMPDEST PUSH1 0x3 PUSH0 CALLER PUSH20 0xFFFFFFFFFFFFFFFFFFFFFFFFFFFFFFFFFFFFFFFF AND PUSH20 0xFFFFFFFFFFFFFFFFFFFFFFFFFFFFFFFFFFFFFFFF AND DUP2 MSTORE PUSH1 0x20 ADD SWAP1 DUP2 MSTORE PUSH1 0x20 ADD PUSH0 KECCAK256 PUSH0 DUP6 PUSH1 0xFF AND PUSH1 0xFF AND DUP2 MSTORE PUSH1 0x20 ADD SWAP1 DUP2 MSTORE PUSH1 0x20 ADD PUSH0 KECCAK256 DUP1 SLOAD SWAP1 POP DUP4 PUSH1 0xFF AND GT DUP1 ISZERO PUSH2 0x1D33 JUMPI POP PUSH1 0x3 PUSH0 CALLER PUSH20 0xFFFFFFFFFFFFFFFFFFFFFFFFFFFFFFFFFFFFFFFF AND PUSH20 0xFFFFFFFFFFFFFFFFFFFFFFFFFFFFFFFFFFFFFFFF AND DUP2 MSTORE PUSH1 0x20 ADD SWAP1 DUP2 MSTORE PUSH1 0x20 ADD PUSH0 KECCAK256 PUSH0 DUP4 PUSH1 0xFF AND PUSH1 0xFF AND DUP2 MSTORE PUSH1 0x20 ADD SWAP1 DUP2 MSTORE PUSH1 0x20 ADD PUSH0 KECCAK256 DUP1 SLOAD SWAP1 POP DUP2 PUSH1 0xFF AND GT JUMPDEST ISZERO PUSH2 0x1D6A JUMPI PUSH1 0x40 MLOAD PUSH32 0x43B88A3000000000000000000000000000000000000000000000000000000000 DUP2 MSTORE PUSH1 0x4 ADD PUSH1 0x40 MLOAD DUP1 SWAP2 SUB SWAP1 REVERT JUMPDEST PUSH0 PUSH1 0x3 PUSH0 CALLER PUSH20 0xFFFFFFFFFFFFFFFFFFFFFFFFFFFFFFFFFFFFFFFF AND PUSH20 0xFFFFFFFFFFFFFFFFFFFFFFFFFFFFFFFFFFFFFFFF AND DUP2 MSTORE PUSH1 0x20 ADD SWAP1 DUP2 MSTORE PUSH1 0x20 ADD PUSH0 KECCAK256 PUSH0 DUP7 PUSH1 0xFF AND PUSH1 0xFF AND DUP2 MSTORE PUSH1 0x20 ADD SWAP1 DUP2 MSTORE PUSH1 0x20 ADD PUSH0 KECCAK256 DUP5 PUSH1 0xFF AND DUP2 SLOAD DUP2 LT PUSH2 0x1DD2 JUMPI PUSH2 0x1DD1 PUSH2 0x4D06 JUMP JUMPDEST JUMPDEST SWAP1 PUSH0 MSTORE PUSH1 0x20 PUSH0 KECCAK256 SWAP1 PUSH1 0x5 MUL ADD SWAP1 POP PUSH0 PUSH1 0x3 PUSH0 CALLER PUSH20 0xFFFFFFFFFFFFFFFFFFFFFFFFFFFFFFFFFFFFFFFF AND PUSH20 0xFFFFFFFFFFFFFFFFFFFFFFFFFFFFFFFFFFFFFFFF AND DUP2 MSTORE PUSH1 0x20 ADD SWAP1 DUP2 MSTORE PUSH1 0x20 ADD PUSH0 KECCAK256 PUSH0 DUP6 PUSH1 0xFF AND PUSH1 0xFF AND DUP2 MSTORE PUSH1 0x20 ADD SWAP1 DUP2 MSTORE PUSH1 0x20 ADD PUSH0 KECCAK256 DUP4 PUSH1 0xFF AND DUP2 SLOAD DUP2 LT PUSH2 0x1E48 JUMPI PUSH2 0x1E47 PUSH2 0x4D06 JUMP JUMPDEST JUMPDEST SWAP1 PUSH0 MSTORE PUSH1 0x20 PUSH0 KECCAK256 SWAP1 PUSH1 0x5 MUL ADD SWAP1 POP DUP1 PUSH0 ADD PUSH0 SWAP1 SLOAD SWAP1 PUSH2 0x100 EXP SWAP1 DIV PUSH20 0xFFFFFFFFFFFFFFFFFFFFFFFFFFFFFFFFFFFFFFFF AND PUSH20 0xFFFFFFFFFFFFFFFFFFFFFFFFFFFFFFFFFFFFFFFF AND DUP3 PUSH0 ADD PUSH0 SWAP1 SLOAD SWAP1 PUSH2 0x100 EXP SWAP1 DIV PUSH20 0xFFFFFFFFFFFFFFFFFFFFFFFFFFFFFFFFFFFFFFFF AND PUSH20 0xFFFFFFFFFFFFFFFFFFFFFFFFFFFFFFFFFFFFFFFF AND EQ PUSH2 0x1F50 JUMPI DUP2 PUSH0 ADD PUSH0 SWAP1 SLOAD SWAP1 PUSH2 0x100 EXP SWAP1 DIV PUSH20 0xFFFFFFFFFFFFFFFFFFFFFFFFFFFFFFFFFFFFFFFF AND DUP2 PUSH0 ADD PUSH0 SWAP1 SLOAD SWAP1 PUSH2 0x100 EXP SWAP1 DIV PUSH20 0xFFFFFFFFFFFFFFFFFFFFFFFFFFFFFFFFFFFFFFFF AND PUSH1 0x40 MLOAD PUSH32 0xEB04A6F500000000000000000000000000000000000000000000000000000000 DUP2 MSTORE PUSH1 0x4 ADD PUSH2 0x1F47 SWAP3 SWAP2 SWAP1 PUSH2 0x4FA6 JUMP JUMPDEST PUSH1 0x40 MLOAD DUP1 SWAP2 SUB SWAP1 REVERT JUMPDEST DUP2 PUSH1 0x2 ADD PUSH0 SWAP1 SLOAD SWAP1 PUSH2 0x100 EXP SWAP1 DIV PUSH4 0xFFFFFFFF AND PUSH4 0xFFFFFFFF AND TIMESTAMP LT DUP1 ISZERO PUSH2 0x1F90 JUMPI POP DUP1 PUSH1 0x2 ADD PUSH0 SWAP1 SLOAD SWAP1 PUSH2 0x100 EXP SWAP1 DIV PUSH4 0xFFFFFFFF AND PUSH4 0xFFFFFFFF AND TIMESTAMP GT JUMPDEST ISZERO PUSH2 0x1FC7 JUMPI PUSH1 0x40 MLOAD PUSH32 0xADA123B000000000000000000000000000000000000000000000000000000000 DUP2 MSTORE PUSH1 0x4 ADD PUSH1 0x40 MLOAD DUP1 SWAP2 SUB SWAP1 REVERT JUMPDEST DUP2 PUSH1 0x4 ADD PUSH0 SWAP1 SLOAD SWAP1 PUSH2 0x100 EXP SWAP1 DIV PUSH1 0xFF AND ISZERO PUSH2 0x200F JUMPI PUSH1 0x40 MLOAD PUSH32 0xC581F41500000000000000000000000000000000000000000000000000000000 DUP2 MSTORE PUSH1 0x4 ADD PUSH1 0x40 MLOAD DUP1 SWAP2 SUB SWAP1 REVERT JUMPDEST DUP2 PUSH1 0x1 ADD SLOAD DUP8 GT ISZERO PUSH2 0x207A JUMPI DUP2 PUSH0 ADD PUSH0 SWAP1 SLOAD SWAP1 PUSH2 0x100 EXP SWAP1 DIV PUSH20 0xFFFFFFFFFFFFFFFFFFFFFFFFFFFFFFFFFFFFFFFF AND PUSH1 0x40 MLOAD PUSH32 0x59B1A35C00000000000000000000000000000000000000000000000000000000 DUP2 MSTORE PUSH1 0x4 ADD PUSH2 0x2071 SWAP2 SWAP1 PUSH2 0x473F JUMP JUMPDEST PUSH1 0x40 MLOAD DUP1 SWAP2 SUB SWAP1 REVERT JUMPDEST DUP7 PUSH1 0x3 PUSH0 CALLER PUSH20 0xFFFFFFFFFFFFFFFFFFFFFFFFFFFFFFFFFFFFFFFF AND PUSH20 0xFFFFFFFFFFFFFFFFFFFFFFFFFFFFFFFFFFFFFFFF AND DUP2 MSTORE PUSH1 0x20 ADD SWAP1 DUP2 MSTORE PUSH1 0x20 ADD PUSH0 KECCAK256 PUSH0 DUP9 PUSH1 0xFF AND PUSH1 0xFF AND DUP2 MSTORE PUSH1 0x20 ADD SWAP1 DUP2 MSTORE PUSH1 0x20 ADD PUSH0 KECCAK256 DUP7 PUSH1 0xFF AND DUP2 SLOAD DUP2 LT PUSH2 0x20E2 JUMPI PUSH2 0x20E1 PUSH2 0x4D06 JUMP JUMPDEST JUMPDEST SWAP1 PUSH0 MSTORE PUSH1 0x20 PUSH0 KECCAK256 SWAP1 PUSH1 0x5 MUL ADD PUSH1 0x1 ADD PUSH0 DUP3 DUP3 SLOAD PUSH2 0x20FF SWAP2 SWAP1 PUSH2 0x4E17 JUMP JUMPDEST SWAP3 POP POP DUP2 SWAP1 SSTORE POP PUSH0 PUSH1 0x3 PUSH0 CALLER PUSH20 0xFFFFFFFFFFFFFFFFFFFFFFFFFFFFFFFFFFFFFFFF AND PUSH20 0xFFFFFFFFFFFFFFFFFFFFFFFFFFFFFFFFFFFFFFFF AND DUP2 MSTORE PUSH1 0x20 ADD SWAP1 DUP2 MSTORE PUSH1 0x20 ADD PUSH0 KECCAK256 PUSH0 DUP9 PUSH1 0xFF AND PUSH1 0xFF AND DUP2 MSTORE PUSH1 0x20 ADD SWAP1 DUP2 MSTORE PUSH1 0x20 ADD PUSH0 KECCAK256 DUP7 PUSH1 0xFF AND DUP2 SLOAD DUP2 LT PUSH2 0x216E JUMPI PUSH2 0x216D PUSH2 0x4D06 JUMP JUMPDEST JUMPDEST SWAP1 PUSH0 MSTORE PUSH1 0x20 PUSH0 KECCAK256 SWAP1 PUSH1 0x5 MUL ADD PUSH1 0x1 ADD SLOAD SUB PUSH2 0x2212 JUMPI PUSH1 0x1 PUSH1 0x3 PUSH0 CALLER PUSH20 0xFFFFFFFFFFFFFFFFFFFFFFFFFFFFFFFFFFFFFFFF AND PUSH20 0xFFFFFFFFFFFFFFFFFFFFFFFFFFFFFFFFFFFFFFFF AND DUP2 MSTORE PUSH1 0x20 ADD SWAP1 DUP2 MSTORE PUSH1 0x20 ADD PUSH0 KECCAK256 PUSH0 DUP9 PUSH1 0xFF AND PUSH1 0xFF AND DUP2 MSTORE PUSH1 0x20 ADD SWAP1 DUP2 MSTORE PUSH1 0x20 ADD PUSH0 KECCAK256 DUP7 PUSH1 0xFF AND DUP2 SLOAD DUP2 LT PUSH2 0x21EC JUMPI PUSH2 0x21EB PUSH2 0x4D06 JUMP JUMPDEST JUMPDEST SWAP1 PUSH0 MSTORE PUSH1 0x20 PUSH0 KECCAK256 SWAP1 PUSH1 0x5 MUL ADD PUSH1 0x4 ADD PUSH0 PUSH2 0x100 EXP DUP2 SLOAD DUP2 PUSH1 0xFF MUL NOT AND SWAP1 DUP4 ISZERO ISZERO MUL OR SWAP1 SSTORE POP JUMPDEST DUP7 PUSH1 0x3 PUSH0 CALLER PUSH20 0xFFFFFFFFFFFFFFFFFFFFFFFFFFFFFFFFFFFFFFFF AND PUSH20 0xFFFFFFFFFFFFFFFFFFFFFFFFFFFFFFFFFFFFFFFF AND DUP2 MSTORE PUSH1 0x20 ADD SWAP1 DUP2 MSTORE PUSH1 0x20 ADD PUSH0 KECCAK256 PUSH0 DUP7 PUSH1 0xFF AND PUSH1 0xFF AND DUP2 MSTORE PUSH1 0x20 ADD SWAP1 DUP2 MSTORE PUSH1 0x20 ADD PUSH0 KECCAK256 DUP5 PUSH1 0xFF AND DUP2 SLOAD DUP2 LT PUSH2 0x227A JUMPI PUSH2 0x2279 PUSH2 0x4D06 JUMP JUMPDEST JUMPDEST SWAP1 PUSH0 MSTORE PUSH1 0x20 PUSH0 KECCAK256 SWAP1 PUSH1 0x5 MUL ADD PUSH1 0x1 ADD PUSH0 DUP3 DUP3 SLOAD PUSH2 0x2297 SWAP2 SWAP1 PUSH2 0x49B2 JUMP JUMPDEST SWAP3 POP POP DUP2 SWAP1 SSTORE POP DUP2 PUSH0 ADD PUSH0 SWAP1 SLOAD SWAP1 PUSH2 0x100 EXP SWAP1 DIV PUSH20 0xFFFFFFFFFFFFFFFFFFFFFFFFFFFFFFFFFFFFFFFF AND PUSH20 0xFFFFFFFFFFFFFFFFFFFFFFFFFFFFFFFFFFFFFFFF AND PUSH32 0xB9235ADE2FD0814639C24CCB5EE7C5F6D4903F518105A0BA5252EB88D7188DE1 DUP9 DUP9 DUP9 DUP9 DUP9 PUSH1 0x40 MLOAD PUSH2 0x230E SWAP6 SWAP5 SWAP4 SWAP3 SWAP2 SWAP1 PUSH2 0x4FCD JUMP JUMPDEST PUSH1 0x40 MLOAD DUP1 SWAP2 SUB SWAP1 LOG2 POP POP PUSH2 0x2320 PUSH2 0x3BCA JUMP JUMPDEST POP POP POP POP POP JUMP JUMPDEST PUSH2 0x232F PUSH2 0x3BD3 JUMP JUMPDEST PUSH2 0x2338 PUSH0 PUSH2 0x3C5A JUMP JUMPDEST JUMP JUMPDEST PUSH1 0x3 PUSH0 CALLER PUSH20 0xFFFFFFFFFFFFFFFFFFFFFFFFFFFFFFFFFFFFFFFF AND PUSH20 0xFFFFFFFFFFFFFFFFFFFFFFFFFFFFFFFFFFFFFFFF AND DUP2 MSTORE PUSH1 0x20 ADD SWAP1 DUP2 MSTORE PUSH1 0x20 ADD PUSH0 KECCAK256 PUSH0 DUP5 PUSH1 0xFF AND PUSH1 0xFF AND DUP2 MSTORE PUSH1 0x20 ADD SWAP1 DUP2 MSTORE PUSH1 0x20 ADD PUSH0 KECCAK256 DUP1 SLOAD SWAP1 POP DUP3 PUSH1 0xFF AND GT ISZERO PUSH2 0x23CC JUMPI PUSH1 0x40 MLOAD PUSH32 0x43B88A3000000000000000000000000000000000000000000000000000000000 DUP2 MSTORE PUSH1 0x4 ADD PUSH1 0x40 MLOAD DUP1 SWAP2 SUB SWAP1 REVERT JUMPDEST DUP1 PUSH1 0x3 PUSH0 CALLER PUSH20 0xFFFFFFFFFFFFFFFFFFFFFFFFFFFFFFFFFFFFFFFF AND PUSH20 0xFFFFFFFFFFFFFFFFFFFFFFFFFFFFFFFFFFFFFFFF AND DUP2 MSTORE PUSH1 0x20 ADD SWAP1 DUP2 MSTORE PUSH1 0x20 ADD PUSH0 KECCAK256 PUSH0 DUP6 PUSH1 0xFF AND PUSH1 0xFF AND DUP2 MSTORE PUSH1 0x20 ADD SWAP1 DUP2 MSTORE PUSH1 0x20 ADD PUSH0 KECCAK256 DUP4 PUSH1 0xFF AND DUP2 SLOAD DUP2 LT PUSH2 0x2434 JUMPI PUSH2 0x2433 PUSH2 0x4D06 JUMP JUMPDEST JUMPDEST SWAP1 PUSH0 MSTORE PUSH1 0x20 PUSH0 KECCAK256 SWAP1 PUSH1 0x5 MUL ADD PUSH1 0x3 ADD SWAP1 DUP2 PUSH2 0x244F SWAP2 SWAP1 PUSH2 0x4BDF JUMP JUMPDEST POP PUSH32 0x6CDC87D0689291DCF5C7B2AEAA12A69025D9B944892A73FD409DE0D3B7990CA DUP2 DUP4 DUP6 PUSH1 0x40 MLOAD PUSH2 0x2483 SWAP4 SWAP3 SWAP2 SWAP1 PUSH2 0x501E JUMP JUMPDEST PUSH1 0x40 MLOAD DUP1 SWAP2 SUB SWAP1 LOG1 POP POP POP JUMP JUMPDEST PUSH2 0x2498 PUSH2 0x3BD3 JUMP JUMPDEST PUSH1 0x5 PUSH0 DUP3 PUSH20 0xFFFFFFFFFFFFFFFFFFFFFFFFFFFFFFFFFFFFFFFF AND PUSH20 0xFFFFFFFFFFFFFFFFFFFFFFFFFFFFFFFFFFFFFFFF AND DUP2 MSTORE PUSH1 0x20 ADD SWAP1 DUP2 MSTORE PUSH1 0x20 ADD PUSH0 KECCAK256 PUSH0 SWAP1 SLOAD SWAP1 PUSH2 0x100 EXP SWAP1 DIV PUSH1 0xFF AND ISZERO PUSH2 0x2524 JUMPI DUP1 PUSH1 0x40 MLOAD PUSH32 0xDAE5670900000000000000000000000000000000000000000000000000000000 DUP2 MSTORE PUSH1 0x4 ADD PUSH2 0x251B SWAP2 SWAP1 PUSH2 0x473F JUMP JUMPDEST PUSH1 0x40 MLOAD DUP1 SWAP2 SUB SWAP1 REVERT JUMPDEST PUSH1 0x1 PUSH1 0x5 PUSH0 DUP4 PUSH20 0xFFFFFFFFFFFFFFFFFFFFFFFFFFFFFFFFFFFFFFFF AND PUSH20 0xFFFFFFFFFFFFFFFFFFFFFFFFFFFFFFFFFFFFFFFF AND DUP2 MSTORE PUSH1 0x20 ADD SWAP1 DUP2 MSTORE PUSH1 0x20 ADD PUSH0 KECCAK256 PUSH0 PUSH2 0x100 EXP DUP2 SLOAD DUP2 PUSH1 0xFF MUL NOT AND SWAP1 DUP4 ISZERO ISZERO MUL OR SWAP1 SSTORE POP DUP1 PUSH20 0xFFFFFFFFFFFFFFFFFFFFFFFFFFFFFFFFFFFFFFFF AND PUSH32 0x7FD26BE6FC92AFF63F1F4409B2B2DDEB272A888031D7F55EC830485EC6194186 PUSH1 0x40 MLOAD PUSH1 0x40 MLOAD DUP1 SWAP2 SUB SWAP1 LOG2 POP JUMP JUMPDEST PUSH32 0x0 DUP2 JUMP JUMPDEST PUSH0 SELFBALANCE SWAP1 POP SWAP1 JUMP JUMPDEST PUSH0 DUP1 PUSH0 SWAP1 SLOAD SWAP1 PUSH2 0x100 EXP SWAP1 DIV PUSH20 0xFFFFFFFFFFFFFFFFFFFFFFFFFFFFFFFFFFFFFFFF AND SWAP1 POP SWAP1 JUMP JUMPDEST PUSH1 0x3 PUSH1 0x20 MSTORE DUP3 PUSH0 MSTORE PUSH1 0x40 PUSH0 KECCAK256 PUSH1 0x20 MSTORE DUP2 PUSH0 MSTORE PUSH1 0x40 PUSH0 KECCAK256 DUP2 DUP2 SLOAD DUP2 LT PUSH2 0x2634 JUMPI PUSH0 DUP1 REVERT JUMPDEST SWAP1 PUSH0 MSTORE PUSH1 0x20 PUSH0 KECCAK256 SWAP1 PUSH1 0x5 MUL ADD PUSH0 SWAP3 POP SWAP3 POP POP POP DUP1 PUSH0 ADD PUSH0 SWAP1 SLOAD SWAP1 PUSH2 0x100 EXP SWAP1 DIV PUSH20 0xFFFFFFFFFFFFFFFFFFFFFFFFFFFFFFFFFFFFFFFF AND SWAP1 DUP1 PUSH1 0x1 ADD SLOAD SWAP1 DUP1 PUSH1 0x2 ADD PUSH0 SWAP1 SLOAD SWAP1 PUSH2 0x100 EXP SWAP1 DIV PUSH4 0xFFFFFFFF AND SWAP1 DUP1 PUSH1 0x3 ADD DUP1 SLOAD PUSH2 0x2695 SWAP1 PUSH2 0x4A12 JUMP JUMPDEST DUP1 PUSH1 0x1F ADD PUSH1 0x20 DUP1 SWAP2 DIV MUL PUSH1 0x20 ADD PUSH1 0x40 MLOAD SWAP1 DUP2 ADD PUSH1 0x40 MSTORE DUP1 SWAP3 SWAP2 SWAP1 DUP2 DUP2 MSTORE PUSH1 0x20 ADD DUP3 DUP1 SLOAD PUSH2 0x26C1 SWAP1 PUSH2 0x4A12 JUMP JUMPDEST DUP1 ISZERO PUSH2 0x270C JUMPI DUP1 PUSH1 0x1F LT PUSH2 0x26E3 JUMPI PUSH2 0x100 DUP1 DUP4 SLOAD DIV MUL DUP4 MSTORE SWAP2 PUSH1 0x20 ADD SWAP2 PUSH2 0x270C JUMP JUMPDEST DUP3 ADD SWAP2 SWAP1 PUSH0 MSTORE PUSH1 0x20 PUSH0 KECCAK256 SWAP1 JUMPDEST DUP2 SLOAD DUP2 MSTORE SWAP1 PUSH1 0x1 ADD SWAP1 PUSH1 0x20 ADD DUP1 DUP4 GT PUSH2 0x26EF JUMPI DUP3 SWAP1 SUB PUSH1 0x1F AND DUP3 ADD SWAP2 JUMPDEST POP POP POP POP POP SWAP1 DUP1 PUSH1 0x4 ADD PUSH0 SWAP1 SLOAD SWAP1 PUSH2 0x100 EXP SWAP1 DIV PUSH1 0xFF AND SWAP1 DUP1 PUSH1 0x4 ADD PUSH1 0x1 SWAP1 SLOAD SWAP1 PUSH2 0x100 EXP SWAP1 DIV PUSH1 0xFF AND SWAP1 POP DUP7 JUMP JUMPDEST PUSH2 0x2743 PUSH2 0x3992 JUMP JUMPDEST PUSH1 0x2 PUSH0 SWAP1 SLOAD SWAP1 PUSH2 0x100 EXP SWAP1 DIV PUSH1 0xFF AND ISZERO PUSH2 0x2789 JUMPI PUSH1 0x40 MLOAD PUSH32 0x94DA9AE700000000000000000000000000000000000000000000000000000000 DUP2 MSTORE PUSH1 0x4 ADD PUSH1 0x40 MLOAD DUP1 SWAP2 SUB SWAP1 REVERT JUMPDEST DUP3 PUSH0 DUP2 PUSH1 0xFF AND GT ISZERO DUP1 PUSH2 0x279F JUMPI POP PUSH1 0x4 DUP2 PUSH1 0xFF AND GT JUMPDEST ISZERO PUSH2 0x27D6 JUMPI PUSH1 0x40 MLOAD PUSH32 0x41E7BB4F00000000000000000000000000000000000000000000000000000000 DUP2 MSTORE PUSH1 0x4 ADD PUSH1 0x40 MLOAD DUP1 SWAP2 SUB SWAP1 REVERT JUMPDEST DUP3 PUSH4 0xFFFFFFFF AND PUSH0 DUP2 EQ DUP1 PUSH2 0x280A JUMPI POP PUSH32 0x0 DUP2 GT JUMPDEST ISZERO PUSH2 0x2841 JUMPI PUSH1 0x40 MLOAD PUSH32 0x2A82A34F00000000000000000000000000000000000000000000000000000000 DUP2 MSTORE PUSH1 0x4 ADD PUSH1 0x40 MLOAD DUP1 SWAP2 SUB SWAP1 REVERT JUMPDEST PUSH0 PUSH1 0x3 PUSH0 CALLER PUSH20 0xFFFFFFFFFFFFFFFFFFFFFFFFFFFFFFFFFFFFFFFF AND PUSH20 0xFFFFFFFFFFFFFFFFFFFFFFFFFFFFFFFFFFFFFFFF AND DUP2 MSTORE PUSH1 0x20 ADD SWAP1 DUP2 MSTORE PUSH1 0x20 ADD PUSH0 KECCAK256 PUSH0 DUP8 PUSH1 0xFF AND PUSH1 0xFF AND DUP2 MSTORE PUSH1 0x20 ADD SWAP1 DUP2 MSTORE PUSH1 0x20 ADD PUSH0 KECCAK256 DUP1 SLOAD SWAP1 POP SWAP1 POP PUSH32 0x0 PUSH1 0xFF AND DUP2 LT PUSH2 0x28F6 JUMPI PUSH1 0x40 MLOAD PUSH32 0xA0C5191F00000000000000000000000000000000000000000000000000000000 DUP2 MSTORE PUSH1 0x4 ADD PUSH1 0x40 MLOAD DUP1 SWAP2 SUB SWAP1 REVERT JUMPDEST PUSH0 CALLVALUE GT PUSH2 0x292F JUMPI PUSH1 0x40 MLOAD PUSH32 0xE4910D5800000000000000000000000000000000000000000000000000000000 DUP2 MSTORE PUSH1 0x4 ADD PUSH1 0x40 MLOAD DUP1 SWAP2 SUB SWAP1 REVERT JUMPDEST PUSH1 0x3 PUSH0 CALLER PUSH20 0xFFFFFFFFFFFFFFFFFFFFFFFFFFFFFFFFFFFFFFFF AND PUSH20 0xFFFFFFFFFFFFFFFFFFFFFFFFFFFFFFFFFFFFFFFF AND DUP2 MSTORE PUSH1 0x20 ADD SWAP1 DUP2 MSTORE PUSH1 0x20 ADD PUSH0 KECCAK256 PUSH0 DUP8 PUSH1 0xFF AND PUSH1 0xFF AND DUP2 MSTORE PUSH1 0x20 ADD SWAP1 DUP2 MSTORE PUSH1 0x20 ADD PUSH0 KECCAK256 PUSH1 0x40 MLOAD DUP1 PUSH1 0xC0 ADD PUSH1 0x40 MSTORE DUP1 PUSH0 PUSH20 0xFFFFFFFFFFFFFFFFFFFFFFFFFFFFFFFFFFFFFFFF AND DUP2 MSTORE PUSH1 0x20 ADD CALLVALUE DUP2 MSTORE PUSH1 0x20 ADD DUP8 PUSH4 0xFFFFFFFF AND TIMESTAMP PUSH2 0x29C0 SWAP2 SWAP1 PUSH2 0x49B2 JUMP JUMPDEST PUSH4 0xFFFFFFFF AND DUP2 MSTORE PUSH1 0x20 ADD DUP7 DUP2 MSTORE PUSH1 0x20 ADD PUSH0 ISZERO ISZERO DUP2 MSTORE PUSH1 0x20 ADD PUSH1 0x1 ISZERO ISZERO DUP2 MSTORE POP SWAP1 DUP1 PUSH1 0x1 DUP2 SLOAD ADD DUP1 DUP3 SSTORE DUP1 SWAP2 POP POP PUSH1 0x1 SWAP1 SUB SWAP1 PUSH0 MSTORE PUSH1 0x20 PUSH0 KECCAK256 SWAP1 PUSH1 0x5 MUL ADD PUSH0 SWAP1 SWAP2 SWAP1 SWAP2 SWAP1 SWAP2 POP PUSH0 DUP3 ADD MLOAD DUP2 PUSH0 ADD PUSH0 PUSH2 0x100 EXP DUP2 SLOAD DUP2 PUSH20 0xFFFFFFFFFFFFFFFFFFFFFFFFFFFFFFFFFFFFFFFF MUL NOT AND SWAP1 DUP4 PUSH20 0xFFFFFFFFFFFFFFFFFFFFFFFFFFFFFFFFFFFFFFFF AND MUL OR SWAP1 SSTORE POP PUSH1 0x20 DUP3 ADD MLOAD DUP2 PUSH1 0x1 ADD SSTORE PUSH1 0x40 DUP3 ADD MLOAD DUP2 PUSH1 0x2 ADD PUSH0 PUSH2 0x100 EXP DUP2 SLOAD DUP2 PUSH4 0xFFFFFFFF MUL NOT AND SWAP1 DUP4 PUSH4 0xFFFFFFFF AND MUL OR SWAP1 SSTORE POP PUSH1 0x60 DUP3 ADD MLOAD DUP2 PUSH1 0x3 ADD SWAP1 DUP2 PUSH2 0x2A8F SWAP2 SWAP1 PUSH2 0x4BDF JUMP JUMPDEST POP PUSH1 0x80 DUP3 ADD MLOAD DUP2 PUSH1 0x4 ADD PUSH0 PUSH2 0x100 EXP DUP2 SLOAD DUP2 PUSH1 0xFF MUL NOT AND SWAP1 DUP4 ISZERO ISZERO MUL OR SWAP1 SSTORE POP PUSH1 0xA0 DUP3 ADD MLOAD DUP2 PUSH1 0x4 ADD PUSH1 0x1 PUSH2 0x100 EXP DUP2 SLOAD DUP2 PUSH1 0xFF MUL NOT AND SWAP1 DUP4 ISZERO ISZERO MUL OR SWAP1 SSTORE POP POP POP PUSH2 0x2ADE PUSH0 DUP8 CALLVALUE DUP8 PUSH0 PUSH2 0x3A5A JUMP JUMPDEST PUSH0 PUSH20 0xFFFFFFFFFFFFFFFFFFFFFFFFFFFFFFFFFFFFFFFF AND PUSH32 0x93C7F7D807630C520B9271E8FB715ABFCCA1D19DAAD1FC4A8B291B82EA518B67 CALLVALUE DUP7 DUP10 DUP10 PUSH4 0xFFFFFFFF AND TIMESTAMP PUSH2 0x2B2B SWAP2 SWAP1 PUSH2 0x49B2 JUMP JUMPDEST TIMESTAMP PUSH1 0x40 MLOAD PUSH2 0x2B3D SWAP6 SWAP5 SWAP4 SWAP3 SWAP2 SWAP1 PUSH2 0x4CAE JUMP JUMPDEST PUSH1 0x40 MLOAD DUP1 SWAP2 SUB SWAP1 LOG2 POP POP POP PUSH2 0x2B50 PUSH2 0x3BCA JUMP JUMPDEST POP POP POP JUMP JUMPDEST PUSH32 0x0 DUP2 JUMP JUMPDEST PUSH2 0x2B81 PUSH2 0x3BD3 JUMP JUMPDEST PUSH1 0x2 PUSH0 SWAP1 SLOAD SWAP1 PUSH2 0x100 EXP SWAP1 DIV PUSH1 0xFF AND PUSH2 0x2BC6 JUMPI PUSH1 0x40 MLOAD PUSH32 0x9BC4A17B00000000000000000000000000000000000000000000000000000000 DUP2 MSTORE PUSH1 0x4 ADD PUSH1 0x40 MLOAD DUP1 SWAP2 SUB SWAP1 REVERT JUMPDEST PUSH0 PUSH1 0x2 PUSH0 PUSH2 0x100 EXP DUP2 SLOAD DUP2 PUSH1 0xFF MUL NOT AND SWAP1 DUP4 ISZERO ISZERO MUL OR SWAP1 SSTORE POP PUSH32 0xB855B6C6D68CAE899D407A87ABB7AFD6E973BD1D944BA3D6CE3E8FA37A8FDBD2 TIMESTAMP PUSH1 0x40 MLOAD PUSH2 0x2C0E SWAP2 SWAP1 PUSH2 0x4DFE JUMP JUMPDEST PUSH1 0x40 MLOAD DUP1 SWAP2 SUB SWAP1 LOG1 JUMP JUMPDEST PUSH2 0x2C20 PUSH2 0x3992 JUMP JUMPDEST DUP3 PUSH0 DUP2 PUSH1 0xFF AND GT ISZERO DUP1 PUSH2 0x2C36 JUMPI POP PUSH1 0x4 DUP2 PUSH1 0xFF AND GT JUMPDEST ISZERO PUSH2 0x2C6D JUMPI PUSH1 0x40 MLOAD PUSH32 0x41E7BB4F00000000000000000000000000000000000000000000000000000000 DUP2 MSTORE PUSH1 0x4 ADD PUSH1 0x40 MLOAD DUP1 SWAP2 SUB SWAP1 REVERT JUMPDEST PUSH1 0x3 PUSH0 CALLER PUSH20 0xFFFFFFFFFFFFFFFFFFFFFFFFFFFFFFFFFFFFFFFF AND PUSH20 0xFFFFFFFFFFFFFFFFFFFFFFFFFFFFFFFFFFFFFFFF AND DUP2 MSTORE PUSH1 0x20 ADD SWAP1 DUP2 MSTORE PUSH1 0x20 ADD PUSH0 KECCAK256 PUSH0 DUP6 PUSH1 0xFF AND PUSH1 0xFF AND DUP2 MSTORE PUSH1 0x20 ADD SWAP1 DUP2 MSTORE PUSH1 0x20 ADD PUSH0 KECCAK256 DUP1 SLOAD SWAP1 POP DUP6 PUSH4 0xFFFFFFFF AND GT ISZERO PUSH2 0x2D02 JUMPI PUSH1 0x40 MLOAD PUSH32 0x43B88A3000000000000000000000000000000000000000000000000000000000 DUP2 MSTORE PUSH1 0x4 ADD PUSH1 0x40 MLOAD DUP1 SWAP2 SUB SWAP1 REVERT JUMPDEST PUSH0 PUSH1 0x3 PUSH0 CALLER PUSH20 0xFFFFFFFFFFFFFFFFFFFFFFFFFFFFFFFFFFFFFFFF AND PUSH20 0xFFFFFFFFFFFFFFFFFFFFFFFFFFFFFFFFFFFFFFFF AND DUP2 MSTORE PUSH1 0x20 ADD SWAP1 DUP2 MSTORE PUSH1 0x20 ADD PUSH0 KECCAK256 PUSH0 DUP7 PUSH1 0xFF AND PUSH1 0xFF AND DUP2 MSTORE PUSH1 0x20 ADD SWAP1 DUP2 MSTORE PUSH1 0x20 ADD PUSH0 KECCAK256 DUP7 PUSH4 0xFFFFFFFF AND DUP2 SLOAD DUP2 LT PUSH2 0x2D6D JUMPI PUSH2 0x2D6C PUSH2 0x4D06 JUMP JUMPDEST JUMPDEST SWAP1 PUSH0 MSTORE PUSH1 0x20 PUSH0 KECCAK256 SWAP1 PUSH1 0x5 MUL ADD SWAP1 POP DUP1 PUSH1 0x4 ADD PUSH0 SWAP1 SLOAD SWAP1 PUSH2 0x100 EXP SWAP1 DIV PUSH1 0xFF AND ISZERO PUSH2 0x2DC3 JUMPI PUSH1 0x40 MLOAD PUSH32 0xC581F41500000000000000000000000000000000000000000000000000000000 DUP2 MSTORE PUSH1 0x4 ADD PUSH1 0x40 MLOAD DUP1 SWAP2 SUB SWAP1 REVERT JUMPDEST DUP1 PUSH1 0x1 ADD SLOAD DUP5 GT ISZERO PUSH2 0x2E2E JUMPI DUP1 PUSH0 ADD PUSH0 SWAP1 SLOAD SWAP1 PUSH2 0x100 EXP SWAP1 DIV PUSH20 0xFFFFFFFFFFFFFFFFFFFFFFFFFFFFFFFFFFFFFFFF AND PUSH1 0x40 MLOAD PUSH32 0x59B1A35C00000000000000000000000000000000000000000000000000000000 DUP2 MSTORE PUSH1 0x4 ADD PUSH2 0x2E25 SWAP2 SWAP1 PUSH2 0x473F JUMP JUMPDEST PUSH1 0x40 MLOAD DUP1 SWAP2 SUB SWAP1 REVERT JUMPDEST DUP1 PUSH1 0x2 ADD PUSH0 SWAP1 SLOAD SWAP1 PUSH2 0x100 EXP SWAP1 DIV PUSH4 0xFFFFFFFF AND PUSH4 0xFFFFFFFF AND TIMESTAMP LT DUP1 ISZERO PUSH2 0x2E5B JUMPI POP PUSH1 0x1 ISZERO ISZERO DUP4 ISZERO ISZERO EQ ISZERO JUMPDEST ISZERO PUSH2 0x2E92 JUMPI PUSH1 0x40 MLOAD PUSH32 0xE73670BF00000000000000000000000000000000000000000000000000000000 DUP2 MSTORE PUSH1 0x4 ADD PUSH1 0x40 MLOAD DUP1 SWAP2 SUB SWAP1 REVERT JUMPDEST PUSH0 DUP5 DUP3 PUSH1 0x1 ADD SLOAD PUSH2 0x2EA3 SWAP2 SWAP1 PUSH2 0x4E17 JUMP JUMPDEST SWAP1 POP PUSH0 DUP2 SUB PUSH2 0x2F3E JUMPI PUSH1 0x1 PUSH1 0x3 PUSH0 CALLER PUSH20 0xFFFFFFFFFFFFFFFFFFFFFFFFFFFFFFFFFFFFFFFF AND PUSH20 0xFFFFFFFFFFFFFFFFFFFFFFFFFFFFFFFFFFFFFFFF AND DUP2 MSTORE PUSH1 0x20 ADD SWAP1 DUP2 MSTORE PUSH1 0x20 ADD PUSH0 KECCAK256 PUSH0 DUP9 PUSH1 0xFF AND PUSH1 0xFF AND DUP2 MSTORE PUSH1 0x20 ADD SWAP1 DUP2 MSTORE PUSH1 0x20 ADD PUSH0 KECCAK256 DUP9 PUSH4 0xFFFFFFFF AND DUP2 SLOAD DUP2 LT PUSH2 0x2F18 JUMPI PUSH2 0x2F17 PUSH2 0x4D06 JUMP JUMPDEST JUMPDEST SWAP1 PUSH0 MSTORE PUSH1 0x20 PUSH0 KECCAK256 SWAP1 PUSH1 0x5 MUL ADD PUSH1 0x4 ADD PUSH0 PUSH2 0x100 EXP DUP2 SLOAD DUP2 PUSH1 0xFF MUL NOT AND SWAP1 DUP4 ISZERO ISZERO MUL OR SWAP1 SSTORE POP JUMPDEST DUP1 PUSH1 0x3 PUSH0 CALLER PUSH20 0xFFFFFFFFFFFFFFFFFFFFFFFFFFFFFFFFFFFFFFFF AND PUSH20 0xFFFFFFFFFFFFFFFFFFFFFFFFFFFFFFFFFFFFFFFF AND DUP2 MSTORE PUSH1 0x20 ADD SWAP1 DUP2 MSTORE PUSH1 0x20 ADD PUSH0 KECCAK256 PUSH0 DUP9 PUSH1 0xFF AND PUSH1 0xFF AND DUP2 MSTORE PUSH1 0x20 ADD SWAP1 DUP2 MSTORE PUSH1 0x20 ADD PUSH0 KECCAK256 DUP9 PUSH4 0xFFFFFFFF AND DUP2 SLOAD DUP2 LT PUSH2 0x2FA9 JUMPI PUSH2 0x2FA8 PUSH2 0x4D06 JUMP JUMPDEST JUMPDEST SWAP1 PUSH0 MSTORE PUSH1 0x20 PUSH0 KECCAK256 SWAP1 PUSH1 0x5 MUL ADD PUSH1 0x1 ADD DUP2 SWAP1 SSTORE POP DUP2 PUSH1 0x4 ADD PUSH1 0x1 SWAP1 SLOAD SWAP1 PUSH2 0x100 EXP SWAP1 DIV PUSH1 0xFF AND ISZERO PUSH2 0x3110 JUMPI PUSH0 CALLER PUSH20 0xFFFFFFFFFFFFFFFFFFFFFFFFFFFFFFFFFFFFFFFF AND DUP7 PUSH1 0x40 MLOAD PUSH2 0x2FF8 SWAP1 PUSH2 0x5087 JUMP JUMPDEST PUSH0 PUSH1 0x40 MLOAD DUP1 DUP4 SUB DUP2 DUP6 DUP8 GAS CALL SWAP3 POP POP POP RETURNDATASIZE DUP1 PUSH0 DUP2 EQ PUSH2 0x3032 JUMPI PUSH1 0x40 MLOAD SWAP2 POP PUSH1 0x1F NOT PUSH1 0x3F RETURNDATASIZE ADD AND DUP3 ADD PUSH1 0x40 MSTORE RETURNDATASIZE DUP3 MSTORE RETURNDATASIZE PUSH0 PUSH1 0x20 DUP5 ADD RETURNDATACOPY PUSH2 0x3037 JUMP JUMPDEST PUSH1 0x60 SWAP2 POP JUMPDEST POP POP SWAP1 POP DUP1 PUSH2 0x3072 JUMPI PUSH1 0x40 MLOAD PUSH32 0xB12D13EB00000000000000000000000000000000000000000000000000000000 DUP2 MSTORE PUSH1 0x4 ADD PUSH1 0x40 MLOAD DUP1 SWAP2 SUB SWAP1 REVERT JUMPDEST PUSH2 0x310A PUSH0 DUP9 DUP9 DUP7 PUSH1 0x3 ADD DUP1 SLOAD PUSH2 0x3087 SWAP1 PUSH2 0x4A12 JUMP JUMPDEST DUP1 PUSH1 0x1F ADD PUSH1 0x20 DUP1 SWAP2 DIV MUL PUSH1 0x20 ADD PUSH1 0x40 MLOAD SWAP1 DUP2 ADD PUSH1 0x40 MSTORE DUP1 SWAP3 SWAP2 SWAP1 DUP2 DUP2 MSTORE PUSH1 0x20 ADD DUP3 DUP1 SLOAD PUSH2 0x30B3 SWAP1 PUSH2 0x4A12 JUMP JUMPDEST DUP1 ISZERO PUSH2 0x30FE JUMPI DUP1 PUSH1 0x1F LT PUSH2 0x30D5 JUMPI PUSH2 0x100 DUP1 DUP4 SLOAD DIV MUL DUP4 MSTORE SWAP2 PUSH1 0x20 ADD SWAP2 PUSH2 0x30FE JUMP JUMPDEST DUP3 ADD SWAP2 SWAP1 PUSH0 MSTORE PUSH1 0x20 PUSH0 KECCAK256 SWAP1 JUMPDEST DUP2 SLOAD DUP2 MSTORE SWAP1 PUSH1 0x1 ADD SWAP1 PUSH1 0x20 ADD DUP1 DUP4 GT PUSH2 0x30E1 JUMPI DUP3 SWAP1 SUB PUSH1 0x1F AND DUP3 ADD SWAP2 JUMPDEST POP POP POP POP POP PUSH1 0x1 PUSH2 0x3A5A JUMP JUMPDEST POP PUSH2 0x3218 JUMP JUMPDEST PUSH2 0x315D CALLER DUP7 DUP5 PUSH0 ADD PUSH0 SWAP1 SLOAD SWAP1 PUSH2 0x100 EXP SWAP1 DIV PUSH20 0xFFFFFFFFFFFFFFFFFFFFFFFFFFFFFFFFFFFFFFFF AND PUSH20 0xFFFFFFFFFFFFFFFFFFFFFFFFFFFFFFFFFFFFFFFF AND PUSH2 0x3D1B SWAP1 SWAP3 SWAP2 SWAP1 PUSH4 0xFFFFFFFF AND JUMP JUMPDEST PUSH2 0x3217 DUP3 PUSH0 ADD PUSH0 SWAP1 SLOAD SWAP1 PUSH2 0x100 EXP SWAP1 DIV PUSH20 0xFFFFFFFFFFFFFFFFFFFFFFFFFFFFFFFFFFFFFFFF AND DUP8 DUP8 DUP6 PUSH1 0x3 ADD DUP1 SLOAD PUSH2 0x3194 SWAP1 PUSH2 0x4A12 JUMP JUMPDEST DUP1 PUSH1 0x1F ADD PUSH1 0x20 DUP1 SWAP2 DIV MUL PUSH1 0x20 ADD PUSH1 0x40 MLOAD SWAP1 DUP2 ADD PUSH1 0x40 MSTORE DUP1 SWAP3 SWAP2 SWAP1 DUP2 DUP2 MSTORE PUSH1 0x20 ADD DUP3 DUP1 SLOAD PUSH2 0x31C0 SWAP1 PUSH2 0x4A12 JUMP JUMPDEST DUP1 ISZERO PUSH2 0x320B JUMPI DUP1 PUSH1 0x1F LT PUSH2 0x31E2 JUMPI PUSH2 0x100 DUP1 DUP4 SLOAD DIV MUL DUP4 MSTORE SWAP2 PUSH1 0x20 ADD SWAP2 PUSH2 0x320B JUMP JUMPDEST DUP3 ADD SWAP2 SWAP1 PUSH0 MSTORE PUSH1 0x20 PUSH0 KECCAK256 SWAP1 JUMPDEST DUP2 SLOAD DUP2 MSTORE SWAP1 PUSH1 0x1 ADD SWAP1 PUSH1 0x20 ADD DUP1 DUP4 GT PUSH2 0x31EE JUMPI DUP3 SWAP1 SUB PUSH1 0x1F AND DUP3 ADD SWAP2 JUMPDEST POP POP POP POP POP PUSH1 0x1 PUSH2 0x3A5A JUMP JUMPDEST JUMPDEST DUP2 PUSH0 ADD PUSH0 SWAP1 SLOAD SWAP1 PUSH2 0x100 EXP SWAP1 DIV PUSH20 0xFFFFFFFFFFFFFFFFFFFFFFFFFFFFFFFFFFFFFFFF AND PUSH20 0xFFFFFFFFFFFFFFFFFFFFFFFFFFFFFFFFFFFFFFFF AND PUSH32 0x4C1F1355DA7E4DA113E98D9A5C01AA2A743E2372A87ED9CDA08A8645E197E735 DUP7 DUP5 PUSH1 0x3 ADD DUP10 TIMESTAMP PUSH1 0x40 MLOAD PUSH2 0x3289 SWAP5 SWAP4 SWAP3 SWAP2 SWAP1 PUSH2 0x4DB4 JUMP JUMPDEST PUSH1 0x40 MLOAD DUP1 SWAP2 SUB SWAP1 LOG2 POP POP POP PUSH2 0x329C PUSH2 0x3BCA JUMP JUMPDEST POP POP POP POP JUMP JUMPDEST PUSH0 PUSH1 0x3 PUSH0 CALLER PUSH20 0xFFFFFFFFFFFFFFFFFFFFFFFFFFFFFFFFFFFFFFFF AND PUSH20 0xFFFFFFFFFFFFFFFFFFFFFFFFFFFFFFFFFFFFFFFF AND DUP2 MSTORE PUSH1 0x20 ADD SWAP1 DUP2 MSTORE PUSH1 0x20 ADD PUSH0 KECCAK256 PUSH0 DUP5 PUSH1 0xFF AND PUSH1 0xFF AND DUP2 MSTORE PUSH1 0x20 ADD SWAP1 DUP2 MSTORE PUSH1 0x20 ADD PUSH0 KECCAK256 DUP5 PUSH4 0xFFFFFFFF AND DUP2 SLOAD DUP2 LT PUSH2 0x330D JUMPI PUSH2 0x330C PUSH2 0x4D06 JUMP JUMPDEST JUMPDEST SWAP1 PUSH0 MSTORE PUSH1 0x20 PUSH0 KECCAK256 SWAP1 PUSH1 0x5 MUL ADD SWAP1 POP PUSH1 0x3 PUSH0 CALLER PUSH20 0xFFFFFFFFFFFFFFFFFFFFFFFFFFFFFFFFFFFFFFFF AND PUSH20 0xFFFFFFFFFFFFFFFFFFFFFFFFFFFFFFFFFFFFFFFF AND DUP2 MSTORE PUSH1 0x20 ADD SWAP1 DUP2 MSTORE PUSH1 0x20 ADD PUSH0 KECCAK256 PUSH0 DUP5 PUSH1 0xFF AND PUSH1 0xFF AND DUP2 MSTORE PUSH1 0x20 ADD SWAP1 DUP2 MSTORE PUSH1 0x20 ADD PUSH0 KECCAK256 DUP1 SLOAD SWAP1 POP DUP5 PUSH4 0xFFFFFFFF AND GT ISZERO PUSH2 0x33B0 JUMPI PUSH1 0x40 MLOAD PUSH32 0x43B88A3000000000000000000000000000000000000000000000000000000000 DUP2 MSTORE PUSH1 0x4 ADD PUSH1 0x40 MLOAD DUP1 SWAP2 SUB SWAP1 REVERT JUMPDEST TIMESTAMP DUP2 PUSH1 0x2 ADD PUSH0 SWAP1 SLOAD SWAP1 PUSH2 0x100 EXP SWAP1 DIV PUSH4 0xFFFFFFFF AND PUSH4 0xFFFFFFFF AND GT ISZERO PUSH2 0x3403 JUMPI PUSH1 0x40 MLOAD PUSH32 0xF594DA3400000000000000000000000000000000000000000000000000000000 DUP2 MSTORE PUSH1 0x4 ADD PUSH1 0x40 MLOAD DUP1 SWAP2 SUB SWAP1 REVERT JUMPDEST DUP2 PUSH4 0xFFFFFFFF AND TIMESTAMP PUSH2 0x3415 SWAP2 SWAP1 PUSH2 0x49B2 JUMP JUMPDEST PUSH1 0x3 PUSH0 CALLER PUSH20 0xFFFFFFFFFFFFFFFFFFFFFFFFFFFFFFFFFFFFFFFF AND PUSH20 0xFFFFFFFFFFFFFFFFFFFFFFFFFFFFFFFFFFFFFFFF AND DUP2 MSTORE PUSH1 0x20 ADD SWAP1 DUP2 MSTORE PUSH1 0x20 ADD PUSH0 KECCAK256 PUSH0 DUP6 PUSH1 0xFF AND PUSH1 0xFF AND DUP2 MSTORE PUSH1 0x20 ADD SWAP1 DUP2 MSTORE PUSH1 0x20 ADD PUSH0 KECCAK256 DUP6 PUSH4 0xFFFFFFFF AND DUP2 SLOAD DUP2 LT PUSH2 0x347F JUMPI PUSH2 0x347E PUSH2 0x4D06 JUMP JUMPDEST JUMPDEST SWAP1 PUSH0 MSTORE PUSH1 0x20 PUSH0 KECCAK256 SWAP1 PUSH1 0x5 MUL ADD PUSH1 0x2 ADD PUSH0 PUSH2 0x100 EXP DUP2 SLOAD DUP2 PUSH4 0xFFFFFFFF MUL NOT AND SWAP1 DUP4 PUSH4 0xFFFFFFFF AND MUL OR SWAP1 SSTORE POP DUP1 PUSH0 ADD PUSH0 SWAP1 SLOAD SWAP1 PUSH2 0x100 EXP SWAP1 DIV PUSH20 0xFFFFFFFFFFFFFFFFFFFFFFFFFFFFFFFFFFFFFFFF AND PUSH20 0xFFFFFFFFFFFFFFFFFFFFFFFFFFFFFFFFFFFFFFFF AND PUSH32 0x9D36C4692E4C75A4A1A6305244C51189AEEAAF3FABA32B86BF4E2AC38BF689F3 DUP5 DUP5 DUP5 PUSH1 0x3 ADD TIMESTAMP PUSH1 0x40 MLOAD PUSH2 0x351C SWAP5 SWAP4 SWAP3 SWAP2 SWAP1 PUSH2 0x509B JUMP JUMPDEST PUSH1 0x40 MLOAD DUP1 SWAP2 SUB SWAP1 LOG2 POP POP POP POP JUMP JUMPDEST PUSH2 0x3532 PUSH2 0x3992 JUMP JUMPDEST PUSH1 0x2 PUSH0 SWAP1 SLOAD SWAP1 PUSH2 0x100 EXP SWAP1 DIV PUSH1 0xFF AND ISZERO PUSH2 0x3578 JUMPI PUSH1 0x40 MLOAD PUSH32 0x94DA9AE700000000000000000000000000000000000000000000000000000000 DUP2 MSTORE PUSH1 0x4 ADD PUSH1 0x40 MLOAD DUP1 SWAP2 SUB SWAP1 REVERT JUMPDEST DUP2 PUSH0 DUP2 PUSH1 0xFF AND GT ISZERO DUP1 PUSH2 0x358E JUMPI POP PUSH1 0x4 DUP2 PUSH1 0xFF AND GT JUMPDEST ISZERO PUSH2 0x35C5 JUMPI PUSH1 0x40 MLOAD PUSH32 0x41E7BB4F00000000000000000000000000000000000000000000000000000000 DUP2 MSTORE PUSH1 0x4 ADD PUSH1 0x40 MLOAD DUP1 SWAP2 SUB SWAP1 REVERT JUMPDEST PUSH0 CALLVALUE GT PUSH2 0x35FE JUMPI PUSH1 0x40 MLOAD PUSH32 0xE4910D5800000000000000000000000000000000000000000000000000000000 DUP2 MSTORE PUSH1 0x4 ADD PUSH1 0x40 MLOAD DUP1 SWAP2 SUB SWAP1 REVERT JUMPDEST PUSH1 0x3 PUSH0 CALLER PUSH20 0xFFFFFFFFFFFFFFFFFFFFFFFFFFFFFFFFFFFFFFFF AND PUSH20 0xFFFFFFFFFFFFFFFFFFFFFFFFFFFFFFFFFFFFFFFF AND DUP2 MSTORE PUSH1 0x20 ADD SWAP1 DUP2 MSTORE PUSH1 0x20 ADD PUSH0 KECCAK256 PUSH0 DUP5 PUSH1 0xFF AND PUSH1 0xFF AND DUP2 MSTORE PUSH1 0x20 ADD SWAP1 DUP2 MSTORE PUSH1 0x20 ADD PUSH0 KECCAK256 DUP1 SLOAD SWAP1 POP DUP3 PUSH4 0xFFFFFFFF AND GT ISZERO PUSH2 0x3693 JUMPI PUSH1 0x40 MLOAD PUSH32 0x43B88A3000000000000000000000000000000000000000000000000000000000 DUP2 MSTORE PUSH1 0x4 ADD PUSH1 0x40 MLOAD DUP1 SWAP2 SUB SWAP1 REVERT JUMPDEST PUSH0 PUSH1 0x3 PUSH0 CALLER PUSH20 0xFFFFFFFFFFFFFFFFFFFFFFFFFFFFFFFFFFFFFFFF AND PUSH20 0xFFFFFFFFFFFFFFFFFFFFFFFFFFFFFFFFFFFFFFFF AND DUP2 MSTORE PUSH1 0x20 ADD SWAP1 DUP2 MSTORE PUSH1 0x20 ADD PUSH0 KECCAK256 PUSH0 DUP6 PUSH1 0xFF AND PUSH1 0xFF AND DUP2 MSTORE PUSH1 0x20 ADD SWAP1 DUP2 MSTORE PUSH1 0x20 ADD PUSH0 KECCAK256 DUP4 PUSH4 0xFFFFFFFF AND DUP2 SLOAD DUP2 LT PUSH2 0x36FE JUMPI PUSH2 0x36FD PUSH2 0x4D06 JUMP JUMPDEST JUMPDEST SWAP1 PUSH0 MSTORE PUSH1 0x20 PUSH0 KECCAK256 SWAP1 PUSH1 0x5 MUL ADD SWAP1 POP TIMESTAMP DUP2 PUSH1 0x2 ADD PUSH0 SWAP1 SLOAD SWAP1 PUSH2 0x100 EXP SWAP1 DIV PUSH4 0xFFFFFFFF AND PUSH4 0xFFFFFFFF AND LT ISZERO PUSH2 0x375F JUMPI PUSH1 0x40 MLOAD PUSH32 0xA3F3D8B900000000000000000000000000000000000000000000000000000000 DUP2 MSTORE PUSH1 0x4 ADD PUSH1 0x40 MLOAD DUP1 SWAP2 SUB SWAP1 REVERT JUMPDEST CALLVALUE PUSH1 0x3 PUSH0 CALLER PUSH20 0xFFFFFFFFFFFFFFFFFFFFFFFFFFFFFFFFFFFFFFFF AND PUSH20 0xFFFFFFFFFFFFFFFFFFFFFFFFFFFFFFFFFFFFFFFF AND DUP2 MSTORE PUSH1 0x20 ADD SWAP1 DUP2 MSTORE PUSH1 0x20 ADD PUSH0 KECCAK256 PUSH0 DUP7 PUSH1 0xFF AND PUSH1 0xFF AND DUP2 MSTORE PUSH1 0x20 ADD SWAP1 DUP2 MSTORE PUSH1 0x20 ADD PUSH0 KECCAK256 DUP5 PUSH4 0xFFFFFFFF AND DUP2 SLOAD DUP2 LT PUSH2 0x37CA JUMPI PUSH2 0x37C9 PUSH2 0x4D06 JUMP JUMPDEST JUMPDEST SWAP1 PUSH0 MSTORE PUSH1 0x20 PUSH0 KECCAK256 SWAP1 PUSH1 0x5 MUL ADD PUSH1 0x1 ADD PUSH0 DUP3 DUP3 SLOAD PUSH2 0x37E7 SWAP2 SWAP1 PUSH2 0x49B2 JUMP JUMPDEST SWAP3 POP POP DUP2 SWAP1 SSTORE POP PUSH2 0x3885 PUSH0 DUP6 CALLVALUE DUP5 PUSH1 0x3 ADD DUP1 SLOAD PUSH2 0x3803 SWAP1 PUSH2 0x4A12 JUMP JUMPDEST DUP1 PUSH1 0x1F ADD PUSH1 0x20 DUP1 SWAP2 DIV MUL PUSH1 0x20 ADD PUSH1 0x40 MLOAD SWAP1 DUP2 ADD PUSH1 0x40 MSTORE DUP1 SWAP3 SWAP2 SWAP1 DUP2 DUP2 MSTORE PUSH1 0x20 ADD DUP3 DUP1 SLOAD PUSH2 0x382F SWAP1 PUSH2 0x4A12 JUMP JUMPDEST DUP1 ISZERO PUSH2 0x387A JUMPI DUP1 PUSH1 0x1F LT PUSH2 0x3851 JUMPI PUSH2 0x100 DUP1 DUP4 SLOAD DIV MUL DUP4 MSTORE SWAP2 PUSH1 0x20 ADD SWAP2 PUSH2 0x387A JUMP JUMPDEST DUP3 ADD SWAP2 SWAP1 PUSH0 MSTORE PUSH1 0x20 PUSH0 KECCAK256 SWAP1 JUMPDEST DUP2 SLOAD DUP2 MSTORE SWAP1 PUSH1 0x1 ADD SWAP1 PUSH1 0x20 ADD DUP1 DUP4 GT PUSH2 0x385D JUMPI DUP3 SWAP1 SUB PUSH1 0x1F AND DUP3 ADD SWAP2 JUMPDEST POP POP POP POP POP PUSH0 PUSH2 0x3A5A JUMP JUMPDEST PUSH0 PUSH20 0xFFFFFFFFFFFFFFFFFFFFFFFFFFFFFFFFFFFFFFFF AND PUSH32 0xA62FA334755456EFC7EABEC03287391ABE4998E298B5D3B4A3EABC34FD5F800B CALLVALUE DUP4 PUSH1 0x3 ADD DUP8 TIMESTAMP PUSH1 0x40 MLOAD PUSH2 0x38D4 SWAP5 SWAP4 SWAP3 SWAP2 SWAP1 PUSH2 0x4DB4 JUMP JUMPDEST PUSH1 0x40 MLOAD DUP1 SWAP2 SUB SWAP1 LOG2 POP POP PUSH2 0x38E6 PUSH2 0x3BCA JUMP JUMPDEST POP POP JUMP JUMPDEST PUSH2 0x38F2 PUSH2 0x3BD3 JUMP JUMPDEST PUSH0 PUSH20 0xFFFFFFFFFFFFFFFFFFFFFFFFFFFFFFFFFFFFFFFF AND DUP2 PUSH20 0xFFFFFFFFFFFFFFFFFFFFFFFFFFFFFFFFFFFFFFFF AND SUB PUSH2 0x3962 JUMPI PUSH0 PUSH1 0x40 MLOAD PUSH32 0x1E4FBDF700000000000000000000000000000000000000000000000000000000 DUP2 MSTORE PUSH1 0x4 ADD PUSH2 0x3959 SWAP2 SWAP1 PUSH2 0x473F JUMP JUMPDEST PUSH1 0x40 MLOAD DUP1 SWAP2 SUB SWAP1 REVERT JUMPDEST PUSH2 0x396B DUP2 PUSH2 0x3C5A JUMP JUMPDEST POP JUMP JUMPDEST PUSH32 0x0 DUP2 JUMP JUMPDEST PUSH1 0x2 PUSH1 0x1 SLOAD SUB PUSH2 0x39CE JUMPI PUSH1 0x40 MLOAD PUSH32 0x3EE5AEB500000000000000000000000000000000000000000000000000000000 DUP2 MSTORE PUSH1 0x4 ADD PUSH1 0x40 MLOAD DUP1 SWAP2 SUB SWAP1 REVERT JUMPDEST PUSH1 0x2 PUSH1 0x1 DUP2 SWAP1 SSTORE POP JUMP JUMPDEST PUSH2 0x3A54 DUP5 DUP6 PUSH20 0xFFFFFFFFFFFFFFFFFFFFFFFFFFFFFFFFFFFFFFFF AND PUSH4 0x23B872DD DUP7 DUP7 DUP7 PUSH1 0x40 MLOAD PUSH1 0x24 ADD PUSH2 0x3A0D SWAP4 SWAP3 SWAP2 SWAP1 PUSH2 0x50E5 JUMP JUMPDEST PUSH1 0x40 MLOAD PUSH1 0x20 DUP2 DUP4 SUB SUB DUP2 MSTORE SWAP1 PUSH1 0x40 MSTORE SWAP2 POP PUSH1 0xE0 SHL PUSH1 0x20 DUP3 ADD DUP1 MLOAD PUSH28 0xFFFFFFFFFFFFFFFFFFFFFFFFFFFFFFFFFFFFFFFFFFFFFFFFFFFFFFFF DUP4 DUP2 DUP4 AND OR DUP4 MSTORE POP POP POP POP PUSH2 0x3D9A JUMP JUMPDEST POP POP POP POP JUMP JUMPDEST PUSH1 0x4 PUSH0 CALLER PUSH20 0xFFFFFFFFFFFFFFFFFFFFFFFFFFFFFFFFFFFFFFFF AND PUSH20 0xFFFFFFFFFFFFFFFFFFFFFFFFFFFFFFFFFFFFFFFF AND DUP2 MSTORE PUSH1 0x20 ADD SWAP1 DUP2 MSTORE PUSH1 0x20 ADD PUSH0 KECCAK256 PUSH0 DUP6 PUSH1 0xFF AND PUSH1 0xFF AND DUP2 MSTORE PUSH1 0x20 ADD SWAP1 DUP2 MSTORE PUSH1 0x20 ADD PUSH0 KECCAK256 PUSH1 0x40 MLOAD DUP1 PUSH1 0xA0 ADD PUSH1 0x40 MSTORE DUP1 DUP8 PUSH20 0xFFFFFFFFFFFFFFFFFFFFFFFFFFFFFFFFFFFFFFFF AND DUP2 MSTORE PUSH1 0x20 ADD DUP6 DUP2 MSTORE PUSH1 0x20 ADD DUP5 DUP2 MSTORE PUSH1 0x20 ADD DUP4 ISZERO ISZERO DUP2 MSTORE PUSH1 0x20 ADD TIMESTAMP PUSH4 0xFFFFFFFF AND DUP2 MSTORE POP SWAP1 DUP1 PUSH1 0x1 DUP2 SLOAD ADD DUP1 DUP3 SSTORE DUP1 SWAP2 POP POP PUSH1 0x1 SWAP1 SUB SWAP1 PUSH0 MSTORE PUSH1 0x20 PUSH0 KECCAK256 SWAP1 PUSH1 0x4 MUL ADD PUSH0 SWAP1 SWAP2 SWAP1 SWAP2 SWAP1 SWAP2 POP PUSH0 DUP3 ADD MLOAD DUP2 PUSH0 ADD PUSH0 PUSH2 0x100 EXP DUP2 SLOAD DUP2 PUSH20 0xFFFFFFFFFFFFFFFFFFFFFFFFFFFFFFFFFFFFFFFF MUL NOT AND SWAP1 DUP4 PUSH20 0xFFFFFFFFFFFFFFFFFFFFFFFFFFFFFFFFFFFFFFFF AND MUL OR SWAP1 SSTORE POP PUSH1 0x20 DUP3 ADD MLOAD DUP2 PUSH1 0x1 ADD SSTORE PUSH1 0x40 DUP3 ADD MLOAD DUP2 PUSH1 0x2 ADD SWAP1 DUP2 PUSH2 0x3B7A SWAP2 SWAP1 PUSH2 0x4BDF JUMP JUMPDEST POP PUSH1 0x60 DUP3 ADD MLOAD DUP2 PUSH1 0x3 ADD PUSH0 PUSH2 0x100 EXP DUP2 SLOAD DUP2 PUSH1 0xFF MUL NOT AND SWAP1 DUP4 ISZERO ISZERO MUL OR SWAP1 SSTORE POP PUSH1 0x80 DUP3 ADD MLOAD DUP2 PUSH1 0x3 ADD PUSH1 0x1 PUSH2 0x100 EXP DUP2 SLOAD DUP2 PUSH4 0xFFFFFFFF MUL NOT AND SWAP1 DUP4 PUSH4 0xFFFFFFFF AND MUL OR SWAP1 SSTORE POP POP POP POP POP POP POP POP JUMP JUMPDEST PUSH1 0x1 DUP1 DUP2 SWAP1 SSTORE POP JUMP JUMPDEST PUSH2 0x3BDB PUSH2 0x3E35 JUMP JUMPDEST PUSH20 0xFFFFFFFFFFFFFFFFFFFFFFFFFFFFFFFFFFFFFFFF AND PUSH2 0x3BF9 PUSH2 0x25EA JUMP JUMPDEST PUSH20 0xFFFFFFFFFFFFFFFFFFFFFFFFFFFFFFFFFFFFFFFF AND EQ PUSH2 0x3C58 JUMPI PUSH2 0x3C1C PUSH2 0x3E35 JUMP JUMPDEST PUSH1 0x40 MLOAD PUSH32 0x118CDAA700000000000000000000000000000000000000000000000000000000 DUP2 MSTORE PUSH1 0x4 ADD PUSH2 0x3C4F SWAP2 SWAP1 PUSH2 0x473F JUMP JUMPDEST PUSH1 0x40 MLOAD DUP1 SWAP2 SUB SWAP1 REVERT JUMPDEST JUMP JUMPDEST PUSH0 DUP1 PUSH0 SWAP1 SLOAD SWAP1 PUSH2 0x100 EXP SWAP1 DIV PUSH20 0xFFFFFFFFFFFFFFFFFFFFFFFFFFFFFFFFFFFFFFFF AND SWAP1 POP DUP2 PUSH0 DUP1 PUSH2 0x100 EXP DUP2 SLOAD DUP2 PUSH20 0xFFFFFFFFFFFFFFFFFFFFFFFFFFFFFFFFFFFFFFFF MUL NOT AND SWAP1 DUP4 PUSH20 0xFFFFFFFFFFFFFFFFFFFFFFFFFFFFFFFFFFFFFFFF AND MUL OR SWAP1 SSTORE POP DUP2 PUSH20 0xFFFFFFFFFFFFFFFFFFFFFFFFFFFFFFFFFFFFFFFF AND DUP2 PUSH20 0xFFFFFFFFFFFFFFFFFFFFFFFFFFFFFFFFFFFFFFFF AND PUSH32 0x8BE0079C531659141344CD1FD0A4F28419497F9722A3DAAFE3B4186F6B6457E0 PUSH1 0x40 MLOAD PUSH1 0x40 MLOAD DUP1 SWAP2 SUB SWAP1 LOG3 POP POP JUMP JUMPDEST PUSH2 0x3D95 DUP4 DUP5 PUSH20 0xFFFFFFFFFFFFFFFFFFFFFFFFFFFFFFFFFFFFFFFF AND PUSH4 0xA9059CBB DUP6 DUP6 PUSH1 0x40 MLOAD PUSH1 0x24 ADD PUSH2 0x3D4E SWAP3 SWAP2 SWAP1 PUSH2 0x511A JUMP JUMPDEST PUSH1 0x40 MLOAD PUSH1 0x20 DUP2 DUP4 SUB SUB DUP2 MSTORE SWAP1 PUSH1 0x40 MSTORE SWAP2 POP PUSH1 0xE0 SHL PUSH1 0x20 DUP3 ADD DUP1 MLOAD PUSH28 0xFFFFFFFFFFFFFFFFFFFFFFFFFFFFFFFFFFFFFFFFFFFFFFFFFFFFFFFF DUP4 DUP2 DUP4 AND OR DUP4 MSTORE POP POP POP POP PUSH2 0x3D9A JUMP JUMPDEST POP POP POP JUMP JUMPDEST PUSH0 DUP1 PUSH1 0x20 PUSH0 DUP5 MLOAD PUSH1 0x20 DUP7 ADD PUSH0 DUP9 GAS CALL DUP1 PUSH2 0x3DB9 JUMPI PUSH1 0x40 MLOAD RETURNDATASIZE PUSH0 DUP3 RETURNDATACOPY RETURNDATASIZE DUP2 REVERT JUMPDEST RETURNDATASIZE SWAP3 POP PUSH0 MLOAD SWAP2 POP POP PUSH0 DUP3 EQ PUSH2 0x3DD2 JUMPI PUSH1 0x1 DUP2 EQ ISZERO PUSH2 0x3DED JUMP JUMPDEST PUSH0 DUP5 PUSH20 0xFFFFFFFFFFFFFFFFFFFFFFFFFFFFFFFFFFFFFFFF AND EXTCODESIZE EQ JUMPDEST ISZERO PUSH2 0x3E2F JUMPI DUP4 PUSH1 0x40 MLOAD PUSH32 0x5274AFE700000000000000000000000000000000000000000000000000000000 DUP2 MSTORE PUSH1 0x4 ADD PUSH2 0x3E26 SWAP2 SWAP1 PUSH2 0x473F JUMP JUMPDEST PUSH1 0x40 MLOAD DUP1 SWAP2 SUB SWAP1 REVERT JUMPDEST POP POP POP POP JUMP JUMPDEST PUSH0 CALLER SWAP1 POP SWAP1 JUMP JUMPDEST POP DUP1 SLOAD PUSH2 0x3E48 SWAP1 PUSH2 0x4A12 JUMP JUMPDEST PUSH0 DUP3 SSTORE DUP1 PUSH1 0x1F LT PUSH2 0x3E59 JUMPI POP PUSH2 0x3E76 JUMP JUMPDEST PUSH1 0x1F ADD PUSH1 0x20 SWAP1 DIV SWAP1 PUSH0 MSTORE PUSH1 0x20 PUSH0 KECCAK256 SWAP1 DUP2 ADD SWAP1 PUSH2 0x3E75 SWAP2 SWAP1 PUSH2 0x3E79 JUMP JUMPDEST JUMPDEST POP JUMP JUMPDEST JUMPDEST DUP1 DUP3 GT ISZERO PUSH2 0x3E90 JUMPI PUSH0 DUP2 PUSH0 SWAP1 SSTORE POP PUSH1 0x1 ADD PUSH2 0x3E7A JUMP JUMPDEST POP SWAP1 JUMP JUMPDEST PUSH0 PUSH1 0x40 MLOAD SWAP1 POP SWAP1 JUMP JUMPDEST PUSH0 DUP1 REVERT JUMPDEST PUSH0 DUP1 REVERT JUMPDEST PUSH0 PUSH20 0xFFFFFFFFFFFFFFFFFFFFFFFFFFFFFFFFFFFFFFFF DUP3 AND SWAP1 POP SWAP2 SWAP1 POP JUMP JUMPDEST PUSH0 PUSH2 0x3ECE DUP3 PUSH2 0x3EA5 JUMP JUMPDEST SWAP1 POP SWAP2 SWAP1 POP JUMP JUMPDEST PUSH2 0x3EDE DUP2 PUSH2 0x3EC4 JUMP JUMPDEST DUP2 EQ PUSH2 0x3EE8 JUMPI PUSH0 DUP1 REVERT JUMPDEST POP JUMP JUMPDEST PUSH0 DUP2 CALLDATALOAD SWAP1 POP PUSH2 0x3EF9 DUP2 PUSH2 0x3ED5 JUMP JUMPDEST SWAP3 SWAP2 POP POP JUMP JUMPDEST PUSH0 PUSH1 0x20 DUP3 DUP5 SUB SLT ISZERO PUSH2 0x3F14 JUMPI PUSH2 0x3F13 PUSH2 0x3E9D JUMP JUMPDEST JUMPDEST PUSH0 PUSH2 0x3F21 DUP5 DUP3 DUP6 ADD PUSH2 0x3EEB JUMP JUMPDEST SWAP2 POP POP SWAP3 SWAP2 POP POP JUMP JUMPDEST PUSH0 DUP2 ISZERO ISZERO SWAP1 POP SWAP2 SWAP1 POP JUMP JUMPDEST PUSH2 0x3F3E DUP2 PUSH2 0x3F2A JUMP JUMPDEST DUP3 MSTORE POP POP JUMP JUMPDEST PUSH0 PUSH1 0x20 DUP3 ADD SWAP1 POP PUSH2 0x3F57 PUSH0 DUP4 ADD DUP5 PUSH2 0x3F35 JUMP JUMPDEST SWAP3 SWAP2 POP POP JUMP JUMPDEST PUSH0 PUSH2 0x3F67 DUP3 PUSH2 0x3EC4 JUMP JUMPDEST SWAP1 POP SWAP2 SWAP1 POP JUMP JUMPDEST PUSH2 0x3F77 DUP2 PUSH2 0x3F5D JUMP JUMPDEST DUP2 EQ PUSH2 0x3F81 JUMPI PUSH0 DUP1 REVERT JUMPDEST POP JUMP JUMPDEST PUSH0 DUP2 CALLDATALOAD SWAP1 POP PUSH2 0x3F92 DUP2 PUSH2 0x3F6E JUMP JUMPDEST SWAP3 SWAP2 POP POP JUMP JUMPDEST PUSH0 DUP2 SWAP1 POP SWAP2 SWAP1 POP JUMP JUMPDEST PUSH2 0x3FAA DUP2 PUSH2 0x3F98 JUMP JUMPDEST DUP2 EQ PUSH2 0x3FB4 JUMPI PUSH0 DUP1 REVERT JUMPDEST POP JUMP JUMPDEST PUSH0 DUP2 CALLDATALOAD SWAP1 POP PUSH2 0x3FC5 DUP2 PUSH2 0x3FA1 JUMP JUMPDEST SWAP3 SWAP2 POP POP JUMP JUMPDEST PUSH0 PUSH1 0xFF DUP3 AND SWAP1 POP SWAP2 SWAP1 POP JUMP JUMPDEST PUSH2 0x3FE0 DUP2 PUSH2 0x3FCB JUMP JUMPDEST DUP2 EQ PUSH2 0x3FEA JUMPI PUSH0 DUP1 REVERT JUMPDEST POP JUMP JUMPDEST PUSH0 DUP2 CALLDATALOAD SWAP1 POP PUSH2 0x3FFB DUP2 PUSH2 0x3FD7 JUMP JUMPDEST SWAP3 SWAP2 POP POP JUMP JUMPDEST PUSH0 DUP1 REVERT JUMPDEST PUSH0 DUP1 REVERT JUMPDEST PUSH0 PUSH1 0x1F NOT PUSH1 0x1F DUP4 ADD AND SWAP1 POP SWAP2 SWAP1 POP JUMP JUMPDEST PUSH32 0x4E487B7100000000000000000000000000000000000000000000000000000000 PUSH0 MSTORE PUSH1 0x41 PUSH1 0x4 MSTORE PUSH1 0x24 PUSH0 REVERT JUMPDEST PUSH2 0x404F DUP3 PUSH2 0x4009 JUMP JUMPDEST DUP2 ADD DUP2 DUP2 LT PUSH8 0xFFFFFFFFFFFFFFFF DUP3 GT OR ISZERO PUSH2 0x406E JUMPI PUSH2 0x406D PUSH2 0x4019 JUMP JUMPDEST JUMPDEST DUP1 PUSH1 0x40 MSTORE POP POP POP JUMP JUMPDEST PUSH0 PUSH2 0x4080 PUSH2 0x3E94 JUMP JUMPDEST SWAP1 POP PUSH2 0x408C DUP3 DUP3 PUSH2 0x4046 JUMP JUMPDEST SWAP2 SWAP1 POP JUMP JUMPDEST PUSH0 PUSH8 0xFFFFFFFFFFFFFFFF DUP3 GT ISZERO PUSH2 0x40AB JUMPI PUSH2 0x40AA PUSH2 0x4019 JUMP JUMPDEST JUMPDEST PUSH2 0x40B4 DUP3 PUSH2 0x4009 JUMP JUMPDEST SWAP1 POP PUSH1 0x20 DUP2 ADD SWAP1 POP SWAP2 SWAP1 POP JUMP JUMPDEST DUP3 DUP2 DUP4 CALLDATACOPY PUSH0 DUP4 DUP4 ADD MSTORE POP POP POP JUMP JUMPDEST PUSH0 PUSH2 0x40E1 PUSH2 0x40DC DUP5 PUSH2 0x4091 JUMP JUMPDEST PUSH2 0x4077 JUMP JUMPDEST SWAP1 POP DUP3 DUP2 MSTORE PUSH1 0x20 DUP2 ADD DUP5 DUP5 DUP5 ADD GT ISZERO PUSH2 0x40FD JUMPI PUSH2 0x40FC PUSH2 0x4005 JUMP JUMPDEST JUMPDEST PUSH2 0x4108 DUP5 DUP3 DUP6 PUSH2 0x40C1 JUMP JUMPDEST POP SWAP4 SWAP3 POP POP POP JUMP JUMPDEST PUSH0 DUP3 PUSH1 0x1F DUP4 ADD SLT PUSH2 0x4124 JUMPI PUSH2 0x4123 PUSH2 0x4001 JUMP JUMPDEST JUMPDEST DUP2 CALLDATALOAD PUSH2 0x4134 DUP5 DUP3 PUSH1 0x20 DUP7 ADD PUSH2 0x40CF JUMP JUMPDEST SWAP2 POP POP SWAP3 SWAP2 POP POP JUMP JUMPDEST PUSH0 DUP1 PUSH0 DUP1 PUSH0 PUSH1 0xA0 DUP7 DUP9 SUB SLT ISZERO PUSH2 0x4156 JUMPI PUSH2 0x4155 PUSH2 0x3E9D JUMP JUMPDEST JUMPDEST PUSH0 PUSH2 0x4163 DUP9 DUP3 DUP10 ADD PUSH2 0x3F84 JUMP JUMPDEST SWAP6 POP POP PUSH1 0x20 PUSH2 0x4174 DUP9 DUP3 DUP10 ADD PUSH2 0x3FB7 JUMP JUMPDEST SWAP5 POP POP PUSH1 0x40 PUSH2 0x4185 DUP9 DUP3 DUP10 ADD PUSH2 0x3FED JUMP JUMPDEST SWAP4 POP POP PUSH1 0x60 PUSH2 0x4196 DUP9 DUP3 DUP10 ADD PUSH2 0x3FB7 JUMP JUMPDEST SWAP3 POP POP PUSH1 0x80 DUP7 ADD CALLDATALOAD PUSH8 0xFFFFFFFFFFFFFFFF DUP2 GT ISZERO PUSH2 0x41B7 JUMPI PUSH2 0x41B6 PUSH2 0x3EA1 JUMP JUMPDEST JUMPDEST PUSH2 0x41C3 DUP9 DUP3 DUP10 ADD PUSH2 0x4110 JUMP JUMPDEST SWAP2 POP POP SWAP3 SWAP6 POP SWAP3 SWAP6 SWAP1 SWAP4 POP JUMP JUMPDEST PUSH0 PUSH1 0x20 DUP3 DUP5 SUB SLT ISZERO PUSH2 0x41E5 JUMPI PUSH2 0x41E4 PUSH2 0x3E9D JUMP JUMPDEST JUMPDEST PUSH0 PUSH2 0x41F2 DUP5 DUP3 DUP6 ADD PUSH2 0x3F84 JUMP JUMPDEST SWAP2 POP POP SWAP3 SWAP2 POP POP JUMP JUMPDEST PUSH2 0x4204 DUP2 PUSH2 0x3F98 JUMP JUMPDEST DUP3 MSTORE POP POP JUMP JUMPDEST PUSH0 PUSH1 0x20 DUP3 ADD SWAP1 POP PUSH2 0x421D PUSH0 DUP4 ADD DUP5 PUSH2 0x41FB JUMP JUMPDEST SWAP3 SWAP2 POP POP JUMP JUMPDEST PUSH0 PUSH4 0xFFFFFFFF DUP3 AND SWAP1 POP SWAP2 SWAP1 POP JUMP JUMPDEST PUSH2 0x423B DUP2 PUSH2 0x4223 JUMP JUMPDEST DUP2 EQ PUSH2 0x4245 JUMPI PUSH0 DUP1 REVERT JUMPDEST POP JUMP JUMPDEST PUSH0 DUP2 CALLDATALOAD SWAP1 POP PUSH2 0x4256 DUP2 PUSH2 0x4232 JUMP JUMPDEST SWAP3 SWAP2 POP POP JUMP JUMPDEST PUSH0 DUP1 PUSH0 DUP1 PUSH1 0x80 DUP6 DUP8 SUB SLT ISZERO PUSH2 0x4274 JUMPI PUSH2 0x4273 PUSH2 0x3E9D JUMP JUMPDEST JUMPDEST PUSH0 PUSH2 0x4281 DUP8 DUP3 DUP9 ADD PUSH2 0x3F84 JUMP JUMPDEST SWAP5 POP POP PUSH1 0x20 PUSH2 0x4292 DUP8 DUP3 DUP9 ADD PUSH2 0x4248 JUMP JUMPDEST SWAP4 POP POP PUSH1 0x40 PUSH2 0x42A3 DUP8 DUP3 DUP9 ADD PUSH2 0x3FB7 JUMP JUMPDEST SWAP3 POP POP PUSH1 0x60 PUSH2 0x42B4 DUP8 DUP3 DUP9 ADD PUSH2 0x3FED JUMP JUMPDEST SWAP2 POP POP SWAP3 SWAP6 SWAP2 SWAP5 POP SWAP3 POP JUMP JUMPDEST PUSH0 PUSH1 0x20 DUP3 DUP5 SUB SLT ISZERO PUSH2 0x42D5 JUMPI PUSH2 0x42D4 PUSH2 0x3E9D JUMP JUMPDEST JUMPDEST PUSH0 PUSH2 0x42E2 DUP5 DUP3 DUP6 ADD PUSH2 0x3FED JUMP JUMPDEST SWAP2 POP POP SWAP3 SWAP2 POP POP JUMP JUMPDEST PUSH0 DUP2 MLOAD SWAP1 POP SWAP2 SWAP1 POP JUMP JUMPDEST PUSH0 DUP3 DUP3 MSTORE PUSH1 0x20 DUP3 ADD SWAP1 POP SWAP3 SWAP2 POP POP JUMP JUMPDEST PUSH0 DUP2 SWAP1 POP PUSH1 0x20 DUP3 ADD SWAP1 POP SWAP2 SWAP1 POP JUMP JUMPDEST PUSH2 0x431D DUP2 PUSH2 0x3EC4 JUMP JUMPDEST DUP3 MSTORE POP POP JUMP JUMPDEST PUSH2 0x432C DUP2 PUSH2 0x3F98 JUMP JUMPDEST DUP3 MSTORE POP POP JUMP JUMPDEST PUSH2 0x433B DUP2 PUSH2 0x4223 JUMP JUMPDEST DUP3 MSTORE POP POP JUMP JUMPDEST PUSH0 DUP2 MLOAD SWAP1 POP SWAP2 SWAP1 POP JUMP JUMPDEST PUSH0 DUP3 DUP3 MSTORE PUSH1 0x20 DUP3 ADD SWAP1 POP SWAP3 SWAP2 POP POP JUMP JUMPDEST DUP3 DUP2 DUP4 MCOPY PUSH0 DUP4 DUP4 ADD MSTORE POP POP POP JUMP JUMPDEST PUSH0 PUSH2 0x4373 DUP3 PUSH2 0x4341 JUMP JUMPDEST PUSH2 0x437D DUP2 DUP6 PUSH2 0x434B JUMP JUMPDEST SWAP4 POP PUSH2 0x438D DUP2 DUP6 PUSH1 0x20 DUP7 ADD PUSH2 0x435B JUMP JUMPDEST PUSH2 0x4396 DUP2 PUSH2 0x4009 JUMP JUMPDEST DUP5 ADD SWAP2 POP POP SWAP3 SWAP2 POP POP JUMP JUMPDEST PUSH2 0x43AA DUP2 PUSH2 0x3F2A JUMP JUMPDEST DUP3 MSTORE POP POP JUMP JUMPDEST PUSH0 PUSH1 0xC0 DUP4 ADD PUSH0 DUP4 ADD MLOAD PUSH2 0x43C5 PUSH0 DUP7 ADD DUP3 PUSH2 0x4314 JUMP JUMPDEST POP PUSH1 0x20 DUP4 ADD MLOAD PUSH2 0x43D8 PUSH1 0x20 DUP7 ADD DUP3 PUSH2 0x4323 JUMP JUMPDEST POP PUSH1 0x40 DUP4 ADD MLOAD PUSH2 0x43EB PUSH1 0x40 DUP7 ADD DUP3 PUSH2 0x4332 JUMP JUMPDEST POP PUSH1 0x60 DUP4 ADD MLOAD DUP5 DUP3 SUB PUSH1 0x60 DUP7 ADD MSTORE PUSH2 0x4403 DUP3 DUP3 PUSH2 0x4369 JUMP JUMPDEST SWAP2 POP POP PUSH1 0x80 DUP4 ADD MLOAD PUSH2 0x4418 PUSH1 0x80 DUP7 ADD DUP3 PUSH2 0x43A1 JUMP JUMPDEST POP PUSH1 0xA0 DUP4 ADD MLOAD PUSH2 0x442B PUSH1 0xA0 DUP7 ADD DUP3 PUSH2 0x43A1 JUMP JUMPDEST POP DUP1 SWAP2 POP POP SWAP3 SWAP2 POP POP JUMP JUMPDEST PUSH0 PUSH2 0x4441 DUP4 DUP4 PUSH2 0x43B0 JUMP JUMPDEST SWAP1 POP SWAP3 SWAP2 POP POP JUMP JUMPDEST PUSH0 PUSH1 0x20 DUP3 ADD SWAP1 POP SWAP2 SWAP1 POP JUMP JUMPDEST PUSH0 PUSH2 0x445F DUP3 PUSH2 0x42EB JUMP JUMPDEST PUSH2 0x4469 DUP2 DUP6 PUSH2 0x42F5 JUMP JUMPDEST SWAP4 POP DUP4 PUSH1 0x20 DUP3 MUL DUP6 ADD PUSH2 0x447B DUP6 PUSH2 0x4305 JUMP JUMPDEST DUP1 PUSH0 JUMPDEST DUP6 DUP2 LT ISZERO PUSH2 0x44B6 JUMPI DUP5 DUP5 SUB DUP10 MSTORE DUP2 MLOAD PUSH2 0x4497 DUP6 DUP3 PUSH2 0x4436 JUMP JUMPDEST SWAP5 POP PUSH2 0x44A2 DUP4 PUSH2 0x4449 JUMP JUMPDEST SWAP3 POP PUSH1 0x20 DUP11 ADD SWAP10 POP POP PUSH1 0x1 DUP2 ADD SWAP1 POP PUSH2 0x447E JUMP JUMPDEST POP DUP3 SWAP8 POP DUP8 SWAP6 POP POP POP POP POP POP SWAP3 SWAP2 POP POP JUMP JUMPDEST PUSH0 PUSH1 0x20 DUP3 ADD SWAP1 POP DUP2 DUP2 SUB PUSH0 DUP4 ADD MSTORE PUSH2 0x44E0 DUP2 DUP5 PUSH2 0x4455 JUMP JUMPDEST SWAP1 POP SWAP3 SWAP2 POP POP JUMP JUMPDEST PUSH0 DUP1 PUSH1 0x40 DUP4 DUP6 SUB SLT ISZERO PUSH2 0x44FE JUMPI PUSH2 0x44FD PUSH2 0x3E9D JUMP JUMPDEST JUMPDEST PUSH0 PUSH2 0x450B DUP6 DUP3 DUP7 ADD PUSH2 0x3FED JUMP JUMPDEST SWAP3 POP POP PUSH1 0x20 PUSH2 0x451C DUP6 DUP3 DUP7 ADD PUSH2 0x3FED JUMP JUMPDEST SWAP2 POP POP SWAP3 POP SWAP3 SWAP1 POP JUMP JUMPDEST PUSH0 DUP1 PUSH0 PUSH1 0x60 DUP5 DUP7 SUB SLT ISZERO PUSH2 0x453D JUMPI PUSH2 0x453C PUSH2 0x3E9D JUMP JUMPDEST JUMPDEST PUSH0 PUSH2 0x454A DUP7 DUP3 DUP8 ADD PUSH2 0x3EEB JUMP JUMPDEST SWAP4 POP POP PUSH1 0x20 PUSH2 0x455B DUP7 DUP3 DUP8 ADD PUSH2 0x3FED JUMP JUMPDEST SWAP3 POP POP PUSH1 0x40 PUSH2 0x456C DUP7 DUP3 DUP8 ADD PUSH2 0x3FB7 JUMP JUMPDEST SWAP2 POP POP SWAP3 POP SWAP3 POP SWAP3 JUMP JUMPDEST PUSH2 0x457F DUP2 PUSH2 0x3EC4 JUMP JUMPDEST DUP3 MSTORE POP POP JUMP JUMPDEST PUSH0 DUP3 DUP3 MSTORE PUSH1 0x20 DUP3 ADD SWAP1 POP SWAP3 SWAP2 POP POP JUMP JUMPDEST PUSH0 PUSH2 0x459F DUP3 PUSH2 0x4341 JUMP JUMPDEST PUSH2 0x45A9 DUP2 DUP6 PUSH2 0x4585 JUMP JUMPDEST SWAP4 POP PUSH2 0x45B9 DUP2 DUP6 PUSH1 0x20 DUP7 ADD PUSH2 0x435B JUMP JUMPDEST PUSH2 0x45C2 DUP2 PUSH2 0x4009 JUMP JUMPDEST DUP5 ADD SWAP2 POP POP SWAP3 SWAP2 POP POP JUMP JUMPDEST PUSH2 0x45D6 DUP2 PUSH2 0x4223 JUMP JUMPDEST DUP3 MSTORE POP POP JUMP JUMPDEST PUSH0 PUSH1 0xA0 DUP3 ADD SWAP1 POP PUSH2 0x45EF PUSH0 DUP4 ADD DUP9 PUSH2 0x4576 JUMP JUMPDEST PUSH2 0x45FC PUSH1 0x20 DUP4 ADD DUP8 PUSH2 0x41FB JUMP JUMPDEST DUP2 DUP2 SUB PUSH1 0x40 DUP4 ADD MSTORE PUSH2 0x460E DUP2 DUP7 PUSH2 0x4595 JUMP JUMPDEST SWAP1 POP PUSH2 0x461D PUSH1 0x60 DUP4 ADD DUP6 PUSH2 0x3F35 JUMP JUMPDEST PUSH2 0x462A PUSH1 0x80 DUP4 ADD DUP5 PUSH2 0x45CD JUMP JUMPDEST SWAP7 SWAP6 POP POP POP POP POP POP JUMP JUMPDEST PUSH0 DUP1 PUSH0 DUP1 PUSH0 PUSH1 0xA0 DUP7 DUP9 SUB SLT ISZERO PUSH2 0x464D JUMPI PUSH2 0x464C PUSH2 0x3E9D JUMP JUMPDEST JUMPDEST PUSH0 PUSH2 0x465A DUP9 DUP3 DUP10 ADD PUSH2 0x3FB7 JUMP JUMPDEST SWAP6 POP POP PUSH1 0x20 PUSH2 0x466B DUP9 DUP3 DUP10 ADD PUSH2 0x3FED JUMP JUMPDEST SWAP5 POP POP PUSH1 0x40 PUSH2 0x467C DUP9 DUP3 DUP10 ADD PUSH2 0x3FED JUMP JUMPDEST SWAP4 POP POP PUSH1 0x60 PUSH2 0x468D DUP9 DUP3 DUP10 ADD PUSH2 0x3FED JUMP JUMPDEST SWAP3 POP POP PUSH1 0x80 PUSH2 0x469E DUP9 DUP3 DUP10 ADD PUSH2 0x3FED JUMP JUMPDEST SWAP2 POP POP SWAP3 SWAP6 POP SWAP3 SWAP6 SWAP1 SWAP4 POP JUMP JUMPDEST PUSH0 DUP1 PUSH0 PUSH1 0x60 DUP5 DUP7 SUB SLT ISZERO PUSH2 0x46C2 JUMPI PUSH2 0x46C1 PUSH2 0x3E9D JUMP JUMPDEST JUMPDEST PUSH0 PUSH2 0x46CF DUP7 DUP3 DUP8 ADD PUSH2 0x3FED JUMP JUMPDEST SWAP4 POP POP PUSH1 0x20 PUSH2 0x46E0 DUP7 DUP3 DUP8 ADD PUSH2 0x3FED JUMP JUMPDEST SWAP3 POP POP PUSH1 0x40 DUP5 ADD CALLDATALOAD PUSH8 0xFFFFFFFFFFFFFFFF DUP2 GT ISZERO PUSH2 0x4701 JUMPI PUSH2 0x4700 PUSH2 0x3EA1 JUMP JUMPDEST JUMPDEST PUSH2 0x470D DUP7 DUP3 DUP8 ADD PUSH2 0x4110 JUMP JUMPDEST SWAP2 POP POP SWAP3 POP SWAP3 POP SWAP3 JUMP JUMPDEST PUSH2 0x4720 DUP2 PUSH2 0x3FCB JUMP JUMPDEST DUP3 MSTORE POP POP JUMP JUMPDEST PUSH0 PUSH1 0x20 DUP3 ADD SWAP1 POP PUSH2 0x4739 PUSH0 DUP4 ADD DUP5 PUSH2 0x4717 JUMP JUMPDEST SWAP3 SWAP2 POP POP JUMP JUMPDEST PUSH0 PUSH1 0x20 DUP3 ADD SWAP1 POP PUSH2 0x4752 PUSH0 DUP4 ADD DUP5 PUSH2 0x4576 JUMP JUMPDEST SWAP3 SWAP2 POP POP JUMP JUMPDEST PUSH0 PUSH1 0xC0 DUP3 ADD SWAP1 POP PUSH2 0x476B PUSH0 DUP4 ADD DUP10 PUSH2 0x4576 JUMP JUMPDEST PUSH2 0x4778 PUSH1 0x20 DUP4 ADD DUP9 PUSH2 0x41FB JUMP JUMPDEST PUSH2 0x4785 PUSH1 0x40 DUP4 ADD DUP8 PUSH2 0x45CD JUMP JUMPDEST DUP2 DUP2 SUB PUSH1 0x60 DUP4 ADD MSTORE PUSH2 0x4797 DUP2 DUP7 PUSH2 0x4595 JUMP JUMPDEST SWAP1 POP PUSH2 0x47A6 PUSH1 0x80 DUP4 ADD DUP6 PUSH2 0x3F35 JUMP JUMPDEST PUSH2 0x47B3 PUSH1 0xA0 DUP4 ADD DUP5 PUSH2 0x3F35 JUMP JUMPDEST SWAP8 SWAP7 POP POP POP POP POP POP POP JUMP JUMPDEST PUSH0 DUP1 PUSH0 PUSH1 0x60 DUP5 DUP7 SUB SLT ISZERO PUSH2 0x47D5 JUMPI PUSH2 0x47D4 PUSH2 0x3E9D JUMP JUMPDEST JUMPDEST PUSH0 PUSH2 0x47E2 DUP7 DUP3 DUP8 ADD PUSH2 0x3FED JUMP JUMPDEST SWAP4 POP POP PUSH1 0x20 PUSH2 0x47F3 DUP7 DUP3 DUP8 ADD PUSH2 0x4248 JUMP JUMPDEST SWAP3 POP POP PUSH1 0x40 DUP5 ADD CALLDATALOAD PUSH8 0xFFFFFFFFFFFFFFFF DUP2 GT ISZERO PUSH2 0x4814 JUMPI PUSH2 0x4813 PUSH2 0x3EA1 JUMP JUMPDEST JUMPDEST PUSH2 0x4820 DUP7 DUP3 DUP8 ADD PUSH2 0x4110 JUMP JUMPDEST SWAP2 POP POP SWAP3 POP SWAP3 POP SWAP3 JUMP JUMPDEST PUSH2 0x4833 DUP2 PUSH2 0x3F2A JUMP JUMPDEST DUP2 EQ PUSH2 0x483D JUMPI PUSH0 DUP1 REVERT JUMPDEST POP JUMP JUMPDEST PUSH0 DUP2 CALLDATALOAD SWAP1 POP PUSH2 0x484E DUP2 PUSH2 0x482A JUMP JUMPDEST SWAP3 SWAP2 POP POP JUMP JUMPDEST PUSH0 DUP1 PUSH0 DUP1 PUSH1 0x80 DUP6 DUP8 SUB SLT ISZERO PUSH2 0x486C JUMPI PUSH2 0x486B PUSH2 0x3E9D JUMP JUMPDEST JUMPDEST PUSH0 PUSH2 0x4879 DUP8 DUP3 DUP9 ADD PUSH2 0x4248 JUMP JUMPDEST SWAP5 POP POP PUSH1 0x20 PUSH2 0x488A DUP8 DUP3 DUP9 ADD PUSH2 0x3FED JUMP JUMPDEST SWAP4 POP POP PUSH1 0x40 PUSH2 0x489B DUP8 DUP3 DUP9 ADD PUSH2 0x3FB7 JUMP JUMPDEST SWAP3 POP POP PUSH1 0x60 PUSH2 0x48AC DUP8 DUP3 DUP9 ADD PUSH2 0x4840 JUMP JUMPDEST SWAP2 POP POP SWAP3 SWAP6 SWAP2 SWAP5 POP SWAP3 POP JUMP JUMPDEST PUSH0 DUP1 PUSH0 PUSH1 0x60 DUP5 DUP7 SUB SLT ISZERO PUSH2 0x48CF JUMPI PUSH2 0x48CE PUSH2 0x3E9D JUMP JUMPDEST JUMPDEST PUSH0 PUSH2 0x48DC DUP7 DUP3 DUP8 ADD PUSH2 0x4248 JUMP JUMPDEST SWAP4 POP POP PUSH1 0x20 PUSH2 0x48ED DUP7 DUP3 DUP8 ADD PUSH2 0x3FED JUMP JUMPDEST SWAP3 POP POP PUSH1 0x40 PUSH2 0x48FE DUP7 DUP3 DUP8 ADD PUSH2 0x4248 JUMP JUMPDEST SWAP2 POP POP SWAP3 POP SWAP3 POP SWAP3 JUMP JUMPDEST PUSH0 DUP1 PUSH1 0x40 DUP4 DUP6 SUB SLT ISZERO PUSH2 0x491E JUMPI PUSH2 0x491D PUSH2 0x3E9D JUMP JUMPDEST JUMPDEST PUSH0 PUSH2 0x492B DUP6 DUP3 DUP7 ADD PUSH2 0x3FED JUMP JUMPDEST SWAP3 POP POP PUSH1 0x20 PUSH2 0x493C DUP6 DUP3 DUP7 ADD PUSH2 0x4248 JUMP JUMPDEST SWAP2 POP POP SWAP3 POP SWAP3 SWAP1 POP JUMP JUMPDEST PUSH0 DUP2 MLOAD SWAP1 POP PUSH2 0x4954 DUP2 PUSH2 0x3FA1 JUMP JUMPDEST SWAP3 SWAP2 POP POP JUMP JUMPDEST PUSH0 PUSH1 0x20 DUP3 DUP5 SUB SLT ISZERO PUSH2 0x496F JUMPI PUSH2 0x496E PUSH2 0x3E9D JUMP JUMPDEST JUMPDEST PUSH0 PUSH2 0x497C DUP5 DUP3 DUP6 ADD PUSH2 0x4946 JUMP JUMPDEST SWAP2 POP POP SWAP3 SWAP2 POP POP JUMP JUMPDEST PUSH32 0x4E487B7100000000000000000000000000000000000000000000000000000000 PUSH0 MSTORE PUSH1 0x11 PUSH1 0x4 MSTORE PUSH1 0x24 PUSH0 REVERT JUMPDEST PUSH0 PUSH2 0x49BC DUP3 PUSH2 0x3F98 JUMP JUMPDEST SWAP2 POP PUSH2 0x49C7 DUP4 PUSH2 0x3F98 JUMP JUMPDEST SWAP3 POP DUP3 DUP3 ADD SWAP1 POP DUP1 DUP3 GT ISZERO PUSH2 0x49DF JUMPI PUSH2 0x49DE PUSH2 0x4985 JUMP JUMPDEST JUMPDEST SWAP3 SWAP2 POP POP JUMP JUMPDEST PUSH32 0x4E487B7100000000000000000000000000000000000000000000000000000000 PUSH0 MSTORE PUSH1 0x22 PUSH1 0x4 MSTORE PUSH1 0x24 PUSH0 REVERT JUMPDEST PUSH0 PUSH1 0x2 DUP3 DIV SWAP1 POP PUSH1 0x1 DUP3 AND DUP1 PUSH2 0x4A29 JUMPI PUSH1 0x7F DUP3 AND SWAP2 POP JUMPDEST PUSH1 0x20 DUP3 LT DUP2 SUB PUSH2 0x4A3C JUMPI PUSH2 0x4A3B PUSH2 0x49E5 JUMP JUMPDEST JUMPDEST POP SWAP2 SWAP1 POP JUMP JUMPDEST PUSH0 DUP2 SWAP1 POP DUP2 PUSH0 MSTORE PUSH1 0x20 PUSH0 KECCAK256 SWAP1 POP SWAP2 SWAP1 POP JUMP JUMPDEST PUSH0 PUSH1 0x20 PUSH1 0x1F DUP4 ADD DIV SWAP1 POP SWAP2 SWAP1 POP JUMP JUMPDEST PUSH0 DUP3 DUP3 SHL SWAP1 POP SWAP3 SWAP2 POP POP JUMP JUMPDEST PUSH0 PUSH1 0x8 DUP4 MUL PUSH2 0x4A9E PUSH32 0xFFFFFFFFFFFFFFFFFFFFFFFFFFFFFFFFFFFFFFFFFFFFFFFFFFFFFFFFFFFFFFFF DUP3 PUSH2 0x4A63 JUMP JUMPDEST PUSH2 0x4AA8 DUP7 DUP4 PUSH2 0x4A63 JUMP JUMPDEST SWAP6 POP DUP1 NOT DUP5 AND SWAP4 POP DUP1 DUP7 AND DUP5 OR SWAP3 POP POP POP SWAP4 SWAP3 POP POP POP JUMP JUMPDEST PUSH0 DUP2 SWAP1 POP SWAP2 SWAP1 POP JUMP JUMPDEST PUSH0 PUSH2 0x4AE3 PUSH2 0x4ADE PUSH2 0x4AD9 DUP5 PUSH2 0x3F98 JUMP JUMPDEST PUSH2 0x4AC0 JUMP JUMPDEST PUSH2 0x3F98 JUMP JUMPDEST SWAP1 POP SWAP2 SWAP1 POP JUMP JUMPDEST PUSH0 DUP2 SWAP1 POP SWAP2 SWAP1 POP JUMP JUMPDEST PUSH2 0x4AFC DUP4 PUSH2 0x4AC9 JUMP JUMPDEST PUSH2 0x4B10 PUSH2 0x4B08 DUP3 PUSH2 0x4AEA JUMP JUMPDEST DUP5 DUP5 SLOAD PUSH2 0x4A6F JUMP JUMPDEST DUP3 SSTORE POP POP POP POP JUMP JUMPDEST PUSH0 SWAP1 JUMP JUMPDEST PUSH2 0x4B24 PUSH2 0x4B18 JUMP JUMPDEST PUSH2 0x4B2F DUP2 DUP5 DUP5 PUSH2 0x4AF3 JUMP JUMPDEST POP POP POP JUMP JUMPDEST JUMPDEST DUP2 DUP2 LT ISZERO PUSH2 0x4B52 JUMPI PUSH2 0x4B47 PUSH0 DUP3 PUSH2 0x4B1C JUMP JUMPDEST PUSH1 0x1 DUP2 ADD SWAP1 POP PUSH2 0x4B35 JUMP JUMPDEST POP POP JUMP JUMPDEST PUSH1 0x1F DUP3 GT ISZERO PUSH2 0x4B97 JUMPI PUSH2 0x4B68 DUP2 PUSH2 0x4A42 JUMP JUMPDEST PUSH2 0x4B71 DUP5 PUSH2 0x4A54 JUMP JUMPDEST DUP2 ADD PUSH1 0x20 DUP6 LT ISZERO PUSH2 0x4B80 JUMPI DUP2 SWAP1 POP JUMPDEST PUSH2 0x4B94 PUSH2 0x4B8C DUP6 PUSH2 0x4A54 JUMP JUMPDEST DUP4 ADD DUP3 PUSH2 0x4B34 JUMP JUMPDEST POP POP JUMPDEST POP POP POP JUMP JUMPDEST PUSH0 DUP3 DUP3 SHR SWAP1 POP SWAP3 SWAP2 POP POP JUMP JUMPDEST PUSH0 PUSH2 0x4BB7 PUSH0 NOT DUP5 PUSH1 0x8 MUL PUSH2 0x4B9C JUMP JUMPDEST NOT DUP1 DUP4 AND SWAP2 POP POP SWAP3 SWAP2 POP POP JUMP JUMPDEST PUSH0 PUSH2 0x4BCF DUP4 DUP4 PUSH2 0x4BA8 JUMP JUMPDEST SWAP2 POP DUP3 PUSH1 0x2 MUL DUP3 OR SWAP1 POP SWAP3 SWAP2 POP POP JUMP JUMPDEST PUSH2 0x4BE8 DUP3 PUSH2 0x4341 JUMP JUMPDEST PUSH8 0xFFFFFFFFFFFFFFFF DUP2 GT ISZERO PUSH2 0x4C01 JUMPI PUSH2 0x4C00 PUSH2 0x4019 JUMP JUMPDEST JUMPDEST PUSH2 0x4C0B DUP3 SLOAD PUSH2 0x4A12 JUMP JUMPDEST PUSH2 0x4C16 DUP3 DUP3 DUP6 PUSH2 0x4B56 JUMP JUMPDEST PUSH0 PUSH1 0x20 SWAP1 POP PUSH1 0x1F DUP4 GT PUSH1 0x1 DUP2 EQ PUSH2 0x4C47 JUMPI PUSH0 DUP5 ISZERO PUSH2 0x4C35 JUMPI DUP3 DUP8 ADD MLOAD SWAP1 POP JUMPDEST PUSH2 0x4C3F DUP6 DUP3 PUSH2 0x4BC4 JUMP JUMPDEST DUP7 SSTORE POP PUSH2 0x4CA6 JUMP JUMPDEST PUSH1 0x1F NOT DUP5 AND PUSH2 0x4C55 DUP7 PUSH2 0x4A42 JUMP JUMPDEST PUSH0 JUMPDEST DUP3 DUP2 LT ISZERO PUSH2 0x4C7C JUMPI DUP5 DUP10 ADD MLOAD DUP3 SSTORE PUSH1 0x1 DUP3 ADD SWAP2 POP PUSH1 0x20 DUP6 ADD SWAP5 POP PUSH1 0x20 DUP2 ADD SWAP1 POP PUSH2 0x4C57 JUMP JUMPDEST DUP7 DUP4 LT ISZERO PUSH2 0x4C99 JUMPI DUP5 DUP10 ADD MLOAD PUSH2 0x4C95 PUSH1 0x1F DUP10 AND DUP3 PUSH2 0x4BA8 JUMP JUMPDEST DUP4 SSTORE POP JUMPDEST PUSH1 0x1 PUSH1 0x2 DUP9 MUL ADD DUP9 SSTORE POP POP POP JUMPDEST POP POP POP POP POP POP JUMP JUMPDEST PUSH0 PUSH1 0xA0 DUP3 ADD SWAP1 POP PUSH2 0x4CC1 PUSH0 DUP4 ADD DUP9 PUSH2 0x41FB JUMP JUMPDEST DUP2 DUP2 SUB PUSH1 0x20 DUP4 ADD MSTORE PUSH2 0x4CD3 DUP2 DUP8 PUSH2 0x4595 JUMP JUMPDEST SWAP1 POP PUSH2 0x4CE2 PUSH1 0x40 DUP4 ADD DUP7 PUSH2 0x4717 JUMP JUMPDEST PUSH2 0x4CEF PUSH1 0x60 DUP4 ADD DUP6 PUSH2 0x45CD JUMP JUMPDEST PUSH2 0x4CFC PUSH1 0x80 DUP4 ADD DUP5 PUSH2 0x45CD JUMP JUMPDEST SWAP7 SWAP6 POP POP POP POP POP POP JUMP JUMPDEST PUSH32 0x4E487B7100000000000000000000000000000000000000000000000000000000 PUSH0 MSTORE PUSH1 0x32 PUSH1 0x4 MSTORE PUSH1 0x24 PUSH0 REVERT JUMPDEST PUSH0 DUP2 SLOAD PUSH2 0x4D3F DUP2 PUSH2 0x4A12 JUMP JUMPDEST PUSH2 0x4D49 DUP2 DUP7 PUSH2 0x4585 JUMP JUMPDEST SWAP5 POP PUSH1 0x1 DUP3 AND PUSH0 DUP2 EQ PUSH2 0x4D63 JUMPI PUSH1 0x1 DUP2 EQ PUSH2 0x4D79 JUMPI PUSH2 0x4DAB JUMP JUMPDEST PUSH1 0xFF NOT DUP4 AND DUP7 MSTORE DUP2 ISZERO ISZERO PUSH1 0x20 MUL DUP7 ADD SWAP4 POP PUSH2 0x4DAB JUMP JUMPDEST PUSH2 0x4D82 DUP6 PUSH2 0x4A42 JUMP JUMPDEST PUSH0 JUMPDEST DUP4 DUP2 LT ISZERO PUSH2 0x4DA3 JUMPI DUP2 SLOAD DUP2 DUP10 ADD MSTORE PUSH1 0x1 DUP3 ADD SWAP2 POP PUSH1 0x20 DUP2 ADD SWAP1 POP PUSH2 0x4D84 JUMP JUMPDEST DUP1 DUP9 ADD SWAP6 POP POP POP JUMPDEST POP POP POP SWAP3 SWAP2 POP POP JUMP JUMPDEST PUSH0 PUSH1 0x80 DUP3 ADD SWAP1 POP PUSH2 0x4DC7 PUSH0 DUP4 ADD DUP8 PUSH2 0x41FB JUMP JUMPDEST DUP2 DUP2 SUB PUSH1 0x20 DUP4 ADD MSTORE PUSH2 0x4DD9 DUP2 DUP7 PUSH2 0x4D33 JUMP JUMPDEST SWAP1 POP PUSH2 0x4DE8 PUSH1 0x40 DUP4 ADD DUP6 PUSH2 0x4717 JUMP JUMPDEST PUSH2 0x4DF5 PUSH1 0x60 DUP4 ADD DUP5 PUSH2 0x45CD JUMP JUMPDEST SWAP6 SWAP5 POP POP POP POP POP JUMP JUMPDEST PUSH0 PUSH1 0x20 DUP3 ADD SWAP1 POP PUSH2 0x4E11 PUSH0 DUP4 ADD DUP5 PUSH2 0x45CD JUMP JUMPDEST SWAP3 SWAP2 POP POP JUMP JUMPDEST PUSH0 PUSH2 0x4E21 DUP3 PUSH2 0x3F98 JUMP JUMPDEST SWAP2 POP PUSH2 0x4E2C DUP4 PUSH2 0x3F98 JUMP JUMPDEST SWAP3 POP DUP3 DUP3 SUB SWAP1 POP DUP2 DUP2 GT ISZERO PUSH2 0x4E44 JUMPI PUSH2 0x4E43 PUSH2 0x4985 JUMP JUMPDEST JUMPDEST SWAP3 SWAP2 POP POP JUMP JUMPDEST PUSH0 DUP2 SLOAD SWAP1 POP PUSH2 0x4E58 DUP2 PUSH2 0x4A12 JUMP JUMPDEST SWAP1 POP SWAP2 SWAP1 POP JUMP JUMPDEST DUP2 DUP2 SUB PUSH2 0x4E6D JUMPI POP POP PUSH2 0x4F42 JUMP JUMPDEST PUSH2 0x4E76 DUP3 PUSH2 0x4E4A JUMP JUMPDEST PUSH8 0xFFFFFFFFFFFFFFFF DUP2 GT ISZERO PUSH2 0x4E8F JUMPI PUSH2 0x4E8E PUSH2 0x4019 JUMP JUMPDEST JUMPDEST PUSH2 0x4E99 DUP3 SLOAD PUSH2 0x4A12 JUMP JUMPDEST PUSH2 0x4EA4 DUP3 DUP3 DUP6 PUSH2 0x4B56 JUMP JUMPDEST PUSH0 PUSH1 0x1F DUP4 GT PUSH1 0x1 DUP2 EQ PUSH2 0x4ED1 JUMPI PUSH0 DUP5 ISZERO PUSH2 0x4EBF JUMPI DUP3 DUP8 ADD SLOAD SWAP1 POP JUMPDEST PUSH2 0x4EC9 DUP6 DUP3 PUSH2 0x4BC4 JUMP JUMPDEST DUP7 SSTORE POP PUSH2 0x4F3B JUMP JUMPDEST PUSH1 0x1F NOT DUP5 AND PUSH2 0x4EDF DUP8 PUSH2 0x4A42 JUMP JUMPDEST SWAP7 POP PUSH2 0x4EEA DUP7 PUSH2 0x4A42 JUMP JUMPDEST PUSH0 JUMPDEST DUP3 DUP2 LT ISZERO PUSH2 0x4F11 JUMPI DUP5 DUP10 ADD SLOAD DUP3 SSTORE PUSH1 0x1 DUP3 ADD SWAP2 POP PUSH1 0x1 DUP6 ADD SWAP5 POP PUSH1 0x20 DUP2 ADD SWAP1 POP PUSH2 0x4EEC JUMP JUMPDEST DUP7 DUP4 LT ISZERO PUSH2 0x4F2E JUMPI DUP5 DUP10 ADD SLOAD PUSH2 0x4F2A PUSH1 0x1F DUP10 AND DUP3 PUSH2 0x4BA8 JUMP JUMPDEST DUP4 SSTORE POP JUMPDEST PUSH1 0x1 PUSH1 0x2 DUP9 MUL ADD DUP9 SSTORE POP POP POP JUMPDEST POP POP POP POP POP POP JUMPDEST JUMP JUMPDEST PUSH32 0x4E487B7100000000000000000000000000000000000000000000000000000000 PUSH0 MSTORE PUSH1 0x31 PUSH1 0x4 MSTORE PUSH1 0x24 PUSH0 REVERT JUMPDEST PUSH0 PUSH1 0x60 DUP3 ADD SWAP1 POP PUSH2 0x4F84 PUSH0 DUP4 ADD DUP7 PUSH2 0x4717 JUMP JUMPDEST PUSH2 0x4F91 PUSH1 0x20 DUP4 ADD DUP6 PUSH2 0x4717 JUMP JUMPDEST PUSH2 0x4F9E PUSH1 0x40 DUP4 ADD DUP5 PUSH2 0x45CD JUMP JUMPDEST SWAP5 SWAP4 POP POP POP POP JUMP JUMPDEST PUSH0 PUSH1 0x40 DUP3 ADD SWAP1 POP PUSH2 0x4FB9 PUSH0 DUP4 ADD DUP6 PUSH2 0x4576 JUMP JUMPDEST PUSH2 0x4FC6 PUSH1 0x20 DUP4 ADD DUP5 PUSH2 0x4576 JUMP JUMPDEST SWAP4 SWAP3 POP POP POP JUMP JUMPDEST PUSH0 PUSH1 0xA0 DUP3 ADD SWAP1 POP PUSH2 0x4FE0 PUSH0 DUP4 ADD DUP9 PUSH2 0x41FB JUMP JUMPDEST PUSH2 0x4FED PUSH1 0x20 DUP4 ADD DUP8 PUSH2 0x4717 JUMP JUMPDEST PUSH2 0x4FFA PUSH1 0x40 DUP4 ADD DUP7 PUSH2 0x4717 JUMP JUMPDEST PUSH2 0x5007 PUSH1 0x60 DUP4 ADD DUP6 PUSH2 0x4717 JUMP JUMPDEST PUSH2 0x5014 PUSH1 0x80 DUP4 ADD DUP5 PUSH2 0x4717 JUMP JUMPDEST SWAP7 SWAP6 POP POP POP POP POP POP JUMP JUMPDEST PUSH0 PUSH1 0x60 DUP3 ADD SWAP1 POP DUP2 DUP2 SUB PUSH0 DUP4 ADD MSTORE PUSH2 0x5036 DUP2 DUP7 PUSH2 0x4595 JUMP JUMPDEST SWAP1 POP PUSH2 0x5045 PUSH1 0x20 DUP4 ADD DUP6 PUSH2 0x4717 JUMP JUMPDEST PUSH2 0x5052 PUSH1 0x40 DUP4 ADD DUP5 PUSH2 0x4717 JUMP JUMPDEST SWAP5 SWAP4 POP POP POP POP JUMP JUMPDEST PUSH0 DUP2 SWAP1 POP SWAP3 SWAP2 POP POP JUMP JUMPDEST POP JUMP JUMPDEST PUSH0 PUSH2 0x5072 PUSH0 DUP4 PUSH2 0x505A JUMP JUMPDEST SWAP2 POP PUSH2 0x507D DUP3 PUSH2 0x5064 JUMP JUMPDEST PUSH0 DUP3 ADD SWAP1 POP SWAP2 SWAP1 POP JUMP JUMPDEST PUSH0 PUSH2 0x5091 DUP3 PUSH2 0x5067 JUMP JUMPDEST SWAP2 POP DUP2 SWAP1 POP SWAP2 SWAP1 POP JUMP JUMPDEST PUSH0 PUSH1 0x80 DUP3 ADD SWAP1 POP PUSH2 0x50AE PUSH0 DUP4 ADD DUP8 PUSH2 0x4717 JUMP JUMPDEST PUSH2 0x50BB PUSH1 0x20 DUP4 ADD DUP7 PUSH2 0x45CD JUMP JUMPDEST DUP2 DUP2 SUB PUSH1 0x40 DUP4 ADD MSTORE PUSH2 0x50CD DUP2 DUP6 PUSH2 0x4D33 JUMP JUMPDEST SWAP1 POP PUSH2 0x50DC PUSH1 0x60 DUP4 ADD DUP5 PUSH2 0x45CD JUMP JUMPDEST SWAP6 SWAP5 POP POP POP POP POP JUMP JUMPDEST PUSH0 PUSH1 0x60 DUP3 ADD SWAP1 POP PUSH2 0x50F8 PUSH0 DUP4 ADD DUP7 PUSH2 0x4576 JUMP JUMPDEST PUSH2 0x5105 PUSH1 0x20 DUP4 ADD DUP6 PUSH2 0x4576 JUMP JUMPDEST PUSH2 0x5112 PUSH1 0x40 DUP4 ADD DUP5 PUSH2 0x41FB JUMP JUMPDEST SWAP5 SWAP4 POP POP POP POP JUMP JUMPDEST PUSH0 PUSH1 0x40 DUP3 ADD SWAP1 POP PUSH2 0x512D PUSH0 DUP4 ADD DUP6 PUSH2 0x4576 JUMP JUMPDEST PUSH2 0x513A PUSH1 0x20 DUP4 ADD DUP5 PUSH2 0x41FB JUMP JUMPDEST SWAP4 SWAP3 POP POP POP JUMP INVALID LOG2 PUSH5 0x6970667358 0x22 SLT KECCAK256 0xCE 0xB9 MSIZE 0xB5 LOG0 0x4D SAR 0xD0 0xE0 PUSH30 0x5E455EB386FDEF302672EB09A578189BBFA0DBE18F9E64736F6C63430008 BYTE STOP CALLER "
		},
		"gasEstimates": {
			"creation": {
				"codeDepositCost": "4171000",
				"executionCost": "infinite",
				"totalCost": "infinite"
			},
			"external": {
				"MAX_LOCKDURATION()": "infinite",
				"MAX_SUB_VAULTS()": "infinite",
				"MAX_VAULTS()": "infinite",
				"addToLockedETH(uint8,uint32)": "infinite",
				"addToLockedTokens(address,uint32,uint256,uint8)": "infinite",
				"blackListToken(address)": "infinite",
				"blackListedToken(address)": "2857",
				"deleteVault(uint8,uint8)": "infinite",
				"extendLockPeriod(uint32,uint8,uint32)": "infinite",
				"getContractETHBalance()": "401",
				"getContractTokenBalance(address)": "infinite",
				"getUserLocks(uint8)": "infinite",
				"lockETH(uint8,uint32,string)": "infinite",
				"lockToken(address,uint256,uint8,uint256,string)": "infinite",
				"owner()": "2604",
				"pauseContract()": "infinite",
				"paused()": "2534",
				"renameVault(uint8,uint8,string)": "infinite",
				"renounceOwnership()": "infinite",
				"transferAsset(uint256,uint8,uint8,uint8,uint8)": "infinite",
				"transferOwnership(address)": "infinite",
				"unBlackListToken(address)": "infinite",
				"unPauseContract()": "infinite",
				"userLockedAssets(address,uint8,uint256)": "infinite",
				"userTransactions(address,uint8,uint256)": "infinite",
				"withdrawAsset(uint32,uint8,uint256,bool)": "infinite"
			},
			"internal": {
				"recordTransac(address,uint8,uint256,string memory,bool)": "infinite"
			}
		},
		"methodIdentifiers": {
			"MAX_LOCKDURATION()": "f6d121c9",
			"MAX_SUB_VAULTS()": "87f15742",
			"MAX_VAULTS()": "b6eaea17",
			"addToLockedETH(uint8,uint32)": "ecaa9d05",
			"addToLockedTokens(address,uint32,uint256,uint8)": "2d8fefc2",
			"blackListToken(address)": "7fe0509f",
			"blackListedToken(address)": "07f0a301",
			"deleteVault(uint8,uint8)": "43cadc60",
			"extendLockPeriod(uint32,uint8,uint32)": "df68075a",
			"getContractETHBalance()": "8c89a0ad",
			"getContractTokenBalance(address)": "14205e28",
			"getUserLocks(uint8)": "3b958c38",
			"lockETH(uint8,uint32,string)": "9d41beef",
			"lockToken(address,uint256,uint8,uint256,string)": "0f1419b5",
			"owner()": "8da5cb5b",
			"pauseContract()": "439766ce",
			"paused()": "5c975abb",
			"renameVault(uint8,uint8,string)": "7dd9035b",
			"renounceOwnership()": "715018a6",
			"transferAsset(uint256,uint8,uint8,uint8,uint8)": "6a0afa45",
			"transferOwnership(address)": "f2fde38b",
			"unBlackListToken(address)": "65994f8d",
			"unPauseContract()": "bac15203",
			"userLockedAssets(address,uint8,uint256)": "8e06b906",
			"userTransactions(address,uint8,uint256)": "60864eed",
			"withdrawAsset(uint32,uint8,uint256,bool)": "bf9b9ded"
		}
	},
	"abi": [
		{
			"inputs": [],
			"stateMutability": "nonpayable",
			"type": "constructor"
		},
		{
			"inputs": [],
			"name": "AmountBeGreaterThan0",
			"type": "error"
		},
		{
			"inputs": [],
			"name": "ContractNotpaused",
			"type": "error"
		},
		{
			"inputs": [],
			"name": "ContractPausedAlready",
			"type": "error"
		},
		{
			"inputs": [],
			"name": "ETHTransferFailed",
			"type": "error"
		},
		{
			"inputs": [
				{
					"internalType": "address",
					"name": "token",
					"type": "address"
				}
			],
			"name": "InadequateTokenBalance",
			"type": "error"
		},
		{
			"inputs": [],
			"name": "InvalidAssetID",
			"type": "error"
		},
		{
			"inputs": [],
			"name": "InvalidLockPeriod",
			"type": "error"
		},
		{
			"inputs": [
				{
					"internalType": "address",
					"name": "token",
					"type": "address"
				}
			],
			"name": "InvalidTokenAddress",
			"type": "error"
		},
		{
			"inputs": [],
			"name": "InvalidVaultNumber",
			"type": "error"
		},
		{
			"inputs": [],
			"name": "LockPeriodExpired",
			"type": "error"
		},
		{
			"inputs": [],
			"name": "LockPeriodNotExpired",
			"type": "error"
		},
		{
			"inputs": [],
			"name": "LockPeriodNotExpiredAndGoalNotReached",
			"type": "error"
		},
		{
			"inputs": [
				{
					"internalType": "address",
					"name": "asset",
					"type": "address"
				}
			],
			"name": "NotEnoughToWithdraw",
			"type": "error"
		},
		{
			"inputs": [
				{
					"internalType": "address",
					"name": "owner",
					"type": "address"
				}
			],
			"name": "OwnableInvalidOwner",
			"type": "error"
		},
		{
			"inputs": [
				{
					"internalType": "address",
					"name": "account",
					"type": "address"
				}
			],
			"name": "OwnableUnauthorizedAccount",
			"type": "error"
		},
		{
			"inputs": [],
			"name": "ReentrancyGuardReentrantCall",
			"type": "error"
		},
		{
			"inputs": [
				{
					"internalType": "address",
					"name": "token",
					"type": "address"
				}
			],
			"name": "SafeERC20FailedOperation",
			"type": "error"
		},
		{
			"inputs": [],
			"name": "SubVaultLockPeriodError",
			"type": "error"
		},
		{
			"inputs": [
				{
					"internalType": "address",
					"name": "from",
					"type": "address"
				},
				{
					"internalType": "address",
					"name": "to",
					"type": "address"
				}
			],
			"name": "TokenAddressesDontMatch",
			"type": "error"
		},
		{
			"inputs": [
				{
					"internalType": "address",
					"name": "token",
					"type": "address"
				}
			],
			"name": "TokenIsBlackListed",
			"type": "error"
		},
		{
			"inputs": [
				{
					"internalType": "address",
					"name": "token",
					"type": "address"
				}
			],
			"name": "TokenIsNotBlackListed",
			"type": "error"
		},
		{
			"inputs": [],
			"name": "VaultHasBeenWithdrawn",
			"type": "error"
		},
		{
			"inputs": [],
			"name": "VaultIsFull",
			"type": "error"
		},
		{
			"anonymous": false,
			"inputs": [
				{
					"indexed": true,
					"internalType": "address",
					"name": "token",
					"type": "address"
				},
				{
					"indexed": false,
					"internalType": "uint256",
					"name": "amount",
					"type": "uint256"
				},
				{
					"indexed": false,
					"internalType": "string",
					"name": "title",
					"type": "string"
				},
				{
					"indexed": false,
					"internalType": "uint8",
					"name": "vault",
					"type": "uint8"
				},
				{
					"indexed": false,
					"internalType": "uint32",
					"name": "timestamp",
					"type": "uint32"
				}
			],
			"name": "AssetAdded",
			"type": "event"
		},
		{
			"anonymous": false,
			"inputs": [
				{
					"indexed": true,
					"internalType": "address",
					"name": "token",
					"type": "address"
				},
				{
					"indexed": false,
					"internalType": "uint256",
					"name": "amount",
					"type": "uint256"
				},
				{
					"indexed": false,
					"internalType": "string",
					"name": "title",
					"type": "string"
				},
				{
					"indexed": false,
					"internalType": "uint8",
					"name": "vault",
					"type": "uint8"
				},
				{
					"indexed": false,
					"internalType": "uint32",
					"name": "lockEndTime",
					"type": "uint32"
				},
				{
					"indexed": false,
					"internalType": "uint32",
					"name": "timestamp",
					"type": "uint32"
				}
			],
			"name": "AssetLocked",
			"type": "event"
		},
		{
			"anonymous": false,
			"inputs": [
				{
					"indexed": true,
					"internalType": "address",
					"name": "token",
					"type": "address"
				},
				{
					"indexed": false,
					"internalType": "uint256",
					"name": "amount",
					"type": "uint256"
				},
				{
					"indexed": false,
					"internalType": "string",
					"name": "title",
					"type": "string"
				},
				{
					"indexed": false,
					"internalType": "uint8",
					"name": "vault",
					"type": "uint8"
				},
				{
					"indexed": false,
					"internalType": "uint32",
					"name": "timestamp",
					"type": "uint32"
				}
			],
			"name": "AssetWithdrawn",
			"type": "event"
		},
		{
			"anonymous": false,
			"inputs": [
				{
					"indexed": true,
					"internalType": "address",
					"name": "token",
					"type": "address"
				}
			],
			"name": "BlackListed",
			"type": "event"
		},
		{
			"anonymous": false,
			"inputs": [
				{
					"indexed": false,
					"internalType": "uint32",
					"name": "timestamp",
					"type": "uint32"
				}
			],
			"name": "ContractPaused",
			"type": "event"
		},
		{
			"anonymous": false,
			"inputs": [
				{
					"indexed": false,
					"internalType": "uint32",
					"name": "timestamp",
					"type": "uint32"
				}
			],
			"name": "ContractUnpaused",
			"type": "event"
		},
		{
			"anonymous": false,
			"inputs": [
				{
					"indexed": true,
					"internalType": "address",
					"name": "token",
					"type": "address"
				},
				{
					"indexed": false,
					"internalType": "uint8",
					"name": "vault",
					"type": "uint8"
				},
				{
					"indexed": false,
					"internalType": "uint32",
					"name": "lockperiod",
					"type": "uint32"
				},
				{
					"indexed": false,
					"internalType": "string",
					"name": "title",
					"type": "string"
				},
				{
					"indexed": false,
					"internalType": "uint32",
					"name": "timestamp",
					"type": "uint32"
				}
			],
			"name": "LockPeriodExtended",
			"type": "event"
		},
		{
			"anonymous": false,
			"inputs": [
				{
					"indexed": true,
					"internalType": "address",
					"name": "previousOwner",
					"type": "address"
				},
				{
					"indexed": true,
					"internalType": "address",
					"name": "newOwner",
					"type": "address"
				}
			],
			"name": "OwnershipTransferred",
			"type": "event"
		},
		{
			"anonymous": false,
			"inputs": [
				{
					"indexed": false,
					"internalType": "string",
					"name": "newtitle",
					"type": "string"
				},
				{
					"indexed": false,
					"internalType": "uint8",
					"name": "assetID",
					"type": "uint8"
				},
				{
					"indexed": false,
					"internalType": "uint8",
					"name": "vault",
					"type": "uint8"
				}
			],
			"name": "RenameVault",
			"type": "event"
		},
		{
			"anonymous": false,
			"inputs": [
				{
					"indexed": true,
					"internalType": "address",
					"name": "token",
					"type": "address"
				},
				{
					"indexed": false,
					"internalType": "uint256",
					"name": "amount",
					"type": "uint256"
				},
				{
					"indexed": false,
					"internalType": "uint8",
					"name": "fromVault",
					"type": "uint8"
				},
				{
					"indexed": false,
					"internalType": "uint8",
					"name": "fromAssetID",
					"type": "uint8"
				},
				{
					"indexed": false,
					"internalType": "uint8",
					"name": "toVault",
					"type": "uint8"
				},
				{
					"indexed": false,
					"internalType": "uint8",
					"name": "toAssetID",
					"type": "uint8"
				}
			],
			"name": "TransferAsset",
			"type": "event"
		},
		{
			"anonymous": false,
			"inputs": [
				{
					"indexed": true,
					"internalType": "address",
					"name": "token",
					"type": "address"
				}
			],
			"name": "UnBlackListed",
			"type": "event"
		},
		{
			"anonymous": false,
			"inputs": [
				{
					"indexed": false,
					"internalType": "uint8",
					"name": "vault",
					"type": "uint8"
				},
				{
					"indexed": false,
					"internalType": "uint8",
					"name": "assetID",
					"type": "uint8"
				},
				{
					"indexed": false,
					"internalType": "uint32",
					"name": "timestamp",
					"type": "uint32"
				}
			],
			"name": "VaultDeleted",
			"type": "event"
		},
		{
			"inputs": [],
			"name": "MAX_LOCKDURATION",
			"outputs": [
				{
					"internalType": "uint256",
					"name": "",
					"type": "uint256"
				}
			],
			"stateMutability": "view",
			"type": "function"
		},
		{
			"inputs": [],
			"name": "MAX_SUB_VAULTS",
			"outputs": [
				{
					"internalType": "uint8",
					"name": "",
					"type": "uint8"
				}
			],
			"stateMutability": "view",
			"type": "function"
		},
		{
			"inputs": [],
			"name": "MAX_VAULTS",
			"outputs": [
				{
					"internalType": "uint8",
					"name": "",
					"type": "uint8"
				}
			],
			"stateMutability": "view",
			"type": "function"
		},
		{
			"inputs": [
				{
					"internalType": "uint8",
					"name": "_vault",
					"type": "uint8"
				},
				{
					"internalType": "uint32",
					"name": "_assetID",
					"type": "uint32"
				}
			],
			"name": "addToLockedETH",
			"outputs": [],
			"stateMutability": "payable",
			"type": "function"
		},
		{
			"inputs": [
				{
					"internalType": "contract IERC20",
					"name": "_token",
					"type": "address"
				},
				{
					"internalType": "uint32",
					"name": "_assetID",
					"type": "uint32"
				},
				{
					"internalType": "uint256",
					"name": "_amount",
					"type": "uint256"
				},
				{
					"internalType": "uint8",
					"name": "_vault",
					"type": "uint8"
				}
			],
			"name": "addToLockedTokens",
			"outputs": [],
			"stateMutability": "nonpayable",
			"type": "function"
		},
		{
			"inputs": [
				{
					"internalType": "contract IERC20",
					"name": "_token",
					"type": "address"
				}
			],
			"name": "blackListToken",
			"outputs": [],
			"stateMutability": "nonpayable",
			"type": "function"
		},
		{
			"inputs": [
				{
					"internalType": "address",
					"name": "",
					"type": "address"
				}
			],
			"name": "blackListedToken",
			"outputs": [
				{
					"internalType": "bool",
					"name": "",
					"type": "bool"
				}
			],
			"stateMutability": "view",
			"type": "function"
		},
		{
			"inputs": [
				{
					"internalType": "uint8",
					"name": "_vault",
					"type": "uint8"
				},
				{
					"internalType": "uint8",
					"name": "_assetID",
					"type": "uint8"
				}
			],
			"name": "deleteVault",
			"outputs": [],
			"stateMutability": "nonpayable",
			"type": "function"
		},
		{
			"inputs": [
				{
					"internalType": "uint32",
					"name": "_assetID",
					"type": "uint32"
				},
				{
					"internalType": "uint8",
					"name": "_vault",
					"type": "uint8"
				},
				{
					"internalType": "uint32",
					"name": "_lockperiod",
					"type": "uint32"
				}
			],
			"name": "extendLockPeriod",
			"outputs": [],
			"stateMutability": "nonpayable",
			"type": "function"
		},
		{
			"inputs": [],
			"name": "getContractETHBalance",
			"outputs": [
				{
					"internalType": "uint256",
					"name": "",
					"type": "uint256"
				}
			],
			"stateMutability": "view",
			"type": "function"
		},
		{
			"inputs": [
				{
					"internalType": "contract IERC20",
					"name": "token",
					"type": "address"
				}
			],
			"name": "getContractTokenBalance",
			"outputs": [
				{
					"internalType": "uint256",
					"name": "",
					"type": "uint256"
				}
			],
			"stateMutability": "view",
			"type": "function"
		},
		{
			"inputs": [
				{
					"internalType": "uint8",
					"name": "_vault",
					"type": "uint8"
				}
			],
			"name": "getUserLocks",
			"outputs": [
				{
					"components": [
						{
							"internalType": "address",
							"name": "token",
							"type": "address"
						},
						{
							"internalType": "uint256",
							"name": "amount",
							"type": "uint256"
						},
						{
							"internalType": "uint32",
							"name": "lockEndTime",
							"type": "uint32"
						},
						{
							"internalType": "string",
							"name": "title",
							"type": "string"
						},
						{
							"internalType": "bool",
							"name": "withdrawn",
							"type": "bool"
						},
						{
							"internalType": "bool",
							"name": "isNative",
							"type": "bool"
						}
					],
					"internalType": "struct Fvkry.Lock[]",
					"name": "",
					"type": "tuple[]"
				}
			],
			"stateMutability": "view",
			"type": "function"
		},
		{
			"inputs": [
				{
					"internalType": "uint8",
					"name": "_vault",
					"type": "uint8"
				},
				{
					"internalType": "uint32",
					"name": "_lockperiod",
					"type": "uint32"
				},
				{
					"internalType": "string",
					"name": "_title",
					"type": "string"
				}
			],
			"name": "lockETH",
			"outputs": [],
			"stateMutability": "payable",
			"type": "function"
		},
		{
			"inputs": [
				{
					"internalType": "contract IERC20",
					"name": "_token",
					"type": "address"
				},
				{
					"internalType": "uint256",
					"name": "_amount",
					"type": "uint256"
				},
				{
					"internalType": "uint8",
					"name": "_vault",
					"type": "uint8"
				},
				{
					"internalType": "uint256",
					"name": "_lockperiod",
					"type": "uint256"
				},
				{
					"internalType": "string",
					"name": "_title",
					"type": "string"
				}
			],
			"name": "lockToken",
			"outputs": [],
			"stateMutability": "nonpayable",
			"type": "function"
		},
		{
			"inputs": [],
			"name": "owner",
			"outputs": [
				{
					"internalType": "address",
					"name": "",
					"type": "address"
				}
			],
			"stateMutability": "view",
			"type": "function"
		},
		{
			"inputs": [],
			"name": "pauseContract",
			"outputs": [],
			"stateMutability": "nonpayable",
			"type": "function"
		},
		{
			"inputs": [],
			"name": "paused",
			"outputs": [
				{
					"internalType": "bool",
					"name": "",
					"type": "bool"
				}
			],
			"stateMutability": "view",
			"type": "function"
		},
		{
			"inputs": [
				{
					"internalType": "uint8",
					"name": "_vault",
					"type": "uint8"
				},
				{
					"internalType": "uint8",
					"name": "_assetID",
					"type": "uint8"
				},
				{
					"internalType": "string",
					"name": "_newTitle",
					"type": "string"
				}
			],
			"name": "renameVault",
			"outputs": [],
			"stateMutability": "nonpayable",
			"type": "function"
		},
		{
			"inputs": [],
			"name": "renounceOwnership",
			"outputs": [],
			"stateMutability": "nonpayable",
			"type": "function"
		},
		{
			"inputs": [
				{
					"internalType": "uint256",
					"name": "_amount",
					"type": "uint256"
				},
				{
					"internalType": "uint8",
					"name": "_fromVault",
					"type": "uint8"
				},
				{
					"internalType": "uint8",
					"name": "_fromAssetID",
					"type": "uint8"
				},
				{
					"internalType": "uint8",
					"name": "_toVault",
					"type": "uint8"
				},
				{
					"internalType": "uint8",
					"name": "_toAssetID",
					"type": "uint8"
				}
			],
			"name": "transferAsset",
			"outputs": [],
			"stateMutability": "nonpayable",
			"type": "function"
		},
		{
			"inputs": [
				{
					"internalType": "address",
					"name": "newOwner",
					"type": "address"
				}
			],
			"name": "transferOwnership",
			"outputs": [],
			"stateMutability": "nonpayable",
			"type": "function"
		},
		{
			"inputs": [
				{
					"internalType": "contract IERC20",
					"name": "_token",
					"type": "address"
				}
			],
			"name": "unBlackListToken",
			"outputs": [],
			"stateMutability": "nonpayable",
			"type": "function"
		},
		{
			"inputs": [],
			"name": "unPauseContract",
			"outputs": [],
			"stateMutability": "nonpayable",
			"type": "function"
		},
		{
			"inputs": [
				{
					"internalType": "address",
					"name": "",
					"type": "address"
				},
				{
					"internalType": "uint8",
					"name": "",
					"type": "uint8"
				},
				{
					"internalType": "uint256",
					"name": "",
					"type": "uint256"
				}
			],
			"name": "userLockedAssets",
			"outputs": [
				{
					"internalType": "address",
					"name": "token",
					"type": "address"
				},
				{
					"internalType": "uint256",
					"name": "amount",
					"type": "uint256"
				},
				{
					"internalType": "uint32",
					"name": "lockEndTime",
					"type": "uint32"
				},
				{
					"internalType": "string",
					"name": "title",
					"type": "string"
				},
				{
					"internalType": "bool",
					"name": "withdrawn",
					"type": "bool"
				},
				{
					"internalType": "bool",
					"name": "isNative",
					"type": "bool"
				}
			],
			"stateMutability": "view",
			"type": "function"
		},
		{
			"inputs": [
				{
					"internalType": "address",
					"name": "",
					"type": "address"
				},
				{
					"internalType": "uint8",
					"name": "",
					"type": "uint8"
				},
				{
					"internalType": "uint256",
					"name": "",
					"type": "uint256"
				}
			],
			"name": "userTransactions",
			"outputs": [
				{
					"internalType": "address",
					"name": "token",
					"type": "address"
				},
				{
					"internalType": "uint256",
					"name": "amount",
					"type": "uint256"
				},
				{
					"internalType": "string",
					"name": "title",
					"type": "string"
				},
				{
					"internalType": "bool",
					"name": "withdrawn",
					"type": "bool"
				},
				{
					"internalType": "uint32",
					"name": "timestamp",
					"type": "uint32"
				}
			],
			"stateMutability": "view",
			"type": "function"
		},
		{
			"inputs": [
				{
					"internalType": "uint32",
					"name": "_assetID",
					"type": "uint32"
				},
				{
					"internalType": "uint8",
					"name": "_vault",
					"type": "uint8"
				},
				{
					"internalType": "uint256",
					"name": "_amount",
					"type": "uint256"
				},
				{
					"internalType": "bool",
					"name": "_goalReachedByValue",
					"type": "bool"
				}
			],
			"name": "withdrawAsset",
			"outputs": [],
			"stateMutability": "nonpayable",
			"type": "function"
		}
	]
}