{
	"data": {
		"bytecode": {
			"linkReferences": {},
			"object": "60e06040526305a4ec00608090815250600560ff1660a09060ff16815250606460ff1660c09060ff16815250348015610036575f80fd5b50335f73ffffffffffffffffffffffffffffffffffffffff168173ffffffffffffffffffffffffffffffffffffffff16036100a8575f6040517f1e4fbdf700000000000000000000000000000000000000000000000000000000815260040161009f91906101dd565b60405180910390fd5b6100b7816100dd60201b60201c565b50600180819055505f60025f6101000a81548160ff0219169083151502179055506101f6565b5f805f9054906101000a900473ffffffffffffffffffffffffffffffffffffffff169050815f806101000a81548173ffffffffffffffffffffffffffffffffffffffff021916908373ffffffffffffffffffffffffffffffffffffffff1602179055508173ffffffffffffffffffffffffffffffffffffffff168173ffffffffffffffffffffffffffffffffffffffff167f8be0079c531659141344cd1fd0a4f28419497f9722a3daafe3b4186f6b6457e060405160405180910390a35050565b5f73ffffffffffffffffffffffffffffffffffffffff82169050919050565b5f6101c78261019e565b9050919050565b6101d7816101bd565b82525050565b5f6020820190506101f05f8301846101ce565b92915050565b60805160a05160c05161507561023c5f395f81816107360152818161255e015261282901525f612ac201525f818161068201528181612775015261388001526150755ff3fe608060405260043610610180575f3560e01c80637fe0509f116100d0578063b6eaea1711610089578063df68075a11610063578063df68075a14610529578063ecaa9d0514610551578063f2fde38b1461056d578063f6d121c91461059557610180565b8063b6eaea17146104c1578063bac15203146104eb578063bf9b9ded1461050157610180565b80637fe0509f146103be57806387f15742146103e65780638c89a0ad146104105780638da5cb5b1461043a5780638e06b906146104645780639d41beef146104a557610180565b806343cadc601161013d57806365994f8d1161011757806365994f8d146103305780636a0afa4514610358578063715018a6146103805780637dd9035b1461039657610180565b806343cadc601461029e5780635c975abb146102c657806360864eed146102f057610180565b806307f0a301146101845780630f1419b5146101c057806314205e28146101e85780632d8fefc2146102245780633b958c381461024c578063439766ce14610288575b5f80fd5b34801561018f575f80fd5b506101aa60048036038101906101a59190613dec565b6105bf565b6040516101b79190613e31565b60405180910390f35b3480156101cb575f80fd5b506101e660048036038101906101e1919061402a565b6105dc565b005b3480156101f3575f80fd5b5061020e600480360381019061020991906140bd565b610bac565b60405161021b91906140f7565b60405180910390f35b34801561022f575f80fd5b5061024a60048036038101906102459190614149565b610c2c565b005b348015610257575f80fd5b50610272600480360381019061026d91906141ad565b6111c2565b60405161027f91906143a6565b60405180910390f35b348015610293575f80fd5b5061029c6113e8565b005b3480156102a9575f80fd5b506102c460048036038101906102bf91906143c6565b611489565b005b3480156102d1575f80fd5b506102da611973565b6040516102e79190613e31565b60405180910390f35b3480156102fb575f80fd5b5061031660048036038101906103119190614404565b611985565b6040516103279594939291906144ab565b60405180910390f35b34801561033b575f80fd5b50610356600480360381019061035191906140bd565b611a8d565b005b348015610363575f80fd5b5061037e60048036038101906103799190614503565b611bba565b005b34801561038b575f80fd5b506103946122c4565b005b3480156103a1575f80fd5b506103bc60048036038101906103b7919061457a565b6122d7565b005b3480156103c9575f80fd5b506103e460048036038101906103df91906140bd565b61242d565b005b3480156103f1575f80fd5b506103fa61255c565b60405161040791906145f5565b60405180910390f35b34801561041b575f80fd5b50610424612580565b60405161043191906140f7565b60405180910390f35b348015610445575f80fd5b5061044e612587565b60405161045b919061460e565b60405180910390f35b34801561046f575f80fd5b5061048a60048036038101906104859190614404565b6125ae565b60405161049c96959493929190614627565b60405180910390f35b6104bf60048036038101906104ba919061468d565b6126c9565b005b3480156104cc575f80fd5b506104d5612ac0565b6040516104e291906145f5565b60405180910390f35b3480156104f6575f80fd5b506104ff612ae4565b005b34801561050c575f80fd5b5061052760048036038101906105229190614723565b612b83565b005b348015610534575f80fd5b5061054f600480360381019061054a9190614787565b6131f6565b005b61056b600480360381019061056691906147d7565b613450565b005b348015610578575f80fd5b50610593600480360381019061058e9190613dec565b6137fa565b005b3480156105a0575f80fd5b506105a961387e565b6040516105b691906140f7565b60405180910390f35b6005602052805f5260405f205f915054906101000a900460ff1681565b6105e46138a2565b60025f9054906101000a900460ff161561062a576040517f94da9ae700000000000000000000000000000000000000000000000000000000815260040160405180910390fd5b825f8160ff16108061063f575060048160ff16115b15610676576040517f41e7bb4f00000000000000000000000000000000000000000000000000000000815260040160405180910390fd5b825f8114806106a457507f000000000000000000000000000000000000000000000000000000000000000081115b156106db576040517f2a82a34f00000000000000000000000000000000000000000000000000000000815260040160405180910390fd5b5f60035f3373ffffffffffffffffffffffffffffffffffffffff1673ffffffffffffffffffffffffffffffffffffffff1681526020019081526020015f205f8760ff1660ff1681526020019081526020015f208054905090507f000000000000000000000000000000000000000000000000000000000000000060ff168110610790576040517fa0c5191f00000000000000000000000000000000000000000000000000000000815260040160405180910390fd5b5f73ffffffffffffffffffffffffffffffffffffffff168873ffffffffffffffffffffffffffffffffffffffff160361080057876040517f733068030000000000000000000000000000000000000000000000000000000081526004016107f7919061460e565b60405180910390fd5b60055f8973ffffffffffffffffffffffffffffffffffffffff1673ffffffffffffffffffffffffffffffffffffffff1681526020019081526020015f205f9054906101000a900460ff161561088c57876040517fdae56709000000000000000000000000000000000000000000000000000000008152600401610883919061460e565b60405180910390fd5b5f87116108c5576040517fe4910d5800000000000000000000000000000000000000000000000000000000815260040160405180910390fd5b5f8873ffffffffffffffffffffffffffffffffffffffff166370a08231336040518263ffffffff1660e01b81526004016108ff919061460e565b602060405180830381865afa15801561091a573d5f803e3d5ffd5b505050506040513d601f19601f8201168201806040525081019061093e9190614829565b90508088111561098557886040517fe3aea5e600000000000000000000000000000000000000000000000000000000815260040161097c919061460e565b60405180910390fd5b6109b233308a8c73ffffffffffffffffffffffffffffffffffffffff166138e8909392919063ffffffff16565b60035f3373ffffffffffffffffffffffffffffffffffffffff1673ffffffffffffffffffffffffffffffffffffffff1681526020019081526020015f205f8860ff1660ff1681526020019081526020015f206040518060c001604052808b73ffffffffffffffffffffffffffffffffffffffff1681526020018a81526020018842610a3d9190614881565b81526020018781526020015f151581526020015f1515815250908060018154018082558091505060019003905f5260205f2090600502015f909190919091505f820151815f015f6101000a81548173ffffffffffffffffffffffffffffffffffffffff021916908373ffffffffffffffffffffffffffffffffffffffff16021790555060208201518160010155604082015181600201556060820151816003019081610ae99190614aae565b506080820151816004015f6101000a81548160ff02191690831515021790555060a08201518160040160016101000a81548160ff0219169083151502179055505050610b3889888a885f61396a565b8873ffffffffffffffffffffffffffffffffffffffff167f93c7f7d807630c520b9271e8fb715abfcca1d19daad1fc4a8b291b82ea518b6789878a8a42610b7f9190614881565b42604051610b91959493929190614b8c565b60405180910390a250505050610ba5613ab7565b5050505050565b5f8173ffffffffffffffffffffffffffffffffffffffff166370a08231306040518263ffffffff1660e01b8152600401610be6919061460e565b602060405180830381865afa158015610c01573d5f803e3d5ffd5b505050506040513d601f19601f82011682018060405250810190610c259190614829565b9050919050565b610c346138a2565b60025f9054906101000a900460ff1615610c7a576040517f94da9ae700000000000000000000000000000000000000000000000000000000815260040160405180910390fd5b805f8160ff161080610c8f575060048160ff16115b15610cc6576040517f41e7bb4f00000000000000000000000000000000000000000000000000000000815260040160405180910390fd5b5f73ffffffffffffffffffffffffffffffffffffffff168573ffffffffffffffffffffffffffffffffffffffff1603610d3657846040517f73306803000000000000000000000000000000000000000000000000000000008152600401610d2d919061460e565b60405180910390fd5b60055f8673ffffffffffffffffffffffffffffffffffffffff1673ffffffffffffffffffffffffffffffffffffffff1681526020019081526020015f205f9054906101000a900460ff1615610dc257846040517fdae56709000000000000000000000000000000000000000000000000000000008152600401610db9919061460e565b60405180910390fd5b5f8311610dfb576040517fe4910d5800000000000000000000000000000000000000000000000000000000815260040160405180910390fd5b60035f3373ffffffffffffffffffffffffffffffffffffffff1673ffffffffffffffffffffffffffffffffffffffff1681526020019081526020015f205f8360ff1660ff1681526020019081526020015f20805490508463ffffffff161115610e90576040517f43b88a3000000000000000000000000000000000000000000000000000000000815260040160405180910390fd5b5f60035f3373ffffffffffffffffffffffffffffffffffffffff1673ffffffffffffffffffffffffffffffffffffffff1681526020019081526020015f205f8460ff1660ff1681526020019081526020015f208563ffffffff1681548110610efb57610efa614be4565b5b905f5260205f20906005020190504281600201541015610f47576040517fa3f3d8b900000000000000000000000000000000000000000000000000000000815260040160405180910390fd5b5f8673ffffffffffffffffffffffffffffffffffffffff166370a08231336040518263ffffffff1660e01b8152600401610f81919061460e565b602060405180830381865afa158015610f9c573d5f803e3d5ffd5b505050506040513d601f19601f82011682018060405250810190610fc09190614829565b90508085111561100757866040517fe3aea5e6000000000000000000000000000000000000000000000000000000008152600401610ffe919061460e565b60405180910390fd5b6110343330878a73ffffffffffffffffffffffffffffffffffffffff166138e8909392919063ffffffff16565b8460035f3373ffffffffffffffffffffffffffffffffffffffff1673ffffffffffffffffffffffffffffffffffffffff1681526020019081526020015f205f8660ff1660ff1681526020019081526020015f208763ffffffff168154811061109f5761109e614be4565b5b905f5260205f2090600502016001015f8282546110bc9190614881565b9250508190555061115a8785878560030180546110d8906148e1565b80601f0160208091040260200160405190810160405280929190818152602001828054611104906148e1565b801561114f5780601f106111265761010080835404028352916020019161114f565b820191905f5260205f20905b81548152906001019060200180831161113257829003601f168201915b50505050505f61396a565b8673ffffffffffffffffffffffffffffffffffffffff167fa62fa334755456efc7eabec03287391abe4998e298b5d3b4a3eabc34fd5f800b868460030187426040516111a99493929190614c92565b60405180910390a25050506111bc613ab7565b50505050565b60605f8260ff1610806111d8575060048260ff16115b1561120f576040517f41e7bb4f00000000000000000000000000000000000000000000000000000000815260040160405180910390fd5b60035f3373ffffffffffffffffffffffffffffffffffffffff1673ffffffffffffffffffffffffffffffffffffffff1681526020019081526020015f205f8360ff1660ff1681526020019081526020015f20805480602002602001604051908101604052809291908181526020015f905b828210156113dd578382905f5260205f2090600502016040518060c00160405290815f82015f9054906101000a900473ffffffffffffffffffffffffffffffffffffffff1673ffffffffffffffffffffffffffffffffffffffff1673ffffffffffffffffffffffffffffffffffffffff1681526020016001820154815260200160028201548152602001600382018054611319906148e1565b80601f0160208091040260200160405190810160405280929190818152602001828054611345906148e1565b80156113905780601f1061136757610100808354040283529160200191611390565b820191905f5260205f20905b81548152906001019060200180831161137357829003601f168201915b50505050508152602001600482015f9054906101000a900460ff161515151581526020016004820160019054906101000a900460ff16151515158152505081526020019060010190611280565b505050509050919050565b6113f0613ac0565b60025f9054906101000a900460ff1615611436576040517f94da9ae700000000000000000000000000000000000000000000000000000000815260040160405180910390fd5b600160025f6101000a81548160ff0219169083151502179055507ff4efd1d09d98fca0af22a3204fc0c7b3e00560c4b3d54fa36eb1626ff50acca04260405161147f9190614cdc565b60405180910390a1565b60035f3373ffffffffffffffffffffffffffffffffffffffff1673ffffffffffffffffffffffffffffffffffffffff1681526020019081526020015f205f8360ff1660ff1681526020019081526020015f20805490508160ff16111561151b576040517f43b88a3000000000000000000000000000000000000000000000000000000000815260040160405180910390fd5b5f60035f3373ffffffffffffffffffffffffffffffffffffffff1673ffffffffffffffffffffffffffffffffffffffff1681526020019081526020015f205f8460ff1660ff1681526020019081526020015f208260ff168154811061158357611582614be4565b5b905f5260205f209060050201905042816002015411156115cf576040517ff594da3400000000000000000000000000000000000000000000000000000000815260040160405180910390fd5b806004015f9054906101000a900460ff16611616576040517fc581f41500000000000000000000000000000000000000000000000000000000815260040160405180910390fd5b5f600160035f3373ffffffffffffffffffffffffffffffffffffffff1673ffffffffffffffffffffffffffffffffffffffff1681526020019081526020015f205f8660ff1660ff1681526020019081526020015f20805490506116799190614cf5565b9050808360ff16146118505760035f3373ffffffffffffffffffffffffffffffffffffffff1673ffffffffffffffffffffffffffffffffffffffff1681526020019081526020015f205f8560ff1660ff1681526020019081526020015f2081815481106116e9576116e8614be4565b5b905f5260205f20906005020160035f3373ffffffffffffffffffffffffffffffffffffffff1673ffffffffffffffffffffffffffffffffffffffff1681526020019081526020015f205f8660ff1660ff1681526020019081526020015f208460ff168154811061175c5761175b614be4565b5b905f5260205f2090600502015f82015f9054906101000a900473ffffffffffffffffffffffffffffffffffffffff16815f015f6101000a81548173ffffffffffffffffffffffffffffffffffffffff021916908373ffffffffffffffffffffffffffffffffffffffff1602179055506001820154816001015560028201548160020155600382018160030190816117f39190614d3d565b50600482015f9054906101000a900460ff16816004015f6101000a81548160ff0219169083151502179055506004820160019054906101000a900460ff168160040160016101000a81548160ff0219169083151502179055509050505b60035f3373ffffffffffffffffffffffffffffffffffffffff1673ffffffffffffffffffffffffffffffffffffffff1681526020019081526020015f205f8560ff1660ff1681526020019081526020015f208054806118b2576118b1614e22565b5b600190038181905f5260205f2090600502015f8082015f6101000a81549073ffffffffffffffffffffffffffffffffffffffff0219169055600182015f9055600282015f9055600382015f6119079190613d29565b600482015f6101000a81549060ff02191690556004820160016101000a81549060ff0219169055505090557fa293d38bc1768ea4009a7109526de29a238ee975c7ee4328c2c77fe71350d79884844260405161196593929190614e4f565b60405180910390a150505050565b60025f9054906101000a900460ff1681565b6004602052825f5260405f20602052815f5260405f2081815481106119a8575f80fd5b905f5260205f2090600502015f925092505050805f015f9054906101000a900473ffffffffffffffffffffffffffffffffffffffff16908060010154908060020180546119f4906148e1565b80601f0160208091040260200160405190810160405280929190818152602001828054611a20906148e1565b8015611a6b5780601f10611a4257610100808354040283529160200191611a6b565b820191905f5260205f20905b815481529060010190602001808311611a4e57829003601f168201915b505050505090806003015f9054906101000a900460ff16908060040154905085565b611a95613ac0565b60055f8273ffffffffffffffffffffffffffffffffffffffff1673ffffffffffffffffffffffffffffffffffffffff1681526020019081526020015f205f9054906101000a900460ff16611b2057806040517f46fdb4ef000000000000000000000000000000000000000000000000000000008152600401611b17919061460e565b60405180910390fd5b5f60055f8373ffffffffffffffffffffffffffffffffffffffff1673ffffffffffffffffffffffffffffffffffffffff1681526020019081526020015f205f6101000a81548160ff0219169083151502179055508073ffffffffffffffffffffffffffffffffffffffff167fe0db3499b7fdc3da4cddff5f45d694549c19835e7f719fb5606d3ad1a5de401160405160405180910390a250565b611bc26138a2565b60035f3373ffffffffffffffffffffffffffffffffffffffff1673ffffffffffffffffffffffffffffffffffffffff1681526020019081526020015f205f8560ff1660ff1681526020019081526020015f20805490508360ff161115611c54576040517f43b88a3000000000000000000000000000000000000000000000000000000000815260040160405180910390fd5b60035f3373ffffffffffffffffffffffffffffffffffffffff1673ffffffffffffffffffffffffffffffffffffffff1681526020019081526020015f205f8360ff1660ff1681526020019081526020015f20805490508160ff161115611ce6576040517f43b88a3000000000000000000000000000000000000000000000000000000000815260040160405180910390fd5b5f60035f3373ffffffffffffffffffffffffffffffffffffffff1673ffffffffffffffffffffffffffffffffffffffff1681526020019081526020015f205f8660ff1660ff1681526020019081526020015f208460ff1681548110611d4e57611d4d614be4565b5b905f5260205f20906005020190505f60035f3373ffffffffffffffffffffffffffffffffffffffff1673ffffffffffffffffffffffffffffffffffffffff1681526020019081526020015f205f8560ff1660ff1681526020019081526020015f208360ff1681548110611dc457611dc3614be4565b5b905f5260205f2090600502019050805f015f9054906101000a900473ffffffffffffffffffffffffffffffffffffffff1673ffffffffffffffffffffffffffffffffffffffff16825f015f9054906101000a900473ffffffffffffffffffffffffffffffffffffffff1673ffffffffffffffffffffffffffffffffffffffff1614611ecc57815f015f9054906101000a900473ffffffffffffffffffffffffffffffffffffffff16815f015f9054906101000a900473ffffffffffffffffffffffffffffffffffffffff166040517feb04a6f5000000000000000000000000000000000000000000000000000000008152600401611ec3929190614e84565b60405180910390fd5b8160020154421015611f1857816003016040517f769078e3000000000000000000000000000000000000000000000000000000008152600401611f0f9190614eab565b60405180910390fd5b8060020154421115611f6457806003016040517fa7c96e7a000000000000000000000000000000000000000000000000000000008152600401611f5b9190614eab565b60405180910390fd5b816004015f9054906101000a900460ff1615611fac576040517fc581f41500000000000000000000000000000000000000000000000000000000815260040160405180910390fd5b816001015487111561201757815f015f9054906101000a900473ffffffffffffffffffffffffffffffffffffffff166040517f59b1a35c00000000000000000000000000000000000000000000000000000000815260040161200e919061460e565b60405180910390fd5b8660035f3373ffffffffffffffffffffffffffffffffffffffff1673ffffffffffffffffffffffffffffffffffffffff1681526020019081526020015f205f8860ff1660ff1681526020019081526020015f208660ff168154811061207f5761207e614be4565b5b905f5260205f2090600502016001015f82825461209c9190614cf5565b925050819055505f60035f3373ffffffffffffffffffffffffffffffffffffffff1673ffffffffffffffffffffffffffffffffffffffff1681526020019081526020015f205f8860ff1660ff1681526020019081526020015f208660ff168154811061210b5761210a614be4565b5b905f5260205f20906005020160010154036121af57600160035f3373ffffffffffffffffffffffffffffffffffffffff1673ffffffffffffffffffffffffffffffffffffffff1681526020019081526020015f205f8860ff1660ff1681526020019081526020015f208660ff168154811061218957612188614be4565b5b905f5260205f2090600502016004015f6101000a81548160ff0219169083151502179055505b8660035f3373ffffffffffffffffffffffffffffffffffffffff1673ffffffffffffffffffffffffffffffffffffffff1681526020019081526020015f205f8660ff1660ff1681526020019081526020015f208460ff168154811061221757612216614be4565b5b905f5260205f2090600502016001015f8282546122349190614881565b92505081905550815f015f9054906101000a900473ffffffffffffffffffffffffffffffffffffffff1673ffffffffffffffffffffffffffffffffffffffff167fb9235ade2fd0814639c24ccb5ee7c5f6d4903f518105a0ba5252eb88d7188de188888888886040516122ab959493929190614ecb565b60405180910390a250506122bd613ab7565b5050505050565b6122cc613ac0565b6122d55f613b47565b565b60035f3373ffffffffffffffffffffffffffffffffffffffff1673ffffffffffffffffffffffffffffffffffffffff1681526020019081526020015f205f8460ff1660ff1681526020019081526020015f20805490508260ff161115612369576040517f43b88a3000000000000000000000000000000000000000000000000000000000815260040160405180910390fd5b8060035f3373ffffffffffffffffffffffffffffffffffffffff1673ffffffffffffffffffffffffffffffffffffffff1681526020019081526020015f205f8560ff1660ff1681526020019081526020015f208360ff16815481106123d1576123d0614be4565b5b905f5260205f20906005020160030190816123ec9190614aae565b507f06cdc87d0689291dcf5c7b2aeaa12a69025d9b944892a73fd409de0d3b7990ca81838560405161242093929190614f1c565b60405180910390a1505050565b612435613ac0565b60055f8273ffffffffffffffffffffffffffffffffffffffff1673ffffffffffffffffffffffffffffffffffffffff1681526020019081526020015f205f9054906101000a900460ff16156124c157806040517fdae567090000000000000000000000000000000000000000000000000000000081526004016124b8919061460e565b60405180910390fd5b600160055f8373ffffffffffffffffffffffffffffffffffffffff1673ffffffffffffffffffffffffffffffffffffffff1681526020019081526020015f205f6101000a81548160ff0219169083151502179055508073ffffffffffffffffffffffffffffffffffffffff167f7fd26be6fc92aff63f1f4409b2b2ddeb272a888031d7f55ec830485ec619418660405160405180910390a250565b7f000000000000000000000000000000000000000000000000000000000000000081565b5f47905090565b5f805f9054906101000a900473ffffffffffffffffffffffffffffffffffffffff16905090565b6003602052825f5260405f20602052815f5260405f2081815481106125d1575f80fd5b905f5260205f2090600502015f925092505050805f015f9054906101000a900473ffffffffffffffffffffffffffffffffffffffff1690806001015490806002015490806003018054612623906148e1565b80601f016020809104026020016040519081016040528092919081815260200182805461264f906148e1565b801561269a5780601f106126715761010080835404028352916020019161269a565b820191905f5260205f20905b81548152906001019060200180831161267d57829003601f168201915b505050505090806004015f9054906101000a900460ff16908060040160019054906101000a900460ff16905086565b6126d16138a2565b60025f9054906101000a900460ff1615612717576040517f94da9ae700000000000000000000000000000000000000000000000000000000815260040160405180910390fd5b825f8160ff16108061272c575060048160ff16115b15612763576040517f41e7bb4f00000000000000000000000000000000000000000000000000000000815260040160405180910390fd5b8263ffffffff165f81148061279757507f000000000000000000000000000000000000000000000000000000000000000081115b156127ce576040517f2a82a34f00000000000000000000000000000000000000000000000000000000815260040160405180910390fd5b5f60035f3373ffffffffffffffffffffffffffffffffffffffff1673ffffffffffffffffffffffffffffffffffffffff1681526020019081526020015f205f8760ff1660ff1681526020019081526020015f208054905090507f000000000000000000000000000000000000000000000000000000000000000060ff168110612883576040517fa0c5191f00000000000000000000000000000000000000000000000000000000815260040160405180910390fd5b5f34116128bc576040517fe4910d5800000000000000000000000000000000000000000000000000000000815260040160405180910390fd5b60035f3373ffffffffffffffffffffffffffffffffffffffff1673ffffffffffffffffffffffffffffffffffffffff1681526020019081526020015f205f8760ff1660ff1681526020019081526020015f206040518060c001604052805f73ffffffffffffffffffffffffffffffffffffffff1681526020013481526020018763ffffffff164261294d9190614881565b81526020018681526020015f1515815260200160011515815250908060018154018082558091505060019003905f5260205f2090600502015f909190919091505f820151815f015f6101000a81548173ffffffffffffffffffffffffffffffffffffffff021916908373ffffffffffffffffffffffffffffffffffffffff160217905550602082015181600101556040820151816002015560608201518160030190816129fa9190614aae565b506080820151816004015f6101000a81548160ff02191690831515021790555060a08201518160040160016101000a81548160ff0219169083151502179055505050612a495f8734875f61396a565b5f73ffffffffffffffffffffffffffffffffffffffff167f93c7f7d807630c520b9271e8fb715abfcca1d19daad1fc4a8b291b82ea518b673486898963ffffffff1642612a969190614881565b42604051612aa8959493929190614b8c565b60405180910390a2505050612abb613ab7565b505050565b7f000000000000000000000000000000000000000000000000000000000000000081565b612aec613ac0565b60025f9054906101000a900460ff16612b31576040517f9bc4a17b00000000000000000000000000000000000000000000000000000000815260040160405180910390fd5b5f60025f6101000a81548160ff0219169083151502179055507fb855b6c6d68cae899d407a87abb7afd6e973bd1d944ba3d6ce3e8fa37a8fdbd242604051612b799190614cdc565b60405180910390a1565b612b8b6138a2565b825f8160ff161080612ba0575060048160ff16115b15612bd7576040517f41e7bb4f00000000000000000000000000000000000000000000000000000000815260040160405180910390fd5b60035f3373ffffffffffffffffffffffffffffffffffffffff1673ffffffffffffffffffffffffffffffffffffffff1681526020019081526020015f205f8560ff1660ff1681526020019081526020015f20805490508563ffffffff161115612c6c576040517f43b88a3000000000000000000000000000000000000000000000000000000000815260040160405180910390fd5b5f60035f3373ffffffffffffffffffffffffffffffffffffffff1673ffffffffffffffffffffffffffffffffffffffff1681526020019081526020015f205f8660ff1660ff1681526020019081526020015f208663ffffffff1681548110612cd757612cd6614be4565b5b905f5260205f2090600502019050806004015f9054906101000a900460ff1615612d2d576040517fc581f41500000000000000000000000000000000000000000000000000000000815260040160405180910390fd5b8060010154841115612d9857805f015f9054906101000a900473ffffffffffffffffffffffffffffffffffffffff166040517f59b1a35c000000000000000000000000000000000000000000000000000000008152600401612d8f919061460e565b60405180910390fd5b8060020154421080612daf57506001151583151514155b15612de6576040517f618fced400000000000000000000000000000000000000000000000000000000815260040160405180910390fd5b5f848260010154612df79190614cf5565b90505f8103612e9257600160035f3373ffffffffffffffffffffffffffffffffffffffff1673ffffffffffffffffffffffffffffffffffffffff1681526020019081526020015f205f8860ff1660ff1681526020019081526020015f208863ffffffff1681548110612e6c57612e6b614be4565b5b905f5260205f2090600502016004015f6101000a81548160ff0219169083151502179055505b8060035f3373ffffffffffffffffffffffffffffffffffffffff1673ffffffffffffffffffffffffffffffffffffffff1681526020019081526020015f205f8860ff1660ff1681526020019081526020015f208863ffffffff1681548110612efd57612efc614be4565b5b905f5260205f209060050201600101819055508160040160019054906101000a900460ff1615613064575f3373ffffffffffffffffffffffffffffffffffffffff1686604051612f4c90614f85565b5f6040518083038185875af1925050503d805f8114612f86576040519150601f19603f3d011682016040523d82523d5f602084013e612f8b565b606091505b5050905080612fc6576040517fb12d13eb00000000000000000000000000000000000000000000000000000000815260040160405180910390fd5b61305e5f8888866003018054612fdb906148e1565b80601f0160208091040260200160405190810160405280929190818152602001828054613007906148e1565b80156130525780601f1061302957610100808354040283529160200191613052565b820191905f5260205f20905b81548152906001019060200180831161303557829003601f168201915b5050505050600161396a565b5061316c565b6130b13386845f015f9054906101000a900473ffffffffffffffffffffffffffffffffffffffff1673ffffffffffffffffffffffffffffffffffffffff16613c089092919063ffffffff16565b61316b825f015f9054906101000a900473ffffffffffffffffffffffffffffffffffffffff1687878560030180546130e8906148e1565b80601f0160208091040260200160405190810160405280929190818152602001828054613114906148e1565b801561315f5780601f106131365761010080835404028352916020019161315f565b820191905f5260205f20905b81548152906001019060200180831161314257829003601f168201915b5050505050600161396a565b5b815f015f9054906101000a900473ffffffffffffffffffffffffffffffffffffffff1673ffffffffffffffffffffffffffffffffffffffff167f4c1f1355da7e4da113e98d9a5c01aa2a743e2372a87ed9cda08a8645e197e735868460030189426040516131dd9493929190614c92565b60405180910390a25050506131f0613ab7565b50505050565b5f60035f3373ffffffffffffffffffffffffffffffffffffffff1673ffffffffffffffffffffffffffffffffffffffff1681526020019081526020015f205f8460ff1660ff1681526020019081526020015f208463ffffffff168154811061326157613260614be4565b5b905f5260205f209060050201905060035f3373ffffffffffffffffffffffffffffffffffffffff1673ffffffffffffffffffffffffffffffffffffffff1681526020019081526020015f205f8460ff1660ff1681526020019081526020015f20805490508463ffffffff161115613304576040517f43b88a3000000000000000000000000000000000000000000000000000000000815260040160405180910390fd5b4281600201541015613342576040517fa3f3d8b900000000000000000000000000000000000000000000000000000000815260040160405180910390fd5b8163ffffffff16426133549190614881565b60035f3373ffffffffffffffffffffffffffffffffffffffff1673ffffffffffffffffffffffffffffffffffffffff1681526020019081526020015f205f8560ff1660ff1681526020019081526020015f208563ffffffff16815481106133be576133bd614be4565b5b905f5260205f20906005020160020181905550805f015f9054906101000a900473ffffffffffffffffffffffffffffffffffffffff1673ffffffffffffffffffffffffffffffffffffffff167f9d36c4692e4c75a4a1a6305244c51189aeeaaf3faba32b86bf4e2ac38bf689f3848484600301426040516134429493929190614f99565b60405180910390a250505050565b6134586138a2565b60025f9054906101000a900460ff161561349e576040517f94da9ae700000000000000000000000000000000000000000000000000000000815260040160405180910390fd5b815f8160ff1610806134b3575060048160ff16115b156134ea576040517f41e7bb4f00000000000000000000000000000000000000000000000000000000815260040160405180910390fd5b5f3411613523576040517fe4910d5800000000000000000000000000000000000000000000000000000000815260040160405180910390fd5b60035f3373ffffffffffffffffffffffffffffffffffffffff1673ffffffffffffffffffffffffffffffffffffffff1681526020019081526020015f205f8460ff1660ff1681526020019081526020015f20805490508263ffffffff1611156135b8576040517f43b88a3000000000000000000000000000000000000000000000000000000000815260040160405180910390fd5b5f60035f3373ffffffffffffffffffffffffffffffffffffffff1673ffffffffffffffffffffffffffffffffffffffff1681526020019081526020015f205f8560ff1660ff1681526020019081526020015f208363ffffffff168154811061362357613622614be4565b5b905f5260205f2090600502019050428160020154101561366f576040517fa3f3d8b900000000000000000000000000000000000000000000000000000000815260040160405180910390fd5b3460035f3373ffffffffffffffffffffffffffffffffffffffff1673ffffffffffffffffffffffffffffffffffffffff1681526020019081526020015f205f8660ff1660ff1681526020019081526020015f208463ffffffff16815481106136da576136d9614be4565b5b905f5260205f2090600502016001015f8282546136f79190614881565b925050819055506137955f8534846003018054613713906148e1565b80601f016020809104026020016040519081016040528092919081815260200182805461373f906148e1565b801561378a5780601f106137615761010080835404028352916020019161378a565b820191905f5260205f20905b81548152906001019060200180831161376d57829003601f168201915b50505050505f61396a565b5f73ffffffffffffffffffffffffffffffffffffffff167fa62fa334755456efc7eabec03287391abe4998e298b5d3b4a3eabc34fd5f800b348360030187426040516137e49493929190614c92565b60405180910390a250506137f6613ab7565b5050565b613802613ac0565b5f73ffffffffffffffffffffffffffffffffffffffff168173ffffffffffffffffffffffffffffffffffffffff1603613872575f6040517f1e4fbdf7000000000000000000000000000000000000000000000000000000008152600401613869919061460e565b60405180910390fd5b61387b81613b47565b50565b7f000000000000000000000000000000000000000000000000000000000000000081565b6002600154036138de576040517f3ee5aeb500000000000000000000000000000000000000000000000000000000815260040160405180910390fd5b6002600181905550565b613964848573ffffffffffffffffffffffffffffffffffffffff166323b872dd86868660405160240161391d93929190614fe3565b604051602081830303815290604052915060e01b6020820180517bffffffffffffffffffffffffffffffffffffffffffffffffffffffff8381831617835250505050613c87565b50505050565b60045f3373ffffffffffffffffffffffffffffffffffffffff1673ffffffffffffffffffffffffffffffffffffffff1681526020019081526020015f205f8560ff1660ff1681526020019081526020015f206040518060a001604052808773ffffffffffffffffffffffffffffffffffffffff168152602001858152602001848152602001831515815260200142815250908060018154018082558091505060019003905f5260205f2090600502015f909190919091505f820151815f015f6101000a81548173ffffffffffffffffffffffffffffffffffffffff021916908373ffffffffffffffffffffffffffffffffffffffff160217905550602082015181600101556040820151816002019081613a849190614aae565b506060820151816003015f6101000a81548160ff0219169083151502179055506080820151816004015550505050505050565b60018081905550565b613ac8613d22565b73ffffffffffffffffffffffffffffffffffffffff16613ae6612587565b73ffffffffffffffffffffffffffffffffffffffff1614613b4557613b09613d22565b6040517f118cdaa7000000000000000000000000000000000000000000000000000000008152600401613b3c919061460e565b60405180910390fd5b565b5f805f9054906101000a900473ffffffffffffffffffffffffffffffffffffffff169050815f806101000a81548173ffffffffffffffffffffffffffffffffffffffff021916908373ffffffffffffffffffffffffffffffffffffffff1602179055508173ffffffffffffffffffffffffffffffffffffffff168173ffffffffffffffffffffffffffffffffffffffff167f8be0079c531659141344cd1fd0a4f28419497f9722a3daafe3b4186f6b6457e060405160405180910390a35050565b613c82838473ffffffffffffffffffffffffffffffffffffffff1663a9059cbb8585604051602401613c3b929190615018565b604051602081830303815290604052915060e01b6020820180517bffffffffffffffffffffffffffffffffffffffffffffffffffffffff8381831617835250505050613c87565b505050565b5f8060205f8451602086015f885af180613ca6576040513d5f823e3d81fd5b3d92505f519150505f8214613cbf576001811415613cda565b5f8473ffffffffffffffffffffffffffffffffffffffff163b145b15613d1c57836040517f5274afe7000000000000000000000000000000000000000000000000000000008152600401613d13919061460e565b60405180910390fd5b50505050565b5f33905090565b508054613d35906148e1565b5f825580601f10613d465750613d63565b601f0160209004905f5260205f2090810190613d629190613d66565b5b50565b5b80821115613d7d575f815f905550600101613d67565b5090565b5f604051905090565b5f80fd5b5f80fd5b5f73ffffffffffffffffffffffffffffffffffffffff82169050919050565b5f613dbb82613d92565b9050919050565b613dcb81613db1565b8114613dd5575f80fd5b50565b5f81359050613de681613dc2565b92915050565b5f60208284031215613e0157613e00613d8a565b5b5f613e0e84828501613dd8565b91505092915050565b5f8115159050919050565b613e2b81613e17565b82525050565b5f602082019050613e445f830184613e22565b92915050565b5f613e5482613db1565b9050919050565b613e6481613e4a565b8114613e6e575f80fd5b50565b5f81359050613e7f81613e5b565b92915050565b5f819050919050565b613e9781613e85565b8114613ea1575f80fd5b50565b5f81359050613eb281613e8e565b92915050565b5f60ff82169050919050565b613ecd81613eb8565b8114613ed7575f80fd5b50565b5f81359050613ee881613ec4565b92915050565b5f80fd5b5f80fd5b5f601f19601f8301169050919050565b7f4e487b71000000000000000000000000000000000000000000000000000000005f52604160045260245ffd5b613f3c82613ef6565b810181811067ffffffffffffffff82111715613f5b57613f5a613f06565b5b80604052505050565b5f613f6d613d81565b9050613f798282613f33565b919050565b5f67ffffffffffffffff821115613f9857613f97613f06565b5b613fa182613ef6565b9050602081019050919050565b828183375f83830152505050565b5f613fce613fc984613f7e565b613f64565b905082815260208101848484011115613fea57613fe9613ef2565b5b613ff5848285613fae565b509392505050565b5f82601f83011261401157614010613eee565b5b8135614021848260208601613fbc565b91505092915050565b5f805f805f60a0868803121561404357614042613d8a565b5b5f61405088828901613e71565b955050602061406188828901613ea4565b945050604061407288828901613eda565b935050606061408388828901613ea4565b925050608086013567ffffffffffffffff8111156140a4576140a3613d8e565b5b6140b088828901613ffd565b9150509295509295909350565b5f602082840312156140d2576140d1613d8a565b5b5f6140df84828501613e71565b91505092915050565b6140f181613e85565b82525050565b5f60208201905061410a5f8301846140e8565b92915050565b5f63ffffffff82169050919050565b61412881614110565b8114614132575f80fd5b50565b5f813590506141438161411f565b92915050565b5f805f806080858703121561416157614160613d8a565b5b5f61416e87828801613e71565b945050602061417f87828801614135565b935050604061419087828801613ea4565b92505060606141a187828801613eda565b91505092959194509250565b5f602082840312156141c2576141c1613d8a565b5b5f6141cf84828501613eda565b91505092915050565b5f81519050919050565b5f82825260208201905092915050565b5f819050602082019050919050565b61420a81613db1565b82525050565b61421981613e85565b82525050565b5f81519050919050565b5f82825260208201905092915050565b8281835e5f83830152505050565b5f6142518261421f565b61425b8185614229565b935061426b818560208601614239565b61427481613ef6565b840191505092915050565b61428881613e17565b82525050565b5f60c083015f8301516142a35f860182614201565b5060208301516142b66020860182614210565b5060408301516142c96040860182614210565b50606083015184820360608601526142e18282614247565b91505060808301516142f6608086018261427f565b5060a083015161430960a086018261427f565b508091505092915050565b5f61431f838361428e565b905092915050565b5f602082019050919050565b5f61433d826141d8565b61434781856141e2565b935083602082028501614359856141f2565b805f5b8581101561439457848403895281516143758582614314565b945061438083614327565b925060208a0199505060018101905061435c565b50829750879550505050505092915050565b5f6020820190508181035f8301526143be8184614333565b905092915050565b5f80604083850312156143dc576143db613d8a565b5b5f6143e985828601613eda565b92505060206143fa85828601613eda565b9150509250929050565b5f805f6060848603121561441b5761441a613d8a565b5b5f61442886828701613dd8565b935050602061443986828701613eda565b925050604061444a86828701613ea4565b9150509250925092565b61445d81613db1565b82525050565b5f82825260208201905092915050565b5f61447d8261421f565b6144878185614463565b9350614497818560208601614239565b6144a081613ef6565b840191505092915050565b5f60a0820190506144be5f830188614454565b6144cb60208301876140e8565b81810360408301526144dd8186614473565b90506144ec6060830185613e22565b6144f960808301846140e8565b9695505050505050565b5f805f805f60a0868803121561451c5761451b613d8a565b5b5f61452988828901613ea4565b955050602061453a88828901613eda565b945050604061454b88828901613eda565b935050606061455c88828901613eda565b925050608061456d88828901613eda565b9150509295509295909350565b5f805f6060848603121561459157614590613d8a565b5b5f61459e86828701613eda565b93505060206145af86828701613eda565b925050604084013567ffffffffffffffff8111156145d0576145cf613d8e565b5b6145dc86828701613ffd565b9150509250925092565b6145ef81613eb8565b82525050565b5f6020820190506146085f8301846145e6565b92915050565b5f6020820190506146215f830184614454565b92915050565b5f60c08201905061463a5f830189614454565b61464760208301886140e8565b61465460408301876140e8565b81810360608301526146668186614473565b90506146756080830185613e22565b61468260a0830184613e22565b979650505050505050565b5f805f606084860312156146a4576146a3613d8a565b5b5f6146b186828701613eda565b93505060206146c286828701614135565b925050604084013567ffffffffffffffff8111156146e3576146e2613d8e565b5b6146ef86828701613ffd565b9150509250925092565b61470281613e17565b811461470c575f80fd5b50565b5f8135905061471d816146f9565b92915050565b5f805f806080858703121561473b5761473a613d8a565b5b5f61474887828801614135565b945050602061475987828801613eda565b935050604061476a87828801613ea4565b925050606061477b8782880161470f565b91505092959194509250565b5f805f6060848603121561479e5761479d613d8a565b5b5f6147ab86828701614135565b93505060206147bc86828701613eda565b92505060406147cd86828701614135565b9150509250925092565b5f80604083850312156147ed576147ec613d8a565b5b5f6147fa85828601613eda565b925050602061480b85828601614135565b9150509250929050565b5f8151905061482381613e8e565b92915050565b5f6020828403121561483e5761483d613d8a565b5b5f61484b84828501614815565b91505092915050565b7f4e487b71000000000000000000000000000000000000000000000000000000005f52601160045260245ffd5b5f61488b82613e85565b915061489683613e85565b92508282019050808211156148ae576148ad614854565b5b92915050565b7f4e487b71000000000000000000000000000000000000000000000000000000005f52602260045260245ffd5b5f60028204905060018216806148f857607f821691505b60208210810361490b5761490a6148b4565b5b50919050565b5f819050815f5260205f209050919050565b5f6020601f8301049050919050565b5f82821b905092915050565b5f6008830261496d7fffffffffffffffffffffffffffffffffffffffffffffffffffffffffffffffff82614932565b6149778683614932565b95508019841693508086168417925050509392505050565b5f819050919050565b5f6149b26149ad6149a884613e85565b61498f565b613e85565b9050919050565b5f819050919050565b6149cb83614998565b6149df6149d7826149b9565b84845461493e565b825550505050565b5f90565b6149f36149e7565b6149fe8184846149c2565b505050565b5b81811015614a2157614a165f826149eb565b600181019050614a04565b5050565b601f821115614a6657614a3781614911565b614a4084614923565b81016020851015614a4f578190505b614a63614a5b85614923565b830182614a03565b50505b505050565b5f82821c905092915050565b5f614a865f1984600802614a6b565b1980831691505092915050565b5f614a9e8383614a77565b9150826002028217905092915050565b614ab78261421f565b67ffffffffffffffff811115614ad057614acf613f06565b5b614ada82546148e1565b614ae5828285614a25565b5f60209050601f831160018114614b16575f8415614b04578287015190505b614b0e8582614a93565b865550614b75565b601f198416614b2486614911565b5f5b82811015614b4b57848901518255600182019150602085019450602081019050614b26565b86831015614b685784890151614b64601f891682614a77565b8355505b6001600288020188555050505b505050505050565b614b8681614110565b82525050565b5f60a082019050614b9f5f8301886140e8565b8181036020830152614bb18187614473565b9050614bc060408301866145e6565b614bcd6060830185614b7d565b614bda6080830184614b7d565b9695505050505050565b7f4e487b71000000000000000000000000000000000000000000000000000000005f52603260045260245ffd5b5f8154614c1d816148e1565b614c278186614463565b9450600182165f8114614c415760018114614c5757614c89565b60ff198316865281151560200286019350614c89565b614c6085614911565b5f5b83811015614c8157815481890152600182019150602081019050614c62565b808801955050505b50505092915050565b5f608082019050614ca55f8301876140e8565b8181036020830152614cb78186614c11565b9050614cc660408301856145e6565b614cd36060830184614b7d565b95945050505050565b5f602082019050614cef5f830184614b7d565b92915050565b5f614cff82613e85565b9150614d0a83613e85565b9250828203905081811115614d2257614d21614854565b5b92915050565b5f81549050614d36816148e1565b9050919050565b818103614d4b575050614e20565b614d5482614d28565b67ffffffffffffffff811115614d6d57614d6c613f06565b5b614d7782546148e1565b614d82828285614a25565b5f601f831160018114614daf575f8415614d9d578287015490505b614da78582614a93565b865550614e19565b601f198416614dbd87614911565b9650614dc886614911565b5f5b82811015614def57848901548255600182019150600185019450602081019050614dca565b86831015614e0c5784890154614e08601f891682614a77565b8355505b6001600288020188555050505b5050505050505b565b7f4e487b71000000000000000000000000000000000000000000000000000000005f52603160045260245ffd5b5f606082019050614e625f8301866145e6565b614e6f60208301856145e6565b614e7c6040830184614b7d565b949350505050565b5f604082019050614e975f830185614454565b614ea46020830184614454565b9392505050565b5f6020820190508181035f830152614ec38184614c11565b905092915050565b5f60a082019050614ede5f8301886140e8565b614eeb60208301876145e6565b614ef860408301866145e6565b614f0560608301856145e6565b614f1260808301846145e6565b9695505050505050565b5f6060820190508181035f830152614f348186614473565b9050614f4360208301856145e6565b614f5060408301846145e6565b949350505050565b5f81905092915050565b50565b5f614f705f83614f58565b9150614f7b82614f62565b5f82019050919050565b5f614f8f82614f65565b9150819050919050565b5f608082019050614fac5f8301876145e6565b614fb96020830186614b7d565b8181036040830152614fcb8185614c11565b9050614fda6060830184614b7d565b95945050505050565b5f606082019050614ff65f830186614454565b6150036020830185614454565b61501060408301846140e8565b949350505050565b5f60408201905061502b5f830185614454565b61503860208301846140e8565b939250505056fea2646970667358221220430dc667437b1bd774d7739240c395d16010a14c1d175ef5dc8d54480025955264736f6c634300081a0033",
			"opcodes": "PUSH1 0xE0 PUSH1 0x40 MSTORE PUSH4 0x5A4EC00 PUSH1 0x80 SWAP1 DUP2 MSTORE POP PUSH1 0x5 PUSH1 0xFF AND PUSH1 0xA0 SWAP1 PUSH1 0xFF AND DUP2 MSTORE POP PUSH1 0x64 PUSH1 0xFF AND PUSH1 0xC0 SWAP1 PUSH1 0xFF AND DUP2 MSTORE POP CALLVALUE DUP1 ISZERO PUSH2 0x36 JUMPI PUSH0 DUP1 REVERT JUMPDEST POP CALLER PUSH0 PUSH20 0xFFFFFFFFFFFFFFFFFFFFFFFFFFFFFFFFFFFFFFFF AND DUP2 PUSH20 0xFFFFFFFFFFFFFFFFFFFFFFFFFFFFFFFFFFFFFFFF AND SUB PUSH2 0xA8 JUMPI PUSH0 PUSH1 0x40 MLOAD PUSH32 0x1E4FBDF700000000000000000000000000000000000000000000000000000000 DUP2 MSTORE PUSH1 0x4 ADD PUSH2 0x9F SWAP2 SWAP1 PUSH2 0x1DD JUMP JUMPDEST PUSH1 0x40 MLOAD DUP1 SWAP2 SUB SWAP1 REVERT JUMPDEST PUSH2 0xB7 DUP2 PUSH2 0xDD PUSH1 0x20 SHL PUSH1 0x20 SHR JUMP JUMPDEST POP PUSH1 0x1 DUP1 DUP2 SWAP1 SSTORE POP PUSH0 PUSH1 0x2 PUSH0 PUSH2 0x100 EXP DUP2 SLOAD DUP2 PUSH1 0xFF MUL NOT AND SWAP1 DUP4 ISZERO ISZERO MUL OR SWAP1 SSTORE POP PUSH2 0x1F6 JUMP JUMPDEST PUSH0 DUP1 PUSH0 SWAP1 SLOAD SWAP1 PUSH2 0x100 EXP SWAP1 DIV PUSH20 0xFFFFFFFFFFFFFFFFFFFFFFFFFFFFFFFFFFFFFFFF AND SWAP1 POP DUP2 PUSH0 DUP1 PUSH2 0x100 EXP DUP2 SLOAD DUP2 PUSH20 0xFFFFFFFFFFFFFFFFFFFFFFFFFFFFFFFFFFFFFFFF MUL NOT AND SWAP1 DUP4 PUSH20 0xFFFFFFFFFFFFFFFFFFFFFFFFFFFFFFFFFFFFFFFF AND MUL OR SWAP1 SSTORE POP DUP2 PUSH20 0xFFFFFFFFFFFFFFFFFFFFFFFFFFFFFFFFFFFFFFFF AND DUP2 PUSH20 0xFFFFFFFFFFFFFFFFFFFFFFFFFFFFFFFFFFFFFFFF AND PUSH32 0x8BE0079C531659141344CD1FD0A4F28419497F9722A3DAAFE3B4186F6B6457E0 PUSH1 0x40 MLOAD PUSH1 0x40 MLOAD DUP1 SWAP2 SUB SWAP1 LOG3 POP POP JUMP JUMPDEST PUSH0 PUSH20 0xFFFFFFFFFFFFFFFFFFFFFFFFFFFFFFFFFFFFFFFF DUP3 AND SWAP1 POP SWAP2 SWAP1 POP JUMP JUMPDEST PUSH0 PUSH2 0x1C7 DUP3 PUSH2 0x19E JUMP JUMPDEST SWAP1 POP SWAP2 SWAP1 POP JUMP JUMPDEST PUSH2 0x1D7 DUP2 PUSH2 0x1BD JUMP JUMPDEST DUP3 MSTORE POP POP JUMP JUMPDEST PUSH0 PUSH1 0x20 DUP3 ADD SWAP1 POP PUSH2 0x1F0 PUSH0 DUP4 ADD DUP5 PUSH2 0x1CE JUMP JUMPDEST SWAP3 SWAP2 POP POP JUMP JUMPDEST PUSH1 0x80 MLOAD PUSH1 0xA0 MLOAD PUSH1 0xC0 MLOAD PUSH2 0x5075 PUSH2 0x23C PUSH0 CODECOPY PUSH0 DUP2 DUP2 PUSH2 0x736 ADD MSTORE DUP2 DUP2 PUSH2 0x255E ADD MSTORE PUSH2 0x2829 ADD MSTORE PUSH0 PUSH2 0x2AC2 ADD MSTORE PUSH0 DUP2 DUP2 PUSH2 0x682 ADD MSTORE DUP2 DUP2 PUSH2 0x2775 ADD MSTORE PUSH2 0x3880 ADD MSTORE PUSH2 0x5075 PUSH0 RETURN INVALID PUSH1 0x80 PUSH1 0x40 MSTORE PUSH1 0x4 CALLDATASIZE LT PUSH2 0x180 JUMPI PUSH0 CALLDATALOAD PUSH1 0xE0 SHR DUP1 PUSH4 0x7FE0509F GT PUSH2 0xD0 JUMPI DUP1 PUSH4 0xB6EAEA17 GT PUSH2 0x89 JUMPI DUP1 PUSH4 0xDF68075A GT PUSH2 0x63 JUMPI DUP1 PUSH4 0xDF68075A EQ PUSH2 0x529 JUMPI DUP1 PUSH4 0xECAA9D05 EQ PUSH2 0x551 JUMPI DUP1 PUSH4 0xF2FDE38B EQ PUSH2 0x56D JUMPI DUP1 PUSH4 0xF6D121C9 EQ PUSH2 0x595 JUMPI PUSH2 0x180 JUMP JUMPDEST DUP1 PUSH4 0xB6EAEA17 EQ PUSH2 0x4C1 JUMPI DUP1 PUSH4 0xBAC15203 EQ PUSH2 0x4EB JUMPI DUP1 PUSH4 0xBF9B9DED EQ PUSH2 0x501 JUMPI PUSH2 0x180 JUMP JUMPDEST DUP1 PUSH4 0x7FE0509F EQ PUSH2 0x3BE JUMPI DUP1 PUSH4 0x87F15742 EQ PUSH2 0x3E6 JUMPI DUP1 PUSH4 0x8C89A0AD EQ PUSH2 0x410 JUMPI DUP1 PUSH4 0x8DA5CB5B EQ PUSH2 0x43A JUMPI DUP1 PUSH4 0x8E06B906 EQ PUSH2 0x464 JUMPI DUP1 PUSH4 0x9D41BEEF EQ PUSH2 0x4A5 JUMPI PUSH2 0x180 JUMP JUMPDEST DUP1 PUSH4 0x43CADC60 GT PUSH2 0x13D JUMPI DUP1 PUSH4 0x65994F8D GT PUSH2 0x117 JUMPI DUP1 PUSH4 0x65994F8D EQ PUSH2 0x330 JUMPI DUP1 PUSH4 0x6A0AFA45 EQ PUSH2 0x358 JUMPI DUP1 PUSH4 0x715018A6 EQ PUSH2 0x380 JUMPI DUP1 PUSH4 0x7DD9035B EQ PUSH2 0x396 JUMPI PUSH2 0x180 JUMP JUMPDEST DUP1 PUSH4 0x43CADC60 EQ PUSH2 0x29E JUMPI DUP1 PUSH4 0x5C975ABB EQ PUSH2 0x2C6 JUMPI DUP1 PUSH4 0x60864EED EQ PUSH2 0x2F0 JUMPI PUSH2 0x180 JUMP JUMPDEST DUP1 PUSH4 0x7F0A301 EQ PUSH2 0x184 JUMPI DUP1 PUSH4 0xF1419B5 EQ PUSH2 0x1C0 JUMPI DUP1 PUSH4 0x14205E28 EQ PUSH2 0x1E8 JUMPI DUP1 PUSH4 0x2D8FEFC2 EQ PUSH2 0x224 JUMPI DUP1 PUSH4 0x3B958C38 EQ PUSH2 0x24C JUMPI DUP1 PUSH4 0x439766CE EQ PUSH2 0x288 JUMPI JUMPDEST PUSH0 DUP1 REVERT JUMPDEST CALLVALUE DUP1 ISZERO PUSH2 0x18F JUMPI PUSH0 DUP1 REVERT JUMPDEST POP PUSH2 0x1AA PUSH1 0x4 DUP1 CALLDATASIZE SUB DUP2 ADD SWAP1 PUSH2 0x1A5 SWAP2 SWAP1 PUSH2 0x3DEC JUMP JUMPDEST PUSH2 0x5BF JUMP JUMPDEST PUSH1 0x40 MLOAD PUSH2 0x1B7 SWAP2 SWAP1 PUSH2 0x3E31 JUMP JUMPDEST PUSH1 0x40 MLOAD DUP1 SWAP2 SUB SWAP1 RETURN JUMPDEST CALLVALUE DUP1 ISZERO PUSH2 0x1CB JUMPI PUSH0 DUP1 REVERT JUMPDEST POP PUSH2 0x1E6 PUSH1 0x4 DUP1 CALLDATASIZE SUB DUP2 ADD SWAP1 PUSH2 0x1E1 SWAP2 SWAP1 PUSH2 0x402A JUMP JUMPDEST PUSH2 0x5DC JUMP JUMPDEST STOP JUMPDEST CALLVALUE DUP1 ISZERO PUSH2 0x1F3 JUMPI PUSH0 DUP1 REVERT JUMPDEST POP PUSH2 0x20E PUSH1 0x4 DUP1 CALLDATASIZE SUB DUP2 ADD SWAP1 PUSH2 0x209 SWAP2 SWAP1 PUSH2 0x40BD JUMP JUMPDEST PUSH2 0xBAC JUMP JUMPDEST PUSH1 0x40 MLOAD PUSH2 0x21B SWAP2 SWAP1 PUSH2 0x40F7 JUMP JUMPDEST PUSH1 0x40 MLOAD DUP1 SWAP2 SUB SWAP1 RETURN JUMPDEST CALLVALUE DUP1 ISZERO PUSH2 0x22F JUMPI PUSH0 DUP1 REVERT JUMPDEST POP PUSH2 0x24A PUSH1 0x4 DUP1 CALLDATASIZE SUB DUP2 ADD SWAP1 PUSH2 0x245 SWAP2 SWAP1 PUSH2 0x4149 JUMP JUMPDEST PUSH2 0xC2C JUMP JUMPDEST STOP JUMPDEST CALLVALUE DUP1 ISZERO PUSH2 0x257 JUMPI PUSH0 DUP1 REVERT JUMPDEST POP PUSH2 0x272 PUSH1 0x4 DUP1 CALLDATASIZE SUB DUP2 ADD SWAP1 PUSH2 0x26D SWAP2 SWAP1 PUSH2 0x41AD JUMP JUMPDEST PUSH2 0x11C2 JUMP JUMPDEST PUSH1 0x40 MLOAD PUSH2 0x27F SWAP2 SWAP1 PUSH2 0x43A6 JUMP JUMPDEST PUSH1 0x40 MLOAD DUP1 SWAP2 SUB SWAP1 RETURN JUMPDEST CALLVALUE DUP1 ISZERO PUSH2 0x293 JUMPI PUSH0 DUP1 REVERT JUMPDEST POP PUSH2 0x29C PUSH2 0x13E8 JUMP JUMPDEST STOP JUMPDEST CALLVALUE DUP1 ISZERO PUSH2 0x2A9 JUMPI PUSH0 DUP1 REVERT JUMPDEST POP PUSH2 0x2C4 PUSH1 0x4 DUP1 CALLDATASIZE SUB DUP2 ADD SWAP1 PUSH2 0x2BF SWAP2 SWAP1 PUSH2 0x43C6 JUMP JUMPDEST PUSH2 0x1489 JUMP JUMPDEST STOP JUMPDEST CALLVALUE DUP1 ISZERO PUSH2 0x2D1 JUMPI PUSH0 DUP1 REVERT JUMPDEST POP PUSH2 0x2DA PUSH2 0x1973 JUMP JUMPDEST PUSH1 0x40 MLOAD PUSH2 0x2E7 SWAP2 SWAP1 PUSH2 0x3E31 JUMP JUMPDEST PUSH1 0x40 MLOAD DUP1 SWAP2 SUB SWAP1 RETURN JUMPDEST CALLVALUE DUP1 ISZERO PUSH2 0x2FB JUMPI PUSH0 DUP1 REVERT JUMPDEST POP PUSH2 0x316 PUSH1 0x4 DUP1 CALLDATASIZE SUB DUP2 ADD SWAP1 PUSH2 0x311 SWAP2 SWAP1 PUSH2 0x4404 JUMP JUMPDEST PUSH2 0x1985 JUMP JUMPDEST PUSH1 0x40 MLOAD PUSH2 0x327 SWAP6 SWAP5 SWAP4 SWAP3 SWAP2 SWAP1 PUSH2 0x44AB JUMP JUMPDEST PUSH1 0x40 MLOAD DUP1 SWAP2 SUB SWAP1 RETURN JUMPDEST CALLVALUE DUP1 ISZERO PUSH2 0x33B JUMPI PUSH0 DUP1 REVERT JUMPDEST POP PUSH2 0x356 PUSH1 0x4 DUP1 CALLDATASIZE SUB DUP2 ADD SWAP1 PUSH2 0x351 SWAP2 SWAP1 PUSH2 0x40BD JUMP JUMPDEST PUSH2 0x1A8D JUMP JUMPDEST STOP JUMPDEST CALLVALUE DUP1 ISZERO PUSH2 0x363 JUMPI PUSH0 DUP1 REVERT JUMPDEST POP PUSH2 0x37E PUSH1 0x4 DUP1 CALLDATASIZE SUB DUP2 ADD SWAP1 PUSH2 0x379 SWAP2 SWAP1 PUSH2 0x4503 JUMP JUMPDEST PUSH2 0x1BBA JUMP JUMPDEST STOP JUMPDEST CALLVALUE DUP1 ISZERO PUSH2 0x38B JUMPI PUSH0 DUP1 REVERT JUMPDEST POP PUSH2 0x394 PUSH2 0x22C4 JUMP JUMPDEST STOP JUMPDEST CALLVALUE DUP1 ISZERO PUSH2 0x3A1 JUMPI PUSH0 DUP1 REVERT JUMPDEST POP PUSH2 0x3BC PUSH1 0x4 DUP1 CALLDATASIZE SUB DUP2 ADD SWAP1 PUSH2 0x3B7 SWAP2 SWAP1 PUSH2 0x457A JUMP JUMPDEST PUSH2 0x22D7 JUMP JUMPDEST STOP JUMPDEST CALLVALUE DUP1 ISZERO PUSH2 0x3C9 JUMPI PUSH0 DUP1 REVERT JUMPDEST POP PUSH2 0x3E4 PUSH1 0x4 DUP1 CALLDATASIZE SUB DUP2 ADD SWAP1 PUSH2 0x3DF SWAP2 SWAP1 PUSH2 0x40BD JUMP JUMPDEST PUSH2 0x242D JUMP JUMPDEST STOP JUMPDEST CALLVALUE DUP1 ISZERO PUSH2 0x3F1 JUMPI PUSH0 DUP1 REVERT JUMPDEST POP PUSH2 0x3FA PUSH2 0x255C JUMP JUMPDEST PUSH1 0x40 MLOAD PUSH2 0x407 SWAP2 SWAP1 PUSH2 0x45F5 JUMP JUMPDEST PUSH1 0x40 MLOAD DUP1 SWAP2 SUB SWAP1 RETURN JUMPDEST CALLVALUE DUP1 ISZERO PUSH2 0x41B JUMPI PUSH0 DUP1 REVERT JUMPDEST POP PUSH2 0x424 PUSH2 0x2580 JUMP JUMPDEST PUSH1 0x40 MLOAD PUSH2 0x431 SWAP2 SWAP1 PUSH2 0x40F7 JUMP JUMPDEST PUSH1 0x40 MLOAD DUP1 SWAP2 SUB SWAP1 RETURN JUMPDEST CALLVALUE DUP1 ISZERO PUSH2 0x445 JUMPI PUSH0 DUP1 REVERT JUMPDEST POP PUSH2 0x44E PUSH2 0x2587 JUMP JUMPDEST PUSH1 0x40 MLOAD PUSH2 0x45B SWAP2 SWAP1 PUSH2 0x460E JUMP JUMPDEST PUSH1 0x40 MLOAD DUP1 SWAP2 SUB SWAP1 RETURN JUMPDEST CALLVALUE DUP1 ISZERO PUSH2 0x46F JUMPI PUSH0 DUP1 REVERT JUMPDEST POP PUSH2 0x48A PUSH1 0x4 DUP1 CALLDATASIZE SUB DUP2 ADD SWAP1 PUSH2 0x485 SWAP2 SWAP1 PUSH2 0x4404 JUMP JUMPDEST PUSH2 0x25AE JUMP JUMPDEST PUSH1 0x40 MLOAD PUSH2 0x49C SWAP7 SWAP6 SWAP5 SWAP4 SWAP3 SWAP2 SWAP1 PUSH2 0x4627 JUMP JUMPDEST PUSH1 0x40 MLOAD DUP1 SWAP2 SUB SWAP1 RETURN JUMPDEST PUSH2 0x4BF PUSH1 0x4 DUP1 CALLDATASIZE SUB DUP2 ADD SWAP1 PUSH2 0x4BA SWAP2 SWAP1 PUSH2 0x468D JUMP JUMPDEST PUSH2 0x26C9 JUMP JUMPDEST STOP JUMPDEST CALLVALUE DUP1 ISZERO PUSH2 0x4CC JUMPI PUSH0 DUP1 REVERT JUMPDEST POP PUSH2 0x4D5 PUSH2 0x2AC0 JUMP JUMPDEST PUSH1 0x40 MLOAD PUSH2 0x4E2 SWAP2 SWAP1 PUSH2 0x45F5 JUMP JUMPDEST PUSH1 0x40 MLOAD DUP1 SWAP2 SUB SWAP1 RETURN JUMPDEST CALLVALUE DUP1 ISZERO PUSH2 0x4F6 JUMPI PUSH0 DUP1 REVERT JUMPDEST POP PUSH2 0x4FF PUSH2 0x2AE4 JUMP JUMPDEST STOP JUMPDEST CALLVALUE DUP1 ISZERO PUSH2 0x50C JUMPI PUSH0 DUP1 REVERT JUMPDEST POP PUSH2 0x527 PUSH1 0x4 DUP1 CALLDATASIZE SUB DUP2 ADD SWAP1 PUSH2 0x522 SWAP2 SWAP1 PUSH2 0x4723 JUMP JUMPDEST PUSH2 0x2B83 JUMP JUMPDEST STOP JUMPDEST CALLVALUE DUP1 ISZERO PUSH2 0x534 JUMPI PUSH0 DUP1 REVERT JUMPDEST POP PUSH2 0x54F PUSH1 0x4 DUP1 CALLDATASIZE SUB DUP2 ADD SWAP1 PUSH2 0x54A SWAP2 SWAP1 PUSH2 0x4787 JUMP JUMPDEST PUSH2 0x31F6 JUMP JUMPDEST STOP JUMPDEST PUSH2 0x56B PUSH1 0x4 DUP1 CALLDATASIZE SUB DUP2 ADD SWAP1 PUSH2 0x566 SWAP2 SWAP1 PUSH2 0x47D7 JUMP JUMPDEST PUSH2 0x3450 JUMP JUMPDEST STOP JUMPDEST CALLVALUE DUP1 ISZERO PUSH2 0x578 JUMPI PUSH0 DUP1 REVERT JUMPDEST POP PUSH2 0x593 PUSH1 0x4 DUP1 CALLDATASIZE SUB DUP2 ADD SWAP1 PUSH2 0x58E SWAP2 SWAP1 PUSH2 0x3DEC JUMP JUMPDEST PUSH2 0x37FA JUMP JUMPDEST STOP JUMPDEST CALLVALUE DUP1 ISZERO PUSH2 0x5A0 JUMPI PUSH0 DUP1 REVERT JUMPDEST POP PUSH2 0x5A9 PUSH2 0x387E JUMP JUMPDEST PUSH1 0x40 MLOAD PUSH2 0x5B6 SWAP2 SWAP1 PUSH2 0x40F7 JUMP JUMPDEST PUSH1 0x40 MLOAD DUP1 SWAP2 SUB SWAP1 RETURN JUMPDEST PUSH1 0x5 PUSH1 0x20 MSTORE DUP1 PUSH0 MSTORE PUSH1 0x40 PUSH0 KECCAK256 PUSH0 SWAP2 POP SLOAD SWAP1 PUSH2 0x100 EXP SWAP1 DIV PUSH1 0xFF AND DUP2 JUMP JUMPDEST PUSH2 0x5E4 PUSH2 0x38A2 JUMP JUMPDEST PUSH1 0x2 PUSH0 SWAP1 SLOAD SWAP1 PUSH2 0x100 EXP SWAP1 DIV PUSH1 0xFF AND ISZERO PUSH2 0x62A JUMPI PUSH1 0x40 MLOAD PUSH32 0x94DA9AE700000000000000000000000000000000000000000000000000000000 DUP2 MSTORE PUSH1 0x4 ADD PUSH1 0x40 MLOAD DUP1 SWAP2 SUB SWAP1 REVERT JUMPDEST DUP3 PUSH0 DUP2 PUSH1 0xFF AND LT DUP1 PUSH2 0x63F JUMPI POP PUSH1 0x4 DUP2 PUSH1 0xFF AND GT JUMPDEST ISZERO PUSH2 0x676 JUMPI PUSH1 0x40 MLOAD PUSH32 0x41E7BB4F00000000000000000000000000000000000000000000000000000000 DUP2 MSTORE PUSH1 0x4 ADD PUSH1 0x40 MLOAD DUP1 SWAP2 SUB SWAP1 REVERT JUMPDEST DUP3 PUSH0 DUP2 EQ DUP1 PUSH2 0x6A4 JUMPI POP PUSH32 0x0 DUP2 GT JUMPDEST ISZERO PUSH2 0x6DB JUMPI PUSH1 0x40 MLOAD PUSH32 0x2A82A34F00000000000000000000000000000000000000000000000000000000 DUP2 MSTORE PUSH1 0x4 ADD PUSH1 0x40 MLOAD DUP1 SWAP2 SUB SWAP1 REVERT JUMPDEST PUSH0 PUSH1 0x3 PUSH0 CALLER PUSH20 0xFFFFFFFFFFFFFFFFFFFFFFFFFFFFFFFFFFFFFFFF AND PUSH20 0xFFFFFFFFFFFFFFFFFFFFFFFFFFFFFFFFFFFFFFFF AND DUP2 MSTORE PUSH1 0x20 ADD SWAP1 DUP2 MSTORE PUSH1 0x20 ADD PUSH0 KECCAK256 PUSH0 DUP8 PUSH1 0xFF AND PUSH1 0xFF AND DUP2 MSTORE PUSH1 0x20 ADD SWAP1 DUP2 MSTORE PUSH1 0x20 ADD PUSH0 KECCAK256 DUP1 SLOAD SWAP1 POP SWAP1 POP PUSH32 0x0 PUSH1 0xFF AND DUP2 LT PUSH2 0x790 JUMPI PUSH1 0x40 MLOAD PUSH32 0xA0C5191F00000000000000000000000000000000000000000000000000000000 DUP2 MSTORE PUSH1 0x4 ADD PUSH1 0x40 MLOAD DUP1 SWAP2 SUB SWAP1 REVERT JUMPDEST PUSH0 PUSH20 0xFFFFFFFFFFFFFFFFFFFFFFFFFFFFFFFFFFFFFFFF AND DUP9 PUSH20 0xFFFFFFFFFFFFFFFFFFFFFFFFFFFFFFFFFFFFFFFF AND SUB PUSH2 0x800 JUMPI DUP8 PUSH1 0x40 MLOAD PUSH32 0x7330680300000000000000000000000000000000000000000000000000000000 DUP2 MSTORE PUSH1 0x4 ADD PUSH2 0x7F7 SWAP2 SWAP1 PUSH2 0x460E JUMP JUMPDEST PUSH1 0x40 MLOAD DUP1 SWAP2 SUB SWAP1 REVERT JUMPDEST PUSH1 0x5 PUSH0 DUP10 PUSH20 0xFFFFFFFFFFFFFFFFFFFFFFFFFFFFFFFFFFFFFFFF AND PUSH20 0xFFFFFFFFFFFFFFFFFFFFFFFFFFFFFFFFFFFFFFFF AND DUP2 MSTORE PUSH1 0x20 ADD SWAP1 DUP2 MSTORE PUSH1 0x20 ADD PUSH0 KECCAK256 PUSH0 SWAP1 SLOAD SWAP1 PUSH2 0x100 EXP SWAP1 DIV PUSH1 0xFF AND ISZERO PUSH2 0x88C JUMPI DUP8 PUSH1 0x40 MLOAD PUSH32 0xDAE5670900000000000000000000000000000000000000000000000000000000 DUP2 MSTORE PUSH1 0x4 ADD PUSH2 0x883 SWAP2 SWAP1 PUSH2 0x460E JUMP JUMPDEST PUSH1 0x40 MLOAD DUP1 SWAP2 SUB SWAP1 REVERT JUMPDEST PUSH0 DUP8 GT PUSH2 0x8C5 JUMPI PUSH1 0x40 MLOAD PUSH32 0xE4910D5800000000000000000000000000000000000000000000000000000000 DUP2 MSTORE PUSH1 0x4 ADD PUSH1 0x40 MLOAD DUP1 SWAP2 SUB SWAP1 REVERT JUMPDEST PUSH0 DUP9 PUSH20 0xFFFFFFFFFFFFFFFFFFFFFFFFFFFFFFFFFFFFFFFF AND PUSH4 0x70A08231 CALLER PUSH1 0x40 MLOAD DUP3 PUSH4 0xFFFFFFFF AND PUSH1 0xE0 SHL DUP2 MSTORE PUSH1 0x4 ADD PUSH2 0x8FF SWAP2 SWAP1 PUSH2 0x460E JUMP JUMPDEST PUSH1 0x20 PUSH1 0x40 MLOAD DUP1 DUP4 SUB DUP2 DUP7 GAS STATICCALL ISZERO DUP1 ISZERO PUSH2 0x91A JUMPI RETURNDATASIZE PUSH0 DUP1 RETURNDATACOPY RETURNDATASIZE PUSH0 REVERT JUMPDEST POP POP POP POP PUSH1 0x40 MLOAD RETURNDATASIZE PUSH1 0x1F NOT PUSH1 0x1F DUP3 ADD AND DUP3 ADD DUP1 PUSH1 0x40 MSTORE POP DUP2 ADD SWAP1 PUSH2 0x93E SWAP2 SWAP1 PUSH2 0x4829 JUMP JUMPDEST SWAP1 POP DUP1 DUP9 GT ISZERO PUSH2 0x985 JUMPI DUP9 PUSH1 0x40 MLOAD PUSH32 0xE3AEA5E600000000000000000000000000000000000000000000000000000000 DUP2 MSTORE PUSH1 0x4 ADD PUSH2 0x97C SWAP2 SWAP1 PUSH2 0x460E JUMP JUMPDEST PUSH1 0x40 MLOAD DUP1 SWAP2 SUB SWAP1 REVERT JUMPDEST PUSH2 0x9B2 CALLER ADDRESS DUP11 DUP13 PUSH20 0xFFFFFFFFFFFFFFFFFFFFFFFFFFFFFFFFFFFFFFFF AND PUSH2 0x38E8 SWAP1 SWAP4 SWAP3 SWAP2 SWAP1 PUSH4 0xFFFFFFFF AND JUMP JUMPDEST PUSH1 0x3 PUSH0 CALLER PUSH20 0xFFFFFFFFFFFFFFFFFFFFFFFFFFFFFFFFFFFFFFFF AND PUSH20 0xFFFFFFFFFFFFFFFFFFFFFFFFFFFFFFFFFFFFFFFF AND DUP2 MSTORE PUSH1 0x20 ADD SWAP1 DUP2 MSTORE PUSH1 0x20 ADD PUSH0 KECCAK256 PUSH0 DUP9 PUSH1 0xFF AND PUSH1 0xFF AND DUP2 MSTORE PUSH1 0x20 ADD SWAP1 DUP2 MSTORE PUSH1 0x20 ADD PUSH0 KECCAK256 PUSH1 0x40 MLOAD DUP1 PUSH1 0xC0 ADD PUSH1 0x40 MSTORE DUP1 DUP12 PUSH20 0xFFFFFFFFFFFFFFFFFFFFFFFFFFFFFFFFFFFFFFFF AND DUP2 MSTORE PUSH1 0x20 ADD DUP11 DUP2 MSTORE PUSH1 0x20 ADD DUP9 TIMESTAMP PUSH2 0xA3D SWAP2 SWAP1 PUSH2 0x4881 JUMP JUMPDEST DUP2 MSTORE PUSH1 0x20 ADD DUP8 DUP2 MSTORE PUSH1 0x20 ADD PUSH0 ISZERO ISZERO DUP2 MSTORE PUSH1 0x20 ADD PUSH0 ISZERO ISZERO DUP2 MSTORE POP SWAP1 DUP1 PUSH1 0x1 DUP2 SLOAD ADD DUP1 DUP3 SSTORE DUP1 SWAP2 POP POP PUSH1 0x1 SWAP1 SUB SWAP1 PUSH0 MSTORE PUSH1 0x20 PUSH0 KECCAK256 SWAP1 PUSH1 0x5 MUL ADD PUSH0 SWAP1 SWAP2 SWAP1 SWAP2 SWAP1 SWAP2 POP PUSH0 DUP3 ADD MLOAD DUP2 PUSH0 ADD PUSH0 PUSH2 0x100 EXP DUP2 SLOAD DUP2 PUSH20 0xFFFFFFFFFFFFFFFFFFFFFFFFFFFFFFFFFFFFFFFF MUL NOT AND SWAP1 DUP4 PUSH20 0xFFFFFFFFFFFFFFFFFFFFFFFFFFFFFFFFFFFFFFFF AND MUL OR SWAP1 SSTORE POP PUSH1 0x20 DUP3 ADD MLOAD DUP2 PUSH1 0x1 ADD SSTORE PUSH1 0x40 DUP3 ADD MLOAD DUP2 PUSH1 0x2 ADD SSTORE PUSH1 0x60 DUP3 ADD MLOAD DUP2 PUSH1 0x3 ADD SWAP1 DUP2 PUSH2 0xAE9 SWAP2 SWAP1 PUSH2 0x4AAE JUMP JUMPDEST POP PUSH1 0x80 DUP3 ADD MLOAD DUP2 PUSH1 0x4 ADD PUSH0 PUSH2 0x100 EXP DUP2 SLOAD DUP2 PUSH1 0xFF MUL NOT AND SWAP1 DUP4 ISZERO ISZERO MUL OR SWAP1 SSTORE POP PUSH1 0xA0 DUP3 ADD MLOAD DUP2 PUSH1 0x4 ADD PUSH1 0x1 PUSH2 0x100 EXP DUP2 SLOAD DUP2 PUSH1 0xFF MUL NOT AND SWAP1 DUP4 ISZERO ISZERO MUL OR SWAP1 SSTORE POP POP POP PUSH2 0xB38 DUP10 DUP9 DUP11 DUP9 PUSH0 PUSH2 0x396A JUMP JUMPDEST DUP9 PUSH20 0xFFFFFFFFFFFFFFFFFFFFFFFFFFFFFFFFFFFFFFFF AND PUSH32 0x93C7F7D807630C520B9271E8FB715ABFCCA1D19DAAD1FC4A8B291B82EA518B67 DUP10 DUP8 DUP11 DUP11 TIMESTAMP PUSH2 0xB7F SWAP2 SWAP1 PUSH2 0x4881 JUMP JUMPDEST TIMESTAMP PUSH1 0x40 MLOAD PUSH2 0xB91 SWAP6 SWAP5 SWAP4 SWAP3 SWAP2 SWAP1 PUSH2 0x4B8C JUMP JUMPDEST PUSH1 0x40 MLOAD DUP1 SWAP2 SUB SWAP1 LOG2 POP POP POP POP PUSH2 0xBA5 PUSH2 0x3AB7 JUMP JUMPDEST POP POP POP POP POP JUMP JUMPDEST PUSH0 DUP2 PUSH20 0xFFFFFFFFFFFFFFFFFFFFFFFFFFFFFFFFFFFFFFFF AND PUSH4 0x70A08231 ADDRESS PUSH1 0x40 MLOAD DUP3 PUSH4 0xFFFFFFFF AND PUSH1 0xE0 SHL DUP2 MSTORE PUSH1 0x4 ADD PUSH2 0xBE6 SWAP2 SWAP1 PUSH2 0x460E JUMP JUMPDEST PUSH1 0x20 PUSH1 0x40 MLOAD DUP1 DUP4 SUB DUP2 DUP7 GAS STATICCALL ISZERO DUP1 ISZERO PUSH2 0xC01 JUMPI RETURNDATASIZE PUSH0 DUP1 RETURNDATACOPY RETURNDATASIZE PUSH0 REVERT JUMPDEST POP POP POP POP PUSH1 0x40 MLOAD RETURNDATASIZE PUSH1 0x1F NOT PUSH1 0x1F DUP3 ADD AND DUP3 ADD DUP1 PUSH1 0x40 MSTORE POP DUP2 ADD SWAP1 PUSH2 0xC25 SWAP2 SWAP1 PUSH2 0x4829 JUMP JUMPDEST SWAP1 POP SWAP2 SWAP1 POP JUMP JUMPDEST PUSH2 0xC34 PUSH2 0x38A2 JUMP JUMPDEST PUSH1 0x2 PUSH0 SWAP1 SLOAD SWAP1 PUSH2 0x100 EXP SWAP1 DIV PUSH1 0xFF AND ISZERO PUSH2 0xC7A JUMPI PUSH1 0x40 MLOAD PUSH32 0x94DA9AE700000000000000000000000000000000000000000000000000000000 DUP2 MSTORE PUSH1 0x4 ADD PUSH1 0x40 MLOAD DUP1 SWAP2 SUB SWAP1 REVERT JUMPDEST DUP1 PUSH0 DUP2 PUSH1 0xFF AND LT DUP1 PUSH2 0xC8F JUMPI POP PUSH1 0x4 DUP2 PUSH1 0xFF AND GT JUMPDEST ISZERO PUSH2 0xCC6 JUMPI PUSH1 0x40 MLOAD PUSH32 0x41E7BB4F00000000000000000000000000000000000000000000000000000000 DUP2 MSTORE PUSH1 0x4 ADD PUSH1 0x40 MLOAD DUP1 SWAP2 SUB SWAP1 REVERT JUMPDEST PUSH0 PUSH20 0xFFFFFFFFFFFFFFFFFFFFFFFFFFFFFFFFFFFFFFFF AND DUP6 PUSH20 0xFFFFFFFFFFFFFFFFFFFFFFFFFFFFFFFFFFFFFFFF AND SUB PUSH2 0xD36 JUMPI DUP5 PUSH1 0x40 MLOAD PUSH32 0x7330680300000000000000000000000000000000000000000000000000000000 DUP2 MSTORE PUSH1 0x4 ADD PUSH2 0xD2D SWAP2 SWAP1 PUSH2 0x460E JUMP JUMPDEST PUSH1 0x40 MLOAD DUP1 SWAP2 SUB SWAP1 REVERT JUMPDEST PUSH1 0x5 PUSH0 DUP7 PUSH20 0xFFFFFFFFFFFFFFFFFFFFFFFFFFFFFFFFFFFFFFFF AND PUSH20 0xFFFFFFFFFFFFFFFFFFFFFFFFFFFFFFFFFFFFFFFF AND DUP2 MSTORE PUSH1 0x20 ADD SWAP1 DUP2 MSTORE PUSH1 0x20 ADD PUSH0 KECCAK256 PUSH0 SWAP1 SLOAD SWAP1 PUSH2 0x100 EXP SWAP1 DIV PUSH1 0xFF AND ISZERO PUSH2 0xDC2 JUMPI DUP5 PUSH1 0x40 MLOAD PUSH32 0xDAE5670900000000000000000000000000000000000000000000000000000000 DUP2 MSTORE PUSH1 0x4 ADD PUSH2 0xDB9 SWAP2 SWAP1 PUSH2 0x460E JUMP JUMPDEST PUSH1 0x40 MLOAD DUP1 SWAP2 SUB SWAP1 REVERT JUMPDEST PUSH0 DUP4 GT PUSH2 0xDFB JUMPI PUSH1 0x40 MLOAD PUSH32 0xE4910D5800000000000000000000000000000000000000000000000000000000 DUP2 MSTORE PUSH1 0x4 ADD PUSH1 0x40 MLOAD DUP1 SWAP2 SUB SWAP1 REVERT JUMPDEST PUSH1 0x3 PUSH0 CALLER PUSH20 0xFFFFFFFFFFFFFFFFFFFFFFFFFFFFFFFFFFFFFFFF AND PUSH20 0xFFFFFFFFFFFFFFFFFFFFFFFFFFFFFFFFFFFFFFFF AND DUP2 MSTORE PUSH1 0x20 ADD SWAP1 DUP2 MSTORE PUSH1 0x20 ADD PUSH0 KECCAK256 PUSH0 DUP4 PUSH1 0xFF AND PUSH1 0xFF AND DUP2 MSTORE PUSH1 0x20 ADD SWAP1 DUP2 MSTORE PUSH1 0x20 ADD PUSH0 KECCAK256 DUP1 SLOAD SWAP1 POP DUP5 PUSH4 0xFFFFFFFF AND GT ISZERO PUSH2 0xE90 JUMPI PUSH1 0x40 MLOAD PUSH32 0x43B88A3000000000000000000000000000000000000000000000000000000000 DUP2 MSTORE PUSH1 0x4 ADD PUSH1 0x40 MLOAD DUP1 SWAP2 SUB SWAP1 REVERT JUMPDEST PUSH0 PUSH1 0x3 PUSH0 CALLER PUSH20 0xFFFFFFFFFFFFFFFFFFFFFFFFFFFFFFFFFFFFFFFF AND PUSH20 0xFFFFFFFFFFFFFFFFFFFFFFFFFFFFFFFFFFFFFFFF AND DUP2 MSTORE PUSH1 0x20 ADD SWAP1 DUP2 MSTORE PUSH1 0x20 ADD PUSH0 KECCAK256 PUSH0 DUP5 PUSH1 0xFF AND PUSH1 0xFF AND DUP2 MSTORE PUSH1 0x20 ADD SWAP1 DUP2 MSTORE PUSH1 0x20 ADD PUSH0 KECCAK256 DUP6 PUSH4 0xFFFFFFFF AND DUP2 SLOAD DUP2 LT PUSH2 0xEFB JUMPI PUSH2 0xEFA PUSH2 0x4BE4 JUMP JUMPDEST JUMPDEST SWAP1 PUSH0 MSTORE PUSH1 0x20 PUSH0 KECCAK256 SWAP1 PUSH1 0x5 MUL ADD SWAP1 POP TIMESTAMP DUP2 PUSH1 0x2 ADD SLOAD LT ISZERO PUSH2 0xF47 JUMPI PUSH1 0x40 MLOAD PUSH32 0xA3F3D8B900000000000000000000000000000000000000000000000000000000 DUP2 MSTORE PUSH1 0x4 ADD PUSH1 0x40 MLOAD DUP1 SWAP2 SUB SWAP1 REVERT JUMPDEST PUSH0 DUP7 PUSH20 0xFFFFFFFFFFFFFFFFFFFFFFFFFFFFFFFFFFFFFFFF AND PUSH4 0x70A08231 CALLER PUSH1 0x40 MLOAD DUP3 PUSH4 0xFFFFFFFF AND PUSH1 0xE0 SHL DUP2 MSTORE PUSH1 0x4 ADD PUSH2 0xF81 SWAP2 SWAP1 PUSH2 0x460E JUMP JUMPDEST PUSH1 0x20 PUSH1 0x40 MLOAD DUP1 DUP4 SUB DUP2 DUP7 GAS STATICCALL ISZERO DUP1 ISZERO PUSH2 0xF9C JUMPI RETURNDATASIZE PUSH0 DUP1 RETURNDATACOPY RETURNDATASIZE PUSH0 REVERT JUMPDEST POP POP POP POP PUSH1 0x40 MLOAD RETURNDATASIZE PUSH1 0x1F NOT PUSH1 0x1F DUP3 ADD AND DUP3 ADD DUP1 PUSH1 0x40 MSTORE POP DUP2 ADD SWAP1 PUSH2 0xFC0 SWAP2 SWAP1 PUSH2 0x4829 JUMP JUMPDEST SWAP1 POP DUP1 DUP6 GT ISZERO PUSH2 0x1007 JUMPI DUP7 PUSH1 0x40 MLOAD PUSH32 0xE3AEA5E600000000000000000000000000000000000000000000000000000000 DUP2 MSTORE PUSH1 0x4 ADD PUSH2 0xFFE SWAP2 SWAP1 PUSH2 0x460E JUMP JUMPDEST PUSH1 0x40 MLOAD DUP1 SWAP2 SUB SWAP1 REVERT JUMPDEST PUSH2 0x1034 CALLER ADDRESS DUP8 DUP11 PUSH20 0xFFFFFFFFFFFFFFFFFFFFFFFFFFFFFFFFFFFFFFFF AND PUSH2 0x38E8 SWAP1 SWAP4 SWAP3 SWAP2 SWAP1 PUSH4 0xFFFFFFFF AND JUMP JUMPDEST DUP5 PUSH1 0x3 PUSH0 CALLER PUSH20 0xFFFFFFFFFFFFFFFFFFFFFFFFFFFFFFFFFFFFFFFF AND PUSH20 0xFFFFFFFFFFFFFFFFFFFFFFFFFFFFFFFFFFFFFFFF AND DUP2 MSTORE PUSH1 0x20 ADD SWAP1 DUP2 MSTORE PUSH1 0x20 ADD PUSH0 KECCAK256 PUSH0 DUP7 PUSH1 0xFF AND PUSH1 0xFF AND DUP2 MSTORE PUSH1 0x20 ADD SWAP1 DUP2 MSTORE PUSH1 0x20 ADD PUSH0 KECCAK256 DUP8 PUSH4 0xFFFFFFFF AND DUP2 SLOAD DUP2 LT PUSH2 0x109F JUMPI PUSH2 0x109E PUSH2 0x4BE4 JUMP JUMPDEST JUMPDEST SWAP1 PUSH0 MSTORE PUSH1 0x20 PUSH0 KECCAK256 SWAP1 PUSH1 0x5 MUL ADD PUSH1 0x1 ADD PUSH0 DUP3 DUP3 SLOAD PUSH2 0x10BC SWAP2 SWAP1 PUSH2 0x4881 JUMP JUMPDEST SWAP3 POP POP DUP2 SWAP1 SSTORE POP PUSH2 0x115A DUP8 DUP6 DUP8 DUP6 PUSH1 0x3 ADD DUP1 SLOAD PUSH2 0x10D8 SWAP1 PUSH2 0x48E1 JUMP JUMPDEST DUP1 PUSH1 0x1F ADD PUSH1 0x20 DUP1 SWAP2 DIV MUL PUSH1 0x20 ADD PUSH1 0x40 MLOAD SWAP1 DUP2 ADD PUSH1 0x40 MSTORE DUP1 SWAP3 SWAP2 SWAP1 DUP2 DUP2 MSTORE PUSH1 0x20 ADD DUP3 DUP1 SLOAD PUSH2 0x1104 SWAP1 PUSH2 0x48E1 JUMP JUMPDEST DUP1 ISZERO PUSH2 0x114F JUMPI DUP1 PUSH1 0x1F LT PUSH2 0x1126 JUMPI PUSH2 0x100 DUP1 DUP4 SLOAD DIV MUL DUP4 MSTORE SWAP2 PUSH1 0x20 ADD SWAP2 PUSH2 0x114F JUMP JUMPDEST DUP3 ADD SWAP2 SWAP1 PUSH0 MSTORE PUSH1 0x20 PUSH0 KECCAK256 SWAP1 JUMPDEST DUP2 SLOAD DUP2 MSTORE SWAP1 PUSH1 0x1 ADD SWAP1 PUSH1 0x20 ADD DUP1 DUP4 GT PUSH2 0x1132 JUMPI DUP3 SWAP1 SUB PUSH1 0x1F AND DUP3 ADD SWAP2 JUMPDEST POP POP POP POP POP PUSH0 PUSH2 0x396A JUMP JUMPDEST DUP7 PUSH20 0xFFFFFFFFFFFFFFFFFFFFFFFFFFFFFFFFFFFFFFFF AND PUSH32 0xA62FA334755456EFC7EABEC03287391ABE4998E298B5D3B4A3EABC34FD5F800B DUP7 DUP5 PUSH1 0x3 ADD DUP8 TIMESTAMP PUSH1 0x40 MLOAD PUSH2 0x11A9 SWAP5 SWAP4 SWAP3 SWAP2 SWAP1 PUSH2 0x4C92 JUMP JUMPDEST PUSH1 0x40 MLOAD DUP1 SWAP2 SUB SWAP1 LOG2 POP POP POP PUSH2 0x11BC PUSH2 0x3AB7 JUMP JUMPDEST POP POP POP POP JUMP JUMPDEST PUSH1 0x60 PUSH0 DUP3 PUSH1 0xFF AND LT DUP1 PUSH2 0x11D8 JUMPI POP PUSH1 0x4 DUP3 PUSH1 0xFF AND GT JUMPDEST ISZERO PUSH2 0x120F JUMPI PUSH1 0x40 MLOAD PUSH32 0x41E7BB4F00000000000000000000000000000000000000000000000000000000 DUP2 MSTORE PUSH1 0x4 ADD PUSH1 0x40 MLOAD DUP1 SWAP2 SUB SWAP1 REVERT JUMPDEST PUSH1 0x3 PUSH0 CALLER PUSH20 0xFFFFFFFFFFFFFFFFFFFFFFFFFFFFFFFFFFFFFFFF AND PUSH20 0xFFFFFFFFFFFFFFFFFFFFFFFFFFFFFFFFFFFFFFFF AND DUP2 MSTORE PUSH1 0x20 ADD SWAP1 DUP2 MSTORE PUSH1 0x20 ADD PUSH0 KECCAK256 PUSH0 DUP4 PUSH1 0xFF AND PUSH1 0xFF AND DUP2 MSTORE PUSH1 0x20 ADD SWAP1 DUP2 MSTORE PUSH1 0x20 ADD PUSH0 KECCAK256 DUP1 SLOAD DUP1 PUSH1 0x20 MUL PUSH1 0x20 ADD PUSH1 0x40 MLOAD SWAP1 DUP2 ADD PUSH1 0x40 MSTORE DUP1 SWAP3 SWAP2 SWAP1 DUP2 DUP2 MSTORE PUSH1 0x20 ADD PUSH0 SWAP1 JUMPDEST DUP3 DUP3 LT ISZERO PUSH2 0x13DD JUMPI DUP4 DUP3 SWAP1 PUSH0 MSTORE PUSH1 0x20 PUSH0 KECCAK256 SWAP1 PUSH1 0x5 MUL ADD PUSH1 0x40 MLOAD DUP1 PUSH1 0xC0 ADD PUSH1 0x40 MSTORE SWAP1 DUP2 PUSH0 DUP3 ADD PUSH0 SWAP1 SLOAD SWAP1 PUSH2 0x100 EXP SWAP1 DIV PUSH20 0xFFFFFFFFFFFFFFFFFFFFFFFFFFFFFFFFFFFFFFFF AND PUSH20 0xFFFFFFFFFFFFFFFFFFFFFFFFFFFFFFFFFFFFFFFF AND PUSH20 0xFFFFFFFFFFFFFFFFFFFFFFFFFFFFFFFFFFFFFFFF AND DUP2 MSTORE PUSH1 0x20 ADD PUSH1 0x1 DUP3 ADD SLOAD DUP2 MSTORE PUSH1 0x20 ADD PUSH1 0x2 DUP3 ADD SLOAD DUP2 MSTORE PUSH1 0x20 ADD PUSH1 0x3 DUP3 ADD DUP1 SLOAD PUSH2 0x1319 SWAP1 PUSH2 0x48E1 JUMP JUMPDEST DUP1 PUSH1 0x1F ADD PUSH1 0x20 DUP1 SWAP2 DIV MUL PUSH1 0x20 ADD PUSH1 0x40 MLOAD SWAP1 DUP2 ADD PUSH1 0x40 MSTORE DUP1 SWAP3 SWAP2 SWAP1 DUP2 DUP2 MSTORE PUSH1 0x20 ADD DUP3 DUP1 SLOAD PUSH2 0x1345 SWAP1 PUSH2 0x48E1 JUMP JUMPDEST DUP1 ISZERO PUSH2 0x1390 JUMPI DUP1 PUSH1 0x1F LT PUSH2 0x1367 JUMPI PUSH2 0x100 DUP1 DUP4 SLOAD DIV MUL DUP4 MSTORE SWAP2 PUSH1 0x20 ADD SWAP2 PUSH2 0x1390 JUMP JUMPDEST DUP3 ADD SWAP2 SWAP1 PUSH0 MSTORE PUSH1 0x20 PUSH0 KECCAK256 SWAP1 JUMPDEST DUP2 SLOAD DUP2 MSTORE SWAP1 PUSH1 0x1 ADD SWAP1 PUSH1 0x20 ADD DUP1 DUP4 GT PUSH2 0x1373 JUMPI DUP3 SWAP1 SUB PUSH1 0x1F AND DUP3 ADD SWAP2 JUMPDEST POP POP POP POP POP DUP2 MSTORE PUSH1 0x20 ADD PUSH1 0x4 DUP3 ADD PUSH0 SWAP1 SLOAD SWAP1 PUSH2 0x100 EXP SWAP1 DIV PUSH1 0xFF AND ISZERO ISZERO ISZERO ISZERO DUP2 MSTORE PUSH1 0x20 ADD PUSH1 0x4 DUP3 ADD PUSH1 0x1 SWAP1 SLOAD SWAP1 PUSH2 0x100 EXP SWAP1 DIV PUSH1 0xFF AND ISZERO ISZERO ISZERO ISZERO DUP2 MSTORE POP POP DUP2 MSTORE PUSH1 0x20 ADD SWAP1 PUSH1 0x1 ADD SWAP1 PUSH2 0x1280 JUMP JUMPDEST POP POP POP POP SWAP1 POP SWAP2 SWAP1 POP JUMP JUMPDEST PUSH2 0x13F0 PUSH2 0x3AC0 JUMP JUMPDEST PUSH1 0x2 PUSH0 SWAP1 SLOAD SWAP1 PUSH2 0x100 EXP SWAP1 DIV PUSH1 0xFF AND ISZERO PUSH2 0x1436 JUMPI PUSH1 0x40 MLOAD PUSH32 0x94DA9AE700000000000000000000000000000000000000000000000000000000 DUP2 MSTORE PUSH1 0x4 ADD PUSH1 0x40 MLOAD DUP1 SWAP2 SUB SWAP1 REVERT JUMPDEST PUSH1 0x1 PUSH1 0x2 PUSH0 PUSH2 0x100 EXP DUP2 SLOAD DUP2 PUSH1 0xFF MUL NOT AND SWAP1 DUP4 ISZERO ISZERO MUL OR SWAP1 SSTORE POP PUSH32 0xF4EFD1D09D98FCA0AF22A3204FC0C7B3E00560C4B3D54FA36EB1626FF50ACCA0 TIMESTAMP PUSH1 0x40 MLOAD PUSH2 0x147F SWAP2 SWAP1 PUSH2 0x4CDC JUMP JUMPDEST PUSH1 0x40 MLOAD DUP1 SWAP2 SUB SWAP1 LOG1 JUMP JUMPDEST PUSH1 0x3 PUSH0 CALLER PUSH20 0xFFFFFFFFFFFFFFFFFFFFFFFFFFFFFFFFFFFFFFFF AND PUSH20 0xFFFFFFFFFFFFFFFFFFFFFFFFFFFFFFFFFFFFFFFF AND DUP2 MSTORE PUSH1 0x20 ADD SWAP1 DUP2 MSTORE PUSH1 0x20 ADD PUSH0 KECCAK256 PUSH0 DUP4 PUSH1 0xFF AND PUSH1 0xFF AND DUP2 MSTORE PUSH1 0x20 ADD SWAP1 DUP2 MSTORE PUSH1 0x20 ADD PUSH0 KECCAK256 DUP1 SLOAD SWAP1 POP DUP2 PUSH1 0xFF AND GT ISZERO PUSH2 0x151B JUMPI PUSH1 0x40 MLOAD PUSH32 0x43B88A3000000000000000000000000000000000000000000000000000000000 DUP2 MSTORE PUSH1 0x4 ADD PUSH1 0x40 MLOAD DUP1 SWAP2 SUB SWAP1 REVERT JUMPDEST PUSH0 PUSH1 0x3 PUSH0 CALLER PUSH20 0xFFFFFFFFFFFFFFFFFFFFFFFFFFFFFFFFFFFFFFFF AND PUSH20 0xFFFFFFFFFFFFFFFFFFFFFFFFFFFFFFFFFFFFFFFF AND DUP2 MSTORE PUSH1 0x20 ADD SWAP1 DUP2 MSTORE PUSH1 0x20 ADD PUSH0 KECCAK256 PUSH0 DUP5 PUSH1 0xFF AND PUSH1 0xFF AND DUP2 MSTORE PUSH1 0x20 ADD SWAP1 DUP2 MSTORE PUSH1 0x20 ADD PUSH0 KECCAK256 DUP3 PUSH1 0xFF AND DUP2 SLOAD DUP2 LT PUSH2 0x1583 JUMPI PUSH2 0x1582 PUSH2 0x4BE4 JUMP JUMPDEST JUMPDEST SWAP1 PUSH0 MSTORE PUSH1 0x20 PUSH0 KECCAK256 SWAP1 PUSH1 0x5 MUL ADD SWAP1 POP TIMESTAMP DUP2 PUSH1 0x2 ADD SLOAD GT ISZERO PUSH2 0x15CF JUMPI PUSH1 0x40 MLOAD PUSH32 0xF594DA3400000000000000000000000000000000000000000000000000000000 DUP2 MSTORE PUSH1 0x4 ADD PUSH1 0x40 MLOAD DUP1 SWAP2 SUB SWAP1 REVERT JUMPDEST DUP1 PUSH1 0x4 ADD PUSH0 SWAP1 SLOAD SWAP1 PUSH2 0x100 EXP SWAP1 DIV PUSH1 0xFF AND PUSH2 0x1616 JUMPI PUSH1 0x40 MLOAD PUSH32 0xC581F41500000000000000000000000000000000000000000000000000000000 DUP2 MSTORE PUSH1 0x4 ADD PUSH1 0x40 MLOAD DUP1 SWAP2 SUB SWAP1 REVERT JUMPDEST PUSH0 PUSH1 0x1 PUSH1 0x3 PUSH0 CALLER PUSH20 0xFFFFFFFFFFFFFFFFFFFFFFFFFFFFFFFFFFFFFFFF AND PUSH20 0xFFFFFFFFFFFFFFFFFFFFFFFFFFFFFFFFFFFFFFFF AND DUP2 MSTORE PUSH1 0x20 ADD SWAP1 DUP2 MSTORE PUSH1 0x20 ADD PUSH0 KECCAK256 PUSH0 DUP7 PUSH1 0xFF AND PUSH1 0xFF AND DUP2 MSTORE PUSH1 0x20 ADD SWAP1 DUP2 MSTORE PUSH1 0x20 ADD PUSH0 KECCAK256 DUP1 SLOAD SWAP1 POP PUSH2 0x1679 SWAP2 SWAP1 PUSH2 0x4CF5 JUMP JUMPDEST SWAP1 POP DUP1 DUP4 PUSH1 0xFF AND EQ PUSH2 0x1850 JUMPI PUSH1 0x3 PUSH0 CALLER PUSH20 0xFFFFFFFFFFFFFFFFFFFFFFFFFFFFFFFFFFFFFFFF AND PUSH20 0xFFFFFFFFFFFFFFFFFFFFFFFFFFFFFFFFFFFFFFFF AND DUP2 MSTORE PUSH1 0x20 ADD SWAP1 DUP2 MSTORE PUSH1 0x20 ADD PUSH0 KECCAK256 PUSH0 DUP6 PUSH1 0xFF AND PUSH1 0xFF AND DUP2 MSTORE PUSH1 0x20 ADD SWAP1 DUP2 MSTORE PUSH1 0x20 ADD PUSH0 KECCAK256 DUP2 DUP2 SLOAD DUP2 LT PUSH2 0x16E9 JUMPI PUSH2 0x16E8 PUSH2 0x4BE4 JUMP JUMPDEST JUMPDEST SWAP1 PUSH0 MSTORE PUSH1 0x20 PUSH0 KECCAK256 SWAP1 PUSH1 0x5 MUL ADD PUSH1 0x3 PUSH0 CALLER PUSH20 0xFFFFFFFFFFFFFFFFFFFFFFFFFFFFFFFFFFFFFFFF AND PUSH20 0xFFFFFFFFFFFFFFFFFFFFFFFFFFFFFFFFFFFFFFFF AND DUP2 MSTORE PUSH1 0x20 ADD SWAP1 DUP2 MSTORE PUSH1 0x20 ADD PUSH0 KECCAK256 PUSH0 DUP7 PUSH1 0xFF AND PUSH1 0xFF AND DUP2 MSTORE PUSH1 0x20 ADD SWAP1 DUP2 MSTORE PUSH1 0x20 ADD PUSH0 KECCAK256 DUP5 PUSH1 0xFF AND DUP2 SLOAD DUP2 LT PUSH2 0x175C JUMPI PUSH2 0x175B PUSH2 0x4BE4 JUMP JUMPDEST JUMPDEST SWAP1 PUSH0 MSTORE PUSH1 0x20 PUSH0 KECCAK256 SWAP1 PUSH1 0x5 MUL ADD PUSH0 DUP3 ADD PUSH0 SWAP1 SLOAD SWAP1 PUSH2 0x100 EXP SWAP1 DIV PUSH20 0xFFFFFFFFFFFFFFFFFFFFFFFFFFFFFFFFFFFFFFFF AND DUP2 PUSH0 ADD PUSH0 PUSH2 0x100 EXP DUP2 SLOAD DUP2 PUSH20 0xFFFFFFFFFFFFFFFFFFFFFFFFFFFFFFFFFFFFFFFF MUL NOT AND SWAP1 DUP4 PUSH20 0xFFFFFFFFFFFFFFFFFFFFFFFFFFFFFFFFFFFFFFFF AND MUL OR SWAP1 SSTORE POP PUSH1 0x1 DUP3 ADD SLOAD DUP2 PUSH1 0x1 ADD SSTORE PUSH1 0x2 DUP3 ADD SLOAD DUP2 PUSH1 0x2 ADD SSTORE PUSH1 0x3 DUP3 ADD DUP2 PUSH1 0x3 ADD SWAP1 DUP2 PUSH2 0x17F3 SWAP2 SWAP1 PUSH2 0x4D3D JUMP JUMPDEST POP PUSH1 0x4 DUP3 ADD PUSH0 SWAP1 SLOAD SWAP1 PUSH2 0x100 EXP SWAP1 DIV PUSH1 0xFF AND DUP2 PUSH1 0x4 ADD PUSH0 PUSH2 0x100 EXP DUP2 SLOAD DUP2 PUSH1 0xFF MUL NOT AND SWAP1 DUP4 ISZERO ISZERO MUL OR SWAP1 SSTORE POP PUSH1 0x4 DUP3 ADD PUSH1 0x1 SWAP1 SLOAD SWAP1 PUSH2 0x100 EXP SWAP1 DIV PUSH1 0xFF AND DUP2 PUSH1 0x4 ADD PUSH1 0x1 PUSH2 0x100 EXP DUP2 SLOAD DUP2 PUSH1 0xFF MUL NOT AND SWAP1 DUP4 ISZERO ISZERO MUL OR SWAP1 SSTORE POP SWAP1 POP POP JUMPDEST PUSH1 0x3 PUSH0 CALLER PUSH20 0xFFFFFFFFFFFFFFFFFFFFFFFFFFFFFFFFFFFFFFFF AND PUSH20 0xFFFFFFFFFFFFFFFFFFFFFFFFFFFFFFFFFFFFFFFF AND DUP2 MSTORE PUSH1 0x20 ADD SWAP1 DUP2 MSTORE PUSH1 0x20 ADD PUSH0 KECCAK256 PUSH0 DUP6 PUSH1 0xFF AND PUSH1 0xFF AND DUP2 MSTORE PUSH1 0x20 ADD SWAP1 DUP2 MSTORE PUSH1 0x20 ADD PUSH0 KECCAK256 DUP1 SLOAD DUP1 PUSH2 0x18B2 JUMPI PUSH2 0x18B1 PUSH2 0x4E22 JUMP JUMPDEST JUMPDEST PUSH1 0x1 SWAP1 SUB DUP2 DUP2 SWAP1 PUSH0 MSTORE PUSH1 0x20 PUSH0 KECCAK256 SWAP1 PUSH1 0x5 MUL ADD PUSH0 DUP1 DUP3 ADD PUSH0 PUSH2 0x100 EXP DUP2 SLOAD SWAP1 PUSH20 0xFFFFFFFFFFFFFFFFFFFFFFFFFFFFFFFFFFFFFFFF MUL NOT AND SWAP1 SSTORE PUSH1 0x1 DUP3 ADD PUSH0 SWAP1 SSTORE PUSH1 0x2 DUP3 ADD PUSH0 SWAP1 SSTORE PUSH1 0x3 DUP3 ADD PUSH0 PUSH2 0x1907 SWAP2 SWAP1 PUSH2 0x3D29 JUMP JUMPDEST PUSH1 0x4 DUP3 ADD PUSH0 PUSH2 0x100 EXP DUP2 SLOAD SWAP1 PUSH1 0xFF MUL NOT AND SWAP1 SSTORE PUSH1 0x4 DUP3 ADD PUSH1 0x1 PUSH2 0x100 EXP DUP2 SLOAD SWAP1 PUSH1 0xFF MUL NOT AND SWAP1 SSTORE POP POP SWAP1 SSTORE PUSH32 0xA293D38BC1768EA4009A7109526DE29A238EE975C7EE4328C2C77FE71350D798 DUP5 DUP5 TIMESTAMP PUSH1 0x40 MLOAD PUSH2 0x1965 SWAP4 SWAP3 SWAP2 SWAP1 PUSH2 0x4E4F JUMP JUMPDEST PUSH1 0x40 MLOAD DUP1 SWAP2 SUB SWAP1 LOG1 POP POP POP POP JUMP JUMPDEST PUSH1 0x2 PUSH0 SWAP1 SLOAD SWAP1 PUSH2 0x100 EXP SWAP1 DIV PUSH1 0xFF AND DUP2 JUMP JUMPDEST PUSH1 0x4 PUSH1 0x20 MSTORE DUP3 PUSH0 MSTORE PUSH1 0x40 PUSH0 KECCAK256 PUSH1 0x20 MSTORE DUP2 PUSH0 MSTORE PUSH1 0x40 PUSH0 KECCAK256 DUP2 DUP2 SLOAD DUP2 LT PUSH2 0x19A8 JUMPI PUSH0 DUP1 REVERT JUMPDEST SWAP1 PUSH0 MSTORE PUSH1 0x20 PUSH0 KECCAK256 SWAP1 PUSH1 0x5 MUL ADD PUSH0 SWAP3 POP SWAP3 POP POP POP DUP1 PUSH0 ADD PUSH0 SWAP1 SLOAD SWAP1 PUSH2 0x100 EXP SWAP1 DIV PUSH20 0xFFFFFFFFFFFFFFFFFFFFFFFFFFFFFFFFFFFFFFFF AND SWAP1 DUP1 PUSH1 0x1 ADD SLOAD SWAP1 DUP1 PUSH1 0x2 ADD DUP1 SLOAD PUSH2 0x19F4 SWAP1 PUSH2 0x48E1 JUMP JUMPDEST DUP1 PUSH1 0x1F ADD PUSH1 0x20 DUP1 SWAP2 DIV MUL PUSH1 0x20 ADD PUSH1 0x40 MLOAD SWAP1 DUP2 ADD PUSH1 0x40 MSTORE DUP1 SWAP3 SWAP2 SWAP1 DUP2 DUP2 MSTORE PUSH1 0x20 ADD DUP3 DUP1 SLOAD PUSH2 0x1A20 SWAP1 PUSH2 0x48E1 JUMP JUMPDEST DUP1 ISZERO PUSH2 0x1A6B JUMPI DUP1 PUSH1 0x1F LT PUSH2 0x1A42 JUMPI PUSH2 0x100 DUP1 DUP4 SLOAD DIV MUL DUP4 MSTORE SWAP2 PUSH1 0x20 ADD SWAP2 PUSH2 0x1A6B JUMP JUMPDEST DUP3 ADD SWAP2 SWAP1 PUSH0 MSTORE PUSH1 0x20 PUSH0 KECCAK256 SWAP1 JUMPDEST DUP2 SLOAD DUP2 MSTORE SWAP1 PUSH1 0x1 ADD SWAP1 PUSH1 0x20 ADD DUP1 DUP4 GT PUSH2 0x1A4E JUMPI DUP3 SWAP1 SUB PUSH1 0x1F AND DUP3 ADD SWAP2 JUMPDEST POP POP POP POP POP SWAP1 DUP1 PUSH1 0x3 ADD PUSH0 SWAP1 SLOAD SWAP1 PUSH2 0x100 EXP SWAP1 DIV PUSH1 0xFF AND SWAP1 DUP1 PUSH1 0x4 ADD SLOAD SWAP1 POP DUP6 JUMP JUMPDEST PUSH2 0x1A95 PUSH2 0x3AC0 JUMP JUMPDEST PUSH1 0x5 PUSH0 DUP3 PUSH20 0xFFFFFFFFFFFFFFFFFFFFFFFFFFFFFFFFFFFFFFFF AND PUSH20 0xFFFFFFFFFFFFFFFFFFFFFFFFFFFFFFFFFFFFFFFF AND DUP2 MSTORE PUSH1 0x20 ADD SWAP1 DUP2 MSTORE PUSH1 0x20 ADD PUSH0 KECCAK256 PUSH0 SWAP1 SLOAD SWAP1 PUSH2 0x100 EXP SWAP1 DIV PUSH1 0xFF AND PUSH2 0x1B20 JUMPI DUP1 PUSH1 0x40 MLOAD PUSH32 0x46FDB4EF00000000000000000000000000000000000000000000000000000000 DUP2 MSTORE PUSH1 0x4 ADD PUSH2 0x1B17 SWAP2 SWAP1 PUSH2 0x460E JUMP JUMPDEST PUSH1 0x40 MLOAD DUP1 SWAP2 SUB SWAP1 REVERT JUMPDEST PUSH0 PUSH1 0x5 PUSH0 DUP4 PUSH20 0xFFFFFFFFFFFFFFFFFFFFFFFFFFFFFFFFFFFFFFFF AND PUSH20 0xFFFFFFFFFFFFFFFFFFFFFFFFFFFFFFFFFFFFFFFF AND DUP2 MSTORE PUSH1 0x20 ADD SWAP1 DUP2 MSTORE PUSH1 0x20 ADD PUSH0 KECCAK256 PUSH0 PUSH2 0x100 EXP DUP2 SLOAD DUP2 PUSH1 0xFF MUL NOT AND SWAP1 DUP4 ISZERO ISZERO MUL OR SWAP1 SSTORE POP DUP1 PUSH20 0xFFFFFFFFFFFFFFFFFFFFFFFFFFFFFFFFFFFFFFFF AND PUSH32 0xE0DB3499B7FDC3DA4CDDFF5F45D694549C19835E7F719FB5606D3AD1A5DE4011 PUSH1 0x40 MLOAD PUSH1 0x40 MLOAD DUP1 SWAP2 SUB SWAP1 LOG2 POP JUMP JUMPDEST PUSH2 0x1BC2 PUSH2 0x38A2 JUMP JUMPDEST PUSH1 0x3 PUSH0 CALLER PUSH20 0xFFFFFFFFFFFFFFFFFFFFFFFFFFFFFFFFFFFFFFFF AND PUSH20 0xFFFFFFFFFFFFFFFFFFFFFFFFFFFFFFFFFFFFFFFF AND DUP2 MSTORE PUSH1 0x20 ADD SWAP1 DUP2 MSTORE PUSH1 0x20 ADD PUSH0 KECCAK256 PUSH0 DUP6 PUSH1 0xFF AND PUSH1 0xFF AND DUP2 MSTORE PUSH1 0x20 ADD SWAP1 DUP2 MSTORE PUSH1 0x20 ADD PUSH0 KECCAK256 DUP1 SLOAD SWAP1 POP DUP4 PUSH1 0xFF AND GT ISZERO PUSH2 0x1C54 JUMPI PUSH1 0x40 MLOAD PUSH32 0x43B88A3000000000000000000000000000000000000000000000000000000000 DUP2 MSTORE PUSH1 0x4 ADD PUSH1 0x40 MLOAD DUP1 SWAP2 SUB SWAP1 REVERT JUMPDEST PUSH1 0x3 PUSH0 CALLER PUSH20 0xFFFFFFFFFFFFFFFFFFFFFFFFFFFFFFFFFFFFFFFF AND PUSH20 0xFFFFFFFFFFFFFFFFFFFFFFFFFFFFFFFFFFFFFFFF AND DUP2 MSTORE PUSH1 0x20 ADD SWAP1 DUP2 MSTORE PUSH1 0x20 ADD PUSH0 KECCAK256 PUSH0 DUP4 PUSH1 0xFF AND PUSH1 0xFF AND DUP2 MSTORE PUSH1 0x20 ADD SWAP1 DUP2 MSTORE PUSH1 0x20 ADD PUSH0 KECCAK256 DUP1 SLOAD SWAP1 POP DUP2 PUSH1 0xFF AND GT ISZERO PUSH2 0x1CE6 JUMPI PUSH1 0x40 MLOAD PUSH32 0x43B88A3000000000000000000000000000000000000000000000000000000000 DUP2 MSTORE PUSH1 0x4 ADD PUSH1 0x40 MLOAD DUP1 SWAP2 SUB SWAP1 REVERT JUMPDEST PUSH0 PUSH1 0x3 PUSH0 CALLER PUSH20 0xFFFFFFFFFFFFFFFFFFFFFFFFFFFFFFFFFFFFFFFF AND PUSH20 0xFFFFFFFFFFFFFFFFFFFFFFFFFFFFFFFFFFFFFFFF AND DUP2 MSTORE PUSH1 0x20 ADD SWAP1 DUP2 MSTORE PUSH1 0x20 ADD PUSH0 KECCAK256 PUSH0 DUP7 PUSH1 0xFF AND PUSH1 0xFF AND DUP2 MSTORE PUSH1 0x20 ADD SWAP1 DUP2 MSTORE PUSH1 0x20 ADD PUSH0 KECCAK256 DUP5 PUSH1 0xFF AND DUP2 SLOAD DUP2 LT PUSH2 0x1D4E JUMPI PUSH2 0x1D4D PUSH2 0x4BE4 JUMP JUMPDEST JUMPDEST SWAP1 PUSH0 MSTORE PUSH1 0x20 PUSH0 KECCAK256 SWAP1 PUSH1 0x5 MUL ADD SWAP1 POP PUSH0 PUSH1 0x3 PUSH0 CALLER PUSH20 0xFFFFFFFFFFFFFFFFFFFFFFFFFFFFFFFFFFFFFFFF AND PUSH20 0xFFFFFFFFFFFFFFFFFFFFFFFFFFFFFFFFFFFFFFFF AND DUP2 MSTORE PUSH1 0x20 ADD SWAP1 DUP2 MSTORE PUSH1 0x20 ADD PUSH0 KECCAK256 PUSH0 DUP6 PUSH1 0xFF AND PUSH1 0xFF AND DUP2 MSTORE PUSH1 0x20 ADD SWAP1 DUP2 MSTORE PUSH1 0x20 ADD PUSH0 KECCAK256 DUP4 PUSH1 0xFF AND DUP2 SLOAD DUP2 LT PUSH2 0x1DC4 JUMPI PUSH2 0x1DC3 PUSH2 0x4BE4 JUMP JUMPDEST JUMPDEST SWAP1 PUSH0 MSTORE PUSH1 0x20 PUSH0 KECCAK256 SWAP1 PUSH1 0x5 MUL ADD SWAP1 POP DUP1 PUSH0 ADD PUSH0 SWAP1 SLOAD SWAP1 PUSH2 0x100 EXP SWAP1 DIV PUSH20 0xFFFFFFFFFFFFFFFFFFFFFFFFFFFFFFFFFFFFFFFF AND PUSH20 0xFFFFFFFFFFFFFFFFFFFFFFFFFFFFFFFFFFFFFFFF AND DUP3 PUSH0 ADD PUSH0 SWAP1 SLOAD SWAP1 PUSH2 0x100 EXP SWAP1 DIV PUSH20 0xFFFFFFFFFFFFFFFFFFFFFFFFFFFFFFFFFFFFFFFF AND PUSH20 0xFFFFFFFFFFFFFFFFFFFFFFFFFFFFFFFFFFFFFFFF AND EQ PUSH2 0x1ECC JUMPI DUP2 PUSH0 ADD PUSH0 SWAP1 SLOAD SWAP1 PUSH2 0x100 EXP SWAP1 DIV PUSH20 0xFFFFFFFFFFFFFFFFFFFFFFFFFFFFFFFFFFFFFFFF AND DUP2 PUSH0 ADD PUSH0 SWAP1 SLOAD SWAP1 PUSH2 0x100 EXP SWAP1 DIV PUSH20 0xFFFFFFFFFFFFFFFFFFFFFFFFFFFFFFFFFFFFFFFF AND PUSH1 0x40 MLOAD PUSH32 0xEB04A6F500000000000000000000000000000000000000000000000000000000 DUP2 MSTORE PUSH1 0x4 ADD PUSH2 0x1EC3 SWAP3 SWAP2 SWAP1 PUSH2 0x4E84 JUMP JUMPDEST PUSH1 0x40 MLOAD DUP1 SWAP2 SUB SWAP1 REVERT JUMPDEST DUP2 PUSH1 0x2 ADD SLOAD TIMESTAMP LT ISZERO PUSH2 0x1F18 JUMPI DUP2 PUSH1 0x3 ADD PUSH1 0x40 MLOAD PUSH32 0x769078E300000000000000000000000000000000000000000000000000000000 DUP2 MSTORE PUSH1 0x4 ADD PUSH2 0x1F0F SWAP2 SWAP1 PUSH2 0x4EAB JUMP JUMPDEST PUSH1 0x40 MLOAD DUP1 SWAP2 SUB SWAP1 REVERT JUMPDEST DUP1 PUSH1 0x2 ADD SLOAD TIMESTAMP GT ISZERO PUSH2 0x1F64 JUMPI DUP1 PUSH1 0x3 ADD PUSH1 0x40 MLOAD PUSH32 0xA7C96E7A00000000000000000000000000000000000000000000000000000000 DUP2 MSTORE PUSH1 0x4 ADD PUSH2 0x1F5B SWAP2 SWAP1 PUSH2 0x4EAB JUMP JUMPDEST PUSH1 0x40 MLOAD DUP1 SWAP2 SUB SWAP1 REVERT JUMPDEST DUP2 PUSH1 0x4 ADD PUSH0 SWAP1 SLOAD SWAP1 PUSH2 0x100 EXP SWAP1 DIV PUSH1 0xFF AND ISZERO PUSH2 0x1FAC JUMPI PUSH1 0x40 MLOAD PUSH32 0xC581F41500000000000000000000000000000000000000000000000000000000 DUP2 MSTORE PUSH1 0x4 ADD PUSH1 0x40 MLOAD DUP1 SWAP2 SUB SWAP1 REVERT JUMPDEST DUP2 PUSH1 0x1 ADD SLOAD DUP8 GT ISZERO PUSH2 0x2017 JUMPI DUP2 PUSH0 ADD PUSH0 SWAP1 SLOAD SWAP1 PUSH2 0x100 EXP SWAP1 DIV PUSH20 0xFFFFFFFFFFFFFFFFFFFFFFFFFFFFFFFFFFFFFFFF AND PUSH1 0x40 MLOAD PUSH32 0x59B1A35C00000000000000000000000000000000000000000000000000000000 DUP2 MSTORE PUSH1 0x4 ADD PUSH2 0x200E SWAP2 SWAP1 PUSH2 0x460E JUMP JUMPDEST PUSH1 0x40 MLOAD DUP1 SWAP2 SUB SWAP1 REVERT JUMPDEST DUP7 PUSH1 0x3 PUSH0 CALLER PUSH20 0xFFFFFFFFFFFFFFFFFFFFFFFFFFFFFFFFFFFFFFFF AND PUSH20 0xFFFFFFFFFFFFFFFFFFFFFFFFFFFFFFFFFFFFFFFF AND DUP2 MSTORE PUSH1 0x20 ADD SWAP1 DUP2 MSTORE PUSH1 0x20 ADD PUSH0 KECCAK256 PUSH0 DUP9 PUSH1 0xFF AND PUSH1 0xFF AND DUP2 MSTORE PUSH1 0x20 ADD SWAP1 DUP2 MSTORE PUSH1 0x20 ADD PUSH0 KECCAK256 DUP7 PUSH1 0xFF AND DUP2 SLOAD DUP2 LT PUSH2 0x207F JUMPI PUSH2 0x207E PUSH2 0x4BE4 JUMP JUMPDEST JUMPDEST SWAP1 PUSH0 MSTORE PUSH1 0x20 PUSH0 KECCAK256 SWAP1 PUSH1 0x5 MUL ADD PUSH1 0x1 ADD PUSH0 DUP3 DUP3 SLOAD PUSH2 0x209C SWAP2 SWAP1 PUSH2 0x4CF5 JUMP JUMPDEST SWAP3 POP POP DUP2 SWAP1 SSTORE POP PUSH0 PUSH1 0x3 PUSH0 CALLER PUSH20 0xFFFFFFFFFFFFFFFFFFFFFFFFFFFFFFFFFFFFFFFF AND PUSH20 0xFFFFFFFFFFFFFFFFFFFFFFFFFFFFFFFFFFFFFFFF AND DUP2 MSTORE PUSH1 0x20 ADD SWAP1 DUP2 MSTORE PUSH1 0x20 ADD PUSH0 KECCAK256 PUSH0 DUP9 PUSH1 0xFF AND PUSH1 0xFF AND DUP2 MSTORE PUSH1 0x20 ADD SWAP1 DUP2 MSTORE PUSH1 0x20 ADD PUSH0 KECCAK256 DUP7 PUSH1 0xFF AND DUP2 SLOAD DUP2 LT PUSH2 0x210B JUMPI PUSH2 0x210A PUSH2 0x4BE4 JUMP JUMPDEST JUMPDEST SWAP1 PUSH0 MSTORE PUSH1 0x20 PUSH0 KECCAK256 SWAP1 PUSH1 0x5 MUL ADD PUSH1 0x1 ADD SLOAD SUB PUSH2 0x21AF JUMPI PUSH1 0x1 PUSH1 0x3 PUSH0 CALLER PUSH20 0xFFFFFFFFFFFFFFFFFFFFFFFFFFFFFFFFFFFFFFFF AND PUSH20 0xFFFFFFFFFFFFFFFFFFFFFFFFFFFFFFFFFFFFFFFF AND DUP2 MSTORE PUSH1 0x20 ADD SWAP1 DUP2 MSTORE PUSH1 0x20 ADD PUSH0 KECCAK256 PUSH0 DUP9 PUSH1 0xFF AND PUSH1 0xFF AND DUP2 MSTORE PUSH1 0x20 ADD SWAP1 DUP2 MSTORE PUSH1 0x20 ADD PUSH0 KECCAK256 DUP7 PUSH1 0xFF AND DUP2 SLOAD DUP2 LT PUSH2 0x2189 JUMPI PUSH2 0x2188 PUSH2 0x4BE4 JUMP JUMPDEST JUMPDEST SWAP1 PUSH0 MSTORE PUSH1 0x20 PUSH0 KECCAK256 SWAP1 PUSH1 0x5 MUL ADD PUSH1 0x4 ADD PUSH0 PUSH2 0x100 EXP DUP2 SLOAD DUP2 PUSH1 0xFF MUL NOT AND SWAP1 DUP4 ISZERO ISZERO MUL OR SWAP1 SSTORE POP JUMPDEST DUP7 PUSH1 0x3 PUSH0 CALLER PUSH20 0xFFFFFFFFFFFFFFFFFFFFFFFFFFFFFFFFFFFFFFFF AND PUSH20 0xFFFFFFFFFFFFFFFFFFFFFFFFFFFFFFFFFFFFFFFF AND DUP2 MSTORE PUSH1 0x20 ADD SWAP1 DUP2 MSTORE PUSH1 0x20 ADD PUSH0 KECCAK256 PUSH0 DUP7 PUSH1 0xFF AND PUSH1 0xFF AND DUP2 MSTORE PUSH1 0x20 ADD SWAP1 DUP2 MSTORE PUSH1 0x20 ADD PUSH0 KECCAK256 DUP5 PUSH1 0xFF AND DUP2 SLOAD DUP2 LT PUSH2 0x2217 JUMPI PUSH2 0x2216 PUSH2 0x4BE4 JUMP JUMPDEST JUMPDEST SWAP1 PUSH0 MSTORE PUSH1 0x20 PUSH0 KECCAK256 SWAP1 PUSH1 0x5 MUL ADD PUSH1 0x1 ADD PUSH0 DUP3 DUP3 SLOAD PUSH2 0x2234 SWAP2 SWAP1 PUSH2 0x4881 JUMP JUMPDEST SWAP3 POP POP DUP2 SWAP1 SSTORE POP DUP2 PUSH0 ADD PUSH0 SWAP1 SLOAD SWAP1 PUSH2 0x100 EXP SWAP1 DIV PUSH20 0xFFFFFFFFFFFFFFFFFFFFFFFFFFFFFFFFFFFFFFFF AND PUSH20 0xFFFFFFFFFFFFFFFFFFFFFFFFFFFFFFFFFFFFFFFF AND PUSH32 0xB9235ADE2FD0814639C24CCB5EE7C5F6D4903F518105A0BA5252EB88D7188DE1 DUP9 DUP9 DUP9 DUP9 DUP9 PUSH1 0x40 MLOAD PUSH2 0x22AB SWAP6 SWAP5 SWAP4 SWAP3 SWAP2 SWAP1 PUSH2 0x4ECB JUMP JUMPDEST PUSH1 0x40 MLOAD DUP1 SWAP2 SUB SWAP1 LOG2 POP POP PUSH2 0x22BD PUSH2 0x3AB7 JUMP JUMPDEST POP POP POP POP POP JUMP JUMPDEST PUSH2 0x22CC PUSH2 0x3AC0 JUMP JUMPDEST PUSH2 0x22D5 PUSH0 PUSH2 0x3B47 JUMP JUMPDEST JUMP JUMPDEST PUSH1 0x3 PUSH0 CALLER PUSH20 0xFFFFFFFFFFFFFFFFFFFFFFFFFFFFFFFFFFFFFFFF AND PUSH20 0xFFFFFFFFFFFFFFFFFFFFFFFFFFFFFFFFFFFFFFFF AND DUP2 MSTORE PUSH1 0x20 ADD SWAP1 DUP2 MSTORE PUSH1 0x20 ADD PUSH0 KECCAK256 PUSH0 DUP5 PUSH1 0xFF AND PUSH1 0xFF AND DUP2 MSTORE PUSH1 0x20 ADD SWAP1 DUP2 MSTORE PUSH1 0x20 ADD PUSH0 KECCAK256 DUP1 SLOAD SWAP1 POP DUP3 PUSH1 0xFF AND GT ISZERO PUSH2 0x2369 JUMPI PUSH1 0x40 MLOAD PUSH32 0x43B88A3000000000000000000000000000000000000000000000000000000000 DUP2 MSTORE PUSH1 0x4 ADD PUSH1 0x40 MLOAD DUP1 SWAP2 SUB SWAP1 REVERT JUMPDEST DUP1 PUSH1 0x3 PUSH0 CALLER PUSH20 0xFFFFFFFFFFFFFFFFFFFFFFFFFFFFFFFFFFFFFFFF AND PUSH20 0xFFFFFFFFFFFFFFFFFFFFFFFFFFFFFFFFFFFFFFFF AND DUP2 MSTORE PUSH1 0x20 ADD SWAP1 DUP2 MSTORE PUSH1 0x20 ADD PUSH0 KECCAK256 PUSH0 DUP6 PUSH1 0xFF AND PUSH1 0xFF AND DUP2 MSTORE PUSH1 0x20 ADD SWAP1 DUP2 MSTORE PUSH1 0x20 ADD PUSH0 KECCAK256 DUP4 PUSH1 0xFF AND DUP2 SLOAD DUP2 LT PUSH2 0x23D1 JUMPI PUSH2 0x23D0 PUSH2 0x4BE4 JUMP JUMPDEST JUMPDEST SWAP1 PUSH0 MSTORE PUSH1 0x20 PUSH0 KECCAK256 SWAP1 PUSH1 0x5 MUL ADD PUSH1 0x3 ADD SWAP1 DUP2 PUSH2 0x23EC SWAP2 SWAP1 PUSH2 0x4AAE JUMP JUMPDEST POP PUSH32 0x6CDC87D0689291DCF5C7B2AEAA12A69025D9B944892A73FD409DE0D3B7990CA DUP2 DUP4 DUP6 PUSH1 0x40 MLOAD PUSH2 0x2420 SWAP4 SWAP3 SWAP2 SWAP1 PUSH2 0x4F1C JUMP JUMPDEST PUSH1 0x40 MLOAD DUP1 SWAP2 SUB SWAP1 LOG1 POP POP POP JUMP JUMPDEST PUSH2 0x2435 PUSH2 0x3AC0 JUMP JUMPDEST PUSH1 0x5 PUSH0 DUP3 PUSH20 0xFFFFFFFFFFFFFFFFFFFFFFFFFFFFFFFFFFFFFFFF AND PUSH20 0xFFFFFFFFFFFFFFFFFFFFFFFFFFFFFFFFFFFFFFFF AND DUP2 MSTORE PUSH1 0x20 ADD SWAP1 DUP2 MSTORE PUSH1 0x20 ADD PUSH0 KECCAK256 PUSH0 SWAP1 SLOAD SWAP1 PUSH2 0x100 EXP SWAP1 DIV PUSH1 0xFF AND ISZERO PUSH2 0x24C1 JUMPI DUP1 PUSH1 0x40 MLOAD PUSH32 0xDAE5670900000000000000000000000000000000000000000000000000000000 DUP2 MSTORE PUSH1 0x4 ADD PUSH2 0x24B8 SWAP2 SWAP1 PUSH2 0x460E JUMP JUMPDEST PUSH1 0x40 MLOAD DUP1 SWAP2 SUB SWAP1 REVERT JUMPDEST PUSH1 0x1 PUSH1 0x5 PUSH0 DUP4 PUSH20 0xFFFFFFFFFFFFFFFFFFFFFFFFFFFFFFFFFFFFFFFF AND PUSH20 0xFFFFFFFFFFFFFFFFFFFFFFFFFFFFFFFFFFFFFFFF AND DUP2 MSTORE PUSH1 0x20 ADD SWAP1 DUP2 MSTORE PUSH1 0x20 ADD PUSH0 KECCAK256 PUSH0 PUSH2 0x100 EXP DUP2 SLOAD DUP2 PUSH1 0xFF MUL NOT AND SWAP1 DUP4 ISZERO ISZERO MUL OR SWAP1 SSTORE POP DUP1 PUSH20 0xFFFFFFFFFFFFFFFFFFFFFFFFFFFFFFFFFFFFFFFF AND PUSH32 0x7FD26BE6FC92AFF63F1F4409B2B2DDEB272A888031D7F55EC830485EC6194186 PUSH1 0x40 MLOAD PUSH1 0x40 MLOAD DUP1 SWAP2 SUB SWAP1 LOG2 POP JUMP JUMPDEST PUSH32 0x0 DUP2 JUMP JUMPDEST PUSH0 SELFBALANCE SWAP1 POP SWAP1 JUMP JUMPDEST PUSH0 DUP1 PUSH0 SWAP1 SLOAD SWAP1 PUSH2 0x100 EXP SWAP1 DIV PUSH20 0xFFFFFFFFFFFFFFFFFFFFFFFFFFFFFFFFFFFFFFFF AND SWAP1 POP SWAP1 JUMP JUMPDEST PUSH1 0x3 PUSH1 0x20 MSTORE DUP3 PUSH0 MSTORE PUSH1 0x40 PUSH0 KECCAK256 PUSH1 0x20 MSTORE DUP2 PUSH0 MSTORE PUSH1 0x40 PUSH0 KECCAK256 DUP2 DUP2 SLOAD DUP2 LT PUSH2 0x25D1 JUMPI PUSH0 DUP1 REVERT JUMPDEST SWAP1 PUSH0 MSTORE PUSH1 0x20 PUSH0 KECCAK256 SWAP1 PUSH1 0x5 MUL ADD PUSH0 SWAP3 POP SWAP3 POP POP POP DUP1 PUSH0 ADD PUSH0 SWAP1 SLOAD SWAP1 PUSH2 0x100 EXP SWAP1 DIV PUSH20 0xFFFFFFFFFFFFFFFFFFFFFFFFFFFFFFFFFFFFFFFF AND SWAP1 DUP1 PUSH1 0x1 ADD SLOAD SWAP1 DUP1 PUSH1 0x2 ADD SLOAD SWAP1 DUP1 PUSH1 0x3 ADD DUP1 SLOAD PUSH2 0x2623 SWAP1 PUSH2 0x48E1 JUMP JUMPDEST DUP1 PUSH1 0x1F ADD PUSH1 0x20 DUP1 SWAP2 DIV MUL PUSH1 0x20 ADD PUSH1 0x40 MLOAD SWAP1 DUP2 ADD PUSH1 0x40 MSTORE DUP1 SWAP3 SWAP2 SWAP1 DUP2 DUP2 MSTORE PUSH1 0x20 ADD DUP3 DUP1 SLOAD PUSH2 0x264F SWAP1 PUSH2 0x48E1 JUMP JUMPDEST DUP1 ISZERO PUSH2 0x269A JUMPI DUP1 PUSH1 0x1F LT PUSH2 0x2671 JUMPI PUSH2 0x100 DUP1 DUP4 SLOAD DIV MUL DUP4 MSTORE SWAP2 PUSH1 0x20 ADD SWAP2 PUSH2 0x269A JUMP JUMPDEST DUP3 ADD SWAP2 SWAP1 PUSH0 MSTORE PUSH1 0x20 PUSH0 KECCAK256 SWAP1 JUMPDEST DUP2 SLOAD DUP2 MSTORE SWAP1 PUSH1 0x1 ADD SWAP1 PUSH1 0x20 ADD DUP1 DUP4 GT PUSH2 0x267D JUMPI DUP3 SWAP1 SUB PUSH1 0x1F AND DUP3 ADD SWAP2 JUMPDEST POP POP POP POP POP SWAP1 DUP1 PUSH1 0x4 ADD PUSH0 SWAP1 SLOAD SWAP1 PUSH2 0x100 EXP SWAP1 DIV PUSH1 0xFF AND SWAP1 DUP1 PUSH1 0x4 ADD PUSH1 0x1 SWAP1 SLOAD SWAP1 PUSH2 0x100 EXP SWAP1 DIV PUSH1 0xFF AND SWAP1 POP DUP7 JUMP JUMPDEST PUSH2 0x26D1 PUSH2 0x38A2 JUMP JUMPDEST PUSH1 0x2 PUSH0 SWAP1 SLOAD SWAP1 PUSH2 0x100 EXP SWAP1 DIV PUSH1 0xFF AND ISZERO PUSH2 0x2717 JUMPI PUSH1 0x40 MLOAD PUSH32 0x94DA9AE700000000000000000000000000000000000000000000000000000000 DUP2 MSTORE PUSH1 0x4 ADD PUSH1 0x40 MLOAD DUP1 SWAP2 SUB SWAP1 REVERT JUMPDEST DUP3 PUSH0 DUP2 PUSH1 0xFF AND LT DUP1 PUSH2 0x272C JUMPI POP PUSH1 0x4 DUP2 PUSH1 0xFF AND GT JUMPDEST ISZERO PUSH2 0x2763 JUMPI PUSH1 0x40 MLOAD PUSH32 0x41E7BB4F00000000000000000000000000000000000000000000000000000000 DUP2 MSTORE PUSH1 0x4 ADD PUSH1 0x40 MLOAD DUP1 SWAP2 SUB SWAP1 REVERT JUMPDEST DUP3 PUSH4 0xFFFFFFFF AND PUSH0 DUP2 EQ DUP1 PUSH2 0x2797 JUMPI POP PUSH32 0x0 DUP2 GT JUMPDEST ISZERO PUSH2 0x27CE JUMPI PUSH1 0x40 MLOAD PUSH32 0x2A82A34F00000000000000000000000000000000000000000000000000000000 DUP2 MSTORE PUSH1 0x4 ADD PUSH1 0x40 MLOAD DUP1 SWAP2 SUB SWAP1 REVERT JUMPDEST PUSH0 PUSH1 0x3 PUSH0 CALLER PUSH20 0xFFFFFFFFFFFFFFFFFFFFFFFFFFFFFFFFFFFFFFFF AND PUSH20 0xFFFFFFFFFFFFFFFFFFFFFFFFFFFFFFFFFFFFFFFF AND DUP2 MSTORE PUSH1 0x20 ADD SWAP1 DUP2 MSTORE PUSH1 0x20 ADD PUSH0 KECCAK256 PUSH0 DUP8 PUSH1 0xFF AND PUSH1 0xFF AND DUP2 MSTORE PUSH1 0x20 ADD SWAP1 DUP2 MSTORE PUSH1 0x20 ADD PUSH0 KECCAK256 DUP1 SLOAD SWAP1 POP SWAP1 POP PUSH32 0x0 PUSH1 0xFF AND DUP2 LT PUSH2 0x2883 JUMPI PUSH1 0x40 MLOAD PUSH32 0xA0C5191F00000000000000000000000000000000000000000000000000000000 DUP2 MSTORE PUSH1 0x4 ADD PUSH1 0x40 MLOAD DUP1 SWAP2 SUB SWAP1 REVERT JUMPDEST PUSH0 CALLVALUE GT PUSH2 0x28BC JUMPI PUSH1 0x40 MLOAD PUSH32 0xE4910D5800000000000000000000000000000000000000000000000000000000 DUP2 MSTORE PUSH1 0x4 ADD PUSH1 0x40 MLOAD DUP1 SWAP2 SUB SWAP1 REVERT JUMPDEST PUSH1 0x3 PUSH0 CALLER PUSH20 0xFFFFFFFFFFFFFFFFFFFFFFFFFFFFFFFFFFFFFFFF AND PUSH20 0xFFFFFFFFFFFFFFFFFFFFFFFFFFFFFFFFFFFFFFFF AND DUP2 MSTORE PUSH1 0x20 ADD SWAP1 DUP2 MSTORE PUSH1 0x20 ADD PUSH0 KECCAK256 PUSH0 DUP8 PUSH1 0xFF AND PUSH1 0xFF AND DUP2 MSTORE PUSH1 0x20 ADD SWAP1 DUP2 MSTORE PUSH1 0x20 ADD PUSH0 KECCAK256 PUSH1 0x40 MLOAD DUP1 PUSH1 0xC0 ADD PUSH1 0x40 MSTORE DUP1 PUSH0 PUSH20 0xFFFFFFFFFFFFFFFFFFFFFFFFFFFFFFFFFFFFFFFF AND DUP2 MSTORE PUSH1 0x20 ADD CALLVALUE DUP2 MSTORE PUSH1 0x20 ADD DUP8 PUSH4 0xFFFFFFFF AND TIMESTAMP PUSH2 0x294D SWAP2 SWAP1 PUSH2 0x4881 JUMP JUMPDEST DUP2 MSTORE PUSH1 0x20 ADD DUP7 DUP2 MSTORE PUSH1 0x20 ADD PUSH0 ISZERO ISZERO DUP2 MSTORE PUSH1 0x20 ADD PUSH1 0x1 ISZERO ISZERO DUP2 MSTORE POP SWAP1 DUP1 PUSH1 0x1 DUP2 SLOAD ADD DUP1 DUP3 SSTORE DUP1 SWAP2 POP POP PUSH1 0x1 SWAP1 SUB SWAP1 PUSH0 MSTORE PUSH1 0x20 PUSH0 KECCAK256 SWAP1 PUSH1 0x5 MUL ADD PUSH0 SWAP1 SWAP2 SWAP1 SWAP2 SWAP1 SWAP2 POP PUSH0 DUP3 ADD MLOAD DUP2 PUSH0 ADD PUSH0 PUSH2 0x100 EXP DUP2 SLOAD DUP2 PUSH20 0xFFFFFFFFFFFFFFFFFFFFFFFFFFFFFFFFFFFFFFFF MUL NOT AND SWAP1 DUP4 PUSH20 0xFFFFFFFFFFFFFFFFFFFFFFFFFFFFFFFFFFFFFFFF AND MUL OR SWAP1 SSTORE POP PUSH1 0x20 DUP3 ADD MLOAD DUP2 PUSH1 0x1 ADD SSTORE PUSH1 0x40 DUP3 ADD MLOAD DUP2 PUSH1 0x2 ADD SSTORE PUSH1 0x60 DUP3 ADD MLOAD DUP2 PUSH1 0x3 ADD SWAP1 DUP2 PUSH2 0x29FA SWAP2 SWAP1 PUSH2 0x4AAE JUMP JUMPDEST POP PUSH1 0x80 DUP3 ADD MLOAD DUP2 PUSH1 0x4 ADD PUSH0 PUSH2 0x100 EXP DUP2 SLOAD DUP2 PUSH1 0xFF MUL NOT AND SWAP1 DUP4 ISZERO ISZERO MUL OR SWAP1 SSTORE POP PUSH1 0xA0 DUP3 ADD MLOAD DUP2 PUSH1 0x4 ADD PUSH1 0x1 PUSH2 0x100 EXP DUP2 SLOAD DUP2 PUSH1 0xFF MUL NOT AND SWAP1 DUP4 ISZERO ISZERO MUL OR SWAP1 SSTORE POP POP POP PUSH2 0x2A49 PUSH0 DUP8 CALLVALUE DUP8 PUSH0 PUSH2 0x396A JUMP JUMPDEST PUSH0 PUSH20 0xFFFFFFFFFFFFFFFFFFFFFFFFFFFFFFFFFFFFFFFF AND PUSH32 0x93C7F7D807630C520B9271E8FB715ABFCCA1D19DAAD1FC4A8B291B82EA518B67 CALLVALUE DUP7 DUP10 DUP10 PUSH4 0xFFFFFFFF AND TIMESTAMP PUSH2 0x2A96 SWAP2 SWAP1 PUSH2 0x4881 JUMP JUMPDEST TIMESTAMP PUSH1 0x40 MLOAD PUSH2 0x2AA8 SWAP6 SWAP5 SWAP4 SWAP3 SWAP2 SWAP1 PUSH2 0x4B8C JUMP JUMPDEST PUSH1 0x40 MLOAD DUP1 SWAP2 SUB SWAP1 LOG2 POP POP POP PUSH2 0x2ABB PUSH2 0x3AB7 JUMP JUMPDEST POP POP POP JUMP JUMPDEST PUSH32 0x0 DUP2 JUMP JUMPDEST PUSH2 0x2AEC PUSH2 0x3AC0 JUMP JUMPDEST PUSH1 0x2 PUSH0 SWAP1 SLOAD SWAP1 PUSH2 0x100 EXP SWAP1 DIV PUSH1 0xFF AND PUSH2 0x2B31 JUMPI PUSH1 0x40 MLOAD PUSH32 0x9BC4A17B00000000000000000000000000000000000000000000000000000000 DUP2 MSTORE PUSH1 0x4 ADD PUSH1 0x40 MLOAD DUP1 SWAP2 SUB SWAP1 REVERT JUMPDEST PUSH0 PUSH1 0x2 PUSH0 PUSH2 0x100 EXP DUP2 SLOAD DUP2 PUSH1 0xFF MUL NOT AND SWAP1 DUP4 ISZERO ISZERO MUL OR SWAP1 SSTORE POP PUSH32 0xB855B6C6D68CAE899D407A87ABB7AFD6E973BD1D944BA3D6CE3E8FA37A8FDBD2 TIMESTAMP PUSH1 0x40 MLOAD PUSH2 0x2B79 SWAP2 SWAP1 PUSH2 0x4CDC JUMP JUMPDEST PUSH1 0x40 MLOAD DUP1 SWAP2 SUB SWAP1 LOG1 JUMP JUMPDEST PUSH2 0x2B8B PUSH2 0x38A2 JUMP JUMPDEST DUP3 PUSH0 DUP2 PUSH1 0xFF AND LT DUP1 PUSH2 0x2BA0 JUMPI POP PUSH1 0x4 DUP2 PUSH1 0xFF AND GT JUMPDEST ISZERO PUSH2 0x2BD7 JUMPI PUSH1 0x40 MLOAD PUSH32 0x41E7BB4F00000000000000000000000000000000000000000000000000000000 DUP2 MSTORE PUSH1 0x4 ADD PUSH1 0x40 MLOAD DUP1 SWAP2 SUB SWAP1 REVERT JUMPDEST PUSH1 0x3 PUSH0 CALLER PUSH20 0xFFFFFFFFFFFFFFFFFFFFFFFFFFFFFFFFFFFFFFFF AND PUSH20 0xFFFFFFFFFFFFFFFFFFFFFFFFFFFFFFFFFFFFFFFF AND DUP2 MSTORE PUSH1 0x20 ADD SWAP1 DUP2 MSTORE PUSH1 0x20 ADD PUSH0 KECCAK256 PUSH0 DUP6 PUSH1 0xFF AND PUSH1 0xFF AND DUP2 MSTORE PUSH1 0x20 ADD SWAP1 DUP2 MSTORE PUSH1 0x20 ADD PUSH0 KECCAK256 DUP1 SLOAD SWAP1 POP DUP6 PUSH4 0xFFFFFFFF AND GT ISZERO PUSH2 0x2C6C JUMPI PUSH1 0x40 MLOAD PUSH32 0x43B88A3000000000000000000000000000000000000000000000000000000000 DUP2 MSTORE PUSH1 0x4 ADD PUSH1 0x40 MLOAD DUP1 SWAP2 SUB SWAP1 REVERT JUMPDEST PUSH0 PUSH1 0x3 PUSH0 CALLER PUSH20 0xFFFFFFFFFFFFFFFFFFFFFFFFFFFFFFFFFFFFFFFF AND PUSH20 0xFFFFFFFFFFFFFFFFFFFFFFFFFFFFFFFFFFFFFFFF AND DUP2 MSTORE PUSH1 0x20 ADD SWAP1 DUP2 MSTORE PUSH1 0x20 ADD PUSH0 KECCAK256 PUSH0 DUP7 PUSH1 0xFF AND PUSH1 0xFF AND DUP2 MSTORE PUSH1 0x20 ADD SWAP1 DUP2 MSTORE PUSH1 0x20 ADD PUSH0 KECCAK256 DUP7 PUSH4 0xFFFFFFFF AND DUP2 SLOAD DUP2 LT PUSH2 0x2CD7 JUMPI PUSH2 0x2CD6 PUSH2 0x4BE4 JUMP JUMPDEST JUMPDEST SWAP1 PUSH0 MSTORE PUSH1 0x20 PUSH0 KECCAK256 SWAP1 PUSH1 0x5 MUL ADD SWAP1 POP DUP1 PUSH1 0x4 ADD PUSH0 SWAP1 SLOAD SWAP1 PUSH2 0x100 EXP SWAP1 DIV PUSH1 0xFF AND ISZERO PUSH2 0x2D2D JUMPI PUSH1 0x40 MLOAD PUSH32 0xC581F41500000000000000000000000000000000000000000000000000000000 DUP2 MSTORE PUSH1 0x4 ADD PUSH1 0x40 MLOAD DUP1 SWAP2 SUB SWAP1 REVERT JUMPDEST DUP1 PUSH1 0x1 ADD SLOAD DUP5 GT ISZERO PUSH2 0x2D98 JUMPI DUP1 PUSH0 ADD PUSH0 SWAP1 SLOAD SWAP1 PUSH2 0x100 EXP SWAP1 DIV PUSH20 0xFFFFFFFFFFFFFFFFFFFFFFFFFFFFFFFFFFFFFFFF AND PUSH1 0x40 MLOAD PUSH32 0x59B1A35C00000000000000000000000000000000000000000000000000000000 DUP2 MSTORE PUSH1 0x4 ADD PUSH2 0x2D8F SWAP2 SWAP1 PUSH2 0x460E JUMP JUMPDEST PUSH1 0x40 MLOAD DUP1 SWAP2 SUB SWAP1 REVERT JUMPDEST DUP1 PUSH1 0x2 ADD SLOAD TIMESTAMP LT DUP1 PUSH2 0x2DAF JUMPI POP PUSH1 0x1 ISZERO ISZERO DUP4 ISZERO ISZERO EQ ISZERO JUMPDEST ISZERO PUSH2 0x2DE6 JUMPI PUSH1 0x40 MLOAD PUSH32 0x618FCED400000000000000000000000000000000000000000000000000000000 DUP2 MSTORE PUSH1 0x4 ADD PUSH1 0x40 MLOAD DUP1 SWAP2 SUB SWAP1 REVERT JUMPDEST PUSH0 DUP5 DUP3 PUSH1 0x1 ADD SLOAD PUSH2 0x2DF7 SWAP2 SWAP1 PUSH2 0x4CF5 JUMP JUMPDEST SWAP1 POP PUSH0 DUP2 SUB PUSH2 0x2E92 JUMPI PUSH1 0x1 PUSH1 0x3 PUSH0 CALLER PUSH20 0xFFFFFFFFFFFFFFFFFFFFFFFFFFFFFFFFFFFFFFFF AND PUSH20 0xFFFFFFFFFFFFFFFFFFFFFFFFFFFFFFFFFFFFFFFF AND DUP2 MSTORE PUSH1 0x20 ADD SWAP1 DUP2 MSTORE PUSH1 0x20 ADD PUSH0 KECCAK256 PUSH0 DUP9 PUSH1 0xFF AND PUSH1 0xFF AND DUP2 MSTORE PUSH1 0x20 ADD SWAP1 DUP2 MSTORE PUSH1 0x20 ADD PUSH0 KECCAK256 DUP9 PUSH4 0xFFFFFFFF AND DUP2 SLOAD DUP2 LT PUSH2 0x2E6C JUMPI PUSH2 0x2E6B PUSH2 0x4BE4 JUMP JUMPDEST JUMPDEST SWAP1 PUSH0 MSTORE PUSH1 0x20 PUSH0 KECCAK256 SWAP1 PUSH1 0x5 MUL ADD PUSH1 0x4 ADD PUSH0 PUSH2 0x100 EXP DUP2 SLOAD DUP2 PUSH1 0xFF MUL NOT AND SWAP1 DUP4 ISZERO ISZERO MUL OR SWAP1 SSTORE POP JUMPDEST DUP1 PUSH1 0x3 PUSH0 CALLER PUSH20 0xFFFFFFFFFFFFFFFFFFFFFFFFFFFFFFFFFFFFFFFF AND PUSH20 0xFFFFFFFFFFFFFFFFFFFFFFFFFFFFFFFFFFFFFFFF AND DUP2 MSTORE PUSH1 0x20 ADD SWAP1 DUP2 MSTORE PUSH1 0x20 ADD PUSH0 KECCAK256 PUSH0 DUP9 PUSH1 0xFF AND PUSH1 0xFF AND DUP2 MSTORE PUSH1 0x20 ADD SWAP1 DUP2 MSTORE PUSH1 0x20 ADD PUSH0 KECCAK256 DUP9 PUSH4 0xFFFFFFFF AND DUP2 SLOAD DUP2 LT PUSH2 0x2EFD JUMPI PUSH2 0x2EFC PUSH2 0x4BE4 JUMP JUMPDEST JUMPDEST SWAP1 PUSH0 MSTORE PUSH1 0x20 PUSH0 KECCAK256 SWAP1 PUSH1 0x5 MUL ADD PUSH1 0x1 ADD DUP2 SWAP1 SSTORE POP DUP2 PUSH1 0x4 ADD PUSH1 0x1 SWAP1 SLOAD SWAP1 PUSH2 0x100 EXP SWAP1 DIV PUSH1 0xFF AND ISZERO PUSH2 0x3064 JUMPI PUSH0 CALLER PUSH20 0xFFFFFFFFFFFFFFFFFFFFFFFFFFFFFFFFFFFFFFFF AND DUP7 PUSH1 0x40 MLOAD PUSH2 0x2F4C SWAP1 PUSH2 0x4F85 JUMP JUMPDEST PUSH0 PUSH1 0x40 MLOAD DUP1 DUP4 SUB DUP2 DUP6 DUP8 GAS CALL SWAP3 POP POP POP RETURNDATASIZE DUP1 PUSH0 DUP2 EQ PUSH2 0x2F86 JUMPI PUSH1 0x40 MLOAD SWAP2 POP PUSH1 0x1F NOT PUSH1 0x3F RETURNDATASIZE ADD AND DUP3 ADD PUSH1 0x40 MSTORE RETURNDATASIZE DUP3 MSTORE RETURNDATASIZE PUSH0 PUSH1 0x20 DUP5 ADD RETURNDATACOPY PUSH2 0x2F8B JUMP JUMPDEST PUSH1 0x60 SWAP2 POP JUMPDEST POP POP SWAP1 POP DUP1 PUSH2 0x2FC6 JUMPI PUSH1 0x40 MLOAD PUSH32 0xB12D13EB00000000000000000000000000000000000000000000000000000000 DUP2 MSTORE PUSH1 0x4 ADD PUSH1 0x40 MLOAD DUP1 SWAP2 SUB SWAP1 REVERT JUMPDEST PUSH2 0x305E PUSH0 DUP9 DUP9 DUP7 PUSH1 0x3 ADD DUP1 SLOAD PUSH2 0x2FDB SWAP1 PUSH2 0x48E1 JUMP JUMPDEST DUP1 PUSH1 0x1F ADD PUSH1 0x20 DUP1 SWAP2 DIV MUL PUSH1 0x20 ADD PUSH1 0x40 MLOAD SWAP1 DUP2 ADD PUSH1 0x40 MSTORE DUP1 SWAP3 SWAP2 SWAP1 DUP2 DUP2 MSTORE PUSH1 0x20 ADD DUP3 DUP1 SLOAD PUSH2 0x3007 SWAP1 PUSH2 0x48E1 JUMP JUMPDEST DUP1 ISZERO PUSH2 0x3052 JUMPI DUP1 PUSH1 0x1F LT PUSH2 0x3029 JUMPI PUSH2 0x100 DUP1 DUP4 SLOAD DIV MUL DUP4 MSTORE SWAP2 PUSH1 0x20 ADD SWAP2 PUSH2 0x3052 JUMP JUMPDEST DUP3 ADD SWAP2 SWAP1 PUSH0 MSTORE PUSH1 0x20 PUSH0 KECCAK256 SWAP1 JUMPDEST DUP2 SLOAD DUP2 MSTORE SWAP1 PUSH1 0x1 ADD SWAP1 PUSH1 0x20 ADD DUP1 DUP4 GT PUSH2 0x3035 JUMPI DUP3 SWAP1 SUB PUSH1 0x1F AND DUP3 ADD SWAP2 JUMPDEST POP POP POP POP POP PUSH1 0x1 PUSH2 0x396A JUMP JUMPDEST POP PUSH2 0x316C JUMP JUMPDEST PUSH2 0x30B1 CALLER DUP7 DUP5 PUSH0 ADD PUSH0 SWAP1 SLOAD SWAP1 PUSH2 0x100 EXP SWAP1 DIV PUSH20 0xFFFFFFFFFFFFFFFFFFFFFFFFFFFFFFFFFFFFFFFF AND PUSH20 0xFFFFFFFFFFFFFFFFFFFFFFFFFFFFFFFFFFFFFFFF AND PUSH2 0x3C08 SWAP1 SWAP3 SWAP2 SWAP1 PUSH4 0xFFFFFFFF AND JUMP JUMPDEST PUSH2 0x316B DUP3 PUSH0 ADD PUSH0 SWAP1 SLOAD SWAP1 PUSH2 0x100 EXP SWAP1 DIV PUSH20 0xFFFFFFFFFFFFFFFFFFFFFFFFFFFFFFFFFFFFFFFF AND DUP8 DUP8 DUP6 PUSH1 0x3 ADD DUP1 SLOAD PUSH2 0x30E8 SWAP1 PUSH2 0x48E1 JUMP JUMPDEST DUP1 PUSH1 0x1F ADD PUSH1 0x20 DUP1 SWAP2 DIV MUL PUSH1 0x20 ADD PUSH1 0x40 MLOAD SWAP1 DUP2 ADD PUSH1 0x40 MSTORE DUP1 SWAP3 SWAP2 SWAP1 DUP2 DUP2 MSTORE PUSH1 0x20 ADD DUP3 DUP1 SLOAD PUSH2 0x3114 SWAP1 PUSH2 0x48E1 JUMP JUMPDEST DUP1 ISZERO PUSH2 0x315F JUMPI DUP1 PUSH1 0x1F LT PUSH2 0x3136 JUMPI PUSH2 0x100 DUP1 DUP4 SLOAD DIV MUL DUP4 MSTORE SWAP2 PUSH1 0x20 ADD SWAP2 PUSH2 0x315F JUMP JUMPDEST DUP3 ADD SWAP2 SWAP1 PUSH0 MSTORE PUSH1 0x20 PUSH0 KECCAK256 SWAP1 JUMPDEST DUP2 SLOAD DUP2 MSTORE SWAP1 PUSH1 0x1 ADD SWAP1 PUSH1 0x20 ADD DUP1 DUP4 GT PUSH2 0x3142 JUMPI DUP3 SWAP1 SUB PUSH1 0x1F AND DUP3 ADD SWAP2 JUMPDEST POP POP POP POP POP PUSH1 0x1 PUSH2 0x396A JUMP JUMPDEST JUMPDEST DUP2 PUSH0 ADD PUSH0 SWAP1 SLOAD SWAP1 PUSH2 0x100 EXP SWAP1 DIV PUSH20 0xFFFFFFFFFFFFFFFFFFFFFFFFFFFFFFFFFFFFFFFF AND PUSH20 0xFFFFFFFFFFFFFFFFFFFFFFFFFFFFFFFFFFFFFFFF AND PUSH32 0x4C1F1355DA7E4DA113E98D9A5C01AA2A743E2372A87ED9CDA08A8645E197E735 DUP7 DUP5 PUSH1 0x3 ADD DUP10 TIMESTAMP PUSH1 0x40 MLOAD PUSH2 0x31DD SWAP5 SWAP4 SWAP3 SWAP2 SWAP1 PUSH2 0x4C92 JUMP JUMPDEST PUSH1 0x40 MLOAD DUP1 SWAP2 SUB SWAP1 LOG2 POP POP POP PUSH2 0x31F0 PUSH2 0x3AB7 JUMP JUMPDEST POP POP POP POP JUMP JUMPDEST PUSH0 PUSH1 0x3 PUSH0 CALLER PUSH20 0xFFFFFFFFFFFFFFFFFFFFFFFFFFFFFFFFFFFFFFFF AND PUSH20 0xFFFFFFFFFFFFFFFFFFFFFFFFFFFFFFFFFFFFFFFF AND DUP2 MSTORE PUSH1 0x20 ADD SWAP1 DUP2 MSTORE PUSH1 0x20 ADD PUSH0 KECCAK256 PUSH0 DUP5 PUSH1 0xFF AND PUSH1 0xFF AND DUP2 MSTORE PUSH1 0x20 ADD SWAP1 DUP2 MSTORE PUSH1 0x20 ADD PUSH0 KECCAK256 DUP5 PUSH4 0xFFFFFFFF AND DUP2 SLOAD DUP2 LT PUSH2 0x3261 JUMPI PUSH2 0x3260 PUSH2 0x4BE4 JUMP JUMPDEST JUMPDEST SWAP1 PUSH0 MSTORE PUSH1 0x20 PUSH0 KECCAK256 SWAP1 PUSH1 0x5 MUL ADD SWAP1 POP PUSH1 0x3 PUSH0 CALLER PUSH20 0xFFFFFFFFFFFFFFFFFFFFFFFFFFFFFFFFFFFFFFFF AND PUSH20 0xFFFFFFFFFFFFFFFFFFFFFFFFFFFFFFFFFFFFFFFF AND DUP2 MSTORE PUSH1 0x20 ADD SWAP1 DUP2 MSTORE PUSH1 0x20 ADD PUSH0 KECCAK256 PUSH0 DUP5 PUSH1 0xFF AND PUSH1 0xFF AND DUP2 MSTORE PUSH1 0x20 ADD SWAP1 DUP2 MSTORE PUSH1 0x20 ADD PUSH0 KECCAK256 DUP1 SLOAD SWAP1 POP DUP5 PUSH4 0xFFFFFFFF AND GT ISZERO PUSH2 0x3304 JUMPI PUSH1 0x40 MLOAD PUSH32 0x43B88A3000000000000000000000000000000000000000000000000000000000 DUP2 MSTORE PUSH1 0x4 ADD PUSH1 0x40 MLOAD DUP1 SWAP2 SUB SWAP1 REVERT JUMPDEST TIMESTAMP DUP2 PUSH1 0x2 ADD SLOAD LT ISZERO PUSH2 0x3342 JUMPI PUSH1 0x40 MLOAD PUSH32 0xA3F3D8B900000000000000000000000000000000000000000000000000000000 DUP2 MSTORE PUSH1 0x4 ADD PUSH1 0x40 MLOAD DUP1 SWAP2 SUB SWAP1 REVERT JUMPDEST DUP2 PUSH4 0xFFFFFFFF AND TIMESTAMP PUSH2 0x3354 SWAP2 SWAP1 PUSH2 0x4881 JUMP JUMPDEST PUSH1 0x3 PUSH0 CALLER PUSH20 0xFFFFFFFFFFFFFFFFFFFFFFFFFFFFFFFFFFFFFFFF AND PUSH20 0xFFFFFFFFFFFFFFFFFFFFFFFFFFFFFFFFFFFFFFFF AND DUP2 MSTORE PUSH1 0x20 ADD SWAP1 DUP2 MSTORE PUSH1 0x20 ADD PUSH0 KECCAK256 PUSH0 DUP6 PUSH1 0xFF AND PUSH1 0xFF AND DUP2 MSTORE PUSH1 0x20 ADD SWAP1 DUP2 MSTORE PUSH1 0x20 ADD PUSH0 KECCAK256 DUP6 PUSH4 0xFFFFFFFF AND DUP2 SLOAD DUP2 LT PUSH2 0x33BE JUMPI PUSH2 0x33BD PUSH2 0x4BE4 JUMP JUMPDEST JUMPDEST SWAP1 PUSH0 MSTORE PUSH1 0x20 PUSH0 KECCAK256 SWAP1 PUSH1 0x5 MUL ADD PUSH1 0x2 ADD DUP2 SWAP1 SSTORE POP DUP1 PUSH0 ADD PUSH0 SWAP1 SLOAD SWAP1 PUSH2 0x100 EXP SWAP1 DIV PUSH20 0xFFFFFFFFFFFFFFFFFFFFFFFFFFFFFFFFFFFFFFFF AND PUSH20 0xFFFFFFFFFFFFFFFFFFFFFFFFFFFFFFFFFFFFFFFF AND PUSH32 0x9D36C4692E4C75A4A1A6305244C51189AEEAAF3FABA32B86BF4E2AC38BF689F3 DUP5 DUP5 DUP5 PUSH1 0x3 ADD TIMESTAMP PUSH1 0x40 MLOAD PUSH2 0x3442 SWAP5 SWAP4 SWAP3 SWAP2 SWAP1 PUSH2 0x4F99 JUMP JUMPDEST PUSH1 0x40 MLOAD DUP1 SWAP2 SUB SWAP1 LOG2 POP POP POP POP JUMP JUMPDEST PUSH2 0x3458 PUSH2 0x38A2 JUMP JUMPDEST PUSH1 0x2 PUSH0 SWAP1 SLOAD SWAP1 PUSH2 0x100 EXP SWAP1 DIV PUSH1 0xFF AND ISZERO PUSH2 0x349E JUMPI PUSH1 0x40 MLOAD PUSH32 0x94DA9AE700000000000000000000000000000000000000000000000000000000 DUP2 MSTORE PUSH1 0x4 ADD PUSH1 0x40 MLOAD DUP1 SWAP2 SUB SWAP1 REVERT JUMPDEST DUP2 PUSH0 DUP2 PUSH1 0xFF AND LT DUP1 PUSH2 0x34B3 JUMPI POP PUSH1 0x4 DUP2 PUSH1 0xFF AND GT JUMPDEST ISZERO PUSH2 0x34EA JUMPI PUSH1 0x40 MLOAD PUSH32 0x41E7BB4F00000000000000000000000000000000000000000000000000000000 DUP2 MSTORE PUSH1 0x4 ADD PUSH1 0x40 MLOAD DUP1 SWAP2 SUB SWAP1 REVERT JUMPDEST PUSH0 CALLVALUE GT PUSH2 0x3523 JUMPI PUSH1 0x40 MLOAD PUSH32 0xE4910D5800000000000000000000000000000000000000000000000000000000 DUP2 MSTORE PUSH1 0x4 ADD PUSH1 0x40 MLOAD DUP1 SWAP2 SUB SWAP1 REVERT JUMPDEST PUSH1 0x3 PUSH0 CALLER PUSH20 0xFFFFFFFFFFFFFFFFFFFFFFFFFFFFFFFFFFFFFFFF AND PUSH20 0xFFFFFFFFFFFFFFFFFFFFFFFFFFFFFFFFFFFFFFFF AND DUP2 MSTORE PUSH1 0x20 ADD SWAP1 DUP2 MSTORE PUSH1 0x20 ADD PUSH0 KECCAK256 PUSH0 DUP5 PUSH1 0xFF AND PUSH1 0xFF AND DUP2 MSTORE PUSH1 0x20 ADD SWAP1 DUP2 MSTORE PUSH1 0x20 ADD PUSH0 KECCAK256 DUP1 SLOAD SWAP1 POP DUP3 PUSH4 0xFFFFFFFF AND GT ISZERO PUSH2 0x35B8 JUMPI PUSH1 0x40 MLOAD PUSH32 0x43B88A3000000000000000000000000000000000000000000000000000000000 DUP2 MSTORE PUSH1 0x4 ADD PUSH1 0x40 MLOAD DUP1 SWAP2 SUB SWAP1 REVERT JUMPDEST PUSH0 PUSH1 0x3 PUSH0 CALLER PUSH20 0xFFFFFFFFFFFFFFFFFFFFFFFFFFFFFFFFFFFFFFFF AND PUSH20 0xFFFFFFFFFFFFFFFFFFFFFFFFFFFFFFFFFFFFFFFF AND DUP2 MSTORE PUSH1 0x20 ADD SWAP1 DUP2 MSTORE PUSH1 0x20 ADD PUSH0 KECCAK256 PUSH0 DUP6 PUSH1 0xFF AND PUSH1 0xFF AND DUP2 MSTORE PUSH1 0x20 ADD SWAP1 DUP2 MSTORE PUSH1 0x20 ADD PUSH0 KECCAK256 DUP4 PUSH4 0xFFFFFFFF AND DUP2 SLOAD DUP2 LT PUSH2 0x3623 JUMPI PUSH2 0x3622 PUSH2 0x4BE4 JUMP JUMPDEST JUMPDEST SWAP1 PUSH0 MSTORE PUSH1 0x20 PUSH0 KECCAK256 SWAP1 PUSH1 0x5 MUL ADD SWAP1 POP TIMESTAMP DUP2 PUSH1 0x2 ADD SLOAD LT ISZERO PUSH2 0x366F JUMPI PUSH1 0x40 MLOAD PUSH32 0xA3F3D8B900000000000000000000000000000000000000000000000000000000 DUP2 MSTORE PUSH1 0x4 ADD PUSH1 0x40 MLOAD DUP1 SWAP2 SUB SWAP1 REVERT JUMPDEST CALLVALUE PUSH1 0x3 PUSH0 CALLER PUSH20 0xFFFFFFFFFFFFFFFFFFFFFFFFFFFFFFFFFFFFFFFF AND PUSH20 0xFFFFFFFFFFFFFFFFFFFFFFFFFFFFFFFFFFFFFFFF AND DUP2 MSTORE PUSH1 0x20 ADD SWAP1 DUP2 MSTORE PUSH1 0x20 ADD PUSH0 KECCAK256 PUSH0 DUP7 PUSH1 0xFF AND PUSH1 0xFF AND DUP2 MSTORE PUSH1 0x20 ADD SWAP1 DUP2 MSTORE PUSH1 0x20 ADD PUSH0 KECCAK256 DUP5 PUSH4 0xFFFFFFFF AND DUP2 SLOAD DUP2 LT PUSH2 0x36DA JUMPI PUSH2 0x36D9 PUSH2 0x4BE4 JUMP JUMPDEST JUMPDEST SWAP1 PUSH0 MSTORE PUSH1 0x20 PUSH0 KECCAK256 SWAP1 PUSH1 0x5 MUL ADD PUSH1 0x1 ADD PUSH0 DUP3 DUP3 SLOAD PUSH2 0x36F7 SWAP2 SWAP1 PUSH2 0x4881 JUMP JUMPDEST SWAP3 POP POP DUP2 SWAP1 SSTORE POP PUSH2 0x3795 PUSH0 DUP6 CALLVALUE DUP5 PUSH1 0x3 ADD DUP1 SLOAD PUSH2 0x3713 SWAP1 PUSH2 0x48E1 JUMP JUMPDEST DUP1 PUSH1 0x1F ADD PUSH1 0x20 DUP1 SWAP2 DIV MUL PUSH1 0x20 ADD PUSH1 0x40 MLOAD SWAP1 DUP2 ADD PUSH1 0x40 MSTORE DUP1 SWAP3 SWAP2 SWAP1 DUP2 DUP2 MSTORE PUSH1 0x20 ADD DUP3 DUP1 SLOAD PUSH2 0x373F SWAP1 PUSH2 0x48E1 JUMP JUMPDEST DUP1 ISZERO PUSH2 0x378A JUMPI DUP1 PUSH1 0x1F LT PUSH2 0x3761 JUMPI PUSH2 0x100 DUP1 DUP4 SLOAD DIV MUL DUP4 MSTORE SWAP2 PUSH1 0x20 ADD SWAP2 PUSH2 0x378A JUMP JUMPDEST DUP3 ADD SWAP2 SWAP1 PUSH0 MSTORE PUSH1 0x20 PUSH0 KECCAK256 SWAP1 JUMPDEST DUP2 SLOAD DUP2 MSTORE SWAP1 PUSH1 0x1 ADD SWAP1 PUSH1 0x20 ADD DUP1 DUP4 GT PUSH2 0x376D JUMPI DUP3 SWAP1 SUB PUSH1 0x1F AND DUP3 ADD SWAP2 JUMPDEST POP POP POP POP POP PUSH0 PUSH2 0x396A JUMP JUMPDEST PUSH0 PUSH20 0xFFFFFFFFFFFFFFFFFFFFFFFFFFFFFFFFFFFFFFFF AND PUSH32 0xA62FA334755456EFC7EABEC03287391ABE4998E298B5D3B4A3EABC34FD5F800B CALLVALUE DUP4 PUSH1 0x3 ADD DUP8 TIMESTAMP PUSH1 0x40 MLOAD PUSH2 0x37E4 SWAP5 SWAP4 SWAP3 SWAP2 SWAP1 PUSH2 0x4C92 JUMP JUMPDEST PUSH1 0x40 MLOAD DUP1 SWAP2 SUB SWAP1 LOG2 POP POP PUSH2 0x37F6 PUSH2 0x3AB7 JUMP JUMPDEST POP POP JUMP JUMPDEST PUSH2 0x3802 PUSH2 0x3AC0 JUMP JUMPDEST PUSH0 PUSH20 0xFFFFFFFFFFFFFFFFFFFFFFFFFFFFFFFFFFFFFFFF AND DUP2 PUSH20 0xFFFFFFFFFFFFFFFFFFFFFFFFFFFFFFFFFFFFFFFF AND SUB PUSH2 0x3872 JUMPI PUSH0 PUSH1 0x40 MLOAD PUSH32 0x1E4FBDF700000000000000000000000000000000000000000000000000000000 DUP2 MSTORE PUSH1 0x4 ADD PUSH2 0x3869 SWAP2 SWAP1 PUSH2 0x460E JUMP JUMPDEST PUSH1 0x40 MLOAD DUP1 SWAP2 SUB SWAP1 REVERT JUMPDEST PUSH2 0x387B DUP2 PUSH2 0x3B47 JUMP JUMPDEST POP JUMP JUMPDEST PUSH32 0x0 DUP2 JUMP JUMPDEST PUSH1 0x2 PUSH1 0x1 SLOAD SUB PUSH2 0x38DE JUMPI PUSH1 0x40 MLOAD PUSH32 0x3EE5AEB500000000000000000000000000000000000000000000000000000000 DUP2 MSTORE PUSH1 0x4 ADD PUSH1 0x40 MLOAD DUP1 SWAP2 SUB SWAP1 REVERT JUMPDEST PUSH1 0x2 PUSH1 0x1 DUP2 SWAP1 SSTORE POP JUMP JUMPDEST PUSH2 0x3964 DUP5 DUP6 PUSH20 0xFFFFFFFFFFFFFFFFFFFFFFFFFFFFFFFFFFFFFFFF AND PUSH4 0x23B872DD DUP7 DUP7 DUP7 PUSH1 0x40 MLOAD PUSH1 0x24 ADD PUSH2 0x391D SWAP4 SWAP3 SWAP2 SWAP1 PUSH2 0x4FE3 JUMP JUMPDEST PUSH1 0x40 MLOAD PUSH1 0x20 DUP2 DUP4 SUB SUB DUP2 MSTORE SWAP1 PUSH1 0x40 MSTORE SWAP2 POP PUSH1 0xE0 SHL PUSH1 0x20 DUP3 ADD DUP1 MLOAD PUSH28 0xFFFFFFFFFFFFFFFFFFFFFFFFFFFFFFFFFFFFFFFFFFFFFFFFFFFFFFFF DUP4 DUP2 DUP4 AND OR DUP4 MSTORE POP POP POP POP PUSH2 0x3C87 JUMP JUMPDEST POP POP POP POP JUMP JUMPDEST PUSH1 0x4 PUSH0 CALLER PUSH20 0xFFFFFFFFFFFFFFFFFFFFFFFFFFFFFFFFFFFFFFFF AND PUSH20 0xFFFFFFFFFFFFFFFFFFFFFFFFFFFFFFFFFFFFFFFF AND DUP2 MSTORE PUSH1 0x20 ADD SWAP1 DUP2 MSTORE PUSH1 0x20 ADD PUSH0 KECCAK256 PUSH0 DUP6 PUSH1 0xFF AND PUSH1 0xFF AND DUP2 MSTORE PUSH1 0x20 ADD SWAP1 DUP2 MSTORE PUSH1 0x20 ADD PUSH0 KECCAK256 PUSH1 0x40 MLOAD DUP1 PUSH1 0xA0 ADD PUSH1 0x40 MSTORE DUP1 DUP8 PUSH20 0xFFFFFFFFFFFFFFFFFFFFFFFFFFFFFFFFFFFFFFFF AND DUP2 MSTORE PUSH1 0x20 ADD DUP6 DUP2 MSTORE PUSH1 0x20 ADD DUP5 DUP2 MSTORE PUSH1 0x20 ADD DUP4 ISZERO ISZERO DUP2 MSTORE PUSH1 0x20 ADD TIMESTAMP DUP2 MSTORE POP SWAP1 DUP1 PUSH1 0x1 DUP2 SLOAD ADD DUP1 DUP3 SSTORE DUP1 SWAP2 POP POP PUSH1 0x1 SWAP1 SUB SWAP1 PUSH0 MSTORE PUSH1 0x20 PUSH0 KECCAK256 SWAP1 PUSH1 0x5 MUL ADD PUSH0 SWAP1 SWAP2 SWAP1 SWAP2 SWAP1 SWAP2 POP PUSH0 DUP3 ADD MLOAD DUP2 PUSH0 ADD PUSH0 PUSH2 0x100 EXP DUP2 SLOAD DUP2 PUSH20 0xFFFFFFFFFFFFFFFFFFFFFFFFFFFFFFFFFFFFFFFF MUL NOT AND SWAP1 DUP4 PUSH20 0xFFFFFFFFFFFFFFFFFFFFFFFFFFFFFFFFFFFFFFFF AND MUL OR SWAP1 SSTORE POP PUSH1 0x20 DUP3 ADD MLOAD DUP2 PUSH1 0x1 ADD SSTORE PUSH1 0x40 DUP3 ADD MLOAD DUP2 PUSH1 0x2 ADD SWAP1 DUP2 PUSH2 0x3A84 SWAP2 SWAP1 PUSH2 0x4AAE JUMP JUMPDEST POP PUSH1 0x60 DUP3 ADD MLOAD DUP2 PUSH1 0x3 ADD PUSH0 PUSH2 0x100 EXP DUP2 SLOAD DUP2 PUSH1 0xFF MUL NOT AND SWAP1 DUP4 ISZERO ISZERO MUL OR SWAP1 SSTORE POP PUSH1 0x80 DUP3 ADD MLOAD DUP2 PUSH1 0x4 ADD SSTORE POP POP POP POP POP POP POP JUMP JUMPDEST PUSH1 0x1 DUP1 DUP2 SWAP1 SSTORE POP JUMP JUMPDEST PUSH2 0x3AC8 PUSH2 0x3D22 JUMP JUMPDEST PUSH20 0xFFFFFFFFFFFFFFFFFFFFFFFFFFFFFFFFFFFFFFFF AND PUSH2 0x3AE6 PUSH2 0x2587 JUMP JUMPDEST PUSH20 0xFFFFFFFFFFFFFFFFFFFFFFFFFFFFFFFFFFFFFFFF AND EQ PUSH2 0x3B45 JUMPI PUSH2 0x3B09 PUSH2 0x3D22 JUMP JUMPDEST PUSH1 0x40 MLOAD PUSH32 0x118CDAA700000000000000000000000000000000000000000000000000000000 DUP2 MSTORE PUSH1 0x4 ADD PUSH2 0x3B3C SWAP2 SWAP1 PUSH2 0x460E JUMP JUMPDEST PUSH1 0x40 MLOAD DUP1 SWAP2 SUB SWAP1 REVERT JUMPDEST JUMP JUMPDEST PUSH0 DUP1 PUSH0 SWAP1 SLOAD SWAP1 PUSH2 0x100 EXP SWAP1 DIV PUSH20 0xFFFFFFFFFFFFFFFFFFFFFFFFFFFFFFFFFFFFFFFF AND SWAP1 POP DUP2 PUSH0 DUP1 PUSH2 0x100 EXP DUP2 SLOAD DUP2 PUSH20 0xFFFFFFFFFFFFFFFFFFFFFFFFFFFFFFFFFFFFFFFF MUL NOT AND SWAP1 DUP4 PUSH20 0xFFFFFFFFFFFFFFFFFFFFFFFFFFFFFFFFFFFFFFFF AND MUL OR SWAP1 SSTORE POP DUP2 PUSH20 0xFFFFFFFFFFFFFFFFFFFFFFFFFFFFFFFFFFFFFFFF AND DUP2 PUSH20 0xFFFFFFFFFFFFFFFFFFFFFFFFFFFFFFFFFFFFFFFF AND PUSH32 0x8BE0079C531659141344CD1FD0A4F28419497F9722A3DAAFE3B4186F6B6457E0 PUSH1 0x40 MLOAD PUSH1 0x40 MLOAD DUP1 SWAP2 SUB SWAP1 LOG3 POP POP JUMP JUMPDEST PUSH2 0x3C82 DUP4 DUP5 PUSH20 0xFFFFFFFFFFFFFFFFFFFFFFFFFFFFFFFFFFFFFFFF AND PUSH4 0xA9059CBB DUP6 DUP6 PUSH1 0x40 MLOAD PUSH1 0x24 ADD PUSH2 0x3C3B SWAP3 SWAP2 SWAP1 PUSH2 0x5018 JUMP JUMPDEST PUSH1 0x40 MLOAD PUSH1 0x20 DUP2 DUP4 SUB SUB DUP2 MSTORE SWAP1 PUSH1 0x40 MSTORE SWAP2 POP PUSH1 0xE0 SHL PUSH1 0x20 DUP3 ADD DUP1 MLOAD PUSH28 0xFFFFFFFFFFFFFFFFFFFFFFFFFFFFFFFFFFFFFFFFFFFFFFFFFFFFFFFF DUP4 DUP2 DUP4 AND OR DUP4 MSTORE POP POP POP POP PUSH2 0x3C87 JUMP JUMPDEST POP POP POP JUMP JUMPDEST PUSH0 DUP1 PUSH1 0x20 PUSH0 DUP5 MLOAD PUSH1 0x20 DUP7 ADD PUSH0 DUP9 GAS CALL DUP1 PUSH2 0x3CA6 JUMPI PUSH1 0x40 MLOAD RETURNDATASIZE PUSH0 DUP3 RETURNDATACOPY RETURNDATASIZE DUP2 REVERT JUMPDEST RETURNDATASIZE SWAP3 POP PUSH0 MLOAD SWAP2 POP POP PUSH0 DUP3 EQ PUSH2 0x3CBF JUMPI PUSH1 0x1 DUP2 EQ ISZERO PUSH2 0x3CDA JUMP JUMPDEST PUSH0 DUP5 PUSH20 0xFFFFFFFFFFFFFFFFFFFFFFFFFFFFFFFFFFFFFFFF AND EXTCODESIZE EQ JUMPDEST ISZERO PUSH2 0x3D1C JUMPI DUP4 PUSH1 0x40 MLOAD PUSH32 0x5274AFE700000000000000000000000000000000000000000000000000000000 DUP2 MSTORE PUSH1 0x4 ADD PUSH2 0x3D13 SWAP2 SWAP1 PUSH2 0x460E JUMP JUMPDEST PUSH1 0x40 MLOAD DUP1 SWAP2 SUB SWAP1 REVERT JUMPDEST POP POP POP POP JUMP JUMPDEST PUSH0 CALLER SWAP1 POP SWAP1 JUMP JUMPDEST POP DUP1 SLOAD PUSH2 0x3D35 SWAP1 PUSH2 0x48E1 JUMP JUMPDEST PUSH0 DUP3 SSTORE DUP1 PUSH1 0x1F LT PUSH2 0x3D46 JUMPI POP PUSH2 0x3D63 JUMP JUMPDEST PUSH1 0x1F ADD PUSH1 0x20 SWAP1 DIV SWAP1 PUSH0 MSTORE PUSH1 0x20 PUSH0 KECCAK256 SWAP1 DUP2 ADD SWAP1 PUSH2 0x3D62 SWAP2 SWAP1 PUSH2 0x3D66 JUMP JUMPDEST JUMPDEST POP JUMP JUMPDEST JUMPDEST DUP1 DUP3 GT ISZERO PUSH2 0x3D7D JUMPI PUSH0 DUP2 PUSH0 SWAP1 SSTORE POP PUSH1 0x1 ADD PUSH2 0x3D67 JUMP JUMPDEST POP SWAP1 JUMP JUMPDEST PUSH0 PUSH1 0x40 MLOAD SWAP1 POP SWAP1 JUMP JUMPDEST PUSH0 DUP1 REVERT JUMPDEST PUSH0 DUP1 REVERT JUMPDEST PUSH0 PUSH20 0xFFFFFFFFFFFFFFFFFFFFFFFFFFFFFFFFFFFFFFFF DUP3 AND SWAP1 POP SWAP2 SWAP1 POP JUMP JUMPDEST PUSH0 PUSH2 0x3DBB DUP3 PUSH2 0x3D92 JUMP JUMPDEST SWAP1 POP SWAP2 SWAP1 POP JUMP JUMPDEST PUSH2 0x3DCB DUP2 PUSH2 0x3DB1 JUMP JUMPDEST DUP2 EQ PUSH2 0x3DD5 JUMPI PUSH0 DUP1 REVERT JUMPDEST POP JUMP JUMPDEST PUSH0 DUP2 CALLDATALOAD SWAP1 POP PUSH2 0x3DE6 DUP2 PUSH2 0x3DC2 JUMP JUMPDEST SWAP3 SWAP2 POP POP JUMP JUMPDEST PUSH0 PUSH1 0x20 DUP3 DUP5 SUB SLT ISZERO PUSH2 0x3E01 JUMPI PUSH2 0x3E00 PUSH2 0x3D8A JUMP JUMPDEST JUMPDEST PUSH0 PUSH2 0x3E0E DUP5 DUP3 DUP6 ADD PUSH2 0x3DD8 JUMP JUMPDEST SWAP2 POP POP SWAP3 SWAP2 POP POP JUMP JUMPDEST PUSH0 DUP2 ISZERO ISZERO SWAP1 POP SWAP2 SWAP1 POP JUMP JUMPDEST PUSH2 0x3E2B DUP2 PUSH2 0x3E17 JUMP JUMPDEST DUP3 MSTORE POP POP JUMP JUMPDEST PUSH0 PUSH1 0x20 DUP3 ADD SWAP1 POP PUSH2 0x3E44 PUSH0 DUP4 ADD DUP5 PUSH2 0x3E22 JUMP JUMPDEST SWAP3 SWAP2 POP POP JUMP JUMPDEST PUSH0 PUSH2 0x3E54 DUP3 PUSH2 0x3DB1 JUMP JUMPDEST SWAP1 POP SWAP2 SWAP1 POP JUMP JUMPDEST PUSH2 0x3E64 DUP2 PUSH2 0x3E4A JUMP JUMPDEST DUP2 EQ PUSH2 0x3E6E JUMPI PUSH0 DUP1 REVERT JUMPDEST POP JUMP JUMPDEST PUSH0 DUP2 CALLDATALOAD SWAP1 POP PUSH2 0x3E7F DUP2 PUSH2 0x3E5B JUMP JUMPDEST SWAP3 SWAP2 POP POP JUMP JUMPDEST PUSH0 DUP2 SWAP1 POP SWAP2 SWAP1 POP JUMP JUMPDEST PUSH2 0x3E97 DUP2 PUSH2 0x3E85 JUMP JUMPDEST DUP2 EQ PUSH2 0x3EA1 JUMPI PUSH0 DUP1 REVERT JUMPDEST POP JUMP JUMPDEST PUSH0 DUP2 CALLDATALOAD SWAP1 POP PUSH2 0x3EB2 DUP2 PUSH2 0x3E8E JUMP JUMPDEST SWAP3 SWAP2 POP POP JUMP JUMPDEST PUSH0 PUSH1 0xFF DUP3 AND SWAP1 POP SWAP2 SWAP1 POP JUMP JUMPDEST PUSH2 0x3ECD DUP2 PUSH2 0x3EB8 JUMP JUMPDEST DUP2 EQ PUSH2 0x3ED7 JUMPI PUSH0 DUP1 REVERT JUMPDEST POP JUMP JUMPDEST PUSH0 DUP2 CALLDATALOAD SWAP1 POP PUSH2 0x3EE8 DUP2 PUSH2 0x3EC4 JUMP JUMPDEST SWAP3 SWAP2 POP POP JUMP JUMPDEST PUSH0 DUP1 REVERT JUMPDEST PUSH0 DUP1 REVERT JUMPDEST PUSH0 PUSH1 0x1F NOT PUSH1 0x1F DUP4 ADD AND SWAP1 POP SWAP2 SWAP1 POP JUMP JUMPDEST PUSH32 0x4E487B7100000000000000000000000000000000000000000000000000000000 PUSH0 MSTORE PUSH1 0x41 PUSH1 0x4 MSTORE PUSH1 0x24 PUSH0 REVERT JUMPDEST PUSH2 0x3F3C DUP3 PUSH2 0x3EF6 JUMP JUMPDEST DUP2 ADD DUP2 DUP2 LT PUSH8 0xFFFFFFFFFFFFFFFF DUP3 GT OR ISZERO PUSH2 0x3F5B JUMPI PUSH2 0x3F5A PUSH2 0x3F06 JUMP JUMPDEST JUMPDEST DUP1 PUSH1 0x40 MSTORE POP POP POP JUMP JUMPDEST PUSH0 PUSH2 0x3F6D PUSH2 0x3D81 JUMP JUMPDEST SWAP1 POP PUSH2 0x3F79 DUP3 DUP3 PUSH2 0x3F33 JUMP JUMPDEST SWAP2 SWAP1 POP JUMP JUMPDEST PUSH0 PUSH8 0xFFFFFFFFFFFFFFFF DUP3 GT ISZERO PUSH2 0x3F98 JUMPI PUSH2 0x3F97 PUSH2 0x3F06 JUMP JUMPDEST JUMPDEST PUSH2 0x3FA1 DUP3 PUSH2 0x3EF6 JUMP JUMPDEST SWAP1 POP PUSH1 0x20 DUP2 ADD SWAP1 POP SWAP2 SWAP1 POP JUMP JUMPDEST DUP3 DUP2 DUP4 CALLDATACOPY PUSH0 DUP4 DUP4 ADD MSTORE POP POP POP JUMP JUMPDEST PUSH0 PUSH2 0x3FCE PUSH2 0x3FC9 DUP5 PUSH2 0x3F7E JUMP JUMPDEST PUSH2 0x3F64 JUMP JUMPDEST SWAP1 POP DUP3 DUP2 MSTORE PUSH1 0x20 DUP2 ADD DUP5 DUP5 DUP5 ADD GT ISZERO PUSH2 0x3FEA JUMPI PUSH2 0x3FE9 PUSH2 0x3EF2 JUMP JUMPDEST JUMPDEST PUSH2 0x3FF5 DUP5 DUP3 DUP6 PUSH2 0x3FAE JUMP JUMPDEST POP SWAP4 SWAP3 POP POP POP JUMP JUMPDEST PUSH0 DUP3 PUSH1 0x1F DUP4 ADD SLT PUSH2 0x4011 JUMPI PUSH2 0x4010 PUSH2 0x3EEE JUMP JUMPDEST JUMPDEST DUP2 CALLDATALOAD PUSH2 0x4021 DUP5 DUP3 PUSH1 0x20 DUP7 ADD PUSH2 0x3FBC JUMP JUMPDEST SWAP2 POP POP SWAP3 SWAP2 POP POP JUMP JUMPDEST PUSH0 DUP1 PUSH0 DUP1 PUSH0 PUSH1 0xA0 DUP7 DUP9 SUB SLT ISZERO PUSH2 0x4043 JUMPI PUSH2 0x4042 PUSH2 0x3D8A JUMP JUMPDEST JUMPDEST PUSH0 PUSH2 0x4050 DUP9 DUP3 DUP10 ADD PUSH2 0x3E71 JUMP JUMPDEST SWAP6 POP POP PUSH1 0x20 PUSH2 0x4061 DUP9 DUP3 DUP10 ADD PUSH2 0x3EA4 JUMP JUMPDEST SWAP5 POP POP PUSH1 0x40 PUSH2 0x4072 DUP9 DUP3 DUP10 ADD PUSH2 0x3EDA JUMP JUMPDEST SWAP4 POP POP PUSH1 0x60 PUSH2 0x4083 DUP9 DUP3 DUP10 ADD PUSH2 0x3EA4 JUMP JUMPDEST SWAP3 POP POP PUSH1 0x80 DUP7 ADD CALLDATALOAD PUSH8 0xFFFFFFFFFFFFFFFF DUP2 GT ISZERO PUSH2 0x40A4 JUMPI PUSH2 0x40A3 PUSH2 0x3D8E JUMP JUMPDEST JUMPDEST PUSH2 0x40B0 DUP9 DUP3 DUP10 ADD PUSH2 0x3FFD JUMP JUMPDEST SWAP2 POP POP SWAP3 SWAP6 POP SWAP3 SWAP6 SWAP1 SWAP4 POP JUMP JUMPDEST PUSH0 PUSH1 0x20 DUP3 DUP5 SUB SLT ISZERO PUSH2 0x40D2 JUMPI PUSH2 0x40D1 PUSH2 0x3D8A JUMP JUMPDEST JUMPDEST PUSH0 PUSH2 0x40DF DUP5 DUP3 DUP6 ADD PUSH2 0x3E71 JUMP JUMPDEST SWAP2 POP POP SWAP3 SWAP2 POP POP JUMP JUMPDEST PUSH2 0x40F1 DUP2 PUSH2 0x3E85 JUMP JUMPDEST DUP3 MSTORE POP POP JUMP JUMPDEST PUSH0 PUSH1 0x20 DUP3 ADD SWAP1 POP PUSH2 0x410A PUSH0 DUP4 ADD DUP5 PUSH2 0x40E8 JUMP JUMPDEST SWAP3 SWAP2 POP POP JUMP JUMPDEST PUSH0 PUSH4 0xFFFFFFFF DUP3 AND SWAP1 POP SWAP2 SWAP1 POP JUMP JUMPDEST PUSH2 0x4128 DUP2 PUSH2 0x4110 JUMP JUMPDEST DUP2 EQ PUSH2 0x4132 JUMPI PUSH0 DUP1 REVERT JUMPDEST POP JUMP JUMPDEST PUSH0 DUP2 CALLDATALOAD SWAP1 POP PUSH2 0x4143 DUP2 PUSH2 0x411F JUMP JUMPDEST SWAP3 SWAP2 POP POP JUMP JUMPDEST PUSH0 DUP1 PUSH0 DUP1 PUSH1 0x80 DUP6 DUP8 SUB SLT ISZERO PUSH2 0x4161 JUMPI PUSH2 0x4160 PUSH2 0x3D8A JUMP JUMPDEST JUMPDEST PUSH0 PUSH2 0x416E DUP8 DUP3 DUP9 ADD PUSH2 0x3E71 JUMP JUMPDEST SWAP5 POP POP PUSH1 0x20 PUSH2 0x417F DUP8 DUP3 DUP9 ADD PUSH2 0x4135 JUMP JUMPDEST SWAP4 POP POP PUSH1 0x40 PUSH2 0x4190 DUP8 DUP3 DUP9 ADD PUSH2 0x3EA4 JUMP JUMPDEST SWAP3 POP POP PUSH1 0x60 PUSH2 0x41A1 DUP8 DUP3 DUP9 ADD PUSH2 0x3EDA JUMP JUMPDEST SWAP2 POP POP SWAP3 SWAP6 SWAP2 SWAP5 POP SWAP3 POP JUMP JUMPDEST PUSH0 PUSH1 0x20 DUP3 DUP5 SUB SLT ISZERO PUSH2 0x41C2 JUMPI PUSH2 0x41C1 PUSH2 0x3D8A JUMP JUMPDEST JUMPDEST PUSH0 PUSH2 0x41CF DUP5 DUP3 DUP6 ADD PUSH2 0x3EDA JUMP JUMPDEST SWAP2 POP POP SWAP3 SWAP2 POP POP JUMP JUMPDEST PUSH0 DUP2 MLOAD SWAP1 POP SWAP2 SWAP1 POP JUMP JUMPDEST PUSH0 DUP3 DUP3 MSTORE PUSH1 0x20 DUP3 ADD SWAP1 POP SWAP3 SWAP2 POP POP JUMP JUMPDEST PUSH0 DUP2 SWAP1 POP PUSH1 0x20 DUP3 ADD SWAP1 POP SWAP2 SWAP1 POP JUMP JUMPDEST PUSH2 0x420A DUP2 PUSH2 0x3DB1 JUMP JUMPDEST DUP3 MSTORE POP POP JUMP JUMPDEST PUSH2 0x4219 DUP2 PUSH2 0x3E85 JUMP JUMPDEST DUP3 MSTORE POP POP JUMP JUMPDEST PUSH0 DUP2 MLOAD SWAP1 POP SWAP2 SWAP1 POP JUMP JUMPDEST PUSH0 DUP3 DUP3 MSTORE PUSH1 0x20 DUP3 ADD SWAP1 POP SWAP3 SWAP2 POP POP JUMP JUMPDEST DUP3 DUP2 DUP4 MCOPY PUSH0 DUP4 DUP4 ADD MSTORE POP POP POP JUMP JUMPDEST PUSH0 PUSH2 0x4251 DUP3 PUSH2 0x421F JUMP JUMPDEST PUSH2 0x425B DUP2 DUP6 PUSH2 0x4229 JUMP JUMPDEST SWAP4 POP PUSH2 0x426B DUP2 DUP6 PUSH1 0x20 DUP7 ADD PUSH2 0x4239 JUMP JUMPDEST PUSH2 0x4274 DUP2 PUSH2 0x3EF6 JUMP JUMPDEST DUP5 ADD SWAP2 POP POP SWAP3 SWAP2 POP POP JUMP JUMPDEST PUSH2 0x4288 DUP2 PUSH2 0x3E17 JUMP JUMPDEST DUP3 MSTORE POP POP JUMP JUMPDEST PUSH0 PUSH1 0xC0 DUP4 ADD PUSH0 DUP4 ADD MLOAD PUSH2 0x42A3 PUSH0 DUP7 ADD DUP3 PUSH2 0x4201 JUMP JUMPDEST POP PUSH1 0x20 DUP4 ADD MLOAD PUSH2 0x42B6 PUSH1 0x20 DUP7 ADD DUP3 PUSH2 0x4210 JUMP JUMPDEST POP PUSH1 0x40 DUP4 ADD MLOAD PUSH2 0x42C9 PUSH1 0x40 DUP7 ADD DUP3 PUSH2 0x4210 JUMP JUMPDEST POP PUSH1 0x60 DUP4 ADD MLOAD DUP5 DUP3 SUB PUSH1 0x60 DUP7 ADD MSTORE PUSH2 0x42E1 DUP3 DUP3 PUSH2 0x4247 JUMP JUMPDEST SWAP2 POP POP PUSH1 0x80 DUP4 ADD MLOAD PUSH2 0x42F6 PUSH1 0x80 DUP7 ADD DUP3 PUSH2 0x427F JUMP JUMPDEST POP PUSH1 0xA0 DUP4 ADD MLOAD PUSH2 0x4309 PUSH1 0xA0 DUP7 ADD DUP3 PUSH2 0x427F JUMP JUMPDEST POP DUP1 SWAP2 POP POP SWAP3 SWAP2 POP POP JUMP JUMPDEST PUSH0 PUSH2 0x431F DUP4 DUP4 PUSH2 0x428E JUMP JUMPDEST SWAP1 POP SWAP3 SWAP2 POP POP JUMP JUMPDEST PUSH0 PUSH1 0x20 DUP3 ADD SWAP1 POP SWAP2 SWAP1 POP JUMP JUMPDEST PUSH0 PUSH2 0x433D DUP3 PUSH2 0x41D8 JUMP JUMPDEST PUSH2 0x4347 DUP2 DUP6 PUSH2 0x41E2 JUMP JUMPDEST SWAP4 POP DUP4 PUSH1 0x20 DUP3 MUL DUP6 ADD PUSH2 0x4359 DUP6 PUSH2 0x41F2 JUMP JUMPDEST DUP1 PUSH0 JUMPDEST DUP6 DUP2 LT ISZERO PUSH2 0x4394 JUMPI DUP5 DUP5 SUB DUP10 MSTORE DUP2 MLOAD PUSH2 0x4375 DUP6 DUP3 PUSH2 0x4314 JUMP JUMPDEST SWAP5 POP PUSH2 0x4380 DUP4 PUSH2 0x4327 JUMP JUMPDEST SWAP3 POP PUSH1 0x20 DUP11 ADD SWAP10 POP POP PUSH1 0x1 DUP2 ADD SWAP1 POP PUSH2 0x435C JUMP JUMPDEST POP DUP3 SWAP8 POP DUP8 SWAP6 POP POP POP POP POP POP SWAP3 SWAP2 POP POP JUMP JUMPDEST PUSH0 PUSH1 0x20 DUP3 ADD SWAP1 POP DUP2 DUP2 SUB PUSH0 DUP4 ADD MSTORE PUSH2 0x43BE DUP2 DUP5 PUSH2 0x4333 JUMP JUMPDEST SWAP1 POP SWAP3 SWAP2 POP POP JUMP JUMPDEST PUSH0 DUP1 PUSH1 0x40 DUP4 DUP6 SUB SLT ISZERO PUSH2 0x43DC JUMPI PUSH2 0x43DB PUSH2 0x3D8A JUMP JUMPDEST JUMPDEST PUSH0 PUSH2 0x43E9 DUP6 DUP3 DUP7 ADD PUSH2 0x3EDA JUMP JUMPDEST SWAP3 POP POP PUSH1 0x20 PUSH2 0x43FA DUP6 DUP3 DUP7 ADD PUSH2 0x3EDA JUMP JUMPDEST SWAP2 POP POP SWAP3 POP SWAP3 SWAP1 POP JUMP JUMPDEST PUSH0 DUP1 PUSH0 PUSH1 0x60 DUP5 DUP7 SUB SLT ISZERO PUSH2 0x441B JUMPI PUSH2 0x441A PUSH2 0x3D8A JUMP JUMPDEST JUMPDEST PUSH0 PUSH2 0x4428 DUP7 DUP3 DUP8 ADD PUSH2 0x3DD8 JUMP JUMPDEST SWAP4 POP POP PUSH1 0x20 PUSH2 0x4439 DUP7 DUP3 DUP8 ADD PUSH2 0x3EDA JUMP JUMPDEST SWAP3 POP POP PUSH1 0x40 PUSH2 0x444A DUP7 DUP3 DUP8 ADD PUSH2 0x3EA4 JUMP JUMPDEST SWAP2 POP POP SWAP3 POP SWAP3 POP SWAP3 JUMP JUMPDEST PUSH2 0x445D DUP2 PUSH2 0x3DB1 JUMP JUMPDEST DUP3 MSTORE POP POP JUMP JUMPDEST PUSH0 DUP3 DUP3 MSTORE PUSH1 0x20 DUP3 ADD SWAP1 POP SWAP3 SWAP2 POP POP JUMP JUMPDEST PUSH0 PUSH2 0x447D DUP3 PUSH2 0x421F JUMP JUMPDEST PUSH2 0x4487 DUP2 DUP6 PUSH2 0x4463 JUMP JUMPDEST SWAP4 POP PUSH2 0x4497 DUP2 DUP6 PUSH1 0x20 DUP7 ADD PUSH2 0x4239 JUMP JUMPDEST PUSH2 0x44A0 DUP2 PUSH2 0x3EF6 JUMP JUMPDEST DUP5 ADD SWAP2 POP POP SWAP3 SWAP2 POP POP JUMP JUMPDEST PUSH0 PUSH1 0xA0 DUP3 ADD SWAP1 POP PUSH2 0x44BE PUSH0 DUP4 ADD DUP9 PUSH2 0x4454 JUMP JUMPDEST PUSH2 0x44CB PUSH1 0x20 DUP4 ADD DUP8 PUSH2 0x40E8 JUMP JUMPDEST DUP2 DUP2 SUB PUSH1 0x40 DUP4 ADD MSTORE PUSH2 0x44DD DUP2 DUP7 PUSH2 0x4473 JUMP JUMPDEST SWAP1 POP PUSH2 0x44EC PUSH1 0x60 DUP4 ADD DUP6 PUSH2 0x3E22 JUMP JUMPDEST PUSH2 0x44F9 PUSH1 0x80 DUP4 ADD DUP5 PUSH2 0x40E8 JUMP JUMPDEST SWAP7 SWAP6 POP POP POP POP POP POP JUMP JUMPDEST PUSH0 DUP1 PUSH0 DUP1 PUSH0 PUSH1 0xA0 DUP7 DUP9 SUB SLT ISZERO PUSH2 0x451C JUMPI PUSH2 0x451B PUSH2 0x3D8A JUMP JUMPDEST JUMPDEST PUSH0 PUSH2 0x4529 DUP9 DUP3 DUP10 ADD PUSH2 0x3EA4 JUMP JUMPDEST SWAP6 POP POP PUSH1 0x20 PUSH2 0x453A DUP9 DUP3 DUP10 ADD PUSH2 0x3EDA JUMP JUMPDEST SWAP5 POP POP PUSH1 0x40 PUSH2 0x454B DUP9 DUP3 DUP10 ADD PUSH2 0x3EDA JUMP JUMPDEST SWAP4 POP POP PUSH1 0x60 PUSH2 0x455C DUP9 DUP3 DUP10 ADD PUSH2 0x3EDA JUMP JUMPDEST SWAP3 POP POP PUSH1 0x80 PUSH2 0x456D DUP9 DUP3 DUP10 ADD PUSH2 0x3EDA JUMP JUMPDEST SWAP2 POP POP SWAP3 SWAP6 POP SWAP3 SWAP6 SWAP1 SWAP4 POP JUMP JUMPDEST PUSH0 DUP1 PUSH0 PUSH1 0x60 DUP5 DUP7 SUB SLT ISZERO PUSH2 0x4591 JUMPI PUSH2 0x4590 PUSH2 0x3D8A JUMP JUMPDEST JUMPDEST PUSH0 PUSH2 0x459E DUP7 DUP3 DUP8 ADD PUSH2 0x3EDA JUMP JUMPDEST SWAP4 POP POP PUSH1 0x20 PUSH2 0x45AF DUP7 DUP3 DUP8 ADD PUSH2 0x3EDA JUMP JUMPDEST SWAP3 POP POP PUSH1 0x40 DUP5 ADD CALLDATALOAD PUSH8 0xFFFFFFFFFFFFFFFF DUP2 GT ISZERO PUSH2 0x45D0 JUMPI PUSH2 0x45CF PUSH2 0x3D8E JUMP JUMPDEST JUMPDEST PUSH2 0x45DC DUP7 DUP3 DUP8 ADD PUSH2 0x3FFD JUMP JUMPDEST SWAP2 POP POP SWAP3 POP SWAP3 POP SWAP3 JUMP JUMPDEST PUSH2 0x45EF DUP2 PUSH2 0x3EB8 JUMP JUMPDEST DUP3 MSTORE POP POP JUMP JUMPDEST PUSH0 PUSH1 0x20 DUP3 ADD SWAP1 POP PUSH2 0x4608 PUSH0 DUP4 ADD DUP5 PUSH2 0x45E6 JUMP JUMPDEST SWAP3 SWAP2 POP POP JUMP JUMPDEST PUSH0 PUSH1 0x20 DUP3 ADD SWAP1 POP PUSH2 0x4621 PUSH0 DUP4 ADD DUP5 PUSH2 0x4454 JUMP JUMPDEST SWAP3 SWAP2 POP POP JUMP JUMPDEST PUSH0 PUSH1 0xC0 DUP3 ADD SWAP1 POP PUSH2 0x463A PUSH0 DUP4 ADD DUP10 PUSH2 0x4454 JUMP JUMPDEST PUSH2 0x4647 PUSH1 0x20 DUP4 ADD DUP9 PUSH2 0x40E8 JUMP JUMPDEST PUSH2 0x4654 PUSH1 0x40 DUP4 ADD DUP8 PUSH2 0x40E8 JUMP JUMPDEST DUP2 DUP2 SUB PUSH1 0x60 DUP4 ADD MSTORE PUSH2 0x4666 DUP2 DUP7 PUSH2 0x4473 JUMP JUMPDEST SWAP1 POP PUSH2 0x4675 PUSH1 0x80 DUP4 ADD DUP6 PUSH2 0x3E22 JUMP JUMPDEST PUSH2 0x4682 PUSH1 0xA0 DUP4 ADD DUP5 PUSH2 0x3E22 JUMP JUMPDEST SWAP8 SWAP7 POP POP POP POP POP POP POP JUMP JUMPDEST PUSH0 DUP1 PUSH0 PUSH1 0x60 DUP5 DUP7 SUB SLT ISZERO PUSH2 0x46A4 JUMPI PUSH2 0x46A3 PUSH2 0x3D8A JUMP JUMPDEST JUMPDEST PUSH0 PUSH2 0x46B1 DUP7 DUP3 DUP8 ADD PUSH2 0x3EDA JUMP JUMPDEST SWAP4 POP POP PUSH1 0x20 PUSH2 0x46C2 DUP7 DUP3 DUP8 ADD PUSH2 0x4135 JUMP JUMPDEST SWAP3 POP POP PUSH1 0x40 DUP5 ADD CALLDATALOAD PUSH8 0xFFFFFFFFFFFFFFFF DUP2 GT ISZERO PUSH2 0x46E3 JUMPI PUSH2 0x46E2 PUSH2 0x3D8E JUMP JUMPDEST JUMPDEST PUSH2 0x46EF DUP7 DUP3 DUP8 ADD PUSH2 0x3FFD JUMP JUMPDEST SWAP2 POP POP SWAP3 POP SWAP3 POP SWAP3 JUMP JUMPDEST PUSH2 0x4702 DUP2 PUSH2 0x3E17 JUMP JUMPDEST DUP2 EQ PUSH2 0x470C JUMPI PUSH0 DUP1 REVERT JUMPDEST POP JUMP JUMPDEST PUSH0 DUP2 CALLDATALOAD SWAP1 POP PUSH2 0x471D DUP2 PUSH2 0x46F9 JUMP JUMPDEST SWAP3 SWAP2 POP POP JUMP JUMPDEST PUSH0 DUP1 PUSH0 DUP1 PUSH1 0x80 DUP6 DUP8 SUB SLT ISZERO PUSH2 0x473B JUMPI PUSH2 0x473A PUSH2 0x3D8A JUMP JUMPDEST JUMPDEST PUSH0 PUSH2 0x4748 DUP8 DUP3 DUP9 ADD PUSH2 0x4135 JUMP JUMPDEST SWAP5 POP POP PUSH1 0x20 PUSH2 0x4759 DUP8 DUP3 DUP9 ADD PUSH2 0x3EDA JUMP JUMPDEST SWAP4 POP POP PUSH1 0x40 PUSH2 0x476A DUP8 DUP3 DUP9 ADD PUSH2 0x3EA4 JUMP JUMPDEST SWAP3 POP POP PUSH1 0x60 PUSH2 0x477B DUP8 DUP3 DUP9 ADD PUSH2 0x470F JUMP JUMPDEST SWAP2 POP POP SWAP3 SWAP6 SWAP2 SWAP5 POP SWAP3 POP JUMP JUMPDEST PUSH0 DUP1 PUSH0 PUSH1 0x60 DUP5 DUP7 SUB SLT ISZERO PUSH2 0x479E JUMPI PUSH2 0x479D PUSH2 0x3D8A JUMP JUMPDEST JUMPDEST PUSH0 PUSH2 0x47AB DUP7 DUP3 DUP8 ADD PUSH2 0x4135 JUMP JUMPDEST SWAP4 POP POP PUSH1 0x20 PUSH2 0x47BC DUP7 DUP3 DUP8 ADD PUSH2 0x3EDA JUMP JUMPDEST SWAP3 POP POP PUSH1 0x40 PUSH2 0x47CD DUP7 DUP3 DUP8 ADD PUSH2 0x4135 JUMP JUMPDEST SWAP2 POP POP SWAP3 POP SWAP3 POP SWAP3 JUMP JUMPDEST PUSH0 DUP1 PUSH1 0x40 DUP4 DUP6 SUB SLT ISZERO PUSH2 0x47ED JUMPI PUSH2 0x47EC PUSH2 0x3D8A JUMP JUMPDEST JUMPDEST PUSH0 PUSH2 0x47FA DUP6 DUP3 DUP7 ADD PUSH2 0x3EDA JUMP JUMPDEST SWAP3 POP POP PUSH1 0x20 PUSH2 0x480B DUP6 DUP3 DUP7 ADD PUSH2 0x4135 JUMP JUMPDEST SWAP2 POP POP SWAP3 POP SWAP3 SWAP1 POP JUMP JUMPDEST PUSH0 DUP2 MLOAD SWAP1 POP PUSH2 0x4823 DUP2 PUSH2 0x3E8E JUMP JUMPDEST SWAP3 SWAP2 POP POP JUMP JUMPDEST PUSH0 PUSH1 0x20 DUP3 DUP5 SUB SLT ISZERO PUSH2 0x483E JUMPI PUSH2 0x483D PUSH2 0x3D8A JUMP JUMPDEST JUMPDEST PUSH0 PUSH2 0x484B DUP5 DUP3 DUP6 ADD PUSH2 0x4815 JUMP JUMPDEST SWAP2 POP POP SWAP3 SWAP2 POP POP JUMP JUMPDEST PUSH32 0x4E487B7100000000000000000000000000000000000000000000000000000000 PUSH0 MSTORE PUSH1 0x11 PUSH1 0x4 MSTORE PUSH1 0x24 PUSH0 REVERT JUMPDEST PUSH0 PUSH2 0x488B DUP3 PUSH2 0x3E85 JUMP JUMPDEST SWAP2 POP PUSH2 0x4896 DUP4 PUSH2 0x3E85 JUMP JUMPDEST SWAP3 POP DUP3 DUP3 ADD SWAP1 POP DUP1 DUP3 GT ISZERO PUSH2 0x48AE JUMPI PUSH2 0x48AD PUSH2 0x4854 JUMP JUMPDEST JUMPDEST SWAP3 SWAP2 POP POP JUMP JUMPDEST PUSH32 0x4E487B7100000000000000000000000000000000000000000000000000000000 PUSH0 MSTORE PUSH1 0x22 PUSH1 0x4 MSTORE PUSH1 0x24 PUSH0 REVERT JUMPDEST PUSH0 PUSH1 0x2 DUP3 DIV SWAP1 POP PUSH1 0x1 DUP3 AND DUP1 PUSH2 0x48F8 JUMPI PUSH1 0x7F DUP3 AND SWAP2 POP JUMPDEST PUSH1 0x20 DUP3 LT DUP2 SUB PUSH2 0x490B JUMPI PUSH2 0x490A PUSH2 0x48B4 JUMP JUMPDEST JUMPDEST POP SWAP2 SWAP1 POP JUMP JUMPDEST PUSH0 DUP2 SWAP1 POP DUP2 PUSH0 MSTORE PUSH1 0x20 PUSH0 KECCAK256 SWAP1 POP SWAP2 SWAP1 POP JUMP JUMPDEST PUSH0 PUSH1 0x20 PUSH1 0x1F DUP4 ADD DIV SWAP1 POP SWAP2 SWAP1 POP JUMP JUMPDEST PUSH0 DUP3 DUP3 SHL SWAP1 POP SWAP3 SWAP2 POP POP JUMP JUMPDEST PUSH0 PUSH1 0x8 DUP4 MUL PUSH2 0x496D PUSH32 0xFFFFFFFFFFFFFFFFFFFFFFFFFFFFFFFFFFFFFFFFFFFFFFFFFFFFFFFFFFFFFFFF DUP3 PUSH2 0x4932 JUMP JUMPDEST PUSH2 0x4977 DUP7 DUP4 PUSH2 0x4932 JUMP JUMPDEST SWAP6 POP DUP1 NOT DUP5 AND SWAP4 POP DUP1 DUP7 AND DUP5 OR SWAP3 POP POP POP SWAP4 SWAP3 POP POP POP JUMP JUMPDEST PUSH0 DUP2 SWAP1 POP SWAP2 SWAP1 POP JUMP JUMPDEST PUSH0 PUSH2 0x49B2 PUSH2 0x49AD PUSH2 0x49A8 DUP5 PUSH2 0x3E85 JUMP JUMPDEST PUSH2 0x498F JUMP JUMPDEST PUSH2 0x3E85 JUMP JUMPDEST SWAP1 POP SWAP2 SWAP1 POP JUMP JUMPDEST PUSH0 DUP2 SWAP1 POP SWAP2 SWAP1 POP JUMP JUMPDEST PUSH2 0x49CB DUP4 PUSH2 0x4998 JUMP JUMPDEST PUSH2 0x49DF PUSH2 0x49D7 DUP3 PUSH2 0x49B9 JUMP JUMPDEST DUP5 DUP5 SLOAD PUSH2 0x493E JUMP JUMPDEST DUP3 SSTORE POP POP POP POP JUMP JUMPDEST PUSH0 SWAP1 JUMP JUMPDEST PUSH2 0x49F3 PUSH2 0x49E7 JUMP JUMPDEST PUSH2 0x49FE DUP2 DUP5 DUP5 PUSH2 0x49C2 JUMP JUMPDEST POP POP POP JUMP JUMPDEST JUMPDEST DUP2 DUP2 LT ISZERO PUSH2 0x4A21 JUMPI PUSH2 0x4A16 PUSH0 DUP3 PUSH2 0x49EB JUMP JUMPDEST PUSH1 0x1 DUP2 ADD SWAP1 POP PUSH2 0x4A04 JUMP JUMPDEST POP POP JUMP JUMPDEST PUSH1 0x1F DUP3 GT ISZERO PUSH2 0x4A66 JUMPI PUSH2 0x4A37 DUP2 PUSH2 0x4911 JUMP JUMPDEST PUSH2 0x4A40 DUP5 PUSH2 0x4923 JUMP JUMPDEST DUP2 ADD PUSH1 0x20 DUP6 LT ISZERO PUSH2 0x4A4F JUMPI DUP2 SWAP1 POP JUMPDEST PUSH2 0x4A63 PUSH2 0x4A5B DUP6 PUSH2 0x4923 JUMP JUMPDEST DUP4 ADD DUP3 PUSH2 0x4A03 JUMP JUMPDEST POP POP JUMPDEST POP POP POP JUMP JUMPDEST PUSH0 DUP3 DUP3 SHR SWAP1 POP SWAP3 SWAP2 POP POP JUMP JUMPDEST PUSH0 PUSH2 0x4A86 PUSH0 NOT DUP5 PUSH1 0x8 MUL PUSH2 0x4A6B JUMP JUMPDEST NOT DUP1 DUP4 AND SWAP2 POP POP SWAP3 SWAP2 POP POP JUMP JUMPDEST PUSH0 PUSH2 0x4A9E DUP4 DUP4 PUSH2 0x4A77 JUMP JUMPDEST SWAP2 POP DUP3 PUSH1 0x2 MUL DUP3 OR SWAP1 POP SWAP3 SWAP2 POP POP JUMP JUMPDEST PUSH2 0x4AB7 DUP3 PUSH2 0x421F JUMP JUMPDEST PUSH8 0xFFFFFFFFFFFFFFFF DUP2 GT ISZERO PUSH2 0x4AD0 JUMPI PUSH2 0x4ACF PUSH2 0x3F06 JUMP JUMPDEST JUMPDEST PUSH2 0x4ADA DUP3 SLOAD PUSH2 0x48E1 JUMP JUMPDEST PUSH2 0x4AE5 DUP3 DUP3 DUP6 PUSH2 0x4A25 JUMP JUMPDEST PUSH0 PUSH1 0x20 SWAP1 POP PUSH1 0x1F DUP4 GT PUSH1 0x1 DUP2 EQ PUSH2 0x4B16 JUMPI PUSH0 DUP5 ISZERO PUSH2 0x4B04 JUMPI DUP3 DUP8 ADD MLOAD SWAP1 POP JUMPDEST PUSH2 0x4B0E DUP6 DUP3 PUSH2 0x4A93 JUMP JUMPDEST DUP7 SSTORE POP PUSH2 0x4B75 JUMP JUMPDEST PUSH1 0x1F NOT DUP5 AND PUSH2 0x4B24 DUP7 PUSH2 0x4911 JUMP JUMPDEST PUSH0 JUMPDEST DUP3 DUP2 LT ISZERO PUSH2 0x4B4B JUMPI DUP5 DUP10 ADD MLOAD DUP3 SSTORE PUSH1 0x1 DUP3 ADD SWAP2 POP PUSH1 0x20 DUP6 ADD SWAP5 POP PUSH1 0x20 DUP2 ADD SWAP1 POP PUSH2 0x4B26 JUMP JUMPDEST DUP7 DUP4 LT ISZERO PUSH2 0x4B68 JUMPI DUP5 DUP10 ADD MLOAD PUSH2 0x4B64 PUSH1 0x1F DUP10 AND DUP3 PUSH2 0x4A77 JUMP JUMPDEST DUP4 SSTORE POP JUMPDEST PUSH1 0x1 PUSH1 0x2 DUP9 MUL ADD DUP9 SSTORE POP POP POP JUMPDEST POP POP POP POP POP POP JUMP JUMPDEST PUSH2 0x4B86 DUP2 PUSH2 0x4110 JUMP JUMPDEST DUP3 MSTORE POP POP JUMP JUMPDEST PUSH0 PUSH1 0xA0 DUP3 ADD SWAP1 POP PUSH2 0x4B9F PUSH0 DUP4 ADD DUP9 PUSH2 0x40E8 JUMP JUMPDEST DUP2 DUP2 SUB PUSH1 0x20 DUP4 ADD MSTORE PUSH2 0x4BB1 DUP2 DUP8 PUSH2 0x4473 JUMP JUMPDEST SWAP1 POP PUSH2 0x4BC0 PUSH1 0x40 DUP4 ADD DUP7 PUSH2 0x45E6 JUMP JUMPDEST PUSH2 0x4BCD PUSH1 0x60 DUP4 ADD DUP6 PUSH2 0x4B7D JUMP JUMPDEST PUSH2 0x4BDA PUSH1 0x80 DUP4 ADD DUP5 PUSH2 0x4B7D JUMP JUMPDEST SWAP7 SWAP6 POP POP POP POP POP POP JUMP JUMPDEST PUSH32 0x4E487B7100000000000000000000000000000000000000000000000000000000 PUSH0 MSTORE PUSH1 0x32 PUSH1 0x4 MSTORE PUSH1 0x24 PUSH0 REVERT JUMPDEST PUSH0 DUP2 SLOAD PUSH2 0x4C1D DUP2 PUSH2 0x48E1 JUMP JUMPDEST PUSH2 0x4C27 DUP2 DUP7 PUSH2 0x4463 JUMP JUMPDEST SWAP5 POP PUSH1 0x1 DUP3 AND PUSH0 DUP2 EQ PUSH2 0x4C41 JUMPI PUSH1 0x1 DUP2 EQ PUSH2 0x4C57 JUMPI PUSH2 0x4C89 JUMP JUMPDEST PUSH1 0xFF NOT DUP4 AND DUP7 MSTORE DUP2 ISZERO ISZERO PUSH1 0x20 MUL DUP7 ADD SWAP4 POP PUSH2 0x4C89 JUMP JUMPDEST PUSH2 0x4C60 DUP6 PUSH2 0x4911 JUMP JUMPDEST PUSH0 JUMPDEST DUP4 DUP2 LT ISZERO PUSH2 0x4C81 JUMPI DUP2 SLOAD DUP2 DUP10 ADD MSTORE PUSH1 0x1 DUP3 ADD SWAP2 POP PUSH1 0x20 DUP2 ADD SWAP1 POP PUSH2 0x4C62 JUMP JUMPDEST DUP1 DUP9 ADD SWAP6 POP POP POP JUMPDEST POP POP POP SWAP3 SWAP2 POP POP JUMP JUMPDEST PUSH0 PUSH1 0x80 DUP3 ADD SWAP1 POP PUSH2 0x4CA5 PUSH0 DUP4 ADD DUP8 PUSH2 0x40E8 JUMP JUMPDEST DUP2 DUP2 SUB PUSH1 0x20 DUP4 ADD MSTORE PUSH2 0x4CB7 DUP2 DUP7 PUSH2 0x4C11 JUMP JUMPDEST SWAP1 POP PUSH2 0x4CC6 PUSH1 0x40 DUP4 ADD DUP6 PUSH2 0x45E6 JUMP JUMPDEST PUSH2 0x4CD3 PUSH1 0x60 DUP4 ADD DUP5 PUSH2 0x4B7D JUMP JUMPDEST SWAP6 SWAP5 POP POP POP POP POP JUMP JUMPDEST PUSH0 PUSH1 0x20 DUP3 ADD SWAP1 POP PUSH2 0x4CEF PUSH0 DUP4 ADD DUP5 PUSH2 0x4B7D JUMP JUMPDEST SWAP3 SWAP2 POP POP JUMP JUMPDEST PUSH0 PUSH2 0x4CFF DUP3 PUSH2 0x3E85 JUMP JUMPDEST SWAP2 POP PUSH2 0x4D0A DUP4 PUSH2 0x3E85 JUMP JUMPDEST SWAP3 POP DUP3 DUP3 SUB SWAP1 POP DUP2 DUP2 GT ISZERO PUSH2 0x4D22 JUMPI PUSH2 0x4D21 PUSH2 0x4854 JUMP JUMPDEST JUMPDEST SWAP3 SWAP2 POP POP JUMP JUMPDEST PUSH0 DUP2 SLOAD SWAP1 POP PUSH2 0x4D36 DUP2 PUSH2 0x48E1 JUMP JUMPDEST SWAP1 POP SWAP2 SWAP1 POP JUMP JUMPDEST DUP2 DUP2 SUB PUSH2 0x4D4B JUMPI POP POP PUSH2 0x4E20 JUMP JUMPDEST PUSH2 0x4D54 DUP3 PUSH2 0x4D28 JUMP JUMPDEST PUSH8 0xFFFFFFFFFFFFFFFF DUP2 GT ISZERO PUSH2 0x4D6D JUMPI PUSH2 0x4D6C PUSH2 0x3F06 JUMP JUMPDEST JUMPDEST PUSH2 0x4D77 DUP3 SLOAD PUSH2 0x48E1 JUMP JUMPDEST PUSH2 0x4D82 DUP3 DUP3 DUP6 PUSH2 0x4A25 JUMP JUMPDEST PUSH0 PUSH1 0x1F DUP4 GT PUSH1 0x1 DUP2 EQ PUSH2 0x4DAF JUMPI PUSH0 DUP5 ISZERO PUSH2 0x4D9D JUMPI DUP3 DUP8 ADD SLOAD SWAP1 POP JUMPDEST PUSH2 0x4DA7 DUP6 DUP3 PUSH2 0x4A93 JUMP JUMPDEST DUP7 SSTORE POP PUSH2 0x4E19 JUMP JUMPDEST PUSH1 0x1F NOT DUP5 AND PUSH2 0x4DBD DUP8 PUSH2 0x4911 JUMP JUMPDEST SWAP7 POP PUSH2 0x4DC8 DUP7 PUSH2 0x4911 JUMP JUMPDEST PUSH0 JUMPDEST DUP3 DUP2 LT ISZERO PUSH2 0x4DEF JUMPI DUP5 DUP10 ADD SLOAD DUP3 SSTORE PUSH1 0x1 DUP3 ADD SWAP2 POP PUSH1 0x1 DUP6 ADD SWAP5 POP PUSH1 0x20 DUP2 ADD SWAP1 POP PUSH2 0x4DCA JUMP JUMPDEST DUP7 DUP4 LT ISZERO PUSH2 0x4E0C JUMPI DUP5 DUP10 ADD SLOAD PUSH2 0x4E08 PUSH1 0x1F DUP10 AND DUP3 PUSH2 0x4A77 JUMP JUMPDEST DUP4 SSTORE POP JUMPDEST PUSH1 0x1 PUSH1 0x2 DUP9 MUL ADD DUP9 SSTORE POP POP POP JUMPDEST POP POP POP POP POP POP JUMPDEST JUMP JUMPDEST PUSH32 0x4E487B7100000000000000000000000000000000000000000000000000000000 PUSH0 MSTORE PUSH1 0x31 PUSH1 0x4 MSTORE PUSH1 0x24 PUSH0 REVERT JUMPDEST PUSH0 PUSH1 0x60 DUP3 ADD SWAP1 POP PUSH2 0x4E62 PUSH0 DUP4 ADD DUP7 PUSH2 0x45E6 JUMP JUMPDEST PUSH2 0x4E6F PUSH1 0x20 DUP4 ADD DUP6 PUSH2 0x45E6 JUMP JUMPDEST PUSH2 0x4E7C PUSH1 0x40 DUP4 ADD DUP5 PUSH2 0x4B7D JUMP JUMPDEST SWAP5 SWAP4 POP POP POP POP JUMP JUMPDEST PUSH0 PUSH1 0x40 DUP3 ADD SWAP1 POP PUSH2 0x4E97 PUSH0 DUP4 ADD DUP6 PUSH2 0x4454 JUMP JUMPDEST PUSH2 0x4EA4 PUSH1 0x20 DUP4 ADD DUP5 PUSH2 0x4454 JUMP JUMPDEST SWAP4 SWAP3 POP POP POP JUMP JUMPDEST PUSH0 PUSH1 0x20 DUP3 ADD SWAP1 POP DUP2 DUP2 SUB PUSH0 DUP4 ADD MSTORE PUSH2 0x4EC3 DUP2 DUP5 PUSH2 0x4C11 JUMP JUMPDEST SWAP1 POP SWAP3 SWAP2 POP POP JUMP JUMPDEST PUSH0 PUSH1 0xA0 DUP3 ADD SWAP1 POP PUSH2 0x4EDE PUSH0 DUP4 ADD DUP9 PUSH2 0x40E8 JUMP JUMPDEST PUSH2 0x4EEB PUSH1 0x20 DUP4 ADD DUP8 PUSH2 0x45E6 JUMP JUMPDEST PUSH2 0x4EF8 PUSH1 0x40 DUP4 ADD DUP7 PUSH2 0x45E6 JUMP JUMPDEST PUSH2 0x4F05 PUSH1 0x60 DUP4 ADD DUP6 PUSH2 0x45E6 JUMP JUMPDEST PUSH2 0x4F12 PUSH1 0x80 DUP4 ADD DUP5 PUSH2 0x45E6 JUMP JUMPDEST SWAP7 SWAP6 POP POP POP POP POP POP JUMP JUMPDEST PUSH0 PUSH1 0x60 DUP3 ADD SWAP1 POP DUP2 DUP2 SUB PUSH0 DUP4 ADD MSTORE PUSH2 0x4F34 DUP2 DUP7 PUSH2 0x4473 JUMP JUMPDEST SWAP1 POP PUSH2 0x4F43 PUSH1 0x20 DUP4 ADD DUP6 PUSH2 0x45E6 JUMP JUMPDEST PUSH2 0x4F50 PUSH1 0x40 DUP4 ADD DUP5 PUSH2 0x45E6 JUMP JUMPDEST SWAP5 SWAP4 POP POP POP POP JUMP JUMPDEST PUSH0 DUP2 SWAP1 POP SWAP3 SWAP2 POP POP JUMP JUMPDEST POP JUMP JUMPDEST PUSH0 PUSH2 0x4F70 PUSH0 DUP4 PUSH2 0x4F58 JUMP JUMPDEST SWAP2 POP PUSH2 0x4F7B DUP3 PUSH2 0x4F62 JUMP JUMPDEST PUSH0 DUP3 ADD SWAP1 POP SWAP2 SWAP1 POP JUMP JUMPDEST PUSH0 PUSH2 0x4F8F DUP3 PUSH2 0x4F65 JUMP JUMPDEST SWAP2 POP DUP2 SWAP1 POP SWAP2 SWAP1 POP JUMP JUMPDEST PUSH0 PUSH1 0x80 DUP3 ADD SWAP1 POP PUSH2 0x4FAC PUSH0 DUP4 ADD DUP8 PUSH2 0x45E6 JUMP JUMPDEST PUSH2 0x4FB9 PUSH1 0x20 DUP4 ADD DUP7 PUSH2 0x4B7D JUMP JUMPDEST DUP2 DUP2 SUB PUSH1 0x40 DUP4 ADD MSTORE PUSH2 0x4FCB DUP2 DUP6 PUSH2 0x4C11 JUMP JUMPDEST SWAP1 POP PUSH2 0x4FDA PUSH1 0x60 DUP4 ADD DUP5 PUSH2 0x4B7D JUMP JUMPDEST SWAP6 SWAP5 POP POP POP POP POP JUMP JUMPDEST PUSH0 PUSH1 0x60 DUP3 ADD SWAP1 POP PUSH2 0x4FF6 PUSH0 DUP4 ADD DUP7 PUSH2 0x4454 JUMP JUMPDEST PUSH2 0x5003 PUSH1 0x20 DUP4 ADD DUP6 PUSH2 0x4454 JUMP JUMPDEST PUSH2 0x5010 PUSH1 0x40 DUP4 ADD DUP5 PUSH2 0x40E8 JUMP JUMPDEST SWAP5 SWAP4 POP POP POP POP JUMP JUMPDEST PUSH0 PUSH1 0x40 DUP3 ADD SWAP1 POP PUSH2 0x502B PUSH0 DUP4 ADD DUP6 PUSH2 0x4454 JUMP JUMPDEST PUSH2 0x5038 PUSH1 0x20 DUP4 ADD DUP5 PUSH2 0x40E8 JUMP JUMPDEST SWAP4 SWAP3 POP POP POP JUMP INVALID LOG2 PUSH5 0x6970667358 0x22 SLT KECCAK256 NUMBER 0xD 0xC6 PUSH8 0x437B1BD774D77392 BLOCKHASH 0xC3 SWAP6 0xD1 PUSH1 0x10 LOG1 0x4C SAR OR MCOPY CREATE2 0xDC DUP14 SLOAD BASEFEE STOP 0x25 SWAP6 MSTORE PUSH5 0x736F6C6343 STOP ADDMOD BYTE STOP CALLER "
		},
		"gasEstimates": {
			"creation": {
				"codeDepositCost": "4119400",
				"executionCost": "infinite",
				"totalCost": "infinite"
			},
			"external": {
				"MAX_LOCKDURATION()": "infinite",
				"MAX_SUB_VAULTS()": "infinite",
				"MAX_VAULTS()": "infinite",
				"addToLockedETH(uint8,uint32)": "infinite",
				"addToLockedTokens(address,uint32,uint256,uint8)": "infinite",
				"blackListToken(address)": "infinite",
				"blackListedToken(address)": "2857",
				"deleteVault(uint8,uint8)": "infinite",
				"extendLockPeriod(uint32,uint8,uint32)": "infinite",
				"getContractETHBalance()": "401",
				"getContractTokenBalance(address)": "infinite",
				"getUserLocks(uint8)": "infinite",
				"lockETH(uint8,uint32,string)": "infinite",
				"lockToken(address,uint256,uint8,uint256,string)": "infinite",
				"owner()": "2604",
				"pauseContract()": "infinite",
				"paused()": "2534",
				"renameVault(uint8,uint8,string)": "infinite",
				"renounceOwnership()": "infinite",
				"transferAsset(uint256,uint8,uint8,uint8,uint8)": "infinite",
				"transferOwnership(address)": "infinite",
				"unBlackListToken(address)": "infinite",
				"unPauseContract()": "infinite",
				"userLockedAssets(address,uint8,uint256)": "infinite",
				"userTransactions(address,uint8,uint256)": "infinite",
				"withdrawAsset(uint32,uint8,uint256,bool)": "infinite"
			},
			"internal": {
				"recordTransac(address,uint8,uint256,string memory,bool)": "infinite"
			}
		},
		"methodIdentifiers": {
			"MAX_LOCKDURATION()": "f6d121c9",
			"MAX_SUB_VAULTS()": "87f15742",
			"MAX_VAULTS()": "b6eaea17",
			"addToLockedETH(uint8,uint32)": "ecaa9d05",
			"addToLockedTokens(address,uint32,uint256,uint8)": "2d8fefc2",
			"blackListToken(address)": "7fe0509f",
			"blackListedToken(address)": "07f0a301",
			"deleteVault(uint8,uint8)": "43cadc60",
			"extendLockPeriod(uint32,uint8,uint32)": "df68075a",
			"getContractETHBalance()": "8c89a0ad",
			"getContractTokenBalance(address)": "14205e28",
			"getUserLocks(uint8)": "3b958c38",
			"lockETH(uint8,uint32,string)": "9d41beef",
			"lockToken(address,uint256,uint8,uint256,string)": "0f1419b5",
			"owner()": "8da5cb5b",
			"pauseContract()": "439766ce",
			"paused()": "5c975abb",
			"renameVault(uint8,uint8,string)": "7dd9035b",
			"renounceOwnership()": "715018a6",
			"transferAsset(uint256,uint8,uint8,uint8,uint8)": "6a0afa45",
			"transferOwnership(address)": "f2fde38b",
			"unBlackListToken(address)": "65994f8d",
			"unPauseContract()": "bac15203",
			"userLockedAssets(address,uint8,uint256)": "8e06b906",
			"userTransactions(address,uint8,uint256)": "60864eed",
			"withdrawAsset(uint32,uint8,uint256,bool)": "bf9b9ded"
		}
	},
	"abi": [
		{
			"inputs": [],
			"stateMutability": "nonpayable",
			"type": "constructor"
		},
		{
			"inputs": [],
			"name": "AmountBeGreaterThan0",
			"type": "error"
		},
		{
			"inputs": [],
			"name": "ContractNotpaused",
			"type": "error"
		},
		{
			"inputs": [],
			"name": "ContractPausedAlready",
			"type": "error"
		},
		{
			"inputs": [],
			"name": "ETHTransferFailed",
			"type": "error"
		},
		{
			"inputs": [
				{
					"internalType": "address",
					"name": "token",
					"type": "address"
				}
			],
			"name": "InadequateTokenBalance",
			"type": "error"
		},
		{
			"inputs": [],
			"name": "InvalidAssetID",
			"type": "error"
		},
		{
			"inputs": [],
			"name": "InvalidLockPeriod",
			"type": "error"
		},
		{
			"inputs": [
				{
					"internalType": "address",
					"name": "token",
					"type": "address"
				}
			],
			"name": "InvalidTokenAddress",
			"type": "error"
		},
		{
			"inputs": [],
			"name": "InvalidVaultNumber",
			"type": "error"
		},
		{
			"inputs": [],
			"name": "LockPeriodExpired",
			"type": "error"
		},
		{
			"inputs": [],
			"name": "LockPeriodNotExpired",
			"type": "error"
		},
		{
			"inputs": [],
			"name": "LockPeriodNotExpiredOrGoalNotReached",
			"type": "error"
		},
		{
			"inputs": [
				{
					"internalType": "address",
					"name": "asset",
					"type": "address"
				}
			],
			"name": "NotEnoughToWithdraw",
			"type": "error"
		},
		{
			"inputs": [
				{
					"internalType": "address",
					"name": "owner",
					"type": "address"
				}
			],
			"name": "OwnableInvalidOwner",
			"type": "error"
		},
		{
			"inputs": [
				{
					"internalType": "address",
					"name": "account",
					"type": "address"
				}
			],
			"name": "OwnableUnauthorizedAccount",
			"type": "error"
		},
		{
			"inputs": [],
			"name": "ReentrancyGuardReentrantCall",
			"type": "error"
		},
		{
			"inputs": [
				{
					"internalType": "address",
					"name": "token",
					"type": "address"
				}
			],
			"name": "SafeERC20FailedOperation",
			"type": "error"
		},
		{
			"inputs": [
				{
					"internalType": "string",
					"name": "title",
					"type": "string"
				}
			],
			"name": "SubVaultNotLocked",
			"type": "error"
		},
		{
			"inputs": [
				{
					"internalType": "string",
					"name": "title",
					"type": "string"
				}
			],
			"name": "SubVaultStillLocked",
			"type": "error"
		},
		{
			"inputs": [
				{
					"internalType": "address",
					"name": "from",
					"type": "address"
				},
				{
					"internalType": "address",
					"name": "to",
					"type": "address"
				}
			],
			"name": "TokenAddressesDontMatch",
			"type": "error"
		},
		{
			"inputs": [
				{
					"internalType": "address",
					"name": "token",
					"type": "address"
				}
			],
			"name": "TokenIsBlackListed",
			"type": "error"
		},
		{
			"inputs": [
				{
					"internalType": "address",
					"name": "token",
					"type": "address"
				}
			],
			"name": "TokenIsNotBlackListed",
			"type": "error"
		},
		{
			"inputs": [],
			"name": "VaultHasBeenWithdrawn",
			"type": "error"
		},
		{
			"inputs": [],
			"name": "VaultIsFull",
			"type": "error"
		},
		{
			"anonymous": false,
			"inputs": [
				{
					"indexed": true,
					"internalType": "address",
					"name": "token",
					"type": "address"
				},
				{
					"indexed": false,
					"internalType": "uint256",
					"name": "amount",
					"type": "uint256"
				},
				{
					"indexed": false,
					"internalType": "string",
					"name": "title",
					"type": "string"
				},
				{
					"indexed": false,
					"internalType": "uint8",
					"name": "vault",
					"type": "uint8"
				},
				{
					"indexed": false,
					"internalType": "uint32",
					"name": "timestamp",
					"type": "uint32"
				}
			],
			"name": "AssetAdded",
			"type": "event"
		},
		{
			"anonymous": false,
			"inputs": [
				{
					"indexed": true,
					"internalType": "address",
					"name": "token",
					"type": "address"
				},
				{
					"indexed": false,
					"internalType": "uint256",
					"name": "amount",
					"type": "uint256"
				},
				{
					"indexed": false,
					"internalType": "string",
					"name": "title",
					"type": "string"
				},
				{
					"indexed": false,
					"internalType": "uint8",
					"name": "vault",
					"type": "uint8"
				},
				{
					"indexed": false,
					"internalType": "uint32",
					"name": "lockEndTime",
					"type": "uint32"
				},
				{
					"indexed": false,
					"internalType": "uint32",
					"name": "timestamp",
					"type": "uint32"
				}
			],
			"name": "AssetLocked",
			"type": "event"
		},
		{
			"anonymous": false,
			"inputs": [
				{
					"indexed": true,
					"internalType": "address",
					"name": "token",
					"type": "address"
				},
				{
					"indexed": false,
					"internalType": "uint256",
					"name": "amount",
					"type": "uint256"
				},
				{
					"indexed": false,
					"internalType": "string",
					"name": "title",
					"type": "string"
				},
				{
					"indexed": false,
					"internalType": "uint8",
					"name": "vault",
					"type": "uint8"
				},
				{
					"indexed": false,
					"internalType": "uint32",
					"name": "timestamp",
					"type": "uint32"
				}
			],
			"name": "AssetWithdrawn",
			"type": "event"
		},
		{
			"anonymous": false,
			"inputs": [
				{
					"indexed": true,
					"internalType": "address",
					"name": "token",
					"type": "address"
				}
			],
			"name": "BlackListed",
			"type": "event"
		},
		{
			"anonymous": false,
			"inputs": [
				{
					"indexed": false,
					"internalType": "uint32",
					"name": "timestamp",
					"type": "uint32"
				}
			],
			"name": "ContractPaused",
			"type": "event"
		},
		{
			"anonymous": false,
			"inputs": [
				{
					"indexed": false,
					"internalType": "uint32",
					"name": "timestamp",
					"type": "uint32"
				}
			],
			"name": "ContractUnpaused",
			"type": "event"
		},
		{
			"anonymous": false,
			"inputs": [
				{
					"indexed": true,
					"internalType": "address",
					"name": "token",
					"type": "address"
				},
				{
					"indexed": false,
					"internalType": "uint8",
					"name": "vault",
					"type": "uint8"
				},
				{
					"indexed": false,
					"internalType": "uint32",
					"name": "lockperiod",
					"type": "uint32"
				},
				{
					"indexed": false,
					"internalType": "string",
					"name": "title",
					"type": "string"
				},
				{
					"indexed": false,
					"internalType": "uint32",
					"name": "timestamp",
					"type": "uint32"
				}
			],
			"name": "LockPeriodExtended",
			"type": "event"
		},
		{
			"anonymous": false,
			"inputs": [
				{
					"indexed": true,
					"internalType": "address",
					"name": "previousOwner",
					"type": "address"
				},
				{
					"indexed": true,
					"internalType": "address",
					"name": "newOwner",
					"type": "address"
				}
			],
			"name": "OwnershipTransferred",
			"type": "event"
		},
		{
			"anonymous": false,
			"inputs": [
				{
					"indexed": false,
					"internalType": "string",
					"name": "newtitle",
					"type": "string"
				},
				{
					"indexed": false,
					"internalType": "uint8",
					"name": "assetID",
					"type": "uint8"
				},
				{
					"indexed": false,
					"internalType": "uint8",
					"name": "vault",
					"type": "uint8"
				}
			],
			"name": "RenameVault",
			"type": "event"
		},
		{
			"anonymous": false,
			"inputs": [
				{
					"indexed": true,
					"internalType": "address",
					"name": "token",
					"type": "address"
				},
				{
					"indexed": false,
					"internalType": "uint256",
					"name": "amount",
					"type": "uint256"
				},
				{
					"indexed": false,
					"internalType": "uint8",
					"name": "fromVault",
					"type": "uint8"
				},
				{
					"indexed": false,
					"internalType": "uint8",
					"name": "fromAssetID",
					"type": "uint8"
				},
				{
					"indexed": false,
					"internalType": "uint8",
					"name": "toVault",
					"type": "uint8"
				},
				{
					"indexed": false,
					"internalType": "uint8",
					"name": "toAssetID",
					"type": "uint8"
				}
			],
			"name": "TransferAsset",
			"type": "event"
		},
		{
			"anonymous": false,
			"inputs": [
				{
					"indexed": true,
					"internalType": "address",
					"name": "token",
					"type": "address"
				}
			],
			"name": "UnBlackListed",
			"type": "event"
		},
		{
			"anonymous": false,
			"inputs": [
				{
					"indexed": false,
					"internalType": "uint8",
					"name": "vault",
					"type": "uint8"
				},
				{
					"indexed": false,
					"internalType": "uint8",
					"name": "assetID",
					"type": "uint8"
				},
				{
					"indexed": false,
					"internalType": "uint32",
					"name": "timestamp",
					"type": "uint32"
				}
			],
			"name": "VaultDeleted",
			"type": "event"
		},
		{
			"inputs": [],
			"name": "MAX_LOCKDURATION",
			"outputs": [
				{
					"internalType": "uint256",
					"name": "",
					"type": "uint256"
				}
			],
			"stateMutability": "view",
			"type": "function"
		},
		{
			"inputs": [],
			"name": "MAX_SUB_VAULTS",
			"outputs": [
				{
					"internalType": "uint8",
					"name": "",
					"type": "uint8"
				}
			],
			"stateMutability": "view",
			"type": "function"
		},
		{
			"inputs": [],
			"name": "MAX_VAULTS",
			"outputs": [
				{
					"internalType": "uint8",
					"name": "",
					"type": "uint8"
				}
			],
			"stateMutability": "view",
			"type": "function"
		},
		{
			"inputs": [
				{
					"internalType": "uint8",
					"name": "_vault",
					"type": "uint8"
				},
				{
					"internalType": "uint32",
					"name": "_assetID",
					"type": "uint32"
				}
			],
			"name": "addToLockedETH",
			"outputs": [],
			"stateMutability": "payable",
			"type": "function"
		},
		{
			"inputs": [
				{
					"internalType": "contract IERC20",
					"name": "_token",
					"type": "address"
				},
				{
					"internalType": "uint32",
					"name": "_assetID",
					"type": "uint32"
				},
				{
					"internalType": "uint256",
					"name": "_amount",
					"type": "uint256"
				},
				{
					"internalType": "uint8",
					"name": "_vault",
					"type": "uint8"
				}
			],
			"name": "addToLockedTokens",
			"outputs": [],
			"stateMutability": "nonpayable",
			"type": "function"
		},
		{
			"inputs": [
				{
					"internalType": "contract IERC20",
					"name": "_token",
					"type": "address"
				}
			],
			"name": "blackListToken",
			"outputs": [],
			"stateMutability": "nonpayable",
			"type": "function"
		},
		{
			"inputs": [
				{
					"internalType": "address",
					"name": "",
					"type": "address"
				}
			],
			"name": "blackListedToken",
			"outputs": [
				{
					"internalType": "bool",
					"name": "",
					"type": "bool"
				}
			],
			"stateMutability": "view",
			"type": "function"
		},
		{
			"inputs": [
				{
					"internalType": "uint8",
					"name": "_vault",
					"type": "uint8"
				},
				{
					"internalType": "uint8",
					"name": "_assetID",
					"type": "uint8"
				}
			],
			"name": "deleteVault",
			"outputs": [],
			"stateMutability": "nonpayable",
			"type": "function"
		},
		{
			"inputs": [
				{
					"internalType": "uint32",
					"name": "_assetID",
					"type": "uint32"
				},
				{
					"internalType": "uint8",
					"name": "_vault",
					"type": "uint8"
				},
				{
					"internalType": "uint32",
					"name": "_lockperiod",
					"type": "uint32"
				}
			],
			"name": "extendLockPeriod",
			"outputs": [],
			"stateMutability": "nonpayable",
			"type": "function"
		},
		{
			"inputs": [],
			"name": "getContractETHBalance",
			"outputs": [
				{
					"internalType": "uint256",
					"name": "",
					"type": "uint256"
				}
			],
			"stateMutability": "view",
			"type": "function"
		},
		{
			"inputs": [
				{
					"internalType": "contract IERC20",
					"name": "token",
					"type": "address"
				}
			],
			"name": "getContractTokenBalance",
			"outputs": [
				{
					"internalType": "uint256",
					"name": "",
					"type": "uint256"
				}
			],
			"stateMutability": "view",
			"type": "function"
		},
		{
			"inputs": [
				{
					"internalType": "uint8",
					"name": "_vault",
					"type": "uint8"
				}
			],
			"name": "getUserLocks",
			"outputs": [
				{
					"components": [
						{
							"internalType": "address",
							"name": "token",
							"type": "address"
						},
						{
							"internalType": "uint256",
							"name": "amount",
							"type": "uint256"
						},
						{
							"internalType": "uint256",
							"name": "lockEndTime",
							"type": "uint256"
						},
						{
							"internalType": "string",
							"name": "title",
							"type": "string"
						},
						{
							"internalType": "bool",
							"name": "withdrawn",
							"type": "bool"
						},
						{
							"internalType": "bool",
							"name": "isNative",
							"type": "bool"
						}
					],
					"internalType": "struct Fvkry.Lock[]",
					"name": "",
					"type": "tuple[]"
				}
			],
			"stateMutability": "view",
			"type": "function"
		},
		{
			"inputs": [
				{
					"internalType": "uint8",
					"name": "_vault",
					"type": "uint8"
				},
				{
					"internalType": "uint32",
					"name": "_lockperiod",
					"type": "uint32"
				},
				{
					"internalType": "string",
					"name": "_title",
					"type": "string"
				}
			],
			"name": "lockETH",
			"outputs": [],
			"stateMutability": "payable",
			"type": "function"
		},
		{
			"inputs": [
				{
					"internalType": "contract IERC20",
					"name": "_token",
					"type": "address"
				},
				{
					"internalType": "uint256",
					"name": "_amount",
					"type": "uint256"
				},
				{
					"internalType": "uint8",
					"name": "_vault",
					"type": "uint8"
				},
				{
					"internalType": "uint256",
					"name": "_lockperiod",
					"type": "uint256"
				},
				{
					"internalType": "string",
					"name": "_title",
					"type": "string"
				}
			],
			"name": "lockToken",
			"outputs": [],
			"stateMutability": "nonpayable",
			"type": "function"
		},
		{
			"inputs": [],
			"name": "owner",
			"outputs": [
				{
					"internalType": "address",
					"name": "",
					"type": "address"
				}
			],
			"stateMutability": "view",
			"type": "function"
		},
		{
			"inputs": [],
			"name": "pauseContract",
			"outputs": [],
			"stateMutability": "nonpayable",
			"type": "function"
		},
		{
			"inputs": [],
			"name": "paused",
			"outputs": [
				{
					"internalType": "bool",
					"name": "",
					"type": "bool"
				}
			],
			"stateMutability": "view",
			"type": "function"
		},
		{
			"inputs": [
				{
					"internalType": "uint8",
					"name": "_vault",
					"type": "uint8"
				},
				{
					"internalType": "uint8",
					"name": "_assetID",
					"type": "uint8"
				},
				{
					"internalType": "string",
					"name": "_newTitle",
					"type": "string"
				}
			],
			"name": "renameVault",
			"outputs": [],
			"stateMutability": "nonpayable",
			"type": "function"
		},
		{
			"inputs": [],
			"name": "renounceOwnership",
			"outputs": [],
			"stateMutability": "nonpayable",
			"type": "function"
		},
		{
			"inputs": [
				{
					"internalType": "uint256",
					"name": "_amount",
					"type": "uint256"
				},
				{
					"internalType": "uint8",
					"name": "_fromVault",
					"type": "uint8"
				},
				{
					"internalType": "uint8",
					"name": "_fromAssetID",
					"type": "uint8"
				},
				{
					"internalType": "uint8",
					"name": "_toVault",
					"type": "uint8"
				},
				{
					"internalType": "uint8",
					"name": "_toAssetID",
					"type": "uint8"
				}
			],
			"name": "transferAsset",
			"outputs": [],
			"stateMutability": "nonpayable",
			"type": "function"
		},
		{
			"inputs": [
				{
					"internalType": "address",
					"name": "newOwner",
					"type": "address"
				}
			],
			"name": "transferOwnership",
			"outputs": [],
			"stateMutability": "nonpayable",
			"type": "function"
		},
		{
			"inputs": [
				{
					"internalType": "contract IERC20",
					"name": "_token",
					"type": "address"
				}
			],
			"name": "unBlackListToken",
			"outputs": [],
			"stateMutability": "nonpayable",
			"type": "function"
		},
		{
			"inputs": [],
			"name": "unPauseContract",
			"outputs": [],
			"stateMutability": "nonpayable",
			"type": "function"
		},
		{
			"inputs": [
				{
					"internalType": "address",
					"name": "",
					"type": "address"
				},
				{
					"internalType": "uint8",
					"name": "",
					"type": "uint8"
				},
				{
					"internalType": "uint256",
					"name": "",
					"type": "uint256"
				}
			],
			"name": "userLockedAssets",
			"outputs": [
				{
					"internalType": "address",
					"name": "token",
					"type": "address"
				},
				{
					"internalType": "uint256",
					"name": "amount",
					"type": "uint256"
				},
				{
					"internalType": "uint256",
					"name": "lockEndTime",
					"type": "uint256"
				},
				{
					"internalType": "string",
					"name": "title",
					"type": "string"
				},
				{
					"internalType": "bool",
					"name": "withdrawn",
					"type": "bool"
				},
				{
					"internalType": "bool",
					"name": "isNative",
					"type": "bool"
				}
			],
			"stateMutability": "view",
			"type": "function"
		},
		{
			"inputs": [
				{
					"internalType": "address",
					"name": "",
					"type": "address"
				},
				{
					"internalType": "uint8",
					"name": "",
					"type": "uint8"
				},
				{
					"internalType": "uint256",
					"name": "",
					"type": "uint256"
				}
			],
			"name": "userTransactions",
			"outputs": [
				{
					"internalType": "address",
					"name": "token",
					"type": "address"
				},
				{
					"internalType": "uint256",
					"name": "amount",
					"type": "uint256"
				},
				{
					"internalType": "string",
					"name": "title",
					"type": "string"
				},
				{
					"internalType": "bool",
					"name": "withdrawn",
					"type": "bool"
				},
				{
					"internalType": "uint256",
					"name": "timestamp",
					"type": "uint256"
				}
			],
			"stateMutability": "view",
			"type": "function"
		},
		{
			"inputs": [
				{
					"internalType": "uint32",
					"name": "_assetID",
					"type": "uint32"
				},
				{
					"internalType": "uint8",
					"name": "_vault",
					"type": "uint8"
				},
				{
					"internalType": "uint256",
					"name": "_amount",
					"type": "uint256"
				},
				{
					"internalType": "bool",
					"name": "_goalReachedByValue",
					"type": "bool"
				}
			],
			"name": "withdrawAsset",
			"outputs": [],
			"stateMutability": "nonpayable",
			"type": "function"
		}
	]
}